{
  "contractName": "AddressVerification",
  "abi": [
    {
      "constant": true,
      "inputs": [
        {
          "name": "",
          "type": "address"
        }
      ],
      "name": "address_codes",
      "outputs": [
        {
          "name": "",
          "type": "uint32"
        }
      ],
      "payable": false,
      "stateMutability": "view",
      "type": "function"
    },
    {
      "constant": true,
      "inputs": [
        {
          "name": "",
          "type": "address"
        }
      ],
      "name": "address_sent_status",
      "outputs": [
        {
          "name": "",
          "type": "bool"
        }
      ],
      "payable": false,
      "stateMutability": "view",
      "type": "function"
    },
    {
      "constant": false,
      "inputs": [
        {
          "name": "verificationCode",
          "type": "uint32"
        }
      ],
      "name": "verifyAddress",
      "outputs": [],
      "payable": false,
      "stateMutability": "nonpayable",
      "type": "function"
    }
  ],
  "bytecode": "0x608060405234801561001057600080fd5b506101d5806100206000396000f3006080604052600436106100565763ffffffff7c0100000000000000000000000000000000000000000000000000000000600035041663612f6c96811461005b5780638bb0949b146100a2578063edb9a6f1146100c2575b600080fd5b34801561006757600080fd5b5061008973ffffffffffffffffffffffffffffffffffffffff60043516610104565b6040805163ffffffff9092168252519081900360200190f35b3480156100ae57600080fd5b506100c063ffffffff6004351661011c565b005b3480156100ce57600080fd5b506100f073ffffffffffffffffffffffffffffffffffffffff60043516610194565b604080519115158252519081900360200190f35b60006020819052908152604090205463ffffffff1681565b3360009081526020818152604080832080547fffffffffffffffffffffffffffffffffffffffffffffffffffffffff000000001663ffffffff959095169490941790935560019081905291902080547fffffffffffffffffffffffffffffffffffffffffffffffffffffffffffffff00169091179055565b60016020526000908152604090205460ff16815600a165627a7a72305820a95f02701e2a699723f131cf68cc3ad60405e66737ffc4c6aabfbfaf8ed11cb80029",
  "source": "pragma solidity ^0.4.24;\n\ncontract AddressVerification {\n    // storage of codes provided by users\n    mapping (address => uint32) public address_codes;\n\n    // stores booleans indicating whetehr user sent a code\n    mapping (address => bool) public address_sent_status;\n\n    /* @dev Emits event for server to verify whether the message\n     * sender is a valid address.\n     */\n    function verifyAddress (uint32 verificationCode) public {\n        address_codes[msg.sender] = verificationCode;\n        address_sent_status[msg.sender] = true;\n    }\n}\n",
  "sourcePath": "/Users/tanishqaggarwal/Documents/carbon/fiat_gateway/contracts/AddressVerification.sol",
  "compiler": {
    "name": "solc",
    "version": "0.4.24+commit.e67f0147.Emscripten.clang"
  },
  "schemaVersion": "2.0.1",
  "updatedAt": "2018-08-13T20:26:48.467Z"
}