{
  "contractName": "AdminUpgradeabilityProxy",
  "abi": [
    {
      "inputs": [
        {
          "name": "_implementation",
          "type": "address"
        }
      ],
      "payable": false,
      "stateMutability": "nonpayable",
      "type": "constructor"
    },
    {
      "payable": true,
      "stateMutability": "payable",
      "type": "fallback"
    },
    {
      "anonymous": false,
      "inputs": [
        {
          "indexed": false,
          "name": "previousAdmin",
          "type": "address"
        },
        {
          "indexed": false,
          "name": "newAdmin",
          "type": "address"
        }
      ],
      "name": "AdminChanged",
      "type": "event"
    },
    {
      "anonymous": false,
      "inputs": [
        {
          "indexed": false,
          "name": "implementation",
          "type": "address"
        }
      ],
      "name": "Upgraded",
      "type": "event"
    },
    {
      "constant": true,
      "inputs": [],
      "name": "admin",
      "outputs": [
        {
          "name": "",
          "type": "address"
        }
      ],
      "payable": false,
      "stateMutability": "view",
      "type": "function"
    },
    {
      "constant": true,
      "inputs": [],
      "name": "implementation",
      "outputs": [
        {
          "name": "",
          "type": "address"
        }
      ],
      "payable": false,
      "stateMutability": "view",
      "type": "function"
    },
    {
      "constant": false,
      "inputs": [
        {
          "name": "newAdmin",
          "type": "address"
        }
      ],
      "name": "changeAdmin",
      "outputs": [],
      "payable": false,
      "stateMutability": "nonpayable",
      "type": "function"
    },
    {
      "constant": false,
      "inputs": [
        {
          "name": "newImplementation",
          "type": "address"
        }
      ],
      "name": "upgradeTo",
      "outputs": [],
      "payable": false,
      "stateMutability": "nonpayable",
      "type": "function"
    },
    {
      "constant": false,
      "inputs": [
        {
          "name": "implementation",
          "type": "address"
        },
        {
          "name": "data",
          "type": "bytes"
        }
      ],
      "name": "upgradeToAndCall",
      "outputs": [],
      "payable": true,
      "stateMutability": "payable",
      "type": "function"
    }
  ],
  "bytecode": "0x608060405234801561001057600080fd5b506040516020806108eb833981018060405281019080805190602001909291905050508060405180807f6f72672e7a657070656c696e6f732e70726f78792e696d706c656d656e74617481526020017f696f6e000000000000000000000000000000000000000000000000000000000081525060230190506040518091039020600019167f7050c9e0f4ca769c69bd3a8ef740bc37934f8e2c036e5a723fd8ee048ed3f8c3600102600019161415156100c557fe5b6100dd81610167640100000000026401000000009004565b5060405180807f6f72672e7a657070656c696e6f732e70726f78792e61646d696e000000000000815250601a0190506040518091039020600019167f10d6a54a4754c8869d6886b5f5d7fbfa5b4522237ea5c60d11bc4e7a1ff9390b6001026000191614151561014957fe5b610161336101bd640100000000026401000000009004565b506101ff565b6000610185826101ec6401000000000261069e176401000000009004565b151561019057600080fd5b7f7050c9e0f4ca769c69bd3a8ef740bc37934f8e2c036e5a723fd8ee048ed3f8c360010290508181555050565b60007f10d6a54a4754c8869d6886b5f5d7fbfa5b4522237ea5c60d11bc4e7a1ff9390b60010290508181555050565b600080823b905060008111915050919050565b6106dd8061020e6000396000f30060806040526004361061006d576000357c0100000000000000000000000000000000000000000000000000000000900463ffffffff1680633659cfe6146100775780634f1ef286146100ba5780635c60da1b146101085780638f2839701461015f578063f851a440146101a2575b6100756101f9565b005b34801561008357600080fd5b506100b8600480360381019080803573ffffffffffffffffffffffffffffffffffffffff169060200190929190505050610213565b005b610106600480360381019080803573ffffffffffffffffffffffffffffffffffffffff169060200190929190803590602001908201803590602001919091929391929390505050610268565b005b34801561011457600080fd5b5061011d610308565b604051808273ffffffffffffffffffffffffffffffffffffffff1673ffffffffffffffffffffffffffffffffffffffff16815260200191505060405180910390f35b34801561016b57600080fd5b506101a0600480360381019080803573ffffffffffffffffffffffffffffffffffffffff169060200190929190505050610360565b005b3480156101ae57600080fd5b506101b761048f565b604051808273ffffffffffffffffffffffffffffffffffffffff1673ffffffffffffffffffffffffffffffffffffffff16815260200191505060405180910390f35b6102016104e7565b61021161020c610533565b610564565b565b61021b61058a565b73ffffffffffffffffffffffffffffffffffffffff163373ffffffffffffffffffffffffffffffffffffffff16141561025c57610257816105bb565b610265565b6102646101f9565b5b50565b61027061058a565b73ffffffffffffffffffffffffffffffffffffffff163373ffffffffffffffffffffffffffffffffffffffff1614156102fa576102ac836105bb565b3073ffffffffffffffffffffffffffffffffffffffff163483836040518083838082843782019150509250505060006040518083038185875af19250505015156102f557600080fd5b610303565b6103026101f9565b5b505050565b600061031261058a565b73ffffffffffffffffffffffffffffffffffffffff163373ffffffffffffffffffffffffffffffffffffffff1614156103545761034d610533565b905061035d565b61035c6101f9565b5b90565b61036861058a565b73ffffffffffffffffffffffffffffffffffffffff163373ffffffffffffffffffffffffffffffffffffffff16141561048357600073ffffffffffffffffffffffffffffffffffffffff168173ffffffffffffffffffffffffffffffffffffffff16141515156103d757600080fd5b7f7e644d79422f17c01e4894b5f4f588d331ebfa28653d42ae832dc59e38c9798f61040061058a565b82604051808373ffffffffffffffffffffffffffffffffffffffff1673ffffffffffffffffffffffffffffffffffffffff1681526020018273ffffffffffffffffffffffffffffffffffffffff1673ffffffffffffffffffffffffffffffffffffffff1681526020019250505060405180910390a161047e8161062a565b61048c565b61048b6101f9565b5b50565b600061049961058a565b73ffffffffffffffffffffffffffffffffffffffff163373ffffffffffffffffffffffffffffffffffffffff1614156104db576104d461058a565b90506104e4565b6104e36101f9565b5b90565b6104ef61058a565b73ffffffffffffffffffffffffffffffffffffffff163373ffffffffffffffffffffffffffffffffffffffff161415151561052957600080fd5b610531610659565b565b6000807f7050c9e0f4ca769c69bd3a8ef740bc37934f8e2c036e5a723fd8ee048ed3f8c36001029050805491505090565b3660008037600080366000845af43d6000803e8060008114610585573d6000f35b3d6000fd5b6000807f10d6a54a4754c8869d6886b5f5d7fbfa5b4522237ea5c60d11bc4e7a1ff9390b6001029050805491505090565b6105c48161065b565b7fbc7cd75a20ee27fd9adebab32041f755214dbc6bffa90cc0225b39da2e5c2d3b81604051808273ffffffffffffffffffffffffffffffffffffffff1673ffffffffffffffffffffffffffffffffffffffff16815260200191505060405180910390a150565b60007f10d6a54a4754c8869d6886b5f5d7fbfa5b4522237ea5c60d11bc4e7a1ff9390b60010290508181555050565b565b60006106668261069e565b151561067157600080fd5b7f7050c9e0f4ca769c69bd3a8ef740bc37934f8e2c036e5a723fd8ee048ed3f8c360010290508181555050565b600080823b9050600081119150509190505600a165627a7a723058206608f3845deff4a7738e56fd3d3edfb3c3c6f8883a815324c2b6f81d9510eda40029",
  "source": "pragma solidity ^0.4.21;\n\nimport './UpgradeabilityProxy.sol';\n\n/**\n * @title AdminUpgradeabilityProxy\n * @dev This contract combines an upgradeability proxy with an authorization\n * mechanism for administrative tasks.\n * All external functions in this contract must be guarded by the\n * `ifAdmin` modifier. See ethereum/solidity#3864 for a Solidity\n * feature proposal that would enable this to be done automatically.\n */\ncontract AdminUpgradeabilityProxy is UpgradeabilityProxy {\n  /**\n   * @dev Emitted when the administration has been transferred.\n   * @param previousAdmin Address of the previous admin.\n   * @param newAdmin Address of the new admin.\n   */\n  event AdminChanged(address previousAdmin, address newAdmin);\n\n  /**\n   * @dev Storage slot with the admin of the contract.\n   * This is the keccak-256 hash of \"org.zeppelinos.proxy.admin\", and is\n   * validated in the constructor.\n   */\n  bytes32 private constant ADMIN_SLOT = 0x10d6a54a4754c8869d6886b5f5d7fbfa5b4522237ea5c60d11bc4e7a1ff9390b;\n\n  /**\n   * @dev Modifier to check whether the `msg.sender` is the admin.\n   * If it is, it will run the function. Otherwise, it will delegate the call\n   * to the implementation.\n   */\n  modifier ifAdmin() {\n    if (msg.sender == _admin()) {\n      _;\n    } else {\n      _fallback();\n    }\n  }\n\n  /**\n   * Contract constructor.\n   * It sets the `msg.sender` as the proxy administrator.\n   * @param _implementation address of the initial implementation.\n   */\n  function AdminUpgradeabilityProxy(address _implementation) UpgradeabilityProxy(_implementation) public {\n    assert(ADMIN_SLOT == keccak256(\"org.zeppelinos.proxy.admin\"));\n\n    _setAdmin(msg.sender);\n  }\n\n  /**\n   * @return The address of the proxy admin.\n   */\n  function admin() external view ifAdmin returns (address) {\n    return _admin();\n  }\n\n  /**\n   * @return The address of the implementation.\n   */\n  function implementation() external view ifAdmin returns (address) {\n    return _implementation();\n  }\n\n  /**\n   * @dev Changes the admin of the proxy.\n   * Only the current admin can call this function.\n   * @param newAdmin Address to transfer proxy administration to.\n   */\n  function changeAdmin(address newAdmin) external ifAdmin {\n    require(newAdmin != address(0));\n    emit AdminChanged(_admin(), newAdmin);\n    _setAdmin(newAdmin);\n  }\n\n  /**\n   * @dev Upgrade the backing implementation of the proxy.\n   * Only the admin can call this function.\n   * @param newImplementation Address of the new implementation.\n   */\n  function upgradeTo(address newImplementation) external ifAdmin {\n    _upgradeTo(newImplementation);\n  }\n\n  /**\n   * @dev Upgrade the backing implementation of the proxy and call a function\n   * on the new implementation.\n   * This is useful to initialize the proxied contract.\n   * @param implementation Address of the new implementation.\n   * @param data Data to send as msg.data in the low level call.\n   * It should include the signature and the parameters of the function to be\n   * called, as described in\n   * https://solidity.readthedocs.io/en/develop/abi-spec.html#function-selector-and-argument-encoding.\n   */\n  function upgradeToAndCall(address implementation, bytes data) payable external ifAdmin {\n    _upgradeTo(implementation);\n    require(address(this).call.value(msg.value)(data));\n  }\n\n  /**\n   * @return The admin slot.\n   */\n  function _admin() internal returns (address admin) {\n    bytes32 slot = ADMIN_SLOT;\n    assembly {\n      admin := sload(slot)\n    }\n  }\n\n  /**\n   * @dev Sets the address of the proxy admin.\n   * @param newAdmin Address of the new proxy admin.\n   */\n  function _setAdmin(address newAdmin) internal {\n    bytes32 slot = ADMIN_SLOT;\n\n    assembly {\n      sstore(slot, newAdmin)\n    }\n  }\n\n  /**\n   * @dev Only fall back when the sender is not the admin.\n   */\n  function _willFallback() internal {\n    require(msg.sender != _admin());\n    super._willFallback();\n  }\n}\n",
  "sourcePath": "zos-lib/contracts/upgradeability/AdminUpgradeabilityProxy.sol",
  "compiler": {
    "name": "solc",
    "version": "0.4.24+commit.e67f0147.Emscripten.clang"
  },
  "schemaVersion": "2.0.0",
  "updatedAt": "2018-07-10T20:14:48.157Z"
}