{
  "contractName": "AllowanceSheet",
  "abi": [
    {
      "constant": true,
      "inputs": [
        {
          "name": "",
          "type": "address"
        },
        {
          "name": "",
          "type": "address"
        }
      ],
      "name": "allowanceOf",
      "outputs": [
        {
          "name": "",
          "type": "uint256"
        }
      ],
      "payable": false,
      "stateMutability": "view",
      "type": "function"
    },
    {
      "constant": false,
      "inputs": [],
      "name": "renounceOwnership",
      "outputs": [],
      "payable": false,
      "stateMutability": "nonpayable",
      "type": "function"
    },
    {
      "constant": true,
      "inputs": [],
      "name": "owner",
      "outputs": [
        {
          "name": "",
          "type": "address"
        }
      ],
      "payable": false,
      "stateMutability": "view",
      "type": "function"
    },
    {
      "constant": false,
      "inputs": [
        {
          "name": "_newOwner",
          "type": "address"
        }
      ],
      "name": "transferOwnership",
      "outputs": [],
      "payable": false,
      "stateMutability": "nonpayable",
      "type": "function"
    },
    {
      "anonymous": false,
      "inputs": [
        {
          "indexed": true,
          "name": "previousOwner",
          "type": "address"
        }
      ],
      "name": "OwnershipRenounced",
      "type": "event"
    },
    {
      "anonymous": false,
      "inputs": [
        {
          "indexed": true,
          "name": "previousOwner",
          "type": "address"
        },
        {
          "indexed": true,
          "name": "newOwner",
          "type": "address"
        }
      ],
      "name": "OwnershipTransferred",
      "type": "event"
    },
    {
      "constant": false,
      "inputs": [
        {
          "name": "_tokenHolder",
          "type": "address"
        },
        {
          "name": "_spender",
          "type": "address"
        },
        {
          "name": "_value",
          "type": "uint256"
        }
      ],
      "name": "addAllowance",
      "outputs": [],
      "payable": false,
      "stateMutability": "nonpayable",
      "type": "function"
    },
    {
      "constant": false,
      "inputs": [
        {
          "name": "_tokenHolder",
          "type": "address"
        },
        {
          "name": "_spender",
          "type": "address"
        },
        {
          "name": "_value",
          "type": "uint256"
        }
      ],
      "name": "subAllowance",
      "outputs": [],
      "payable": false,
      "stateMutability": "nonpayable",
      "type": "function"
    },
    {
      "constant": false,
      "inputs": [
        {
          "name": "_tokenHolder",
          "type": "address"
        },
        {
          "name": "_spender",
          "type": "address"
        },
        {
          "name": "_value",
          "type": "uint256"
        }
      ],
      "name": "setAllowance",
      "outputs": [],
      "payable": false,
      "stateMutability": "nonpayable",
      "type": "function"
    }
  ],
  "bytecode": "0x608060405260008054600160a060020a03191633179055610558806100256000396000f3006080604052600436106100825763ffffffff7c01000000000000000000000000000000000000000000000000000000006000350416631a46ec8281146100875780635fd72d16146100cd578063715018a6146101065780638da5cb5b1461011b57806397d88cd214610159578063da46098c14610190578063f2fde38b146101c7575b600080fd5b34801561009357600080fd5b506100bb73ffffffffffffffffffffffffffffffffffffffff600435811690602435166101f5565b60408051918252519081900360200190f35b3480156100d957600080fd5b5061010473ffffffffffffffffffffffffffffffffffffffff60043581169060243516604435610212565b005b34801561011257600080fd5b506101046102b7565b34801561012757600080fd5b50610130610348565b6040805173ffffffffffffffffffffffffffffffffffffffff9092168252519081900360200190f35b34801561016557600080fd5b5061010473ffffffffffffffffffffffffffffffffffffffff60043581169060243516604435610364565b34801561019c57600080fd5b5061010473ffffffffffffffffffffffffffffffffffffffff600435811690602435166044356103cb565b3480156101d357600080fd5b5061010473ffffffffffffffffffffffffffffffffffffffff60043516610428565b600160209081526000928352604080842090915290825290205481565b60005473ffffffffffffffffffffffffffffffffffffffff16331461023657600080fd5b73ffffffffffffffffffffffffffffffffffffffff808416600090815260016020908152604080832093861683529290522054610279908263ffffffff61045816565b73ffffffffffffffffffffffffffffffffffffffff938416600090815260016020908152604080832095909616825293909352929091209190915550565b60005473ffffffffffffffffffffffffffffffffffffffff1633146102db57600080fd5b6000805460405173ffffffffffffffffffffffffffffffffffffffff909116917ff8df31144d9c2f0f6b59d69b8b98abd5459d07f2742c4df920b25aae33c6482091a2600080547fffffffffffffffffffffffff0000000000000000000000000000000000000000169055565b60005473ffffffffffffffffffffffffffffffffffffffff1681565b60005473ffffffffffffffffffffffffffffffffffffffff16331461038857600080fd5b73ffffffffffffffffffffffffffffffffffffffff808416600090815260016020908152604080832093861683529290522054610279908263ffffffff61046b16565b60005473ffffffffffffffffffffffffffffffffffffffff1633146103ef57600080fd5b73ffffffffffffffffffffffffffffffffffffffff92831660009081526001602090815260408083209490951682529290925291902055565b60005473ffffffffffffffffffffffffffffffffffffffff16331461044c57600080fd5b6104558161047d565b50565b8181018281101561046557fe5b92915050565b60008282111561047757fe5b50900390565b73ffffffffffffffffffffffffffffffffffffffff8116151561049f57600080fd5b6000805460405173ffffffffffffffffffffffffffffffffffffffff808516939216917f8be0079c531659141344cd1fd0a4f28419497f9722a3daafe3b4186f6b6457e091a3600080547fffffffffffffffffffffffff00000000000000000000000000000000000000001673ffffffffffffffffffffffffffffffffffffffff929092169190911790555600a165627a7a723058201912ee5242be9273382273e6b8b48f974aafc16ccad6fa30f4ce88cbb7ec80e60029",
  "source": "pragma solidity ^0.4.24;\n\nimport \"openzeppelin-solidity/contracts/math/SafeMath.sol\";\nimport \"openzeppelin-solidity/contracts/ownership/Ownable.sol\";\n\n\n/**\n* @title AllowanceSheet\n* @notice A wrapper around an allowance mapping. Slightly modified from a TrueUSD-provided contract of the same name.\n*/\ncontract AllowanceSheet is Ownable {\n    using SafeMath for uint256;\n\n    mapping (address => mapping (address => uint256)) public allowanceOf;\n\n    function addAllowance(address _tokenHolder, address _spender, uint256 _value) public onlyOwner {\n        allowanceOf[_tokenHolder][_spender] = allowanceOf[_tokenHolder][_spender].add(_value);\n    }\n\n    function subAllowance(address _tokenHolder, address _spender, uint256 _value) public onlyOwner {\n        allowanceOf[_tokenHolder][_spender] = allowanceOf[_tokenHolder][_spender].sub(_value);\n    }\n\n    function setAllowance(address _tokenHolder, address _spender, uint256 _value) public onlyOwner {\n        allowanceOf[_tokenHolder][_spender] = _value;\n    }\n}",
  "sourcePath": "/Users/tanishqaggarwal/Documents/carbon/fiat_gateway/contracts/tokens/permissionedToken/dataStorage/AllowanceSheet.sol",
  "compiler": {
    "name": "solc",
    "version": "0.4.24+commit.e67f0147.Emscripten.clang"
  },
  "schemaVersion": "2.0.1",
  "updatedAt": "2018-08-13T20:26:34.639Z"
}