{
  "contractName": "AllowanceSheet",
  "abi": [
    {
      "constant": true,
      "inputs": [
        {
          "name": "",
          "type": "address"
        },
        {
          "name": "",
          "type": "address"
        }
      ],
      "name": "allowanceOf",
      "outputs": [
        {
          "name": "",
          "type": "uint256"
        }
      ],
      "payable": false,
      "stateMutability": "view",
      "type": "function"
    },
    {
      "constant": false,
      "inputs": [],
      "name": "claimOwnership",
      "outputs": [],
      "payable": false,
      "stateMutability": "nonpayable",
      "type": "function"
    },
    {
      "constant": false,
      "inputs": [],
      "name": "renounceOwnership",
      "outputs": [],
      "payable": false,
      "stateMutability": "nonpayable",
      "type": "function"
    },
    {
      "constant": true,
      "inputs": [],
      "name": "owner",
      "outputs": [
        {
          "name": "",
          "type": "address"
        }
      ],
      "payable": false,
      "stateMutability": "view",
      "type": "function"
    },
    {
      "constant": true,
      "inputs": [],
      "name": "pendingOwner",
      "outputs": [
        {
          "name": "",
          "type": "address"
        }
      ],
      "payable": false,
      "stateMutability": "view",
      "type": "function"
    },
    {
      "constant": false,
      "inputs": [
        {
          "name": "newOwner",
          "type": "address"
        }
      ],
      "name": "transferOwnership",
      "outputs": [],
      "payable": false,
      "stateMutability": "nonpayable",
      "type": "function"
    },
    {
      "anonymous": false,
      "inputs": [
        {
          "indexed": true,
          "name": "previousOwner",
          "type": "address"
        }
      ],
      "name": "OwnershipRenounced",
      "type": "event"
    },
    {
      "anonymous": false,
      "inputs": [
        {
          "indexed": true,
          "name": "previousOwner",
          "type": "address"
        },
        {
          "indexed": true,
          "name": "newOwner",
          "type": "address"
        }
      ],
      "name": "OwnershipTransferred",
      "type": "event"
    },
    {
      "constant": false,
      "inputs": [
        {
          "name": "_tokenHolder",
          "type": "address"
        },
        {
          "name": "_spender",
          "type": "address"
        },
        {
          "name": "_value",
          "type": "uint256"
        }
      ],
      "name": "addAllowance",
      "outputs": [],
      "payable": false,
      "stateMutability": "nonpayable",
      "type": "function"
    },
    {
      "constant": false,
      "inputs": [
        {
          "name": "_tokenHolder",
          "type": "address"
        },
        {
          "name": "_spender",
          "type": "address"
        },
        {
          "name": "_value",
          "type": "uint256"
        }
      ],
      "name": "subAllowance",
      "outputs": [],
      "payable": false,
      "stateMutability": "nonpayable",
      "type": "function"
    },
    {
      "constant": false,
      "inputs": [
        {
          "name": "_tokenHolder",
          "type": "address"
        },
        {
          "name": "_spender",
          "type": "address"
        },
        {
          "name": "_value",
          "type": "uint256"
        }
      ],
      "name": "setAllowance",
      "outputs": [],
      "payable": false,
      "stateMutability": "nonpayable",
      "type": "function"
    }
  ],
  "bytecode": "0x608060405260008054600160a060020a031916331790556105fa806100256000396000f3006080604052600436106100985763ffffffff7c01000000000000000000000000000000000000000000000000000000006000350416631a46ec82811461009d5780634e71e0c8146100e35780635fd72d16146100fa578063715018a6146101315780638da5cb5b1461014657806397d88cd214610184578063da46098c146101bb578063e30c3978146101f2578063f2fde38b14610207575b600080fd5b3480156100a957600080fd5b506100d173ffffffffffffffffffffffffffffffffffffffff60043581169060243516610235565b60408051918252519081900360200190f35b3480156100ef57600080fd5b506100f8610252565b005b34801561010657600080fd5b506100f873ffffffffffffffffffffffffffffffffffffffff6004358116906024351660443561030c565b34801561013d57600080fd5b506100f86103b1565b34801561015257600080fd5b5061015b610442565b6040805173ffffffffffffffffffffffffffffffffffffffff9092168252519081900360200190f35b34801561019057600080fd5b506100f873ffffffffffffffffffffffffffffffffffffffff6004358116906024351660443561045e565b3480156101c757600080fd5b506100f873ffffffffffffffffffffffffffffffffffffffff600435811690602435166044356104c5565b3480156101fe57600080fd5b5061015b610522565b34801561021357600080fd5b506100f873ffffffffffffffffffffffffffffffffffffffff6004351661053e565b600260209081526000928352604080842090915290825290205481565b60015473ffffffffffffffffffffffffffffffffffffffff16331461027657600080fd5b6001546000805460405173ffffffffffffffffffffffffffffffffffffffff93841693909116917f8be0079c531659141344cd1fd0a4f28419497f9722a3daafe3b4186f6b6457e091a360018054600080547fffffffffffffffffffffffff000000000000000000000000000000000000000090811673ffffffffffffffffffffffffffffffffffffffff841617909155169055565b60005473ffffffffffffffffffffffffffffffffffffffff16331461033057600080fd5b73ffffffffffffffffffffffffffffffffffffffff808416600090815260026020908152604080832093861683529290522054610373908263ffffffff6105a916565b73ffffffffffffffffffffffffffffffffffffffff938416600090815260026020908152604080832095909616825293909352929091209190915550565b60005473ffffffffffffffffffffffffffffffffffffffff1633146103d557600080fd5b6000805460405173ffffffffffffffffffffffffffffffffffffffff909116917ff8df31144d9c2f0f6b59d69b8b98abd5459d07f2742c4df920b25aae33c6482091a2600080547fffffffffffffffffffffffff0000000000000000000000000000000000000000169055565b60005473ffffffffffffffffffffffffffffffffffffffff1681565b60005473ffffffffffffffffffffffffffffffffffffffff16331461048257600080fd5b73ffffffffffffffffffffffffffffffffffffffff808416600090815260026020908152604080832093861683529290522054610373908263ffffffff6105bc16565b60005473ffffffffffffffffffffffffffffffffffffffff1633146104e957600080fd5b73ffffffffffffffffffffffffffffffffffffffff92831660009081526002602090815260408083209490951682529290925291902055565b60015473ffffffffffffffffffffffffffffffffffffffff1681565b60005473ffffffffffffffffffffffffffffffffffffffff16331461056257600080fd5b600180547fffffffffffffffffffffffff00000000000000000000000000000000000000001673ffffffffffffffffffffffffffffffffffffffff92909216919091179055565b818101828110156105b657fe5b92915050565b6000828211156105c857fe5b509003905600a165627a7a72305820afc4b0cd8a65c70c62d8d121bd083a1769aa98634369f1eb0ac298dc9cb073260029",
  "source": "pragma solidity ^0.4.24;\r\n\r\nimport \"openzeppelin-solidity/contracts/math/SafeMath.sol\";\r\nimport \"openzeppelin-solidity/contracts/ownership/Claimable.sol\";\r\n\r\n\r\n/**\r\n* @title AllowanceSheet\r\n* @notice A wrapper around an allowance mapping. Slightly modified from a TrueUSD-provided contract of the same name.\r\n*/\r\ncontract AllowanceSheet is Claimable {\r\n    using SafeMath for uint256;\r\n\r\n    mapping (address => mapping (address => uint256)) public allowanceOf;\r\n\r\n    function addAllowance(address _tokenHolder, address _spender, uint256 _value) public onlyOwner {\r\n        allowanceOf[_tokenHolder][_spender] = allowanceOf[_tokenHolder][_spender].add(_value);\r\n    }\r\n\r\n    function subAllowance(address _tokenHolder, address _spender, uint256 _value) public onlyOwner {\r\n        allowanceOf[_tokenHolder][_spender] = allowanceOf[_tokenHolder][_spender].sub(_value);\r\n    }\r\n\r\n    function setAllowance(address _tokenHolder, address _spender, uint256 _value) public onlyOwner {\r\n        allowanceOf[_tokenHolder][_spender] = _value;\r\n    }\r\n}",
  "sourcePath": "C:\\Users\\npain\\Projects\\Carbon\\fiat_gateway\\contracts\\tokens\\permissionedToken\\dataStorage\\AllowanceSheet.sol",
  "compiler": {
    "name": "solc",
    "version": "0.4.24+commit.e67f0147.Emscripten.clang"
  },
  "schemaVersion": "2.0.1",
  "updatedAt": "2018-08-17T19:47:36.313Z"
}