{
  "contractName": "AllowanceSheet",
  "abi": [
    {
      "constant": true,
      "inputs": [
        {
          "name": "",
          "type": "address"
        },
        {
          "name": "",
          "type": "address"
        }
      ],
      "name": "allowanceOf",
      "outputs": [
        {
          "name": "",
          "type": "uint256"
        }
      ],
      "payable": false,
      "stateMutability": "view",
      "type": "function"
    },
    {
      "constant": false,
      "inputs": [],
      "name": "claimOwnership",
      "outputs": [],
      "payable": false,
      "stateMutability": "nonpayable",
      "type": "function"
    },
    {
      "constant": true,
      "inputs": [],
      "name": "owner",
      "outputs": [
        {
          "name": "",
          "type": "address"
        }
      ],
      "payable": false,
      "stateMutability": "view",
      "type": "function"
    },
    {
      "constant": true,
      "inputs": [],
      "name": "pendingOwner",
      "outputs": [
        {
          "name": "",
          "type": "address"
        }
      ],
      "payable": false,
      "stateMutability": "view",
      "type": "function"
    },
    {
      "constant": false,
      "inputs": [
        {
          "name": "_newOwner",
          "type": "address"
        }
      ],
      "name": "transferOwnership",
      "outputs": [],
      "payable": false,
      "stateMutability": "nonpayable",
      "type": "function"
    },
    {
      "anonymous": false,
      "inputs": [
        {
          "indexed": true,
          "name": "previousOwner",
          "type": "address"
        },
        {
          "indexed": true,
          "name": "newOwner",
          "type": "address"
        }
      ],
      "name": "OwnershipTransferred",
      "type": "event"
    },
    {
      "constant": false,
      "inputs": [
        {
          "name": "_tokenHolder",
          "type": "address"
        },
        {
          "name": "_spender",
          "type": "address"
        },
        {
          "name": "_value",
          "type": "uint256"
        }
      ],
      "name": "addAllowance",
      "outputs": [],
      "payable": false,
      "stateMutability": "nonpayable",
      "type": "function"
    },
    {
      "constant": false,
      "inputs": [
        {
          "name": "_tokenHolder",
          "type": "address"
        },
        {
          "name": "_spender",
          "type": "address"
        },
        {
          "name": "_value",
          "type": "uint256"
        }
      ],
      "name": "subAllowance",
      "outputs": [],
      "payable": false,
      "stateMutability": "nonpayable",
      "type": "function"
    },
    {
      "constant": false,
      "inputs": [
        {
          "name": "_tokenHolder",
          "type": "address"
        },
        {
          "name": "_spender",
          "type": "address"
        },
        {
          "name": "_value",
          "type": "uint256"
        }
      ],
      "name": "setAllowance",
      "outputs": [],
      "payable": false,
      "stateMutability": "nonpayable",
      "type": "function"
    }
  ],
  "bytecode": "0x608060405260008054600160a060020a0319908116331790915560018054909116905561056b806100316000396000f30060806040526004361061008d5763ffffffff7c01000000000000000000000000000000000000000000000000000000006000350416631a46ec8281146100925780634e71e0c8146100d85780635fd72d16146100ef5780638da5cb5b1461012657806397d88cd214610164578063da46098c1461019b578063e30c3978146101d2578063f2fde38b146101e7575b600080fd5b34801561009e57600080fd5b506100c673ffffffffffffffffffffffffffffffffffffffff60043581169060243516610215565b60408051918252519081900360200190f35b3480156100e457600080fd5b506100ed610232565b005b3480156100fb57600080fd5b506100ed73ffffffffffffffffffffffffffffffffffffffff600435811690602435166044356102ec565b34801561013257600080fd5b5061013b610391565b6040805173ffffffffffffffffffffffffffffffffffffffff9092168252519081900360200190f35b34801561017057600080fd5b506100ed73ffffffffffffffffffffffffffffffffffffffff600435811690602435166044356103ad565b3480156101a757600080fd5b506100ed73ffffffffffffffffffffffffffffffffffffffff60043581169060243516604435610414565b3480156101de57600080fd5b5061013b610471565b3480156101f357600080fd5b506100ed73ffffffffffffffffffffffffffffffffffffffff6004351661048d565b600260209081526000928352604080842090915290825290205481565b60015473ffffffffffffffffffffffffffffffffffffffff16331461025657600080fd5b6001546000805460405173ffffffffffffffffffffffffffffffffffffffff93841693909116917f8be0079c531659141344cd1fd0a4f28419497f9722a3daafe3b4186f6b6457e091a360018054600080547fffffffffffffffffffffffff000000000000000000000000000000000000000090811673ffffffffffffffffffffffffffffffffffffffff841617909155169055565b60005473ffffffffffffffffffffffffffffffffffffffff16331461031057600080fd5b73ffffffffffffffffffffffffffffffffffffffff808416600090815260026020908152604080832093861683529290522054610353908263ffffffff61051a16565b73ffffffffffffffffffffffffffffffffffffffff938416600090815260026020908152604080832095909616825293909352929091209190915550565b60005473ffffffffffffffffffffffffffffffffffffffff1681565b60005473ffffffffffffffffffffffffffffffffffffffff1633146103d157600080fd5b73ffffffffffffffffffffffffffffffffffffffff808416600090815260026020908152604080832093861683529290522054610353908263ffffffff61052d16565b60005473ffffffffffffffffffffffffffffffffffffffff16331461043857600080fd5b73ffffffffffffffffffffffffffffffffffffffff92831660009081526002602090815260408083209490951682529290925291902055565b60015473ffffffffffffffffffffffffffffffffffffffff1681565b60005473ffffffffffffffffffffffffffffffffffffffff1633146104b157600080fd5b73ffffffffffffffffffffffffffffffffffffffff811615156104d357600080fd5b600180547fffffffffffffffffffffffff00000000000000000000000000000000000000001673ffffffffffffffffffffffffffffffffffffffff92909216919091179055565b8181018281101561052757fe5b92915050565b60008282111561053957fe5b509003905600a165627a7a72305820fb07f0a3cb1e7f934f2e0a165929a6407aa73b4a375f5a5978250ca2d2d473660029",
  "source": "pragma solidity ^0.4.24;\r\n\r\nimport \"openzeppelin-solidity/contracts/math/SafeMath.sol\";\r\n// import \"openzeppelin-solidity/contracts/ownership/Claimable.sol\";\r\nimport '../../../helpers/Ownable.sol';\r\n\r\n/**\r\n* @title AllowanceSheet\r\n* @notice A wrapper around an allowance mapping. Slightly modified from a TrueUSD-provided contract of the same name.\r\n*/\r\ncontract AllowanceSheet is Ownable {\r\n    using SafeMath for uint256;\r\n\r\n    mapping (address => mapping (address => uint256)) public allowanceOf;\r\n\r\n    function addAllowance(address _tokenHolder, address _spender, uint256 _value) public onlyOwner {\r\n        allowanceOf[_tokenHolder][_spender] = allowanceOf[_tokenHolder][_spender].add(_value);\r\n    }\r\n\r\n    function subAllowance(address _tokenHolder, address _spender, uint256 _value) public onlyOwner {\r\n        allowanceOf[_tokenHolder][_spender] = allowanceOf[_tokenHolder][_spender].sub(_value);\r\n    }\r\n\r\n    function setAllowance(address _tokenHolder, address _spender, uint256 _value) public onlyOwner {\r\n        allowanceOf[_tokenHolder][_spender] = _value;\r\n    }\r\n}",
  "sourcePath": "C:\\Users\\npain\\Projects\\Carbon\\fiat_gateway\\contracts\\tokens\\permissionedToken\\dataStorage\\AllowanceSheet.sol",
  "compiler": {
    "name": "solc",
    "version": "0.4.24+commit.e67f0147.Emscripten.clang"
  },
  "schemaVersion": "2.0.1",
  "updatedAt": "2018-08-18T15:48:20.685Z"
}