{
  "contractName": "BalanceSheet",
  "abi": [
    {
      "constant": true,
      "inputs": [],
      "name": "totalSupply",
      "outputs": [
        {
          "name": "",
          "type": "uint256"
        }
      ],
      "payable": false,
      "stateMutability": "view",
      "type": "function"
    },
    {
      "constant": false,
      "inputs": [],
      "name": "claimOwnership",
      "outputs": [],
      "payable": false,
      "stateMutability": "nonpayable",
      "type": "function"
    },
    {
      "constant": true,
      "inputs": [
        {
          "name": "",
          "type": "address"
        }
      ],
      "name": "balanceOf",
      "outputs": [
        {
          "name": "",
          "type": "uint256"
        }
      ],
      "payable": false,
      "stateMutability": "view",
      "type": "function"
    },
    {
      "constant": true,
      "inputs": [],
      "name": "owner",
      "outputs": [
        {
          "name": "",
          "type": "address"
        }
      ],
      "payable": false,
      "stateMutability": "view",
      "type": "function"
    },
    {
      "constant": true,
      "inputs": [],
      "name": "pendingOwner",
      "outputs": [
        {
          "name": "",
          "type": "address"
        }
      ],
      "payable": false,
      "stateMutability": "view",
      "type": "function"
    },
    {
      "constant": false,
      "inputs": [
        {
          "name": "_newOwner",
          "type": "address"
        }
      ],
      "name": "transferOwnership",
      "outputs": [],
      "payable": false,
      "stateMutability": "nonpayable",
      "type": "function"
    },
    {
      "anonymous": false,
      "inputs": [
        {
          "indexed": true,
          "name": "previousOwner",
          "type": "address"
        },
        {
          "indexed": true,
          "name": "newOwner",
          "type": "address"
        }
      ],
      "name": "OwnershipTransferred",
      "type": "event"
    },
    {
      "constant": false,
      "inputs": [
        {
          "name": "_addr",
          "type": "address"
        },
        {
          "name": "_value",
          "type": "uint256"
        }
      ],
      "name": "addBalance",
      "outputs": [],
      "payable": false,
      "stateMutability": "nonpayable",
      "type": "function"
    },
    {
      "constant": false,
      "inputs": [
        {
          "name": "_addr",
          "type": "address"
        },
        {
          "name": "_value",
          "type": "uint256"
        }
      ],
      "name": "subBalance",
      "outputs": [],
      "payable": false,
      "stateMutability": "nonpayable",
      "type": "function"
    },
    {
      "constant": false,
      "inputs": [
        {
          "name": "_addr",
          "type": "address"
        },
        {
          "name": "_value",
          "type": "uint256"
        }
      ],
      "name": "setBalance",
      "outputs": [],
      "payable": false,
      "stateMutability": "nonpayable",
      "type": "function"
    },
    {
      "constant": false,
      "inputs": [
        {
          "name": "_value",
          "type": "uint256"
        }
      ],
      "name": "addTotalSupply",
      "outputs": [],
      "payable": false,
      "stateMutability": "nonpayable",
      "type": "function"
    },
    {
      "constant": false,
      "inputs": [
        {
          "name": "_value",
          "type": "uint256"
        }
      ],
      "name": "subTotalSupply",
      "outputs": [],
      "payable": false,
      "stateMutability": "nonpayable",
      "type": "function"
    },
    {
      "constant": false,
      "inputs": [
        {
          "name": "_value",
          "type": "uint256"
        }
      ],
      "name": "setTotalSupply",
      "outputs": [],
      "payable": false,
      "stateMutability": "nonpayable",
      "type": "function"
    }
  ],
  "bytecode": "0x608060405260008054600160a060020a03199081163317909155600180549091169055610639806100316000396000f3006080604052600436106100b95763ffffffff7c010000000000000000000000000000000000000000000000000000000060003504166318160ddd81146100be57806321e5383a146100e55780634e71e0c81461011857806370a082311461012d57806382838c761461015b5780638da5cb5b14610173578063cf8eeb7e146101b1578063e30443bc146101e2578063e30c397814610213578063e468688e14610228578063f2fde38b14610240578063f7ea7a3d1461026e575b600080fd5b3480156100ca57600080fd5b506100d3610286565b60408051918252519081900360200190f35b3480156100f157600080fd5b5061011673ffffffffffffffffffffffffffffffffffffffff6004351660243561028c565b005b34801561012457600080fd5b50610116610313565b34801561013957600080fd5b506100d373ffffffffffffffffffffffffffffffffffffffff600435166103cd565b34801561016757600080fd5b506101166004356103df565b34801561017f57600080fd5b5061018861041c565b6040805173ffffffffffffffffffffffffffffffffffffffff9092168252519081900360200190f35b3480156101bd57600080fd5b5061011673ffffffffffffffffffffffffffffffffffffffff60043516602435610438565b3480156101ee57600080fd5b5061011673ffffffffffffffffffffffffffffffffffffffff60043516602435610492565b34801561021f57600080fd5b506101886104df565b34801561023457600080fd5b506101166004356104fb565b34801561024c57600080fd5b5061011673ffffffffffffffffffffffffffffffffffffffff60043516610532565b34801561027a57600080fd5b506101166004356105bf565b60035481565b60005473ffffffffffffffffffffffffffffffffffffffff1633146102b057600080fd5b73ffffffffffffffffffffffffffffffffffffffff82166000908152600260205260409020546102e6908263ffffffff6105e816565b73ffffffffffffffffffffffffffffffffffffffff90921660009081526002602052604090209190915550565b60015473ffffffffffffffffffffffffffffffffffffffff16331461033757600080fd5b6001546000805460405173ffffffffffffffffffffffffffffffffffffffff93841693909116917f8be0079c531659141344cd1fd0a4f28419497f9722a3daafe3b4186f6b6457e091a360018054600080547fffffffffffffffffffffffff000000000000000000000000000000000000000090811673ffffffffffffffffffffffffffffffffffffffff841617909155169055565b60026020526000908152604090205481565b60005473ffffffffffffffffffffffffffffffffffffffff16331461040357600080fd5b600354610416908263ffffffff6105fb16565b60035550565b60005473ffffffffffffffffffffffffffffffffffffffff1681565b60005473ffffffffffffffffffffffffffffffffffffffff16331461045c57600080fd5b73ffffffffffffffffffffffffffffffffffffffff82166000908152600260205260409020546102e6908263ffffffff6105fb16565b60005473ffffffffffffffffffffffffffffffffffffffff1633146104b657600080fd5b73ffffffffffffffffffffffffffffffffffffffff909116600090815260026020526040902055565b60015473ffffffffffffffffffffffffffffffffffffffff1681565b60005473ffffffffffffffffffffffffffffffffffffffff16331461051f57600080fd5b600354610416908263ffffffff6105e816565b60005473ffffffffffffffffffffffffffffffffffffffff16331461055657600080fd5b73ffffffffffffffffffffffffffffffffffffffff8116151561057857600080fd5b600180547fffffffffffffffffffffffff00000000000000000000000000000000000000001673ffffffffffffffffffffffffffffffffffffffff92909216919091179055565b60005473ffffffffffffffffffffffffffffffffffffffff1633146105e357600080fd5b600355565b818101828110156105f557fe5b92915050565b60008282111561060757fe5b509003905600a165627a7a72305820db33b66c42814fa4fedb1b9d9dd9aeced5e949e6da5de3bf961a28b28e1b41ee0029",
  "source": "pragma solidity ^0.4.24;\r\n\r\nimport \"openzeppelin-solidity/contracts/math/SafeMath.sol\";\r\n// import \"openzeppelin-solidity/contracts/ownership/Claimable.sol\";\r\nimport '../../../helpers/Ownable.sol';\r\n\r\n/**\r\n* @title AllowanceSheet\r\n* @notice A wrapper around the balanceOf mapping. Slightly modified from a TrueUSD-provided contract of the same name.\r\n*/\r\ncontract BalanceSheet is Ownable {\r\n    using SafeMath for uint256;\r\n\r\n    mapping (address => uint256) public balanceOf;\r\n    uint256 public totalSupply;\r\n\r\n    function addBalance(address _addr, uint256 _value) public onlyOwner {\r\n        balanceOf[_addr] = balanceOf[_addr].add(_value);\r\n    }\r\n\r\n    function subBalance(address _addr, uint256 _value) public onlyOwner {\r\n        balanceOf[_addr] = balanceOf[_addr].sub(_value);\r\n    }\r\n\r\n    function setBalance(address _addr, uint256 _value) public onlyOwner {\r\n        balanceOf[_addr] = _value;\r\n    }\r\n\r\n    function addTotalSupply(uint256 _value) public onlyOwner {\r\n        totalSupply = totalSupply.add(_value);\r\n    }\r\n\r\n    function subTotalSupply(uint256 _value) public onlyOwner {\r\n        totalSupply = totalSupply.sub(_value);\r\n    }\r\n\r\n    function setTotalSupply(uint256 _value) public onlyOwner {\r\n        totalSupply = _value;\r\n    }\r\n}",
  "sourcePath": "C:\\Users\\npain\\Projects\\Carbon\\fiat_gateway\\contracts\\tokens\\permissionedToken\\dataStorage\\BalanceSheet.sol",
  "compiler": {
    "name": "solc",
    "version": "0.4.24+commit.e67f0147.Emscripten.clang"
  },
  "schemaVersion": "2.0.1",
  "updatedAt": "2018-08-18T15:48:20.685Z"
}