{
  "contractName": "BalanceSheet",
  "abi": [
    {
      "constant": true,
      "inputs": [],
      "name": "totalSupply",
      "outputs": [
        {
          "name": "",
          "type": "uint256"
        }
      ],
      "payable": false,
      "stateMutability": "view",
      "type": "function"
    },
    {
      "constant": true,
      "inputs": [
        {
          "name": "",
          "type": "address"
        }
      ],
      "name": "balanceOf",
      "outputs": [
        {
          "name": "",
          "type": "uint256"
        }
      ],
      "payable": false,
      "stateMutability": "view",
      "type": "function"
    },
    {
      "constant": false,
      "inputs": [],
      "name": "renounceOwnership",
      "outputs": [],
      "payable": false,
      "stateMutability": "nonpayable",
      "type": "function"
    },
    {
      "constant": true,
      "inputs": [],
      "name": "owner",
      "outputs": [
        {
          "name": "",
          "type": "address"
        }
      ],
      "payable": false,
      "stateMutability": "view",
      "type": "function"
    },
    {
      "constant": false,
      "inputs": [
        {
          "name": "_newOwner",
          "type": "address"
        }
      ],
      "name": "transferOwnership",
      "outputs": [],
      "payable": false,
      "stateMutability": "nonpayable",
      "type": "function"
    },
    {
      "anonymous": false,
      "inputs": [
        {
          "indexed": true,
          "name": "previousOwner",
          "type": "address"
        }
      ],
      "name": "OwnershipRenounced",
      "type": "event"
    },
    {
      "anonymous": false,
      "inputs": [
        {
          "indexed": true,
          "name": "previousOwner",
          "type": "address"
        },
        {
          "indexed": true,
          "name": "newOwner",
          "type": "address"
        }
      ],
      "name": "OwnershipTransferred",
      "type": "event"
    },
    {
      "constant": false,
      "inputs": [
        {
          "name": "_addr",
          "type": "address"
        },
        {
          "name": "_value",
          "type": "uint256"
        }
      ],
      "name": "addBalance",
      "outputs": [],
      "payable": false,
      "stateMutability": "nonpayable",
      "type": "function"
    },
    {
      "constant": false,
      "inputs": [
        {
          "name": "_addr",
          "type": "address"
        },
        {
          "name": "_value",
          "type": "uint256"
        }
      ],
      "name": "subBalance",
      "outputs": [],
      "payable": false,
      "stateMutability": "nonpayable",
      "type": "function"
    },
    {
      "constant": false,
      "inputs": [
        {
          "name": "_addr",
          "type": "address"
        },
        {
          "name": "_value",
          "type": "uint256"
        }
      ],
      "name": "setBalance",
      "outputs": [],
      "payable": false,
      "stateMutability": "nonpayable",
      "type": "function"
    },
    {
      "constant": false,
      "inputs": [
        {
          "name": "_value",
          "type": "uint256"
        }
      ],
      "name": "addTotalSupply",
      "outputs": [],
      "payable": false,
      "stateMutability": "nonpayable",
      "type": "function"
    },
    {
      "constant": false,
      "inputs": [
        {
          "name": "_value",
          "type": "uint256"
        }
      ],
      "name": "subTotalSupply",
      "outputs": [],
      "payable": false,
      "stateMutability": "nonpayable",
      "type": "function"
    },
    {
      "constant": false,
      "inputs": [
        {
          "name": "_value",
          "type": "uint256"
        }
      ],
      "name": "setTotalSupply",
      "outputs": [],
      "payable": false,
      "stateMutability": "nonpayable",
      "type": "function"
    }
  ],
  "bytecode": "0x608060405260008054600160a060020a03191633179055610626806100256000396000f3006080604052600436106100ae5763ffffffff7c010000000000000000000000000000000000000000000000000000000060003504166318160ddd81146100b357806321e5383a146100da57806370a082311461010d578063715018a61461013b57806382838c76146101505780638da5cb5b14610168578063cf8eeb7e146101a6578063e30443bc146101d7578063e468688e14610208578063f2fde38b14610220578063f7ea7a3d1461024e575b600080fd5b3480156100bf57600080fd5b506100c8610266565b60408051918252519081900360200190f35b3480156100e657600080fd5b5061010b73ffffffffffffffffffffffffffffffffffffffff6004351660243561026c565b005b34801561011957600080fd5b506100c873ffffffffffffffffffffffffffffffffffffffff600435166102f3565b34801561014757600080fd5b5061010b610305565b34801561015c57600080fd5b5061010b600435610396565b34801561017457600080fd5b5061017d6103d3565b6040805173ffffffffffffffffffffffffffffffffffffffff9092168252519081900360200190f35b3480156101b257600080fd5b5061010b73ffffffffffffffffffffffffffffffffffffffff600435166024356103ef565b3480156101e357600080fd5b5061010b73ffffffffffffffffffffffffffffffffffffffff60043516602435610449565b34801561021457600080fd5b5061010b600435610496565b34801561022c57600080fd5b5061010b73ffffffffffffffffffffffffffffffffffffffff600435166104cd565b34801561025a57600080fd5b5061010b6004356104fd565b60025481565b60005473ffffffffffffffffffffffffffffffffffffffff16331461029057600080fd5b73ffffffffffffffffffffffffffffffffffffffff82166000908152600160205260409020546102c6908263ffffffff61052616565b73ffffffffffffffffffffffffffffffffffffffff90921660009081526001602052604090209190915550565b60016020526000908152604090205481565b60005473ffffffffffffffffffffffffffffffffffffffff16331461032957600080fd5b6000805460405173ffffffffffffffffffffffffffffffffffffffff909116917ff8df31144d9c2f0f6b59d69b8b98abd5459d07f2742c4df920b25aae33c6482091a2600080547fffffffffffffffffffffffff0000000000000000000000000000000000000000169055565b60005473ffffffffffffffffffffffffffffffffffffffff1633146103ba57600080fd5b6002546103cd908263ffffffff61053916565b60025550565b60005473ffffffffffffffffffffffffffffffffffffffff1681565b60005473ffffffffffffffffffffffffffffffffffffffff16331461041357600080fd5b73ffffffffffffffffffffffffffffffffffffffff82166000908152600160205260409020546102c6908263ffffffff61053916565b60005473ffffffffffffffffffffffffffffffffffffffff16331461046d57600080fd5b73ffffffffffffffffffffffffffffffffffffffff909116600090815260016020526040902055565b60005473ffffffffffffffffffffffffffffffffffffffff1633146104ba57600080fd5b6002546103cd908263ffffffff61052616565b60005473ffffffffffffffffffffffffffffffffffffffff1633146104f157600080fd5b6104fa8161054b565b50565b60005473ffffffffffffffffffffffffffffffffffffffff16331461052157600080fd5b600255565b8181018281101561053357fe5b92915050565b60008282111561054557fe5b50900390565b73ffffffffffffffffffffffffffffffffffffffff8116151561056d57600080fd5b6000805460405173ffffffffffffffffffffffffffffffffffffffff808516939216917f8be0079c531659141344cd1fd0a4f28419497f9722a3daafe3b4186f6b6457e091a3600080547fffffffffffffffffffffffff00000000000000000000000000000000000000001673ffffffffffffffffffffffffffffffffffffffff929092169190911790555600a165627a7a72305820a2a206c7fc1978e43c0a46e3a6f3b38fec260fa861229c815776d0e4841e47260029",
  "source": "pragma solidity ^0.4.24;\r\n\r\nimport \"openzeppelin-solidity/contracts/math/SafeMath.sol\";\r\nimport \"openzeppelin-solidity/contracts/ownership/Ownable.sol\";\r\n\r\n/**\r\n* @title AllowanceSheet\r\n* @notice A wrapper around the balanceOf mapping. Slightly modified from a TrueUSD-provided contract of the same name.\r\n*/\r\ncontract BalanceSheet is Ownable {\r\n    using SafeMath for uint256;\r\n\r\n    mapping (address => uint256) public balanceOf;\r\n    uint256 public totalSupply;\r\n\r\n    function addBalance(address _addr, uint256 _value) public onlyOwner {\r\n        balanceOf[_addr] = balanceOf[_addr].add(_value);\r\n    }\r\n\r\n    function subBalance(address _addr, uint256 _value) public onlyOwner {\r\n        balanceOf[_addr] = balanceOf[_addr].sub(_value);\r\n    }\r\n\r\n    function setBalance(address _addr, uint256 _value) public onlyOwner {\r\n        balanceOf[_addr] = _value;\r\n    }\r\n\r\n    function addTotalSupply(uint256 _value) public onlyOwner {\r\n        totalSupply = totalSupply.add(_value);\r\n    }\r\n\r\n    function subTotalSupply(uint256 _value) public onlyOwner {\r\n        totalSupply = totalSupply.sub(_value);\r\n    }\r\n\r\n    function setTotalSupply(uint256 _value) public onlyOwner {\r\n        totalSupply = _value;\r\n    }\r\n}",
  "sourcePath": "C:\\Users\\npain\\Projects\\Carbon\\fiat_gateway\\contracts\\tokens\\permissionedToken\\dataStorage\\BalanceSheet.sol",
  "compiler": {
    "name": "solc",
    "version": "0.4.24+commit.e67f0147.Emscripten.clang"
  },
  "schemaVersion": "2.0.1",
  "updatedAt": "2018-08-17T17:50:39.522Z"
}