{
  "contractName": "BalanceSheet",
  "abi": [
    {
      "constant": true,
      "inputs": [],
      "name": "totalSupply",
      "outputs": [
        {
          "name": "",
          "type": "uint256"
        }
      ],
      "payable": false,
      "stateMutability": "view",
      "type": "function"
    },
    {
      "constant": false,
      "inputs": [],
      "name": "claimOwnership",
      "outputs": [],
      "payable": false,
      "stateMutability": "nonpayable",
      "type": "function"
    },
    {
      "constant": true,
      "inputs": [
        {
          "name": "",
          "type": "address"
        }
      ],
      "name": "balanceOf",
      "outputs": [
        {
          "name": "",
          "type": "uint256"
        }
      ],
      "payable": false,
      "stateMutability": "view",
      "type": "function"
    },
    {
      "constant": false,
      "inputs": [],
      "name": "renounceOwnership",
      "outputs": [],
      "payable": false,
      "stateMutability": "nonpayable",
      "type": "function"
    },
    {
      "constant": true,
      "inputs": [],
      "name": "owner",
      "outputs": [
        {
          "name": "",
          "type": "address"
        }
      ],
      "payable": false,
      "stateMutability": "view",
      "type": "function"
    },
    {
      "constant": true,
      "inputs": [],
      "name": "pendingOwner",
      "outputs": [
        {
          "name": "",
          "type": "address"
        }
      ],
      "payable": false,
      "stateMutability": "view",
      "type": "function"
    },
    {
      "constant": false,
      "inputs": [
        {
          "name": "newOwner",
          "type": "address"
        }
      ],
      "name": "transferOwnership",
      "outputs": [],
      "payable": false,
      "stateMutability": "nonpayable",
      "type": "function"
    },
    {
      "anonymous": false,
      "inputs": [
        {
          "indexed": true,
          "name": "previousOwner",
          "type": "address"
        }
      ],
      "name": "OwnershipRenounced",
      "type": "event"
    },
    {
      "anonymous": false,
      "inputs": [
        {
          "indexed": true,
          "name": "previousOwner",
          "type": "address"
        },
        {
          "indexed": true,
          "name": "newOwner",
          "type": "address"
        }
      ],
      "name": "OwnershipTransferred",
      "type": "event"
    },
    {
      "constant": false,
      "inputs": [
        {
          "name": "_addr",
          "type": "address"
        },
        {
          "name": "_value",
          "type": "uint256"
        }
      ],
      "name": "addBalance",
      "outputs": [],
      "payable": false,
      "stateMutability": "nonpayable",
      "type": "function"
    },
    {
      "constant": false,
      "inputs": [
        {
          "name": "_addr",
          "type": "address"
        },
        {
          "name": "_value",
          "type": "uint256"
        }
      ],
      "name": "subBalance",
      "outputs": [],
      "payable": false,
      "stateMutability": "nonpayable",
      "type": "function"
    },
    {
      "constant": false,
      "inputs": [
        {
          "name": "_addr",
          "type": "address"
        },
        {
          "name": "_value",
          "type": "uint256"
        }
      ],
      "name": "setBalance",
      "outputs": [],
      "payable": false,
      "stateMutability": "nonpayable",
      "type": "function"
    },
    {
      "constant": false,
      "inputs": [
        {
          "name": "_value",
          "type": "uint256"
        }
      ],
      "name": "addTotalSupply",
      "outputs": [],
      "payable": false,
      "stateMutability": "nonpayable",
      "type": "function"
    },
    {
      "constant": false,
      "inputs": [
        {
          "name": "_value",
          "type": "uint256"
        }
      ],
      "name": "subTotalSupply",
      "outputs": [],
      "payable": false,
      "stateMutability": "nonpayable",
      "type": "function"
    },
    {
      "constant": false,
      "inputs": [
        {
          "name": "_value",
          "type": "uint256"
        }
      ],
      "name": "setTotalSupply",
      "outputs": [],
      "payable": false,
      "stateMutability": "nonpayable",
      "type": "function"
    }
  ],
  "bytecode": "0x608060405260008054600160a060020a031916331790556106c8806100256000396000f3006080604052600436106100c45763ffffffff7c010000000000000000000000000000000000000000000000000000000060003504166318160ddd81146100c957806321e5383a146100f05780634e71e0c81461012357806370a0823114610138578063715018a61461016657806382838c761461017b5780638da5cb5b14610193578063cf8eeb7e146101d1578063e30443bc14610202578063e30c397814610233578063e468688e14610248578063f2fde38b14610260578063f7ea7a3d1461028e575b600080fd5b3480156100d557600080fd5b506100de6102a6565b60408051918252519081900360200190f35b3480156100fc57600080fd5b5061012173ffffffffffffffffffffffffffffffffffffffff600435166024356102ac565b005b34801561012f57600080fd5b50610121610333565b34801561014457600080fd5b506100de73ffffffffffffffffffffffffffffffffffffffff600435166103ed565b34801561017257600080fd5b506101216103ff565b34801561018757600080fd5b50610121600435610490565b34801561019f57600080fd5b506101a86104cd565b6040805173ffffffffffffffffffffffffffffffffffffffff9092168252519081900360200190f35b3480156101dd57600080fd5b5061012173ffffffffffffffffffffffffffffffffffffffff600435166024356104e9565b34801561020e57600080fd5b5061012173ffffffffffffffffffffffffffffffffffffffff60043516602435610543565b34801561023f57600080fd5b506101a8610590565b34801561025457600080fd5b506101216004356105ac565b34801561026c57600080fd5b5061012173ffffffffffffffffffffffffffffffffffffffff600435166105e3565b34801561029a57600080fd5b5061012160043561064e565b60035481565b60005473ffffffffffffffffffffffffffffffffffffffff1633146102d057600080fd5b73ffffffffffffffffffffffffffffffffffffffff8216600090815260026020526040902054610306908263ffffffff61067716565b73ffffffffffffffffffffffffffffffffffffffff90921660009081526002602052604090209190915550565b60015473ffffffffffffffffffffffffffffffffffffffff16331461035757600080fd5b6001546000805460405173ffffffffffffffffffffffffffffffffffffffff93841693909116917f8be0079c531659141344cd1fd0a4f28419497f9722a3daafe3b4186f6b6457e091a360018054600080547fffffffffffffffffffffffff000000000000000000000000000000000000000090811673ffffffffffffffffffffffffffffffffffffffff841617909155169055565b60026020526000908152604090205481565b60005473ffffffffffffffffffffffffffffffffffffffff16331461042357600080fd5b6000805460405173ffffffffffffffffffffffffffffffffffffffff909116917ff8df31144d9c2f0f6b59d69b8b98abd5459d07f2742c4df920b25aae33c6482091a2600080547fffffffffffffffffffffffff0000000000000000000000000000000000000000169055565b60005473ffffffffffffffffffffffffffffffffffffffff1633146104b457600080fd5b6003546104c7908263ffffffff61068a16565b60035550565b60005473ffffffffffffffffffffffffffffffffffffffff1681565b60005473ffffffffffffffffffffffffffffffffffffffff16331461050d57600080fd5b73ffffffffffffffffffffffffffffffffffffffff8216600090815260026020526040902054610306908263ffffffff61068a16565b60005473ffffffffffffffffffffffffffffffffffffffff16331461056757600080fd5b73ffffffffffffffffffffffffffffffffffffffff909116600090815260026020526040902055565b60015473ffffffffffffffffffffffffffffffffffffffff1681565b60005473ffffffffffffffffffffffffffffffffffffffff1633146105d057600080fd5b6003546104c7908263ffffffff61067716565b60005473ffffffffffffffffffffffffffffffffffffffff16331461060757600080fd5b600180547fffffffffffffffffffffffff00000000000000000000000000000000000000001673ffffffffffffffffffffffffffffffffffffffff92909216919091179055565b60005473ffffffffffffffffffffffffffffffffffffffff16331461067257600080fd5b600355565b8181018281101561068457fe5b92915050565b60008282111561069657fe5b509003905600a165627a7a723058209426310e83980701bcff56957d0d6a5f521d596ec78e233650ccf34922ef8f6f0029",
  "source": "pragma solidity ^0.4.24;\r\n\r\nimport \"openzeppelin-solidity/contracts/math/SafeMath.sol\";\r\nimport \"openzeppelin-solidity/contracts/ownership/Claimable.sol\";\r\n\r\n/**\r\n* @title AllowanceSheet\r\n* @notice A wrapper around the balanceOf mapping. Slightly modified from a TrueUSD-provided contract of the same name.\r\n*/\r\ncontract BalanceSheet is Claimable {\r\n    using SafeMath for uint256;\r\n\r\n    mapping (address => uint256) public balanceOf;\r\n    uint256 public totalSupply;\r\n\r\n    function addBalance(address _addr, uint256 _value) public onlyOwner {\r\n        balanceOf[_addr] = balanceOf[_addr].add(_value);\r\n    }\r\n\r\n    function subBalance(address _addr, uint256 _value) public onlyOwner {\r\n        balanceOf[_addr] = balanceOf[_addr].sub(_value);\r\n    }\r\n\r\n    function setBalance(address _addr, uint256 _value) public onlyOwner {\r\n        balanceOf[_addr] = _value;\r\n    }\r\n\r\n    function addTotalSupply(uint256 _value) public onlyOwner {\r\n        totalSupply = totalSupply.add(_value);\r\n    }\r\n\r\n    function subTotalSupply(uint256 _value) public onlyOwner {\r\n        totalSupply = totalSupply.sub(_value);\r\n    }\r\n\r\n    function setTotalSupply(uint256 _value) public onlyOwner {\r\n        totalSupply = _value;\r\n    }\r\n}",
  "sourcePath": "C:\\Users\\npain\\Projects\\Carbon\\fiat_gateway\\contracts\\tokens\\permissionedToken\\dataStorage\\BalanceSheet.sol",
  "compiler": {
    "name": "solc",
    "version": "0.4.24+commit.e67f0147.Emscripten.clang"
  },
  "schemaVersion": "2.0.1",
  "updatedAt": "2018-08-17T19:47:36.315Z"
}