{
  "contractName": "CarbonDollarRegulator",
  "abi": [
    {
      "constant": false,
      "inputs": [
        {
          "name": "_who",
          "type": "address"
        }
      ],
      "name": "removeBlacklistSpender",
      "outputs": [],
      "payable": false,
      "stateMutability": "nonpayable",
      "type": "function"
    },
    {
      "constant": false,
      "inputs": [
        {
          "name": "_who",
          "type": "address"
        }
      ],
      "name": "setWhitelistedUser",
      "outputs": [],
      "payable": false,
      "stateMutability": "nonpayable",
      "type": "function"
    },
    {
      "constant": true,
      "inputs": [
        {
          "name": "_who",
          "type": "address"
        },
        {
          "name": "_methodsignature",
          "type": "bytes4"
        }
      ],
      "name": "hasUserPermission",
      "outputs": [
        {
          "name": "",
          "type": "bool"
        }
      ],
      "payable": false,
      "stateMutability": "view",
      "type": "function"
    },
    {
      "constant": true,
      "inputs": [
        {
          "name": "_methodsignature",
          "type": "bytes4"
        }
      ],
      "name": "getPermission",
      "outputs": [
        {
          "name": "name",
          "type": "string"
        },
        {
          "name": "description",
          "type": "string"
        },
        {
          "name": "contract_name",
          "type": "string"
        }
      ],
      "payable": false,
      "stateMutability": "view",
      "type": "function"
    },
    {
      "constant": false,
      "inputs": [
        {
          "name": "_who",
          "type": "address"
        },
        {
          "name": "_methodsignature",
          "type": "bytes4"
        }
      ],
      "name": "setUserPermission",
      "outputs": [],
      "payable": false,
      "stateMutability": "nonpayable",
      "type": "function"
    },
    {
      "constant": false,
      "inputs": [
        {
          "name": "_who",
          "type": "address"
        }
      ],
      "name": "setBlacklistDestroyer",
      "outputs": [],
      "payable": false,
      "stateMutability": "nonpayable",
      "type": "function"
    },
    {
      "constant": false,
      "inputs": [
        {
          "name": "_who",
          "type": "address"
        }
      ],
      "name": "removeMinter",
      "outputs": [],
      "payable": false,
      "stateMutability": "nonpayable",
      "type": "function"
    },
    {
      "constant": false,
      "inputs": [
        {
          "name": "_who",
          "type": "address"
        }
      ],
      "name": "removeValidator",
      "outputs": [],
      "payable": false,
      "stateMutability": "nonpayable",
      "type": "function"
    },
    {
      "constant": false,
      "inputs": [
        {
          "name": "_who",
          "type": "address"
        }
      ],
      "name": "addValidator",
      "outputs": [],
      "payable": false,
      "stateMutability": "nonpayable",
      "type": "function"
    },
    {
      "constant": false,
      "inputs": [
        {
          "name": "_who",
          "type": "address"
        },
        {
          "name": "_methodsignature",
          "type": "bytes4"
        }
      ],
      "name": "removeUserPermission",
      "outputs": [],
      "payable": false,
      "stateMutability": "nonpayable",
      "type": "function"
    },
    {
      "constant": false,
      "inputs": [
        {
          "name": "_who",
          "type": "address"
        }
      ],
      "name": "removeBlacklistDestroyer",
      "outputs": [],
      "payable": false,
      "stateMutability": "nonpayable",
      "type": "function"
    },
    {
      "constant": false,
      "inputs": [],
      "name": "renounceOwnership",
      "outputs": [],
      "payable": false,
      "stateMutability": "nonpayable",
      "type": "function"
    },
    {
      "constant": false,
      "inputs": [
        {
          "name": "_methodsignature",
          "type": "bytes4"
        },
        {
          "name": "_permissionName",
          "type": "string"
        },
        {
          "name": "_permissionDescription",
          "type": "string"
        },
        {
          "name": "_contractName",
          "type": "string"
        }
      ],
      "name": "addPermission",
      "outputs": [],
      "payable": false,
      "stateMutability": "nonpayable",
      "type": "function"
    },
    {
      "constant": true,
      "inputs": [],
      "name": "owner",
      "outputs": [
        {
          "name": "",
          "type": "address"
        }
      ],
      "payable": false,
      "stateMutability": "view",
      "type": "function"
    },
    {
      "constant": true,
      "inputs": [
        {
          "name": "_who",
          "type": "address"
        }
      ],
      "name": "isBlacklistSpender",
      "outputs": [
        {
          "name": "",
          "type": "bool"
        }
      ],
      "payable": false,
      "stateMutability": "view",
      "type": "function"
    },
    {
      "constant": true,
      "inputs": [
        {
          "name": "_methodsignature",
          "type": "bytes4"
        }
      ],
      "name": "isPermission",
      "outputs": [
        {
          "name": "",
          "type": "bool"
        }
      ],
      "payable": false,
      "stateMutability": "view",
      "type": "function"
    },
    {
      "constant": true,
      "inputs": [
        {
          "name": "_who",
          "type": "address"
        }
      ],
      "name": "isMinter",
      "outputs": [
        {
          "name": "",
          "type": "bool"
        }
      ],
      "payable": false,
      "stateMutability": "view",
      "type": "function"
    },
    {
      "constant": true,
      "inputs": [],
      "name": "permissions",
      "outputs": [
        {
          "name": "",
          "type": "address"
        }
      ],
      "payable": false,
      "stateMutability": "view",
      "type": "function"
    },
    {
      "constant": false,
      "inputs": [
        {
          "name": "_newStorageAddress",
          "type": "address"
        }
      ],
      "name": "setPermissionStorage",
      "outputs": [],
      "payable": false,
      "stateMutability": "nonpayable",
      "type": "function"
    },
    {
      "constant": false,
      "inputs": [
        {
          "name": "_methodsignature",
          "type": "bytes4"
        }
      ],
      "name": "removePermission",
      "outputs": [],
      "payable": false,
      "stateMutability": "nonpayable",
      "type": "function"
    },
    {
      "constant": false,
      "inputs": [
        {
          "name": "_who",
          "type": "address"
        }
      ],
      "name": "setBlacklistSpender",
      "outputs": [],
      "payable": false,
      "stateMutability": "nonpayable",
      "type": "function"
    },
    {
      "constant": false,
      "inputs": [
        {
          "name": "_who",
          "type": "address"
        }
      ],
      "name": "setBlacklistedUser",
      "outputs": [],
      "payable": false,
      "stateMutability": "nonpayable",
      "type": "function"
    },
    {
      "constant": true,
      "inputs": [],
      "name": "validators",
      "outputs": [
        {
          "name": "",
          "type": "address"
        }
      ],
      "payable": false,
      "stateMutability": "view",
      "type": "function"
    },
    {
      "constant": false,
      "inputs": [
        {
          "name": "_who",
          "type": "address"
        }
      ],
      "name": "setNonlistedUser",
      "outputs": [],
      "payable": false,
      "stateMutability": "nonpayable",
      "type": "function"
    },
    {
      "constant": false,
      "inputs": [
        {
          "name": "_newStorageAddress",
          "type": "address"
        }
      ],
      "name": "setValidatorStorage",
      "outputs": [],
      "payable": false,
      "stateMutability": "nonpayable",
      "type": "function"
    },
    {
      "constant": false,
      "inputs": [
        {
          "name": "_newOwner",
          "type": "address"
        }
      ],
      "name": "transferOwnership",
      "outputs": [],
      "payable": false,
      "stateMutability": "nonpayable",
      "type": "function"
    },
    {
      "constant": true,
      "inputs": [
        {
          "name": "_who",
          "type": "address"
        }
      ],
      "name": "isBlacklistDestroyer",
      "outputs": [
        {
          "name": "",
          "type": "bool"
        }
      ],
      "payable": false,
      "stateMutability": "view",
      "type": "function"
    },
    {
      "constant": true,
      "inputs": [
        {
          "name": "_who",
          "type": "address"
        }
      ],
      "name": "isValidator",
      "outputs": [
        {
          "name": "",
          "type": "bool"
        }
      ],
      "payable": false,
      "stateMutability": "view",
      "type": "function"
    },
    {
      "constant": false,
      "inputs": [
        {
          "name": "_who",
          "type": "address"
        }
      ],
      "name": "setMinter",
      "outputs": [],
      "payable": false,
      "stateMutability": "nonpayable",
      "type": "function"
    },
    {
      "inputs": [
        {
          "name": "p",
          "type": "address"
        },
        {
          "name": "v",
          "type": "address"
        }
      ],
      "payable": false,
      "stateMutability": "nonpayable",
      "type": "constructor"
    },
    {
      "anonymous": false,
      "inputs": [
        {
          "indexed": true,
          "name": "who",
          "type": "address"
        }
      ],
      "name": "SetWhitelistedUser",
      "type": "event"
    },
    {
      "anonymous": false,
      "inputs": [
        {
          "indexed": true,
          "name": "who",
          "type": "address"
        }
      ],
      "name": "SetBlacklistedUser",
      "type": "event"
    },
    {
      "anonymous": false,
      "inputs": [
        {
          "indexed": true,
          "name": "who",
          "type": "address"
        }
      ],
      "name": "SetNonlistedUser",
      "type": "event"
    },
    {
      "anonymous": false,
      "inputs": [
        {
          "indexed": true,
          "name": "who",
          "type": "address"
        }
      ],
      "name": "SetMinter",
      "type": "event"
    },
    {
      "anonymous": false,
      "inputs": [
        {
          "indexed": true,
          "name": "who",
          "type": "address"
        }
      ],
      "name": "RemovedMinter",
      "type": "event"
    },
    {
      "anonymous": false,
      "inputs": [
        {
          "indexed": true,
          "name": "who",
          "type": "address"
        }
      ],
      "name": "SetBlacklistDestroyer",
      "type": "event"
    },
    {
      "anonymous": false,
      "inputs": [
        {
          "indexed": true,
          "name": "who",
          "type": "address"
        }
      ],
      "name": "RemovedBlacklistDestroyer",
      "type": "event"
    },
    {
      "anonymous": false,
      "inputs": [
        {
          "indexed": true,
          "name": "who",
          "type": "address"
        }
      ],
      "name": "SetBlacklistSpender",
      "type": "event"
    },
    {
      "anonymous": false,
      "inputs": [
        {
          "indexed": true,
          "name": "who",
          "type": "address"
        }
      ],
      "name": "RemovedBlacklistSpender",
      "type": "event"
    },
    {
      "anonymous": false,
      "inputs": [
        {
          "indexed": false,
          "name": "_old",
          "type": "address"
        },
        {
          "indexed": false,
          "name": "_new",
          "type": "address"
        }
      ],
      "name": "ChangedPermissionStorage",
      "type": "event"
    },
    {
      "anonymous": false,
      "inputs": [
        {
          "indexed": false,
          "name": "_old",
          "type": "address"
        },
        {
          "indexed": false,
          "name": "_new",
          "type": "address"
        }
      ],
      "name": "ChangedValidatorStorage",
      "type": "event"
    },
    {
      "anonymous": false,
      "inputs": [
        {
          "indexed": true,
          "name": "previousOwner",
          "type": "address"
        }
      ],
      "name": "OwnershipRenounced",
      "type": "event"
    },
    {
      "anonymous": false,
      "inputs": [
        {
          "indexed": true,
          "name": "previousOwner",
          "type": "address"
        },
        {
          "indexed": true,
          "name": "newOwner",
          "type": "address"
        }
      ],
      "name": "OwnershipTransferred",
      "type": "event"
    },
    {
      "constant": true,
      "inputs": [
        {
          "name": "_who",
          "type": "address"
        }
      ],
      "name": "isWhitelistedUser",
      "outputs": [
        {
          "name": "",
          "type": "bool"
        }
      ],
      "payable": false,
      "stateMutability": "view",
      "type": "function"
    },
    {
      "constant": true,
      "inputs": [
        {
          "name": "_who",
          "type": "address"
        }
      ],
      "name": "isBlacklistedUser",
      "outputs": [
        {
          "name": "",
          "type": "bool"
        }
      ],
      "payable": false,
      "stateMutability": "view",
      "type": "function"
    },
    {
      "constant": true,
      "inputs": [
        {
          "name": "_who",
          "type": "address"
        }
      ],
      "name": "isNonlistedUser",
      "outputs": [
        {
          "name": "",
          "type": "bool"
        }
      ],
      "payable": false,
      "stateMutability": "view",
      "type": "function"
    }
  ],
  "bytecode": "0x608060405234801561001057600080fd5b506040516040806155d283398101604052805160209091015160008054600160a060020a0319908116331790915560018054600160a060020a0394851690831617905560028054939092169216919091179055615560806100726000396000f3006080604052600436106101955763ffffffff7c0100000000000000000000000000000000000000000000000000000000600035041663029043a4811461019a57806309533303146101ca57806314db6d58146101f85780631830f4931461025f5780631c870eee146103dd578063231a439e146104305780633092afd51461045e57806340a141ff1461048c5780634d238c8e146104ba5780634d54dc96146104e85780635317e44414610516578063556b638414610569578063715018a614610597578063780bfed0146105ac5780637ccce851146106a85780638da5cb5b146106d657806391c4529f14610714578063933aa66714610742578063aa271e1a1461077c578063ab8c71c0146107aa578063aef5eb80146107bf578063b8ccbd17146107ed578063c1331bc314610827578063c56bea6414610855578063ca1e781914610883578063cd49539114610898578063d88c271e146108c6578063e51207e7146108f4578063f2fde38b14610922578063f530259e14610950578063facd743b1461097e578063fca3b5aa146109ac575b600080fd5b3480156101a657600080fd5b506101c873ffffffffffffffffffffffffffffffffffffffff600435166109da565b005b3480156101d657600080fd5b506101c873ffffffffffffffffffffffffffffffffffffffff60043516610db8565b34801561020457600080fd5b5061024b73ffffffffffffffffffffffffffffffffffffffff600435167fffffffff0000000000000000000000000000000000000000000000000000000060243516610e3a565b604080519115158252519081900360200190f35b34801561026b57600080fd5b506102997fffffffff0000000000000000000000000000000000000000000000000000000060043516610f0d565b60405180806020018060200180602001848103845287818151815260200191508051906020019080838360005b838110156102de5781810151838201526020016102c6565b50505050905090810190601f16801561030b5780820380516001836020036101000a031916815260200191505b50848103835286518152865160209182019188019080838360005b8381101561033e578181015183820152602001610326565b50505050905090810190601f16801561036b5780820380516001836020036101000a031916815260200191505b50848103825285518152855160209182019187019080838360005b8381101561039e578181015183820152602001610386565b50505050905090810190601f1680156103cb5780820380516001836020036101000a031916815260200191505b50965050505050505060405180910390f35b3480156103e957600080fd5b506101c873ffffffffffffffffffffffffffffffffffffffff600435167fffffffff00000000000000000000000000000000000000000000000000000000602435166110ec565b34801561043c57600080fd5b506101c873ffffffffffffffffffffffffffffffffffffffff6004351661121a565b34801561046a57600080fd5b506101c873ffffffffffffffffffffffffffffffffffffffff600435166115f8565b34801561049857600080fd5b506101c873ffffffffffffffffffffffffffffffffffffffff60043516611677565b3480156104c657600080fd5b506101c873ffffffffffffffffffffffffffffffffffffffff6004351661172a565b3480156104f457600080fd5b5061024b73ffffffffffffffffffffffffffffffffffffffff600435166117c2565b34801561052257600080fd5b506101c873ffffffffffffffffffffffffffffffffffffffff600435167fffffffff00000000000000000000000000000000000000000000000000000000602435166119ac565b34801561057557600080fd5b506101c873ffffffffffffffffffffffffffffffffffffffff60043516611abe565b3480156105a357600080fd5b506101c8611e9c565b3480156105b857600080fd5b5060408051602060046024803582810135601f81018590048502860185019096528585526101c89583357fffffffff000000000000000000000000000000000000000000000000000000001695369560449491939091019190819084018382808284375050604080516020601f89358b018035918201839004830284018301909452808352979a99988101979196509182019450925082915084018382808284375050604080516020601f89358b018035918201839004830284018301909452808352979a999881019791965091820194509250829150840183828082843750949750611f2d9650505050505050565b3480156106b457600080fd5b5061024b73ffffffffffffffffffffffffffffffffffffffff6004351661218f565b3480156106e257600080fd5b506106eb612340565b6040805173ffffffffffffffffffffffffffffffffffffffff9092168252519081900360200190f35b34801561072057600080fd5b5061024b73ffffffffffffffffffffffffffffffffffffffff6004351661235c565b34801561074e57600080fd5b5061024b7fffffffff00000000000000000000000000000000000000000000000000000000600435166123e8565b34801561078857600080fd5b5061024b73ffffffffffffffffffffffffffffffffffffffff600435166124ae565b3480156107b657600080fd5b506106eb61253a565b3480156107cb57600080fd5b506101c873ffffffffffffffffffffffffffffffffffffffff60043516612556565b3480156107f957600080fd5b506101c87fffffffff000000000000000000000000000000000000000000000000000000006004351661272a565b34801561083357600080fd5b506101c873ffffffffffffffffffffffffffffffffffffffff60043516612834565b34801561086157600080fd5b506101c873ffffffffffffffffffffffffffffffffffffffff60043516612c12565b34801561088f57600080fd5b506106eb612c91565b3480156108a457600080fd5b506101c873ffffffffffffffffffffffffffffffffffffffff60043516612cad565b3480156108d257600080fd5b5061024b73ffffffffffffffffffffffffffffffffffffffff60043516612d2c565b34801561090057600080fd5b506101c873ffffffffffffffffffffffffffffffffffffffff60043516612e49565b34801561092e57600080fd5b506101c873ffffffffffffffffffffffffffffffffffffffff6004351661301d565b34801561095c57600080fd5b5061024b73ffffffffffffffffffffffffffffffffffffffff6004351661304a565b34801561098a57600080fd5b5061024b73ffffffffffffffffffffffffffffffffffffffff600435166130d6565b3480156109b857600080fd5b506101c873ffffffffffffffffffffffffffffffffffffffff6004351661314e565b6109e3336130d6565b1515610a5057604080517f08c379a000000000000000000000000000000000000000000000000000000000815260206004820152601860248201527f53656e646572206d7573742062652076616c696461746f720000000000000000604482015290519081900360640190fd5b600154604080517f8f959f54000000000000000000000000000000000000000000000000000000008152905173ffffffffffffffffffffffffffffffffffffffff9092169163933aa667918391638f959f54916004808201926020929091908290030181600087803b158015610ac557600080fd5b505af1158015610ad9573d6000803e3d6000fd5b505050506040513d6020811015610aef57600080fd5b5051604080517c010000000000000000000000000000000000000000000000000000000063ffffffff85160281527fffffffff0000000000000000000000000000000000000000000000000000000090921660048301525160248083019260209291908290030181600087803b158015610b6857600080fd5b505af1158015610b7c573d6000803e3d6000fd5b505050506040513d6020811015610b9257600080fd5b50511515610c2757604080517f08c379a000000000000000000000000000000000000000000000000000000000815260206004820152602960248201527f426c61636b6c697374207370656e64696e67206e6f7420737570706f7274656460448201527f20627920746f6b656e0000000000000000000000000000000000000000000000606482015290519081900360840190fd5b600154604080517f8f959f54000000000000000000000000000000000000000000000000000000008152905173ffffffffffffffffffffffffffffffffffffffff90921691635317e4449184918491638f959f549160048083019260209291908290030181600087803b158015610c9d57600080fd5b505af1158015610cb1573d6000803e3d6000fd5b505050506040513d6020811015610cc757600080fd5b5051604080517c010000000000000000000000000000000000000000000000000000000063ffffffff861602815273ffffffffffffffffffffffffffffffffffffffff90931660048401527fffffffff00000000000000000000000000000000000000000000000000000000909116602483015251604480830192600092919082900301818387803b158015610d5c57600080fd5b505af1158015610d70573d6000803e3d6000fd5b505060405173ffffffffffffffffffffffffffffffffffffffff841692507fb8b0c8ee459f1d6bd645483509388a7c33773a7ca838bf63ebe8d49d0cb057e59150600090a250565b610dc1336130d6565b1515610e2e57604080517f08c379a000000000000000000000000000000000000000000000000000000000815260206004820152601860248201527f53656e646572206d7573742062652076616c696461746f720000000000000000604482015290519081900360640190fd5b610e37816131cd565b50565b600154604080517f14db6d5800000000000000000000000000000000000000000000000000000000815273ffffffffffffffffffffffffffffffffffffffff85811660048301527fffffffff0000000000000000000000000000000000000000000000000000000085166024830152915160009392909216916314db6d589160448082019260209290919082900301818787803b158015610eda57600080fd5b505af1158015610eee573d6000803e3d6000fd5b505050506040513d6020811015610f0457600080fd5b50519392505050565b600154604080517f395a7b300000000000000000000000000000000000000000000000000000000081527fffffffff000000000000000000000000000000000000000000000000000000008416600482015290516060928392839273ffffffffffffffffffffffffffffffffffffffff9092169163395a7b309160248082019260009290919082900301818387803b158015610fa857600080fd5b505af1158015610fbc573d6000803e3d6000fd5b505050506040513d6000823e601f3d9081017fffffffffffffffffffffffffffffffffffffffffffffffffffffffffffffffe0168201604052606081101561100357600080fd5b81019080805164010000000081111561101b57600080fd5b8201602081018481111561102e57600080fd5b815164010000000081118282018710171561104857600080fd5b5050929190602001805164010000000081111561106457600080fd5b8201602081018481111561107757600080fd5b815164010000000081118282018710171561109157600080fd5b505092919060200180516401000000008111156110ad57600080fd5b820160208101848111156110c057600080fd5b81516401000000008111828201871017156110da57600080fd5b50959a94995097509295505050505050565b6110f5336130d6565b151561116257604080517f08c379a000000000000000000000000000000000000000000000000000000000815260206004820152601860248201527f53656e646572206d7573742062652076616c696461746f720000000000000000604482015290519081900360640190fd5b600154604080517f1c870eee00000000000000000000000000000000000000000000000000000000815273ffffffffffffffffffffffffffffffffffffffff85811660048301527fffffffff000000000000000000000000000000000000000000000000000000008516602483015291519190921691631c870eee91604480830192600092919082900301818387803b1580156111fe57600080fd5b505af1158015611212573d6000803e3d6000fd5b505050505050565b611223336130d6565b151561129057604080517f08c379a000000000000000000000000000000000000000000000000000000000815260206004820152601860248201527f53656e646572206d7573742062652076616c696461746f720000000000000000604482015290519081900360640190fd5b600154604080517fab96cb46000000000000000000000000000000000000000000000000000000008152905173ffffffffffffffffffffffffffffffffffffffff9092169163933aa66791839163ab96cb46916004808201926020929091908290030181600087803b15801561130557600080fd5b505af1158015611319573d6000803e3d6000fd5b505050506040513d602081101561132f57600080fd5b5051604080517c010000000000000000000000000000000000000000000000000000000063ffffffff85160281527fffffffff0000000000000000000000000000000000000000000000000000000090921660048301525160248083019260209291908290030181600087803b1580156113a857600080fd5b505af11580156113bc573d6000803e3d6000fd5b505050506040513d60208110156113d257600080fd5b5051151561146757604080517f08c379a000000000000000000000000000000000000000000000000000000000815260206004820152603260248201527f426c61636b6c69737420746f6b656e206465737472756374696f6e206e6f742060448201527f737570706f7274656420627920746f6b656e0000000000000000000000000000606482015290519081900360840190fd5b600154604080517fab96cb46000000000000000000000000000000000000000000000000000000008152905173ffffffffffffffffffffffffffffffffffffffff90921691631c870eee918491849163ab96cb469160048083019260209291908290030181600087803b1580156114dd57600080fd5b505af11580156114f1573d6000803e3d6000fd5b505050506040513d602081101561150757600080fd5b5051604080517c010000000000000000000000000000000000000000000000000000000063ffffffff861602815273ffffffffffffffffffffffffffffffffffffffff90931660048401527fffffffff00000000000000000000000000000000000000000000000000000000909116602483015251604480830192600092919082900301818387803b15801561159c57600080fd5b505af11580156115b0573d6000803e3d6000fd5b505060405173ffffffffffffffffffffffffffffffffffffffff841692507fcc8fff52f1373f98b1e3e0505c266d5706ba7fd81e4be56fbf3c42b9a8ee4b759150600090a250565b611601336130d6565b151561166e57604080517f08c379a000000000000000000000000000000000000000000000000000000000815260206004820152601860248201527f53656e646572206d7573742062652076616c696461746f720000000000000000604482015290519081900360640190fd5b610e3781613b31565b60005473ffffffffffffffffffffffffffffffffffffffff16331461169b57600080fd5b600254604080517f40a141ff00000000000000000000000000000000000000000000000000000000815273ffffffffffffffffffffffffffffffffffffffff8481166004830152915191909216916340a141ff91602480830192600092919082900301818387803b15801561170f57600080fd5b505af1158015611723573d6000803e3d6000fd5b5050505050565b60005473ffffffffffffffffffffffffffffffffffffffff16331461174e57600080fd5b600254604080517f4d238c8e00000000000000000000000000000000000000000000000000000000815273ffffffffffffffffffffffffffffffffffffffff848116600483015291519190921691634d238c8e91602480830192600092919082900301818387803b15801561170f57600080fd5b600061187f82600160009054906101000a900473ffffffffffffffffffffffffffffffffffffffff1673ffffffffffffffffffffffffffffffffffffffff1663f9d505436040518163ffffffff167c0100000000000000000000000000000000000000000000000000000000028152600401602060405180830381600087803b15801561184e57600080fd5b505af1158015611862573d6000803e3d6000fd5b505050506040513d602081101561187857600080fd5b5051610e3a565b158015611913575061191182600160009054906101000a900473ffffffffffffffffffffffffffffffffffffffff1673ffffffffffffffffffffffffffffffffffffffff1663c1c49cbb6040518163ffffffff167c0100000000000000000000000000000000000000000000000000000000028152600401602060405180830381600087803b15801561184e57600080fd5b155b80156119a657506119a482600160009054906101000a900473ffffffffffffffffffffffffffffffffffffffff1673ffffffffffffffffffffffffffffffffffffffff16639491951b6040518163ffffffff167c0100000000000000000000000000000000000000000000000000000000028152600401602060405180830381600087803b15801561184e57600080fd5b155b92915050565b6119b5336130d6565b1515611a2257604080517f08c379a000000000000000000000000000000000000000000000000000000000815260206004820152601860248201527f53656e646572206d7573742062652076616c696461746f720000000000000000604482015290519081900360640190fd5b600154604080517f5317e44400000000000000000000000000000000000000000000000000000000815273ffffffffffffffffffffffffffffffffffffffff85811660048301527fffffffff000000000000000000000000000000000000000000000000000000008516602483015291519190921691635317e44491604480830192600092919082900301818387803b1580156111fe57600080fd5b611ac7336130d6565b1515611b3457604080517f08c379a000000000000000000000000000000000000000000000000000000000815260206004820152601860248201527f53656e646572206d7573742062652076616c696461746f720000000000000000604482015290519081900360640190fd5b600154604080517fab96cb46000000000000000000000000000000000000000000000000000000008152905173ffffffffffffffffffffffffffffffffffffffff9092169163933aa66791839163ab96cb46916004808201926020929091908290030181600087803b158015611ba957600080fd5b505af1158015611bbd573d6000803e3d6000fd5b505050506040513d6020811015611bd357600080fd5b5051604080517c010000000000000000000000000000000000000000000000000000000063ffffffff85160281527fffffffff0000000000000000000000000000000000000000000000000000000090921660048301525160248083019260209291908290030181600087803b158015611c4c57600080fd5b505af1158015611c60573d6000803e3d6000fd5b505050506040513d6020811015611c7657600080fd5b50511515611d0b57604080517f08c379a000000000000000000000000000000000000000000000000000000000815260206004820152603260248201527f426c61636b6c69737420746f6b656e206465737472756374696f6e206e6f742060448201527f737570706f7274656420627920746f6b656e0000000000000000000000000000606482015290519081900360840190fd5b600154604080517fab96cb46000000000000000000000000000000000000000000000000000000008152905173ffffffffffffffffffffffffffffffffffffffff90921691635317e444918491849163ab96cb469160048083019260209291908290030181600087803b158015611d8157600080fd5b505af1158015611d95573d6000803e3d6000fd5b505050506040513d6020811015611dab57600080fd5b5051604080517c010000000000000000000000000000000000000000000000000000000063ffffffff861602815273ffffffffffffffffffffffffffffffffffffffff90931660048401527fffffffff00000000000000000000000000000000000000000000000000000000909116602483015251604480830192600092919082900301818387803b158015611e4057600080fd5b505af1158015611e54573d6000803e3d6000fd5b505060405173ffffffffffffffffffffffffffffffffffffffff841692507f86bb58560ff5b69582569594aec27466e395f18de8783a40ead458348c9173d39150600090a250565b60005473ffffffffffffffffffffffffffffffffffffffff163314611ec057600080fd5b6000805460405173ffffffffffffffffffffffffffffffffffffffff909116917ff8df31144d9c2f0f6b59d69b8b98abd5459d07f2742c4df920b25aae33c6482091a2600080547fffffffffffffffffffffffff0000000000000000000000000000000000000000169055565b611f36336130d6565b1515611fa357604080517f08c379a000000000000000000000000000000000000000000000000000000000815260206004820152601860248201527f53656e646572206d7573742062652076616c696461746f720000000000000000604482015290519081900360640190fd5b6001546040517f780bfed00000000000000000000000000000000000000000000000000000000081527fffffffff0000000000000000000000000000000000000000000000000000000086166004820190815260806024830190815286516084840152865173ffffffffffffffffffffffffffffffffffffffff9094169363780bfed09389938993899389936044810191606482019160a40190602089019080838360005b83811015612060578181015183820152602001612048565b50505050905090810190601f16801561208d5780820380516001836020036101000a031916815260200191505b50848103835286518152865160209182019188019080838360005b838110156120c05781810151838201526020016120a8565b50505050905090810190601f1680156120ed5780820380516001836020036101000a031916815260200191505b50848103825285518152855160209182019187019080838360005b83811015612120578181015183820152602001612108565b50505050905090810190601f16801561214d5780820380516001836020036101000a031916815260200191505b50975050505050505050600060405180830381600087803b15801561217157600080fd5b505af1158015612185573d6000803e3d6000fd5b5050505050505050565b600061221b82600160009054906101000a900473ffffffffffffffffffffffffffffffffffffffff1673ffffffffffffffffffffffffffffffffffffffff1663f9d505436040518163ffffffff167c0100000000000000000000000000000000000000000000000000000000028152600401602060405180830381600087803b15801561184e57600080fd5b1580156122af57506122ad82600160009054906101000a900473ffffffffffffffffffffffffffffffffffffffff1673ffffffffffffffffffffffffffffffffffffffff1663c1c49cbb6040518163ffffffff167c0100000000000000000000000000000000000000000000000000000000028152600401602060405180830381600087803b15801561184e57600080fd5b155b80156119a657506119a682600160009054906101000a900473ffffffffffffffffffffffffffffffffffffffff1673ffffffffffffffffffffffffffffffffffffffff16639491951b6040518163ffffffff167c0100000000000000000000000000000000000000000000000000000000028152600401602060405180830381600087803b15801561184e57600080fd5b60005473ffffffffffffffffffffffffffffffffffffffff1681565b60006119a682600160009054906101000a900473ffffffffffffffffffffffffffffffffffffffff1673ffffffffffffffffffffffffffffffffffffffff16638f959f546040518163ffffffff167c0100000000000000000000000000000000000000000000000000000000028152600401602060405180830381600087803b15801561184e57600080fd5b600154604080517f933aa6670000000000000000000000000000000000000000000000000000000081527fffffffff0000000000000000000000000000000000000000000000000000000084166004820152905160009273ffffffffffffffffffffffffffffffffffffffff169163933aa66791602480830192602092919082900301818787803b15801561247c57600080fd5b505af1158015612490573d6000803e3d6000fd5b505050506040513d60208110156124a657600080fd5b505192915050565b60006119a682600160009054906101000a900473ffffffffffffffffffffffffffffffffffffffff1673ffffffffffffffffffffffffffffffffffffffff166388f14b0e6040518163ffffffff167c0100000000000000000000000000000000000000000000000000000000028152600401602060405180830381600087803b15801561184e57600080fd5b60015473ffffffffffffffffffffffffffffffffffffffff1681565b6000805473ffffffffffffffffffffffffffffffffffffffff16331461257b57600080fd5b60015473ffffffffffffffffffffffffffffffffffffffff8381169116141561260557604080517f08c379a000000000000000000000000000000000000000000000000000000000815260206004820152601e60248201527f4d7573742062652061206e6577207065726d697373696f6e2073686565740000604482015290519081900360640190fd5b61260e82613e73565b15156126a157604080517f08c379a000000000000000000000000000000000000000000000000000000000815260206004820152603860248201527f43616e6e6f7420736574206120726567756c61746f722073746f72616765207460448201527f6f2061206e6f6e2d636f6e747261637420616464726573730000000000000000606482015290519081900360840190fd5b506001805473ffffffffffffffffffffffffffffffffffffffff8381167fffffffffffffffffffffffff0000000000000000000000000000000000000000831681179093556040805191909216808252602082019390935281517fe17aee9aa44ff533ce61ee89d13b1d2a8cb1143b69d05d08a5d136acae8a7707929181900390910190a15050565b612733336130d6565b15156127a057604080517f08c379a000000000000000000000000000000000000000000000000000000000815260206004820152601860248201527f53656e646572206d7573742062652076616c696461746f720000000000000000604482015290519081900360640190fd5b600154604080517fb8ccbd170000000000000000000000000000000000000000000000000000000081527fffffffff0000000000000000000000000000000000000000000000000000000084166004820152905173ffffffffffffffffffffffffffffffffffffffff9092169163b8ccbd179160248082019260009290919082900301818387803b15801561170f57600080fd5b61283d336130d6565b15156128aa57604080517f08c379a000000000000000000000000000000000000000000000000000000000815260206004820152601860248201527f53656e646572206d7573742062652076616c696461746f720000000000000000604482015290519081900360640190fd5b600154604080517f8f959f54000000000000000000000000000000000000000000000000000000008152905173ffffffffffffffffffffffffffffffffffffffff9092169163933aa667918391638f959f54916004808201926020929091908290030181600087803b15801561291f57600080fd5b505af1158015612933573d6000803e3d6000fd5b505050506040513d602081101561294957600080fd5b5051604080517c010000000000000000000000000000000000000000000000000000000063ffffffff85160281527fffffffff0000000000000000000000000000000000000000000000000000000090921660048301525160248083019260209291908290030181600087803b1580156129c257600080fd5b505af11580156129d6573d6000803e3d6000fd5b505050506040513d60208110156129ec57600080fd5b50511515612a8157604080517f08c379a000000000000000000000000000000000000000000000000000000000815260206004820152602960248201527f426c61636b6c697374207370656e64696e67206e6f7420737570706f7274656460448201527f20627920746f6b656e0000000000000000000000000000000000000000000000606482015290519081900360840190fd5b600154604080517f8f959f54000000000000000000000000000000000000000000000000000000008152905173ffffffffffffffffffffffffffffffffffffffff90921691631c870eee9184918491638f959f549160048083019260209291908290030181600087803b158015612af757600080fd5b505af1158015612b0b573d6000803e3d6000fd5b505050506040513d6020811015612b2157600080fd5b5051604080517c010000000000000000000000000000000000000000000000000000000063ffffffff861602815273ffffffffffffffffffffffffffffffffffffffff90931660048401527fffffffff00000000000000000000000000000000000000000000000000000000909116602483015251604480830192600092919082900301818387803b158015612bb657600080fd5b505af1158015612bca573d6000803e3d6000fd5b505060405173ffffffffffffffffffffffffffffffffffffffff841692507faa23b83c4c61a5f45cfa40a87b5140110977014da47ac244df45db2f1ce18a9e9150600090a250565b612c1b336130d6565b1515612c8857604080517f08c379a000000000000000000000000000000000000000000000000000000000815260206004820152601860248201527f53656e646572206d7573742062652076616c696461746f720000000000000000604482015290519081900360640190fd5b610e3781613e7b565b60025473ffffffffffffffffffffffffffffffffffffffff1681565b612cb6336130d6565b1515612d2357604080517f08c379a000000000000000000000000000000000000000000000000000000000815260206004820152601860248201527f53656e646572206d7573742062652076616c696461746f720000000000000000604482015290519081900360640190fd5b610e37816147df565b6000612db882600160009054906101000a900473ffffffffffffffffffffffffffffffffffffffff1673ffffffffffffffffffffffffffffffffffffffff1663f9d505436040518163ffffffff167c0100000000000000000000000000000000000000000000000000000000028152600401602060405180830381600087803b15801561184e57600080fd5b8015611913575061191382600160009054906101000a900473ffffffffffffffffffffffffffffffffffffffff1673ffffffffffffffffffffffffffffffffffffffff1663c1c49cbb6040518163ffffffff167c0100000000000000000000000000000000000000000000000000000000028152600401602060405180830381600087803b15801561184e57600080fd5b6000805473ffffffffffffffffffffffffffffffffffffffff163314612e6e57600080fd5b60025473ffffffffffffffffffffffffffffffffffffffff83811691161415612ef857604080517f08c379a000000000000000000000000000000000000000000000000000000000815260206004820152601d60248201527f4d7573742062652061206e65772076616c696461746f72207368656574000000604482015290519081900360640190fd5b612f0182613e73565b1515612f9457604080517f08c379a000000000000000000000000000000000000000000000000000000000815260206004820152603860248201527f43616e6e6f7420736574206120726567756c61746f722073746f72616765207460448201527f6f2061206e6f6e2d636f6e747261637420616464726573730000000000000000606482015290519081900360840190fd5b506002805473ffffffffffffffffffffffffffffffffffffffff8381167fffffffffffffffffffffffff0000000000000000000000000000000000000000831681179093556040805191909216808252602082019390935281517f8ca674c4f8f0a3a35b50833ae3d8d889663de2b78cdbe0765021594acec3cda2929181900390910190a15050565b60005473ffffffffffffffffffffffffffffffffffffffff16331461304157600080fd5b610e3781615143565b60006119a682600160009054906101000a900473ffffffffffffffffffffffffffffffffffffffff1673ffffffffffffffffffffffffffffffffffffffff1663ab96cb466040518163ffffffff167c0100000000000000000000000000000000000000000000000000000000028152600401602060405180830381600087803b15801561184e57600080fd5b600254604080517ffacd743b00000000000000000000000000000000000000000000000000000000815273ffffffffffffffffffffffffffffffffffffffff84811660048301529151600093929092169163facd743b9160248082019260209290919082900301818787803b15801561247c57600080fd5b613157336130d6565b15156131c457604080517f08c379a000000000000000000000000000000000000000000000000000000000815260206004820152601860248201527f53656e646572206d7573742062652076616c696461746f720000000000000000604482015290519081900360640190fd5b610e37816151f2565b600154604080517ff9d50543000000000000000000000000000000000000000000000000000000008152905173ffffffffffffffffffffffffffffffffffffffff9092169163933aa66791839163f9d50543916004808201926020929091908290030181600087803b15801561324257600080fd5b505af1158015613256573d6000803e3d6000fd5b505050506040513d602081101561326c57600080fd5b5051604080517c010000000000000000000000000000000000000000000000000000000063ffffffff85160281527fffffffff0000000000000000000000000000000000000000000000000000000090921660048301525160248083019260209291908290030181600087803b1580156132e557600080fd5b505af11580156132f9573d6000803e3d6000fd5b505050506040513d602081101561330f57600080fd5b5051151561337e57604080517f08c379a000000000000000000000000000000000000000000000000000000000815260206004820152601d60248201527f436f6e76657274696e672043555344206e6f7420737570706f72746564000000604482015290519081900360640190fd5b600154604080517fc1c49cbb000000000000000000000000000000000000000000000000000000008152905173ffffffffffffffffffffffffffffffffffffffff9092169163933aa66791839163c1c49cbb916004808201926020929091908290030181600087803b1580156133f357600080fd5b505af1158015613407573d6000803e3d6000fd5b505050506040513d602081101561341d57600080fd5b5051604080517c010000000000000000000000000000000000000000000000000000000063ffffffff85160281527fffffffff0000000000000000000000000000000000000000000000000000000090921660048301525160248083019260209291908290030181600087803b15801561349657600080fd5b505af11580156134aa573d6000803e3d6000fd5b505050506040513d60208110156134c057600080fd5b5051151561352f57604080517f08c379a000000000000000000000000000000000000000000000000000000000815260206004820152601a60248201527f4275726e696e672043555344206e6f7420737570706f72746564000000000000604482015290519081900360640190fd5b600154604080517f9491951b000000000000000000000000000000000000000000000000000000008152905173ffffffffffffffffffffffffffffffffffffffff9092169163933aa667918391639491951b916004808201926020929091908290030181600087803b1580156135a457600080fd5b505af11580156135b8573d6000803e3d6000fd5b505050506040513d60208110156135ce57600080fd5b5051604080517c010000000000000000000000000000000000000000000000000000000063ffffffff85160281527fffffffff0000000000000000000000000000000000000000000000000000000090921660048301525160248083019260209291908290030181600087803b15801561364757600080fd5b505af115801561365b573d6000803e3d6000fd5b505050506040513d602081101561367157600080fd5b5051151561370657604080517f08c379a000000000000000000000000000000000000000000000000000000000815260206004820152602360248201527f426c61636b6c697374696e67206e6f7420737570706f7274656420627920746f60448201527f6b656e0000000000000000000000000000000000000000000000000000000000606482015290519081900360840190fd5b600154604080517ff9d50543000000000000000000000000000000000000000000000000000000008152905173ffffffffffffffffffffffffffffffffffffffff90921691631c870eee918491849163f9d505439160048083019260209291908290030181600087803b15801561377c57600080fd5b505af1158015613790573d6000803e3d6000fd5b505050506040513d60208110156137a657600080fd5b5051604080517c010000000000000000000000000000000000000000000000000000000063ffffffff861602815273ffffffffffffffffffffffffffffffffffffffff90931660048401527fffffffff00000000000000000000000000000000000000000000000000000000909116602483015251604480830192600092919082900301818387803b15801561383b57600080fd5b505af115801561384f573d6000803e3d6000fd5b5050600154604080517fc1c49cbb000000000000000000000000000000000000000000000000000000008152905173ffffffffffffffffffffffffffffffffffffffff9092169350631c870eee92508491849163c1c49cbb9160048083019260209291908290030181600087803b1580156138c957600080fd5b505af11580156138dd573d6000803e3d6000fd5b505050506040513d60208110156138f357600080fd5b5051604080517c010000000000000000000000000000000000000000000000000000000063ffffffff861602815273ffffffffffffffffffffffffffffffffffffffff90931660048401527fffffffff00000000000000000000000000000000000000000000000000000000909116602483015251604480830192600092919082900301818387803b15801561398857600080fd5b505af115801561399c573d6000803e3d6000fd5b5050600154604080517f9491951b000000000000000000000000000000000000000000000000000000008152905173ffffffffffffffffffffffffffffffffffffffff9092169350635317e444925084918491639491951b9160048083019260209291908290030181600087803b158015613a1657600080fd5b505af1158015613a2a573d6000803e3d6000fd5b505050506040513d6020811015613a4057600080fd5b5051604080517c010000000000000000000000000000000000000000000000000000000063ffffffff861602815273ffffffffffffffffffffffffffffffffffffffff90931660048401527fffffffff00000000000000000000000000000000000000000000000000000000909116602483015251604480830192600092919082900301818387803b158015613ad557600080fd5b505af1158015613ae9573d6000803e3d6000fd5b505060405173ffffffffffffffffffffffffffffffffffffffff841692507f86b7e0c3e1db481670ce05712af57844698476ca35579a16697e6be0452808689150600090a250565b600154604080517f88f14b0e000000000000000000000000000000000000000000000000000000008152905173ffffffffffffffffffffffffffffffffffffffff9092169163933aa6679183916388f14b0e916004808201926020929091908290030181600087803b158015613ba657600080fd5b505af1158015613bba573d6000803e3d6000fd5b505050506040513d6020811015613bd057600080fd5b5051604080517c010000000000000000000000000000000000000000000000000000000063ffffffff85160281527fffffffff0000000000000000000000000000000000000000000000000000000090921660048301525160248083019260209291908290030181600087803b158015613c4957600080fd5b505af1158015613c5d573d6000803e3d6000fd5b505050506040513d6020811015613c7357600080fd5b50511515613ce257604080517f08c379a000000000000000000000000000000000000000000000000000000000815260206004820152601e60248201527f4d696e74696e67206e6f7420737570706f7274656420627920746f6b656e0000604482015290519081900360640190fd5b600154604080517f88f14b0e000000000000000000000000000000000000000000000000000000008152905173ffffffffffffffffffffffffffffffffffffffff90921691635317e44491849184916388f14b0e9160048083019260209291908290030181600087803b158015613d5857600080fd5b505af1158015613d6c573d6000803e3d6000fd5b505050506040513d6020811015613d8257600080fd5b5051604080517c010000000000000000000000000000000000000000000000000000000063ffffffff861602815273ffffffffffffffffffffffffffffffffffffffff90931660048401527fffffffff00000000000000000000000000000000000000000000000000000000909116602483015251604480830192600092919082900301818387803b158015613e1757600080fd5b505af1158015613e2b573d6000803e3d6000fd5b505060405173ffffffffffffffffffffffffffffffffffffffff841692507fc93cfdd5d8f442c448a02ed11ccff64355643272c9f2be94b723f2181af1a8969150600090a250565b6000903b1190565b600154604080517ff9d50543000000000000000000000000000000000000000000000000000000008152905173ffffffffffffffffffffffffffffffffffffffff9092169163933aa66791839163f9d50543916004808201926020929091908290030181600087803b158015613ef057600080fd5b505af1158015613f04573d6000803e3d6000fd5b505050506040513d6020811015613f1a57600080fd5b5051604080517c010000000000000000000000000000000000000000000000000000000063ffffffff85160281527fffffffff0000000000000000000000000000000000000000000000000000000090921660048301525160248083019260209291908290030181600087803b158015613f9357600080fd5b505af1158015613fa7573d6000803e3d6000fd5b505050506040513d6020811015613fbd57600080fd5b5051151561402c57604080517f08c379a000000000000000000000000000000000000000000000000000000000815260206004820152601d60248201527f436f6e76657274696e672043555344206e6f7420737570706f72746564000000604482015290519081900360640190fd5b600154604080517fc1c49cbb000000000000000000000000000000000000000000000000000000008152905173ffffffffffffffffffffffffffffffffffffffff9092169163933aa66791839163c1c49cbb916004808201926020929091908290030181600087803b1580156140a157600080fd5b505af11580156140b5573d6000803e3d6000fd5b505050506040513d60208110156140cb57600080fd5b5051604080517c010000000000000000000000000000000000000000000000000000000063ffffffff85160281527fffffffff0000000000000000000000000000000000000000000000000000000090921660048301525160248083019260209291908290030181600087803b15801561414457600080fd5b505af1158015614158573d6000803e3d6000fd5b505050506040513d602081101561416e57600080fd5b505115156141dd57604080517f08c379a000000000000000000000000000000000000000000000000000000000815260206004820152601a60248201527f4275726e696e672043555344206e6f7420737570706f72746564000000000000604482015290519081900360640190fd5b600154604080517f9491951b000000000000000000000000000000000000000000000000000000008152905173ffffffffffffffffffffffffffffffffffffffff9092169163933aa667918391639491951b916004808201926020929091908290030181600087803b15801561425257600080fd5b505af1158015614266573d6000803e3d6000fd5b505050506040513d602081101561427c57600080fd5b5051604080517c010000000000000000000000000000000000000000000000000000000063ffffffff85160281527fffffffff0000000000000000000000000000000000000000000000000000000090921660048301525160248083019260209291908290030181600087803b1580156142f557600080fd5b505af1158015614309573d6000803e3d6000fd5b505050506040513d602081101561431f57600080fd5b505115156143b457604080517f08c379a000000000000000000000000000000000000000000000000000000000815260206004820152602360248201527f426c61636b6c697374696e67206e6f7420737570706f7274656420627920746f60448201527f6b656e0000000000000000000000000000000000000000000000000000000000606482015290519081900360840190fd5b600154604080517ff9d50543000000000000000000000000000000000000000000000000000000008152905173ffffffffffffffffffffffffffffffffffffffff90921691635317e444918491849163f9d505439160048083019260209291908290030181600087803b15801561442a57600080fd5b505af115801561443e573d6000803e3d6000fd5b505050506040513d602081101561445457600080fd5b5051604080517c010000000000000000000000000000000000000000000000000000000063ffffffff861602815273ffffffffffffffffffffffffffffffffffffffff90931660048401527fffffffff00000000000000000000000000000000000000000000000000000000909116602483015251604480830192600092919082900301818387803b1580156144e957600080fd5b505af11580156144fd573d6000803e3d6000fd5b5050600154604080517fc1c49cbb000000000000000000000000000000000000000000000000000000008152905173ffffffffffffffffffffffffffffffffffffffff9092169350635317e44492508491849163c1c49cbb9160048083019260209291908290030181600087803b15801561457757600080fd5b505af115801561458b573d6000803e3d6000fd5b505050506040513d60208110156145a157600080fd5b5051604080517c010000000000000000000000000000000000000000000000000000000063ffffffff861602815273ffffffffffffffffffffffffffffffffffffffff90931660048401527fffffffff00000000000000000000000000000000000000000000000000000000909116602483015251604480830192600092919082900301818387803b15801561463657600080fd5b505af115801561464a573d6000803e3d6000fd5b5050600154604080517f9491951b000000000000000000000000000000000000000000000000000000008152905173ffffffffffffffffffffffffffffffffffffffff9092169350631c870eee925084918491639491951b9160048083019260209291908290030181600087803b1580156146c457600080fd5b505af11580156146d8573d6000803e3d6000fd5b505050506040513d60208110156146ee57600080fd5b5051604080517c010000000000000000000000000000000000000000000000000000000063ffffffff861602815273ffffffffffffffffffffffffffffffffffffffff90931660048401527fffffffff00000000000000000000000000000000000000000000000000000000909116602483015251604480830192600092919082900301818387803b15801561478357600080fd5b505af1158015614797573d6000803e3d6000fd5b505060405173ffffffffffffffffffffffffffffffffffffffff841692507f8ed6db9e8aeb425f391c919c79778f978777d9e9e9f357656b139b2e9251de929150600090a250565b600154604080517ff9d50543000000000000000000000000000000000000000000000000000000008152905173ffffffffffffffffffffffffffffffffffffffff9092169163933aa66791839163f9d50543916004808201926020929091908290030181600087803b15801561485457600080fd5b505af1158015614868573d6000803e3d6000fd5b505050506040513d602081101561487e57600080fd5b5051604080517c010000000000000000000000000000000000000000000000000000000063ffffffff85160281527fffffffff0000000000000000000000000000000000000000000000000000000090921660048301525160248083019260209291908290030181600087803b1580156148f757600080fd5b505af115801561490b573d6000803e3d6000fd5b505050506040513d602081101561492157600080fd5b5051151561499057604080517f08c379a000000000000000000000000000000000000000000000000000000000815260206004820152601d60248201527f436f6e76657274696e672043555344206e6f7420737570706f72746564000000604482015290519081900360640190fd5b600154604080517fc1c49cbb000000000000000000000000000000000000000000000000000000008152905173ffffffffffffffffffffffffffffffffffffffff9092169163933aa66791839163c1c49cbb916004808201926020929091908290030181600087803b158015614a0557600080fd5b505af1158015614a19573d6000803e3d6000fd5b505050506040513d6020811015614a2f57600080fd5b5051604080517c010000000000000000000000000000000000000000000000000000000063ffffffff85160281527fffffffff0000000000000000000000000000000000000000000000000000000090921660048301525160248083019260209291908290030181600087803b158015614aa857600080fd5b505af1158015614abc573d6000803e3d6000fd5b505050506040513d6020811015614ad257600080fd5b50511515614b4157604080517f08c379a000000000000000000000000000000000000000000000000000000000815260206004820152601a60248201527f4275726e696e672043555344206e6f7420737570706f72746564000000000000604482015290519081900360640190fd5b600154604080517f9491951b000000000000000000000000000000000000000000000000000000008152905173ffffffffffffffffffffffffffffffffffffffff9092169163933aa667918391639491951b916004808201926020929091908290030181600087803b158015614bb657600080fd5b505af1158015614bca573d6000803e3d6000fd5b505050506040513d6020811015614be057600080fd5b5051604080517c010000000000000000000000000000000000000000000000000000000063ffffffff85160281527fffffffff0000000000000000000000000000000000000000000000000000000090921660048301525160248083019260209291908290030181600087803b158015614c5957600080fd5b505af1158015614c6d573d6000803e3d6000fd5b505050506040513d6020811015614c8357600080fd5b50511515614d1857604080517f08c379a000000000000000000000000000000000000000000000000000000000815260206004820152602360248201527f426c61636b6c697374696e67206e6f7420737570706f7274656420627920746f60448201527f6b656e0000000000000000000000000000000000000000000000000000000000606482015290519081900360840190fd5b600154604080517ff9d50543000000000000000000000000000000000000000000000000000000008152905173ffffffffffffffffffffffffffffffffffffffff90921691635317e444918491849163f9d505439160048083019260209291908290030181600087803b158015614d8e57600080fd5b505af1158015614da2573d6000803e3d6000fd5b505050506040513d6020811015614db857600080fd5b5051604080517c010000000000000000000000000000000000000000000000000000000063ffffffff861602815273ffffffffffffffffffffffffffffffffffffffff90931660048401527fffffffff00000000000000000000000000000000000000000000000000000000909116602483015251604480830192600092919082900301818387803b158015614e4d57600080fd5b505af1158015614e61573d6000803e3d6000fd5b5050600154604080517fc1c49cbb000000000000000000000000000000000000000000000000000000008152905173ffffffffffffffffffffffffffffffffffffffff9092169350635317e44492508491849163c1c49cbb9160048083019260209291908290030181600087803b158015614edb57600080fd5b505af1158015614eef573d6000803e3d6000fd5b505050506040513d6020811015614f0557600080fd5b5051604080517c010000000000000000000000000000000000000000000000000000000063ffffffff861602815273ffffffffffffffffffffffffffffffffffffffff90931660048401527fffffffff00000000000000000000000000000000000000000000000000000000909116602483015251604480830192600092919082900301818387803b158015614f9a57600080fd5b505af1158015614fae573d6000803e3d6000fd5b5050600154604080517f9491951b000000000000000000000000000000000000000000000000000000008152905173ffffffffffffffffffffffffffffffffffffffff9092169350635317e444925084918491639491951b9160048083019260209291908290030181600087803b15801561502857600080fd5b505af115801561503c573d6000803e3d6000fd5b505050506040513d602081101561505257600080fd5b5051604080517c010000000000000000000000000000000000000000000000000000000063ffffffff861602815273ffffffffffffffffffffffffffffffffffffffff90931660048401527fffffffff00000000000000000000000000000000000000000000000000000000909116602483015251604480830192600092919082900301818387803b1580156150e757600080fd5b505af11580156150fb573d6000803e3d6000fd5b505060405173ffffffffffffffffffffffffffffffffffffffff841692507f99fac8adcffc13d01bc3b656d54bfa9e5f9a77ace9bf19f5a1a9469990a782b79150600090a250565b73ffffffffffffffffffffffffffffffffffffffff8116151561516557600080fd5b6000805460405173ffffffffffffffffffffffffffffffffffffffff808516939216917f8be0079c531659141344cd1fd0a4f28419497f9722a3daafe3b4186f6b6457e091a3600080547fffffffffffffffffffffffff00000000000000000000000000000000000000001673ffffffffffffffffffffffffffffffffffffffff92909216919091179055565b600154604080517f88f14b0e000000000000000000000000000000000000000000000000000000008152905173ffffffffffffffffffffffffffffffffffffffff9092169163933aa6679183916388f14b0e916004808201926020929091908290030181600087803b15801561526757600080fd5b505af115801561527b573d6000803e3d6000fd5b505050506040513d602081101561529157600080fd5b5051604080517c010000000000000000000000000000000000000000000000000000000063ffffffff85160281527fffffffff0000000000000000000000000000000000000000000000000000000090921660048301525160248083019260209291908290030181600087803b15801561530a57600080fd5b505af115801561531e573d6000803e3d6000fd5b505050506040513d602081101561533457600080fd5b505115156153a357604080517f08c379a000000000000000000000000000000000000000000000000000000000815260206004820152601e60248201527f4d696e74696e67206e6f7420737570706f7274656420627920746f6b656e0000604482015290519081900360640190fd5b600154604080517f88f14b0e000000000000000000000000000000000000000000000000000000008152905173ffffffffffffffffffffffffffffffffffffffff90921691631c870eee91849184916388f14b0e9160048083019260209291908290030181600087803b15801561541957600080fd5b505af115801561542d573d6000803e3d6000fd5b505050506040513d602081101561544357600080fd5b5051604080517c010000000000000000000000000000000000000000000000000000000063ffffffff861602815273ffffffffffffffffffffffffffffffffffffffff90931660048401527fffffffff00000000000000000000000000000000000000000000000000000000909116602483015251604480830192600092919082900301818387803b1580156154d857600080fd5b505af11580156154ec573d6000803e3d6000fd5b505060405173ffffffffffffffffffffffffffffffffffffffff841692507fcec52196e972044edde8689a1b608e459c5946b7f3e5c8cd3d6d8e126d422e1c9150600090a2505600a165627a7a72305820039d0cdcb2e49b718c2345aff49d29ca84a0dfd32313245a742caad3c71030f10029",
  "source": "pragma solidity ^0.4.24;\n\nimport \"../Regulator.sol\";\n\n/**\n * @title CarbonDollarRegulator\n * @dev CarbonDollarRegulator is a type of Regulator that modifies its definitions of\n * what constitutes a \"whitelisted/nonlisted/blacklisted\" user. A CarbonDollar\n * provides a user the additional ability to convert from CUSD into a whtielisted stablecoin\n *\n */\ncontract CarbonDollarRegulator is Regulator {\n\n    constructor(address p, address v) Regulator(p,v) public {}\n\n    // Setters: CarbonDollarRegulator overrides the definitions of whitelisted, nonlisted, and blacklisted setUserPermission\n\n    // CarbonDollar whitelisted users burn CUSD into a WhitelistedToken. Unlike PermissionedToken \n    // whitelisted users, CarbonDollar whitelisted users cannot burn ordinary CUSD without converting into WT\n    function _setWhitelistedUser(address _who) internal {\n        require(permissions.isPermission(permissions.CONVERT_CARBON_DOLLAR_SIG()), \"Converting CUSD not supported\");\n        require(permissions.isPermission(permissions.BURN_CARBON_DOLLAR_SIG()), \"Burning CUSD not supported\");\n        require(permissions.isPermission(permissions.BLACKLISTED_SIG()), \"Blacklisting not supported by token\");\n        permissions.setUserPermission(_who, permissions.CONVERT_CARBON_DOLLAR_SIG());\n        permissions.setUserPermission(_who, permissions.BURN_CARBON_DOLLAR_SIG());\n        permissions.removeUserPermission(_who, permissions.BLACKLISTED_SIG());\n        emit SetWhitelistedUser(_who);\n\n    }\n\n    function _setBlacklistedUser(address _who) internal {\n        require(permissions.isPermission(permissions.CONVERT_CARBON_DOLLAR_SIG()), \"Converting CUSD not supported\");\n        require(permissions.isPermission(permissions.BURN_CARBON_DOLLAR_SIG()), \"Burning CUSD not supported\");\n        require(permissions.isPermission(permissions.BLACKLISTED_SIG()), \"Blacklisting not supported by token\");\n        permissions.removeUserPermission(_who, permissions.CONVERT_CARBON_DOLLAR_SIG());\n        permissions.removeUserPermission(_who, permissions.BURN_CARBON_DOLLAR_SIG());\n        permissions.setUserPermission(_who, permissions.BLACKLISTED_SIG());\n        emit SetBlacklistedUser(_who);\n    }\n\n    function _setNonlistedUser(address _who) internal {\n        require(permissions.isPermission(permissions.CONVERT_CARBON_DOLLAR_SIG()), \"Converting CUSD not supported\");\n        require(permissions.isPermission(permissions.BURN_CARBON_DOLLAR_SIG()), \"Burning CUSD not supported\");\n        require(permissions.isPermission(permissions.BLACKLISTED_SIG()), \"Blacklisting not supported by token\");\n        permissions.removeUserPermission(_who, permissions.CONVERT_CARBON_DOLLAR_SIG());\n        permissions.removeUserPermission(_who, permissions.BURN_CARBON_DOLLAR_SIG());\n        permissions.removeUserPermission(_who, permissions.BLACKLISTED_SIG());\n        emit SetNonlistedUser(_who);\n    }\n\n    // Getters\n    function isWhitelistedUser(address _who) public view returns(bool) {\n        return (hasUserPermission(_who, permissions.CONVERT_CARBON_DOLLAR_SIG()) \n        && hasUserPermission(_who, permissions.BURN_CARBON_DOLLAR_SIG()) \n        && !hasUserPermission(_who, permissions.BLACKLISTED_SIG()));\n    }\n\n    function isBlacklistedUser(address _who) public view returns(bool) {\n        return (!hasUserPermission(_who, permissions.CONVERT_CARBON_DOLLAR_SIG()) \n        && !hasUserPermission(_who, permissions.BURN_CARBON_DOLLAR_SIG()) \n        && hasUserPermission(_who, permissions.BLACKLISTED_SIG()));\n    }\n\n    function isNonlistedUser(address _who) public view returns(bool) {\n        return (!hasUserPermission(_who, permissions.CONVERT_CARBON_DOLLAR_SIG()) \n        && !hasUserPermission(_who, permissions.BURN_CARBON_DOLLAR_SIG()) \n        && !hasUserPermission(_who, permissions.BLACKLISTED_SIG()));\n    }\n}",
  "sourcePath": "/Users/tanishqaggarwal/Documents/carbon/fiat_gateway/contracts/regulator/carbonDollarRegulator/CarbonDollarRegulator.sol",
  "compiler": {
    "name": "solc",
    "version": "0.4.24+commit.e67f0147.Emscripten.clang"
  },
  "schemaVersion": "2.0.1",
  "updatedAt": "2018-08-13T20:26:48.093Z"
}