{
  "contractName": "CarbonToken",
  "abi": [
    {
      "constant": false,
      "inputs": [],
      "name": "renounceOwnership",
      "outputs": [],
      "payable": false,
      "stateMutability": "nonpayable",
      "type": "function"
    },
    {
      "constant": true,
      "inputs": [],
      "name": "owner",
      "outputs": [
        {
          "name": "",
          "type": "address"
        }
      ],
      "payable": false,
      "stateMutability": "view",
      "type": "function"
    },
    {
      "constant": false,
      "inputs": [
        {
          "name": "_newOwner",
          "type": "address"
        }
      ],
      "name": "transferOwnership",
      "outputs": [],
      "payable": false,
      "stateMutability": "nonpayable",
      "type": "function"
    },
    {
      "anonymous": false,
      "inputs": [
        {
          "indexed": false,
          "name": "oldToken",
          "type": "address"
        },
        {
          "indexed": false,
          "name": "newToken",
          "type": "address"
        },
        {
          "indexed": false,
          "name": "currency",
          "type": "string"
        }
      ],
      "name": "CurrencyTokenChanged",
      "type": "event"
    },
    {
      "anonymous": false,
      "inputs": [
        {
          "indexed": false,
          "name": "oldProxy",
          "type": "address"
        },
        {
          "indexed": false,
          "name": "newProxy",
          "type": "address"
        },
        {
          "indexed": false,
          "name": "currency",
          "type": "string"
        }
      ],
      "name": "CurrencyProxyChanged",
      "type": "event"
    },
    {
      "anonymous": false,
      "inputs": [
        {
          "indexed": false,
          "name": "oldToken",
          "type": "address"
        },
        {
          "indexed": false,
          "name": "newToken",
          "type": "address"
        },
        {
          "indexed": false,
          "name": "balances",
          "type": "address"
        },
        {
          "indexed": false,
          "name": "currency",
          "type": "string"
        }
      ],
      "name": "CurrencyBalancesMigrated",
      "type": "event"
    },
    {
      "anonymous": false,
      "inputs": [
        {
          "indexed": false,
          "name": "oldToken",
          "type": "address"
        },
        {
          "indexed": false,
          "name": "newToken",
          "type": "address"
        },
        {
          "indexed": false,
          "name": "allowances",
          "type": "address"
        },
        {
          "indexed": false,
          "name": "currency",
          "type": "string"
        }
      ],
      "name": "CurrencyAllowancesMigrated",
      "type": "event"
    },
    {
      "anonymous": false,
      "inputs": [
        {
          "indexed": true,
          "name": "previousOwner",
          "type": "address"
        }
      ],
      "name": "OwnershipRenounced",
      "type": "event"
    },
    {
      "anonymous": false,
      "inputs": [
        {
          "indexed": true,
          "name": "previousOwner",
          "type": "address"
        },
        {
          "indexed": true,
          "name": "newOwner",
          "type": "address"
        }
      ],
      "name": "OwnershipTransferred",
      "type": "event"
    },
    {
      "constant": false,
      "inputs": [
        {
          "name": "proxy",
          "type": "address"
        },
        {
          "name": "currency",
          "type": "string"
        }
      ],
      "name": "setCurrencyProxy",
      "outputs": [
        {
          "name": "pOld",
          "type": "address"
        }
      ],
      "payable": false,
      "stateMutability": "nonpayable",
      "type": "function"
    },
    {
      "constant": false,
      "inputs": [
        {
          "name": "tokenAddr",
          "type": "address"
        },
        {
          "name": "currency",
          "type": "string"
        },
        {
          "name": "migrateData",
          "type": "bool"
        }
      ],
      "name": "setCurrencyToken",
      "outputs": [
        {
          "name": "oldAddr",
          "type": "address"
        }
      ],
      "payable": false,
      "stateMutability": "nonpayable",
      "type": "function"
    },
    {
      "constant": false,
      "inputs": [
        {
          "name": "oldTokenAddr",
          "type": "address"
        },
        {
          "name": "currency",
          "type": "string"
        }
      ],
      "name": "migrateAll",
      "outputs": [],
      "payable": false,
      "stateMutability": "nonpayable",
      "type": "function"
    },
    {
      "constant": false,
      "inputs": [
        {
          "name": "oldTokenAddr",
          "type": "address"
        },
        {
          "name": "currency",
          "type": "string"
        }
      ],
      "name": "migrateBalances",
      "outputs": [],
      "payable": false,
      "stateMutability": "nonpayable",
      "type": "function"
    },
    {
      "constant": false,
      "inputs": [
        {
          "name": "oldTokenAddr",
          "type": "address"
        },
        {
          "name": "currency",
          "type": "string"
        }
      ],
      "name": "migrateAllowances",
      "outputs": [],
      "payable": false,
      "stateMutability": "nonpayable",
      "type": "function"
    }
  ],
  "bytecode": "0x6080604052336000806101000a81548173ffffffffffffffffffffffffffffffffffffffff021916908373ffffffffffffffffffffffffffffffffffffffff16021790555061163b806100536000396000f30060806040526004361061008e576000357c0100000000000000000000000000000000000000000000000000000000900463ffffffff168063715018a6146100935780637b23d376146100aa5780638da5cb5b14610133578063923031421461018a578063ceb0a8bc14610253578063d54dfe1d14610328578063dbae14b3146103b1578063f2fde38b1461043a575b600080fd5b34801561009f57600080fd5b506100a861047d565b005b3480156100b657600080fd5b50610131600480360381019080803573ffffffffffffffffffffffffffffffffffffffff169060200190929190803590602001908201803590602001908080601f016020809104026020016040519081016040528093929190818152602001838380828437820191505050505050919291929050505061057f565b005b34801561013f57600080fd5b506101486108af565b604051808273ffffffffffffffffffffffffffffffffffffffff1673ffffffffffffffffffffffffffffffffffffffff16815260200191505060405180910390f35b34801561019657600080fd5b50610211600480360381019080803573ffffffffffffffffffffffffffffffffffffffff169060200190929190803590602001908201803590602001908080601f01602080910402602001604051908101604052809392919081815260200183838082843782019150505050505091929192905050506108d4565b604051808273ffffffffffffffffffffffffffffffffffffffff1673ffffffffffffffffffffffffffffffffffffffff16815260200191505060405180910390f35b34801561025f57600080fd5b506102e6600480360381019080803573ffffffffffffffffffffffffffffffffffffffff169060200190929190803590602001908201803590602001908080601f0160208091040260200160405190810160405280939291908181526020018383808284378201915050505050509192919290803515159060200190929190505050610bf0565b604051808273ffffffffffffffffffffffffffffffffffffffff1673ffffffffffffffffffffffffffffffffffffffff16815260200191505060405180910390f35b34801561033457600080fd5b506103af600480360381019080803573ffffffffffffffffffffffffffffffffffffffff169060200190929190803590602001908201803590602001908080601f01602080910402602001604051908101604052809392919081815260200183838082843782019150505050505091929192905050506110f8565b005b3480156103bd57600080fd5b50610438600480360381019080803573ffffffffffffffffffffffffffffffffffffffff169060200190929190803590602001908201803590602001908080601f016020809104026020016040519081016040528093929190818152602001838380828437820191505050505050919291929050505061116b565b005b34801561044657600080fd5b5061047b600480360381019080803573ffffffffffffffffffffffffffffffffffffffff16906020019092919050505061149b565b005b6000809054906101000a900473ffffffffffffffffffffffffffffffffffffffff1673ffffffffffffffffffffffffffffffffffffffff163373ffffffffffffffffffffffffffffffffffffffff161415156104d857600080fd5b6000809054906101000a900473ffffffffffffffffffffffffffffffffffffffff1673ffffffffffffffffffffffffffffffffffffffff167ff8df31144d9c2f0f6b59d69b8b98abd5459d07f2742c4df920b25aae33c6482060405160405180910390a260008060006101000a81548173ffffffffffffffffffffffffffffffffffffffff021916908373ffffffffffffffffffffffffffffffffffffffff160217905550565b6000806000809054906101000a900473ffffffffffffffffffffffffffffffffffffffff1673ffffffffffffffffffffffffffffffffffffffff163373ffffffffffffffffffffffffffffffffffffffff161415156105dd57600080fd5b8391506001836040518082805190602001908083835b60208310151561061857805182526020820191506020810190506020830392506105f3565b6001836020036101000a038019825116818451168082178552505050505050905001915050908152602001604051809103902060009054906101000a900473ffffffffffffffffffffffffffffffffffffffff1690508073ffffffffffffffffffffffffffffffffffffffff166354f78dad8373ffffffffffffffffffffffffffffffffffffffff166040518263ffffffff167c0100000000000000000000000000000000000000000000000000000000028152600401808273ffffffffffffffffffffffffffffffffffffffff1673ffffffffffffffffffffffffffffffffffffffff168152602001915050602060405180830381600087803b15801561071f57600080fd5b505af1158015610733573d6000803e3d6000fd5b505050506040513d602081101561074957600080fd5b8101908080519060200190929190505050507f3dd6291092d24aafde96d1957cff792482c28ae81804d9ae7874a24a47c0152284828473ffffffffffffffffffffffffffffffffffffffff1686604051808573ffffffffffffffffffffffffffffffffffffffff1673ffffffffffffffffffffffffffffffffffffffff1681526020018473ffffffffffffffffffffffffffffffffffffffff1673ffffffffffffffffffffffffffffffffffffffff1681526020018373ffffffffffffffffffffffffffffffffffffffff1673ffffffffffffffffffffffffffffffffffffffff16815260200180602001828103825283818151815260200191508051906020019080838360005b8381101561086c578082015181840152602081019050610851565b50505050905090810190601f1680156108995780820380516001836020036101000a031916815260200191505b509550505050505060405180910390a150505050565b6000809054906101000a900473ffffffffffffffffffffffffffffffffffffffff1681565b60008060009054906101000a900473ffffffffffffffffffffffffffffffffffffffff1673ffffffffffffffffffffffffffffffffffffffff163373ffffffffffffffffffffffffffffffffffffffff1614151561093157600080fd5b61093a83611502565b15156109ae576040517f08c379a000000000000000000000000000000000000000000000000000000000815260040180806020018281038252601a8152602001807f50726f78792061646472657373206973206e6f742076616c696400000000000081525060200191505060405180910390fd5b6001826040518082805190602001908083835b6020831015156109e657805182526020820191506020810190506020830392506109c1565b6001836020036101000a038019825116818451168082178552505050505050905001915050908152602001604051809103902060009054906101000a900473ffffffffffffffffffffffffffffffffffffffff169050826001836040518082805190602001908083835b602083101515610a755780518252602082019150602081019050602083039250610a50565b6001836020036101000a038019825116818451168082178552505050505050905001915050908152602001604051809103902060006101000a81548173ffffffffffffffffffffffffffffffffffffffff021916908373ffffffffffffffffffffffffffffffffffffffff1602179055507ff0a563530f6536007c10481886cd506d745362b4b0cf3ef13c92a93c26364b3f818484604051808473ffffffffffffffffffffffffffffffffffffffff1673ffffffffffffffffffffffffffffffffffffffff1681526020018373ffffffffffffffffffffffffffffffffffffffff1673ffffffffffffffffffffffffffffffffffffffff16815260200180602001828103825283818151815260200191508051906020019080838360005b83811015610bae578082015181840152602081019050610b93565b50505050905090810190601f168015610bdb5780820380516001836020036101000a031916815260200191505b5094505050505060405180910390a192915050565b6000806000809054906101000a900473ffffffffffffffffffffffffffffffffffffffff1673ffffffffffffffffffffffffffffffffffffffff163373ffffffffffffffffffffffffffffffffffffffff16141515610c4e57600080fd5b610ce26001856040518082805190602001908083835b602083101515610c895780518252602082019150602081019050602083039250610c64565b6001836020036101000a038019825116818451168082178552505050505050905001915050908152602001604051809103902060009054906101000a900473ffffffffffffffffffffffffffffffffffffffff16611502565b1515610d56576040517f08c379a00000000000000000000000000000000000000000000000000000000081526004018080602001828103825260168152602001807f43757272656e63792070726f7879206e6f74207365740000000000000000000081525060200191505060405180910390fd5b610d5f85611502565b1515610df9576040517f08c379a00000000000000000000000000000000000000000000000000000000081526004018080602001828103825260238152602001807f546f6b656e20636f6e74726163742061646472657373206973206e6f7420766181526020017f6c6964000000000000000000000000000000000000000000000000000000000081525060400191505060405180910390fd5b6001846040518082805190602001908083835b602083101515610e315780518252602082019150602081019050602083039250610e0c565b6001836020036101000a038019825116818451168082178552505050505050905001915050908152602001604051809103902060009054906101000a900473ffffffffffffffffffffffffffffffffffffffff1690508073ffffffffffffffffffffffffffffffffffffffff16635c60da1b6040518163ffffffff167c0100000000000000000000000000000000000000000000000000000000028152600401602060405180830381600087803b158015610eeb57600080fd5b505af1158015610eff573d6000803e3d6000fd5b505050506040513d6020811015610f1557600080fd5b810190808051906020019092919050505091508073ffffffffffffffffffffffffffffffffffffffff16633659cfe6866040518263ffffffff167c0100000000000000000000000000000000000000000000000000000000028152600401808273ffffffffffffffffffffffffffffffffffffffff1673ffffffffffffffffffffffffffffffffffffffff168152602001915050600060405180830381600087803b158015610fc357600080fd5b505af1158015610fd7573d6000803e3d6000fd5b505050508215610fec57610feb82856110f8565b5b7f1dba6a98c471ccb78ec36a0fd092afb07324d3d5d0955e86cf9eafb8d53abed2828686604051808473ffffffffffffffffffffffffffffffffffffffff1673ffffffffffffffffffffffffffffffffffffffff1681526020018373ffffffffffffffffffffffffffffffffffffffff1673ffffffffffffffffffffffffffffffffffffffff16815260200180602001828103825283818151815260200191508051906020019080838360005b838110156110b4578082015181840152602081019050611099565b50505050905090810190601f1680156110e15780820380516001836020036101000a031916815260200191505b5094505050505060405180910390a1509392505050565b6000809054906101000a900473ffffffffffffffffffffffffffffffffffffffff1673ffffffffffffffffffffffffffffffffffffffff163373ffffffffffffffffffffffffffffffffffffffff1614151561115357600080fd5b61115d828261057f565b611167828261116b565b5050565b6000806000809054906101000a900473ffffffffffffffffffffffffffffffffffffffff1673ffffffffffffffffffffffffffffffffffffffff163373ffffffffffffffffffffffffffffffffffffffff161415156111c957600080fd5b8391506001836040518082805190602001908083835b60208310151561120457805182526020820191506020810190506020830392506111df565b6001836020036101000a038019825116818451168082178552505050505050905001915050908152602001604051809103902060009054906101000a900473ffffffffffffffffffffffffffffffffffffffff1690508073ffffffffffffffffffffffffffffffffffffffff1663edc1e4f98373ffffffffffffffffffffffffffffffffffffffff166040518263ffffffff167c0100000000000000000000000000000000000000000000000000000000028152600401808273ffffffffffffffffffffffffffffffffffffffff1673ffffffffffffffffffffffffffffffffffffffff168152602001915050602060405180830381600087803b15801561130b57600080fd5b505af115801561131f573d6000803e3d6000fd5b505050506040513d602081101561133557600080fd5b8101908080519060200190929190505050507f33ef33a82ab8b54b52a66d469753d4d4acfa6985a974218a0db842ba7d293e4184828473ffffffffffffffffffffffffffffffffffffffff1686604051808573ffffffffffffffffffffffffffffffffffffffff1673ffffffffffffffffffffffffffffffffffffffff1681526020018473ffffffffffffffffffffffffffffffffffffffff1673ffffffffffffffffffffffffffffffffffffffff1681526020018373ffffffffffffffffffffffffffffffffffffffff1673ffffffffffffffffffffffffffffffffffffffff16815260200180602001828103825283818151815260200191508051906020019080838360005b8381101561145857808201518184015260208101905061143d565b50505050905090810190601f1680156114855780820380516001836020036101000a031916815260200191505b509550505050505060405180910390a150505050565b6000809054906101000a900473ffffffffffffffffffffffffffffffffffffffff1673ffffffffffffffffffffffffffffffffffffffff163373ffffffffffffffffffffffffffffffffffffffff161415156114f657600080fd5b6114ff81611515565b50565b600080823b905060008111915050919050565b600073ffffffffffffffffffffffffffffffffffffffff168173ffffffffffffffffffffffffffffffffffffffff161415151561155157600080fd5b8073ffffffffffffffffffffffffffffffffffffffff166000809054906101000a900473ffffffffffffffffffffffffffffffffffffffff1673ffffffffffffffffffffffffffffffffffffffff167f8be0079c531659141344cd1fd0a4f28419497f9722a3daafe3b4186f6b6457e060405160405180910390a3806000806101000a81548173ffffffffffffffffffffffffffffffffffffffff021916908373ffffffffffffffffffffffffffffffffffffffff160217905550505600a165627a7a723058203753e4f5e9eba826e436575627d1728dc6f230206436099996874182053be76f0029",
  "source": "pragma solidity ^0.4.23;\n\nimport \"openzeppelin-solidity/contracts/AddressUtils.sol\";\nimport \"./permissions/PermissionedTokenProxy.sol\";\nimport \"./permissions/PermissionedToken.sol\";\n\ncontract CarbonToken is Ownable {\n    mapping (string => address) currencyProxies; // Mapping from currency name to address of currency proxy\n\n    event CurrencyTokenChanged(address oldToken, address newToken, string currency);\n    event CurrencyProxyChanged(address oldProxy, address newProxy, string currency);\n\n    event CurrencyBalancesMigrated(address oldToken, address newToken, address balances, string currency);\n    event CurrencyAllowancesMigrated(address oldToken, address newToken, address allowances, string currency);\n\n    function setCurrencyProxy(address proxy, string currency) public onlyOwner returns (address pOld) {\n        require(AddressUtils.isContract(proxy), \"Proxy address is not valid\");\n        pOld = currencyProxies[currency];\n        currencyProxies[currency] = proxy;\n        emit CurrencyProxyChanged(pOld, proxy, currency);\n    }\n\n    function setCurrencyToken(address tokenAddr, string currency, bool migrateData) public onlyOwner returns (address oldAddr) {\n        require(AddressUtils.isContract(currencyProxies[currency]), \"Currency proxy not set\");\n        require(AddressUtils.isContract(tokenAddr), \"Token contract address is not valid\");\n        PermissionedTokenProxy p = PermissionedTokenProxy(currencyProxies[currency]);\n        oldAddr = p.implementation();\n        p.upgradeTo(tokenAddr);\n        if (migrateData) migrateAll(oldAddr, currency);\n        emit CurrencyTokenChanged(oldAddr, tokenAddr, currency);\n    }\n\n    function migrateAll(address oldTokenAddr, string currency) public onlyOwner {\n        migrateBalances(oldTokenAddr, currency);\n        migrateAllowances(oldTokenAddr, currency);\n    }\n\n    function migrateBalances(address oldTokenAddr, string currency) public onlyOwner {\n        PermissionedToken pOld = PermissionedToken(oldTokenAddr);\n        PermissionedToken pNew = PermissionedToken(currencyProxies[currency]);\n        pNew.setBalanceSheet(address(pOld.balances));\n        emit CurrencyBalancesMigrated(oldTokenAddr, address(pNew), address(pOld.balances), currency);\n    }\n\n    function migrateAllowances(address oldTokenAddr, string currency) public onlyOwner {\n        PermissionedToken pOld = PermissionedToken(oldTokenAddr);\n        PermissionedToken pNew = PermissionedToken(currencyProxies[currency]);\n        pNew.setAllowanceSheet(address(pOld.allowances));\n        emit CurrencyAllowancesMigrated(oldTokenAddr, address(pNew), address(pOld.allowances), currency);\n    }\n}",
  "sourcePath": "/Users/tanishqaggarwal/Documents/carbon/fiat_gateway/contracts/CarbonToken.sol",
  "compiler": {
    "name": "solc",
    "version": "0.4.24+commit.e67f0147.Emscripten.clang"
  },
  "schemaVersion": "2.0.0",
  "updatedAt": "2018-07-10T20:14:48.163Z"
}