{
  "contractName": "CarbonDollar",
  "abi": [
    {
      "constant": false,
      "inputs": [
        {
          "name": "_spender",
          "type": "address"
        },
        {
          "name": "_value",
          "type": "uint256"
        }
      ],
      "name": "approve",
      "outputs": [
        {
          "name": "",
          "type": "bool"
        }
      ],
      "payable": false,
      "stateMutability": "nonpayable",
      "type": "function"
    },
    {
      "constant": true,
      "inputs": [],
      "name": "totalSupply",
      "outputs": [
        {
          "name": "",
          "type": "uint256"
        }
      ],
      "payable": false,
      "stateMutability": "view",
      "type": "function"
    },
    {
      "constant": false,
      "inputs": [
        {
          "name": "_from",
          "type": "address"
        },
        {
          "name": "_to",
          "type": "address"
        },
        {
          "name": "_amount",
          "type": "uint256"
        }
      ],
      "name": "transferFrom",
      "outputs": [
        {
          "name": "",
          "type": "bool"
        }
      ],
      "payable": false,
      "stateMutability": "nonpayable",
      "type": "function"
    },
    {
      "constant": false,
      "inputs": [],
      "name": "unpause",
      "outputs": [],
      "payable": false,
      "stateMutability": "nonpayable",
      "type": "function"
    },
    {
      "constant": false,
      "inputs": [
        {
          "name": "_amount",
          "type": "uint256"
        }
      ],
      "name": "burn",
      "outputs": [],
      "payable": false,
      "stateMutability": "nonpayable",
      "type": "function"
    },
    {
      "constant": false,
      "inputs": [],
      "name": "claimOwnership",
      "outputs": [],
      "payable": false,
      "stateMutability": "nonpayable",
      "type": "function"
    },
    {
      "constant": true,
      "inputs": [],
      "name": "blacklisted",
      "outputs": [
        {
          "name": "",
          "type": "bool"
        }
      ],
      "payable": false,
      "stateMutability": "view",
      "type": "function"
    },
    {
      "constant": true,
      "inputs": [],
      "name": "paused",
      "outputs": [
        {
          "name": "",
          "type": "bool"
        }
      ],
      "payable": false,
      "stateMutability": "view",
      "type": "function"
    },
    {
      "constant": false,
      "inputs": [
        {
          "name": "_spender",
          "type": "address"
        },
        {
          "name": "_subtractedValue",
          "type": "uint256"
        }
      ],
      "name": "decreaseApproval",
      "outputs": [
        {
          "name": "",
          "type": "bool"
        }
      ],
      "payable": false,
      "stateMutability": "nonpayable",
      "type": "function"
    },
    {
      "constant": false,
      "inputs": [
        {
          "name": "_blacklistedAccount",
          "type": "address"
        }
      ],
      "name": "approveBlacklistedAddressSpender",
      "outputs": [],
      "payable": false,
      "stateMutability": "nonpayable",
      "type": "function"
    },
    {
      "constant": true,
      "inputs": [
        {
          "name": "_addr",
          "type": "address"
        }
      ],
      "name": "balanceOf",
      "outputs": [
        {
          "name": "",
          "type": "uint256"
        }
      ],
      "payable": false,
      "stateMutability": "view",
      "type": "function"
    },
    {
      "constant": false,
      "inputs": [],
      "name": "pause",
      "outputs": [],
      "payable": false,
      "stateMutability": "nonpayable",
      "type": "function"
    },
    {
      "constant": true,
      "inputs": [],
      "name": "isMethodEnabled",
      "outputs": [
        {
          "name": "",
          "type": "bool"
        }
      ],
      "payable": false,
      "stateMutability": "view",
      "type": "function"
    },
    {
      "constant": true,
      "inputs": [],
      "name": "owner",
      "outputs": [
        {
          "name": "",
          "type": "address"
        }
      ],
      "payable": false,
      "stateMutability": "view",
      "type": "function"
    },
    {
      "constant": true,
      "inputs": [],
      "name": "tokenStorage_CD",
      "outputs": [
        {
          "name": "",
          "type": "address"
        }
      ],
      "payable": false,
      "stateMutability": "view",
      "type": "function"
    },
    {
      "constant": false,
      "inputs": [],
      "name": "unlock",
      "outputs": [],
      "payable": false,
      "stateMutability": "nonpayable",
      "type": "function"
    },
    {
      "constant": false,
      "inputs": [
        {
          "name": "_to",
          "type": "address"
        },
        {
          "name": "_amount",
          "type": "uint256"
        }
      ],
      "name": "transfer",
      "outputs": [
        {
          "name": "",
          "type": "bool"
        }
      ],
      "payable": false,
      "stateMutability": "nonpayable",
      "type": "function"
    },
    {
      "constant": true,
      "inputs": [],
      "name": "tokenStorage",
      "outputs": [
        {
          "name": "",
          "type": "address"
        }
      ],
      "payable": false,
      "stateMutability": "view",
      "type": "function"
    },
    {
      "constant": false,
      "inputs": [
        {
          "name": "_who",
          "type": "address"
        },
        {
          "name": "_amount",
          "type": "uint256"
        }
      ],
      "name": "destroyBlacklistedTokens",
      "outputs": [],
      "payable": false,
      "stateMutability": "nonpayable",
      "type": "function"
    },
    {
      "constant": false,
      "inputs": [
        {
          "name": "_newRegulator",
          "type": "address"
        }
      ],
      "name": "setRegulator",
      "outputs": [],
      "payable": false,
      "stateMutability": "nonpayable",
      "type": "function"
    },
    {
      "constant": false,
      "inputs": [
        {
          "name": "_spender",
          "type": "address"
        },
        {
          "name": "_addedValue",
          "type": "uint256"
        }
      ],
      "name": "increaseApproval",
      "outputs": [
        {
          "name": "",
          "type": "bool"
        }
      ],
      "payable": false,
      "stateMutability": "nonpayable",
      "type": "function"
    },
    {
      "constant": true,
      "inputs": [
        {
          "name": "owner",
          "type": "address"
        },
        {
          "name": "spender",
          "type": "address"
        }
      ],
      "name": "allowance",
      "outputs": [
        {
          "name": "",
          "type": "uint256"
        }
      ],
      "payable": false,
      "stateMutability": "view",
      "type": "function"
    },
    {
      "constant": true,
      "inputs": [],
      "name": "regulator",
      "outputs": [
        {
          "name": "",
          "type": "address"
        }
      ],
      "payable": false,
      "stateMutability": "view",
      "type": "function"
    },
    {
      "constant": true,
      "inputs": [],
      "name": "pendingOwner",
      "outputs": [
        {
          "name": "",
          "type": "address"
        }
      ],
      "payable": false,
      "stateMutability": "view",
      "type": "function"
    },
    {
      "constant": false,
      "inputs": [
        {
          "name": "_newOwner",
          "type": "address"
        }
      ],
      "name": "transferOwnership",
      "outputs": [],
      "payable": false,
      "stateMutability": "nonpayable",
      "type": "function"
    },
    {
      "constant": false,
      "inputs": [],
      "name": "lock",
      "outputs": [],
      "payable": false,
      "stateMutability": "nonpayable",
      "type": "function"
    },
    {
      "inputs": [
        {
          "name": "_regulator",
          "type": "address"
        }
      ],
      "payable": false,
      "stateMutability": "nonpayable",
      "type": "constructor"
    },
    {
      "anonymous": false,
      "inputs": [
        {
          "indexed": true,
          "name": "user",
          "type": "address"
        },
        {
          "indexed": false,
          "name": "amount",
          "type": "uint256"
        }
      ],
      "name": "ConvertedToWT",
      "type": "event"
    },
    {
      "anonymous": false,
      "inputs": [
        {
          "indexed": true,
          "name": "user",
          "type": "address"
        },
        {
          "indexed": false,
          "name": "feedAmount",
          "type": "uint256"
        },
        {
          "indexed": false,
          "name": "chargedFee",
          "type": "uint256"
        }
      ],
      "name": "BurnedCUSD",
      "type": "event"
    },
    {
      "anonymous": false,
      "inputs": [
        {
          "indexed": true,
          "name": "account",
          "type": "address"
        },
        {
          "indexed": false,
          "name": "amount",
          "type": "uint256"
        }
      ],
      "name": "DestroyedBlacklistedTokens",
      "type": "event"
    },
    {
      "anonymous": false,
      "inputs": [
        {
          "indexed": true,
          "name": "owner",
          "type": "address"
        },
        {
          "indexed": true,
          "name": "spender",
          "type": "address"
        },
        {
          "indexed": false,
          "name": "value",
          "type": "uint256"
        }
      ],
      "name": "ApprovedBlacklistedAddressSpender",
      "type": "event"
    },
    {
      "anonymous": false,
      "inputs": [
        {
          "indexed": true,
          "name": "to",
          "type": "address"
        },
        {
          "indexed": false,
          "name": "value",
          "type": "uint256"
        }
      ],
      "name": "Mint",
      "type": "event"
    },
    {
      "anonymous": false,
      "inputs": [
        {
          "indexed": true,
          "name": "burner",
          "type": "address"
        },
        {
          "indexed": false,
          "name": "value",
          "type": "uint256"
        }
      ],
      "name": "Burn",
      "type": "event"
    },
    {
      "anonymous": false,
      "inputs": [
        {
          "indexed": true,
          "name": "from",
          "type": "address"
        },
        {
          "indexed": true,
          "name": "to",
          "type": "address"
        },
        {
          "indexed": false,
          "name": "value",
          "type": "uint256"
        }
      ],
      "name": "Transfer",
      "type": "event"
    },
    {
      "anonymous": false,
      "inputs": [
        {
          "indexed": true,
          "name": "owner",
          "type": "address"
        },
        {
          "indexed": true,
          "name": "spender",
          "type": "address"
        },
        {
          "indexed": false,
          "name": "value",
          "type": "uint256"
        }
      ],
      "name": "Approval",
      "type": "event"
    },
    {
      "anonymous": false,
      "inputs": [
        {
          "indexed": true,
          "name": "oldRegulator",
          "type": "address"
        },
        {
          "indexed": true,
          "name": "newRegulator",
          "type": "address"
        }
      ],
      "name": "ChangedRegulator",
      "type": "event"
    },
    {
      "anonymous": false,
      "inputs": [],
      "name": "Unlocked",
      "type": "event"
    },
    {
      "anonymous": false,
      "inputs": [],
      "name": "Locked",
      "type": "event"
    },
    {
      "anonymous": false,
      "inputs": [],
      "name": "Pause",
      "type": "event"
    },
    {
      "anonymous": false,
      "inputs": [],
      "name": "Unpause",
      "type": "event"
    },
    {
      "anonymous": false,
      "inputs": [
        {
          "indexed": true,
          "name": "previousOwner",
          "type": "address"
        },
        {
          "indexed": true,
          "name": "newOwner",
          "type": "address"
        }
      ],
      "name": "OwnershipTransferred",
      "type": "event"
    },
    {
      "constant": false,
      "inputs": [
        {
          "name": "_stablecoin",
          "type": "address"
        }
      ],
      "name": "listToken",
      "outputs": [],
      "payable": false,
      "stateMutability": "nonpayable",
      "type": "function"
    },
    {
      "constant": false,
      "inputs": [
        {
          "name": "_stablecoin",
          "type": "address"
        }
      ],
      "name": "unlistToken",
      "outputs": [],
      "payable": false,
      "stateMutability": "nonpayable",
      "type": "function"
    },
    {
      "constant": false,
      "inputs": [
        {
          "name": "stablecoin",
          "type": "address"
        },
        {
          "name": "_newFee",
          "type": "uint256"
        }
      ],
      "name": "setFee",
      "outputs": [],
      "payable": false,
      "stateMutability": "nonpayable",
      "type": "function"
    },
    {
      "constant": false,
      "inputs": [
        {
          "name": "stablecoin",
          "type": "address"
        }
      ],
      "name": "removeFee",
      "outputs": [],
      "payable": false,
      "stateMutability": "nonpayable",
      "type": "function"
    },
    {
      "constant": false,
      "inputs": [
        {
          "name": "_newFee",
          "type": "uint256"
        }
      ],
      "name": "setDefaultFee",
      "outputs": [],
      "payable": false,
      "stateMutability": "nonpayable",
      "type": "function"
    },
    {
      "constant": false,
      "inputs": [
        {
          "name": "_to",
          "type": "address"
        },
        {
          "name": "_amount",
          "type": "uint256"
        }
      ],
      "name": "mint",
      "outputs": [],
      "payable": false,
      "stateMutability": "nonpayable",
      "type": "function"
    },
    {
      "constant": false,
      "inputs": [
        {
          "name": "stablecoin",
          "type": "address"
        },
        {
          "name": "_amount",
          "type": "uint256"
        }
      ],
      "name": "convertCarbonDollar",
      "outputs": [],
      "payable": false,
      "stateMutability": "nonpayable",
      "type": "function"
    },
    {
      "constant": false,
      "inputs": [
        {
          "name": "stablecoin",
          "type": "address"
        },
        {
          "name": "_amount",
          "type": "uint256"
        }
      ],
      "name": "burnCarbonDollar",
      "outputs": [],
      "payable": false,
      "stateMutability": "nonpayable",
      "type": "function"
    },
    {
      "constant": false,
      "inputs": [
        {
          "name": "_amount",
          "type": "uint256"
        }
      ],
      "name": "releaseCarbonDollar",
      "outputs": [
        {
          "name": "",
          "type": "bool"
        }
      ],
      "payable": false,
      "stateMutability": "nonpayable",
      "type": "function"
    },
    {
      "constant": true,
      "inputs": [
        {
          "name": "stablecoin",
          "type": "address"
        }
      ],
      "name": "computeFeeRate",
      "outputs": [
        {
          "name": "feeRate",
          "type": "uint256"
        }
      ],
      "payable": false,
      "stateMutability": "view",
      "type": "function"
    },
    {
      "constant": true,
      "inputs": [
        {
          "name": "_stablecoin",
          "type": "address"
        }
      ],
      "name": "isWhitelisted",
      "outputs": [
        {
          "name": "",
          "type": "bool"
        }
      ],
      "payable": false,
      "stateMutability": "view",
      "type": "function"
    },
    {
      "constant": true,
      "inputs": [
        {
          "name": "stablecoin",
          "type": "address"
        }
      ],
      "name": "getFee",
      "outputs": [
        {
          "name": "",
          "type": "uint256"
        }
      ],
      "payable": false,
      "stateMutability": "view",
      "type": "function"
    },
    {
      "constant": true,
      "inputs": [],
      "name": "getDefaultFee",
      "outputs": [
        {
          "name": "",
          "type": "uint256"
        }
      ],
      "payable": false,
      "stateMutability": "view",
      "type": "function"
    }
  ],
  "bytecode": "0x60806040526001805460a060020a61ffff02191690553480156200002257600080fd5b506040516020806200498983398101604052516000805433600160a060020a031991821617909155600180548216905560038054909116600160a060020a03831617905580620000716200010e565b604051809103906000f0801580156200008e573d6000803e3d6000fd5b5060028054600160a060020a0319908116600160a060020a03938416179091556003805490911691841691909117905550620000c96200011f565b604051809103906000f080158015620000e6573d6000803e3d6000fd5b5060048054600160a060020a031916600160a060020a03929092169190911790555062000130565b6040516107188062003b7283390190565b6040516106ff806200428a83390190565b613a3280620001406000396000f3006080604052600436106101c95763ffffffff60e060020a600035041663095ea7b381146101ce5780630d4b82081461020657806318160ddd1461022c5780631fc1e25f1461025357806321bacf281461027457806323b872dd146102895780633af32abf146102b35780633f4ba83a146102d457806340c10f19146102e957806342966c681461030d5780634e71e0c8146103255780635bae9ce91461033a5780635c975abb1461034f5780636618846314610364578063662f94c0146103885780636ad26611146103a957806370a08231146103ca5780638456cb59146103eb578063873ab2ce1461040057806388fa2617146104215780638da5cb5b146104365780639d36b5c414610467578063a69df4b51461047c578063a9059cbb14610491578063abcb9934146104b5578063b199efb5146104d6578063b88c9148146104eb578063ba6f4ab01461050c578063c534ba4b14610530578063c93a6c8414610554578063cde0a4f81461056c578063d73dd6231461058d578063dd62ed3e146105b1578063dd8fee14146105d8578063e30c3978146105ed578063e55156b514610602578063f2fde38b14610626578063f7fd3d0114610647578063f83d08ba1461065f575b600080fd5b3480156101da57600080fd5b506101f2600160a060020a0360043516602435610674565b604080519115158252519081900360200190f35b34801561021257600080fd5b5061022a600160a060020a036004351660243561090f565b005b34801561023857600080fd5b50610241610d72565b60408051918252519081900360200190f35b34801561025f57600080fd5b5061022a600160a060020a0360043516610e02565b34801561028057600080fd5b50610241610eb6565b34801561029557600080fd5b506101f2600160a060020a0360043581169060243516604435610f0b565b3480156102bf57600080fd5b506101f2600160a060020a036004351661148c565b3480156102e057600080fd5b5061022a61152d565b3480156102f557600080fd5b5061022a600160a060020a03600435166024356115a5565b34801561031957600080fd5b5061022a60043561164f565b34801561033157600080fd5b5061022a611731565b34801561034657600080fd5b506101f26117b9565b34801561035b57600080fd5b506101f26118f4565b34801561037057600080fd5b506101f2600160a060020a0360043516602435611904565b34801561039457600080fd5b5061022a600160a060020a0360043516611ab4565b3480156103b557600080fd5b5061022a600160a060020a0360043516611dab565b3480156103d657600080fd5b50610241600160a060020a0360043516611ea5565b3480156103f757600080fd5b5061022a611f10565b34801561040c57600080fd5b50610241600160a060020a0360043516611f8d565b34801561042d57600080fd5b506101f2611fbd565b34801561044257600080fd5b5061044b611fdf565b60408051600160a060020a039092168252519081900360200190f35b34801561047357600080fd5b5061044b611fee565b34801561048857600080fd5b5061022a611ffd565b34801561049d57600080fd5b506101f2600160a060020a0360043516602435612076565b3480156104c157600080fd5b5061022a600160a060020a03600435166123e7565b3480156104e257600080fd5b5061044b612480565b3480156104f757600080fd5b50610241600160a060020a036004351661248f565b34801561051857600080fd5b5061022a600160a060020a03600435166024356124fc565b34801561053c57600080fd5b5061022a600160a060020a03600435166024356128c4565b34801561056057600080fd5b5061022a600435612c1b565b34801561057857600080fd5b5061022a600160a060020a0360043516612cad565b34801561059957600080fd5b506101f2600160a060020a0360043516602435612e10565b3480156105bd57600080fd5b50610241600160a060020a0360043581169060243516612fb5565b3480156105e457600080fd5b5061044b61305b565b3480156105f957600080fd5b5061044b61306a565b34801561060e57600080fd5b5061022a600160a060020a0360043516602435613079565b34801561063257600080fd5b5061022a600160a060020a0360043516613196565b34801561065357600080fd5b506101f26004356131f1565b34801561066b57600080fd5b5061022a613372565b6003546040805160e060020a637ccce851028152600160a060020a038086166004830152915160009386931691637ccce85191602480830192602092919082900301818887803b1580156106c757600080fd5b505af11580156106db573d6000803e3d6000fd5b505050506040513d60208110156106f157600080fd5b505115610736576040805160e560020a62461bcd02815260206004820152601c60248201526000805160206139c7833981519152604482015290519081900360640190fd5b6003546040805160e060020a637ccce851028152336004820181905291519192600160a060020a031691637ccce851916024808201926020929091908290030181600087803b15801561078857600080fd5b505af115801561079c573d6000803e3d6000fd5b505050506040513d60208110156107b257600080fd5b5051156107f7576040805160e560020a62461bcd02815260206004820152601c60248201526000805160206139c7833981519152604482015290519081900360640190fd5b60015460a060020a900460ff161561080e57600080fd5b6001547501000000000000000000000000000000000000000000900460ff16151561083857600080fd5b600254604080517fda46098c000000000000000000000000000000000000000000000000000000008152336004820152600160a060020a038881166024830152604482018890529151919092169163da46098c91606480830192600092919082900301818387803b1580156108ac57600080fd5b505af11580156108c0573d6000803e3d6000fd5b5050604080518781529051600160a060020a03891693503392507f8c5be1e5ebec7d5bd14f71427d1e84f3dd0314c0f7b2291e5b200ac8c7c3b9259181900360200190a3506001949350505050565b6003546040805160e060020a637ccce85102815233600482018190529151600093849384939092600160a060020a0390921691637ccce8519160248082019260209290919082900301818887803b15801561096957600080fd5b505af115801561097d573d6000803e3d6000fd5b505050506040513d602081101561099357600080fd5b5051156109d8576040805160e560020a62461bcd02815260206004820152601c60248201526000805160206139c7833981519152604482015290519081900360640190fd5b60015460a060020a900460ff16156109ef57600080fd5b6109f88661148c565b1515610a50576040805160e560020a62461bcd02815260206004820152603e602482015260008051602061398783398151915260448201526000805160206139a7833981519152606482015290519081900360840190fd5b604080517f70a0823100000000000000000000000000000000000000000000000000000000815230600482015290518795508691600160a060020a038716916370a08231916024808201926020929091908290030181600087803b158015610ab757600080fd5b505af1158015610acb573d6000803e3d6000fd5b505050506040513d6020811015610ae157600080fd5b50511015610b85576040805160e560020a62461bcd02815260206004820152604360248201527f436172626f6e20657363726f77206163636f756e7420696e2057543020646f6560448201527f736e2774206861766520656e6f75676820746f6b656e7320666f72206275726e60648201527f696e670000000000000000000000000000000000000000000000000000000000608482015290519081900360a40190fd5b600454600160a060020a0316632ff284c286610ba089611f8d565b6040518363ffffffff1660e060020a0281526004018083815260200182815260200192505050602060405180830381600087803b158015610be057600080fd5b505af1158015610bf4573d6000803e3d6000fd5b505050506040513d6020811015610c0a57600080fd5b50519250610c1e858463ffffffff6133d316565b9150610c2a33866133e5565b604080517fa9059cbb000000000000000000000000000000000000000000000000000000008152336004820152602481018490529051600160a060020a0386169163a9059cbb9160448083019260209291908290030181600087803b158015610c9257600080fd5b505af1158015610ca6573d6000803e3d6000fd5b505050506040513d6020811015610cbc57600080fd5b50511515610cc957600080fd5b83600160a060020a03166342966c68846040518263ffffffff1660e060020a02815260040180828152602001915050600060405180830381600087803b158015610d1257600080fd5b505af1158015610d26573d6000803e3d6000fd5b50505050610d3430846135a5565b60408051868152905133917f3a91515f120c05831525e72379609e84b30a70ab21104f3222d0e91411aadc52919081900360200190a2505050505050565b600254604080517f18160ddd0000000000000000000000000000000000000000000000000000000081529051600092600160a060020a0316916318160ddd91600480830192602092919082900301818787803b158015610dd157600080fd5b505af1158015610de5573d6000803e3d6000fd5b505050506040513d6020811015610dfb57600080fd5b5051905090565b600054600160a060020a03163314610e1957600080fd5b60015460a060020a900460ff1615610e3057600080fd5b60048054604080517f0418945a000000000000000000000000000000000000000000000000000000008152600160a060020a038581169482019490945290519290911691630418945a9160248082019260009290919082900301818387803b158015610e9b57600080fd5b505af1158015610eaf573d6000803e3d6000fd5b5050505050565b6000600460009054906101000a9004600160a060020a0316600160a060020a0316635a6c72d06040518163ffffffff1660e060020a028152600401602060405180830381600087803b158015610dd157600080fd5b60015460009060a060020a900460ff1615610f2557600080fd5b6003546040805160e060020a637ccce851028152600160a060020a03808716600483015291518793879360009384939190921691637ccce85191602480830192602092919082900301818787803b158015610f7f57600080fd5b505af1158015610f93573d6000803e3d6000fd5b505050506040513d6020811015610fa957600080fd5b505115611000576040805160e560020a62461bcd02815260206004820152601f60248201527f526563697069656e742063616e6e6f7420626520626c61636b6c697374656400604482015290519081900360640190fd5b6003546040805160e060020a637ccce851028152600160a060020a03878116600483015291519190921691637ccce8519160248083019260209291908290030181600087803b15801561105257600080fd5b505af1158015611066573d6000803e3d6000fd5b505050506040513d602081101561107c57600080fd5b5051600354604080517f91c4529f0000000000000000000000000000000000000000000000000000000081523360048201529051929450600160a060020a03909116916391c4529f916024808201926020929091908290030181600087803b1580156110e757600080fd5b505af11580156110fb573d6000803e3d6000fd5b505050506040513d602081101561111157600080fd5b5051905081158061111f5750805b15156111c1576040805160e560020a62461bcd02815260206004820152604c60248201527f4f726967696e2063616e6e6f7420626520626c61636b6c69737465642069662060448201527f7370656e646572206973206e6f7420616e20617070726f76656420626c61636b60648201527f6c697374207370656e6465720000000000000000000000000000000000000000608482015290519081900360a40190fd5b6111cb8833612fb5565b861115611222576040805160e560020a62461bcd02815260206004820181905260248201527f6e6f7420656e6f75676820616c6c6f77616e636520746f207472616e73666572604482015290519081900360640190fd5b600160a060020a0387161515611282576040805160e560020a62461bcd02815260206004820152601860248201527f746f20616464726573732063616e6e6f74206265203078300000000000000000604482015290519081900360640190fd5b61128b88611ea5565b8611156112e2576040805160e560020a62461bcd02815260206004820152601e60248201527f6e6f7420656e6f7567682062616c616e636520746f207472616e736665720000604482015290519081900360640190fd5b600254604080517f97d88cd2000000000000000000000000000000000000000000000000000000008152600160a060020a038b81166004830152336024830152604482018a9052915191909216916397d88cd291606480830192600092919082900301818387803b15801561135657600080fd5b505af115801561136a573d6000803e3d6000fd5b50506002546040805160e160020a6310f29c1d028152600160a060020a038c81166004830152602482018c905291519190921693506321e5383a9250604480830192600092919082900301818387803b1580156113c657600080fd5b505af11580156113da573d6000803e3d6000fd5b50506002546040805160e160020a6367c775bf028152600160a060020a038d81166004830152602482018c9052915191909216935063cf8eeb7e9250604480830192600092919082900301818387803b15801561143657600080fd5b505af115801561144a573d6000803e3d6000fd5b5050604080518981529051600160a060020a03808c1694508c1692506000805160206139e78339815191529181900360200190a3506001979650505050505050565b60048054604080517f9b19251a000000000000000000000000000000000000000000000000000000008152600160a060020a0385811694820194909452905160009390921691639b19251a9160248082019260209290919082900301818787803b1580156114f957600080fd5b505af115801561150d573d6000803e3d6000fd5b505050506040513d602081101561152357600080fd5b505190505b919050565b600054600160a060020a0316331461154457600080fd5b60015460a060020a900460ff16151561155c57600080fd5b6001805474ff0000000000000000000000000000000000000000191690556040517f7805862f689e2f13df9f062ff482ad3ad112aca9e0847911ed832e158c525b3390600090a1565b6115ae3361148c565b151561162a576040805160e560020a62461bcd02815260206004820152602b60248201527f53656e646572206d75737420626520612077686974656c697374656420746f6b60448201527f656e20636f6e7472616374000000000000000000000000000000000000000000606482015290519081900360840190fd5b60015460a060020a900460ff161561164157600080fd5b61164b82826135a5565b5050565b6003546040805160e060020a637ccce851028152336004820181905291519192600160a060020a031691637ccce851916024808201926020929091908290030181600087803b1580156116a157600080fd5b505af11580156116b5573d6000803e3d6000fd5b505050506040513d60208110156116cb57600080fd5b505115611710576040805160e560020a62461bcd02815260206004820152601c60248201526000805160206139c7833981519152604482015290519081900360640190fd5b60015460a060020a900460ff161561172757600080fd5b61164b33836133e5565b600154600160a060020a0316331461174857600080fd5b60015460008054604051600160a060020a0393841693909116917f8be0079c531659141344cd1fd0a4f28419497f9722a3daafe3b4186f6b6457e091a3600180546000805473ffffffffffffffffffffffffffffffffffffffff19908116600160a060020a03841617909155169055565b600354604080517f14db6d58000000000000000000000000000000000000000000000000000000008152336004820152600080357bffffffffffffffffffffffffffffffffffffffffffffffffffffffff1916602483015291519192600160a060020a0316916314db6d589160448082019260209290919082900301818787803b15801561184657600080fd5b505af115801561185a573d6000803e3d6000fd5b505050506040513d602081101561187057600080fd5b505115156118ee576040805160e560020a62461bcd02815260206004820152603160248201527f5573657220646f6573206e6f742068617665207065726d697373696f6e20746f60448201527f20657865637574652066756e6374696f6e000000000000000000000000000000606482015290519081900360840190fd5b50600190565b60015460a060020a900460ff1681565b6003546040805160e060020a637ccce851028152600160a060020a038086166004830152915160009386931691637ccce85191602480830192602092919082900301818887803b15801561195757600080fd5b505af115801561196b573d6000803e3d6000fd5b505050506040513d602081101561198157600080fd5b5051156119c6576040805160e560020a62461bcd02815260206004820152601c60248201526000805160206139c7833981519152604482015290519081900360640190fd5b6003546040805160e060020a637ccce851028152336004820181905291519192600160a060020a031691637ccce851916024808201926020929091908290030181600087803b158015611a1857600080fd5b505af1158015611a2c573d6000803e3d6000fd5b505050506040513d6020811015611a4257600080fd5b505115611a87576040805160e560020a62461bcd02815260206004820152601c60248201526000805160206139c7833981519152604482015290519081900360640190fd5b60015460a060020a900460ff1615611a9e57600080fd5b611aa98585336135af565b506001949350505050565b6003546040805160e060020a637ccce851028152600160a060020a038085166004830152915184939290921691637ccce851916024808201926020929091908290030181600087803b158015611b0957600080fd5b505af1158015611b1d573d6000803e3d6000fd5b505050506040513d6020811015611b3357600080fd5b50511515611b8b576040805160e560020a62461bcd02815260206004820152601860248201527f55736572206d75737420626520626c61636b6c69737465640000000000000000604482015290519081900360640190fd5b60015460a060020a900460ff1615611ba257600080fd5b600354604080517f14db6d58000000000000000000000000000000000000000000000000000000008152336004820152600080357bffffffffffffffffffffffffffffffffffffffffffffffffffffffff191660248301529151600160a060020a03909316926314db6d5892604480840193602093929083900390910190829087803b158015611c3157600080fd5b505af1158015611c45573d6000803e3d6000fd5b505050506040513d6020811015611c5b57600080fd5b50511515611cd9576040805160e560020a62461bcd02815260206004820152603160248201527f5573657220646f6573206e6f742068617665207065726d697373696f6e20746f60448201527f20657865637574652066756e6374696f6e000000000000000000000000000000606482015290519081900360840190fd5b600254600160a060020a031663da46098c8333611cf582611ea5565b6040805160e060020a63ffffffff8716028152600160a060020a03948516600482015292909316602483015260448201529051606480830192600092919082900301818387803b158015611d4857600080fd5b505af1158015611d5c573d6000803e3d6000fd5b503392505050600160a060020a0383167f3b1ffca3903932aa264fbb5b7b381746e2b7b61c9c5a6024bad48d23f958a6c2611d9685611ea5565b60408051918252519081900360200190a35050565b600054600160a060020a03163314611dc257600080fd5b60015460a060020a900460ff1615611dd957600080fd5b611de28161148c565b1515611e3a576040805160e560020a62461bcd02815260206004820152603e602482015260008051602061398783398151915260448201526000805160206139a7833981519152606482015290519081900360840190fd5b60048054604080517f6ad26611000000000000000000000000000000000000000000000000000000008152600160a060020a038581169482019490945290519290911691636ad266119160248082019260009290919082900301818387803b158015610e9b57600080fd5b600254604080517f27e235e3000000000000000000000000000000000000000000000000000000008152600160a060020a038481166004830152915160009392909216916327e235e39160248082019260209290919082900301818787803b1580156114f957600080fd5b600054600160a060020a03163314611f2757600080fd5b60015460a060020a900460ff1615611f3e57600080fd5b6001805474ff0000000000000000000000000000000000000000191660a060020a1790556040517f6985a02210a168e66602d3235cb6db0e70f92b3ba4d376a33c0f3d9434bff62590600090a1565b600080611f998361248f565b1115611faf57611fa88261248f565b9050611528565b611fb7610eb6565b92915050565b6001547501000000000000000000000000000000000000000000900460ff1681565b600054600160a060020a031681565b600454600160a060020a031681565b600054600160a060020a0316331461201457600080fd5b6001805475ff000000000000000000000000000000000000000000191675010000000000000000000000000000000000000000001790556040517f19aad37188a1d3921e29eb3c66acf43d81975e107cb650d58cca878627955fd690600090a1565b6003546040805160e060020a637ccce851028152600160a060020a038086166004830152915160009386931691637ccce85191602480830192602092919082900301818887803b1580156120c957600080fd5b505af11580156120dd573d6000803e3d6000fd5b505050506040513d60208110156120f357600080fd5b505115612138576040805160e560020a62461bcd02815260206004820152601c60248201526000805160206139c7833981519152604482015290519081900360640190fd5b6003546040805160e060020a637ccce851028152336004820181905291519192600160a060020a031691637ccce851916024808201926020929091908290030181600087803b15801561218a57600080fd5b505af115801561219e573d6000803e3d6000fd5b505050506040513d60208110156121b457600080fd5b5051156121f9576040805160e560020a62461bcd02815260206004820152601c60248201526000805160206139c7833981519152604482015290519081900360640190fd5b60015460a060020a900460ff161561221057600080fd5b600160a060020a0385161515612270576040805160e560020a62461bcd02815260206004820152601860248201527f746f20616464726573732063616e6e6f74206265203078300000000000000000604482015290519081900360640190fd5b61227933611ea5565b8411156122d0576040805160e560020a62461bcd02815260206004820152601e60248201527f6e6f7420656e6f7567682062616c616e636520746f207472616e736665720000604482015290519081900360640190fd5b6002546040805160e160020a6367c775bf028152336004820152602481018790529051600160a060020a039092169163cf8eeb7e9160448082019260009290919082900301818387803b15801561232657600080fd5b505af115801561233a573d6000803e3d6000fd5b50506002546040805160e160020a6310f29c1d028152600160a060020a038a81166004830152602482018a905291519190921693506321e5383a9250604480830192600092919082900301818387803b15801561239657600080fd5b505af11580156123aa573d6000803e3d6000fd5b5050604080518781529051600160a060020a03891693503392506000805160206139e78339815191529181900360200190a3506001949350505050565b600054600160a060020a031633146123fe57600080fd5b60015460a060020a900460ff161561241557600080fd5b60048054604080517f3b947d2b000000000000000000000000000000000000000000000000000000008152600160a060020a038581169482019490945290519290911691633b947d2b9160248082019260009290919082900301818387803b158015610e9b57600080fd5b600254600160a060020a031681565b60048054604080517ffaaebd21000000000000000000000000000000000000000000000000000000008152600160a060020a038581169482019490945290516000939092169163faaebd219160248082019260209290919082900301818787803b1580156114f957600080fd5b6003546040805160e060020a637ccce85102815233600482018190529151600093849384939092600160a060020a0390921691637ccce8519160248082019260209290919082900301818887803b15801561255657600080fd5b505af115801561256a573d6000803e3d6000fd5b505050506040513d602081101561258057600080fd5b5051156125c5576040805160e560020a62461bcd02815260206004820152601c60248201526000805160206139c7833981519152604482015290519081900360640190fd5b60015460a060020a900460ff16156125dc57600080fd5b6125e58661148c565b151561263d576040805160e560020a62461bcd02815260206004820152603e602482015260008051602061398783398151915260448201526000805160206139a7833981519152606482015290519081900360840190fd5b604080517f70a0823100000000000000000000000000000000000000000000000000000000815230600482015290518795508691600160a060020a038716916370a08231916024808201926020929091908290030181600087803b1580156126a457600080fd5b505af11580156126b8573d6000803e3d6000fd5b505050506040513d60208110156126ce57600080fd5b50511015612772576040805160e560020a62461bcd02815260206004820152604360248201527f436172626f6e20657363726f77206163636f756e7420696e2057543020646f6560448201527f736e2774206861766520656e6f75676820746f6b656e7320666f72206275726e60648201527f696e670000000000000000000000000000000000000000000000000000000000608482015290519081900360a40190fd5b600454600160a060020a0316632ff284c28661278d89611f8d565b6040518363ffffffff1660e060020a0281526004018083815260200182815260200192505050602060405180830381600087803b1580156127cd57600080fd5b505af11580156127e1573d6000803e3d6000fd5b505050506040513d60208110156127f757600080fd5b5051925061280b858463ffffffff6133d316565b915061281733866133e5565b83600160a060020a03166342966c68866040518263ffffffff1660e060020a02815260040180828152602001915050600060405180830381600087803b15801561286057600080fd5b505af1158015612874573d6000803e3d6000fd5b5050505061288230846135a5565b6040805183815260208101859052815133927f8a1387ce462b7423a12c936187028c782512f204b670218701c0d35e92bc0527928290030190a2505050505050565b6003546040805160e060020a637ccce851028152600160a060020a038086166004830152915185939290921691637ccce851916024808201926020929091908290030181600087803b15801561291957600080fd5b505af115801561292d573d6000803e3d6000fd5b505050506040513d602081101561294357600080fd5b5051151561299b576040805160e560020a62461bcd02815260206004820152601860248201527f55736572206d75737420626520626c61636b6c69737465640000000000000000604482015290519081900360640190fd5b60015460a060020a900460ff16156129b257600080fd5b600354604080517f14db6d58000000000000000000000000000000000000000000000000000000008152336004820152600080357bffffffffffffffffffffffffffffffffffffffffffffffffffffffff191660248301529151600160a060020a03909316926314db6d5892604480840193602093929083900390910190829087803b158015612a4157600080fd5b505af1158015612a55573d6000803e3d6000fd5b505050506040513d6020811015612a6b57600080fd5b50511515612ae9576040805160e560020a62461bcd02815260206004820152603160248201527f5573657220646f6573206e6f742068617665207065726d697373696f6e20746f60448201527f20657865637574652066756e6374696f6e000000000000000000000000000000606482015290519081900360840190fd5b6002546040805160e160020a6367c775bf028152600160a060020a038681166004830152602482018690529151919092169163cf8eeb7e91604480830192600092919082900301818387803b158015612b4157600080fd5b505af1158015612b55573d6000803e3d6000fd5b5050600254604080517f82838c76000000000000000000000000000000000000000000000000000000008152600481018790529051600160a060020a0390921693506382838c76925060248082019260009290919082900301818387803b158015612bbf57600080fd5b505af1158015612bd3573d6000803e3d6000fd5b5050604080518581529051600160a060020a03871693507fb81d1dffb753076892e04e6e1234d137b031f70d859c299876b0486e966424fd92509081900360200190a2505050565b600054600160a060020a03163314612c3257600080fd5b60015460a060020a900460ff1615612c4957600080fd5b60048054604080517fc93a6c8400000000000000000000000000000000000000000000000000000000815292830184905251600160a060020a039091169163c93a6c8491602480830192600092919082900301818387803b158015610e9b57600080fd5b60008054600160a060020a03163314612cc557600080fd5b600354600160a060020a0383811691161415612d2b576040805160e560020a62461bcd02815260206004820152601760248201527f4d7573742062652061206e657720726567756c61746f72000000000000000000604482015290519081900360640190fd5b612d348261373b565b1515612db0576040805160e560020a62461bcd02815260206004820152603860248201527f43616e6e6f7420736574206120726567756c61746f722073746f72616765207460448201527f6f2061206e6f6e2d636f6e747261637420616464726573730000000000000000606482015290519081900360840190fd5b5060038054600160a060020a0383811673ffffffffffffffffffffffffffffffffffffffff19831681179093556040519116919082907f4a59b4b607c6055b37a4716d7813d7d4d2c288e4d0dd8298e365b260a1f262e890600090a35050565b6003546040805160e060020a637ccce851028152600160a060020a038086166004830152915160009386931691637ccce85191602480830192602092919082900301818887803b158015612e6357600080fd5b505af1158015612e77573d6000803e3d6000fd5b505050506040513d6020811015612e8d57600080fd5b505115612ed2576040805160e560020a62461bcd02815260206004820152601c60248201526000805160206139c7833981519152604482015290519081900360640190fd5b6003546040805160e060020a637ccce851028152336004820181905291519192600160a060020a031691637ccce851916024808201926020929091908290030181600087803b158015612f2457600080fd5b505af1158015612f38573d6000803e3d6000fd5b505050506040513d6020811015612f4e57600080fd5b505115612f93576040805160e560020a62461bcd02815260206004820152601c60248201526000805160206139c7833981519152604482015290519081900360640190fd5b60015460a060020a900460ff1615612faa57600080fd5b611aa9858533613743565b600254604080517f55b6ed5c000000000000000000000000000000000000000000000000000000008152600160a060020a0385811660048301528481166024830152915160009392909216916355b6ed5c9160448082019260209290919082900301818787803b15801561302857600080fd5b505af115801561303c573d6000803e3d6000fd5b505050506040513d602081101561305257600080fd5b50519392505050565b600354600160a060020a031681565b600154600160a060020a031681565b600054600160a060020a0316331461309057600080fd5b60015460a060020a900460ff16156130a757600080fd5b6130b08261148c565b1515613108576040805160e560020a62461bcd02815260206004820152603e602482015260008051602061398783398151915260448201526000805160206139a7833981519152606482015290519081900360840190fd5b60048054604080517fe55156b5000000000000000000000000000000000000000000000000000000008152600160a060020a0386811694820194909452602481018590529051929091169163e55156b59160448082019260009290919082900301818387803b15801561317a57600080fd5b505af115801561318e573d6000803e3d6000fd5b505050505050565b600054600160a060020a031633146131ad57600080fd5b600160a060020a03811615156131c257600080fd5b6001805473ffffffffffffffffffffffffffffffffffffffff1916600160a060020a0392909216919091179055565b60008054600160a060020a0316331461320957600080fd5b61321230611ea5565b821115613269576040805160e560020a62461bcd02815260206004820152601e60248201527f6e6f7420656e6f7567682062616c616e636520746f207472616e736665720000604482015290519081900360640190fd5b6002546040805160e160020a6367c775bf028152306004820152602481018590529051600160a060020a039092169163cf8eeb7e9160448082019260009290919082900301818387803b1580156132bf57600080fd5b505af11580156132d3573d6000803e3d6000fd5b50506002546040805160e160020a6310f29c1d028152336004820152602481018790529051600160a060020a0390921693506321e5383a925060448082019260009290919082900301818387803b15801561332d57600080fd5b505af1158015613341573d6000803e3d6000fd5b50506040805185815290513393503092506000805160206139e78339815191529181900360200190a3506001919050565b600054600160a060020a0316331461338957600080fd5b6001805475ff000000000000000000000000000000000000000000191690556040517f0f2e5b6c72c6a4491efd919a9f9a409f324ef0708c11ee57d410c2cb06c0992b90600090a1565b6000828211156133df57fe5b50900390565b6133ee82611ea5565b811115613445576040805160e560020a62461bcd02815260206004820152601a60248201527f6e6f7420656e6f7567682062616c616e636520746f206275726e000000000000604482015290519081900360640190fd5b6002546040805160e160020a6367c775bf028152600160a060020a038581166004830152602482018590529151919092169163cf8eeb7e91604480830192600092919082900301818387803b15801561349d57600080fd5b505af11580156134b1573d6000803e3d6000fd5b5050600254604080517f82838c76000000000000000000000000000000000000000000000000000000008152600481018690529051600160a060020a0390921693506382838c76925060248082019260009290919082900301818387803b15801561351b57600080fd5b505af115801561352f573d6000803e3d6000fd5b5050604080518481529051600160a060020a03861693507fcc16f5dbb4873280815c1ee09dbd06736cffcc184412cf7a71a0fdb75d397ca592509081900360200190a2604080518281529051600091600160a060020a038516916000805160206139e78339815191529181900360200190a35050565b61164b8282613826565b60006135bb8285612fb5565b90508083111561365657600254604080517fda46098c000000000000000000000000000000000000000000000000000000008152600160a060020a0385811660048301528781166024830152600060448301819052925193169263da46098c9260648084019391929182900301818387803b15801561363957600080fd5b505af115801561364d573d6000803e3d6000fd5b505050506136e5565b600254604080517f97d88cd2000000000000000000000000000000000000000000000000000000008152600160a060020a038581166004830152878116602483015260448201879052915191909216916397d88cd291606480830192600092919082900301818387803b1580156136cc57600080fd5b505af11580156136e0573d6000803e3d6000fd5b505050505b83600160a060020a031682600160a060020a03167f8c5be1e5ebec7d5bd14f71427d1e84f3dd0314c0f7b2291e5b200ac8c7c3b9256137248588612fb5565b60408051918252519081900360200190a350505050565b6000903b1190565b600254604080517f5fd72d16000000000000000000000000000000000000000000000000000000008152600160a060020a03848116600483015286811660248301526044820186905291519190921691635fd72d1691606480830192600092919082900301818387803b1580156137b957600080fd5b505af11580156137cd573d6000803e3d6000fd5b5050505082600160a060020a031681600160a060020a03167f8c5be1e5ebec7d5bd14f71427d1e84f3dd0314c0f7b2291e5b200ac8c7c3b9256138108487612fb5565b60408051918252519081900360200190a3505050565b600254604080517fe468688e000000000000000000000000000000000000000000000000000000008152600481018490529051600160a060020a039092169163e468688e9160248082019260009290919082900301818387803b15801561388c57600080fd5b505af11580156138a0573d6000803e3d6000fd5b50506002546040805160e160020a6310f29c1d028152600160a060020a0387811660048301526024820187905291519190921693506321e5383a9250604480830192600092919082900301818387803b1580156138fc57600080fd5b505af1158015613910573d6000803e3d6000fd5b5050604080518481529051600160a060020a03861693507f0f6798a560793a54c3bcfe86a93cde1e73087d944c0ea20544137d412139688592509081900360200190a2604080518281529051600160a060020a038416916000916000805160206139e78339815191529181900360200190a350505600537461626c65636f696e206d7573742062652077686974656c6973746564207072696f7220746f2073657474696e6720636f6e76657273696f6e20666565000055736572206d757374206e6f7420626520626c61636b6c697374656400000000ddf252ad1be2c89b69c2b068fc378daa952ba7f163c4a11628f55a4df523b3efa165627a7a723058202deb07d9df1dd7a640d06f38c44c0add60c2984696b44a9ec5b5340d298c777c0029608060405260008054600160a060020a031990811633179091556001805490911690556106e7806100316000396000f3006080604052600436106100e55763ffffffff7c010000000000000000000000000000000000000000000000000000000060003504166318160ddd81146100ea57806321e5383a1461011157806327e235e3146101375780634e71e0c81461015857806355b6ed5c1461016d5780635fd72d161461019457806382838c76146101be5780638da5cb5b146101d657806397d88cd214610207578063cf8eeb7e14610231578063da46098c14610255578063e30443bc1461027f578063e30c3978146102a3578063e468688e146102b8578063f2fde38b146102d0578063f7ea7a3d146102f1575b600080fd5b3480156100f657600080fd5b506100ff610309565b60408051918252519081900360200190f35b34801561011d57600080fd5b50610135600160a060020a036004351660243561030f565b005b34801561014357600080fd5b506100ff600160a060020a036004351661036f565b34801561016457600080fd5b50610135610381565b34801561017957600080fd5b506100ff600160a060020a0360043581169060243516610409565b3480156101a057600080fd5b50610135600160a060020a0360043581169060243516604435610426565b3480156101ca57600080fd5b506101356004356104a4565b3480156101e257600080fd5b506101eb6104d4565b60408051600160a060020a039092168252519081900360200190f35b34801561021357600080fd5b50610135600160a060020a03600435811690602435166044356104e3565b34801561023d57600080fd5b50610135600160a060020a0360043516602435610530565b34801561026157600080fd5b50610135600160a060020a0360043581169060243516604435610570565b34801561028b57600080fd5b50610135600160a060020a03600435166024356105b3565b3480156102af57600080fd5b506101eb6105e6565b3480156102c457600080fd5b506101356004356105f5565b3480156102dc57600080fd5b50610135600160a060020a036004351661061f565b3480156102fd57600080fd5b5061013560043561067a565b60045481565b600054600160a060020a0316331461032657600080fd5b600160a060020a03821660009081526003602052604090205461034f908263ffffffff61069616565b600160a060020a0390921660009081526003602052604090209190915550565b60036020526000908152604090205481565b600154600160a060020a0316331461039857600080fd5b60015460008054604051600160a060020a0393841693909116917f8be0079c531659141344cd1fd0a4f28419497f9722a3daafe3b4186f6b6457e091a3600180546000805473ffffffffffffffffffffffffffffffffffffffff19908116600160a060020a03841617909155169055565b600260209081526000928352604080842090915290825290205481565b600054600160a060020a0316331461043d57600080fd5b600160a060020a03808416600090815260026020908152604080832093861683529290522054610473908263ffffffff61069616565b600160a060020a03938416600090815260026020908152604080832095909616825293909352929091209190915550565b600054600160a060020a031633146104bb57600080fd5b6004546104ce908263ffffffff6106a916565b60045550565b600054600160a060020a031681565b600054600160a060020a031633146104fa57600080fd5b600160a060020a03808416600090815260026020908152604080832093861683529290522054610473908263ffffffff6106a916565b600054600160a060020a0316331461054757600080fd5b600160a060020a03821660009081526003602052604090205461034f908263ffffffff6106a916565b600054600160a060020a0316331461058757600080fd5b600160a060020a0392831660009081526002602090815260408083209490951682529290925291902055565b600054600160a060020a031633146105ca57600080fd5b600160a060020a03909116600090815260036020526040902055565b600154600160a060020a031681565b600054600160a060020a0316331461060c57600080fd5b6004546104ce908263ffffffff61069616565b600054600160a060020a0316331461063657600080fd5b600160a060020a038116151561064b57600080fd5b6001805473ffffffffffffffffffffffffffffffffffffffff1916600160a060020a0392909216919091179055565b600054600160a060020a0316331461069157600080fd5b600455565b818101828110156106a357fe5b92915050565b6000828211156106b557fe5b509003905600a165627a7a7230582032ddf97d0bc66a7c3294cced0402123ff13218ae899d994703d8b4c013c3e4a60029608060405260008054600160a060020a031990811633179091556001805490911690556106ce806100316000396000f3006080604052600436106100cf5763ffffffff7c01000000000000000000000000000000000000000000000000000000006000350416630418945a81146100d4578063166e55d9146100f75780632ff284c21461012d5780633b947d2b146101485780634e71e0c8146101695780635a6c72d01461017e5780636ad26611146101935780638da5cb5b146101b45780639b19251a146101e5578063c93a6c841461021a578063e30c397814610232578063e55156b514610247578063f2fde38b1461026b578063faaebd211461028c575b600080fd5b3480156100e057600080fd5b506100f5600160a060020a03600435166102ad565b005b34801561010357600080fd5b5061011b600435600160a060020a0360243516610310565b60408051918252519081900360200190f35b34801561013957600080fd5b5061011b60043560243561033b565b34801561015457600080fd5b506100f5600160a060020a0360043516610368565b34801561017557600080fd5b506100f56103c8565b34801561018a57600080fd5b5061011b610450565b34801561019f57600080fd5b506100f5600160a060020a0360043516610456565b3480156101c057600080fd5b506101c96104d6565b60408051600160a060020a039092168252519081900360200190f35b3480156101f157600080fd5b50610206600160a060020a03600435166104e5565b604080519115158252519081900360200190f35b34801561022657600080fd5b506100f56004356104fa565b34801561023e57600080fd5b506101c9610561565b34801561025357600080fd5b506100f5600160a060020a0360043516602435610570565b34801561027757600080fd5b506100f5600160a060020a03600435166105f7565b34801561029857600080fd5b5061011b600160a060020a0360043516610652565b600054600160a060020a031633146102c457600080fd5b600160a060020a038116600081815260046020526040808220805460ff19166001179055517f3db297c09c19972ba6a701ff373ab97e21ff1e4992e863c7abe44e9b2fed08479190a250565b600160a060020a038116600090815260026020526040812054610333848261033b565b949350505050565b600061035f6103e8610353858563ffffffff61066416565b9063ffffffff61068d16565b90505b92915050565b600054600160a060020a0316331461037f57600080fd5b600160a060020a038116600081815260046020526040808220805460ff19169055517f3302a1b37f04242bb55603f5449e7ecd690a35eef08ba1353c48c20e2aae9cda9190a250565b600154600160a060020a031633146103df57600080fd5b60015460008054604051600160a060020a0393841693909116917f8be0079c531659141344cd1fd0a4f28419497f9722a3daafe3b4186f6b6457e091a3600180546000805473ffffffffffffffffffffffffffffffffffffffff19908116600160a060020a03841617909155169055565b60035481565b60008054600160a060020a0316331461046e57600080fd5b50600160a060020a0381166000908152600260205260408120805491905580156104d257604080518281529051600160a060020a038416917fe4ca060d5956a829454e1f8734d008a552f7c9a701ba632810443acc98435c68919081900360200190a25b5050565b600054600160a060020a031681565b60046020526000908152604090205460ff1681565b60008054600160a060020a0316331461051257600080fd5b5060038054908290558181146104d257604080518281526020810184905281517f2faa036c952bde05f63e87e0c61278ffd974bfc128a2b0ef03fafdb57f5d5cea929181900390910190a15050565b600154600160a060020a031681565b60008054600160a060020a0316331461058857600080fd5b50600160a060020a03821660009081526002602052604090208054908290558181146105f25760408051828152602081018490528151600160a060020a038616927ff98c81ad0a5eb3551c3561de8dc9d1512e8680fb77425ea138ebfe9a9c0065ff928290030190a25b505050565b600054600160a060020a0316331461060e57600080fd5b600160a060020a038116151561062357600080fd5b6001805473ffffffffffffffffffffffffffffffffffffffff1916600160a060020a0392909216919091179055565b60026020526000908152604090205481565b600082151561067557506000610362565b5081810281838281151561068557fe5b041461036257fe5b6000818381151561069a57fe5b0493925050505600a165627a7a7230582004b2a6f8a4bc4026c1dd725e25d57a9fff0fe0ab8cbebdaf718301c1ade8e1860029",
  "source": "pragma solidity ^0.4.24;\n\nimport \"./dataStorage/CarbonDollarStorage.sol\";\nimport \"../permissionedToken/PermissionedToken.sol\";\nimport \"../whitelistedToken/WhitelistedToken.sol\";\n\n/**\n* @title CarbonDollar\n* @notice The main functionality for the CarbonUSD metatoken. (CarbonUSD is just a proxy\n* that implements this contract's functionality.) This is a permissioned token, so users have to be \n* whitelisted before they can do any mint/burn/convert operation. Every CarbonDollar token is backed by one\n* whitelisted stablecoin credited to the balance of this contract address.\n*/\ncontract CarbonDollar is PermissionedToken {\n    \n    // Events\n\n    event ConvertedToWT(address indexed user, uint256 amount);\n    event BurnedCUSD(address indexed user, uint256 feedAmount, uint256 chargedFee);\n    \n    /**\n        Modifiers\n    */\n    modifier requiresWhitelistedToken() {\n        require(isWhitelisted(msg.sender), \"Sender must be a whitelisted token contract\");\n        _;\n    }\n\n    CarbonDollarStorage public tokenStorage_CD;\n\n    /** CONSTRUCTOR\n    * @dev Passes along arguments to base class.\n    */\n    constructor(address _regulator) public PermissionedToken(_regulator) {\n\n        // base class override\n        regulator = Regulator(_regulator);\n\n        tokenStorage_CD = new CarbonDollarStorage();\n    }\n\n    /**\n     * @notice Add new stablecoin to whitelist.\n     * @param _stablecoin Address of stablecoin contract.\n     */\n    function listToken(address _stablecoin) public onlyOwner whenNotPaused {\n        tokenStorage_CD.addStablecoin(_stablecoin); \n    }\n\n    /**\n     * @notice Remove existing stablecoin from whitelist.\n     * @param _stablecoin Address of stablecoin contract.\n     */\n    function unlistToken(address _stablecoin) public onlyOwner whenNotPaused {\n        tokenStorage_CD.removeStablecoin(_stablecoin);\n    }\n\n    /**\n     * @notice Change fees associated with going from CarbonUSD to a particular stablecoin.\n     * @param stablecoin Address of the stablecoin contract.\n     * @param _newFee The new fee rate to set, in tenths of a percent. \n     */\n    function setFee(address stablecoin, uint256 _newFee) public onlyOwner whenNotPaused {\n        require(isWhitelisted(stablecoin), \"Stablecoin must be whitelisted prior to setting conversion fee\");\n        tokenStorage_CD.setFee(stablecoin, _newFee);\n    }\n\n    /**\n     * @notice Remove fees associated with going from CarbonUSD to a particular stablecoin.\n     * The default fee still may apply.\n     * @param stablecoin Address of the stablecoin contract.\n     */\n    function removeFee(address stablecoin) public onlyOwner whenNotPaused {\n        require(isWhitelisted(stablecoin), \"Stablecoin must be whitelisted prior to setting conversion fee\");\n       tokenStorage_CD.removeFee(stablecoin);\n    }\n\n    /**\n     * @notice Change the default fee associated with going from CarbonUSD to a WhitelistedToken.\n     * This fee amount is used if the fee for a WhitelistedToken is not specified.\n     * @param _newFee The new fee rate to set, in tenths of a percent.\n     */\n    function setDefaultFee(uint256 _newFee) public onlyOwner whenNotPaused {\n        tokenStorage_CD.setDefaultFee(_newFee);\n    }\n\n    /**\n     * @notice Mints CUSD on behalf of a user. Note the use of the \"requiresWhitelistedToken\"\n     * modifier; this means that minting authority does not belong to any personal account; \n     * only whitelisted token contracts can call this function. The intended functionality is that the only\n     * way to mint CUSD is for the user to actually burn a whitelisted token to convert into CUSD\n     * @param _to User to send CUSD to\n     * @param _amount Amount of CarbonUSD to mint.\n     */\n    function mint(address _to, uint256 _amount) public requiresWhitelistedToken whenNotPaused {\n        _mint(_to, _amount);\n    }\n\n    /**\n     * @notice user can convert CarbonUSD umbrella token into a whitelisted stablecoin. \n     * @param stablecoin represents the type of coin the users wishes to receive for burning carbonUSD\n     * @param _amount Amount of CarbonUSD to convert.\n     * we credit the user's account at the sender address with the _amount minus the percentage fee we want to charge.\n     */\n    function convertCarbonDollar(address stablecoin, uint256 _amount) public userNotBlacklisted(msg.sender) whenNotPaused  {\n        require(isWhitelisted(stablecoin), \"Stablecoin must be whitelisted prior to setting conversion fee\");\n        WhitelistedToken whitelisted = WhitelistedToken(stablecoin);\n        require(whitelisted.balanceOf(address(this)) >= _amount, \"Carbon escrow account in WT0 doesn't have enough tokens for burning\");\n \n        // Send back WT0 to calling user, but with a fee reduction.\n        // Transfer this fee into the whitelisted token's CarbonDollar account (this contract's address)\n        uint256 chargedFee = tokenStorage_CD.computeFee(_amount, computeFeeRate(stablecoin));\n        uint256 feedAmount = _amount.sub(chargedFee);\n        _burn(msg.sender, _amount);\n        require(whitelisted.transfer(msg.sender, feedAmount));\n        whitelisted.burn(chargedFee);\n        _mint(address(this), chargedFee);\n        emit ConvertedToWT(msg.sender, _amount);\n    }\n\n     /**\n     * @notice burns CarbonDollar and an equal amount of whitelisted stablecoin from the CarbonDollar address\n     * @param stablecoin Represents the stablecoin whose fee will be charged.\n     * @param _amount Amount of CarbonUSD to burn.\n     */\n    function burnCarbonDollar(address stablecoin, uint256 _amount) public userNotBlacklisted(msg.sender) whenNotPaused {\n        require(isWhitelisted(stablecoin), \"Stablecoin must be whitelisted prior to setting conversion fee\");\n        WhitelistedToken whitelisted = WhitelistedToken(stablecoin);\n        require(whitelisted.balanceOf(address(this)) >= _amount, \"Carbon escrow account in WT0 doesn't have enough tokens for burning\");\n \n        // Burn user's CUSD, but with a fee reduction.\n        uint256 chargedFee = tokenStorage_CD.computeFee(_amount, computeFeeRate(stablecoin));\n        uint256 feedAmount = _amount.sub(chargedFee);\n        _burn(msg.sender, _amount);\n        whitelisted.burn(_amount);\n        _mint(address(this), chargedFee);\n        emit BurnedCUSD(msg.sender, feedAmount, chargedFee); // Whitelisted trust account should send user feedAmount USD\n    }\n\n    /** \n    * @notice release collected CUSD fees to owner \n    * @param _amount Amount of CUSD to release\n    * @return `true` if successful \n    */\n    function releaseCarbonDollar(uint256 _amount) public onlyOwner returns (bool) {\n        require(_amount <= balanceOf(address(this)),\"not enough balance to transfer\");\n\n        tokenStorage.subBalance(address(this), _amount);\n        tokenStorage.addBalance(msg.sender, _amount);\n        emit Transfer(address(this), msg.sender, _amount);\n        return true;\n    }\n\n    /** Computes fee percentage associated with burning into a particular stablecoin.\n     * @param stablecoin The stablecoin whose fee will be charged. Precondition: is a whitelisted\n     * stablecoin.\n     * @return The fee that will be charged. If the stablecoin's fee is not set, the default\n     * fee is returned.\n     */\n    function computeFeeRate(address stablecoin) public view returns (uint256 feeRate) {\n        if (getFee(stablecoin) > 0) \n            feeRate = getFee(stablecoin);\n        else\n            feeRate = getDefaultFee();\n    }\n\n    /**\n    * @notice Check if whitelisted token is whitelisted\n    * @return bool true if whitelisted, false if not\n    **/\n    function isWhitelisted(address _stablecoin) public view returns (bool) {\n        return tokenStorage_CD.whitelist(_stablecoin);\n    }\n\n    /**\n     * @notice Get the fee associated with going from CarbonUSD to a specific WhitelistedToken.\n     * @param stablecoin The stablecoin whose fee is being checked.\n     * @return The fee associated with the stablecoin.\n     */\n    function getFee(address stablecoin) public view returns (uint256) {\n        return tokenStorage_CD.fees(stablecoin);\n    }\n\n    /**\n     * @notice Get the default fee associated with going from CarbonUSD to a specific WhitelistedToken.\n     * @return The default fee for stablecoin trades.\n     */\n    function getDefaultFee() public view returns (uint256) {\n        return tokenStorage_CD.defaultFee();\n    }\n\n    function _mint(address _to, uint256 _amount) internal {\n        super._mint(_to, _amount);\n    }\n\n}",
  "sourcePath": "/Users/nicholaspai/Carbon/fiat_gateway/contracts/tokens/carbonToken/CarbonDollar.sol",
  "compiler": {
    "name": "solc",
    "version": "0.4.25+commit.59dbf8f1.Emscripten.clang"
  },
  "schemaVersion": "3.0.0-beta.1",
  "updatedAt": "2018-12-01T19:07:15.194Z"
}