{
  "contractName": "CarbonDollarProxy",
  "abi": [
    {
      "constant": false,
      "inputs": [],
      "name": "claimWhitelistOwnership",
      "outputs": [],
      "payable": false,
      "stateMutability": "nonpayable",
      "type": "function"
    },
    {
      "constant": true,
      "inputs": [],
      "name": "allowances",
      "outputs": [
        {
          "name": "",
          "type": "address"
        }
      ],
      "payable": false,
      "stateMutability": "view",
      "type": "function"
    },
    {
      "constant": false,
      "inputs": [],
      "name": "claimOwnership",
      "outputs": [],
      "payable": false,
      "stateMutability": "nonpayable",
      "type": "function"
    },
    {
      "constant": false,
      "inputs": [
        {
          "name": "_feesheet",
          "type": "address"
        }
      ],
      "name": "setFeeSheet",
      "outputs": [],
      "payable": false,
      "stateMutability": "nonpayable",
      "type": "function"
    },
    {
      "constant": false,
      "inputs": [
        {
          "name": "_newStorageAddress",
          "type": "address"
        }
      ],
      "name": "setBalanceStorage",
      "outputs": [],
      "payable": false,
      "stateMutability": "nonpayable",
      "type": "function"
    },
    {
      "constant": true,
      "inputs": [],
      "name": "balances",
      "outputs": [
        {
          "name": "",
          "type": "address"
        }
      ],
      "payable": false,
      "stateMutability": "view",
      "type": "function"
    },
    {
      "constant": false,
      "inputs": [],
      "name": "claimBalanceOwnership",
      "outputs": [],
      "payable": false,
      "stateMutability": "nonpayable",
      "type": "function"
    },
    {
      "constant": true,
      "inputs": [],
      "name": "owner",
      "outputs": [
        {
          "name": "",
          "type": "address"
        }
      ],
      "payable": false,
      "stateMutability": "view",
      "type": "function"
    },
    {
      "constant": false,
      "inputs": [],
      "name": "claimFeeOwnership",
      "outputs": [],
      "payable": false,
      "stateMutability": "nonpayable",
      "type": "function"
    },
    {
      "constant": false,
      "inputs": [],
      "name": "claimAllowanceOwnership",
      "outputs": [],
      "payable": false,
      "stateMutability": "nonpayable",
      "type": "function"
    },
    {
      "constant": false,
      "inputs": [
        {
          "name": "_newStorageAddress",
          "type": "address"
        }
      ],
      "name": "setAllowanceStorage",
      "outputs": [],
      "payable": false,
      "stateMutability": "nonpayable",
      "type": "function"
    },
    {
      "constant": false,
      "inputs": [
        {
          "name": "_newStorageAddress",
          "type": "address"
        }
      ],
      "name": "setRegulator",
      "outputs": [],
      "payable": false,
      "stateMutability": "nonpayable",
      "type": "function"
    },
    {
      "constant": false,
      "inputs": [
        {
          "name": "_whitelist",
          "type": "address"
        }
      ],
      "name": "setStablecoinWhitelist",
      "outputs": [],
      "payable": false,
      "stateMutability": "nonpayable",
      "type": "function"
    },
    {
      "constant": true,
      "inputs": [],
      "name": "stablecoinFees",
      "outputs": [
        {
          "name": "",
          "type": "address"
        }
      ],
      "payable": false,
      "stateMutability": "view",
      "type": "function"
    },
    {
      "constant": true,
      "inputs": [],
      "name": "regulator",
      "outputs": [
        {
          "name": "",
          "type": "address"
        }
      ],
      "payable": false,
      "stateMutability": "view",
      "type": "function"
    },
    {
      "constant": true,
      "inputs": [],
      "name": "stablecoinWhitelist",
      "outputs": [
        {
          "name": "",
          "type": "address"
        }
      ],
      "payable": false,
      "stateMutability": "view",
      "type": "function"
    },
    {
      "constant": true,
      "inputs": [],
      "name": "pendingOwner",
      "outputs": [
        {
          "name": "",
          "type": "address"
        }
      ],
      "payable": false,
      "stateMutability": "view",
      "type": "function"
    },
    {
      "constant": false,
      "inputs": [
        {
          "name": "_newOwner",
          "type": "address"
        }
      ],
      "name": "transferOwnership",
      "outputs": [],
      "payable": false,
      "stateMutability": "nonpayable",
      "type": "function"
    },
    {
      "inputs": [
        {
          "name": "i",
          "type": "address"
        },
        {
          "name": "r",
          "type": "address"
        },
        {
          "name": "b",
          "type": "address"
        },
        {
          "name": "a",
          "type": "address"
        },
        {
          "name": "f",
          "type": "address"
        },
        {
          "name": "s",
          "type": "address"
        }
      ],
      "payable": false,
      "stateMutability": "nonpayable",
      "type": "constructor"
    },
    {
      "payable": true,
      "stateMutability": "payable",
      "type": "fallback"
    },
    {
      "anonymous": false,
      "inputs": [
        {
          "indexed": false,
          "name": "_old",
          "type": "address"
        },
        {
          "indexed": false,
          "name": "_new",
          "type": "address"
        }
      ],
      "name": "ChangedRegulator",
      "type": "event"
    },
    {
      "anonymous": false,
      "inputs": [
        {
          "indexed": false,
          "name": "_old",
          "type": "address"
        },
        {
          "indexed": false,
          "name": "_new",
          "type": "address"
        }
      ],
      "name": "ChangedBalanceStorage",
      "type": "event"
    },
    {
      "anonymous": false,
      "inputs": [
        {
          "indexed": false,
          "name": "_old",
          "type": "address"
        },
        {
          "indexed": false,
          "name": "_new",
          "type": "address"
        }
      ],
      "name": "ChangedAllowanceStorage",
      "type": "event"
    },
    {
      "anonymous": false,
      "inputs": [
        {
          "indexed": true,
          "name": "oldSheet",
          "type": "address"
        },
        {
          "indexed": true,
          "name": "newSheet",
          "type": "address"
        }
      ],
      "name": "FeeSheetChanged",
      "type": "event"
    },
    {
      "anonymous": false,
      "inputs": [
        {
          "indexed": true,
          "name": "oldWhitelist",
          "type": "address"
        },
        {
          "indexed": true,
          "name": "newWhitelist",
          "type": "address"
        }
      ],
      "name": "StablecoinWhitelistChanged",
      "type": "event"
    },
    {
      "anonymous": false,
      "inputs": [
        {
          "indexed": true,
          "name": "previousOwner",
          "type": "address"
        },
        {
          "indexed": true,
          "name": "newOwner",
          "type": "address"
        }
      ],
      "name": "OwnershipTransferred",
      "type": "event"
    },
    {
      "anonymous": false,
      "inputs": [
        {
          "indexed": false,
          "name": "implementation",
          "type": "address"
        }
      ],
      "name": "Upgraded",
      "type": "event"
    },
    {
      "constant": false,
      "inputs": [
        {
          "name": "newImplementation",
          "type": "address"
        }
      ],
      "name": "upgradeTo",
      "outputs": [],
      "payable": false,
      "stateMutability": "nonpayable",
      "type": "function"
    },
    {
      "constant": true,
      "inputs": [],
      "name": "implementation",
      "outputs": [
        {
          "name": "",
          "type": "address"
        }
      ],
      "payable": false,
      "stateMutability": "view",
      "type": "function"
    }
  ],
  "bytecode": "0x608060405234801561001057600080fd5b5060405160c080611529833981018060405281019080805190602001909291908051906020019092919080519060200190929190805190602001909291908051906020019092919080519060200190929190505050848484828282878781818f60405180807f6f72672e7a657070656c696e6f732e70726f78792e696d706c656d656e74617481526020017f696f6e00000000000000000000000000000000000000000000000000000000008152506023019050604051809103902060001916600080516020611509833981519152600102600019161415156100ef57fe5b61010181640100000000610180810204565b506000805433600160a060020a0319918216179091556001805482169055600280548216600160a060020a03948516179055600380548216928416929092179091556004805482169783169790971790965560058054871695821695909517909455505060068054909316911617905550610246975050505050505050565b60006101988264010000000061101c61023e82021704565b151561022b57604080517f08c379a000000000000000000000000000000000000000000000000000000000815260206004820152603b60248201527f43616e6e6f742073657420612070726f787920696d706c656d656e746174696f60448201527f6e20746f2061206e6f6e2d636f6e747261637420616464726573730000000000606482015290519081900360840190fd5b5060008051602061150983398151915255565b6000903b1190565b6112b4806102556000396000f3006080604052600436106101115763ffffffff7c01000000000000000000000000000000000000000000000000000000006000350416632a9a04ba811461011b5780633659cfe6146101305780633ed10b921461015e5780634e71e0c81461019c5780635c60da1b146101b157806360814fe8146101c657806373e9e0e5146101f45780637bb98a68146102225780638955ed7e146102375780638da5cb5b1461024c578063956ce093146102615780639b2bdc2014610276578063c52dd6441461028b578063cde0a4f8146102b9578063d1a15eba146102e7578063d965156614610315578063dd8fee141461032a578063e14852e31461033f578063e30c397814610354578063f2fde38b14610369575b610119610397565b005b34801561012757600080fd5b506101196103b1565b34801561013c57600080fd5b5061011973ffffffffffffffffffffffffffffffffffffffff60043516610451565b34801561016a57600080fd5b50610173610481565b6040805173ffffffffffffffffffffffffffffffffffffffff9092168252519081900360200190f35b3480156101a857600080fd5b5061011961049d565b3480156101bd57600080fd5b50610173610557565b3480156101d257600080fd5b5061011973ffffffffffffffffffffffffffffffffffffffff60043516610566565b34801561020057600080fd5b5061011973ffffffffffffffffffffffffffffffffffffffff60043516610593565b34801561022e57600080fd5b50610173610767565b34801561024357600080fd5b50610119610783565b34801561025857600080fd5b50610173610809565b34801561026d57600080fd5b50610119610825565b34801561028257600080fd5b506101196108ab565b34801561029757600080fd5b5061011973ffffffffffffffffffffffffffffffffffffffff60043516610931565b3480156102c557600080fd5b5061011973ffffffffffffffffffffffffffffffffffffffff60043516610b05565b3480156102f357600080fd5b5061011973ffffffffffffffffffffffffffffffffffffffff60043516610cd9565b34801561032157600080fd5b50610173610d06565b34801561033657600080fd5b50610173610d22565b34801561034b57600080fd5b50610173610d3e565b34801561036057600080fd5b50610173610d5a565b34801561037557600080fd5b5061011973ffffffffffffffffffffffffffffffffffffffff60043516610d76565b61039f6103af565b6103af6103aa610e03565b610e28565b565b600360009054906101000a900473ffffffffffffffffffffffffffffffffffffffff1673ffffffffffffffffffffffffffffffffffffffff16634e71e0c86040518163ffffffff167c0100000000000000000000000000000000000000000000000000000000028152600401600060405180830381600087803b15801561043757600080fd5b505af115801561044b573d6000803e3d6000fd5b50505050565b60005473ffffffffffffffffffffffffffffffffffffffff16331461047557600080fd5b61047e81610e4c565b50565b60065473ffffffffffffffffffffffffffffffffffffffff1681565b60015473ffffffffffffffffffffffffffffffffffffffff1633146104c157600080fd5b6001546000805460405173ffffffffffffffffffffffffffffffffffffffff93841693909116917f8be0079c531659141344cd1fd0a4f28419497f9722a3daafe3b4186f6b6457e091a360018054600080547fffffffffffffffffffffffff000000000000000000000000000000000000000090811673ffffffffffffffffffffffffffffffffffffffff841617909155169055565b6000610561610e03565b905090565b60005473ffffffffffffffffffffffffffffffffffffffff16331461058a57600080fd5b61047e81610ea1565b6000805473ffffffffffffffffffffffffffffffffffffffff1633146105b857600080fd5b60055473ffffffffffffffffffffffffffffffffffffffff8381169116141561064257604080517f08c379a000000000000000000000000000000000000000000000000000000000815260206004820152601b60248201527f4d7573742062652061206e65772062616c616e63652073686565740000000000604482015290519081900360640190fd5b61064b8261101c565b15156106de57604080517f08c379a000000000000000000000000000000000000000000000000000000000815260206004820152603860248201527f43616e6e6f7420736574206120726567756c61746f722073746f72616765207460448201527f6f2061206e6f6e2d636f6e747261637420616464726573730000000000000000606482015290519081900360840190fd5b506005805473ffffffffffffffffffffffffffffffffffffffff8381167fffffffffffffffffffffffff0000000000000000000000000000000000000000831681179093556040805191909216808252602082019390935281517f8c3d37b41e983f0d5b0b91de3f9d5055c73a17beebc7adfce9b677ab7c07ad2d929181900390910190a15050565b60055473ffffffffffffffffffffffffffffffffffffffff1681565b600560009054906101000a900473ffffffffffffffffffffffffffffffffffffffff1673ffffffffffffffffffffffffffffffffffffffff16634e71e0c86040518163ffffffff167c0100000000000000000000000000000000000000000000000000000000028152600401600060405180830381600087803b15801561043757600080fd5b60005473ffffffffffffffffffffffffffffffffffffffff1681565b600260009054906101000a900473ffffffffffffffffffffffffffffffffffffffff1673ffffffffffffffffffffffffffffffffffffffff16634e71e0c86040518163ffffffff167c0100000000000000000000000000000000000000000000000000000000028152600401600060405180830381600087803b15801561043757600080fd5b600660009054906101000a900473ffffffffffffffffffffffffffffffffffffffff1673ffffffffffffffffffffffffffffffffffffffff16634e71e0c86040518163ffffffff167c0100000000000000000000000000000000000000000000000000000000028152600401600060405180830381600087803b15801561043757600080fd5b6000805473ffffffffffffffffffffffffffffffffffffffff16331461095657600080fd5b60065473ffffffffffffffffffffffffffffffffffffffff838116911614156109e057604080517f08c379a000000000000000000000000000000000000000000000000000000000815260206004820152601b60248201527f4d7573742062652061206e65772073746f726167652073686565740000000000604482015290519081900360640190fd5b6109e98261101c565b1515610a7c57604080517f08c379a000000000000000000000000000000000000000000000000000000000815260206004820152603860248201527f43616e6e6f7420736574206120726567756c61746f722073746f72616765207460448201527f6f2061206e6f6e2d636f6e747261637420616464726573730000000000000000606482015290519081900360840190fd5b506006805473ffffffffffffffffffffffffffffffffffffffff8381167fffffffffffffffffffffffff0000000000000000000000000000000000000000831681179093556040805191909216808252602082019390935281517fec358425c40511d576e1c52be7593403bceacda627234c873b52589fef7b2359929181900390910190a15050565b6000805473ffffffffffffffffffffffffffffffffffffffff163314610b2a57600080fd5b60045473ffffffffffffffffffffffffffffffffffffffff83811691161415610bb457604080517f08c379a000000000000000000000000000000000000000000000000000000000815260206004820152601760248201527f4d7573742062652061206e657720726567756c61746f72000000000000000000604482015290519081900360640190fd5b610bbd8261101c565b1515610c5057604080517f08c379a000000000000000000000000000000000000000000000000000000000815260206004820152603860248201527f43616e6e6f7420736574206120726567756c61746f722073746f72616765207460448201527f6f2061206e6f6e2d636f6e747261637420616464726573730000000000000000606482015290519081900360840190fd5b506004805473ffffffffffffffffffffffffffffffffffffffff8381167fffffffffffffffffffffffff0000000000000000000000000000000000000000831681179093556040805191909216808252602082019390935281517f4a59b4b607c6055b37a4716d7813d7d4d2c288e4d0dd8298e365b260a1f262e8929181900390910190a15050565b60005473ffffffffffffffffffffffffffffffffffffffff163314610cfd57600080fd5b61047e81611024565b60025473ffffffffffffffffffffffffffffffffffffffff1681565b60045473ffffffffffffffffffffffffffffffffffffffff1681565b60035473ffffffffffffffffffffffffffffffffffffffff1681565b60015473ffffffffffffffffffffffffffffffffffffffff1681565b60005473ffffffffffffffffffffffffffffffffffffffff163314610d9a57600080fd5b73ffffffffffffffffffffffffffffffffffffffff81161515610dbc57600080fd5b600180547fffffffffffffffffffffffff00000000000000000000000000000000000000001673ffffffffffffffffffffffffffffffffffffffff92909216919091179055565b7f7050c9e0f4ca769c69bd3a8ef740bc37934f8e2c036e5a723fd8ee048ed3f8c35490565b3660008037600080366000845af43d6000803e808015610e47573d6000f35b3d6000fd5b610e55816111c5565b6040805173ffffffffffffffffffffffffffffffffffffffff8316815290517fbc7cd75a20ee27fd9adebab32041f755214dbc6bffa90cc0225b39da2e5c2d3b9181900360200190a150565b60025460009073ffffffffffffffffffffffffffffffffffffffff83811691161415610f2e57604080517f08c379a000000000000000000000000000000000000000000000000000000000815260206004820152601760248201527f4d7573742062652061206e657720666565207368656574000000000000000000604482015290519081900360640190fd5b610f378261101c565b1515610fa457604080517f08c379a000000000000000000000000000000000000000000000000000000000815260206004820152601a60248201527f4d75737420626520616e2061637475616c20636f6e7472616374000000000000604482015290519081900360640190fd5b506002805473ffffffffffffffffffffffffffffffffffffffff8381167fffffffffffffffffffffffff0000000000000000000000000000000000000000831681179093556040519116919082907ffa50850a9a205a6eab44ae568df104b00a5fd26ba0ded7dd81d4879c6a27d29b90600090a35050565b6000903b1190565b60035460009073ffffffffffffffffffffffffffffffffffffffff838116911614156110d757604080517f08c379a000000000000000000000000000000000000000000000000000000000815260206004820152602260248201527f4d7573742062652061206e657720737461626c65636f696e2077686974656c6960448201527f7374000000000000000000000000000000000000000000000000000000000000606482015290519081900360840190fd5b6110e08261101c565b151561114d57604080517f08c379a000000000000000000000000000000000000000000000000000000000815260206004820152601a60248201527f4d75737420626520616e2061637475616c20636f6e7472616374000000000000604482015290519081900360640190fd5b506003805473ffffffffffffffffffffffffffffffffffffffff8381167fffffffffffffffffffffffff0000000000000000000000000000000000000000831681179093556040519116919082907f9d4cc8ae350dd03b669fc5b6d399ea6b56438abd19c07b3e71abd09552bafe3490600090a35050565b60006111d08261101c565b151561126357604080517f08c379a000000000000000000000000000000000000000000000000000000000815260206004820152603b60248201527f43616e6e6f742073657420612070726f787920696d706c656d656e746174696f60448201527f6e20746f2061206e6f6e2d636f6e747261637420616464726573730000000000606482015290519081900360840190fd5b507f7050c9e0f4ca769c69bd3a8ef740bc37934f8e2c036e5a723fd8ee048ed3f8c3555600a165627a7a7230582086a29db4dad663ca4129d848026fd2d8eabfcc71045b3150d695342e694c096000297050c9e0f4ca769c69bd3a8ef740bc37934f8e2c036e5a723fd8ee048ed3f8c3",
  "source": "pragma solidity ^0.4.24;\r\n\r\nimport \"./dataStorage/MutableCarbonDollarStorage.sol\";\r\nimport \"../permissionedToken/dataStorage/MutablePermissionedTokenStorage.sol\";\r\nimport \"../permissionedToken/PermissionedTokenProxy.sol\";\r\n\r\n/**\r\n* @title CarbonDollarProxy\r\n* @notice This contract IS CarbonUSD. All calls to the CarbonUSD contract will\r\n* be routed through this proxy, since this proxy contract is the owner of the\r\n* storage contracts.\r\n*/\r\ncontract CarbonDollarProxy is UpgradeabilityProxy, MutableCarbonDollarStorage, MutablePermissionedTokenStorage {\r\n    constructor(address i, address r, address b, address a, address f, address s) \r\n    UpgradeabilityProxy(i)\r\n    MutableCarbonDollarStorage(f, s)\r\n    MutablePermissionedTokenStorage(r, b, a) public {}\r\n\r\n    /**\r\n    * @dev Upgrade the backing implementation of the proxy.\r\n    * Only the admin can call this function.\r\n    * @param newImplementation Address of the new implementation.\r\n    */\r\n    function upgradeTo(address newImplementation) public onlyOwner {\r\n        _upgradeTo(newImplementation);\r\n\r\n    }\r\n\r\n    /**\r\n    * @return The address of the implementation.\r\n    */\r\n    function implementation() public view returns (address) {\r\n        return _implementation();\r\n    }\r\n}",
  "sourcePath": "C:\\Users\\npain\\Projects\\Carbon\\fiat_gateway\\contracts\\tokens\\carbonToken\\CarbonDollarProxy.sol",
  "compiler": {
    "name": "solc",
    "version": "0.4.24+commit.e67f0147.Emscripten.clang"
  },
  "schemaVersion": "2.0.1",
  "updatedAt": "2018-08-18T15:48:20.676Z"
}