{
  "contractName": "CarbonDollarStorage",
  "abi": [
    {
      "constant": true,
      "inputs": [],
      "name": "stablecoinFees",
      "outputs": [
        {
          "name": "",
          "type": "address"
        }
      ],
      "payable": false,
      "stateMutability": "view",
      "type": "function"
    },
    {
      "constant": true,
      "inputs": [],
      "name": "stablecoinWhitelist",
      "outputs": [
        {
          "name": "",
          "type": "address"
        }
      ],
      "payable": false,
      "stateMutability": "view",
      "type": "function"
    },
    {
      "inputs": [
        {
          "name": "_feesheet",
          "type": "address"
        },
        {
          "name": "_whitelist",
          "type": "address"
        }
      ],
      "payable": false,
      "stateMutability": "nonpayable",
      "type": "constructor"
    }
  ],
  "bytecode": "0x608060405234801561001057600080fd5b5060405160408061016483398101604052805160209091015160008054600160a060020a03938416600160a060020a0319918216179091556001805493909216921691909117905560fe806100666000396000f30060806040526004361060485763ffffffff7c0100000000000000000000000000000000000000000000000000000000600035041663d96515668114604d578063e14852e3146088575b600080fd5b348015605857600080fd5b50605f609a565b6040805173ffffffffffffffffffffffffffffffffffffffff9092168252519081900360200190f35b348015609357600080fd5b50605f60b6565b60005473ffffffffffffffffffffffffffffffffffffffff1681565b60015473ffffffffffffffffffffffffffffffffffffffff16815600a165627a7a72305820f1ea8a718424c7e1d453a129c2e0c937fc0de3a60083df029189be9d8b7602300029",
  "source": "pragma solidity ^0.4.24;\r\n\r\nimport \"./FeeSheet.sol\";\r\nimport \"./StablecoinWhitelist.sol\";\r\n\r\n/**\r\n* @title CarbonDollarStorage\r\n* @notice Contains necessary storage contracts for CarbonDollar (FeeSheet and StablecoinWhitelist).\r\n*/\r\ncontract CarbonDollarStorage{\r\n    /**\r\n        Storage\r\n    */\r\n    FeeSheet public stablecoinFees;\r\n    StablecoinWhitelist public stablecoinWhitelist;\r\n\r\n    /**\r\n    * @dev a CarbonDollarStorage can set its storages only once, on construction\r\n    * @param _feesheet address of the new FeeSheet\r\n    * @param _whitelist address of the new StablecoinWhitelist\r\n    **/\r\n    constructor (address _feesheet, address _whitelist) public {\r\n        stablecoinFees = FeeSheet(_feesheet);\r\n        stablecoinWhitelist = StablecoinWhitelist(_whitelist);\r\n    }\r\n}",
  "sourcePath": "C:\\Users\\npain\\Projects\\Carbon\\fiat_gateway\\contracts\\tokens\\carbonToken\\dataStorage\\CarbonDollarStorage.sol",
  "compiler": {
    "name": "solc",
    "version": "0.4.24+commit.e67f0147.Emscripten.clang"
  },
  "schemaVersion": "2.0.1",
  "updatedAt": "2018-08-17T17:50:39.515Z"
}