{
  "contractName": "CarbonDollarProxyFactory",
  "abi": [
    {
      "constant": true,
      "inputs": [
        {
          "name": "",
          "type": "uint256"
        }
      ],
      "name": "tokens",
      "outputs": [
        {
          "name": "",
          "type": "address"
        }
      ],
      "payable": false,
      "stateMutability": "view",
      "type": "function"
    },
    {
      "anonymous": false,
      "inputs": [
        {
          "indexed": false,
          "name": "newToken",
          "type": "address"
        },
        {
          "indexed": false,
          "name": "index",
          "type": "uint256"
        }
      ],
      "name": "CreatedCarbonDollarProxy",
      "type": "event"
    },
    {
      "constant": true,
      "inputs": [],
      "name": "getCount",
      "outputs": [
        {
          "name": "",
          "type": "uint256"
        }
      ],
      "payable": false,
      "stateMutability": "view",
      "type": "function"
    },
    {
      "constant": true,
      "inputs": [
        {
          "name": "i",
          "type": "uint256"
        }
      ],
      "name": "getToken",
      "outputs": [
        {
          "name": "",
          "type": "address"
        }
      ],
      "payable": false,
      "stateMutability": "view",
      "type": "function"
    },
    {
      "constant": false,
      "inputs": [
        {
          "name": "tokenImplementation",
          "type": "address"
        },
        {
          "name": "regulator",
          "type": "address"
        }
      ],
      "name": "createToken",
      "outputs": [],
      "payable": false,
      "stateMutability": "nonpayable",
      "type": "function"
    }
  ],
  "bytecode": "0x608060405234801561001057600080fd5b506132b3806100206000396000f3006080604052600436106100615763ffffffff7c01000000000000000000000000000000000000000000000000000000006000350416634f64b2be81146100665780636ed776b2146100a7578063a87d942c146100dd578063e4b50cb814610104575b600080fd5b34801561007257600080fd5b5061007e60043561011c565b6040805173ffffffffffffffffffffffffffffffffffffffff9092168252519081900360200190f35b3480156100b357600080fd5b506100db73ffffffffffffffffffffffffffffffffffffffff60043581169060243516610151565b005b3480156100e957600080fd5b506100f261068c565b60408051918252519081900360200190f35b34801561011057600080fd5b5061007e600435610692565b600080548290811061012a57fe5b60009182526020909120015473ffffffffffffffffffffffffffffffffffffffff16905081565b6000806000806000610161610748565b604051809103906000f08015801561017d573d6000803e3d6000fd5b509450610188610758565b604051809103906000f0801580156101a4573d6000803e3d6000fd5b5093506101af610768565b604051809103906000f0801580156101cb573d6000803e3d6000fd5b5092506101d6610778565b604051809103906000f0801580156101f2573d6000803e3d6000fd5b509150868686868686610203610788565b73ffffffffffffffffffffffffffffffffffffffff96871681529486166020860152928516604080860191909152918516606085015284166080840152921660a082015290519081900360c001906000f080158015610266573d6000803e3d6000fd5b5090508473ffffffffffffffffffffffffffffffffffffffff1663f2fde38b826040518263ffffffff167c0100000000000000000000000000000000000000000000000000000000028152600401808273ffffffffffffffffffffffffffffffffffffffff1673ffffffffffffffffffffffffffffffffffffffff168152602001915050600060405180830381600087803b15801561030457600080fd5b505af1158015610318573d6000803e3d6000fd5b505050508373ffffffffffffffffffffffffffffffffffffffff1663f2fde38b826040518263ffffffff167c0100000000000000000000000000000000000000000000000000000000028152600401808273ffffffffffffffffffffffffffffffffffffffff1673ffffffffffffffffffffffffffffffffffffffff168152602001915050600060405180830381600087803b1580156103b757600080fd5b505af11580156103cb573d6000803e3d6000fd5b505050508273ffffffffffffffffffffffffffffffffffffffff1663f2fde38b826040518263ffffffff167c0100000000000000000000000000000000000000000000000000000000028152600401808273ffffffffffffffffffffffffffffffffffffffff1673ffffffffffffffffffffffffffffffffffffffff168152602001915050600060405180830381600087803b15801561046a57600080fd5b505af115801561047e573d6000803e3d6000fd5b505050508173ffffffffffffffffffffffffffffffffffffffff1663f2fde38b826040518263ffffffff167c0100000000000000000000000000000000000000000000000000000000028152600401808273ffffffffffffffffffffffffffffffffffffffff1673ffffffffffffffffffffffffffffffffffffffff168152602001915050600060405180830381600087803b15801561051d57600080fd5b505af1158015610531573d6000803e3d6000fd5b5050604080517ff2fde38b000000000000000000000000000000000000000000000000000000008152336004820152905173ffffffffffffffffffffffffffffffffffffffff8516935063f2fde38b9250602480830192600092919082900301818387803b1580156105a257600080fd5b505af11580156105b6573d6000803e3d6000fd5b505060008054600180820183559180527f290decd9548b62a8d60345a988386fc84ba6bc95484008f6362f93160ef3e5630180547fffffffffffffffffffffffff00000000000000000000000000000000000000001673ffffffffffffffffffffffffffffffffffffffff86161790557f1889898577158b61e96f525de9eeb035536fedbd033530a14408f2e4cf422874925083915061065461068c565b6040805173ffffffffffffffffffffffffffffffffffffffff909416845291900360208301528051918290030190a150505050505050565b60005490565b60008054821080156106a5575060008210155b151561071257604080517f08c379a000000000000000000000000000000000000000000000000000000000815260206004820152600d60248201527f496e76616c696420696e64657800000000000000000000000000000000000000604482015290519081900360640190fd5b600080548390811061072057fe5b60009182526020909120015473ffffffffffffffffffffffffffffffffffffffff1692915050565b60405161064b8061079983390190565b60405161057d80610de483390190565b6040516108098061136183390190565b6040516104c580611b6a83390190565b6040516112598061202f833901905600608060405260008054600160a060020a03191633179055610626806100256000396000f3006080604052600436106100ae5763ffffffff7c010000000000000000000000000000000000000000000000000000000060003504166318160ddd81146100b357806321e5383a146100da57806370a082311461010d578063715018a61461013b57806382838c76146101505780638da5cb5b14610168578063cf8eeb7e146101a6578063e30443bc146101d7578063e468688e14610208578063f2fde38b14610220578063f7ea7a3d1461024e575b600080fd5b3480156100bf57600080fd5b506100c8610266565b60408051918252519081900360200190f35b3480156100e657600080fd5b5061010b73ffffffffffffffffffffffffffffffffffffffff6004351660243561026c565b005b34801561011957600080fd5b506100c873ffffffffffffffffffffffffffffffffffffffff600435166102f3565b34801561014757600080fd5b5061010b610305565b34801561015c57600080fd5b5061010b600435610396565b34801561017457600080fd5b5061017d6103d3565b6040805173ffffffffffffffffffffffffffffffffffffffff9092168252519081900360200190f35b3480156101b257600080fd5b5061010b73ffffffffffffffffffffffffffffffffffffffff600435166024356103ef565b3480156101e357600080fd5b5061010b73ffffffffffffffffffffffffffffffffffffffff60043516602435610449565b34801561021457600080fd5b5061010b600435610496565b34801561022c57600080fd5b5061010b73ffffffffffffffffffffffffffffffffffffffff600435166104cd565b34801561025a57600080fd5b5061010b6004356104fd565b60025481565b60005473ffffffffffffffffffffffffffffffffffffffff16331461029057600080fd5b73ffffffffffffffffffffffffffffffffffffffff82166000908152600160205260409020546102c6908263ffffffff61052616565b73ffffffffffffffffffffffffffffffffffffffff90921660009081526001602052604090209190915550565b60016020526000908152604090205481565b60005473ffffffffffffffffffffffffffffffffffffffff16331461032957600080fd5b6000805460405173ffffffffffffffffffffffffffffffffffffffff909116917ff8df31144d9c2f0f6b59d69b8b98abd5459d07f2742c4df920b25aae33c6482091a2600080547fffffffffffffffffffffffff0000000000000000000000000000000000000000169055565b60005473ffffffffffffffffffffffffffffffffffffffff1633146103ba57600080fd5b6002546103cd908263ffffffff61053916565b60025550565b60005473ffffffffffffffffffffffffffffffffffffffff1681565b60005473ffffffffffffffffffffffffffffffffffffffff16331461041357600080fd5b73ffffffffffffffffffffffffffffffffffffffff82166000908152600160205260409020546102c6908263ffffffff61053916565b60005473ffffffffffffffffffffffffffffffffffffffff16331461046d57600080fd5b73ffffffffffffffffffffffffffffffffffffffff909116600090815260016020526040902055565b60005473ffffffffffffffffffffffffffffffffffffffff1633146104ba57600080fd5b6002546103cd908263ffffffff61052616565b60005473ffffffffffffffffffffffffffffffffffffffff1633146104f157600080fd5b6104fa8161054b565b50565b60005473ffffffffffffffffffffffffffffffffffffffff16331461052157600080fd5b600255565b8181018281101561053357fe5b92915050565b60008282111561054557fe5b50900390565b73ffffffffffffffffffffffffffffffffffffffff8116151561056d57600080fd5b6000805460405173ffffffffffffffffffffffffffffffffffffffff808516939216917f8be0079c531659141344cd1fd0a4f28419497f9722a3daafe3b4186f6b6457e091a3600080547fffffffffffffffffffffffff00000000000000000000000000000000000000001673ffffffffffffffffffffffffffffffffffffffff929092169190911790555600a165627a7a72305820dfb4728109674cf450c222c84bae34b66895f8358439ca785c41dd17ef19cf810029608060405260008054600160a060020a03191633179055610558806100256000396000f3006080604052600436106100825763ffffffff7c01000000000000000000000000000000000000000000000000000000006000350416631a46ec8281146100875780635fd72d16146100cd578063715018a6146101065780638da5cb5b1461011b57806397d88cd214610159578063da46098c14610190578063f2fde38b146101c7575b600080fd5b34801561009357600080fd5b506100bb73ffffffffffffffffffffffffffffffffffffffff600435811690602435166101f5565b60408051918252519081900360200190f35b3480156100d957600080fd5b5061010473ffffffffffffffffffffffffffffffffffffffff60043581169060243516604435610212565b005b34801561011257600080fd5b506101046102b7565b34801561012757600080fd5b50610130610348565b6040805173ffffffffffffffffffffffffffffffffffffffff9092168252519081900360200190f35b34801561016557600080fd5b5061010473ffffffffffffffffffffffffffffffffffffffff60043581169060243516604435610364565b34801561019c57600080fd5b5061010473ffffffffffffffffffffffffffffffffffffffff600435811690602435166044356103cb565b3480156101d357600080fd5b5061010473ffffffffffffffffffffffffffffffffffffffff60043516610428565b600160209081526000928352604080842090915290825290205481565b60005473ffffffffffffffffffffffffffffffffffffffff16331461023657600080fd5b73ffffffffffffffffffffffffffffffffffffffff808416600090815260016020908152604080832093861683529290522054610279908263ffffffff61045816565b73ffffffffffffffffffffffffffffffffffffffff938416600090815260016020908152604080832095909616825293909352929091209190915550565b60005473ffffffffffffffffffffffffffffffffffffffff1633146102db57600080fd5b6000805460405173ffffffffffffffffffffffffffffffffffffffff909116917ff8df31144d9c2f0f6b59d69b8b98abd5459d07f2742c4df920b25aae33c6482091a2600080547fffffffffffffffffffffffff0000000000000000000000000000000000000000169055565b60005473ffffffffffffffffffffffffffffffffffffffff1681565b60005473ffffffffffffffffffffffffffffffffffffffff16331461038857600080fd5b73ffffffffffffffffffffffffffffffffffffffff808416600090815260016020908152604080832093861683529290522054610279908263ffffffff61046b16565b60005473ffffffffffffffffffffffffffffffffffffffff1633146103ef57600080fd5b73ffffffffffffffffffffffffffffffffffffffff92831660009081526001602090815260408083209490951682529290925291902055565b60005473ffffffffffffffffffffffffffffffffffffffff16331461044c57600080fd5b6104558161047d565b50565b8181018281101561046557fe5b92915050565b60008282111561047757fe5b50900390565b73ffffffffffffffffffffffffffffffffffffffff8116151561049f57600080fd5b6000805460405173ffffffffffffffffffffffffffffffffffffffff808516939216917f8be0079c531659141344cd1fd0a4f28419497f9722a3daafe3b4186f6b6457e091a3600080547fffffffffffffffffffffffff00000000000000000000000000000000000000001673ffffffffffffffffffffffffffffffffffffffff929092169190911790555600a165627a7a723058201912ee5242be9273382273e6b8b48f974aafc16ccad6fa30f4ce88cbb7ec80e60029608060405260008054600160a060020a031916331790556107e4806100256000396000f3006080604052600436106100ae5763ffffffff7c0100000000000000000000000000000000000000000000000000000000600035041663166e55d981146100b3578063337f3a31146100f6578063478eed7d1461012d5780635a6c72d01461014c5780636ad2661114610178578063715018a6146101a657806377326584146101bb5780638da5cb5b146101d7578063cfc9733c14610215578063f2fde38b14610257578063faaebd2114610285575b600080fd5b3480156100bf57600080fd5b506100e460043573ffffffffffffffffffffffffffffffffffffffff602435166102b3565b60408051918252519081900360200190f35b34801561010257600080fd5b5061012b73ffffffffffffffffffffffffffffffffffffffff6004351661ffff602435166102ef565b005b34801561013957600080fd5b506100e460043561ffff60243516610403565b34801561015857600080fd5b50610161610415565b6040805161ffff9092168252519081900360200190f35b34801561018457600080fd5b5061012b73ffffffffffffffffffffffffffffffffffffffff60043516610437565b3480156101b257600080fd5b5061012b61053a565b3480156101c757600080fd5b5061012b61ffff600435166105cb565b3480156101e357600080fd5b506101ec610692565b6040805173ffffffffffffffffffffffffffffffffffffffff9092168252519081900360200190f35b34801561022157600080fd5b5061024373ffffffffffffffffffffffffffffffffffffffff600435166106ae565b604080519115158252519081900360200190f35b34801561026357600080fd5b5061012b73ffffffffffffffffffffffffffffffffffffffff600435166106c3565b34801561029157600080fd5b5061016173ffffffffffffffffffffffffffffffffffffffff600435166106f3565b73ffffffffffffffffffffffffffffffffffffffff811660009081526001602052604081205461ffff166102e78482610403565b949350505050565b6000805473ffffffffffffffffffffffffffffffffffffffff16331461031457600080fd5b5073ffffffffffffffffffffffffffffffffffffffff82166000908152600160208181526040808420805461ffff8781167fffffffffffffffffffffffffffffffffffffffffffffffffffffffffffff00008316811790935560029094529190942080547fffffffffffffffffffffffffffffffffffffffffffffffffffffffffffffff0016909317909255169081146103fe576040805161ffff808416825284166020820152815173ffffffffffffffffffffffffffffffffffffffff8616927f87448f9f32913b74a02696986bb54c7bc01e231f13fd137a04391767a4b2620e928290030190a25b505050565b6103e861ffff91909116919091020490565b60005474010000000000000000000000000000000000000000900461ffff1681565b6000805473ffffffffffffffffffffffffffffffffffffffff16331461045c57600080fd5b5073ffffffffffffffffffffffffffffffffffffffff8116600090815260016020908152604080832080547fffffffffffffffffffffffffffffffffffffffffffffffffffffffffffff00008116909155600290925290912080547fffffffffffffffffffffffffffffffffffffffffffffffffffffffffffffff0016905561ffff168015610536576040805161ffff83168152905173ffffffffffffffffffffffffffffffffffffffff8416917fd9cc6053d9b32a55299bc21c42734bfefb652e41b1d8bdb56da0d06705015db5919081900360200190a25b5050565b60005473ffffffffffffffffffffffffffffffffffffffff16331461055e57600080fd5b6000805460405173ffffffffffffffffffffffffffffffffffffffff909116917ff8df31144d9c2f0f6b59d69b8b98abd5459d07f2742c4df920b25aae33c6482091a2600080547fffffffffffffffffffffffff0000000000000000000000000000000000000000169055565b6000805473ffffffffffffffffffffffffffffffffffffffff1633146105f057600080fd5b506000805461ffff838116740100000000000000000000000000000000000000009081027fffffffffffffffffffff0000ffffffffffffffffffffffffffffffffffffffff841617938490559182900481169291909104168114610536576040805161ffff80841682528416602082015281517f1a1e8eba2cababd9df29fe06850a8656b76ce6c31494e77bb2a8b0effee297c1929181900390910190a15050565b60005473ffffffffffffffffffffffffffffffffffffffff1681565b60026020526000908152604090205460ff1681565b60005473ffffffffffffffffffffffffffffffffffffffff1633146106e757600080fd5b6106f081610709565b50565b60016020526000908152604090205461ffff1681565b73ffffffffffffffffffffffffffffffffffffffff8116151561072b57600080fd5b6000805460405173ffffffffffffffffffffffffffffffffffffffff808516939216917f8be0079c531659141344cd1fd0a4f28419497f9722a3daafe3b4186f6b6457e091a3600080547fffffffffffffffffffffffff00000000000000000000000000000000000000001673ffffffffffffffffffffffffffffffffffffffff929092169190911790555600a165627a7a723058204086775b224135c38ac83d80f1eeaa21299ea0c9862ddfafd4430662bd2998880029608060405260008054600160a060020a031916331790556104a0806100256000396000f3006080604052600436106100775763ffffffff7c01000000000000000000000000000000000000000000000000000000006000350416630418945a811461007c5780633af32abf146100ac5780633b947d2b146100ee578063715018a61461011c5780638da5cb5b14610131578063f2fde38b1461016f575b600080fd5b34801561008857600080fd5b506100aa73ffffffffffffffffffffffffffffffffffffffff6004351661019d565b005b3480156100b857600080fd5b506100da73ffffffffffffffffffffffffffffffffffffffff6004351661023b565b604080519115158252519081900360200190f35b3480156100fa57600080fd5b506100aa73ffffffffffffffffffffffffffffffffffffffff60043516610250565b34801561012857600080fd5b506100aa6102e8565b34801561013d57600080fd5b50610146610379565b6040805173ffffffffffffffffffffffffffffffffffffffff9092168252519081900360200190f35b34801561017b57600080fd5b506100aa73ffffffffffffffffffffffffffffffffffffffff60043516610395565b60005473ffffffffffffffffffffffffffffffffffffffff1633146101c157600080fd5b73ffffffffffffffffffffffffffffffffffffffff8116600081815260016020819052604080832080547fffffffffffffffffffffffffffffffffffffffffffffffffffffffffffffff0016909217909155517f3db297c09c19972ba6a701ff373ab97e21ff1e4992e863c7abe44e9b2fed08479190a250565b60016020526000908152604090205460ff1681565b60005473ffffffffffffffffffffffffffffffffffffffff16331461027457600080fd5b73ffffffffffffffffffffffffffffffffffffffff811660008181526001602052604080822080547fffffffffffffffffffffffffffffffffffffffffffffffffffffffffffffff00169055517f3302a1b37f04242bb55603f5449e7ecd690a35eef08ba1353c48c20e2aae9cda9190a250565b60005473ffffffffffffffffffffffffffffffffffffffff16331461030c57600080fd5b6000805460405173ffffffffffffffffffffffffffffffffffffffff909116917ff8df31144d9c2f0f6b59d69b8b98abd5459d07f2742c4df920b25aae33c6482091a2600080547fffffffffffffffffffffffff0000000000000000000000000000000000000000169055565b60005473ffffffffffffffffffffffffffffffffffffffff1681565b60005473ffffffffffffffffffffffffffffffffffffffff1633146103b957600080fd5b6103c2816103c5565b50565b73ffffffffffffffffffffffffffffffffffffffff811615156103e757600080fd5b6000805460405173ffffffffffffffffffffffffffffffffffffffff808516939216917f8be0079c531659141344cd1fd0a4f28419497f9722a3daafe3b4186f6b6457e091a3600080547fffffffffffffffffffffffff00000000000000000000000000000000000000001673ffffffffffffffffffffffffffffffffffffffff929092169190911790555600a165627a7a7230582019ee11155dd54b81cd6342c3a32da2392eabdfd45582d5eb97d37010b4f9e1350029608060405234801561001057600080fd5b5060405160c080611259833981018060405281019080805190602001909291908051906020019092919080519060200190929190805190602001909291908051906020019092919080519060200190929190505050848484828282878781818f60405180807f6f72672e7a657070656c696e6f732e70726f78792e696d706c656d656e74617481526020017f696f6e00000000000000000000000000000000000000000000000000000000008152506023019050604051809103902060001916600080516020611239833981519152600102600019161415156100ef57fe5b61010181640100000000610178810204565b506000805433600160a060020a031991821617909155600180548216600160a060020a0394851617905560028054821692841692909217909155600380548216978316979097179096556004805487169582169590951790945550506005805490931691161790555061023e975050505050505050565b600061019082640100000000610ca561023682021704565b151561022357604080517f08c379a000000000000000000000000000000000000000000000000000000000815260206004820152603b60248201527f43616e6e6f742073657420612070726f787920696d706c656d656e746174696f60448201527f6e20746f2061206e6f6e2d636f6e747261637420616464726573730000000000606482015290519081900360840190fd5b5060008051602061123983398151915255565b6000903b1190565b610fec8061024d6000396000f3006080604052600436106100da5763ffffffff7c01000000000000000000000000000000000000000000000000000000006000350416633659cfe681146100e45780633ed10b92146101125780635c60da1b1461015057806360814fe814610165578063715018a61461019357806373e9e0e5146101a85780637bb98a68146101d65780638da5cb5b146101eb578063c52dd64414610200578063cde0a4f81461022e578063d1a15eba1461025c578063d96515661461028a578063dd8fee141461029f578063e14852e3146102b4578063f2fde38b146102c9575b6100e26102f7565b005b3480156100f057600080fd5b506100e273ffffffffffffffffffffffffffffffffffffffff60043516610311565b34801561011e57600080fd5b50610127610341565b6040805173ffffffffffffffffffffffffffffffffffffffff9092168252519081900360200190f35b34801561015c57600080fd5b5061012761035d565b34801561017157600080fd5b506100e273ffffffffffffffffffffffffffffffffffffffff6004351661036c565b34801561019f57600080fd5b506100e2610399565b3480156101b457600080fd5b506100e273ffffffffffffffffffffffffffffffffffffffff6004351661042a565b3480156101e257600080fd5b506101276105fe565b3480156101f757600080fd5b5061012761061a565b34801561020c57600080fd5b506100e273ffffffffffffffffffffffffffffffffffffffff60043516610636565b34801561023a57600080fd5b506100e273ffffffffffffffffffffffffffffffffffffffff6004351661080a565b34801561026857600080fd5b506100e273ffffffffffffffffffffffffffffffffffffffff600435166109de565b34801561029657600080fd5b50610127610a0b565b3480156102ab57600080fd5b50610127610a27565b3480156102c057600080fd5b50610127610a43565b3480156102d557600080fd5b506100e273ffffffffffffffffffffffffffffffffffffffff60043516610a5f565b6102ff61030f565b61030f61030a610a8c565b610ab1565b565b60005473ffffffffffffffffffffffffffffffffffffffff16331461033557600080fd5b61033e81610ad5565b50565b60055473ffffffffffffffffffffffffffffffffffffffff1681565b6000610367610a8c565b905090565b60005473ffffffffffffffffffffffffffffffffffffffff16331461039057600080fd5b61033e81610b2a565b60005473ffffffffffffffffffffffffffffffffffffffff1633146103bd57600080fd5b6000805460405173ffffffffffffffffffffffffffffffffffffffff909116917ff8df31144d9c2f0f6b59d69b8b98abd5459d07f2742c4df920b25aae33c6482091a2600080547fffffffffffffffffffffffff0000000000000000000000000000000000000000169055565b6000805473ffffffffffffffffffffffffffffffffffffffff16331461044f57600080fd5b60045473ffffffffffffffffffffffffffffffffffffffff838116911614156104d957604080517f08c379a000000000000000000000000000000000000000000000000000000000815260206004820152601b60248201527f4d7573742062652061206e65772062616c616e63652073686565740000000000604482015290519081900360640190fd5b6104e282610ca5565b151561057557604080517f08c379a000000000000000000000000000000000000000000000000000000000815260206004820152603860248201527f43616e6e6f7420736574206120726567756c61746f722073746f72616765207460448201527f6f2061206e6f6e2d636f6e747261637420616464726573730000000000000000606482015290519081900360840190fd5b506004805473ffffffffffffffffffffffffffffffffffffffff8381167fffffffffffffffffffffffff0000000000000000000000000000000000000000831681179093556040805191909216808252602082019390935281517f8c3d37b41e983f0d5b0b91de3f9d5055c73a17beebc7adfce9b677ab7c07ad2d929181900390910190a15050565b60045473ffffffffffffffffffffffffffffffffffffffff1681565b60005473ffffffffffffffffffffffffffffffffffffffff1681565b6000805473ffffffffffffffffffffffffffffffffffffffff16331461065b57600080fd5b60055473ffffffffffffffffffffffffffffffffffffffff838116911614156106e557604080517f08c379a000000000000000000000000000000000000000000000000000000000815260206004820152601b60248201527f4d7573742062652061206e65772073746f726167652073686565740000000000604482015290519081900360640190fd5b6106ee82610ca5565b151561078157604080517f08c379a000000000000000000000000000000000000000000000000000000000815260206004820152603860248201527f43616e6e6f7420736574206120726567756c61746f722073746f72616765207460448201527f6f2061206e6f6e2d636f6e747261637420616464726573730000000000000000606482015290519081900360840190fd5b506005805473ffffffffffffffffffffffffffffffffffffffff8381167fffffffffffffffffffffffff0000000000000000000000000000000000000000831681179093556040805191909216808252602082019390935281517fec358425c40511d576e1c52be7593403bceacda627234c873b52589fef7b2359929181900390910190a15050565b6000805473ffffffffffffffffffffffffffffffffffffffff16331461082f57600080fd5b60035473ffffffffffffffffffffffffffffffffffffffff838116911614156108b957604080517f08c379a000000000000000000000000000000000000000000000000000000000815260206004820152601760248201527f4d7573742062652061206e657720726567756c61746f72000000000000000000604482015290519081900360640190fd5b6108c282610ca5565b151561095557604080517f08c379a000000000000000000000000000000000000000000000000000000000815260206004820152603860248201527f43616e6e6f7420736574206120726567756c61746f722073746f72616765207460448201527f6f2061206e6f6e2d636f6e747261637420616464726573730000000000000000606482015290519081900360840190fd5b506003805473ffffffffffffffffffffffffffffffffffffffff8381167fffffffffffffffffffffffff0000000000000000000000000000000000000000831681179093556040805191909216808252602082019390935281517f4a59b4b607c6055b37a4716d7813d7d4d2c288e4d0dd8298e365b260a1f262e8929181900390910190a15050565b60005473ffffffffffffffffffffffffffffffffffffffff163314610a0257600080fd5b61033e81610cad565b60015473ffffffffffffffffffffffffffffffffffffffff1681565b60035473ffffffffffffffffffffffffffffffffffffffff1681565b60025473ffffffffffffffffffffffffffffffffffffffff1681565b60005473ffffffffffffffffffffffffffffffffffffffff163314610a8357600080fd5b61033e81610e4e565b7f7050c9e0f4ca769c69bd3a8ef740bc37934f8e2c036e5a723fd8ee048ed3f8c35490565b3660008037600080366000845af43d6000803e808015610ad0573d6000f35b3d6000fd5b610ade81610efd565b6040805173ffffffffffffffffffffffffffffffffffffffff8316815290517fbc7cd75a20ee27fd9adebab32041f755214dbc6bffa90cc0225b39da2e5c2d3b9181900360200190a150565b60015460009073ffffffffffffffffffffffffffffffffffffffff83811691161415610bb757604080517f08c379a000000000000000000000000000000000000000000000000000000000815260206004820152601760248201527f4d7573742062652061206e657720666565207368656574000000000000000000604482015290519081900360640190fd5b610bc082610ca5565b1515610c2d57604080517f08c379a000000000000000000000000000000000000000000000000000000000815260206004820152601a60248201527f4d75737420626520616e2061637475616c20636f6e7472616374000000000000604482015290519081900360640190fd5b506001805473ffffffffffffffffffffffffffffffffffffffff8381167fffffffffffffffffffffffff0000000000000000000000000000000000000000831681179093556040519116919082907ffa50850a9a205a6eab44ae568df104b00a5fd26ba0ded7dd81d4879c6a27d29b90600090a35050565b6000903b1190565b60025460009073ffffffffffffffffffffffffffffffffffffffff83811691161415610d6057604080517f08c379a000000000000000000000000000000000000000000000000000000000815260206004820152602260248201527f4d7573742062652061206e657720737461626c65636f696e2077686974656c6960448201527f7374000000000000000000000000000000000000000000000000000000000000606482015290519081900360840190fd5b610d6982610ca5565b1515610dd657604080517f08c379a000000000000000000000000000000000000000000000000000000000815260206004820152601a60248201527f4d75737420626520616e2061637475616c20636f6e7472616374000000000000604482015290519081900360640190fd5b506002805473ffffffffffffffffffffffffffffffffffffffff8381167fffffffffffffffffffffffff0000000000000000000000000000000000000000831681179093556040519116919082907f9d4cc8ae350dd03b669fc5b6d399ea6b56438abd19c07b3e71abd09552bafe3490600090a35050565b73ffffffffffffffffffffffffffffffffffffffff81161515610e7057600080fd5b6000805460405173ffffffffffffffffffffffffffffffffffffffff808516939216917f8be0079c531659141344cd1fd0a4f28419497f9722a3daafe3b4186f6b6457e091a3600080547fffffffffffffffffffffffff00000000000000000000000000000000000000001673ffffffffffffffffffffffffffffffffffffffff92909216919091179055565b6000610f0882610ca5565b1515610f9b57604080517f08c379a000000000000000000000000000000000000000000000000000000000815260206004820152603b60248201527f43616e6e6f742073657420612070726f787920696d706c656d656e746174696f60448201527f6e20746f2061206e6f6e2d636f6e747261637420616464726573730000000000606482015290519081900360840190fd5b507f7050c9e0f4ca769c69bd3a8ef740bc37934f8e2c036e5a723fd8ee048ed3f8c3555600a165627a7a72305820ca3043a502563260a4bb0ea2d7d68564ba63d1facc568a63f6d31ec7b52bc87900297050c9e0f4ca769c69bd3a8ef740bc37934f8e2c036e5a723fd8ee048ed3f8c3a165627a7a723058205f500220d4b3cac9953bd203875d79f9eeac7ef2bc3513ca30a60023141503720029",
  "source": "pragma solidity ^0.4.23;\n\nimport \"../tokens/carbonToken/CarbonDollarProxy.sol\";\nimport \"../tokens/carbonToken/dataStorage/FeeSheet.sol\";\nimport \"../tokens/carbonToken/dataStorage/StablecoinWhitelist.sol\";\nimport \"../tokens/permissionedToken/dataStorage/BalanceSheet.sol\";\nimport \"../tokens/permissionedToken/dataStorage/AllowanceSheet.sol\";\n\n/**\n*\n* @dev PermissionedTokenProxyFactory creates new PermissionedTokenProxy contracts instantiated with data stores. \n*\n**/\ncontract CarbonDollarProxyFactory {\n    // Parameters\n    address[] public tokens;\n\n    // Events\n    event CreatedCarbonDollarProxy(address newToken, uint index);\n\n    // Return number of token proxy contracts created so far\n    function getCount() public view returns (uint) {\n        return tokens.length;\n    }\n\n    // Return the i'th created token\n    function getToken(uint i) public view returns(address) {\n        require((i < tokens.length) && (i >= 0), \"Invalid index\");\n        return tokens[i];\n    }\n    \n\n    /**\n    *\n    * @dev generate a new proxy address that users can cast to a PermissionedToken or PermissionedTokenProxy. The\n    * proxy has empty data storage contracts connected to it and it is set with an initial logic contract\n    * to which it will delegate functionality\n    * @param regulator the address of the initial regulator contract that regulates the proxy\n    * @param tokenImplementation the address of the initial PT token implementation\n    *\n    **/\n    function createToken(address tokenImplementation, address regulator) public {\n        \n        // Store new data storage contracts for token proxy\n        address balances = address(new BalanceSheet()); \n        address allowances = address(new AllowanceSheet());\n        address fees = address(new FeeSheet());\n        address whitelist = address(new StablecoinWhitelist());\n\n        address proxy = address(new CarbonDollarProxy(tokenImplementation, regulator, balances, allowances, fees, whitelist));\n\n        // data storages should ultimately point be owned by the proxy, since it will delegate function\n        // calls to the latest implementation *in the context of the proxy contract*\n        BalanceSheet(balances).transferOwnership(address(proxy));\n        AllowanceSheet(allowances).transferOwnership(address(proxy));\n        FeeSheet(fees).transferOwnership(address(proxy));\n        StablecoinWhitelist(whitelist).transferOwnership(address(proxy));\n\n        // The function caller should own the proxy contract\n        CarbonDollarProxy(proxy).transferOwnership(msg.sender);\n\n        tokens.push(proxy);\n        emit CreatedCarbonDollarProxy(proxy, getCount()-1);\n    }\n}\n\n",
  "sourcePath": "/Users/tanishqaggarwal/Documents/carbon/fiat_gateway/contracts/factories/CarbonDollarProxyFactory.sol",
  "compiler": {
    "name": "solc",
    "version": "0.4.24+commit.e67f0147.Emscripten.clang"
  },
  "schemaVersion": "2.0.1",
  "updatedAt": "2018-08-13T20:26:48.097Z"
}