{
  "contractName": "CarbonDollar",
  "abi": [
    {
      "constant": false,
      "inputs": [
        {
          "name": "_spender",
          "type": "address"
        },
        {
          "name": "_value",
          "type": "uint256"
        }
      ],
      "name": "approve",
      "outputs": [
        {
          "name": "",
          "type": "bool"
        }
      ],
      "payable": false,
      "stateMutability": "nonpayable",
      "type": "function"
    },
    {
      "constant": true,
      "inputs": [],
      "name": "totalSupply",
      "outputs": [
        {
          "name": "",
          "type": "uint256"
        }
      ],
      "payable": false,
      "stateMutability": "view",
      "type": "function"
    },
    {
      "constant": false,
      "inputs": [
        {
          "name": "_from",
          "type": "address"
        },
        {
          "name": "_to",
          "type": "address"
        },
        {
          "name": "_amount",
          "type": "uint256"
        }
      ],
      "name": "transferFrom",
      "outputs": [
        {
          "name": "",
          "type": "bool"
        }
      ],
      "payable": false,
      "stateMutability": "nonpayable",
      "type": "function"
    },
    {
      "constant": false,
      "inputs": [],
      "name": "claimWhitelistOwnership",
      "outputs": [],
      "payable": false,
      "stateMutability": "nonpayable",
      "type": "function"
    },
    {
      "constant": true,
      "inputs": [],
      "name": "allowances",
      "outputs": [
        {
          "name": "",
          "type": "address"
        }
      ],
      "payable": false,
      "stateMutability": "view",
      "type": "function"
    },
    {
      "constant": false,
      "inputs": [],
      "name": "unpause",
      "outputs": [],
      "payable": false,
      "stateMutability": "nonpayable",
      "type": "function"
    },
    {
      "constant": false,
      "inputs": [
        {
          "name": "_amount",
          "type": "uint256"
        }
      ],
      "name": "burn",
      "outputs": [],
      "payable": false,
      "stateMutability": "nonpayable",
      "type": "function"
    },
    {
      "constant": false,
      "inputs": [],
      "name": "claimOwnership",
      "outputs": [],
      "payable": false,
      "stateMutability": "nonpayable",
      "type": "function"
    },
    {
      "constant": true,
      "inputs": [],
      "name": "blacklisted",
      "outputs": [
        {
          "name": "",
          "type": "bool"
        }
      ],
      "payable": false,
      "stateMutability": "view",
      "type": "function"
    },
    {
      "constant": true,
      "inputs": [],
      "name": "paused",
      "outputs": [
        {
          "name": "",
          "type": "bool"
        }
      ],
      "payable": false,
      "stateMutability": "view",
      "type": "function"
    },
    {
      "constant": false,
      "inputs": [
        {
          "name": "_feesheet",
          "type": "address"
        }
      ],
      "name": "setFeeSheet",
      "outputs": [],
      "payable": false,
      "stateMutability": "nonpayable",
      "type": "function"
    },
    {
      "constant": false,
      "inputs": [
        {
          "name": "_spender",
          "type": "address"
        },
        {
          "name": "_subtractedValue",
          "type": "uint256"
        }
      ],
      "name": "decreaseApproval",
      "outputs": [
        {
          "name": "",
          "type": "bool"
        }
      ],
      "payable": false,
      "stateMutability": "nonpayable",
      "type": "function"
    },
    {
      "constant": false,
      "inputs": [
        {
          "name": "_blacklistedAccount",
          "type": "address"
        }
      ],
      "name": "approveBlacklistedAddressSpender",
      "outputs": [],
      "payable": false,
      "stateMutability": "nonpayable",
      "type": "function"
    },
    {
      "constant": true,
      "inputs": [
        {
          "name": "who",
          "type": "address"
        }
      ],
      "name": "balanceOf",
      "outputs": [
        {
          "name": "",
          "type": "uint256"
        }
      ],
      "payable": false,
      "stateMutability": "view",
      "type": "function"
    },
    {
      "constant": false,
      "inputs": [
        {
          "name": "_newStorageAddress",
          "type": "address"
        }
      ],
      "name": "setBalanceStorage",
      "outputs": [],
      "payable": false,
      "stateMutability": "nonpayable",
      "type": "function"
    },
    {
      "constant": true,
      "inputs": [],
      "name": "balances",
      "outputs": [
        {
          "name": "",
          "type": "address"
        }
      ],
      "payable": false,
      "stateMutability": "view",
      "type": "function"
    },
    {
      "constant": false,
      "inputs": [],
      "name": "pause",
      "outputs": [],
      "payable": false,
      "stateMutability": "nonpayable",
      "type": "function"
    },
    {
      "constant": true,
      "inputs": [],
      "name": "isMethodEnabled",
      "outputs": [
        {
          "name": "",
          "type": "bool"
        }
      ],
      "payable": false,
      "stateMutability": "view",
      "type": "function"
    },
    {
      "constant": false,
      "inputs": [],
      "name": "claimBalanceOwnership",
      "outputs": [],
      "payable": false,
      "stateMutability": "nonpayable",
      "type": "function"
    },
    {
      "constant": true,
      "inputs": [],
      "name": "owner",
      "outputs": [
        {
          "name": "",
          "type": "address"
        }
      ],
      "payable": false,
      "stateMutability": "view",
      "type": "function"
    },
    {
      "constant": false,
      "inputs": [],
      "name": "claimFeeOwnership",
      "outputs": [],
      "payable": false,
      "stateMutability": "nonpayable",
      "type": "function"
    },
    {
      "constant": false,
      "inputs": [],
      "name": "claimAllowanceOwnership",
      "outputs": [],
      "payable": false,
      "stateMutability": "nonpayable",
      "type": "function"
    },
    {
      "constant": false,
      "inputs": [],
      "name": "unlock",
      "outputs": [],
      "payable": false,
      "stateMutability": "nonpayable",
      "type": "function"
    },
    {
      "constant": false,
      "inputs": [
        {
          "name": "_to",
          "type": "address"
        },
        {
          "name": "_amount",
          "type": "uint256"
        }
      ],
      "name": "transfer",
      "outputs": [
        {
          "name": "",
          "type": "bool"
        }
      ],
      "payable": false,
      "stateMutability": "nonpayable",
      "type": "function"
    },
    {
      "constant": false,
      "inputs": [
        {
          "name": "_newStorageAddress",
          "type": "address"
        }
      ],
      "name": "setAllowanceStorage",
      "outputs": [],
      "payable": false,
      "stateMutability": "nonpayable",
      "type": "function"
    },
    {
      "constant": false,
      "inputs": [
        {
          "name": "_who",
          "type": "address"
        },
        {
          "name": "_amount",
          "type": "uint256"
        }
      ],
      "name": "destroyBlacklistedTokens",
      "outputs": [],
      "payable": false,
      "stateMutability": "nonpayable",
      "type": "function"
    },
    {
      "constant": false,
      "inputs": [
        {
          "name": "_newStorageAddress",
          "type": "address"
        }
      ],
      "name": "setRegulator",
      "outputs": [],
      "payable": false,
      "stateMutability": "nonpayable",
      "type": "function"
    },
    {
      "constant": false,
      "inputs": [
        {
          "name": "_whitelist",
          "type": "address"
        }
      ],
      "name": "setStablecoinWhitelist",
      "outputs": [],
      "payable": false,
      "stateMutability": "nonpayable",
      "type": "function"
    },
    {
      "constant": false,
      "inputs": [
        {
          "name": "_spender",
          "type": "address"
        },
        {
          "name": "_addedValue",
          "type": "uint256"
        }
      ],
      "name": "increaseApproval",
      "outputs": [
        {
          "name": "",
          "type": "bool"
        }
      ],
      "payable": false,
      "stateMutability": "nonpayable",
      "type": "function"
    },
    {
      "constant": true,
      "inputs": [],
      "name": "stablecoinFees",
      "outputs": [
        {
          "name": "",
          "type": "address"
        }
      ],
      "payable": false,
      "stateMutability": "view",
      "type": "function"
    },
    {
      "constant": true,
      "inputs": [
        {
          "name": "owner",
          "type": "address"
        },
        {
          "name": "spender",
          "type": "address"
        }
      ],
      "name": "allowance",
      "outputs": [
        {
          "name": "",
          "type": "uint256"
        }
      ],
      "payable": false,
      "stateMutability": "view",
      "type": "function"
    },
    {
      "constant": true,
      "inputs": [],
      "name": "regulator",
      "outputs": [
        {
          "name": "",
          "type": "address"
        }
      ],
      "payable": false,
      "stateMutability": "view",
      "type": "function"
    },
    {
      "constant": true,
      "inputs": [],
      "name": "stablecoinWhitelist",
      "outputs": [
        {
          "name": "",
          "type": "address"
        }
      ],
      "payable": false,
      "stateMutability": "view",
      "type": "function"
    },
    {
      "constant": true,
      "inputs": [],
      "name": "pendingOwner",
      "outputs": [
        {
          "name": "",
          "type": "address"
        }
      ],
      "payable": false,
      "stateMutability": "view",
      "type": "function"
    },
    {
      "constant": false,
      "inputs": [
        {
          "name": "_newOwner",
          "type": "address"
        }
      ],
      "name": "transferOwnership",
      "outputs": [],
      "payable": false,
      "stateMutability": "nonpayable",
      "type": "function"
    },
    {
      "constant": false,
      "inputs": [],
      "name": "lock",
      "outputs": [],
      "payable": false,
      "stateMutability": "nonpayable",
      "type": "function"
    },
    {
      "inputs": [
        {
          "name": "r",
          "type": "address"
        },
        {
          "name": "b",
          "type": "address"
        },
        {
          "name": "a",
          "type": "address"
        },
        {
          "name": "f",
          "type": "address"
        },
        {
          "name": "s",
          "type": "address"
        }
      ],
      "payable": false,
      "stateMutability": "nonpayable",
      "type": "constructor"
    },
    {
      "anonymous": false,
      "inputs": [
        {
          "indexed": true,
          "name": "user",
          "type": "address"
        },
        {
          "indexed": false,
          "name": "amount",
          "type": "uint256"
        }
      ],
      "name": "ConvertedToWT",
      "type": "event"
    },
    {
      "anonymous": false,
      "inputs": [
        {
          "indexed": true,
          "name": "user",
          "type": "address"
        },
        {
          "indexed": false,
          "name": "feedAmount",
          "type": "uint256"
        },
        {
          "indexed": false,
          "name": "chargedFee",
          "type": "uint256"
        }
      ],
      "name": "BurnedCUSD",
      "type": "event"
    },
    {
      "anonymous": false,
      "inputs": [
        {
          "indexed": true,
          "name": "account",
          "type": "address"
        },
        {
          "indexed": false,
          "name": "amount",
          "type": "uint256"
        }
      ],
      "name": "DestroyedBlacklistedTokens",
      "type": "event"
    },
    {
      "anonymous": false,
      "inputs": [
        {
          "indexed": true,
          "name": "owner",
          "type": "address"
        },
        {
          "indexed": true,
          "name": "spender",
          "type": "address"
        },
        {
          "indexed": false,
          "name": "value",
          "type": "uint256"
        }
      ],
      "name": "ApprovedBlacklistedAddressSpender",
      "type": "event"
    },
    {
      "anonymous": false,
      "inputs": [
        {
          "indexed": true,
          "name": "to",
          "type": "address"
        },
        {
          "indexed": false,
          "name": "value",
          "type": "uint256"
        }
      ],
      "name": "Mint",
      "type": "event"
    },
    {
      "anonymous": false,
      "inputs": [
        {
          "indexed": true,
          "name": "burner",
          "type": "address"
        },
        {
          "indexed": false,
          "name": "value",
          "type": "uint256"
        }
      ],
      "name": "Burn",
      "type": "event"
    },
    {
      "anonymous": false,
      "inputs": [
        {
          "indexed": true,
          "name": "from",
          "type": "address"
        },
        {
          "indexed": true,
          "name": "to",
          "type": "address"
        },
        {
          "indexed": false,
          "name": "value",
          "type": "uint256"
        }
      ],
      "name": "Transfer",
      "type": "event"
    },
    {
      "anonymous": false,
      "inputs": [
        {
          "indexed": true,
          "name": "owner",
          "type": "address"
        },
        {
          "indexed": true,
          "name": "spender",
          "type": "address"
        },
        {
          "indexed": false,
          "name": "value",
          "type": "uint256"
        }
      ],
      "name": "Approval",
      "type": "event"
    },
    {
      "anonymous": false,
      "inputs": [
        {
          "indexed": false,
          "name": "_old",
          "type": "address"
        },
        {
          "indexed": false,
          "name": "_new",
          "type": "address"
        }
      ],
      "name": "ChangedRegulator",
      "type": "event"
    },
    {
      "anonymous": false,
      "inputs": [
        {
          "indexed": false,
          "name": "_old",
          "type": "address"
        },
        {
          "indexed": false,
          "name": "_new",
          "type": "address"
        }
      ],
      "name": "ChangedBalanceStorage",
      "type": "event"
    },
    {
      "anonymous": false,
      "inputs": [
        {
          "indexed": false,
          "name": "_old",
          "type": "address"
        },
        {
          "indexed": false,
          "name": "_new",
          "type": "address"
        }
      ],
      "name": "ChangedAllowanceStorage",
      "type": "event"
    },
    {
      "anonymous": false,
      "inputs": [],
      "name": "Unlocked",
      "type": "event"
    },
    {
      "anonymous": false,
      "inputs": [],
      "name": "Locked",
      "type": "event"
    },
    {
      "anonymous": false,
      "inputs": [],
      "name": "Pause",
      "type": "event"
    },
    {
      "anonymous": false,
      "inputs": [],
      "name": "Unpause",
      "type": "event"
    },
    {
      "anonymous": false,
      "inputs": [
        {
          "indexed": true,
          "name": "oldSheet",
          "type": "address"
        },
        {
          "indexed": true,
          "name": "newSheet",
          "type": "address"
        }
      ],
      "name": "FeeSheetChanged",
      "type": "event"
    },
    {
      "anonymous": false,
      "inputs": [
        {
          "indexed": true,
          "name": "oldWhitelist",
          "type": "address"
        },
        {
          "indexed": true,
          "name": "newWhitelist",
          "type": "address"
        }
      ],
      "name": "StablecoinWhitelistChanged",
      "type": "event"
    },
    {
      "anonymous": false,
      "inputs": [
        {
          "indexed": true,
          "name": "previousOwner",
          "type": "address"
        },
        {
          "indexed": true,
          "name": "newOwner",
          "type": "address"
        }
      ],
      "name": "OwnershipTransferred",
      "type": "event"
    },
    {
      "constant": false,
      "inputs": [
        {
          "name": "_stablecoin",
          "type": "address"
        }
      ],
      "name": "listToken",
      "outputs": [],
      "payable": false,
      "stateMutability": "nonpayable",
      "type": "function"
    },
    {
      "constant": false,
      "inputs": [
        {
          "name": "_stablecoin",
          "type": "address"
        }
      ],
      "name": "unlistToken",
      "outputs": [],
      "payable": false,
      "stateMutability": "nonpayable",
      "type": "function"
    },
    {
      "constant": true,
      "inputs": [
        {
          "name": "_stablecoin",
          "type": "address"
        }
      ],
      "name": "isWhitelisted",
      "outputs": [
        {
          "name": "",
          "type": "bool"
        }
      ],
      "payable": false,
      "stateMutability": "view",
      "type": "function"
    },
    {
      "constant": false,
      "inputs": [
        {
          "name": "stablecoin",
          "type": "address"
        },
        {
          "name": "_newFee",
          "type": "uint256"
        }
      ],
      "name": "setFee",
      "outputs": [],
      "payable": false,
      "stateMutability": "nonpayable",
      "type": "function"
    },
    {
      "constant": false,
      "inputs": [
        {
          "name": "stablecoin",
          "type": "address"
        }
      ],
      "name": "removeFee",
      "outputs": [],
      "payable": false,
      "stateMutability": "nonpayable",
      "type": "function"
    },
    {
      "constant": false,
      "inputs": [
        {
          "name": "_newFee",
          "type": "uint256"
        }
      ],
      "name": "setDefaultFee",
      "outputs": [],
      "payable": false,
      "stateMutability": "nonpayable",
      "type": "function"
    },
    {
      "constant": true,
      "inputs": [
        {
          "name": "stablecoin",
          "type": "address"
        }
      ],
      "name": "getFee",
      "outputs": [
        {
          "name": "",
          "type": "uint256"
        }
      ],
      "payable": false,
      "stateMutability": "view",
      "type": "function"
    },
    {
      "constant": true,
      "inputs": [],
      "name": "getDefaultFee",
      "outputs": [
        {
          "name": "",
          "type": "uint256"
        }
      ],
      "payable": false,
      "stateMutability": "view",
      "type": "function"
    },
    {
      "constant": false,
      "inputs": [
        {
          "name": "_to",
          "type": "address"
        },
        {
          "name": "_amount",
          "type": "uint256"
        }
      ],
      "name": "mint",
      "outputs": [],
      "payable": false,
      "stateMutability": "nonpayable",
      "type": "function"
    },
    {
      "constant": false,
      "inputs": [
        {
          "name": "stablecoin",
          "type": "address"
        },
        {
          "name": "_amount",
          "type": "uint256"
        }
      ],
      "name": "convertCarbonDollar",
      "outputs": [],
      "payable": false,
      "stateMutability": "nonpayable",
      "type": "function"
    },
    {
      "constant": false,
      "inputs": [
        {
          "name": "stablecoin",
          "type": "address"
        },
        {
          "name": "_amount",
          "type": "uint256"
        }
      ],
      "name": "burnCarbonDollar",
      "outputs": [],
      "payable": false,
      "stateMutability": "nonpayable",
      "type": "function"
    },
    {
      "constant": true,
      "inputs": [
        {
          "name": "stablecoin",
          "type": "address"
        }
      ],
      "name": "computeFeeRate",
      "outputs": [
        {
          "name": "feeRate",
          "type": "uint256"
        }
      ],
      "payable": false,
      "stateMutability": "view",
      "type": "function"
    },
    {
      "constant": true,
      "inputs": [
        {
          "name": "amount",
          "type": "uint256"
        },
        {
          "name": "stablecoin",
          "type": "address"
        }
      ],
      "name": "computeStablecoinFee",
      "outputs": [
        {
          "name": "",
          "type": "uint256"
        }
      ],
      "payable": false,
      "stateMutability": "view",
      "type": "function"
    }
  ],
  "bytecode": "0x60806040526003805460a060020a61ffff021916905534801561002157600080fd5b5060405160a08062005bd1833981016040908152815160208301519183015160608401516080909401516000805433600160a060020a03199182161782556001805482169055600280548216600160a060020a03988916179055600380548216938816939093179092556004805483169487169490941790935560058054821694861694909417909355600680549093169316929092179055615b06908190620000cb90396000f3006080604052600436106102505763ffffffff7c0100000000000000000000000000000000000000000000000000000000600035041663095ea7b381146102555780630d4b82081461029a578063166e55d9146102cd57806318160ddd146103105780631fc1e25f1461032557806321bacf281461035357806323b872dd146103685780632a9a04ba1461039f5780633af32abf146103b45780633ed10b92146103e25780633f4ba83a1461042057806340c10f191461043557806342966c68146104665780634e71e0c81461047e5780635bae9ce9146104935780635c975abb146104a857806360814fe8146104bd57806366188463146104eb578063662f94c01461051c5780636ad266111461054a57806370a082311461057857806373e9e0e5146105a65780637bb98a68146105d45780638456cb59146105e9578063873ab2ce146105fe57806388fa26171461062c5780638955ed7e146106415780638da5cb5b14610656578063956ce0931461066b5780639b2bdc2014610680578063a69df4b514610695578063a9059cbb146106aa578063abcb9934146106db578063b88c914814610709578063ba6f4ab014610737578063c52dd64414610768578063c534ba4b14610796578063c93a6c84146107c7578063cde0a4f8146107df578063d1a15eba1461080d578063d73dd6231461083b578063d96515661461086c578063dd62ed3e14610881578063dd8fee14146108b5578063e14852e3146108ca578063e30c3978146108df578063e55156b5146108f4578063f2fde38b14610925578063f83d08ba14610953575b600080fd5b34801561026157600080fd5b5061028673ffffffffffffffffffffffffffffffffffffffff60043516602435610968565b604080519115158252519081900360200190f35b3480156102a657600080fd5b506102cb73ffffffffffffffffffffffffffffffffffffffff60043516602435610cc7565b005b3480156102d957600080fd5b506102fe60043573ffffffffffffffffffffffffffffffffffffffff60243516611325565b60408051918252519081900360200190f35b34801561031c57600080fd5b506102fe6113d7565b34801561033157600080fd5b506102cb73ffffffffffffffffffffffffffffffffffffffff60043516611474565b34801561035f57600080fd5b506102fe61154f565b34801561037457600080fd5b5061028673ffffffffffffffffffffffffffffffffffffffff600435811690602435166044356115bb565b3480156103ab57600080fd5b506102cb611cdb565b3480156103c057600080fd5b5061028673ffffffffffffffffffffffffffffffffffffffff60043516611d7b565b3480156103ee57600080fd5b506103f7611e27565b6040805173ffffffffffffffffffffffffffffffffffffffff9092168252519081900360200190f35b34801561042c57600080fd5b506102cb611e43565b34801561044157600080fd5b506102cb73ffffffffffffffffffffffffffffffffffffffff60043516602435611ee3565b34801561047257600080fd5b506102cb60043561204b565b34801561048a57600080fd5b506102cb6121df565b34801561049f57600080fd5b50610286612299565b3480156104b457600080fd5b506102866123ff565b3480156104c957600080fd5b506102cb73ffffffffffffffffffffffffffffffffffffffff60043516612420565b3480156104f757600080fd5b5061028673ffffffffffffffffffffffffffffffffffffffff6004351660243561244d565b34801561052857600080fd5b506102cb73ffffffffffffffffffffffffffffffffffffffff600435166126a7565b34801561055657600080fd5b506102cb73ffffffffffffffffffffffffffffffffffffffff60043516612a53565b34801561058457600080fd5b506102fe73ffffffffffffffffffffffffffffffffffffffff60043516612c47565b3480156105b257600080fd5b506102cb73ffffffffffffffffffffffffffffffffffffffff60043516612cbf565b3480156105e057600080fd5b506103f7612e93565b3480156105f557600080fd5b506102cb612eaf565b34801561060a57600080fd5b506102fe73ffffffffffffffffffffffffffffffffffffffff60043516612f65565b34801561063857600080fd5b5061028661313c565b34801561064d57600080fd5b506102cb61315e565b34801561066257600080fd5b506103f76131e4565b34801561067757600080fd5b506102cb613200565b34801561068c57600080fd5b506102cb613286565b3480156106a157600080fd5b506102cb61330c565b3480156106b657600080fd5b5061028673ffffffffffffffffffffffffffffffffffffffff6004351660243561339b565b3480156106e757600080fd5b506102cb73ffffffffffffffffffffffffffffffffffffffff60043516613856565b34801561071557600080fd5b506102fe73ffffffffffffffffffffffffffffffffffffffff60043516613916565b34801561074357600080fd5b506102cb73ffffffffffffffffffffffffffffffffffffffff6004351660243561398e565b34801561077457600080fd5b506102cb73ffffffffffffffffffffffffffffffffffffffff60043516613f44565b3480156107a257600080fd5b506102cb73ffffffffffffffffffffffffffffffffffffffff60043516602435614118565b3480156107d357600080fd5b506102cb600435614521565b3480156107eb57600080fd5b506102cb73ffffffffffffffffffffffffffffffffffffffff600435166145e0565b34801561081957600080fd5b506102cb73ffffffffffffffffffffffffffffffffffffffff600435166147b4565b34801561084757600080fd5b5061028673ffffffffffffffffffffffffffffffffffffffff600435166024356147e1565b34801561087857600080fd5b506103f7614a31565b34801561088d57600080fd5b506102fe73ffffffffffffffffffffffffffffffffffffffff60043581169060243516614a4d565b3480156108c157600080fd5b506103f7614acd565b3480156108d657600080fd5b506103f7614ae9565b3480156108eb57600080fd5b506103f7614b05565b34801561090057600080fd5b506102cb73ffffffffffffffffffffffffffffffffffffffff60043516602435614b21565b34801561093157600080fd5b506102cb73ffffffffffffffffffffffffffffffffffffffff60043516614d38565b34801561095f57600080fd5b506102cb614dc5565b60048054604080517f7ccce85100000000000000000000000000000000000000000000000000000000815273ffffffffffffffffffffffffffffffffffffffff80871694820194909452905160009386931691637ccce85191602480830192602092919082900301818887803b1580156109e157600080fd5b505af11580156109f5573d6000803e3d6000fd5b505050506040513d6020811015610a0b57600080fd5b505115610a7957604080517f08c379a000000000000000000000000000000000000000000000000000000000815260206004820152601c60248201527f55736572206d757374206e6f7420626520626c61636b6c697374656400000000604482015290519081900360640190fd5b60048054604080517f7ccce85100000000000000000000000000000000000000000000000000000000815233938101939093525173ffffffffffffffffffffffffffffffffffffffff90911691637ccce8519160248083019260209291908290030181600087803b158015610aed57600080fd5b505af1158015610b01573d6000803e3d6000fd5b505050506040513d6020811015610b1757600080fd5b505115610b8557604080517f08c379a000000000000000000000000000000000000000000000000000000000815260206004820152601e60248201527f53656e646572206d757374206e6f7420626520626c61636b6c69737465640000604482015290519081900360640190fd5b60035474010000000000000000000000000000000000000000900460ff1615610bad57600080fd5b6003547501000000000000000000000000000000000000000000900460ff161515610bd757600080fd5b600654604080517fda46098c00000000000000000000000000000000000000000000000000000000815233600482015273ffffffffffffffffffffffffffffffffffffffff8781166024830152604482018790529151919092169163da46098c91606480830192600092919082900301818387803b158015610c5857600080fd5b505af1158015610c6c573d6000803e3d6000fd5b505060408051868152905173ffffffffffffffffffffffffffffffffffffffff881693503392507f8c5be1e5ebec7d5bd14f71427d1e84f3dd0314c0f7b2291e5b200ac8c7c3b9259181900360200190a35060019392505050565b60048054604080517f14db6d580000000000000000000000000000000000000000000000000000000081523393810193909352600080357fffffffff00000000000000000000000000000000000000000000000000000000166024850152905190928392839273ffffffffffffffffffffffffffffffffffffffff909116916314db6d5891604480830192602092919082900301818787803b158015610d6c57600080fd5b505af1158015610d80573d6000803e3d6000fd5b505050506040513d6020811015610d9657600080fd5b50511515610e2b57604080517f08c379a000000000000000000000000000000000000000000000000000000000815260206004820152603160248201527f5573657220646f6573206e6f742068617665207065726d697373696f6e20746f60448201527f20657865637574652066756e6374696f6e000000000000000000000000000000606482015290519081900360840190fd5b60035474010000000000000000000000000000000000000000900460ff1615610e5357600080fd5b600354604080517f3af32abf00000000000000000000000000000000000000000000000000000000815273ffffffffffffffffffffffffffffffffffffffff888116600483015291519190921691633af32abf9160248083019260209291908290030181600087803b158015610ec857600080fd5b505af1158015610edc573d6000803e3d6000fd5b505050506040513d6020811015610ef257600080fd5b50511515610f8757604080517f08c379a000000000000000000000000000000000000000000000000000000000815260206004820152603e60248201527f537461626c65636f696e206d7573742062652077686974656c6973746564207060448201527f72696f7220746f2073657474696e6720636f6e76657273696f6e206665650000606482015290519081900360840190fd5b604080517f70a082310000000000000000000000000000000000000000000000000000000081523060048201529051869450859173ffffffffffffffffffffffffffffffffffffffff8616916370a08231916024808201926020929091908290030181600087803b158015610ffb57600080fd5b505af115801561100f573d6000803e3d6000fd5b505050506040513d602081101561102557600080fd5b505110156110e057604080517f08c379a000000000000000000000000000000000000000000000000000000000815260206004820152604360248201527f436172626f6e20657363726f77206163636f756e7420696e2057543020646f6560448201527f736e2774206861766520656e6f75676820746f6b656e7320666f72206275726e60648201527f696e670000000000000000000000000000000000000000000000000000000000608482015290519081900360a40190fd5b60025473ffffffffffffffffffffffffffffffffffffffff16632ff284c28561110888612f65565b6040518363ffffffff167c01000000000000000000000000000000000000000000000000000000000281526004018083815260200182815260200192505050602060405180830381600087803b15801561116157600080fd5b505af1158015611175573d6000803e3d6000fd5b505050506040513d602081101561118b57600080fd5b5051915061119f848363ffffffff614e3c16565b90506111ab3385614e4e565b604080517fa9059cbb00000000000000000000000000000000000000000000000000000000815233600482015260248101839052905173ffffffffffffffffffffffffffffffffffffffff85169163a9059cbb9160448083019260209291908290030181600087803b15801561122057600080fd5b505af1158015611234573d6000803e3d6000fd5b505050506040513d602081101561124a57600080fd5b5051151561125757600080fd5b8273ffffffffffffffffffffffffffffffffffffffff166342966c68836040518263ffffffff167c010000000000000000000000000000000000000000000000000000000002815260040180828152602001915050600060405180830381600087803b1580156112c657600080fd5b505af11580156112da573d6000803e3d6000fd5b505050506112e83083615081565b60408051858152905133917f3a91515f120c05831525e72379609e84b30a70ab21104f3222d0e91411aadc52919081900360200190a25050505050565b600254604080517f166e55d90000000000000000000000000000000000000000000000000000000081526004810185905273ffffffffffffffffffffffffffffffffffffffff84811660248301529151600093929092169163166e55d99160448082019260209290919082900301818787803b1580156113a457600080fd5b505af11580156113b8573d6000803e3d6000fd5b505050506040513d60208110156113ce57600080fd5b50519392505050565b600554604080517f18160ddd000000000000000000000000000000000000000000000000000000008152905160009273ffffffffffffffffffffffffffffffffffffffff16916318160ddd91600480830192602092919082900301818787803b15801561144357600080fd5b505af1158015611457573d6000803e3d6000fd5b505050506040513d602081101561146d57600080fd5b5051905090565b60005473ffffffffffffffffffffffffffffffffffffffff16331461149857600080fd5b60035474010000000000000000000000000000000000000000900460ff16156114c057600080fd5b600354604080517f0418945a00000000000000000000000000000000000000000000000000000000815273ffffffffffffffffffffffffffffffffffffffff848116600483015291519190921691630418945a91602480830192600092919082900301818387803b15801561153457600080fd5b505af1158015611548573d6000803e3d6000fd5b5050505050565b600254604080517f5a6c72d0000000000000000000000000000000000000000000000000000000008152905160009273ffffffffffffffffffffffffffffffffffffffff1691635a6c72d091600480830192602092919082900301818787803b15801561144357600080fd5b60035460009074010000000000000000000000000000000000000000900460ff16156115e657600080fd5b8383600080600460009054906101000a900473ffffffffffffffffffffffffffffffffffffffff1673ffffffffffffffffffffffffffffffffffffffff16637ccce851846040518263ffffffff167c0100000000000000000000000000000000000000000000000000000000028152600401808273ffffffffffffffffffffffffffffffffffffffff1673ffffffffffffffffffffffffffffffffffffffff168152602001915050602060405180830381600087803b1580156116a857600080fd5b505af11580156116bc573d6000803e3d6000fd5b505050506040513d60208110156116d257600080fd5b50511561174057604080517f08c379a000000000000000000000000000000000000000000000000000000000815260206004820152601f60248201527f526563697069656e742063616e6e6f7420626520626c61636b6c697374656400604482015290519081900360640190fd5b60048054604080517f7ccce85100000000000000000000000000000000000000000000000000000000815273ffffffffffffffffffffffffffffffffffffffff8881169482019490945290519290911691637ccce851916024808201926020929091908290030181600087803b1580156117b957600080fd5b505af11580156117cd573d6000803e3d6000fd5b505050506040513d60208110156117e357600080fd5b505160048054604080517f91c4529f00000000000000000000000000000000000000000000000000000000815233938101939093525192945073ffffffffffffffffffffffffffffffffffffffff16916391c4529f916024808201926020929091908290030181600087803b15801561185b57600080fd5b505af115801561186f573d6000803e3d6000fd5b505050506040513d602081101561188557600080fd5b505190508115806118935750805b151561194c57604080517f08c379a000000000000000000000000000000000000000000000000000000000815260206004820152604c60248201527f4f726967696e2063616e6e6f7420626520626c61636b6c69737465642069662060448201527f7370656e646572206973206e6f7420616e20617070726f76656420626c61636b60648201527f6c697374207370656e6465720000000000000000000000000000000000000000608482015290519081900360a40190fd5b6119568833614a4d565b8611156119c457604080517f08c379a000000000000000000000000000000000000000000000000000000000815260206004820181905260248201527f6e6f7420656e6f75676820616c6c6f77616e636520746f207472616e73666572604482015290519081900360640190fd5b73ffffffffffffffffffffffffffffffffffffffff87161515611a4857604080517f08c379a000000000000000000000000000000000000000000000000000000000815260206004820152601860248201527f746f20616464726573732063616e6e6f74206265203078300000000000000000604482015290519081900360640190fd5b611a5188612c47565b861115611abf57604080517f08c379a000000000000000000000000000000000000000000000000000000000815260206004820152601e60248201527f6e6f7420656e6f7567682062616c616e636520746f207472616e736665720000604482015290519081900360640190fd5b600654604080517f97d88cd200000000000000000000000000000000000000000000000000000000815273ffffffffffffffffffffffffffffffffffffffff8b81166004830152336024830152604482018a9052915191909216916397d88cd291606480830192600092919082900301818387803b158015611b4057600080fd5b505af1158015611b54573d6000803e3d6000fd5b5050600554604080517f21e5383a00000000000000000000000000000000000000000000000000000000815273ffffffffffffffffffffffffffffffffffffffff8c81166004830152602482018c905291519190921693506321e5383a9250604480830192600092919082900301818387803b158015611bd357600080fd5b505af1158015611be7573d6000803e3d6000fd5b5050600554604080517fcf8eeb7e00000000000000000000000000000000000000000000000000000000815273ffffffffffffffffffffffffffffffffffffffff8d81166004830152602482018c9052915191909216935063cf8eeb7e9250604480830192600092919082900301818387803b158015611c6657600080fd5b505af1158015611c7a573d6000803e3d6000fd5b505060408051898152905173ffffffffffffffffffffffffffffffffffffffff808c1694508c1692507fddf252ad1be2c89b69c2b068fc378daa952ba7f163c4a11628f55a4df523b3ef9181900360200190a3506001979650505050505050565b600360009054906101000a900473ffffffffffffffffffffffffffffffffffffffff1673ffffffffffffffffffffffffffffffffffffffff16634e71e0c86040518163ffffffff167c0100000000000000000000000000000000000000000000000000000000028152600401600060405180830381600087803b158015611d6157600080fd5b505af1158015611d75573d6000803e3d6000fd5b50505050565b600354604080517f3af32abf00000000000000000000000000000000000000000000000000000000815273ffffffffffffffffffffffffffffffffffffffff848116600483015291516000939290921691633af32abf9160248082019260209290919082900301818787803b158015611df357600080fd5b505af1158015611e07573d6000803e3d6000fd5b505050506040513d6020811015611e1d57600080fd5b505190505b919050565b60065473ffffffffffffffffffffffffffffffffffffffff1681565b60005473ffffffffffffffffffffffffffffffffffffffff163314611e6757600080fd5b60035474010000000000000000000000000000000000000000900460ff161515611e9057600080fd5b600380547fffffffffffffffffffffff00ffffffffffffffffffffffffffffffffffffffff1690556040517f7805862f689e2f13df9f062ff482ad3ad112aca9e0847911ed832e158c525b3390600090a1565b600354604080517f3af32abf000000000000000000000000000000000000000000000000000000008152336004820152905173ffffffffffffffffffffffffffffffffffffffff90921691633af32abf916024808201926020929091908290030181600087803b158015611f5657600080fd5b505af1158015611f6a573d6000803e3d6000fd5b505050506040513d6020811015611f8057600080fd5b5051151561201557604080517f08c379a000000000000000000000000000000000000000000000000000000000815260206004820152602b60248201527f53656e646572206d75737420626520612077686974656c697374656420746f6b60448201527f656e20636f6e7472616374000000000000000000000000000000000000000000606482015290519081900360840190fd5b60035474010000000000000000000000000000000000000000900460ff161561203d57600080fd5b6120478282615081565b5050565b60048054604080517f14db6d580000000000000000000000000000000000000000000000000000000081523393810193909352600080357fffffffff00000000000000000000000000000000000000000000000000000000166024850152905173ffffffffffffffffffffffffffffffffffffffff909216926314db6d589260448083019360209383900390910190829087803b1580156120eb57600080fd5b505af11580156120ff573d6000803e3d6000fd5b505050506040513d602081101561211557600080fd5b505115156121aa57604080517f08c379a000000000000000000000000000000000000000000000000000000000815260206004820152603160248201527f5573657220646f6573206e6f742068617665207065726d697373696f6e20746f60448201527f20657865637574652066756e6374696f6e000000000000000000000000000000606482015290519081900360840190fd5b60035474010000000000000000000000000000000000000000900460ff16156121d257600080fd5b6121dc3382614e4e565b50565b60015473ffffffffffffffffffffffffffffffffffffffff16331461220357600080fd5b6001546000805460405173ffffffffffffffffffffffffffffffffffffffff93841693909116917f8be0079c531659141344cd1fd0a4f28419497f9722a3daafe3b4186f6b6457e091a360018054600080547fffffffffffffffffffffffff000000000000000000000000000000000000000090811673ffffffffffffffffffffffffffffffffffffffff841617909155169055565b60048054604080517f14db6d580000000000000000000000000000000000000000000000000000000081523393810193909352600080357fffffffff000000000000000000000000000000000000000000000000000000001660248501529051909273ffffffffffffffffffffffffffffffffffffffff909216916314db6d5891604480830192602092919082900301818787803b15801561233a57600080fd5b505af115801561234e573d6000803e3d6000fd5b505050506040513d602081101561236457600080fd5b505115156123f957604080517f08c379a000000000000000000000000000000000000000000000000000000000815260206004820152603160248201527f5573657220646f6573206e6f742068617665207065726d697373696f6e20746f60448201527f20657865637574652066756e6374696f6e000000000000000000000000000000606482015290519081900360840190fd5b50600190565b60035474010000000000000000000000000000000000000000900460ff1681565b60005473ffffffffffffffffffffffffffffffffffffffff16331461244457600080fd5b6121dc8161508b565b60048054604080517f7ccce85100000000000000000000000000000000000000000000000000000000815273ffffffffffffffffffffffffffffffffffffffff80871694820194909452905160009386931691637ccce85191602480830192602092919082900301818887803b1580156124c657600080fd5b505af11580156124da573d6000803e3d6000fd5b505050506040513d60208110156124f057600080fd5b50511561255e57604080517f08c379a000000000000000000000000000000000000000000000000000000000815260206004820152601c60248201527f55736572206d757374206e6f7420626520626c61636b6c697374656400000000604482015290519081900360640190fd5b60048054604080517f7ccce85100000000000000000000000000000000000000000000000000000000815233938101939093525173ffffffffffffffffffffffffffffffffffffffff90911691637ccce8519160248083019260209291908290030181600087803b1580156125d257600080fd5b505af11580156125e6573d6000803e3d6000fd5b505050506040513d60208110156125fc57600080fd5b50511561266a57604080517f08c379a000000000000000000000000000000000000000000000000000000000815260206004820152601e60248201527f53656e646572206d757374206e6f7420626520626c61636b6c69737465640000604482015290519081900360640190fd5b60035474010000000000000000000000000000000000000000900460ff161561269257600080fd5b61269d848433615206565b5060019392505050565b60048054604080517f7ccce85100000000000000000000000000000000000000000000000000000000815273ffffffffffffffffffffffffffffffffffffffff808616948201949094529051849390921691637ccce851916024808201926020929091908290030181600087803b15801561272157600080fd5b505af1158015612735573d6000803e3d6000fd5b505050506040513d602081101561274b57600080fd5b505115156127ba57604080517f08c379a000000000000000000000000000000000000000000000000000000000815260206004820152601860248201527f55736572206d75737420626520626c61636b6c69737465640000000000000000604482015290519081900360640190fd5b60035474010000000000000000000000000000000000000000900460ff16156127e257600080fd5b60048054604080517f14db6d580000000000000000000000000000000000000000000000000000000081523393810193909352600080357fffffffff00000000000000000000000000000000000000000000000000000000166024850152905173ffffffffffffffffffffffffffffffffffffffff909216926314db6d589260448083019360209383900390910190829087803b15801561288257600080fd5b505af1158015612896573d6000803e3d6000fd5b505050506040513d60208110156128ac57600080fd5b5051151561294157604080517f08c379a000000000000000000000000000000000000000000000000000000000815260206004820152603160248201527f5573657220646f6573206e6f742068617665207065726d697373696f6e20746f60448201527f20657865637574652066756e6374696f6e000000000000000000000000000000606482015290519081900360840190fd5b60065473ffffffffffffffffffffffffffffffffffffffff1663da46098c833361296a82612c47565b604080517c010000000000000000000000000000000000000000000000000000000063ffffffff871602815273ffffffffffffffffffffffffffffffffffffffff948516600482015292909316602483015260448201529051606480830192600092919082900301818387803b1580156129e357600080fd5b505af11580156129f7573d6000803e3d6000fd5b50339250505073ffffffffffffffffffffffffffffffffffffffff83167f3b1ffca3903932aa264fbb5b7b381746e2b7b61c9c5a6024bad48d23f958a6c2612a3e85612c47565b60408051918252519081900360200190a35050565b60005473ffffffffffffffffffffffffffffffffffffffff163314612a7757600080fd5b60035474010000000000000000000000000000000000000000900460ff1615612a9f57600080fd5b600354604080517f3af32abf00000000000000000000000000000000000000000000000000000000815273ffffffffffffffffffffffffffffffffffffffff848116600483015291519190921691633af32abf9160248083019260209291908290030181600087803b158015612b1457600080fd5b505af1158015612b28573d6000803e3d6000fd5b505050506040513d6020811015612b3e57600080fd5b50511515612bd357604080517f08c379a000000000000000000000000000000000000000000000000000000000815260206004820152603e60248201527f537461626c65636f696e206d7573742062652077686974656c6973746564207060448201527f72696f7220746f2073657474696e6720636f6e76657273696f6e206665650000606482015290519081900360840190fd5b600254604080517f6ad2661100000000000000000000000000000000000000000000000000000000815273ffffffffffffffffffffffffffffffffffffffff848116600483015291519190921691636ad2661191602480830192600092919082900301818387803b15801561153457600080fd5b600554604080517f70a0823100000000000000000000000000000000000000000000000000000000815273ffffffffffffffffffffffffffffffffffffffff8481166004830152915160009392909216916370a082319160248082019260209290919082900301818787803b158015611df357600080fd5b6000805473ffffffffffffffffffffffffffffffffffffffff163314612ce457600080fd5b60055473ffffffffffffffffffffffffffffffffffffffff83811691161415612d6e57604080517f08c379a000000000000000000000000000000000000000000000000000000000815260206004820152601b60248201527f4d7573742062652061206e65772062616c616e63652073686565740000000000604482015290519081900360640190fd5b612d77826154e0565b1515612e0a57604080517f08c379a000000000000000000000000000000000000000000000000000000000815260206004820152603860248201527f43616e6e6f7420736574206120726567756c61746f722073746f72616765207460448201527f6f2061206e6f6e2d636f6e747261637420616464726573730000000000000000606482015290519081900360840190fd5b506005805473ffffffffffffffffffffffffffffffffffffffff8381167fffffffffffffffffffffffff0000000000000000000000000000000000000000831681179093556040805191909216808252602082019390935281517f8c3d37b41e983f0d5b0b91de3f9d5055c73a17beebc7adfce9b677ab7c07ad2d929181900390910190a15050565b60055473ffffffffffffffffffffffffffffffffffffffff1681565b60005473ffffffffffffffffffffffffffffffffffffffff163314612ed357600080fd5b60035474010000000000000000000000000000000000000000900460ff1615612efb57600080fd5b600380547fffffffffffffffffffffff00ffffffffffffffffffffffffffffffffffffffff16740100000000000000000000000000000000000000001790556040517f6985a02210a168e66602d3235cb6db0e70f92b3ba4d376a33c0f3d9434bff62590600090a1565b600254604080517fcfc9733c00000000000000000000000000000000000000000000000000000000815273ffffffffffffffffffffffffffffffffffffffff84811660048301529151600093929092169163cfc9733c9160248082019260209290919082900301818787803b158015612fdd57600080fd5b505af1158015612ff1573d6000803e3d6000fd5b505050506040513d602081101561300757600080fd5b5051156130b657600254604080517ffaaebd2100000000000000000000000000000000000000000000000000000000815273ffffffffffffffffffffffffffffffffffffffff85811660048301529151919092169163faaebd219160248083019260209291908290030181600087803b15801561308357600080fd5b505af1158015613097573d6000803e3d6000fd5b505050506040513d60208110156130ad57600080fd5b50519050611e22565b600260009054906101000a900473ffffffffffffffffffffffffffffffffffffffff1673ffffffffffffffffffffffffffffffffffffffff16635a6c72d06040518163ffffffff167c0100000000000000000000000000000000000000000000000000000000028152600401602060405180830381600087803b158015611df357600080fd5b6003547501000000000000000000000000000000000000000000900460ff1681565b600560009054906101000a900473ffffffffffffffffffffffffffffffffffffffff1673ffffffffffffffffffffffffffffffffffffffff16634e71e0c86040518163ffffffff167c0100000000000000000000000000000000000000000000000000000000028152600401600060405180830381600087803b158015611d6157600080fd5b60005473ffffffffffffffffffffffffffffffffffffffff1681565b600260009054906101000a900473ffffffffffffffffffffffffffffffffffffffff1673ffffffffffffffffffffffffffffffffffffffff16634e71e0c86040518163ffffffff167c0100000000000000000000000000000000000000000000000000000000028152600401600060405180830381600087803b158015611d6157600080fd5b600660009054906101000a900473ffffffffffffffffffffffffffffffffffffffff1673ffffffffffffffffffffffffffffffffffffffff16634e71e0c86040518163ffffffff167c0100000000000000000000000000000000000000000000000000000000028152600401600060405180830381600087803b158015611d6157600080fd5b60005473ffffffffffffffffffffffffffffffffffffffff16331461333057600080fd5b600380547fffffffffffffffffffff00ffffffffffffffffffffffffffffffffffffffffff1675010000000000000000000000000000000000000000001790556040517f19aad37188a1d3921e29eb3c66acf43d81975e107cb650d58cca878627955fd690600090a1565b60048054604080517f7ccce85100000000000000000000000000000000000000000000000000000000815273ffffffffffffffffffffffffffffffffffffffff80871694820194909452905160009386931691637ccce85191602480830192602092919082900301818887803b15801561341457600080fd5b505af1158015613428573d6000803e3d6000fd5b505050506040513d602081101561343e57600080fd5b5051156134ac57604080517f08c379a000000000000000000000000000000000000000000000000000000000815260206004820152601f60248201527f526563697069656e742063616e6e6f7420626520626c61636b6c697374656400604482015290519081900360640190fd5b60048054604080517f7ccce85100000000000000000000000000000000000000000000000000000000815233938101939093525173ffffffffffffffffffffffffffffffffffffffff90911691637ccce8519160248083019260209291908290030181600087803b15801561352057600080fd5b505af1158015613534573d6000803e3d6000fd5b505050506040513d602081101561354a57600080fd5b5051156135b857604080517f08c379a000000000000000000000000000000000000000000000000000000000815260206004820152601c60248201527f53656e6465722063616e6e6f7420626520626c61636b6c697374656400000000604482015290519081900360640190fd5b60035474010000000000000000000000000000000000000000900460ff16156135e057600080fd5b73ffffffffffffffffffffffffffffffffffffffff8416151561366457604080517f08c379a000000000000000000000000000000000000000000000000000000000815260206004820152601860248201527f746f20616464726573732063616e6e6f74206265203078300000000000000000604482015290519081900360640190fd5b61366d33612c47565b8311156136db57604080517f08c379a000000000000000000000000000000000000000000000000000000000815260206004820152601e60248201527f6e6f7420656e6f7567682062616c616e636520746f207472616e736665720000604482015290519081900360640190fd5b600554604080517fcf8eeb7e00000000000000000000000000000000000000000000000000000000815233600482015260248101869052905173ffffffffffffffffffffffffffffffffffffffff9092169163cf8eeb7e9160448082019260009290919082900301818387803b15801561375457600080fd5b505af1158015613768573d6000803e3d6000fd5b5050600554604080517f21e5383a00000000000000000000000000000000000000000000000000000000815273ffffffffffffffffffffffffffffffffffffffff89811660048301526024820189905291519190921693506321e5383a9250604480830192600092919082900301818387803b1580156137e757600080fd5b505af11580156137fb573d6000803e3d6000fd5b505060408051868152905173ffffffffffffffffffffffffffffffffffffffff881693503392507fddf252ad1be2c89b69c2b068fc378daa952ba7f163c4a11628f55a4df523b3ef9181900360200190a35060019392505050565b60005473ffffffffffffffffffffffffffffffffffffffff16331461387a57600080fd5b60035474010000000000000000000000000000000000000000900460ff16156138a257600080fd5b600354604080517f3b947d2b00000000000000000000000000000000000000000000000000000000815273ffffffffffffffffffffffffffffffffffffffff848116600483015291519190921691633b947d2b91602480830192600092919082900301818387803b15801561153457600080fd5b600254604080517ffaaebd2100000000000000000000000000000000000000000000000000000000815273ffffffffffffffffffffffffffffffffffffffff84811660048301529151600093929092169163faaebd219160248082019260209290919082900301818787803b158015611df357600080fd5b60048054604080517f14db6d580000000000000000000000000000000000000000000000000000000081523393810193909352600080357fffffffff00000000000000000000000000000000000000000000000000000000166024850152905190928392839273ffffffffffffffffffffffffffffffffffffffff909116916314db6d5891604480830192602092919082900301818787803b158015613a3357600080fd5b505af1158015613a47573d6000803e3d6000fd5b505050506040513d6020811015613a5d57600080fd5b50511515613af257604080517f08c379a000000000000000000000000000000000000000000000000000000000815260206004820152603160248201527f5573657220646f6573206e6f742068617665207065726d697373696f6e20746f60448201527f20657865637574652066756e6374696f6e000000000000000000000000000000606482015290519081900360840190fd5b60035474010000000000000000000000000000000000000000900460ff1615613b1a57600080fd5b600354604080517f3af32abf00000000000000000000000000000000000000000000000000000000815273ffffffffffffffffffffffffffffffffffffffff888116600483015291519190921691633af32abf9160248083019260209291908290030181600087803b158015613b8f57600080fd5b505af1158015613ba3573d6000803e3d6000fd5b505050506040513d6020811015613bb957600080fd5b50511515613c4e57604080517f08c379a000000000000000000000000000000000000000000000000000000000815260206004820152603e60248201527f537461626c65636f696e206d7573742062652077686974656c6973746564207060448201527f72696f7220746f2073657474696e6720636f6e76657273696f6e206665650000606482015290519081900360840190fd5b604080517f70a082310000000000000000000000000000000000000000000000000000000081523060048201529051869450859173ffffffffffffffffffffffffffffffffffffffff8616916370a08231916024808201926020929091908290030181600087803b158015613cc257600080fd5b505af1158015613cd6573d6000803e3d6000fd5b505050506040513d6020811015613cec57600080fd5b50511015613da757604080517f08c379a000000000000000000000000000000000000000000000000000000000815260206004820152604360248201527f436172626f6e20657363726f77206163636f756e7420696e2057543020646f6560448201527f736e2774206861766520656e6f75676820746f6b656e7320666f72206275726e60648201527f696e670000000000000000000000000000000000000000000000000000000000608482015290519081900360a40190fd5b60025473ffffffffffffffffffffffffffffffffffffffff16632ff284c285613dcf88612f65565b6040518363ffffffff167c01000000000000000000000000000000000000000000000000000000000281526004018083815260200182815260200192505050602060405180830381600087803b158015613e2857600080fd5b505af1158015613e3c573d6000803e3d6000fd5b505050506040513d6020811015613e5257600080fd5b50519150613e66848363ffffffff614e3c16565b9050613e723385614e4e565b8273ffffffffffffffffffffffffffffffffffffffff166342966c68856040518263ffffffff167c010000000000000000000000000000000000000000000000000000000002815260040180828152602001915050600060405180830381600087803b158015613ee157600080fd5b505af1158015613ef5573d6000803e3d6000fd5b50505050613f033083615081565b6040805182815260208101849052815133927f8a1387ce462b7423a12c936187028c782512f204b670218701c0d35e92bc0527928290030190a25050505050565b6000805473ffffffffffffffffffffffffffffffffffffffff163314613f6957600080fd5b60065473ffffffffffffffffffffffffffffffffffffffff83811691161415613ff357604080517f08c379a000000000000000000000000000000000000000000000000000000000815260206004820152601b60248201527f4d7573742062652061206e65772073746f726167652073686565740000000000604482015290519081900360640190fd5b613ffc826154e0565b151561408f57604080517f08c379a000000000000000000000000000000000000000000000000000000000815260206004820152603860248201527f43616e6e6f7420736574206120726567756c61746f722073746f72616765207460448201527f6f2061206e6f6e2d636f6e747261637420616464726573730000000000000000606482015290519081900360840190fd5b506006805473ffffffffffffffffffffffffffffffffffffffff8381167fffffffffffffffffffffffff0000000000000000000000000000000000000000831681179093556040805191909216808252602082019390935281517fec358425c40511d576e1c52be7593403bceacda627234c873b52589fef7b2359929181900390910190a15050565b60048054604080517f7ccce85100000000000000000000000000000000000000000000000000000000815273ffffffffffffffffffffffffffffffffffffffff808716948201949094529051859390921691637ccce851916024808201926020929091908290030181600087803b15801561419257600080fd5b505af11580156141a6573d6000803e3d6000fd5b505050506040513d60208110156141bc57600080fd5b5051151561422b57604080517f08c379a000000000000000000000000000000000000000000000000000000000815260206004820152601860248201527f55736572206d75737420626520626c61636b6c69737465640000000000000000604482015290519081900360640190fd5b60035474010000000000000000000000000000000000000000900460ff161561425357600080fd5b60048054604080517f14db6d580000000000000000000000000000000000000000000000000000000081523393810193909352600080357fffffffff00000000000000000000000000000000000000000000000000000000166024850152905173ffffffffffffffffffffffffffffffffffffffff909216926314db6d589260448083019360209383900390910190829087803b1580156142f357600080fd5b505af1158015614307573d6000803e3d6000fd5b505050506040513d602081101561431d57600080fd5b505115156143b257604080517f08c379a000000000000000000000000000000000000000000000000000000000815260206004820152603160248201527f5573657220646f6573206e6f742068617665207065726d697373696f6e20746f60448201527f20657865637574652066756e6374696f6e000000000000000000000000000000606482015290519081900360840190fd5b600554604080517fcf8eeb7e00000000000000000000000000000000000000000000000000000000815273ffffffffffffffffffffffffffffffffffffffff8681166004830152602482018690529151919092169163cf8eeb7e91604480830192600092919082900301818387803b15801561442d57600080fd5b505af1158015614441573d6000803e3d6000fd5b5050600554604080517f82838c7600000000000000000000000000000000000000000000000000000000815260048101879052905173ffffffffffffffffffffffffffffffffffffffff90921693506382838c76925060248082019260009290919082900301818387803b1580156144b857600080fd5b505af11580156144cc573d6000803e3d6000fd5b505060408051858152905173ffffffffffffffffffffffffffffffffffffffff871693507fb81d1dffb753076892e04e6e1234d137b031f70d859c299876b0486e966424fd92509081900360200190a2505050565b60005473ffffffffffffffffffffffffffffffffffffffff16331461454557600080fd5b60035474010000000000000000000000000000000000000000900460ff161561456d57600080fd5b600254604080517fc93a6c8400000000000000000000000000000000000000000000000000000000815260048101849052905173ffffffffffffffffffffffffffffffffffffffff9092169163c93a6c849160248082019260009290919082900301818387803b15801561153457600080fd5b6000805473ffffffffffffffffffffffffffffffffffffffff16331461460557600080fd5b60045473ffffffffffffffffffffffffffffffffffffffff8381169116141561468f57604080517f08c379a000000000000000000000000000000000000000000000000000000000815260206004820152601760248201527f4d7573742062652061206e657720726567756c61746f72000000000000000000604482015290519081900360640190fd5b614698826154e0565b151561472b57604080517f08c379a000000000000000000000000000000000000000000000000000000000815260206004820152603860248201527f43616e6e6f7420736574206120726567756c61746f722073746f72616765207460448201527f6f2061206e6f6e2d636f6e747261637420616464726573730000000000000000606482015290519081900360840190fd5b506004805473ffffffffffffffffffffffffffffffffffffffff8381167fffffffffffffffffffffffff0000000000000000000000000000000000000000831681179093556040805191909216808252602082019390935281517f4a59b4b607c6055b37a4716d7813d7d4d2c288e4d0dd8298e365b260a1f262e8929181900390910190a15050565b60005473ffffffffffffffffffffffffffffffffffffffff1633146147d857600080fd5b6121dc816154e8565b60048054604080517f7ccce85100000000000000000000000000000000000000000000000000000000815273ffffffffffffffffffffffffffffffffffffffff80871694820194909452905160009386931691637ccce85191602480830192602092919082900301818887803b15801561485a57600080fd5b505af115801561486e573d6000803e3d6000fd5b505050506040513d602081101561488457600080fd5b5051156148f257604080517f08c379a000000000000000000000000000000000000000000000000000000000815260206004820152601c60248201527f55736572206d757374206e6f7420626520626c61636b6c697374656400000000604482015290519081900360640190fd5b60048054604080517f7ccce85100000000000000000000000000000000000000000000000000000000815233938101939093525173ffffffffffffffffffffffffffffffffffffffff90911691637ccce8519160248083019260209291908290030181600087803b15801561496657600080fd5b505af115801561497a573d6000803e3d6000fd5b505050506040513d602081101561499057600080fd5b5051156149fe57604080517f08c379a000000000000000000000000000000000000000000000000000000000815260206004820152601e60248201527f53656e646572206d757374206e6f7420626520626c61636b6c69737465640000604482015290519081900360640190fd5b60035474010000000000000000000000000000000000000000900460ff1615614a2657600080fd5b61269d848433615689565b60025473ffffffffffffffffffffffffffffffffffffffff1681565b600654604080517f1a46ec8200000000000000000000000000000000000000000000000000000000815273ffffffffffffffffffffffffffffffffffffffff8581166004830152848116602483015291516000939290921691631a46ec829160448082019260209290919082900301818787803b1580156113a457600080fd5b60045473ffffffffffffffffffffffffffffffffffffffff1681565b60035473ffffffffffffffffffffffffffffffffffffffff1681565b60015473ffffffffffffffffffffffffffffffffffffffff1681565b60005473ffffffffffffffffffffffffffffffffffffffff163314614b4557600080fd5b60035474010000000000000000000000000000000000000000900460ff1615614b6d57600080fd5b600354604080517f3af32abf00000000000000000000000000000000000000000000000000000000815273ffffffffffffffffffffffffffffffffffffffff858116600483015291519190921691633af32abf9160248083019260209291908290030181600087803b158015614be257600080fd5b505af1158015614bf6573d6000803e3d6000fd5b505050506040513d6020811015614c0c57600080fd5b50511515614ca157604080517f08c379a000000000000000000000000000000000000000000000000000000000815260206004820152603e60248201527f537461626c65636f696e206d7573742062652077686974656c6973746564207060448201527f72696f7220746f2073657474696e6720636f6e76657273696f6e206665650000606482015290519081900360840190fd5b600254604080517fe55156b500000000000000000000000000000000000000000000000000000000815273ffffffffffffffffffffffffffffffffffffffff8581166004830152602482018590529151919092169163e55156b591604480830192600092919082900301818387803b158015614d1c57600080fd5b505af1158015614d30573d6000803e3d6000fd5b505050505050565b60005473ffffffffffffffffffffffffffffffffffffffff163314614d5c57600080fd5b73ffffffffffffffffffffffffffffffffffffffff81161515614d7e57600080fd5b600180547fffffffffffffffffffffffff00000000000000000000000000000000000000001673ffffffffffffffffffffffffffffffffffffffff92909216919091179055565b60005473ffffffffffffffffffffffffffffffffffffffff163314614de957600080fd5b600380547fffffffffffffffffffff00ffffffffffffffffffffffffffffffffffffffffff1690556040517f0f2e5b6c72c6a4491efd919a9f9a409f324ef0708c11ee57d410c2cb06c0992b90600090a1565b600082821115614e4857fe5b50900390565b614e5782612c47565b811115614ec557604080517f08c379a000000000000000000000000000000000000000000000000000000000815260206004820152601a60248201527f6e6f7420656e6f7567682062616c616e636520746f206275726e000000000000604482015290519081900360640190fd5b600554604080517fcf8eeb7e00000000000000000000000000000000000000000000000000000000815273ffffffffffffffffffffffffffffffffffffffff8581166004830152602482018590529151919092169163cf8eeb7e91604480830192600092919082900301818387803b158015614f4057600080fd5b505af1158015614f54573d6000803e3d6000fd5b5050600554604080517f82838c7600000000000000000000000000000000000000000000000000000000815260048101869052905173ffffffffffffffffffffffffffffffffffffffff90921693506382838c76925060248082019260009290919082900301818387803b158015614fcb57600080fd5b505af1158015614fdf573d6000803e3d6000fd5b505060408051848152905173ffffffffffffffffffffffffffffffffffffffff861693507fcc16f5dbb4873280815c1ee09dbd06736cffcc184412cf7a71a0fdb75d397ca592509081900360200190a260408051828152905160009173ffffffffffffffffffffffffffffffffffffffff8516917fddf252ad1be2c89b69c2b068fc378daa952ba7f163c4a11628f55a4df523b3ef9181900360200190a35050565b612047828261580a565b60025460009073ffffffffffffffffffffffffffffffffffffffff8381169116141561511857604080517f08c379a000000000000000000000000000000000000000000000000000000000815260206004820152601760248201527f4d7573742062652061206e657720666565207368656574000000000000000000604482015290519081900360640190fd5b615121826154e0565b151561518e57604080517f08c379a000000000000000000000000000000000000000000000000000000000815260206004820152601a60248201527f4d75737420626520616e2061637475616c20636f6e7472616374000000000000604482015290519081900360640190fd5b506002805473ffffffffffffffffffffffffffffffffffffffff8381167fffffffffffffffffffffffff0000000000000000000000000000000000000000831681179093556040519116919082907ffa50850a9a205a6eab44ae568df104b00a5fd26ba0ded7dd81d4879c6a27d29b90600090a35050565b600654604080517f1a46ec8200000000000000000000000000000000000000000000000000000000815273ffffffffffffffffffffffffffffffffffffffff8481166004830152868116602483015291516000939290921691631a46ec829160448082019260209290919082900301818787803b15801561528657600080fd5b505af115801561529a573d6000803e3d6000fd5b505050506040513d60208110156152b057600080fd5b505190508083111561535a57600654604080517fda46098c00000000000000000000000000000000000000000000000000000000815273ffffffffffffffffffffffffffffffffffffffff85811660048301528781166024830152600060448301819052925193169263da46098c9260648084019391929182900301818387803b15801561533d57600080fd5b505af1158015615351573d6000803e3d6000fd5b505050506153f6565b600654604080517f97d88cd200000000000000000000000000000000000000000000000000000000815273ffffffffffffffffffffffffffffffffffffffff8581166004830152878116602483015260448201879052915191909216916397d88cd291606480830192600092919082900301818387803b1580156153dd57600080fd5b505af11580156153f1573d6000803e3d6000fd5b505050505b600654604080517f1a46ec8200000000000000000000000000000000000000000000000000000000815273ffffffffffffffffffffffffffffffffffffffff85811660048301819052888216602484018190529351939490937f8c5be1e5ebec7d5bd14f71427d1e84f3dd0314c0f7b2291e5b200ac8c7c3b925939290911691631a46ec829160448083019260209291908290030181600087803b15801561549d57600080fd5b505af11580156154b1573d6000803e3d6000fd5b505050506040513d60208110156154c757600080fd5b505160408051918252519081900360200190a350505050565b6000903b1190565b60035460009073ffffffffffffffffffffffffffffffffffffffff8381169116141561559b57604080517f08c379a000000000000000000000000000000000000000000000000000000000815260206004820152602260248201527f4d7573742062652061206e657720737461626c65636f696e2077686974656c6960448201527f7374000000000000000000000000000000000000000000000000000000000000606482015290519081900360840190fd5b6155a4826154e0565b151561561157604080517f08c379a000000000000000000000000000000000000000000000000000000000815260206004820152601a60248201527f4d75737420626520616e2061637475616c20636f6e7472616374000000000000604482015290519081900360640190fd5b506003805473ffffffffffffffffffffffffffffffffffffffff8381167fffffffffffffffffffffffff0000000000000000000000000000000000000000831681179093556040519116919082907f9d4cc8ae350dd03b669fc5b6d399ea6b56438abd19c07b3e71abd09552bafe3490600090a35050565b600654604080517f5fd72d1600000000000000000000000000000000000000000000000000000000815273ffffffffffffffffffffffffffffffffffffffff848116600483015286811660248301526044820186905291519190921691635fd72d1691606480830192600092919082900301818387803b15801561570c57600080fd5b505af1158015615720573d6000803e3d6000fd5b5050600654604080517f1a46ec8200000000000000000000000000000000000000000000000000000000815273ffffffffffffffffffffffffffffffffffffffff86811660048301819052818a1660248401819052935193965094507f8c5be1e5ebec7d5bd14f71427d1e84f3dd0314c0f7b2291e5b200ac8c7c3b925931691631a46ec82916044808201926020929091908290030181600087803b1580156157c857600080fd5b505af11580156157dc573d6000803e3d6000fd5b505050506040513d60208110156157f257600080fd5b505160408051918252519081900360200190a3505050565b60048054604080517fd88c271e00000000000000000000000000000000000000000000000000000000815273ffffffffffffffffffffffffffffffffffffffff80871694820194909452905185939092169163d88c271e916024808201926020929091908290030181600087803b15801561588457600080fd5b505af1158015615898573d6000803e3d6000fd5b505050506040513d60208110156158ae57600080fd5b5051151561591d57604080517f08c379a000000000000000000000000000000000000000000000000000000000815260206004820152601860248201527f55736572206d7573742062652077686974656c69737465640000000000000000604482015290519081900360640190fd5b600554604080517fe468688e00000000000000000000000000000000000000000000000000000000815260048101859052905173ffffffffffffffffffffffffffffffffffffffff9092169163e468688e9160248082019260009290919082900301818387803b15801561599057600080fd5b505af11580156159a4573d6000803e3d6000fd5b5050600554604080517f21e5383a00000000000000000000000000000000000000000000000000000000815273ffffffffffffffffffffffffffffffffffffffff88811660048301526024820188905291519190921693506321e5383a9250604480830192600092919082900301818387803b158015615a2357600080fd5b505af1158015615a37573d6000803e3d6000fd5b505060408051858152905173ffffffffffffffffffffffffffffffffffffffff871693507f0f6798a560793a54c3bcfe86a93cde1e73087d944c0ea20544137d412139688592509081900360200190a260408051838152905173ffffffffffffffffffffffffffffffffffffffff8516916000917fddf252ad1be2c89b69c2b068fc378daa952ba7f163c4a11628f55a4df523b3ef9181900360200190a35050505600a165627a7a72305820f4eb55947f33562d52ce03de7769ab5c72fd4298d15c1e69cc1b147d334712b20029",
  "source": "pragma solidity ^0.4.24;\r\nimport \"./dataStorage/MutableCarbonDollarStorage.sol\";\r\nimport \"../permissionedToken/PermissionedToken.sol\";\r\nimport \"../whitelistedToken/WhitelistedToken.sol\";\r\n\r\n/**\r\n* @title CarbonDollar\r\n* @notice The main functionality for the CarbonUSD metatoken. (CarbonUSD is just a proxy\r\n* that implements this contract's functionality.) This is a permissioned token, so users have to be \r\n* whitelisted before they can do any mint/burn/convert operation. Every CarbonDollar token is backed by one\r\n* whitelisted stablecoin credited to the balance of this contract address.\r\n*/\r\ncontract CarbonDollar is MutableCarbonDollarStorage, PermissionedToken {\r\n    // Events\r\n\r\n    event ConvertedToWT(address indexed user, uint256 amount);\r\n    event BurnedCUSD(address indexed user, uint256 feedAmount, uint256 chargedFee);\r\n    /**\r\n        Modifiers\r\n    */\r\n    modifier requiresWhitelistedToken() {\r\n        require(stablecoinWhitelist.isWhitelisted(msg.sender), \"Sender must be a whitelisted token contract\");\r\n        _;\r\n    }\r\n\r\n    /** CONSTRUCTOR\r\n    * @dev Passes along arguments to base class.\r\n    */\r\n    constructor(address r, address b, address a, address f, address s) \r\n    PermissionedToken(r, b, a) \r\n    MutableCarbonDollarStorage(f, s) public {}\r\n\r\n    /**\r\n     * @notice Add new stablecoin to whitelist.\r\n     * @param _stablecoin Address of stablecoin contract.\r\n     */\r\n    function listToken(address _stablecoin) public onlyOwner whenNotPaused {\r\n        stablecoinWhitelist.addStablecoin(_stablecoin); \r\n    }\r\n\r\n    /**\r\n     * @notice Remove existing stablecoin from whitelist.\r\n     * @param _stablecoin Address of stablecoin contract.\r\n     */\r\n    function unlistToken(address _stablecoin) public onlyOwner whenNotPaused {\r\n        stablecoinWhitelist.removeStablecoin(_stablecoin);\r\n    }\r\n\r\n    /**\r\n     * @notice Indicate if stablecoin is whitelisted or not.\r\n     * @param _stablecoin Address of stablecoin contract.\r\n     * @return Whether or not the stablecoin is on the whitelist.\r\n     */\r\n    function isWhitelisted(address _stablecoin) public view returns (bool) {\r\n        return stablecoinWhitelist.isWhitelisted(_stablecoin);\r\n    }\r\n\r\n    /**\r\n     * @notice Change fees associated with going from CarbonUSD to a particular stablecoin.\r\n     * @param stablecoin Address of the stablecoin contract.\r\n     * @param _newFee The new fee rate to set, in tenths of a percent. \r\n     */\r\n    function setFee(address stablecoin, uint256 _newFee) public onlyOwner whenNotPaused {\r\n        require(stablecoinWhitelist.isWhitelisted(stablecoin), \"Stablecoin must be whitelisted prior to setting conversion fee\");\r\n        stablecoinFees.setFee(stablecoin, _newFee);\r\n    }\r\n\r\n    /**\r\n     * @notice Remove fees associated with going from CarbonUSD to a particular stablecoin.\r\n     * The default fee still may apply.\r\n     * @param stablecoin Address of the stablecoin contract.\r\n     */\r\n    function removeFee(address stablecoin) public onlyOwner whenNotPaused {\r\n        require(stablecoinWhitelist.isWhitelisted(stablecoin), \"Stablecoin must be whitelisted prior to setting conversion fee\");\r\n        stablecoinFees.removeFee(stablecoin);\r\n    }\r\n\r\n    /**\r\n     * @notice Change the default fee associated with going from CarbonUSD to a WhitelistedToken.\r\n     * This fee amount is used if the fee for a WhitelistedToken is not specified.\r\n     * @param _newFee The new fee rate to set, in tenths of a percent.\r\n     */\r\n    function setDefaultFee(uint256 _newFee) public onlyOwner whenNotPaused {\r\n        stablecoinFees.setDefaultFee(_newFee);\r\n    }\r\n\r\n    /**\r\n     * @notice Get the fee associated with going from CarbonUSD to a specific WhitelistedToken.\r\n     * @param stablecoin The stablecoin whose fee is being checked.\r\n     * @return The fee associated with the stablecoin.\r\n     */\r\n    function getFee(address stablecoin) public view returns (uint256) {\r\n        return stablecoinFees.fees(stablecoin);\r\n    }\r\n\r\n    /**\r\n     * @notice Get the default fee associated with going from CarbonUSD to a specific WhitelistedToken.\r\n     * @return The default fee for stablecoin trades.\r\n     */\r\n    function getDefaultFee() public view returns (uint256) {\r\n        return stablecoinFees.defaultFee();\r\n    }\r\n\r\n    /**\r\n     * @notice Mints CUSD on behalf of a user. Note the use of the \"requiresWhitelistedToken\"\r\n     * modifier; this means that minting authority does not belong to any personal account; \r\n     * only whitelisted token contracts can call this function. The intended functionality is that the only\r\n     * way to mint CUSD is for the user to actually burn a whitelisted token to convert into CUSD\r\n     * @param _to User to send CUSD to\r\n     * @param _amount Amount of CarbonUSD to burn.\r\n     */\r\n    function mint(address _to, uint256 _amount) public requiresWhitelistedToken whenNotPaused {\r\n        _mint(_to, _amount);\r\n    }\r\n\r\n    function _mint(address _to, uint256 _amount) internal {\r\n        super._mint(_to, _amount);\r\n    }\r\n\r\n    /**\r\n     * @notice user can convert CarbonUSD umbrella token into a whitelisted stablecoin. \r\n     * @param stablecoin represents the type of coin the users wishes to receive for burning carbonUSD\r\n     * @param _amount Amount of CarbonUSD to convert.\r\n     * we credit the user's account at the sender address with the _amount minus the percentage fee we want to charge.\r\n     */\r\n    function convertCarbonDollar(address stablecoin, uint256 _amount) public requiresPermission whenNotPaused  {\r\n        require(stablecoinWhitelist.isWhitelisted(stablecoin), \"Stablecoin must be whitelisted prior to setting conversion fee\");\r\n        WhitelistedToken whitelisted = WhitelistedToken(stablecoin);\r\n        require(whitelisted.balanceOf(address(this)) >= _amount, \"Carbon escrow account in WT0 doesn't have enough tokens for burning\");\r\n \r\n        // Send back WT0 to calling user, but with a fee reduction.\r\n        // Transfer this fee into the whitelisted token's CarbonDollar account (this contract's address)\r\n        uint256 chargedFee = stablecoinFees.computeFee(_amount, computeFeeRate(stablecoin));\r\n        uint256 feedAmount = _amount.sub(chargedFee);\r\n        _burn(msg.sender, _amount);\r\n        require(whitelisted.transfer(msg.sender, feedAmount));\r\n        whitelisted.burn(chargedFee);\r\n        _mint(address(this), chargedFee);\r\n        emit ConvertedToWT(msg.sender, _amount);\r\n    }\r\n\r\n     /**\r\n     * @notice burns CarbonDollar and an equal amount of whitelisted stablecoin from the CarbonDollar address\r\n     * @param stablecoin Represents the stablecoin whose fee will be charged.\r\n     * @param _amount Amount of CarbonUSD to burn.\r\n     */\r\n    function burnCarbonDollar(address stablecoin, uint256 _amount) public requiresPermission whenNotPaused {\r\n        require(stablecoinWhitelist.isWhitelisted(stablecoin), \"Stablecoin must be whitelisted prior to setting conversion fee\");\r\n        WhitelistedToken whitelisted = WhitelistedToken(stablecoin);\r\n        require(whitelisted.balanceOf(address(this)) >= _amount, \"Carbon escrow account in WT0 doesn't have enough tokens for burning\");\r\n \r\n        // Burn user's CUSD, but with a fee reduction.\r\n        uint256 chargedFee = stablecoinFees.computeFee(_amount, computeFeeRate(stablecoin));\r\n        uint256 feedAmount = _amount.sub(chargedFee);\r\n        _burn(msg.sender, _amount);\r\n        whitelisted.burn(_amount);\r\n        _mint(address(this), chargedFee);\r\n        emit BurnedCUSD(msg.sender, feedAmount, chargedFee); // Whitelisted trust account should send user feedAmount USD\r\n    }\r\n\r\n    /** Computes fee percentage associated with burning into a particular stablecoin.\r\n     * @param stablecoin The stablecoin whose fee will be charged. Precondition: is a whitelisted\r\n     * stablecoin.\r\n     * @return The fee that will be charged. If the stablecoin's fee is not set, the default\r\n     * fee is returned.\r\n     */\r\n    function computeFeeRate(address stablecoin) public view returns (uint256 feeRate) {\r\n        if (stablecoinFees.isFeeSet(stablecoin)) // If fee for coin is not set\r\n            feeRate = stablecoinFees.fees(stablecoin);\r\n        else\r\n            feeRate = stablecoinFees.defaultFee();\r\n    }\r\n\r\n    /**\r\n     * @notice Compute the fee for converting a particular amount of CarbonUSD to a specific WhitelistedToken.\r\n     * @param amount The amount that the fee will be charged on.\r\n     * @param stablecoin The stablecoin to check fees for.\r\n     * @return The fee charged on the amount for the specified whitelisted token.\r\n     */\r\n    function computeStablecoinFee(uint256 amount, address stablecoin) public view returns (uint256) {\r\n        return stablecoinFees.computeStablecoinFee(amount, stablecoin);\r\n    }\r\n}",
  "sourcePath": "C:\\Users\\npain\\Projects\\Carbon\\fiat_gateway\\contracts\\tokens\\carbonToken\\CarbonDollar.sol",
  "compiler": {
    "name": "solc",
    "version": "0.4.24+commit.e67f0147.Emscripten.clang"
  },
  "schemaVersion": "2.0.1",
  "updatedAt": "2018-08-18T15:48:20.668Z"
}