{
  "contractName": "CarbonDollar",
  "abi": [
    {
      "constant": false,
      "inputs": [
        {
          "name": "_spender",
          "type": "address"
        },
        {
          "name": "_value",
          "type": "uint256"
        }
      ],
      "name": "approve",
      "outputs": [
        {
          "name": "",
          "type": "bool"
        }
      ],
      "payable": false,
      "stateMutability": "nonpayable",
      "type": "function"
    },
    {
      "constant": true,
      "inputs": [],
      "name": "totalSupply",
      "outputs": [
        {
          "name": "",
          "type": "uint256"
        }
      ],
      "payable": false,
      "stateMutability": "view",
      "type": "function"
    },
    {
      "constant": false,
      "inputs": [
        {
          "name": "_from",
          "type": "address"
        },
        {
          "name": "_to",
          "type": "address"
        },
        {
          "name": "_amount",
          "type": "uint256"
        }
      ],
      "name": "transferFrom",
      "outputs": [
        {
          "name": "",
          "type": "bool"
        }
      ],
      "payable": false,
      "stateMutability": "nonpayable",
      "type": "function"
    },
    {
      "constant": false,
      "inputs": [],
      "name": "claimWhitelistOwnership",
      "outputs": [],
      "payable": false,
      "stateMutability": "nonpayable",
      "type": "function"
    },
    {
      "constant": true,
      "inputs": [],
      "name": "allowances",
      "outputs": [
        {
          "name": "",
          "type": "address"
        }
      ],
      "payable": false,
      "stateMutability": "view",
      "type": "function"
    },
    {
      "constant": false,
      "inputs": [],
      "name": "unpause",
      "outputs": [],
      "payable": false,
      "stateMutability": "nonpayable",
      "type": "function"
    },
    {
      "constant": false,
      "inputs": [
        {
          "name": "_amount",
          "type": "uint256"
        }
      ],
      "name": "burn",
      "outputs": [],
      "payable": false,
      "stateMutability": "nonpayable",
      "type": "function"
    },
    {
      "constant": false,
      "inputs": [],
      "name": "claimOwnership",
      "outputs": [],
      "payable": false,
      "stateMutability": "nonpayable",
      "type": "function"
    },
    {
      "constant": true,
      "inputs": [],
      "name": "blacklisted",
      "outputs": [
        {
          "name": "",
          "type": "bool"
        }
      ],
      "payable": false,
      "stateMutability": "view",
      "type": "function"
    },
    {
      "constant": true,
      "inputs": [],
      "name": "paused",
      "outputs": [
        {
          "name": "",
          "type": "bool"
        }
      ],
      "payable": false,
      "stateMutability": "view",
      "type": "function"
    },
    {
      "constant": false,
      "inputs": [
        {
          "name": "_feesheet",
          "type": "address"
        }
      ],
      "name": "setFeeSheet",
      "outputs": [],
      "payable": false,
      "stateMutability": "nonpayable",
      "type": "function"
    },
    {
      "constant": false,
      "inputs": [
        {
          "name": "_spender",
          "type": "address"
        },
        {
          "name": "_subtractedValue",
          "type": "uint256"
        }
      ],
      "name": "decreaseApproval",
      "outputs": [
        {
          "name": "",
          "type": "bool"
        }
      ],
      "payable": false,
      "stateMutability": "nonpayable",
      "type": "function"
    },
    {
      "constant": false,
      "inputs": [
        {
          "name": "_blacklistedAccount",
          "type": "address"
        }
      ],
      "name": "approveBlacklistedAddressSpender",
      "outputs": [],
      "payable": false,
      "stateMutability": "nonpayable",
      "type": "function"
    },
    {
      "constant": true,
      "inputs": [
        {
          "name": "who",
          "type": "address"
        }
      ],
      "name": "balanceOf",
      "outputs": [
        {
          "name": "",
          "type": "uint256"
        }
      ],
      "payable": false,
      "stateMutability": "view",
      "type": "function"
    },
    {
      "constant": false,
      "inputs": [
        {
          "name": "_newStorageAddress",
          "type": "address"
        }
      ],
      "name": "setBalanceStorage",
      "outputs": [],
      "payable": false,
      "stateMutability": "nonpayable",
      "type": "function"
    },
    {
      "constant": true,
      "inputs": [],
      "name": "balances",
      "outputs": [
        {
          "name": "",
          "type": "address"
        }
      ],
      "payable": false,
      "stateMutability": "view",
      "type": "function"
    },
    {
      "constant": false,
      "inputs": [],
      "name": "pause",
      "outputs": [],
      "payable": false,
      "stateMutability": "nonpayable",
      "type": "function"
    },
    {
      "constant": true,
      "inputs": [],
      "name": "isMethodEnabled",
      "outputs": [
        {
          "name": "",
          "type": "bool"
        }
      ],
      "payable": false,
      "stateMutability": "view",
      "type": "function"
    },
    {
      "constant": false,
      "inputs": [],
      "name": "claimBalanceOwnership",
      "outputs": [],
      "payable": false,
      "stateMutability": "nonpayable",
      "type": "function"
    },
    {
      "constant": true,
      "inputs": [],
      "name": "owner",
      "outputs": [
        {
          "name": "",
          "type": "address"
        }
      ],
      "payable": false,
      "stateMutability": "view",
      "type": "function"
    },
    {
      "constant": false,
      "inputs": [],
      "name": "claimFeeOwnership",
      "outputs": [],
      "payable": false,
      "stateMutability": "nonpayable",
      "type": "function"
    },
    {
      "constant": false,
      "inputs": [],
      "name": "claimAllowanceOwnership",
      "outputs": [],
      "payable": false,
      "stateMutability": "nonpayable",
      "type": "function"
    },
    {
      "constant": false,
      "inputs": [],
      "name": "unlock",
      "outputs": [],
      "payable": false,
      "stateMutability": "nonpayable",
      "type": "function"
    },
    {
      "constant": false,
      "inputs": [
        {
          "name": "_to",
          "type": "address"
        },
        {
          "name": "_amount",
          "type": "uint256"
        }
      ],
      "name": "transfer",
      "outputs": [
        {
          "name": "",
          "type": "bool"
        }
      ],
      "payable": false,
      "stateMutability": "nonpayable",
      "type": "function"
    },
    {
      "constant": false,
      "inputs": [
        {
          "name": "_newStorageAddress",
          "type": "address"
        }
      ],
      "name": "setAllowanceStorage",
      "outputs": [],
      "payable": false,
      "stateMutability": "nonpayable",
      "type": "function"
    },
    {
      "constant": false,
      "inputs": [
        {
          "name": "_who",
          "type": "address"
        },
        {
          "name": "_amount",
          "type": "uint256"
        }
      ],
      "name": "destroyBlacklistedTokens",
      "outputs": [],
      "payable": false,
      "stateMutability": "nonpayable",
      "type": "function"
    },
    {
      "constant": false,
      "inputs": [
        {
          "name": "_newStorageAddress",
          "type": "address"
        }
      ],
      "name": "setRegulator",
      "outputs": [],
      "payable": false,
      "stateMutability": "nonpayable",
      "type": "function"
    },
    {
      "constant": false,
      "inputs": [
        {
          "name": "_whitelist",
          "type": "address"
        }
      ],
      "name": "setStablecoinWhitelist",
      "outputs": [],
      "payable": false,
      "stateMutability": "nonpayable",
      "type": "function"
    },
    {
      "constant": false,
      "inputs": [
        {
          "name": "_spender",
          "type": "address"
        },
        {
          "name": "_addedValue",
          "type": "uint256"
        }
      ],
      "name": "increaseApproval",
      "outputs": [
        {
          "name": "",
          "type": "bool"
        }
      ],
      "payable": false,
      "stateMutability": "nonpayable",
      "type": "function"
    },
    {
      "constant": true,
      "inputs": [],
      "name": "stablecoinFees",
      "outputs": [
        {
          "name": "",
          "type": "address"
        }
      ],
      "payable": false,
      "stateMutability": "view",
      "type": "function"
    },
    {
      "constant": true,
      "inputs": [
        {
          "name": "owner",
          "type": "address"
        },
        {
          "name": "spender",
          "type": "address"
        }
      ],
      "name": "allowance",
      "outputs": [
        {
          "name": "",
          "type": "uint256"
        }
      ],
      "payable": false,
      "stateMutability": "view",
      "type": "function"
    },
    {
      "constant": true,
      "inputs": [],
      "name": "regulator",
      "outputs": [
        {
          "name": "",
          "type": "address"
        }
      ],
      "payable": false,
      "stateMutability": "view",
      "type": "function"
    },
    {
      "constant": true,
      "inputs": [],
      "name": "stablecoinWhitelist",
      "outputs": [
        {
          "name": "",
          "type": "address"
        }
      ],
      "payable": false,
      "stateMutability": "view",
      "type": "function"
    },
    {
      "constant": true,
      "inputs": [],
      "name": "pendingOwner",
      "outputs": [
        {
          "name": "",
          "type": "address"
        }
      ],
      "payable": false,
      "stateMutability": "view",
      "type": "function"
    },
    {
      "constant": false,
      "inputs": [
        {
          "name": "_newOwner",
          "type": "address"
        }
      ],
      "name": "transferOwnership",
      "outputs": [],
      "payable": false,
      "stateMutability": "nonpayable",
      "type": "function"
    },
    {
      "constant": false,
      "inputs": [],
      "name": "lock",
      "outputs": [],
      "payable": false,
      "stateMutability": "nonpayable",
      "type": "function"
    },
    {
      "inputs": [
        {
          "name": "_regulator",
          "type": "address"
        },
        {
          "name": "_balances",
          "type": "address"
        },
        {
          "name": "_allowances",
          "type": "address"
        },
        {
          "name": "_fees",
          "type": "address"
        },
        {
          "name": "_stablecoins",
          "type": "address"
        }
      ],
      "payable": false,
      "stateMutability": "nonpayable",
      "type": "constructor"
    },
    {
      "anonymous": false,
      "inputs": [
        {
          "indexed": true,
          "name": "user",
          "type": "address"
        },
        {
          "indexed": false,
          "name": "amount",
          "type": "uint256"
        }
      ],
      "name": "ConvertedToWT",
      "type": "event"
    },
    {
      "anonymous": false,
      "inputs": [
        {
          "indexed": true,
          "name": "user",
          "type": "address"
        },
        {
          "indexed": false,
          "name": "feedAmount",
          "type": "uint256"
        },
        {
          "indexed": false,
          "name": "chargedFee",
          "type": "uint256"
        }
      ],
      "name": "BurnedCUSD",
      "type": "event"
    },
    {
      "anonymous": false,
      "inputs": [
        {
          "indexed": true,
          "name": "account",
          "type": "address"
        },
        {
          "indexed": false,
          "name": "amount",
          "type": "uint256"
        }
      ],
      "name": "DestroyedBlacklistedTokens",
      "type": "event"
    },
    {
      "anonymous": false,
      "inputs": [
        {
          "indexed": true,
          "name": "owner",
          "type": "address"
        },
        {
          "indexed": true,
          "name": "spender",
          "type": "address"
        },
        {
          "indexed": false,
          "name": "value",
          "type": "uint256"
        }
      ],
      "name": "ApprovedBlacklistedAddressSpender",
      "type": "event"
    },
    {
      "anonymous": false,
      "inputs": [
        {
          "indexed": true,
          "name": "to",
          "type": "address"
        },
        {
          "indexed": false,
          "name": "value",
          "type": "uint256"
        }
      ],
      "name": "Mint",
      "type": "event"
    },
    {
      "anonymous": false,
      "inputs": [
        {
          "indexed": true,
          "name": "burner",
          "type": "address"
        },
        {
          "indexed": false,
          "name": "value",
          "type": "uint256"
        }
      ],
      "name": "Burn",
      "type": "event"
    },
    {
      "anonymous": false,
      "inputs": [
        {
          "indexed": true,
          "name": "from",
          "type": "address"
        },
        {
          "indexed": true,
          "name": "to",
          "type": "address"
        },
        {
          "indexed": false,
          "name": "value",
          "type": "uint256"
        }
      ],
      "name": "Transfer",
      "type": "event"
    },
    {
      "anonymous": false,
      "inputs": [
        {
          "indexed": true,
          "name": "owner",
          "type": "address"
        },
        {
          "indexed": true,
          "name": "spender",
          "type": "address"
        },
        {
          "indexed": false,
          "name": "value",
          "type": "uint256"
        }
      ],
      "name": "Approval",
      "type": "event"
    },
    {
      "anonymous": false,
      "inputs": [
        {
          "indexed": false,
          "name": "_old",
          "type": "address"
        },
        {
          "indexed": false,
          "name": "_new",
          "type": "address"
        }
      ],
      "name": "ChangedRegulator",
      "type": "event"
    },
    {
      "anonymous": false,
      "inputs": [
        {
          "indexed": false,
          "name": "_old",
          "type": "address"
        },
        {
          "indexed": false,
          "name": "_new",
          "type": "address"
        }
      ],
      "name": "ChangedBalanceStorage",
      "type": "event"
    },
    {
      "anonymous": false,
      "inputs": [
        {
          "indexed": false,
          "name": "_old",
          "type": "address"
        },
        {
          "indexed": false,
          "name": "_new",
          "type": "address"
        }
      ],
      "name": "ChangedAllowanceStorage",
      "type": "event"
    },
    {
      "anonymous": false,
      "inputs": [],
      "name": "Unlocked",
      "type": "event"
    },
    {
      "anonymous": false,
      "inputs": [],
      "name": "Locked",
      "type": "event"
    },
    {
      "anonymous": false,
      "inputs": [],
      "name": "Pause",
      "type": "event"
    },
    {
      "anonymous": false,
      "inputs": [],
      "name": "Unpause",
      "type": "event"
    },
    {
      "anonymous": false,
      "inputs": [
        {
          "indexed": true,
          "name": "oldSheet",
          "type": "address"
        },
        {
          "indexed": true,
          "name": "newSheet",
          "type": "address"
        }
      ],
      "name": "FeeSheetChanged",
      "type": "event"
    },
    {
      "anonymous": false,
      "inputs": [
        {
          "indexed": true,
          "name": "oldWhitelist",
          "type": "address"
        },
        {
          "indexed": true,
          "name": "newWhitelist",
          "type": "address"
        }
      ],
      "name": "StablecoinWhitelistChanged",
      "type": "event"
    },
    {
      "anonymous": false,
      "inputs": [
        {
          "indexed": true,
          "name": "previousOwner",
          "type": "address"
        },
        {
          "indexed": true,
          "name": "newOwner",
          "type": "address"
        }
      ],
      "name": "OwnershipTransferred",
      "type": "event"
    },
    {
      "constant": false,
      "inputs": [
        {
          "name": "_stablecoin",
          "type": "address"
        }
      ],
      "name": "listToken",
      "outputs": [],
      "payable": false,
      "stateMutability": "nonpayable",
      "type": "function"
    },
    {
      "constant": false,
      "inputs": [
        {
          "name": "_stablecoin",
          "type": "address"
        }
      ],
      "name": "unlistToken",
      "outputs": [],
      "payable": false,
      "stateMutability": "nonpayable",
      "type": "function"
    },
    {
      "constant": false,
      "inputs": [
        {
          "name": "stablecoin",
          "type": "address"
        },
        {
          "name": "_newFee",
          "type": "uint256"
        }
      ],
      "name": "setFee",
      "outputs": [],
      "payable": false,
      "stateMutability": "nonpayable",
      "type": "function"
    },
    {
      "constant": false,
      "inputs": [
        {
          "name": "stablecoin",
          "type": "address"
        }
      ],
      "name": "removeFee",
      "outputs": [],
      "payable": false,
      "stateMutability": "nonpayable",
      "type": "function"
    },
    {
      "constant": false,
      "inputs": [
        {
          "name": "_newFee",
          "type": "uint256"
        }
      ],
      "name": "setDefaultFee",
      "outputs": [],
      "payable": false,
      "stateMutability": "nonpayable",
      "type": "function"
    },
    {
      "constant": false,
      "inputs": [
        {
          "name": "_to",
          "type": "address"
        },
        {
          "name": "_amount",
          "type": "uint256"
        }
      ],
      "name": "mint",
      "outputs": [],
      "payable": false,
      "stateMutability": "nonpayable",
      "type": "function"
    },
    {
      "constant": false,
      "inputs": [
        {
          "name": "stablecoin",
          "type": "address"
        },
        {
          "name": "_amount",
          "type": "uint256"
        }
      ],
      "name": "convertCarbonDollar",
      "outputs": [],
      "payable": false,
      "stateMutability": "nonpayable",
      "type": "function"
    },
    {
      "constant": false,
      "inputs": [
        {
          "name": "stablecoin",
          "type": "address"
        },
        {
          "name": "_amount",
          "type": "uint256"
        }
      ],
      "name": "burnCarbonDollar",
      "outputs": [],
      "payable": false,
      "stateMutability": "nonpayable",
      "type": "function"
    },
    {
      "constant": true,
      "inputs": [
        {
          "name": "stablecoin",
          "type": "address"
        }
      ],
      "name": "computeFeeRate",
      "outputs": [
        {
          "name": "feeRate",
          "type": "uint256"
        }
      ],
      "payable": false,
      "stateMutability": "view",
      "type": "function"
    },
    {
      "constant": true,
      "inputs": [
        {
          "name": "amount",
          "type": "uint256"
        },
        {
          "name": "stablecoin",
          "type": "address"
        }
      ],
      "name": "computeStablecoinFee",
      "outputs": [
        {
          "name": "",
          "type": "uint256"
        }
      ],
      "payable": false,
      "stateMutability": "view",
      "type": "function"
    },
    {
      "constant": true,
      "inputs": [
        {
          "name": "_stablecoin",
          "type": "address"
        }
      ],
      "name": "isWhitelisted",
      "outputs": [
        {
          "name": "",
          "type": "bool"
        }
      ],
      "payable": false,
      "stateMutability": "view",
      "type": "function"
    },
    {
      "constant": true,
      "inputs": [
        {
          "name": "stablecoin",
          "type": "address"
        }
      ],
      "name": "getFee",
      "outputs": [
        {
          "name": "",
          "type": "uint256"
        }
      ],
      "payable": false,
      "stateMutability": "view",
      "type": "function"
    },
    {
      "constant": true,
      "inputs": [],
      "name": "getDefaultFee",
      "outputs": [
        {
          "name": "",
          "type": "uint256"
        }
      ],
      "payable": false,
      "stateMutability": "view",
      "type": "function"
    }
  ],
  "bytecode": "0x60806040526003805460a060020a61ffff021916905534801561002157600080fd5b5060405160a08062005bd8833981016040908152815160208301519183015160608401516080909401516000805433600160a060020a03199182161782556001805482169055600280548216600160a060020a03988916179055600380548216938816939093179092556004805483169487169490941790935560058054821694861694909417909355600680549093169316929092179055615b0d908190620000cb90396000f3006080604052600436106102505763ffffffff7c0100000000000000000000000000000000000000000000000000000000600035041663095ea7b381146102555780630d4b82081461029a578063166e55d9146102cd57806318160ddd146103105780631fc1e25f1461032557806321bacf281461035357806323b872dd146103685780632a9a04ba1461039f5780633af32abf146103b45780633ed10b92146103e25780633f4ba83a1461042057806340c10f191461043557806342966c68146104665780634e71e0c81461047e5780635bae9ce9146104935780635c975abb146104a857806360814fe8146104bd57806366188463146104eb578063662f94c01461051c5780636ad266111461054a57806370a082311461057857806373e9e0e5146105a65780637bb98a68146105d45780638456cb59146105e9578063873ab2ce146105fe57806388fa26171461062c5780638955ed7e146106415780638da5cb5b14610656578063956ce0931461066b5780639b2bdc2014610680578063a69df4b514610695578063a9059cbb146106aa578063abcb9934146106db578063b88c914814610709578063ba6f4ab014610737578063c52dd64414610768578063c534ba4b14610796578063c93a6c84146107c7578063cde0a4f8146107df578063d1a15eba1461080d578063d73dd6231461083b578063d96515661461086c578063dd62ed3e14610881578063dd8fee14146108b5578063e14852e3146108ca578063e30c3978146108df578063e55156b5146108f4578063f2fde38b14610925578063f83d08ba14610953575b600080fd5b34801561026157600080fd5b5061028673ffffffffffffffffffffffffffffffffffffffff60043516602435610968565b604080519115158252519081900360200190f35b3480156102a657600080fd5b506102cb73ffffffffffffffffffffffffffffffffffffffff60043516602435610cc9565b005b3480156102d957600080fd5b506102fe60043573ffffffffffffffffffffffffffffffffffffffff60243516611327565b60408051918252519081900360200190f35b34801561031c57600080fd5b506102fe6113d9565b34801561033157600080fd5b506102cb73ffffffffffffffffffffffffffffffffffffffff60043516611476565b34801561035f57600080fd5b506102fe611551565b34801561037457600080fd5b5061028673ffffffffffffffffffffffffffffffffffffffff600435811690602435166044356115bd565b3480156103ab57600080fd5b506102cb611cdd565b3480156103c057600080fd5b5061028673ffffffffffffffffffffffffffffffffffffffff60043516611d7d565b3480156103ee57600080fd5b506103f7611e29565b6040805173ffffffffffffffffffffffffffffffffffffffff9092168252519081900360200190f35b34801561042c57600080fd5b506102cb611e45565b34801561044157600080fd5b506102cb73ffffffffffffffffffffffffffffffffffffffff60043516602435611ee5565b34801561047257600080fd5b506102cb60043561204d565b34801561048a57600080fd5b506102cb6121e1565b34801561049f57600080fd5b5061028661229b565b3480156104b457600080fd5b50610286612401565b3480156104c957600080fd5b506102cb73ffffffffffffffffffffffffffffffffffffffff60043516612422565b3480156104f757600080fd5b5061028673ffffffffffffffffffffffffffffffffffffffff6004351660243561244f565b34801561052857600080fd5b506102cb73ffffffffffffffffffffffffffffffffffffffff600435166126ab565b34801561055657600080fd5b506102cb73ffffffffffffffffffffffffffffffffffffffff60043516612a57565b34801561058457600080fd5b506102fe73ffffffffffffffffffffffffffffffffffffffff60043516612c4b565b3480156105b257600080fd5b506102cb73ffffffffffffffffffffffffffffffffffffffff60043516612cc3565b3480156105e057600080fd5b506103f7612e97565b3480156105f557600080fd5b506102cb612eb3565b34801561060a57600080fd5b506102fe73ffffffffffffffffffffffffffffffffffffffff60043516612f69565b34801561063857600080fd5b50610286613140565b34801561064d57600080fd5b506102cb613162565b34801561066257600080fd5b506103f76131e8565b34801561067757600080fd5b506102cb613204565b34801561068c57600080fd5b506102cb61328a565b3480156106a157600080fd5b506102cb613310565b3480156106b657600080fd5b5061028673ffffffffffffffffffffffffffffffffffffffff6004351660243561339f565b3480156106e757600080fd5b506102cb73ffffffffffffffffffffffffffffffffffffffff6004351661385c565b34801561071557600080fd5b506102fe73ffffffffffffffffffffffffffffffffffffffff6004351661391c565b34801561074357600080fd5b506102cb73ffffffffffffffffffffffffffffffffffffffff60043516602435613994565b34801561077457600080fd5b506102cb73ffffffffffffffffffffffffffffffffffffffff60043516613f4a565b3480156107a257600080fd5b506102cb73ffffffffffffffffffffffffffffffffffffffff6004351660243561411e565b3480156107d357600080fd5b506102cb600435614527565b3480156107eb57600080fd5b506102cb73ffffffffffffffffffffffffffffffffffffffff600435166145e6565b34801561081957600080fd5b506102cb73ffffffffffffffffffffffffffffffffffffffff600435166147ba565b34801561084757600080fd5b5061028673ffffffffffffffffffffffffffffffffffffffff600435166024356147e7565b34801561087857600080fd5b506103f7614a38565b34801561088d57600080fd5b506102fe73ffffffffffffffffffffffffffffffffffffffff60043581169060243516614a54565b3480156108c157600080fd5b506103f7614ad4565b3480156108d657600080fd5b506103f7614af0565b3480156108eb57600080fd5b506103f7614b0c565b34801561090057600080fd5b506102cb73ffffffffffffffffffffffffffffffffffffffff60043516602435614b28565b34801561093157600080fd5b506102cb73ffffffffffffffffffffffffffffffffffffffff60043516614d3f565b34801561095f57600080fd5b506102cb614dcc565b60048054604080517f7ccce85100000000000000000000000000000000000000000000000000000000815273ffffffffffffffffffffffffffffffffffffffff80871694820194909452905160009386931691637ccce85191602480830192602092919082900301818887803b1580156109e157600080fd5b505af11580156109f5573d6000803e3d6000fd5b505050506040513d6020811015610a0b57600080fd5b505115610a7957604080517f08c379a000000000000000000000000000000000000000000000000000000000815260206004820152601c60248201527f55736572206d757374206e6f7420626520626c61636b6c697374656400000000604482015290519081900360640190fd5b60048054604080517f7ccce85100000000000000000000000000000000000000000000000000000000815233938101849052905173ffffffffffffffffffffffffffffffffffffffff90921691637ccce851916024808201926020929091908290030181600087803b158015610aee57600080fd5b505af1158015610b02573d6000803e3d6000fd5b505050506040513d6020811015610b1857600080fd5b505115610b8657604080517f08c379a000000000000000000000000000000000000000000000000000000000815260206004820152601c60248201527f55736572206d757374206e6f7420626520626c61636b6c697374656400000000604482015290519081900360640190fd5b60035474010000000000000000000000000000000000000000900460ff1615610bae57600080fd5b6003547501000000000000000000000000000000000000000000900460ff161515610bd857600080fd5b600654604080517fda46098c00000000000000000000000000000000000000000000000000000000815233600482015273ffffffffffffffffffffffffffffffffffffffff8881166024830152604482018890529151919092169163da46098c91606480830192600092919082900301818387803b158015610c5957600080fd5b505af1158015610c6d573d6000803e3d6000fd5b505060408051878152905173ffffffffffffffffffffffffffffffffffffffff891693503392507f8c5be1e5ebec7d5bd14f71427d1e84f3dd0314c0f7b2291e5b200ac8c7c3b9259181900360200190a3506001949350505050565b60048054604080517f14db6d580000000000000000000000000000000000000000000000000000000081523393810193909352600080357fffffffff00000000000000000000000000000000000000000000000000000000166024850152905190928392839273ffffffffffffffffffffffffffffffffffffffff909116916314db6d5891604480830192602092919082900301818787803b158015610d6e57600080fd5b505af1158015610d82573d6000803e3d6000fd5b505050506040513d6020811015610d9857600080fd5b50511515610e2d57604080517f08c379a000000000000000000000000000000000000000000000000000000000815260206004820152603160248201527f5573657220646f6573206e6f742068617665207065726d697373696f6e20746f60448201527f20657865637574652066756e6374696f6e000000000000000000000000000000606482015290519081900360840190fd5b60035474010000000000000000000000000000000000000000900460ff1615610e5557600080fd5b600354604080517f3af32abf00000000000000000000000000000000000000000000000000000000815273ffffffffffffffffffffffffffffffffffffffff888116600483015291519190921691633af32abf9160248083019260209291908290030181600087803b158015610eca57600080fd5b505af1158015610ede573d6000803e3d6000fd5b505050506040513d6020811015610ef457600080fd5b50511515610f8957604080517f08c379a000000000000000000000000000000000000000000000000000000000815260206004820152603e60248201527f537461626c65636f696e206d7573742062652077686974656c6973746564207060448201527f72696f7220746f2073657474696e6720636f6e76657273696f6e206665650000606482015290519081900360840190fd5b604080517f70a082310000000000000000000000000000000000000000000000000000000081523060048201529051869450859173ffffffffffffffffffffffffffffffffffffffff8616916370a08231916024808201926020929091908290030181600087803b158015610ffd57600080fd5b505af1158015611011573d6000803e3d6000fd5b505050506040513d602081101561102757600080fd5b505110156110e257604080517f08c379a000000000000000000000000000000000000000000000000000000000815260206004820152604360248201527f436172626f6e20657363726f77206163636f756e7420696e2057543020646f6560448201527f736e2774206861766520656e6f75676820746f6b656e7320666f72206275726e60648201527f696e670000000000000000000000000000000000000000000000000000000000608482015290519081900360a40190fd5b60025473ffffffffffffffffffffffffffffffffffffffff16632ff284c28561110a88612f69565b6040518363ffffffff167c01000000000000000000000000000000000000000000000000000000000281526004018083815260200182815260200192505050602060405180830381600087803b15801561116357600080fd5b505af1158015611177573d6000803e3d6000fd5b505050506040513d602081101561118d57600080fd5b505191506111a1848363ffffffff614e4316565b90506111ad3385614e55565b604080517fa9059cbb00000000000000000000000000000000000000000000000000000000815233600482015260248101839052905173ffffffffffffffffffffffffffffffffffffffff85169163a9059cbb9160448083019260209291908290030181600087803b15801561122257600080fd5b505af1158015611236573d6000803e3d6000fd5b505050506040513d602081101561124c57600080fd5b5051151561125957600080fd5b8273ffffffffffffffffffffffffffffffffffffffff166342966c68836040518263ffffffff167c010000000000000000000000000000000000000000000000000000000002815260040180828152602001915050600060405180830381600087803b1580156112c857600080fd5b505af11580156112dc573d6000803e3d6000fd5b505050506112ea3083615088565b60408051858152905133917f3a91515f120c05831525e72379609e84b30a70ab21104f3222d0e91411aadc52919081900360200190a25050505050565b600254604080517f166e55d90000000000000000000000000000000000000000000000000000000081526004810185905273ffffffffffffffffffffffffffffffffffffffff84811660248301529151600093929092169163166e55d99160448082019260209290919082900301818787803b1580156113a657600080fd5b505af11580156113ba573d6000803e3d6000fd5b505050506040513d60208110156113d057600080fd5b50519392505050565b600554604080517f18160ddd000000000000000000000000000000000000000000000000000000008152905160009273ffffffffffffffffffffffffffffffffffffffff16916318160ddd91600480830192602092919082900301818787803b15801561144557600080fd5b505af1158015611459573d6000803e3d6000fd5b505050506040513d602081101561146f57600080fd5b5051905090565b60005473ffffffffffffffffffffffffffffffffffffffff16331461149a57600080fd5b60035474010000000000000000000000000000000000000000900460ff16156114c257600080fd5b600354604080517f0418945a00000000000000000000000000000000000000000000000000000000815273ffffffffffffffffffffffffffffffffffffffff848116600483015291519190921691630418945a91602480830192600092919082900301818387803b15801561153657600080fd5b505af115801561154a573d6000803e3d6000fd5b5050505050565b600254604080517f5a6c72d0000000000000000000000000000000000000000000000000000000008152905160009273ffffffffffffffffffffffffffffffffffffffff1691635a6c72d091600480830192602092919082900301818787803b15801561144557600080fd5b60035460009074010000000000000000000000000000000000000000900460ff16156115e857600080fd5b8383600080600460009054906101000a900473ffffffffffffffffffffffffffffffffffffffff1673ffffffffffffffffffffffffffffffffffffffff16637ccce851846040518263ffffffff167c0100000000000000000000000000000000000000000000000000000000028152600401808273ffffffffffffffffffffffffffffffffffffffff1673ffffffffffffffffffffffffffffffffffffffff168152602001915050602060405180830381600087803b1580156116aa57600080fd5b505af11580156116be573d6000803e3d6000fd5b505050506040513d60208110156116d457600080fd5b50511561174257604080517f08c379a000000000000000000000000000000000000000000000000000000000815260206004820152601f60248201527f526563697069656e742063616e6e6f7420626520626c61636b6c697374656400604482015290519081900360640190fd5b60048054604080517f7ccce85100000000000000000000000000000000000000000000000000000000815273ffffffffffffffffffffffffffffffffffffffff8881169482019490945290519290911691637ccce851916024808201926020929091908290030181600087803b1580156117bb57600080fd5b505af11580156117cf573d6000803e3d6000fd5b505050506040513d60208110156117e557600080fd5b505160048054604080517f91c4529f00000000000000000000000000000000000000000000000000000000815233938101939093525192945073ffffffffffffffffffffffffffffffffffffffff16916391c4529f916024808201926020929091908290030181600087803b15801561185d57600080fd5b505af1158015611871573d6000803e3d6000fd5b505050506040513d602081101561188757600080fd5b505190508115806118955750805b151561194e57604080517f08c379a000000000000000000000000000000000000000000000000000000000815260206004820152604c60248201527f4f726967696e2063616e6e6f7420626520626c61636b6c69737465642069662060448201527f7370656e646572206973206e6f7420616e20617070726f76656420626c61636b60648201527f6c697374207370656e6465720000000000000000000000000000000000000000608482015290519081900360a40190fd5b6119588833614a54565b8611156119c657604080517f08c379a000000000000000000000000000000000000000000000000000000000815260206004820181905260248201527f6e6f7420656e6f75676820616c6c6f77616e636520746f207472616e73666572604482015290519081900360640190fd5b73ffffffffffffffffffffffffffffffffffffffff87161515611a4a57604080517f08c379a000000000000000000000000000000000000000000000000000000000815260206004820152601860248201527f746f20616464726573732063616e6e6f74206265203078300000000000000000604482015290519081900360640190fd5b611a5388612c4b565b861115611ac157604080517f08c379a000000000000000000000000000000000000000000000000000000000815260206004820152601e60248201527f6e6f7420656e6f7567682062616c616e636520746f207472616e736665720000604482015290519081900360640190fd5b600654604080517f97d88cd200000000000000000000000000000000000000000000000000000000815273ffffffffffffffffffffffffffffffffffffffff8b81166004830152336024830152604482018a9052915191909216916397d88cd291606480830192600092919082900301818387803b158015611b4257600080fd5b505af1158015611b56573d6000803e3d6000fd5b5050600554604080517f21e5383a00000000000000000000000000000000000000000000000000000000815273ffffffffffffffffffffffffffffffffffffffff8c81166004830152602482018c905291519190921693506321e5383a9250604480830192600092919082900301818387803b158015611bd557600080fd5b505af1158015611be9573d6000803e3d6000fd5b5050600554604080517fcf8eeb7e00000000000000000000000000000000000000000000000000000000815273ffffffffffffffffffffffffffffffffffffffff8d81166004830152602482018c9052915191909216935063cf8eeb7e9250604480830192600092919082900301818387803b158015611c6857600080fd5b505af1158015611c7c573d6000803e3d6000fd5b505060408051898152905173ffffffffffffffffffffffffffffffffffffffff808c1694508c1692507fddf252ad1be2c89b69c2b068fc378daa952ba7f163c4a11628f55a4df523b3ef9181900360200190a3506001979650505050505050565b600360009054906101000a900473ffffffffffffffffffffffffffffffffffffffff1673ffffffffffffffffffffffffffffffffffffffff16634e71e0c86040518163ffffffff167c0100000000000000000000000000000000000000000000000000000000028152600401600060405180830381600087803b158015611d6357600080fd5b505af1158015611d77573d6000803e3d6000fd5b50505050565b600354604080517f3af32abf00000000000000000000000000000000000000000000000000000000815273ffffffffffffffffffffffffffffffffffffffff848116600483015291516000939290921691633af32abf9160248082019260209290919082900301818787803b158015611df557600080fd5b505af1158015611e09573d6000803e3d6000fd5b505050506040513d6020811015611e1f57600080fd5b505190505b919050565b60065473ffffffffffffffffffffffffffffffffffffffff1681565b60005473ffffffffffffffffffffffffffffffffffffffff163314611e6957600080fd5b60035474010000000000000000000000000000000000000000900460ff161515611e9257600080fd5b600380547fffffffffffffffffffffff00ffffffffffffffffffffffffffffffffffffffff1690556040517f7805862f689e2f13df9f062ff482ad3ad112aca9e0847911ed832e158c525b3390600090a1565b600354604080517f3af32abf000000000000000000000000000000000000000000000000000000008152336004820152905173ffffffffffffffffffffffffffffffffffffffff90921691633af32abf916024808201926020929091908290030181600087803b158015611f5857600080fd5b505af1158015611f6c573d6000803e3d6000fd5b505050506040513d6020811015611f8257600080fd5b5051151561201757604080517f08c379a000000000000000000000000000000000000000000000000000000000815260206004820152602b60248201527f53656e646572206d75737420626520612077686974656c697374656420746f6b60448201527f656e20636f6e7472616374000000000000000000000000000000000000000000606482015290519081900360840190fd5b60035474010000000000000000000000000000000000000000900460ff161561203f57600080fd5b6120498282615088565b5050565b60048054604080517f14db6d580000000000000000000000000000000000000000000000000000000081523393810193909352600080357fffffffff00000000000000000000000000000000000000000000000000000000166024850152905173ffffffffffffffffffffffffffffffffffffffff909216926314db6d589260448083019360209383900390910190829087803b1580156120ed57600080fd5b505af1158015612101573d6000803e3d6000fd5b505050506040513d602081101561211757600080fd5b505115156121ac57604080517f08c379a000000000000000000000000000000000000000000000000000000000815260206004820152603160248201527f5573657220646f6573206e6f742068617665207065726d697373696f6e20746f60448201527f20657865637574652066756e6374696f6e000000000000000000000000000000606482015290519081900360840190fd5b60035474010000000000000000000000000000000000000000900460ff16156121d457600080fd5b6121de3382614e55565b50565b60015473ffffffffffffffffffffffffffffffffffffffff16331461220557600080fd5b6001546000805460405173ffffffffffffffffffffffffffffffffffffffff93841693909116917f8be0079c531659141344cd1fd0a4f28419497f9722a3daafe3b4186f6b6457e091a360018054600080547fffffffffffffffffffffffff000000000000000000000000000000000000000090811673ffffffffffffffffffffffffffffffffffffffff841617909155169055565b60048054604080517f14db6d580000000000000000000000000000000000000000000000000000000081523393810193909352600080357fffffffff000000000000000000000000000000000000000000000000000000001660248501529051909273ffffffffffffffffffffffffffffffffffffffff909216916314db6d5891604480830192602092919082900301818787803b15801561233c57600080fd5b505af1158015612350573d6000803e3d6000fd5b505050506040513d602081101561236657600080fd5b505115156123fb57604080517f08c379a000000000000000000000000000000000000000000000000000000000815260206004820152603160248201527f5573657220646f6573206e6f742068617665207065726d697373696f6e20746f60448201527f20657865637574652066756e6374696f6e000000000000000000000000000000606482015290519081900360840190fd5b50600190565b60035474010000000000000000000000000000000000000000900460ff1681565b60005473ffffffffffffffffffffffffffffffffffffffff16331461244657600080fd5b6121de81615092565b60048054604080517f7ccce85100000000000000000000000000000000000000000000000000000000815273ffffffffffffffffffffffffffffffffffffffff80871694820194909452905160009386931691637ccce85191602480830192602092919082900301818887803b1580156124c857600080fd5b505af11580156124dc573d6000803e3d6000fd5b505050506040513d60208110156124f257600080fd5b50511561256057604080517f08c379a000000000000000000000000000000000000000000000000000000000815260206004820152601c60248201527f55736572206d757374206e6f7420626520626c61636b6c697374656400000000604482015290519081900360640190fd5b60048054604080517f7ccce85100000000000000000000000000000000000000000000000000000000815233938101849052905173ffffffffffffffffffffffffffffffffffffffff90921691637ccce851916024808201926020929091908290030181600087803b1580156125d557600080fd5b505af11580156125e9573d6000803e3d6000fd5b505050506040513d60208110156125ff57600080fd5b50511561266d57604080517f08c379a000000000000000000000000000000000000000000000000000000000815260206004820152601c60248201527f55736572206d757374206e6f7420626520626c61636b6c697374656400000000604482015290519081900360640190fd5b60035474010000000000000000000000000000000000000000900460ff161561269557600080fd5b6126a085853361520d565b506001949350505050565b60048054604080517f7ccce85100000000000000000000000000000000000000000000000000000000815273ffffffffffffffffffffffffffffffffffffffff808616948201949094529051849390921691637ccce851916024808201926020929091908290030181600087803b15801561272557600080fd5b505af1158015612739573d6000803e3d6000fd5b505050506040513d602081101561274f57600080fd5b505115156127be57604080517f08c379a000000000000000000000000000000000000000000000000000000000815260206004820152601860248201527f55736572206d75737420626520626c61636b6c69737465640000000000000000604482015290519081900360640190fd5b60035474010000000000000000000000000000000000000000900460ff16156127e657600080fd5b60048054604080517f14db6d580000000000000000000000000000000000000000000000000000000081523393810193909352600080357fffffffff00000000000000000000000000000000000000000000000000000000166024850152905173ffffffffffffffffffffffffffffffffffffffff909216926314db6d589260448083019360209383900390910190829087803b15801561288657600080fd5b505af115801561289a573d6000803e3d6000fd5b505050506040513d60208110156128b057600080fd5b5051151561294557604080517f08c379a000000000000000000000000000000000000000000000000000000000815260206004820152603160248201527f5573657220646f6573206e6f742068617665207065726d697373696f6e20746f60448201527f20657865637574652066756e6374696f6e000000000000000000000000000000606482015290519081900360840190fd5b60065473ffffffffffffffffffffffffffffffffffffffff1663da46098c833361296e82612c4b565b604080517c010000000000000000000000000000000000000000000000000000000063ffffffff871602815273ffffffffffffffffffffffffffffffffffffffff948516600482015292909316602483015260448201529051606480830192600092919082900301818387803b1580156129e757600080fd5b505af11580156129fb573d6000803e3d6000fd5b50339250505073ffffffffffffffffffffffffffffffffffffffff83167f3b1ffca3903932aa264fbb5b7b381746e2b7b61c9c5a6024bad48d23f958a6c2612a4285612c4b565b60408051918252519081900360200190a35050565b60005473ffffffffffffffffffffffffffffffffffffffff163314612a7b57600080fd5b60035474010000000000000000000000000000000000000000900460ff1615612aa357600080fd5b600354604080517f3af32abf00000000000000000000000000000000000000000000000000000000815273ffffffffffffffffffffffffffffffffffffffff848116600483015291519190921691633af32abf9160248083019260209291908290030181600087803b158015612b1857600080fd5b505af1158015612b2c573d6000803e3d6000fd5b505050506040513d6020811015612b4257600080fd5b50511515612bd757604080517f08c379a000000000000000000000000000000000000000000000000000000000815260206004820152603e60248201527f537461626c65636f696e206d7573742062652077686974656c6973746564207060448201527f72696f7220746f2073657474696e6720636f6e76657273696f6e206665650000606482015290519081900360840190fd5b600254604080517f6ad2661100000000000000000000000000000000000000000000000000000000815273ffffffffffffffffffffffffffffffffffffffff848116600483015291519190921691636ad2661191602480830192600092919082900301818387803b15801561153657600080fd5b600554604080517f70a0823100000000000000000000000000000000000000000000000000000000815273ffffffffffffffffffffffffffffffffffffffff8481166004830152915160009392909216916370a082319160248082019260209290919082900301818787803b158015611df557600080fd5b6000805473ffffffffffffffffffffffffffffffffffffffff163314612ce857600080fd5b60055473ffffffffffffffffffffffffffffffffffffffff83811691161415612d7257604080517f08c379a000000000000000000000000000000000000000000000000000000000815260206004820152601b60248201527f4d7573742062652061206e65772062616c616e63652073686565740000000000604482015290519081900360640190fd5b612d7b826154e7565b1515612e0e57604080517f08c379a000000000000000000000000000000000000000000000000000000000815260206004820152603860248201527f43616e6e6f7420736574206120726567756c61746f722073746f72616765207460448201527f6f2061206e6f6e2d636f6e747261637420616464726573730000000000000000606482015290519081900360840190fd5b506005805473ffffffffffffffffffffffffffffffffffffffff8381167fffffffffffffffffffffffff0000000000000000000000000000000000000000831681179093556040805191909216808252602082019390935281517f8c3d37b41e983f0d5b0b91de3f9d5055c73a17beebc7adfce9b677ab7c07ad2d929181900390910190a15050565b60055473ffffffffffffffffffffffffffffffffffffffff1681565b60005473ffffffffffffffffffffffffffffffffffffffff163314612ed757600080fd5b60035474010000000000000000000000000000000000000000900460ff1615612eff57600080fd5b600380547fffffffffffffffffffffff00ffffffffffffffffffffffffffffffffffffffff16740100000000000000000000000000000000000000001790556040517f6985a02210a168e66602d3235cb6db0e70f92b3ba4d376a33c0f3d9434bff62590600090a1565b600254604080517fcfc9733c00000000000000000000000000000000000000000000000000000000815273ffffffffffffffffffffffffffffffffffffffff84811660048301529151600093929092169163cfc9733c9160248082019260209290919082900301818787803b158015612fe157600080fd5b505af1158015612ff5573d6000803e3d6000fd5b505050506040513d602081101561300b57600080fd5b5051156130ba57600254604080517ffaaebd2100000000000000000000000000000000000000000000000000000000815273ffffffffffffffffffffffffffffffffffffffff85811660048301529151919092169163faaebd219160248083019260209291908290030181600087803b15801561308757600080fd5b505af115801561309b573d6000803e3d6000fd5b505050506040513d60208110156130b157600080fd5b50519050611e24565b600260009054906101000a900473ffffffffffffffffffffffffffffffffffffffff1673ffffffffffffffffffffffffffffffffffffffff16635a6c72d06040518163ffffffff167c0100000000000000000000000000000000000000000000000000000000028152600401602060405180830381600087803b158015611df557600080fd5b6003547501000000000000000000000000000000000000000000900460ff1681565b600560009054906101000a900473ffffffffffffffffffffffffffffffffffffffff1673ffffffffffffffffffffffffffffffffffffffff16634e71e0c86040518163ffffffff167c0100000000000000000000000000000000000000000000000000000000028152600401600060405180830381600087803b158015611d6357600080fd5b60005473ffffffffffffffffffffffffffffffffffffffff1681565b600260009054906101000a900473ffffffffffffffffffffffffffffffffffffffff1673ffffffffffffffffffffffffffffffffffffffff16634e71e0c86040518163ffffffff167c0100000000000000000000000000000000000000000000000000000000028152600401600060405180830381600087803b158015611d6357600080fd5b600660009054906101000a900473ffffffffffffffffffffffffffffffffffffffff1673ffffffffffffffffffffffffffffffffffffffff16634e71e0c86040518163ffffffff167c0100000000000000000000000000000000000000000000000000000000028152600401600060405180830381600087803b158015611d6357600080fd5b60005473ffffffffffffffffffffffffffffffffffffffff16331461333457600080fd5b600380547fffffffffffffffffffff00ffffffffffffffffffffffffffffffffffffffffff1675010000000000000000000000000000000000000000001790556040517f19aad37188a1d3921e29eb3c66acf43d81975e107cb650d58cca878627955fd690600090a1565b60048054604080517f7ccce85100000000000000000000000000000000000000000000000000000000815273ffffffffffffffffffffffffffffffffffffffff80871694820194909452905160009386931691637ccce85191602480830192602092919082900301818887803b15801561341857600080fd5b505af115801561342c573d6000803e3d6000fd5b505050506040513d602081101561344257600080fd5b5051156134b057604080517f08c379a000000000000000000000000000000000000000000000000000000000815260206004820152601c60248201527f55736572206d757374206e6f7420626520626c61636b6c697374656400000000604482015290519081900360640190fd5b60048054604080517f7ccce85100000000000000000000000000000000000000000000000000000000815233938101849052905173ffffffffffffffffffffffffffffffffffffffff90921691637ccce851916024808201926020929091908290030181600087803b15801561352557600080fd5b505af1158015613539573d6000803e3d6000fd5b505050506040513d602081101561354f57600080fd5b5051156135bd57604080517f08c379a000000000000000000000000000000000000000000000000000000000815260206004820152601c60248201527f55736572206d757374206e6f7420626520626c61636b6c697374656400000000604482015290519081900360640190fd5b60035474010000000000000000000000000000000000000000900460ff16156135e557600080fd5b73ffffffffffffffffffffffffffffffffffffffff8516151561366957604080517f08c379a000000000000000000000000000000000000000000000000000000000815260206004820152601860248201527f746f20616464726573732063616e6e6f74206265203078300000000000000000604482015290519081900360640190fd5b61367233612c4b565b8411156136e057604080517f08c379a000000000000000000000000000000000000000000000000000000000815260206004820152601e60248201527f6e6f7420656e6f7567682062616c616e636520746f207472616e736665720000604482015290519081900360640190fd5b600554604080517fcf8eeb7e00000000000000000000000000000000000000000000000000000000815233600482015260248101879052905173ffffffffffffffffffffffffffffffffffffffff9092169163cf8eeb7e9160448082019260009290919082900301818387803b15801561375957600080fd5b505af115801561376d573d6000803e3d6000fd5b5050600554604080517f21e5383a00000000000000000000000000000000000000000000000000000000815273ffffffffffffffffffffffffffffffffffffffff8a81166004830152602482018a905291519190921693506321e5383a9250604480830192600092919082900301818387803b1580156137ec57600080fd5b505af1158015613800573d6000803e3d6000fd5b505060408051878152905173ffffffffffffffffffffffffffffffffffffffff891693503392507fddf252ad1be2c89b69c2b068fc378daa952ba7f163c4a11628f55a4df523b3ef9181900360200190a3506001949350505050565b60005473ffffffffffffffffffffffffffffffffffffffff16331461388057600080fd5b60035474010000000000000000000000000000000000000000900460ff16156138a857600080fd5b600354604080517f3b947d2b00000000000000000000000000000000000000000000000000000000815273ffffffffffffffffffffffffffffffffffffffff848116600483015291519190921691633b947d2b91602480830192600092919082900301818387803b15801561153657600080fd5b600254604080517ffaaebd2100000000000000000000000000000000000000000000000000000000815273ffffffffffffffffffffffffffffffffffffffff84811660048301529151600093929092169163faaebd219160248082019260209290919082900301818787803b158015611df557600080fd5b60048054604080517f14db6d580000000000000000000000000000000000000000000000000000000081523393810193909352600080357fffffffff00000000000000000000000000000000000000000000000000000000166024850152905190928392839273ffffffffffffffffffffffffffffffffffffffff909116916314db6d5891604480830192602092919082900301818787803b158015613a3957600080fd5b505af1158015613a4d573d6000803e3d6000fd5b505050506040513d6020811015613a6357600080fd5b50511515613af857604080517f08c379a000000000000000000000000000000000000000000000000000000000815260206004820152603160248201527f5573657220646f6573206e6f742068617665207065726d697373696f6e20746f60448201527f20657865637574652066756e6374696f6e000000000000000000000000000000606482015290519081900360840190fd5b60035474010000000000000000000000000000000000000000900460ff1615613b2057600080fd5b600354604080517f3af32abf00000000000000000000000000000000000000000000000000000000815273ffffffffffffffffffffffffffffffffffffffff888116600483015291519190921691633af32abf9160248083019260209291908290030181600087803b158015613b9557600080fd5b505af1158015613ba9573d6000803e3d6000fd5b505050506040513d6020811015613bbf57600080fd5b50511515613c5457604080517f08c379a000000000000000000000000000000000000000000000000000000000815260206004820152603e60248201527f537461626c65636f696e206d7573742062652077686974656c6973746564207060448201527f72696f7220746f2073657474696e6720636f6e76657273696f6e206665650000606482015290519081900360840190fd5b604080517f70a082310000000000000000000000000000000000000000000000000000000081523060048201529051869450859173ffffffffffffffffffffffffffffffffffffffff8616916370a08231916024808201926020929091908290030181600087803b158015613cc857600080fd5b505af1158015613cdc573d6000803e3d6000fd5b505050506040513d6020811015613cf257600080fd5b50511015613dad57604080517f08c379a000000000000000000000000000000000000000000000000000000000815260206004820152604360248201527f436172626f6e20657363726f77206163636f756e7420696e2057543020646f6560448201527f736e2774206861766520656e6f75676820746f6b656e7320666f72206275726e60648201527f696e670000000000000000000000000000000000000000000000000000000000608482015290519081900360a40190fd5b60025473ffffffffffffffffffffffffffffffffffffffff16632ff284c285613dd588612f69565b6040518363ffffffff167c01000000000000000000000000000000000000000000000000000000000281526004018083815260200182815260200192505050602060405180830381600087803b158015613e2e57600080fd5b505af1158015613e42573d6000803e3d6000fd5b505050506040513d6020811015613e5857600080fd5b50519150613e6c848363ffffffff614e4316565b9050613e783385614e55565b8273ffffffffffffffffffffffffffffffffffffffff166342966c68856040518263ffffffff167c010000000000000000000000000000000000000000000000000000000002815260040180828152602001915050600060405180830381600087803b158015613ee757600080fd5b505af1158015613efb573d6000803e3d6000fd5b50505050613f093083615088565b6040805182815260208101849052815133927f8a1387ce462b7423a12c936187028c782512f204b670218701c0d35e92bc0527928290030190a25050505050565b6000805473ffffffffffffffffffffffffffffffffffffffff163314613f6f57600080fd5b60065473ffffffffffffffffffffffffffffffffffffffff83811691161415613ff957604080517f08c379a000000000000000000000000000000000000000000000000000000000815260206004820152601b60248201527f4d7573742062652061206e65772073746f726167652073686565740000000000604482015290519081900360640190fd5b614002826154e7565b151561409557604080517f08c379a000000000000000000000000000000000000000000000000000000000815260206004820152603860248201527f43616e6e6f7420736574206120726567756c61746f722073746f72616765207460448201527f6f2061206e6f6e2d636f6e747261637420616464726573730000000000000000606482015290519081900360840190fd5b506006805473ffffffffffffffffffffffffffffffffffffffff8381167fffffffffffffffffffffffff0000000000000000000000000000000000000000831681179093556040805191909216808252602082019390935281517fec358425c40511d576e1c52be7593403bceacda627234c873b52589fef7b2359929181900390910190a15050565b60048054604080517f7ccce85100000000000000000000000000000000000000000000000000000000815273ffffffffffffffffffffffffffffffffffffffff808716948201949094529051859390921691637ccce851916024808201926020929091908290030181600087803b15801561419857600080fd5b505af11580156141ac573d6000803e3d6000fd5b505050506040513d60208110156141c257600080fd5b5051151561423157604080517f08c379a000000000000000000000000000000000000000000000000000000000815260206004820152601860248201527f55736572206d75737420626520626c61636b6c69737465640000000000000000604482015290519081900360640190fd5b60035474010000000000000000000000000000000000000000900460ff161561425957600080fd5b60048054604080517f14db6d580000000000000000000000000000000000000000000000000000000081523393810193909352600080357fffffffff00000000000000000000000000000000000000000000000000000000166024850152905173ffffffffffffffffffffffffffffffffffffffff909216926314db6d589260448083019360209383900390910190829087803b1580156142f957600080fd5b505af115801561430d573d6000803e3d6000fd5b505050506040513d602081101561432357600080fd5b505115156143b857604080517f08c379a000000000000000000000000000000000000000000000000000000000815260206004820152603160248201527f5573657220646f6573206e6f742068617665207065726d697373696f6e20746f60448201527f20657865637574652066756e6374696f6e000000000000000000000000000000606482015290519081900360840190fd5b600554604080517fcf8eeb7e00000000000000000000000000000000000000000000000000000000815273ffffffffffffffffffffffffffffffffffffffff8681166004830152602482018690529151919092169163cf8eeb7e91604480830192600092919082900301818387803b15801561443357600080fd5b505af1158015614447573d6000803e3d6000fd5b5050600554604080517f82838c7600000000000000000000000000000000000000000000000000000000815260048101879052905173ffffffffffffffffffffffffffffffffffffffff90921693506382838c76925060248082019260009290919082900301818387803b1580156144be57600080fd5b505af11580156144d2573d6000803e3d6000fd5b505060408051858152905173ffffffffffffffffffffffffffffffffffffffff871693507fb81d1dffb753076892e04e6e1234d137b031f70d859c299876b0486e966424fd92509081900360200190a2505050565b60005473ffffffffffffffffffffffffffffffffffffffff16331461454b57600080fd5b60035474010000000000000000000000000000000000000000900460ff161561457357600080fd5b600254604080517fc93a6c8400000000000000000000000000000000000000000000000000000000815260048101849052905173ffffffffffffffffffffffffffffffffffffffff9092169163c93a6c849160248082019260009290919082900301818387803b15801561153657600080fd5b6000805473ffffffffffffffffffffffffffffffffffffffff16331461460b57600080fd5b60045473ffffffffffffffffffffffffffffffffffffffff8381169116141561469557604080517f08c379a000000000000000000000000000000000000000000000000000000000815260206004820152601760248201527f4d7573742062652061206e657720726567756c61746f72000000000000000000604482015290519081900360640190fd5b61469e826154e7565b151561473157604080517f08c379a000000000000000000000000000000000000000000000000000000000815260206004820152603860248201527f43616e6e6f7420736574206120726567756c61746f722073746f72616765207460448201527f6f2061206e6f6e2d636f6e747261637420616464726573730000000000000000606482015290519081900360840190fd5b506004805473ffffffffffffffffffffffffffffffffffffffff8381167fffffffffffffffffffffffff0000000000000000000000000000000000000000831681179093556040805191909216808252602082019390935281517f4a59b4b607c6055b37a4716d7813d7d4d2c288e4d0dd8298e365b260a1f262e8929181900390910190a15050565b60005473ffffffffffffffffffffffffffffffffffffffff1633146147de57600080fd5b6121de816154ef565b60048054604080517f7ccce85100000000000000000000000000000000000000000000000000000000815273ffffffffffffffffffffffffffffffffffffffff80871694820194909452905160009386931691637ccce85191602480830192602092919082900301818887803b15801561486057600080fd5b505af1158015614874573d6000803e3d6000fd5b505050506040513d602081101561488a57600080fd5b5051156148f857604080517f08c379a000000000000000000000000000000000000000000000000000000000815260206004820152601c60248201527f55736572206d757374206e6f7420626520626c61636b6c697374656400000000604482015290519081900360640190fd5b60048054604080517f7ccce85100000000000000000000000000000000000000000000000000000000815233938101849052905173ffffffffffffffffffffffffffffffffffffffff90921691637ccce851916024808201926020929091908290030181600087803b15801561496d57600080fd5b505af1158015614981573d6000803e3d6000fd5b505050506040513d602081101561499757600080fd5b505115614a0557604080517f08c379a000000000000000000000000000000000000000000000000000000000815260206004820152601c60248201527f55736572206d757374206e6f7420626520626c61636b6c697374656400000000604482015290519081900360640190fd5b60035474010000000000000000000000000000000000000000900460ff1615614a2d57600080fd5b6126a0858533615690565b60025473ffffffffffffffffffffffffffffffffffffffff1681565b600654604080517f1a46ec8200000000000000000000000000000000000000000000000000000000815273ffffffffffffffffffffffffffffffffffffffff8581166004830152848116602483015291516000939290921691631a46ec829160448082019260209290919082900301818787803b1580156113a657600080fd5b60045473ffffffffffffffffffffffffffffffffffffffff1681565b60035473ffffffffffffffffffffffffffffffffffffffff1681565b60015473ffffffffffffffffffffffffffffffffffffffff1681565b60005473ffffffffffffffffffffffffffffffffffffffff163314614b4c57600080fd5b60035474010000000000000000000000000000000000000000900460ff1615614b7457600080fd5b600354604080517f3af32abf00000000000000000000000000000000000000000000000000000000815273ffffffffffffffffffffffffffffffffffffffff858116600483015291519190921691633af32abf9160248083019260209291908290030181600087803b158015614be957600080fd5b505af1158015614bfd573d6000803e3d6000fd5b505050506040513d6020811015614c1357600080fd5b50511515614ca857604080517f08c379a000000000000000000000000000000000000000000000000000000000815260206004820152603e60248201527f537461626c65636f696e206d7573742062652077686974656c6973746564207060448201527f72696f7220746f2073657474696e6720636f6e76657273696f6e206665650000606482015290519081900360840190fd5b600254604080517fe55156b500000000000000000000000000000000000000000000000000000000815273ffffffffffffffffffffffffffffffffffffffff8581166004830152602482018590529151919092169163e55156b591604480830192600092919082900301818387803b158015614d2357600080fd5b505af1158015614d37573d6000803e3d6000fd5b505050505050565b60005473ffffffffffffffffffffffffffffffffffffffff163314614d6357600080fd5b73ffffffffffffffffffffffffffffffffffffffff81161515614d8557600080fd5b600180547fffffffffffffffffffffffff00000000000000000000000000000000000000001673ffffffffffffffffffffffffffffffffffffffff92909216919091179055565b60005473ffffffffffffffffffffffffffffffffffffffff163314614df057600080fd5b600380547fffffffffffffffffffff00ffffffffffffffffffffffffffffffffffffffffff1690556040517f0f2e5b6c72c6a4491efd919a9f9a409f324ef0708c11ee57d410c2cb06c0992b90600090a1565b600082821115614e4f57fe5b50900390565b614e5e82612c4b565b811115614ecc57604080517f08c379a000000000000000000000000000000000000000000000000000000000815260206004820152601a60248201527f6e6f7420656e6f7567682062616c616e636520746f206275726e000000000000604482015290519081900360640190fd5b600554604080517fcf8eeb7e00000000000000000000000000000000000000000000000000000000815273ffffffffffffffffffffffffffffffffffffffff8581166004830152602482018590529151919092169163cf8eeb7e91604480830192600092919082900301818387803b158015614f4757600080fd5b505af1158015614f5b573d6000803e3d6000fd5b5050600554604080517f82838c7600000000000000000000000000000000000000000000000000000000815260048101869052905173ffffffffffffffffffffffffffffffffffffffff90921693506382838c76925060248082019260009290919082900301818387803b158015614fd257600080fd5b505af1158015614fe6573d6000803e3d6000fd5b505060408051848152905173ffffffffffffffffffffffffffffffffffffffff861693507fcc16f5dbb4873280815c1ee09dbd06736cffcc184412cf7a71a0fdb75d397ca592509081900360200190a260408051828152905160009173ffffffffffffffffffffffffffffffffffffffff8516917fddf252ad1be2c89b69c2b068fc378daa952ba7f163c4a11628f55a4df523b3ef9181900360200190a35050565b6120498282615811565b60025460009073ffffffffffffffffffffffffffffffffffffffff8381169116141561511f57604080517f08c379a000000000000000000000000000000000000000000000000000000000815260206004820152601760248201527f4d7573742062652061206e657720666565207368656574000000000000000000604482015290519081900360640190fd5b615128826154e7565b151561519557604080517f08c379a000000000000000000000000000000000000000000000000000000000815260206004820152601a60248201527f4d75737420626520616e2061637475616c20636f6e7472616374000000000000604482015290519081900360640190fd5b506002805473ffffffffffffffffffffffffffffffffffffffff8381167fffffffffffffffffffffffff0000000000000000000000000000000000000000831681179093556040519116919082907ffa50850a9a205a6eab44ae568df104b00a5fd26ba0ded7dd81d4879c6a27d29b90600090a35050565b600654604080517f1a46ec8200000000000000000000000000000000000000000000000000000000815273ffffffffffffffffffffffffffffffffffffffff8481166004830152868116602483015291516000939290921691631a46ec829160448082019260209290919082900301818787803b15801561528d57600080fd5b505af11580156152a1573d6000803e3d6000fd5b505050506040513d60208110156152b757600080fd5b505190508083111561536157600654604080517fda46098c00000000000000000000000000000000000000000000000000000000815273ffffffffffffffffffffffffffffffffffffffff85811660048301528781166024830152600060448301819052925193169263da46098c9260648084019391929182900301818387803b15801561534457600080fd5b505af1158015615358573d6000803e3d6000fd5b505050506153fd565b600654604080517f97d88cd200000000000000000000000000000000000000000000000000000000815273ffffffffffffffffffffffffffffffffffffffff8581166004830152878116602483015260448201879052915191909216916397d88cd291606480830192600092919082900301818387803b1580156153e457600080fd5b505af11580156153f8573d6000803e3d6000fd5b505050505b600654604080517f1a46ec8200000000000000000000000000000000000000000000000000000000815273ffffffffffffffffffffffffffffffffffffffff85811660048301819052888216602484018190529351939490937f8c5be1e5ebec7d5bd14f71427d1e84f3dd0314c0f7b2291e5b200ac8c7c3b925939290911691631a46ec829160448083019260209291908290030181600087803b1580156154a457600080fd5b505af11580156154b8573d6000803e3d6000fd5b505050506040513d60208110156154ce57600080fd5b505160408051918252519081900360200190a350505050565b6000903b1190565b60035460009073ffffffffffffffffffffffffffffffffffffffff838116911614156155a257604080517f08c379a000000000000000000000000000000000000000000000000000000000815260206004820152602260248201527f4d7573742062652061206e657720737461626c65636f696e2077686974656c6960448201527f7374000000000000000000000000000000000000000000000000000000000000606482015290519081900360840190fd5b6155ab826154e7565b151561561857604080517f08c379a000000000000000000000000000000000000000000000000000000000815260206004820152601a60248201527f4d75737420626520616e2061637475616c20636f6e7472616374000000000000604482015290519081900360640190fd5b506003805473ffffffffffffffffffffffffffffffffffffffff8381167fffffffffffffffffffffffff0000000000000000000000000000000000000000831681179093556040519116919082907f9d4cc8ae350dd03b669fc5b6d399ea6b56438abd19c07b3e71abd09552bafe3490600090a35050565b600654604080517f5fd72d1600000000000000000000000000000000000000000000000000000000815273ffffffffffffffffffffffffffffffffffffffff848116600483015286811660248301526044820186905291519190921691635fd72d1691606480830192600092919082900301818387803b15801561571357600080fd5b505af1158015615727573d6000803e3d6000fd5b5050600654604080517f1a46ec8200000000000000000000000000000000000000000000000000000000815273ffffffffffffffffffffffffffffffffffffffff86811660048301819052818a1660248401819052935193965094507f8c5be1e5ebec7d5bd14f71427d1e84f3dd0314c0f7b2291e5b200ac8c7c3b925931691631a46ec82916044808201926020929091908290030181600087803b1580156157cf57600080fd5b505af11580156157e3573d6000803e3d6000fd5b505050506040513d60208110156157f957600080fd5b505160408051918252519081900360200190a3505050565b60048054604080517fd88c271e00000000000000000000000000000000000000000000000000000000815273ffffffffffffffffffffffffffffffffffffffff80871694820194909452905185939092169163d88c271e916024808201926020929091908290030181600087803b15801561588b57600080fd5b505af115801561589f573d6000803e3d6000fd5b505050506040513d60208110156158b557600080fd5b5051151561592457604080517f08c379a000000000000000000000000000000000000000000000000000000000815260206004820152601860248201527f55736572206d7573742062652077686974656c69737465640000000000000000604482015290519081900360640190fd5b600554604080517fe468688e00000000000000000000000000000000000000000000000000000000815260048101859052905173ffffffffffffffffffffffffffffffffffffffff9092169163e468688e9160248082019260009290919082900301818387803b15801561599757600080fd5b505af11580156159ab573d6000803e3d6000fd5b5050600554604080517f21e5383a00000000000000000000000000000000000000000000000000000000815273ffffffffffffffffffffffffffffffffffffffff88811660048301526024820188905291519190921693506321e5383a9250604480830192600092919082900301818387803b158015615a2a57600080fd5b505af1158015615a3e573d6000803e3d6000fd5b505060408051858152905173ffffffffffffffffffffffffffffffffffffffff871693507f0f6798a560793a54c3bcfe86a93cde1e73087d944c0ea20544137d412139688592509081900360200190a260408051838152905173ffffffffffffffffffffffffffffffffffffffff8516916000917fddf252ad1be2c89b69c2b068fc378daa952ba7f163c4a11628f55a4df523b3ef9181900360200190a35050505600a165627a7a72305820fb31c1cb5bbba4732c79d4c993b4e3b54be62046b8213b3414cc2b9d85b3fa440029",
  "source": "pragma solidity ^0.4.24;\r\n\r\nimport \"./dataStorage/MutableCarbonDollarStorage.sol\";\r\nimport \"../permissionedToken/PermissionedToken.sol\";\r\nimport \"../whitelistedToken/WhitelistedToken.sol\";\r\n\r\n/**\r\n* @title CarbonDollar\r\n* @notice The main functionality for the CarbonUSD metatoken. (CarbonUSD is just a proxy\r\n* that implements this contract's functionality.) This is a permissioned token, so users have to be \r\n* whitelisted before they can do any mint/burn/convert operation. Every CarbonDollar token is backed by one\r\n* whitelisted stablecoin credited to the balance of this contract address.\r\n*/\r\ncontract CarbonDollar is MutableCarbonDollarStorage, PermissionedToken {\r\n    // Events\r\n\r\n    event ConvertedToWT(address indexed user, uint256 amount);\r\n    event BurnedCUSD(address indexed user, uint256 feedAmount, uint256 chargedFee);\r\n    \r\n    /**\r\n        Modifiers\r\n    */\r\n    modifier requiresWhitelistedToken() {\r\n        require(stablecoinWhitelist.isWhitelisted(msg.sender), \"Sender must be a whitelisted token contract\");\r\n        _;\r\n    }\r\n\r\n    /** CONSTRUCTOR\r\n    * @dev Passes along arguments to base class.\r\n    * @param _regulator the Regulator, should be a CarbonDollarRegulator \r\n    * @param _balances BalanceSheet\r\n    * @param _allowances AllowanceSheet\r\n    * @param _fees FeeSheet\r\n    * @param _stablecoins StablecoinWhitelist\r\n    */\r\n    constructor(address _regulator, address _balances, address _allowances, address _fees, address _stablecoins) public\r\n    PermissionedToken(_regulator, _balances, _allowances) \r\n    MutableCarbonDollarStorage(_fees, _stablecoins) {}\r\n\r\n    /**\r\n     * @notice Add new stablecoin to whitelist.\r\n     * @param _stablecoin Address of stablecoin contract.\r\n     */\r\n    function listToken(address _stablecoin) public onlyOwner whenNotPaused {\r\n        stablecoinWhitelist.addStablecoin(_stablecoin); \r\n    }\r\n\r\n    /**\r\n     * @notice Remove existing stablecoin from whitelist.\r\n     * @param _stablecoin Address of stablecoin contract.\r\n     */\r\n    function unlistToken(address _stablecoin) public onlyOwner whenNotPaused {\r\n        stablecoinWhitelist.removeStablecoin(_stablecoin);\r\n    }\r\n\r\n    /**\r\n     * @notice Change fees associated with going from CarbonUSD to a particular stablecoin.\r\n     * @param stablecoin Address of the stablecoin contract.\r\n     * @param _newFee The new fee rate to set, in tenths of a percent. \r\n     */\r\n    function setFee(address stablecoin, uint256 _newFee) public onlyOwner whenNotPaused {\r\n        require(stablecoinWhitelist.isWhitelisted(stablecoin), \"Stablecoin must be whitelisted prior to setting conversion fee\");\r\n        stablecoinFees.setFee(stablecoin, _newFee);\r\n    }\r\n\r\n    /**\r\n     * @notice Remove fees associated with going from CarbonUSD to a particular stablecoin.\r\n     * The default fee still may apply.\r\n     * @param stablecoin Address of the stablecoin contract.\r\n     */\r\n    function removeFee(address stablecoin) public onlyOwner whenNotPaused {\r\n        require(stablecoinWhitelist.isWhitelisted(stablecoin), \"Stablecoin must be whitelisted prior to setting conversion fee\");\r\n        stablecoinFees.removeFee(stablecoin);\r\n    }\r\n\r\n    /**\r\n     * @notice Change the default fee associated with going from CarbonUSD to a WhitelistedToken.\r\n     * This fee amount is used if the fee for a WhitelistedToken is not specified.\r\n     * @param _newFee The new fee rate to set, in tenths of a percent.\r\n     */\r\n    function setDefaultFee(uint256 _newFee) public onlyOwner whenNotPaused {\r\n        stablecoinFees.setDefaultFee(_newFee);\r\n    }\r\n\r\n    /**\r\n     * @notice Mints CUSD on behalf of a user. Note the use of the \"requiresWhitelistedToken\"\r\n     * modifier; this means that minting authority does not belong to any personal account; \r\n     * only whitelisted token contracts can call this function. The intended functionality is that the only\r\n     * way to mint CUSD is for the user to actually burn a whitelisted token to convert into CUSD\r\n     * @param _to User to send CUSD to\r\n     * @param _amount Amount of CarbonUSD to burn.\r\n     */\r\n    function mint(address _to, uint256 _amount) public requiresWhitelistedToken whenNotPaused {\r\n        _mint(_to, _amount);\r\n    }\r\n\r\n    /**\r\n     * @notice user can convert CarbonUSD umbrella token into a whitelisted stablecoin. \r\n     * @param stablecoin represents the type of coin the users wishes to receive for burning carbonUSD\r\n     * @param _amount Amount of CarbonUSD to convert.\r\n     * we credit the user's account at the sender address with the _amount minus the percentage fee we want to charge.\r\n     */\r\n    function convertCarbonDollar(address stablecoin, uint256 _amount) public requiresPermission whenNotPaused  {\r\n        require(stablecoinWhitelist.isWhitelisted(stablecoin), \"Stablecoin must be whitelisted prior to setting conversion fee\");\r\n        WhitelistedToken whitelisted = WhitelistedToken(stablecoin);\r\n        require(whitelisted.balanceOf(address(this)) >= _amount, \"Carbon escrow account in WT0 doesn't have enough tokens for burning\");\r\n \r\n        // Send back WT0 to calling user, but with a fee reduction.\r\n        // Transfer this fee into the whitelisted token's CarbonDollar account (this contract's address)\r\n        uint256 chargedFee = stablecoinFees.computeFee(_amount, computeFeeRate(stablecoin));\r\n        uint256 feedAmount = _amount.sub(chargedFee);\r\n        _burn(msg.sender, _amount);\r\n        require(whitelisted.transfer(msg.sender, feedAmount));\r\n        whitelisted.burn(chargedFee);\r\n        _mint(address(this), chargedFee);\r\n        emit ConvertedToWT(msg.sender, _amount);\r\n    }\r\n\r\n     /**\r\n     * @notice burns CarbonDollar and an equal amount of whitelisted stablecoin from the CarbonDollar address\r\n     * @param stablecoin Represents the stablecoin whose fee will be charged.\r\n     * @param _amount Amount of CarbonUSD to burn.\r\n     */\r\n    function burnCarbonDollar(address stablecoin, uint256 _amount) public requiresPermission whenNotPaused {\r\n        require(stablecoinWhitelist.isWhitelisted(stablecoin), \"Stablecoin must be whitelisted prior to setting conversion fee\");\r\n        WhitelistedToken whitelisted = WhitelistedToken(stablecoin);\r\n        require(whitelisted.balanceOf(address(this)) >= _amount, \"Carbon escrow account in WT0 doesn't have enough tokens for burning\");\r\n \r\n        // Burn user's CUSD, but with a fee reduction.\r\n        uint256 chargedFee = stablecoinFees.computeFee(_amount, computeFeeRate(stablecoin));\r\n        uint256 feedAmount = _amount.sub(chargedFee);\r\n        _burn(msg.sender, _amount);\r\n        whitelisted.burn(_amount);\r\n        _mint(address(this), chargedFee);\r\n        emit BurnedCUSD(msg.sender, feedAmount, chargedFee); // Whitelisted trust account should send user feedAmount USD\r\n    }\r\n\r\n    /** Computes fee percentage associated with burning into a particular stablecoin.\r\n     * @param stablecoin The stablecoin whose fee will be charged. Precondition: is a whitelisted\r\n     * stablecoin.\r\n     * @return The fee that will be charged. If the stablecoin's fee is not set, the default\r\n     * fee is returned.\r\n     */\r\n    function computeFeeRate(address stablecoin) public view returns (uint256 feeRate) {\r\n        if (stablecoinFees.isFeeSet(stablecoin)) // If fee for coin is not set\r\n            feeRate = stablecoinFees.fees(stablecoin);\r\n        else\r\n            feeRate = stablecoinFees.defaultFee();\r\n    }\r\n\r\n    /**\r\n     * @notice Compute the fee for converting a particular amount of CarbonUSD to a specific WhitelistedToken.\r\n     * @param amount The amount that the fee will be charged on.\r\n     * @param stablecoin The stablecoin to check fees for.\r\n     * @return The fee charged on the amount for the specified whitelisted token.\r\n     */\r\n    function computeStablecoinFee(uint256 amount, address stablecoin) public view returns (uint256) {\r\n        return stablecoinFees.computeStablecoinFee(amount, stablecoin);\r\n    }\r\n\r\n    /**\r\n     * @notice Indicate if stablecoin is whitelisted or not.\r\n     * @param _stablecoin Address of stablecoin contract.\r\n     * @return Whether or not the stablecoin is on the whitelist.\r\n     */\r\n    function isWhitelisted(address _stablecoin) public view returns (bool) {\r\n        return stablecoinWhitelist.isWhitelisted(_stablecoin);\r\n    }\r\n\r\n    /**\r\n     * @notice Get the fee associated with going from CarbonUSD to a specific WhitelistedToken.\r\n     * @param stablecoin The stablecoin whose fee is being checked.\r\n     * @return The fee associated with the stablecoin.\r\n     */\r\n    function getFee(address stablecoin) public view returns (uint256) {\r\n        return stablecoinFees.fees(stablecoin);\r\n    }\r\n\r\n    /**\r\n     * @notice Get the default fee associated with going from CarbonUSD to a specific WhitelistedToken.\r\n     * @return The default fee for stablecoin trades.\r\n     */\r\n    function getDefaultFee() public view returns (uint256) {\r\n        return stablecoinFees.defaultFee();\r\n    }\r\n\r\n\r\n    function _mint(address _to, uint256 _amount) internal {\r\n        super._mint(_to, _amount);\r\n    }\r\n\r\n}",
  "sourcePath": "C:\\Users\\npain\\Projects\\Carbon\\fiat_gateway\\contracts\\tokens\\carbonToken\\CarbonDollar.sol",
  "compiler": {
    "name": "solc",
    "version": "0.4.24+commit.e67f0147.Emscripten.clang"
  },
  "schemaVersion": "2.0.1",
  "updatedAt": "2018-08-18T21:52:41.876Z"
}