{
  "contractName": "CarbonDollarStorage",
  "abi": [
    {
      "constant": true,
      "inputs": [],
      "name": "stablecoinFees",
      "outputs": [
        {
          "name": "",
          "type": "address"
        }
      ],
      "payable": false,
      "stateMutability": "view",
      "type": "function"
    },
    {
      "constant": true,
      "inputs": [],
      "name": "stablecoinWhitelist",
      "outputs": [
        {
          "name": "",
          "type": "address"
        }
      ],
      "payable": false,
      "stateMutability": "view",
      "type": "function"
    },
    {
      "inputs": [
        {
          "name": "feeSheet",
          "type": "address"
        },
        {
          "name": "whitelist",
          "type": "address"
        }
      ],
      "payable": false,
      "stateMutability": "nonpayable",
      "type": "constructor"
    }
  ],
  "bytecode": "0x608060405234801561001057600080fd5b5060405160408061016483398101604052805160209091015160008054600160a060020a03938416600160a060020a0319918216179091556001805493909216921691909117905560fe806100666000396000f30060806040526004361060485763ffffffff7c0100000000000000000000000000000000000000000000000000000000600035041663d96515668114604d578063e14852e3146088575b600080fd5b348015605857600080fd5b50605f609a565b6040805173ffffffffffffffffffffffffffffffffffffffff9092168252519081900360200190f35b348015609357600080fd5b50605f60b6565b60005473ffffffffffffffffffffffffffffffffffffffff1681565b60015473ffffffffffffffffffffffffffffffffffffffff16815600a165627a7a72305820559b7769b82307ab26fec433e321b493ccfeb6881f6f892eb6bab1dbd8810db30029",
  "source": "pragma solidity ^0.4.24;\n\nimport \"./FeeSheet.sol\";\nimport \"./StablecoinWhitelist.sol\";\n\n/**\n* @title CarbonDollarStorage\n* @notice Contains necessary storage contracts for CarbonDollar (FeeSheet and StablecoinWhitelist).\n*/\ncontract CarbonDollarStorage{\n    /**\n        Storage\n    */\n    FeeSheet public stablecoinFees;\n    StablecoinWhitelist public stablecoinWhitelist;\n\n    /**\n    * @dev a CarbonDollarStorage can set its storages only once, on construction\n    *\n    **/\n    constructor (address feeSheet, address whitelist) public {\n        stablecoinFees = FeeSheet(feeSheet);\n        stablecoinWhitelist = StablecoinWhitelist(whitelist);\n    }\n}",
  "sourcePath": "/Users/tanishqaggarwal/Documents/carbon/fiat_gateway/contracts/tokens/carbonToken/dataStorage/CarbonDollarStorage.sol",
  "compiler": {
    "name": "solc",
    "version": "0.4.24+commit.e67f0147.Emscripten.clang"
  },
  "schemaVersion": "2.0.1",
  "updatedAt": "2018-08-13T20:26:34.617Z"
}