{
  "contractName": "CarbonDollarRegulator",
  "abi": [
    {
      "constant": false,
      "inputs": [
        {
          "name": "_who",
          "type": "address"
        }
      ],
      "name": "removeBlacklistSpender",
      "outputs": [],
      "payable": false,
      "stateMutability": "nonpayable",
      "type": "function"
    },
    {
      "constant": false,
      "inputs": [
        {
          "name": "_who",
          "type": "address"
        }
      ],
      "name": "setWhitelistedUser",
      "outputs": [],
      "payable": false,
      "stateMutability": "nonpayable",
      "type": "function"
    },
    {
      "constant": false,
      "inputs": [],
      "name": "claimPermissionOwnership",
      "outputs": [],
      "payable": false,
      "stateMutability": "nonpayable",
      "type": "function"
    },
    {
      "constant": true,
      "inputs": [
        {
          "name": "_who",
          "type": "address"
        },
        {
          "name": "_methodsignature",
          "type": "bytes4"
        }
      ],
      "name": "hasUserPermission",
      "outputs": [
        {
          "name": "",
          "type": "bool"
        }
      ],
      "payable": false,
      "stateMutability": "view",
      "type": "function"
    },
    {
      "constant": true,
      "inputs": [
        {
          "name": "_methodsignature",
          "type": "bytes4"
        }
      ],
      "name": "getPermission",
      "outputs": [
        {
          "name": "name",
          "type": "string"
        },
        {
          "name": "description",
          "type": "string"
        },
        {
          "name": "contract_name",
          "type": "string"
        }
      ],
      "payable": false,
      "stateMutability": "view",
      "type": "function"
    },
    {
      "constant": false,
      "inputs": [
        {
          "name": "_who",
          "type": "address"
        },
        {
          "name": "_methodsignature",
          "type": "bytes4"
        }
      ],
      "name": "setUserPermission",
      "outputs": [],
      "payable": false,
      "stateMutability": "nonpayable",
      "type": "function"
    },
    {
      "constant": false,
      "inputs": [
        {
          "name": "_who",
          "type": "address"
        }
      ],
      "name": "setBlacklistDestroyer",
      "outputs": [],
      "payable": false,
      "stateMutability": "nonpayable",
      "type": "function"
    },
    {
      "constant": false,
      "inputs": [
        {
          "name": "_who",
          "type": "address"
        }
      ],
      "name": "removeMinter",
      "outputs": [],
      "payable": false,
      "stateMutability": "nonpayable",
      "type": "function"
    },
    {
      "constant": false,
      "inputs": [
        {
          "name": "_who",
          "type": "address"
        }
      ],
      "name": "removeValidator",
      "outputs": [],
      "payable": false,
      "stateMutability": "nonpayable",
      "type": "function"
    },
    {
      "constant": false,
      "inputs": [
        {
          "name": "_who",
          "type": "address"
        }
      ],
      "name": "addValidator",
      "outputs": [],
      "payable": false,
      "stateMutability": "nonpayable",
      "type": "function"
    },
    {
      "constant": false,
      "inputs": [],
      "name": "claimOwnership",
      "outputs": [],
      "payable": false,
      "stateMutability": "nonpayable",
      "type": "function"
    },
    {
      "constant": false,
      "inputs": [
        {
          "name": "_who",
          "type": "address"
        },
        {
          "name": "_methodsignature",
          "type": "bytes4"
        }
      ],
      "name": "removeUserPermission",
      "outputs": [],
      "payable": false,
      "stateMutability": "nonpayable",
      "type": "function"
    },
    {
      "constant": false,
      "inputs": [
        {
          "name": "_who",
          "type": "address"
        }
      ],
      "name": "removeBlacklistDestroyer",
      "outputs": [],
      "payable": false,
      "stateMutability": "nonpayable",
      "type": "function"
    },
    {
      "constant": false,
      "inputs": [
        {
          "name": "_methodsignature",
          "type": "bytes4"
        },
        {
          "name": "_permissionName",
          "type": "string"
        },
        {
          "name": "_permissionDescription",
          "type": "string"
        },
        {
          "name": "_contractName",
          "type": "string"
        }
      ],
      "name": "addPermission",
      "outputs": [],
      "payable": false,
      "stateMutability": "nonpayable",
      "type": "function"
    },
    {
      "constant": false,
      "inputs": [],
      "name": "claimValidatorOwnership",
      "outputs": [],
      "payable": false,
      "stateMutability": "nonpayable",
      "type": "function"
    },
    {
      "constant": true,
      "inputs": [],
      "name": "owner",
      "outputs": [
        {
          "name": "",
          "type": "address"
        }
      ],
      "payable": false,
      "stateMutability": "view",
      "type": "function"
    },
    {
      "constant": true,
      "inputs": [
        {
          "name": "_who",
          "type": "address"
        }
      ],
      "name": "isBlacklistSpender",
      "outputs": [
        {
          "name": "",
          "type": "bool"
        }
      ],
      "payable": false,
      "stateMutability": "view",
      "type": "function"
    },
    {
      "constant": true,
      "inputs": [
        {
          "name": "_methodsignature",
          "type": "bytes4"
        }
      ],
      "name": "isPermission",
      "outputs": [
        {
          "name": "",
          "type": "bool"
        }
      ],
      "payable": false,
      "stateMutability": "view",
      "type": "function"
    },
    {
      "constant": true,
      "inputs": [
        {
          "name": "_who",
          "type": "address"
        }
      ],
      "name": "isMinter",
      "outputs": [
        {
          "name": "",
          "type": "bool"
        }
      ],
      "payable": false,
      "stateMutability": "view",
      "type": "function"
    },
    {
      "constant": true,
      "inputs": [],
      "name": "permissions",
      "outputs": [
        {
          "name": "",
          "type": "address"
        }
      ],
      "payable": false,
      "stateMutability": "view",
      "type": "function"
    },
    {
      "constant": false,
      "inputs": [
        {
          "name": "_newStorageAddress",
          "type": "address"
        }
      ],
      "name": "setPermissionStorage",
      "outputs": [],
      "payable": false,
      "stateMutability": "nonpayable",
      "type": "function"
    },
    {
      "constant": false,
      "inputs": [
        {
          "name": "_methodsignature",
          "type": "bytes4"
        }
      ],
      "name": "removePermission",
      "outputs": [],
      "payable": false,
      "stateMutability": "nonpayable",
      "type": "function"
    },
    {
      "constant": false,
      "inputs": [
        {
          "name": "_who",
          "type": "address"
        }
      ],
      "name": "setBlacklistSpender",
      "outputs": [],
      "payable": false,
      "stateMutability": "nonpayable",
      "type": "function"
    },
    {
      "constant": false,
      "inputs": [
        {
          "name": "_who",
          "type": "address"
        }
      ],
      "name": "setBlacklistedUser",
      "outputs": [],
      "payable": false,
      "stateMutability": "nonpayable",
      "type": "function"
    },
    {
      "constant": true,
      "inputs": [],
      "name": "validators",
      "outputs": [
        {
          "name": "",
          "type": "address"
        }
      ],
      "payable": false,
      "stateMutability": "view",
      "type": "function"
    },
    {
      "constant": false,
      "inputs": [
        {
          "name": "_who",
          "type": "address"
        }
      ],
      "name": "setNonlistedUser",
      "outputs": [],
      "payable": false,
      "stateMutability": "nonpayable",
      "type": "function"
    },
    {
      "constant": true,
      "inputs": [],
      "name": "pendingOwner",
      "outputs": [
        {
          "name": "",
          "type": "address"
        }
      ],
      "payable": false,
      "stateMutability": "view",
      "type": "function"
    },
    {
      "constant": false,
      "inputs": [
        {
          "name": "_newStorageAddress",
          "type": "address"
        }
      ],
      "name": "setValidatorStorage",
      "outputs": [],
      "payable": false,
      "stateMutability": "nonpayable",
      "type": "function"
    },
    {
      "constant": false,
      "inputs": [
        {
          "name": "_newOwner",
          "type": "address"
        }
      ],
      "name": "transferOwnership",
      "outputs": [],
      "payable": false,
      "stateMutability": "nonpayable",
      "type": "function"
    },
    {
      "constant": true,
      "inputs": [
        {
          "name": "_who",
          "type": "address"
        }
      ],
      "name": "isBlacklistDestroyer",
      "outputs": [
        {
          "name": "",
          "type": "bool"
        }
      ],
      "payable": false,
      "stateMutability": "view",
      "type": "function"
    },
    {
      "constant": true,
      "inputs": [
        {
          "name": "_who",
          "type": "address"
        }
      ],
      "name": "isValidator",
      "outputs": [
        {
          "name": "",
          "type": "bool"
        }
      ],
      "payable": false,
      "stateMutability": "view",
      "type": "function"
    },
    {
      "constant": false,
      "inputs": [
        {
          "name": "_who",
          "type": "address"
        }
      ],
      "name": "setMinter",
      "outputs": [],
      "payable": false,
      "stateMutability": "nonpayable",
      "type": "function"
    },
    {
      "inputs": [
        {
          "name": "_permissionSheetAddress",
          "type": "address"
        },
        {
          "name": "_validatorSheetAddress",
          "type": "address"
        }
      ],
      "payable": false,
      "stateMutability": "nonpayable",
      "type": "constructor"
    },
    {
      "anonymous": false,
      "inputs": [
        {
          "indexed": true,
          "name": "who",
          "type": "address"
        }
      ],
      "name": "LogWhitelistedUser",
      "type": "event"
    },
    {
      "anonymous": false,
      "inputs": [
        {
          "indexed": true,
          "name": "who",
          "type": "address"
        }
      ],
      "name": "LogBlacklistedUser",
      "type": "event"
    },
    {
      "anonymous": false,
      "inputs": [
        {
          "indexed": true,
          "name": "who",
          "type": "address"
        }
      ],
      "name": "LogNonlistedUser",
      "type": "event"
    },
    {
      "anonymous": false,
      "inputs": [
        {
          "indexed": true,
          "name": "who",
          "type": "address"
        }
      ],
      "name": "LogSetMinter",
      "type": "event"
    },
    {
      "anonymous": false,
      "inputs": [
        {
          "indexed": true,
          "name": "who",
          "type": "address"
        }
      ],
      "name": "LogRemovedMinter",
      "type": "event"
    },
    {
      "anonymous": false,
      "inputs": [
        {
          "indexed": true,
          "name": "who",
          "type": "address"
        }
      ],
      "name": "LogSetBlacklistDestroyer",
      "type": "event"
    },
    {
      "anonymous": false,
      "inputs": [
        {
          "indexed": true,
          "name": "who",
          "type": "address"
        }
      ],
      "name": "LogRemovedBlacklistDestroyer",
      "type": "event"
    },
    {
      "anonymous": false,
      "inputs": [
        {
          "indexed": true,
          "name": "who",
          "type": "address"
        }
      ],
      "name": "LogSetBlacklistSpender",
      "type": "event"
    },
    {
      "anonymous": false,
      "inputs": [
        {
          "indexed": true,
          "name": "who",
          "type": "address"
        }
      ],
      "name": "LogRemovedBlacklistSpender",
      "type": "event"
    },
    {
      "anonymous": false,
      "inputs": [
        {
          "indexed": false,
          "name": "_old",
          "type": "address"
        },
        {
          "indexed": false,
          "name": "_new",
          "type": "address"
        }
      ],
      "name": "ChangedPermissionStorage",
      "type": "event"
    },
    {
      "anonymous": false,
      "inputs": [
        {
          "indexed": false,
          "name": "_old",
          "type": "address"
        },
        {
          "indexed": false,
          "name": "_new",
          "type": "address"
        }
      ],
      "name": "ChangedValidatorStorage",
      "type": "event"
    },
    {
      "anonymous": false,
      "inputs": [
        {
          "indexed": true,
          "name": "previousOwner",
          "type": "address"
        },
        {
          "indexed": true,
          "name": "newOwner",
          "type": "address"
        }
      ],
      "name": "OwnershipTransferred",
      "type": "event"
    },
    {
      "constant": true,
      "inputs": [
        {
          "name": "_who",
          "type": "address"
        }
      ],
      "name": "isWhitelistedUser",
      "outputs": [
        {
          "name": "",
          "type": "bool"
        }
      ],
      "payable": false,
      "stateMutability": "view",
      "type": "function"
    },
    {
      "constant": true,
      "inputs": [
        {
          "name": "_who",
          "type": "address"
        }
      ],
      "name": "isBlacklistedUser",
      "outputs": [
        {
          "name": "",
          "type": "bool"
        }
      ],
      "payable": false,
      "stateMutability": "view",
      "type": "function"
    },
    {
      "constant": true,
      "inputs": [
        {
          "name": "_who",
          "type": "address"
        }
      ],
      "name": "isNonlistedUser",
      "outputs": [
        {
          "name": "",
          "type": "bool"
        }
      ],
      "payable": false,
      "stateMutability": "view",
      "type": "function"
    }
  ],
  "bytecode": "0x608060405234801561001057600080fd5b506040516040806200575883398101604052805160209091015160008054600160a060020a03199081163317909155600180548216905560028054600160a060020a03948516908316179055600380549390921692169190911790556156dc806200007c6000396000f3006080604052600436106101b65763ffffffff7c0100000000000000000000000000000000000000000000000000000000600035041663029043a481146101bb57806309533303146101eb5780630bdb3d5a1461021957806314db6d581461022e5780631830f493146102955780631c870eee14610413578063231a439e146104665780633092afd51461049457806340a141ff146104c25780634d238c8e146104f05780634d54dc961461051e5780634e71e0c81461054c5780635317e44414610561578063556b6384146105b4578063780bfed0146105e25780637ccce851146106de57806385a2785e1461070c5780638da5cb5b1461072157806391c4529f1461075f578063933aa6671461078d578063aa271e1a146107c7578063ab8c71c0146107f5578063aef5eb801461080a578063b8ccbd1714610838578063c1331bc314610872578063c56bea64146108a0578063ca1e7819146108ce578063cd495391146108e3578063d88c271e14610911578063e30c39781461093f578063e51207e714610954578063f2fde38b14610982578063f530259e146109b0578063facd743b146109de578063fca3b5aa14610a0c575b600080fd5b3480156101c757600080fd5b506101e973ffffffffffffffffffffffffffffffffffffffff60043516610a3a565b005b3480156101f757600080fd5b506101e973ffffffffffffffffffffffffffffffffffffffff60043516610e18565b34801561022557600080fd5b506101e9610e9a565b34801561023a57600080fd5b5061028173ffffffffffffffffffffffffffffffffffffffff600435167fffffffff0000000000000000000000000000000000000000000000000000000060243516610f3a565b604080519115158252519081900360200190f35b3480156102a157600080fd5b506102cf7fffffffff000000000000000000000000000000000000000000000000000000006004351661100d565b60405180806020018060200180602001848103845287818151815260200191508051906020019080838360005b838110156103145781810151838201526020016102fc565b50505050905090810190601f1680156103415780820380516001836020036101000a031916815260200191505b50848103835286518152865160209182019188019080838360005b8381101561037457818101518382015260200161035c565b50505050905090810190601f1680156103a15780820380516001836020036101000a031916815260200191505b50848103825285518152855160209182019187019080838360005b838110156103d45781810151838201526020016103bc565b50505050905090810190601f1680156104015780820380516001836020036101000a031916815260200191505b50965050505050505060405180910390f35b34801561041f57600080fd5b506101e973ffffffffffffffffffffffffffffffffffffffff600435167fffffffff00000000000000000000000000000000000000000000000000000000602435166111ec565b34801561047257600080fd5b506101e973ffffffffffffffffffffffffffffffffffffffff6004351661131a565b3480156104a057600080fd5b506101e973ffffffffffffffffffffffffffffffffffffffff600435166116f8565b3480156104ce57600080fd5b506101e973ffffffffffffffffffffffffffffffffffffffff60043516611777565b3480156104fc57600080fd5b506101e973ffffffffffffffffffffffffffffffffffffffff6004351661182a565b34801561052a57600080fd5b5061028173ffffffffffffffffffffffffffffffffffffffff600435166118c2565b34801561055857600080fd5b506101e9611aac565b34801561056d57600080fd5b506101e973ffffffffffffffffffffffffffffffffffffffff600435167fffffffff0000000000000000000000000000000000000000000000000000000060243516611b66565b3480156105c057600080fd5b506101e973ffffffffffffffffffffffffffffffffffffffff60043516611c78565b3480156105ee57600080fd5b5060408051602060046024803582810135601f81018590048502860185019096528585526101e99583357fffffffff000000000000000000000000000000000000000000000000000000001695369560449491939091019190819084018382808284375050604080516020601f89358b018035918201839004830284018301909452808352979a99988101979196509182019450925082915084018382808284375050604080516020601f89358b018035918201839004830284018301909452808352979a9998810197919650918201945092508291508401838280828437509497506120569650505050505050565b3480156106ea57600080fd5b5061028173ffffffffffffffffffffffffffffffffffffffff600435166122b8565b34801561071857600080fd5b506101e9612469565b34801561072d57600080fd5b506107366124ef565b6040805173ffffffffffffffffffffffffffffffffffffffff9092168252519081900360200190f35b34801561076b57600080fd5b5061028173ffffffffffffffffffffffffffffffffffffffff6004351661250b565b34801561079957600080fd5b506102817fffffffff0000000000000000000000000000000000000000000000000000000060043516612597565b3480156107d357600080fd5b5061028173ffffffffffffffffffffffffffffffffffffffff6004351661265d565b34801561080157600080fd5b506107366126e9565b34801561081657600080fd5b506101e973ffffffffffffffffffffffffffffffffffffffff60043516612705565b34801561084457600080fd5b506101e97fffffffff00000000000000000000000000000000000000000000000000000000600435166128d9565b34801561087e57600080fd5b506101e973ffffffffffffffffffffffffffffffffffffffff600435166129e3565b3480156108ac57600080fd5b506101e973ffffffffffffffffffffffffffffffffffffffff60043516612dc1565b3480156108da57600080fd5b50610736612e40565b3480156108ef57600080fd5b506101e973ffffffffffffffffffffffffffffffffffffffff60043516612e5c565b34801561091d57600080fd5b5061028173ffffffffffffffffffffffffffffffffffffffff60043516612edb565b34801561094b57600080fd5b50610736612ff8565b34801561096057600080fd5b506101e973ffffffffffffffffffffffffffffffffffffffff60043516613014565b34801561098e57600080fd5b506101e973ffffffffffffffffffffffffffffffffffffffff600435166131e8565b3480156109bc57600080fd5b5061028173ffffffffffffffffffffffffffffffffffffffff60043516613275565b3480156109ea57600080fd5b5061028173ffffffffffffffffffffffffffffffffffffffff60043516613301565b348015610a1857600080fd5b506101e973ffffffffffffffffffffffffffffffffffffffff60043516613379565b610a4333613301565b1515610ab057604080517f08c379a000000000000000000000000000000000000000000000000000000000815260206004820152601860248201527f53656e646572206d7573742062652076616c696461746f720000000000000000604482015290519081900360640190fd5b600254604080517f8f959f54000000000000000000000000000000000000000000000000000000008152905173ffffffffffffffffffffffffffffffffffffffff9092169163933aa667918391638f959f54916004808201926020929091908290030181600087803b158015610b2557600080fd5b505af1158015610b39573d6000803e3d6000fd5b505050506040513d6020811015610b4f57600080fd5b5051604080517c010000000000000000000000000000000000000000000000000000000063ffffffff85160281527fffffffff0000000000000000000000000000000000000000000000000000000090921660048301525160248083019260209291908290030181600087803b158015610bc857600080fd5b505af1158015610bdc573d6000803e3d6000fd5b505050506040513d6020811015610bf257600080fd5b50511515610c8757604080517f08c379a000000000000000000000000000000000000000000000000000000000815260206004820152602960248201527f426c61636b6c697374207370656e64696e67206e6f7420737570706f7274656460448201527f20627920746f6b656e0000000000000000000000000000000000000000000000606482015290519081900360840190fd5b600254604080517f8f959f54000000000000000000000000000000000000000000000000000000008152905173ffffffffffffffffffffffffffffffffffffffff90921691635317e4449184918491638f959f549160048083019260209291908290030181600087803b158015610cfd57600080fd5b505af1158015610d11573d6000803e3d6000fd5b505050506040513d6020811015610d2757600080fd5b5051604080517c010000000000000000000000000000000000000000000000000000000063ffffffff861602815273ffffffffffffffffffffffffffffffffffffffff90931660048401527fffffffff00000000000000000000000000000000000000000000000000000000909116602483015251604480830192600092919082900301818387803b158015610dbc57600080fd5b505af1158015610dd0573d6000803e3d6000fd5b505060405173ffffffffffffffffffffffffffffffffffffffff841692507fb5ead9fec464a658dd452c45cc1f51bd31f3a2d4bc054f90ae1fa8051794b0f59150600090a250565b610e2133613301565b1515610e8e57604080517f08c379a000000000000000000000000000000000000000000000000000000000815260206004820152601860248201527f53656e646572206d7573742062652076616c696461746f720000000000000000604482015290519081900360640190fd5b610e97816133f8565b50565b600260009054906101000a900473ffffffffffffffffffffffffffffffffffffffff1673ffffffffffffffffffffffffffffffffffffffff16634e71e0c86040518163ffffffff167c0100000000000000000000000000000000000000000000000000000000028152600401600060405180830381600087803b158015610f2057600080fd5b505af1158015610f34573d6000803e3d6000fd5b50505050565b600254604080517f14db6d5800000000000000000000000000000000000000000000000000000000815273ffffffffffffffffffffffffffffffffffffffff85811660048301527fffffffff0000000000000000000000000000000000000000000000000000000085166024830152915160009392909216916314db6d589160448082019260209290919082900301818787803b158015610fda57600080fd5b505af1158015610fee573d6000803e3d6000fd5b505050506040513d602081101561100457600080fd5b50519392505050565b600254604080517f395a7b300000000000000000000000000000000000000000000000000000000081527fffffffff000000000000000000000000000000000000000000000000000000008416600482015290516060928392839273ffffffffffffffffffffffffffffffffffffffff9092169163395a7b309160248082019260009290919082900301818387803b1580156110a857600080fd5b505af11580156110bc573d6000803e3d6000fd5b505050506040513d6000823e601f3d9081017fffffffffffffffffffffffffffffffffffffffffffffffffffffffffffffffe0168201604052606081101561110357600080fd5b81019080805164010000000081111561111b57600080fd5b8201602081018481111561112e57600080fd5b815164010000000081118282018710171561114857600080fd5b5050929190602001805164010000000081111561116457600080fd5b8201602081018481111561117757600080fd5b815164010000000081118282018710171561119157600080fd5b505092919060200180516401000000008111156111ad57600080fd5b820160208101848111156111c057600080fd5b81516401000000008111828201871017156111da57600080fd5b50959a94995097509295505050505050565b6111f533613301565b151561126257604080517f08c379a000000000000000000000000000000000000000000000000000000000815260206004820152601860248201527f53656e646572206d7573742062652076616c696461746f720000000000000000604482015290519081900360640190fd5b600254604080517f1c870eee00000000000000000000000000000000000000000000000000000000815273ffffffffffffffffffffffffffffffffffffffff85811660048301527fffffffff000000000000000000000000000000000000000000000000000000008516602483015291519190921691631c870eee91604480830192600092919082900301818387803b1580156112fe57600080fd5b505af1158015611312573d6000803e3d6000fd5b505050505050565b61132333613301565b151561139057604080517f08c379a000000000000000000000000000000000000000000000000000000000815260206004820152601860248201527f53656e646572206d7573742062652076616c696461746f720000000000000000604482015290519081900360640190fd5b600254604080517fab96cb46000000000000000000000000000000000000000000000000000000008152905173ffffffffffffffffffffffffffffffffffffffff9092169163933aa66791839163ab96cb46916004808201926020929091908290030181600087803b15801561140557600080fd5b505af1158015611419573d6000803e3d6000fd5b505050506040513d602081101561142f57600080fd5b5051604080517c010000000000000000000000000000000000000000000000000000000063ffffffff85160281527fffffffff0000000000000000000000000000000000000000000000000000000090921660048301525160248083019260209291908290030181600087803b1580156114a857600080fd5b505af11580156114bc573d6000803e3d6000fd5b505050506040513d60208110156114d257600080fd5b5051151561156757604080517f08c379a000000000000000000000000000000000000000000000000000000000815260206004820152603260248201527f426c61636b6c69737420746f6b656e206465737472756374696f6e206e6f742060448201527f737570706f7274656420627920746f6b656e0000000000000000000000000000606482015290519081900360840190fd5b600254604080517fab96cb46000000000000000000000000000000000000000000000000000000008152905173ffffffffffffffffffffffffffffffffffffffff90921691631c870eee918491849163ab96cb469160048083019260209291908290030181600087803b1580156115dd57600080fd5b505af11580156115f1573d6000803e3d6000fd5b505050506040513d602081101561160757600080fd5b5051604080517c010000000000000000000000000000000000000000000000000000000063ffffffff861602815273ffffffffffffffffffffffffffffffffffffffff90931660048401527fffffffff00000000000000000000000000000000000000000000000000000000909116602483015251604480830192600092919082900301818387803b15801561169c57600080fd5b505af11580156116b0573d6000803e3d6000fd5b505060405173ffffffffffffffffffffffffffffffffffffffff841692507fc8cc73c74b92642427979fdf8cbcd3f3a1e5a071058f68d87d200483e90278b59150600090a250565b61170133613301565b151561176e57604080517f08c379a000000000000000000000000000000000000000000000000000000000815260206004820152601860248201527f53656e646572206d7573742062652076616c696461746f720000000000000000604482015290519081900360640190fd5b610e9781613d5c565b60005473ffffffffffffffffffffffffffffffffffffffff16331461179b57600080fd5b600354604080517f40a141ff00000000000000000000000000000000000000000000000000000000815273ffffffffffffffffffffffffffffffffffffffff8481166004830152915191909216916340a141ff91602480830192600092919082900301818387803b15801561180f57600080fd5b505af1158015611823573d6000803e3d6000fd5b5050505050565b60005473ffffffffffffffffffffffffffffffffffffffff16331461184e57600080fd5b600354604080517f4d238c8e00000000000000000000000000000000000000000000000000000000815273ffffffffffffffffffffffffffffffffffffffff848116600483015291519190921691634d238c8e91602480830192600092919082900301818387803b15801561180f57600080fd5b600061197f82600260009054906101000a900473ffffffffffffffffffffffffffffffffffffffff1673ffffffffffffffffffffffffffffffffffffffff1663f9d505436040518163ffffffff167c0100000000000000000000000000000000000000000000000000000000028152600401602060405180830381600087803b15801561194e57600080fd5b505af1158015611962573d6000803e3d6000fd5b505050506040513d602081101561197857600080fd5b5051610f3a565b158015611a135750611a1182600260009054906101000a900473ffffffffffffffffffffffffffffffffffffffff1673ffffffffffffffffffffffffffffffffffffffff1663c1c49cbb6040518163ffffffff167c0100000000000000000000000000000000000000000000000000000000028152600401602060405180830381600087803b15801561194e57600080fd5b155b8015611aa65750611aa482600260009054906101000a900473ffffffffffffffffffffffffffffffffffffffff1673ffffffffffffffffffffffffffffffffffffffff16639491951b6040518163ffffffff167c0100000000000000000000000000000000000000000000000000000000028152600401602060405180830381600087803b15801561194e57600080fd5b155b92915050565b60015473ffffffffffffffffffffffffffffffffffffffff163314611ad057600080fd5b6001546000805460405173ffffffffffffffffffffffffffffffffffffffff93841693909116917f8be0079c531659141344cd1fd0a4f28419497f9722a3daafe3b4186f6b6457e091a360018054600080547fffffffffffffffffffffffff000000000000000000000000000000000000000090811673ffffffffffffffffffffffffffffffffffffffff841617909155169055565b611b6f33613301565b1515611bdc57604080517f08c379a000000000000000000000000000000000000000000000000000000000815260206004820152601860248201527f53656e646572206d7573742062652076616c696461746f720000000000000000604482015290519081900360640190fd5b600254604080517f5317e44400000000000000000000000000000000000000000000000000000000815273ffffffffffffffffffffffffffffffffffffffff85811660048301527fffffffff000000000000000000000000000000000000000000000000000000008516602483015291519190921691635317e44491604480830192600092919082900301818387803b1580156112fe57600080fd5b611c8133613301565b1515611cee57604080517f08c379a000000000000000000000000000000000000000000000000000000000815260206004820152601860248201527f53656e646572206d7573742062652076616c696461746f720000000000000000604482015290519081900360640190fd5b600254604080517fab96cb46000000000000000000000000000000000000000000000000000000008152905173ffffffffffffffffffffffffffffffffffffffff9092169163933aa66791839163ab96cb46916004808201926020929091908290030181600087803b158015611d6357600080fd5b505af1158015611d77573d6000803e3d6000fd5b505050506040513d6020811015611d8d57600080fd5b5051604080517c010000000000000000000000000000000000000000000000000000000063ffffffff85160281527fffffffff0000000000000000000000000000000000000000000000000000000090921660048301525160248083019260209291908290030181600087803b158015611e0657600080fd5b505af1158015611e1a573d6000803e3d6000fd5b505050506040513d6020811015611e3057600080fd5b50511515611ec557604080517f08c379a000000000000000000000000000000000000000000000000000000000815260206004820152603260248201527f426c61636b6c69737420746f6b656e206465737472756374696f6e206e6f742060448201527f737570706f7274656420627920746f6b656e0000000000000000000000000000606482015290519081900360840190fd5b600254604080517fab96cb46000000000000000000000000000000000000000000000000000000008152905173ffffffffffffffffffffffffffffffffffffffff90921691635317e444918491849163ab96cb469160048083019260209291908290030181600087803b158015611f3b57600080fd5b505af1158015611f4f573d6000803e3d6000fd5b505050506040513d6020811015611f6557600080fd5b5051604080517c010000000000000000000000000000000000000000000000000000000063ffffffff861602815273ffffffffffffffffffffffffffffffffffffffff90931660048401527fffffffff00000000000000000000000000000000000000000000000000000000909116602483015251604480830192600092919082900301818387803b158015611ffa57600080fd5b505af115801561200e573d6000803e3d6000fd5b505060405173ffffffffffffffffffffffffffffffffffffffff841692507fcc060ec5d05ac54bd2af5095f9a42db1cc630ebbfb1146724d624b4ce89a5e849150600090a250565b61205f33613301565b15156120cc57604080517f08c379a000000000000000000000000000000000000000000000000000000000815260206004820152601860248201527f53656e646572206d7573742062652076616c696461746f720000000000000000604482015290519081900360640190fd5b6002546040517f780bfed00000000000000000000000000000000000000000000000000000000081527fffffffff0000000000000000000000000000000000000000000000000000000086166004820190815260806024830190815286516084840152865173ffffffffffffffffffffffffffffffffffffffff9094169363780bfed09389938993899389936044810191606482019160a40190602089019080838360005b83811015612189578181015183820152602001612171565b50505050905090810190601f1680156121b65780820380516001836020036101000a031916815260200191505b50848103835286518152865160209182019188019080838360005b838110156121e95781810151838201526020016121d1565b50505050905090810190601f1680156122165780820380516001836020036101000a031916815260200191505b50848103825285518152855160209182019187019080838360005b83811015612249578181015183820152602001612231565b50505050905090810190601f1680156122765780820380516001836020036101000a031916815260200191505b50975050505050505050600060405180830381600087803b15801561229a57600080fd5b505af11580156122ae573d6000803e3d6000fd5b5050505050505050565b600061234482600260009054906101000a900473ffffffffffffffffffffffffffffffffffffffff1673ffffffffffffffffffffffffffffffffffffffff1663f9d505436040518163ffffffff167c0100000000000000000000000000000000000000000000000000000000028152600401602060405180830381600087803b15801561194e57600080fd5b1580156123d857506123d682600260009054906101000a900473ffffffffffffffffffffffffffffffffffffffff1673ffffffffffffffffffffffffffffffffffffffff1663c1c49cbb6040518163ffffffff167c0100000000000000000000000000000000000000000000000000000000028152600401602060405180830381600087803b15801561194e57600080fd5b155b8015611aa65750611aa682600260009054906101000a900473ffffffffffffffffffffffffffffffffffffffff1673ffffffffffffffffffffffffffffffffffffffff16639491951b6040518163ffffffff167c0100000000000000000000000000000000000000000000000000000000028152600401602060405180830381600087803b15801561194e57600080fd5b600360009054906101000a900473ffffffffffffffffffffffffffffffffffffffff1673ffffffffffffffffffffffffffffffffffffffff16634e71e0c86040518163ffffffff167c0100000000000000000000000000000000000000000000000000000000028152600401600060405180830381600087803b158015610f2057600080fd5b60005473ffffffffffffffffffffffffffffffffffffffff1681565b6000611aa682600260009054906101000a900473ffffffffffffffffffffffffffffffffffffffff1673ffffffffffffffffffffffffffffffffffffffff16638f959f546040518163ffffffff167c0100000000000000000000000000000000000000000000000000000000028152600401602060405180830381600087803b15801561194e57600080fd5b600254604080517f933aa6670000000000000000000000000000000000000000000000000000000081527fffffffff0000000000000000000000000000000000000000000000000000000084166004820152905160009273ffffffffffffffffffffffffffffffffffffffff169163933aa66791602480830192602092919082900301818787803b15801561262b57600080fd5b505af115801561263f573d6000803e3d6000fd5b505050506040513d602081101561265557600080fd5b505192915050565b6000611aa682600260009054906101000a900473ffffffffffffffffffffffffffffffffffffffff1673ffffffffffffffffffffffffffffffffffffffff166388f14b0e6040518163ffffffff167c0100000000000000000000000000000000000000000000000000000000028152600401602060405180830381600087803b15801561194e57600080fd5b60025473ffffffffffffffffffffffffffffffffffffffff1681565b6000805473ffffffffffffffffffffffffffffffffffffffff16331461272a57600080fd5b60025473ffffffffffffffffffffffffffffffffffffffff838116911614156127b457604080517f08c379a000000000000000000000000000000000000000000000000000000000815260206004820152601e60248201527f4d7573742062652061206e6577207065726d697373696f6e2073686565740000604482015290519081900360640190fd5b6127bd8261409e565b151561285057604080517f08c379a000000000000000000000000000000000000000000000000000000000815260206004820152603860248201527f43616e6e6f7420736574206120726567756c61746f722073746f72616765207460448201527f6f2061206e6f6e2d636f6e747261637420616464726573730000000000000000606482015290519081900360840190fd5b506002805473ffffffffffffffffffffffffffffffffffffffff8381167fffffffffffffffffffffffff0000000000000000000000000000000000000000831681179093556040805191909216808252602082019390935281517fe17aee9aa44ff533ce61ee89d13b1d2a8cb1143b69d05d08a5d136acae8a7707929181900390910190a15050565b6128e233613301565b151561294f57604080517f08c379a000000000000000000000000000000000000000000000000000000000815260206004820152601860248201527f53656e646572206d7573742062652076616c696461746f720000000000000000604482015290519081900360640190fd5b600254604080517fb8ccbd170000000000000000000000000000000000000000000000000000000081527fffffffff0000000000000000000000000000000000000000000000000000000084166004820152905173ffffffffffffffffffffffffffffffffffffffff9092169163b8ccbd179160248082019260009290919082900301818387803b15801561180f57600080fd5b6129ec33613301565b1515612a5957604080517f08c379a000000000000000000000000000000000000000000000000000000000815260206004820152601860248201527f53656e646572206d7573742062652076616c696461746f720000000000000000604482015290519081900360640190fd5b600254604080517f8f959f54000000000000000000000000000000000000000000000000000000008152905173ffffffffffffffffffffffffffffffffffffffff9092169163933aa667918391638f959f54916004808201926020929091908290030181600087803b158015612ace57600080fd5b505af1158015612ae2573d6000803e3d6000fd5b505050506040513d6020811015612af857600080fd5b5051604080517c010000000000000000000000000000000000000000000000000000000063ffffffff85160281527fffffffff0000000000000000000000000000000000000000000000000000000090921660048301525160248083019260209291908290030181600087803b158015612b7157600080fd5b505af1158015612b85573d6000803e3d6000fd5b505050506040513d6020811015612b9b57600080fd5b50511515612c3057604080517f08c379a000000000000000000000000000000000000000000000000000000000815260206004820152602960248201527f426c61636b6c697374207370656e64696e67206e6f7420737570706f7274656460448201527f20627920746f6b656e0000000000000000000000000000000000000000000000606482015290519081900360840190fd5b600254604080517f8f959f54000000000000000000000000000000000000000000000000000000008152905173ffffffffffffffffffffffffffffffffffffffff90921691631c870eee9184918491638f959f549160048083019260209291908290030181600087803b158015612ca657600080fd5b505af1158015612cba573d6000803e3d6000fd5b505050506040513d6020811015612cd057600080fd5b5051604080517c010000000000000000000000000000000000000000000000000000000063ffffffff861602815273ffffffffffffffffffffffffffffffffffffffff90931660048401527fffffffff00000000000000000000000000000000000000000000000000000000909116602483015251604480830192600092919082900301818387803b158015612d6557600080fd5b505af1158015612d79573d6000803e3d6000fd5b505060405173ffffffffffffffffffffffffffffffffffffffff841692507feb9ec59379e252bf8accf2ecf164d50f79b20d66ba85abae9cc795ad1ba5e5a89150600090a250565b612dca33613301565b1515612e3757604080517f08c379a000000000000000000000000000000000000000000000000000000000815260206004820152601860248201527f53656e646572206d7573742062652076616c696461746f720000000000000000604482015290519081900360640190fd5b610e97816140a6565b60035473ffffffffffffffffffffffffffffffffffffffff1681565b612e6533613301565b1515612ed257604080517f08c379a000000000000000000000000000000000000000000000000000000000815260206004820152601860248201527f53656e646572206d7573742062652076616c696461746f720000000000000000604482015290519081900360640190fd5b610e9781614a0a565b6000612f6782600260009054906101000a900473ffffffffffffffffffffffffffffffffffffffff1673ffffffffffffffffffffffffffffffffffffffff1663f9d505436040518163ffffffff167c0100000000000000000000000000000000000000000000000000000000028152600401602060405180830381600087803b15801561194e57600080fd5b8015611a135750611a1382600260009054906101000a900473ffffffffffffffffffffffffffffffffffffffff1673ffffffffffffffffffffffffffffffffffffffff1663c1c49cbb6040518163ffffffff167c0100000000000000000000000000000000000000000000000000000000028152600401602060405180830381600087803b15801561194e57600080fd5b60015473ffffffffffffffffffffffffffffffffffffffff1681565b6000805473ffffffffffffffffffffffffffffffffffffffff16331461303957600080fd5b60035473ffffffffffffffffffffffffffffffffffffffff838116911614156130c357604080517f08c379a000000000000000000000000000000000000000000000000000000000815260206004820152601d60248201527f4d7573742062652061206e65772076616c696461746f72207368656574000000604482015290519081900360640190fd5b6130cc8261409e565b151561315f57604080517f08c379a000000000000000000000000000000000000000000000000000000000815260206004820152603860248201527f43616e6e6f7420736574206120726567756c61746f722073746f72616765207460448201527f6f2061206e6f6e2d636f6e747261637420616464726573730000000000000000606482015290519081900360840190fd5b506003805473ffffffffffffffffffffffffffffffffffffffff8381167fffffffffffffffffffffffff0000000000000000000000000000000000000000831681179093556040805191909216808252602082019390935281517f8ca674c4f8f0a3a35b50833ae3d8d889663de2b78cdbe0765021594acec3cda2929181900390910190a15050565b60005473ffffffffffffffffffffffffffffffffffffffff16331461320c57600080fd5b73ffffffffffffffffffffffffffffffffffffffff8116151561322e57600080fd5b600180547fffffffffffffffffffffffff00000000000000000000000000000000000000001673ffffffffffffffffffffffffffffffffffffffff92909216919091179055565b6000611aa682600260009054906101000a900473ffffffffffffffffffffffffffffffffffffffff1673ffffffffffffffffffffffffffffffffffffffff1663ab96cb466040518163ffffffff167c0100000000000000000000000000000000000000000000000000000000028152600401602060405180830381600087803b15801561194e57600080fd5b600354604080517ffacd743b00000000000000000000000000000000000000000000000000000000815273ffffffffffffffffffffffffffffffffffffffff84811660048301529151600093929092169163facd743b9160248082019260209290919082900301818787803b15801561262b57600080fd5b61338233613301565b15156133ef57604080517f08c379a000000000000000000000000000000000000000000000000000000000815260206004820152601860248201527f53656e646572206d7573742062652076616c696461746f720000000000000000604482015290519081900360640190fd5b610e978161536e565b600254604080517ff9d50543000000000000000000000000000000000000000000000000000000008152905173ffffffffffffffffffffffffffffffffffffffff9092169163933aa66791839163f9d50543916004808201926020929091908290030181600087803b15801561346d57600080fd5b505af1158015613481573d6000803e3d6000fd5b505050506040513d602081101561349757600080fd5b5051604080517c010000000000000000000000000000000000000000000000000000000063ffffffff85160281527fffffffff0000000000000000000000000000000000000000000000000000000090921660048301525160248083019260209291908290030181600087803b15801561351057600080fd5b505af1158015613524573d6000803e3d6000fd5b505050506040513d602081101561353a57600080fd5b505115156135a957604080517f08c379a000000000000000000000000000000000000000000000000000000000815260206004820152601d60248201527f436f6e76657274696e672043555344206e6f7420737570706f72746564000000604482015290519081900360640190fd5b600254604080517fc1c49cbb000000000000000000000000000000000000000000000000000000008152905173ffffffffffffffffffffffffffffffffffffffff9092169163933aa66791839163c1c49cbb916004808201926020929091908290030181600087803b15801561361e57600080fd5b505af1158015613632573d6000803e3d6000fd5b505050506040513d602081101561364857600080fd5b5051604080517c010000000000000000000000000000000000000000000000000000000063ffffffff85160281527fffffffff0000000000000000000000000000000000000000000000000000000090921660048301525160248083019260209291908290030181600087803b1580156136c157600080fd5b505af11580156136d5573d6000803e3d6000fd5b505050506040513d60208110156136eb57600080fd5b5051151561375a57604080517f08c379a000000000000000000000000000000000000000000000000000000000815260206004820152601a60248201527f4275726e696e672043555344206e6f7420737570706f72746564000000000000604482015290519081900360640190fd5b600254604080517f9491951b000000000000000000000000000000000000000000000000000000008152905173ffffffffffffffffffffffffffffffffffffffff9092169163933aa667918391639491951b916004808201926020929091908290030181600087803b1580156137cf57600080fd5b505af11580156137e3573d6000803e3d6000fd5b505050506040513d60208110156137f957600080fd5b5051604080517c010000000000000000000000000000000000000000000000000000000063ffffffff85160281527fffffffff0000000000000000000000000000000000000000000000000000000090921660048301525160248083019260209291908290030181600087803b15801561387257600080fd5b505af1158015613886573d6000803e3d6000fd5b505050506040513d602081101561389c57600080fd5b5051151561393157604080517f08c379a000000000000000000000000000000000000000000000000000000000815260206004820152602360248201527f426c61636b6c697374696e67206e6f7420737570706f7274656420627920746f60448201527f6b656e0000000000000000000000000000000000000000000000000000000000606482015290519081900360840190fd5b600254604080517ff9d50543000000000000000000000000000000000000000000000000000000008152905173ffffffffffffffffffffffffffffffffffffffff90921691631c870eee918491849163f9d505439160048083019260209291908290030181600087803b1580156139a757600080fd5b505af11580156139bb573d6000803e3d6000fd5b505050506040513d60208110156139d157600080fd5b5051604080517c010000000000000000000000000000000000000000000000000000000063ffffffff861602815273ffffffffffffffffffffffffffffffffffffffff90931660048401527fffffffff00000000000000000000000000000000000000000000000000000000909116602483015251604480830192600092919082900301818387803b158015613a6657600080fd5b505af1158015613a7a573d6000803e3d6000fd5b5050600254604080517fc1c49cbb000000000000000000000000000000000000000000000000000000008152905173ffffffffffffffffffffffffffffffffffffffff9092169350631c870eee92508491849163c1c49cbb9160048083019260209291908290030181600087803b158015613af457600080fd5b505af1158015613b08573d6000803e3d6000fd5b505050506040513d6020811015613b1e57600080fd5b5051604080517c010000000000000000000000000000000000000000000000000000000063ffffffff861602815273ffffffffffffffffffffffffffffffffffffffff90931660048401527fffffffff00000000000000000000000000000000000000000000000000000000909116602483015251604480830192600092919082900301818387803b158015613bb357600080fd5b505af1158015613bc7573d6000803e3d6000fd5b5050600254604080517f9491951b000000000000000000000000000000000000000000000000000000008152905173ffffffffffffffffffffffffffffffffffffffff9092169350635317e444925084918491639491951b9160048083019260209291908290030181600087803b158015613c4157600080fd5b505af1158015613c55573d6000803e3d6000fd5b505050506040513d6020811015613c6b57600080fd5b5051604080517c010000000000000000000000000000000000000000000000000000000063ffffffff861602815273ffffffffffffffffffffffffffffffffffffffff90931660048401527fffffffff00000000000000000000000000000000000000000000000000000000909116602483015251604480830192600092919082900301818387803b158015613d0057600080fd5b505af1158015613d14573d6000803e3d6000fd5b505060405173ffffffffffffffffffffffffffffffffffffffff841692507f6b590ec768de031dd76382caebc58b5029c599845931fdcce18afc34fd15b1879150600090a250565b600254604080517f88f14b0e000000000000000000000000000000000000000000000000000000008152905173ffffffffffffffffffffffffffffffffffffffff9092169163933aa6679183916388f14b0e916004808201926020929091908290030181600087803b158015613dd157600080fd5b505af1158015613de5573d6000803e3d6000fd5b505050506040513d6020811015613dfb57600080fd5b5051604080517c010000000000000000000000000000000000000000000000000000000063ffffffff85160281527fffffffff0000000000000000000000000000000000000000000000000000000090921660048301525160248083019260209291908290030181600087803b158015613e7457600080fd5b505af1158015613e88573d6000803e3d6000fd5b505050506040513d6020811015613e9e57600080fd5b50511515613f0d57604080517f08c379a000000000000000000000000000000000000000000000000000000000815260206004820152601e60248201527f4d696e74696e67206e6f7420737570706f7274656420627920746f6b656e0000604482015290519081900360640190fd5b600254604080517f88f14b0e000000000000000000000000000000000000000000000000000000008152905173ffffffffffffffffffffffffffffffffffffffff90921691635317e44491849184916388f14b0e9160048083019260209291908290030181600087803b158015613f8357600080fd5b505af1158015613f97573d6000803e3d6000fd5b505050506040513d6020811015613fad57600080fd5b5051604080517c010000000000000000000000000000000000000000000000000000000063ffffffff861602815273ffffffffffffffffffffffffffffffffffffffff90931660048401527fffffffff00000000000000000000000000000000000000000000000000000000909116602483015251604480830192600092919082900301818387803b15801561404257600080fd5b505af1158015614056573d6000803e3d6000fd5b505060405173ffffffffffffffffffffffffffffffffffffffff841692507fcfee518972af5b17e262a5c3d62175cf1150cdad0423ac7d4e7f4ae1c0934df09150600090a250565b6000903b1190565b600254604080517ff9d50543000000000000000000000000000000000000000000000000000000008152905173ffffffffffffffffffffffffffffffffffffffff9092169163933aa66791839163f9d50543916004808201926020929091908290030181600087803b15801561411b57600080fd5b505af115801561412f573d6000803e3d6000fd5b505050506040513d602081101561414557600080fd5b5051604080517c010000000000000000000000000000000000000000000000000000000063ffffffff85160281527fffffffff0000000000000000000000000000000000000000000000000000000090921660048301525160248083019260209291908290030181600087803b1580156141be57600080fd5b505af11580156141d2573d6000803e3d6000fd5b505050506040513d60208110156141e857600080fd5b5051151561425757604080517f08c379a000000000000000000000000000000000000000000000000000000000815260206004820152601d60248201527f436f6e76657274696e672043555344206e6f7420737570706f72746564000000604482015290519081900360640190fd5b600254604080517fc1c49cbb000000000000000000000000000000000000000000000000000000008152905173ffffffffffffffffffffffffffffffffffffffff9092169163933aa66791839163c1c49cbb916004808201926020929091908290030181600087803b1580156142cc57600080fd5b505af11580156142e0573d6000803e3d6000fd5b505050506040513d60208110156142f657600080fd5b5051604080517c010000000000000000000000000000000000000000000000000000000063ffffffff85160281527fffffffff0000000000000000000000000000000000000000000000000000000090921660048301525160248083019260209291908290030181600087803b15801561436f57600080fd5b505af1158015614383573d6000803e3d6000fd5b505050506040513d602081101561439957600080fd5b5051151561440857604080517f08c379a000000000000000000000000000000000000000000000000000000000815260206004820152601a60248201527f4275726e696e672043555344206e6f7420737570706f72746564000000000000604482015290519081900360640190fd5b600254604080517f9491951b000000000000000000000000000000000000000000000000000000008152905173ffffffffffffffffffffffffffffffffffffffff9092169163933aa667918391639491951b916004808201926020929091908290030181600087803b15801561447d57600080fd5b505af1158015614491573d6000803e3d6000fd5b505050506040513d60208110156144a757600080fd5b5051604080517c010000000000000000000000000000000000000000000000000000000063ffffffff85160281527fffffffff0000000000000000000000000000000000000000000000000000000090921660048301525160248083019260209291908290030181600087803b15801561452057600080fd5b505af1158015614534573d6000803e3d6000fd5b505050506040513d602081101561454a57600080fd5b505115156145df57604080517f08c379a000000000000000000000000000000000000000000000000000000000815260206004820152602360248201527f426c61636b6c697374696e67206e6f7420737570706f7274656420627920746f60448201527f6b656e0000000000000000000000000000000000000000000000000000000000606482015290519081900360840190fd5b600254604080517ff9d50543000000000000000000000000000000000000000000000000000000008152905173ffffffffffffffffffffffffffffffffffffffff90921691635317e444918491849163f9d505439160048083019260209291908290030181600087803b15801561465557600080fd5b505af1158015614669573d6000803e3d6000fd5b505050506040513d602081101561467f57600080fd5b5051604080517c010000000000000000000000000000000000000000000000000000000063ffffffff861602815273ffffffffffffffffffffffffffffffffffffffff90931660048401527fffffffff00000000000000000000000000000000000000000000000000000000909116602483015251604480830192600092919082900301818387803b15801561471457600080fd5b505af1158015614728573d6000803e3d6000fd5b5050600254604080517fc1c49cbb000000000000000000000000000000000000000000000000000000008152905173ffffffffffffffffffffffffffffffffffffffff9092169350635317e44492508491849163c1c49cbb9160048083019260209291908290030181600087803b1580156147a257600080fd5b505af11580156147b6573d6000803e3d6000fd5b505050506040513d60208110156147cc57600080fd5b5051604080517c010000000000000000000000000000000000000000000000000000000063ffffffff861602815273ffffffffffffffffffffffffffffffffffffffff90931660048401527fffffffff00000000000000000000000000000000000000000000000000000000909116602483015251604480830192600092919082900301818387803b15801561486157600080fd5b505af1158015614875573d6000803e3d6000fd5b5050600254604080517f9491951b000000000000000000000000000000000000000000000000000000008152905173ffffffffffffffffffffffffffffffffffffffff9092169350631c870eee925084918491639491951b9160048083019260209291908290030181600087803b1580156148ef57600080fd5b505af1158015614903573d6000803e3d6000fd5b505050506040513d602081101561491957600080fd5b5051604080517c010000000000000000000000000000000000000000000000000000000063ffffffff861602815273ffffffffffffffffffffffffffffffffffffffff90931660048401527fffffffff00000000000000000000000000000000000000000000000000000000909116602483015251604480830192600092919082900301818387803b1580156149ae57600080fd5b505af11580156149c2573d6000803e3d6000fd5b505060405173ffffffffffffffffffffffffffffffffffffffff841692507fe188e80e8d523dc5ac6bbae932c30011688c5a4269bd1d97fb3493e5705645999150600090a250565b600254604080517ff9d50543000000000000000000000000000000000000000000000000000000008152905173ffffffffffffffffffffffffffffffffffffffff9092169163933aa66791839163f9d50543916004808201926020929091908290030181600087803b158015614a7f57600080fd5b505af1158015614a93573d6000803e3d6000fd5b505050506040513d6020811015614aa957600080fd5b5051604080517c010000000000000000000000000000000000000000000000000000000063ffffffff85160281527fffffffff0000000000000000000000000000000000000000000000000000000090921660048301525160248083019260209291908290030181600087803b158015614b2257600080fd5b505af1158015614b36573d6000803e3d6000fd5b505050506040513d6020811015614b4c57600080fd5b50511515614bbb57604080517f08c379a000000000000000000000000000000000000000000000000000000000815260206004820152601d60248201527f436f6e76657274696e672043555344206e6f7420737570706f72746564000000604482015290519081900360640190fd5b600254604080517fc1c49cbb000000000000000000000000000000000000000000000000000000008152905173ffffffffffffffffffffffffffffffffffffffff9092169163933aa66791839163c1c49cbb916004808201926020929091908290030181600087803b158015614c3057600080fd5b505af1158015614c44573d6000803e3d6000fd5b505050506040513d6020811015614c5a57600080fd5b5051604080517c010000000000000000000000000000000000000000000000000000000063ffffffff85160281527fffffffff0000000000000000000000000000000000000000000000000000000090921660048301525160248083019260209291908290030181600087803b158015614cd357600080fd5b505af1158015614ce7573d6000803e3d6000fd5b505050506040513d6020811015614cfd57600080fd5b50511515614d6c57604080517f08c379a000000000000000000000000000000000000000000000000000000000815260206004820152601a60248201527f4275726e696e672043555344206e6f7420737570706f72746564000000000000604482015290519081900360640190fd5b600254604080517f9491951b000000000000000000000000000000000000000000000000000000008152905173ffffffffffffffffffffffffffffffffffffffff9092169163933aa667918391639491951b916004808201926020929091908290030181600087803b158015614de157600080fd5b505af1158015614df5573d6000803e3d6000fd5b505050506040513d6020811015614e0b57600080fd5b5051604080517c010000000000000000000000000000000000000000000000000000000063ffffffff85160281527fffffffff0000000000000000000000000000000000000000000000000000000090921660048301525160248083019260209291908290030181600087803b158015614e8457600080fd5b505af1158015614e98573d6000803e3d6000fd5b505050506040513d6020811015614eae57600080fd5b50511515614f4357604080517f08c379a000000000000000000000000000000000000000000000000000000000815260206004820152602360248201527f426c61636b6c697374696e67206e6f7420737570706f7274656420627920746f60448201527f6b656e0000000000000000000000000000000000000000000000000000000000606482015290519081900360840190fd5b600254604080517ff9d50543000000000000000000000000000000000000000000000000000000008152905173ffffffffffffffffffffffffffffffffffffffff90921691635317e444918491849163f9d505439160048083019260209291908290030181600087803b158015614fb957600080fd5b505af1158015614fcd573d6000803e3d6000fd5b505050506040513d6020811015614fe357600080fd5b5051604080517c010000000000000000000000000000000000000000000000000000000063ffffffff861602815273ffffffffffffffffffffffffffffffffffffffff90931660048401527fffffffff00000000000000000000000000000000000000000000000000000000909116602483015251604480830192600092919082900301818387803b15801561507857600080fd5b505af115801561508c573d6000803e3d6000fd5b5050600254604080517fc1c49cbb000000000000000000000000000000000000000000000000000000008152905173ffffffffffffffffffffffffffffffffffffffff9092169350635317e44492508491849163c1c49cbb9160048083019260209291908290030181600087803b15801561510657600080fd5b505af115801561511a573d6000803e3d6000fd5b505050506040513d602081101561513057600080fd5b5051604080517c010000000000000000000000000000000000000000000000000000000063ffffffff861602815273ffffffffffffffffffffffffffffffffffffffff90931660048401527fffffffff00000000000000000000000000000000000000000000000000000000909116602483015251604480830192600092919082900301818387803b1580156151c557600080fd5b505af11580156151d9573d6000803e3d6000fd5b5050600254604080517f9491951b000000000000000000000000000000000000000000000000000000008152905173ffffffffffffffffffffffffffffffffffffffff9092169350635317e444925084918491639491951b9160048083019260209291908290030181600087803b15801561525357600080fd5b505af1158015615267573d6000803e3d6000fd5b505050506040513d602081101561527d57600080fd5b5051604080517c010000000000000000000000000000000000000000000000000000000063ffffffff861602815273ffffffffffffffffffffffffffffffffffffffff90931660048401527fffffffff00000000000000000000000000000000000000000000000000000000909116602483015251604480830192600092919082900301818387803b15801561531257600080fd5b505af1158015615326573d6000803e3d6000fd5b505060405173ffffffffffffffffffffffffffffffffffffffff841692507f49f6559c19d7cf5ee40d0715f3e79859ac083e76d8fbb79267a3a7dca5e463d09150600090a250565b600254604080517f88f14b0e000000000000000000000000000000000000000000000000000000008152905173ffffffffffffffffffffffffffffffffffffffff9092169163933aa6679183916388f14b0e916004808201926020929091908290030181600087803b1580156153e357600080fd5b505af11580156153f7573d6000803e3d6000fd5b505050506040513d602081101561540d57600080fd5b5051604080517c010000000000000000000000000000000000000000000000000000000063ffffffff85160281527fffffffff0000000000000000000000000000000000000000000000000000000090921660048301525160248083019260209291908290030181600087803b15801561548657600080fd5b505af115801561549a573d6000803e3d6000fd5b505050506040513d60208110156154b057600080fd5b5051151561551f57604080517f08c379a000000000000000000000000000000000000000000000000000000000815260206004820152601e60248201527f4d696e74696e67206e6f7420737570706f7274656420627920746f6b656e0000604482015290519081900360640190fd5b600254604080517f88f14b0e000000000000000000000000000000000000000000000000000000008152905173ffffffffffffffffffffffffffffffffffffffff90921691631c870eee91849184916388f14b0e9160048083019260209291908290030181600087803b15801561559557600080fd5b505af11580156155a9573d6000803e3d6000fd5b505050506040513d60208110156155bf57600080fd5b5051604080517c010000000000000000000000000000000000000000000000000000000063ffffffff861602815273ffffffffffffffffffffffffffffffffffffffff90931660048401527fffffffff00000000000000000000000000000000000000000000000000000000909116602483015251604480830192600092919082900301818387803b15801561565457600080fd5b505af1158015615668573d6000803e3d6000fd5b505060405173ffffffffffffffffffffffffffffffffffffffff841692507f5e0c8c15134773cb6fe4d2cc6f9e5683049cc6277f742e2a7e0e89a2d3d1e4089150600090a2505600a165627a7a7230582024d86e42a337e0780682ca03d939e9e113b9fa3c67e2f3857139b874508877ee0029",
  "source": "pragma solidity ^0.4.24;\r\n\r\nimport \"../Regulator.sol\";\r\n\r\n/**\r\n * @title CarbonDollarRegulator\r\n * @dev CarbonDollarRegulator is a type of Regulator that modifies its definitions of\r\n * what constitutes a \"whitelisted/nonlisted/blacklisted\" user. A CarbonDollar\r\n * provides a user the additional ability to convert from CUSD into a whtielisted stablecoin\r\n *\r\n */\r\ncontract CarbonDollarRegulator is Regulator {\r\n    /**\r\n    * @notice CONSTRUCTOR\r\n    * @param _permissionSheetAddress initial permission sheet\r\n    * @param _validatorSheetAddress initial validator sheet\r\n    **/\r\n    constructor(address _permissionSheetAddress, address _validatorSheetAddress) public Regulator(_permissionSheetAddress, _validatorSheetAddress) {}\r\n\r\n    // Getters\r\n    function isWhitelistedUser(address _who) public view returns(bool) {\r\n        return (hasUserPermission(_who, permissions.CONVERT_CARBON_DOLLAR_SIG()) \r\n        && hasUserPermission(_who, permissions.BURN_CARBON_DOLLAR_SIG()) \r\n        && !hasUserPermission(_who, permissions.BLACKLISTED_SIG()));\r\n    }\r\n\r\n    function isBlacklistedUser(address _who) public view returns(bool) {\r\n        return (!hasUserPermission(_who, permissions.CONVERT_CARBON_DOLLAR_SIG()) \r\n        && !hasUserPermission(_who, permissions.BURN_CARBON_DOLLAR_SIG()) \r\n        && hasUserPermission(_who, permissions.BLACKLISTED_SIG()));\r\n    }\r\n\r\n    function isNonlistedUser(address _who) public view returns(bool) {\r\n        return (!hasUserPermission(_who, permissions.CONVERT_CARBON_DOLLAR_SIG()) \r\n        && !hasUserPermission(_who, permissions.BURN_CARBON_DOLLAR_SIG()) \r\n        && !hasUserPermission(_who, permissions.BLACKLISTED_SIG()));\r\n    }\r\n\r\n    /** Internal functions **/\r\n    \r\n    // Setters: CarbonDollarRegulator overrides the definitions of whitelisted, nonlisted, and blacklisted setUserPermission\r\n\r\n    // CarbonDollar whitelisted users burn CUSD into a WhitelistedToken. Unlike PermissionedToken \r\n    // whitelisted users, CarbonDollar whitelisted users cannot burn ordinary CUSD without converting into WT\r\n    function _setWhitelistedUser(address _who) internal {\r\n        require(permissions.isPermission(permissions.CONVERT_CARBON_DOLLAR_SIG()), \"Converting CUSD not supported\");\r\n        require(permissions.isPermission(permissions.BURN_CARBON_DOLLAR_SIG()), \"Burning CUSD not supported\");\r\n        require(permissions.isPermission(permissions.BLACKLISTED_SIG()), \"Blacklisting not supported by token\");\r\n        permissions.setUserPermission(_who, permissions.CONVERT_CARBON_DOLLAR_SIG());\r\n        permissions.setUserPermission(_who, permissions.BURN_CARBON_DOLLAR_SIG());\r\n        permissions.removeUserPermission(_who, permissions.BLACKLISTED_SIG());\r\n        emit LogWhitelistedUser(_who);\r\n\r\n    }\r\n\r\n    function _setBlacklistedUser(address _who) internal {\r\n        require(permissions.isPermission(permissions.CONVERT_CARBON_DOLLAR_SIG()), \"Converting CUSD not supported\");\r\n        require(permissions.isPermission(permissions.BURN_CARBON_DOLLAR_SIG()), \"Burning CUSD not supported\");\r\n        require(permissions.isPermission(permissions.BLACKLISTED_SIG()), \"Blacklisting not supported by token\");\r\n        permissions.removeUserPermission(_who, permissions.CONVERT_CARBON_DOLLAR_SIG());\r\n        permissions.removeUserPermission(_who, permissions.BURN_CARBON_DOLLAR_SIG());\r\n        permissions.setUserPermission(_who, permissions.BLACKLISTED_SIG());\r\n        emit LogBlacklistedUser(_who);\r\n    }\r\n\r\n    function _setNonlistedUser(address _who) internal {\r\n        require(permissions.isPermission(permissions.CONVERT_CARBON_DOLLAR_SIG()), \"Converting CUSD not supported\");\r\n        require(permissions.isPermission(permissions.BURN_CARBON_DOLLAR_SIG()), \"Burning CUSD not supported\");\r\n        require(permissions.isPermission(permissions.BLACKLISTED_SIG()), \"Blacklisting not supported by token\");\r\n        permissions.removeUserPermission(_who, permissions.CONVERT_CARBON_DOLLAR_SIG());\r\n        permissions.removeUserPermission(_who, permissions.BURN_CARBON_DOLLAR_SIG());\r\n        permissions.removeUserPermission(_who, permissions.BLACKLISTED_SIG());\r\n        emit LogNonlistedUser(_who);\r\n    }\r\n}",
  "sourcePath": "C:\\Users\\npain\\Projects\\Carbon\\fiat_gateway\\contracts\\regulator\\carbonDollarRegulator\\CarbonDollarRegulator.sol",
  "compiler": {
    "name": "solc",
    "version": "0.4.24+commit.e67f0147.Emscripten.clang"
  },
  "schemaVersion": "2.0.1",
  "updatedAt": "2018-08-18T21:31:06.836Z"
}