{
  "contractName": "CarbonDollarProxy",
  "abi": [
    {
      "constant": false,
      "inputs": [
        {
          "name": "newImplementation",
          "type": "address"
        }
      ],
      "name": "upgradeTo",
      "outputs": [],
      "payable": false,
      "stateMutability": "nonpayable",
      "type": "function"
    },
    {
      "constant": false,
      "inputs": [],
      "name": "claimOwnership",
      "outputs": [],
      "payable": false,
      "stateMutability": "nonpayable",
      "type": "function"
    },
    {
      "constant": true,
      "inputs": [],
      "name": "implementation",
      "outputs": [
        {
          "name": "",
          "type": "address"
        }
      ],
      "payable": false,
      "stateMutability": "view",
      "type": "function"
    },
    {
      "constant": true,
      "inputs": [],
      "name": "owner",
      "outputs": [
        {
          "name": "",
          "type": "address"
        }
      ],
      "payable": false,
      "stateMutability": "view",
      "type": "function"
    },
    {
      "constant": true,
      "inputs": [],
      "name": "tokenStorage_CD",
      "outputs": [
        {
          "name": "",
          "type": "address"
        }
      ],
      "payable": false,
      "stateMutability": "view",
      "type": "function"
    },
    {
      "constant": true,
      "inputs": [],
      "name": "tokenStorage",
      "outputs": [
        {
          "name": "",
          "type": "address"
        }
      ],
      "payable": false,
      "stateMutability": "view",
      "type": "function"
    },
    {
      "constant": true,
      "inputs": [],
      "name": "regulator",
      "outputs": [
        {
          "name": "",
          "type": "address"
        }
      ],
      "payable": false,
      "stateMutability": "view",
      "type": "function"
    },
    {
      "constant": true,
      "inputs": [],
      "name": "pendingOwner",
      "outputs": [
        {
          "name": "",
          "type": "address"
        }
      ],
      "payable": false,
      "stateMutability": "view",
      "type": "function"
    },
    {
      "constant": false,
      "inputs": [
        {
          "name": "_newOwner",
          "type": "address"
        }
      ],
      "name": "transferOwnership",
      "outputs": [],
      "payable": false,
      "stateMutability": "nonpayable",
      "type": "function"
    },
    {
      "inputs": [
        {
          "name": "_implementation",
          "type": "address"
        },
        {
          "name": "_regulator",
          "type": "address"
        }
      ],
      "payable": false,
      "stateMutability": "nonpayable",
      "type": "constructor"
    },
    {
      "payable": true,
      "stateMutability": "payable",
      "type": "fallback"
    },
    {
      "anonymous": false,
      "inputs": [
        {
          "indexed": true,
          "name": "oldRegulator",
          "type": "address"
        },
        {
          "indexed": true,
          "name": "newRegulator",
          "type": "address"
        }
      ],
      "name": "ChangedRegulator",
      "type": "event"
    },
    {
      "anonymous": false,
      "inputs": [
        {
          "indexed": true,
          "name": "previousOwner",
          "type": "address"
        },
        {
          "indexed": true,
          "name": "newOwner",
          "type": "address"
        }
      ],
      "name": "OwnershipTransferred",
      "type": "event"
    },
    {
      "anonymous": false,
      "inputs": [
        {
          "indexed": false,
          "name": "implementation",
          "type": "address"
        }
      ],
      "name": "Upgraded",
      "type": "event"
    }
  ],
  "bytecode": "0x608060405234801561001057600080fd5b5060405160408061154a83398101604081815282516020938401517f6f72672e7a657070656c696e6f732e70726f78792e696d706c656d656e74617484527f696f6e00000000000000000000000000000000000000000000000000000000009484019490945290519182900360230190912090919082908290829060008051602061152a833981519152146100a157fe5b6100b381640100000000610189810204565b506000805433600160a060020a031991821617909155600180548216905560038054909116600160a060020a0383161790556100ed61024f565b604051809103906000f080158015610109573d6000803e3d6000fd5b5060028054600160a060020a0319908116600160a060020a03938416179091556003805490911691851691909117905550610144905061025f565b604051809103906000f080158015610160573d6000803e3d6000fd5b5060048054600160a060020a031916600160a060020a03929092169190911790555061026f9050565b60006101a18264010000000061046161024782021704565b151561023457604080517f08c379a000000000000000000000000000000000000000000000000000000000815260206004820152603b60248201527f43616e6e6f742073657420612070726f787920696d706c656d656e746174696f60448201527f6e20746f2061206e6f6e2d636f6e747261637420616464726573730000000000606482015290519081900360840190fd5b5060008051602061152a83398151915255565b6000903b1190565b6040516107188061071383390190565b6040516106ff80610e2b83390190565b6104958061027e6000396000f3006080604052600436106100985763ffffffff7c01000000000000000000000000000000000000000000000000000000006000350416633659cfe681146100a25780634e71e0c8146100c35780635c60da1b146100d85780638da5cb5b146101095780639d36b5c41461011e578063b199efb514610133578063dd8fee1414610148578063e30c39781461015d578063f2fde38b14610172575b6100a0610193565b005b3480156100ae57600080fd5b506100a0600160a060020a03600435166101ad565b3480156100cf57600080fd5b506100a06101d0565b3480156100e457600080fd5b506100ed610258565b60408051600160a060020a039092168252519081900360200190f35b34801561011557600080fd5b506100ed610267565b34801561012a57600080fd5b506100ed610276565b34801561013f57600080fd5b506100ed610285565b34801561015457600080fd5b506100ed610294565b34801561016957600080fd5b506100ed6102a3565b34801561017e57600080fd5b506100a0600160a060020a03600435166102b2565b61019b6101ab565b6101ab6101a661030d565b610332565b565b600054600160a060020a031633146101c457600080fd5b6101cd81610356565b50565b600154600160a060020a031633146101e757600080fd5b60015460008054604051600160a060020a0393841693909116917f8be0079c531659141344cd1fd0a4f28419497f9722a3daafe3b4186f6b6457e091a3600180546000805473ffffffffffffffffffffffffffffffffffffffff19908116600160a060020a03841617909155169055565b600061026261030d565b905090565b600054600160a060020a031681565b600454600160a060020a031681565b600254600160a060020a031681565b600354600160a060020a031681565b600154600160a060020a031681565b600054600160a060020a031633146102c957600080fd5b600160a060020a03811615156102de57600080fd5b6001805473ffffffffffffffffffffffffffffffffffffffff1916600160a060020a0392909216919091179055565b7f7050c9e0f4ca769c69bd3a8ef740bc37934f8e2c036e5a723fd8ee048ed3f8c35490565b3660008037600080366000845af43d6000803e808015610351573d6000f35b3d6000fd5b61035f8161039e565b60408051600160a060020a038316815290517fbc7cd75a20ee27fd9adebab32041f755214dbc6bffa90cc0225b39da2e5c2d3b9181900360200190a150565b60006103a982610461565b151561043c57604080517f08c379a000000000000000000000000000000000000000000000000000000000815260206004820152603b60248201527f43616e6e6f742073657420612070726f787920696d706c656d656e746174696f60448201527f6e20746f2061206e6f6e2d636f6e747261637420616464726573730000000000606482015290519081900360840190fd5b507f7050c9e0f4ca769c69bd3a8ef740bc37934f8e2c036e5a723fd8ee048ed3f8c355565b6000903b11905600a165627a7a72305820f30f63efd65abf8f1a899daff4ae72e2c9da822ba87fc892b2a077e89f7e85850029608060405260008054600160a060020a031990811633179091556001805490911690556106e7806100316000396000f3006080604052600436106100e55763ffffffff7c010000000000000000000000000000000000000000000000000000000060003504166318160ddd81146100ea57806321e5383a1461011157806327e235e3146101375780634e71e0c81461015857806355b6ed5c1461016d5780635fd72d161461019457806382838c76146101be5780638da5cb5b146101d657806397d88cd214610207578063cf8eeb7e14610231578063da46098c14610255578063e30443bc1461027f578063e30c3978146102a3578063e468688e146102b8578063f2fde38b146102d0578063f7ea7a3d146102f1575b600080fd5b3480156100f657600080fd5b506100ff610309565b60408051918252519081900360200190f35b34801561011d57600080fd5b50610135600160a060020a036004351660243561030f565b005b34801561014357600080fd5b506100ff600160a060020a036004351661036f565b34801561016457600080fd5b50610135610381565b34801561017957600080fd5b506100ff600160a060020a0360043581169060243516610409565b3480156101a057600080fd5b50610135600160a060020a0360043581169060243516604435610426565b3480156101ca57600080fd5b506101356004356104a4565b3480156101e257600080fd5b506101eb6104d4565b60408051600160a060020a039092168252519081900360200190f35b34801561021357600080fd5b50610135600160a060020a03600435811690602435166044356104e3565b34801561023d57600080fd5b50610135600160a060020a0360043516602435610530565b34801561026157600080fd5b50610135600160a060020a0360043581169060243516604435610570565b34801561028b57600080fd5b50610135600160a060020a03600435166024356105b3565b3480156102af57600080fd5b506101eb6105e6565b3480156102c457600080fd5b506101356004356105f5565b3480156102dc57600080fd5b50610135600160a060020a036004351661061f565b3480156102fd57600080fd5b5061013560043561067a565b60045481565b600054600160a060020a0316331461032657600080fd5b600160a060020a03821660009081526003602052604090205461034f908263ffffffff61069616565b600160a060020a0390921660009081526003602052604090209190915550565b60036020526000908152604090205481565b600154600160a060020a0316331461039857600080fd5b60015460008054604051600160a060020a0393841693909116917f8be0079c531659141344cd1fd0a4f28419497f9722a3daafe3b4186f6b6457e091a3600180546000805473ffffffffffffffffffffffffffffffffffffffff19908116600160a060020a03841617909155169055565b600260209081526000928352604080842090915290825290205481565b600054600160a060020a0316331461043d57600080fd5b600160a060020a03808416600090815260026020908152604080832093861683529290522054610473908263ffffffff61069616565b600160a060020a03938416600090815260026020908152604080832095909616825293909352929091209190915550565b600054600160a060020a031633146104bb57600080fd5b6004546104ce908263ffffffff6106a916565b60045550565b600054600160a060020a031681565b600054600160a060020a031633146104fa57600080fd5b600160a060020a03808416600090815260026020908152604080832093861683529290522054610473908263ffffffff6106a916565b600054600160a060020a0316331461054757600080fd5b600160a060020a03821660009081526003602052604090205461034f908263ffffffff6106a916565b600054600160a060020a0316331461058757600080fd5b600160a060020a0392831660009081526002602090815260408083209490951682529290925291902055565b600054600160a060020a031633146105ca57600080fd5b600160a060020a03909116600090815260036020526040902055565b600154600160a060020a031681565b600054600160a060020a0316331461060c57600080fd5b6004546104ce908263ffffffff61069616565b600054600160a060020a0316331461063657600080fd5b600160a060020a038116151561064b57600080fd5b6001805473ffffffffffffffffffffffffffffffffffffffff1916600160a060020a0392909216919091179055565b600054600160a060020a0316331461069157600080fd5b600455565b818101828110156106a357fe5b92915050565b6000828211156106b557fe5b509003905600a165627a7a72305820aedc8f8f5d2ec047db8a77ac7af64d87a9e84df392b69e942ea0ab5f4866c4250029608060405260008054600160a060020a031990811633179091556001805490911690556106ce806100316000396000f3006080604052600436106100cf5763ffffffff7c01000000000000000000000000000000000000000000000000000000006000350416630418945a81146100d4578063166e55d9146100f75780632ff284c21461012d5780633b947d2b146101485780634e71e0c8146101695780635a6c72d01461017e5780636ad26611146101935780638da5cb5b146101b45780639b19251a146101e5578063c93a6c841461021a578063e30c397814610232578063e55156b514610247578063f2fde38b1461026b578063faaebd211461028c575b600080fd5b3480156100e057600080fd5b506100f5600160a060020a03600435166102ad565b005b34801561010357600080fd5b5061011b600435600160a060020a0360243516610310565b60408051918252519081900360200190f35b34801561013957600080fd5b5061011b60043560243561033b565b34801561015457600080fd5b506100f5600160a060020a0360043516610368565b34801561017557600080fd5b506100f56103c8565b34801561018a57600080fd5b5061011b610450565b34801561019f57600080fd5b506100f5600160a060020a0360043516610456565b3480156101c057600080fd5b506101c96104d6565b60408051600160a060020a039092168252519081900360200190f35b3480156101f157600080fd5b50610206600160a060020a03600435166104e5565b604080519115158252519081900360200190f35b34801561022657600080fd5b506100f56004356104fa565b34801561023e57600080fd5b506101c9610561565b34801561025357600080fd5b506100f5600160a060020a0360043516602435610570565b34801561027757600080fd5b506100f5600160a060020a03600435166105f7565b34801561029857600080fd5b5061011b600160a060020a0360043516610652565b600054600160a060020a031633146102c457600080fd5b600160a060020a038116600081815260046020526040808220805460ff19166001179055517f3db297c09c19972ba6a701ff373ab97e21ff1e4992e863c7abe44e9b2fed08479190a250565b600160a060020a038116600090815260026020526040812054610333848261033b565b949350505050565b600061035f6103e8610353858563ffffffff61066416565b9063ffffffff61068d16565b90505b92915050565b600054600160a060020a0316331461037f57600080fd5b600160a060020a038116600081815260046020526040808220805460ff19169055517f3302a1b37f04242bb55603f5449e7ecd690a35eef08ba1353c48c20e2aae9cda9190a250565b600154600160a060020a031633146103df57600080fd5b60015460008054604051600160a060020a0393841693909116917f8be0079c531659141344cd1fd0a4f28419497f9722a3daafe3b4186f6b6457e091a3600180546000805473ffffffffffffffffffffffffffffffffffffffff19908116600160a060020a03841617909155169055565b60035481565b60008054600160a060020a0316331461046e57600080fd5b50600160a060020a0381166000908152600260205260408120805491905580156104d257604080518281529051600160a060020a038416917fe4ca060d5956a829454e1f8734d008a552f7c9a701ba632810443acc98435c68919081900360200190a25b5050565b600054600160a060020a031681565b60046020526000908152604090205460ff1681565b60008054600160a060020a0316331461051257600080fd5b5060038054908290558181146104d257604080518281526020810184905281517f2faa036c952bde05f63e87e0c61278ffd974bfc128a2b0ef03fafdb57f5d5cea929181900390910190a15050565b600154600160a060020a031681565b60008054600160a060020a0316331461058857600080fd5b50600160a060020a03821660009081526002602052604090208054908290558181146105f25760408051828152602081018490528151600160a060020a038616927ff98c81ad0a5eb3551c3561de8dc9d1512e8680fb77425ea138ebfe9a9c0065ff928290030190a25b505050565b600054600160a060020a0316331461060e57600080fd5b600160a060020a038116151561062357600080fd5b6001805473ffffffffffffffffffffffffffffffffffffffff1916600160a060020a0392909216919091179055565b60026020526000908152604090205481565b600082151561067557506000610362565b5081810281838281151561068557fe5b041461036257fe5b6000818381151561069a57fe5b0493925050505600a165627a7a723058206f3ff0f2ae1b57884ecddca26303b87ff514378251acffbbd281018aee154af900297050c9e0f4ca769c69bd3a8ef740bc37934f8e2c036e5a723fd8ee048ed3f8c3",
  "source": "pragma solidity ^0.4.24;\r\n\r\nimport \"./dataStorage/CarbonDollarStorage.sol\";\r\nimport \"../permissionedToken/dataStorage/PermissionedTokenStorage.sol\";\r\nimport \"../permissionedToken/PermissionedTokenProxy.sol\";\r\nimport '../../regulator/carbonDollarRegulator/CarbonDollarRegulator.sol';\r\n\r\n/**\r\n* @title CarbonDollarProxy\r\n* @notice This contract will be the public facing CarbonUSD. All calls to the CarbonUSD contract will\r\n* be routed through this proxy, since this proxy contract is the owner of the\r\n* storage contracts.\r\n*/\r\ncontract CarbonDollarProxy is PermissionedTokenProxy {\r\n    \r\n    CarbonDollarStorage public tokenStorage_CD;\r\n\r\n    /** CONSTRUCTOR\r\n    * @dev Passes along arguments to base class.\r\n    */\r\n    constructor(address _implementation, address _regulator) public PermissionedTokenProxy(_implementation, _regulator) {\r\n        // base class override\r\n        regulator = CarbonDollarRegulator(_regulator);\r\n\r\n        tokenStorage_CD = new CarbonDollarStorage();\r\n\r\n    }\r\n}",
  "sourcePath": "C:\\Users\\npain\\Projects\\Carbon\\fiat_gateway\\contracts\\tokens\\carbonToken\\CarbonDollarProxy.sol",
  "compiler": {
    "name": "solc",
    "version": "0.4.24+commit.e67f0147.Emscripten.clang"
  },
  "schemaVersion": "2.0.1",
  "updatedAt": "2018-09-28T20:24:37.271Z"
}