{
  "contractName": "CarbonDollarStorage",
  "abi": [
    {
      "constant": false,
      "inputs": [],
      "name": "claimOwnership",
      "outputs": [],
      "payable": false,
      "stateMutability": "nonpayable",
      "type": "function"
    },
    {
      "constant": true,
      "inputs": [],
      "name": "defaultFee",
      "outputs": [
        {
          "name": "",
          "type": "uint256"
        }
      ],
      "payable": false,
      "stateMutability": "view",
      "type": "function"
    },
    {
      "constant": true,
      "inputs": [],
      "name": "owner",
      "outputs": [
        {
          "name": "",
          "type": "address"
        }
      ],
      "payable": false,
      "stateMutability": "view",
      "type": "function"
    },
    {
      "constant": true,
      "inputs": [
        {
          "name": "",
          "type": "address"
        }
      ],
      "name": "whitelist",
      "outputs": [
        {
          "name": "",
          "type": "bool"
        }
      ],
      "payable": false,
      "stateMutability": "view",
      "type": "function"
    },
    {
      "constant": true,
      "inputs": [],
      "name": "pendingOwner",
      "outputs": [
        {
          "name": "",
          "type": "address"
        }
      ],
      "payable": false,
      "stateMutability": "view",
      "type": "function"
    },
    {
      "constant": false,
      "inputs": [
        {
          "name": "_newOwner",
          "type": "address"
        }
      ],
      "name": "transferOwnership",
      "outputs": [],
      "payable": false,
      "stateMutability": "nonpayable",
      "type": "function"
    },
    {
      "constant": true,
      "inputs": [
        {
          "name": "",
          "type": "address"
        }
      ],
      "name": "fees",
      "outputs": [
        {
          "name": "",
          "type": "uint256"
        }
      ],
      "payable": false,
      "stateMutability": "view",
      "type": "function"
    },
    {
      "anonymous": false,
      "inputs": [
        {
          "indexed": false,
          "name": "oldFee",
          "type": "uint256"
        },
        {
          "indexed": false,
          "name": "newFee",
          "type": "uint256"
        }
      ],
      "name": "DefaultFeeChanged",
      "type": "event"
    },
    {
      "anonymous": false,
      "inputs": [
        {
          "indexed": true,
          "name": "stablecoin",
          "type": "address"
        },
        {
          "indexed": false,
          "name": "oldFee",
          "type": "uint256"
        },
        {
          "indexed": false,
          "name": "newFee",
          "type": "uint256"
        }
      ],
      "name": "FeeChanged",
      "type": "event"
    },
    {
      "anonymous": false,
      "inputs": [
        {
          "indexed": true,
          "name": "stablecoin",
          "type": "address"
        },
        {
          "indexed": false,
          "name": "oldFee",
          "type": "uint256"
        }
      ],
      "name": "FeeRemoved",
      "type": "event"
    },
    {
      "anonymous": false,
      "inputs": [
        {
          "indexed": true,
          "name": "stablecoin",
          "type": "address"
        }
      ],
      "name": "StablecoinAdded",
      "type": "event"
    },
    {
      "anonymous": false,
      "inputs": [
        {
          "indexed": true,
          "name": "stablecoin",
          "type": "address"
        }
      ],
      "name": "StablecoinRemoved",
      "type": "event"
    },
    {
      "anonymous": false,
      "inputs": [
        {
          "indexed": true,
          "name": "previousOwner",
          "type": "address"
        },
        {
          "indexed": true,
          "name": "newOwner",
          "type": "address"
        }
      ],
      "name": "OwnershipTransferred",
      "type": "event"
    },
    {
      "constant": false,
      "inputs": [
        {
          "name": "_fee",
          "type": "uint256"
        }
      ],
      "name": "setDefaultFee",
      "outputs": [],
      "payable": false,
      "stateMutability": "nonpayable",
      "type": "function"
    },
    {
      "constant": false,
      "inputs": [
        {
          "name": "_stablecoin",
          "type": "address"
        },
        {
          "name": "_fee",
          "type": "uint256"
        }
      ],
      "name": "setFee",
      "outputs": [],
      "payable": false,
      "stateMutability": "nonpayable",
      "type": "function"
    },
    {
      "constant": false,
      "inputs": [
        {
          "name": "_stablecoin",
          "type": "address"
        }
      ],
      "name": "removeFee",
      "outputs": [],
      "payable": false,
      "stateMutability": "nonpayable",
      "type": "function"
    },
    {
      "constant": false,
      "inputs": [
        {
          "name": "_stablecoin",
          "type": "address"
        }
      ],
      "name": "addStablecoin",
      "outputs": [],
      "payable": false,
      "stateMutability": "nonpayable",
      "type": "function"
    },
    {
      "constant": false,
      "inputs": [
        {
          "name": "_stablecoin",
          "type": "address"
        }
      ],
      "name": "removeStablecoin",
      "outputs": [],
      "payable": false,
      "stateMutability": "nonpayable",
      "type": "function"
    },
    {
      "constant": true,
      "inputs": [
        {
          "name": "_amount",
          "type": "uint256"
        },
        {
          "name": "_stablecoin",
          "type": "address"
        }
      ],
      "name": "computeStablecoinFee",
      "outputs": [
        {
          "name": "",
          "type": "uint256"
        }
      ],
      "payable": false,
      "stateMutability": "view",
      "type": "function"
    },
    {
      "constant": true,
      "inputs": [
        {
          "name": "_amount",
          "type": "uint256"
        },
        {
          "name": "_fee",
          "type": "uint256"
        }
      ],
      "name": "computeFee",
      "outputs": [
        {
          "name": "",
          "type": "uint256"
        }
      ],
      "payable": false,
      "stateMutability": "pure",
      "type": "function"
    }
  ],
  "bytecode": "0x608060405260008054600160a060020a031990811633179091556001805490911690556106ce806100316000396000f3006080604052600436106100cf5763ffffffff7c01000000000000000000000000000000000000000000000000000000006000350416630418945a81146100d4578063166e55d9146100f75780632ff284c21461012d5780633b947d2b146101485780634e71e0c8146101695780635a6c72d01461017e5780636ad26611146101935780638da5cb5b146101b45780639b19251a146101e5578063c93a6c841461021a578063e30c397814610232578063e55156b514610247578063f2fde38b1461026b578063faaebd211461028c575b600080fd5b3480156100e057600080fd5b506100f5600160a060020a03600435166102ad565b005b34801561010357600080fd5b5061011b600435600160a060020a0360243516610310565b60408051918252519081900360200190f35b34801561013957600080fd5b5061011b60043560243561033b565b34801561015457600080fd5b506100f5600160a060020a0360043516610368565b34801561017557600080fd5b506100f56103c8565b34801561018a57600080fd5b5061011b610450565b34801561019f57600080fd5b506100f5600160a060020a0360043516610456565b3480156101c057600080fd5b506101c96104d6565b60408051600160a060020a039092168252519081900360200190f35b3480156101f157600080fd5b50610206600160a060020a03600435166104e5565b604080519115158252519081900360200190f35b34801561022657600080fd5b506100f56004356104fa565b34801561023e57600080fd5b506101c9610561565b34801561025357600080fd5b506100f5600160a060020a0360043516602435610570565b34801561027757600080fd5b506100f5600160a060020a03600435166105f7565b34801561029857600080fd5b5061011b600160a060020a0360043516610652565b600054600160a060020a031633146102c457600080fd5b600160a060020a038116600081815260046020526040808220805460ff19166001179055517f3db297c09c19972ba6a701ff373ab97e21ff1e4992e863c7abe44e9b2fed08479190a250565b600160a060020a038116600090815260026020526040812054610333848261033b565b949350505050565b600061035f6103e8610353858563ffffffff61066416565b9063ffffffff61068d16565b90505b92915050565b600054600160a060020a0316331461037f57600080fd5b600160a060020a038116600081815260046020526040808220805460ff19169055517f3302a1b37f04242bb55603f5449e7ecd690a35eef08ba1353c48c20e2aae9cda9190a250565b600154600160a060020a031633146103df57600080fd5b60015460008054604051600160a060020a0393841693909116917f8be0079c531659141344cd1fd0a4f28419497f9722a3daafe3b4186f6b6457e091a3600180546000805473ffffffffffffffffffffffffffffffffffffffff19908116600160a060020a03841617909155169055565b60035481565b60008054600160a060020a0316331461046e57600080fd5b50600160a060020a0381166000908152600260205260408120805491905580156104d257604080518281529051600160a060020a038416917fe4ca060d5956a829454e1f8734d008a552f7c9a701ba632810443acc98435c68919081900360200190a25b5050565b600054600160a060020a031681565b60046020526000908152604090205460ff1681565b60008054600160a060020a0316331461051257600080fd5b5060038054908290558181146104d257604080518281526020810184905281517f2faa036c952bde05f63e87e0c61278ffd974bfc128a2b0ef03fafdb57f5d5cea929181900390910190a15050565b600154600160a060020a031681565b60008054600160a060020a0316331461058857600080fd5b50600160a060020a03821660009081526002602052604090208054908290558181146105f25760408051828152602081018490528151600160a060020a038616927ff98c81ad0a5eb3551c3561de8dc9d1512e8680fb77425ea138ebfe9a9c0065ff928290030190a25b505050565b600054600160a060020a0316331461060e57600080fd5b600160a060020a038116151561062357600080fd5b6001805473ffffffffffffffffffffffffffffffffffffffff1916600160a060020a0392909216919091179055565b60026020526000908152604090205481565b600082151561067557506000610362565b5081810281838281151561068557fe5b041461036257fe5b6000818381151561069a57fe5b0493925050505600a165627a7a72305820d47c7d28c700c214f821734fbd503e43cf9f68db9ba601b78158fa0b204af1a40029",
  "source": "pragma solidity ^0.4.24;\n\nimport \"openzeppelin-solidity/contracts/math/SafeMath.sol\";\nimport '../../../helpers/Ownable.sol';\n\n/**\n* @title CarbonDollarStorage\n* @notice Contains necessary storage contracts for CarbonDollar (FeeSheet and StablecoinWhitelist).\n*/\ncontract CarbonDollarStorage is Ownable {\n    using SafeMath for uint256;\n\n    /** \n        Mappings\n    */\n    /* fees for withdrawing to stablecoin, in tenths of a percent) */\n    mapping (address => uint256) public fees;\n    /** @dev Units for fees are always in a tenth of a percent */\n    uint256 public defaultFee;\n    /* is the token address referring to a stablecoin/whitelisted token? */\n    mapping (address => bool) public whitelist;\n\n\n    /** \n        Events\n    */\n    event DefaultFeeChanged(uint256 oldFee, uint256 newFee);\n    event FeeChanged(address indexed stablecoin, uint256 oldFee, uint256 newFee);\n    event FeeRemoved(address indexed stablecoin, uint256 oldFee);\n    event StablecoinAdded(address indexed stablecoin);\n    event StablecoinRemoved(address indexed stablecoin);\n\n    /** @notice Sets the default fee for burning CarbonDollar into a whitelisted stablecoin.\n        @param _fee The default fee.\n    */\n    function setDefaultFee(uint256 _fee) public onlyOwner {\n        uint256 oldFee = defaultFee;\n        defaultFee = _fee;\n        if (oldFee != defaultFee)\n            emit DefaultFeeChanged(oldFee, _fee);\n    }\n    \n    /** @notice Set a fee for burning CarbonDollar into a stablecoin.\n        @param _stablecoin Address of a whitelisted stablecoin.\n        @param _fee the fee.\n    */\n    function setFee(address _stablecoin, uint256 _fee) public onlyOwner {\n        uint256 oldFee = fees[_stablecoin];\n        fees[_stablecoin] = _fee;\n        if (oldFee != _fee)\n            emit FeeChanged(_stablecoin, oldFee, _fee);\n    }\n\n    /** @notice Remove the fee for burning CarbonDollar into a particular kind of stablecoin.\n        @param _stablecoin Address of stablecoin.\n    */\n    function removeFee(address _stablecoin) public onlyOwner {\n        uint256 oldFee = fees[_stablecoin];\n        fees[_stablecoin] = 0;\n        if (oldFee != 0)\n            emit FeeRemoved(_stablecoin, oldFee);\n    }\n\n    /** @notice Add a token to the whitelist.\n        @param _stablecoin Address of the new stablecoin.\n    */\n    function addStablecoin(address _stablecoin) public onlyOwner {\n        whitelist[_stablecoin] = true;\n        emit StablecoinAdded(_stablecoin);\n    }\n\n    /** @notice Removes a token from the whitelist.\n        @param _stablecoin Address of the ex-stablecoin.\n    */\n    function removeStablecoin(address _stablecoin) public onlyOwner {\n        whitelist[_stablecoin] = false;\n        emit StablecoinRemoved(_stablecoin);\n    }\n\n\n    /**\n     * @notice Compute the fee that will be charged on a \"burn\" operation.\n     * @param _amount The amount that will be traded.\n     * @param _stablecoin The stablecoin whose fee will be used.\n     */\n    function computeStablecoinFee(uint256 _amount, address _stablecoin) public view returns (uint256) {\n        uint256 fee = fees[_stablecoin];\n        return computeFee(_amount, fee);\n    }\n\n    /**\n     * @notice Compute the fee that will be charged on a \"burn\" operation.\n     * @param _amount The amount that will be traded.\n     * @param _fee The fee that will be charged, in tenths of a percent.\n     */\n    function computeFee(uint256 _amount, uint256 _fee) public pure returns (uint256) {\n        return _amount.mul(_fee).div(1000);\n    }\n}",
  "sourcePath": "/Users/nicholaspai/Carbon/fiat_gateway/contracts/tokens/carbonToken/dataStorage/CarbonDollarStorage.sol",
  "compiler": {
    "name": "solc",
    "version": "0.4.24+commit.e67f0147.Emscripten.clang"
  },
  "schemaVersion": "2.0.1",
  "updatedAt": "2018-12-13T18:27:59.723Z"
}