{
  "contractName": "CarbonDollar",
  "abi": [
    {
      "constant": false,
      "inputs": [
        {
          "name": "_spender",
          "type": "address"
        },
        {
          "name": "_value",
          "type": "uint256"
        }
      ],
      "name": "approve",
      "outputs": [
        {
          "name": "",
          "type": "bool"
        }
      ],
      "payable": false,
      "stateMutability": "nonpayable",
      "type": "function"
    },
    {
      "constant": true,
      "inputs": [],
      "name": "totalSupply",
      "outputs": [
        {
          "name": "",
          "type": "uint256"
        }
      ],
      "payable": false,
      "stateMutability": "view",
      "type": "function"
    },
    {
      "constant": false,
      "inputs": [
        {
          "name": "_from",
          "type": "address"
        },
        {
          "name": "_to",
          "type": "address"
        },
        {
          "name": "_amount",
          "type": "uint256"
        }
      ],
      "name": "transferFrom",
      "outputs": [
        {
          "name": "",
          "type": "bool"
        }
      ],
      "payable": false,
      "stateMutability": "nonpayable",
      "type": "function"
    },
    {
      "constant": true,
      "inputs": [],
      "name": "allowances",
      "outputs": [
        {
          "name": "",
          "type": "address"
        }
      ],
      "payable": false,
      "stateMutability": "view",
      "type": "function"
    },
    {
      "constant": false,
      "inputs": [],
      "name": "unpause",
      "outputs": [],
      "payable": false,
      "stateMutability": "nonpayable",
      "type": "function"
    },
    {
      "constant": false,
      "inputs": [
        {
          "name": "_amount",
          "type": "uint256"
        }
      ],
      "name": "burn",
      "outputs": [],
      "payable": false,
      "stateMutability": "nonpayable",
      "type": "function"
    },
    {
      "constant": true,
      "inputs": [],
      "name": "blacklisted",
      "outputs": [
        {
          "name": "",
          "type": "bool"
        }
      ],
      "payable": false,
      "stateMutability": "view",
      "type": "function"
    },
    {
      "constant": true,
      "inputs": [],
      "name": "paused",
      "outputs": [
        {
          "name": "",
          "type": "bool"
        }
      ],
      "payable": false,
      "stateMutability": "view",
      "type": "function"
    },
    {
      "constant": false,
      "inputs": [
        {
          "name": "_sheet",
          "type": "address"
        }
      ],
      "name": "setFeeSheet",
      "outputs": [],
      "payable": false,
      "stateMutability": "nonpayable",
      "type": "function"
    },
    {
      "constant": false,
      "inputs": [
        {
          "name": "_spender",
          "type": "address"
        },
        {
          "name": "_subtractedValue",
          "type": "uint256"
        }
      ],
      "name": "decreaseApproval",
      "outputs": [
        {
          "name": "",
          "type": "bool"
        }
      ],
      "payable": false,
      "stateMutability": "nonpayable",
      "type": "function"
    },
    {
      "constant": false,
      "inputs": [
        {
          "name": "_blacklistedAccount",
          "type": "address"
        }
      ],
      "name": "approveBlacklistedAddressSpender",
      "outputs": [],
      "payable": false,
      "stateMutability": "nonpayable",
      "type": "function"
    },
    {
      "constant": true,
      "inputs": [
        {
          "name": "who",
          "type": "address"
        }
      ],
      "name": "balanceOf",
      "outputs": [
        {
          "name": "",
          "type": "uint256"
        }
      ],
      "payable": false,
      "stateMutability": "view",
      "type": "function"
    },
    {
      "constant": false,
      "inputs": [],
      "name": "renounceOwnership",
      "outputs": [],
      "payable": false,
      "stateMutability": "nonpayable",
      "type": "function"
    },
    {
      "constant": false,
      "inputs": [
        {
          "name": "_newStorageAddress",
          "type": "address"
        }
      ],
      "name": "setBalanceStorage",
      "outputs": [],
      "payable": false,
      "stateMutability": "nonpayable",
      "type": "function"
    },
    {
      "constant": true,
      "inputs": [],
      "name": "balances",
      "outputs": [
        {
          "name": "",
          "type": "address"
        }
      ],
      "payable": false,
      "stateMutability": "view",
      "type": "function"
    },
    {
      "constant": false,
      "inputs": [],
      "name": "pause",
      "outputs": [],
      "payable": false,
      "stateMutability": "nonpayable",
      "type": "function"
    },
    {
      "constant": true,
      "inputs": [],
      "name": "owner",
      "outputs": [
        {
          "name": "",
          "type": "address"
        }
      ],
      "payable": false,
      "stateMutability": "view",
      "type": "function"
    },
    {
      "constant": false,
      "inputs": [
        {
          "name": "_to",
          "type": "address"
        },
        {
          "name": "_amount",
          "type": "uint256"
        }
      ],
      "name": "transfer",
      "outputs": [
        {
          "name": "",
          "type": "bool"
        }
      ],
      "payable": false,
      "stateMutability": "nonpayable",
      "type": "function"
    },
    {
      "constant": false,
      "inputs": [
        {
          "name": "_newStorageAddress",
          "type": "address"
        }
      ],
      "name": "setAllowanceStorage",
      "outputs": [],
      "payable": false,
      "stateMutability": "nonpayable",
      "type": "function"
    },
    {
      "constant": false,
      "inputs": [
        {
          "name": "_who",
          "type": "address"
        },
        {
          "name": "_amount",
          "type": "uint256"
        }
      ],
      "name": "destroyBlacklistedTokens",
      "outputs": [],
      "payable": false,
      "stateMutability": "nonpayable",
      "type": "function"
    },
    {
      "constant": false,
      "inputs": [
        {
          "name": "_newStorageAddress",
          "type": "address"
        }
      ],
      "name": "setRegulator",
      "outputs": [],
      "payable": false,
      "stateMutability": "nonpayable",
      "type": "function"
    },
    {
      "constant": false,
      "inputs": [
        {
          "name": "_whitelist",
          "type": "address"
        }
      ],
      "name": "setStablecoinWhitelist",
      "outputs": [],
      "payable": false,
      "stateMutability": "nonpayable",
      "type": "function"
    },
    {
      "constant": false,
      "inputs": [
        {
          "name": "_spender",
          "type": "address"
        },
        {
          "name": "_addedValue",
          "type": "uint256"
        }
      ],
      "name": "increaseApproval",
      "outputs": [
        {
          "name": "",
          "type": "bool"
        }
      ],
      "payable": false,
      "stateMutability": "nonpayable",
      "type": "function"
    },
    {
      "constant": true,
      "inputs": [],
      "name": "stablecoinFees",
      "outputs": [
        {
          "name": "",
          "type": "address"
        }
      ],
      "payable": false,
      "stateMutability": "view",
      "type": "function"
    },
    {
      "constant": true,
      "inputs": [
        {
          "name": "owner",
          "type": "address"
        },
        {
          "name": "spender",
          "type": "address"
        }
      ],
      "name": "allowance",
      "outputs": [
        {
          "name": "",
          "type": "uint256"
        }
      ],
      "payable": false,
      "stateMutability": "view",
      "type": "function"
    },
    {
      "constant": true,
      "inputs": [],
      "name": "regulator",
      "outputs": [
        {
          "name": "",
          "type": "address"
        }
      ],
      "payable": false,
      "stateMutability": "view",
      "type": "function"
    },
    {
      "constant": true,
      "inputs": [],
      "name": "stablecoinWhitelist",
      "outputs": [
        {
          "name": "",
          "type": "address"
        }
      ],
      "payable": false,
      "stateMutability": "view",
      "type": "function"
    },
    {
      "constant": false,
      "inputs": [
        {
          "name": "_newOwner",
          "type": "address"
        }
      ],
      "name": "transferOwnership",
      "outputs": [],
      "payable": false,
      "stateMutability": "nonpayable",
      "type": "function"
    },
    {
      "inputs": [
        {
          "name": "r",
          "type": "address"
        },
        {
          "name": "b",
          "type": "address"
        },
        {
          "name": "a",
          "type": "address"
        },
        {
          "name": "f",
          "type": "address"
        },
        {
          "name": "s",
          "type": "address"
        }
      ],
      "payable": false,
      "stateMutability": "nonpayable",
      "type": "constructor"
    },
    {
      "anonymous": false,
      "inputs": [
        {
          "indexed": true,
          "name": "user",
          "type": "address"
        },
        {
          "indexed": false,
          "name": "amount",
          "type": "uint256"
        }
      ],
      "name": "ConvertedToWT",
      "type": "event"
    },
    {
      "anonymous": false,
      "inputs": [
        {
          "indexed": true,
          "name": "user",
          "type": "address"
        },
        {
          "indexed": false,
          "name": "feedAmount",
          "type": "uint256"
        },
        {
          "indexed": false,
          "name": "chargedFee",
          "type": "uint256"
        }
      ],
      "name": "BurnedCUSD",
      "type": "event"
    },
    {
      "anonymous": false,
      "inputs": [
        {
          "indexed": true,
          "name": "account",
          "type": "address"
        },
        {
          "indexed": false,
          "name": "amount",
          "type": "uint256"
        }
      ],
      "name": "DestroyedBlacklistedTokens",
      "type": "event"
    },
    {
      "anonymous": false,
      "inputs": [
        {
          "indexed": true,
          "name": "owner",
          "type": "address"
        },
        {
          "indexed": true,
          "name": "spender",
          "type": "address"
        },
        {
          "indexed": false,
          "name": "value",
          "type": "uint256"
        }
      ],
      "name": "ApprovedBlacklistedAddressSpender",
      "type": "event"
    },
    {
      "anonymous": false,
      "inputs": [
        {
          "indexed": true,
          "name": "to",
          "type": "address"
        },
        {
          "indexed": false,
          "name": "value",
          "type": "uint256"
        }
      ],
      "name": "Mint",
      "type": "event"
    },
    {
      "anonymous": false,
      "inputs": [
        {
          "indexed": true,
          "name": "burner",
          "type": "address"
        },
        {
          "indexed": false,
          "name": "value",
          "type": "uint256"
        }
      ],
      "name": "Burn",
      "type": "event"
    },
    {
      "anonymous": false,
      "inputs": [
        {
          "indexed": true,
          "name": "from",
          "type": "address"
        },
        {
          "indexed": true,
          "name": "to",
          "type": "address"
        },
        {
          "indexed": false,
          "name": "value",
          "type": "uint256"
        }
      ],
      "name": "Transfer",
      "type": "event"
    },
    {
      "anonymous": false,
      "inputs": [
        {
          "indexed": true,
          "name": "owner",
          "type": "address"
        },
        {
          "indexed": true,
          "name": "spender",
          "type": "address"
        },
        {
          "indexed": false,
          "name": "value",
          "type": "uint256"
        }
      ],
      "name": "Approval",
      "type": "event"
    },
    {
      "anonymous": false,
      "inputs": [
        {
          "indexed": false,
          "name": "_old",
          "type": "address"
        },
        {
          "indexed": false,
          "name": "_new",
          "type": "address"
        }
      ],
      "name": "ChangedRegulator",
      "type": "event"
    },
    {
      "anonymous": false,
      "inputs": [
        {
          "indexed": false,
          "name": "_old",
          "type": "address"
        },
        {
          "indexed": false,
          "name": "_new",
          "type": "address"
        }
      ],
      "name": "ChangedBalanceStorage",
      "type": "event"
    },
    {
      "anonymous": false,
      "inputs": [
        {
          "indexed": false,
          "name": "_old",
          "type": "address"
        },
        {
          "indexed": false,
          "name": "_new",
          "type": "address"
        }
      ],
      "name": "ChangedAllowanceStorage",
      "type": "event"
    },
    {
      "anonymous": false,
      "inputs": [],
      "name": "Pause",
      "type": "event"
    },
    {
      "anonymous": false,
      "inputs": [],
      "name": "Unpause",
      "type": "event"
    },
    {
      "anonymous": false,
      "inputs": [
        {
          "indexed": true,
          "name": "oldSheet",
          "type": "address"
        },
        {
          "indexed": true,
          "name": "newSheet",
          "type": "address"
        }
      ],
      "name": "FeeSheetChanged",
      "type": "event"
    },
    {
      "anonymous": false,
      "inputs": [
        {
          "indexed": true,
          "name": "oldWhitelist",
          "type": "address"
        },
        {
          "indexed": true,
          "name": "newWhitelist",
          "type": "address"
        }
      ],
      "name": "StablecoinWhitelistChanged",
      "type": "event"
    },
    {
      "anonymous": false,
      "inputs": [
        {
          "indexed": true,
          "name": "previousOwner",
          "type": "address"
        }
      ],
      "name": "OwnershipRenounced",
      "type": "event"
    },
    {
      "anonymous": false,
      "inputs": [
        {
          "indexed": true,
          "name": "previousOwner",
          "type": "address"
        },
        {
          "indexed": true,
          "name": "newOwner",
          "type": "address"
        }
      ],
      "name": "OwnershipTransferred",
      "type": "event"
    },
    {
      "constant": false,
      "inputs": [
        {
          "name": "_stablecoin",
          "type": "address"
        }
      ],
      "name": "listToken",
      "outputs": [],
      "payable": false,
      "stateMutability": "nonpayable",
      "type": "function"
    },
    {
      "constant": false,
      "inputs": [
        {
          "name": "_stablecoin",
          "type": "address"
        }
      ],
      "name": "unlistToken",
      "outputs": [],
      "payable": false,
      "stateMutability": "nonpayable",
      "type": "function"
    },
    {
      "constant": true,
      "inputs": [
        {
          "name": "_stablecoin",
          "type": "address"
        }
      ],
      "name": "isWhitelisted",
      "outputs": [
        {
          "name": "",
          "type": "bool"
        }
      ],
      "payable": false,
      "stateMutability": "view",
      "type": "function"
    },
    {
      "constant": false,
      "inputs": [
        {
          "name": "stablecoin",
          "type": "address"
        },
        {
          "name": "_newFee",
          "type": "uint16"
        }
      ],
      "name": "setFee",
      "outputs": [],
      "payable": false,
      "stateMutability": "nonpayable",
      "type": "function"
    },
    {
      "constant": false,
      "inputs": [
        {
          "name": "stablecoin",
          "type": "address"
        }
      ],
      "name": "removeFee",
      "outputs": [],
      "payable": false,
      "stateMutability": "nonpayable",
      "type": "function"
    },
    {
      "constant": false,
      "inputs": [
        {
          "name": "_newFee",
          "type": "uint16"
        }
      ],
      "name": "setDefaultFee",
      "outputs": [],
      "payable": false,
      "stateMutability": "nonpayable",
      "type": "function"
    },
    {
      "constant": true,
      "inputs": [
        {
          "name": "stablecoin",
          "type": "address"
        }
      ],
      "name": "getFee",
      "outputs": [
        {
          "name": "",
          "type": "uint16"
        }
      ],
      "payable": false,
      "stateMutability": "view",
      "type": "function"
    },
    {
      "constant": true,
      "inputs": [],
      "name": "getDefaultFee",
      "outputs": [
        {
          "name": "",
          "type": "uint16"
        }
      ],
      "payable": false,
      "stateMutability": "view",
      "type": "function"
    },
    {
      "constant": false,
      "inputs": [
        {
          "name": "_to",
          "type": "address"
        },
        {
          "name": "_amount",
          "type": "uint256"
        }
      ],
      "name": "mint",
      "outputs": [
        {
          "name": "",
          "type": "bool"
        }
      ],
      "payable": false,
      "stateMutability": "nonpayable",
      "type": "function"
    },
    {
      "constant": false,
      "inputs": [
        {
          "name": "stablecoin",
          "type": "address"
        },
        {
          "name": "_amount",
          "type": "uint256"
        }
      ],
      "name": "convertCarbonDollar",
      "outputs": [
        {
          "name": "",
          "type": "bool"
        }
      ],
      "payable": false,
      "stateMutability": "nonpayable",
      "type": "function"
    },
    {
      "constant": false,
      "inputs": [
        {
          "name": "stablecoin",
          "type": "address"
        },
        {
          "name": "_amount",
          "type": "uint256"
        }
      ],
      "name": "burnCarbonDollar",
      "outputs": [
        {
          "name": "",
          "type": "bool"
        }
      ],
      "payable": false,
      "stateMutability": "nonpayable",
      "type": "function"
    },
    {
      "constant": true,
      "inputs": [
        {
          "name": "stablecoin",
          "type": "address"
        }
      ],
      "name": "computeFeeRate",
      "outputs": [
        {
          "name": "feeRate",
          "type": "uint16"
        }
      ],
      "payable": false,
      "stateMutability": "view",
      "type": "function"
    },
    {
      "constant": true,
      "inputs": [
        {
          "name": "amount",
          "type": "uint256"
        },
        {
          "name": "stablecoin",
          "type": "address"
        }
      ],
      "name": "computeStablecoinFee",
      "outputs": [
        {
          "name": "",
          "type": "uint256"
        }
      ],
      "payable": false,
      "stateMutability": "view",
      "type": "function"
    }
  ],
  "bytecode": "0x60806040526002805460a060020a60ff021916905534801561002057600080fd5b5060405160a08061560f833981016040908152815160208301519183015160608401516080909401516000805433600160a060020a0319918216178255600180548216600160a060020a0398891617905560028054821693881693909317909255600380548316948716949094179093556004805482169486169490941790935560058054909316931692909217905561554f9081906100c090396000f3006080604052600436106101f85763ffffffff7c0100000000000000000000000000000000000000000000000000000000600035041663095ea7b381146101fd5780630d4b820814610242578063166e55d91461027357806318160ddd146102b65780631fc1e25f146102cb57806321bacf28146102fb57806323b872dd14610327578063337f3a311461035e5780633af32abf146103935780633ed10b92146103c15780633f4ba83a146103ff57806340c10f191461041457806342966c68146104455780635bae9ce91461045d5780635c975abb1461047257806360814fe81461048757806366188463146104b5578063662f94c0146104e65780636ad266111461051457806370a0823114610542578063715018a61461057057806373e9e0e51461058557806377326584146105b35780637bb98a68146105cf5780638456cb59146105e4578063873ab2ce146105f95780638da5cb5b14610627578063a9059cbb1461063c578063abcb99341461066d578063b88c91481461069b578063ba6f4ab0146106c9578063c52dd644146106fa578063c534ba4b14610728578063cde0a4f814610759578063d1a15eba14610787578063d73dd623146107b5578063d9651566146107e6578063dd62ed3e146107fb578063dd8fee141461082f578063e14852e314610844578063f2fde38b14610859575b600080fd5b34801561020957600080fd5b5061022e73ffffffffffffffffffffffffffffffffffffffff60043516602435610887565b604080519115158252519081900360200190f35b34801561024e57600080fd5b5061022e73ffffffffffffffffffffffffffffffffffffffff60043516602435610bb8565b34801561027f57600080fd5b506102a460043573ffffffffffffffffffffffffffffffffffffffff602435166111ee565b60408051918252519081900360200190f35b3480156102c257600080fd5b506102a46112a0565b3480156102d757600080fd5b506102f973ffffffffffffffffffffffffffffffffffffffff60043516611359565b005b34801561030757600080fd5b5061031061140c565b6040805161ffff9092168252519081900360200190f35b34801561033357600080fd5b5061022e73ffffffffffffffffffffffffffffffffffffffff60043581169060243516604435611478565b34801561036a57600080fd5b506102f973ffffffffffffffffffffffffffffffffffffffff6004351661ffff60243516611b57565b34801561039f57600080fd5b5061022e73ffffffffffffffffffffffffffffffffffffffff60043516611d49565b3480156103cd57600080fd5b506103d6611df5565b6040805173ffffffffffffffffffffffffffffffffffffffff9092168252519081900360200190f35b34801561040b57600080fd5b506102f9611e11565b34801561042057600080fd5b5061022e73ffffffffffffffffffffffffffffffffffffffff60043516602435611eb1565b34801561045157600080fd5b506102f9600435611ff3565b34801561046957600080fd5b5061022e612186565b34801561047e57600080fd5b5061022e6122e8565b34801561049357600080fd5b506102f973ffffffffffffffffffffffffffffffffffffffff60043516612309565b3480156104c157600080fd5b5061022e73ffffffffffffffffffffffffffffffffffffffff60043516602435612336565b3480156104f257600080fd5b506102f973ffffffffffffffffffffffffffffffffffffffff6004351661258c565b34801561052057600080fd5b506102f973ffffffffffffffffffffffffffffffffffffffff60043516612935565b34801561054e57600080fd5b506102a473ffffffffffffffffffffffffffffffffffffffff60043516612b01565b34801561057c57600080fd5b506102f9612b7b565b34801561059157600080fd5b506102f973ffffffffffffffffffffffffffffffffffffffff60043516612c0c565b3480156105bf57600080fd5b506102f961ffff60043516612de0565b3480156105db57600080fd5b506103d6612e7a565b3480156105f057600080fd5b506102f9612e96565b34801561060557600080fd5b5061031073ffffffffffffffffffffffffffffffffffffffff60043516612f4c565b34801561063357600080fd5b506103d6613123565b34801561064857600080fd5b5061022e73ffffffffffffffffffffffffffffffffffffffff6004351660243561313f565b34801561067957600080fd5b506102f973ffffffffffffffffffffffffffffffffffffffff600435166135fb565b3480156106a757600080fd5b5061031073ffffffffffffffffffffffffffffffffffffffff60043516613693565b3480156106d557600080fd5b5061022e73ffffffffffffffffffffffffffffffffffffffff6004351660243561370b565b34801561070657600080fd5b506102f973ffffffffffffffffffffffffffffffffffffffff60043516613ca5565b34801561073457600080fd5b506102f973ffffffffffffffffffffffffffffffffffffffff60043516602435613e79565b34801561076557600080fd5b506102f973ffffffffffffffffffffffffffffffffffffffff60043516614281565b34801561079357600080fd5b506102f973ffffffffffffffffffffffffffffffffffffffff60043516614455565b3480156107c157600080fd5b5061022e73ffffffffffffffffffffffffffffffffffffffff60043516602435614482565b3480156107f257600080fd5b506103d66146ce565b34801561080757600080fd5b506102a473ffffffffffffffffffffffffffffffffffffffff600435811690602435166146ea565b34801561083b57600080fd5b506103d661476a565b34801561085057600080fd5b506103d6614786565b34801561086557600080fd5b506102f973ffffffffffffffffffffffffffffffffffffffff600435166147a2565b600354604080517f7ccce85100000000000000000000000000000000000000000000000000000000815273ffffffffffffffffffffffffffffffffffffffff8086166004830152915160009386931691637ccce85191602480830192602092919082900301818887803b1580156108fd57600080fd5b505af1158015610911573d6000803e3d6000fd5b505050506040513d602081101561092757600080fd5b50511561099557604080517f08c379a000000000000000000000000000000000000000000000000000000000815260206004820152601c60248201527f55736572206d757374206e6f7420626520626c61636b6c697374656400000000604482015290519081900360640190fd5b600354604080517f7ccce851000000000000000000000000000000000000000000000000000000008152336004820152905173ffffffffffffffffffffffffffffffffffffffff90921691637ccce851916024808201926020929091908290030181600087803b158015610a0857600080fd5b505af1158015610a1c573d6000803e3d6000fd5b505050506040513d6020811015610a3257600080fd5b505115610aa057604080517f08c379a000000000000000000000000000000000000000000000000000000000815260206004820152601e60248201527f53656e646572206d757374206e6f7420626520626c61636b6c69737465640000604482015290519081900360640190fd5b60025474010000000000000000000000000000000000000000900460ff1615610ac857600080fd5b600554604080517fda46098c00000000000000000000000000000000000000000000000000000000815233600482015273ffffffffffffffffffffffffffffffffffffffff8781166024830152604482018790529151919092169163da46098c91606480830192600092919082900301818387803b158015610b4957600080fd5b505af1158015610b5d573d6000803e3d6000fd5b505060408051868152905173ffffffffffffffffffffffffffffffffffffffff881693503392507f8c5be1e5ebec7d5bd14f71427d1e84f3dd0314c0f7b2291e5b200ac8c7c3b9259181900360200190a35060019392505050565b600354604080517f14db6d58000000000000000000000000000000000000000000000000000000008152336004820152600080357fffffffff000000000000000000000000000000000000000000000000000000001660248301529151919283928392839273ffffffffffffffffffffffffffffffffffffffff16916314db6d589160448082019260209290919082900301818787803b158015610c5b57600080fd5b505af1158015610c6f573d6000803e3d6000fd5b505050506040513d6020811015610c8557600080fd5b50511515610d1a57604080517f08c379a000000000000000000000000000000000000000000000000000000000815260206004820152603160248201527f5573657220646f6573206e6f742068617665207065726d697373696f6e20746f60448201527f20657865637574652066756e6374696f6e000000000000000000000000000000606482015290519081900360840190fd5b600254604080517f3af32abf00000000000000000000000000000000000000000000000000000000815273ffffffffffffffffffffffffffffffffffffffff898116600483015291519190921691633af32abf9160248083019260209291908290030181600087803b158015610d8f57600080fd5b505af1158015610da3573d6000803e3d6000fd5b505050506040513d6020811015610db957600080fd5b50511515610e4e57604080517f08c379a000000000000000000000000000000000000000000000000000000000815260206004820152603e60248201527f537461626c65636f696e206d7573742062652077686974656c6973746564207060448201527f72696f7220746f2073657474696e6720636f6e76657273696f6e206665650000606482015290519081900360840190fd5b604080517f70a082310000000000000000000000000000000000000000000000000000000081523060048201529051879450869173ffffffffffffffffffffffffffffffffffffffff8616916370a08231916024808201926020929091908290030181600087803b158015610ec257600080fd5b505af1158015610ed6573d6000803e3d6000fd5b505050506040513d6020811015610eec57600080fd5b50511015610fa757604080517f08c379a000000000000000000000000000000000000000000000000000000000815260206004820152604360248201527f436172626f6e20657363726f77206163636f756e7420696e2057543020646f6560448201527f736e2774206861766520656e6f75676820746f6b656e7320666f72206275726e60648201527f696e670000000000000000000000000000000000000000000000000000000000608482015290519081900360a40190fd5b60015473ffffffffffffffffffffffffffffffffffffffff1663478eed7d86610fcf89612f4c565b6040518363ffffffff167c0100000000000000000000000000000000000000000000000000000000028152600401808381526020018261ffff1661ffff16815260200192505050602060405180830381600087803b15801561103057600080fd5b505af1158015611044573d6000803e3d6000fd5b505050506040513d602081101561105a57600080fd5b5051915061106e858363ffffffff6147cf16565b905061107a33866147e1565b604080517fa9059cbb00000000000000000000000000000000000000000000000000000000815233600482015260248101839052905173ffffffffffffffffffffffffffffffffffffffff85169163a9059cbb9160448083019260209291908290030181600087803b1580156110ef57600080fd5b505af1158015611103573d6000803e3d6000fd5b505050506040513d602081101561111957600080fd5b5050604080517f42966c6800000000000000000000000000000000000000000000000000000000815260048101849052905173ffffffffffffffffffffffffffffffffffffffff8516916342966c6891602480830192600092919082900301818387803b15801561118957600080fd5b505af115801561119d573d6000803e3d6000fd5b505050506111ab3083614a16565b5060408051868152905133917f3a91515f120c05831525e72379609e84b30a70ab21104f3222d0e91411aadc52919081900360200190a250600195945050505050565b600154604080517f166e55d90000000000000000000000000000000000000000000000000000000081526004810185905273ffffffffffffffffffffffffffffffffffffffff84811660248301529151600093929092169163166e55d99160448082019260209290919082900301818787803b15801561126d57600080fd5b505af1158015611281573d6000803e3d6000fd5b505050506040513d602081101561129757600080fd5b50519392505050565b6000600460009054906101000a900473ffffffffffffffffffffffffffffffffffffffff1673ffffffffffffffffffffffffffffffffffffffff166318160ddd6040518163ffffffff167c0100000000000000000000000000000000000000000000000000000000028152600401602060405180830381600087803b15801561132857600080fd5b505af115801561133c573d6000803e3d6000fd5b505050506040513d602081101561135257600080fd5b5051905090565b60005473ffffffffffffffffffffffffffffffffffffffff16331461137d57600080fd5b600254604080517f0418945a00000000000000000000000000000000000000000000000000000000815273ffffffffffffffffffffffffffffffffffffffff848116600483015291519190921691630418945a91602480830192600092919082900301818387803b1580156113f157600080fd5b505af1158015611405573d6000803e3d6000fd5b5050505050565b600154604080517f5a6c72d0000000000000000000000000000000000000000000000000000000008152905160009273ffffffffffffffffffffffffffffffffffffffff1691635a6c72d091600480830192602092919082900301818787803b15801561132857600080fd5b60025460009074010000000000000000000000000000000000000000900460ff16156114a357600080fd5b600354604080517f7ccce85100000000000000000000000000000000000000000000000000000000815273ffffffffffffffffffffffffffffffffffffffff808716600483015291518793879360009384939190921691637ccce85191602480830192602092919082900301818787803b15801561152057600080fd5b505af1158015611534573d6000803e3d6000fd5b505050506040513d602081101561154a57600080fd5b5051156115b857604080517f08c379a000000000000000000000000000000000000000000000000000000000815260206004820152601f60248201527f526563697069656e742063616e6e6f7420626520626c61636b6c697374656400604482015290519081900360640190fd5b600354604080517f7ccce85100000000000000000000000000000000000000000000000000000000815273ffffffffffffffffffffffffffffffffffffffff878116600483015291519190921691637ccce8519160248083019260209291908290030181600087803b15801561162d57600080fd5b505af1158015611641573d6000803e3d6000fd5b505050506040513d602081101561165757600080fd5b5051600354604080517f91c4529f000000000000000000000000000000000000000000000000000000008152336004820152905192945073ffffffffffffffffffffffffffffffffffffffff909116916391c4529f916024808201926020929091908290030181600087803b1580156116cf57600080fd5b505af11580156116e3573d6000803e3d6000fd5b505050506040513d60208110156116f957600080fd5b505190508115806117075750805b15156117c057604080517f08c379a000000000000000000000000000000000000000000000000000000000815260206004820152604c60248201527f4f726967696e2063616e6e6f7420626520626c61636b6c69737465642069662060448201527f7370656e646572206973206e6f7420616e20617070726f76656420626c61636b60648201527f6c697374207370656e6465720000000000000000000000000000000000000000608482015290519081900360a40190fd5b6117ca88336146ea565b86111561183857604080517f08c379a000000000000000000000000000000000000000000000000000000000815260206004820181905260248201527f6e6f7420656e6f75676820616c6c6f77616e636520746f207472616e73666572604482015290519081900360640190fd5b73ffffffffffffffffffffffffffffffffffffffff871615156118bc57604080517f08c379a000000000000000000000000000000000000000000000000000000000815260206004820152601860248201527f746f20616464726573732063616e6e6f74206265203078300000000000000000604482015290519081900360640190fd5b6118c588612b01565b86111561193357604080517f08c379a000000000000000000000000000000000000000000000000000000000815260206004820152601e60248201527f6e6f7420656e6f7567682062616c616e636520746f207472616e736665720000604482015290519081900360640190fd5b600554604080517f97d88cd200000000000000000000000000000000000000000000000000000000815273ffffffffffffffffffffffffffffffffffffffff8b81166004830152336024830152604482018a9052915191909216916397d88cd291606480830192600092919082900301818387803b1580156119b457600080fd5b505af11580156119c8573d6000803e3d6000fd5b505060048054604080517f21e5383a00000000000000000000000000000000000000000000000000000000815273ffffffffffffffffffffffffffffffffffffffff8d811694820194909452602481018c905290519290911693506321e5383a925060448082019260009290919082900301818387803b158015611a4b57600080fd5b505af1158015611a5f573d6000803e3d6000fd5b505060048054604080517fcf8eeb7e00000000000000000000000000000000000000000000000000000000815273ffffffffffffffffffffffffffffffffffffffff8e811694820194909452602481018c9052905192909116935063cf8eeb7e925060448082019260009290919082900301818387803b158015611ae257600080fd5b505af1158015611af6573d6000803e3d6000fd5b505060408051898152905173ffffffffffffffffffffffffffffffffffffffff808c1694508c1692507fddf252ad1be2c89b69c2b068fc378daa952ba7f163c4a11628f55a4df523b3ef9181900360200190a3506001979650505050505050565b60005473ffffffffffffffffffffffffffffffffffffffff163314611b7b57600080fd5b600254604080517f3af32abf00000000000000000000000000000000000000000000000000000000815273ffffffffffffffffffffffffffffffffffffffff858116600483015291519190921691633af32abf9160248083019260209291908290030181600087803b158015611bf057600080fd5b505af1158015611c04573d6000803e3d6000fd5b505050506040513d6020811015611c1a57600080fd5b50511515611caf57604080517f08c379a000000000000000000000000000000000000000000000000000000000815260206004820152603e60248201527f537461626c65636f696e206d7573742062652077686974656c6973746564207060448201527f72696f7220746f2073657474696e6720636f6e76657273696f6e206665650000606482015290519081900360840190fd5b600154604080517f337f3a3100000000000000000000000000000000000000000000000000000000815273ffffffffffffffffffffffffffffffffffffffff858116600483015261ffff851660248301529151919092169163337f3a3191604480830192600092919082900301818387803b158015611d2d57600080fd5b505af1158015611d41573d6000803e3d6000fd5b505050505050565b600254604080517f3af32abf00000000000000000000000000000000000000000000000000000000815273ffffffffffffffffffffffffffffffffffffffff848116600483015291516000939290921691633af32abf9160248082019260209290919082900301818787803b158015611dc157600080fd5b505af1158015611dd5573d6000803e3d6000fd5b505050506040513d6020811015611deb57600080fd5b505190505b919050565b60055473ffffffffffffffffffffffffffffffffffffffff1681565b60005473ffffffffffffffffffffffffffffffffffffffff163314611e3557600080fd5b60025474010000000000000000000000000000000000000000900460ff161515611e5e57600080fd5b600280547fffffffffffffffffffffff00ffffffffffffffffffffffffffffffffffffffff1690556040517f7805862f689e2f13df9f062ff482ad3ad112aca9e0847911ed832e158c525b3390600090a1565b600254604080517f3af32abf000000000000000000000000000000000000000000000000000000008152336004820152905160009273ffffffffffffffffffffffffffffffffffffffff1691633af32abf91602480830192602092919082900301818787803b158015611f2357600080fd5b505af1158015611f37573d6000803e3d6000fd5b505050506040513d6020811015611f4d57600080fd5b50511515611fe257604080517f08c379a000000000000000000000000000000000000000000000000000000000815260206004820152602b60248201527f53656e646572206d75737420626520612077686974656c697374656420746f6b60448201527f656e20636f6e7472616374000000000000000000000000000000000000000000606482015290519081900360840190fd5b611fec8383614a16565b9392505050565b600354604080517f14db6d58000000000000000000000000000000000000000000000000000000008152336004820152600080357fffffffff00000000000000000000000000000000000000000000000000000000166024830152915173ffffffffffffffffffffffffffffffffffffffff909316926314db6d5892604480840193602093929083900390910190829087803b15801561209257600080fd5b505af11580156120a6573d6000803e3d6000fd5b505050506040513d60208110156120bc57600080fd5b5051151561215157604080517f08c379a000000000000000000000000000000000000000000000000000000000815260206004820152603160248201527f5573657220646f6573206e6f742068617665207065726d697373696f6e20746f60448201527f20657865637574652066756e6374696f6e000000000000000000000000000000606482015290519081900360840190fd5b60025474010000000000000000000000000000000000000000900460ff161561217957600080fd5b61218333826147e1565b50565b600354604080517f14db6d58000000000000000000000000000000000000000000000000000000008152336004820152600080357fffffffff000000000000000000000000000000000000000000000000000000001660248301529151919273ffffffffffffffffffffffffffffffffffffffff16916314db6d589160448082019260209290919082900301818787803b15801561222357600080fd5b505af1158015612237573d6000803e3d6000fd5b505050506040513d602081101561224d57600080fd5b505115156122e257604080517f08c379a000000000000000000000000000000000000000000000000000000000815260206004820152603160248201527f5573657220646f6573206e6f742068617665207065726d697373696f6e20746f60448201527f20657865637574652066756e6374696f6e000000000000000000000000000000606482015290519081900360840190fd5b50600190565b60025474010000000000000000000000000000000000000000900460ff1681565b60005473ffffffffffffffffffffffffffffffffffffffff16331461232d57600080fd5b61218381614a22565b600354604080517f7ccce85100000000000000000000000000000000000000000000000000000000815273ffffffffffffffffffffffffffffffffffffffff8086166004830152915160009386931691637ccce85191602480830192602092919082900301818887803b1580156123ac57600080fd5b505af11580156123c0573d6000803e3d6000fd5b505050506040513d60208110156123d657600080fd5b50511561244457604080517f08c379a000000000000000000000000000000000000000000000000000000000815260206004820152601c60248201527f55736572206d757374206e6f7420626520626c61636b6c697374656400000000604482015290519081900360640190fd5b600354604080517f7ccce851000000000000000000000000000000000000000000000000000000008152336004820152905173ffffffffffffffffffffffffffffffffffffffff90921691637ccce851916024808201926020929091908290030181600087803b1580156124b757600080fd5b505af11580156124cb573d6000803e3d6000fd5b505050506040513d60208110156124e157600080fd5b50511561254f57604080517f08c379a000000000000000000000000000000000000000000000000000000000815260206004820152601e60248201527f53656e646572206d757374206e6f7420626520626c61636b6c69737465640000604482015290519081900360640190fd5b60025474010000000000000000000000000000000000000000900460ff161561257757600080fd5b612582848433614b9d565b5060019392505050565b600354604080517f7ccce85100000000000000000000000000000000000000000000000000000000815273ffffffffffffffffffffffffffffffffffffffff8085166004830152915184939290921691637ccce851916024808201926020929091908290030181600087803b15801561260457600080fd5b505af1158015612618573d6000803e3d6000fd5b505050506040513d602081101561262e57600080fd5b5051151561269d57604080517f08c379a000000000000000000000000000000000000000000000000000000000815260206004820152601860248201527f55736572206d75737420626520626c61636b6c69737465640000000000000000604482015290519081900360640190fd5b60025474010000000000000000000000000000000000000000900460ff16156126c557600080fd5b600354604080517f14db6d58000000000000000000000000000000000000000000000000000000008152336004820152600080357fffffffff00000000000000000000000000000000000000000000000000000000166024830152915173ffffffffffffffffffffffffffffffffffffffff909316926314db6d5892604480840193602093929083900390910190829087803b15801561276457600080fd5b505af1158015612778573d6000803e3d6000fd5b505050506040513d602081101561278e57600080fd5b5051151561282357604080517f08c379a000000000000000000000000000000000000000000000000000000000815260206004820152603160248201527f5573657220646f6573206e6f742068617665207065726d697373696f6e20746f60448201527f20657865637574652066756e6374696f6e000000000000000000000000000000606482015290519081900360840190fd5b60055473ffffffffffffffffffffffffffffffffffffffff1663da46098c833361284c82612b01565b604080517c010000000000000000000000000000000000000000000000000000000063ffffffff871602815273ffffffffffffffffffffffffffffffffffffffff948516600482015292909316602483015260448201529051606480830192600092919082900301818387803b1580156128c557600080fd5b505af11580156128d9573d6000803e3d6000fd5b50339250505073ffffffffffffffffffffffffffffffffffffffff83167f3b1ffca3903932aa264fbb5b7b381746e2b7b61c9c5a6024bad48d23f958a6c261292085612b01565b60408051918252519081900360200190a35050565b60005473ffffffffffffffffffffffffffffffffffffffff16331461295957600080fd5b600254604080517f3af32abf00000000000000000000000000000000000000000000000000000000815273ffffffffffffffffffffffffffffffffffffffff848116600483015291519190921691633af32abf9160248083019260209291908290030181600087803b1580156129ce57600080fd5b505af11580156129e2573d6000803e3d6000fd5b505050506040513d60208110156129f857600080fd5b50511515612a8d57604080517f08c379a000000000000000000000000000000000000000000000000000000000815260206004820152603e60248201527f537461626c65636f696e206d7573742062652077686974656c6973746564207060448201527f72696f7220746f2073657474696e6720636f6e76657273696f6e206665650000606482015290519081900360840190fd5b600154604080517f6ad2661100000000000000000000000000000000000000000000000000000000815273ffffffffffffffffffffffffffffffffffffffff848116600483015291519190921691636ad2661191602480830192600092919082900301818387803b1580156113f157600080fd5b60048054604080517f70a0823100000000000000000000000000000000000000000000000000000000815273ffffffffffffffffffffffffffffffffffffffff858116948201949094529051600093909216916370a082319160248082019260209290919082900301818787803b158015611dc157600080fd5b60005473ffffffffffffffffffffffffffffffffffffffff163314612b9f57600080fd5b6000805460405173ffffffffffffffffffffffffffffffffffffffff909116917ff8df31144d9c2f0f6b59d69b8b98abd5459d07f2742c4df920b25aae33c6482091a2600080547fffffffffffffffffffffffff0000000000000000000000000000000000000000169055565b6000805473ffffffffffffffffffffffffffffffffffffffff163314612c3157600080fd5b60045473ffffffffffffffffffffffffffffffffffffffff83811691161415612cbb57604080517f08c379a000000000000000000000000000000000000000000000000000000000815260206004820152601b60248201527f4d7573742062652061206e65772062616c616e63652073686565740000000000604482015290519081900360640190fd5b612cc482614e77565b1515612d5757604080517f08c379a000000000000000000000000000000000000000000000000000000000815260206004820152603860248201527f43616e6e6f7420736574206120726567756c61746f722073746f72616765207460448201527f6f2061206e6f6e2d636f6e747261637420616464726573730000000000000000606482015290519081900360840190fd5b506004805473ffffffffffffffffffffffffffffffffffffffff8381167fffffffffffffffffffffffff0000000000000000000000000000000000000000831681179093556040805191909216808252602082019390935281517f8c3d37b41e983f0d5b0b91de3f9d5055c73a17beebc7adfce9b677ab7c07ad2d929181900390910190a15050565b60005473ffffffffffffffffffffffffffffffffffffffff163314612e0457600080fd5b600154604080517f7732658400000000000000000000000000000000000000000000000000000000815261ffff84166004820152905173ffffffffffffffffffffffffffffffffffffffff9092169163773265849160248082019260009290919082900301818387803b1580156113f157600080fd5b60045473ffffffffffffffffffffffffffffffffffffffff1681565b60005473ffffffffffffffffffffffffffffffffffffffff163314612eba57600080fd5b60025474010000000000000000000000000000000000000000900460ff1615612ee257600080fd5b600280547fffffffffffffffffffffff00ffffffffffffffffffffffffffffffffffffffff16740100000000000000000000000000000000000000001790556040517f6985a02210a168e66602d3235cb6db0e70f92b3ba4d376a33c0f3d9434bff62590600090a1565b600154604080517fcfc9733c00000000000000000000000000000000000000000000000000000000815273ffffffffffffffffffffffffffffffffffffffff84811660048301529151600093929092169163cfc9733c9160248082019260209290919082900301818787803b158015612fc457600080fd5b505af1158015612fd8573d6000803e3d6000fd5b505050506040513d6020811015612fee57600080fd5b50511561309d57600154604080517ffaaebd2100000000000000000000000000000000000000000000000000000000815273ffffffffffffffffffffffffffffffffffffffff85811660048301529151919092169163faaebd219160248083019260209291908290030181600087803b15801561306a57600080fd5b505af115801561307e573d6000803e3d6000fd5b505050506040513d602081101561309457600080fd5b50519050611df0565b600160009054906101000a900473ffffffffffffffffffffffffffffffffffffffff1673ffffffffffffffffffffffffffffffffffffffff16635a6c72d06040518163ffffffff167c0100000000000000000000000000000000000000000000000000000000028152600401602060405180830381600087803b158015611dc157600080fd5b60005473ffffffffffffffffffffffffffffffffffffffff1681565b600354604080517f7ccce85100000000000000000000000000000000000000000000000000000000815273ffffffffffffffffffffffffffffffffffffffff8086166004830152915160009386931691637ccce85191602480830192602092919082900301818887803b1580156131b557600080fd5b505af11580156131c9573d6000803e3d6000fd5b505050506040513d60208110156131df57600080fd5b50511561324d57604080517f08c379a000000000000000000000000000000000000000000000000000000000815260206004820152601f60248201527f526563697069656e742063616e6e6f7420626520626c61636b6c697374656400604482015290519081900360640190fd5b600354604080517f7ccce851000000000000000000000000000000000000000000000000000000008152336004820152905173ffffffffffffffffffffffffffffffffffffffff90921691637ccce851916024808201926020929091908290030181600087803b1580156132c057600080fd5b505af11580156132d4573d6000803e3d6000fd5b505050506040513d60208110156132ea57600080fd5b50511561335857604080517f08c379a000000000000000000000000000000000000000000000000000000000815260206004820152601c60248201527f53656e6465722063616e6e6f7420626520626c61636b6c697374656400000000604482015290519081900360640190fd5b60025474010000000000000000000000000000000000000000900460ff161561338057600080fd5b73ffffffffffffffffffffffffffffffffffffffff8416151561340457604080517f08c379a000000000000000000000000000000000000000000000000000000000815260206004820152601860248201527f746f20616464726573732063616e6e6f74206265203078300000000000000000604482015290519081900360640190fd5b61340d33612b01565b83111561347b57604080517f08c379a000000000000000000000000000000000000000000000000000000000815260206004820152601e60248201527f6e6f7420656e6f7567682062616c616e636520746f207472616e736665720000604482015290519081900360640190fd5b60048054604080517fcf8eeb7e0000000000000000000000000000000000000000000000000000000081523393810193909352602483018690525173ffffffffffffffffffffffffffffffffffffffff9091169163cf8eeb7e91604480830192600092919082900301818387803b1580156134f557600080fd5b505af1158015613509573d6000803e3d6000fd5b505060048054604080517f21e5383a00000000000000000000000000000000000000000000000000000000815273ffffffffffffffffffffffffffffffffffffffff8a8116948201949094526024810189905290519290911693506321e5383a925060448082019260009290919082900301818387803b15801561358c57600080fd5b505af11580156135a0573d6000803e3d6000fd5b505060408051868152905173ffffffffffffffffffffffffffffffffffffffff881693503392507fddf252ad1be2c89b69c2b068fc378daa952ba7f163c4a11628f55a4df523b3ef9181900360200190a35060019392505050565b60005473ffffffffffffffffffffffffffffffffffffffff16331461361f57600080fd5b600254604080517f3b947d2b00000000000000000000000000000000000000000000000000000000815273ffffffffffffffffffffffffffffffffffffffff848116600483015291519190921691633b947d2b91602480830192600092919082900301818387803b1580156113f157600080fd5b600154604080517ffaaebd2100000000000000000000000000000000000000000000000000000000815273ffffffffffffffffffffffffffffffffffffffff84811660048301529151600093929092169163faaebd219160248082019260209290919082900301818787803b158015611dc157600080fd5b600354604080517f14db6d58000000000000000000000000000000000000000000000000000000008152336004820152600080357fffffffff000000000000000000000000000000000000000000000000000000001660248301529151919283928392839273ffffffffffffffffffffffffffffffffffffffff16916314db6d589160448082019260209290919082900301818787803b1580156137ae57600080fd5b505af11580156137c2573d6000803e3d6000fd5b505050506040513d60208110156137d857600080fd5b5051151561386d57604080517f08c379a000000000000000000000000000000000000000000000000000000000815260206004820152603160248201527f5573657220646f6573206e6f742068617665207065726d697373696f6e20746f60448201527f20657865637574652066756e6374696f6e000000000000000000000000000000606482015290519081900360840190fd5b600254604080517f3af32abf00000000000000000000000000000000000000000000000000000000815273ffffffffffffffffffffffffffffffffffffffff898116600483015291519190921691633af32abf9160248083019260209291908290030181600087803b1580156138e257600080fd5b505af11580156138f6573d6000803e3d6000fd5b505050506040513d602081101561390c57600080fd5b505115156139a157604080517f08c379a000000000000000000000000000000000000000000000000000000000815260206004820152603e60248201527f537461626c65636f696e206d7573742062652077686974656c6973746564207060448201527f72696f7220746f2073657474696e6720636f6e76657273696f6e206665650000606482015290519081900360840190fd5b604080517f70a082310000000000000000000000000000000000000000000000000000000081523060048201529051879450869173ffffffffffffffffffffffffffffffffffffffff8616916370a08231916024808201926020929091908290030181600087803b158015613a1557600080fd5b505af1158015613a29573d6000803e3d6000fd5b505050506040513d6020811015613a3f57600080fd5b50511015613afa57604080517f08c379a000000000000000000000000000000000000000000000000000000000815260206004820152604360248201527f436172626f6e20657363726f77206163636f756e7420696e2057543020646f6560448201527f736e2774206861766520656e6f75676820746f6b656e7320666f72206275726e60648201527f696e670000000000000000000000000000000000000000000000000000000000608482015290519081900360a40190fd5b60015473ffffffffffffffffffffffffffffffffffffffff1663478eed7d86613b2289612f4c565b6040518363ffffffff167c0100000000000000000000000000000000000000000000000000000000028152600401808381526020018261ffff1661ffff16815260200192505050602060405180830381600087803b158015613b8357600080fd5b505af1158015613b97573d6000803e3d6000fd5b505050506040513d6020811015613bad57600080fd5b50519150613bc1858363ffffffff6147cf16565b9050613bcd33866147e1565b8273ffffffffffffffffffffffffffffffffffffffff166342966c68866040518263ffffffff167c010000000000000000000000000000000000000000000000000000000002815260040180828152602001915050600060405180830381600087803b158015613c3c57600080fd5b505af1158015613c50573d6000803e3d6000fd5b50505050613c5e3083614a16565b506040805182815260208101849052815133927f8a1387ce462b7423a12c936187028c782512f204b670218701c0d35e92bc0527928290030190a250600195945050505050565b6000805473ffffffffffffffffffffffffffffffffffffffff163314613cca57600080fd5b60055473ffffffffffffffffffffffffffffffffffffffff83811691161415613d5457604080517f08c379a000000000000000000000000000000000000000000000000000000000815260206004820152601b60248201527f4d7573742062652061206e65772073746f726167652073686565740000000000604482015290519081900360640190fd5b613d5d82614e77565b1515613df057604080517f08c379a000000000000000000000000000000000000000000000000000000000815260206004820152603860248201527f43616e6e6f7420736574206120726567756c61746f722073746f72616765207460448201527f6f2061206e6f6e2d636f6e747261637420616464726573730000000000000000606482015290519081900360840190fd5b506005805473ffffffffffffffffffffffffffffffffffffffff8381167fffffffffffffffffffffffff0000000000000000000000000000000000000000831681179093556040805191909216808252602082019390935281517fec358425c40511d576e1c52be7593403bceacda627234c873b52589fef7b2359929181900390910190a15050565b600354604080517f7ccce85100000000000000000000000000000000000000000000000000000000815273ffffffffffffffffffffffffffffffffffffffff8086166004830152915185939290921691637ccce851916024808201926020929091908290030181600087803b158015613ef157600080fd5b505af1158015613f05573d6000803e3d6000fd5b505050506040513d6020811015613f1b57600080fd5b50511515613f8a57604080517f08c379a000000000000000000000000000000000000000000000000000000000815260206004820152601860248201527f55736572206d75737420626520626c61636b6c69737465640000000000000000604482015290519081900360640190fd5b60025474010000000000000000000000000000000000000000900460ff1615613fb257600080fd5b600354604080517f14db6d58000000000000000000000000000000000000000000000000000000008152336004820152600080357fffffffff00000000000000000000000000000000000000000000000000000000166024830152915173ffffffffffffffffffffffffffffffffffffffff909316926314db6d5892604480840193602093929083900390910190829087803b15801561405157600080fd5b505af1158015614065573d6000803e3d6000fd5b505050506040513d602081101561407b57600080fd5b5051151561411057604080517f08c379a000000000000000000000000000000000000000000000000000000000815260206004820152603160248201527f5573657220646f6573206e6f742068617665207065726d697373696f6e20746f60448201527f20657865637574652066756e6374696f6e000000000000000000000000000000606482015290519081900360840190fd5b60048054604080517fcf8eeb7e00000000000000000000000000000000000000000000000000000000815273ffffffffffffffffffffffffffffffffffffffff87811694820194909452602481018690529051929091169163cf8eeb7e9160448082019260009290919082900301818387803b15801561418f57600080fd5b505af11580156141a3573d6000803e3d6000fd5b505060048054604080517f82838c760000000000000000000000000000000000000000000000000000000081529283018790525173ffffffffffffffffffffffffffffffffffffffff90911693506382838c769250602480830192600092919082900301818387803b15801561421857600080fd5b505af115801561422c573d6000803e3d6000fd5b505060408051858152905173ffffffffffffffffffffffffffffffffffffffff871693507fb81d1dffb753076892e04e6e1234d137b031f70d859c299876b0486e966424fd92509081900360200190a2505050565b6000805473ffffffffffffffffffffffffffffffffffffffff1633146142a657600080fd5b60035473ffffffffffffffffffffffffffffffffffffffff8381169116141561433057604080517f08c379a000000000000000000000000000000000000000000000000000000000815260206004820152601760248201527f4d7573742062652061206e657720726567756c61746f72000000000000000000604482015290519081900360640190fd5b61433982614e77565b15156143cc57604080517f08c379a000000000000000000000000000000000000000000000000000000000815260206004820152603860248201527f43616e6e6f7420736574206120726567756c61746f722073746f72616765207460448201527f6f2061206e6f6e2d636f6e747261637420616464726573730000000000000000606482015290519081900360840190fd5b506003805473ffffffffffffffffffffffffffffffffffffffff8381167fffffffffffffffffffffffff0000000000000000000000000000000000000000831681179093556040805191909216808252602082019390935281517f4a59b4b607c6055b37a4716d7813d7d4d2c288e4d0dd8298e365b260a1f262e8929181900390910190a15050565b60005473ffffffffffffffffffffffffffffffffffffffff16331461447957600080fd5b61218381614e7f565b600354604080517f7ccce85100000000000000000000000000000000000000000000000000000000815273ffffffffffffffffffffffffffffffffffffffff8086166004830152915160009386931691637ccce85191602480830192602092919082900301818887803b1580156144f857600080fd5b505af115801561450c573d6000803e3d6000fd5b505050506040513d602081101561452257600080fd5b50511561459057604080517f08c379a000000000000000000000000000000000000000000000000000000000815260206004820152601c60248201527f55736572206d757374206e6f7420626520626c61636b6c697374656400000000604482015290519081900360640190fd5b600354604080517f7ccce851000000000000000000000000000000000000000000000000000000008152336004820152905173ffffffffffffffffffffffffffffffffffffffff90921691637ccce851916024808201926020929091908290030181600087803b15801561460357600080fd5b505af1158015614617573d6000803e3d6000fd5b505050506040513d602081101561462d57600080fd5b50511561469b57604080517f08c379a000000000000000000000000000000000000000000000000000000000815260206004820152601e60248201527f53656e646572206d757374206e6f7420626520626c61636b6c69737465640000604482015290519081900360640190fd5b60025474010000000000000000000000000000000000000000900460ff16156146c357600080fd5b612582848433615020565b60015473ffffffffffffffffffffffffffffffffffffffff1681565b600554604080517f1a46ec8200000000000000000000000000000000000000000000000000000000815273ffffffffffffffffffffffffffffffffffffffff8581166004830152848116602483015291516000939290921691631a46ec829160448082019260209290919082900301818787803b15801561126d57600080fd5b60035473ffffffffffffffffffffffffffffffffffffffff1681565b60025473ffffffffffffffffffffffffffffffffffffffff1681565b60005473ffffffffffffffffffffffffffffffffffffffff1633146147c657600080fd5b612183816151a1565b6000828211156147db57fe5b50900390565b6147ea82612b01565b81111561485857604080517f08c379a000000000000000000000000000000000000000000000000000000000815260206004820152601a60248201527f6e6f7420656e6f7567682062616c616e636520746f206275726e000000000000604482015290519081900360640190fd5b60048054604080517fcf8eeb7e00000000000000000000000000000000000000000000000000000000815273ffffffffffffffffffffffffffffffffffffffff86811694820194909452602481018590529051929091169163cf8eeb7e9160448082019260009290919082900301818387803b1580156148d757600080fd5b505af11580156148eb573d6000803e3d6000fd5b505060048054604080517f82838c760000000000000000000000000000000000000000000000000000000081529283018690525173ffffffffffffffffffffffffffffffffffffffff90911693506382838c769250602480830192600092919082900301818387803b15801561496057600080fd5b505af1158015614974573d6000803e3d6000fd5b505060408051848152905173ffffffffffffffffffffffffffffffffffffffff861693507fcc16f5dbb4873280815c1ee09dbd06736cffcc184412cf7a71a0fdb75d397ca592509081900360200190a260408051828152905160009173ffffffffffffffffffffffffffffffffffffffff8516917fddf252ad1be2c89b69c2b068fc378daa952ba7f163c4a11628f55a4df523b3ef9181900360200190a35050565b6000611fec8383615250565b60015460009073ffffffffffffffffffffffffffffffffffffffff83811691161415614aaf57604080517f08c379a000000000000000000000000000000000000000000000000000000000815260206004820152601760248201527f4d7573742062652061206e657720666565207368656574000000000000000000604482015290519081900360640190fd5b614ab882614e77565b1515614b2557604080517f08c379a000000000000000000000000000000000000000000000000000000000815260206004820152601a60248201527f4d75737420626520616e2061637475616c20636f6e7472616374000000000000604482015290519081900360640190fd5b506001805473ffffffffffffffffffffffffffffffffffffffff8381167fffffffffffffffffffffffff0000000000000000000000000000000000000000831681179093556040519116919082907ffa50850a9a205a6eab44ae568df104b00a5fd26ba0ded7dd81d4879c6a27d29b90600090a35050565b600554604080517f1a46ec8200000000000000000000000000000000000000000000000000000000815273ffffffffffffffffffffffffffffffffffffffff8481166004830152868116602483015291516000939290921691631a46ec829160448082019260209290919082900301818787803b158015614c1d57600080fd5b505af1158015614c31573d6000803e3d6000fd5b505050506040513d6020811015614c4757600080fd5b5051905080831115614cf157600554604080517fda46098c00000000000000000000000000000000000000000000000000000000815273ffffffffffffffffffffffffffffffffffffffff85811660048301528781166024830152600060448301819052925193169263da46098c9260648084019391929182900301818387803b158015614cd457600080fd5b505af1158015614ce8573d6000803e3d6000fd5b50505050614d8d565b600554604080517f97d88cd200000000000000000000000000000000000000000000000000000000815273ffffffffffffffffffffffffffffffffffffffff8581166004830152878116602483015260448201879052915191909216916397d88cd291606480830192600092919082900301818387803b158015614d7457600080fd5b505af1158015614d88573d6000803e3d6000fd5b505050505b600554604080517f1a46ec8200000000000000000000000000000000000000000000000000000000815273ffffffffffffffffffffffffffffffffffffffff85811660048301819052888216602484018190529351939490937f8c5be1e5ebec7d5bd14f71427d1e84f3dd0314c0f7b2291e5b200ac8c7c3b925939290911691631a46ec829160448083019260209291908290030181600087803b158015614e3457600080fd5b505af1158015614e48573d6000803e3d6000fd5b505050506040513d6020811015614e5e57600080fd5b505160408051918252519081900360200190a350505050565b6000903b1190565b60025460009073ffffffffffffffffffffffffffffffffffffffff83811691161415614f3257604080517f08c379a000000000000000000000000000000000000000000000000000000000815260206004820152602260248201527f4d7573742062652061206e657720737461626c65636f696e2077686974656c6960448201527f7374000000000000000000000000000000000000000000000000000000000000606482015290519081900360840190fd5b614f3b82614e77565b1515614fa857604080517f08c379a000000000000000000000000000000000000000000000000000000000815260206004820152601a60248201527f4d75737420626520616e2061637475616c20636f6e7472616374000000000000604482015290519081900360640190fd5b506002805473ffffffffffffffffffffffffffffffffffffffff8381167fffffffffffffffffffffffff0000000000000000000000000000000000000000831681179093556040519116919082907f9d4cc8ae350dd03b669fc5b6d399ea6b56438abd19c07b3e71abd09552bafe3490600090a35050565b600554604080517f5fd72d1600000000000000000000000000000000000000000000000000000000815273ffffffffffffffffffffffffffffffffffffffff848116600483015286811660248301526044820186905291519190921691635fd72d1691606480830192600092919082900301818387803b1580156150a357600080fd5b505af11580156150b7573d6000803e3d6000fd5b5050600554604080517f1a46ec8200000000000000000000000000000000000000000000000000000000815273ffffffffffffffffffffffffffffffffffffffff86811660048301819052818a1660248401819052935193965094507f8c5be1e5ebec7d5bd14f71427d1e84f3dd0314c0f7b2291e5b200ac8c7c3b925931691631a46ec82916044808201926020929091908290030181600087803b15801561515f57600080fd5b505af1158015615173573d6000803e3d6000fd5b505050506040513d602081101561518957600080fd5b505160408051918252519081900360200190a3505050565b73ffffffffffffffffffffffffffffffffffffffff811615156151c357600080fd5b6000805460405173ffffffffffffffffffffffffffffffffffffffff808516939216917f8be0079c531659141344cd1fd0a4f28419497f9722a3daafe3b4186f6b6457e091a3600080547fffffffffffffffffffffffff00000000000000000000000000000000000000001673ffffffffffffffffffffffffffffffffffffffff92909216919091179055565b600354604080517fd88c271e00000000000000000000000000000000000000000000000000000000815273ffffffffffffffffffffffffffffffffffffffff808616600483015291516000938693169163d88c271e91602480830192602092919082900301818887803b1580156152c657600080fd5b505af11580156152da573d6000803e3d6000fd5b505050506040513d60208110156152f057600080fd5b5051151561535f57604080517f08c379a000000000000000000000000000000000000000000000000000000000815260206004820152601860248201527f55736572206d7573742062652077686974656c69737465640000000000000000604482015290519081900360640190fd5b60048054604080517fe468688e0000000000000000000000000000000000000000000000000000000081529283018690525173ffffffffffffffffffffffffffffffffffffffff9091169163e468688e91602480830192600092919082900301818387803b1580156153d057600080fd5b505af11580156153e4573d6000803e3d6000fd5b505060048054604080517f21e5383a00000000000000000000000000000000000000000000000000000000815273ffffffffffffffffffffffffffffffffffffffff8a8116948201949094526024810189905290519290911693506321e5383a925060448082019260009290919082900301818387803b15801561546757600080fd5b505af115801561547b573d6000803e3d6000fd5b505060408051868152905173ffffffffffffffffffffffffffffffffffffffff881693507f0f6798a560793a54c3bcfe86a93cde1e73087d944c0ea20544137d412139688592509081900360200190a260408051848152905173ffffffffffffffffffffffffffffffffffffffff8616916000917fddf252ad1be2c89b69c2b068fc378daa952ba7f163c4a11628f55a4df523b3ef9181900360200190a350600193925050505600a165627a7a723058208aa4ae73dbbeb55c29a8679050f5c1ebc84dbfef037cb8aa56ab9328b5697ff50029",
  "source": "pragma solidity ^0.4.24;\nimport \"./dataStorage/MutableCarbonDollarStorage.sol\";\nimport \"../permissionedToken/PermissionedToken.sol\";\nimport \"../whitelistedToken/WhitelistedToken.sol\";\n\n/**\n* @title CarbonDollar\n* @notice The main functionality for the CarbonUSD metatoken. (CarbonUSD is just a proxy\n* on top of this token contract.) This is a permissioned token, so users have to be \n* whitelisted before they can do any mint/burn/convert operation.\n*/\ncontract CarbonDollar is MutableCarbonDollarStorage, PermissionedToken {\n    // Events\n    event ConvertedToWT(address indexed user, uint256 amount);\n    event BurnedCUSD(address indexed user, uint256 feedAmount, uint256 chargedFee);\n    /**\n        Modifiers\n    */\n    modifier requiresWhitelistedToken() {\n        require(stablecoinWhitelist.isWhitelisted(msg.sender), \"Sender must be a whitelisted token contract\");\n        _;\n    }\n\n    /** CONSTRUCTOR\n    * @dev Passes along arguments to base class.\n    */\n    constructor(address r, address b, address a, address f, address s) \n    PermissionedToken(r, b, a) \n    MutableCarbonDollarStorage(f, s) public {}\n\n    /**\n     * @notice Add new stablecoin to whitelist.\n     * @param _stablecoin Address of stablecoin contract.\n     */\n    function listToken(address _stablecoin) public onlyOwner {\n        stablecoinWhitelist.addStablecoin(_stablecoin); \n    }\n\n    /**\n     * @notice Remove existing stablecoin from whitelist.\n     * @param _stablecoin Address of stablecoin contract.\n     */\n    function unlistToken(address _stablecoin) public onlyOwner {\n        stablecoinWhitelist.removeStablecoin(_stablecoin);\n    }\n\n    /**\n     * @notice Indicate if stablecoin is whitelisted or not.\n     * @param _stablecoin Address of stablecoin contract.\n     * @return Whether or not the stablecoin is on the whitelist.\n     */\n    function isWhitelisted(address _stablecoin) public view returns (bool) {\n        return stablecoinWhitelist.isWhitelisted(_stablecoin);\n    }\n\n    /**\n     * @notice Change fees associated with going from CarbonUSD to a particular stablecoin.\n     * @param stablecoin Address of the stablecoin contract.\n     * @param _newFee The new fee rate to set, in tenths of a percent. \n     */\n    function setFee(address stablecoin, uint16 _newFee) public onlyOwner {\n        require(stablecoinWhitelist.isWhitelisted(stablecoin), \"Stablecoin must be whitelisted prior to setting conversion fee\");\n        stablecoinFees.setFee(stablecoin, _newFee);\n    }\n\n    /**\n     * @notice Remove fees associated with going from CarbonUSD to a particular stablecoin.\n     * The default fee still may apply.\n     * @param stablecoin Address of the stablecoin contract.\n     */\n    function removeFee(address stablecoin) public onlyOwner {\n        require(stablecoinWhitelist.isWhitelisted(stablecoin), \"Stablecoin must be whitelisted prior to setting conversion fee\");\n        stablecoinFees.removeFee(stablecoin);\n    }\n\n    /**\n     * @notice Change the default fee associated with going from CarbonUSD to a WhitelistedToken.\n     * This fee amount is used if the fee for a WhitelistedToken is not specified.\n     * @param _newFee The new fee rate to set, in tenths of a percent.\n     */\n    function setDefaultFee(uint16 _newFee) public onlyOwner {\n        stablecoinFees.setDefaultFee(_newFee);\n    }\n\n    /**\n     * @notice Get the fee associated with going from CarbonUSD to a specific WhitelistedToken.\n     * @param stablecoin The stablecoin whose fee is being checked.\n     * @return The fee associated with the stablecoin.\n     */\n    function getFee(address stablecoin) public view returns (uint16) {\n        return stablecoinFees.fees(stablecoin);\n    }\n\n    /**\n     * @notice Get the default fee associated with going from CarbonUSD to a specific WhitelistedToken.\n     * @return The default fee for stablecoin trades.\n     */\n    function getDefaultFee() public view returns (uint16) {\n        return stablecoinFees.defaultFee();\n    }\n\n    /**\n     * @notice Mints CUSD on behalf of a user. Note the use of the \"requiresWhitelistedToken\"\n     * modifier; this means that minting authority does not belong to any personal account; \n     * only whitelisted token contracts can call this function.\n     * @param _to User to send CUSD to\n     * @param _amount Amount of CarbonUSD to burn.\n     */\n    function mint(address _to, uint256 _amount) public requiresWhitelistedToken returns (bool) {\n        return _mint(_to, _amount);\n    }\n\n    function _mint(address _to, uint256 _amount) internal returns (bool) {\n        return super._mint(_to, _amount);\n    }\n\n    /**\n     * @notice user can convert CarbonUSD umbrella token into the underlying assets. This is potentially interchain (EOS, ETH, Hedera etc)\n     * @param stablecoin represents the type of coin the users wishes to receive for burning carbonUSD\n     * @param _amount Amount of CarbonUSD to convert.\n     * we credit the user's account at the sender address with the _amount minus the percentage fee we want to charge.\n     */\n    function convertCarbonDollar(address stablecoin, uint256 _amount) public requiresPermission returns (bool) {\n        require(stablecoinWhitelist.isWhitelisted(stablecoin), \"Stablecoin must be whitelisted prior to setting conversion fee\");\n        WhitelistedToken w = WhitelistedToken(stablecoin);\n        require(w.balanceOf(address(this)) >= _amount, \"Carbon escrow account in WT0 doesn't have enough tokens for burning\");\n \n        // Send back WT0 to calling user, but with a fee reduction.\n        // Transfer this fee into this Carbon account (this contract's address)\n        uint256 chargedFee = stablecoinFees.computeFee(_amount, computeFeeRate(stablecoin));\n        uint256 feedAmount = _amount.sub(chargedFee);\n        _burn(msg.sender, _amount);\n        w.transfer(msg.sender, feedAmount);\n        w.burn(chargedFee);\n        _mint(address(this), chargedFee);\n        emit ConvertedToWT(msg.sender, _amount);\n        return true;\n    }\n\n     /**\n     * @notice Burns CarbonDollar.\n     * @param stablecoin Represents the stablecoin whose fee will be charged.\n     * @param _amount Amount of CarbonUSD to burn.\n     */\n    function burnCarbonDollar(address stablecoin, uint256 _amount) public requiresPermission returns (bool) {\n        require(stablecoinWhitelist.isWhitelisted(stablecoin), \"Stablecoin must be whitelisted prior to setting conversion fee\");\n        WhitelistedToken w = WhitelistedToken(stablecoin);\n        require(w.balanceOf(address(this)) >= _amount, \"Carbon escrow account in WT0 doesn't have enough tokens for burning\");\n \n        // Burn user's CUSD, but with a fee reduction.\n        uint256 chargedFee = stablecoinFees.computeFee(_amount, computeFeeRate(stablecoin));\n        uint256 feedAmount = _amount.sub(chargedFee);\n        _burn(msg.sender, _amount);\n        w.burn(_amount);\n        _mint(address(this), chargedFee);\n        emit BurnedCUSD(msg.sender, feedAmount, chargedFee);\n        return true;\n    }\n\n    /** Computes fee percentage associated with burning into a particular stablecoin.\n     * @param stablecoin The stablecoin whose fee will be charged. Precondition: is a whitelisted\n     * stablecoin.\n     * @return The fee that will be charged. If the stablecoin's fee is not set, the default\n     * fee is returned.\n     */\n    function computeFeeRate(address stablecoin) public view returns (uint16 feeRate) {\n        if (stablecoinFees.isFeeSet(stablecoin)) // If fee for coin is not set\n            feeRate = stablecoinFees.fees(stablecoin);\n        else\n            feeRate = stablecoinFees.defaultFee();\n    }\n\n    /**\n     * @notice Compute the fee for converting a particular amount of CarbonUSD to a specific WhitelistedToken.\n     * @param amount The amount that the fee will be charged on.\n     * @param stablecoin The stablecoin to check fees for.\n     * @return The fee charged on the amount for the specified whitelisted token.\n     */\n    function computeStablecoinFee(uint256 amount, address stablecoin) public view returns (uint256) {\n        return stablecoinFees.computeStablecoinFee(amount, stablecoin);\n    }\n}",
  "sourcePath": "/Users/tanishqaggarwal/Documents/carbon/fiat_gateway/contracts/tokens/carbonToken/CarbonDollar.sol",
  "compiler": {
    "name": "solc",
    "version": "0.4.24+commit.e67f0147.Emscripten.clang"
  },
  "schemaVersion": "2.0.1",
  "updatedAt": "2018-08-13T20:26:47.628Z"
}