{
  "contractName": "CarbonDollar",
  "abi": [
    {
      "constant": false,
      "inputs": [
        {
          "name": "_spender",
          "type": "address"
        },
        {
          "name": "_value",
          "type": "uint256"
        }
      ],
      "name": "approve",
      "outputs": [
        {
          "name": "",
          "type": "bool"
        }
      ],
      "payable": false,
      "stateMutability": "nonpayable",
      "type": "function"
    },
    {
      "constant": true,
      "inputs": [],
      "name": "totalSupply",
      "outputs": [
        {
          "name": "",
          "type": "uint256"
        }
      ],
      "payable": false,
      "stateMutability": "view",
      "type": "function"
    },
    {
      "constant": false,
      "inputs": [
        {
          "name": "_from",
          "type": "address"
        },
        {
          "name": "_to",
          "type": "address"
        },
        {
          "name": "_amount",
          "type": "uint256"
        }
      ],
      "name": "transferFrom",
      "outputs": [
        {
          "name": "",
          "type": "bool"
        }
      ],
      "payable": false,
      "stateMutability": "nonpayable",
      "type": "function"
    },
    {
      "constant": true,
      "inputs": [],
      "name": "allowances",
      "outputs": [
        {
          "name": "",
          "type": "address"
        }
      ],
      "payable": false,
      "stateMutability": "view",
      "type": "function"
    },
    {
      "constant": false,
      "inputs": [],
      "name": "unpause",
      "outputs": [],
      "payable": false,
      "stateMutability": "nonpayable",
      "type": "function"
    },
    {
      "constant": false,
      "inputs": [
        {
          "name": "_amount",
          "type": "uint256"
        }
      ],
      "name": "burn",
      "outputs": [],
      "payable": false,
      "stateMutability": "nonpayable",
      "type": "function"
    },
    {
      "constant": true,
      "inputs": [],
      "name": "blacklisted",
      "outputs": [
        {
          "name": "",
          "type": "bool"
        }
      ],
      "payable": false,
      "stateMutability": "view",
      "type": "function"
    },
    {
      "constant": true,
      "inputs": [],
      "name": "paused",
      "outputs": [
        {
          "name": "",
          "type": "bool"
        }
      ],
      "payable": false,
      "stateMutability": "view",
      "type": "function"
    },
    {
      "constant": false,
      "inputs": [
        {
          "name": "_feesheet",
          "type": "address"
        }
      ],
      "name": "setFeeSheet",
      "outputs": [],
      "payable": false,
      "stateMutability": "nonpayable",
      "type": "function"
    },
    {
      "constant": false,
      "inputs": [
        {
          "name": "_spender",
          "type": "address"
        },
        {
          "name": "_subtractedValue",
          "type": "uint256"
        }
      ],
      "name": "decreaseApproval",
      "outputs": [
        {
          "name": "",
          "type": "bool"
        }
      ],
      "payable": false,
      "stateMutability": "nonpayable",
      "type": "function"
    },
    {
      "constant": false,
      "inputs": [
        {
          "name": "_blacklistedAccount",
          "type": "address"
        }
      ],
      "name": "approveBlacklistedAddressSpender",
      "outputs": [],
      "payable": false,
      "stateMutability": "nonpayable",
      "type": "function"
    },
    {
      "constant": true,
      "inputs": [
        {
          "name": "who",
          "type": "address"
        }
      ],
      "name": "balanceOf",
      "outputs": [
        {
          "name": "",
          "type": "uint256"
        }
      ],
      "payable": false,
      "stateMutability": "view",
      "type": "function"
    },
    {
      "constant": false,
      "inputs": [],
      "name": "renounceOwnership",
      "outputs": [],
      "payable": false,
      "stateMutability": "nonpayable",
      "type": "function"
    },
    {
      "constant": false,
      "inputs": [
        {
          "name": "_newStorageAddress",
          "type": "address"
        }
      ],
      "name": "setBalanceStorage",
      "outputs": [],
      "payable": false,
      "stateMutability": "nonpayable",
      "type": "function"
    },
    {
      "constant": true,
      "inputs": [],
      "name": "balances",
      "outputs": [
        {
          "name": "",
          "type": "address"
        }
      ],
      "payable": false,
      "stateMutability": "view",
      "type": "function"
    },
    {
      "constant": false,
      "inputs": [],
      "name": "pause",
      "outputs": [],
      "payable": false,
      "stateMutability": "nonpayable",
      "type": "function"
    },
    {
      "constant": true,
      "inputs": [],
      "name": "isMethodEnabled",
      "outputs": [
        {
          "name": "",
          "type": "bool"
        }
      ],
      "payable": false,
      "stateMutability": "view",
      "type": "function"
    },
    {
      "constant": false,
      "inputs": [],
      "name": "claimBalanceOwnership",
      "outputs": [],
      "payable": false,
      "stateMutability": "nonpayable",
      "type": "function"
    },
    {
      "constant": true,
      "inputs": [],
      "name": "owner",
      "outputs": [
        {
          "name": "",
          "type": "address"
        }
      ],
      "payable": false,
      "stateMutability": "view",
      "type": "function"
    },
    {
      "constant": false,
      "inputs": [],
      "name": "claimAllowanceOwnership",
      "outputs": [],
      "payable": false,
      "stateMutability": "nonpayable",
      "type": "function"
    },
    {
      "constant": false,
      "inputs": [],
      "name": "unlock",
      "outputs": [],
      "payable": false,
      "stateMutability": "nonpayable",
      "type": "function"
    },
    {
      "constant": false,
      "inputs": [
        {
          "name": "_to",
          "type": "address"
        },
        {
          "name": "_amount",
          "type": "uint256"
        }
      ],
      "name": "transfer",
      "outputs": [
        {
          "name": "",
          "type": "bool"
        }
      ],
      "payable": false,
      "stateMutability": "nonpayable",
      "type": "function"
    },
    {
      "constant": false,
      "inputs": [
        {
          "name": "_newStorageAddress",
          "type": "address"
        }
      ],
      "name": "setAllowanceStorage",
      "outputs": [],
      "payable": false,
      "stateMutability": "nonpayable",
      "type": "function"
    },
    {
      "constant": false,
      "inputs": [
        {
          "name": "_who",
          "type": "address"
        },
        {
          "name": "_amount",
          "type": "uint256"
        }
      ],
      "name": "destroyBlacklistedTokens",
      "outputs": [],
      "payable": false,
      "stateMutability": "nonpayable",
      "type": "function"
    },
    {
      "constant": false,
      "inputs": [
        {
          "name": "_newStorageAddress",
          "type": "address"
        }
      ],
      "name": "setRegulator",
      "outputs": [],
      "payable": false,
      "stateMutability": "nonpayable",
      "type": "function"
    },
    {
      "constant": false,
      "inputs": [
        {
          "name": "_whitelist",
          "type": "address"
        }
      ],
      "name": "setStablecoinWhitelist",
      "outputs": [],
      "payable": false,
      "stateMutability": "nonpayable",
      "type": "function"
    },
    {
      "constant": false,
      "inputs": [
        {
          "name": "_spender",
          "type": "address"
        },
        {
          "name": "_addedValue",
          "type": "uint256"
        }
      ],
      "name": "increaseApproval",
      "outputs": [
        {
          "name": "",
          "type": "bool"
        }
      ],
      "payable": false,
      "stateMutability": "nonpayable",
      "type": "function"
    },
    {
      "constant": true,
      "inputs": [],
      "name": "stablecoinFees",
      "outputs": [
        {
          "name": "",
          "type": "address"
        }
      ],
      "payable": false,
      "stateMutability": "view",
      "type": "function"
    },
    {
      "constant": true,
      "inputs": [
        {
          "name": "owner",
          "type": "address"
        },
        {
          "name": "spender",
          "type": "address"
        }
      ],
      "name": "allowance",
      "outputs": [
        {
          "name": "",
          "type": "uint256"
        }
      ],
      "payable": false,
      "stateMutability": "view",
      "type": "function"
    },
    {
      "constant": true,
      "inputs": [],
      "name": "regulator",
      "outputs": [
        {
          "name": "",
          "type": "address"
        }
      ],
      "payable": false,
      "stateMutability": "view",
      "type": "function"
    },
    {
      "constant": true,
      "inputs": [],
      "name": "stablecoinWhitelist",
      "outputs": [
        {
          "name": "",
          "type": "address"
        }
      ],
      "payable": false,
      "stateMutability": "view",
      "type": "function"
    },
    {
      "constant": false,
      "inputs": [
        {
          "name": "_newOwner",
          "type": "address"
        }
      ],
      "name": "transferOwnership",
      "outputs": [],
      "payable": false,
      "stateMutability": "nonpayable",
      "type": "function"
    },
    {
      "constant": false,
      "inputs": [],
      "name": "lock",
      "outputs": [],
      "payable": false,
      "stateMutability": "nonpayable",
      "type": "function"
    },
    {
      "inputs": [
        {
          "name": "r",
          "type": "address"
        },
        {
          "name": "b",
          "type": "address"
        },
        {
          "name": "a",
          "type": "address"
        },
        {
          "name": "f",
          "type": "address"
        },
        {
          "name": "s",
          "type": "address"
        }
      ],
      "payable": false,
      "stateMutability": "nonpayable",
      "type": "constructor"
    },
    {
      "anonymous": false,
      "inputs": [
        {
          "indexed": true,
          "name": "user",
          "type": "address"
        },
        {
          "indexed": false,
          "name": "amount",
          "type": "uint256"
        }
      ],
      "name": "ConvertedToWT",
      "type": "event"
    },
    {
      "anonymous": false,
      "inputs": [
        {
          "indexed": true,
          "name": "user",
          "type": "address"
        },
        {
          "indexed": false,
          "name": "feedAmount",
          "type": "uint256"
        },
        {
          "indexed": false,
          "name": "chargedFee",
          "type": "uint256"
        }
      ],
      "name": "BurnedCUSD",
      "type": "event"
    },
    {
      "anonymous": false,
      "inputs": [
        {
          "indexed": true,
          "name": "account",
          "type": "address"
        },
        {
          "indexed": false,
          "name": "amount",
          "type": "uint256"
        }
      ],
      "name": "DestroyedBlacklistedTokens",
      "type": "event"
    },
    {
      "anonymous": false,
      "inputs": [
        {
          "indexed": true,
          "name": "owner",
          "type": "address"
        },
        {
          "indexed": true,
          "name": "spender",
          "type": "address"
        },
        {
          "indexed": false,
          "name": "value",
          "type": "uint256"
        }
      ],
      "name": "ApprovedBlacklistedAddressSpender",
      "type": "event"
    },
    {
      "anonymous": false,
      "inputs": [
        {
          "indexed": true,
          "name": "to",
          "type": "address"
        },
        {
          "indexed": false,
          "name": "value",
          "type": "uint256"
        }
      ],
      "name": "Mint",
      "type": "event"
    },
    {
      "anonymous": false,
      "inputs": [
        {
          "indexed": true,
          "name": "burner",
          "type": "address"
        },
        {
          "indexed": false,
          "name": "value",
          "type": "uint256"
        }
      ],
      "name": "Burn",
      "type": "event"
    },
    {
      "anonymous": false,
      "inputs": [
        {
          "indexed": true,
          "name": "from",
          "type": "address"
        },
        {
          "indexed": true,
          "name": "to",
          "type": "address"
        },
        {
          "indexed": false,
          "name": "value",
          "type": "uint256"
        }
      ],
      "name": "Transfer",
      "type": "event"
    },
    {
      "anonymous": false,
      "inputs": [
        {
          "indexed": true,
          "name": "owner",
          "type": "address"
        },
        {
          "indexed": true,
          "name": "spender",
          "type": "address"
        },
        {
          "indexed": false,
          "name": "value",
          "type": "uint256"
        }
      ],
      "name": "Approval",
      "type": "event"
    },
    {
      "anonymous": false,
      "inputs": [
        {
          "indexed": false,
          "name": "_old",
          "type": "address"
        },
        {
          "indexed": false,
          "name": "_new",
          "type": "address"
        }
      ],
      "name": "ChangedRegulator",
      "type": "event"
    },
    {
      "anonymous": false,
      "inputs": [
        {
          "indexed": false,
          "name": "_old",
          "type": "address"
        },
        {
          "indexed": false,
          "name": "_new",
          "type": "address"
        }
      ],
      "name": "ChangedBalanceStorage",
      "type": "event"
    },
    {
      "anonymous": false,
      "inputs": [
        {
          "indexed": false,
          "name": "_old",
          "type": "address"
        },
        {
          "indexed": false,
          "name": "_new",
          "type": "address"
        }
      ],
      "name": "ChangedAllowanceStorage",
      "type": "event"
    },
    {
      "anonymous": false,
      "inputs": [],
      "name": "Unlocked",
      "type": "event"
    },
    {
      "anonymous": false,
      "inputs": [],
      "name": "Locked",
      "type": "event"
    },
    {
      "anonymous": false,
      "inputs": [],
      "name": "Pause",
      "type": "event"
    },
    {
      "anonymous": false,
      "inputs": [],
      "name": "Unpause",
      "type": "event"
    },
    {
      "anonymous": false,
      "inputs": [
        {
          "indexed": true,
          "name": "oldSheet",
          "type": "address"
        },
        {
          "indexed": true,
          "name": "newSheet",
          "type": "address"
        }
      ],
      "name": "FeeSheetChanged",
      "type": "event"
    },
    {
      "anonymous": false,
      "inputs": [
        {
          "indexed": true,
          "name": "oldWhitelist",
          "type": "address"
        },
        {
          "indexed": true,
          "name": "newWhitelist",
          "type": "address"
        }
      ],
      "name": "StablecoinWhitelistChanged",
      "type": "event"
    },
    {
      "anonymous": false,
      "inputs": [
        {
          "indexed": true,
          "name": "previousOwner",
          "type": "address"
        }
      ],
      "name": "OwnershipRenounced",
      "type": "event"
    },
    {
      "anonymous": false,
      "inputs": [
        {
          "indexed": true,
          "name": "previousOwner",
          "type": "address"
        },
        {
          "indexed": true,
          "name": "newOwner",
          "type": "address"
        }
      ],
      "name": "OwnershipTransferred",
      "type": "event"
    },
    {
      "constant": false,
      "inputs": [
        {
          "name": "_stablecoin",
          "type": "address"
        }
      ],
      "name": "listToken",
      "outputs": [],
      "payable": false,
      "stateMutability": "nonpayable",
      "type": "function"
    },
    {
      "constant": false,
      "inputs": [
        {
          "name": "_stablecoin",
          "type": "address"
        }
      ],
      "name": "unlistToken",
      "outputs": [],
      "payable": false,
      "stateMutability": "nonpayable",
      "type": "function"
    },
    {
      "constant": true,
      "inputs": [
        {
          "name": "_stablecoin",
          "type": "address"
        }
      ],
      "name": "isWhitelisted",
      "outputs": [
        {
          "name": "",
          "type": "bool"
        }
      ],
      "payable": false,
      "stateMutability": "view",
      "type": "function"
    },
    {
      "constant": false,
      "inputs": [
        {
          "name": "stablecoin",
          "type": "address"
        },
        {
          "name": "_newFee",
          "type": "uint256"
        }
      ],
      "name": "setFee",
      "outputs": [],
      "payable": false,
      "stateMutability": "nonpayable",
      "type": "function"
    },
    {
      "constant": false,
      "inputs": [
        {
          "name": "stablecoin",
          "type": "address"
        }
      ],
      "name": "removeFee",
      "outputs": [],
      "payable": false,
      "stateMutability": "nonpayable",
      "type": "function"
    },
    {
      "constant": false,
      "inputs": [
        {
          "name": "_newFee",
          "type": "uint256"
        }
      ],
      "name": "setDefaultFee",
      "outputs": [],
      "payable": false,
      "stateMutability": "nonpayable",
      "type": "function"
    },
    {
      "constant": true,
      "inputs": [
        {
          "name": "stablecoin",
          "type": "address"
        }
      ],
      "name": "getFee",
      "outputs": [
        {
          "name": "",
          "type": "uint256"
        }
      ],
      "payable": false,
      "stateMutability": "view",
      "type": "function"
    },
    {
      "constant": true,
      "inputs": [],
      "name": "getDefaultFee",
      "outputs": [
        {
          "name": "",
          "type": "uint256"
        }
      ],
      "payable": false,
      "stateMutability": "view",
      "type": "function"
    },
    {
      "constant": false,
      "inputs": [
        {
          "name": "_to",
          "type": "address"
        },
        {
          "name": "_amount",
          "type": "uint256"
        }
      ],
      "name": "mint",
      "outputs": [],
      "payable": false,
      "stateMutability": "nonpayable",
      "type": "function"
    },
    {
      "constant": false,
      "inputs": [
        {
          "name": "stablecoin",
          "type": "address"
        },
        {
          "name": "_amount",
          "type": "uint256"
        }
      ],
      "name": "convertCarbonDollar",
      "outputs": [],
      "payable": false,
      "stateMutability": "nonpayable",
      "type": "function"
    },
    {
      "constant": false,
      "inputs": [
        {
          "name": "stablecoin",
          "type": "address"
        },
        {
          "name": "_amount",
          "type": "uint256"
        }
      ],
      "name": "burnCarbonDollar",
      "outputs": [],
      "payable": false,
      "stateMutability": "nonpayable",
      "type": "function"
    },
    {
      "constant": true,
      "inputs": [
        {
          "name": "stablecoin",
          "type": "address"
        }
      ],
      "name": "computeFeeRate",
      "outputs": [
        {
          "name": "feeRate",
          "type": "uint256"
        }
      ],
      "payable": false,
      "stateMutability": "view",
      "type": "function"
    },
    {
      "constant": true,
      "inputs": [
        {
          "name": "amount",
          "type": "uint256"
        },
        {
          "name": "stablecoin",
          "type": "address"
        }
      ],
      "name": "computeStablecoinFee",
      "outputs": [
        {
          "name": "",
          "type": "uint256"
        }
      ],
      "payable": false,
      "stateMutability": "view",
      "type": "function"
    }
  ],
  "bytecode": "0x60806040526002805460a060020a61ffff021916905534801561002157600080fd5b5060405160a08062005a0f833981016040908152815160208301519183015160608401516080909401516000805433600160a060020a0319918216178255600180548216600160a060020a0398891617905560028054821693881693909317909255600380548316948716949094179093556004805482169486169490941790935560058054909316931692909217905561594c908190620000c390396000f30060806040526004361061022f5763ffffffff7c0100000000000000000000000000000000000000000000000000000000600035041663095ea7b381146102345780630d4b820814610279578063166e55d9146102ac57806318160ddd146102ef5780631fc1e25f1461030457806321bacf281461033257806323b872dd146103475780633af32abf1461037e5780633ed10b92146103ac5780633f4ba83a146103ea57806340c10f19146103ff57806342966c68146104305780635bae9ce9146104485780635c975abb1461045d57806360814fe81461047257806366188463146104a0578063662f94c0146104d15780636ad26611146104ff57806370a082311461052d578063715018a61461055b57806373e9e0e5146105705780637bb98a681461059e5780638456cb59146105b3578063873ab2ce146105c857806388fa2617146105f65780638955ed7e1461060b5780638da5cb5b146106205780639b2bdc2014610635578063a69df4b51461064a578063a9059cbb1461065f578063abcb993414610690578063b88c9148146106be578063ba6f4ab0146106ec578063c52dd6441461071d578063c534ba4b1461074b578063c93a6c841461077c578063cde0a4f814610794578063d1a15eba146107c2578063d73dd623146107f0578063d965156614610821578063dd62ed3e14610836578063dd8fee141461086a578063e14852e31461087f578063e55156b514610894578063f2fde38b146108c5578063f83d08ba146108f3575b600080fd5b34801561024057600080fd5b5061026573ffffffffffffffffffffffffffffffffffffffff60043516602435610908565b604080519115158252519081900360200190f35b34801561028557600080fd5b506102aa73ffffffffffffffffffffffffffffffffffffffff60043516602435610c63565b005b3480156102b857600080fd5b506102dd60043573ffffffffffffffffffffffffffffffffffffffff602435166112be565b60408051918252519081900360200190f35b3480156102fb57600080fd5b506102dd611370565b34801561031057600080fd5b506102aa73ffffffffffffffffffffffffffffffffffffffff60043516611429565b34801561033e57600080fd5b506102dd611504565b34801561035357600080fd5b5061026573ffffffffffffffffffffffffffffffffffffffff60043581169060243516604435611570565b34801561038a57600080fd5b5061026573ffffffffffffffffffffffffffffffffffffffff60043516611c4f565b3480156103b857600080fd5b506103c1611cfb565b6040805173ffffffffffffffffffffffffffffffffffffffff9092168252519081900360200190f35b3480156103f657600080fd5b506102aa611d17565b34801561040b57600080fd5b506102aa73ffffffffffffffffffffffffffffffffffffffff60043516602435611db7565b34801561043c57600080fd5b506102aa600435611f1f565b34801561045457600080fd5b506102656120b2565b34801561046957600080fd5b50610265612214565b34801561047e57600080fd5b506102aa73ffffffffffffffffffffffffffffffffffffffff60043516612235565b3480156104ac57600080fd5b5061026573ffffffffffffffffffffffffffffffffffffffff60043516602435612262565b3480156104dd57600080fd5b506102aa73ffffffffffffffffffffffffffffffffffffffff600435166124b8565b34801561050b57600080fd5b506102aa73ffffffffffffffffffffffffffffffffffffffff60043516612861565b34801561053957600080fd5b506102dd73ffffffffffffffffffffffffffffffffffffffff60043516612a55565b34801561056757600080fd5b506102aa612acf565b34801561057c57600080fd5b506102aa73ffffffffffffffffffffffffffffffffffffffff60043516612b60565b3480156105aa57600080fd5b506103c1612d34565b3480156105bf57600080fd5b506102aa612d50565b3480156105d457600080fd5b506102dd73ffffffffffffffffffffffffffffffffffffffff60043516612e06565b34801561060257600080fd5b50610265612fdd565b34801561061757600080fd5b506102aa612fff565b34801561062c57600080fd5b506103c1613082565b34801561064157600080fd5b506102aa61309e565b34801561065657600080fd5b506102aa613124565b34801561066b57600080fd5b5061026573ffffffffffffffffffffffffffffffffffffffff600435166024356131b3565b34801561069c57600080fd5b506102aa73ffffffffffffffffffffffffffffffffffffffff6004351661366f565b3480156106ca57600080fd5b506102dd73ffffffffffffffffffffffffffffffffffffffff6004351661372f565b3480156106f857600080fd5b506102aa73ffffffffffffffffffffffffffffffffffffffff600435166024356137a7565b34801561072957600080fd5b506102aa73ffffffffffffffffffffffffffffffffffffffff60043516613d5a565b34801561075757600080fd5b506102aa73ffffffffffffffffffffffffffffffffffffffff60043516602435613f2e565b34801561078857600080fd5b506102aa600435614336565b3480156107a057600080fd5b506102aa73ffffffffffffffffffffffffffffffffffffffff600435166143f5565b3480156107ce57600080fd5b506102aa73ffffffffffffffffffffffffffffffffffffffff600435166145c9565b3480156107fc57600080fd5b5061026573ffffffffffffffffffffffffffffffffffffffff600435166024356145f6565b34801561082d57600080fd5b506103c1614842565b34801561084257600080fd5b506102dd73ffffffffffffffffffffffffffffffffffffffff6004358116906024351661485e565b34801561087657600080fd5b506103c16148de565b34801561088b57600080fd5b506103c16148fa565b3480156108a057600080fd5b506102aa73ffffffffffffffffffffffffffffffffffffffff60043516602435614916565b3480156108d157600080fd5b506102aa73ffffffffffffffffffffffffffffffffffffffff60043516614b2d565b3480156108ff57600080fd5b506102aa614b5a565b600354604080517f7ccce85100000000000000000000000000000000000000000000000000000000815273ffffffffffffffffffffffffffffffffffffffff8086166004830152915160009386931691637ccce85191602480830192602092919082900301818887803b15801561097e57600080fd5b505af1158015610992573d6000803e3d6000fd5b505050506040513d60208110156109a857600080fd5b505115610a1657604080517f08c379a000000000000000000000000000000000000000000000000000000000815260206004820152601c60248201527f55736572206d757374206e6f7420626520626c61636b6c697374656400000000604482015290519081900360640190fd5b600354604080517f7ccce851000000000000000000000000000000000000000000000000000000008152336004820152905173ffffffffffffffffffffffffffffffffffffffff90921691637ccce851916024808201926020929091908290030181600087803b158015610a8957600080fd5b505af1158015610a9d573d6000803e3d6000fd5b505050506040513d6020811015610ab357600080fd5b505115610b2157604080517f08c379a000000000000000000000000000000000000000000000000000000000815260206004820152601e60248201527f53656e646572206d757374206e6f7420626520626c61636b6c69737465640000604482015290519081900360640190fd5b60025474010000000000000000000000000000000000000000900460ff1615610b4957600080fd5b6002547501000000000000000000000000000000000000000000900460ff161515610b7357600080fd5b600554604080517fda46098c00000000000000000000000000000000000000000000000000000000815233600482015273ffffffffffffffffffffffffffffffffffffffff8781166024830152604482018790529151919092169163da46098c91606480830192600092919082900301818387803b158015610bf457600080fd5b505af1158015610c08573d6000803e3d6000fd5b505060408051868152905173ffffffffffffffffffffffffffffffffffffffff881693503392507f8c5be1e5ebec7d5bd14f71427d1e84f3dd0314c0f7b2291e5b200ac8c7c3b9259181900360200190a35060019392505050565b600354604080517f14db6d58000000000000000000000000000000000000000000000000000000008152336004820152600080357fffffffff00000000000000000000000000000000000000000000000000000000166024830152915191928392839273ffffffffffffffffffffffffffffffffffffffff909216916314db6d5891604480830192602092919082900301818787803b158015610d0557600080fd5b505af1158015610d19573d6000803e3d6000fd5b505050506040513d6020811015610d2f57600080fd5b50511515610dc457604080517f08c379a000000000000000000000000000000000000000000000000000000000815260206004820152603160248201527f5573657220646f6573206e6f742068617665207065726d697373696f6e20746f60448201527f20657865637574652066756e6374696f6e000000000000000000000000000000606482015290519081900360840190fd5b60025474010000000000000000000000000000000000000000900460ff1615610dec57600080fd5b600254604080517f3af32abf00000000000000000000000000000000000000000000000000000000815273ffffffffffffffffffffffffffffffffffffffff888116600483015291519190921691633af32abf9160248083019260209291908290030181600087803b158015610e6157600080fd5b505af1158015610e75573d6000803e3d6000fd5b505050506040513d6020811015610e8b57600080fd5b50511515610f2057604080517f08c379a000000000000000000000000000000000000000000000000000000000815260206004820152603e60248201527f537461626c65636f696e206d7573742062652077686974656c6973746564207060448201527f72696f7220746f2073657474696e6720636f6e76657273696f6e206665650000606482015290519081900360840190fd5b604080517f70a082310000000000000000000000000000000000000000000000000000000081523060048201529051869450859173ffffffffffffffffffffffffffffffffffffffff8616916370a08231916024808201926020929091908290030181600087803b158015610f9457600080fd5b505af1158015610fa8573d6000803e3d6000fd5b505050506040513d6020811015610fbe57600080fd5b5051101561107957604080517f08c379a000000000000000000000000000000000000000000000000000000000815260206004820152604360248201527f436172626f6e20657363726f77206163636f756e7420696e2057543020646f6560448201527f736e2774206861766520656e6f75676820746f6b656e7320666f72206275726e60648201527f696e670000000000000000000000000000000000000000000000000000000000608482015290519081900360a40190fd5b60015473ffffffffffffffffffffffffffffffffffffffff16632ff284c2856110a188612e06565b6040518363ffffffff167c01000000000000000000000000000000000000000000000000000000000281526004018083815260200182815260200192505050602060405180830381600087803b1580156110fa57600080fd5b505af115801561110e573d6000803e3d6000fd5b505050506040513d602081101561112457600080fd5b50519150611138848363ffffffff614bd116565b90506111443385614be3565b604080517fa9059cbb00000000000000000000000000000000000000000000000000000000815233600482015260248101839052905173ffffffffffffffffffffffffffffffffffffffff85169163a9059cbb9160448083019260209291908290030181600087803b1580156111b957600080fd5b505af11580156111cd573d6000803e3d6000fd5b505050506040513d60208110156111e357600080fd5b505115156111f057600080fd5b8273ffffffffffffffffffffffffffffffffffffffff166342966c68836040518263ffffffff167c010000000000000000000000000000000000000000000000000000000002815260040180828152602001915050600060405180830381600087803b15801561125f57600080fd5b505af1158015611273573d6000803e3d6000fd5b505050506112813083614e18565b60408051858152905133917f3a91515f120c05831525e72379609e84b30a70ab21104f3222d0e91411aadc52919081900360200190a25050505050565b600154604080517f166e55d90000000000000000000000000000000000000000000000000000000081526004810185905273ffffffffffffffffffffffffffffffffffffffff84811660248301529151600093929092169163166e55d99160448082019260209290919082900301818787803b15801561133d57600080fd5b505af1158015611351573d6000803e3d6000fd5b505050506040513d602081101561136757600080fd5b50519392505050565b6000600460009054906101000a900473ffffffffffffffffffffffffffffffffffffffff1673ffffffffffffffffffffffffffffffffffffffff166318160ddd6040518163ffffffff167c0100000000000000000000000000000000000000000000000000000000028152600401602060405180830381600087803b1580156113f857600080fd5b505af115801561140c573d6000803e3d6000fd5b505050506040513d602081101561142257600080fd5b5051905090565b60005473ffffffffffffffffffffffffffffffffffffffff16331461144d57600080fd5b60025474010000000000000000000000000000000000000000900460ff161561147557600080fd5b600254604080517f0418945a00000000000000000000000000000000000000000000000000000000815273ffffffffffffffffffffffffffffffffffffffff848116600483015291519190921691630418945a91602480830192600092919082900301818387803b1580156114e957600080fd5b505af11580156114fd573d6000803e3d6000fd5b5050505050565b600154604080517f5a6c72d0000000000000000000000000000000000000000000000000000000008152905160009273ffffffffffffffffffffffffffffffffffffffff1691635a6c72d091600480830192602092919082900301818787803b1580156113f857600080fd5b60025460009074010000000000000000000000000000000000000000900460ff161561159b57600080fd5b600354604080517f7ccce85100000000000000000000000000000000000000000000000000000000815273ffffffffffffffffffffffffffffffffffffffff808716600483015291518793879360009384939190921691637ccce85191602480830192602092919082900301818787803b15801561161857600080fd5b505af115801561162c573d6000803e3d6000fd5b505050506040513d602081101561164257600080fd5b5051156116b057604080517f08c379a000000000000000000000000000000000000000000000000000000000815260206004820152601f60248201527f526563697069656e742063616e6e6f7420626520626c61636b6c697374656400604482015290519081900360640190fd5b600354604080517f7ccce85100000000000000000000000000000000000000000000000000000000815273ffffffffffffffffffffffffffffffffffffffff878116600483015291519190921691637ccce8519160248083019260209291908290030181600087803b15801561172557600080fd5b505af1158015611739573d6000803e3d6000fd5b505050506040513d602081101561174f57600080fd5b5051600354604080517f91c4529f000000000000000000000000000000000000000000000000000000008152336004820152905192945073ffffffffffffffffffffffffffffffffffffffff909116916391c4529f916024808201926020929091908290030181600087803b1580156117c757600080fd5b505af11580156117db573d6000803e3d6000fd5b505050506040513d60208110156117f157600080fd5b505190508115806117ff5750805b15156118b857604080517f08c379a000000000000000000000000000000000000000000000000000000000815260206004820152604c60248201527f4f726967696e2063616e6e6f7420626520626c61636b6c69737465642069662060448201527f7370656e646572206973206e6f7420616e20617070726f76656420626c61636b60648201527f6c697374207370656e6465720000000000000000000000000000000000000000608482015290519081900360a40190fd5b6118c2883361485e565b86111561193057604080517f08c379a000000000000000000000000000000000000000000000000000000000815260206004820181905260248201527f6e6f7420656e6f75676820616c6c6f77616e636520746f207472616e73666572604482015290519081900360640190fd5b73ffffffffffffffffffffffffffffffffffffffff871615156119b457604080517f08c379a000000000000000000000000000000000000000000000000000000000815260206004820152601860248201527f746f20616464726573732063616e6e6f74206265203078300000000000000000604482015290519081900360640190fd5b6119bd88612a55565b861115611a2b57604080517f08c379a000000000000000000000000000000000000000000000000000000000815260206004820152601e60248201527f6e6f7420656e6f7567682062616c616e636520746f207472616e736665720000604482015290519081900360640190fd5b600554604080517f97d88cd200000000000000000000000000000000000000000000000000000000815273ffffffffffffffffffffffffffffffffffffffff8b81166004830152336024830152604482018a9052915191909216916397d88cd291606480830192600092919082900301818387803b158015611aac57600080fd5b505af1158015611ac0573d6000803e3d6000fd5b505060048054604080517f21e5383a00000000000000000000000000000000000000000000000000000000815273ffffffffffffffffffffffffffffffffffffffff8d811694820194909452602481018c905290519290911693506321e5383a925060448082019260009290919082900301818387803b158015611b4357600080fd5b505af1158015611b57573d6000803e3d6000fd5b505060048054604080517fcf8eeb7e00000000000000000000000000000000000000000000000000000000815273ffffffffffffffffffffffffffffffffffffffff8e811694820194909452602481018c9052905192909116935063cf8eeb7e925060448082019260009290919082900301818387803b158015611bda57600080fd5b505af1158015611bee573d6000803e3d6000fd5b505060408051898152905173ffffffffffffffffffffffffffffffffffffffff808c1694508c1692507fddf252ad1be2c89b69c2b068fc378daa952ba7f163c4a11628f55a4df523b3ef9181900360200190a3506001979650505050505050565b600254604080517f3af32abf00000000000000000000000000000000000000000000000000000000815273ffffffffffffffffffffffffffffffffffffffff848116600483015291516000939290921691633af32abf9160248082019260209290919082900301818787803b158015611cc757600080fd5b505af1158015611cdb573d6000803e3d6000fd5b505050506040513d6020811015611cf157600080fd5b505190505b919050565b60055473ffffffffffffffffffffffffffffffffffffffff1681565b60005473ffffffffffffffffffffffffffffffffffffffff163314611d3b57600080fd5b60025474010000000000000000000000000000000000000000900460ff161515611d6457600080fd5b600280547fffffffffffffffffffffff00ffffffffffffffffffffffffffffffffffffffff1690556040517f7805862f689e2f13df9f062ff482ad3ad112aca9e0847911ed832e158c525b3390600090a1565b600254604080517f3af32abf000000000000000000000000000000000000000000000000000000008152336004820152905173ffffffffffffffffffffffffffffffffffffffff90921691633af32abf916024808201926020929091908290030181600087803b158015611e2a57600080fd5b505af1158015611e3e573d6000803e3d6000fd5b505050506040513d6020811015611e5457600080fd5b50511515611ee957604080517f08c379a000000000000000000000000000000000000000000000000000000000815260206004820152602b60248201527f53656e646572206d75737420626520612077686974656c697374656420746f6b60448201527f656e20636f6e7472616374000000000000000000000000000000000000000000606482015290519081900360840190fd5b60025474010000000000000000000000000000000000000000900460ff1615611f1157600080fd5b611f1b8282614e18565b5050565b600354604080517f14db6d58000000000000000000000000000000000000000000000000000000008152336004820152600080357fffffffff00000000000000000000000000000000000000000000000000000000166024830152915173ffffffffffffffffffffffffffffffffffffffff909316926314db6d5892604480840193602093929083900390910190829087803b158015611fbe57600080fd5b505af1158015611fd2573d6000803e3d6000fd5b505050506040513d6020811015611fe857600080fd5b5051151561207d57604080517f08c379a000000000000000000000000000000000000000000000000000000000815260206004820152603160248201527f5573657220646f6573206e6f742068617665207065726d697373696f6e20746f60448201527f20657865637574652066756e6374696f6e000000000000000000000000000000606482015290519081900360840190fd5b60025474010000000000000000000000000000000000000000900460ff16156120a557600080fd5b6120af3382614be3565b50565b600354604080517f14db6d58000000000000000000000000000000000000000000000000000000008152336004820152600080357fffffffff000000000000000000000000000000000000000000000000000000001660248301529151919273ffffffffffffffffffffffffffffffffffffffff16916314db6d589160448082019260209290919082900301818787803b15801561214f57600080fd5b505af1158015612163573d6000803e3d6000fd5b505050506040513d602081101561217957600080fd5b5051151561220e57604080517f08c379a000000000000000000000000000000000000000000000000000000000815260206004820152603160248201527f5573657220646f6573206e6f742068617665207065726d697373696f6e20746f60448201527f20657865637574652066756e6374696f6e000000000000000000000000000000606482015290519081900360840190fd5b50600190565b60025474010000000000000000000000000000000000000000900460ff1681565b60005473ffffffffffffffffffffffffffffffffffffffff16331461225957600080fd5b6120af81614e22565b600354604080517f7ccce85100000000000000000000000000000000000000000000000000000000815273ffffffffffffffffffffffffffffffffffffffff8086166004830152915160009386931691637ccce85191602480830192602092919082900301818887803b1580156122d857600080fd5b505af11580156122ec573d6000803e3d6000fd5b505050506040513d602081101561230257600080fd5b50511561237057604080517f08c379a000000000000000000000000000000000000000000000000000000000815260206004820152601c60248201527f55736572206d757374206e6f7420626520626c61636b6c697374656400000000604482015290519081900360640190fd5b600354604080517f7ccce851000000000000000000000000000000000000000000000000000000008152336004820152905173ffffffffffffffffffffffffffffffffffffffff90921691637ccce851916024808201926020929091908290030181600087803b1580156123e357600080fd5b505af11580156123f7573d6000803e3d6000fd5b505050506040513d602081101561240d57600080fd5b50511561247b57604080517f08c379a000000000000000000000000000000000000000000000000000000000815260206004820152601e60248201527f53656e646572206d757374206e6f7420626520626c61636b6c69737465640000604482015290519081900360640190fd5b60025474010000000000000000000000000000000000000000900460ff16156124a357600080fd5b6124ae848433614f9d565b5060019392505050565b600354604080517f7ccce85100000000000000000000000000000000000000000000000000000000815273ffffffffffffffffffffffffffffffffffffffff8085166004830152915184939290921691637ccce851916024808201926020929091908290030181600087803b15801561253057600080fd5b505af1158015612544573d6000803e3d6000fd5b505050506040513d602081101561255a57600080fd5b505115156125c957604080517f08c379a000000000000000000000000000000000000000000000000000000000815260206004820152601860248201527f55736572206d75737420626520626c61636b6c69737465640000000000000000604482015290519081900360640190fd5b60025474010000000000000000000000000000000000000000900460ff16156125f157600080fd5b600354604080517f14db6d58000000000000000000000000000000000000000000000000000000008152336004820152600080357fffffffff00000000000000000000000000000000000000000000000000000000166024830152915173ffffffffffffffffffffffffffffffffffffffff909316926314db6d5892604480840193602093929083900390910190829087803b15801561269057600080fd5b505af11580156126a4573d6000803e3d6000fd5b505050506040513d60208110156126ba57600080fd5b5051151561274f57604080517f08c379a000000000000000000000000000000000000000000000000000000000815260206004820152603160248201527f5573657220646f6573206e6f742068617665207065726d697373696f6e20746f60448201527f20657865637574652066756e6374696f6e000000000000000000000000000000606482015290519081900360840190fd5b60055473ffffffffffffffffffffffffffffffffffffffff1663da46098c833361277882612a55565b604080517c010000000000000000000000000000000000000000000000000000000063ffffffff871602815273ffffffffffffffffffffffffffffffffffffffff948516600482015292909316602483015260448201529051606480830192600092919082900301818387803b1580156127f157600080fd5b505af1158015612805573d6000803e3d6000fd5b50339250505073ffffffffffffffffffffffffffffffffffffffff83167f3b1ffca3903932aa264fbb5b7b381746e2b7b61c9c5a6024bad48d23f958a6c261284c85612a55565b60408051918252519081900360200190a35050565b60005473ffffffffffffffffffffffffffffffffffffffff16331461288557600080fd5b60025474010000000000000000000000000000000000000000900460ff16156128ad57600080fd5b600254604080517f3af32abf00000000000000000000000000000000000000000000000000000000815273ffffffffffffffffffffffffffffffffffffffff848116600483015291519190921691633af32abf9160248083019260209291908290030181600087803b15801561292257600080fd5b505af1158015612936573d6000803e3d6000fd5b505050506040513d602081101561294c57600080fd5b505115156129e157604080517f08c379a000000000000000000000000000000000000000000000000000000000815260206004820152603e60248201527f537461626c65636f696e206d7573742062652077686974656c6973746564207060448201527f72696f7220746f2073657474696e6720636f6e76657273696f6e206665650000606482015290519081900360840190fd5b600154604080517f6ad2661100000000000000000000000000000000000000000000000000000000815273ffffffffffffffffffffffffffffffffffffffff848116600483015291519190921691636ad2661191602480830192600092919082900301818387803b1580156114e957600080fd5b60048054604080517f70a0823100000000000000000000000000000000000000000000000000000000815273ffffffffffffffffffffffffffffffffffffffff858116948201949094529051600093909216916370a082319160248082019260209290919082900301818787803b158015611cc757600080fd5b60005473ffffffffffffffffffffffffffffffffffffffff163314612af357600080fd5b6000805460405173ffffffffffffffffffffffffffffffffffffffff909116917ff8df31144d9c2f0f6b59d69b8b98abd5459d07f2742c4df920b25aae33c6482091a2600080547fffffffffffffffffffffffff0000000000000000000000000000000000000000169055565b6000805473ffffffffffffffffffffffffffffffffffffffff163314612b8557600080fd5b60045473ffffffffffffffffffffffffffffffffffffffff83811691161415612c0f57604080517f08c379a000000000000000000000000000000000000000000000000000000000815260206004820152601b60248201527f4d7573742062652061206e65772062616c616e63652073686565740000000000604482015290519081900360640190fd5b612c1882615277565b1515612cab57604080517f08c379a000000000000000000000000000000000000000000000000000000000815260206004820152603860248201527f43616e6e6f7420736574206120726567756c61746f722073746f72616765207460448201527f6f2061206e6f6e2d636f6e747261637420616464726573730000000000000000606482015290519081900360840190fd5b506004805473ffffffffffffffffffffffffffffffffffffffff8381167fffffffffffffffffffffffff0000000000000000000000000000000000000000831681179093556040805191909216808252602082019390935281517f8c3d37b41e983f0d5b0b91de3f9d5055c73a17beebc7adfce9b677ab7c07ad2d929181900390910190a15050565b60045473ffffffffffffffffffffffffffffffffffffffff1681565b60005473ffffffffffffffffffffffffffffffffffffffff163314612d7457600080fd5b60025474010000000000000000000000000000000000000000900460ff1615612d9c57600080fd5b600280547fffffffffffffffffffffff00ffffffffffffffffffffffffffffffffffffffff16740100000000000000000000000000000000000000001790556040517f6985a02210a168e66602d3235cb6db0e70f92b3ba4d376a33c0f3d9434bff62590600090a1565b600154604080517fcfc9733c00000000000000000000000000000000000000000000000000000000815273ffffffffffffffffffffffffffffffffffffffff84811660048301529151600093929092169163cfc9733c9160248082019260209290919082900301818787803b158015612e7e57600080fd5b505af1158015612e92573d6000803e3d6000fd5b505050506040513d6020811015612ea857600080fd5b505115612f5757600154604080517ffaaebd2100000000000000000000000000000000000000000000000000000000815273ffffffffffffffffffffffffffffffffffffffff85811660048301529151919092169163faaebd219160248083019260209291908290030181600087803b158015612f2457600080fd5b505af1158015612f38573d6000803e3d6000fd5b505050506040513d6020811015612f4e57600080fd5b50519050611cf6565b600160009054906101000a900473ffffffffffffffffffffffffffffffffffffffff1673ffffffffffffffffffffffffffffffffffffffff16635a6c72d06040518163ffffffff167c0100000000000000000000000000000000000000000000000000000000028152600401602060405180830381600087803b158015611cc757600080fd5b6002547501000000000000000000000000000000000000000000900460ff1681565b60048054604080517f4e71e0c8000000000000000000000000000000000000000000000000000000008152905173ffffffffffffffffffffffffffffffffffffffff90921692634e71e0c892828201926000929082900301818387803b15801561306857600080fd5b505af115801561307c573d6000803e3d6000fd5b50505050565b60005473ffffffffffffffffffffffffffffffffffffffff1681565b600560009054906101000a900473ffffffffffffffffffffffffffffffffffffffff1673ffffffffffffffffffffffffffffffffffffffff16634e71e0c86040518163ffffffff167c0100000000000000000000000000000000000000000000000000000000028152600401600060405180830381600087803b15801561306857600080fd5b60005473ffffffffffffffffffffffffffffffffffffffff16331461314857600080fd5b600280547fffffffffffffffffffff00ffffffffffffffffffffffffffffffffffffffffff1675010000000000000000000000000000000000000000001790556040517f19aad37188a1d3921e29eb3c66acf43d81975e107cb650d58cca878627955fd690600090a1565b600354604080517f7ccce85100000000000000000000000000000000000000000000000000000000815273ffffffffffffffffffffffffffffffffffffffff8086166004830152915160009386931691637ccce85191602480830192602092919082900301818887803b15801561322957600080fd5b505af115801561323d573d6000803e3d6000fd5b505050506040513d602081101561325357600080fd5b5051156132c157604080517f08c379a000000000000000000000000000000000000000000000000000000000815260206004820152601f60248201527f526563697069656e742063616e6e6f7420626520626c61636b6c697374656400604482015290519081900360640190fd5b600354604080517f7ccce851000000000000000000000000000000000000000000000000000000008152336004820152905173ffffffffffffffffffffffffffffffffffffffff90921691637ccce851916024808201926020929091908290030181600087803b15801561333457600080fd5b505af1158015613348573d6000803e3d6000fd5b505050506040513d602081101561335e57600080fd5b5051156133cc57604080517f08c379a000000000000000000000000000000000000000000000000000000000815260206004820152601c60248201527f53656e6465722063616e6e6f7420626520626c61636b6c697374656400000000604482015290519081900360640190fd5b60025474010000000000000000000000000000000000000000900460ff16156133f457600080fd5b73ffffffffffffffffffffffffffffffffffffffff8416151561347857604080517f08c379a000000000000000000000000000000000000000000000000000000000815260206004820152601860248201527f746f20616464726573732063616e6e6f74206265203078300000000000000000604482015290519081900360640190fd5b61348133612a55565b8311156134ef57604080517f08c379a000000000000000000000000000000000000000000000000000000000815260206004820152601e60248201527f6e6f7420656e6f7567682062616c616e636520746f207472616e736665720000604482015290519081900360640190fd5b60048054604080517fcf8eeb7e0000000000000000000000000000000000000000000000000000000081523393810193909352602483018690525173ffffffffffffffffffffffffffffffffffffffff9091169163cf8eeb7e91604480830192600092919082900301818387803b15801561356957600080fd5b505af115801561357d573d6000803e3d6000fd5b505060048054604080517f21e5383a00000000000000000000000000000000000000000000000000000000815273ffffffffffffffffffffffffffffffffffffffff8a8116948201949094526024810189905290519290911693506321e5383a925060448082019260009290919082900301818387803b15801561360057600080fd5b505af1158015613614573d6000803e3d6000fd5b505060408051868152905173ffffffffffffffffffffffffffffffffffffffff881693503392507fddf252ad1be2c89b69c2b068fc378daa952ba7f163c4a11628f55a4df523b3ef9181900360200190a35060019392505050565b60005473ffffffffffffffffffffffffffffffffffffffff16331461369357600080fd5b60025474010000000000000000000000000000000000000000900460ff16156136bb57600080fd5b600254604080517f3b947d2b00000000000000000000000000000000000000000000000000000000815273ffffffffffffffffffffffffffffffffffffffff848116600483015291519190921691633b947d2b91602480830192600092919082900301818387803b1580156114e957600080fd5b600154604080517ffaaebd2100000000000000000000000000000000000000000000000000000000815273ffffffffffffffffffffffffffffffffffffffff84811660048301529151600093929092169163faaebd219160248082019260209290919082900301818787803b158015611cc757600080fd5b600354604080517f14db6d58000000000000000000000000000000000000000000000000000000008152336004820152600080357fffffffff00000000000000000000000000000000000000000000000000000000166024830152915191928392839273ffffffffffffffffffffffffffffffffffffffff909216916314db6d5891604480830192602092919082900301818787803b15801561384957600080fd5b505af115801561385d573d6000803e3d6000fd5b505050506040513d602081101561387357600080fd5b5051151561390857604080517f08c379a000000000000000000000000000000000000000000000000000000000815260206004820152603160248201527f5573657220646f6573206e6f742068617665207065726d697373696f6e20746f60448201527f20657865637574652066756e6374696f6e000000000000000000000000000000606482015290519081900360840190fd5b60025474010000000000000000000000000000000000000000900460ff161561393057600080fd5b600254604080517f3af32abf00000000000000000000000000000000000000000000000000000000815273ffffffffffffffffffffffffffffffffffffffff888116600483015291519190921691633af32abf9160248083019260209291908290030181600087803b1580156139a557600080fd5b505af11580156139b9573d6000803e3d6000fd5b505050506040513d60208110156139cf57600080fd5b50511515613a6457604080517f08c379a000000000000000000000000000000000000000000000000000000000815260206004820152603e60248201527f537461626c65636f696e206d7573742062652077686974656c6973746564207060448201527f72696f7220746f2073657474696e6720636f6e76657273696f6e206665650000606482015290519081900360840190fd5b604080517f70a082310000000000000000000000000000000000000000000000000000000081523060048201529051869450859173ffffffffffffffffffffffffffffffffffffffff8616916370a08231916024808201926020929091908290030181600087803b158015613ad857600080fd5b505af1158015613aec573d6000803e3d6000fd5b505050506040513d6020811015613b0257600080fd5b50511015613bbd57604080517f08c379a000000000000000000000000000000000000000000000000000000000815260206004820152604360248201527f436172626f6e20657363726f77206163636f756e7420696e2057543020646f6560448201527f736e2774206861766520656e6f75676820746f6b656e7320666f72206275726e60648201527f696e670000000000000000000000000000000000000000000000000000000000608482015290519081900360a40190fd5b60015473ffffffffffffffffffffffffffffffffffffffff16632ff284c285613be588612e06565b6040518363ffffffff167c01000000000000000000000000000000000000000000000000000000000281526004018083815260200182815260200192505050602060405180830381600087803b158015613c3e57600080fd5b505af1158015613c52573d6000803e3d6000fd5b505050506040513d6020811015613c6857600080fd5b50519150613c7c848363ffffffff614bd116565b9050613c883385614be3565b8273ffffffffffffffffffffffffffffffffffffffff166342966c68856040518263ffffffff167c010000000000000000000000000000000000000000000000000000000002815260040180828152602001915050600060405180830381600087803b158015613cf757600080fd5b505af1158015613d0b573d6000803e3d6000fd5b50505050613d193083614e18565b6040805182815260208101849052815133927f8a1387ce462b7423a12c936187028c782512f204b670218701c0d35e92bc0527928290030190a25050505050565b6000805473ffffffffffffffffffffffffffffffffffffffff163314613d7f57600080fd5b60055473ffffffffffffffffffffffffffffffffffffffff83811691161415613e0957604080517f08c379a000000000000000000000000000000000000000000000000000000000815260206004820152601b60248201527f4d7573742062652061206e65772073746f726167652073686565740000000000604482015290519081900360640190fd5b613e1282615277565b1515613ea557604080517f08c379a000000000000000000000000000000000000000000000000000000000815260206004820152603860248201527f43616e6e6f7420736574206120726567756c61746f722073746f72616765207460448201527f6f2061206e6f6e2d636f6e747261637420616464726573730000000000000000606482015290519081900360840190fd5b506005805473ffffffffffffffffffffffffffffffffffffffff8381167fffffffffffffffffffffffff0000000000000000000000000000000000000000831681179093556040805191909216808252602082019390935281517fec358425c40511d576e1c52be7593403bceacda627234c873b52589fef7b2359929181900390910190a15050565b600354604080517f7ccce85100000000000000000000000000000000000000000000000000000000815273ffffffffffffffffffffffffffffffffffffffff8086166004830152915185939290921691637ccce851916024808201926020929091908290030181600087803b158015613fa657600080fd5b505af1158015613fba573d6000803e3d6000fd5b505050506040513d6020811015613fd057600080fd5b5051151561403f57604080517f08c379a000000000000000000000000000000000000000000000000000000000815260206004820152601860248201527f55736572206d75737420626520626c61636b6c69737465640000000000000000604482015290519081900360640190fd5b60025474010000000000000000000000000000000000000000900460ff161561406757600080fd5b600354604080517f14db6d58000000000000000000000000000000000000000000000000000000008152336004820152600080357fffffffff00000000000000000000000000000000000000000000000000000000166024830152915173ffffffffffffffffffffffffffffffffffffffff909316926314db6d5892604480840193602093929083900390910190829087803b15801561410657600080fd5b505af115801561411a573d6000803e3d6000fd5b505050506040513d602081101561413057600080fd5b505115156141c557604080517f08c379a000000000000000000000000000000000000000000000000000000000815260206004820152603160248201527f5573657220646f6573206e6f742068617665207065726d697373696f6e20746f60448201527f20657865637574652066756e6374696f6e000000000000000000000000000000606482015290519081900360840190fd5b60048054604080517fcf8eeb7e00000000000000000000000000000000000000000000000000000000815273ffffffffffffffffffffffffffffffffffffffff87811694820194909452602481018690529051929091169163cf8eeb7e9160448082019260009290919082900301818387803b15801561424457600080fd5b505af1158015614258573d6000803e3d6000fd5b505060048054604080517f82838c760000000000000000000000000000000000000000000000000000000081529283018790525173ffffffffffffffffffffffffffffffffffffffff90911693506382838c769250602480830192600092919082900301818387803b1580156142cd57600080fd5b505af11580156142e1573d6000803e3d6000fd5b505060408051858152905173ffffffffffffffffffffffffffffffffffffffff871693507fb81d1dffb753076892e04e6e1234d137b031f70d859c299876b0486e966424fd92509081900360200190a2505050565b60005473ffffffffffffffffffffffffffffffffffffffff16331461435a57600080fd5b60025474010000000000000000000000000000000000000000900460ff161561438257600080fd5b600154604080517fc93a6c8400000000000000000000000000000000000000000000000000000000815260048101849052905173ffffffffffffffffffffffffffffffffffffffff9092169163c93a6c849160248082019260009290919082900301818387803b1580156114e957600080fd5b6000805473ffffffffffffffffffffffffffffffffffffffff16331461441a57600080fd5b60035473ffffffffffffffffffffffffffffffffffffffff838116911614156144a457604080517f08c379a000000000000000000000000000000000000000000000000000000000815260206004820152601760248201527f4d7573742062652061206e657720726567756c61746f72000000000000000000604482015290519081900360640190fd5b6144ad82615277565b151561454057604080517f08c379a000000000000000000000000000000000000000000000000000000000815260206004820152603860248201527f43616e6e6f7420736574206120726567756c61746f722073746f72616765207460448201527f6f2061206e6f6e2d636f6e747261637420616464726573730000000000000000606482015290519081900360840190fd5b506003805473ffffffffffffffffffffffffffffffffffffffff8381167fffffffffffffffffffffffff0000000000000000000000000000000000000000831681179093556040805191909216808252602082019390935281517f4a59b4b607c6055b37a4716d7813d7d4d2c288e4d0dd8298e365b260a1f262e8929181900390910190a15050565b60005473ffffffffffffffffffffffffffffffffffffffff1633146145ed57600080fd5b6120af8161527f565b600354604080517f7ccce85100000000000000000000000000000000000000000000000000000000815273ffffffffffffffffffffffffffffffffffffffff8086166004830152915160009386931691637ccce85191602480830192602092919082900301818887803b15801561466c57600080fd5b505af1158015614680573d6000803e3d6000fd5b505050506040513d602081101561469657600080fd5b50511561470457604080517f08c379a000000000000000000000000000000000000000000000000000000000815260206004820152601c60248201527f55736572206d757374206e6f7420626520626c61636b6c697374656400000000604482015290519081900360640190fd5b600354604080517f7ccce851000000000000000000000000000000000000000000000000000000008152336004820152905173ffffffffffffffffffffffffffffffffffffffff90921691637ccce851916024808201926020929091908290030181600087803b15801561477757600080fd5b505af115801561478b573d6000803e3d6000fd5b505050506040513d60208110156147a157600080fd5b50511561480f57604080517f08c379a000000000000000000000000000000000000000000000000000000000815260206004820152601e60248201527f53656e646572206d757374206e6f7420626520626c61636b6c69737465640000604482015290519081900360640190fd5b60025474010000000000000000000000000000000000000000900460ff161561483757600080fd5b6124ae848433615420565b60015473ffffffffffffffffffffffffffffffffffffffff1681565b600554604080517f1a46ec8200000000000000000000000000000000000000000000000000000000815273ffffffffffffffffffffffffffffffffffffffff8581166004830152848116602483015291516000939290921691631a46ec829160448082019260209290919082900301818787803b15801561133d57600080fd5b60035473ffffffffffffffffffffffffffffffffffffffff1681565b60025473ffffffffffffffffffffffffffffffffffffffff1681565b60005473ffffffffffffffffffffffffffffffffffffffff16331461493a57600080fd5b60025474010000000000000000000000000000000000000000900460ff161561496257600080fd5b600254604080517f3af32abf00000000000000000000000000000000000000000000000000000000815273ffffffffffffffffffffffffffffffffffffffff858116600483015291519190921691633af32abf9160248083019260209291908290030181600087803b1580156149d757600080fd5b505af11580156149eb573d6000803e3d6000fd5b505050506040513d6020811015614a0157600080fd5b50511515614a9657604080517f08c379a000000000000000000000000000000000000000000000000000000000815260206004820152603e60248201527f537461626c65636f696e206d7573742062652077686974656c6973746564207060448201527f72696f7220746f2073657474696e6720636f6e76657273696f6e206665650000606482015290519081900360840190fd5b600154604080517fe55156b500000000000000000000000000000000000000000000000000000000815273ffffffffffffffffffffffffffffffffffffffff8581166004830152602482018590529151919092169163e55156b591604480830192600092919082900301818387803b158015614b1157600080fd5b505af1158015614b25573d6000803e3d6000fd5b505050505050565b60005473ffffffffffffffffffffffffffffffffffffffff163314614b5157600080fd5b6120af816155a1565b60005473ffffffffffffffffffffffffffffffffffffffff163314614b7e57600080fd5b600280547fffffffffffffffffffff00ffffffffffffffffffffffffffffffffffffffffff1690556040517f0f2e5b6c72c6a4491efd919a9f9a409f324ef0708c11ee57d410c2cb06c0992b90600090a1565b600082821115614bdd57fe5b50900390565b614bec82612a55565b811115614c5a57604080517f08c379a000000000000000000000000000000000000000000000000000000000815260206004820152601a60248201527f6e6f7420656e6f7567682062616c616e636520746f206275726e000000000000604482015290519081900360640190fd5b60048054604080517fcf8eeb7e00000000000000000000000000000000000000000000000000000000815273ffffffffffffffffffffffffffffffffffffffff86811694820194909452602481018590529051929091169163cf8eeb7e9160448082019260009290919082900301818387803b158015614cd957600080fd5b505af1158015614ced573d6000803e3d6000fd5b505060048054604080517f82838c760000000000000000000000000000000000000000000000000000000081529283018690525173ffffffffffffffffffffffffffffffffffffffff90911693506382838c769250602480830192600092919082900301818387803b158015614d6257600080fd5b505af1158015614d76573d6000803e3d6000fd5b505060408051848152905173ffffffffffffffffffffffffffffffffffffffff861693507fcc16f5dbb4873280815c1ee09dbd06736cffcc184412cf7a71a0fdb75d397ca592509081900360200190a260408051828152905160009173ffffffffffffffffffffffffffffffffffffffff8516917fddf252ad1be2c89b69c2b068fc378daa952ba7f163c4a11628f55a4df523b3ef9181900360200190a35050565b611f1b8282615650565b60015460009073ffffffffffffffffffffffffffffffffffffffff83811691161415614eaf57604080517f08c379a000000000000000000000000000000000000000000000000000000000815260206004820152601760248201527f4d7573742062652061206e657720666565207368656574000000000000000000604482015290519081900360640190fd5b614eb882615277565b1515614f2557604080517f08c379a000000000000000000000000000000000000000000000000000000000815260206004820152601a60248201527f4d75737420626520616e2061637475616c20636f6e7472616374000000000000604482015290519081900360640190fd5b506001805473ffffffffffffffffffffffffffffffffffffffff8381167fffffffffffffffffffffffff0000000000000000000000000000000000000000831681179093556040519116919082907ffa50850a9a205a6eab44ae568df104b00a5fd26ba0ded7dd81d4879c6a27d29b90600090a35050565b600554604080517f1a46ec8200000000000000000000000000000000000000000000000000000000815273ffffffffffffffffffffffffffffffffffffffff8481166004830152868116602483015291516000939290921691631a46ec829160448082019260209290919082900301818787803b15801561501d57600080fd5b505af1158015615031573d6000803e3d6000fd5b505050506040513d602081101561504757600080fd5b50519050808311156150f157600554604080517fda46098c00000000000000000000000000000000000000000000000000000000815273ffffffffffffffffffffffffffffffffffffffff85811660048301528781166024830152600060448301819052925193169263da46098c9260648084019391929182900301818387803b1580156150d457600080fd5b505af11580156150e8573d6000803e3d6000fd5b5050505061518d565b600554604080517f97d88cd200000000000000000000000000000000000000000000000000000000815273ffffffffffffffffffffffffffffffffffffffff8581166004830152878116602483015260448201879052915191909216916397d88cd291606480830192600092919082900301818387803b15801561517457600080fd5b505af1158015615188573d6000803e3d6000fd5b505050505b600554604080517f1a46ec8200000000000000000000000000000000000000000000000000000000815273ffffffffffffffffffffffffffffffffffffffff85811660048301819052888216602484018190529351939490937f8c5be1e5ebec7d5bd14f71427d1e84f3dd0314c0f7b2291e5b200ac8c7c3b925939290911691631a46ec829160448083019260209291908290030181600087803b15801561523457600080fd5b505af1158015615248573d6000803e3d6000fd5b505050506040513d602081101561525e57600080fd5b505160408051918252519081900360200190a350505050565b6000903b1190565b60025460009073ffffffffffffffffffffffffffffffffffffffff8381169116141561533257604080517f08c379a000000000000000000000000000000000000000000000000000000000815260206004820152602260248201527f4d7573742062652061206e657720737461626c65636f696e2077686974656c6960448201527f7374000000000000000000000000000000000000000000000000000000000000606482015290519081900360840190fd5b61533b82615277565b15156153a857604080517f08c379a000000000000000000000000000000000000000000000000000000000815260206004820152601a60248201527f4d75737420626520616e2061637475616c20636f6e7472616374000000000000604482015290519081900360640190fd5b506002805473ffffffffffffffffffffffffffffffffffffffff8381167fffffffffffffffffffffffff0000000000000000000000000000000000000000831681179093556040519116919082907f9d4cc8ae350dd03b669fc5b6d399ea6b56438abd19c07b3e71abd09552bafe3490600090a35050565b600554604080517f5fd72d1600000000000000000000000000000000000000000000000000000000815273ffffffffffffffffffffffffffffffffffffffff848116600483015286811660248301526044820186905291519190921691635fd72d1691606480830192600092919082900301818387803b1580156154a357600080fd5b505af11580156154b7573d6000803e3d6000fd5b5050600554604080517f1a46ec8200000000000000000000000000000000000000000000000000000000815273ffffffffffffffffffffffffffffffffffffffff86811660048301819052818a1660248401819052935193965094507f8c5be1e5ebec7d5bd14f71427d1e84f3dd0314c0f7b2291e5b200ac8c7c3b925931691631a46ec82916044808201926020929091908290030181600087803b15801561555f57600080fd5b505af1158015615573573d6000803e3d6000fd5b505050506040513d602081101561558957600080fd5b505160408051918252519081900360200190a3505050565b73ffffffffffffffffffffffffffffffffffffffff811615156155c357600080fd5b6000805460405173ffffffffffffffffffffffffffffffffffffffff808516939216917f8be0079c531659141344cd1fd0a4f28419497f9722a3daafe3b4186f6b6457e091a3600080547fffffffffffffffffffffffff00000000000000000000000000000000000000001673ffffffffffffffffffffffffffffffffffffffff92909216919091179055565b600354604080517fd88c271e00000000000000000000000000000000000000000000000000000000815273ffffffffffffffffffffffffffffffffffffffff808616600483015291518593929092169163d88c271e916024808201926020929091908290030181600087803b1580156156c857600080fd5b505af11580156156dc573d6000803e3d6000fd5b505050506040513d60208110156156f257600080fd5b5051151561576157604080517f08c379a000000000000000000000000000000000000000000000000000000000815260206004820152601860248201527f55736572206d7573742062652077686974656c69737465640000000000000000604482015290519081900360640190fd5b60048054604080517fe468688e0000000000000000000000000000000000000000000000000000000081529283018590525173ffffffffffffffffffffffffffffffffffffffff9091169163e468688e91602480830192600092919082900301818387803b1580156157d257600080fd5b505af11580156157e6573d6000803e3d6000fd5b505060048054604080517f21e5383a00000000000000000000000000000000000000000000000000000000815273ffffffffffffffffffffffffffffffffffffffff898116948201949094526024810188905290519290911693506321e5383a925060448082019260009290919082900301818387803b15801561586957600080fd5b505af115801561587d573d6000803e3d6000fd5b505060408051858152905173ffffffffffffffffffffffffffffffffffffffff871693507f0f6798a560793a54c3bcfe86a93cde1e73087d944c0ea20544137d412139688592509081900360200190a260408051838152905173ffffffffffffffffffffffffffffffffffffffff8516916000917fddf252ad1be2c89b69c2b068fc378daa952ba7f163c4a11628f55a4df523b3ef9181900360200190a35050505600a165627a7a723058204d12134e9876b30e5139dea6a05ddbf51304bba23a23ce66f26a335fa1c609f90029",
  "source": "pragma solidity ^0.4.24;\r\nimport \"./dataStorage/MutableCarbonDollarStorage.sol\";\r\nimport \"../permissionedToken/PermissionedToken.sol\";\r\nimport \"../whitelistedToken/WhitelistedToken.sol\";\r\n\r\n/**\r\n* @title CarbonDollar\r\n* @notice The main functionality for the CarbonUSD metatoken. (CarbonUSD is just a proxy\r\n* that implements this contract's functionality.) This is a permissioned token, so users have to be \r\n* whitelisted before they can do any mint/burn/convert operation. Every CarbonDollar token is backed by one\r\n* whitelisted stablecoin credited to the balance of this contract address.\r\n*/\r\ncontract CarbonDollar is MutableCarbonDollarStorage, PermissionedToken {\r\n    // Events\r\n\r\n    event ConvertedToWT(address indexed user, uint256 amount);\r\n    event BurnedCUSD(address indexed user, uint256 feedAmount, uint256 chargedFee);\r\n    /**\r\n        Modifiers\r\n    */\r\n    modifier requiresWhitelistedToken() {\r\n        require(stablecoinWhitelist.isWhitelisted(msg.sender), \"Sender must be a whitelisted token contract\");\r\n        _;\r\n    }\r\n\r\n    /** CONSTRUCTOR\r\n    * @dev Passes along arguments to base class.\r\n    */\r\n    constructor(address r, address b, address a, address f, address s) \r\n    PermissionedToken(r, b, a) \r\n    MutableCarbonDollarStorage(f, s) public {}\r\n\r\n    /**\r\n     * @notice Add new stablecoin to whitelist.\r\n     * @param _stablecoin Address of stablecoin contract.\r\n     */\r\n    function listToken(address _stablecoin) public onlyOwner whenNotPaused {\r\n        stablecoinWhitelist.addStablecoin(_stablecoin); \r\n    }\r\n\r\n    /**\r\n     * @notice Remove existing stablecoin from whitelist.\r\n     * @param _stablecoin Address of stablecoin contract.\r\n     */\r\n    function unlistToken(address _stablecoin) public onlyOwner whenNotPaused {\r\n        stablecoinWhitelist.removeStablecoin(_stablecoin);\r\n    }\r\n\r\n    /**\r\n     * @notice Indicate if stablecoin is whitelisted or not.\r\n     * @param _stablecoin Address of stablecoin contract.\r\n     * @return Whether or not the stablecoin is on the whitelist.\r\n     */\r\n    function isWhitelisted(address _stablecoin) public view returns (bool) {\r\n        return stablecoinWhitelist.isWhitelisted(_stablecoin);\r\n    }\r\n\r\n    /**\r\n     * @notice Change fees associated with going from CarbonUSD to a particular stablecoin.\r\n     * @param stablecoin Address of the stablecoin contract.\r\n     * @param _newFee The new fee rate to set, in tenths of a percent. \r\n     */\r\n    function setFee(address stablecoin, uint256 _newFee) public onlyOwner whenNotPaused {\r\n        require(stablecoinWhitelist.isWhitelisted(stablecoin), \"Stablecoin must be whitelisted prior to setting conversion fee\");\r\n        stablecoinFees.setFee(stablecoin, _newFee);\r\n    }\r\n\r\n    /**\r\n     * @notice Remove fees associated with going from CarbonUSD to a particular stablecoin.\r\n     * The default fee still may apply.\r\n     * @param stablecoin Address of the stablecoin contract.\r\n     */\r\n    function removeFee(address stablecoin) public onlyOwner whenNotPaused {\r\n        require(stablecoinWhitelist.isWhitelisted(stablecoin), \"Stablecoin must be whitelisted prior to setting conversion fee\");\r\n        stablecoinFees.removeFee(stablecoin);\r\n    }\r\n\r\n    /**\r\n     * @notice Change the default fee associated with going from CarbonUSD to a WhitelistedToken.\r\n     * This fee amount is used if the fee for a WhitelistedToken is not specified.\r\n     * @param _newFee The new fee rate to set, in tenths of a percent.\r\n     */\r\n    function setDefaultFee(uint256 _newFee) public onlyOwner whenNotPaused {\r\n        stablecoinFees.setDefaultFee(_newFee);\r\n    }\r\n\r\n    /**\r\n     * @notice Get the fee associated with going from CarbonUSD to a specific WhitelistedToken.\r\n     * @param stablecoin The stablecoin whose fee is being checked.\r\n     * @return The fee associated with the stablecoin.\r\n     */\r\n    function getFee(address stablecoin) public view returns (uint256) {\r\n        return stablecoinFees.fees(stablecoin);\r\n    }\r\n\r\n    /**\r\n     * @notice Get the default fee associated with going from CarbonUSD to a specific WhitelistedToken.\r\n     * @return The default fee for stablecoin trades.\r\n     */\r\n    function getDefaultFee() public view returns (uint256) {\r\n        return stablecoinFees.defaultFee();\r\n    }\r\n\r\n    /**\r\n     * @notice Mints CUSD on behalf of a user. Note the use of the \"requiresWhitelistedToken\"\r\n     * modifier; this means that minting authority does not belong to any personal account; \r\n     * only whitelisted token contracts can call this function. The intended functionality is that the only\r\n     * way to mint CUSD is for the user to actually burn a whitelisted token to convert into CUSD\r\n     * @param _to User to send CUSD to\r\n     * @param _amount Amount of CarbonUSD to burn.\r\n     */\r\n    function mint(address _to, uint256 _amount) public requiresWhitelistedToken whenNotPaused {\r\n        _mint(_to, _amount);\r\n    }\r\n\r\n    function _mint(address _to, uint256 _amount) internal {\r\n        super._mint(_to, _amount);\r\n    }\r\n\r\n    /**\r\n     * @notice user can convert CarbonUSD umbrella token into a whitelisted stablecoin. \r\n     * @param stablecoin represents the type of coin the users wishes to receive for burning carbonUSD\r\n     * @param _amount Amount of CarbonUSD to convert.\r\n     * we credit the user's account at the sender address with the _amount minus the percentage fee we want to charge.\r\n     */\r\n    function convertCarbonDollar(address stablecoin, uint256 _amount) public requiresPermission whenNotPaused  {\r\n        require(stablecoinWhitelist.isWhitelisted(stablecoin), \"Stablecoin must be whitelisted prior to setting conversion fee\");\r\n        WhitelistedToken whitelisted = WhitelistedToken(stablecoin);\r\n        require(whitelisted.balanceOf(address(this)) >= _amount, \"Carbon escrow account in WT0 doesn't have enough tokens for burning\");\r\n \r\n        // Send back WT0 to calling user, but with a fee reduction.\r\n        // Transfer this fee into the whitelisted token's CarbonDollar account (this contract's address)\r\n        uint256 chargedFee = stablecoinFees.computeFee(_amount, computeFeeRate(stablecoin));\r\n        uint256 feedAmount = _amount.sub(chargedFee);\r\n        _burn(msg.sender, _amount);\r\n        require(whitelisted.transfer(msg.sender, feedAmount));\r\n        whitelisted.burn(chargedFee);\r\n        _mint(address(this), chargedFee);\r\n        emit ConvertedToWT(msg.sender, _amount);\r\n    }\r\n\r\n     /**\r\n     * @notice burns CarbonDollar and an equal amount of whitelisted stablecoin from the CarbonDollar address\r\n     * @param stablecoin Represents the stablecoin whose fee will be charged.\r\n     * @param _amount Amount of CarbonUSD to burn.\r\n     */\r\n    function burnCarbonDollar(address stablecoin, uint256 _amount) public requiresPermission whenNotPaused {\r\n        require(stablecoinWhitelist.isWhitelisted(stablecoin), \"Stablecoin must be whitelisted prior to setting conversion fee\");\r\n        WhitelistedToken whitelisted = WhitelistedToken(stablecoin);\r\n        require(whitelisted.balanceOf(address(this)) >= _amount, \"Carbon escrow account in WT0 doesn't have enough tokens for burning\");\r\n \r\n        // Burn user's CUSD, but with a fee reduction.\r\n        uint256 chargedFee = stablecoinFees.computeFee(_amount, computeFeeRate(stablecoin));\r\n        uint256 feedAmount = _amount.sub(chargedFee);\r\n        _burn(msg.sender, _amount);\r\n        whitelisted.burn(_amount);\r\n        _mint(address(this), chargedFee);\r\n        emit BurnedCUSD(msg.sender, feedAmount, chargedFee); // Whitelisted trust account should send user feedAmount USD\r\n    }\r\n\r\n    /** Computes fee percentage associated with burning into a particular stablecoin.\r\n     * @param stablecoin The stablecoin whose fee will be charged. Precondition: is a whitelisted\r\n     * stablecoin.\r\n     * @return The fee that will be charged. If the stablecoin's fee is not set, the default\r\n     * fee is returned.\r\n     */\r\n    function computeFeeRate(address stablecoin) public view returns (uint256 feeRate) {\r\n        if (stablecoinFees.isFeeSet(stablecoin)) // If fee for coin is not set\r\n            feeRate = stablecoinFees.fees(stablecoin);\r\n        else\r\n            feeRate = stablecoinFees.defaultFee();\r\n    }\r\n\r\n    /**\r\n     * @notice Compute the fee for converting a particular amount of CarbonUSD to a specific WhitelistedToken.\r\n     * @param amount The amount that the fee will be charged on.\r\n     * @param stablecoin The stablecoin to check fees for.\r\n     * @return The fee charged on the amount for the specified whitelisted token.\r\n     */\r\n    function computeStablecoinFee(uint256 amount, address stablecoin) public view returns (uint256) {\r\n        return stablecoinFees.computeStablecoinFee(amount, stablecoin);\r\n    }\r\n}",
  "sourcePath": "C:\\Users\\npain\\Projects\\Carbon\\fiat_gateway\\contracts\\tokens\\carbonToken\\CarbonDollar.sol",
  "compiler": {
    "name": "solc",
    "version": "0.4.24+commit.e67f0147.Emscripten.clang"
  },
  "schemaVersion": "2.0.1",
  "updatedAt": "2018-08-17T20:11:43.664Z"
}