{
  "contractName": "CarbonDollarMock",
  "abi": [
    {
      "constant": false,
      "inputs": [
        {
          "name": "_who",
          "type": "address"
        }
      ],
      "name": "removeBlacklistSpender",
      "outputs": [],
      "payable": false,
      "stateMutability": "nonpayable",
      "type": "function"
    },
    {
      "constant": false,
      "inputs": [
        {
          "name": "_who",
          "type": "address"
        }
      ],
      "name": "setWhitelistedUser",
      "outputs": [],
      "payable": false,
      "stateMutability": "nonpayable",
      "type": "function"
    },
    {
      "constant": true,
      "inputs": [
        {
          "name": "_who",
          "type": "address"
        },
        {
          "name": "_methodsignature",
          "type": "bytes4"
        }
      ],
      "name": "hasUserPermission",
      "outputs": [
        {
          "name": "",
          "type": "bool"
        }
      ],
      "payable": false,
      "stateMutability": "view",
      "type": "function"
    },
    {
      "constant": true,
      "inputs": [
        {
          "name": "_methodsignature",
          "type": "bytes4"
        }
      ],
      "name": "getPermission",
      "outputs": [
        {
          "name": "name",
          "type": "string"
        },
        {
          "name": "description",
          "type": "string"
        },
        {
          "name": "contract_name",
          "type": "string"
        },
        {
          "name": "active",
          "type": "bool"
        }
      ],
      "payable": false,
      "stateMutability": "view",
      "type": "function"
    },
    {
      "constant": false,
      "inputs": [
        {
          "name": "_who",
          "type": "address"
        },
        {
          "name": "_methodsignature",
          "type": "bytes4"
        }
      ],
      "name": "setUserPermission",
      "outputs": [],
      "payable": false,
      "stateMutability": "nonpayable",
      "type": "function"
    },
    {
      "constant": false,
      "inputs": [
        {
          "name": "_who",
          "type": "address"
        }
      ],
      "name": "setBlacklistDestroyer",
      "outputs": [],
      "payable": false,
      "stateMutability": "nonpayable",
      "type": "function"
    },
    {
      "constant": false,
      "inputs": [
        {
          "name": "_who",
          "type": "address"
        }
      ],
      "name": "removeMinter",
      "outputs": [],
      "payable": false,
      "stateMutability": "nonpayable",
      "type": "function"
    },
    {
      "constant": true,
      "inputs": [
        {
          "name": "",
          "type": "bytes4"
        }
      ],
      "name": "permissions",
      "outputs": [
        {
          "name": "name",
          "type": "string"
        },
        {
          "name": "description",
          "type": "string"
        },
        {
          "name": "contract_name",
          "type": "string"
        },
        {
          "name": "active",
          "type": "bool"
        }
      ],
      "payable": false,
      "stateMutability": "view",
      "type": "function"
    },
    {
      "constant": false,
      "inputs": [
        {
          "name": "_validator",
          "type": "address"
        }
      ],
      "name": "removeValidator",
      "outputs": [],
      "payable": false,
      "stateMutability": "nonpayable",
      "type": "function"
    },
    {
      "constant": false,
      "inputs": [
        {
          "name": "_validator",
          "type": "address"
        }
      ],
      "name": "addValidator",
      "outputs": [],
      "payable": false,
      "stateMutability": "nonpayable",
      "type": "function"
    },
    {
      "constant": true,
      "inputs": [
        {
          "name": "_who",
          "type": "address"
        }
      ],
      "name": "isNonlistedUser",
      "outputs": [
        {
          "name": "",
          "type": "bool"
        }
      ],
      "payable": false,
      "stateMutability": "view",
      "type": "function"
    },
    {
      "constant": false,
      "inputs": [],
      "name": "claimOwnership",
      "outputs": [],
      "payable": false,
      "stateMutability": "nonpayable",
      "type": "function"
    },
    {
      "constant": false,
      "inputs": [
        {
          "name": "_who",
          "type": "address"
        },
        {
          "name": "_methodsignature",
          "type": "bytes4"
        }
      ],
      "name": "removeUserPermission",
      "outputs": [],
      "payable": false,
      "stateMutability": "nonpayable",
      "type": "function"
    },
    {
      "constant": false,
      "inputs": [
        {
          "name": "_who",
          "type": "address"
        }
      ],
      "name": "removeBlacklistDestroyer",
      "outputs": [],
      "payable": false,
      "stateMutability": "nonpayable",
      "type": "function"
    },
    {
      "constant": true,
      "inputs": [],
      "name": "CONVERT_WT_SIG",
      "outputs": [
        {
          "name": "",
          "type": "bytes4"
        }
      ],
      "payable": false,
      "stateMutability": "view",
      "type": "function"
    },
    {
      "constant": false,
      "inputs": [
        {
          "name": "_methodsignature",
          "type": "bytes4"
        },
        {
          "name": "_permissionName",
          "type": "string"
        },
        {
          "name": "_permissionDescription",
          "type": "string"
        },
        {
          "name": "_contractName",
          "type": "string"
        }
      ],
      "name": "addPermission",
      "outputs": [],
      "payable": false,
      "stateMutability": "nonpayable",
      "type": "function"
    },
    {
      "constant": true,
      "inputs": [
        {
          "name": "_who",
          "type": "address"
        }
      ],
      "name": "isBlacklistedUser",
      "outputs": [
        {
          "name": "",
          "type": "bool"
        }
      ],
      "payable": false,
      "stateMutability": "view",
      "type": "function"
    },
    {
      "constant": true,
      "inputs": [
        {
          "name": "",
          "type": "address"
        },
        {
          "name": "",
          "type": "bytes4"
        }
      ],
      "name": "userPermissions",
      "outputs": [
        {
          "name": "",
          "type": "bool"
        }
      ],
      "payable": false,
      "stateMutability": "view",
      "type": "function"
    },
    {
      "constant": true,
      "inputs": [],
      "name": "MINT_SIG",
      "outputs": [
        {
          "name": "",
          "type": "bytes4"
        }
      ],
      "payable": false,
      "stateMutability": "view",
      "type": "function"
    },
    {
      "constant": true,
      "inputs": [],
      "name": "MINT_CUSD_SIG",
      "outputs": [
        {
          "name": "",
          "type": "bytes4"
        }
      ],
      "payable": false,
      "stateMutability": "view",
      "type": "function"
    },
    {
      "constant": true,
      "inputs": [],
      "name": "owner",
      "outputs": [
        {
          "name": "",
          "type": "address"
        }
      ],
      "payable": false,
      "stateMutability": "view",
      "type": "function"
    },
    {
      "constant": true,
      "inputs": [],
      "name": "APPROVE_BLACKLISTED_ADDRESS_SPENDER_SIG",
      "outputs": [
        {
          "name": "",
          "type": "bytes4"
        }
      ],
      "payable": false,
      "stateMutability": "view",
      "type": "function"
    },
    {
      "constant": true,
      "inputs": [
        {
          "name": "_who",
          "type": "address"
        }
      ],
      "name": "isBlacklistSpender",
      "outputs": [
        {
          "name": "",
          "type": "bool"
        }
      ],
      "payable": false,
      "stateMutability": "view",
      "type": "function"
    },
    {
      "constant": true,
      "inputs": [
        {
          "name": "_methodsignature",
          "type": "bytes4"
        }
      ],
      "name": "isPermission",
      "outputs": [
        {
          "name": "",
          "type": "bool"
        }
      ],
      "payable": false,
      "stateMutability": "view",
      "type": "function"
    },
    {
      "constant": true,
      "inputs": [],
      "name": "BLACKLISTED_SIG",
      "outputs": [
        {
          "name": "",
          "type": "bytes4"
        }
      ],
      "payable": false,
      "stateMutability": "view",
      "type": "function"
    },
    {
      "constant": true,
      "inputs": [
        {
          "name": "_who",
          "type": "address"
        }
      ],
      "name": "isMinter",
      "outputs": [
        {
          "name": "",
          "type": "bool"
        }
      ],
      "payable": false,
      "stateMutability": "view",
      "type": "function"
    },
    {
      "constant": true,
      "inputs": [],
      "name": "DESTROY_BLACKLISTED_TOKENS_SIG",
      "outputs": [
        {
          "name": "",
          "type": "bytes4"
        }
      ],
      "payable": false,
      "stateMutability": "view",
      "type": "function"
    },
    {
      "constant": false,
      "inputs": [
        {
          "name": "_methodsignature",
          "type": "bytes4"
        }
      ],
      "name": "removePermission",
      "outputs": [],
      "payable": false,
      "stateMutability": "nonpayable",
      "type": "function"
    },
    {
      "constant": false,
      "inputs": [
        {
          "name": "_who",
          "type": "address"
        }
      ],
      "name": "setBlacklistSpender",
      "outputs": [],
      "payable": false,
      "stateMutability": "nonpayable",
      "type": "function"
    },
    {
      "constant": true,
      "inputs": [],
      "name": "BURN_CARBON_DOLLAR_SIG",
      "outputs": [
        {
          "name": "",
          "type": "bytes4"
        }
      ],
      "payable": false,
      "stateMutability": "view",
      "type": "function"
    },
    {
      "constant": false,
      "inputs": [
        {
          "name": "_who",
          "type": "address"
        }
      ],
      "name": "setBlacklistedUser",
      "outputs": [],
      "payable": false,
      "stateMutability": "nonpayable",
      "type": "function"
    },
    {
      "constant": false,
      "inputs": [
        {
          "name": "_who",
          "type": "address"
        }
      ],
      "name": "setNonlistedUser",
      "outputs": [],
      "payable": false,
      "stateMutability": "nonpayable",
      "type": "function"
    },
    {
      "constant": true,
      "inputs": [],
      "name": "BURN_SIG",
      "outputs": [
        {
          "name": "",
          "type": "bytes4"
        }
      ],
      "payable": false,
      "stateMutability": "view",
      "type": "function"
    },
    {
      "constant": true,
      "inputs": [
        {
          "name": "_who",
          "type": "address"
        }
      ],
      "name": "isWhitelistedUser",
      "outputs": [
        {
          "name": "",
          "type": "bool"
        }
      ],
      "payable": false,
      "stateMutability": "view",
      "type": "function"
    },
    {
      "constant": true,
      "inputs": [],
      "name": "pendingOwner",
      "outputs": [
        {
          "name": "",
          "type": "address"
        }
      ],
      "payable": false,
      "stateMutability": "view",
      "type": "function"
    },
    {
      "constant": false,
      "inputs": [
        {
          "name": "_newOwner",
          "type": "address"
        }
      ],
      "name": "transferOwnership",
      "outputs": [],
      "payable": false,
      "stateMutability": "nonpayable",
      "type": "function"
    },
    {
      "constant": true,
      "inputs": [
        {
          "name": "_who",
          "type": "address"
        }
      ],
      "name": "isBlacklistDestroyer",
      "outputs": [
        {
          "name": "",
          "type": "bool"
        }
      ],
      "payable": false,
      "stateMutability": "view",
      "type": "function"
    },
    {
      "constant": true,
      "inputs": [],
      "name": "CONVERT_CARBON_DOLLAR_SIG",
      "outputs": [
        {
          "name": "",
          "type": "bytes4"
        }
      ],
      "payable": false,
      "stateMutability": "view",
      "type": "function"
    },
    {
      "constant": true,
      "inputs": [
        {
          "name": "",
          "type": "address"
        }
      ],
      "name": "validators",
      "outputs": [
        {
          "name": "",
          "type": "bool"
        }
      ],
      "payable": false,
      "stateMutability": "view",
      "type": "function"
    },
    {
      "constant": true,
      "inputs": [
        {
          "name": "_validator",
          "type": "address"
        }
      ],
      "name": "isValidator",
      "outputs": [
        {
          "name": "",
          "type": "bool"
        }
      ],
      "payable": false,
      "stateMutability": "view",
      "type": "function"
    },
    {
      "constant": false,
      "inputs": [
        {
          "name": "_who",
          "type": "address"
        }
      ],
      "name": "setMinter",
      "outputs": [],
      "payable": false,
      "stateMutability": "nonpayable",
      "type": "function"
    },
    {
      "inputs": [],
      "payable": false,
      "stateMutability": "nonpayable",
      "type": "constructor"
    },
    {
      "anonymous": false,
      "inputs": [
        {
          "indexed": true,
          "name": "who",
          "type": "address"
        }
      ],
      "name": "LogWhitelistedUser",
      "type": "event"
    },
    {
      "anonymous": false,
      "inputs": [
        {
          "indexed": true,
          "name": "who",
          "type": "address"
        }
      ],
      "name": "LogBlacklistedUser",
      "type": "event"
    },
    {
      "anonymous": false,
      "inputs": [
        {
          "indexed": true,
          "name": "who",
          "type": "address"
        }
      ],
      "name": "LogNonlistedUser",
      "type": "event"
    },
    {
      "anonymous": false,
      "inputs": [
        {
          "indexed": true,
          "name": "who",
          "type": "address"
        }
      ],
      "name": "LogSetMinter",
      "type": "event"
    },
    {
      "anonymous": false,
      "inputs": [
        {
          "indexed": true,
          "name": "who",
          "type": "address"
        }
      ],
      "name": "LogRemovedMinter",
      "type": "event"
    },
    {
      "anonymous": false,
      "inputs": [
        {
          "indexed": true,
          "name": "who",
          "type": "address"
        }
      ],
      "name": "LogSetBlacklistDestroyer",
      "type": "event"
    },
    {
      "anonymous": false,
      "inputs": [
        {
          "indexed": true,
          "name": "who",
          "type": "address"
        }
      ],
      "name": "LogRemovedBlacklistDestroyer",
      "type": "event"
    },
    {
      "anonymous": false,
      "inputs": [
        {
          "indexed": true,
          "name": "who",
          "type": "address"
        }
      ],
      "name": "LogSetBlacklistSpender",
      "type": "event"
    },
    {
      "anonymous": false,
      "inputs": [
        {
          "indexed": true,
          "name": "who",
          "type": "address"
        }
      ],
      "name": "LogRemovedBlacklistSpender",
      "type": "event"
    },
    {
      "anonymous": false,
      "inputs": [
        {
          "indexed": false,
          "name": "methodsignature",
          "type": "bytes4"
        }
      ],
      "name": "PermissionAdded",
      "type": "event"
    },
    {
      "anonymous": false,
      "inputs": [
        {
          "indexed": false,
          "name": "methodsignature",
          "type": "bytes4"
        }
      ],
      "name": "PermissionRemoved",
      "type": "event"
    },
    {
      "anonymous": false,
      "inputs": [
        {
          "indexed": true,
          "name": "validator",
          "type": "address"
        }
      ],
      "name": "ValidatorAdded",
      "type": "event"
    },
    {
      "anonymous": false,
      "inputs": [
        {
          "indexed": true,
          "name": "validator",
          "type": "address"
        }
      ],
      "name": "ValidatorRemoved",
      "type": "event"
    },
    {
      "anonymous": false,
      "inputs": [
        {
          "indexed": true,
          "name": "previousOwner",
          "type": "address"
        },
        {
          "indexed": true,
          "name": "newOwner",
          "type": "address"
        }
      ],
      "name": "OwnershipTransferred",
      "type": "event"
    }
  ],
  "bytecode": "0x60806040523480156200001157600080fd5b506000805433600160a060020a031991821681179092556001805490911690556200004590640100000000620000d0810204565b6200005864010000000062000134810204565b6200006b640100000000620001a0810204565b6200007e6401000000006200020a810204565b620000916401000000006200029b810204565b620000a46401000000006200032c810204565b620000b7640100000000620003bd810204565b620000ca6401000000006200044e810204565b6200074e565b600054600160a060020a03163314620000e857600080fd5b600160a060020a038116600081815260036020526040808220805460ff19166001179055517fe366c1c0452ed8eec96861e9e54141ebff23c9ec89fe27b996b45f5ec38849879190a250565b604080517f6d696e7428616464726573732c75696e743235362900000000000000000000008152815190819003601501812060208083018452600080845284518083018652818152855192830190955281526200019e9391929190640100000000620004b8810204565b565b604080517f6275726e2875696e7432353629000000000000000000000000000000000000008152815190819003600d01812060208083018452600080845284518083018652818152855192830190955281526200019e9391929190640100000000620004b8810204565b604080517f636f6e76657274436172626f6e446f6c6c617228616464726573732c75696e7481527f323536290000000000000000000000000000000000000000000000000000000060208083019190915282519182900360240182208282018452600080845284518084018652818152855193840190955282526200019e93909291640100000000620004b8810204565b604080517f6275726e436172626f6e446f6c6c617228616464726573732c75696e7432353681527f290000000000000000000000000000000000000000000000000000000000000060208083019190915282519182900360210182208282018452600080845284518084018652818152855193840190955282526200019e93909291640100000000620004b8810204565b604080517f64657374726f79426c61636b6c6973746564546f6b656e73286164647265737381527f2c75696e7432353629000000000000000000000000000000000000000000000060208083019190915282519182900360290182208282018452600080845284518084018652818152855193840190955282526200019e93909291640100000000620004b8810204565b604080517f617070726f7665426c61636b6c6973746564416464726573735370656e64657281527f286164647265737329000000000000000000000000000000000000000000000060208083019190915282519182900360290182208282018452600080845284518084018652818152855193840190955282526200019e93909291640100000000620004b8810204565b604080517f626c61636b6c69737465642829000000000000000000000000000000000000008152815190819003600d01812060208083018452600080845284518083018652818152855192830190955281526200019e9391929190640100000000620004b8810204565b620004c26200067e565b620004d63364010000000062000660810204565b15156200054457604080517f08c379a000000000000000000000000000000000000000000000000000000000815260206004820152601860248201527f53656e646572206d7573742062652076616c696461746f720000000000000000604482015290519081900360640190fd5b50604080516080810182528481526020808201859052818301849052600160608301527fffffffff000000000000000000000000000000000000000000000000000000008716600090815260028252929092208151805192938493620005ae9284920190620006a9565b506020828101518051620005c99260018501920190620006a9565b5060408201518051620005e7916002840191602090910190620006a9565b50606091909101516003909101805460ff1916911515919091179055604080517fffffffff000000000000000000000000000000000000000000000000000000008716815290517f6195913f4ea9fc2f5193c9f6763975b23790b3be094b1eb18f31843739005512916020908290030190a15050505050565b600160a060020a031660009081526003602052604090205460ff1690565b6080604051908101604052806060815260200160608152602001606081526020016000151581525090565b828054600181600116156101000203166002900490600052602060002090601f016020900481019282601f10620006ec57805160ff19168380011785556200071c565b828001600101855582156200071c579182015b828111156200071c578251825591602001919060010190620006ff565b506200072a9291506200072e565b5090565b6200074b91905b808211156200072a576000815560010162000735565b90565b612abf806200075e6000396000f3006080604052600436106101f85763ffffffff7c0100000000000000000000000000000000000000000000000000000000600035041663029043a481146101fd578063095333031461022057806314db6d58146102415780631830f493146102835780631c870eee146103f1578063231a439e1461041f5780633092afd514610440578063395a7b301461046157806340a141ff146104835780634d238c8e146104a45780634d54dc96146104c55780634e71e0c8146104e65780635317e444146104fb578063556b638414610529578063639c44cf1461054a578063780bfed01461057c5780637ccce851146106605780638707e2f41461068157806388f14b0e146106af5780638b7c8109146106c45780638da5cb5b146106d95780638f959f541461070a57806391c4529f1461071f578063933aa667146107405780639491951b14610762578063aa271e1a14610777578063ab96cb4614610798578063b8ccbd17146107ad578063c1331bc3146107cf578063c1c49cbb146107f0578063c56bea6414610805578063cd49539114610826578063cfbf1b9014610847578063d88c271e1461085c578063e30c39781461087d578063f2fde38b14610892578063f530259e146108b3578063f9d50543146108d4578063fa52c7d8146108e9578063facd743b1461090a578063fca3b5aa1461092b575b600080fd5b34801561020957600080fd5b5061021e600160a060020a036004351661094c565b005b34801561022c57600080fd5b5061021e600160a060020a0360043516610ac8565b34801561024d57600080fd5b5061026f600160a060020a0360043516600160e060020a031960243516610b21565b604080519115158252519081900360200190f35b34801561028f57600080fd5b506102a5600160e060020a031960043516610b58565b604080518215156060820152608080825286519082015285519091829160208084019284019160a08501918a019080838360005b838110156102f15781810151838201526020016102d9565b50505050905090810190601f16801561031e5780820380516001836020036101000a031916815260200191505b50848103835287518152875160209182019189019080838360005b83811015610351578181015183820152602001610339565b50505050905090810190601f16801561037e5780820380516001836020036101000a031916815260200191505b50848103825286518152865160209182019188019080838360005b838110156103b1578181015183820152602001610399565b50505050905090810190601f1680156103de5780820380516001836020036101000a031916815260200191505b5097505050505050505060405180910390f35b3480156103fd57600080fd5b5061021e600160a060020a0360043516600160e060020a031960243516610d45565b34801561042b57600080fd5b5061021e600160a060020a0360043516610e69565b34801561044c57600080fd5b5061021e600160a060020a0360043516610fe5565b34801561046d57600080fd5b506102a5600160e060020a03196004351661103b565b34801561048f57600080fd5b5061021e600160a060020a036004351661120f565b3480156104b057600080fd5b5061021e600160a060020a036004351661126f565b3480156104d157600080fd5b5061026f600160a060020a03600435166112d2565b3480156104f257600080fd5b5061021e61138d565b34801561050757600080fd5b5061021e600160a060020a0360043516600160e060020a031960243516611415565b34801561053557600080fd5b5061021e600160a060020a0360043516611536565b34801561055657600080fd5b5061055f6116b2565b60408051600160e060020a03199092168252519081900360200190f35b34801561058857600080fd5b5060408051602060046024803582810135601f810185900485028601850190965285855261021e958335600160e060020a03191695369560449491939091019190819084018382808284375050604080516020601f89358b018035918201839004830284018301909452808352979a99988101979196509182019450925082915084018382808284375050604080516020601f89358b018035918201839004830284018301909452808352979a9998810197919650918201945092508291508401838280828437509497506116e79650505050505050565b34801561066c57600080fd5b5061026f600160a060020a0360043516611822565b34801561068d57600080fd5b5061026f600160a060020a0360043516600160e060020a0319602435166118d5565b3480156106bb57600080fd5b5061055f6118f5565b3480156106d057600080fd5b5061055f611918565b3480156106e557600080fd5b506106ee61194d565b60408051600160a060020a039092168252519081900360200190f35b34801561071657600080fd5b5061055f61195c565b34801561072b57600080fd5b5061026f600160a060020a0360043516611993565b34801561074c57600080fd5b5061026f600160e060020a0319600435166119d6565b34801561076e57600080fd5b5061055f6119f8565b34801561078357600080fd5b5061026f600160a060020a0360043516611a1b565b3480156107a457600080fd5b5061055f611a4a565b3480156107b957600080fd5b5061021e600160e060020a031960043516611a81565b3480156107db57600080fd5b5061021e600160a060020a0360043516611b2a565b3480156107fc57600080fd5b5061055f611ca6565b34801561081157600080fd5b5061021e600160a060020a0360043516611cd6565b34801561083257600080fd5b5061021e600160a060020a0360043516611d2c565b34801561085357600080fd5b5061055f611d82565b34801561086857600080fd5b5061026f600160a060020a0360043516611db7565b34801561088957600080fd5b506106ee611e35565b34801561089e57600080fd5b5061021e600160a060020a0360043516611e44565b3480156108bf57600080fd5b5061026f600160a060020a0360043516611e9f565b3480156108e057600080fd5b5061055f611ee2565b3480156108f557600080fd5b5061026f600160a060020a0360043516611f15565b34801561091657600080fd5b5061026f600160a060020a0360043516611f2a565b34801561093757600080fd5b5061021e600160a060020a0360043516611f48565b61095533611f2a565b1515610999576040805160e560020a62461bcd0281526020600482015260186024820152600080516020612a34833981519152604482015290519081900360640190fd5b604080516000805160206129948339815191528152600080516020612a14833981519152602082015290519081900360290190206109d6906119d6565b1515610a52576040805160e560020a62461bcd02815260206004820152602960248201527f426c61636b6c697374207370656e64696e67206e6f7420737570706f7274656460448201527f20627920746f6b656e0000000000000000000000000000000000000000000000606482015290519081900360840190fd5b604080516000805160206129948339815191528152600080516020612a1483398151915260208201529051908190036029019020610a91908290611415565b604051600160a060020a038216907fb5ead9fec464a658dd452c45cc1f51bd31f3a2d4bc054f90ae1fa8051794b0f590600090a250565b610ad133611f2a565b1515610b15576040805160e560020a62461bcd0281526020600482015260186024820152600080516020612a34833981519152604482015290519081900360640190fd5b610b1e81611f9e565b50565b600160a060020a0382166000908152600460209081526040808320600160e060020a03198516845290915290205460ff1692915050565b600160e060020a0319811660009081526002602081815260408084206003810154815483516101006001808416159190910260001901909216879004601f8101879004870282018701909552848152606097889788979196938601949086019360ff9091169291869190830182828015610c135780601f10610be857610100808354040283529160200191610c13565b820191906000526020600020905b815481529060010190602001808311610bf657829003601f168201915b5050865460408051602060026001851615610100026000190190941693909304601f810184900484028201840190925281815295995088945092508401905082828015610ca15780601f10610c7657610100808354040283529160200191610ca1565b820191906000526020600020905b815481529060010190602001808311610c8457829003601f168201915b5050855460408051602060026001851615610100026000190190941693909304601f810184900484028201840190925281815295985087945092508401905082828015610d2f5780601f10610d0457610100808354040283529160200191610d2f565b820191906000526020600020905b815481529060010190602001808311610d1257829003601f168201915b5050505050915093509350935093509193509193565b610d4e33611f2a565b1515610d92576040805160e560020a62461bcd0281526020600482015260186024820152600080516020612a34833981519152604482015290519081900360640190fd5b600160e060020a0319811660009081526002602052604090206003015460ff161515610e2e576040805160e560020a62461bcd02815260206004820152603960248201527f5065726d697373696f6e206265696e6720736574206d75737420626520666f7260448201527f20612076616c6964206d6574686f64207369676e617475726500000000000000606482015290519081900360840190fd5b600160a060020a039091166000908152600460209081526040808320600160e060020a0319909416835292905220805460ff19166001179055565b610e7233611f2a565b1515610eb6576040805160e560020a62461bcd0281526020600482015260186024820152600080516020612a34833981519152604482015290519081900360640190fd5b604080516000805160206129f483398151915281526000805160206129d483398151915260208201529051908190036029019020610ef3906119d6565b1515610f6f576040805160e560020a62461bcd02815260206004820152603260248201527f426c61636b6c69737420746f6b656e206465737472756374696f6e206e6f742060448201527f737570706f7274656420627920746f6b656e0000000000000000000000000000606482015290519081900360840190fd5b604080516000805160206129f483398151915281526000805160206129d483398151915260208201529051908190036029019020610fae908290610d45565b604051600160a060020a038216907fc8cc73c74b92642427979fdf8cbcd3f3a1e5a071058f68d87d200483e90278b590600090a250565b610fee33611f2a565b1515611032576040805160e560020a62461bcd0281526020600482015260186024820152600080516020612a34833981519152604482015290519081900360640190fd5b610b1e8161220d565b600260208181526000928352604092839020805484516001821615610100026000190190911693909304601f81018390048302840183019094528383529283918301828280156110cc5780601f106110a1576101008083540402835291602001916110cc565b820191906000526020600020905b8154815290600101906020018083116110af57829003601f168201915b505050505090806001018054600181600116156101000203166002900480601f01602080910402602001604051908101604052809291908181526020018280546001816001161561010002031660029004801561116a5780601f1061113f5761010080835404028352916020019161116a565b820191906000526020600020905b81548152906001019060200180831161114d57829003601f168201915b50505060028085018054604080516020601f60001961010060018716150201909416959095049283018590048502810185019091528181529596959450909250908301828280156111fc5780601f106111d1576101008083540402835291602001916111fc565b820191906000526020600020905b8154815290600101906020018083116111df57829003601f168201915b5050506003909301549192505060ff1684565b600054600160a060020a0316331461122657600080fd5b600160a060020a038116600081815260036020526040808220805460ff19169055517fe1434e25d6611e0db941968fdc97811c982ac1602e951637d206f5fdda9dd8f19190a250565b600054600160a060020a0316331461128657600080fd5b600160a060020a038116600081815260036020526040808220805460ff19166001179055517fe366c1c0452ed8eec96861e9e54141ebff23c9ec89fe27b996b45f5ec38849879190a250565b60006113118260405180806000805160206129b4833981519152815260200160e060020a63323536290281525060240190506040518091039020610b21565b158015611353575060408051600080516020612974833981519152815260f860020a60290260208201529051908190036021019020611351908390610b21565b155b8015611387575060408051600080516020612a748339815191528152905190819003600d019020611385908390610b21565b155b92915050565b600154600160a060020a031633146113a457600080fd5b60015460008054604051600160a060020a0393841693909116917f8be0079c531659141344cd1fd0a4f28419497f9722a3daafe3b4186f6b6457e091a3600180546000805473ffffffffffffffffffffffffffffffffffffffff19908116600160a060020a03841617909155169055565b61141e33611f2a565b1515611462576040805160e560020a62461bcd0281526020600482015260186024820152600080516020612a34833981519152604482015290519081900360640190fd5b600160e060020a0319811660009081526002602052604090206003015460ff1615156114fe576040805160e560020a62461bcd02815260206004820152603d60248201527f5065726d697373696f6e206265696e672072656d6f766564206d75737420626560448201527f20666f7220612076616c6964206d6574686f64207369676e6174757265000000606482015290519081900360840190fd5b600160a060020a039091166000908152600460209081526040808320600160e060020a0319909416835292905220805460ff19169055565b61153f33611f2a565b1515611583576040805160e560020a62461bcd0281526020600482015260186024820152600080516020612a34833981519152604482015290519081900360640190fd5b604080516000805160206129f483398151915281526000805160206129d4833981519152602082015290519081900360290190206115c0906119d6565b151561163c576040805160e560020a62461bcd02815260206004820152603260248201527f426c61636b6c69737420746f6b656e206465737472756374696f6e206e6f742060448201527f737570706f7274656420627920746f6b656e0000000000000000000000000000606482015290519081900360840190fd5b604080516000805160206129f483398151915281526000805160206129d48339815191526020820152905190819003602901902061167b908290611415565b604051600160a060020a038216907fcc060ec5d05ac54bd2af5095f9a42db1cc630ebbfb1146724d624b4ce89a5e8490600090a250565b604080517f636f6e7665727457542875696e743235362900000000000000000000000000008152905190819003601201902081565b6116ef6128ad565b6116f833611f2a565b151561173c576040805160e560020a62461bcd0281526020600482015260186024820152600080516020612a34833981519152604482015290519081900360640190fd5b5060408051608081018252848152602080820185905281830184905260016060830152600160e060020a0319871660009081526002825292909220815180519293849361178c92849201906128d8565b5060208281015180516117a592600185019201906128d8565b50604082015180516117c19160028401916020909101906128d8565b50606091909101516003909101805460ff191691151591909117905560408051600160e060020a03198716815290517f6195913f4ea9fc2f5193c9f6763975b23790b3be094b1eb18f31843739005512916020908290030190a15050505050565b60006118618260405180806000805160206129b4833981519152815260200160e060020a63323536290281525060240190506040518091039020610b21565b1580156118a3575060408051600080516020612974833981519152815260f860020a602902602082015290519081900360210190206118a1908390610b21565b155b8015611387575060408051600080516020612a748339815191528152905190819003600d019020611387908390610b21565b600460209081526000928352604080842090915290825290205460ff1681565b60408051600080516020612a548339815191528152905190819003601501902081565b604080517f6d696e744355534428616464726573732c75696e7432353629000000000000008152905190819003601901902081565b600054600160a060020a031681565b604080516000805160206129948339815191528152600080516020612a148339815191526020820152905190819003602901902081565b60006113878260405180806000805160206129948339815191528152602001600080516020612a1483398151915281525060290190506040518091039020610b21565b600160e060020a03191660009081526002602052604090206003015460ff1690565b60408051600080516020612a748339815191528152905190819003600d01902081565b6000611387826040518080600080516020612a5483398151915281525060150190506040518091039020610b21565b604080516000805160206129f483398151915281526000805160206129d48339815191526020820152905190819003602901902081565b611a8a33611f2a565b1515611ace576040805160e560020a62461bcd0281526020600482015260186024820152600080516020612a34833981519152604482015290519081900360640190fd5b600160e060020a03198116600081815260026020908152604091829020600301805460ff19169055815192835290517f65cd5526557cbd93f0739d00ffcdf8f4a663eb2ed509203d884b3470158724c19281900390910190a150565b611b3333611f2a565b1515611b77576040805160e560020a62461bcd0281526020600482015260186024820152600080516020612a34833981519152604482015290519081900360640190fd5b604080516000805160206129948339815191528152600080516020612a1483398151915260208201529051908190036029019020611bb4906119d6565b1515611c30576040805160e560020a62461bcd02815260206004820152602960248201527f426c61636b6c697374207370656e64696e67206e6f7420737570706f7274656460448201527f20627920746f6b656e0000000000000000000000000000000000000000000000606482015290519081900360840190fd5b604080516000805160206129948339815191528152600080516020612a1483398151915260208201529051908190036029019020611c6f908290610d45565b604051600160a060020a038216907feb9ec59379e252bf8accf2ecf164d50f79b20d66ba85abae9cc795ad1ba5e5a890600090a250565b60408051600080516020612974833981519152815260f860020a6029026020820152905190819003602101902081565b611cdf33611f2a565b1515611d23576040805160e560020a62461bcd0281526020600482015260186024820152600080516020612a34833981519152604482015290519081900360640190fd5b610b1e816122ee565b611d3533611f2a565b1515611d79576040805160e560020a62461bcd0281526020600482015260186024820152600080516020612a34833981519152604482015290519081900360640190fd5b610b1e8161255d565b604080517f6275726e2875696e7432353629000000000000000000000000000000000000008152905190819003600d01902081565b6000611df68260405180806000805160206129b4833981519152815260200160e060020a63323536290281525060240190506040518091039020610b21565b8015611353575060408051600080516020612974833981519152815260f860020a60290260208201529051908190036021019020611353908390610b21565b600154600160a060020a031681565b600054600160a060020a03163314611e5b57600080fd5b600160a060020a0381161515611e7057600080fd5b6001805473ffffffffffffffffffffffffffffffffffffffff1916600160a060020a0392909216919091179055565b60006113878260405180806000805160206129f483398151915281526020016000805160206129d483398151915281525060290190506040518091039020610b21565b604080516000805160206129b4833981519152815260e060020a6332353629026020820152905190819003602401902081565b60036020526000908152604090205460ff1681565b600160a060020a031660009081526003602052604090205460ff1690565b611f5133611f2a565b1515611f95576040805160e560020a62461bcd0281526020600482015260186024820152600080516020612a34833981519152604482015290519081900360640190fd5b610b1e816127cc565b604080516000805160206129b4833981519152815260e060020a63323536290260208201529051908190036024019020611fd7906119d6565b151561202d576040805160e560020a62461bcd02815260206004820152601d60248201527f436f6e76657274696e672043555344206e6f7420737570706f72746564000000604482015290519081900360640190fd5b60408051600080516020612974833981519152815260f860020a60290260208201529051908190036021019020612063906119d6565b15156120b9576040805160e560020a62461bcd02815260206004820152601a60248201527f4275726e696e672043555344206e6f7420737570706f72746564000000000000604482015290519081900360640190fd5b60408051600080516020612a748339815191528152905190819003600d0190206120e2906119d6565b1515612138576040805160e560020a62461bcd02815260206004820152601a60248201527f426c61636b6c697374696e67206e6f7420737570706f72746564000000000000604482015290519081900360640190fd5b604080516000805160206129b4833981519152815260e060020a63323536290260208201529051908190036024019020612173908290610d45565b60408051600080516020612974833981519152815260f860020a602902602082015290519081900360210190206121ab908290610d45565b60408051600080516020612a748339815191528152905190819003600d0190206121d6908290611415565b604051600160a060020a038216907f6b590ec768de031dd76382caebc58b5029c599845931fdcce18afc34fd15b18790600090a250565b60408051600080516020612a5483398151915281529051908190036015019020612236906119d6565b151561228c576040805160e560020a62461bcd02815260206004820152601e60248201527f4d696e74696e67206e6f7420737570706f7274656420627920746f6b656e0000604482015290519081900360640190fd5b60408051600080516020612a54833981519152815290519081900360150190206122b7908290611415565b604051600160a060020a038216907fcfee518972af5b17e262a5c3d62175cf1150cdad0423ac7d4e7f4ae1c0934df090600090a250565b604080516000805160206129b4833981519152815260e060020a63323536290260208201529051908190036024019020612327906119d6565b151561237d576040805160e560020a62461bcd02815260206004820152601d60248201527f436f6e76657274696e672043555344206e6f7420737570706f72746564000000604482015290519081900360640190fd5b60408051600080516020612974833981519152815260f860020a602902602082015290519081900360210190206123b3906119d6565b1515612409576040805160e560020a62461bcd02815260206004820152601a60248201527f4275726e696e672043555344206e6f7420737570706f72746564000000000000604482015290519081900360640190fd5b60408051600080516020612a748339815191528152905190819003600d019020612432906119d6565b1515612488576040805160e560020a62461bcd02815260206004820152601a60248201527f426c61636b6c697374696e67206e6f7420737570706f72746564000000000000604482015290519081900360640190fd5b604080516000805160206129b4833981519152815260e060020a633235362902602082015290519081900360240190206124c3908290611415565b60408051600080516020612974833981519152815260f860020a602902602082015290519081900360210190206124fb908290611415565b60408051600080516020612a748339815191528152905190819003600d019020612526908290610d45565b604051600160a060020a038216907fe188e80e8d523dc5ac6bbae932c30011688c5a4269bd1d97fb3493e57056459990600090a250565b604080516000805160206129b4833981519152815260e060020a63323536290260208201529051908190036024019020612596906119d6565b15156125ec576040805160e560020a62461bcd02815260206004820152601d60248201527f436f6e76657274696e672043555344206e6f7420737570706f72746564000000604482015290519081900360640190fd5b60408051600080516020612974833981519152815260f860020a60290260208201529051908190036021019020612622906119d6565b1515612678576040805160e560020a62461bcd02815260206004820152601a60248201527f4275726e696e672043555344206e6f7420737570706f72746564000000000000604482015290519081900360640190fd5b60408051600080516020612a748339815191528152905190819003600d0190206126a1906119d6565b15156126f7576040805160e560020a62461bcd02815260206004820152601a60248201527f426c61636b6c697374696e67206e6f7420737570706f72746564000000000000604482015290519081900360640190fd5b604080516000805160206129b4833981519152815260e060020a63323536290260208201529051908190036024019020612732908290611415565b60408051600080516020612974833981519152815260f860020a6029026020820152905190819003602101902061276a908290611415565b60408051600080516020612a748339815191528152905190819003600d019020612795908290611415565b604051600160a060020a038216907f49f6559c19d7cf5ee40d0715f3e79859ac083e76d8fbb79267a3a7dca5e463d090600090a250565b60408051600080516020612a54833981519152815290519081900360150190206127f5906119d6565b151561284b576040805160e560020a62461bcd02815260206004820152601e60248201527f4d696e74696e67206e6f7420737570706f7274656420627920746f6b656e0000604482015290519081900360640190fd5b60408051600080516020612a5483398151915281529051908190036015019020612876908290610d45565b604051600160a060020a038216907f5e0c8c15134773cb6fe4d2cc6f9e5683049cc6277f742e2a7e0e89a2d3d1e40890600090a250565b6080604051908101604052806060815260200160608152602001606081526020016000151581525090565b828054600181600116156101000203166002900490600052602060002090601f016020900481019282601f1061291957805160ff1916838001178555612946565b82800160010185558215612946579182015b8281111561294657825182559160200191906001019061292b565b50612952929150612956565b5090565b61297091905b80821115612952576000815560010161295c565b9056006275726e436172626f6e446f6c6c617228616464726573732c75696e74323536617070726f7665426c61636b6c6973746564416464726573735370656e646572636f6e76657274436172626f6e446f6c6c617228616464726573732c75696e742c75696e7432353629000000000000000000000000000000000000000000000064657374726f79426c61636b6c6973746564546f6b656e732861646472657373286164647265737329000000000000000000000000000000000000000000000053656e646572206d7573742062652076616c696461746f7200000000000000006d696e7428616464726573732c75696e74323536290000000000000000000000626c61636b6c6973746564282900000000000000000000000000000000000000a165627a7a72305820b1df6cba248e7322e3df6ec280458df14943620fb450d5f81c35d0626463ea740029",
  "source": "pragma solidity ^0.4.24;\n\nimport \"../carbonDollarRegulator/CarbonDollarRegulator.sol\";\n\n/**\n*\n* @dev creates a CD Regulator with a single Validator and all Permissions \n*\n**/\ncontract CarbonDollarMock is CarbonDollarRegulator {\n    /** \n        @dev Initializes common permissions from validator, validator set to msg.sender\n     */\n    constructor() public {\n        addValidator(msg.sender);\n        setMintPermission();\n        setBurnPermission();\n        setConvertCarbonDollarPermission();\n        setBurnCarbonDollarPermission();\n        setDestroyBlacklistedTokensPermission();\n        setApproveBlacklistedAddressSpenderPermission();\n        setDestroySelfPermission();\n    }\n\n    function setMintPermission() internal {\n        addPermission(MINT_SIG, \"\",\"\",\"\");\n    }\n    \n    function setBurnPermission() internal {\n        addPermission(BURN_SIG, \"\",\"\",\"\");\n    }\n\n    function setConvertCarbonDollarPermission() internal {\n        addPermission(CONVERT_CARBON_DOLLAR_SIG, \"\",\"\",\"\");\n    }\n\n    function setBurnCarbonDollarPermission() internal {\n        addPermission(BURN_CARBON_DOLLAR_SIG, \"\",\"\",\"\");\n    }\n\n    function setDestroyBlacklistedTokensPermission() internal {\n        addPermission(DESTROY_BLACKLISTED_TOKENS_SIG, \"\",\"\",\"\");\n    }\n\n    function setApproveBlacklistedAddressSpenderPermission() internal {\n        addPermission(APPROVE_BLACKLISTED_ADDRESS_SPENDER_SIG, \"\",\"\",\"\");\n    }\n\n    function setDestroySelfPermission() internal {\n        addPermission(BLACKLISTED_SIG, \"\",\"\",\"\");\n    }\n}",
  "sourcePath": "/Users/nicholaspai/Carbon/fiat_gateway/contracts/regulator/mocks/CarbonDollarMock.sol",
  "compiler": {
    "name": "solc",
    "version": "0.4.24+commit.e67f0147.Emscripten.clang"
  },
  "schemaVersion": "2.0.1",
  "updatedAt": "2018-12-01T17:48:55.662Z"
}