{
  "contractName": "CarbonDollar",
  "abi": [
    {
      "constant": false,
      "inputs": [
        {
          "name": "_spender",
          "type": "address"
        },
        {
          "name": "_value",
          "type": "uint256"
        }
      ],
      "name": "approve",
      "outputs": [
        {
          "name": "",
          "type": "bool"
        }
      ],
      "payable": false,
      "stateMutability": "nonpayable",
      "type": "function"
    },
    {
      "constant": true,
      "inputs": [],
      "name": "totalSupply",
      "outputs": [
        {
          "name": "",
          "type": "uint256"
        }
      ],
      "payable": false,
      "stateMutability": "view",
      "type": "function"
    },
    {
      "constant": false,
      "inputs": [
        {
          "name": "_from",
          "type": "address"
        },
        {
          "name": "_to",
          "type": "address"
        },
        {
          "name": "_amount",
          "type": "uint256"
        }
      ],
      "name": "transferFrom",
      "outputs": [
        {
          "name": "",
          "type": "bool"
        }
      ],
      "payable": false,
      "stateMutability": "nonpayable",
      "type": "function"
    },
    {
      "constant": true,
      "inputs": [],
      "name": "allowances",
      "outputs": [
        {
          "name": "",
          "type": "address"
        }
      ],
      "payable": false,
      "stateMutability": "view",
      "type": "function"
    },
    {
      "constant": false,
      "inputs": [],
      "name": "unpause",
      "outputs": [],
      "payable": false,
      "stateMutability": "nonpayable",
      "type": "function"
    },
    {
      "constant": false,
      "inputs": [
        {
          "name": "_amount",
          "type": "uint256"
        }
      ],
      "name": "burn",
      "outputs": [],
      "payable": false,
      "stateMutability": "nonpayable",
      "type": "function"
    },
    {
      "constant": true,
      "inputs": [],
      "name": "blacklisted",
      "outputs": [
        {
          "name": "",
          "type": "bool"
        }
      ],
      "payable": false,
      "stateMutability": "view",
      "type": "function"
    },
    {
      "constant": true,
      "inputs": [],
      "name": "paused",
      "outputs": [
        {
          "name": "",
          "type": "bool"
        }
      ],
      "payable": false,
      "stateMutability": "view",
      "type": "function"
    },
    {
      "constant": false,
      "inputs": [
        {
          "name": "_feesheet",
          "type": "address"
        }
      ],
      "name": "setFeeSheet",
      "outputs": [],
      "payable": false,
      "stateMutability": "nonpayable",
      "type": "function"
    },
    {
      "constant": false,
      "inputs": [
        {
          "name": "_spender",
          "type": "address"
        },
        {
          "name": "_subtractedValue",
          "type": "uint256"
        }
      ],
      "name": "decreaseApproval",
      "outputs": [
        {
          "name": "",
          "type": "bool"
        }
      ],
      "payable": false,
      "stateMutability": "nonpayable",
      "type": "function"
    },
    {
      "constant": false,
      "inputs": [
        {
          "name": "_blacklistedAccount",
          "type": "address"
        }
      ],
      "name": "approveBlacklistedAddressSpender",
      "outputs": [],
      "payable": false,
      "stateMutability": "nonpayable",
      "type": "function"
    },
    {
      "constant": true,
      "inputs": [
        {
          "name": "who",
          "type": "address"
        }
      ],
      "name": "balanceOf",
      "outputs": [
        {
          "name": "",
          "type": "uint256"
        }
      ],
      "payable": false,
      "stateMutability": "view",
      "type": "function"
    },
    {
      "constant": false,
      "inputs": [],
      "name": "renounceOwnership",
      "outputs": [],
      "payable": false,
      "stateMutability": "nonpayable",
      "type": "function"
    },
    {
      "constant": false,
      "inputs": [
        {
          "name": "_newStorageAddress",
          "type": "address"
        }
      ],
      "name": "setBalanceStorage",
      "outputs": [],
      "payable": false,
      "stateMutability": "nonpayable",
      "type": "function"
    },
    {
      "constant": true,
      "inputs": [],
      "name": "balances",
      "outputs": [
        {
          "name": "",
          "type": "address"
        }
      ],
      "payable": false,
      "stateMutability": "view",
      "type": "function"
    },
    {
      "constant": false,
      "inputs": [],
      "name": "pause",
      "outputs": [],
      "payable": false,
      "stateMutability": "nonpayable",
      "type": "function"
    },
    {
      "constant": true,
      "inputs": [],
      "name": "isMethodEnabled",
      "outputs": [
        {
          "name": "",
          "type": "bool"
        }
      ],
      "payable": false,
      "stateMutability": "view",
      "type": "function"
    },
    {
      "constant": true,
      "inputs": [],
      "name": "owner",
      "outputs": [
        {
          "name": "",
          "type": "address"
        }
      ],
      "payable": false,
      "stateMutability": "view",
      "type": "function"
    },
    {
      "constant": false,
      "inputs": [],
      "name": "unlock",
      "outputs": [],
      "payable": false,
      "stateMutability": "nonpayable",
      "type": "function"
    },
    {
      "constant": false,
      "inputs": [
        {
          "name": "_to",
          "type": "address"
        },
        {
          "name": "_amount",
          "type": "uint256"
        }
      ],
      "name": "transfer",
      "outputs": [
        {
          "name": "",
          "type": "bool"
        }
      ],
      "payable": false,
      "stateMutability": "nonpayable",
      "type": "function"
    },
    {
      "constant": false,
      "inputs": [
        {
          "name": "_newStorageAddress",
          "type": "address"
        }
      ],
      "name": "setAllowanceStorage",
      "outputs": [],
      "payable": false,
      "stateMutability": "nonpayable",
      "type": "function"
    },
    {
      "constant": false,
      "inputs": [
        {
          "name": "_who",
          "type": "address"
        },
        {
          "name": "_amount",
          "type": "uint256"
        }
      ],
      "name": "destroyBlacklistedTokens",
      "outputs": [],
      "payable": false,
      "stateMutability": "nonpayable",
      "type": "function"
    },
    {
      "constant": false,
      "inputs": [
        {
          "name": "_newStorageAddress",
          "type": "address"
        }
      ],
      "name": "setRegulator",
      "outputs": [],
      "payable": false,
      "stateMutability": "nonpayable",
      "type": "function"
    },
    {
      "constant": false,
      "inputs": [
        {
          "name": "_whitelist",
          "type": "address"
        }
      ],
      "name": "setStablecoinWhitelist",
      "outputs": [],
      "payable": false,
      "stateMutability": "nonpayable",
      "type": "function"
    },
    {
      "constant": false,
      "inputs": [
        {
          "name": "_spender",
          "type": "address"
        },
        {
          "name": "_addedValue",
          "type": "uint256"
        }
      ],
      "name": "increaseApproval",
      "outputs": [
        {
          "name": "",
          "type": "bool"
        }
      ],
      "payable": false,
      "stateMutability": "nonpayable",
      "type": "function"
    },
    {
      "constant": true,
      "inputs": [],
      "name": "stablecoinFees",
      "outputs": [
        {
          "name": "",
          "type": "address"
        }
      ],
      "payable": false,
      "stateMutability": "view",
      "type": "function"
    },
    {
      "constant": true,
      "inputs": [
        {
          "name": "owner",
          "type": "address"
        },
        {
          "name": "spender",
          "type": "address"
        }
      ],
      "name": "allowance",
      "outputs": [
        {
          "name": "",
          "type": "uint256"
        }
      ],
      "payable": false,
      "stateMutability": "view",
      "type": "function"
    },
    {
      "constant": true,
      "inputs": [],
      "name": "regulator",
      "outputs": [
        {
          "name": "",
          "type": "address"
        }
      ],
      "payable": false,
      "stateMutability": "view",
      "type": "function"
    },
    {
      "constant": true,
      "inputs": [],
      "name": "stablecoinWhitelist",
      "outputs": [
        {
          "name": "",
          "type": "address"
        }
      ],
      "payable": false,
      "stateMutability": "view",
      "type": "function"
    },
    {
      "constant": false,
      "inputs": [
        {
          "name": "_newOwner",
          "type": "address"
        }
      ],
      "name": "transferOwnership",
      "outputs": [],
      "payable": false,
      "stateMutability": "nonpayable",
      "type": "function"
    },
    {
      "constant": false,
      "inputs": [],
      "name": "lock",
      "outputs": [],
      "payable": false,
      "stateMutability": "nonpayable",
      "type": "function"
    },
    {
      "inputs": [
        {
          "name": "r",
          "type": "address"
        },
        {
          "name": "b",
          "type": "address"
        },
        {
          "name": "a",
          "type": "address"
        },
        {
          "name": "f",
          "type": "address"
        },
        {
          "name": "s",
          "type": "address"
        }
      ],
      "payable": false,
      "stateMutability": "nonpayable",
      "type": "constructor"
    },
    {
      "anonymous": false,
      "inputs": [
        {
          "indexed": true,
          "name": "user",
          "type": "address"
        },
        {
          "indexed": false,
          "name": "amount",
          "type": "uint256"
        }
      ],
      "name": "ConvertedToWT",
      "type": "event"
    },
    {
      "anonymous": false,
      "inputs": [
        {
          "indexed": true,
          "name": "user",
          "type": "address"
        },
        {
          "indexed": false,
          "name": "feedAmount",
          "type": "uint256"
        },
        {
          "indexed": false,
          "name": "chargedFee",
          "type": "uint256"
        }
      ],
      "name": "BurnedCUSD",
      "type": "event"
    },
    {
      "anonymous": false,
      "inputs": [
        {
          "indexed": true,
          "name": "account",
          "type": "address"
        },
        {
          "indexed": false,
          "name": "amount",
          "type": "uint256"
        }
      ],
      "name": "DestroyedBlacklistedTokens",
      "type": "event"
    },
    {
      "anonymous": false,
      "inputs": [
        {
          "indexed": true,
          "name": "owner",
          "type": "address"
        },
        {
          "indexed": true,
          "name": "spender",
          "type": "address"
        },
        {
          "indexed": false,
          "name": "value",
          "type": "uint256"
        }
      ],
      "name": "ApprovedBlacklistedAddressSpender",
      "type": "event"
    },
    {
      "anonymous": false,
      "inputs": [
        {
          "indexed": true,
          "name": "to",
          "type": "address"
        },
        {
          "indexed": false,
          "name": "value",
          "type": "uint256"
        }
      ],
      "name": "Mint",
      "type": "event"
    },
    {
      "anonymous": false,
      "inputs": [
        {
          "indexed": true,
          "name": "burner",
          "type": "address"
        },
        {
          "indexed": false,
          "name": "value",
          "type": "uint256"
        }
      ],
      "name": "Burn",
      "type": "event"
    },
    {
      "anonymous": false,
      "inputs": [
        {
          "indexed": true,
          "name": "from",
          "type": "address"
        },
        {
          "indexed": true,
          "name": "to",
          "type": "address"
        },
        {
          "indexed": false,
          "name": "value",
          "type": "uint256"
        }
      ],
      "name": "Transfer",
      "type": "event"
    },
    {
      "anonymous": false,
      "inputs": [
        {
          "indexed": true,
          "name": "owner",
          "type": "address"
        },
        {
          "indexed": true,
          "name": "spender",
          "type": "address"
        },
        {
          "indexed": false,
          "name": "value",
          "type": "uint256"
        }
      ],
      "name": "Approval",
      "type": "event"
    },
    {
      "anonymous": false,
      "inputs": [
        {
          "indexed": false,
          "name": "_old",
          "type": "address"
        },
        {
          "indexed": false,
          "name": "_new",
          "type": "address"
        }
      ],
      "name": "ChangedRegulator",
      "type": "event"
    },
    {
      "anonymous": false,
      "inputs": [
        {
          "indexed": false,
          "name": "_old",
          "type": "address"
        },
        {
          "indexed": false,
          "name": "_new",
          "type": "address"
        }
      ],
      "name": "ChangedBalanceStorage",
      "type": "event"
    },
    {
      "anonymous": false,
      "inputs": [
        {
          "indexed": false,
          "name": "_old",
          "type": "address"
        },
        {
          "indexed": false,
          "name": "_new",
          "type": "address"
        }
      ],
      "name": "ChangedAllowanceStorage",
      "type": "event"
    },
    {
      "anonymous": false,
      "inputs": [],
      "name": "Unlocked",
      "type": "event"
    },
    {
      "anonymous": false,
      "inputs": [],
      "name": "Locked",
      "type": "event"
    },
    {
      "anonymous": false,
      "inputs": [],
      "name": "Pause",
      "type": "event"
    },
    {
      "anonymous": false,
      "inputs": [],
      "name": "Unpause",
      "type": "event"
    },
    {
      "anonymous": false,
      "inputs": [
        {
          "indexed": true,
          "name": "oldSheet",
          "type": "address"
        },
        {
          "indexed": true,
          "name": "newSheet",
          "type": "address"
        }
      ],
      "name": "FeeSheetChanged",
      "type": "event"
    },
    {
      "anonymous": false,
      "inputs": [
        {
          "indexed": true,
          "name": "oldWhitelist",
          "type": "address"
        },
        {
          "indexed": true,
          "name": "newWhitelist",
          "type": "address"
        }
      ],
      "name": "StablecoinWhitelistChanged",
      "type": "event"
    },
    {
      "anonymous": false,
      "inputs": [
        {
          "indexed": true,
          "name": "previousOwner",
          "type": "address"
        }
      ],
      "name": "OwnershipRenounced",
      "type": "event"
    },
    {
      "anonymous": false,
      "inputs": [
        {
          "indexed": true,
          "name": "previousOwner",
          "type": "address"
        },
        {
          "indexed": true,
          "name": "newOwner",
          "type": "address"
        }
      ],
      "name": "OwnershipTransferred",
      "type": "event"
    },
    {
      "constant": false,
      "inputs": [
        {
          "name": "_stablecoin",
          "type": "address"
        }
      ],
      "name": "listToken",
      "outputs": [],
      "payable": false,
      "stateMutability": "nonpayable",
      "type": "function"
    },
    {
      "constant": false,
      "inputs": [
        {
          "name": "_stablecoin",
          "type": "address"
        }
      ],
      "name": "unlistToken",
      "outputs": [],
      "payable": false,
      "stateMutability": "nonpayable",
      "type": "function"
    },
    {
      "constant": true,
      "inputs": [
        {
          "name": "_stablecoin",
          "type": "address"
        }
      ],
      "name": "isWhitelisted",
      "outputs": [
        {
          "name": "",
          "type": "bool"
        }
      ],
      "payable": false,
      "stateMutability": "view",
      "type": "function"
    },
    {
      "constant": false,
      "inputs": [
        {
          "name": "stablecoin",
          "type": "address"
        },
        {
          "name": "_newFee",
          "type": "uint256"
        }
      ],
      "name": "setFee",
      "outputs": [],
      "payable": false,
      "stateMutability": "nonpayable",
      "type": "function"
    },
    {
      "constant": false,
      "inputs": [
        {
          "name": "stablecoin",
          "type": "address"
        }
      ],
      "name": "removeFee",
      "outputs": [],
      "payable": false,
      "stateMutability": "nonpayable",
      "type": "function"
    },
    {
      "constant": false,
      "inputs": [
        {
          "name": "_newFee",
          "type": "uint256"
        }
      ],
      "name": "setDefaultFee",
      "outputs": [],
      "payable": false,
      "stateMutability": "nonpayable",
      "type": "function"
    },
    {
      "constant": true,
      "inputs": [
        {
          "name": "stablecoin",
          "type": "address"
        }
      ],
      "name": "getFee",
      "outputs": [
        {
          "name": "",
          "type": "uint256"
        }
      ],
      "payable": false,
      "stateMutability": "view",
      "type": "function"
    },
    {
      "constant": true,
      "inputs": [],
      "name": "getDefaultFee",
      "outputs": [
        {
          "name": "",
          "type": "uint256"
        }
      ],
      "payable": false,
      "stateMutability": "view",
      "type": "function"
    },
    {
      "constant": false,
      "inputs": [
        {
          "name": "_to",
          "type": "address"
        },
        {
          "name": "_amount",
          "type": "uint256"
        }
      ],
      "name": "mint",
      "outputs": [],
      "payable": false,
      "stateMutability": "nonpayable",
      "type": "function"
    },
    {
      "constant": false,
      "inputs": [
        {
          "name": "stablecoin",
          "type": "address"
        },
        {
          "name": "_amount",
          "type": "uint256"
        }
      ],
      "name": "convertCarbonDollar",
      "outputs": [],
      "payable": false,
      "stateMutability": "nonpayable",
      "type": "function"
    },
    {
      "constant": false,
      "inputs": [
        {
          "name": "stablecoin",
          "type": "address"
        },
        {
          "name": "_amount",
          "type": "uint256"
        }
      ],
      "name": "burnCarbonDollar",
      "outputs": [],
      "payable": false,
      "stateMutability": "nonpayable",
      "type": "function"
    },
    {
      "constant": true,
      "inputs": [
        {
          "name": "stablecoin",
          "type": "address"
        }
      ],
      "name": "computeFeeRate",
      "outputs": [
        {
          "name": "feeRate",
          "type": "uint256"
        }
      ],
      "payable": false,
      "stateMutability": "view",
      "type": "function"
    },
    {
      "constant": true,
      "inputs": [
        {
          "name": "amount",
          "type": "uint256"
        },
        {
          "name": "stablecoin",
          "type": "address"
        }
      ],
      "name": "computeStablecoinFee",
      "outputs": [
        {
          "name": "",
          "type": "uint256"
        }
      ],
      "payable": false,
      "stateMutability": "view",
      "type": "function"
    }
  ],
  "bytecode": "0x60806040526002805460a060020a61ffff021916905534801561002157600080fd5b5060405160a080620058c6833981016040908152815160208301519183015160608401516080909401516000805433600160a060020a0319918216178255600180548216600160a060020a03988916179055600280548216938816939093179092556003805483169487169490941790935560048054821694861694909417909355600580549093169316929092179055615803908190620000c390396000f3006080604052600436106102195763ffffffff7c0100000000000000000000000000000000000000000000000000000000600035041663095ea7b3811461021e5780630d4b820814610263578063166e55d91461029657806318160ddd146102d95780631fc1e25f146102ee57806321bacf281461031c57806323b872dd146103315780633af32abf146103685780633ed10b92146103965780633f4ba83a146103d457806340c10f19146103e957806342966c681461041a5780635bae9ce9146104325780635c975abb1461044757806360814fe81461045c578063661884631461048a578063662f94c0146104bb5780636ad26611146104e957806370a0823114610517578063715018a61461054557806373e9e0e51461055a5780637bb98a68146105885780638456cb591461059d578063873ab2ce146105b257806388fa2617146105e05780638da5cb5b146105f5578063a69df4b51461060a578063a9059cbb1461061f578063abcb993414610650578063b88c91481461067e578063ba6f4ab0146106ac578063c52dd644146106dd578063c534ba4b1461070b578063c93a6c841461073c578063cde0a4f814610754578063d1a15eba14610782578063d73dd623146107b0578063d9651566146107e1578063dd62ed3e146107f6578063dd8fee141461082a578063e14852e31461083f578063e55156b514610854578063f2fde38b14610885578063f83d08ba146108b3575b600080fd5b34801561022a57600080fd5b5061024f73ffffffffffffffffffffffffffffffffffffffff600435166024356108c8565b604080519115158252519081900360200190f35b34801561026f57600080fd5b5061029473ffffffffffffffffffffffffffffffffffffffff60043516602435610c23565b005b3480156102a257600080fd5b506102c760043573ffffffffffffffffffffffffffffffffffffffff6024351661127e565b60408051918252519081900360200190f35b3480156102e557600080fd5b506102c7611330565b3480156102fa57600080fd5b5061029473ffffffffffffffffffffffffffffffffffffffff600435166113e9565b34801561032857600080fd5b506102c76114c4565b34801561033d57600080fd5b5061024f73ffffffffffffffffffffffffffffffffffffffff60043581169060243516604435611530565b34801561037457600080fd5b5061024f73ffffffffffffffffffffffffffffffffffffffff60043516611c0f565b3480156103a257600080fd5b506103ab611cbb565b6040805173ffffffffffffffffffffffffffffffffffffffff9092168252519081900360200190f35b3480156103e057600080fd5b50610294611cd7565b3480156103f557600080fd5b5061029473ffffffffffffffffffffffffffffffffffffffff60043516602435611d77565b34801561042657600080fd5b50610294600435611edf565b34801561043e57600080fd5b5061024f612072565b34801561045357600080fd5b5061024f6121d4565b34801561046857600080fd5b5061029473ffffffffffffffffffffffffffffffffffffffff600435166121f5565b34801561049657600080fd5b5061024f73ffffffffffffffffffffffffffffffffffffffff60043516602435612222565b3480156104c757600080fd5b5061029473ffffffffffffffffffffffffffffffffffffffff60043516612478565b3480156104f557600080fd5b5061029473ffffffffffffffffffffffffffffffffffffffff60043516612821565b34801561052357600080fd5b506102c773ffffffffffffffffffffffffffffffffffffffff60043516612a15565b34801561055157600080fd5b50610294612a8f565b34801561056657600080fd5b5061029473ffffffffffffffffffffffffffffffffffffffff60043516612b20565b34801561059457600080fd5b506103ab612cf4565b3480156105a957600080fd5b50610294612d10565b3480156105be57600080fd5b506102c773ffffffffffffffffffffffffffffffffffffffff60043516612dc6565b3480156105ec57600080fd5b5061024f612f9d565b34801561060157600080fd5b506103ab612fbf565b34801561061657600080fd5b50610294612fdb565b34801561062b57600080fd5b5061024f73ffffffffffffffffffffffffffffffffffffffff6004351660243561306a565b34801561065c57600080fd5b5061029473ffffffffffffffffffffffffffffffffffffffff60043516613526565b34801561068a57600080fd5b506102c773ffffffffffffffffffffffffffffffffffffffff600435166135e6565b3480156106b857600080fd5b5061029473ffffffffffffffffffffffffffffffffffffffff6004351660243561365e565b3480156106e957600080fd5b5061029473ffffffffffffffffffffffffffffffffffffffff60043516613c11565b34801561071757600080fd5b5061029473ffffffffffffffffffffffffffffffffffffffff60043516602435613de5565b34801561074857600080fd5b506102946004356141ed565b34801561076057600080fd5b5061029473ffffffffffffffffffffffffffffffffffffffff600435166142ac565b34801561078e57600080fd5b5061029473ffffffffffffffffffffffffffffffffffffffff60043516614480565b3480156107bc57600080fd5b5061024f73ffffffffffffffffffffffffffffffffffffffff600435166024356144ad565b3480156107ed57600080fd5b506103ab6146f9565b34801561080257600080fd5b506102c773ffffffffffffffffffffffffffffffffffffffff60043581169060243516614715565b34801561083657600080fd5b506103ab614795565b34801561084b57600080fd5b506103ab6147b1565b34801561086057600080fd5b5061029473ffffffffffffffffffffffffffffffffffffffff600435166024356147cd565b34801561089157600080fd5b5061029473ffffffffffffffffffffffffffffffffffffffff600435166149e4565b3480156108bf57600080fd5b50610294614a11565b600354604080517f7ccce85100000000000000000000000000000000000000000000000000000000815273ffffffffffffffffffffffffffffffffffffffff8086166004830152915160009386931691637ccce85191602480830192602092919082900301818887803b15801561093e57600080fd5b505af1158015610952573d6000803e3d6000fd5b505050506040513d602081101561096857600080fd5b5051156109d657604080517f08c379a000000000000000000000000000000000000000000000000000000000815260206004820152601c60248201527f55736572206d757374206e6f7420626520626c61636b6c697374656400000000604482015290519081900360640190fd5b600354604080517f7ccce851000000000000000000000000000000000000000000000000000000008152336004820152905173ffffffffffffffffffffffffffffffffffffffff90921691637ccce851916024808201926020929091908290030181600087803b158015610a4957600080fd5b505af1158015610a5d573d6000803e3d6000fd5b505050506040513d6020811015610a7357600080fd5b505115610ae157604080517f08c379a000000000000000000000000000000000000000000000000000000000815260206004820152601e60248201527f53656e646572206d757374206e6f7420626520626c61636b6c69737465640000604482015290519081900360640190fd5b60025474010000000000000000000000000000000000000000900460ff1615610b0957600080fd5b6002547501000000000000000000000000000000000000000000900460ff161515610b3357600080fd5b600554604080517fda46098c00000000000000000000000000000000000000000000000000000000815233600482015273ffffffffffffffffffffffffffffffffffffffff8781166024830152604482018790529151919092169163da46098c91606480830192600092919082900301818387803b158015610bb457600080fd5b505af1158015610bc8573d6000803e3d6000fd5b505060408051868152905173ffffffffffffffffffffffffffffffffffffffff881693503392507f8c5be1e5ebec7d5bd14f71427d1e84f3dd0314c0f7b2291e5b200ac8c7c3b9259181900360200190a35060019392505050565b600354604080517f14db6d58000000000000000000000000000000000000000000000000000000008152336004820152600080357fffffffff00000000000000000000000000000000000000000000000000000000166024830152915191928392839273ffffffffffffffffffffffffffffffffffffffff909216916314db6d5891604480830192602092919082900301818787803b158015610cc557600080fd5b505af1158015610cd9573d6000803e3d6000fd5b505050506040513d6020811015610cef57600080fd5b50511515610d8457604080517f08c379a000000000000000000000000000000000000000000000000000000000815260206004820152603160248201527f5573657220646f6573206e6f742068617665207065726d697373696f6e20746f60448201527f20657865637574652066756e6374696f6e000000000000000000000000000000606482015290519081900360840190fd5b60025474010000000000000000000000000000000000000000900460ff1615610dac57600080fd5b600254604080517f3af32abf00000000000000000000000000000000000000000000000000000000815273ffffffffffffffffffffffffffffffffffffffff888116600483015291519190921691633af32abf9160248083019260209291908290030181600087803b158015610e2157600080fd5b505af1158015610e35573d6000803e3d6000fd5b505050506040513d6020811015610e4b57600080fd5b50511515610ee057604080517f08c379a000000000000000000000000000000000000000000000000000000000815260206004820152603e60248201527f537461626c65636f696e206d7573742062652077686974656c6973746564207060448201527f72696f7220746f2073657474696e6720636f6e76657273696f6e206665650000606482015290519081900360840190fd5b604080517f70a082310000000000000000000000000000000000000000000000000000000081523060048201529051869450859173ffffffffffffffffffffffffffffffffffffffff8616916370a08231916024808201926020929091908290030181600087803b158015610f5457600080fd5b505af1158015610f68573d6000803e3d6000fd5b505050506040513d6020811015610f7e57600080fd5b5051101561103957604080517f08c379a000000000000000000000000000000000000000000000000000000000815260206004820152604360248201527f436172626f6e20657363726f77206163636f756e7420696e2057543020646f6560448201527f736e2774206861766520656e6f75676820746f6b656e7320666f72206275726e60648201527f696e670000000000000000000000000000000000000000000000000000000000608482015290519081900360a40190fd5b60015473ffffffffffffffffffffffffffffffffffffffff16632ff284c28561106188612dc6565b6040518363ffffffff167c01000000000000000000000000000000000000000000000000000000000281526004018083815260200182815260200192505050602060405180830381600087803b1580156110ba57600080fd5b505af11580156110ce573d6000803e3d6000fd5b505050506040513d60208110156110e457600080fd5b505191506110f8848363ffffffff614a8816565b90506111043385614a9a565b604080517fa9059cbb00000000000000000000000000000000000000000000000000000000815233600482015260248101839052905173ffffffffffffffffffffffffffffffffffffffff85169163a9059cbb9160448083019260209291908290030181600087803b15801561117957600080fd5b505af115801561118d573d6000803e3d6000fd5b505050506040513d60208110156111a357600080fd5b505115156111b057600080fd5b8273ffffffffffffffffffffffffffffffffffffffff166342966c68836040518263ffffffff167c010000000000000000000000000000000000000000000000000000000002815260040180828152602001915050600060405180830381600087803b15801561121f57600080fd5b505af1158015611233573d6000803e3d6000fd5b505050506112413083614ccf565b60408051858152905133917f3a91515f120c05831525e72379609e84b30a70ab21104f3222d0e91411aadc52919081900360200190a25050505050565b600154604080517f166e55d90000000000000000000000000000000000000000000000000000000081526004810185905273ffffffffffffffffffffffffffffffffffffffff84811660248301529151600093929092169163166e55d99160448082019260209290919082900301818787803b1580156112fd57600080fd5b505af1158015611311573d6000803e3d6000fd5b505050506040513d602081101561132757600080fd5b50519392505050565b6000600460009054906101000a900473ffffffffffffffffffffffffffffffffffffffff1673ffffffffffffffffffffffffffffffffffffffff166318160ddd6040518163ffffffff167c0100000000000000000000000000000000000000000000000000000000028152600401602060405180830381600087803b1580156113b857600080fd5b505af11580156113cc573d6000803e3d6000fd5b505050506040513d60208110156113e257600080fd5b5051905090565b60005473ffffffffffffffffffffffffffffffffffffffff16331461140d57600080fd5b60025474010000000000000000000000000000000000000000900460ff161561143557600080fd5b600254604080517f0418945a00000000000000000000000000000000000000000000000000000000815273ffffffffffffffffffffffffffffffffffffffff848116600483015291519190921691630418945a91602480830192600092919082900301818387803b1580156114a957600080fd5b505af11580156114bd573d6000803e3d6000fd5b5050505050565b600154604080517f5a6c72d0000000000000000000000000000000000000000000000000000000008152905160009273ffffffffffffffffffffffffffffffffffffffff1691635a6c72d091600480830192602092919082900301818787803b1580156113b857600080fd5b60025460009074010000000000000000000000000000000000000000900460ff161561155b57600080fd5b600354604080517f7ccce85100000000000000000000000000000000000000000000000000000000815273ffffffffffffffffffffffffffffffffffffffff808716600483015291518793879360009384939190921691637ccce85191602480830192602092919082900301818787803b1580156115d857600080fd5b505af11580156115ec573d6000803e3d6000fd5b505050506040513d602081101561160257600080fd5b50511561167057604080517f08c379a000000000000000000000000000000000000000000000000000000000815260206004820152601f60248201527f526563697069656e742063616e6e6f7420626520626c61636b6c697374656400604482015290519081900360640190fd5b600354604080517f7ccce85100000000000000000000000000000000000000000000000000000000815273ffffffffffffffffffffffffffffffffffffffff878116600483015291519190921691637ccce8519160248083019260209291908290030181600087803b1580156116e557600080fd5b505af11580156116f9573d6000803e3d6000fd5b505050506040513d602081101561170f57600080fd5b5051600354604080517f91c4529f000000000000000000000000000000000000000000000000000000008152336004820152905192945073ffffffffffffffffffffffffffffffffffffffff909116916391c4529f916024808201926020929091908290030181600087803b15801561178757600080fd5b505af115801561179b573d6000803e3d6000fd5b505050506040513d60208110156117b157600080fd5b505190508115806117bf5750805b151561187857604080517f08c379a000000000000000000000000000000000000000000000000000000000815260206004820152604c60248201527f4f726967696e2063616e6e6f7420626520626c61636b6c69737465642069662060448201527f7370656e646572206973206e6f7420616e20617070726f76656420626c61636b60648201527f6c697374207370656e6465720000000000000000000000000000000000000000608482015290519081900360a40190fd5b6118828833614715565b8611156118f057604080517f08c379a000000000000000000000000000000000000000000000000000000000815260206004820181905260248201527f6e6f7420656e6f75676820616c6c6f77616e636520746f207472616e73666572604482015290519081900360640190fd5b73ffffffffffffffffffffffffffffffffffffffff8716151561197457604080517f08c379a000000000000000000000000000000000000000000000000000000000815260206004820152601860248201527f746f20616464726573732063616e6e6f74206265203078300000000000000000604482015290519081900360640190fd5b61197d88612a15565b8611156119eb57604080517f08c379a000000000000000000000000000000000000000000000000000000000815260206004820152601e60248201527f6e6f7420656e6f7567682062616c616e636520746f207472616e736665720000604482015290519081900360640190fd5b600554604080517f97d88cd200000000000000000000000000000000000000000000000000000000815273ffffffffffffffffffffffffffffffffffffffff8b81166004830152336024830152604482018a9052915191909216916397d88cd291606480830192600092919082900301818387803b158015611a6c57600080fd5b505af1158015611a80573d6000803e3d6000fd5b505060048054604080517f21e5383a00000000000000000000000000000000000000000000000000000000815273ffffffffffffffffffffffffffffffffffffffff8d811694820194909452602481018c905290519290911693506321e5383a925060448082019260009290919082900301818387803b158015611b0357600080fd5b505af1158015611b17573d6000803e3d6000fd5b505060048054604080517fcf8eeb7e00000000000000000000000000000000000000000000000000000000815273ffffffffffffffffffffffffffffffffffffffff8e811694820194909452602481018c9052905192909116935063cf8eeb7e925060448082019260009290919082900301818387803b158015611b9a57600080fd5b505af1158015611bae573d6000803e3d6000fd5b505060408051898152905173ffffffffffffffffffffffffffffffffffffffff808c1694508c1692507fddf252ad1be2c89b69c2b068fc378daa952ba7f163c4a11628f55a4df523b3ef9181900360200190a3506001979650505050505050565b600254604080517f3af32abf00000000000000000000000000000000000000000000000000000000815273ffffffffffffffffffffffffffffffffffffffff848116600483015291516000939290921691633af32abf9160248082019260209290919082900301818787803b158015611c8757600080fd5b505af1158015611c9b573d6000803e3d6000fd5b505050506040513d6020811015611cb157600080fd5b505190505b919050565b60055473ffffffffffffffffffffffffffffffffffffffff1681565b60005473ffffffffffffffffffffffffffffffffffffffff163314611cfb57600080fd5b60025474010000000000000000000000000000000000000000900460ff161515611d2457600080fd5b600280547fffffffffffffffffffffff00ffffffffffffffffffffffffffffffffffffffff1690556040517f7805862f689e2f13df9f062ff482ad3ad112aca9e0847911ed832e158c525b3390600090a1565b600254604080517f3af32abf000000000000000000000000000000000000000000000000000000008152336004820152905173ffffffffffffffffffffffffffffffffffffffff90921691633af32abf916024808201926020929091908290030181600087803b158015611dea57600080fd5b505af1158015611dfe573d6000803e3d6000fd5b505050506040513d6020811015611e1457600080fd5b50511515611ea957604080517f08c379a000000000000000000000000000000000000000000000000000000000815260206004820152602b60248201527f53656e646572206d75737420626520612077686974656c697374656420746f6b60448201527f656e20636f6e7472616374000000000000000000000000000000000000000000606482015290519081900360840190fd5b60025474010000000000000000000000000000000000000000900460ff1615611ed157600080fd5b611edb8282614ccf565b5050565b600354604080517f14db6d58000000000000000000000000000000000000000000000000000000008152336004820152600080357fffffffff00000000000000000000000000000000000000000000000000000000166024830152915173ffffffffffffffffffffffffffffffffffffffff909316926314db6d5892604480840193602093929083900390910190829087803b158015611f7e57600080fd5b505af1158015611f92573d6000803e3d6000fd5b505050506040513d6020811015611fa857600080fd5b5051151561203d57604080517f08c379a000000000000000000000000000000000000000000000000000000000815260206004820152603160248201527f5573657220646f6573206e6f742068617665207065726d697373696f6e20746f60448201527f20657865637574652066756e6374696f6e000000000000000000000000000000606482015290519081900360840190fd5b60025474010000000000000000000000000000000000000000900460ff161561206557600080fd5b61206f3382614a9a565b50565b600354604080517f14db6d58000000000000000000000000000000000000000000000000000000008152336004820152600080357fffffffff000000000000000000000000000000000000000000000000000000001660248301529151919273ffffffffffffffffffffffffffffffffffffffff16916314db6d589160448082019260209290919082900301818787803b15801561210f57600080fd5b505af1158015612123573d6000803e3d6000fd5b505050506040513d602081101561213957600080fd5b505115156121ce57604080517f08c379a000000000000000000000000000000000000000000000000000000000815260206004820152603160248201527f5573657220646f6573206e6f742068617665207065726d697373696f6e20746f60448201527f20657865637574652066756e6374696f6e000000000000000000000000000000606482015290519081900360840190fd5b50600190565b60025474010000000000000000000000000000000000000000900460ff1681565b60005473ffffffffffffffffffffffffffffffffffffffff16331461221957600080fd5b61206f81614cd9565b600354604080517f7ccce85100000000000000000000000000000000000000000000000000000000815273ffffffffffffffffffffffffffffffffffffffff8086166004830152915160009386931691637ccce85191602480830192602092919082900301818887803b15801561229857600080fd5b505af11580156122ac573d6000803e3d6000fd5b505050506040513d60208110156122c257600080fd5b50511561233057604080517f08c379a000000000000000000000000000000000000000000000000000000000815260206004820152601c60248201527f55736572206d757374206e6f7420626520626c61636b6c697374656400000000604482015290519081900360640190fd5b600354604080517f7ccce851000000000000000000000000000000000000000000000000000000008152336004820152905173ffffffffffffffffffffffffffffffffffffffff90921691637ccce851916024808201926020929091908290030181600087803b1580156123a357600080fd5b505af11580156123b7573d6000803e3d6000fd5b505050506040513d60208110156123cd57600080fd5b50511561243b57604080517f08c379a000000000000000000000000000000000000000000000000000000000815260206004820152601e60248201527f53656e646572206d757374206e6f7420626520626c61636b6c69737465640000604482015290519081900360640190fd5b60025474010000000000000000000000000000000000000000900460ff161561246357600080fd5b61246e848433614e54565b5060019392505050565b600354604080517f7ccce85100000000000000000000000000000000000000000000000000000000815273ffffffffffffffffffffffffffffffffffffffff8085166004830152915184939290921691637ccce851916024808201926020929091908290030181600087803b1580156124f057600080fd5b505af1158015612504573d6000803e3d6000fd5b505050506040513d602081101561251a57600080fd5b5051151561258957604080517f08c379a000000000000000000000000000000000000000000000000000000000815260206004820152601860248201527f55736572206d75737420626520626c61636b6c69737465640000000000000000604482015290519081900360640190fd5b60025474010000000000000000000000000000000000000000900460ff16156125b157600080fd5b600354604080517f14db6d58000000000000000000000000000000000000000000000000000000008152336004820152600080357fffffffff00000000000000000000000000000000000000000000000000000000166024830152915173ffffffffffffffffffffffffffffffffffffffff909316926314db6d5892604480840193602093929083900390910190829087803b15801561265057600080fd5b505af1158015612664573d6000803e3d6000fd5b505050506040513d602081101561267a57600080fd5b5051151561270f57604080517f08c379a000000000000000000000000000000000000000000000000000000000815260206004820152603160248201527f5573657220646f6573206e6f742068617665207065726d697373696f6e20746f60448201527f20657865637574652066756e6374696f6e000000000000000000000000000000606482015290519081900360840190fd5b60055473ffffffffffffffffffffffffffffffffffffffff1663da46098c833361273882612a15565b604080517c010000000000000000000000000000000000000000000000000000000063ffffffff871602815273ffffffffffffffffffffffffffffffffffffffff948516600482015292909316602483015260448201529051606480830192600092919082900301818387803b1580156127b157600080fd5b505af11580156127c5573d6000803e3d6000fd5b50339250505073ffffffffffffffffffffffffffffffffffffffff83167f3b1ffca3903932aa264fbb5b7b381746e2b7b61c9c5a6024bad48d23f958a6c261280c85612a15565b60408051918252519081900360200190a35050565b60005473ffffffffffffffffffffffffffffffffffffffff16331461284557600080fd5b60025474010000000000000000000000000000000000000000900460ff161561286d57600080fd5b600254604080517f3af32abf00000000000000000000000000000000000000000000000000000000815273ffffffffffffffffffffffffffffffffffffffff848116600483015291519190921691633af32abf9160248083019260209291908290030181600087803b1580156128e257600080fd5b505af11580156128f6573d6000803e3d6000fd5b505050506040513d602081101561290c57600080fd5b505115156129a157604080517f08c379a000000000000000000000000000000000000000000000000000000000815260206004820152603e60248201527f537461626c65636f696e206d7573742062652077686974656c6973746564207060448201527f72696f7220746f2073657474696e6720636f6e76657273696f6e206665650000606482015290519081900360840190fd5b600154604080517f6ad2661100000000000000000000000000000000000000000000000000000000815273ffffffffffffffffffffffffffffffffffffffff848116600483015291519190921691636ad2661191602480830192600092919082900301818387803b1580156114a957600080fd5b60048054604080517f70a0823100000000000000000000000000000000000000000000000000000000815273ffffffffffffffffffffffffffffffffffffffff858116948201949094529051600093909216916370a082319160248082019260209290919082900301818787803b158015611c8757600080fd5b60005473ffffffffffffffffffffffffffffffffffffffff163314612ab357600080fd5b6000805460405173ffffffffffffffffffffffffffffffffffffffff909116917ff8df31144d9c2f0f6b59d69b8b98abd5459d07f2742c4df920b25aae33c6482091a2600080547fffffffffffffffffffffffff0000000000000000000000000000000000000000169055565b6000805473ffffffffffffffffffffffffffffffffffffffff163314612b4557600080fd5b60045473ffffffffffffffffffffffffffffffffffffffff83811691161415612bcf57604080517f08c379a000000000000000000000000000000000000000000000000000000000815260206004820152601b60248201527f4d7573742062652061206e65772062616c616e63652073686565740000000000604482015290519081900360640190fd5b612bd88261512e565b1515612c6b57604080517f08c379a000000000000000000000000000000000000000000000000000000000815260206004820152603860248201527f43616e6e6f7420736574206120726567756c61746f722073746f72616765207460448201527f6f2061206e6f6e2d636f6e747261637420616464726573730000000000000000606482015290519081900360840190fd5b506004805473ffffffffffffffffffffffffffffffffffffffff8381167fffffffffffffffffffffffff0000000000000000000000000000000000000000831681179093556040805191909216808252602082019390935281517f8c3d37b41e983f0d5b0b91de3f9d5055c73a17beebc7adfce9b677ab7c07ad2d929181900390910190a15050565b60045473ffffffffffffffffffffffffffffffffffffffff1681565b60005473ffffffffffffffffffffffffffffffffffffffff163314612d3457600080fd5b60025474010000000000000000000000000000000000000000900460ff1615612d5c57600080fd5b600280547fffffffffffffffffffffff00ffffffffffffffffffffffffffffffffffffffff16740100000000000000000000000000000000000000001790556040517f6985a02210a168e66602d3235cb6db0e70f92b3ba4d376a33c0f3d9434bff62590600090a1565b600154604080517fcfc9733c00000000000000000000000000000000000000000000000000000000815273ffffffffffffffffffffffffffffffffffffffff84811660048301529151600093929092169163cfc9733c9160248082019260209290919082900301818787803b158015612e3e57600080fd5b505af1158015612e52573d6000803e3d6000fd5b505050506040513d6020811015612e6857600080fd5b505115612f1757600154604080517ffaaebd2100000000000000000000000000000000000000000000000000000000815273ffffffffffffffffffffffffffffffffffffffff85811660048301529151919092169163faaebd219160248083019260209291908290030181600087803b158015612ee457600080fd5b505af1158015612ef8573d6000803e3d6000fd5b505050506040513d6020811015612f0e57600080fd5b50519050611cb6565b600160009054906101000a900473ffffffffffffffffffffffffffffffffffffffff1673ffffffffffffffffffffffffffffffffffffffff16635a6c72d06040518163ffffffff167c0100000000000000000000000000000000000000000000000000000000028152600401602060405180830381600087803b158015611c8757600080fd5b6002547501000000000000000000000000000000000000000000900460ff1681565b60005473ffffffffffffffffffffffffffffffffffffffff1681565b60005473ffffffffffffffffffffffffffffffffffffffff163314612fff57600080fd5b600280547fffffffffffffffffffff00ffffffffffffffffffffffffffffffffffffffffff1675010000000000000000000000000000000000000000001790556040517f19aad37188a1d3921e29eb3c66acf43d81975e107cb650d58cca878627955fd690600090a1565b600354604080517f7ccce85100000000000000000000000000000000000000000000000000000000815273ffffffffffffffffffffffffffffffffffffffff8086166004830152915160009386931691637ccce85191602480830192602092919082900301818887803b1580156130e057600080fd5b505af11580156130f4573d6000803e3d6000fd5b505050506040513d602081101561310a57600080fd5b50511561317857604080517f08c379a000000000000000000000000000000000000000000000000000000000815260206004820152601f60248201527f526563697069656e742063616e6e6f7420626520626c61636b6c697374656400604482015290519081900360640190fd5b600354604080517f7ccce851000000000000000000000000000000000000000000000000000000008152336004820152905173ffffffffffffffffffffffffffffffffffffffff90921691637ccce851916024808201926020929091908290030181600087803b1580156131eb57600080fd5b505af11580156131ff573d6000803e3d6000fd5b505050506040513d602081101561321557600080fd5b50511561328357604080517f08c379a000000000000000000000000000000000000000000000000000000000815260206004820152601c60248201527f53656e6465722063616e6e6f7420626520626c61636b6c697374656400000000604482015290519081900360640190fd5b60025474010000000000000000000000000000000000000000900460ff16156132ab57600080fd5b73ffffffffffffffffffffffffffffffffffffffff8416151561332f57604080517f08c379a000000000000000000000000000000000000000000000000000000000815260206004820152601860248201527f746f20616464726573732063616e6e6f74206265203078300000000000000000604482015290519081900360640190fd5b61333833612a15565b8311156133a657604080517f08c379a000000000000000000000000000000000000000000000000000000000815260206004820152601e60248201527f6e6f7420656e6f7567682062616c616e636520746f207472616e736665720000604482015290519081900360640190fd5b60048054604080517fcf8eeb7e0000000000000000000000000000000000000000000000000000000081523393810193909352602483018690525173ffffffffffffffffffffffffffffffffffffffff9091169163cf8eeb7e91604480830192600092919082900301818387803b15801561342057600080fd5b505af1158015613434573d6000803e3d6000fd5b505060048054604080517f21e5383a00000000000000000000000000000000000000000000000000000000815273ffffffffffffffffffffffffffffffffffffffff8a8116948201949094526024810189905290519290911693506321e5383a925060448082019260009290919082900301818387803b1580156134b757600080fd5b505af11580156134cb573d6000803e3d6000fd5b505060408051868152905173ffffffffffffffffffffffffffffffffffffffff881693503392507fddf252ad1be2c89b69c2b068fc378daa952ba7f163c4a11628f55a4df523b3ef9181900360200190a35060019392505050565b60005473ffffffffffffffffffffffffffffffffffffffff16331461354a57600080fd5b60025474010000000000000000000000000000000000000000900460ff161561357257600080fd5b600254604080517f3b947d2b00000000000000000000000000000000000000000000000000000000815273ffffffffffffffffffffffffffffffffffffffff848116600483015291519190921691633b947d2b91602480830192600092919082900301818387803b1580156114a957600080fd5b600154604080517ffaaebd2100000000000000000000000000000000000000000000000000000000815273ffffffffffffffffffffffffffffffffffffffff84811660048301529151600093929092169163faaebd219160248082019260209290919082900301818787803b158015611c8757600080fd5b600354604080517f14db6d58000000000000000000000000000000000000000000000000000000008152336004820152600080357fffffffff00000000000000000000000000000000000000000000000000000000166024830152915191928392839273ffffffffffffffffffffffffffffffffffffffff909216916314db6d5891604480830192602092919082900301818787803b15801561370057600080fd5b505af1158015613714573d6000803e3d6000fd5b505050506040513d602081101561372a57600080fd5b505115156137bf57604080517f08c379a000000000000000000000000000000000000000000000000000000000815260206004820152603160248201527f5573657220646f6573206e6f742068617665207065726d697373696f6e20746f60448201527f20657865637574652066756e6374696f6e000000000000000000000000000000606482015290519081900360840190fd5b60025474010000000000000000000000000000000000000000900460ff16156137e757600080fd5b600254604080517f3af32abf00000000000000000000000000000000000000000000000000000000815273ffffffffffffffffffffffffffffffffffffffff888116600483015291519190921691633af32abf9160248083019260209291908290030181600087803b15801561385c57600080fd5b505af1158015613870573d6000803e3d6000fd5b505050506040513d602081101561388657600080fd5b5051151561391b57604080517f08c379a000000000000000000000000000000000000000000000000000000000815260206004820152603e60248201527f537461626c65636f696e206d7573742062652077686974656c6973746564207060448201527f72696f7220746f2073657474696e6720636f6e76657273696f6e206665650000606482015290519081900360840190fd5b604080517f70a082310000000000000000000000000000000000000000000000000000000081523060048201529051869450859173ffffffffffffffffffffffffffffffffffffffff8616916370a08231916024808201926020929091908290030181600087803b15801561398f57600080fd5b505af11580156139a3573d6000803e3d6000fd5b505050506040513d60208110156139b957600080fd5b50511015613a7457604080517f08c379a000000000000000000000000000000000000000000000000000000000815260206004820152604360248201527f436172626f6e20657363726f77206163636f756e7420696e2057543020646f6560448201527f736e2774206861766520656e6f75676820746f6b656e7320666f72206275726e60648201527f696e670000000000000000000000000000000000000000000000000000000000608482015290519081900360a40190fd5b60015473ffffffffffffffffffffffffffffffffffffffff16632ff284c285613a9c88612dc6565b6040518363ffffffff167c01000000000000000000000000000000000000000000000000000000000281526004018083815260200182815260200192505050602060405180830381600087803b158015613af557600080fd5b505af1158015613b09573d6000803e3d6000fd5b505050506040513d6020811015613b1f57600080fd5b50519150613b33848363ffffffff614a8816565b9050613b3f3385614a9a565b8273ffffffffffffffffffffffffffffffffffffffff166342966c68856040518263ffffffff167c010000000000000000000000000000000000000000000000000000000002815260040180828152602001915050600060405180830381600087803b158015613bae57600080fd5b505af1158015613bc2573d6000803e3d6000fd5b50505050613bd03083614ccf565b6040805182815260208101849052815133927f8a1387ce462b7423a12c936187028c782512f204b670218701c0d35e92bc0527928290030190a25050505050565b6000805473ffffffffffffffffffffffffffffffffffffffff163314613c3657600080fd5b60055473ffffffffffffffffffffffffffffffffffffffff83811691161415613cc057604080517f08c379a000000000000000000000000000000000000000000000000000000000815260206004820152601b60248201527f4d7573742062652061206e65772073746f726167652073686565740000000000604482015290519081900360640190fd5b613cc98261512e565b1515613d5c57604080517f08c379a000000000000000000000000000000000000000000000000000000000815260206004820152603860248201527f43616e6e6f7420736574206120726567756c61746f722073746f72616765207460448201527f6f2061206e6f6e2d636f6e747261637420616464726573730000000000000000606482015290519081900360840190fd5b506005805473ffffffffffffffffffffffffffffffffffffffff8381167fffffffffffffffffffffffff0000000000000000000000000000000000000000831681179093556040805191909216808252602082019390935281517fec358425c40511d576e1c52be7593403bceacda627234c873b52589fef7b2359929181900390910190a15050565b600354604080517f7ccce85100000000000000000000000000000000000000000000000000000000815273ffffffffffffffffffffffffffffffffffffffff8086166004830152915185939290921691637ccce851916024808201926020929091908290030181600087803b158015613e5d57600080fd5b505af1158015613e71573d6000803e3d6000fd5b505050506040513d6020811015613e8757600080fd5b50511515613ef657604080517f08c379a000000000000000000000000000000000000000000000000000000000815260206004820152601860248201527f55736572206d75737420626520626c61636b6c69737465640000000000000000604482015290519081900360640190fd5b60025474010000000000000000000000000000000000000000900460ff1615613f1e57600080fd5b600354604080517f14db6d58000000000000000000000000000000000000000000000000000000008152336004820152600080357fffffffff00000000000000000000000000000000000000000000000000000000166024830152915173ffffffffffffffffffffffffffffffffffffffff909316926314db6d5892604480840193602093929083900390910190829087803b158015613fbd57600080fd5b505af1158015613fd1573d6000803e3d6000fd5b505050506040513d6020811015613fe757600080fd5b5051151561407c57604080517f08c379a000000000000000000000000000000000000000000000000000000000815260206004820152603160248201527f5573657220646f6573206e6f742068617665207065726d697373696f6e20746f60448201527f20657865637574652066756e6374696f6e000000000000000000000000000000606482015290519081900360840190fd5b60048054604080517fcf8eeb7e00000000000000000000000000000000000000000000000000000000815273ffffffffffffffffffffffffffffffffffffffff87811694820194909452602481018690529051929091169163cf8eeb7e9160448082019260009290919082900301818387803b1580156140fb57600080fd5b505af115801561410f573d6000803e3d6000fd5b505060048054604080517f82838c760000000000000000000000000000000000000000000000000000000081529283018790525173ffffffffffffffffffffffffffffffffffffffff90911693506382838c769250602480830192600092919082900301818387803b15801561418457600080fd5b505af1158015614198573d6000803e3d6000fd5b505060408051858152905173ffffffffffffffffffffffffffffffffffffffff871693507fb81d1dffb753076892e04e6e1234d137b031f70d859c299876b0486e966424fd92509081900360200190a2505050565b60005473ffffffffffffffffffffffffffffffffffffffff16331461421157600080fd5b60025474010000000000000000000000000000000000000000900460ff161561423957600080fd5b600154604080517fc93a6c8400000000000000000000000000000000000000000000000000000000815260048101849052905173ffffffffffffffffffffffffffffffffffffffff9092169163c93a6c849160248082019260009290919082900301818387803b1580156114a957600080fd5b6000805473ffffffffffffffffffffffffffffffffffffffff1633146142d157600080fd5b60035473ffffffffffffffffffffffffffffffffffffffff8381169116141561435b57604080517f08c379a000000000000000000000000000000000000000000000000000000000815260206004820152601760248201527f4d7573742062652061206e657720726567756c61746f72000000000000000000604482015290519081900360640190fd5b6143648261512e565b15156143f757604080517f08c379a000000000000000000000000000000000000000000000000000000000815260206004820152603860248201527f43616e6e6f7420736574206120726567756c61746f722073746f72616765207460448201527f6f2061206e6f6e2d636f6e747261637420616464726573730000000000000000606482015290519081900360840190fd5b506003805473ffffffffffffffffffffffffffffffffffffffff8381167fffffffffffffffffffffffff0000000000000000000000000000000000000000831681179093556040805191909216808252602082019390935281517f4a59b4b607c6055b37a4716d7813d7d4d2c288e4d0dd8298e365b260a1f262e8929181900390910190a15050565b60005473ffffffffffffffffffffffffffffffffffffffff1633146144a457600080fd5b61206f81615136565b600354604080517f7ccce85100000000000000000000000000000000000000000000000000000000815273ffffffffffffffffffffffffffffffffffffffff8086166004830152915160009386931691637ccce85191602480830192602092919082900301818887803b15801561452357600080fd5b505af1158015614537573d6000803e3d6000fd5b505050506040513d602081101561454d57600080fd5b5051156145bb57604080517f08c379a000000000000000000000000000000000000000000000000000000000815260206004820152601c60248201527f55736572206d757374206e6f7420626520626c61636b6c697374656400000000604482015290519081900360640190fd5b600354604080517f7ccce851000000000000000000000000000000000000000000000000000000008152336004820152905173ffffffffffffffffffffffffffffffffffffffff90921691637ccce851916024808201926020929091908290030181600087803b15801561462e57600080fd5b505af1158015614642573d6000803e3d6000fd5b505050506040513d602081101561465857600080fd5b5051156146c657604080517f08c379a000000000000000000000000000000000000000000000000000000000815260206004820152601e60248201527f53656e646572206d757374206e6f7420626520626c61636b6c69737465640000604482015290519081900360640190fd5b60025474010000000000000000000000000000000000000000900460ff16156146ee57600080fd5b61246e8484336152d7565b60015473ffffffffffffffffffffffffffffffffffffffff1681565b600554604080517f1a46ec8200000000000000000000000000000000000000000000000000000000815273ffffffffffffffffffffffffffffffffffffffff8581166004830152848116602483015291516000939290921691631a46ec829160448082019260209290919082900301818787803b1580156112fd57600080fd5b60035473ffffffffffffffffffffffffffffffffffffffff1681565b60025473ffffffffffffffffffffffffffffffffffffffff1681565b60005473ffffffffffffffffffffffffffffffffffffffff1633146147f157600080fd5b60025474010000000000000000000000000000000000000000900460ff161561481957600080fd5b600254604080517f3af32abf00000000000000000000000000000000000000000000000000000000815273ffffffffffffffffffffffffffffffffffffffff858116600483015291519190921691633af32abf9160248083019260209291908290030181600087803b15801561488e57600080fd5b505af11580156148a2573d6000803e3d6000fd5b505050506040513d60208110156148b857600080fd5b5051151561494d57604080517f08c379a000000000000000000000000000000000000000000000000000000000815260206004820152603e60248201527f537461626c65636f696e206d7573742062652077686974656c6973746564207060448201527f72696f7220746f2073657474696e6720636f6e76657273696f6e206665650000606482015290519081900360840190fd5b600154604080517fe55156b500000000000000000000000000000000000000000000000000000000815273ffffffffffffffffffffffffffffffffffffffff8581166004830152602482018590529151919092169163e55156b591604480830192600092919082900301818387803b1580156149c857600080fd5b505af11580156149dc573d6000803e3d6000fd5b505050505050565b60005473ffffffffffffffffffffffffffffffffffffffff163314614a0857600080fd5b61206f81615458565b60005473ffffffffffffffffffffffffffffffffffffffff163314614a3557600080fd5b600280547fffffffffffffffffffff00ffffffffffffffffffffffffffffffffffffffffff1690556040517f0f2e5b6c72c6a4491efd919a9f9a409f324ef0708c11ee57d410c2cb06c0992b90600090a1565b600082821115614a9457fe5b50900390565b614aa382612a15565b811115614b1157604080517f08c379a000000000000000000000000000000000000000000000000000000000815260206004820152601a60248201527f6e6f7420656e6f7567682062616c616e636520746f206275726e000000000000604482015290519081900360640190fd5b60048054604080517fcf8eeb7e00000000000000000000000000000000000000000000000000000000815273ffffffffffffffffffffffffffffffffffffffff86811694820194909452602481018590529051929091169163cf8eeb7e9160448082019260009290919082900301818387803b158015614b9057600080fd5b505af1158015614ba4573d6000803e3d6000fd5b505060048054604080517f82838c760000000000000000000000000000000000000000000000000000000081529283018690525173ffffffffffffffffffffffffffffffffffffffff90911693506382838c769250602480830192600092919082900301818387803b158015614c1957600080fd5b505af1158015614c2d573d6000803e3d6000fd5b505060408051848152905173ffffffffffffffffffffffffffffffffffffffff861693507fcc16f5dbb4873280815c1ee09dbd06736cffcc184412cf7a71a0fdb75d397ca592509081900360200190a260408051828152905160009173ffffffffffffffffffffffffffffffffffffffff8516917fddf252ad1be2c89b69c2b068fc378daa952ba7f163c4a11628f55a4df523b3ef9181900360200190a35050565b611edb8282615507565b60015460009073ffffffffffffffffffffffffffffffffffffffff83811691161415614d6657604080517f08c379a000000000000000000000000000000000000000000000000000000000815260206004820152601760248201527f4d7573742062652061206e657720666565207368656574000000000000000000604482015290519081900360640190fd5b614d6f8261512e565b1515614ddc57604080517f08c379a000000000000000000000000000000000000000000000000000000000815260206004820152601a60248201527f4d75737420626520616e2061637475616c20636f6e7472616374000000000000604482015290519081900360640190fd5b506001805473ffffffffffffffffffffffffffffffffffffffff8381167fffffffffffffffffffffffff0000000000000000000000000000000000000000831681179093556040519116919082907ffa50850a9a205a6eab44ae568df104b00a5fd26ba0ded7dd81d4879c6a27d29b90600090a35050565b600554604080517f1a46ec8200000000000000000000000000000000000000000000000000000000815273ffffffffffffffffffffffffffffffffffffffff8481166004830152868116602483015291516000939290921691631a46ec829160448082019260209290919082900301818787803b158015614ed457600080fd5b505af1158015614ee8573d6000803e3d6000fd5b505050506040513d6020811015614efe57600080fd5b5051905080831115614fa857600554604080517fda46098c00000000000000000000000000000000000000000000000000000000815273ffffffffffffffffffffffffffffffffffffffff85811660048301528781166024830152600060448301819052925193169263da46098c9260648084019391929182900301818387803b158015614f8b57600080fd5b505af1158015614f9f573d6000803e3d6000fd5b50505050615044565b600554604080517f97d88cd200000000000000000000000000000000000000000000000000000000815273ffffffffffffffffffffffffffffffffffffffff8581166004830152878116602483015260448201879052915191909216916397d88cd291606480830192600092919082900301818387803b15801561502b57600080fd5b505af115801561503f573d6000803e3d6000fd5b505050505b600554604080517f1a46ec8200000000000000000000000000000000000000000000000000000000815273ffffffffffffffffffffffffffffffffffffffff85811660048301819052888216602484018190529351939490937f8c5be1e5ebec7d5bd14f71427d1e84f3dd0314c0f7b2291e5b200ac8c7c3b925939290911691631a46ec829160448083019260209291908290030181600087803b1580156150eb57600080fd5b505af11580156150ff573d6000803e3d6000fd5b505050506040513d602081101561511557600080fd5b505160408051918252519081900360200190a350505050565b6000903b1190565b60025460009073ffffffffffffffffffffffffffffffffffffffff838116911614156151e957604080517f08c379a000000000000000000000000000000000000000000000000000000000815260206004820152602260248201527f4d7573742062652061206e657720737461626c65636f696e2077686974656c6960448201527f7374000000000000000000000000000000000000000000000000000000000000606482015290519081900360840190fd5b6151f28261512e565b151561525f57604080517f08c379a000000000000000000000000000000000000000000000000000000000815260206004820152601a60248201527f4d75737420626520616e2061637475616c20636f6e7472616374000000000000604482015290519081900360640190fd5b506002805473ffffffffffffffffffffffffffffffffffffffff8381167fffffffffffffffffffffffff0000000000000000000000000000000000000000831681179093556040519116919082907f9d4cc8ae350dd03b669fc5b6d399ea6b56438abd19c07b3e71abd09552bafe3490600090a35050565b600554604080517f5fd72d1600000000000000000000000000000000000000000000000000000000815273ffffffffffffffffffffffffffffffffffffffff848116600483015286811660248301526044820186905291519190921691635fd72d1691606480830192600092919082900301818387803b15801561535a57600080fd5b505af115801561536e573d6000803e3d6000fd5b5050600554604080517f1a46ec8200000000000000000000000000000000000000000000000000000000815273ffffffffffffffffffffffffffffffffffffffff86811660048301819052818a1660248401819052935193965094507f8c5be1e5ebec7d5bd14f71427d1e84f3dd0314c0f7b2291e5b200ac8c7c3b925931691631a46ec82916044808201926020929091908290030181600087803b15801561541657600080fd5b505af115801561542a573d6000803e3d6000fd5b505050506040513d602081101561544057600080fd5b505160408051918252519081900360200190a3505050565b73ffffffffffffffffffffffffffffffffffffffff8116151561547a57600080fd5b6000805460405173ffffffffffffffffffffffffffffffffffffffff808516939216917f8be0079c531659141344cd1fd0a4f28419497f9722a3daafe3b4186f6b6457e091a3600080547fffffffffffffffffffffffff00000000000000000000000000000000000000001673ffffffffffffffffffffffffffffffffffffffff92909216919091179055565b600354604080517fd88c271e00000000000000000000000000000000000000000000000000000000815273ffffffffffffffffffffffffffffffffffffffff808616600483015291518593929092169163d88c271e916024808201926020929091908290030181600087803b15801561557f57600080fd5b505af1158015615593573d6000803e3d6000fd5b505050506040513d60208110156155a957600080fd5b5051151561561857604080517f08c379a000000000000000000000000000000000000000000000000000000000815260206004820152601860248201527f55736572206d7573742062652077686974656c69737465640000000000000000604482015290519081900360640190fd5b60048054604080517fe468688e0000000000000000000000000000000000000000000000000000000081529283018590525173ffffffffffffffffffffffffffffffffffffffff9091169163e468688e91602480830192600092919082900301818387803b15801561568957600080fd5b505af115801561569d573d6000803e3d6000fd5b505060048054604080517f21e5383a00000000000000000000000000000000000000000000000000000000815273ffffffffffffffffffffffffffffffffffffffff898116948201949094526024810188905290519290911693506321e5383a925060448082019260009290919082900301818387803b15801561572057600080fd5b505af1158015615734573d6000803e3d6000fd5b505060408051858152905173ffffffffffffffffffffffffffffffffffffffff871693507f0f6798a560793a54c3bcfe86a93cde1e73087d944c0ea20544137d412139688592509081900360200190a260408051838152905173ffffffffffffffffffffffffffffffffffffffff8516916000917fddf252ad1be2c89b69c2b068fc378daa952ba7f163c4a11628f55a4df523b3ef9181900360200190a35050505600a165627a7a7230582006c2980491c60ded4b27b21b5adfdf6eface68b47c46999b7076fa98a242478d0029",
  "source": "pragma solidity ^0.4.24;\r\nimport \"./dataStorage/MutableCarbonDollarStorage.sol\";\r\nimport \"../permissionedToken/PermissionedToken.sol\";\r\nimport \"../whitelistedToken/WhitelistedToken.sol\";\r\n\r\n/**\r\n* @title CarbonDollar\r\n* @notice The main functionality for the CarbonUSD metatoken. (CarbonUSD is just a proxy\r\n* that implements this contract's functionality.) This is a permissioned token, so users have to be \r\n* whitelisted before they can do any mint/burn/convert operation. Every CarbonDollar token is backed by one\r\n* whitelisted stablecoin credited to the balance of this contract address.\r\n*/\r\ncontract CarbonDollar is MutableCarbonDollarStorage, PermissionedToken {\r\n    // Events\r\n\r\n    event ConvertedToWT(address indexed user, uint256 amount);\r\n    event BurnedCUSD(address indexed user, uint256 feedAmount, uint256 chargedFee);\r\n    /**\r\n        Modifiers\r\n    */\r\n    modifier requiresWhitelistedToken() {\r\n        require(stablecoinWhitelist.isWhitelisted(msg.sender), \"Sender must be a whitelisted token contract\");\r\n        _;\r\n    }\r\n\r\n    /** CONSTRUCTOR\r\n    * @dev Passes along arguments to base class.\r\n    */\r\n    constructor(address r, address b, address a, address f, address s) \r\n    PermissionedToken(r, b, a) \r\n    MutableCarbonDollarStorage(f, s) public {}\r\n\r\n    /**\r\n     * @notice Add new stablecoin to whitelist.\r\n     * @param _stablecoin Address of stablecoin contract.\r\n     */\r\n    function listToken(address _stablecoin) public onlyOwner whenNotPaused {\r\n        stablecoinWhitelist.addStablecoin(_stablecoin); \r\n    }\r\n\r\n    /**\r\n     * @notice Remove existing stablecoin from whitelist.\r\n     * @param _stablecoin Address of stablecoin contract.\r\n     */\r\n    function unlistToken(address _stablecoin) public onlyOwner whenNotPaused {\r\n        stablecoinWhitelist.removeStablecoin(_stablecoin);\r\n    }\r\n\r\n    /**\r\n     * @notice Indicate if stablecoin is whitelisted or not.\r\n     * @param _stablecoin Address of stablecoin contract.\r\n     * @return Whether or not the stablecoin is on the whitelist.\r\n     */\r\n    function isWhitelisted(address _stablecoin) public view returns (bool) {\r\n        return stablecoinWhitelist.isWhitelisted(_stablecoin);\r\n    }\r\n\r\n    /**\r\n     * @notice Change fees associated with going from CarbonUSD to a particular stablecoin.\r\n     * @param stablecoin Address of the stablecoin contract.\r\n     * @param _newFee The new fee rate to set, in tenths of a percent. \r\n     */\r\n    function setFee(address stablecoin, uint256 _newFee) public onlyOwner whenNotPaused {\r\n        require(stablecoinWhitelist.isWhitelisted(stablecoin), \"Stablecoin must be whitelisted prior to setting conversion fee\");\r\n        stablecoinFees.setFee(stablecoin, _newFee);\r\n    }\r\n\r\n    /**\r\n     * @notice Remove fees associated with going from CarbonUSD to a particular stablecoin.\r\n     * The default fee still may apply.\r\n     * @param stablecoin Address of the stablecoin contract.\r\n     */\r\n    function removeFee(address stablecoin) public onlyOwner whenNotPaused {\r\n        require(stablecoinWhitelist.isWhitelisted(stablecoin), \"Stablecoin must be whitelisted prior to setting conversion fee\");\r\n        stablecoinFees.removeFee(stablecoin);\r\n    }\r\n\r\n    /**\r\n     * @notice Change the default fee associated with going from CarbonUSD to a WhitelistedToken.\r\n     * This fee amount is used if the fee for a WhitelistedToken is not specified.\r\n     * @param _newFee The new fee rate to set, in tenths of a percent.\r\n     */\r\n    function setDefaultFee(uint256 _newFee) public onlyOwner whenNotPaused {\r\n        stablecoinFees.setDefaultFee(_newFee);\r\n    }\r\n\r\n    /**\r\n     * @notice Get the fee associated with going from CarbonUSD to a specific WhitelistedToken.\r\n     * @param stablecoin The stablecoin whose fee is being checked.\r\n     * @return The fee associated with the stablecoin.\r\n     */\r\n    function getFee(address stablecoin) public view returns (uint256) {\r\n        return stablecoinFees.fees(stablecoin);\r\n    }\r\n\r\n    /**\r\n     * @notice Get the default fee associated with going from CarbonUSD to a specific WhitelistedToken.\r\n     * @return The default fee for stablecoin trades.\r\n     */\r\n    function getDefaultFee() public view returns (uint256) {\r\n        return stablecoinFees.defaultFee();\r\n    }\r\n\r\n    /**\r\n     * @notice Mints CUSD on behalf of a user. Note the use of the \"requiresWhitelistedToken\"\r\n     * modifier; this means that minting authority does not belong to any personal account; \r\n     * only whitelisted token contracts can call this function. The intended functionality is that the only\r\n     * way to mint CUSD is for the user to actually burn a whitelisted token to convert into CUSD\r\n     * @param _to User to send CUSD to\r\n     * @param _amount Amount of CarbonUSD to burn.\r\n     */\r\n    function mint(address _to, uint256 _amount) public requiresWhitelistedToken whenNotPaused {\r\n        _mint(_to, _amount);\r\n    }\r\n\r\n    function _mint(address _to, uint256 _amount) internal {\r\n        super._mint(_to, _amount);\r\n    }\r\n\r\n    /**\r\n     * @notice user can convert CarbonUSD umbrella token into a whitelisted stablecoin. \r\n     * @param stablecoin represents the type of coin the users wishes to receive for burning carbonUSD\r\n     * @param _amount Amount of CarbonUSD to convert.\r\n     * we credit the user's account at the sender address with the _amount minus the percentage fee we want to charge.\r\n     */\r\n    function convertCarbonDollar(address stablecoin, uint256 _amount) public requiresPermission whenNotPaused  {\r\n        require(stablecoinWhitelist.isWhitelisted(stablecoin), \"Stablecoin must be whitelisted prior to setting conversion fee\");\r\n        WhitelistedToken whitelisted = WhitelistedToken(stablecoin);\r\n        require(whitelisted.balanceOf(address(this)) >= _amount, \"Carbon escrow account in WT0 doesn't have enough tokens for burning\");\r\n \r\n        // Send back WT0 to calling user, but with a fee reduction.\r\n        // Transfer this fee into the whitelisted token's CarbonDollar account (this contract's address)\r\n        uint256 chargedFee = stablecoinFees.computeFee(_amount, computeFeeRate(stablecoin));\r\n        uint256 feedAmount = _amount.sub(chargedFee);\r\n        _burn(msg.sender, _amount);\r\n        require(whitelisted.transfer(msg.sender, feedAmount));\r\n        whitelisted.burn(chargedFee);\r\n        _mint(address(this), chargedFee);\r\n        emit ConvertedToWT(msg.sender, _amount);\r\n    }\r\n\r\n     /**\r\n     * @notice burns CarbonDollar and an equal amount of whitelisted stablecoin from the CarbonDollar address\r\n     * @param stablecoin Represents the stablecoin whose fee will be charged.\r\n     * @param _amount Amount of CarbonUSD to burn.\r\n     */\r\n    function burnCarbonDollar(address stablecoin, uint256 _amount) public requiresPermission whenNotPaused {\r\n        require(stablecoinWhitelist.isWhitelisted(stablecoin), \"Stablecoin must be whitelisted prior to setting conversion fee\");\r\n        WhitelistedToken whitelisted = WhitelistedToken(stablecoin);\r\n        require(whitelisted.balanceOf(address(this)) >= _amount, \"Carbon escrow account in WT0 doesn't have enough tokens for burning\");\r\n \r\n        // Burn user's CUSD, but with a fee reduction.\r\n        uint256 chargedFee = stablecoinFees.computeFee(_amount, computeFeeRate(stablecoin));\r\n        uint256 feedAmount = _amount.sub(chargedFee);\r\n        _burn(msg.sender, _amount);\r\n        whitelisted.burn(_amount);\r\n        _mint(address(this), chargedFee);\r\n        emit BurnedCUSD(msg.sender, feedAmount, chargedFee); // Whitelisted trust account should send user feedAmount USD\r\n    }\r\n\r\n    /** Computes fee percentage associated with burning into a particular stablecoin.\r\n     * @param stablecoin The stablecoin whose fee will be charged. Precondition: is a whitelisted\r\n     * stablecoin.\r\n     * @return The fee that will be charged. If the stablecoin's fee is not set, the default\r\n     * fee is returned.\r\n     */\r\n    function computeFeeRate(address stablecoin) public view returns (uint256 feeRate) {\r\n        if (stablecoinFees.isFeeSet(stablecoin)) // If fee for coin is not set\r\n            feeRate = stablecoinFees.fees(stablecoin);\r\n        else\r\n            feeRate = stablecoinFees.defaultFee();\r\n    }\r\n\r\n    /**\r\n     * @notice Compute the fee for converting a particular amount of CarbonUSD to a specific WhitelistedToken.\r\n     * @param amount The amount that the fee will be charged on.\r\n     * @param stablecoin The stablecoin to check fees for.\r\n     * @return The fee charged on the amount for the specified whitelisted token.\r\n     */\r\n    function computeStablecoinFee(uint256 amount, address stablecoin) public view returns (uint256) {\r\n        return stablecoinFees.computeStablecoinFee(amount, stablecoin);\r\n    }\r\n}",
  "sourcePath": "C:\\Users\\npain\\Projects\\Carbon\\fiat_gateway\\contracts\\tokens\\carbonToken\\CarbonDollar.sol",
  "compiler": {
    "name": "solc",
    "version": "0.4.24+commit.e67f0147.Emscripten.clang"
  },
  "schemaVersion": "2.0.1",
  "updatedAt": "2018-08-17T17:50:43.058Z"
}