{
  "contractName": "CarbonDollarRegulator",
  "abi": [
    {
      "constant": false,
      "inputs": [
        {
          "name": "_who",
          "type": "address"
        }
      ],
      "name": "removeBlacklistSpender",
      "outputs": [],
      "payable": false,
      "stateMutability": "nonpayable",
      "type": "function"
    },
    {
      "constant": false,
      "inputs": [
        {
          "name": "_who",
          "type": "address"
        }
      ],
      "name": "setWhitelistedUser",
      "outputs": [],
      "payable": false,
      "stateMutability": "nonpayable",
      "type": "function"
    },
    {
      "constant": false,
      "inputs": [],
      "name": "claimPermissionOwnership",
      "outputs": [],
      "payable": false,
      "stateMutability": "nonpayable",
      "type": "function"
    },
    {
      "constant": true,
      "inputs": [
        {
          "name": "_who",
          "type": "address"
        },
        {
          "name": "_methodsignature",
          "type": "bytes4"
        }
      ],
      "name": "hasUserPermission",
      "outputs": [
        {
          "name": "",
          "type": "bool"
        }
      ],
      "payable": false,
      "stateMutability": "view",
      "type": "function"
    },
    {
      "constant": true,
      "inputs": [
        {
          "name": "_methodsignature",
          "type": "bytes4"
        }
      ],
      "name": "getPermission",
      "outputs": [
        {
          "name": "name",
          "type": "string"
        },
        {
          "name": "description",
          "type": "string"
        },
        {
          "name": "contract_name",
          "type": "string"
        }
      ],
      "payable": false,
      "stateMutability": "view",
      "type": "function"
    },
    {
      "constant": false,
      "inputs": [
        {
          "name": "_who",
          "type": "address"
        },
        {
          "name": "_methodsignature",
          "type": "bytes4"
        }
      ],
      "name": "setUserPermission",
      "outputs": [],
      "payable": false,
      "stateMutability": "nonpayable",
      "type": "function"
    },
    {
      "constant": false,
      "inputs": [
        {
          "name": "_who",
          "type": "address"
        }
      ],
      "name": "setBlacklistDestroyer",
      "outputs": [],
      "payable": false,
      "stateMutability": "nonpayable",
      "type": "function"
    },
    {
      "constant": false,
      "inputs": [
        {
          "name": "_who",
          "type": "address"
        }
      ],
      "name": "removeMinter",
      "outputs": [],
      "payable": false,
      "stateMutability": "nonpayable",
      "type": "function"
    },
    {
      "constant": false,
      "inputs": [
        {
          "name": "_who",
          "type": "address"
        }
      ],
      "name": "removeValidator",
      "outputs": [],
      "payable": false,
      "stateMutability": "nonpayable",
      "type": "function"
    },
    {
      "constant": false,
      "inputs": [
        {
          "name": "_who",
          "type": "address"
        }
      ],
      "name": "addValidator",
      "outputs": [],
      "payable": false,
      "stateMutability": "nonpayable",
      "type": "function"
    },
    {
      "constant": false,
      "inputs": [
        {
          "name": "_who",
          "type": "address"
        },
        {
          "name": "_methodsignature",
          "type": "bytes4"
        }
      ],
      "name": "removeUserPermission",
      "outputs": [],
      "payable": false,
      "stateMutability": "nonpayable",
      "type": "function"
    },
    {
      "constant": false,
      "inputs": [
        {
          "name": "_who",
          "type": "address"
        }
      ],
      "name": "removeBlacklistDestroyer",
      "outputs": [],
      "payable": false,
      "stateMutability": "nonpayable",
      "type": "function"
    },
    {
      "constant": false,
      "inputs": [],
      "name": "renounceOwnership",
      "outputs": [],
      "payable": false,
      "stateMutability": "nonpayable",
      "type": "function"
    },
    {
      "constant": false,
      "inputs": [
        {
          "name": "_methodsignature",
          "type": "bytes4"
        },
        {
          "name": "_permissionName",
          "type": "string"
        },
        {
          "name": "_permissionDescription",
          "type": "string"
        },
        {
          "name": "_contractName",
          "type": "string"
        }
      ],
      "name": "addPermission",
      "outputs": [],
      "payable": false,
      "stateMutability": "nonpayable",
      "type": "function"
    },
    {
      "constant": false,
      "inputs": [],
      "name": "claimValidatorOwnership",
      "outputs": [],
      "payable": false,
      "stateMutability": "nonpayable",
      "type": "function"
    },
    {
      "constant": true,
      "inputs": [],
      "name": "owner",
      "outputs": [
        {
          "name": "",
          "type": "address"
        }
      ],
      "payable": false,
      "stateMutability": "view",
      "type": "function"
    },
    {
      "constant": true,
      "inputs": [
        {
          "name": "_who",
          "type": "address"
        }
      ],
      "name": "isBlacklistSpender",
      "outputs": [
        {
          "name": "",
          "type": "bool"
        }
      ],
      "payable": false,
      "stateMutability": "view",
      "type": "function"
    },
    {
      "constant": true,
      "inputs": [
        {
          "name": "_methodsignature",
          "type": "bytes4"
        }
      ],
      "name": "isPermission",
      "outputs": [
        {
          "name": "",
          "type": "bool"
        }
      ],
      "payable": false,
      "stateMutability": "view",
      "type": "function"
    },
    {
      "constant": true,
      "inputs": [
        {
          "name": "_who",
          "type": "address"
        }
      ],
      "name": "isMinter",
      "outputs": [
        {
          "name": "",
          "type": "bool"
        }
      ],
      "payable": false,
      "stateMutability": "view",
      "type": "function"
    },
    {
      "constant": true,
      "inputs": [],
      "name": "permissions",
      "outputs": [
        {
          "name": "",
          "type": "address"
        }
      ],
      "payable": false,
      "stateMutability": "view",
      "type": "function"
    },
    {
      "constant": false,
      "inputs": [
        {
          "name": "_newStorageAddress",
          "type": "address"
        }
      ],
      "name": "setPermissionStorage",
      "outputs": [],
      "payable": false,
      "stateMutability": "nonpayable",
      "type": "function"
    },
    {
      "constant": false,
      "inputs": [
        {
          "name": "_methodsignature",
          "type": "bytes4"
        }
      ],
      "name": "removePermission",
      "outputs": [],
      "payable": false,
      "stateMutability": "nonpayable",
      "type": "function"
    },
    {
      "constant": false,
      "inputs": [
        {
          "name": "_who",
          "type": "address"
        }
      ],
      "name": "setBlacklistSpender",
      "outputs": [],
      "payable": false,
      "stateMutability": "nonpayable",
      "type": "function"
    },
    {
      "constant": false,
      "inputs": [
        {
          "name": "_who",
          "type": "address"
        }
      ],
      "name": "setBlacklistedUser",
      "outputs": [],
      "payable": false,
      "stateMutability": "nonpayable",
      "type": "function"
    },
    {
      "constant": true,
      "inputs": [],
      "name": "validators",
      "outputs": [
        {
          "name": "",
          "type": "address"
        }
      ],
      "payable": false,
      "stateMutability": "view",
      "type": "function"
    },
    {
      "constant": false,
      "inputs": [
        {
          "name": "_who",
          "type": "address"
        }
      ],
      "name": "setNonlistedUser",
      "outputs": [],
      "payable": false,
      "stateMutability": "nonpayable",
      "type": "function"
    },
    {
      "constant": false,
      "inputs": [
        {
          "name": "_newStorageAddress",
          "type": "address"
        }
      ],
      "name": "setValidatorStorage",
      "outputs": [],
      "payable": false,
      "stateMutability": "nonpayable",
      "type": "function"
    },
    {
      "constant": false,
      "inputs": [
        {
          "name": "_newOwner",
          "type": "address"
        }
      ],
      "name": "transferOwnership",
      "outputs": [],
      "payable": false,
      "stateMutability": "nonpayable",
      "type": "function"
    },
    {
      "constant": true,
      "inputs": [
        {
          "name": "_who",
          "type": "address"
        }
      ],
      "name": "isBlacklistDestroyer",
      "outputs": [
        {
          "name": "",
          "type": "bool"
        }
      ],
      "payable": false,
      "stateMutability": "view",
      "type": "function"
    },
    {
      "constant": true,
      "inputs": [
        {
          "name": "_who",
          "type": "address"
        }
      ],
      "name": "isValidator",
      "outputs": [
        {
          "name": "",
          "type": "bool"
        }
      ],
      "payable": false,
      "stateMutability": "view",
      "type": "function"
    },
    {
      "constant": false,
      "inputs": [
        {
          "name": "_who",
          "type": "address"
        }
      ],
      "name": "setMinter",
      "outputs": [],
      "payable": false,
      "stateMutability": "nonpayable",
      "type": "function"
    },
    {
      "inputs": [
        {
          "name": "p",
          "type": "address"
        },
        {
          "name": "v",
          "type": "address"
        }
      ],
      "payable": false,
      "stateMutability": "nonpayable",
      "type": "constructor"
    },
    {
      "anonymous": false,
      "inputs": [
        {
          "indexed": true,
          "name": "who",
          "type": "address"
        }
      ],
      "name": "SetWhitelistedUser",
      "type": "event"
    },
    {
      "anonymous": false,
      "inputs": [
        {
          "indexed": true,
          "name": "who",
          "type": "address"
        }
      ],
      "name": "SetBlacklistedUser",
      "type": "event"
    },
    {
      "anonymous": false,
      "inputs": [
        {
          "indexed": true,
          "name": "who",
          "type": "address"
        }
      ],
      "name": "SetNonlistedUser",
      "type": "event"
    },
    {
      "anonymous": false,
      "inputs": [
        {
          "indexed": true,
          "name": "who",
          "type": "address"
        }
      ],
      "name": "SetMinter",
      "type": "event"
    },
    {
      "anonymous": false,
      "inputs": [
        {
          "indexed": true,
          "name": "who",
          "type": "address"
        }
      ],
      "name": "RemovedMinter",
      "type": "event"
    },
    {
      "anonymous": false,
      "inputs": [
        {
          "indexed": true,
          "name": "who",
          "type": "address"
        }
      ],
      "name": "SetBlacklistDestroyer",
      "type": "event"
    },
    {
      "anonymous": false,
      "inputs": [
        {
          "indexed": true,
          "name": "who",
          "type": "address"
        }
      ],
      "name": "RemovedBlacklistDestroyer",
      "type": "event"
    },
    {
      "anonymous": false,
      "inputs": [
        {
          "indexed": true,
          "name": "who",
          "type": "address"
        }
      ],
      "name": "SetBlacklistSpender",
      "type": "event"
    },
    {
      "anonymous": false,
      "inputs": [
        {
          "indexed": true,
          "name": "who",
          "type": "address"
        }
      ],
      "name": "RemovedBlacklistSpender",
      "type": "event"
    },
    {
      "anonymous": false,
      "inputs": [
        {
          "indexed": false,
          "name": "_old",
          "type": "address"
        },
        {
          "indexed": false,
          "name": "_new",
          "type": "address"
        }
      ],
      "name": "ChangedPermissionStorage",
      "type": "event"
    },
    {
      "anonymous": false,
      "inputs": [
        {
          "indexed": false,
          "name": "_old",
          "type": "address"
        },
        {
          "indexed": false,
          "name": "_new",
          "type": "address"
        }
      ],
      "name": "ChangedValidatorStorage",
      "type": "event"
    },
    {
      "anonymous": false,
      "inputs": [
        {
          "indexed": true,
          "name": "previousOwner",
          "type": "address"
        }
      ],
      "name": "OwnershipRenounced",
      "type": "event"
    },
    {
      "anonymous": false,
      "inputs": [
        {
          "indexed": true,
          "name": "previousOwner",
          "type": "address"
        },
        {
          "indexed": true,
          "name": "newOwner",
          "type": "address"
        }
      ],
      "name": "OwnershipTransferred",
      "type": "event"
    },
    {
      "constant": true,
      "inputs": [
        {
          "name": "_who",
          "type": "address"
        }
      ],
      "name": "isWhitelistedUser",
      "outputs": [
        {
          "name": "",
          "type": "bool"
        }
      ],
      "payable": false,
      "stateMutability": "view",
      "type": "function"
    },
    {
      "constant": true,
      "inputs": [
        {
          "name": "_who",
          "type": "address"
        }
      ],
      "name": "isBlacklistedUser",
      "outputs": [
        {
          "name": "",
          "type": "bool"
        }
      ],
      "payable": false,
      "stateMutability": "view",
      "type": "function"
    },
    {
      "constant": true,
      "inputs": [
        {
          "name": "_who",
          "type": "address"
        }
      ],
      "name": "isNonlistedUser",
      "outputs": [
        {
          "name": "",
          "type": "bool"
        }
      ],
      "payable": false,
      "stateMutability": "view",
      "type": "function"
    }
  ],
  "bytecode": "0x608060405234801561001057600080fd5b506040516040806200573a83398101604052805160209091015160008054600160a060020a0319908116331790915560018054600160a060020a03948516908316179055600280549390921692169190911790556156c680620000746000396000f3006080604052600436106101ab5763ffffffff7c0100000000000000000000000000000000000000000000000000000000600035041663029043a481146101b057806309533303146101e05780630bdb3d5a1461020e57806314db6d58146102235780631830f4931461028a5780631c870eee14610408578063231a439e1461045b5780633092afd51461048957806340a141ff146104b75780634d238c8e146104e55780634d54dc96146105135780635317e44414610541578063556b638414610594578063715018a6146105c2578063780bfed0146105d75780637ccce851146106d357806385a2785e146107015780638da5cb5b1461071657806391c4529f14610754578063933aa66714610782578063aa271e1a146107bc578063ab8c71c0146107ea578063aef5eb80146107ff578063b8ccbd171461082d578063c1331bc314610867578063c56bea6414610895578063ca1e7819146108c3578063cd495391146108d8578063d88c271e14610906578063e51207e714610934578063f2fde38b14610962578063f530259e14610990578063facd743b146109be578063fca3b5aa146109ec575b600080fd5b3480156101bc57600080fd5b506101de73ffffffffffffffffffffffffffffffffffffffff60043516610a1a565b005b3480156101ec57600080fd5b506101de73ffffffffffffffffffffffffffffffffffffffff60043516610df8565b34801561021a57600080fd5b506101de610e7a565b34801561022f57600080fd5b5061027673ffffffffffffffffffffffffffffffffffffffff600435167fffffffff0000000000000000000000000000000000000000000000000000000060243516610f1a565b604080519115158252519081900360200190f35b34801561029657600080fd5b506102c47fffffffff0000000000000000000000000000000000000000000000000000000060043516610fed565b60405180806020018060200180602001848103845287818151815260200191508051906020019080838360005b838110156103095781810151838201526020016102f1565b50505050905090810190601f1680156103365780820380516001836020036101000a031916815260200191505b50848103835286518152865160209182019188019080838360005b83811015610369578181015183820152602001610351565b50505050905090810190601f1680156103965780820380516001836020036101000a031916815260200191505b50848103825285518152855160209182019187019080838360005b838110156103c95781810151838201526020016103b1565b50505050905090810190601f1680156103f65780820380516001836020036101000a031916815260200191505b50965050505050505060405180910390f35b34801561041457600080fd5b506101de73ffffffffffffffffffffffffffffffffffffffff600435167fffffffff00000000000000000000000000000000000000000000000000000000602435166111cc565b34801561046757600080fd5b506101de73ffffffffffffffffffffffffffffffffffffffff600435166112fa565b34801561049557600080fd5b506101de73ffffffffffffffffffffffffffffffffffffffff600435166116d8565b3480156104c357600080fd5b506101de73ffffffffffffffffffffffffffffffffffffffff60043516611757565b3480156104f157600080fd5b506101de73ffffffffffffffffffffffffffffffffffffffff6004351661180a565b34801561051f57600080fd5b5061027673ffffffffffffffffffffffffffffffffffffffff600435166118a2565b34801561054d57600080fd5b506101de73ffffffffffffffffffffffffffffffffffffffff600435167fffffffff0000000000000000000000000000000000000000000000000000000060243516611a8c565b3480156105a057600080fd5b506101de73ffffffffffffffffffffffffffffffffffffffff60043516611b9e565b3480156105ce57600080fd5b506101de611f7c565b3480156105e357600080fd5b5060408051602060046024803582810135601f81018590048502860185019096528585526101de9583357fffffffff000000000000000000000000000000000000000000000000000000001695369560449491939091019190819084018382808284375050604080516020601f89358b018035918201839004830284018301909452808352979a99988101979196509182019450925082915084018382808284375050604080516020601f89358b018035918201839004830284018301909452808352979a99988101979196509182019450925082915084018382808284375094975061200d9650505050505050565b3480156106df57600080fd5b5061027673ffffffffffffffffffffffffffffffffffffffff6004351661226f565b34801561070d57600080fd5b506101de612420565b34801561072257600080fd5b5061072b6124a6565b6040805173ffffffffffffffffffffffffffffffffffffffff9092168252519081900360200190f35b34801561076057600080fd5b5061027673ffffffffffffffffffffffffffffffffffffffff600435166124c2565b34801561078e57600080fd5b506102767fffffffff000000000000000000000000000000000000000000000000000000006004351661254e565b3480156107c857600080fd5b5061027673ffffffffffffffffffffffffffffffffffffffff60043516612614565b3480156107f657600080fd5b5061072b6126a0565b34801561080b57600080fd5b506101de73ffffffffffffffffffffffffffffffffffffffff600435166126bc565b34801561083957600080fd5b506101de7fffffffff0000000000000000000000000000000000000000000000000000000060043516612890565b34801561087357600080fd5b506101de73ffffffffffffffffffffffffffffffffffffffff6004351661299a565b3480156108a157600080fd5b506101de73ffffffffffffffffffffffffffffffffffffffff60043516612d78565b3480156108cf57600080fd5b5061072b612df7565b3480156108e457600080fd5b506101de73ffffffffffffffffffffffffffffffffffffffff60043516612e13565b34801561091257600080fd5b5061027673ffffffffffffffffffffffffffffffffffffffff60043516612e92565b34801561094057600080fd5b506101de73ffffffffffffffffffffffffffffffffffffffff60043516612faf565b34801561096e57600080fd5b506101de73ffffffffffffffffffffffffffffffffffffffff60043516613183565b34801561099c57600080fd5b5061027673ffffffffffffffffffffffffffffffffffffffff600435166131b0565b3480156109ca57600080fd5b5061027673ffffffffffffffffffffffffffffffffffffffff6004351661323c565b3480156109f857600080fd5b506101de73ffffffffffffffffffffffffffffffffffffffff600435166132b4565b610a233361323c565b1515610a9057604080517f08c379a000000000000000000000000000000000000000000000000000000000815260206004820152601860248201527f53656e646572206d7573742062652076616c696461746f720000000000000000604482015290519081900360640190fd5b600154604080517f8f959f54000000000000000000000000000000000000000000000000000000008152905173ffffffffffffffffffffffffffffffffffffffff9092169163933aa667918391638f959f54916004808201926020929091908290030181600087803b158015610b0557600080fd5b505af1158015610b19573d6000803e3d6000fd5b505050506040513d6020811015610b2f57600080fd5b5051604080517c010000000000000000000000000000000000000000000000000000000063ffffffff85160281527fffffffff0000000000000000000000000000000000000000000000000000000090921660048301525160248083019260209291908290030181600087803b158015610ba857600080fd5b505af1158015610bbc573d6000803e3d6000fd5b505050506040513d6020811015610bd257600080fd5b50511515610c6757604080517f08c379a000000000000000000000000000000000000000000000000000000000815260206004820152602960248201527f426c61636b6c697374207370656e64696e67206e6f7420737570706f7274656460448201527f20627920746f6b656e0000000000000000000000000000000000000000000000606482015290519081900360840190fd5b600154604080517f8f959f54000000000000000000000000000000000000000000000000000000008152905173ffffffffffffffffffffffffffffffffffffffff90921691635317e4449184918491638f959f549160048083019260209291908290030181600087803b158015610cdd57600080fd5b505af1158015610cf1573d6000803e3d6000fd5b505050506040513d6020811015610d0757600080fd5b5051604080517c010000000000000000000000000000000000000000000000000000000063ffffffff861602815273ffffffffffffffffffffffffffffffffffffffff90931660048401527fffffffff00000000000000000000000000000000000000000000000000000000909116602483015251604480830192600092919082900301818387803b158015610d9c57600080fd5b505af1158015610db0573d6000803e3d6000fd5b505060405173ffffffffffffffffffffffffffffffffffffffff841692507fb8b0c8ee459f1d6bd645483509388a7c33773a7ca838bf63ebe8d49d0cb057e59150600090a250565b610e013361323c565b1515610e6e57604080517f08c379a000000000000000000000000000000000000000000000000000000000815260206004820152601860248201527f53656e646572206d7573742062652076616c696461746f720000000000000000604482015290519081900360640190fd5b610e7781613333565b50565b600160009054906101000a900473ffffffffffffffffffffffffffffffffffffffff1673ffffffffffffffffffffffffffffffffffffffff16634e71e0c86040518163ffffffff167c0100000000000000000000000000000000000000000000000000000000028152600401600060405180830381600087803b158015610f0057600080fd5b505af1158015610f14573d6000803e3d6000fd5b50505050565b600154604080517f14db6d5800000000000000000000000000000000000000000000000000000000815273ffffffffffffffffffffffffffffffffffffffff85811660048301527fffffffff0000000000000000000000000000000000000000000000000000000085166024830152915160009392909216916314db6d589160448082019260209290919082900301818787803b158015610fba57600080fd5b505af1158015610fce573d6000803e3d6000fd5b505050506040513d6020811015610fe457600080fd5b50519392505050565b600154604080517f395a7b300000000000000000000000000000000000000000000000000000000081527fffffffff000000000000000000000000000000000000000000000000000000008416600482015290516060928392839273ffffffffffffffffffffffffffffffffffffffff9092169163395a7b309160248082019260009290919082900301818387803b15801561108857600080fd5b505af115801561109c573d6000803e3d6000fd5b505050506040513d6000823e601f3d9081017fffffffffffffffffffffffffffffffffffffffffffffffffffffffffffffffe016820160405260608110156110e357600080fd5b8101908080516401000000008111156110fb57600080fd5b8201602081018481111561110e57600080fd5b815164010000000081118282018710171561112857600080fd5b5050929190602001805164010000000081111561114457600080fd5b8201602081018481111561115757600080fd5b815164010000000081118282018710171561117157600080fd5b5050929190602001805164010000000081111561118d57600080fd5b820160208101848111156111a057600080fd5b81516401000000008111828201871017156111ba57600080fd5b50959a94995097509295505050505050565b6111d53361323c565b151561124257604080517f08c379a000000000000000000000000000000000000000000000000000000000815260206004820152601860248201527f53656e646572206d7573742062652076616c696461746f720000000000000000604482015290519081900360640190fd5b600154604080517f1c870eee00000000000000000000000000000000000000000000000000000000815273ffffffffffffffffffffffffffffffffffffffff85811660048301527fffffffff000000000000000000000000000000000000000000000000000000008516602483015291519190921691631c870eee91604480830192600092919082900301818387803b1580156112de57600080fd5b505af11580156112f2573d6000803e3d6000fd5b505050505050565b6113033361323c565b151561137057604080517f08c379a000000000000000000000000000000000000000000000000000000000815260206004820152601860248201527f53656e646572206d7573742062652076616c696461746f720000000000000000604482015290519081900360640190fd5b600154604080517fab96cb46000000000000000000000000000000000000000000000000000000008152905173ffffffffffffffffffffffffffffffffffffffff9092169163933aa66791839163ab96cb46916004808201926020929091908290030181600087803b1580156113e557600080fd5b505af11580156113f9573d6000803e3d6000fd5b505050506040513d602081101561140f57600080fd5b5051604080517c010000000000000000000000000000000000000000000000000000000063ffffffff85160281527fffffffff0000000000000000000000000000000000000000000000000000000090921660048301525160248083019260209291908290030181600087803b15801561148857600080fd5b505af115801561149c573d6000803e3d6000fd5b505050506040513d60208110156114b257600080fd5b5051151561154757604080517f08c379a000000000000000000000000000000000000000000000000000000000815260206004820152603260248201527f426c61636b6c69737420746f6b656e206465737472756374696f6e206e6f742060448201527f737570706f7274656420627920746f6b656e0000000000000000000000000000606482015290519081900360840190fd5b600154604080517fab96cb46000000000000000000000000000000000000000000000000000000008152905173ffffffffffffffffffffffffffffffffffffffff90921691631c870eee918491849163ab96cb469160048083019260209291908290030181600087803b1580156115bd57600080fd5b505af11580156115d1573d6000803e3d6000fd5b505050506040513d60208110156115e757600080fd5b5051604080517c010000000000000000000000000000000000000000000000000000000063ffffffff861602815273ffffffffffffffffffffffffffffffffffffffff90931660048401527fffffffff00000000000000000000000000000000000000000000000000000000909116602483015251604480830192600092919082900301818387803b15801561167c57600080fd5b505af1158015611690573d6000803e3d6000fd5b505060405173ffffffffffffffffffffffffffffffffffffffff841692507fcc8fff52f1373f98b1e3e0505c266d5706ba7fd81e4be56fbf3c42b9a8ee4b759150600090a250565b6116e13361323c565b151561174e57604080517f08c379a000000000000000000000000000000000000000000000000000000000815260206004820152601860248201527f53656e646572206d7573742062652076616c696461746f720000000000000000604482015290519081900360640190fd5b610e7781613c97565b60005473ffffffffffffffffffffffffffffffffffffffff16331461177b57600080fd5b600254604080517f40a141ff00000000000000000000000000000000000000000000000000000000815273ffffffffffffffffffffffffffffffffffffffff8481166004830152915191909216916340a141ff91602480830192600092919082900301818387803b1580156117ef57600080fd5b505af1158015611803573d6000803e3d6000fd5b5050505050565b60005473ffffffffffffffffffffffffffffffffffffffff16331461182e57600080fd5b600254604080517f4d238c8e00000000000000000000000000000000000000000000000000000000815273ffffffffffffffffffffffffffffffffffffffff848116600483015291519190921691634d238c8e91602480830192600092919082900301818387803b1580156117ef57600080fd5b600061195f82600160009054906101000a900473ffffffffffffffffffffffffffffffffffffffff1673ffffffffffffffffffffffffffffffffffffffff1663f9d505436040518163ffffffff167c0100000000000000000000000000000000000000000000000000000000028152600401602060405180830381600087803b15801561192e57600080fd5b505af1158015611942573d6000803e3d6000fd5b505050506040513d602081101561195857600080fd5b5051610f1a565b1580156119f357506119f182600160009054906101000a900473ffffffffffffffffffffffffffffffffffffffff1673ffffffffffffffffffffffffffffffffffffffff1663c1c49cbb6040518163ffffffff167c0100000000000000000000000000000000000000000000000000000000028152600401602060405180830381600087803b15801561192e57600080fd5b155b8015611a865750611a8482600160009054906101000a900473ffffffffffffffffffffffffffffffffffffffff1673ffffffffffffffffffffffffffffffffffffffff16639491951b6040518163ffffffff167c0100000000000000000000000000000000000000000000000000000000028152600401602060405180830381600087803b15801561192e57600080fd5b155b92915050565b611a953361323c565b1515611b0257604080517f08c379a000000000000000000000000000000000000000000000000000000000815260206004820152601860248201527f53656e646572206d7573742062652076616c696461746f720000000000000000604482015290519081900360640190fd5b600154604080517f5317e44400000000000000000000000000000000000000000000000000000000815273ffffffffffffffffffffffffffffffffffffffff85811660048301527fffffffff000000000000000000000000000000000000000000000000000000008516602483015291519190921691635317e44491604480830192600092919082900301818387803b1580156112de57600080fd5b611ba73361323c565b1515611c1457604080517f08c379a000000000000000000000000000000000000000000000000000000000815260206004820152601860248201527f53656e646572206d7573742062652076616c696461746f720000000000000000604482015290519081900360640190fd5b600154604080517fab96cb46000000000000000000000000000000000000000000000000000000008152905173ffffffffffffffffffffffffffffffffffffffff9092169163933aa66791839163ab96cb46916004808201926020929091908290030181600087803b158015611c8957600080fd5b505af1158015611c9d573d6000803e3d6000fd5b505050506040513d6020811015611cb357600080fd5b5051604080517c010000000000000000000000000000000000000000000000000000000063ffffffff85160281527fffffffff0000000000000000000000000000000000000000000000000000000090921660048301525160248083019260209291908290030181600087803b158015611d2c57600080fd5b505af1158015611d40573d6000803e3d6000fd5b505050506040513d6020811015611d5657600080fd5b50511515611deb57604080517f08c379a000000000000000000000000000000000000000000000000000000000815260206004820152603260248201527f426c61636b6c69737420746f6b656e206465737472756374696f6e206e6f742060448201527f737570706f7274656420627920746f6b656e0000000000000000000000000000606482015290519081900360840190fd5b600154604080517fab96cb46000000000000000000000000000000000000000000000000000000008152905173ffffffffffffffffffffffffffffffffffffffff90921691635317e444918491849163ab96cb469160048083019260209291908290030181600087803b158015611e6157600080fd5b505af1158015611e75573d6000803e3d6000fd5b505050506040513d6020811015611e8b57600080fd5b5051604080517c010000000000000000000000000000000000000000000000000000000063ffffffff861602815273ffffffffffffffffffffffffffffffffffffffff90931660048401527fffffffff00000000000000000000000000000000000000000000000000000000909116602483015251604480830192600092919082900301818387803b158015611f2057600080fd5b505af1158015611f34573d6000803e3d6000fd5b505060405173ffffffffffffffffffffffffffffffffffffffff841692507f86bb58560ff5b69582569594aec27466e395f18de8783a40ead458348c9173d39150600090a250565b60005473ffffffffffffffffffffffffffffffffffffffff163314611fa057600080fd5b6000805460405173ffffffffffffffffffffffffffffffffffffffff909116917ff8df31144d9c2f0f6b59d69b8b98abd5459d07f2742c4df920b25aae33c6482091a2600080547fffffffffffffffffffffffff0000000000000000000000000000000000000000169055565b6120163361323c565b151561208357604080517f08c379a000000000000000000000000000000000000000000000000000000000815260206004820152601860248201527f53656e646572206d7573742062652076616c696461746f720000000000000000604482015290519081900360640190fd5b6001546040517f780bfed00000000000000000000000000000000000000000000000000000000081527fffffffff0000000000000000000000000000000000000000000000000000000086166004820190815260806024830190815286516084840152865173ffffffffffffffffffffffffffffffffffffffff9094169363780bfed09389938993899389936044810191606482019160a40190602089019080838360005b83811015612140578181015183820152602001612128565b50505050905090810190601f16801561216d5780820380516001836020036101000a031916815260200191505b50848103835286518152865160209182019188019080838360005b838110156121a0578181015183820152602001612188565b50505050905090810190601f1680156121cd5780820380516001836020036101000a031916815260200191505b50848103825285518152855160209182019187019080838360005b838110156122005781810151838201526020016121e8565b50505050905090810190601f16801561222d5780820380516001836020036101000a031916815260200191505b50975050505050505050600060405180830381600087803b15801561225157600080fd5b505af1158015612265573d6000803e3d6000fd5b5050505050505050565b60006122fb82600160009054906101000a900473ffffffffffffffffffffffffffffffffffffffff1673ffffffffffffffffffffffffffffffffffffffff1663f9d505436040518163ffffffff167c0100000000000000000000000000000000000000000000000000000000028152600401602060405180830381600087803b15801561192e57600080fd5b15801561238f575061238d82600160009054906101000a900473ffffffffffffffffffffffffffffffffffffffff1673ffffffffffffffffffffffffffffffffffffffff1663c1c49cbb6040518163ffffffff167c0100000000000000000000000000000000000000000000000000000000028152600401602060405180830381600087803b15801561192e57600080fd5b155b8015611a865750611a8682600160009054906101000a900473ffffffffffffffffffffffffffffffffffffffff1673ffffffffffffffffffffffffffffffffffffffff16639491951b6040518163ffffffff167c0100000000000000000000000000000000000000000000000000000000028152600401602060405180830381600087803b15801561192e57600080fd5b600260009054906101000a900473ffffffffffffffffffffffffffffffffffffffff1673ffffffffffffffffffffffffffffffffffffffff16634e71e0c86040518163ffffffff167c0100000000000000000000000000000000000000000000000000000000028152600401600060405180830381600087803b158015610f0057600080fd5b60005473ffffffffffffffffffffffffffffffffffffffff1681565b6000611a8682600160009054906101000a900473ffffffffffffffffffffffffffffffffffffffff1673ffffffffffffffffffffffffffffffffffffffff16638f959f546040518163ffffffff167c0100000000000000000000000000000000000000000000000000000000028152600401602060405180830381600087803b15801561192e57600080fd5b600154604080517f933aa6670000000000000000000000000000000000000000000000000000000081527fffffffff0000000000000000000000000000000000000000000000000000000084166004820152905160009273ffffffffffffffffffffffffffffffffffffffff169163933aa66791602480830192602092919082900301818787803b1580156125e257600080fd5b505af11580156125f6573d6000803e3d6000fd5b505050506040513d602081101561260c57600080fd5b505192915050565b6000611a8682600160009054906101000a900473ffffffffffffffffffffffffffffffffffffffff1673ffffffffffffffffffffffffffffffffffffffff166388f14b0e6040518163ffffffff167c0100000000000000000000000000000000000000000000000000000000028152600401602060405180830381600087803b15801561192e57600080fd5b60015473ffffffffffffffffffffffffffffffffffffffff1681565b6000805473ffffffffffffffffffffffffffffffffffffffff1633146126e157600080fd5b60015473ffffffffffffffffffffffffffffffffffffffff8381169116141561276b57604080517f08c379a000000000000000000000000000000000000000000000000000000000815260206004820152601e60248201527f4d7573742062652061206e6577207065726d697373696f6e2073686565740000604482015290519081900360640190fd5b61277482613fd9565b151561280757604080517f08c379a000000000000000000000000000000000000000000000000000000000815260206004820152603860248201527f43616e6e6f7420736574206120726567756c61746f722073746f72616765207460448201527f6f2061206e6f6e2d636f6e747261637420616464726573730000000000000000606482015290519081900360840190fd5b506001805473ffffffffffffffffffffffffffffffffffffffff8381167fffffffffffffffffffffffff0000000000000000000000000000000000000000831681179093556040805191909216808252602082019390935281517fe17aee9aa44ff533ce61ee89d13b1d2a8cb1143b69d05d08a5d136acae8a7707929181900390910190a15050565b6128993361323c565b151561290657604080517f08c379a000000000000000000000000000000000000000000000000000000000815260206004820152601860248201527f53656e646572206d7573742062652076616c696461746f720000000000000000604482015290519081900360640190fd5b600154604080517fb8ccbd170000000000000000000000000000000000000000000000000000000081527fffffffff0000000000000000000000000000000000000000000000000000000084166004820152905173ffffffffffffffffffffffffffffffffffffffff9092169163b8ccbd179160248082019260009290919082900301818387803b1580156117ef57600080fd5b6129a33361323c565b1515612a1057604080517f08c379a000000000000000000000000000000000000000000000000000000000815260206004820152601860248201527f53656e646572206d7573742062652076616c696461746f720000000000000000604482015290519081900360640190fd5b600154604080517f8f959f54000000000000000000000000000000000000000000000000000000008152905173ffffffffffffffffffffffffffffffffffffffff9092169163933aa667918391638f959f54916004808201926020929091908290030181600087803b158015612a8557600080fd5b505af1158015612a99573d6000803e3d6000fd5b505050506040513d6020811015612aaf57600080fd5b5051604080517c010000000000000000000000000000000000000000000000000000000063ffffffff85160281527fffffffff0000000000000000000000000000000000000000000000000000000090921660048301525160248083019260209291908290030181600087803b158015612b2857600080fd5b505af1158015612b3c573d6000803e3d6000fd5b505050506040513d6020811015612b5257600080fd5b50511515612be757604080517f08c379a000000000000000000000000000000000000000000000000000000000815260206004820152602960248201527f426c61636b6c697374207370656e64696e67206e6f7420737570706f7274656460448201527f20627920746f6b656e0000000000000000000000000000000000000000000000606482015290519081900360840190fd5b600154604080517f8f959f54000000000000000000000000000000000000000000000000000000008152905173ffffffffffffffffffffffffffffffffffffffff90921691631c870eee9184918491638f959f549160048083019260209291908290030181600087803b158015612c5d57600080fd5b505af1158015612c71573d6000803e3d6000fd5b505050506040513d6020811015612c8757600080fd5b5051604080517c010000000000000000000000000000000000000000000000000000000063ffffffff861602815273ffffffffffffffffffffffffffffffffffffffff90931660048401527fffffffff00000000000000000000000000000000000000000000000000000000909116602483015251604480830192600092919082900301818387803b158015612d1c57600080fd5b505af1158015612d30573d6000803e3d6000fd5b505060405173ffffffffffffffffffffffffffffffffffffffff841692507faa23b83c4c61a5f45cfa40a87b5140110977014da47ac244df45db2f1ce18a9e9150600090a250565b612d813361323c565b1515612dee57604080517f08c379a000000000000000000000000000000000000000000000000000000000815260206004820152601860248201527f53656e646572206d7573742062652076616c696461746f720000000000000000604482015290519081900360640190fd5b610e7781613fe1565b60025473ffffffffffffffffffffffffffffffffffffffff1681565b612e1c3361323c565b1515612e8957604080517f08c379a000000000000000000000000000000000000000000000000000000000815260206004820152601860248201527f53656e646572206d7573742062652076616c696461746f720000000000000000604482015290519081900360640190fd5b610e7781614945565b6000612f1e82600160009054906101000a900473ffffffffffffffffffffffffffffffffffffffff1673ffffffffffffffffffffffffffffffffffffffff1663f9d505436040518163ffffffff167c0100000000000000000000000000000000000000000000000000000000028152600401602060405180830381600087803b15801561192e57600080fd5b80156119f357506119f382600160009054906101000a900473ffffffffffffffffffffffffffffffffffffffff1673ffffffffffffffffffffffffffffffffffffffff1663c1c49cbb6040518163ffffffff167c0100000000000000000000000000000000000000000000000000000000028152600401602060405180830381600087803b15801561192e57600080fd5b6000805473ffffffffffffffffffffffffffffffffffffffff163314612fd457600080fd5b60025473ffffffffffffffffffffffffffffffffffffffff8381169116141561305e57604080517f08c379a000000000000000000000000000000000000000000000000000000000815260206004820152601d60248201527f4d7573742062652061206e65772076616c696461746f72207368656574000000604482015290519081900360640190fd5b61306782613fd9565b15156130fa57604080517f08c379a000000000000000000000000000000000000000000000000000000000815260206004820152603860248201527f43616e6e6f7420736574206120726567756c61746f722073746f72616765207460448201527f6f2061206e6f6e2d636f6e747261637420616464726573730000000000000000606482015290519081900360840190fd5b506002805473ffffffffffffffffffffffffffffffffffffffff8381167fffffffffffffffffffffffff0000000000000000000000000000000000000000831681179093556040805191909216808252602082019390935281517f8ca674c4f8f0a3a35b50833ae3d8d889663de2b78cdbe0765021594acec3cda2929181900390910190a15050565b60005473ffffffffffffffffffffffffffffffffffffffff1633146131a757600080fd5b610e77816152a9565b6000611a8682600160009054906101000a900473ffffffffffffffffffffffffffffffffffffffff1673ffffffffffffffffffffffffffffffffffffffff1663ab96cb466040518163ffffffff167c0100000000000000000000000000000000000000000000000000000000028152600401602060405180830381600087803b15801561192e57600080fd5b600254604080517ffacd743b00000000000000000000000000000000000000000000000000000000815273ffffffffffffffffffffffffffffffffffffffff84811660048301529151600093929092169163facd743b9160248082019260209290919082900301818787803b1580156125e257600080fd5b6132bd3361323c565b151561332a57604080517f08c379a000000000000000000000000000000000000000000000000000000000815260206004820152601860248201527f53656e646572206d7573742062652076616c696461746f720000000000000000604482015290519081900360640190fd5b610e7781615358565b600154604080517ff9d50543000000000000000000000000000000000000000000000000000000008152905173ffffffffffffffffffffffffffffffffffffffff9092169163933aa66791839163f9d50543916004808201926020929091908290030181600087803b1580156133a857600080fd5b505af11580156133bc573d6000803e3d6000fd5b505050506040513d60208110156133d257600080fd5b5051604080517c010000000000000000000000000000000000000000000000000000000063ffffffff85160281527fffffffff0000000000000000000000000000000000000000000000000000000090921660048301525160248083019260209291908290030181600087803b15801561344b57600080fd5b505af115801561345f573d6000803e3d6000fd5b505050506040513d602081101561347557600080fd5b505115156134e457604080517f08c379a000000000000000000000000000000000000000000000000000000000815260206004820152601d60248201527f436f6e76657274696e672043555344206e6f7420737570706f72746564000000604482015290519081900360640190fd5b600154604080517fc1c49cbb000000000000000000000000000000000000000000000000000000008152905173ffffffffffffffffffffffffffffffffffffffff9092169163933aa66791839163c1c49cbb916004808201926020929091908290030181600087803b15801561355957600080fd5b505af115801561356d573d6000803e3d6000fd5b505050506040513d602081101561358357600080fd5b5051604080517c010000000000000000000000000000000000000000000000000000000063ffffffff85160281527fffffffff0000000000000000000000000000000000000000000000000000000090921660048301525160248083019260209291908290030181600087803b1580156135fc57600080fd5b505af1158015613610573d6000803e3d6000fd5b505050506040513d602081101561362657600080fd5b5051151561369557604080517f08c379a000000000000000000000000000000000000000000000000000000000815260206004820152601a60248201527f4275726e696e672043555344206e6f7420737570706f72746564000000000000604482015290519081900360640190fd5b600154604080517f9491951b000000000000000000000000000000000000000000000000000000008152905173ffffffffffffffffffffffffffffffffffffffff9092169163933aa667918391639491951b916004808201926020929091908290030181600087803b15801561370a57600080fd5b505af115801561371e573d6000803e3d6000fd5b505050506040513d602081101561373457600080fd5b5051604080517c010000000000000000000000000000000000000000000000000000000063ffffffff85160281527fffffffff0000000000000000000000000000000000000000000000000000000090921660048301525160248083019260209291908290030181600087803b1580156137ad57600080fd5b505af11580156137c1573d6000803e3d6000fd5b505050506040513d60208110156137d757600080fd5b5051151561386c57604080517f08c379a000000000000000000000000000000000000000000000000000000000815260206004820152602360248201527f426c61636b6c697374696e67206e6f7420737570706f7274656420627920746f60448201527f6b656e0000000000000000000000000000000000000000000000000000000000606482015290519081900360840190fd5b600154604080517ff9d50543000000000000000000000000000000000000000000000000000000008152905173ffffffffffffffffffffffffffffffffffffffff90921691631c870eee918491849163f9d505439160048083019260209291908290030181600087803b1580156138e257600080fd5b505af11580156138f6573d6000803e3d6000fd5b505050506040513d602081101561390c57600080fd5b5051604080517c010000000000000000000000000000000000000000000000000000000063ffffffff861602815273ffffffffffffffffffffffffffffffffffffffff90931660048401527fffffffff00000000000000000000000000000000000000000000000000000000909116602483015251604480830192600092919082900301818387803b1580156139a157600080fd5b505af11580156139b5573d6000803e3d6000fd5b5050600154604080517fc1c49cbb000000000000000000000000000000000000000000000000000000008152905173ffffffffffffffffffffffffffffffffffffffff9092169350631c870eee92508491849163c1c49cbb9160048083019260209291908290030181600087803b158015613a2f57600080fd5b505af1158015613a43573d6000803e3d6000fd5b505050506040513d6020811015613a5957600080fd5b5051604080517c010000000000000000000000000000000000000000000000000000000063ffffffff861602815273ffffffffffffffffffffffffffffffffffffffff90931660048401527fffffffff00000000000000000000000000000000000000000000000000000000909116602483015251604480830192600092919082900301818387803b158015613aee57600080fd5b505af1158015613b02573d6000803e3d6000fd5b5050600154604080517f9491951b000000000000000000000000000000000000000000000000000000008152905173ffffffffffffffffffffffffffffffffffffffff9092169350635317e444925084918491639491951b9160048083019260209291908290030181600087803b158015613b7c57600080fd5b505af1158015613b90573d6000803e3d6000fd5b505050506040513d6020811015613ba657600080fd5b5051604080517c010000000000000000000000000000000000000000000000000000000063ffffffff861602815273ffffffffffffffffffffffffffffffffffffffff90931660048401527fffffffff00000000000000000000000000000000000000000000000000000000909116602483015251604480830192600092919082900301818387803b158015613c3b57600080fd5b505af1158015613c4f573d6000803e3d6000fd5b505060405173ffffffffffffffffffffffffffffffffffffffff841692507f86b7e0c3e1db481670ce05712af57844698476ca35579a16697e6be0452808689150600090a250565b600154604080517f88f14b0e000000000000000000000000000000000000000000000000000000008152905173ffffffffffffffffffffffffffffffffffffffff9092169163933aa6679183916388f14b0e916004808201926020929091908290030181600087803b158015613d0c57600080fd5b505af1158015613d20573d6000803e3d6000fd5b505050506040513d6020811015613d3657600080fd5b5051604080517c010000000000000000000000000000000000000000000000000000000063ffffffff85160281527fffffffff0000000000000000000000000000000000000000000000000000000090921660048301525160248083019260209291908290030181600087803b158015613daf57600080fd5b505af1158015613dc3573d6000803e3d6000fd5b505050506040513d6020811015613dd957600080fd5b50511515613e4857604080517f08c379a000000000000000000000000000000000000000000000000000000000815260206004820152601e60248201527f4d696e74696e67206e6f7420737570706f7274656420627920746f6b656e0000604482015290519081900360640190fd5b600154604080517f88f14b0e000000000000000000000000000000000000000000000000000000008152905173ffffffffffffffffffffffffffffffffffffffff90921691635317e44491849184916388f14b0e9160048083019260209291908290030181600087803b158015613ebe57600080fd5b505af1158015613ed2573d6000803e3d6000fd5b505050506040513d6020811015613ee857600080fd5b5051604080517c010000000000000000000000000000000000000000000000000000000063ffffffff861602815273ffffffffffffffffffffffffffffffffffffffff90931660048401527fffffffff00000000000000000000000000000000000000000000000000000000909116602483015251604480830192600092919082900301818387803b158015613f7d57600080fd5b505af1158015613f91573d6000803e3d6000fd5b505060405173ffffffffffffffffffffffffffffffffffffffff841692507fc93cfdd5d8f442c448a02ed11ccff64355643272c9f2be94b723f2181af1a8969150600090a250565b6000903b1190565b600154604080517ff9d50543000000000000000000000000000000000000000000000000000000008152905173ffffffffffffffffffffffffffffffffffffffff9092169163933aa66791839163f9d50543916004808201926020929091908290030181600087803b15801561405657600080fd5b505af115801561406a573d6000803e3d6000fd5b505050506040513d602081101561408057600080fd5b5051604080517c010000000000000000000000000000000000000000000000000000000063ffffffff85160281527fffffffff0000000000000000000000000000000000000000000000000000000090921660048301525160248083019260209291908290030181600087803b1580156140f957600080fd5b505af115801561410d573d6000803e3d6000fd5b505050506040513d602081101561412357600080fd5b5051151561419257604080517f08c379a000000000000000000000000000000000000000000000000000000000815260206004820152601d60248201527f436f6e76657274696e672043555344206e6f7420737570706f72746564000000604482015290519081900360640190fd5b600154604080517fc1c49cbb000000000000000000000000000000000000000000000000000000008152905173ffffffffffffffffffffffffffffffffffffffff9092169163933aa66791839163c1c49cbb916004808201926020929091908290030181600087803b15801561420757600080fd5b505af115801561421b573d6000803e3d6000fd5b505050506040513d602081101561423157600080fd5b5051604080517c010000000000000000000000000000000000000000000000000000000063ffffffff85160281527fffffffff0000000000000000000000000000000000000000000000000000000090921660048301525160248083019260209291908290030181600087803b1580156142aa57600080fd5b505af11580156142be573d6000803e3d6000fd5b505050506040513d60208110156142d457600080fd5b5051151561434357604080517f08c379a000000000000000000000000000000000000000000000000000000000815260206004820152601a60248201527f4275726e696e672043555344206e6f7420737570706f72746564000000000000604482015290519081900360640190fd5b600154604080517f9491951b000000000000000000000000000000000000000000000000000000008152905173ffffffffffffffffffffffffffffffffffffffff9092169163933aa667918391639491951b916004808201926020929091908290030181600087803b1580156143b857600080fd5b505af11580156143cc573d6000803e3d6000fd5b505050506040513d60208110156143e257600080fd5b5051604080517c010000000000000000000000000000000000000000000000000000000063ffffffff85160281527fffffffff0000000000000000000000000000000000000000000000000000000090921660048301525160248083019260209291908290030181600087803b15801561445b57600080fd5b505af115801561446f573d6000803e3d6000fd5b505050506040513d602081101561448557600080fd5b5051151561451a57604080517f08c379a000000000000000000000000000000000000000000000000000000000815260206004820152602360248201527f426c61636b6c697374696e67206e6f7420737570706f7274656420627920746f60448201527f6b656e0000000000000000000000000000000000000000000000000000000000606482015290519081900360840190fd5b600154604080517ff9d50543000000000000000000000000000000000000000000000000000000008152905173ffffffffffffffffffffffffffffffffffffffff90921691635317e444918491849163f9d505439160048083019260209291908290030181600087803b15801561459057600080fd5b505af11580156145a4573d6000803e3d6000fd5b505050506040513d60208110156145ba57600080fd5b5051604080517c010000000000000000000000000000000000000000000000000000000063ffffffff861602815273ffffffffffffffffffffffffffffffffffffffff90931660048401527fffffffff00000000000000000000000000000000000000000000000000000000909116602483015251604480830192600092919082900301818387803b15801561464f57600080fd5b505af1158015614663573d6000803e3d6000fd5b5050600154604080517fc1c49cbb000000000000000000000000000000000000000000000000000000008152905173ffffffffffffffffffffffffffffffffffffffff9092169350635317e44492508491849163c1c49cbb9160048083019260209291908290030181600087803b1580156146dd57600080fd5b505af11580156146f1573d6000803e3d6000fd5b505050506040513d602081101561470757600080fd5b5051604080517c010000000000000000000000000000000000000000000000000000000063ffffffff861602815273ffffffffffffffffffffffffffffffffffffffff90931660048401527fffffffff00000000000000000000000000000000000000000000000000000000909116602483015251604480830192600092919082900301818387803b15801561479c57600080fd5b505af11580156147b0573d6000803e3d6000fd5b5050600154604080517f9491951b000000000000000000000000000000000000000000000000000000008152905173ffffffffffffffffffffffffffffffffffffffff9092169350631c870eee925084918491639491951b9160048083019260209291908290030181600087803b15801561482a57600080fd5b505af115801561483e573d6000803e3d6000fd5b505050506040513d602081101561485457600080fd5b5051604080517c010000000000000000000000000000000000000000000000000000000063ffffffff861602815273ffffffffffffffffffffffffffffffffffffffff90931660048401527fffffffff00000000000000000000000000000000000000000000000000000000909116602483015251604480830192600092919082900301818387803b1580156148e957600080fd5b505af11580156148fd573d6000803e3d6000fd5b505060405173ffffffffffffffffffffffffffffffffffffffff841692507f8ed6db9e8aeb425f391c919c79778f978777d9e9e9f357656b139b2e9251de929150600090a250565b600154604080517ff9d50543000000000000000000000000000000000000000000000000000000008152905173ffffffffffffffffffffffffffffffffffffffff9092169163933aa66791839163f9d50543916004808201926020929091908290030181600087803b1580156149ba57600080fd5b505af11580156149ce573d6000803e3d6000fd5b505050506040513d60208110156149e457600080fd5b5051604080517c010000000000000000000000000000000000000000000000000000000063ffffffff85160281527fffffffff0000000000000000000000000000000000000000000000000000000090921660048301525160248083019260209291908290030181600087803b158015614a5d57600080fd5b505af1158015614a71573d6000803e3d6000fd5b505050506040513d6020811015614a8757600080fd5b50511515614af657604080517f08c379a000000000000000000000000000000000000000000000000000000000815260206004820152601d60248201527f436f6e76657274696e672043555344206e6f7420737570706f72746564000000604482015290519081900360640190fd5b600154604080517fc1c49cbb000000000000000000000000000000000000000000000000000000008152905173ffffffffffffffffffffffffffffffffffffffff9092169163933aa66791839163c1c49cbb916004808201926020929091908290030181600087803b158015614b6b57600080fd5b505af1158015614b7f573d6000803e3d6000fd5b505050506040513d6020811015614b9557600080fd5b5051604080517c010000000000000000000000000000000000000000000000000000000063ffffffff85160281527fffffffff0000000000000000000000000000000000000000000000000000000090921660048301525160248083019260209291908290030181600087803b158015614c0e57600080fd5b505af1158015614c22573d6000803e3d6000fd5b505050506040513d6020811015614c3857600080fd5b50511515614ca757604080517f08c379a000000000000000000000000000000000000000000000000000000000815260206004820152601a60248201527f4275726e696e672043555344206e6f7420737570706f72746564000000000000604482015290519081900360640190fd5b600154604080517f9491951b000000000000000000000000000000000000000000000000000000008152905173ffffffffffffffffffffffffffffffffffffffff9092169163933aa667918391639491951b916004808201926020929091908290030181600087803b158015614d1c57600080fd5b505af1158015614d30573d6000803e3d6000fd5b505050506040513d6020811015614d4657600080fd5b5051604080517c010000000000000000000000000000000000000000000000000000000063ffffffff85160281527fffffffff0000000000000000000000000000000000000000000000000000000090921660048301525160248083019260209291908290030181600087803b158015614dbf57600080fd5b505af1158015614dd3573d6000803e3d6000fd5b505050506040513d6020811015614de957600080fd5b50511515614e7e57604080517f08c379a000000000000000000000000000000000000000000000000000000000815260206004820152602360248201527f426c61636b6c697374696e67206e6f7420737570706f7274656420627920746f60448201527f6b656e0000000000000000000000000000000000000000000000000000000000606482015290519081900360840190fd5b600154604080517ff9d50543000000000000000000000000000000000000000000000000000000008152905173ffffffffffffffffffffffffffffffffffffffff90921691635317e444918491849163f9d505439160048083019260209291908290030181600087803b158015614ef457600080fd5b505af1158015614f08573d6000803e3d6000fd5b505050506040513d6020811015614f1e57600080fd5b5051604080517c010000000000000000000000000000000000000000000000000000000063ffffffff861602815273ffffffffffffffffffffffffffffffffffffffff90931660048401527fffffffff00000000000000000000000000000000000000000000000000000000909116602483015251604480830192600092919082900301818387803b158015614fb357600080fd5b505af1158015614fc7573d6000803e3d6000fd5b5050600154604080517fc1c49cbb000000000000000000000000000000000000000000000000000000008152905173ffffffffffffffffffffffffffffffffffffffff9092169350635317e44492508491849163c1c49cbb9160048083019260209291908290030181600087803b15801561504157600080fd5b505af1158015615055573d6000803e3d6000fd5b505050506040513d602081101561506b57600080fd5b5051604080517c010000000000000000000000000000000000000000000000000000000063ffffffff861602815273ffffffffffffffffffffffffffffffffffffffff90931660048401527fffffffff00000000000000000000000000000000000000000000000000000000909116602483015251604480830192600092919082900301818387803b15801561510057600080fd5b505af1158015615114573d6000803e3d6000fd5b5050600154604080517f9491951b000000000000000000000000000000000000000000000000000000008152905173ffffffffffffffffffffffffffffffffffffffff9092169350635317e444925084918491639491951b9160048083019260209291908290030181600087803b15801561518e57600080fd5b505af11580156151a2573d6000803e3d6000fd5b505050506040513d60208110156151b857600080fd5b5051604080517c010000000000000000000000000000000000000000000000000000000063ffffffff861602815273ffffffffffffffffffffffffffffffffffffffff90931660048401527fffffffff00000000000000000000000000000000000000000000000000000000909116602483015251604480830192600092919082900301818387803b15801561524d57600080fd5b505af1158015615261573d6000803e3d6000fd5b505060405173ffffffffffffffffffffffffffffffffffffffff841692507f99fac8adcffc13d01bc3b656d54bfa9e5f9a77ace9bf19f5a1a9469990a782b79150600090a250565b73ffffffffffffffffffffffffffffffffffffffff811615156152cb57600080fd5b6000805460405173ffffffffffffffffffffffffffffffffffffffff808516939216917f8be0079c531659141344cd1fd0a4f28419497f9722a3daafe3b4186f6b6457e091a3600080547fffffffffffffffffffffffff00000000000000000000000000000000000000001673ffffffffffffffffffffffffffffffffffffffff92909216919091179055565b600154604080517f88f14b0e000000000000000000000000000000000000000000000000000000008152905173ffffffffffffffffffffffffffffffffffffffff9092169163933aa6679183916388f14b0e916004808201926020929091908290030181600087803b1580156153cd57600080fd5b505af11580156153e1573d6000803e3d6000fd5b505050506040513d60208110156153f757600080fd5b5051604080517c010000000000000000000000000000000000000000000000000000000063ffffffff85160281527fffffffff0000000000000000000000000000000000000000000000000000000090921660048301525160248083019260209291908290030181600087803b15801561547057600080fd5b505af1158015615484573d6000803e3d6000fd5b505050506040513d602081101561549a57600080fd5b5051151561550957604080517f08c379a000000000000000000000000000000000000000000000000000000000815260206004820152601e60248201527f4d696e74696e67206e6f7420737570706f7274656420627920746f6b656e0000604482015290519081900360640190fd5b600154604080517f88f14b0e000000000000000000000000000000000000000000000000000000008152905173ffffffffffffffffffffffffffffffffffffffff90921691631c870eee91849184916388f14b0e9160048083019260209291908290030181600087803b15801561557f57600080fd5b505af1158015615593573d6000803e3d6000fd5b505050506040513d60208110156155a957600080fd5b5051604080517c010000000000000000000000000000000000000000000000000000000063ffffffff861602815273ffffffffffffffffffffffffffffffffffffffff90931660048401527fffffffff00000000000000000000000000000000000000000000000000000000909116602483015251604480830192600092919082900301818387803b15801561563e57600080fd5b505af1158015615652573d6000803e3d6000fd5b505060405173ffffffffffffffffffffffffffffffffffffffff841692507fcec52196e972044edde8689a1b608e459c5946b7f3e5c8cd3d6d8e126d422e1c9150600090a2505600a165627a7a7230582025c4bc615867a79ef4c1e77058cd50211f2f6a2775982b60e80b82fe66d197230029",
  "source": "pragma solidity ^0.4.24;\r\n\r\nimport \"../Regulator.sol\";\r\n\r\n/**\r\n * @title CarbonDollarRegulator\r\n * @dev CarbonDollarRegulator is a type of Regulator that modifies its definitions of\r\n * what constitutes a \"whitelisted/nonlisted/blacklisted\" user. A CarbonDollar\r\n * provides a user the additional ability to convert from CUSD into a whtielisted stablecoin\r\n *\r\n */\r\ncontract CarbonDollarRegulator is Regulator {\r\n\r\n    constructor(address p, address v) Regulator(p,v) public {}\r\n\r\n    // Setters: CarbonDollarRegulator overrides the definitions of whitelisted, nonlisted, and blacklisted setUserPermission\r\n\r\n    // CarbonDollar whitelisted users burn CUSD into a WhitelistedToken. Unlike PermissionedToken \r\n    // whitelisted users, CarbonDollar whitelisted users cannot burn ordinary CUSD without converting into WT\r\n    function _setWhitelistedUser(address _who) internal {\r\n        require(permissions.isPermission(permissions.CONVERT_CARBON_DOLLAR_SIG()), \"Converting CUSD not supported\");\r\n        require(permissions.isPermission(permissions.BURN_CARBON_DOLLAR_SIG()), \"Burning CUSD not supported\");\r\n        require(permissions.isPermission(permissions.BLACKLISTED_SIG()), \"Blacklisting not supported by token\");\r\n        permissions.setUserPermission(_who, permissions.CONVERT_CARBON_DOLLAR_SIG());\r\n        permissions.setUserPermission(_who, permissions.BURN_CARBON_DOLLAR_SIG());\r\n        permissions.removeUserPermission(_who, permissions.BLACKLISTED_SIG());\r\n        emit SetWhitelistedUser(_who);\r\n\r\n    }\r\n\r\n    function _setBlacklistedUser(address _who) internal {\r\n        require(permissions.isPermission(permissions.CONVERT_CARBON_DOLLAR_SIG()), \"Converting CUSD not supported\");\r\n        require(permissions.isPermission(permissions.BURN_CARBON_DOLLAR_SIG()), \"Burning CUSD not supported\");\r\n        require(permissions.isPermission(permissions.BLACKLISTED_SIG()), \"Blacklisting not supported by token\");\r\n        permissions.removeUserPermission(_who, permissions.CONVERT_CARBON_DOLLAR_SIG());\r\n        permissions.removeUserPermission(_who, permissions.BURN_CARBON_DOLLAR_SIG());\r\n        permissions.setUserPermission(_who, permissions.BLACKLISTED_SIG());\r\n        emit SetBlacklistedUser(_who);\r\n    }\r\n\r\n    function _setNonlistedUser(address _who) internal {\r\n        require(permissions.isPermission(permissions.CONVERT_CARBON_DOLLAR_SIG()), \"Converting CUSD not supported\");\r\n        require(permissions.isPermission(permissions.BURN_CARBON_DOLLAR_SIG()), \"Burning CUSD not supported\");\r\n        require(permissions.isPermission(permissions.BLACKLISTED_SIG()), \"Blacklisting not supported by token\");\r\n        permissions.removeUserPermission(_who, permissions.CONVERT_CARBON_DOLLAR_SIG());\r\n        permissions.removeUserPermission(_who, permissions.BURN_CARBON_DOLLAR_SIG());\r\n        permissions.removeUserPermission(_who, permissions.BLACKLISTED_SIG());\r\n        emit SetNonlistedUser(_who);\r\n    }\r\n\r\n    // Getters\r\n    function isWhitelistedUser(address _who) public view returns(bool) {\r\n        return (hasUserPermission(_who, permissions.CONVERT_CARBON_DOLLAR_SIG()) \r\n        && hasUserPermission(_who, permissions.BURN_CARBON_DOLLAR_SIG()) \r\n        && !hasUserPermission(_who, permissions.BLACKLISTED_SIG()));\r\n    }\r\n\r\n    function isBlacklistedUser(address _who) public view returns(bool) {\r\n        return (!hasUserPermission(_who, permissions.CONVERT_CARBON_DOLLAR_SIG()) \r\n        && !hasUserPermission(_who, permissions.BURN_CARBON_DOLLAR_SIG()) \r\n        && hasUserPermission(_who, permissions.BLACKLISTED_SIG()));\r\n    }\r\n\r\n    function isNonlistedUser(address _who) public view returns(bool) {\r\n        return (!hasUserPermission(_who, permissions.CONVERT_CARBON_DOLLAR_SIG()) \r\n        && !hasUserPermission(_who, permissions.BURN_CARBON_DOLLAR_SIG()) \r\n        && !hasUserPermission(_who, permissions.BLACKLISTED_SIG()));\r\n    }\r\n}",
  "sourcePath": "C:\\Users\\npain\\Projects\\Carbon\\fiat_gateway\\contracts\\regulator\\carbonDollarRegulator\\CarbonDollarRegulator.sol",
  "compiler": {
    "name": "solc",
    "version": "0.4.24+commit.e67f0147.Emscripten.clang"
  },
  "schemaVersion": "2.0.1",
  "updatedAt": "2018-08-17T20:11:44.149Z"
}