{
  "contractName": "CarbonDollarStorage",
  "abi": [
    {
      "constant": true,
      "inputs": [],
      "name": "stablecoinFees",
      "outputs": [
        {
          "name": "",
          "type": "address"
        }
      ],
      "payable": false,
      "stateMutability": "view",
      "type": "function"
    },
    {
      "constant": true,
      "inputs": [],
      "name": "stablecoinWhitelist",
      "outputs": [
        {
          "name": "",
          "type": "address"
        }
      ],
      "payable": false,
      "stateMutability": "view",
      "type": "function"
    },
    {
      "inputs": [
        {
          "name": "_feesheet",
          "type": "address"
        },
        {
          "name": "_whitelist",
          "type": "address"
        }
      ],
      "payable": false,
      "stateMutability": "nonpayable",
      "type": "constructor"
    },
    {
      "constant": false,
      "inputs": [],
      "name": "claimFeeOwnership",
      "outputs": [],
      "payable": false,
      "stateMutability": "nonpayable",
      "type": "function"
    },
    {
      "constant": false,
      "inputs": [],
      "name": "claimWhitelistOwnership",
      "outputs": [],
      "payable": false,
      "stateMutability": "nonpayable",
      "type": "function"
    }
  ],
  "bytecode": "0x608060405234801561001057600080fd5b506040516040806102b783398101604052805160209091015160008054600160a060020a03938416600160a060020a03199182161790915560018054939092169216919091179055610250806100676000396000f3006080604052600436106100615763ffffffff7c01000000000000000000000000000000000000000000000000000000006000350416632a9a04ba8114610066578063956ce0931461007d578063d965156614610092578063e14852e3146100d0575b600080fd5b34801561007257600080fd5b5061007b6100e5565b005b34801561008957600080fd5b5061007b610185565b34801561009e57600080fd5b506100a76101ec565b6040805173ffffffffffffffffffffffffffffffffffffffff9092168252519081900360200190f35b3480156100dc57600080fd5b506100a7610208565b600160009054906101000a900473ffffffffffffffffffffffffffffffffffffffff1673ffffffffffffffffffffffffffffffffffffffff16634e71e0c86040518163ffffffff167c0100000000000000000000000000000000000000000000000000000000028152600401600060405180830381600087803b15801561016b57600080fd5b505af115801561017f573d6000803e3d6000fd5b50505050565b60008054604080517f4e71e0c8000000000000000000000000000000000000000000000000000000008152905173ffffffffffffffffffffffffffffffffffffffff90921692634e71e0c89260048084019382900301818387803b15801561016b57600080fd5b60005473ffffffffffffffffffffffffffffffffffffffff1681565b60015473ffffffffffffffffffffffffffffffffffffffff16815600a165627a7a723058205baf34c5aaa9555e8d4903502f3647f3ea827535761f972c1a08bebc390d633d0029",
  "source": "pragma solidity ^0.4.24;\r\n\r\nimport \"./FeeSheet.sol\";\r\nimport \"./StablecoinWhitelist.sol\";\r\n\r\n/**\r\n* @title CarbonDollarStorage\r\n* @notice Contains necessary storage contracts for CarbonDollar (FeeSheet and StablecoinWhitelist).\r\n*/\r\ncontract CarbonDollarStorage {\r\n    /**\r\n        Storage\r\n    */\r\n    FeeSheet public stablecoinFees;\r\n    StablecoinWhitelist public stablecoinWhitelist;\r\n\r\n    /**\r\n    * @dev a CarbonDollarStorage can set its storages only once, on construction\r\n    * @param _feesheet address of the new FeeSheet\r\n    * @param _whitelist address of the new StablecoinWhitelist\r\n    **/\r\n    constructor (address _feesheet, address _whitelist) public {\r\n        stablecoinFees = FeeSheet(_feesheet);\r\n        stablecoinWhitelist = StablecoinWhitelist(_whitelist);\r\n    }\r\n\r\n    /**\r\n    * @dev claim ownership of fee sheet passed into constructor.\r\n    **/\r\n    function claimFeeOwnership() public {\r\n        stablecoinFees.claimOwnership();\r\n    }\r\n\r\n    /**\r\n    * @dev claim ownership of stablecoin whitelist sheet passed into constructor.\r\n    **/\r\n    function claimWhitelistOwnership() public {\r\n        stablecoinWhitelist.claimOwnership();\r\n    }\r\n}",
  "sourcePath": "C:\\Users\\npain\\Projects\\Carbon\\fiat_gateway\\contracts\\tokens\\carbonToken\\dataStorage\\CarbonDollarStorage.sol",
  "compiler": {
    "name": "solc",
    "version": "0.4.24+commit.e67f0147.Emscripten.clang"
  },
  "schemaVersion": "2.0.1",
  "updatedAt": "2018-08-18T15:48:20.677Z"
}