{
  "contractName": "DelayedUpgradeabilityProxyMock",
  "abi": [
    {
      "constant": true,
      "inputs": [],
      "name": "pendingImplementationIsSet",
      "outputs": [
        {
          "name": "",
          "type": "bool"
        }
      ],
      "payable": false,
      "stateMutability": "view",
      "type": "function"
    },
    {
      "constant": true,
      "inputs": [],
      "name": "pendingImplementationApplicationDate",
      "outputs": [
        {
          "name": "",
          "type": "uint256"
        }
      ],
      "payable": false,
      "stateMutability": "view",
      "type": "function"
    },
    {
      "constant": true,
      "inputs": [],
      "name": "pendingImplementation",
      "outputs": [
        {
          "name": "",
          "type": "address"
        }
      ],
      "payable": false,
      "stateMutability": "view",
      "type": "function"
    },
    {
      "constant": true,
      "inputs": [],
      "name": "UPGRADE_DELAY",
      "outputs": [
        {
          "name": "",
          "type": "uint256"
        }
      ],
      "payable": false,
      "stateMutability": "view",
      "type": "function"
    },
    {
      "constant": false,
      "inputs": [],
      "name": "claimOwnership",
      "outputs": [],
      "payable": false,
      "stateMutability": "nonpayable",
      "type": "function"
    },
    {
      "constant": true,
      "inputs": [],
      "name": "owner",
      "outputs": [
        {
          "name": "",
          "type": "address"
        }
      ],
      "payable": false,
      "stateMutability": "view",
      "type": "function"
    },
    {
      "constant": true,
      "inputs": [],
      "name": "pendingOwner",
      "outputs": [
        {
          "name": "",
          "type": "address"
        }
      ],
      "payable": false,
      "stateMutability": "view",
      "type": "function"
    },
    {
      "constant": false,
      "inputs": [
        {
          "name": "_newOwner",
          "type": "address"
        }
      ],
      "name": "transferOwnership",
      "outputs": [],
      "payable": false,
      "stateMutability": "nonpayable",
      "type": "function"
    },
    {
      "inputs": [
        {
          "name": "i",
          "type": "address"
        }
      ],
      "payable": false,
      "stateMutability": "nonpayable",
      "type": "constructor"
    },
    {
      "payable": true,
      "stateMutability": "payable",
      "type": "fallback"
    },
    {
      "anonymous": false,
      "inputs": [
        {
          "indexed": true,
          "name": "previousOwner",
          "type": "address"
        },
        {
          "indexed": true,
          "name": "newOwner",
          "type": "address"
        }
      ],
      "name": "OwnershipTransferred",
      "type": "event"
    },
    {
      "anonymous": false,
      "inputs": [
        {
          "indexed": true,
          "name": "oldPendingImplementation",
          "type": "address"
        },
        {
          "indexed": true,
          "name": "newPendingImplementation",
          "type": "address"
        }
      ],
      "name": "PendingImplementationChanged",
      "type": "event"
    },
    {
      "anonymous": false,
      "inputs": [
        {
          "indexed": false,
          "name": "implementation",
          "type": "address"
        }
      ],
      "name": "Upgraded",
      "type": "event"
    },
    {
      "constant": false,
      "inputs": [
        {
          "name": "implementation",
          "type": "address"
        }
      ],
      "name": "upgradeTo",
      "outputs": [],
      "payable": false,
      "stateMutability": "nonpayable",
      "type": "function"
    }
  ],
  "bytecode": "0x60806040526224ea0060025534801561001757600080fd5b506040516020806108a683398101604081815291517f6f72672e7a657070656c696e6f732e70726f78792e696d706c656d656e74617482527f696f6e000000000000000000000000000000000000000000000000000000000060208301529151908190036023019020819081906000805160206108868339815191521461009a57fe5b6100ac816401000000006100d2810204565b505060038054600160a060020a0319908116331790915560048054909116905550610198565b60006100ea826401000000006106ab61019082021704565b151561017d57604080517f08c379a000000000000000000000000000000000000000000000000000000000815260206004820152603b60248201527f43616e6e6f742073657420612070726f787920696d706c656d656e746174696f60448201527f6e20746f2061206e6f6e2d636f6e747261637420616464726573730000000000606482015290519081900360840190fd5b5060008051602061088683398151915255565b6000903b1190565b6106df806101a76000396000f3006080604052600436106100985763ffffffff7c01000000000000000000000000000000000000000000000000000000006000350416630fdca7f081146100a257806312c3c5bd146100cb5780633659cfe6146100f2578063396f7b231461012057806347fe8b1d1461015e5780634e71e0c8146101735780638da5cb5b14610188578063e30c39781461019d578063f2fde38b146101b2575b6100a06101e0565b005b3480156100ae57600080fd5b506100b76101fa565b604080519115158252519081900360200190f35b3480156100d757600080fd5b506100e061021b565b60408051918252519081900360200190f35b3480156100fe57600080fd5b506100a073ffffffffffffffffffffffffffffffffffffffff60043516610221565b34801561012c57600080fd5b50610135610251565b6040805173ffffffffffffffffffffffffffffffffffffffff9092168252519081900360200190f35b34801561016a57600080fd5b506100e061026d565b34801561017f57600080fd5b506100a0610273565b34801561019457600080fd5b5061013561032f565b3480156101a957600080fd5b5061013561034b565b3480156101be57600080fd5b506100a073ffffffffffffffffffffffffffffffffffffffff60043516610367565b6101e86103f4565b6101f86101f3610470565b610495565b565b60005474010000000000000000000000000000000000000000900460ff1681565b60015481565b60035473ffffffffffffffffffffffffffffffffffffffff16331461024557600080fd5b61024e816104b9565b50565b60005473ffffffffffffffffffffffffffffffffffffffff1681565b60025481565b60045473ffffffffffffffffffffffffffffffffffffffff16331461029757600080fd5b60045460035460405173ffffffffffffffffffffffffffffffffffffffff92831692909116907f8be0079c531659141344cd1fd0a4f28419497f9722a3daafe3b4186f6b6457e090600090a360048054600380547fffffffffffffffffffffffff000000000000000000000000000000000000000090811673ffffffffffffffffffffffffffffffffffffffff841617909155169055565b60035473ffffffffffffffffffffffffffffffffffffffff1681565b60045473ffffffffffffffffffffffffffffffffffffffff1681565b60035473ffffffffffffffffffffffffffffffffffffffff16331461038b57600080fd5b73ffffffffffffffffffffffffffffffffffffffff811615156103ad57600080fd5b600480547fffffffffffffffffffffffff00000000000000000000000000000000000000001673ffffffffffffffffffffffffffffffffffffffff92909216919091179055565b60005474010000000000000000000000000000000000000000900460ff16801561041f575060015442115b156101f8576000546104469073ffffffffffffffffffffffffffffffffffffffff16610580565b600080547fffffffffffffffffffffff00ffffffffffffffffffffffffffffffffffffffff169055565b7f7050c9e0f4ca769c69bd3a8ef740bc37934f8e2c036e5a723fd8ee048ed3f8c35490565b3660008037600080366000845af43d6000803e8080156104b4573d6000f35b3d6000fd5b600080547fffffffffffffffffffffff00ffffffffffffffffffffffffffffffffffffffff73ffffffffffffffffffffffffffffffffffffffff8481167fffffffffffffffffffffffff0000000000000000000000000000000000000000841681179290921674010000000000000000000000000000000000000000178455604051921692909183917fd272ea007d56dfdbd4784dc98e326b0e9230a7c8100e10d11c72ab1fdf140d4791a360025461057990429063ffffffff6105d516565b6001555050565b610589816105e8565b6040805173ffffffffffffffffffffffffffffffffffffffff8316815290517fbc7cd75a20ee27fd9adebab32041f755214dbc6bffa90cc0225b39da2e5c2d3b9181900360200190a150565b818101828110156105e257fe5b92915050565b60006105f3826106ab565b151561068657604080517f08c379a000000000000000000000000000000000000000000000000000000000815260206004820152603b60248201527f43616e6e6f742073657420612070726f787920696d706c656d656e746174696f60448201527f6e20746f2061206e6f6e2d636f6e747261637420616464726573730000000000606482015290519081900360840190fd5b507f7050c9e0f4ca769c69bd3a8ef740bc37934f8e2c036e5a723fd8ee048ed3f8c355565b6000903b11905600a165627a7a72305820eea84c2266746e81ff40a406b240cbe0d68724b743c5ceaa35ab9f1b014bb26800297050c9e0f4ca769c69bd3a8ef740bc37934f8e2c036e5a723fd8ee048ed3f8c3",
  "source": "pragma solidity ^0.4.24;\r\n\r\nimport \"../DelayedUpgradeabilityProxy.sol\";\r\n// import \"openzeppelin-solidity/contracts/ownership/Ownable.sol\";\r\nimport '../../helpers/Ownable.sol';\r\n\r\ncontract DelayedUpgradeabilityProxyMock is DelayedUpgradeabilityProxy, Ownable {\r\n    constructor(address i) DelayedUpgradeabilityProxy(i) public {}\r\n\r\n    function upgradeTo(address implementation) public onlyOwner {\r\n        _setPendingUpgrade(implementation);\r\n    }\r\n}",
  "sourcePath": "C:\\Users\\npain\\Projects\\Carbon\\fiat_gateway\\contracts\\upgradeability\\mocks\\DelayedUpgradeabilityProxyMock.sol",
  "compiler": {
    "name": "solc",
    "version": "0.4.24+commit.e67f0147.Emscripten.clang"
  },
  "schemaVersion": "2.0.1",
  "updatedAt": "2018-08-18T15:48:20.696Z"
}