{
  "contractName": "DelayedUpgradeabilityProxy",
  "abi": [
    {
      "constant": true,
      "inputs": [],
      "name": "pendingImplementationIsSet",
      "outputs": [
        {
          "name": "",
          "type": "bool"
        }
      ],
      "payable": false,
      "stateMutability": "view",
      "type": "function"
    },
    {
      "constant": true,
      "inputs": [],
      "name": "pendingImplementationApplicationDate",
      "outputs": [
        {
          "name": "",
          "type": "uint256"
        }
      ],
      "payable": false,
      "stateMutability": "view",
      "type": "function"
    },
    {
      "constant": true,
      "inputs": [],
      "name": "pendingImplementation",
      "outputs": [
        {
          "name": "",
          "type": "address"
        }
      ],
      "payable": false,
      "stateMutability": "view",
      "type": "function"
    },
    {
      "constant": true,
      "inputs": [],
      "name": "UPGRADE_DELAY",
      "outputs": [
        {
          "name": "",
          "type": "uint256"
        }
      ],
      "payable": false,
      "stateMutability": "view",
      "type": "function"
    },
    {
      "inputs": [
        {
          "name": "i",
          "type": "address"
        }
      ],
      "payable": false,
      "stateMutability": "nonpayable",
      "type": "constructor"
    },
    {
      "payable": true,
      "stateMutability": "payable",
      "type": "fallback"
    },
    {
      "anonymous": false,
      "inputs": [
        {
          "indexed": true,
          "name": "oldPendingImplementation",
          "type": "address"
        },
        {
          "indexed": true,
          "name": "newPendingImplementation",
          "type": "address"
        }
      ],
      "name": "PendingImplementationChanged",
      "type": "event"
    },
    {
      "anonymous": false,
      "inputs": [
        {
          "indexed": false,
          "name": "implementation",
          "type": "address"
        }
      ],
      "name": "Upgraded",
      "type": "event"
    }
  ],
  "bytecode": "0x60806040526224ea0060025534801561001757600080fd5b5060405160208061052883398101604081815291517f6f72672e7a657070656c696e6f732e70726f78792e696d706c656d656e74617482527f696f6e00000000000000000000000000000000000000000000000000000000006020830152915190819003602301902081906000805160206105088339815191521461009857fe5b6100aa816401000000006100b1810204565b5050610177565b60006100c98264010000000061034e61016f82021704565b151561015c57604080517f08c379a000000000000000000000000000000000000000000000000000000000815260206004820152603b60248201527f43616e6e6f742073657420612070726f787920696d706c656d656e746174696f60448201527f6e20746f2061206e6f6e2d636f6e747261637420616464726573730000000000606482015290519081900360840190fd5b5060008051602061050883398151915255565b6000903b1190565b610382806101866000396000f3006080604052600436106100615763ffffffff7c01000000000000000000000000000000000000000000000000000000006000350416630fdca7f0811461006b57806312c3c5bd14610094578063396f7b23146100bb57806347fe8b1d146100f9575b61006961010e565b005b34801561007757600080fd5b50610080610128565b604080519115158252519081900360200190f35b3480156100a057600080fd5b506100a9610149565b60408051918252519081900360200190f35b3480156100c757600080fd5b506100d061014f565b6040805173ffffffffffffffffffffffffffffffffffffffff9092168252519081900360200190f35b34801561010557600080fd5b506100a961016b565b610116610171565b6101266101216101ed565b610212565b565b60005474010000000000000000000000000000000000000000900460ff1681565b60015481565b60005473ffffffffffffffffffffffffffffffffffffffff1681565b60025481565b60005474010000000000000000000000000000000000000000900460ff16801561019c575060015442115b15610126576000546101c39073ffffffffffffffffffffffffffffffffffffffff16610236565b600080547fffffffffffffffffffffff00ffffffffffffffffffffffffffffffffffffffff169055565b7f7050c9e0f4ca769c69bd3a8ef740bc37934f8e2c036e5a723fd8ee048ed3f8c35490565b3660008037600080366000845af43d6000803e808015610231573d6000f35b3d6000fd5b61023f8161028b565b6040805173ffffffffffffffffffffffffffffffffffffffff8316815290517fbc7cd75a20ee27fd9adebab32041f755214dbc6bffa90cc0225b39da2e5c2d3b9181900360200190a150565b60006102968261034e565b151561032957604080517f08c379a000000000000000000000000000000000000000000000000000000000815260206004820152603b60248201527f43616e6e6f742073657420612070726f787920696d706c656d656e746174696f60448201527f6e20746f2061206e6f6e2d636f6e747261637420616464726573730000000000606482015290519081900360840190fd5b507f7050c9e0f4ca769c69bd3a8ef740bc37934f8e2c036e5a723fd8ee048ed3f8c355565b6000903b11905600a165627a7a723058205392f45013a6ac291520e238e4c3bf438d3e2e7b536c1ac505683625541cf29000297050c9e0f4ca769c69bd3a8ef740bc37934f8e2c036e5a723fd8ee048ed3f8c3",
  "source": "pragma solidity ^0.4.24;\r\n\r\nimport \"zos-lib/contracts/upgradeability/UpgradeabilityProxy.sol\";\r\nimport \"openzeppelin-solidity/contracts/math/SafeMath.sol\";\r\n\r\n/** \r\n * @title DelayedUpgradeabilityProxy\r\n * @notice Implements an upgradeability proxy with the option of\r\n * introducing pending implementations. \r\n */\r\ncontract DelayedUpgradeabilityProxy is UpgradeabilityProxy {\r\n    using SafeMath for uint256;\r\n\r\n    address public pendingImplementation;\r\n    bool public pendingImplementationIsSet;\r\n    uint256 public pendingImplementationApplicationDate; // Date on which to switch all contract calls to the new implementation\r\n    uint256 public UPGRADE_DELAY = 4 weeks;\r\n\r\n    event PendingImplementationChanged(address indexed oldPendingImplementation, address indexed newPendingImplementation);\r\n\r\n    constructor(address i) UpgradeabilityProxy(i) public {}\r\n\r\n    /**\r\n    * @notice Sets the pending implementation address of the proxy.\r\n    * This function is internal--uses of this proxy should wrap this function\r\n    * with a public function in order to make it externally callable.\r\n    * @param implementation Address of the new implementation.\r\n    */\r\n    function _setPendingUpgrade(address implementation) internal {\r\n        address oldPendingImplementation = pendingImplementation;\r\n        pendingImplementation = implementation;\r\n        pendingImplementationIsSet = true;\r\n        emit PendingImplementationChanged(oldPendingImplementation, implementation);\r\n        pendingImplementationApplicationDate = now.add(UPGRADE_DELAY);\r\n    }\r\n\r\n    /**\r\n    * @notice Overrides the _willFallback() function of Proxy, which enables some code to\r\n    * be executed prior to the fallback function. In this case, the purpose of this code\r\n    * is to automatically switch the implementation to the pending implementation if the \r\n    * wait period of UPGRADE_DELAY (28 days) has been satisfied.\r\n    */\r\n    function _willFallback() internal {\r\n        if (pendingImplementationIsSet && now > pendingImplementationApplicationDate) {\r\n            _upgradeTo(pendingImplementation);\r\n            pendingImplementationIsSet = false;\r\n        }\r\n    }\r\n}\r\n",
  "sourcePath": "C:\\Users\\npain\\Projects\\Carbon\\fiat_gateway\\contracts\\upgradeability\\DelayedUpgradeabilityProxy.sol",
  "compiler": {
    "name": "solc",
    "version": "0.4.24+commit.e67f0147.Emscripten.clang"
  },
  "schemaVersion": "2.0.1",
  "updatedAt": "2018-08-17T17:08:18.253Z"
}