{
  "contractName": "DelayedUpgradeabilityProxyMock",
  "abi": [
    {
      "constant": true,
      "inputs": [],
      "name": "pendingImplementationIsSet",
      "outputs": [
        {
          "name": "",
          "type": "bool"
        }
      ],
      "payable": false,
      "stateMutability": "view",
      "type": "function"
    },
    {
      "constant": true,
      "inputs": [],
      "name": "pendingImplementationApplicationDate",
      "outputs": [
        {
          "name": "",
          "type": "uint256"
        }
      ],
      "payable": false,
      "stateMutability": "view",
      "type": "function"
    },
    {
      "constant": true,
      "inputs": [],
      "name": "pendingImplementation",
      "outputs": [
        {
          "name": "",
          "type": "address"
        }
      ],
      "payable": false,
      "stateMutability": "view",
      "type": "function"
    },
    {
      "constant": true,
      "inputs": [],
      "name": "UPGRADE_DELAY",
      "outputs": [
        {
          "name": "",
          "type": "uint256"
        }
      ],
      "payable": false,
      "stateMutability": "view",
      "type": "function"
    },
    {
      "constant": false,
      "inputs": [],
      "name": "renounceOwnership",
      "outputs": [],
      "payable": false,
      "stateMutability": "nonpayable",
      "type": "function"
    },
    {
      "constant": true,
      "inputs": [],
      "name": "owner",
      "outputs": [
        {
          "name": "",
          "type": "address"
        }
      ],
      "payable": false,
      "stateMutability": "view",
      "type": "function"
    },
    {
      "constant": false,
      "inputs": [
        {
          "name": "_newOwner",
          "type": "address"
        }
      ],
      "name": "transferOwnership",
      "outputs": [],
      "payable": false,
      "stateMutability": "nonpayable",
      "type": "function"
    },
    {
      "inputs": [
        {
          "name": "i",
          "type": "address"
        }
      ],
      "payable": false,
      "stateMutability": "nonpayable",
      "type": "constructor"
    },
    {
      "payable": true,
      "stateMutability": "payable",
      "type": "fallback"
    },
    {
      "anonymous": false,
      "inputs": [
        {
          "indexed": true,
          "name": "previousOwner",
          "type": "address"
        }
      ],
      "name": "OwnershipRenounced",
      "type": "event"
    },
    {
      "anonymous": false,
      "inputs": [
        {
          "indexed": true,
          "name": "previousOwner",
          "type": "address"
        },
        {
          "indexed": true,
          "name": "newOwner",
          "type": "address"
        }
      ],
      "name": "OwnershipTransferred",
      "type": "event"
    },
    {
      "anonymous": false,
      "inputs": [
        {
          "indexed": true,
          "name": "oldPendingImplementation",
          "type": "address"
        },
        {
          "indexed": true,
          "name": "newPendingImplementation",
          "type": "address"
        }
      ],
      "name": "PendingImplementationChanged",
      "type": "event"
    },
    {
      "anonymous": false,
      "inputs": [
        {
          "indexed": false,
          "name": "implementation",
          "type": "address"
        }
      ],
      "name": "Upgraded",
      "type": "event"
    },
    {
      "constant": false,
      "inputs": [
        {
          "name": "implementation",
          "type": "address"
        }
      ],
      "name": "upgradeTo",
      "outputs": [],
      "payable": false,
      "stateMutability": "nonpayable",
      "type": "function"
    }
  ],
  "bytecode": "0x60806040526224ea0060025534801561001757600080fd5b5060405160208061088583398101604081815291517f6f72672e7a657070656c696e6f732e70726f78792e696d706c656d656e74617482527f696f6e000000000000000000000000000000000000000000000000000000000060208301529151908190036023019020819081906000805160206108658339815191521461009a57fe5b6100ac816401000000006100c6810204565b505060038054600160a060020a031916331790555061018c565b60006100de8264010000000061069661018482021704565b151561017157604080517f08c379a000000000000000000000000000000000000000000000000000000000815260206004820152603b60248201527f43616e6e6f742073657420612070726f787920696d706c656d656e746174696f60448201527f6e20746f2061206e6f6e2d636f6e747261637420616464726573730000000000606482015290519081900360840190fd5b5060008051602061086583398151915255565b6000903b1190565b6106ca8061019b6000396000f30060806040526004361061008d5763ffffffff7c01000000000000000000000000000000000000000000000000000000006000350416630fdca7f0811461009757806312c3c5bd146100c05780633659cfe6146100e7578063396f7b231461011557806347fe8b1d14610153578063715018a6146101685780638da5cb5b1461017d578063f2fde38b14610192575b6100956101c0565b005b3480156100a357600080fd5b506100ac6101da565b604080519115158252519081900360200190f35b3480156100cc57600080fd5b506100d56101fb565b60408051918252519081900360200190f35b3480156100f357600080fd5b5061009573ffffffffffffffffffffffffffffffffffffffff60043516610201565b34801561012157600080fd5b5061012a610231565b6040805173ffffffffffffffffffffffffffffffffffffffff9092168252519081900360200190f35b34801561015f57600080fd5b506100d561024d565b34801561017457600080fd5b50610095610253565b34801561018957600080fd5b5061012a6102e6565b34801561019e57600080fd5b5061009573ffffffffffffffffffffffffffffffffffffffff60043516610302565b6101c861032f565b6101d86101d36103ab565b6103d0565b565b60005474010000000000000000000000000000000000000000900460ff1681565b60015481565b60035473ffffffffffffffffffffffffffffffffffffffff16331461022557600080fd5b61022e816103f4565b50565b60005473ffffffffffffffffffffffffffffffffffffffff1681565b60025481565b60035473ffffffffffffffffffffffffffffffffffffffff16331461027757600080fd5b60035460405173ffffffffffffffffffffffffffffffffffffffff909116907ff8df31144d9c2f0f6b59d69b8b98abd5459d07f2742c4df920b25aae33c6482090600090a2600380547fffffffffffffffffffffffff0000000000000000000000000000000000000000169055565b60035473ffffffffffffffffffffffffffffffffffffffff1681565b60035473ffffffffffffffffffffffffffffffffffffffff16331461032657600080fd5b61022e816104bb565b60005474010000000000000000000000000000000000000000900460ff16801561035a575060015442115b156101d8576000546103819073ffffffffffffffffffffffffffffffffffffffff1661056b565b600080547fffffffffffffffffffffff00ffffffffffffffffffffffffffffffffffffffff169055565b7f7050c9e0f4ca769c69bd3a8ef740bc37934f8e2c036e5a723fd8ee048ed3f8c35490565b3660008037600080366000845af43d6000803e8080156103ef573d6000f35b3d6000fd5b600080547fffffffffffffffffffffff00ffffffffffffffffffffffffffffffffffffffff73ffffffffffffffffffffffffffffffffffffffff8481167fffffffffffffffffffffffff0000000000000000000000000000000000000000841681179290921674010000000000000000000000000000000000000000178455604051921692909183917fd272ea007d56dfdbd4784dc98e326b0e9230a7c8100e10d11c72ab1fdf140d4791a36002546104b490429063ffffffff6105c016565b6001555050565b73ffffffffffffffffffffffffffffffffffffffff811615156104dd57600080fd5b60035460405173ffffffffffffffffffffffffffffffffffffffff8084169216907f8be0079c531659141344cd1fd0a4f28419497f9722a3daafe3b4186f6b6457e090600090a3600380547fffffffffffffffffffffffff00000000000000000000000000000000000000001673ffffffffffffffffffffffffffffffffffffffff92909216919091179055565b610574816105d3565b6040805173ffffffffffffffffffffffffffffffffffffffff8316815290517fbc7cd75a20ee27fd9adebab32041f755214dbc6bffa90cc0225b39da2e5c2d3b9181900360200190a150565b818101828110156105cd57fe5b92915050565b60006105de82610696565b151561067157604080517f08c379a000000000000000000000000000000000000000000000000000000000815260206004820152603b60248201527f43616e6e6f742073657420612070726f787920696d706c656d656e746174696f60448201527f6e20746f2061206e6f6e2d636f6e747261637420616464726573730000000000606482015290519081900360840190fd5b507f7050c9e0f4ca769c69bd3a8ef740bc37934f8e2c036e5a723fd8ee048ed3f8c355565b6000903b11905600a165627a7a7230582054d97d737c197466bab721660e177a8a8ee859c30eb59c1f9891897eab61823e00297050c9e0f4ca769c69bd3a8ef740bc37934f8e2c036e5a723fd8ee048ed3f8c3",
  "source": "pragma solidity ^0.4.24;\n\nimport \"../DelayedUpgradeabilityProxy.sol\";\nimport \"openzeppelin-solidity/contracts/ownership/Ownable.sol\";\n\ncontract DelayedUpgradeabilityProxyMock is DelayedUpgradeabilityProxy, Ownable {\n    constructor(address i) DelayedUpgradeabilityProxy(i) public {}\n\n    function upgradeTo(address implementation) public onlyOwner {\n        _setPendingUpgrade(implementation);\n    }\n}",
  "sourcePath": "/Users/tanishqaggarwal/Documents/carbon/fiat_gateway/contracts/upgradeability/mocks/DelayedUpgradeabilityProxyMock.sol",
  "compiler": {
    "name": "solc",
    "version": "0.4.24+commit.e67f0147.Emscripten.clang"
  },
  "schemaVersion": "2.0.1",
  "updatedAt": "2018-08-13T13:49:18.901Z"
}