{
  "contractName": "DelayedUpgradeabilityProxy",
  "abi": [
    {
      "constant": true,
      "inputs": [],
      "name": "pendingImplementationIsSet",
      "outputs": [
        {
          "name": "",
          "type": "bool"
        }
      ],
      "payable": false,
      "stateMutability": "view",
      "type": "function"
    },
    {
      "constant": true,
      "inputs": [],
      "name": "pendingImplementationApplicationDate",
      "outputs": [
        {
          "name": "",
          "type": "uint256"
        }
      ],
      "payable": false,
      "stateMutability": "view",
      "type": "function"
    },
    {
      "constant": true,
      "inputs": [],
      "name": "pendingImplementation",
      "outputs": [
        {
          "name": "",
          "type": "address"
        }
      ],
      "payable": false,
      "stateMutability": "view",
      "type": "function"
    },
    {
      "constant": true,
      "inputs": [],
      "name": "UPGRADE_DELAY",
      "outputs": [
        {
          "name": "",
          "type": "uint256"
        }
      ],
      "payable": false,
      "stateMutability": "view",
      "type": "function"
    },
    {
      "inputs": [
        {
          "name": "_implementation",
          "type": "address"
        }
      ],
      "payable": false,
      "stateMutability": "nonpayable",
      "type": "constructor"
    },
    {
      "payable": true,
      "stateMutability": "payable",
      "type": "fallback"
    },
    {
      "anonymous": false,
      "inputs": [
        {
          "indexed": true,
          "name": "oldPendingImplementation",
          "type": "address"
        },
        {
          "indexed": true,
          "name": "newPendingImplementation",
          "type": "address"
        }
      ],
      "name": "PendingImplementationChanged",
      "type": "event"
    },
    {
      "anonymous": false,
      "inputs": [
        {
          "indexed": false,
          "name": "implementation",
          "type": "address"
        }
      ],
      "name": "Upgraded",
      "type": "event"
    }
  ],
  "bytecode": "0x60806040526224ea0060025534801561001757600080fd5b5060405160208061053183398101604081815291517f6f72672e7a657070656c696e6f732e70726f78792e696d706c656d656e74617482527f696f6e00000000000000000000000000000000000000000000000000000000006020830152915190819003602301902081906000805160206105118339815191521461009857fe5b6100aa816401000000006100b1810204565b5050610177565b60006100c98264010000000061035761016f82021704565b151561015c57604080517f08c379a000000000000000000000000000000000000000000000000000000000815260206004820152603b60248201527f43616e6e6f742073657420612070726f787920696d706c656d656e746174696f60448201527f6e20746f2061206e6f6e2d636f6e747261637420616464726573730000000000606482015290519081900360840190fd5b5060008051602061051183398151915255565b6000903b1190565b61038b806101866000396000f3006080604052600436106100615763ffffffff7c01000000000000000000000000000000000000000000000000000000006000350416630fdca7f0811461006b57806312c3c5bd14610094578063396f7b23146100bb57806347fe8b1d146100f9575b61006961010e565b005b34801561007757600080fd5b50610080610128565b604080519115158252519081900360200190f35b3480156100a057600080fd5b506100a9610149565b60408051918252519081900360200190f35b3480156100c757600080fd5b506100d061014f565b6040805173ffffffffffffffffffffffffffffffffffffffff9092168252519081900360200190f35b34801561010557600080fd5b506100a961016b565b610116610171565b6101266101216101f6565b61021b565b565b60005474010000000000000000000000000000000000000000900460ff1681565b60015481565b60005473ffffffffffffffffffffffffffffffffffffffff1681565b60025481565b60005474010000000000000000000000000000000000000000900460ff16801561019c575060015442115b156101ee576000546101c39073ffffffffffffffffffffffffffffffffffffffff1661023f565b6000805474ff0000000000000000000000000000000000000000191690556101e9610126565b610126565b610126610126565b7f7050c9e0f4ca769c69bd3a8ef740bc37934f8e2c036e5a723fd8ee048ed3f8c35490565b3660008037600080366000845af43d6000803e80801561023a573d6000f35b3d6000fd5b61024881610294565b6040805173ffffffffffffffffffffffffffffffffffffffff8316815290517fbc7cd75a20ee27fd9adebab32041f755214dbc6bffa90cc0225b39da2e5c2d3b9181900360200190a150565b600061029f82610357565b151561033257604080517f08c379a000000000000000000000000000000000000000000000000000000000815260206004820152603b60248201527f43616e6e6f742073657420612070726f787920696d706c656d656e746174696f60448201527f6e20746f2061206e6f6e2d636f6e747261637420616464726573730000000000606482015290519081900360840190fd5b507f7050c9e0f4ca769c69bd3a8ef740bc37934f8e2c036e5a723fd8ee048ed3f8c355565b6000903b11905600a165627a7a7230582000c6bf9b8e1994e332efece6c31e11364a68317efb7db59ba965fca4953bda6e00297050c9e0f4ca769c69bd3a8ef740bc37934f8e2c036e5a723fd8ee048ed3f8c3",
  "source": "pragma solidity ^0.4.24;\n\nimport \"zos-lib/contracts/upgradeability/UpgradeabilityProxy.sol\";\nimport \"openzeppelin-solidity/contracts/math/SafeMath.sol\";\n\n/** \n * @title DelayedUpgradeabilityProxy\n * @notice Implements an upgradeability proxy with the option of\n * introducing pending implementations. \n */\ncontract DelayedUpgradeabilityProxy is UpgradeabilityProxy {\n    using SafeMath for uint256;\n\n    address public pendingImplementation;\n    bool public pendingImplementationIsSet;\n    uint256 public pendingImplementationApplicationDate; // Date on which to switch all contract calls to the new implementation\n    uint256 public UPGRADE_DELAY = 4 weeks;\n\n    event PendingImplementationChanged(address indexed oldPendingImplementation, address indexed newPendingImplementation);\n\n    constructor(address _implementation) public UpgradeabilityProxy(_implementation) {}\n\n    /**\n    * @notice Sets the pending implementation address of the proxy.\n    * This function is internal--uses of this proxy should wrap this function\n    * with a public function in order to make it externally callable.\n    * @param implementation Address of the new implementation.\n    */\n    function _setPendingUpgrade(address implementation) internal {\n        address oldPendingImplementation = pendingImplementation;\n        pendingImplementation = implementation;\n        pendingImplementationIsSet = true;\n        emit PendingImplementationChanged(oldPendingImplementation, implementation);\n        pendingImplementationApplicationDate = block.timestamp.add(UPGRADE_DELAY);\n    }\n\n    /**\n    * @notice Overrides the _willFallback() function of Proxy, which enables some code to\n    * be executed prior to the fallback function. In this case, the purpose of this code\n    * is to automatically switch the implementation to the pending implementation if the \n    * wait period of UPGRADE_DELAY (28 days) has been satisfied.\n    */\n    function _willFallback() internal {\n        if (pendingImplementationIsSet && block.timestamp > pendingImplementationApplicationDate) {\n            _upgradeTo(pendingImplementation);\n            pendingImplementationIsSet = false;\n            super._willFallback();\n        }\n        else {\n            super._willFallback();\n        }\n    }\n}\n",
  "sourcePath": "/Users/nicholaspai/Carbon/fiat_gateway/contracts/upgradeability/DelayedUpgradeabilityProxy.sol",
  "compiler": {
    "name": "solc",
    "version": "0.4.24+commit.e67f0147.Emscripten.clang"
  },
  "schemaVersion": "2.0.1",
  "updatedAt": "2018-12-01T17:48:55.647Z"
}