{
  "contractName": "DelayedUpgradeabilityProxyMock",
  "abi": [
    {
      "constant": true,
      "inputs": [],
      "name": "pendingImplementationIsSet",
      "outputs": [
        {
          "name": "",
          "type": "bool"
        }
      ],
      "payable": false,
      "stateMutability": "view",
      "type": "function"
    },
    {
      "constant": true,
      "inputs": [],
      "name": "pendingImplementationApplicationDate",
      "outputs": [
        {
          "name": "",
          "type": "uint256"
        }
      ],
      "payable": false,
      "stateMutability": "view",
      "type": "function"
    },
    {
      "constant": true,
      "inputs": [],
      "name": "pendingImplementation",
      "outputs": [
        {
          "name": "",
          "type": "address"
        }
      ],
      "payable": false,
      "stateMutability": "view",
      "type": "function"
    },
    {
      "constant": true,
      "inputs": [],
      "name": "UPGRADE_DELAY",
      "outputs": [
        {
          "name": "",
          "type": "uint256"
        }
      ],
      "payable": false,
      "stateMutability": "view",
      "type": "function"
    },
    {
      "constant": false,
      "inputs": [],
      "name": "claimOwnership",
      "outputs": [],
      "payable": false,
      "stateMutability": "nonpayable",
      "type": "function"
    },
    {
      "constant": true,
      "inputs": [],
      "name": "owner",
      "outputs": [
        {
          "name": "",
          "type": "address"
        }
      ],
      "payable": false,
      "stateMutability": "view",
      "type": "function"
    },
    {
      "constant": true,
      "inputs": [],
      "name": "pendingOwner",
      "outputs": [
        {
          "name": "",
          "type": "address"
        }
      ],
      "payable": false,
      "stateMutability": "view",
      "type": "function"
    },
    {
      "constant": false,
      "inputs": [
        {
          "name": "_newOwner",
          "type": "address"
        }
      ],
      "name": "transferOwnership",
      "outputs": [],
      "payable": false,
      "stateMutability": "nonpayable",
      "type": "function"
    },
    {
      "inputs": [
        {
          "name": "i",
          "type": "address"
        }
      ],
      "payable": false,
      "stateMutability": "nonpayable",
      "type": "constructor"
    },
    {
      "payable": true,
      "stateMutability": "payable",
      "type": "fallback"
    },
    {
      "anonymous": false,
      "inputs": [
        {
          "indexed": true,
          "name": "previousOwner",
          "type": "address"
        },
        {
          "indexed": true,
          "name": "newOwner",
          "type": "address"
        }
      ],
      "name": "OwnershipTransferred",
      "type": "event"
    },
    {
      "anonymous": false,
      "inputs": [
        {
          "indexed": true,
          "name": "oldPendingImplementation",
          "type": "address"
        },
        {
          "indexed": true,
          "name": "newPendingImplementation",
          "type": "address"
        }
      ],
      "name": "PendingImplementationChanged",
      "type": "event"
    },
    {
      "anonymous": false,
      "inputs": [
        {
          "indexed": false,
          "name": "implementation",
          "type": "address"
        }
      ],
      "name": "Upgraded",
      "type": "event"
    },
    {
      "constant": false,
      "inputs": [
        {
          "name": "implementation",
          "type": "address"
        }
      ],
      "name": "upgradeTo",
      "outputs": [],
      "payable": false,
      "stateMutability": "nonpayable",
      "type": "function"
    }
  ],
  "bytecode": "0x60806040526224ea0060025534801561001757600080fd5b506040516020806107b483398101604081815291517f6f72672e7a657070656c696e6f732e70726f78792e696d706c656d656e74617482527f696f6e000000000000000000000000000000000000000000000000000000000060208301529151908190036023019020819081906000805160206107948339815191521461009a57fe5b6100ac816401000000006100d2810204565b505060038054600160a060020a0319908116331790915560048054909116905550610198565b60006100ea826401000000006105b961019082021704565b151561017d57604080517f08c379a000000000000000000000000000000000000000000000000000000000815260206004820152603b60248201527f43616e6e6f742073657420612070726f787920696d706c656d656e746174696f60448201527f6e20746f2061206e6f6e2d636f6e747261637420616464726573730000000000606482015290519081900360840190fd5b5060008051602061079483398151915255565b6000903b1190565b6105ed806101a76000396000f3006080604052600436106100985763ffffffff7c01000000000000000000000000000000000000000000000000000000006000350416630fdca7f081146100a257806312c3c5bd146100cb5780633659cfe6146100f2578063396f7b231461011357806347fe8b1d146101445780634e71e0c8146101595780638da5cb5b1461016e578063e30c397814610183578063f2fde38b14610198575b6100a06101b9565b005b3480156100ae57600080fd5b506100b76101d3565b604080519115158252519081900360200190f35b3480156100d757600080fd5b506100e06101f4565b60408051918252519081900360200190f35b3480156100fe57600080fd5b506100a0600160a060020a03600435166101fa565b34801561011f57600080fd5b5061012861021d565b60408051600160a060020a039092168252519081900360200190f35b34801561015057600080fd5b506100e061022c565b34801561016557600080fd5b506100a0610232565b34801561017a57600080fd5b506101286102bc565b34801561018f57600080fd5b506101286102cb565b3480156101a457600080fd5b506100a0600160a060020a03600435166102da565b6101c1610335565b6101d16101cc6103ad565b6103d2565b565b60005474010000000000000000000000000000000000000000900460ff1681565b60015481565b600354600160a060020a0316331461021157600080fd5b61021a816103f6565b50565b600054600160a060020a031681565b60025481565b600454600160a060020a0316331461024957600080fd5b600454600354604051600160a060020a0392831692909116907f8be0079c531659141344cd1fd0a4f28419497f9722a3daafe3b4186f6b6457e090600090a3600480546003805473ffffffffffffffffffffffffffffffffffffffff19908116600160a060020a03841617909155169055565b600354600160a060020a031681565b600454600160a060020a031681565b600354600160a060020a031633146102f157600080fd5b600160a060020a038116151561030657600080fd5b6004805473ffffffffffffffffffffffffffffffffffffffff1916600160a060020a0392909216919091179055565b60005474010000000000000000000000000000000000000000900460ff168015610360575060015442115b156103a55760005461037a90600160a060020a031661049b565b6000805474ff0000000000000000000000000000000000000000191690556103a06101d1565b6101d1565b6101d16101d1565b7f7050c9e0f4ca769c69bd3a8ef740bc37934f8e2c036e5a723fd8ee048ed3f8c35490565b3660008037600080366000845af43d6000803e8080156103f1573d6000f35b3d6000fd5b6000805474ff000000000000000000000000000000000000000019600160a060020a0384811673ffffffffffffffffffffffffffffffffffffffff19841681179290921674010000000000000000000000000000000000000000178455604051921692909183917fd272ea007d56dfdbd4784dc98e326b0e9230a7c8100e10d11c72ab1fdf140d4791a360025461049490429063ffffffff6104e316565b6001555050565b6104a4816104f6565b60408051600160a060020a038316815290517fbc7cd75a20ee27fd9adebab32041f755214dbc6bffa90cc0225b39da2e5c2d3b9181900360200190a150565b818101828110156104f057fe5b92915050565b6000610501826105b9565b151561059457604080517f08c379a000000000000000000000000000000000000000000000000000000000815260206004820152603b60248201527f43616e6e6f742073657420612070726f787920696d706c656d656e746174696f60448201527f6e20746f2061206e6f6e2d636f6e747261637420616464726573730000000000606482015290519081900360840190fd5b507f7050c9e0f4ca769c69bd3a8ef740bc37934f8e2c036e5a723fd8ee048ed3f8c355565b6000903b11905600a165627a7a723058205d74093463c172cc7a9e962c98a63594e105220ec7f34e40fd19bfb24c275b0500297050c9e0f4ca769c69bd3a8ef740bc37934f8e2c036e5a723fd8ee048ed3f8c3",
  "source": "pragma solidity ^0.4.24;\n\nimport \"../DelayedUpgradeabilityProxy.sol\";\nimport '../../helpers/Ownable.sol';\n\ncontract DelayedUpgradeabilityProxyMock is DelayedUpgradeabilityProxy, Ownable {\n    constructor(address i) public DelayedUpgradeabilityProxy(i) {}\n\n    function upgradeTo(address implementation) public onlyOwner {\n        _setPendingUpgrade(implementation);\n    }\n}",
  "sourcePath": "/Users/gmaister/Desktop/workspace/Carbon/fiatgateway_ethcontracts/contracts/upgradeability/mocks/DelayedUpgradeabilityProxyMock.sol",
  "compiler": {
    "name": "solc",
    "version": "0.4.24+commit.e67f0147.Emscripten.clang"
  },
  "schemaVersion": "2.0.1",
  "updatedAt": "2019-01-06T19:47:50.953Z"
}