{
  "contractName": "DummyContractV1",
  "abi": [
    {
      "constant": true,
      "inputs": [],
      "name": "hello",
      "outputs": [
        {
          "name": "",
          "type": "string"
        }
      ],
      "payable": false,
      "stateMutability": "pure",
      "type": "function"
    },
    {
      "constant": true,
      "inputs": [],
      "name": "goodbye",
      "outputs": [
        {
          "name": "",
          "type": "string"
        }
      ],
      "payable": false,
      "stateMutability": "pure",
      "type": "function"
    }
  ],
  "bytecode": "0x608060405234801561001057600080fd5b50610189806100206000396000f30060806040526004361061004b5763ffffffff7c010000000000000000000000000000000000000000000000000000000060003504166319ff1d21811461005057806375fc8e3c146100da575b600080fd5b34801561005c57600080fd5b506100656100ef565b6040805160208082528351818301528351919283929083019185019080838360005b8381101561009f578181015183820152602001610087565b50505050905090810190601f1680156100cc5780820380516001836020036101000a031916815260200191505b509250505060405180910390f35b3480156100e657600080fd5b50610065610126565b60408051808201909152600681527f48656c6c6f210000000000000000000000000000000000000000000000000000602082015290565b60408051808201909152600581527f4164696f730000000000000000000000000000000000000000000000000000006020820152905600a165627a7a723058200ce1440c946150b6c06f712bab1eae5e8d5e72793a98e133338aefe31b556a9f0029",
  "source": "pragma solidity ^0.4.24;\r\n\r\ncontract DummyContractV0 {\r\n    function hello() public pure returns(string) {\r\n        return \"Konichiwa!\";\r\n    }\r\n}\r\n\r\ncontract DummyContractV1 is DummyContractV0 {\r\n    function hello() public pure returns(string) {\r\n        return \"Hello!\";\r\n    }\r\n\r\n    function goodbye() public pure returns(string) {\r\n        return \"Adios\";\r\n    }\r\n}",
  "sourcePath": "C:\\Users\\npain\\Projects\\Carbon\\fiat_gateway\\contracts\\upgradeability\\mocks\\DummyContract.sol",
  "compiler": {
    "name": "solc",
    "version": "0.4.24+commit.e67f0147.Emscripten.clang"
  },
  "schemaVersion": "2.0.1",
  "updatedAt": "2018-09-27T18:53:19.020Z"
}