{
  "contractName": "DummyContractV0",
  "abi": [
    {
      "constant": true,
      "inputs": [],
      "name": "hello",
      "outputs": [
        {
          "name": "",
          "type": "string"
        }
      ],
      "payable": false,
      "stateMutability": "pure",
      "type": "function"
    }
  ],
  "bytecode": "0x608060405234801561001057600080fd5b5061012a806100206000396000f300608060405260043610603e5763ffffffff7c010000000000000000000000000000000000000000000000000000000060003504166319ff1d2181146043575b600080fd5b348015604e57600080fd5b50605560c7565b6040805160208082528351818301528351919283929083019185019080838360005b83811015608d5781810151838201526020016077565b50505050905090810190601f16801560b95780820380516001836020036101000a031916815260200191505b509250505060405180910390f35b60408051808201909152600a81527f4b6f6e69636869776121000000000000000000000000000000000000000000006020820152905600a165627a7a7230582017afba81a043915071593cd61811ce738cc68e919e3e68e9efa1c0e94521b97c0029",
  "source": "pragma solidity ^0.4.24;\n\ncontract DummyContractV0 {\n    function hello() public pure returns(string) {\n        return \"Konichiwa!\";\n    }\n}\n\ncontract DummyContractV1 is DummyContractV0 {\n    function hello() public pure returns(string) {\n        return \"Hello!\";\n    }\n\n    function goodbye() public pure returns(string) {\n        return \"Adios\";\n    }\n}",
  "sourcePath": "/Users/gmaister/Desktop/workspace/Carbon/fiatgateway_ethcontracts/contracts/upgradeability/mocks/DummyContract.sol",
  "compiler": {
    "name": "solc",
    "version": "0.4.24+commit.e67f0147.Emscripten.clang"
  },
  "schemaVersion": "2.0.1",
  "updatedAt": "2019-01-06T19:47:50.953Z"
}