{
  "contractName": "FeeSheet",
  "abi": [
    {
      "constant": false,
      "inputs": [],
      "name": "claimOwnership",
      "outputs": [],
      "payable": false,
      "stateMutability": "nonpayable",
      "type": "function"
    },
    {
      "constant": true,
      "inputs": [],
      "name": "defaultFee",
      "outputs": [
        {
          "name": "",
          "type": "uint256"
        }
      ],
      "payable": false,
      "stateMutability": "view",
      "type": "function"
    },
    {
      "constant": true,
      "inputs": [],
      "name": "owner",
      "outputs": [
        {
          "name": "",
          "type": "address"
        }
      ],
      "payable": false,
      "stateMutability": "view",
      "type": "function"
    },
    {
      "constant": true,
      "inputs": [
        {
          "name": "",
          "type": "address"
        }
      ],
      "name": "isFeeSet",
      "outputs": [
        {
          "name": "",
          "type": "bool"
        }
      ],
      "payable": false,
      "stateMutability": "view",
      "type": "function"
    },
    {
      "constant": true,
      "inputs": [],
      "name": "pendingOwner",
      "outputs": [
        {
          "name": "",
          "type": "address"
        }
      ],
      "payable": false,
      "stateMutability": "view",
      "type": "function"
    },
    {
      "constant": false,
      "inputs": [
        {
          "name": "_newOwner",
          "type": "address"
        }
      ],
      "name": "transferOwnership",
      "outputs": [],
      "payable": false,
      "stateMutability": "nonpayable",
      "type": "function"
    },
    {
      "constant": true,
      "inputs": [
        {
          "name": "",
          "type": "address"
        }
      ],
      "name": "fees",
      "outputs": [
        {
          "name": "",
          "type": "uint256"
        }
      ],
      "payable": false,
      "stateMutability": "view",
      "type": "function"
    },
    {
      "anonymous": false,
      "inputs": [
        {
          "indexed": false,
          "name": "oldFee",
          "type": "uint256"
        },
        {
          "indexed": false,
          "name": "newFee",
          "type": "uint256"
        }
      ],
      "name": "DefaultFeeChanged",
      "type": "event"
    },
    {
      "anonymous": false,
      "inputs": [
        {
          "indexed": true,
          "name": "stablecoin",
          "type": "address"
        },
        {
          "indexed": false,
          "name": "oldFee",
          "type": "uint256"
        },
        {
          "indexed": false,
          "name": "newFee",
          "type": "uint256"
        }
      ],
      "name": "FeeChanged",
      "type": "event"
    },
    {
      "anonymous": false,
      "inputs": [
        {
          "indexed": true,
          "name": "stablecoin",
          "type": "address"
        },
        {
          "indexed": false,
          "name": "oldFee",
          "type": "uint256"
        }
      ],
      "name": "FeeRemoved",
      "type": "event"
    },
    {
      "anonymous": false,
      "inputs": [
        {
          "indexed": true,
          "name": "previousOwner",
          "type": "address"
        },
        {
          "indexed": true,
          "name": "newOwner",
          "type": "address"
        }
      ],
      "name": "OwnershipTransferred",
      "type": "event"
    },
    {
      "constant": false,
      "inputs": [
        {
          "name": "_fee",
          "type": "uint256"
        }
      ],
      "name": "setDefaultFee",
      "outputs": [],
      "payable": false,
      "stateMutability": "nonpayable",
      "type": "function"
    },
    {
      "constant": false,
      "inputs": [
        {
          "name": "_stablecoin",
          "type": "address"
        },
        {
          "name": "_fee",
          "type": "uint256"
        }
      ],
      "name": "setFee",
      "outputs": [],
      "payable": false,
      "stateMutability": "nonpayable",
      "type": "function"
    },
    {
      "constant": false,
      "inputs": [
        {
          "name": "_stablecoin",
          "type": "address"
        }
      ],
      "name": "removeFee",
      "outputs": [],
      "payable": false,
      "stateMutability": "nonpayable",
      "type": "function"
    },
    {
      "constant": true,
      "inputs": [
        {
          "name": "_amount",
          "type": "uint256"
        },
        {
          "name": "_stablecoin",
          "type": "address"
        }
      ],
      "name": "computeStablecoinFee",
      "outputs": [
        {
          "name": "",
          "type": "uint256"
        }
      ],
      "payable": false,
      "stateMutability": "view",
      "type": "function"
    },
    {
      "constant": true,
      "inputs": [
        {
          "name": "_amount",
          "type": "uint256"
        },
        {
          "name": "_fee",
          "type": "uint256"
        }
      ],
      "name": "computeFee",
      "outputs": [
        {
          "name": "",
          "type": "uint256"
        }
      ],
      "payable": false,
      "stateMutability": "pure",
      "type": "function"
    }
  ],
  "bytecode": "0x608060405260008054600160a060020a0319908116331790915560018054909116905561075a806100316000396000f3006080604052600436106100b95763ffffffff7c0100000000000000000000000000000000000000000000000000000000600035041663166e55d981146100be5780632ff284c2146101015780634e71e0c81461011c5780635a6c72d0146101335780636ad26611146101485780638da5cb5b14610176578063c93a6c84146101b4578063cfc9733c146101cc578063e30c39781461020e578063e55156b514610223578063f2fde38b14610254578063faaebd2114610282575b600080fd5b3480156100ca57600080fd5b506100ef60043573ffffffffffffffffffffffffffffffffffffffff602435166102b0565b60408051918252519081900360200190f35b34801561010d57600080fd5b506100ef6004356024356102e8565b34801561012857600080fd5b50610131610315565b005b34801561013f57600080fd5b506100ef6103cf565b34801561015457600080fd5b5061013173ffffffffffffffffffffffffffffffffffffffff600435166103d5565b34801561018257600080fd5b5061018b6104ae565b6040805173ffffffffffffffffffffffffffffffffffffffff9092168252519081900360200190f35b3480156101c057600080fd5b506101316004356104ca565b3480156101d857600080fd5b506101fa73ffffffffffffffffffffffffffffffffffffffff6004351661053e565b604080519115158252519081900360200190f35b34801561021a57600080fd5b5061018b610553565b34801561022f57600080fd5b5061013173ffffffffffffffffffffffffffffffffffffffff6004351660243561056f565b34801561026057600080fd5b5061013173ffffffffffffffffffffffffffffffffffffffff60043516610651565b34801561028e57600080fd5b506100ef73ffffffffffffffffffffffffffffffffffffffff600435166106de565b73ffffffffffffffffffffffffffffffffffffffff81166000908152600360205260408120546102e084826102e8565b949350505050565b600061030c6103e8610300858563ffffffff6106f016565b9063ffffffff61071916565b90505b92915050565b60015473ffffffffffffffffffffffffffffffffffffffff16331461033957600080fd5b6001546000805460405173ffffffffffffffffffffffffffffffffffffffff93841693909116917f8be0079c531659141344cd1fd0a4f28419497f9722a3daafe3b4186f6b6457e091a360018054600080547fffffffffffffffffffffffff000000000000000000000000000000000000000090811673ffffffffffffffffffffffffffffffffffffffff841617909155169055565b60025481565b6000805473ffffffffffffffffffffffffffffffffffffffff1633146103fa57600080fd5b5073ffffffffffffffffffffffffffffffffffffffff81166000908152600360209081526040808320805490849055600490925290912080547fffffffffffffffffffffffffffffffffffffffffffffffffffffffffffffff0016905580156104aa5760408051828152905173ffffffffffffffffffffffffffffffffffffffff8416917fe4ca060d5956a829454e1f8734d008a552f7c9a701ba632810443acc98435c68919081900360200190a25b5050565b60005473ffffffffffffffffffffffffffffffffffffffff1681565b6000805473ffffffffffffffffffffffffffffffffffffffff1633146104ef57600080fd5b5060028054908290558181146104aa57604080518281526020810184905281517f2faa036c952bde05f63e87e0c61278ffd974bfc128a2b0ef03fafdb57f5d5cea929181900390910190a15050565b60046020526000908152604090205460ff1681565b60015473ffffffffffffffffffffffffffffffffffffffff1681565b6000805473ffffffffffffffffffffffffffffffffffffffff16331461059457600080fd5b5073ffffffffffffffffffffffffffffffffffffffff82166000908152600360209081526040808320805490859055600490925290912080547fffffffffffffffffffffffffffffffffffffffffffffffffffffffffffffff0016600117905581811461064c576040805182815260208101849052815173ffffffffffffffffffffffffffffffffffffffff8616927ff98c81ad0a5eb3551c3561de8dc9d1512e8680fb77425ea138ebfe9a9c0065ff928290030190a25b505050565b60005473ffffffffffffffffffffffffffffffffffffffff16331461067557600080fd5b73ffffffffffffffffffffffffffffffffffffffff8116151561069757600080fd5b600180547fffffffffffffffffffffffff00000000000000000000000000000000000000001673ffffffffffffffffffffffffffffffffffffffff92909216919091179055565b60036020526000908152604090205481565b60008215156107015750600061030f565b5081810281838281151561071157fe5b041461030f57fe5b6000818381151561072657fe5b0493925050505600a165627a7a7230582092442e792c4b60dfc07479011246d4340b7cd594cd5757cbbfa49f7bc823f7b30029",
  "source": "pragma solidity ^0.4.24;\r\n\r\n// import \"openzeppelin-solidity/contracts/ownership/Claimable.sol\";\r\nimport \"openzeppelin-solidity/contracts/math/SafeMath.sol\";\r\nimport '../../../helpers/Ownable.sol';\r\n\r\n/**\r\n* @title FeeSheet\r\n* @notice Contains fee amounts for burning CUSD into a stablecoin, AKA 'conversions'\r\n*/\r\ncontract FeeSheet is Ownable {\r\n    using SafeMath for uint256;\r\n\r\n    /** @dev Units for fees are always in a tenth of a percent */\r\n    uint256 public defaultFee;\r\n\r\n    /** \r\n        Mappings\r\n    */\r\n    /* fees for withdrawing to stablecoin, in tenths of a percent) */\r\n    mapping (address => uint256) public fees;\r\n    mapping (address => bool) public isFeeSet;\r\n\r\n    /** \r\n        Events\r\n    */\r\n    event DefaultFeeChanged(uint256 oldFee, uint256 newFee);\r\n    event FeeChanged(address indexed stablecoin, uint256 oldFee, uint256 newFee);\r\n    event FeeRemoved(address indexed stablecoin, uint256 oldFee);\r\n\r\n    /** @notice Sets the default fee for burning CarbonDollar into a whitelisted stablecoin.\r\n        @param _fee The default fee.\r\n    */\r\n    function setDefaultFee(uint256 _fee) public onlyOwner {\r\n        uint256 oldFee = defaultFee;\r\n        defaultFee = _fee;\r\n        if (oldFee != defaultFee)\r\n            emit DefaultFeeChanged(oldFee, _fee);\r\n    }\r\n    \r\n    /** @notice Set a fee for burning CarbonDollar into a stablecoin.\r\n        @param _stablecoin Address of a whitelisted stablecoin.\r\n        @param _fee the fee.\r\n    */\r\n    function setFee(address _stablecoin, uint256 _fee) public onlyOwner {\r\n        uint256 oldFee = fees[_stablecoin];\r\n        fees[_stablecoin] = _fee;\r\n        isFeeSet[_stablecoin] = true;\r\n        if (oldFee != _fee)\r\n            emit FeeChanged(_stablecoin, oldFee, _fee);\r\n    }\r\n\r\n    /** @notice Remove the fee for burning CarbonDollar into a particular kind of stablecoin.\r\n        @param _stablecoin Address of stablecoin.\r\n    */\r\n    function removeFee(address _stablecoin) public onlyOwner {\r\n        uint256 oldFee = fees[_stablecoin];\r\n        fees[_stablecoin] = 0;\r\n        isFeeSet[_stablecoin] = false;\r\n        if (oldFee != 0)\r\n            emit FeeRemoved(_stablecoin, oldFee);\r\n    }\r\n\r\n    /**\r\n     * @notice Compute the fee that will be charged on a \"burn\" operation.\r\n     * @param _amount The amount that will be traded.\r\n     * @param _stablecoin The stablecoin whose fee will be used.\r\n     */\r\n    function computeStablecoinFee(uint256 _amount, address _stablecoin) public view returns (uint256) {\r\n        uint256 fee = fees[_stablecoin];\r\n        return computeFee(_amount, fee);\r\n    }\r\n\r\n    /**\r\n     * @notice Compute the fee that will be charged on a \"burn\" operation.\r\n     * @param _amount The amount that will be traded.\r\n     * @param _fee The fee that will be charged, in tenths of a percent.\r\n     */\r\n    function computeFee(uint256 _amount, uint256 _fee) public pure returns (uint256) {\r\n        return _amount.mul(_fee).div(1000);\r\n    }\r\n}",
  "sourcePath": "C:\\Users\\npain\\Projects\\Carbon\\fiat_gateway\\contracts\\tokens\\carbonToken\\dataStorage\\FeeSheet.sol",
  "compiler": {
    "name": "solc",
    "version": "0.4.24+commit.e67f0147.Emscripten.clang"
  },
  "schemaVersion": "2.0.1",
  "updatedAt": "2018-08-18T15:48:20.677Z"
}