{
  "contractName": "FeeSheet",
  "abi": [
    {
      "constant": true,
      "inputs": [],
      "name": "defaultFee",
      "outputs": [
        {
          "name": "",
          "type": "uint256"
        }
      ],
      "payable": false,
      "stateMutability": "view",
      "type": "function"
    },
    {
      "constant": false,
      "inputs": [],
      "name": "renounceOwnership",
      "outputs": [],
      "payable": false,
      "stateMutability": "nonpayable",
      "type": "function"
    },
    {
      "constant": true,
      "inputs": [],
      "name": "owner",
      "outputs": [
        {
          "name": "",
          "type": "address"
        }
      ],
      "payable": false,
      "stateMutability": "view",
      "type": "function"
    },
    {
      "constant": true,
      "inputs": [
        {
          "name": "",
          "type": "address"
        }
      ],
      "name": "isFeeSet",
      "outputs": [
        {
          "name": "",
          "type": "bool"
        }
      ],
      "payable": false,
      "stateMutability": "view",
      "type": "function"
    },
    {
      "constant": false,
      "inputs": [
        {
          "name": "_newOwner",
          "type": "address"
        }
      ],
      "name": "transferOwnership",
      "outputs": [],
      "payable": false,
      "stateMutability": "nonpayable",
      "type": "function"
    },
    {
      "constant": true,
      "inputs": [
        {
          "name": "",
          "type": "address"
        }
      ],
      "name": "fees",
      "outputs": [
        {
          "name": "",
          "type": "uint256"
        }
      ],
      "payable": false,
      "stateMutability": "view",
      "type": "function"
    },
    {
      "anonymous": false,
      "inputs": [
        {
          "indexed": false,
          "name": "oldFee",
          "type": "uint256"
        },
        {
          "indexed": false,
          "name": "newFee",
          "type": "uint256"
        }
      ],
      "name": "DefaultFeeChanged",
      "type": "event"
    },
    {
      "anonymous": false,
      "inputs": [
        {
          "indexed": true,
          "name": "stablecoin",
          "type": "address"
        },
        {
          "indexed": false,
          "name": "oldFee",
          "type": "uint256"
        },
        {
          "indexed": false,
          "name": "newFee",
          "type": "uint256"
        }
      ],
      "name": "FeeChanged",
      "type": "event"
    },
    {
      "anonymous": false,
      "inputs": [
        {
          "indexed": true,
          "name": "stablecoin",
          "type": "address"
        },
        {
          "indexed": false,
          "name": "oldFee",
          "type": "uint256"
        }
      ],
      "name": "FeeRemoved",
      "type": "event"
    },
    {
      "anonymous": false,
      "inputs": [
        {
          "indexed": true,
          "name": "previousOwner",
          "type": "address"
        }
      ],
      "name": "OwnershipRenounced",
      "type": "event"
    },
    {
      "anonymous": false,
      "inputs": [
        {
          "indexed": true,
          "name": "previousOwner",
          "type": "address"
        },
        {
          "indexed": true,
          "name": "newOwner",
          "type": "address"
        }
      ],
      "name": "OwnershipTransferred",
      "type": "event"
    },
    {
      "constant": false,
      "inputs": [
        {
          "name": "_fee",
          "type": "uint256"
        }
      ],
      "name": "setDefaultFee",
      "outputs": [],
      "payable": false,
      "stateMutability": "nonpayable",
      "type": "function"
    },
    {
      "constant": false,
      "inputs": [
        {
          "name": "_stablecoin",
          "type": "address"
        },
        {
          "name": "_fee",
          "type": "uint256"
        }
      ],
      "name": "setFee",
      "outputs": [],
      "payable": false,
      "stateMutability": "nonpayable",
      "type": "function"
    },
    {
      "constant": false,
      "inputs": [
        {
          "name": "_stablecoin",
          "type": "address"
        }
      ],
      "name": "removeFee",
      "outputs": [],
      "payable": false,
      "stateMutability": "nonpayable",
      "type": "function"
    },
    {
      "constant": true,
      "inputs": [
        {
          "name": "_amount",
          "type": "uint256"
        },
        {
          "name": "_stablecoin",
          "type": "address"
        }
      ],
      "name": "computeStablecoinFee",
      "outputs": [
        {
          "name": "",
          "type": "uint256"
        }
      ],
      "payable": false,
      "stateMutability": "view",
      "type": "function"
    },
    {
      "constant": true,
      "inputs": [
        {
          "name": "_amount",
          "type": "uint256"
        },
        {
          "name": "_fee",
          "type": "uint256"
        }
      ],
      "name": "computeFee",
      "outputs": [
        {
          "name": "",
          "type": "uint256"
        }
      ],
      "payable": false,
      "stateMutability": "pure",
      "type": "function"
    }
  ],
  "bytecode": "0x608060405260008054600160a060020a03191633179055610747806100256000396000f3006080604052600436106100ae5763ffffffff7c0100000000000000000000000000000000000000000000000000000000600035041663166e55d981146100b35780632ff284c2146100f65780635a6c72d0146101115780636ad2661114610126578063715018a6146101565780638da5cb5b1461016b578063c93a6c84146101a9578063cfc9733c146101c1578063e55156b514610203578063f2fde38b14610234578063faaebd2114610262575b600080fd5b3480156100bf57600080fd5b506100e460043573ffffffffffffffffffffffffffffffffffffffff60243516610290565b60408051918252519081900360200190f35b34801561010257600080fd5b506100e46004356024356102c8565b34801561011d57600080fd5b506100e46102f5565b34801561013257600080fd5b5061015473ffffffffffffffffffffffffffffffffffffffff600435166102fb565b005b34801561016257600080fd5b506101546103d4565b34801561017757600080fd5b50610180610465565b6040805173ffffffffffffffffffffffffffffffffffffffff9092168252519081900360200190f35b3480156101b557600080fd5b50610154600435610481565b3480156101cd57600080fd5b506101ef73ffffffffffffffffffffffffffffffffffffffff600435166104f5565b604080519115158252519081900360200190f35b34801561020f57600080fd5b5061015473ffffffffffffffffffffffffffffffffffffffff6004351660243561050a565b34801561024057600080fd5b5061015473ffffffffffffffffffffffffffffffffffffffff600435166105ec565b34801561026e57600080fd5b506100e473ffffffffffffffffffffffffffffffffffffffff6004351661061c565b73ffffffffffffffffffffffffffffffffffffffff81166000908152600260205260408120546102c084826102c8565b949350505050565b60006102ec6103e86102e0858563ffffffff61062e16565b9063ffffffff61065716565b90505b92915050565b60015481565b6000805473ffffffffffffffffffffffffffffffffffffffff16331461032057600080fd5b5073ffffffffffffffffffffffffffffffffffffffff81166000908152600260209081526040808320805490849055600390925290912080547fffffffffffffffffffffffffffffffffffffffffffffffffffffffffffffff0016905580156103d05760408051828152905173ffffffffffffffffffffffffffffffffffffffff8416917fe4ca060d5956a829454e1f8734d008a552f7c9a701ba632810443acc98435c68919081900360200190a25b5050565b60005473ffffffffffffffffffffffffffffffffffffffff1633146103f857600080fd5b6000805460405173ffffffffffffffffffffffffffffffffffffffff909116917ff8df31144d9c2f0f6b59d69b8b98abd5459d07f2742c4df920b25aae33c6482091a2600080547fffffffffffffffffffffffff0000000000000000000000000000000000000000169055565b60005473ffffffffffffffffffffffffffffffffffffffff1681565b6000805473ffffffffffffffffffffffffffffffffffffffff1633146104a657600080fd5b5060018054908290558181146103d057604080518281526020810184905281517f2faa036c952bde05f63e87e0c61278ffd974bfc128a2b0ef03fafdb57f5d5cea929181900390910190a15050565b60036020526000908152604090205460ff1681565b6000805473ffffffffffffffffffffffffffffffffffffffff16331461052f57600080fd5b5073ffffffffffffffffffffffffffffffffffffffff82166000908152600260209081526040808320805490859055600390925290912080547fffffffffffffffffffffffffffffffffffffffffffffffffffffffffffffff001660011790558181146105e7576040805182815260208101849052815173ffffffffffffffffffffffffffffffffffffffff8616927ff98c81ad0a5eb3551c3561de8dc9d1512e8680fb77425ea138ebfe9a9c0065ff928290030190a25b505050565b60005473ffffffffffffffffffffffffffffffffffffffff16331461061057600080fd5b6106198161066c565b50565b60026020526000908152604090205481565b600082151561063f575060006102ef565b5081810281838281151561064f57fe5b04146102ef57fe5b6000818381151561066457fe5b049392505050565b73ffffffffffffffffffffffffffffffffffffffff8116151561068e57600080fd5b6000805460405173ffffffffffffffffffffffffffffffffffffffff808516939216917f8be0079c531659141344cd1fd0a4f28419497f9722a3daafe3b4186f6b6457e091a3600080547fffffffffffffffffffffffff00000000000000000000000000000000000000001673ffffffffffffffffffffffffffffffffffffffff929092169190911790555600a165627a7a7230582052849627352cab19cf430f4213cfc2d09ad68d3bf14769d05555e6c0220da6db0029",
  "source": "pragma solidity ^0.4.24;\r\n\r\nimport \"openzeppelin-solidity/contracts/ownership/Ownable.sol\";\r\nimport \"openzeppelin-solidity/contracts/math/SafeMath.sol\";\r\n\r\n/**\r\n* @title FeeSheet\r\n* @notice Contains fee amounts for burning CUSD into a stablecoin, AKA 'conversions'\r\n*/\r\ncontract FeeSheet is Ownable {\r\n    using SafeMath for uint256;\r\n\r\n    /** @dev Units for fees are always in a tenth of a percent */\r\n    uint256 public defaultFee;\r\n\r\n    /** \r\n        Mappings\r\n    */\r\n    /* fees for withdrawing to stablecoin, in tenths of a percent) */\r\n    mapping (address => uint256) public fees;\r\n    mapping (address => bool) public isFeeSet;\r\n\r\n    /** \r\n        Events\r\n    */\r\n    event DefaultFeeChanged(uint256 oldFee, uint256 newFee);\r\n    event FeeChanged(address indexed stablecoin, uint256 oldFee, uint256 newFee);\r\n    event FeeRemoved(address indexed stablecoin, uint256 oldFee);\r\n\r\n    /** @notice Sets the default fee for burning CarbonDollar into a whitelisted stablecoin.\r\n        @param _fee The default fee.\r\n    */\r\n    function setDefaultFee(uint256 _fee) public onlyOwner {\r\n        uint256 oldFee = defaultFee;\r\n        defaultFee = _fee;\r\n        if (oldFee != defaultFee)\r\n            emit DefaultFeeChanged(oldFee, _fee);\r\n    }\r\n    \r\n    /** @notice Set a fee for burning CarbonDollar into a stablecoin.\r\n        @param _stablecoin Address of a whitelisted stablecoin.\r\n        @param _fee the fee.\r\n    */\r\n    function setFee(address _stablecoin, uint256 _fee) public onlyOwner {\r\n        uint256 oldFee = fees[_stablecoin];\r\n        fees[_stablecoin] = _fee;\r\n        isFeeSet[_stablecoin] = true;\r\n        if (oldFee != _fee)\r\n            emit FeeChanged(_stablecoin, oldFee, _fee);\r\n    }\r\n\r\n    /** @notice Remove the fee for burning CarbonDollar into a particular kind of stablecoin.\r\n        @param _stablecoin Address of stablecoin.\r\n    */\r\n    function removeFee(address _stablecoin) public onlyOwner {\r\n        uint256 oldFee = fees[_stablecoin];\r\n        fees[_stablecoin] = 0;\r\n        isFeeSet[_stablecoin] = false;\r\n        if (oldFee != 0)\r\n            emit FeeRemoved(_stablecoin, oldFee);\r\n    }\r\n\r\n    /**\r\n     * @notice Compute the fee that will be charged on a \"burn\" operation.\r\n     * @param _amount The amount that will be traded.\r\n     * @param _stablecoin The stablecoin whose fee will be used.\r\n     */\r\n    function computeStablecoinFee(uint256 _amount, address _stablecoin) public view returns (uint256) {\r\n        uint256 fee = fees[_stablecoin];\r\n        return computeFee(_amount, fee);\r\n    }\r\n\r\n    /**\r\n     * @notice Compute the fee that will be charged on a \"burn\" operation.\r\n     * @param _amount The amount that will be traded.\r\n     * @param _fee The fee that will be charged, in tenths of a percent.\r\n     */\r\n    function computeFee(uint256 _amount, uint256 _fee) public pure returns (uint256) {\r\n        return _amount.mul(_fee).div(1000);\r\n    }\r\n}",
  "sourcePath": "C:\\Users\\npain\\Projects\\Carbon\\fiat_gateway\\contracts\\tokens\\carbonToken\\dataStorage\\FeeSheet.sol",
  "compiler": {
    "name": "solc",
    "version": "0.4.24+commit.e67f0147.Emscripten.clang"
  },
  "schemaVersion": "2.0.1",
  "updatedAt": "2018-08-17T19:47:36.307Z"
}