{
  "contractName": "FeeSheet",
  "abi": [
    {
      "constant": true,
      "inputs": [],
      "name": "defaultFee",
      "outputs": [
        {
          "name": "",
          "type": "uint16"
        }
      ],
      "payable": false,
      "stateMutability": "view",
      "type": "function"
    },
    {
      "constant": false,
      "inputs": [],
      "name": "renounceOwnership",
      "outputs": [],
      "payable": false,
      "stateMutability": "nonpayable",
      "type": "function"
    },
    {
      "constant": true,
      "inputs": [],
      "name": "owner",
      "outputs": [
        {
          "name": "",
          "type": "address"
        }
      ],
      "payable": false,
      "stateMutability": "view",
      "type": "function"
    },
    {
      "constant": true,
      "inputs": [
        {
          "name": "",
          "type": "address"
        }
      ],
      "name": "isFeeSet",
      "outputs": [
        {
          "name": "",
          "type": "bool"
        }
      ],
      "payable": false,
      "stateMutability": "view",
      "type": "function"
    },
    {
      "constant": false,
      "inputs": [
        {
          "name": "_newOwner",
          "type": "address"
        }
      ],
      "name": "transferOwnership",
      "outputs": [],
      "payable": false,
      "stateMutability": "nonpayable",
      "type": "function"
    },
    {
      "constant": true,
      "inputs": [
        {
          "name": "",
          "type": "address"
        }
      ],
      "name": "fees",
      "outputs": [
        {
          "name": "",
          "type": "uint16"
        }
      ],
      "payable": false,
      "stateMutability": "view",
      "type": "function"
    },
    {
      "anonymous": false,
      "inputs": [
        {
          "indexed": false,
          "name": "oldFee",
          "type": "uint16"
        },
        {
          "indexed": false,
          "name": "newFee",
          "type": "uint16"
        }
      ],
      "name": "DefaultFeeChanged",
      "type": "event"
    },
    {
      "anonymous": false,
      "inputs": [
        {
          "indexed": true,
          "name": "stablecoin",
          "type": "address"
        },
        {
          "indexed": false,
          "name": "oldFee",
          "type": "uint16"
        },
        {
          "indexed": false,
          "name": "newFee",
          "type": "uint16"
        }
      ],
      "name": "FeeChanged",
      "type": "event"
    },
    {
      "anonymous": false,
      "inputs": [
        {
          "indexed": true,
          "name": "stablecoin",
          "type": "address"
        },
        {
          "indexed": false,
          "name": "oldFee",
          "type": "uint16"
        }
      ],
      "name": "FeeRemoved",
      "type": "event"
    },
    {
      "anonymous": false,
      "inputs": [
        {
          "indexed": true,
          "name": "previousOwner",
          "type": "address"
        }
      ],
      "name": "OwnershipRenounced",
      "type": "event"
    },
    {
      "anonymous": false,
      "inputs": [
        {
          "indexed": true,
          "name": "previousOwner",
          "type": "address"
        },
        {
          "indexed": true,
          "name": "newOwner",
          "type": "address"
        }
      ],
      "name": "OwnershipTransferred",
      "type": "event"
    },
    {
      "constant": false,
      "inputs": [
        {
          "name": "fee",
          "type": "uint16"
        }
      ],
      "name": "setDefaultFee",
      "outputs": [],
      "payable": false,
      "stateMutability": "nonpayable",
      "type": "function"
    },
    {
      "constant": false,
      "inputs": [
        {
          "name": "stablecoin",
          "type": "address"
        },
        {
          "name": "fee",
          "type": "uint16"
        }
      ],
      "name": "setFee",
      "outputs": [],
      "payable": false,
      "stateMutability": "nonpayable",
      "type": "function"
    },
    {
      "constant": false,
      "inputs": [
        {
          "name": "stablecoin",
          "type": "address"
        }
      ],
      "name": "removeFee",
      "outputs": [],
      "payable": false,
      "stateMutability": "nonpayable",
      "type": "function"
    },
    {
      "constant": true,
      "inputs": [
        {
          "name": "amount",
          "type": "uint256"
        },
        {
          "name": "stablecoin",
          "type": "address"
        }
      ],
      "name": "computeStablecoinFee",
      "outputs": [
        {
          "name": "",
          "type": "uint256"
        }
      ],
      "payable": false,
      "stateMutability": "view",
      "type": "function"
    },
    {
      "constant": true,
      "inputs": [
        {
          "name": "amount",
          "type": "uint256"
        },
        {
          "name": "fee",
          "type": "uint16"
        }
      ],
      "name": "computeFee",
      "outputs": [
        {
          "name": "",
          "type": "uint256"
        }
      ],
      "payable": false,
      "stateMutability": "pure",
      "type": "function"
    }
  ],
  "bytecode": "0x608060405260008054600160a060020a031916331790556107e4806100256000396000f3006080604052600436106100ae5763ffffffff7c0100000000000000000000000000000000000000000000000000000000600035041663166e55d981146100b3578063337f3a31146100f6578063478eed7d1461012d5780635a6c72d01461014c5780636ad2661114610178578063715018a6146101a657806377326584146101bb5780638da5cb5b146101d7578063cfc9733c14610215578063f2fde38b14610257578063faaebd2114610285575b600080fd5b3480156100bf57600080fd5b506100e460043573ffffffffffffffffffffffffffffffffffffffff602435166102b3565b60408051918252519081900360200190f35b34801561010257600080fd5b5061012b73ffffffffffffffffffffffffffffffffffffffff6004351661ffff602435166102ef565b005b34801561013957600080fd5b506100e460043561ffff60243516610403565b34801561015857600080fd5b50610161610415565b6040805161ffff9092168252519081900360200190f35b34801561018457600080fd5b5061012b73ffffffffffffffffffffffffffffffffffffffff60043516610437565b3480156101b257600080fd5b5061012b61053a565b3480156101c757600080fd5b5061012b61ffff600435166105cb565b3480156101e357600080fd5b506101ec610692565b6040805173ffffffffffffffffffffffffffffffffffffffff9092168252519081900360200190f35b34801561022157600080fd5b5061024373ffffffffffffffffffffffffffffffffffffffff600435166106ae565b604080519115158252519081900360200190f35b34801561026357600080fd5b5061012b73ffffffffffffffffffffffffffffffffffffffff600435166106c3565b34801561029157600080fd5b5061016173ffffffffffffffffffffffffffffffffffffffff600435166106f3565b73ffffffffffffffffffffffffffffffffffffffff811660009081526001602052604081205461ffff166102e78482610403565b949350505050565b6000805473ffffffffffffffffffffffffffffffffffffffff16331461031457600080fd5b5073ffffffffffffffffffffffffffffffffffffffff82166000908152600160208181526040808420805461ffff8781167fffffffffffffffffffffffffffffffffffffffffffffffffffffffffffff00008316811790935560029094529190942080547fffffffffffffffffffffffffffffffffffffffffffffffffffffffffffffff0016909317909255169081146103fe576040805161ffff808416825284166020820152815173ffffffffffffffffffffffffffffffffffffffff8616927f87448f9f32913b74a02696986bb54c7bc01e231f13fd137a04391767a4b2620e928290030190a25b505050565b6103e861ffff91909116919091020490565b60005474010000000000000000000000000000000000000000900461ffff1681565b6000805473ffffffffffffffffffffffffffffffffffffffff16331461045c57600080fd5b5073ffffffffffffffffffffffffffffffffffffffff8116600090815260016020908152604080832080547fffffffffffffffffffffffffffffffffffffffffffffffffffffffffffff00008116909155600290925290912080547fffffffffffffffffffffffffffffffffffffffffffffffffffffffffffffff0016905561ffff168015610536576040805161ffff83168152905173ffffffffffffffffffffffffffffffffffffffff8416917fd9cc6053d9b32a55299bc21c42734bfefb652e41b1d8bdb56da0d06705015db5919081900360200190a25b5050565b60005473ffffffffffffffffffffffffffffffffffffffff16331461055e57600080fd5b6000805460405173ffffffffffffffffffffffffffffffffffffffff909116917ff8df31144d9c2f0f6b59d69b8b98abd5459d07f2742c4df920b25aae33c6482091a2600080547fffffffffffffffffffffffff0000000000000000000000000000000000000000169055565b6000805473ffffffffffffffffffffffffffffffffffffffff1633146105f057600080fd5b506000805461ffff838116740100000000000000000000000000000000000000009081027fffffffffffffffffffff0000ffffffffffffffffffffffffffffffffffffffff841617938490559182900481169291909104168114610536576040805161ffff80841682528416602082015281517f1a1e8eba2cababd9df29fe06850a8656b76ce6c31494e77bb2a8b0effee297c1929181900390910190a15050565b60005473ffffffffffffffffffffffffffffffffffffffff1681565b60026020526000908152604090205460ff1681565b60005473ffffffffffffffffffffffffffffffffffffffff1633146106e757600080fd5b6106f081610709565b50565b60016020526000908152604090205461ffff1681565b73ffffffffffffffffffffffffffffffffffffffff8116151561072b57600080fd5b6000805460405173ffffffffffffffffffffffffffffffffffffffff808516939216917f8be0079c531659141344cd1fd0a4f28419497f9722a3daafe3b4186f6b6457e091a3600080547fffffffffffffffffffffffff00000000000000000000000000000000000000001673ffffffffffffffffffffffffffffffffffffffff929092169190911790555600a165627a7a723058204086775b224135c38ac83d80f1eeaa21299ea0c9862ddfafd4430662bd2998880029",
  "source": "pragma solidity ^0.4.24;\n\nimport \"openzeppelin-solidity/contracts/ownership/Ownable.sol\";\nimport \"openzeppelin-solidity/contracts/math/SafeMath.sol\";\n\n/**\n* @title FeeSheet\n* @notice Contains fee amounts for burning CUSD into a stablecoin.\n*/\ncontract FeeSheet is Ownable {\n    using SafeMath for uint16;\n\n    /** @dev Units for fees are always in a tenth of a percent */\n    uint16 public defaultFee; // Default fee for conversions\n\n    /** \n        Mappings\n    */\n    // (stablecoin address => fee for withdrawing to stablecoin, in tenths of a percent)\n    mapping (address => uint16) public fees;\n    // (stablecoin address => if fee is set for stablecoin)\n    mapping (address => bool) public isFeeSet;\n\n    /** \n        Events\n    */\n    event DefaultFeeChanged(uint16 oldFee, uint16 newFee);\n    event FeeChanged(address indexed stablecoin, uint16 oldFee, uint16 newFee);\n    event FeeRemoved(address indexed stablecoin, uint16 oldFee);\n\n    /** @notice Sets the default fee for burning CarbonDollar into a stablecoin.\n        @param fee The default fee.\n    */\n    function setDefaultFee(uint16 fee) public onlyOwner {\n        uint16 oldFee = defaultFee;\n        defaultFee = fee;\n        if (oldFee != defaultFee)\n            emit DefaultFeeChanged(oldFee, fee);\n    }\n    \n    /** @notice Set a fee for burning CarbonDollar into a stablecoin.\n        @param stablecoin Address of stablecoin.\n        @param fee Fee.\n    */\n    function setFee(address stablecoin, uint16 fee) public onlyOwner {\n        uint16 oldFee = fees[stablecoin];\n        fees[stablecoin] = fee;\n        isFeeSet[stablecoin] = true;\n        if (oldFee != fee)\n            emit FeeChanged(stablecoin, oldFee, fee);\n    }\n\n    /** @notice Remove the fee for burning CarbonDollar into a particular kind of stablecoin.\n        @param stablecoin Address of stablecoin.\n    */\n    function removeFee(address stablecoin) public onlyOwner {\n        uint16 oldFee = fees[stablecoin];\n        fees[stablecoin] = 0;\n        isFeeSet[stablecoin] = false;\n        if (oldFee != 0)\n            emit FeeRemoved(stablecoin, oldFee);\n    }\n\n    /**\n     * @notice Compute the fee that will be charged on a \"burn\" operation.\n     * @param amount The amount that will be traded.\n     * @param stablecoin The stablecoin whose fee will be used.\n     */\n    function computeStablecoinFee(uint256 amount, address stablecoin) public view returns (uint256) {\n        uint16 fee = fees[stablecoin];\n        return computeFee(amount, fee);\n    }\n\n    /**\n     * @notice Compute the fee that will be charged on a \"burn\" operation.\n     * @param amount The amount that will be traded.\n     * @param fee The fee that will be charged, in tenths of a percent.\n     */\n    function computeFee(uint256 amount, uint16 fee) public pure returns (uint256) {\n        return (amount * fee) / 1000;\n    }\n}",
  "sourcePath": "/Users/tanishqaggarwal/Documents/carbon/fiat_gateway/contracts/tokens/carbonToken/dataStorage/FeeSheet.sol",
  "compiler": {
    "name": "solc",
    "version": "0.4.24+commit.e67f0147.Emscripten.clang"
  },
  "schemaVersion": "2.0.1",
  "updatedAt": "2018-08-13T20:26:34.643Z"
}