{
  "contractName": "Lockable",
  "abi": [
    {
      "constant": false,
      "inputs": [],
      "name": "renounceOwnership",
      "outputs": [],
      "payable": false,
      "stateMutability": "nonpayable",
      "type": "function"
    },
    {
      "constant": true,
      "inputs": [],
      "name": "isMethodEnabled",
      "outputs": [
        {
          "name": "",
          "type": "bool"
        }
      ],
      "payable": false,
      "stateMutability": "view",
      "type": "function"
    },
    {
      "constant": true,
      "inputs": [],
      "name": "owner",
      "outputs": [
        {
          "name": "",
          "type": "address"
        }
      ],
      "payable": false,
      "stateMutability": "view",
      "type": "function"
    },
    {
      "constant": false,
      "inputs": [
        {
          "name": "_newOwner",
          "type": "address"
        }
      ],
      "name": "transferOwnership",
      "outputs": [],
      "payable": false,
      "stateMutability": "nonpayable",
      "type": "function"
    },
    {
      "anonymous": false,
      "inputs": [],
      "name": "Unlocked",
      "type": "event"
    },
    {
      "anonymous": false,
      "inputs": [],
      "name": "Locked",
      "type": "event"
    },
    {
      "anonymous": false,
      "inputs": [
        {
          "indexed": true,
          "name": "previousOwner",
          "type": "address"
        }
      ],
      "name": "OwnershipRenounced",
      "type": "event"
    },
    {
      "anonymous": false,
      "inputs": [
        {
          "indexed": true,
          "name": "previousOwner",
          "type": "address"
        },
        {
          "indexed": true,
          "name": "newOwner",
          "type": "address"
        }
      ],
      "name": "OwnershipTransferred",
      "type": "event"
    },
    {
      "constant": false,
      "inputs": [],
      "name": "unlock",
      "outputs": [],
      "payable": false,
      "stateMutability": "nonpayable",
      "type": "function"
    },
    {
      "constant": false,
      "inputs": [],
      "name": "lock",
      "outputs": [],
      "payable": false,
      "stateMutability": "nonpayable",
      "type": "function"
    }
  ],
  "bytecode": "0x608060405260008054600160a860020a0319163317905561042c806100256000396000f3006080604052600436106100775763ffffffff7c0100000000000000000000000000000000000000000000000000000000600035041663715018a6811461007c57806388fa2617146100935780638da5cb5b146100bc578063a69df4b5146100fa578063f2fde38b1461010f578063f83d08ba1461013d575b600080fd5b34801561008857600080fd5b50610091610152565b005b34801561009f57600080fd5b506100a86101e3565b604080519115158252519081900360200190f35b3480156100c857600080fd5b506100d1610204565b6040805173ffffffffffffffffffffffffffffffffffffffff9092168252519081900360200190f35b34801561010657600080fd5b50610091610220565b34801561011b57600080fd5b5061009173ffffffffffffffffffffffffffffffffffffffff600435166102ac565b34801561014957600080fd5b506100916102dc565b60005473ffffffffffffffffffffffffffffffffffffffff16331461017657600080fd5b6000805460405173ffffffffffffffffffffffffffffffffffffffff909116917ff8df31144d9c2f0f6b59d69b8b98abd5459d07f2742c4df920b25aae33c6482091a2600080547fffffffffffffffffffffffff0000000000000000000000000000000000000000169055565b60005474010000000000000000000000000000000000000000900460ff1681565b60005473ffffffffffffffffffffffffffffffffffffffff1681565b60005473ffffffffffffffffffffffffffffffffffffffff16331461024457600080fd5b600080547fffffffffffffffffffffff00ffffffffffffffffffffffffffffffffffffffff16740100000000000000000000000000000000000000001781556040517f19aad37188a1d3921e29eb3c66acf43d81975e107cb650d58cca878627955fd69190a1565b60005473ffffffffffffffffffffffffffffffffffffffff1633146102d057600080fd5b6102d981610351565b50565b60005473ffffffffffffffffffffffffffffffffffffffff16331461030057600080fd5b600080547fffffffffffffffffffffff00ffffffffffffffffffffffffffffffffffffffff1681556040517f0f2e5b6c72c6a4491efd919a9f9a409f324ef0708c11ee57d410c2cb06c0992b9190a1565b73ffffffffffffffffffffffffffffffffffffffff8116151561037357600080fd5b6000805460405173ffffffffffffffffffffffffffffffffffffffff808516939216917f8be0079c531659141344cd1fd0a4f28419497f9722a3daafe3b4186f6b6457e091a3600080547fffffffffffffffffffffffff00000000000000000000000000000000000000001673ffffffffffffffffffffffffffffffffffffffff929092169190911790555600a165627a7a72305820f8ee1a3935da7adc9edb3262d18704fcf911e6928b6890e0a3607e63c7710c5c0029",
  "source": "pragma solidity ^0.4.24;\r\n\r\nimport \"openzeppelin-solidity/contracts/ownership/Ownable.sol\";\r\n\r\n/**\r\n* @title Lockable\r\n* @dev Base contract which allows children to lock methods from being called by clients\r\n*/\r\n\r\ncontract Lockable is Ownable {\r\n\r\n\t// Events\r\n\tevent Unlocked();\r\n\tevent Locked();\r\n\r\n\t// Fields\r\n\tbool public isMethodEnabled = false;\r\n\r\n\t// Modifiers\r\n\t/**\r\n\t* @dev Modifier that disables functions by default unless they are explicitly enabled\r\n\t*/\r\n\tmodifier whenUnlocked() {\r\n\t\trequire(isMethodEnabled);\r\n\t\t_;\r\n\t}\r\n\r\n\t// Methods\r\n\t/**\r\n\t* @dev called by the owner to enable method\r\n\t*/\r\n\tfunction unlock() onlyOwner public {\r\n\t\tisMethodEnabled = true;\r\n\t\temit Unlocked();\r\n\t}\r\n\r\n\t/**\r\n\t* @dev called by the owner to disable method, back to normal state\r\n\t*/\r\n\tfunction lock() onlyOwner public {\r\n\t\tisMethodEnabled = false;\r\n\t\temit Locked();\r\n\t}\r\n\r\n}",
  "sourcePath": "C:\\Users\\npain\\Projects\\Carbon\\fiat_gateway\\contracts\\tokens\\permissionedToken\\helpers\\Lockable.sol",
  "compiler": {
    "name": "solc",
    "version": "0.4.24+commit.e67f0147.Emscripten.clang"
  },
  "schemaVersion": "2.0.1",
  "updatedAt": "2018-08-17T17:50:39.529Z"
}