{
  "contractName": "Lockable",
  "abi": [
    {
      "constant": false,
      "inputs": [],
      "name": "claimOwnership",
      "outputs": [],
      "payable": false,
      "stateMutability": "nonpayable",
      "type": "function"
    },
    {
      "constant": true,
      "inputs": [],
      "name": "isMethodEnabled",
      "outputs": [
        {
          "name": "",
          "type": "bool"
        }
      ],
      "payable": false,
      "stateMutability": "view",
      "type": "function"
    },
    {
      "constant": true,
      "inputs": [],
      "name": "owner",
      "outputs": [
        {
          "name": "",
          "type": "address"
        }
      ],
      "payable": false,
      "stateMutability": "view",
      "type": "function"
    },
    {
      "constant": true,
      "inputs": [],
      "name": "pendingOwner",
      "outputs": [
        {
          "name": "",
          "type": "address"
        }
      ],
      "payable": false,
      "stateMutability": "view",
      "type": "function"
    },
    {
      "constant": false,
      "inputs": [
        {
          "name": "_newOwner",
          "type": "address"
        }
      ],
      "name": "transferOwnership",
      "outputs": [],
      "payable": false,
      "stateMutability": "nonpayable",
      "type": "function"
    },
    {
      "anonymous": false,
      "inputs": [],
      "name": "Unlocked",
      "type": "event"
    },
    {
      "anonymous": false,
      "inputs": [],
      "name": "Locked",
      "type": "event"
    },
    {
      "anonymous": false,
      "inputs": [
        {
          "indexed": true,
          "name": "previousOwner",
          "type": "address"
        },
        {
          "indexed": true,
          "name": "newOwner",
          "type": "address"
        }
      ],
      "name": "OwnershipTransferred",
      "type": "event"
    },
    {
      "constant": false,
      "inputs": [],
      "name": "unlock",
      "outputs": [],
      "payable": false,
      "stateMutability": "nonpayable",
      "type": "function"
    },
    {
      "constant": false,
      "inputs": [],
      "name": "lock",
      "outputs": [],
      "payable": false,
      "stateMutability": "nonpayable",
      "type": "function"
    }
  ],
  "bytecode": "0x60806040526001805460008054600160a060020a03191633179055600160a860020a031916905561037d806100356000396000f3006080604052600436106100825763ffffffff7c01000000000000000000000000000000000000000000000000000000006000350416634e71e0c8811461008757806388fa26171461009e5780638da5cb5b146100c7578063a69df4b5146100f8578063e30c39781461010d578063f2fde38b14610122578063f83d08ba14610143575b600080fd5b34801561009357600080fd5b5061009c610158565b005b3480156100aa57600080fd5b506100b36101e0565b604080519115158252519081900360200190f35b3480156100d357600080fd5b506100dc610201565b60408051600160a060020a039092168252519081900360200190f35b34801561010457600080fd5b5061009c610210565b34801561011957600080fd5b506100dc610287565b34801561012e57600080fd5b5061009c600160a060020a0360043516610296565b34801561014f57600080fd5b5061009c6102f1565b600154600160a060020a0316331461016f57600080fd5b60015460008054604051600160a060020a0393841693909116917f8be0079c531659141344cd1fd0a4f28419497f9722a3daafe3b4186f6b6457e091a3600180546000805473ffffffffffffffffffffffffffffffffffffffff19908116600160a060020a03841617909155169055565b60015474010000000000000000000000000000000000000000900460ff1681565b600054600160a060020a031681565b600054600160a060020a0316331461022757600080fd5b6001805474ff00000000000000000000000000000000000000001916740100000000000000000000000000000000000000001790556040517f19aad37188a1d3921e29eb3c66acf43d81975e107cb650d58cca878627955fd690600090a1565b600154600160a060020a031681565b600054600160a060020a031633146102ad57600080fd5b600160a060020a03811615156102c257600080fd5b6001805473ffffffffffffffffffffffffffffffffffffffff1916600160a060020a0392909216919091179055565b600054600160a060020a0316331461030857600080fd5b6001805474ff0000000000000000000000000000000000000000191690556040517f0f2e5b6c72c6a4491efd919a9f9a409f324ef0708c11ee57d410c2cb06c0992b90600090a15600a165627a7a7230582079d4d7988adad7508d56c64b41282f591aee6c4786ac774bf33ce8e30d46c5910029",
  "source": "pragma solidity ^0.4.24;\n\nimport './Ownable.sol';\n\n/**\n* @title Lockable\n* @dev Base contract which allows children to lock certain methods from being called by clients.\n* Locked methods are deemed unsafe by default, but must be implemented in children functionality to adhere by\n* some inherited standard, for example. \n*/\n\ncontract Lockable is Ownable {\n\n\t// Events\n\tevent Unlocked();\n\tevent Locked();\n\n\t// Fields\n\tbool public isMethodEnabled = false;\n\n\t// Modifiers\n\t/**\n\t* @dev Modifier that disables functions by default unless they are explicitly enabled\n\t*/\n\tmodifier whenUnlocked() {\n\t\trequire(isMethodEnabled);\n\t\t_;\n\t}\n\n\t// Methods\n\t/**\n\t* @dev called by the owner to enable method\n\t*/\n\tfunction unlock() onlyOwner public {\n\t\tisMethodEnabled = true;\n\t\temit Unlocked();\n\t}\n\n\t/**\n\t* @dev called by the owner to disable method, back to normal state\n\t*/\n\tfunction lock() onlyOwner public {\n\t\tisMethodEnabled = false;\n\t\temit Locked();\n\t}\n\n}",
  "sourcePath": "/Users/nicholaspai/Carbon/fiat_gateway/contracts/helpers/Lockable.sol",
  "compiler": {
    "name": "solc",
    "version": "0.4.24+commit.e67f0147.Emscripten.clang"
  },
  "schemaVersion": "2.0.1",
  "updatedAt": "2018-12-13T18:27:59.701Z"
}