{
  "contractName": "Lockable",
  "abi": [
    {
      "constant": false,
      "inputs": [],
      "name": "claimOwnership",
      "outputs": [],
      "payable": false,
      "stateMutability": "nonpayable",
      "type": "function"
    },
    {
      "constant": true,
      "inputs": [],
      "name": "isMethodEnabled",
      "outputs": [
        {
          "name": "",
          "type": "bool"
        }
      ],
      "payable": false,
      "stateMutability": "view",
      "type": "function"
    },
    {
      "constant": true,
      "inputs": [],
      "name": "owner",
      "outputs": [
        {
          "name": "",
          "type": "address"
        }
      ],
      "payable": false,
      "stateMutability": "view",
      "type": "function"
    },
    {
      "constant": true,
      "inputs": [],
      "name": "pendingOwner",
      "outputs": [
        {
          "name": "",
          "type": "address"
        }
      ],
      "payable": false,
      "stateMutability": "view",
      "type": "function"
    },
    {
      "constant": false,
      "inputs": [
        {
          "name": "_newOwner",
          "type": "address"
        }
      ],
      "name": "transferOwnership",
      "outputs": [],
      "payable": false,
      "stateMutability": "nonpayable",
      "type": "function"
    },
    {
      "anonymous": false,
      "inputs": [],
      "name": "Unlocked",
      "type": "event"
    },
    {
      "anonymous": false,
      "inputs": [],
      "name": "Locked",
      "type": "event"
    },
    {
      "anonymous": false,
      "inputs": [
        {
          "indexed": true,
          "name": "previousOwner",
          "type": "address"
        },
        {
          "indexed": true,
          "name": "newOwner",
          "type": "address"
        }
      ],
      "name": "OwnershipTransferred",
      "type": "event"
    },
    {
      "constant": false,
      "inputs": [],
      "name": "unlock",
      "outputs": [],
      "payable": false,
      "stateMutability": "nonpayable",
      "type": "function"
    },
    {
      "constant": false,
      "inputs": [],
      "name": "lock",
      "outputs": [],
      "payable": false,
      "stateMutability": "nonpayable",
      "type": "function"
    }
  ],
  "bytecode": "0x60806040526001805460008054600160a060020a03191633179055600160a860020a0319169055610443806100356000396000f3006080604052600436106100825763ffffffff7c01000000000000000000000000000000000000000000000000000000006000350416634e71e0c8811461008757806388fa26171461009e5780638da5cb5b146100c7578063a69df4b514610105578063e30c39781461011a578063f2fde38b1461012f578063f83d08ba1461015d575b600080fd5b34801561009357600080fd5b5061009c610172565b005b3480156100aa57600080fd5b506100b361022c565b604080519115158252519081900360200190f35b3480156100d357600080fd5b506100dc61024d565b6040805173ffffffffffffffffffffffffffffffffffffffff9092168252519081900360200190f35b34801561011157600080fd5b5061009c610269565b34801561012657600080fd5b506100dc6102f7565b34801561013b57600080fd5b5061009c73ffffffffffffffffffffffffffffffffffffffff60043516610313565b34801561016957600080fd5b5061009c6103a0565b60015473ffffffffffffffffffffffffffffffffffffffff16331461019657600080fd5b6001546000805460405173ffffffffffffffffffffffffffffffffffffffff93841693909116917f8be0079c531659141344cd1fd0a4f28419497f9722a3daafe3b4186f6b6457e091a360018054600080547fffffffffffffffffffffffff000000000000000000000000000000000000000090811673ffffffffffffffffffffffffffffffffffffffff841617909155169055565b60015474010000000000000000000000000000000000000000900460ff1681565b60005473ffffffffffffffffffffffffffffffffffffffff1681565b60005473ffffffffffffffffffffffffffffffffffffffff16331461028d57600080fd5b600180547fffffffffffffffffffffff00ffffffffffffffffffffffffffffffffffffffff16740100000000000000000000000000000000000000001790556040517f19aad37188a1d3921e29eb3c66acf43d81975e107cb650d58cca878627955fd690600090a1565b60015473ffffffffffffffffffffffffffffffffffffffff1681565b60005473ffffffffffffffffffffffffffffffffffffffff16331461033757600080fd5b73ffffffffffffffffffffffffffffffffffffffff8116151561035957600080fd5b600180547fffffffffffffffffffffffff00000000000000000000000000000000000000001673ffffffffffffffffffffffffffffffffffffffff92909216919091179055565b60005473ffffffffffffffffffffffffffffffffffffffff1633146103c457600080fd5b600180547fffffffffffffffffffffff00ffffffffffffffffffffffffffffffffffffffff1690556040517f0f2e5b6c72c6a4491efd919a9f9a409f324ef0708c11ee57d410c2cb06c0992b90600090a15600a165627a7a723058201127b3c59d4727e2941f29b71f6f1c7c752980300b412d63163dcfd061b1a5020029",
  "source": "pragma solidity ^0.4.24;\r\n\r\n// import \"openzeppelin-solidity/contracts/ownership/Ownable.sol\";\r\nimport './Ownable.sol';\r\n\r\n/**\r\n* @title Lockable\r\n* @dev Base contract which allows children to lock certain methods from being called by clients.\r\n* Locked methods are deemed unsafe by default, but must be implemented in children functionality to adhere by\r\n* some inherited standard, for example. \r\n*/\r\n\r\ncontract Lockable is Ownable {\r\n\r\n\t// Events\r\n\tevent Unlocked();\r\n\tevent Locked();\r\n\r\n\t// Fields\r\n\tbool public isMethodEnabled = false;\r\n\r\n\t// Modifiers\r\n\t/**\r\n\t* @dev Modifier that disables functions by default unless they are explicitly enabled\r\n\t*/\r\n\tmodifier whenUnlocked() {\r\n\t\trequire(isMethodEnabled);\r\n\t\t_;\r\n\t}\r\n\r\n\t// Methods\r\n\t/**\r\n\t* @dev called by the owner to enable method\r\n\t*/\r\n\tfunction unlock() onlyOwner public {\r\n\t\tisMethodEnabled = true;\r\n\t\temit Unlocked();\r\n\t}\r\n\r\n\t/**\r\n\t* @dev called by the owner to disable method, back to normal state\r\n\t*/\r\n\tfunction lock() onlyOwner public {\r\n\t\tisMethodEnabled = false;\r\n\t\temit Locked();\r\n\t}\r\n\r\n}",
  "sourcePath": "C:\\Users\\npain\\Projects\\Carbon\\fiat_gateway\\contracts\\helpers\\Lockable.sol",
  "compiler": {
    "name": "solc",
    "version": "0.4.24+commit.e67f0147.Emscripten.clang"
  },
  "schemaVersion": "2.0.1",
  "updatedAt": "2018-08-18T15:48:20.648Z"
}