{
  "contractName": "MutableWhitelistedTokenStorage",
  "abi": [
    {
      "constant": false,
      "inputs": [],
      "name": "claimOwnership",
      "outputs": [],
      "payable": false,
      "stateMutability": "nonpayable",
      "type": "function"
    },
    {
      "constant": true,
      "inputs": [],
      "name": "cusdAddress",
      "outputs": [
        {
          "name": "",
          "type": "address"
        }
      ],
      "payable": false,
      "stateMutability": "view",
      "type": "function"
    },
    {
      "constant": true,
      "inputs": [],
      "name": "owner",
      "outputs": [
        {
          "name": "",
          "type": "address"
        }
      ],
      "payable": false,
      "stateMutability": "view",
      "type": "function"
    },
    {
      "constant": true,
      "inputs": [],
      "name": "pendingOwner",
      "outputs": [
        {
          "name": "",
          "type": "address"
        }
      ],
      "payable": false,
      "stateMutability": "view",
      "type": "function"
    },
    {
      "constant": false,
      "inputs": [
        {
          "name": "_newOwner",
          "type": "address"
        }
      ],
      "name": "transferOwnership",
      "outputs": [],
      "payable": false,
      "stateMutability": "nonpayable",
      "type": "function"
    },
    {
      "inputs": [
        {
          "name": "cusd",
          "type": "address"
        }
      ],
      "payable": false,
      "stateMutability": "nonpayable",
      "type": "constructor"
    },
    {
      "anonymous": false,
      "inputs": [
        {
          "indexed": true,
          "name": "oldCUSD",
          "type": "address"
        },
        {
          "indexed": true,
          "name": "newCUSD",
          "type": "address"
        }
      ],
      "name": "CUSDAddressChanged",
      "type": "event"
    },
    {
      "anonymous": false,
      "inputs": [
        {
          "indexed": true,
          "name": "previousOwner",
          "type": "address"
        },
        {
          "indexed": true,
          "name": "newOwner",
          "type": "address"
        }
      ],
      "name": "OwnershipTransferred",
      "type": "event"
    },
    {
      "constant": false,
      "inputs": [
        {
          "name": "_cusd",
          "type": "address"
        }
      ],
      "name": "setCUSDAddress",
      "outputs": [],
      "payable": false,
      "stateMutability": "nonpayable",
      "type": "function"
    }
  ],
  "bytecode": "0x608060405234801561001057600080fd5b50604051602080610538833981016040525160008054600160a060020a03199081163317909155600180548216905560028054600160a060020a03909316929091169190911790556104d1806100676000396000f3006080604052600436106100775763ffffffff7c01000000000000000000000000000000000000000000000000000000006000350416634e71e0c8811461007c578063636f0cf8146100935780638da5cb5b146100d1578063a00d7740146100e6578063e30c397814610114578063f2fde38b14610129575b600080fd5b34801561008857600080fd5b50610091610157565b005b34801561009f57600080fd5b506100a8610211565b6040805173ffffffffffffffffffffffffffffffffffffffff9092168252519081900360200190f35b3480156100dd57600080fd5b506100a861022d565b3480156100f257600080fd5b5061009173ffffffffffffffffffffffffffffffffffffffff60043516610249565b34801561012057600080fd5b506100a8610279565b34801561013557600080fd5b5061009173ffffffffffffffffffffffffffffffffffffffff60043516610295565b60015473ffffffffffffffffffffffffffffffffffffffff16331461017b57600080fd5b6001546000805460405173ffffffffffffffffffffffffffffffffffffffff93841693909116917f8be0079c531659141344cd1fd0a4f28419497f9722a3daafe3b4186f6b6457e091a360018054600080547fffffffffffffffffffffffff000000000000000000000000000000000000000090811673ffffffffffffffffffffffffffffffffffffffff841617909155169055565b60025473ffffffffffffffffffffffffffffffffffffffff1681565b60005473ffffffffffffffffffffffffffffffffffffffff1681565b60005473ffffffffffffffffffffffffffffffffffffffff16331461026d57600080fd5b61027681610322565b50565b60015473ffffffffffffffffffffffffffffffffffffffff1681565b60005473ffffffffffffffffffffffffffffffffffffffff1633146102b957600080fd5b73ffffffffffffffffffffffffffffffffffffffff811615156102db57600080fd5b600180547fffffffffffffffffffffffff00000000000000000000000000000000000000001673ffffffffffffffffffffffffffffffffffffffff92909216919091179055565b60025460009073ffffffffffffffffffffffffffffffffffffffff838116911614156103af57604080517f08c379a000000000000000000000000000000000000000000000000000000000815260206004820152601a60248201527f4d7573742062652061206e657720637573642061646472657373000000000000604482015290519081900360640190fd5b6103b88261049d565b151561042557604080517f08c379a000000000000000000000000000000000000000000000000000000000815260206004820152601a60248201527f4d75737420626520616e2061637475616c20636f6e7472616374000000000000604482015290519081900360640190fd5b506002805473ffffffffffffffffffffffffffffffffffffffff8381167fffffffffffffffffffffffff0000000000000000000000000000000000000000831681179093556040519116919082907f0ec1b8e8ba02bcff9ae905a36374bb7e8f3bbd8ac86b05d99e881092f538a0aa90600090a35050565b6000903b11905600a165627a7a723058202d00308ca53d55c2d429c553aa7268878247c8474ae7b55f73655768126d824e0029",
  "source": "pragma solidity ^0.4.24;\r\n\r\nimport \"./WhitelistedTokenStorage.sol\";\r\nimport \"openzeppelin-solidity/contracts/AddressUtils.sol\";\r\nimport '../../../helpers/Ownable.sol';\r\n\r\n/**\r\n* @title MutableWhitelistedTokenStorage\r\n* @notice Adds mutability to WhitelistedTokenStorage (cusd can be changed.)\r\n*/\r\ncontract MutableWhitelistedTokenStorage is Ownable, WhitelistedTokenStorage {\r\n\t/**\r\n        Events\r\n     */\r\n    event CUSDAddressChanged(address indexed oldCUSD, address indexed newCUSD);\r\n\r\n    constructor (address cusd) public WhitelistedTokenStorage(cusd) {}\r\n\r\n    /**\r\n     * @notice Change the cusd address.\r\n     * @param _cusd the cusd address.\r\n     */\r\n    function setCUSDAddress(address _cusd) public onlyOwner {\r\n        _setCUSDAddress(_cusd);\r\n    }\r\n\r\n    function _setCUSDAddress(address _cusd) internal {\r\n        require(_cusd != address(cusdAddress), \"Must be a new cusd address\");\r\n        require(AddressUtils.isContract(_cusd), \"Must be an actual contract\");\r\n        address oldCUSD = address(cusdAddress);\r\n        cusdAddress = _cusd;\r\n        emit CUSDAddressChanged(oldCUSD, _cusd);\r\n    }\r\n}",
  "sourcePath": "C:\\Users\\npain\\Projects\\Carbon\\fiat_gateway\\contracts\\tokens\\whitelistedToken\\dataStorage\\MutableWhitelistedTokenStorage.sol",
  "compiler": {
    "name": "solc",
    "version": "0.4.24+commit.e67f0147.Emscripten.clang"
  },
  "schemaVersion": "2.0.1",
  "updatedAt": "2018-08-18T21:52:41.883Z"
}