{
  "contractName": "MutableWhitelistedTokenStorage",
  "abi": [
    {
      "constant": true,
      "inputs": [],
      "name": "cusdAddress",
      "outputs": [
        {
          "name": "",
          "type": "address"
        }
      ],
      "payable": false,
      "stateMutability": "view",
      "type": "function"
    },
    {
      "constant": false,
      "inputs": [],
      "name": "renounceOwnership",
      "outputs": [],
      "payable": false,
      "stateMutability": "nonpayable",
      "type": "function"
    },
    {
      "constant": true,
      "inputs": [],
      "name": "owner",
      "outputs": [
        {
          "name": "",
          "type": "address"
        }
      ],
      "payable": false,
      "stateMutability": "view",
      "type": "function"
    },
    {
      "constant": false,
      "inputs": [
        {
          "name": "_newOwner",
          "type": "address"
        }
      ],
      "name": "transferOwnership",
      "outputs": [],
      "payable": false,
      "stateMutability": "nonpayable",
      "type": "function"
    },
    {
      "inputs": [
        {
          "name": "cusd",
          "type": "address"
        }
      ],
      "payable": false,
      "stateMutability": "nonpayable",
      "type": "constructor"
    },
    {
      "anonymous": false,
      "inputs": [
        {
          "indexed": true,
          "name": "oldCUSD",
          "type": "address"
        },
        {
          "indexed": true,
          "name": "newCUSD",
          "type": "address"
        }
      ],
      "name": "CUSDAddressChanged",
      "type": "event"
    },
    {
      "anonymous": false,
      "inputs": [
        {
          "indexed": true,
          "name": "previousOwner",
          "type": "address"
        }
      ],
      "name": "OwnershipRenounced",
      "type": "event"
    },
    {
      "anonymous": false,
      "inputs": [
        {
          "indexed": true,
          "name": "previousOwner",
          "type": "address"
        },
        {
          "indexed": true,
          "name": "newOwner",
          "type": "address"
        }
      ],
      "name": "OwnershipTransferred",
      "type": "event"
    },
    {
      "constant": false,
      "inputs": [
        {
          "name": "_cusd",
          "type": "address"
        }
      ],
      "name": "setCUSDAddress",
      "outputs": [],
      "payable": false,
      "stateMutability": "nonpayable",
      "type": "function"
    }
  ],
  "bytecode": "0x608060405234801561001057600080fd5b5060405160208061051a833981016040525160008054600160a060020a0319908116331790915560018054600160a060020a03909316929091169190911790556104bb8061005f6000396000f30060806040526004361061006c5763ffffffff7c0100000000000000000000000000000000000000000000000000000000600035041663636f0cf88114610071578063715018a6146100af5780638da5cb5b146100c6578063a00d7740146100db578063f2fde38b14610109575b600080fd5b34801561007d57600080fd5b50610086610137565b6040805173ffffffffffffffffffffffffffffffffffffffff9092168252519081900360200190f35b3480156100bb57600080fd5b506100c4610153565b005b3480156100d257600080fd5b506100866101e4565b3480156100e757600080fd5b506100c473ffffffffffffffffffffffffffffffffffffffff60043516610200565b34801561011557600080fd5b506100c473ffffffffffffffffffffffffffffffffffffffff60043516610230565b60015473ffffffffffffffffffffffffffffffffffffffff1681565b60005473ffffffffffffffffffffffffffffffffffffffff16331461017757600080fd5b6000805460405173ffffffffffffffffffffffffffffffffffffffff909116917ff8df31144d9c2f0f6b59d69b8b98abd5459d07f2742c4df920b25aae33c6482091a2600080547fffffffffffffffffffffffff0000000000000000000000000000000000000000169055565b60005473ffffffffffffffffffffffffffffffffffffffff1681565b60005473ffffffffffffffffffffffffffffffffffffffff16331461022457600080fd5b61022d8161025d565b50565b60005473ffffffffffffffffffffffffffffffffffffffff16331461025457600080fd5b61022d816103d8565b60015460009073ffffffffffffffffffffffffffffffffffffffff838116911614156102ea57604080517f08c379a000000000000000000000000000000000000000000000000000000000815260206004820152601a60248201527f4d7573742062652061206e657720637573642061646472657373000000000000604482015290519081900360640190fd5b6102f382610487565b151561036057604080517f08c379a000000000000000000000000000000000000000000000000000000000815260206004820152601a60248201527f4d75737420626520616e2061637475616c20636f6e7472616374000000000000604482015290519081900360640190fd5b506001805473ffffffffffffffffffffffffffffffffffffffff8381167fffffffffffffffffffffffff0000000000000000000000000000000000000000831681179093556040519116919082907f0ec1b8e8ba02bcff9ae905a36374bb7e8f3bbd8ac86b05d99e881092f538a0aa90600090a35050565b73ffffffffffffffffffffffffffffffffffffffff811615156103fa57600080fd5b6000805460405173ffffffffffffffffffffffffffffffffffffffff808516939216917f8be0079c531659141344cd1fd0a4f28419497f9722a3daafe3b4186f6b6457e091a3600080547fffffffffffffffffffffffff00000000000000000000000000000000000000001673ffffffffffffffffffffffffffffffffffffffff92909216919091179055565b6000903b11905600a165627a7a72305820f4c52dfffd4599e79217bc26459606d6d9d7dc7bc7197e93996794b686085b020029",
  "source": "pragma solidity ^0.4.24;\n\nimport \"./WhitelistedTokenStorage.sol\";\nimport \"openzeppelin-solidity/contracts/AddressUtils.sol\";\nimport \"openzeppelin-solidity/contracts/ownership/Ownable.sol\";\n\n/**\n* @title MutableWhitelistedTokenStorage\n* @notice Adds mutability to WhitelistedTokenStorage (cusd can be changed.)\n*/\ncontract MutableWhitelistedTokenStorage is Ownable, WhitelistedTokenStorage {\n\t/**\n        Events\n     */\n    event CUSDAddressChanged(address indexed oldCUSD, address indexed newCUSD);\n\n    constructor (address cusd) WhitelistedTokenStorage(cusd) public {}\n\n    /**\n     * @notice Change the cusd address.\n     * @param _cusd the cusd address.\n     */\n    function setCUSDAddress(address _cusd) public onlyOwner {\n        _setCUSDAddress(_cusd);\n    }\n\n    function _setCUSDAddress(address _cusd) internal {\n        require(_cusd != address(cusdAddress), \"Must be a new cusd address\");\n        require(AddressUtils.isContract(_cusd), \"Must be an actual contract\");\n        address oldCUSD = address(cusdAddress);\n        cusdAddress = _cusd;\n        emit CUSDAddressChanged(oldCUSD, _cusd);\n    }\n}",
  "sourcePath": "/Users/tanishqaggarwal/Documents/carbon/fiat_gateway/contracts/tokens/whitelistedToken/dataStorage/MutableWhitelistedTokenStorage.sol",
  "compiler": {
    "name": "solc",
    "version": "0.4.24+commit.e67f0147.Emscripten.clang"
  },
  "schemaVersion": "2.0.1",
  "updatedAt": "2018-08-13T20:26:34.644Z"
}