{
  "contractName": "MutableRegulatorStorage",
  "abi": [
    {
      "constant": false,
      "inputs": [],
      "name": "claimPermissionOwnership",
      "outputs": [],
      "payable": false,
      "stateMutability": "nonpayable",
      "type": "function"
    },
    {
      "constant": false,
      "inputs": [],
      "name": "claimOwnership",
      "outputs": [],
      "payable": false,
      "stateMutability": "nonpayable",
      "type": "function"
    },
    {
      "constant": false,
      "inputs": [],
      "name": "renounceOwnership",
      "outputs": [],
      "payable": false,
      "stateMutability": "nonpayable",
      "type": "function"
    },
    {
      "constant": false,
      "inputs": [],
      "name": "claimValidatorOwnership",
      "outputs": [],
      "payable": false,
      "stateMutability": "nonpayable",
      "type": "function"
    },
    {
      "constant": true,
      "inputs": [],
      "name": "owner",
      "outputs": [
        {
          "name": "",
          "type": "address"
        }
      ],
      "payable": false,
      "stateMutability": "view",
      "type": "function"
    },
    {
      "constant": true,
      "inputs": [],
      "name": "permissions",
      "outputs": [
        {
          "name": "",
          "type": "address"
        }
      ],
      "payable": false,
      "stateMutability": "view",
      "type": "function"
    },
    {
      "constant": true,
      "inputs": [],
      "name": "validators",
      "outputs": [
        {
          "name": "",
          "type": "address"
        }
      ],
      "payable": false,
      "stateMutability": "view",
      "type": "function"
    },
    {
      "constant": true,
      "inputs": [],
      "name": "pendingOwner",
      "outputs": [
        {
          "name": "",
          "type": "address"
        }
      ],
      "payable": false,
      "stateMutability": "view",
      "type": "function"
    },
    {
      "constant": false,
      "inputs": [
        {
          "name": "newOwner",
          "type": "address"
        }
      ],
      "name": "transferOwnership",
      "outputs": [],
      "payable": false,
      "stateMutability": "nonpayable",
      "type": "function"
    },
    {
      "inputs": [
        {
          "name": "permissions",
          "type": "address"
        },
        {
          "name": "validators",
          "type": "address"
        }
      ],
      "payable": false,
      "stateMutability": "nonpayable",
      "type": "constructor"
    },
    {
      "anonymous": false,
      "inputs": [
        {
          "indexed": false,
          "name": "_old",
          "type": "address"
        },
        {
          "indexed": false,
          "name": "_new",
          "type": "address"
        }
      ],
      "name": "ChangedPermissionStorage",
      "type": "event"
    },
    {
      "anonymous": false,
      "inputs": [
        {
          "indexed": false,
          "name": "_old",
          "type": "address"
        },
        {
          "indexed": false,
          "name": "_new",
          "type": "address"
        }
      ],
      "name": "ChangedValidatorStorage",
      "type": "event"
    },
    {
      "anonymous": false,
      "inputs": [
        {
          "indexed": true,
          "name": "previousOwner",
          "type": "address"
        }
      ],
      "name": "OwnershipRenounced",
      "type": "event"
    },
    {
      "anonymous": false,
      "inputs": [
        {
          "indexed": true,
          "name": "previousOwner",
          "type": "address"
        },
        {
          "indexed": true,
          "name": "newOwner",
          "type": "address"
        }
      ],
      "name": "OwnershipTransferred",
      "type": "event"
    },
    {
      "constant": false,
      "inputs": [
        {
          "name": "_newStorageAddress",
          "type": "address"
        }
      ],
      "name": "setPermissionStorage",
      "outputs": [],
      "payable": false,
      "stateMutability": "nonpayable",
      "type": "function"
    },
    {
      "constant": false,
      "inputs": [
        {
          "name": "_newStorageAddress",
          "type": "address"
        }
      ],
      "name": "setValidatorStorage",
      "outputs": [],
      "payable": false,
      "stateMutability": "nonpayable",
      "type": "function"
    }
  ],
  "bytecode": "0x608060405234801561001057600080fd5b506040516040806109aa83398101604052805160209091015160008054600160a060020a0319908116331790915560028054600160a060020a0394851690831617905560038054939092169216919091179055610938806100726000396000f3006080604052600436106100ae5763ffffffff7c01000000000000000000000000000000000000000000000000000000006000350416630bdb3d5a81146100b35780634e71e0c8146100ca578063715018a6146100df57806385a2785e146100f45780638da5cb5b14610109578063ab8c71c014610147578063aef5eb801461015c578063ca1e78191461018a578063e30c39781461019f578063e51207e7146101b4578063f2fde38b146101e2575b600080fd5b3480156100bf57600080fd5b506100c8610210565b005b3480156100d657600080fd5b506100c86102b0565b3480156100eb57600080fd5b506100c861036a565b34801561010057600080fd5b506100c86103fb565b34801561011557600080fd5b5061011e610481565b6040805173ffffffffffffffffffffffffffffffffffffffff9092168252519081900360200190f35b34801561015357600080fd5b5061011e61049d565b34801561016857600080fd5b506100c873ffffffffffffffffffffffffffffffffffffffff600435166104b9565b34801561019657600080fd5b5061011e61068d565b3480156101ab57600080fd5b5061011e6106a9565b3480156101c057600080fd5b506100c873ffffffffffffffffffffffffffffffffffffffff600435166106c5565b3480156101ee57600080fd5b506100c873ffffffffffffffffffffffffffffffffffffffff60043516610899565b600260009054906101000a900473ffffffffffffffffffffffffffffffffffffffff1673ffffffffffffffffffffffffffffffffffffffff16634e71e0c86040518163ffffffff167c0100000000000000000000000000000000000000000000000000000000028152600401600060405180830381600087803b15801561029657600080fd5b505af11580156102aa573d6000803e3d6000fd5b50505050565b60015473ffffffffffffffffffffffffffffffffffffffff1633146102d457600080fd5b6001546000805460405173ffffffffffffffffffffffffffffffffffffffff93841693909116917f8be0079c531659141344cd1fd0a4f28419497f9722a3daafe3b4186f6b6457e091a360018054600080547fffffffffffffffffffffffff000000000000000000000000000000000000000090811673ffffffffffffffffffffffffffffffffffffffff841617909155169055565b60005473ffffffffffffffffffffffffffffffffffffffff16331461038e57600080fd5b6000805460405173ffffffffffffffffffffffffffffffffffffffff909116917ff8df31144d9c2f0f6b59d69b8b98abd5459d07f2742c4df920b25aae33c6482091a2600080547fffffffffffffffffffffffff0000000000000000000000000000000000000000169055565b600360009054906101000a900473ffffffffffffffffffffffffffffffffffffffff1673ffffffffffffffffffffffffffffffffffffffff16634e71e0c86040518163ffffffff167c0100000000000000000000000000000000000000000000000000000000028152600401600060405180830381600087803b15801561029657600080fd5b60005473ffffffffffffffffffffffffffffffffffffffff1681565b60025473ffffffffffffffffffffffffffffffffffffffff1681565b6000805473ffffffffffffffffffffffffffffffffffffffff1633146104de57600080fd5b60025473ffffffffffffffffffffffffffffffffffffffff8381169116141561056857604080517f08c379a000000000000000000000000000000000000000000000000000000000815260206004820152601e60248201527f4d7573742062652061206e6577207065726d697373696f6e2073686565740000604482015290519081900360640190fd5b61057182610904565b151561060457604080517f08c379a000000000000000000000000000000000000000000000000000000000815260206004820152603860248201527f43616e6e6f7420736574206120726567756c61746f722073746f72616765207460448201527f6f2061206e6f6e2d636f6e747261637420616464726573730000000000000000606482015290519081900360840190fd5b506002805473ffffffffffffffffffffffffffffffffffffffff8381167fffffffffffffffffffffffff0000000000000000000000000000000000000000831681179093556040805191909216808252602082019390935281517fe17aee9aa44ff533ce61ee89d13b1d2a8cb1143b69d05d08a5d136acae8a7707929181900390910190a15050565b60035473ffffffffffffffffffffffffffffffffffffffff1681565b60015473ffffffffffffffffffffffffffffffffffffffff1681565b6000805473ffffffffffffffffffffffffffffffffffffffff1633146106ea57600080fd5b60035473ffffffffffffffffffffffffffffffffffffffff8381169116141561077457604080517f08c379a000000000000000000000000000000000000000000000000000000000815260206004820152601d60248201527f4d7573742062652061206e65772076616c696461746f72207368656574000000604482015290519081900360640190fd5b61077d82610904565b151561081057604080517f08c379a000000000000000000000000000000000000000000000000000000000815260206004820152603860248201527f43616e6e6f7420736574206120726567756c61746f722073746f72616765207460448201527f6f2061206e6f6e2d636f6e747261637420616464726573730000000000000000606482015290519081900360840190fd5b506003805473ffffffffffffffffffffffffffffffffffffffff8381167fffffffffffffffffffffffff0000000000000000000000000000000000000000831681179093556040805191909216808252602082019390935281517f8ca674c4f8f0a3a35b50833ae3d8d889663de2b78cdbe0765021594acec3cda2929181900390910190a15050565b60005473ffffffffffffffffffffffffffffffffffffffff1633146108bd57600080fd5b600180547fffffffffffffffffffffffff00000000000000000000000000000000000000001673ffffffffffffffffffffffffffffffffffffffff92909216919091179055565b6000903b11905600a165627a7a723058208ff438aea01bc10086da278f90dcdc2a26ec17c6c7b509505d300cd8066873120029",
  "source": "pragma solidity ^0.4.24;\r\n\r\nimport \"./RegulatorStorage.sol\";\r\nimport \"openzeppelin-solidity/contracts/AddressUtils.sol\";\r\nimport \"openzeppelin-solidity/contracts/ownership/Claimable.sol\";\r\n\r\n\r\n/**\r\n*\r\n* @dev A MutableRegulatorStorage can upgrade its permission and validator sheet location\r\n*\r\n*/\r\ncontract MutableRegulatorStorage is Claimable, RegulatorStorage {\r\n    // Events\r\n    event ChangedPermissionStorage(address _old, address _new);\r\n    event ChangedValidatorStorage(address _old, address _new);\r\n\r\n    constructor (address permissions, address validators) RegulatorStorage(permissions, validators) public {\r\n    }\r\n\r\n    /**\r\n    * @dev Only the MutableRegulatorStorage owner can change its storage location\r\n    * @param _newStorageAddress the new storage address\r\n    */\r\n    function setPermissionStorage(address _newStorageAddress) public onlyOwner {\r\n        require(_newStorageAddress != address(permissions), \"Must be a new permission sheet\");\r\n        require(AddressUtils.isContract(_newStorageAddress), \"Cannot set a regulator storage to a non-contract address\");\r\n        address old = address(permissions);\r\n        permissions = PermissionSheet(_newStorageAddress);\r\n        emit ChangedPermissionStorage(old, _newStorageAddress);\r\n    }\r\n\r\n    function setValidatorStorage(address _newStorageAddress) public onlyOwner {\r\n        require(_newStorageAddress != address(validators), \"Must be a new validator sheet\");\r\n        require(AddressUtils.isContract(_newStorageAddress), \"Cannot set a regulator storage to a non-contract address\");\r\n        address old = address(validators);\r\n        validators = ValidatorSheet(_newStorageAddress);\r\n        emit ChangedValidatorStorage(old, _newStorageAddress);\r\n    }\r\n}",
  "sourcePath": "C:\\Users\\npain\\Projects\\Carbon\\fiat_gateway\\contracts\\regulator\\dataStorage\\MutableRegulatorStorage.sol",
  "compiler": {
    "name": "solc",
    "version": "0.4.24+commit.e67f0147.Emscripten.clang"
  },
  "schemaVersion": "2.0.1",
  "updatedAt": "2018-08-17T20:11:37.911Z"
}