{
  "contractName": "MutablePermissionedTokenStorage",
  "abi": [
    {
      "constant": true,
      "inputs": [],
      "name": "allowances",
      "outputs": [
        {
          "name": "",
          "type": "address"
        }
      ],
      "payable": false,
      "stateMutability": "view",
      "type": "function"
    },
    {
      "constant": false,
      "inputs": [],
      "name": "claimOwnership",
      "outputs": [],
      "payable": false,
      "stateMutability": "nonpayable",
      "type": "function"
    },
    {
      "constant": true,
      "inputs": [],
      "name": "balances",
      "outputs": [
        {
          "name": "",
          "type": "address"
        }
      ],
      "payable": false,
      "stateMutability": "view",
      "type": "function"
    },
    {
      "constant": false,
      "inputs": [],
      "name": "claimBalanceOwnership",
      "outputs": [],
      "payable": false,
      "stateMutability": "nonpayable",
      "type": "function"
    },
    {
      "constant": true,
      "inputs": [],
      "name": "owner",
      "outputs": [
        {
          "name": "",
          "type": "address"
        }
      ],
      "payable": false,
      "stateMutability": "view",
      "type": "function"
    },
    {
      "constant": false,
      "inputs": [],
      "name": "claimAllowanceOwnership",
      "outputs": [],
      "payable": false,
      "stateMutability": "nonpayable",
      "type": "function"
    },
    {
      "constant": true,
      "inputs": [],
      "name": "regulator",
      "outputs": [
        {
          "name": "",
          "type": "address"
        }
      ],
      "payable": false,
      "stateMutability": "view",
      "type": "function"
    },
    {
      "constant": true,
      "inputs": [],
      "name": "pendingOwner",
      "outputs": [
        {
          "name": "",
          "type": "address"
        }
      ],
      "payable": false,
      "stateMutability": "view",
      "type": "function"
    },
    {
      "constant": false,
      "inputs": [
        {
          "name": "_newOwner",
          "type": "address"
        }
      ],
      "name": "transferOwnership",
      "outputs": [],
      "payable": false,
      "stateMutability": "nonpayable",
      "type": "function"
    },
    {
      "inputs": [
        {
          "name": "regulator",
          "type": "address"
        },
        {
          "name": "balances",
          "type": "address"
        },
        {
          "name": "allowances",
          "type": "address"
        }
      ],
      "payable": false,
      "stateMutability": "nonpayable",
      "type": "constructor"
    },
    {
      "anonymous": false,
      "inputs": [
        {
          "indexed": false,
          "name": "_old",
          "type": "address"
        },
        {
          "indexed": false,
          "name": "_new",
          "type": "address"
        }
      ],
      "name": "ChangedRegulator",
      "type": "event"
    },
    {
      "anonymous": false,
      "inputs": [
        {
          "indexed": false,
          "name": "_old",
          "type": "address"
        },
        {
          "indexed": false,
          "name": "_new",
          "type": "address"
        }
      ],
      "name": "ChangedBalanceStorage",
      "type": "event"
    },
    {
      "anonymous": false,
      "inputs": [
        {
          "indexed": false,
          "name": "_old",
          "type": "address"
        },
        {
          "indexed": false,
          "name": "_new",
          "type": "address"
        }
      ],
      "name": "ChangedAllowanceStorage",
      "type": "event"
    },
    {
      "anonymous": false,
      "inputs": [
        {
          "indexed": true,
          "name": "previousOwner",
          "type": "address"
        },
        {
          "indexed": true,
          "name": "newOwner",
          "type": "address"
        }
      ],
      "name": "OwnershipTransferred",
      "type": "event"
    },
    {
      "constant": false,
      "inputs": [
        {
          "name": "_newStorageAddress",
          "type": "address"
        }
      ],
      "name": "setRegulator",
      "outputs": [],
      "payable": false,
      "stateMutability": "nonpayable",
      "type": "function"
    },
    {
      "constant": false,
      "inputs": [
        {
          "name": "_newStorageAddress",
          "type": "address"
        }
      ],
      "name": "setBalanceStorage",
      "outputs": [],
      "payable": false,
      "stateMutability": "nonpayable",
      "type": "function"
    },
    {
      "constant": false,
      "inputs": [
        {
          "name": "_newStorageAddress",
          "type": "address"
        }
      ],
      "name": "setAllowanceStorage",
      "outputs": [],
      "payable": false,
      "stateMutability": "nonpayable",
      "type": "function"
    }
  ],
  "bytecode": "0x608060405234801561001057600080fd5b50604051606080610b658339810160409081528151602083015191909201516000805433600160a060020a03199182161782556001805482169055600280548216600160a060020a03968716179055600380548216948616949094179093556004805490931693909116929092179055610ad590819061009090396000f3006080604052600436106100b95763ffffffff7c01000000000000000000000000000000000000000000000000000000006000350416633ed10b9281146100be5780634e71e0c8146100fc57806373e9e0e5146101135780637bb98a68146101415780638955ed7e146101565780638da5cb5b1461016b5780639b2bdc2014610180578063c52dd64414610195578063cde0a4f8146101c3578063dd8fee14146101f1578063e30c397814610206578063f2fde38b1461021b575b600080fd5b3480156100ca57600080fd5b506100d3610249565b6040805173ffffffffffffffffffffffffffffffffffffffff9092168252519081900360200190f35b34801561010857600080fd5b50610111610265565b005b34801561011f57600080fd5b5061011173ffffffffffffffffffffffffffffffffffffffff6004351661031f565b34801561014d57600080fd5b506100d36104f3565b34801561016257600080fd5b5061011161050f565b34801561017757600080fd5b506100d36105af565b34801561018c57600080fd5b506101116105cb565b3480156101a157600080fd5b5061011173ffffffffffffffffffffffffffffffffffffffff60043516610634565b3480156101cf57600080fd5b5061011173ffffffffffffffffffffffffffffffffffffffff60043516610808565b3480156101fd57600080fd5b506100d36109dc565b34801561021257600080fd5b506100d36109f8565b34801561022757600080fd5b5061011173ffffffffffffffffffffffffffffffffffffffff60043516610a14565b60045473ffffffffffffffffffffffffffffffffffffffff1681565b60015473ffffffffffffffffffffffffffffffffffffffff16331461028957600080fd5b6001546000805460405173ffffffffffffffffffffffffffffffffffffffff93841693909116917f8be0079c531659141344cd1fd0a4f28419497f9722a3daafe3b4186f6b6457e091a360018054600080547fffffffffffffffffffffffff000000000000000000000000000000000000000090811673ffffffffffffffffffffffffffffffffffffffff841617909155169055565b6000805473ffffffffffffffffffffffffffffffffffffffff16331461034457600080fd5b60035473ffffffffffffffffffffffffffffffffffffffff838116911614156103ce57604080517f08c379a000000000000000000000000000000000000000000000000000000000815260206004820152601b60248201527f4d7573742062652061206e65772062616c616e63652073686565740000000000604482015290519081900360640190fd5b6103d782610aa1565b151561046a57604080517f08c379a000000000000000000000000000000000000000000000000000000000815260206004820152603860248201527f43616e6e6f7420736574206120726567756c61746f722073746f72616765207460448201527f6f2061206e6f6e2d636f6e747261637420616464726573730000000000000000606482015290519081900360840190fd5b506003805473ffffffffffffffffffffffffffffffffffffffff8381167fffffffffffffffffffffffff0000000000000000000000000000000000000000831681179093556040805191909216808252602082019390935281517f8c3d37b41e983f0d5b0b91de3f9d5055c73a17beebc7adfce9b677ab7c07ad2d929181900390910190a15050565b60035473ffffffffffffffffffffffffffffffffffffffff1681565b600360009054906101000a900473ffffffffffffffffffffffffffffffffffffffff1673ffffffffffffffffffffffffffffffffffffffff16634e71e0c86040518163ffffffff167c0100000000000000000000000000000000000000000000000000000000028152600401600060405180830381600087803b15801561059557600080fd5b505af11580156105a9573d6000803e3d6000fd5b50505050565b60005473ffffffffffffffffffffffffffffffffffffffff1681565b60048054604080517f4e71e0c8000000000000000000000000000000000000000000000000000000008152905173ffffffffffffffffffffffffffffffffffffffff90921692634e71e0c892828201926000929082900301818387803b15801561059557600080fd5b6000805473ffffffffffffffffffffffffffffffffffffffff16331461065957600080fd5b60045473ffffffffffffffffffffffffffffffffffffffff838116911614156106e357604080517f08c379a000000000000000000000000000000000000000000000000000000000815260206004820152601b60248201527f4d7573742062652061206e65772073746f726167652073686565740000000000604482015290519081900360640190fd5b6106ec82610aa1565b151561077f57604080517f08c379a000000000000000000000000000000000000000000000000000000000815260206004820152603860248201527f43616e6e6f7420736574206120726567756c61746f722073746f72616765207460448201527f6f2061206e6f6e2d636f6e747261637420616464726573730000000000000000606482015290519081900360840190fd5b506004805473ffffffffffffffffffffffffffffffffffffffff8381167fffffffffffffffffffffffff0000000000000000000000000000000000000000831681179093556040805191909216808252602082019390935281517fec358425c40511d576e1c52be7593403bceacda627234c873b52589fef7b2359929181900390910190a15050565b6000805473ffffffffffffffffffffffffffffffffffffffff16331461082d57600080fd5b60025473ffffffffffffffffffffffffffffffffffffffff838116911614156108b757604080517f08c379a000000000000000000000000000000000000000000000000000000000815260206004820152601760248201527f4d7573742062652061206e657720726567756c61746f72000000000000000000604482015290519081900360640190fd5b6108c082610aa1565b151561095357604080517f08c379a000000000000000000000000000000000000000000000000000000000815260206004820152603860248201527f43616e6e6f7420736574206120726567756c61746f722073746f72616765207460448201527f6f2061206e6f6e2d636f6e747261637420616464726573730000000000000000606482015290519081900360840190fd5b506002805473ffffffffffffffffffffffffffffffffffffffff8381167fffffffffffffffffffffffff0000000000000000000000000000000000000000831681179093556040805191909216808252602082019390935281517f4a59b4b607c6055b37a4716d7813d7d4d2c288e4d0dd8298e365b260a1f262e8929181900390910190a15050565b60025473ffffffffffffffffffffffffffffffffffffffff1681565b60015473ffffffffffffffffffffffffffffffffffffffff1681565b60005473ffffffffffffffffffffffffffffffffffffffff163314610a3857600080fd5b73ffffffffffffffffffffffffffffffffffffffff81161515610a5a57600080fd5b600180547fffffffffffffffffffffffff00000000000000000000000000000000000000001673ffffffffffffffffffffffffffffffffffffffff92909216919091179055565b6000903b11905600a165627a7a723058208895837930e9b7c59eb56041010098e2af221f35e34c36a0573aedfa2ccbbe2b0029",
  "source": "pragma solidity ^0.4.24;\r\n\r\nimport \"./PermissionedTokenStorage.sol\";\r\nimport \"openzeppelin-solidity/contracts/AddressUtils.sol\";\r\nimport '../../../helpers/Ownable.sol';\r\n\r\n/**\r\n* @title MutablePermissionedTokenStorage\r\n* @notice Extends PermissionedTokenStorage by allowing changing the locations \r\n* of the allowance, balance, and regulator contracts.\r\n*/\r\ncontract MutablePermissionedTokenStorage is Ownable, PermissionedTokenStorage {\r\n\r\n    // Events\r\n    event ChangedRegulator(address _old, address _new);\r\n    event ChangedBalanceStorage(address _old, address _new);\r\n    event ChangedAllowanceStorage(address _old, address _new);\r\n\r\n    constructor (address regulator, address balances, address allowances) public PermissionedTokenStorage (regulator, balances, allowances) {\r\n    }\r\n\r\n    /**\r\n    *\r\n    * @dev Only the MutablePermissionedTokenStorageConsumer owner can change its storage location\r\n    * @param _newStorageAddress the new storage address\r\n    *\r\n    */\r\n\r\n    function setRegulator(address _newStorageAddress) public onlyOwner {\r\n        require(_newStorageAddress != address(regulator), \"Must be a new regulator\");\r\n        require(AddressUtils.isContract(_newStorageAddress), \"Cannot set a regulator storage to a non-contract address\");\r\n        address old = address(regulator);\r\n        regulator = Regulator(_newStorageAddress);\r\n        emit ChangedRegulator(old, _newStorageAddress);\r\n    }\r\n\r\n    function setBalanceStorage(address _newStorageAddress) public onlyOwner {\r\n        require(_newStorageAddress != address(balances), \"Must be a new balance sheet\");\r\n        require(AddressUtils.isContract(_newStorageAddress), \"Cannot set a regulator storage to a non-contract address\");\r\n        address old = address(balances);\r\n        balances = BalanceSheet(_newStorageAddress);\r\n        emit ChangedBalanceStorage(old, _newStorageAddress);\r\n    }\r\n\r\n    function setAllowanceStorage(address _newStorageAddress) public onlyOwner {\r\n        require(_newStorageAddress != address(allowances), \"Must be a new storage sheet\");\r\n        require(AddressUtils.isContract(_newStorageAddress), \"Cannot set a regulator storage to a non-contract address\");\r\n        address old = address(allowances);\r\n        allowances = AllowanceSheet(_newStorageAddress);\r\n        emit ChangedAllowanceStorage(old, _newStorageAddress);\r\n    }\r\n}",
  "sourcePath": "C:\\Users\\npain\\Projects\\Carbon\\fiat_gateway\\contracts\\tokens\\permissionedToken\\dataStorage\\MutablePermissionedTokenStorage.sol",
  "compiler": {
    "name": "solc",
    "version": "0.4.24+commit.e67f0147.Emscripten.clang"
  },
  "schemaVersion": "2.0.1",
  "updatedAt": "2018-08-18T21:52:41.882Z"
}