{
  "contractName": "MutableCarbonDollarStorage",
  "abi": [
    {
      "constant": false,
      "inputs": [],
      "name": "renounceOwnership",
      "outputs": [],
      "payable": false,
      "stateMutability": "nonpayable",
      "type": "function"
    },
    {
      "constant": true,
      "inputs": [],
      "name": "owner",
      "outputs": [
        {
          "name": "",
          "type": "address"
        }
      ],
      "payable": false,
      "stateMutability": "view",
      "type": "function"
    },
    {
      "constant": true,
      "inputs": [],
      "name": "stablecoinFees",
      "outputs": [
        {
          "name": "",
          "type": "address"
        }
      ],
      "payable": false,
      "stateMutability": "view",
      "type": "function"
    },
    {
      "constant": true,
      "inputs": [],
      "name": "stablecoinWhitelist",
      "outputs": [
        {
          "name": "",
          "type": "address"
        }
      ],
      "payable": false,
      "stateMutability": "view",
      "type": "function"
    },
    {
      "constant": false,
      "inputs": [
        {
          "name": "_newOwner",
          "type": "address"
        }
      ],
      "name": "transferOwnership",
      "outputs": [],
      "payable": false,
      "stateMutability": "nonpayable",
      "type": "function"
    },
    {
      "inputs": [
        {
          "name": "f",
          "type": "address"
        },
        {
          "name": "w",
          "type": "address"
        }
      ],
      "payable": false,
      "stateMutability": "nonpayable",
      "type": "constructor"
    },
    {
      "anonymous": false,
      "inputs": [
        {
          "indexed": true,
          "name": "oldSheet",
          "type": "address"
        },
        {
          "indexed": true,
          "name": "newSheet",
          "type": "address"
        }
      ],
      "name": "FeeSheetChanged",
      "type": "event"
    },
    {
      "anonymous": false,
      "inputs": [
        {
          "indexed": true,
          "name": "oldWhitelist",
          "type": "address"
        },
        {
          "indexed": true,
          "name": "newWhitelist",
          "type": "address"
        }
      ],
      "name": "StablecoinWhitelistChanged",
      "type": "event"
    },
    {
      "anonymous": false,
      "inputs": [
        {
          "indexed": true,
          "name": "previousOwner",
          "type": "address"
        }
      ],
      "name": "OwnershipRenounced",
      "type": "event"
    },
    {
      "anonymous": false,
      "inputs": [
        {
          "indexed": true,
          "name": "previousOwner",
          "type": "address"
        },
        {
          "indexed": true,
          "name": "newOwner",
          "type": "address"
        }
      ],
      "name": "OwnershipTransferred",
      "type": "event"
    },
    {
      "constant": false,
      "inputs": [
        {
          "name": "_whitelist",
          "type": "address"
        }
      ],
      "name": "setStablecoinWhitelist",
      "outputs": [],
      "payable": false,
      "stateMutability": "nonpayable",
      "type": "function"
    },
    {
      "constant": false,
      "inputs": [
        {
          "name": "_sheet",
          "type": "address"
        }
      ],
      "name": "setFeeSheet",
      "outputs": [],
      "payable": false,
      "stateMutability": "nonpayable",
      "type": "function"
    }
  ],
  "bytecode": "0x608060405234801561001057600080fd5b5060405160408061077083398101604052805160209091015160008054600160a060020a0319908116331790915560018054600160a060020a03948516908316179055600280549390921692169190911790556106fe806100726000396000f3006080604052600436106100825763ffffffff7c010000000000000000000000000000000000000000000000000000000060003504166360814fe88114610087578063715018a6146100b75780638da5cb5b146100cc578063d1a15eba1461010a578063d965156614610138578063e14852e31461014d578063f2fde38b14610162575b600080fd5b34801561009357600080fd5b506100b573ffffffffffffffffffffffffffffffffffffffff60043516610190565b005b3480156100c357600080fd5b506100b56101c0565b3480156100d857600080fd5b506100e1610251565b6040805173ffffffffffffffffffffffffffffffffffffffff9092168252519081900360200190f35b34801561011657600080fd5b506100b573ffffffffffffffffffffffffffffffffffffffff6004351661026d565b34801561014457600080fd5b506100e161029a565b34801561015957600080fd5b506100e16102b6565b34801561016e57600080fd5b506100b573ffffffffffffffffffffffffffffffffffffffff600435166102d2565b60005473ffffffffffffffffffffffffffffffffffffffff1633146101b457600080fd5b6101bd816102ff565b50565b60005473ffffffffffffffffffffffffffffffffffffffff1633146101e457600080fd5b6000805460405173ffffffffffffffffffffffffffffffffffffffff909116917ff8df31144d9c2f0f6b59d69b8b98abd5459d07f2742c4df920b25aae33c6482091a2600080547fffffffffffffffffffffffff0000000000000000000000000000000000000000169055565b60005473ffffffffffffffffffffffffffffffffffffffff1681565b60005473ffffffffffffffffffffffffffffffffffffffff16331461029157600080fd5b6101bd8161047a565b60015473ffffffffffffffffffffffffffffffffffffffff1681565b60025473ffffffffffffffffffffffffffffffffffffffff1681565b60005473ffffffffffffffffffffffffffffffffffffffff1633146102f657600080fd5b6101bd8161061b565b60015460009073ffffffffffffffffffffffffffffffffffffffff8381169116141561038c57604080517f08c379a000000000000000000000000000000000000000000000000000000000815260206004820152601760248201527f4d7573742062652061206e657720666565207368656574000000000000000000604482015290519081900360640190fd5b610395826106ca565b151561040257604080517f08c379a000000000000000000000000000000000000000000000000000000000815260206004820152601a60248201527f4d75737420626520616e2061637475616c20636f6e7472616374000000000000604482015290519081900360640190fd5b506001805473ffffffffffffffffffffffffffffffffffffffff8381167fffffffffffffffffffffffff0000000000000000000000000000000000000000831681179093556040519116919082907ffa50850a9a205a6eab44ae568df104b00a5fd26ba0ded7dd81d4879c6a27d29b90600090a35050565b60025460009073ffffffffffffffffffffffffffffffffffffffff8381169116141561052d57604080517f08c379a000000000000000000000000000000000000000000000000000000000815260206004820152602260248201527f4d7573742062652061206e657720737461626c65636f696e2077686974656c6960448201527f7374000000000000000000000000000000000000000000000000000000000000606482015290519081900360840190fd5b610536826106ca565b15156105a357604080517f08c379a000000000000000000000000000000000000000000000000000000000815260206004820152601a60248201527f4d75737420626520616e2061637475616c20636f6e7472616374000000000000604482015290519081900360640190fd5b506002805473ffffffffffffffffffffffffffffffffffffffff8381167fffffffffffffffffffffffff0000000000000000000000000000000000000000831681179093556040519116919082907f9d4cc8ae350dd03b669fc5b6d399ea6b56438abd19c07b3e71abd09552bafe3490600090a35050565b73ffffffffffffffffffffffffffffffffffffffff8116151561063d57600080fd5b6000805460405173ffffffffffffffffffffffffffffffffffffffff808516939216917f8be0079c531659141344cd1fd0a4f28419497f9722a3daafe3b4186f6b6457e091a3600080547fffffffffffffffffffffffff00000000000000000000000000000000000000001673ffffffffffffffffffffffffffffffffffffffff92909216919091179055565b6000903b11905600a165627a7a7230582041d08d4d8118688059e51f5429157a356f38cbcfdf028958b610d7a0202d525d0029",
  "source": "pragma solidity ^0.4.24;\r\n\r\nimport \"./CarbonDollarStorage.sol\";\r\nimport \"openzeppelin-solidity/contracts/AddressUtils.sol\";\r\nimport \"openzeppelin-solidity/contracts/ownership/Ownable.sol\";\r\n\r\n/**\r\n* @title MutableCarbonDollarStorage\r\n* @notice Adds mutability to CarbonDollarStorage (FeeSheet and StablecoinWhitelist can be changed.)\r\n*/\r\ncontract MutableCarbonDollarStorage is Ownable, CarbonDollarStorage {\r\n\t/**\r\n        Events\r\n     */\r\n    event FeeSheetChanged(address indexed oldSheet, address indexed newSheet);\r\n    event StablecoinWhitelistChanged(address indexed oldWhitelist, address indexed newWhitelist);\r\n\r\n\t/**\r\n    * @dev a PermissionedTokenStorage can set its storages only once, on construction\r\n    *\r\n    **/\r\n    constructor (address f, address w) CarbonDollarStorage(f, w) public {}\r\n\r\n    /**\r\n     * @notice Set the stablecoin whitelist contract.\r\n     * @param _whitelist Address of the stablecoin whitelist contract.\r\n     */\r\n    function setStablecoinWhitelist(address _whitelist) public onlyOwner {\r\n        _setStablecoinWhitelist(_whitelist);\r\n    }\r\n\r\n    function _setStablecoinWhitelist(address _whitelist) internal {\r\n        require(_whitelist != address(stablecoinWhitelist), \"Must be a new stablecoin whitelist\");\r\n        require(AddressUtils.isContract(_whitelist), \"Must be an actual contract\");\r\n        address oldWhitelist = address(stablecoinWhitelist);\r\n        stablecoinWhitelist = StablecoinWhitelist(_whitelist);\r\n        emit StablecoinWhitelistChanged(oldWhitelist, _whitelist);\r\n    }\r\n\r\n\t/**\r\n     * @notice Set the fee sheet for this CarbonUSD.\r\n     * @param _sheet Address of the fee sheet.\r\n     */\r\n    function setFeeSheet(address _sheet) public onlyOwner {\r\n        _setFeeSheet(_sheet);\r\n    }\r\n\r\n    function _setFeeSheet(address _sheet) internal {\r\n        require(_sheet != address(stablecoinFees), \"Must be a new fee sheet\");\r\n        require(AddressUtils.isContract(_sheet), \"Must be an actual contract\");\r\n        address oldSheet = address(stablecoinFees);\r\n        stablecoinFees = FeeSheet(_sheet);\r\n        emit FeeSheetChanged(oldSheet, _sheet);\r\n    }\r\n}",
  "sourcePath": "C:\\Users\\Max Piasevoli\\Desktop\\Carbon\\fiat_gateway\\contracts\\tokens\\carbonToken\\dataStorage\\MutableCarbonDollarStorage.sol",
  "compiler": {
    "name": "solc",
    "version": "0.4.24+commit.e67f0147.Emscripten.clang"
  },
  "schemaVersion": "2.0.1",
  "updatedAt": "2018-08-16T17:04:42.192Z"
}