{
  "contractName": "MutablePermissionedTokenStorage",
  "abi": [
    {
      "constant": true,
      "inputs": [],
      "name": "allowances",
      "outputs": [
        {
          "name": "",
          "type": "address"
        }
      ],
      "payable": false,
      "stateMutability": "view",
      "type": "function"
    },
    {
      "constant": false,
      "inputs": [],
      "name": "renounceOwnership",
      "outputs": [],
      "payable": false,
      "stateMutability": "nonpayable",
      "type": "function"
    },
    {
      "constant": true,
      "inputs": [],
      "name": "balances",
      "outputs": [
        {
          "name": "",
          "type": "address"
        }
      ],
      "payable": false,
      "stateMutability": "view",
      "type": "function"
    },
    {
      "constant": true,
      "inputs": [],
      "name": "owner",
      "outputs": [
        {
          "name": "",
          "type": "address"
        }
      ],
      "payable": false,
      "stateMutability": "view",
      "type": "function"
    },
    {
      "constant": true,
      "inputs": [],
      "name": "regulator",
      "outputs": [
        {
          "name": "",
          "type": "address"
        }
      ],
      "payable": false,
      "stateMutability": "view",
      "type": "function"
    },
    {
      "constant": false,
      "inputs": [
        {
          "name": "_newOwner",
          "type": "address"
        }
      ],
      "name": "transferOwnership",
      "outputs": [],
      "payable": false,
      "stateMutability": "nonpayable",
      "type": "function"
    },
    {
      "inputs": [
        {
          "name": "regulator",
          "type": "address"
        },
        {
          "name": "balances",
          "type": "address"
        },
        {
          "name": "allowances",
          "type": "address"
        }
      ],
      "payable": false,
      "stateMutability": "nonpayable",
      "type": "constructor"
    },
    {
      "anonymous": false,
      "inputs": [
        {
          "indexed": false,
          "name": "_old",
          "type": "address"
        },
        {
          "indexed": false,
          "name": "_new",
          "type": "address"
        }
      ],
      "name": "ChangedRegulator",
      "type": "event"
    },
    {
      "anonymous": false,
      "inputs": [
        {
          "indexed": false,
          "name": "_old",
          "type": "address"
        },
        {
          "indexed": false,
          "name": "_new",
          "type": "address"
        }
      ],
      "name": "ChangedBalanceStorage",
      "type": "event"
    },
    {
      "anonymous": false,
      "inputs": [
        {
          "indexed": false,
          "name": "_old",
          "type": "address"
        },
        {
          "indexed": false,
          "name": "_new",
          "type": "address"
        }
      ],
      "name": "ChangedAllowanceStorage",
      "type": "event"
    },
    {
      "anonymous": false,
      "inputs": [
        {
          "indexed": true,
          "name": "previousOwner",
          "type": "address"
        }
      ],
      "name": "OwnershipRenounced",
      "type": "event"
    },
    {
      "anonymous": false,
      "inputs": [
        {
          "indexed": true,
          "name": "previousOwner",
          "type": "address"
        },
        {
          "indexed": true,
          "name": "newOwner",
          "type": "address"
        }
      ],
      "name": "OwnershipTransferred",
      "type": "event"
    },
    {
      "constant": false,
      "inputs": [
        {
          "name": "_newStorageAddress",
          "type": "address"
        }
      ],
      "name": "setRegulator",
      "outputs": [],
      "payable": false,
      "stateMutability": "nonpayable",
      "type": "function"
    },
    {
      "constant": false,
      "inputs": [
        {
          "name": "_newStorageAddress",
          "type": "address"
        }
      ],
      "name": "setBalanceStorage",
      "outputs": [],
      "payable": false,
      "stateMutability": "nonpayable",
      "type": "function"
    },
    {
      "constant": false,
      "inputs": [
        {
          "name": "_newStorageAddress",
          "type": "address"
        }
      ],
      "name": "setAllowanceStorage",
      "outputs": [],
      "payable": false,
      "stateMutability": "nonpayable",
      "type": "function"
    }
  ],
  "bytecode": "0x608060405234801561001057600080fd5b50604051606080610a018339810160409081528151602083015191909201516000805433600160a060020a0319918216178255600180548216600160a060020a0396871617905560028054821694861694909417909355600380549093169390911692909217905561097990819061008890396000f3006080604052600436106100985763ffffffff7c01000000000000000000000000000000000000000000000000000000006000350416633ed10b92811461009d578063715018a6146100db57806373e9e0e5146100f25780637bb98a68146101205780638da5cb5b14610135578063c52dd6441461014a578063cde0a4f814610178578063dd8fee14146101a6578063f2fde38b146101bb575b600080fd5b3480156100a957600080fd5b506100b26101e9565b6040805173ffffffffffffffffffffffffffffffffffffffff9092168252519081900360200190f35b3480156100e757600080fd5b506100f0610205565b005b3480156100fe57600080fd5b506100f073ffffffffffffffffffffffffffffffffffffffff60043516610296565b34801561012c57600080fd5b506100b261046a565b34801561014157600080fd5b506100b2610486565b34801561015657600080fd5b506100f073ffffffffffffffffffffffffffffffffffffffff600435166104a2565b34801561018457600080fd5b506100f073ffffffffffffffffffffffffffffffffffffffff60043516610676565b3480156101b257600080fd5b506100b261084a565b3480156101c757600080fd5b506100f073ffffffffffffffffffffffffffffffffffffffff60043516610866565b60035473ffffffffffffffffffffffffffffffffffffffff1681565b60005473ffffffffffffffffffffffffffffffffffffffff16331461022957600080fd5b6000805460405173ffffffffffffffffffffffffffffffffffffffff909116917ff8df31144d9c2f0f6b59d69b8b98abd5459d07f2742c4df920b25aae33c6482091a2600080547fffffffffffffffffffffffff0000000000000000000000000000000000000000169055565b6000805473ffffffffffffffffffffffffffffffffffffffff1633146102bb57600080fd5b60025473ffffffffffffffffffffffffffffffffffffffff8381169116141561034557604080517f08c379a000000000000000000000000000000000000000000000000000000000815260206004820152601b60248201527f4d7573742062652061206e65772062616c616e63652073686565740000000000604482015290519081900360640190fd5b61034e82610896565b15156103e157604080517f08c379a000000000000000000000000000000000000000000000000000000000815260206004820152603860248201527f43616e6e6f7420736574206120726567756c61746f722073746f72616765207460448201527f6f2061206e6f6e2d636f6e747261637420616464726573730000000000000000606482015290519081900360840190fd5b506002805473ffffffffffffffffffffffffffffffffffffffff8381167fffffffffffffffffffffffff0000000000000000000000000000000000000000831681179093556040805191909216808252602082019390935281517f8c3d37b41e983f0d5b0b91de3f9d5055c73a17beebc7adfce9b677ab7c07ad2d929181900390910190a15050565b60025473ffffffffffffffffffffffffffffffffffffffff1681565b60005473ffffffffffffffffffffffffffffffffffffffff1681565b6000805473ffffffffffffffffffffffffffffffffffffffff1633146104c757600080fd5b60035473ffffffffffffffffffffffffffffffffffffffff8381169116141561055157604080517f08c379a000000000000000000000000000000000000000000000000000000000815260206004820152601b60248201527f4d7573742062652061206e65772073746f726167652073686565740000000000604482015290519081900360640190fd5b61055a82610896565b15156105ed57604080517f08c379a000000000000000000000000000000000000000000000000000000000815260206004820152603860248201527f43616e6e6f7420736574206120726567756c61746f722073746f72616765207460448201527f6f2061206e6f6e2d636f6e747261637420616464726573730000000000000000606482015290519081900360840190fd5b506003805473ffffffffffffffffffffffffffffffffffffffff8381167fffffffffffffffffffffffff0000000000000000000000000000000000000000831681179093556040805191909216808252602082019390935281517fec358425c40511d576e1c52be7593403bceacda627234c873b52589fef7b2359929181900390910190a15050565b6000805473ffffffffffffffffffffffffffffffffffffffff16331461069b57600080fd5b60015473ffffffffffffffffffffffffffffffffffffffff8381169116141561072557604080517f08c379a000000000000000000000000000000000000000000000000000000000815260206004820152601760248201527f4d7573742062652061206e657720726567756c61746f72000000000000000000604482015290519081900360640190fd5b61072e82610896565b15156107c157604080517f08c379a000000000000000000000000000000000000000000000000000000000815260206004820152603860248201527f43616e6e6f7420736574206120726567756c61746f722073746f72616765207460448201527f6f2061206e6f6e2d636f6e747261637420616464726573730000000000000000606482015290519081900360840190fd5b506001805473ffffffffffffffffffffffffffffffffffffffff8381167fffffffffffffffffffffffff0000000000000000000000000000000000000000831681179093556040805191909216808252602082019390935281517f4a59b4b607c6055b37a4716d7813d7d4d2c288e4d0dd8298e365b260a1f262e8929181900390910190a15050565b60015473ffffffffffffffffffffffffffffffffffffffff1681565b60005473ffffffffffffffffffffffffffffffffffffffff16331461088a57600080fd5b6108938161089e565b50565b6000903b1190565b73ffffffffffffffffffffffffffffffffffffffff811615156108c057600080fd5b6000805460405173ffffffffffffffffffffffffffffffffffffffff808516939216917f8be0079c531659141344cd1fd0a4f28419497f9722a3daafe3b4186f6b6457e091a3600080547fffffffffffffffffffffffff00000000000000000000000000000000000000001673ffffffffffffffffffffffffffffffffffffffff929092169190911790555600a165627a7a7230582061a1003bb9bb619039f6dddf7c67165a351ddb77cf8e97557620840698512ab10029",
  "source": "pragma solidity ^0.4.24;\r\n\r\nimport \"./PermissionedTokenStorage.sol\";\r\nimport \"openzeppelin-solidity/contracts/AddressUtils.sol\";\r\nimport \"openzeppelin-solidity/contracts/ownership/Ownable.sol\";\r\n\r\n/**\r\n* @title MutablePermissionedTokenStorage\r\n* @notice Extends PermissionedTokenStorage by allowing changing the locations \r\n* of the allowance, balance, and regulator contracts.\r\n*/\r\ncontract MutablePermissionedTokenStorage is Ownable, PermissionedTokenStorage {\r\n\r\n    // Events\r\n    event ChangedRegulator(address _old, address _new);\r\n    event ChangedBalanceStorage(address _old, address _new);\r\n    event ChangedAllowanceStorage(address _old, address _new);\r\n\r\n    constructor (address regulator, address balances, address allowances) PermissionedTokenStorage (regulator, balances, allowances) public {\r\n    }\r\n\r\n    /**\r\n    *\r\n    * @dev Only the MutablePermissionedTokenStorageConsumer owner can change its storage location\r\n    * @param _newStorageAddress the new storage address\r\n    *\r\n    */\r\n\r\n    function setRegulator(address _newStorageAddress) public onlyOwner {\r\n        require(_newStorageAddress != address(regulator), \"Must be a new regulator\");\r\n        require(AddressUtils.isContract(_newStorageAddress), \"Cannot set a regulator storage to a non-contract address\");\r\n        address old = address(regulator);\r\n        regulator = Regulator(_newStorageAddress);\r\n        emit ChangedRegulator(old, _newStorageAddress);\r\n    }\r\n\r\n    function setBalanceStorage(address _newStorageAddress) public onlyOwner {\r\n        require(_newStorageAddress != address(balances), \"Must be a new balance sheet\");\r\n        require(AddressUtils.isContract(_newStorageAddress), \"Cannot set a regulator storage to a non-contract address\");\r\n        address old = address(balances);\r\n        balances = BalanceSheet(_newStorageAddress);\r\n        emit ChangedBalanceStorage(old, _newStorageAddress);\r\n    }\r\n\r\n    function setAllowanceStorage(address _newStorageAddress) public onlyOwner {\r\n        require(_newStorageAddress != address(allowances), \"Must be a new storage sheet\");\r\n        require(AddressUtils.isContract(_newStorageAddress), \"Cannot set a regulator storage to a non-contract address\");\r\n        address old = address(allowances);\r\n        allowances = AllowanceSheet(_newStorageAddress);\r\n        emit ChangedAllowanceStorage(old, _newStorageAddress);\r\n    }\r\n}",
  "sourcePath": "C:\\Users\\npain\\Projects\\Carbon\\fiat_gateway\\contracts\\tokens\\permissionedToken\\dataStorage\\MutablePermissionedTokenStorage.sol",
  "compiler": {
    "name": "solc",
    "version": "0.4.24+commit.e67f0147.Emscripten.clang"
  },
  "schemaVersion": "2.0.1",
  "updatedAt": "2018-08-17T17:50:39.528Z"
}