{
  "contractName": "MutableRegulatorStorage",
  "abi": [
    {
      "constant": false,
      "inputs": [],
      "name": "renounceOwnership",
      "outputs": [],
      "payable": false,
      "stateMutability": "nonpayable",
      "type": "function"
    },
    {
      "constant": true,
      "inputs": [],
      "name": "owner",
      "outputs": [
        {
          "name": "",
          "type": "address"
        }
      ],
      "payable": false,
      "stateMutability": "view",
      "type": "function"
    },
    {
      "constant": true,
      "inputs": [],
      "name": "permissions",
      "outputs": [
        {
          "name": "",
          "type": "address"
        }
      ],
      "payable": false,
      "stateMutability": "view",
      "type": "function"
    },
    {
      "constant": true,
      "inputs": [],
      "name": "validators",
      "outputs": [
        {
          "name": "",
          "type": "address"
        }
      ],
      "payable": false,
      "stateMutability": "view",
      "type": "function"
    },
    {
      "constant": false,
      "inputs": [
        {
          "name": "_newOwner",
          "type": "address"
        }
      ],
      "name": "transferOwnership",
      "outputs": [],
      "payable": false,
      "stateMutability": "nonpayable",
      "type": "function"
    },
    {
      "inputs": [
        {
          "name": "permissions",
          "type": "address"
        },
        {
          "name": "validators",
          "type": "address"
        }
      ],
      "payable": false,
      "stateMutability": "nonpayable",
      "type": "constructor"
    },
    {
      "anonymous": false,
      "inputs": [
        {
          "indexed": false,
          "name": "_old",
          "type": "address"
        },
        {
          "indexed": false,
          "name": "_new",
          "type": "address"
        }
      ],
      "name": "ChangedPermissionStorage",
      "type": "event"
    },
    {
      "anonymous": false,
      "inputs": [
        {
          "indexed": false,
          "name": "_old",
          "type": "address"
        },
        {
          "indexed": false,
          "name": "_new",
          "type": "address"
        }
      ],
      "name": "ChangedValidatorStorage",
      "type": "event"
    },
    {
      "anonymous": false,
      "inputs": [
        {
          "indexed": true,
          "name": "previousOwner",
          "type": "address"
        }
      ],
      "name": "OwnershipRenounced",
      "type": "event"
    },
    {
      "anonymous": false,
      "inputs": [
        {
          "indexed": true,
          "name": "previousOwner",
          "type": "address"
        },
        {
          "indexed": true,
          "name": "newOwner",
          "type": "address"
        }
      ],
      "name": "OwnershipTransferred",
      "type": "event"
    },
    {
      "constant": false,
      "inputs": [
        {
          "name": "_newStorageAddress",
          "type": "address"
        }
      ],
      "name": "setPermissionStorage",
      "outputs": [],
      "payable": false,
      "stateMutability": "nonpayable",
      "type": "function"
    },
    {
      "constant": false,
      "inputs": [
        {
          "name": "_newStorageAddress",
          "type": "address"
        }
      ],
      "name": "setValidatorStorage",
      "outputs": [],
      "payable": false,
      "stateMutability": "nonpayable",
      "type": "function"
    }
  ],
  "bytecode": "0x608060405234801561001057600080fd5b506040516040806107a283398101604052805160209091015160008054600160a060020a0319908116331790915560018054600160a060020a0394851690831617905560028054939092169216919091179055610730806100726000396000f3006080604052600436106100825763ffffffff7c0100000000000000000000000000000000000000000000000000000000600035041663715018a681146100875780638da5cb5b1461009e578063ab8c71c0146100dc578063aef5eb80146100f1578063ca1e78191461011f578063e51207e714610134578063f2fde38b14610162575b600080fd5b34801561009357600080fd5b5061009c610190565b005b3480156100aa57600080fd5b506100b3610221565b6040805173ffffffffffffffffffffffffffffffffffffffff9092168252519081900360200190f35b3480156100e857600080fd5b506100b361023d565b3480156100fd57600080fd5b5061009c73ffffffffffffffffffffffffffffffffffffffff60043516610259565b34801561012b57600080fd5b506100b361042d565b34801561014057600080fd5b5061009c73ffffffffffffffffffffffffffffffffffffffff60043516610449565b34801561016e57600080fd5b5061009c73ffffffffffffffffffffffffffffffffffffffff6004351661061d565b60005473ffffffffffffffffffffffffffffffffffffffff1633146101b457600080fd5b6000805460405173ffffffffffffffffffffffffffffffffffffffff909116917ff8df31144d9c2f0f6b59d69b8b98abd5459d07f2742c4df920b25aae33c6482091a2600080547fffffffffffffffffffffffff0000000000000000000000000000000000000000169055565b60005473ffffffffffffffffffffffffffffffffffffffff1681565b60015473ffffffffffffffffffffffffffffffffffffffff1681565b6000805473ffffffffffffffffffffffffffffffffffffffff16331461027e57600080fd5b60015473ffffffffffffffffffffffffffffffffffffffff8381169116141561030857604080517f08c379a000000000000000000000000000000000000000000000000000000000815260206004820152601e60248201527f4d7573742062652061206e6577207065726d697373696f6e2073686565740000604482015290519081900360640190fd5b6103118261064d565b15156103a457604080517f08c379a000000000000000000000000000000000000000000000000000000000815260206004820152603860248201527f43616e6e6f7420736574206120726567756c61746f722073746f72616765207460448201527f6f2061206e6f6e2d636f6e747261637420616464726573730000000000000000606482015290519081900360840190fd5b506001805473ffffffffffffffffffffffffffffffffffffffff8381167fffffffffffffffffffffffff0000000000000000000000000000000000000000831681179093556040805191909216808252602082019390935281517fe17aee9aa44ff533ce61ee89d13b1d2a8cb1143b69d05d08a5d136acae8a7707929181900390910190a15050565b60025473ffffffffffffffffffffffffffffffffffffffff1681565b6000805473ffffffffffffffffffffffffffffffffffffffff16331461046e57600080fd5b60025473ffffffffffffffffffffffffffffffffffffffff838116911614156104f857604080517f08c379a000000000000000000000000000000000000000000000000000000000815260206004820152601d60248201527f4d7573742062652061206e65772076616c696461746f72207368656574000000604482015290519081900360640190fd5b6105018261064d565b151561059457604080517f08c379a000000000000000000000000000000000000000000000000000000000815260206004820152603860248201527f43616e6e6f7420736574206120726567756c61746f722073746f72616765207460448201527f6f2061206e6f6e2d636f6e747261637420616464726573730000000000000000606482015290519081900360840190fd5b506002805473ffffffffffffffffffffffffffffffffffffffff8381167fffffffffffffffffffffffff0000000000000000000000000000000000000000831681179093556040805191909216808252602082019390935281517f8ca674c4f8f0a3a35b50833ae3d8d889663de2b78cdbe0765021594acec3cda2929181900390910190a15050565b60005473ffffffffffffffffffffffffffffffffffffffff16331461064157600080fd5b61064a81610655565b50565b6000903b1190565b73ffffffffffffffffffffffffffffffffffffffff8116151561067757600080fd5b6000805460405173ffffffffffffffffffffffffffffffffffffffff808516939216917f8be0079c531659141344cd1fd0a4f28419497f9722a3daafe3b4186f6b6457e091a3600080547fffffffffffffffffffffffff00000000000000000000000000000000000000001673ffffffffffffffffffffffffffffffffffffffff929092169190911790555600a165627a7a723058202fd4aea33244d5fef4a00f931a82bb16aa34709562b19f04488596e9ffa577100029",
  "source": "pragma solidity ^0.4.24;\r\n\r\nimport \"./RegulatorStorage.sol\";\r\nimport \"openzeppelin-solidity/contracts/AddressUtils.sol\";\r\nimport \"openzeppelin-solidity/contracts/ownership/Ownable.sol\";\r\n\r\n\r\n/**\r\n*\r\n* @dev A MutableRegulatorStorage can upgrade its permission and validator sheet location\r\n*\r\n*/\r\ncontract MutableRegulatorStorage is Ownable, RegulatorStorage {\r\n    // Events\r\n    event ChangedPermissionStorage(address _old, address _new);\r\n    event ChangedValidatorStorage(address _old, address _new);\r\n\r\n    constructor (address permissions, address validators) RegulatorStorage(permissions, validators) public {\r\n    }\r\n\r\n    /**\r\n    * @dev Only the MutableRegulatorStorage owner can change its storage location\r\n    * @param _newStorageAddress the new storage address\r\n    */\r\n    function setPermissionStorage(address _newStorageAddress) public onlyOwner {\r\n        require(_newStorageAddress != address(permissions), \"Must be a new permission sheet\");\r\n        require(AddressUtils.isContract(_newStorageAddress), \"Cannot set a regulator storage to a non-contract address\");\r\n        address old = address(permissions);\r\n        permissions = PermissionSheet(_newStorageAddress);\r\n        emit ChangedPermissionStorage(old, _newStorageAddress);\r\n    }\r\n\r\n    function setValidatorStorage(address _newStorageAddress) public onlyOwner {\r\n        require(_newStorageAddress != address(validators), \"Must be a new validator sheet\");\r\n        require(AddressUtils.isContract(_newStorageAddress), \"Cannot set a regulator storage to a non-contract address\");\r\n        address old = address(validators);\r\n        validators = ValidatorSheet(_newStorageAddress);\r\n        emit ChangedValidatorStorage(old, _newStorageAddress);\r\n    }\r\n}",
  "sourcePath": "C:\\Users\\npain\\Projects\\Carbon\\fiat_gateway\\contracts\\regulator\\dataStorage\\MutableRegulatorStorage.sol",
  "compiler": {
    "name": "solc",
    "version": "0.4.24+commit.e67f0147.Emscripten.clang"
  },
  "schemaVersion": "2.0.1",
  "updatedAt": "2018-08-17T17:50:39.514Z"
}