{
  "contractName": "MutableCarbonDollarStorage",
  "abi": [
    {
      "constant": false,
      "inputs": [],
      "name": "claimWhitelistOwnership",
      "outputs": [],
      "payable": false,
      "stateMutability": "nonpayable",
      "type": "function"
    },
    {
      "constant": false,
      "inputs": [],
      "name": "claimOwnership",
      "outputs": [],
      "payable": false,
      "stateMutability": "nonpayable",
      "type": "function"
    },
    {
      "constant": true,
      "inputs": [],
      "name": "owner",
      "outputs": [
        {
          "name": "",
          "type": "address"
        }
      ],
      "payable": false,
      "stateMutability": "view",
      "type": "function"
    },
    {
      "constant": false,
      "inputs": [],
      "name": "claimFeeOwnership",
      "outputs": [],
      "payable": false,
      "stateMutability": "nonpayable",
      "type": "function"
    },
    {
      "constant": true,
      "inputs": [],
      "name": "stablecoinFees",
      "outputs": [
        {
          "name": "",
          "type": "address"
        }
      ],
      "payable": false,
      "stateMutability": "view",
      "type": "function"
    },
    {
      "constant": true,
      "inputs": [],
      "name": "stablecoinWhitelist",
      "outputs": [
        {
          "name": "",
          "type": "address"
        }
      ],
      "payable": false,
      "stateMutability": "view",
      "type": "function"
    },
    {
      "constant": true,
      "inputs": [],
      "name": "pendingOwner",
      "outputs": [
        {
          "name": "",
          "type": "address"
        }
      ],
      "payable": false,
      "stateMutability": "view",
      "type": "function"
    },
    {
      "constant": false,
      "inputs": [
        {
          "name": "_newOwner",
          "type": "address"
        }
      ],
      "name": "transferOwnership",
      "outputs": [],
      "payable": false,
      "stateMutability": "nonpayable",
      "type": "function"
    },
    {
      "inputs": [
        {
          "name": "f",
          "type": "address"
        },
        {
          "name": "w",
          "type": "address"
        }
      ],
      "payable": false,
      "stateMutability": "nonpayable",
      "type": "constructor"
    },
    {
      "anonymous": false,
      "inputs": [
        {
          "indexed": true,
          "name": "oldSheet",
          "type": "address"
        },
        {
          "indexed": true,
          "name": "newSheet",
          "type": "address"
        }
      ],
      "name": "FeeSheetChanged",
      "type": "event"
    },
    {
      "anonymous": false,
      "inputs": [
        {
          "indexed": true,
          "name": "oldWhitelist",
          "type": "address"
        },
        {
          "indexed": true,
          "name": "newWhitelist",
          "type": "address"
        }
      ],
      "name": "StablecoinWhitelistChanged",
      "type": "event"
    },
    {
      "anonymous": false,
      "inputs": [
        {
          "indexed": true,
          "name": "previousOwner",
          "type": "address"
        },
        {
          "indexed": true,
          "name": "newOwner",
          "type": "address"
        }
      ],
      "name": "OwnershipTransferred",
      "type": "event"
    },
    {
      "constant": false,
      "inputs": [
        {
          "name": "_whitelist",
          "type": "address"
        }
      ],
      "name": "setStablecoinWhitelist",
      "outputs": [],
      "payable": false,
      "stateMutability": "nonpayable",
      "type": "function"
    },
    {
      "constant": false,
      "inputs": [
        {
          "name": "_feesheet",
          "type": "address"
        }
      ],
      "name": "setFeeSheet",
      "outputs": [],
      "payable": false,
      "stateMutability": "nonpayable",
      "type": "function"
    }
  ],
  "bytecode": "0x608060405234801561001057600080fd5b506040516040806108f483398101604052805160209091015160008054600160a060020a03199081163317909155600180548216905560028054600160a060020a039485169083161790556003805493909216921691909117905561087a8061007a6000396000f3006080604052600436106100a35763ffffffff7c01000000000000000000000000000000000000000000000000000000006000350416632a9a04ba81146100a85780634e71e0c8146100bf57806360814fe8146100d45780638da5cb5b14610102578063956ce09314610140578063d1a15eba14610155578063d965156614610183578063e14852e314610198578063e30c3978146101ad578063f2fde38b146101c2575b600080fd5b3480156100b457600080fd5b506100bd6101f0565b005b3480156100cb57600080fd5b506100bd610290565b3480156100e057600080fd5b506100bd73ffffffffffffffffffffffffffffffffffffffff6004351661034a565b34801561010e57600080fd5b5061011761037a565b6040805173ffffffffffffffffffffffffffffffffffffffff9092168252519081900360200190f35b34801561014c57600080fd5b506100bd610396565b34801561016157600080fd5b506100bd73ffffffffffffffffffffffffffffffffffffffff6004351661041c565b34801561018f57600080fd5b50610117610449565b3480156101a457600080fd5b50610117610465565b3480156101b957600080fd5b50610117610481565b3480156101ce57600080fd5b506100bd73ffffffffffffffffffffffffffffffffffffffff6004351661049d565b600360009054906101000a900473ffffffffffffffffffffffffffffffffffffffff1673ffffffffffffffffffffffffffffffffffffffff16634e71e0c86040518163ffffffff167c0100000000000000000000000000000000000000000000000000000000028152600401600060405180830381600087803b15801561027657600080fd5b505af115801561028a573d6000803e3d6000fd5b50505050565b60015473ffffffffffffffffffffffffffffffffffffffff1633146102b457600080fd5b6001546000805460405173ffffffffffffffffffffffffffffffffffffffff93841693909116917f8be0079c531659141344cd1fd0a4f28419497f9722a3daafe3b4186f6b6457e091a360018054600080547fffffffffffffffffffffffff000000000000000000000000000000000000000090811673ffffffffffffffffffffffffffffffffffffffff841617909155169055565b60005473ffffffffffffffffffffffffffffffffffffffff16331461036e57600080fd5b6103778161052a565b50565b60005473ffffffffffffffffffffffffffffffffffffffff1681565b600260009054906101000a900473ffffffffffffffffffffffffffffffffffffffff1673ffffffffffffffffffffffffffffffffffffffff16634e71e0c86040518163ffffffff167c0100000000000000000000000000000000000000000000000000000000028152600401600060405180830381600087803b15801561027657600080fd5b60005473ffffffffffffffffffffffffffffffffffffffff16331461044057600080fd5b610377816106a5565b60025473ffffffffffffffffffffffffffffffffffffffff1681565b60035473ffffffffffffffffffffffffffffffffffffffff1681565b60015473ffffffffffffffffffffffffffffffffffffffff1681565b60005473ffffffffffffffffffffffffffffffffffffffff1633146104c157600080fd5b73ffffffffffffffffffffffffffffffffffffffff811615156104e357600080fd5b600180547fffffffffffffffffffffffff00000000000000000000000000000000000000001673ffffffffffffffffffffffffffffffffffffffff92909216919091179055565b60025460009073ffffffffffffffffffffffffffffffffffffffff838116911614156105b757604080517f08c379a000000000000000000000000000000000000000000000000000000000815260206004820152601760248201527f4d7573742062652061206e657720666565207368656574000000000000000000604482015290519081900360640190fd5b6105c082610846565b151561062d57604080517f08c379a000000000000000000000000000000000000000000000000000000000815260206004820152601a60248201527f4d75737420626520616e2061637475616c20636f6e7472616374000000000000604482015290519081900360640190fd5b506002805473ffffffffffffffffffffffffffffffffffffffff8381167fffffffffffffffffffffffff0000000000000000000000000000000000000000831681179093556040519116919082907ffa50850a9a205a6eab44ae568df104b00a5fd26ba0ded7dd81d4879c6a27d29b90600090a35050565b60035460009073ffffffffffffffffffffffffffffffffffffffff8381169116141561075857604080517f08c379a000000000000000000000000000000000000000000000000000000000815260206004820152602260248201527f4d7573742062652061206e657720737461626c65636f696e2077686974656c6960448201527f7374000000000000000000000000000000000000000000000000000000000000606482015290519081900360840190fd5b61076182610846565b15156107ce57604080517f08c379a000000000000000000000000000000000000000000000000000000000815260206004820152601a60248201527f4d75737420626520616e2061637475616c20636f6e7472616374000000000000604482015290519081900360640190fd5b506003805473ffffffffffffffffffffffffffffffffffffffff8381167fffffffffffffffffffffffff0000000000000000000000000000000000000000831681179093556040519116919082907f9d4cc8ae350dd03b669fc5b6d399ea6b56438abd19c07b3e71abd09552bafe3490600090a35050565b6000903b11905600a165627a7a72305820321c55106a38a88acb46a8d9b619d21da85ea08570e52b421c5a50df99bb5e270029",
  "source": "pragma solidity ^0.4.24;\r\n\r\nimport \"./CarbonDollarStorage.sol\";\r\nimport \"openzeppelin-solidity/contracts/AddressUtils.sol\";\r\n// import \"openzeppelin-solidity/contracts/ownership/Ownable.sol\";\r\nimport '../../../helpers/Ownable.sol';\r\n\r\n/**\r\n* @title MutableCarbonDollarStorage\r\n* @notice Adds mutability to CarbonDollarStorage functions\r\n*/\r\ncontract MutableCarbonDollarStorage is Ownable, CarbonDollarStorage {\r\n\t/**\r\n        Events\r\n     */\r\n    event FeeSheetChanged(address indexed oldSheet, address indexed newSheet);\r\n    event StablecoinWhitelistChanged(address indexed oldWhitelist, address indexed newWhitelist);\r\n\r\n\t/**\r\n    * @dev a PermissionedTokenStorage can set its storages only once, on construction\r\n    *\r\n    **/\r\n    constructor (address f, address w) CarbonDollarStorage(f, w) public {}\r\n\r\n    /**\r\n     * @notice Set the stablecoin whitelist contract.\r\n     * @param _whitelist Address of the stablecoin whitelist contract.\r\n     */\r\n    function setStablecoinWhitelist(address _whitelist) public onlyOwner {\r\n        _setStablecoinWhitelist(_whitelist);\r\n    }\r\n\r\n    function _setStablecoinWhitelist(address _whitelist) internal {\r\n        require(_whitelist != address(stablecoinWhitelist), \"Must be a new stablecoin whitelist\");\r\n        require(AddressUtils.isContract(_whitelist), \"Must be an actual contract\");\r\n        address oldWhitelist = address(stablecoinWhitelist);\r\n        stablecoinWhitelist = StablecoinWhitelist(_whitelist);\r\n        emit StablecoinWhitelistChanged(oldWhitelist, _whitelist);\r\n    }\r\n\r\n\t/**\r\n     * @notice Set the fee sheet for this CarbonUSD.\r\n     * @param _feesheet Address of the fee sheet.\r\n     */\r\n    function setFeeSheet(address _feesheet) public onlyOwner {\r\n        _setFeeSheet(_feesheet);\r\n    }\r\n\r\n    function _setFeeSheet(address _feesheet) internal {\r\n        require(_feesheet != address(stablecoinFees), \"Must be a new fee sheet\");\r\n        require(AddressUtils.isContract(_feesheet), \"Must be an actual contract\");\r\n        address oldSheet = address(stablecoinFees);\r\n        stablecoinFees = FeeSheet(_feesheet);\r\n        emit FeeSheetChanged(oldSheet, _feesheet);\r\n    }\r\n}",
  "sourcePath": "C:\\Users\\npain\\Projects\\Carbon\\fiat_gateway\\contracts\\tokens\\carbonToken\\dataStorage\\MutableCarbonDollarStorage.sol",
  "compiler": {
    "name": "solc",
    "version": "0.4.24+commit.e67f0147.Emscripten.clang"
  },
  "schemaVersion": "2.0.1",
  "updatedAt": "2018-08-18T15:48:20.677Z"
}