{
  "contractName": "OwnedUpgradeabilityProxy",
  "abi": [
    {
      "constant": true,
      "inputs": [],
      "name": "version",
      "outputs": [
        {
          "name": "",
          "type": "string"
        }
      ],
      "payable": false,
      "stateMutability": "view",
      "type": "function"
    },
    {
      "constant": true,
      "inputs": [],
      "name": "implementation",
      "outputs": [
        {
          "name": "",
          "type": "address"
        }
      ],
      "payable": false,
      "stateMutability": "view",
      "type": "function"
    },
    {
      "constant": true,
      "inputs": [],
      "name": "upgradeabilityOwner",
      "outputs": [
        {
          "name": "",
          "type": "address"
        }
      ],
      "payable": false,
      "stateMutability": "view",
      "type": "function"
    },
    {
      "inputs": [],
      "payable": false,
      "stateMutability": "nonpayable",
      "type": "constructor"
    },
    {
      "payable": true,
      "stateMutability": "payable",
      "type": "fallback"
    },
    {
      "anonymous": false,
      "inputs": [
        {
          "indexed": false,
          "name": "previousOwner",
          "type": "address"
        },
        {
          "indexed": false,
          "name": "newOwner",
          "type": "address"
        }
      ],
      "name": "ProxyOwnershipTransferred",
      "type": "event"
    },
    {
      "anonymous": false,
      "inputs": [
        {
          "indexed": false,
          "name": "version",
          "type": "string"
        },
        {
          "indexed": true,
          "name": "implementation",
          "type": "address"
        }
      ],
      "name": "Upgraded",
      "type": "event"
    },
    {
      "constant": true,
      "inputs": [],
      "name": "proxyOwner",
      "outputs": [
        {
          "name": "",
          "type": "address"
        }
      ],
      "payable": false,
      "stateMutability": "view",
      "type": "function"
    },
    {
      "constant": false,
      "inputs": [
        {
          "name": "newOwner",
          "type": "address"
        }
      ],
      "name": "transferProxyOwnership",
      "outputs": [],
      "payable": false,
      "stateMutability": "nonpayable",
      "type": "function"
    },
    {
      "constant": false,
      "inputs": [
        {
          "name": "version",
          "type": "string"
        },
        {
          "name": "implementation",
          "type": "address"
        }
      ],
      "name": "upgradeTo",
      "outputs": [],
      "payable": false,
      "stateMutability": "nonpayable",
      "type": "function"
    },
    {
      "constant": false,
      "inputs": [
        {
          "name": "version",
          "type": "string"
        },
        {
          "name": "implementation",
          "type": "address"
        },
        {
          "name": "data",
          "type": "bytes"
        }
      ],
      "name": "upgradeToAndCall",
      "outputs": [],
      "payable": true,
      "stateMutability": "payable",
      "type": "function"
    }
  ],
  "bytecode": "0x608060405234801561001057600080fd5b506100293361002e640100000000026401000000009004565b610071565b806000806101000a81548173ffffffffffffffffffffffffffffffffffffffff021916908373ffffffffffffffffffffffffffffffffffffffff16021790555050565b6109f2806100806000396000f300608060405260043610610083576000357c0100000000000000000000000000000000000000000000000000000000900463ffffffff168063025313a2146100f257806354fd4d50146101495780635a8b1a9f146101d95780635c60da1b146102625780636fde8202146102b9578063958a41dd14610310578063f1739cae146103d2575b600061008d610415565b9050600073ffffffffffffffffffffffffffffffffffffffff168173ffffffffffffffffffffffffffffffffffffffff16141515156100cb57600080fd5b60405136600082376000803683855af43d806000843e81600081146100ee578184f35b8184fd5b3480156100fe57600080fd5b5061010761043f565b604051808273ffffffffffffffffffffffffffffffffffffffff1673ffffffffffffffffffffffffffffffffffffffff16815260200191505060405180910390f35b34801561015557600080fd5b5061015e61044e565b6040518080602001828103825283818151815260200191508051906020019080838360005b8381101561019e578082015181840152602081019050610183565b50505050905090810190601f1680156101cb5780820380516001836020036101000a031916815260200191505b509250505060405180910390f35b3480156101e557600080fd5b50610260600480360381019080803590602001908201803590602001908080601f0160208091040260200160405190810160405280939291908181526020018383808284378201915050505050509192919290803573ffffffffffffffffffffffffffffffffffffffff1690602001909291905050506104f0565b005b34801561026e57600080fd5b50610277610415565b604051808273ffffffffffffffffffffffffffffffffffffffff1673ffffffffffffffffffffffffffffffffffffffff16815260200191505060405180910390f35b3480156102c557600080fd5b506102ce61053f565b604051808273ffffffffffffffffffffffffffffffffffffffff1673ffffffffffffffffffffffffffffffffffffffff16815260200191505060405180910390f35b6103d0600480360381019080803590602001908201803590602001908080601f0160208091040260200160405190810160405280939291908181526020018383808284378201915050505050509192919290803573ffffffffffffffffffffffffffffffffffffffff169060200190929190803590602001908201803590602001908080601f0160208091040260200160405190810160405280939291908181526020018383808284378201915050505050509192919290505050610568565b005b3480156103de57600080fd5b50610413600480360381019080803573ffffffffffffffffffffffffffffffffffffffff16906020019092919050505061064b565b005b6000600260009054906101000a900473ffffffffffffffffffffffffffffffffffffffff16905090565b600061044961053f565b905090565b606060018054600181600116156101000203166002900480601f0160208091040260200160405190810160405280929190818152602001828054600181600116156101000203166002900480156104e65780601f106104bb576101008083540402835291602001916104e6565b820191906000526020600020905b8154815290600101906020018083116104c957829003601f168201915b5050505050905090565b6104f861043f565b73ffffffffffffffffffffffffffffffffffffffff163373ffffffffffffffffffffffffffffffffffffffff1614151561053157600080fd5b61053b8282610772565b5050565b60008060009054906101000a900473ffffffffffffffffffffffffffffffffffffffff16905090565b61057061043f565b73ffffffffffffffffffffffffffffffffffffffff163373ffffffffffffffffffffffffffffffffffffffff161415156105a957600080fd5b6105b383836104f0565b3073ffffffffffffffffffffffffffffffffffffffff16348260405180828051906020019080838360005b838110156105f95780820151818401526020810190506105de565b50505050905090810190601f1680156106265780820380516001836020036101000a031916815260200191505b5091505060006040518083038185875af192505050151561064657600080fd5b505050565b61065361043f565b73ffffffffffffffffffffffffffffffffffffffff163373ffffffffffffffffffffffffffffffffffffffff1614151561068c57600080fd5b600073ffffffffffffffffffffffffffffffffffffffff168173ffffffffffffffffffffffffffffffffffffffff16141515156106c857600080fd5b7f5a3e66efaa1e445ebd894728a69d6959842ea1e97bd79b892797106e270efcd96106f161043f565b82604051808373ffffffffffffffffffffffffffffffffffffffff1673ffffffffffffffffffffffffffffffffffffffff1681526020018273ffffffffffffffffffffffffffffffffffffffff1673ffffffffffffffffffffffffffffffffffffffff1681526020019250505060405180910390a161076f816108de565b50565b8073ffffffffffffffffffffffffffffffffffffffff16600260009054906101000a900473ffffffffffffffffffffffffffffffffffffffff1673ffffffffffffffffffffffffffffffffffffffff16141515156107cf57600080fd5b81600190805190602001906107e5929190610921565b5080600260006101000a81548173ffffffffffffffffffffffffffffffffffffffff021916908373ffffffffffffffffffffffffffffffffffffffff1602179055508073ffffffffffffffffffffffffffffffffffffffff167f8e05e0e35ff592971ca8b477d4285a33a61ded208d644042667b78693a472f5e836040518080602001828103825283818151815260200191508051906020019080838360005b838110156108a0578082015181840152602081019050610885565b50505050905090810190601f1680156108cd5780820380516001836020036101000a031916815260200191505b509250505060405180910390a25050565b806000806101000a81548173ffffffffffffffffffffffffffffffffffffffff021916908373ffffffffffffffffffffffffffffffffffffffff16021790555050565b828054600181600116156101000203166002900490600052602060002090601f016020900481019282601f1061096257805160ff1916838001178555610990565b82800160010185558215610990579182015b8281111561098f578251825591602001919060010190610974565b5b50905061099d91906109a1565b5090565b6109c391905b808211156109bf5760008160009055506001016109a7565b5090565b905600a165627a7a72305820c156777bba54817d2cb879bbb534ee15cf37b60c502875233393c4de2d4062180029",
  "source": "pragma solidity ^0.4.23;\r\n\r\nimport '../upgradeabilityProxy/UpgradeabilityProxy.sol';\r\nimport './UpgradeabilityOwnerStorage.sol';\r\n\r\n/**\r\n * @title OwnedUpgradeabilityProxy\r\n * @dev This contract combines an upgradeability proxy with basic authorization control functionalities\r\n */\r\ncontract OwnedUpgradeabilityProxy is UpgradeabilityOwnerStorage, UpgradeabilityProxy {\r\n  /**\r\n  * @dev Event to show ownership has been transferred\r\n  * @param previousOwner representing the address of the previous owner\r\n  * @param newOwner representing the address of the new owner\r\n  */\r\n  event ProxyOwnershipTransferred(address previousOwner, address newOwner);\r\n\r\n  /**\r\n  * @dev the constructor sets the original owner of the contract to the sender account.\r\n  */\r\n  constructor () public {\r\n    setUpgradeabilityOwner(msg.sender);\r\n  }\r\n\r\n  /**\r\n  * @dev Throws if called by any account other than the owner.\r\n  */\r\n  modifier onlyProxyOwner() {\r\n    require(msg.sender == proxyOwner());\r\n    _;\r\n  }\r\n\r\n  /**\r\n   * @dev Tells the address of the proxy owner\r\n   * @return the address of the proxy owner\r\n   */\r\n  function proxyOwner() public view returns (address) {\r\n    return upgradeabilityOwner();\r\n  }\r\n\r\n  /**\r\n   * @dev Allows the current owner to transfer control of the contract to a newOwner.\r\n   * @param newOwner The address to transfer ownership to.\r\n   */\r\n  function transferProxyOwnership(address newOwner) public onlyProxyOwner {\r\n    require(newOwner != address(0));\r\n    emit ProxyOwnershipTransferred(proxyOwner(), newOwner);\r\n    setUpgradeabilityOwner(newOwner);\r\n  }\r\n\r\n  /**\r\n   * @dev Allows the upgradeability owner to upgrade the current version of the proxy.\r\n   * @param version representing the version name of the new implementation to be set.\r\n   * @param implementation representing the address of the new implementation to be set.\r\n   */\r\n  function upgradeTo(string version, address implementation) public onlyProxyOwner {\r\n    _upgradeTo(version, implementation);\r\n  }\r\n\r\n  /**\r\n   * @dev Allows the upgradeability owner to upgrade the current version of the proxy and call the new implementation\r\n   * to initialize whatever is needed through a low level call.\r\n   * @param version representing the version name of the new implementation to be set.\r\n   * @param implementation representing the address of the new implementation to be set.\r\n   * @param data represents the msg.data to be sent in the low level call. This parameter may include the function\r\n   * signature of the implementation to be called with the needed payload\r\n   */\r\n  function upgradeToAndCall(string version, address implementation, bytes data) payable public onlyProxyOwner {\r\n    upgradeTo(version, implementation);\r\n    require(address(this).call.value(msg.value)(data));\r\n  }\r\n}",
  "sourcePath": "C:\\Users\\npain\\Projects\\Carbon\\fiat_gateway\\contracts\\ownedUpgradeabilityProxy\\OwnedUpgradeabilityProxy.sol",
  "compiler": {
    "name": "solc",
    "version": "0.4.24+commit.e67f0147.Emscripten.clang"
  },
  "schemaVersion": "2.0.1",
  "updatedAt": "2018-07-15T16:00:18.524Z"
}