{
  "contractName": "PausableMock",
  "abi": [
    {
      "constant": true,
      "inputs": [],
      "name": "count",
      "outputs": [
        {
          "name": "",
          "type": "uint256"
        }
      ],
      "payable": false,
      "stateMutability": "view",
      "type": "function"
    },
    {
      "constant": false,
      "inputs": [],
      "name": "unpause",
      "outputs": [],
      "payable": false,
      "stateMutability": "nonpayable",
      "type": "function"
    },
    {
      "constant": false,
      "inputs": [],
      "name": "claimOwnership",
      "outputs": [],
      "payable": false,
      "stateMutability": "nonpayable",
      "type": "function"
    },
    {
      "constant": true,
      "inputs": [],
      "name": "paused",
      "outputs": [
        {
          "name": "",
          "type": "bool"
        }
      ],
      "payable": false,
      "stateMutability": "view",
      "type": "function"
    },
    {
      "constant": true,
      "inputs": [],
      "name": "drasticMeasureTaken",
      "outputs": [
        {
          "name": "",
          "type": "bool"
        }
      ],
      "payable": false,
      "stateMutability": "view",
      "type": "function"
    },
    {
      "constant": false,
      "inputs": [],
      "name": "pause",
      "outputs": [],
      "payable": false,
      "stateMutability": "nonpayable",
      "type": "function"
    },
    {
      "constant": true,
      "inputs": [],
      "name": "owner",
      "outputs": [
        {
          "name": "",
          "type": "address"
        }
      ],
      "payable": false,
      "stateMutability": "view",
      "type": "function"
    },
    {
      "constant": true,
      "inputs": [],
      "name": "pendingOwner",
      "outputs": [
        {
          "name": "",
          "type": "address"
        }
      ],
      "payable": false,
      "stateMutability": "view",
      "type": "function"
    },
    {
      "constant": false,
      "inputs": [
        {
          "name": "_newOwner",
          "type": "address"
        }
      ],
      "name": "transferOwnership",
      "outputs": [],
      "payable": false,
      "stateMutability": "nonpayable",
      "type": "function"
    },
    {
      "inputs": [],
      "payable": false,
      "stateMutability": "nonpayable",
      "type": "constructor"
    },
    {
      "anonymous": false,
      "inputs": [],
      "name": "Pause",
      "type": "event"
    },
    {
      "anonymous": false,
      "inputs": [],
      "name": "Unpause",
      "type": "event"
    },
    {
      "anonymous": false,
      "inputs": [
        {
          "indexed": true,
          "name": "previousOwner",
          "type": "address"
        },
        {
          "indexed": true,
          "name": "newOwner",
          "type": "address"
        }
      ],
      "name": "OwnershipTransferred",
      "type": "event"
    },
    {
      "constant": false,
      "inputs": [],
      "name": "normalProcess",
      "outputs": [],
      "payable": false,
      "stateMutability": "nonpayable",
      "type": "function"
    },
    {
      "constant": false,
      "inputs": [],
      "name": "drasticMeasure",
      "outputs": [],
      "payable": false,
      "stateMutability": "nonpayable",
      "type": "function"
    }
  ],
  "bytecode": "0x60806040526001805460a060020a60ff021916905534801561002057600080fd5b5060008054600160a060020a03191633178155600180547fffffffffffffffffffff00ff00000000000000000000000000000000000000001690556002556105ec8061006d6000396000f3006080604052600436106100ae5763ffffffff7c010000000000000000000000000000000000000000000000000000000060003504166306661abd81146100b35780633f4ba83a146100da5780634e71e0c8146100f15780635c975abb1461010657806376657b8e1461012f5780638456cb59146101445780638da5cb5b146101595780639958f04514610197578063e30c3978146101ac578063e7651d7a146101c1578063f2fde38b146101d6575b600080fd5b3480156100bf57600080fd5b506100c8610204565b60408051918252519081900360200190f35b3480156100e657600080fd5b506100ef61020a565b005b3480156100fd57600080fd5b506100ef6102aa565b34801561011257600080fd5b5061011b610364565b604080519115158252519081900360200190f35b34801561013b57600080fd5b5061011b610385565b34801561015057600080fd5b506100ef6103a7565b34801561016557600080fd5b5061016e61045d565b6040805173ffffffffffffffffffffffffffffffffffffffff9092168252519081900360200190f35b3480156101a357600080fd5b506100ef610479565b3480156101b857600080fd5b5061016e6104e4565b3480156101cd57600080fd5b506100ef610500565b3480156101e257600080fd5b506100ef73ffffffffffffffffffffffffffffffffffffffff60043516610533565b60025481565b60005473ffffffffffffffffffffffffffffffffffffffff16331461022e57600080fd5b60015474010000000000000000000000000000000000000000900460ff16151561025757600080fd5b600180547fffffffffffffffffffffff00ffffffffffffffffffffffffffffffffffffffff1690556040517f7805862f689e2f13df9f062ff482ad3ad112aca9e0847911ed832e158c525b3390600090a1565b60015473ffffffffffffffffffffffffffffffffffffffff1633146102ce57600080fd5b6001546000805460405173ffffffffffffffffffffffffffffffffffffffff93841693909116917f8be0079c531659141344cd1fd0a4f28419497f9722a3daafe3b4186f6b6457e091a360018054600080547fffffffffffffffffffffffff000000000000000000000000000000000000000090811673ffffffffffffffffffffffffffffffffffffffff841617909155169055565b60015474010000000000000000000000000000000000000000900460ff1681565b6001547501000000000000000000000000000000000000000000900460ff1681565b60005473ffffffffffffffffffffffffffffffffffffffff1633146103cb57600080fd5b60015474010000000000000000000000000000000000000000900460ff16156103f357600080fd5b600180547fffffffffffffffffffffff00ffffffffffffffffffffffffffffffffffffffff16740100000000000000000000000000000000000000001790556040517f6985a02210a168e66602d3235cb6db0e70f92b3ba4d376a33c0f3d9434bff62590600090a1565b60005473ffffffffffffffffffffffffffffffffffffffff1681565b60015474010000000000000000000000000000000000000000900460ff1615156104a257600080fd5b600180547fffffffffffffffffffff00ffffffffffffffffffffffffffffffffffffffffff167501000000000000000000000000000000000000000000179055565b60015473ffffffffffffffffffffffffffffffffffffffff1681565b60015474010000000000000000000000000000000000000000900460ff161561052857600080fd5b600280546001019055565b60005473ffffffffffffffffffffffffffffffffffffffff16331461055757600080fd5b73ffffffffffffffffffffffffffffffffffffffff8116151561057957600080fd5b600180547fffffffffffffffffffffffff00000000000000000000000000000000000000001673ffffffffffffffffffffffffffffffffffffffff929092169190911790555600a165627a7a72305820dba886347c254b486ab7d73b346ead03a1ddd8c324bf690376fbc4f7265a9be30029",
  "source": "pragma solidity ^0.4.24;\r\n\r\n\r\nimport \"../Pausable.sol\";\r\n\r\n\r\n// mock class using Pausable\r\ncontract PausableMock is Pausable {\r\n  bool public drasticMeasureTaken;\r\n  uint256 public count;\r\n\r\n  constructor() public {\r\n    drasticMeasureTaken = false;\r\n    count = 0;\r\n  }\r\n\r\n  function normalProcess() external whenNotPaused {\r\n    count++;\r\n  }\r\n\r\n  function drasticMeasure() external whenPaused {\r\n    drasticMeasureTaken = true;\r\n  }\r\n\r\n}",
  "sourcePath": "C:\\Users\\npain\\Projects\\Carbon\\fiat_gateway\\contracts\\helpers\\mocks\\PausableMock.sol",
  "compiler": {
    "name": "solc",
    "version": "0.4.24+commit.e67f0147.Emscripten.clang"
  },
  "schemaVersion": "2.0.1",
  "updatedAt": "2018-08-18T19:56:35.373Z"
}