{
  "contractName": "PausableMock",
  "abi": [
    {
      "constant": true,
      "inputs": [],
      "name": "count",
      "outputs": [
        {
          "name": "",
          "type": "uint256"
        }
      ],
      "payable": false,
      "stateMutability": "view",
      "type": "function"
    },
    {
      "constant": false,
      "inputs": [],
      "name": "unpause",
      "outputs": [],
      "payable": false,
      "stateMutability": "nonpayable",
      "type": "function"
    },
    {
      "constant": false,
      "inputs": [],
      "name": "claimOwnership",
      "outputs": [],
      "payable": false,
      "stateMutability": "nonpayable",
      "type": "function"
    },
    {
      "constant": true,
      "inputs": [],
      "name": "paused",
      "outputs": [
        {
          "name": "",
          "type": "bool"
        }
      ],
      "payable": false,
      "stateMutability": "view",
      "type": "function"
    },
    {
      "constant": true,
      "inputs": [],
      "name": "drasticMeasureTaken",
      "outputs": [
        {
          "name": "",
          "type": "bool"
        }
      ],
      "payable": false,
      "stateMutability": "view",
      "type": "function"
    },
    {
      "constant": false,
      "inputs": [],
      "name": "pause",
      "outputs": [],
      "payable": false,
      "stateMutability": "nonpayable",
      "type": "function"
    },
    {
      "constant": true,
      "inputs": [],
      "name": "owner",
      "outputs": [
        {
          "name": "",
          "type": "address"
        }
      ],
      "payable": false,
      "stateMutability": "view",
      "type": "function"
    },
    {
      "constant": true,
      "inputs": [],
      "name": "pendingOwner",
      "outputs": [
        {
          "name": "",
          "type": "address"
        }
      ],
      "payable": false,
      "stateMutability": "view",
      "type": "function"
    },
    {
      "constant": false,
      "inputs": [
        {
          "name": "_newOwner",
          "type": "address"
        }
      ],
      "name": "transferOwnership",
      "outputs": [],
      "payable": false,
      "stateMutability": "nonpayable",
      "type": "function"
    },
    {
      "inputs": [],
      "payable": false,
      "stateMutability": "nonpayable",
      "type": "constructor"
    },
    {
      "anonymous": false,
      "inputs": [],
      "name": "Pause",
      "type": "event"
    },
    {
      "anonymous": false,
      "inputs": [],
      "name": "Unpause",
      "type": "event"
    },
    {
      "anonymous": false,
      "inputs": [
        {
          "indexed": true,
          "name": "previousOwner",
          "type": "address"
        },
        {
          "indexed": true,
          "name": "newOwner",
          "type": "address"
        }
      ],
      "name": "OwnershipTransferred",
      "type": "event"
    },
    {
      "constant": false,
      "inputs": [],
      "name": "normalProcess",
      "outputs": [],
      "payable": false,
      "stateMutability": "nonpayable",
      "type": "function"
    },
    {
      "constant": false,
      "inputs": [],
      "name": "drasticMeasure",
      "outputs": [],
      "payable": false,
      "stateMutability": "nonpayable",
      "type": "function"
    }
  ],
  "bytecode": "0x60806040526001805460a060020a60ff021916905534801561002057600080fd5b5060008054600160a060020a03191633178155600180547fffffffffffffffffffff00ff00000000000000000000000000000000000000001690556002556104b78061006d6000396000f3006080604052600436106100ae5763ffffffff7c010000000000000000000000000000000000000000000000000000000060003504166306661abd81146100b35780633f4ba83a146100da5780634e71e0c8146100f15780635c975abb1461010657806376657b8e1461012f5780638456cb59146101445780638da5cb5b146101595780639958f0451461018a578063e30c39781461019f578063e7651d7a146101b4578063f2fde38b146101c9575b600080fd5b3480156100bf57600080fd5b506100c86101ea565b60408051918252519081900360200190f35b3480156100e657600080fd5b506100ef6101f0565b005b3480156100fd57600080fd5b506100ef610268565b34801561011257600080fd5b5061011b6102f0565b604080519115158252519081900360200190f35b34801561013b57600080fd5b5061011b610300565b34801561015057600080fd5b506100ef610322565b34801561016557600080fd5b5061016e61039f565b60408051600160a060020a039092168252519081900360200190f35b34801561019657600080fd5b506100ef6103ae565b3480156101ab57600080fd5b5061016e6103ff565b3480156101c057600080fd5b506100ef61040e565b3480156101d557600080fd5b506100ef600160a060020a0360043516610430565b60025481565b600054600160a060020a0316331461020757600080fd5b60015460a060020a900460ff16151561021f57600080fd5b6001805474ff0000000000000000000000000000000000000000191690556040517f7805862f689e2f13df9f062ff482ad3ad112aca9e0847911ed832e158c525b3390600090a1565b600154600160a060020a0316331461027f57600080fd5b60015460008054604051600160a060020a0393841693909116917f8be0079c531659141344cd1fd0a4f28419497f9722a3daafe3b4186f6b6457e091a3600180546000805473ffffffffffffffffffffffffffffffffffffffff19908116600160a060020a03841617909155169055565b60015460a060020a900460ff1681565b6001547501000000000000000000000000000000000000000000900460ff1681565b600054600160a060020a0316331461033957600080fd5b60015460a060020a900460ff161561035057600080fd5b6001805474ff0000000000000000000000000000000000000000191660a060020a1790556040517f6985a02210a168e66602d3235cb6db0e70f92b3ba4d376a33c0f3d9434bff62590600090a1565b600054600160a060020a031681565b60015460a060020a900460ff1615156103c657600080fd5b6001805475ff00000000000000000000000000000000000000000019167501000000000000000000000000000000000000000000179055565b600154600160a060020a031681565b60015460a060020a900460ff161561042557600080fd5b600280546001019055565b600054600160a060020a0316331461044757600080fd5b600160a060020a038116151561045c57600080fd5b6001805473ffffffffffffffffffffffffffffffffffffffff1916600160a060020a03929092169190911790555600a165627a7a723058205b0b6e554011b5c01b5fb9cf2df16cf6255fd86e4f6537af739732e2c76408690029",
  "source": "pragma solidity ^0.4.24;\r\n\r\n\r\nimport \"../Pausable.sol\";\r\n\r\n\r\n// mock class using Pausable\r\ncontract PausableMock is Pausable {\r\n  bool public drasticMeasureTaken;\r\n  uint256 public count;\r\n\r\n  constructor() public {\r\n    drasticMeasureTaken = false;\r\n    count = 0;\r\n  }\r\n\r\n  function normalProcess() external whenNotPaused {\r\n    count++;\r\n  }\r\n\r\n  function drasticMeasure() external whenPaused {\r\n    drasticMeasureTaken = true;\r\n  }\r\n\r\n}",
  "sourcePath": "C:\\Users\\npain\\Projects\\Carbon\\fiat_gateway\\contracts\\helpers\\mocks\\PausableMock.sol",
  "compiler": {
    "name": "solc",
    "version": "0.4.24+commit.e67f0147.Emscripten.clang"
  },
  "schemaVersion": "2.0.1",
  "updatedAt": "2018-09-27T18:53:19.004Z"
}