{
  "contractName": "PermissionedToken",
  "abi": [
    {
      "constant": true,
      "inputs": [],
      "name": "allowances",
      "outputs": [
        {
          "name": "",
          "type": "address"
        }
      ],
      "payable": false,
      "stateMutability": "view",
      "type": "function"
    },
    {
      "constant": false,
      "inputs": [],
      "name": "unpause",
      "outputs": [],
      "payable": false,
      "stateMutability": "nonpayable",
      "type": "function"
    },
    {
      "constant": true,
      "inputs": [],
      "name": "paused",
      "outputs": [
        {
          "name": "",
          "type": "bool"
        }
      ],
      "payable": false,
      "stateMutability": "view",
      "type": "function"
    },
    {
      "constant": false,
      "inputs": [],
      "name": "renounceOwnership",
      "outputs": [],
      "payable": false,
      "stateMutability": "nonpayable",
      "type": "function"
    },
    {
      "constant": false,
      "inputs": [
        {
          "name": "_newStorageAddress",
          "type": "address"
        }
      ],
      "name": "setBalanceStorage",
      "outputs": [],
      "payable": false,
      "stateMutability": "nonpayable",
      "type": "function"
    },
    {
      "constant": true,
      "inputs": [],
      "name": "balances",
      "outputs": [
        {
          "name": "",
          "type": "address"
        }
      ],
      "payable": false,
      "stateMutability": "view",
      "type": "function"
    },
    {
      "constant": false,
      "inputs": [],
      "name": "pause",
      "outputs": [],
      "payable": false,
      "stateMutability": "nonpayable",
      "type": "function"
    },
    {
      "constant": true,
      "inputs": [],
      "name": "owner",
      "outputs": [
        {
          "name": "",
          "type": "address"
        }
      ],
      "payable": false,
      "stateMutability": "view",
      "type": "function"
    },
    {
      "constant": false,
      "inputs": [
        {
          "name": "_newStorageAddress",
          "type": "address"
        }
      ],
      "name": "setAllowanceStorage",
      "outputs": [],
      "payable": false,
      "stateMutability": "nonpayable",
      "type": "function"
    },
    {
      "constant": false,
      "inputs": [
        {
          "name": "_newStorageAddress",
          "type": "address"
        }
      ],
      "name": "setRegulator",
      "outputs": [],
      "payable": false,
      "stateMutability": "nonpayable",
      "type": "function"
    },
    {
      "constant": true,
      "inputs": [],
      "name": "regulator",
      "outputs": [
        {
          "name": "",
          "type": "address"
        }
      ],
      "payable": false,
      "stateMutability": "view",
      "type": "function"
    },
    {
      "constant": false,
      "inputs": [
        {
          "name": "_newOwner",
          "type": "address"
        }
      ],
      "name": "transferOwnership",
      "outputs": [],
      "payable": false,
      "stateMutability": "nonpayable",
      "type": "function"
    },
    {
      "inputs": [
        {
          "name": "r",
          "type": "address"
        },
        {
          "name": "b",
          "type": "address"
        },
        {
          "name": "a",
          "type": "address"
        }
      ],
      "payable": false,
      "stateMutability": "nonpayable",
      "type": "constructor"
    },
    {
      "anonymous": false,
      "inputs": [
        {
          "indexed": true,
          "name": "account",
          "type": "address"
        },
        {
          "indexed": false,
          "name": "amount",
          "type": "uint256"
        }
      ],
      "name": "DestroyedBlacklistedTokens",
      "type": "event"
    },
    {
      "anonymous": false,
      "inputs": [
        {
          "indexed": true,
          "name": "owner",
          "type": "address"
        },
        {
          "indexed": true,
          "name": "spender",
          "type": "address"
        },
        {
          "indexed": false,
          "name": "value",
          "type": "uint256"
        }
      ],
      "name": "ApprovedBlacklistedAddressSpender",
      "type": "event"
    },
    {
      "anonymous": false,
      "inputs": [
        {
          "indexed": true,
          "name": "to",
          "type": "address"
        },
        {
          "indexed": false,
          "name": "value",
          "type": "uint256"
        }
      ],
      "name": "Mint",
      "type": "event"
    },
    {
      "anonymous": false,
      "inputs": [
        {
          "indexed": true,
          "name": "burner",
          "type": "address"
        },
        {
          "indexed": false,
          "name": "value",
          "type": "uint256"
        }
      ],
      "name": "Burn",
      "type": "event"
    },
    {
      "anonymous": false,
      "inputs": [
        {
          "indexed": true,
          "name": "from",
          "type": "address"
        },
        {
          "indexed": true,
          "name": "to",
          "type": "address"
        },
        {
          "indexed": false,
          "name": "value",
          "type": "uint256"
        }
      ],
      "name": "Transfer",
      "type": "event"
    },
    {
      "anonymous": false,
      "inputs": [
        {
          "indexed": true,
          "name": "owner",
          "type": "address"
        },
        {
          "indexed": true,
          "name": "spender",
          "type": "address"
        },
        {
          "indexed": false,
          "name": "value",
          "type": "uint256"
        }
      ],
      "name": "Approval",
      "type": "event"
    },
    {
      "anonymous": false,
      "inputs": [
        {
          "indexed": false,
          "name": "_old",
          "type": "address"
        },
        {
          "indexed": false,
          "name": "_new",
          "type": "address"
        }
      ],
      "name": "ChangedRegulator",
      "type": "event"
    },
    {
      "anonymous": false,
      "inputs": [
        {
          "indexed": false,
          "name": "_old",
          "type": "address"
        },
        {
          "indexed": false,
          "name": "_new",
          "type": "address"
        }
      ],
      "name": "ChangedBalanceStorage",
      "type": "event"
    },
    {
      "anonymous": false,
      "inputs": [
        {
          "indexed": false,
          "name": "_old",
          "type": "address"
        },
        {
          "indexed": false,
          "name": "_new",
          "type": "address"
        }
      ],
      "name": "ChangedAllowanceStorage",
      "type": "event"
    },
    {
      "anonymous": false,
      "inputs": [],
      "name": "Pause",
      "type": "event"
    },
    {
      "anonymous": false,
      "inputs": [],
      "name": "Unpause",
      "type": "event"
    },
    {
      "anonymous": false,
      "inputs": [
        {
          "indexed": true,
          "name": "previousOwner",
          "type": "address"
        }
      ],
      "name": "OwnershipRenounced",
      "type": "event"
    },
    {
      "anonymous": false,
      "inputs": [
        {
          "indexed": true,
          "name": "previousOwner",
          "type": "address"
        },
        {
          "indexed": true,
          "name": "newOwner",
          "type": "address"
        }
      ],
      "name": "OwnershipTransferred",
      "type": "event"
    },
    {
      "constant": true,
      "inputs": [
        {
          "name": "who",
          "type": "address"
        }
      ],
      "name": "balanceOf",
      "outputs": [
        {
          "name": "",
          "type": "uint256"
        }
      ],
      "payable": false,
      "stateMutability": "view",
      "type": "function"
    },
    {
      "constant": true,
      "inputs": [
        {
          "name": "owner",
          "type": "address"
        },
        {
          "name": "spender",
          "type": "address"
        }
      ],
      "name": "allowance",
      "outputs": [
        {
          "name": "",
          "type": "uint256"
        }
      ],
      "payable": false,
      "stateMutability": "view",
      "type": "function"
    },
    {
      "constant": true,
      "inputs": [],
      "name": "totalSupply",
      "outputs": [
        {
          "name": "",
          "type": "uint256"
        }
      ],
      "payable": false,
      "stateMutability": "view",
      "type": "function"
    },
    {
      "constant": false,
      "inputs": [
        {
          "name": "_to",
          "type": "address"
        },
        {
          "name": "_amount",
          "type": "uint256"
        }
      ],
      "name": "mint",
      "outputs": [
        {
          "name": "",
          "type": "bool"
        }
      ],
      "payable": false,
      "stateMutability": "nonpayable",
      "type": "function"
    },
    {
      "constant": false,
      "inputs": [
        {
          "name": "_amount",
          "type": "uint256"
        }
      ],
      "name": "burn",
      "outputs": [],
      "payable": false,
      "stateMutability": "nonpayable",
      "type": "function"
    },
    {
      "constant": false,
      "inputs": [
        {
          "name": "_spender",
          "type": "address"
        },
        {
          "name": "_value",
          "type": "uint256"
        }
      ],
      "name": "approve",
      "outputs": [
        {
          "name": "",
          "type": "bool"
        }
      ],
      "payable": false,
      "stateMutability": "nonpayable",
      "type": "function"
    },
    {
      "constant": false,
      "inputs": [
        {
          "name": "_spender",
          "type": "address"
        },
        {
          "name": "_addedValue",
          "type": "uint256"
        }
      ],
      "name": "increaseApproval",
      "outputs": [
        {
          "name": "",
          "type": "bool"
        }
      ],
      "payable": false,
      "stateMutability": "nonpayable",
      "type": "function"
    },
    {
      "constant": false,
      "inputs": [
        {
          "name": "_spender",
          "type": "address"
        },
        {
          "name": "_subtractedValue",
          "type": "uint256"
        }
      ],
      "name": "decreaseApproval",
      "outputs": [
        {
          "name": "",
          "type": "bool"
        }
      ],
      "payable": false,
      "stateMutability": "nonpayable",
      "type": "function"
    },
    {
      "constant": false,
      "inputs": [
        {
          "name": "_who",
          "type": "address"
        },
        {
          "name": "_amount",
          "type": "uint256"
        }
      ],
      "name": "destroyBlacklistedTokens",
      "outputs": [],
      "payable": false,
      "stateMutability": "nonpayable",
      "type": "function"
    },
    {
      "constant": false,
      "inputs": [
        {
          "name": "_blacklistedAccount",
          "type": "address"
        }
      ],
      "name": "approveBlacklistedAddressSpender",
      "outputs": [],
      "payable": false,
      "stateMutability": "nonpayable",
      "type": "function"
    },
    {
      "constant": false,
      "inputs": [
        {
          "name": "_to",
          "type": "address"
        },
        {
          "name": "_amount",
          "type": "uint256"
        }
      ],
      "name": "transfer",
      "outputs": [
        {
          "name": "",
          "type": "bool"
        }
      ],
      "payable": false,
      "stateMutability": "nonpayable",
      "type": "function"
    },
    {
      "constant": false,
      "inputs": [
        {
          "name": "_from",
          "type": "address"
        },
        {
          "name": "_to",
          "type": "address"
        },
        {
          "name": "_amount",
          "type": "uint256"
        }
      ],
      "name": "transferFrom",
      "outputs": [
        {
          "name": "",
          "type": "bool"
        }
      ],
      "payable": false,
      "stateMutability": "nonpayable",
      "type": "function"
    },
    {
      "constant": true,
      "inputs": [],
      "name": "blacklisted",
      "outputs": [
        {
          "name": "",
          "type": "bool"
        }
      ],
      "payable": false,
      "stateMutability": "view",
      "type": "function"
    }
  ],
  "bytecode": "0x60806040526000805460a060020a60ff021916905534801561002057600080fd5b5060405160608061398e8339810160409081528151602083015191909201516000805433600160a060020a0319918216178255600180548216600160a060020a039687161790556002805482169486169490941790935560038054909316939091169290921790556138f690819061009890396000f3006080604052600436106101485763ffffffff7c0100000000000000000000000000000000000000000000000000000000600035041663095ea7b3811461014d57806318160ddd1461019257806323b872dd146101b95780633ed10b92146101f05780633f4ba83a1461022e57806340c10f191461024557806342966c68146102765780635bae9ce91461028e5780635c975abb146102a357806366188463146102b8578063662f94c0146102e957806370a0823114610317578063715018a61461034557806373e9e0e51461035a5780637bb98a68146103885780638456cb591461039d5780638da5cb5b146103b2578063a9059cbb146103c7578063c52dd644146103f8578063c534ba4b14610426578063cde0a4f814610457578063d73dd62314610485578063dd62ed3e146104b6578063dd8fee14146104ea578063f2fde38b146104ff575b600080fd5b34801561015957600080fd5b5061017e73ffffffffffffffffffffffffffffffffffffffff6004351660243561052d565b604080519115158252519081900360200190f35b34801561019e57600080fd5b506101a761085e565b60408051918252519081900360200190f35b3480156101c557600080fd5b5061017e73ffffffffffffffffffffffffffffffffffffffff600435811690602435166044356108fb565b3480156101fc57600080fd5b50610205610fd0565b6040805173ffffffffffffffffffffffffffffffffffffffff9092168252519081900360200190f35b34801561023a57600080fd5b50610243610fec565b005b34801561025157600080fd5b5061017e73ffffffffffffffffffffffffffffffffffffffff6004351660243561108a565b34801561028257600080fd5b506102436004356111f7565b34801561029a57600080fd5b5061017e61138a565b3480156102af57600080fd5b5061017e6114ec565b3480156102c457600080fd5b5061017e73ffffffffffffffffffffffffffffffffffffffff6004351660243561150d565b3480156102f557600080fd5b5061024373ffffffffffffffffffffffffffffffffffffffff60043516611763565b34801561032357600080fd5b506101a773ffffffffffffffffffffffffffffffffffffffff60043516611b0c565b34801561035157600080fd5b50610243611bb6565b34801561036657600080fd5b5061024373ffffffffffffffffffffffffffffffffffffffff60043516611c47565b34801561039457600080fd5b50610205611e1b565b3480156103a957600080fd5b50610243611e37565b3480156103be57600080fd5b50610205611eeb565b3480156103d357600080fd5b5061017e73ffffffffffffffffffffffffffffffffffffffff60043516602435611f07565b34801561040457600080fd5b5061024373ffffffffffffffffffffffffffffffffffffffff600435166123be565b34801561043257600080fd5b5061024373ffffffffffffffffffffffffffffffffffffffff60043516602435612592565b34801561046357600080fd5b5061024373ffffffffffffffffffffffffffffffffffffffff60043516612998565b34801561049157600080fd5b5061017e73ffffffffffffffffffffffffffffffffffffffff60043516602435612b6c565b3480156104c257600080fd5b506101a773ffffffffffffffffffffffffffffffffffffffff60043581169060243516612db8565b3480156104f657600080fd5b50610205612e6b565b34801561050b57600080fd5b5061024373ffffffffffffffffffffffffffffffffffffffff60043516612e87565b600154604080517f7ccce85100000000000000000000000000000000000000000000000000000000815273ffffffffffffffffffffffffffffffffffffffff8086166004830152915160009386931691637ccce85191602480830192602092919082900301818887803b1580156105a357600080fd5b505af11580156105b7573d6000803e3d6000fd5b505050506040513d60208110156105cd57600080fd5b50511561063b57604080517f08c379a000000000000000000000000000000000000000000000000000000000815260206004820152601c60248201527f55736572206d757374206e6f7420626520626c61636b6c697374656400000000604482015290519081900360640190fd5b600154604080517f7ccce851000000000000000000000000000000000000000000000000000000008152336004820152905173ffffffffffffffffffffffffffffffffffffffff90921691637ccce851916024808201926020929091908290030181600087803b1580156106ae57600080fd5b505af11580156106c2573d6000803e3d6000fd5b505050506040513d60208110156106d857600080fd5b50511561074657604080517f08c379a000000000000000000000000000000000000000000000000000000000815260206004820152601e60248201527f53656e646572206d757374206e6f7420626520626c61636b6c69737465640000604482015290519081900360640190fd5b60005474010000000000000000000000000000000000000000900460ff161561076e57600080fd5b600354604080517fda46098c00000000000000000000000000000000000000000000000000000000815233600482015273ffffffffffffffffffffffffffffffffffffffff8781166024830152604482018790529151919092169163da46098c91606480830192600092919082900301818387803b1580156107ef57600080fd5b505af1158015610803573d6000803e3d6000fd5b505060408051868152905173ffffffffffffffffffffffffffffffffffffffff881693503392507f8c5be1e5ebec7d5bd14f71427d1e84f3dd0314c0f7b2291e5b200ac8c7c3b9259181900360200190a35060019392505050565b600254604080517f18160ddd000000000000000000000000000000000000000000000000000000008152905160009273ffffffffffffffffffffffffffffffffffffffff16916318160ddd91600480830192602092919082900301818787803b1580156108ca57600080fd5b505af11580156108de573d6000803e3d6000fd5b505050506040513d60208110156108f457600080fd5b5051905090565b6000805474010000000000000000000000000000000000000000900460ff161561092457600080fd5b600154604080517f7ccce85100000000000000000000000000000000000000000000000000000000815273ffffffffffffffffffffffffffffffffffffffff808716600483015291518793879360009384939190921691637ccce85191602480830192602092919082900301818787803b1580156109a157600080fd5b505af11580156109b5573d6000803e3d6000fd5b505050506040513d60208110156109cb57600080fd5b505115610a3957604080517f08c379a000000000000000000000000000000000000000000000000000000000815260206004820152601f60248201527f526563697069656e742063616e6e6f7420626520626c61636b6c697374656400604482015290519081900360640190fd5b600154604080517f7ccce85100000000000000000000000000000000000000000000000000000000815273ffffffffffffffffffffffffffffffffffffffff878116600483015291519190921691637ccce8519160248083019260209291908290030181600087803b158015610aae57600080fd5b505af1158015610ac2573d6000803e3d6000fd5b505050506040513d6020811015610ad857600080fd5b5051600154604080517f91c4529f000000000000000000000000000000000000000000000000000000008152336004820152905192945073ffffffffffffffffffffffffffffffffffffffff909116916391c4529f916024808201926020929091908290030181600087803b158015610b5057600080fd5b505af1158015610b64573d6000803e3d6000fd5b505050506040513d6020811015610b7a57600080fd5b50519050811580610b885750805b1515610c4157604080517f08c379a000000000000000000000000000000000000000000000000000000000815260206004820152604c60248201527f4f726967696e2063616e6e6f7420626520626c61636b6c69737465642069662060448201527f7370656e646572206973206e6f7420616e20617070726f76656420626c61636b60648201527f6c697374207370656e6465720000000000000000000000000000000000000000608482015290519081900360a40190fd5b610c4b8833612db8565b861115610cb957604080517f08c379a000000000000000000000000000000000000000000000000000000000815260206004820181905260248201527f6e6f7420656e6f75676820616c6c6f77616e636520746f207472616e73666572604482015290519081900360640190fd5b73ffffffffffffffffffffffffffffffffffffffff87161515610d3d57604080517f08c379a000000000000000000000000000000000000000000000000000000000815260206004820152601860248201527f746f20616464726573732063616e6e6f74206265203078300000000000000000604482015290519081900360640190fd5b610d4688611b0c565b861115610db457604080517f08c379a000000000000000000000000000000000000000000000000000000000815260206004820152601e60248201527f6e6f7420656e6f7567682062616c616e636520746f207472616e736665720000604482015290519081900360640190fd5b600354604080517f97d88cd200000000000000000000000000000000000000000000000000000000815273ffffffffffffffffffffffffffffffffffffffff8b81166004830152336024830152604482018a9052915191909216916397d88cd291606480830192600092919082900301818387803b158015610e3557600080fd5b505af1158015610e49573d6000803e3d6000fd5b5050600254604080517f21e5383a00000000000000000000000000000000000000000000000000000000815273ffffffffffffffffffffffffffffffffffffffff8c81166004830152602482018c905291519190921693506321e5383a9250604480830192600092919082900301818387803b158015610ec857600080fd5b505af1158015610edc573d6000803e3d6000fd5b5050600254604080517fcf8eeb7e00000000000000000000000000000000000000000000000000000000815273ffffffffffffffffffffffffffffffffffffffff8d81166004830152602482018c9052915191909216935063cf8eeb7e9250604480830192600092919082900301818387803b158015610f5b57600080fd5b505af1158015610f6f573d6000803e3d6000fd5b505060408051898152905173ffffffffffffffffffffffffffffffffffffffff808c1694508c1692507fddf252ad1be2c89b69c2b068fc378daa952ba7f163c4a11628f55a4df523b3ef9181900360200190a3506001979650505050505050565b60035473ffffffffffffffffffffffffffffffffffffffff1681565b60005473ffffffffffffffffffffffffffffffffffffffff16331461101057600080fd5b60005474010000000000000000000000000000000000000000900460ff16151561103957600080fd5b600080547fffffffffffffffffffffff00ffffffffffffffffffffffffffffffffffffffff1681556040517f7805862f689e2f13df9f062ff482ad3ad112aca9e0847911ed832e158c525b339190a1565b600154604080517f14db6d58000000000000000000000000000000000000000000000000000000008152336004820152600080357fffffffff000000000000000000000000000000000000000000000000000000001660248301529151919273ffffffffffffffffffffffffffffffffffffffff16916314db6d589160448082019260209290919082900301818787803b15801561112757600080fd5b505af115801561113b573d6000803e3d6000fd5b505050506040513d602081101561115157600080fd5b505115156111e657604080517f08c379a000000000000000000000000000000000000000000000000000000000815260206004820152603160248201527f5573657220646f6573206e6f742068617665207065726d697373696f6e20746f60448201527f20657865637574652066756e6374696f6e000000000000000000000000000000606482015290519081900360840190fd5b6111f08383612eb4565b9392505050565b600154604080517f14db6d58000000000000000000000000000000000000000000000000000000008152336004820152600080357fffffffff00000000000000000000000000000000000000000000000000000000166024830152915173ffffffffffffffffffffffffffffffffffffffff909316926314db6d5892604480840193602093929083900390910190829087803b15801561129657600080fd5b505af11580156112aa573d6000803e3d6000fd5b505050506040513d60208110156112c057600080fd5b5051151561135557604080517f08c379a000000000000000000000000000000000000000000000000000000000815260206004820152603160248201527f5573657220646f6573206e6f742068617665207065726d697373696f6e20746f60448201527f20657865637574652066756e6374696f6e000000000000000000000000000000606482015290519081900360840190fd5b60005474010000000000000000000000000000000000000000900460ff161561137d57600080fd5b6113873382613185565b50565b600154604080517f14db6d58000000000000000000000000000000000000000000000000000000008152336004820152600080357fffffffff000000000000000000000000000000000000000000000000000000001660248301529151919273ffffffffffffffffffffffffffffffffffffffff16916314db6d589160448082019260209290919082900301818787803b15801561142757600080fd5b505af115801561143b573d6000803e3d6000fd5b505050506040513d602081101561145157600080fd5b505115156114e657604080517f08c379a000000000000000000000000000000000000000000000000000000000815260206004820152603160248201527f5573657220646f6573206e6f742068617665207065726d697373696f6e20746f60448201527f20657865637574652066756e6374696f6e000000000000000000000000000000606482015290519081900360840190fd5b50600190565b60005474010000000000000000000000000000000000000000900460ff1681565b600154604080517f7ccce85100000000000000000000000000000000000000000000000000000000815273ffffffffffffffffffffffffffffffffffffffff8086166004830152915160009386931691637ccce85191602480830192602092919082900301818887803b15801561158357600080fd5b505af1158015611597573d6000803e3d6000fd5b505050506040513d60208110156115ad57600080fd5b50511561161b57604080517f08c379a000000000000000000000000000000000000000000000000000000000815260206004820152601c60248201527f55736572206d757374206e6f7420626520626c61636b6c697374656400000000604482015290519081900360640190fd5b600154604080517f7ccce851000000000000000000000000000000000000000000000000000000008152336004820152905173ffffffffffffffffffffffffffffffffffffffff90921691637ccce851916024808201926020929091908290030181600087803b15801561168e57600080fd5b505af11580156116a2573d6000803e3d6000fd5b505050506040513d60208110156116b857600080fd5b50511561172657604080517f08c379a000000000000000000000000000000000000000000000000000000000815260206004820152601e60248201527f53656e646572206d757374206e6f7420626520626c61636b6c69737465640000604482015290519081900360640190fd5b60005474010000000000000000000000000000000000000000900460ff161561174e57600080fd5b6117598484336133b8565b5060019392505050565b600154604080517f7ccce85100000000000000000000000000000000000000000000000000000000815273ffffffffffffffffffffffffffffffffffffffff8085166004830152915184939290921691637ccce851916024808201926020929091908290030181600087803b1580156117db57600080fd5b505af11580156117ef573d6000803e3d6000fd5b505050506040513d602081101561180557600080fd5b5051151561187457604080517f08c379a000000000000000000000000000000000000000000000000000000000815260206004820152601860248201527f55736572206d75737420626520626c61636b6c69737465640000000000000000604482015290519081900360640190fd5b60005474010000000000000000000000000000000000000000900460ff161561189c57600080fd5b600154604080517f14db6d58000000000000000000000000000000000000000000000000000000008152336004820152600080357fffffffff00000000000000000000000000000000000000000000000000000000166024830152915173ffffffffffffffffffffffffffffffffffffffff909316926314db6d5892604480840193602093929083900390910190829087803b15801561193b57600080fd5b505af115801561194f573d6000803e3d6000fd5b505050506040513d602081101561196557600080fd5b505115156119fa57604080517f08c379a000000000000000000000000000000000000000000000000000000000815260206004820152603160248201527f5573657220646f6573206e6f742068617665207065726d697373696f6e20746f60448201527f20657865637574652066756e6374696f6e000000000000000000000000000000606482015290519081900360840190fd5b60035473ffffffffffffffffffffffffffffffffffffffff1663da46098c8333611a2382611b0c565b604080517c010000000000000000000000000000000000000000000000000000000063ffffffff871602815273ffffffffffffffffffffffffffffffffffffffff948516600482015292909316602483015260448201529051606480830192600092919082900301818387803b158015611a9c57600080fd5b505af1158015611ab0573d6000803e3d6000fd5b50339250505073ffffffffffffffffffffffffffffffffffffffff83167f3b1ffca3903932aa264fbb5b7b381746e2b7b61c9c5a6024bad48d23f958a6c2611af785611b0c565b60408051918252519081900360200190a35050565b600254604080517f70a0823100000000000000000000000000000000000000000000000000000000815273ffffffffffffffffffffffffffffffffffffffff8481166004830152915160009392909216916370a082319160248082019260209290919082900301818787803b158015611b8457600080fd5b505af1158015611b98573d6000803e3d6000fd5b505050506040513d6020811015611bae57600080fd5b505192915050565b60005473ffffffffffffffffffffffffffffffffffffffff163314611bda57600080fd5b6000805460405173ffffffffffffffffffffffffffffffffffffffff909116917ff8df31144d9c2f0f6b59d69b8b98abd5459d07f2742c4df920b25aae33c6482091a2600080547fffffffffffffffffffffffff0000000000000000000000000000000000000000169055565b6000805473ffffffffffffffffffffffffffffffffffffffff163314611c6c57600080fd5b60025473ffffffffffffffffffffffffffffffffffffffff83811691161415611cf657604080517f08c379a000000000000000000000000000000000000000000000000000000000815260206004820152601b60248201527f4d7573742062652061206e65772062616c616e63652073686565740000000000604482015290519081900360640190fd5b611cff82613692565b1515611d9257604080517f08c379a000000000000000000000000000000000000000000000000000000000815260206004820152603860248201527f43616e6e6f7420736574206120726567756c61746f722073746f72616765207460448201527f6f2061206e6f6e2d636f6e747261637420616464726573730000000000000000606482015290519081900360840190fd5b506002805473ffffffffffffffffffffffffffffffffffffffff8381167fffffffffffffffffffffffff0000000000000000000000000000000000000000831681179093556040805191909216808252602082019390935281517f8c3d37b41e983f0d5b0b91de3f9d5055c73a17beebc7adfce9b677ab7c07ad2d929181900390910190a15050565b60025473ffffffffffffffffffffffffffffffffffffffff1681565b60005473ffffffffffffffffffffffffffffffffffffffff163314611e5b57600080fd5b60005474010000000000000000000000000000000000000000900460ff1615611e8357600080fd5b600080547fffffffffffffffffffffff00ffffffffffffffffffffffffffffffffffffffff16740100000000000000000000000000000000000000001781556040517f6985a02210a168e66602d3235cb6db0e70f92b3ba4d376a33c0f3d9434bff6259190a1565b60005473ffffffffffffffffffffffffffffffffffffffff1681565b600154604080517f7ccce85100000000000000000000000000000000000000000000000000000000815273ffffffffffffffffffffffffffffffffffffffff8086166004830152915160009386931691637ccce85191602480830192602092919082900301818887803b158015611f7d57600080fd5b505af1158015611f91573d6000803e3d6000fd5b505050506040513d6020811015611fa757600080fd5b50511561201557604080517f08c379a000000000000000000000000000000000000000000000000000000000815260206004820152601f60248201527f526563697069656e742063616e6e6f7420626520626c61636b6c697374656400604482015290519081900360640190fd5b600154604080517f7ccce851000000000000000000000000000000000000000000000000000000008152336004820152905173ffffffffffffffffffffffffffffffffffffffff90921691637ccce851916024808201926020929091908290030181600087803b15801561208857600080fd5b505af115801561209c573d6000803e3d6000fd5b505050506040513d60208110156120b257600080fd5b50511561212057604080517f08c379a000000000000000000000000000000000000000000000000000000000815260206004820152601c60248201527f53656e6465722063616e6e6f7420626520626c61636b6c697374656400000000604482015290519081900360640190fd5b60005474010000000000000000000000000000000000000000900460ff161561214857600080fd5b73ffffffffffffffffffffffffffffffffffffffff841615156121cc57604080517f08c379a000000000000000000000000000000000000000000000000000000000815260206004820152601860248201527f746f20616464726573732063616e6e6f74206265203078300000000000000000604482015290519081900360640190fd5b6121d533611b0c565b83111561224357604080517f08c379a000000000000000000000000000000000000000000000000000000000815260206004820152601e60248201527f6e6f7420656e6f7567682062616c616e636520746f207472616e736665720000604482015290519081900360640190fd5b600254604080517fcf8eeb7e00000000000000000000000000000000000000000000000000000000815233600482015260248101869052905173ffffffffffffffffffffffffffffffffffffffff9092169163cf8eeb7e9160448082019260009290919082900301818387803b1580156122bc57600080fd5b505af11580156122d0573d6000803e3d6000fd5b5050600254604080517f21e5383a00000000000000000000000000000000000000000000000000000000815273ffffffffffffffffffffffffffffffffffffffff89811660048301526024820189905291519190921693506321e5383a9250604480830192600092919082900301818387803b15801561234f57600080fd5b505af1158015612363573d6000803e3d6000fd5b505060408051868152905173ffffffffffffffffffffffffffffffffffffffff881693503392507fddf252ad1be2c89b69c2b068fc378daa952ba7f163c4a11628f55a4df523b3ef9181900360200190a35060019392505050565b6000805473ffffffffffffffffffffffffffffffffffffffff1633146123e357600080fd5b60035473ffffffffffffffffffffffffffffffffffffffff8381169116141561246d57604080517f08c379a000000000000000000000000000000000000000000000000000000000815260206004820152601b60248201527f4d7573742062652061206e65772073746f726167652073686565740000000000604482015290519081900360640190fd5b61247682613692565b151561250957604080517f08c379a000000000000000000000000000000000000000000000000000000000815260206004820152603860248201527f43616e6e6f7420736574206120726567756c61746f722073746f72616765207460448201527f6f2061206e6f6e2d636f6e747261637420616464726573730000000000000000606482015290519081900360840190fd5b506003805473ffffffffffffffffffffffffffffffffffffffff8381167fffffffffffffffffffffffff0000000000000000000000000000000000000000831681179093556040805191909216808252602082019390935281517fec358425c40511d576e1c52be7593403bceacda627234c873b52589fef7b2359929181900390910190a15050565b600154604080517f7ccce85100000000000000000000000000000000000000000000000000000000815273ffffffffffffffffffffffffffffffffffffffff8086166004830152915185939290921691637ccce851916024808201926020929091908290030181600087803b15801561260a57600080fd5b505af115801561261e573d6000803e3d6000fd5b505050506040513d602081101561263457600080fd5b505115156126a357604080517f08c379a000000000000000000000000000000000000000000000000000000000815260206004820152601860248201527f55736572206d75737420626520626c61636b6c69737465640000000000000000604482015290519081900360640190fd5b60005474010000000000000000000000000000000000000000900460ff16156126cb57600080fd5b600154604080517f14db6d58000000000000000000000000000000000000000000000000000000008152336004820152600080357fffffffff00000000000000000000000000000000000000000000000000000000166024830152915173ffffffffffffffffffffffffffffffffffffffff909316926314db6d5892604480840193602093929083900390910190829087803b15801561276a57600080fd5b505af115801561277e573d6000803e3d6000fd5b505050506040513d602081101561279457600080fd5b5051151561282957604080517f08c379a000000000000000000000000000000000000000000000000000000000815260206004820152603160248201527f5573657220646f6573206e6f742068617665207065726d697373696f6e20746f60448201527f20657865637574652066756e6374696f6e000000000000000000000000000000606482015290519081900360840190fd5b600254604080517fcf8eeb7e00000000000000000000000000000000000000000000000000000000815273ffffffffffffffffffffffffffffffffffffffff8681166004830152602482018690529151919092169163cf8eeb7e91604480830192600092919082900301818387803b1580156128a457600080fd5b505af11580156128b8573d6000803e3d6000fd5b5050600254604080517f82838c7600000000000000000000000000000000000000000000000000000000815260048101879052905173ffffffffffffffffffffffffffffffffffffffff90921693506382838c76925060248082019260009290919082900301818387803b15801561292f57600080fd5b505af1158015612943573d6000803e3d6000fd5b505060408051858152905173ffffffffffffffffffffffffffffffffffffffff871693507fb81d1dffb753076892e04e6e1234d137b031f70d859c299876b0486e966424fd92509081900360200190a2505050565b6000805473ffffffffffffffffffffffffffffffffffffffff1633146129bd57600080fd5b60015473ffffffffffffffffffffffffffffffffffffffff83811691161415612a4757604080517f08c379a000000000000000000000000000000000000000000000000000000000815260206004820152601760248201527f4d7573742062652061206e657720726567756c61746f72000000000000000000604482015290519081900360640190fd5b612a5082613692565b1515612ae357604080517f08c379a000000000000000000000000000000000000000000000000000000000815260206004820152603860248201527f43616e6e6f7420736574206120726567756c61746f722073746f72616765207460448201527f6f2061206e6f6e2d636f6e747261637420616464726573730000000000000000606482015290519081900360840190fd5b506001805473ffffffffffffffffffffffffffffffffffffffff8381167fffffffffffffffffffffffff0000000000000000000000000000000000000000831681179093556040805191909216808252602082019390935281517f4a59b4b607c6055b37a4716d7813d7d4d2c288e4d0dd8298e365b260a1f262e8929181900390910190a15050565b600154604080517f7ccce85100000000000000000000000000000000000000000000000000000000815273ffffffffffffffffffffffffffffffffffffffff8086166004830152915160009386931691637ccce85191602480830192602092919082900301818887803b158015612be257600080fd5b505af1158015612bf6573d6000803e3d6000fd5b505050506040513d6020811015612c0c57600080fd5b505115612c7a57604080517f08c379a000000000000000000000000000000000000000000000000000000000815260206004820152601c60248201527f55736572206d757374206e6f7420626520626c61636b6c697374656400000000604482015290519081900360640190fd5b600154604080517f7ccce851000000000000000000000000000000000000000000000000000000008152336004820152905173ffffffffffffffffffffffffffffffffffffffff90921691637ccce851916024808201926020929091908290030181600087803b158015612ced57600080fd5b505af1158015612d01573d6000803e3d6000fd5b505050506040513d6020811015612d1757600080fd5b505115612d8557604080517f08c379a000000000000000000000000000000000000000000000000000000000815260206004820152601e60248201527f53656e646572206d757374206e6f7420626520626c61636b6c69737465640000604482015290519081900360640190fd5b60005474010000000000000000000000000000000000000000900460ff1615612dad57600080fd5b61175984843361369a565b600354604080517f1a46ec8200000000000000000000000000000000000000000000000000000000815273ffffffffffffffffffffffffffffffffffffffff8581166004830152848116602483015291516000939290921691631a46ec829160448082019260209290919082900301818787803b158015612e3857600080fd5b505af1158015612e4c573d6000803e3d6000fd5b505050506040513d6020811015612e6257600080fd5b50519392505050565b60015473ffffffffffffffffffffffffffffffffffffffff1681565b60005473ffffffffffffffffffffffffffffffffffffffff163314612eab57600080fd5b6113878161381b565b600154604080517fd88c271e00000000000000000000000000000000000000000000000000000000815273ffffffffffffffffffffffffffffffffffffffff808616600483015291516000938693169163d88c271e91602480830192602092919082900301818887803b158015612f2a57600080fd5b505af1158015612f3e573d6000803e3d6000fd5b505050506040513d6020811015612f5457600080fd5b50511515612fc357604080517f08c379a000000000000000000000000000000000000000000000000000000000815260206004820152601860248201527f55736572206d7573742062652077686974656c69737465640000000000000000604482015290519081900360640190fd5b600254604080517fe468688e00000000000000000000000000000000000000000000000000000000815260048101869052905173ffffffffffffffffffffffffffffffffffffffff9092169163e468688e9160248082019260009290919082900301818387803b15801561303657600080fd5b505af115801561304a573d6000803e3d6000fd5b5050600254604080517f21e5383a00000000000000000000000000000000000000000000000000000000815273ffffffffffffffffffffffffffffffffffffffff89811660048301526024820189905291519190921693506321e5383a9250604480830192600092919082900301818387803b1580156130c957600080fd5b505af11580156130dd573d6000803e3d6000fd5b505060408051868152905173ffffffffffffffffffffffffffffffffffffffff881693507f0f6798a560793a54c3bcfe86a93cde1e73087d944c0ea20544137d412139688592509081900360200190a260408051848152905173ffffffffffffffffffffffffffffffffffffffff8616916000917fddf252ad1be2c89b69c2b068fc378daa952ba7f163c4a11628f55a4df523b3ef9181900360200190a35060019392505050565b61318e82611b0c565b8111156131fc57604080517f08c379a000000000000000000000000000000000000000000000000000000000815260206004820152601a60248201527f6e6f7420656e6f7567682062616c616e636520746f206275726e000000000000604482015290519081900360640190fd5b600254604080517fcf8eeb7e00000000000000000000000000000000000000000000000000000000815273ffffffffffffffffffffffffffffffffffffffff8581166004830152602482018590529151919092169163cf8eeb7e91604480830192600092919082900301818387803b15801561327757600080fd5b505af115801561328b573d6000803e3d6000fd5b5050600254604080517f82838c7600000000000000000000000000000000000000000000000000000000815260048101869052905173ffffffffffffffffffffffffffffffffffffffff90921693506382838c76925060248082019260009290919082900301818387803b15801561330257600080fd5b505af1158015613316573d6000803e3d6000fd5b505060408051848152905173ffffffffffffffffffffffffffffffffffffffff861693507fcc16f5dbb4873280815c1ee09dbd06736cffcc184412cf7a71a0fdb75d397ca592509081900360200190a260408051828152905160009173ffffffffffffffffffffffffffffffffffffffff8516917fddf252ad1be2c89b69c2b068fc378daa952ba7f163c4a11628f55a4df523b3ef9181900360200190a35050565b600354604080517f1a46ec8200000000000000000000000000000000000000000000000000000000815273ffffffffffffffffffffffffffffffffffffffff8481166004830152868116602483015291516000939290921691631a46ec829160448082019260209290919082900301818787803b15801561343857600080fd5b505af115801561344c573d6000803e3d6000fd5b505050506040513d602081101561346257600080fd5b505190508083111561350c57600354604080517fda46098c00000000000000000000000000000000000000000000000000000000815273ffffffffffffffffffffffffffffffffffffffff85811660048301528781166024830152600060448301819052925193169263da46098c9260648084019391929182900301818387803b1580156134ef57600080fd5b505af1158015613503573d6000803e3d6000fd5b505050506135a8565b600354604080517f97d88cd200000000000000000000000000000000000000000000000000000000815273ffffffffffffffffffffffffffffffffffffffff8581166004830152878116602483015260448201879052915191909216916397d88cd291606480830192600092919082900301818387803b15801561358f57600080fd5b505af11580156135a3573d6000803e3d6000fd5b505050505b600354604080517f1a46ec8200000000000000000000000000000000000000000000000000000000815273ffffffffffffffffffffffffffffffffffffffff85811660048301819052888216602484018190529351939490937f8c5be1e5ebec7d5bd14f71427d1e84f3dd0314c0f7b2291e5b200ac8c7c3b925939290911691631a46ec829160448083019260209291908290030181600087803b15801561364f57600080fd5b505af1158015613663573d6000803e3d6000fd5b505050506040513d602081101561367957600080fd5b505160408051918252519081900360200190a350505050565b6000903b1190565b600354604080517f5fd72d1600000000000000000000000000000000000000000000000000000000815273ffffffffffffffffffffffffffffffffffffffff848116600483015286811660248301526044820186905291519190921691635fd72d1691606480830192600092919082900301818387803b15801561371d57600080fd5b505af1158015613731573d6000803e3d6000fd5b5050600354604080517f1a46ec8200000000000000000000000000000000000000000000000000000000815273ffffffffffffffffffffffffffffffffffffffff86811660048301819052818a1660248401819052935193965094507f8c5be1e5ebec7d5bd14f71427d1e84f3dd0314c0f7b2291e5b200ac8c7c3b925931691631a46ec82916044808201926020929091908290030181600087803b1580156137d957600080fd5b505af11580156137ed573d6000803e3d6000fd5b505050506040513d602081101561380357600080fd5b505160408051918252519081900360200190a3505050565b73ffffffffffffffffffffffffffffffffffffffff8116151561383d57600080fd5b6000805460405173ffffffffffffffffffffffffffffffffffffffff808516939216917f8be0079c531659141344cd1fd0a4f28419497f9722a3daafe3b4186f6b6457e091a3600080547fffffffffffffffffffffffff00000000000000000000000000000000000000001673ffffffffffffffffffffffffffffffffffffffff929092169190911790555600a165627a7a7230582040db9eca12f4500972682cca6620eaa7f3662cb2e71c4d175ea66981f7e134000029",
  "source": "pragma solidity ^0.4.24;\n\nimport \"./dataStorage/MutablePermissionedTokenStorage.sol\";\nimport \"openzeppelin-solidity/contracts/AddressUtils.sol\";\nimport \"openzeppelin-solidity/contracts/math/SafeMath.sol\";\nimport \"openzeppelin-solidity/contracts/AddressUtils.sol\";\nimport \"openzeppelin-solidity/contracts/lifecycle/Pausable.sol\";\nimport \"openzeppelin-solidity/contracts/token/ERC20/ERC20.sol\";\n\n/**\n* @title PermissionedToken\n* @notice A permissioned token that enables transfers, withdrawals, and deposits to occur \n* if and only if it is approved by an on-chain Regulator service. PermissionedToken is an\n* ERC-20 smart contract representing ownership of securities and overrides the\n* transfer, burn, and mint methods to check with the Regulator.\n*/\ncontract PermissionedToken is ERC20, Pausable, MutablePermissionedTokenStorage {\n    using SafeMath for uint256;\n\n    /** Events */\n    event DestroyedBlacklistedTokens(address indexed account, uint256 amount);\n    event ApprovedBlacklistedAddressSpender(address indexed owner, address indexed spender, uint256 value);\n    \n    // ERC20\n    event Mint(address indexed to, uint256 value);\n    event Burn(address indexed burner, uint256 value);\n    event Transfer(address indexed from, address indexed to, uint256 value);\n    event Approval(address indexed owner, address indexed spender, uint256 value);\n\n\n    constructor (address r, address b, address a) \n    MutablePermissionedTokenStorage(r, b, a) public {}\n\n    /** Modifiers */\n    /** @notice Modifier that allows function access to be restricted based on\n    * whether the regulator allows the message sender to execute that function.\n    **/\n    modifier requiresPermission() {\n        require (regulator.hasUserPermission(msg.sender, msg.sig), \"User does not have permission to execute function\");\n        _;\n    }\n\n    /** @notice Modifier that checks whether or not a transfer operation can send tokens to the\n     * _to address. See transfer()'s documentation for\n     * more details.\n    **/\n    modifier transferConditionsRequired(address _to) {\n        require(!regulator.isBlacklistedUser(_to), \"Recipient cannot be blacklisted\");\n        require(!regulator.isBlacklistedUser(msg.sender), \"Sender cannot be blacklisted\");\n        _;\n    }\n\n     /** @notice Modifier that checks whether or not a transferFrom operation can\n     * succeed with the given _from and _to address. See transferFrom()'s documentation for\n     * more details.\n    **/\n    modifier transferFromConditionsRequired(address _from, address _to) {\n        require(!regulator.isBlacklistedUser(_to), \"Recipient cannot be blacklisted\");\n        \n        // If the origin user is blacklisted, the transaction can only succeed if \n        // the message sender is a user that has been approved to transfer \n        // blacklisted tokens out of this address.\n        bool is_origin_blacklisted = regulator.isBlacklistedUser(_from);\n\n        // Is the message sender a person with the ability to transfer tokens out of a blacklisted account?\n        bool sender_can_spend_from_blacklisted_address = regulator.isBlacklistSpender(msg.sender);\n        require(!is_origin_blacklisted || sender_can_spend_from_blacklisted_address, \"Origin cannot be blacklisted if spender is not an approved blacklist spender\");\n        _;\n    }\n\n    /** @notice Modifier that checks whether a user is whitelisted.\n     * @param _user The address of the user to check.\n    **/\n    modifier userWhitelisted(address _user) {\n        require(regulator.isWhitelistedUser(_user), \"User must be whitelisted\");\n        _;\n    }\n\n    /** @notice Modifier that checks whether a user is blacklisted.\n     * @param _user The address of the user to check.\n    **/\n    modifier userBlacklisted(address _user) {\n        require(regulator.isBlacklistedUser(_user), \"User must be blacklisted\");\n        _;\n    }\n\n    /** @notice Modifier that checks whether a user is not blacklisted.\n     * @param _user The address of the user to check.\n    **/\n    modifier userNotBlacklisted(address _user) {\n        require(!regulator.isBlacklistedUser(_user), \"User must not be blacklisted\");\n        _;\n    }\n\n    /** @notice Modifier that checks whether the caller of a function is not blacklisted.\n    **/\n    modifier senderNotBlacklisted() {\n        require(!regulator.isBlacklistedUser(msg.sender), \"Sender must not be blacklisted\");\n        _;\n    }\n\n    /**\n    * @notice Implements balanceOf() as specified in the ERC20 standard.\n    */\n    function balanceOf(address who) public view returns (uint256) {\n        return balances.balanceOf(who);\n    }\n\n    /**\n    * @notice Implements allowance() as specified in the ERC20 standard.\n    */\n    function allowance(address owner, address spender) public view returns (uint256) {\n        return allowances.allowanceOf(owner, spender);\n    }\n\n    /**\n    * @notice Implements totalSupply() as specified in the ERC20 standard.\n    */\n    function totalSupply() public view returns (uint256) {\n        return balances.totalSupply();\n    }\n\n    /**\n    * @notice Allows user to mint if they have the appropriate permissions. User generally\n    * has to be some sort of centralized authority, e.g. PrimeTrust.\n    * @dev Should be access-restricted with the 'requiresPermission' modifier when implementing.\n    * @param _to The address of the receiver\n    * @param _amount The number of tokens to withdraw\n    * @return `true` if successful and `false` if unsuccessful\n    */\n    function mint(address _to, uint256 _amount) public requiresPermission returns (bool) {\n        return _mint(_to, _amount);\n    }\n    \n    function _mint(address _to, uint256 _amount) internal userWhitelisted(_to) returns (bool) {\n        balances.addTotalSupply(_amount);\n        balances.addBalance(_to, _amount);\n        emit Mint(_to, _amount);\n        emit Transfer(address(0), _to, _amount);\n        return true;\n    }\n\n    /**\n    * @notice Allows user to mint if they have the appropriate permissions. User generally\n    * is just a \"whitelisted\" user (i.e. a user registered with the fiat gateway.)\n    * @dev Should be access-restricted with the 'requiresPermission' modifier when implementing.\n    * @param _amount The number of tokens to burn\n    * @return `true` if successful and `false` if unsuccessful\n    */\n    function burn(uint256 _amount) public requiresPermission whenNotPaused {\n        _burn(msg.sender, _amount);\n    }\n\n    function _burn(address _tokensOf, uint256 _amount) internal {\n        require(_amount <= balanceOf(_tokensOf),\"not enough balance to burn\");\n        // no need to require value <= totalSupply, since that would imply the\n        // sender's balance is greater than the totalSupply, which *should* be an assertion failure\n        balances.subBalance(_tokensOf, _amount);\n        balances.subTotalSupply(_amount);\n        emit Burn(_tokensOf, _amount);\n        emit Transfer(_tokensOf, address(0), _amount);\n    }\n\n    /**\n    * @notice Implements approve() as specified in the ERC20 standard.\n    */\n    function approve(address _spender, uint256 _value) \n    public userNotBlacklisted(_spender) senderNotBlacklisted whenNotPaused returns (bool) {\n        allowances.setAllowance(msg.sender, _spender, _value);\n        emit Approval(msg.sender, _spender, _value);\n        return true;\n    }\n\n    /**\n     * @dev Increase the amount of tokens that an owner allowed to a spender.\n     *\n     * approve should be called when allowed[_spender] == 0. To increment\n     * allowed value is better to use this function to avoid 2 calls (and wait until\n     * the first transaction is mined)\n     * From MonolithDAO Token.sol\n     * @param _spender The address which will spend the funds.\n     * @param _addedValue The amount of tokens to increase the allowance by.\n     */\n    function increaseApproval(address _spender, uint _addedValue) \n    public userNotBlacklisted(_spender) senderNotBlacklisted whenNotPaused returns (bool) {\n        increaseApprovalAllArgs(_spender, _addedValue, msg.sender);\n        return true;\n    }\n\n    function increaseApprovalAllArgs(address _spender, uint256 _addedValue, address _tokenHolder) internal {\n        allowances.addAllowance(_tokenHolder, _spender, _addedValue);\n        emit Approval(_tokenHolder, _spender, allowances.allowanceOf(_tokenHolder, _spender));\n    }\n\n    /**\n     * @dev Decrease the amount of tokens that an owner allowed to a spender.\n     *\n     * approve should be called when allowed[_spender] == 0. To decrement\n     * allowed value is better to use this function to avoid 2 calls (and wait until\n     * the first transaction is mined)\n     * From MonolithDAO Token.sol\n     * @param _spender The address which will spend the funds.\n     * @param _subtractedValue The amount of tokens to decrease the allowance by.\n     */\n    function decreaseApproval(address _spender, uint _subtractedValue) \n    public userNotBlacklisted(_spender) senderNotBlacklisted whenNotPaused returns (bool) {\n        decreaseApprovalAllArgs(_spender, _subtractedValue, msg.sender);\n        return true;\n    }\n\n    function decreaseApprovalAllArgs(address _spender, uint256 _subtractedValue, address _tokenHolder) internal {\n        uint256 oldValue = allowances.allowanceOf(_tokenHolder, _spender);\n        if (_subtractedValue > oldValue) {\n            allowances.setAllowance(_tokenHolder, _spender, 0);\n        } else {\n            allowances.subAllowance(_tokenHolder, _spender, _subtractedValue);\n        }\n        emit Approval(_tokenHolder, _spender, allowances.allowanceOf(_tokenHolder, _spender));\n    }\n\n    /**\n    * @notice Destroy the tokens owned by a blacklisted account. This function can generally\n    * only be called by a central authority.\n    * @dev Should be access-restricted with the 'requiresPermission' modifier when implementing.\n    * @param _who Account to destroy tokens from. Must be a blacklisted account.\n    */\n    function destroyBlacklistedTokens(address _who, uint256 _amount) public userBlacklisted(_who) whenNotPaused requiresPermission {\n        balances.subBalance(_who, _amount);\n        balances.subTotalSupply(_amount);\n        emit DestroyedBlacklistedTokens(_who, _amount);\n    }\n    /**\n    * @notice Allows a central authority to approve themselves as a spender on a blacklisted account.\n    * By default, the allowance is set to the balance of the blacklisted account, so that the\n    * authority has full control over the account balance.\n    * @dev Should be access-restricted with the 'requiresPermission' modifier when implementing.\n    * @param _blacklistedAccount The blacklisted account.\n    */\n    function approveBlacklistedAddressSpender(address _blacklistedAccount) \n    public userBlacklisted(_blacklistedAccount) whenNotPaused requiresPermission {\n        allowances.setAllowance(_blacklistedAccount, msg.sender, balanceOf(_blacklistedAccount));\n        emit ApprovedBlacklistedAddressSpender(_blacklistedAccount, msg.sender, balanceOf(_blacklistedAccount));\n    }\n\n    /**\n    * @notice Initiates a \"send\" operation towards another user. See `transferFrom` for details.\n    * @dev When implemented, it should use the transferConditionsRequired() modifier.\n    * @param _to The address of the receiver. This user must not be blacklisted, or else the tranfer\n    * will fail.\n    * @param _amount The number of tokens to transfer\n    *\n    * @return `true` if successful and `false` if unsuccessful\n    */\n    function transfer(address _to, uint256 _amount) public transferConditionsRequired(_to) whenNotPaused returns (bool) {\n        require(_to != address(0),\"to address cannot be 0x0\");\n        require(_amount <= balanceOf(msg.sender),\"not enough balance to transfer\");\n\n        balances.subBalance(msg.sender, _amount);\n        balances.addBalance(_to, _amount);\n        emit Transfer(msg.sender, _to, _amount);\n        return true;\n    }\n\n    /**\n    * @notice Initiates a transfer operation between address `_from` and `_to`. Requires that the\n    * message sender is an approved spender on the _from account.\n    * @dev When implemented, it should use the transferFromConditionsRequired() modifier.\n    * @param _to The address of the recipient. This address must not be blacklisted.\n    * @param _from The address of the origin of funds. This address _could_ be blacklisted, because\n    * a regulator may want to transfer tokens out of a blacklisted account, for example.\n    * In order to do so, the regulator would have to add themselves as an approved spender\n    * on the account via `addBlacklistAddressSpender()`, and would then be able to transfer tokens out of it.\n    * @param _amount The number of tokens to transfer\n    * @return `true` if successful and `false` if unsuccessful\n    */\n    function transferFrom(address _from, address _to, uint256 _amount) \n    public whenNotPaused transferFromConditionsRequired(_from, _to) returns (bool) {\n        require(_amount <= allowance(_from, msg.sender),\"not enough allowance to transfer\");\n        require(_to != address(0),\"to address cannot be 0x0\");\n        require(_amount <= balanceOf(_from),\"not enough balance to transfer\");\n        \n        allowances.subAllowance(_from, msg.sender, _amount);\n        balances.addBalance(_to, _amount);\n        balances.subBalance(_from, _amount);\n        emit Transfer(_from, _to, _amount);\n        return true;\n    }\n\n    /**\n    * @notice If a user is blacklisted, they will have the permission to \n    * execute this dummy function. This function effectively acts as a marker \n    * to indicate that a user is blacklisted.\n    */\n    function blacklisted() public view requiresPermission returns (bool) {\n        return true;\n    }\n}",
  "sourcePath": "/Users/tanishqaggarwal/Documents/carbon/fiat_gateway/contracts/tokens/permissionedToken/PermissionedToken.sol",
  "compiler": {
    "name": "solc",
    "version": "0.4.24+commit.e67f0147.Emscripten.clang"
  },
  "schemaVersion": "2.0.1",
  "updatedAt": "2018-08-13T20:26:34.658Z"
}