{
  "contractName": "PermissionSheet",
  "abi": [
    {
      "constant": true,
      "inputs": [
        {
          "name": "",
          "type": "address"
        },
        {
          "name": "",
          "type": "bytes4"
        }
      ],
      "name": "hasUserPermission",
      "outputs": [
        {
          "name": "",
          "type": "bool"
        }
      ],
      "payable": false,
      "stateMutability": "view",
      "type": "function"
    },
    {
      "constant": true,
      "inputs": [
        {
          "name": "",
          "type": "bytes4"
        }
      ],
      "name": "permissions",
      "outputs": [
        {
          "name": "name",
          "type": "string"
        },
        {
          "name": "description",
          "type": "string"
        },
        {
          "name": "contract_name",
          "type": "string"
        }
      ],
      "payable": false,
      "stateMutability": "view",
      "type": "function"
    },
    {
      "constant": false,
      "inputs": [],
      "name": "claimOwnership",
      "outputs": [],
      "payable": false,
      "stateMutability": "nonpayable",
      "type": "function"
    },
    {
      "constant": true,
      "inputs": [],
      "name": "CONVERT_WT_SIG",
      "outputs": [
        {
          "name": "",
          "type": "bytes4"
        }
      ],
      "payable": false,
      "stateMutability": "view",
      "type": "function"
    },
    {
      "constant": false,
      "inputs": [],
      "name": "renounceOwnership",
      "outputs": [],
      "payable": false,
      "stateMutability": "nonpayable",
      "type": "function"
    },
    {
      "constant": true,
      "inputs": [],
      "name": "MINT_SIG",
      "outputs": [
        {
          "name": "",
          "type": "bytes4"
        }
      ],
      "payable": false,
      "stateMutability": "view",
      "type": "function"
    },
    {
      "constant": true,
      "inputs": [],
      "name": "MINT_CUSD_SIG",
      "outputs": [
        {
          "name": "",
          "type": "bytes4"
        }
      ],
      "payable": false,
      "stateMutability": "view",
      "type": "function"
    },
    {
      "constant": true,
      "inputs": [],
      "name": "owner",
      "outputs": [
        {
          "name": "",
          "type": "address"
        }
      ],
      "payable": false,
      "stateMutability": "view",
      "type": "function"
    },
    {
      "constant": true,
      "inputs": [],
      "name": "APPROVE_BLACKLISTED_ADDRESS_SPENDER_SIG",
      "outputs": [
        {
          "name": "",
          "type": "bytes4"
        }
      ],
      "payable": false,
      "stateMutability": "view",
      "type": "function"
    },
    {
      "constant": true,
      "inputs": [
        {
          "name": "",
          "type": "bytes4"
        }
      ],
      "name": "isPermission",
      "outputs": [
        {
          "name": "",
          "type": "bool"
        }
      ],
      "payable": false,
      "stateMutability": "view",
      "type": "function"
    },
    {
      "constant": true,
      "inputs": [],
      "name": "BLACKLISTED_SIG",
      "outputs": [
        {
          "name": "",
          "type": "bytes4"
        }
      ],
      "payable": false,
      "stateMutability": "view",
      "type": "function"
    },
    {
      "constant": true,
      "inputs": [],
      "name": "DESTROY_BLACKLISTED_TOKENS_SIG",
      "outputs": [
        {
          "name": "",
          "type": "bytes4"
        }
      ],
      "payable": false,
      "stateMutability": "view",
      "type": "function"
    },
    {
      "constant": true,
      "inputs": [],
      "name": "BURN_CARBON_DOLLAR_SIG",
      "outputs": [
        {
          "name": "",
          "type": "bytes4"
        }
      ],
      "payable": false,
      "stateMutability": "view",
      "type": "function"
    },
    {
      "constant": true,
      "inputs": [],
      "name": "BURN_SIG",
      "outputs": [
        {
          "name": "",
          "type": "bytes4"
        }
      ],
      "payable": false,
      "stateMutability": "view",
      "type": "function"
    },
    {
      "constant": true,
      "inputs": [],
      "name": "pendingOwner",
      "outputs": [
        {
          "name": "",
          "type": "address"
        }
      ],
      "payable": false,
      "stateMutability": "view",
      "type": "function"
    },
    {
      "constant": false,
      "inputs": [
        {
          "name": "newOwner",
          "type": "address"
        }
      ],
      "name": "transferOwnership",
      "outputs": [],
      "payable": false,
      "stateMutability": "nonpayable",
      "type": "function"
    },
    {
      "constant": true,
      "inputs": [],
      "name": "CONVERT_CARBON_DOLLAR_SIG",
      "outputs": [
        {
          "name": "",
          "type": "bytes4"
        }
      ],
      "payable": false,
      "stateMutability": "view",
      "type": "function"
    },
    {
      "anonymous": false,
      "inputs": [
        {
          "indexed": false,
          "name": "methodsignature",
          "type": "bytes4"
        }
      ],
      "name": "PermissionAdded",
      "type": "event"
    },
    {
      "anonymous": false,
      "inputs": [
        {
          "indexed": false,
          "name": "methodsignature",
          "type": "bytes4"
        }
      ],
      "name": "PermissionRemoved",
      "type": "event"
    },
    {
      "anonymous": false,
      "inputs": [
        {
          "indexed": true,
          "name": "who",
          "type": "address"
        },
        {
          "indexed": false,
          "name": "methodsignature",
          "type": "bytes4"
        }
      ],
      "name": "SetUserPermission",
      "type": "event"
    },
    {
      "anonymous": false,
      "inputs": [
        {
          "indexed": true,
          "name": "who",
          "type": "address"
        },
        {
          "indexed": false,
          "name": "methodsignature",
          "type": "bytes4"
        }
      ],
      "name": "RemovedUserPermission",
      "type": "event"
    },
    {
      "anonymous": false,
      "inputs": [
        {
          "indexed": true,
          "name": "previousOwner",
          "type": "address"
        }
      ],
      "name": "OwnershipRenounced",
      "type": "event"
    },
    {
      "anonymous": false,
      "inputs": [
        {
          "indexed": true,
          "name": "previousOwner",
          "type": "address"
        },
        {
          "indexed": true,
          "name": "newOwner",
          "type": "address"
        }
      ],
      "name": "OwnershipTransferred",
      "type": "event"
    },
    {
      "constant": false,
      "inputs": [
        {
          "name": "_methodsignature",
          "type": "bytes4"
        },
        {
          "name": "_permissionName",
          "type": "string"
        },
        {
          "name": "_permissionDescription",
          "type": "string"
        },
        {
          "name": "_contractName",
          "type": "string"
        }
      ],
      "name": "addPermission",
      "outputs": [],
      "payable": false,
      "stateMutability": "nonpayable",
      "type": "function"
    },
    {
      "constant": false,
      "inputs": [
        {
          "name": "_methodsignature",
          "type": "bytes4"
        }
      ],
      "name": "removePermission",
      "outputs": [],
      "payable": false,
      "stateMutability": "nonpayable",
      "type": "function"
    },
    {
      "constant": false,
      "inputs": [
        {
          "name": "_who",
          "type": "address"
        },
        {
          "name": "_methodsignature",
          "type": "bytes4"
        }
      ],
      "name": "setUserPermission",
      "outputs": [],
      "payable": false,
      "stateMutability": "nonpayable",
      "type": "function"
    },
    {
      "constant": false,
      "inputs": [
        {
          "name": "_who",
          "type": "address"
        },
        {
          "name": "_methodsignature",
          "type": "bytes4"
        }
      ],
      "name": "removeUserPermission",
      "outputs": [],
      "payable": false,
      "stateMutability": "nonpayable",
      "type": "function"
    }
  ],
  "bytecode": "0x608060405260008054600160a060020a0319163317905561139a806100256000396000f30060806040526004361061011c5763ffffffff7c010000000000000000000000000000000000000000000000000000000060003504166314db6d5881146101215780631c870eee14610188578063395a7b30146101dd5780634e71e0c81461035b5780635317e44414610370578063639c44cf146103c3578063715018a61461040d578063780bfed01461042257806388f14b0e1461051e5780638b7c8109146105335780638da5cb5b146105485780638f959f5414610586578063933aa6671461059b5780639491951b146105d5578063ab96cb46146105ea578063b8ccbd17146105ff578063c1c49cbb14610639578063cfbf1b901461064e578063e30c397814610663578063f2fde38b14610678578063f9d50543146106a6575b600080fd5b34801561012d57600080fd5b5061017473ffffffffffffffffffffffffffffffffffffffff600435167fffffffff00000000000000000000000000000000000000000000000000000000602435166106bb565b604080519115158252519081900360200190f35b34801561019457600080fd5b506101db73ffffffffffffffffffffffffffffffffffffffff600435167fffffffff00000000000000000000000000000000000000000000000000000000602435166106db565b005b3480156101e957600080fd5b506102177fffffffff0000000000000000000000000000000000000000000000000000000060043516610879565b60405180806020018060200180602001848103845287818151815260200191508051906020019080838360005b8381101561025c578181015183820152602001610244565b50505050905090810190601f1680156102895780820380516001836020036101000a031916815260200191505b50848103835286518152865160209182019188019080838360005b838110156102bc5781810151838201526020016102a4565b50505050905090810190601f1680156102e95780820380516001836020036101000a031916815260200191505b50848103825285518152855160209182019187019080838360005b8381101561031c578181015183820152602001610304565b50505050905090810190601f1680156103495780820380516001836020036101000a031916815260200191505b50965050505050505060405180910390f35b34801561036757600080fd5b506101db610a80565b34801561037c57600080fd5b506101db73ffffffffffffffffffffffffffffffffffffffff600435167fffffffff0000000000000000000000000000000000000000000000000000000060243516610b3a565b3480156103cf57600080fd5b506103d8610cd5565b604080517fffffffff000000000000000000000000000000000000000000000000000000009092168252519081900360200190f35b34801561041957600080fd5b506101db610d0a565b34801561042e57600080fd5b5060408051602060046024803582810135601f81018590048502860185019096528585526101db9583357fffffffff000000000000000000000000000000000000000000000000000000001695369560449491939091019190819084018382808284375050604080516020601f89358b018035918201839004830284018301909452808352979a99988101979196509182019450925082915084018382808284375050604080516020601f89358b018035918201839004830284018301909452808352979a999881019791965091820194509250829150840183828082843750949750610d9b9650505050505050565b34801561052a57600080fd5b506103d8610df3565b34801561053f57600080fd5b506103d8610e28565b34801561055457600080fd5b5061055d610e5d565b6040805173ffffffffffffffffffffffffffffffffffffffff9092168252519081900360200190f35b34801561059257600080fd5b506103d8610e79565b3480156105a757600080fd5b506101747fffffffff0000000000000000000000000000000000000000000000000000000060043516610ed4565b3480156105e157600080fd5b506103d8610ee9565b3480156105f657600080fd5b506103d8610f1e565b34801561060b57600080fd5b506101db7fffffffff0000000000000000000000000000000000000000000000000000000060043516610f79565b34801561064557600080fd5b506103d861102c565b34801561065a57600080fd5b506103d8611087565b34801561066f57600080fd5b5061055d6110bc565b34801561068457600080fd5b506101db73ffffffffffffffffffffffffffffffffffffffff600435166110d8565b3480156106b257600080fd5b506103d8611143565b600460209081526000928352604080842090915290825290205460ff1681565b60005473ffffffffffffffffffffffffffffffffffffffff1633146106ff57600080fd5b7fffffffff00000000000000000000000000000000000000000000000000000000811660009081526003602052604090205460ff1615156107c757604080517f08c379a000000000000000000000000000000000000000000000000000000000815260206004820152603960248201527f5065726d697373696f6e206265696e6720736574206d75737420626520666f7260448201527f20612076616c6964206d6574686f64207369676e617475726500000000000000606482015290519081900360840190fd5b73ffffffffffffffffffffffffffffffffffffffff821660008181526004602090815260408083207fffffffff0000000000000000000000000000000000000000000000000000000086168085529083529281902080547fffffffffffffffffffffffffffffffffffffffffffffffffffffffffffffff001660011790558051928352517f190688d3ad83a240fa6749f3d9eda5b51877cc1f53d8d408f57f77d81c6c410e9281900390910190a25050565b600260208181526000928352604092839020805484516001821615610100027fffffffffffffffffffffffffffffffffffffffffffffffffffffffffffffffff0190911693909304601f81018390048302840183019094528383529283918301828280156109285780601f106108fd57610100808354040283529160200191610928565b820191906000526020600020905b81548152906001019060200180831161090b57829003601f168201915b505050505090806001018054600181600116156101000203166002900480601f0160208091040260200160405190810160405280929190818152602001828054600181600116156101000203166002900480156109c65780601f1061099b576101008083540402835291602001916109c6565b820191906000526020600020905b8154815290600101906020018083116109a957829003601f168201915b50505060028085018054604080516020601f7fffffffffffffffffffffffffffffffffffffffffffffffffffffffffffffffff6101006001871615020190941695909504928301859004850281018501909152818152959695945090925090830182828015610a765780601f10610a4b57610100808354040283529160200191610a76565b820191906000526020600020905b815481529060010190602001808311610a5957829003601f168201915b5050505050905083565b60015473ffffffffffffffffffffffffffffffffffffffff163314610aa457600080fd5b6001546000805460405173ffffffffffffffffffffffffffffffffffffffff93841693909116917f8be0079c531659141344cd1fd0a4f28419497f9722a3daafe3b4186f6b6457e091a360018054600080547fffffffffffffffffffffffff000000000000000000000000000000000000000090811673ffffffffffffffffffffffffffffffffffffffff841617909155169055565b60005473ffffffffffffffffffffffffffffffffffffffff163314610b5e57600080fd5b7fffffffff00000000000000000000000000000000000000000000000000000000811660009081526003602052604090205460ff161515610c2657604080517f08c379a000000000000000000000000000000000000000000000000000000000815260206004820152603d60248201527f5065726d697373696f6e206265696e672072656d6f766564206d75737420626560448201527f20666f7220612076616c6964206d6574686f64207369676e6174757265000000606482015290519081900360840190fd5b73ffffffffffffffffffffffffffffffffffffffff821660008181526004602090815260408083207fffffffff0000000000000000000000000000000000000000000000000000000086168085529083529281902080547fffffffffffffffffffffffffffffffffffffffffffffffffffffffffffffff001690558051928352517ff588bf9ea415beafc66d76db54e249a45b8d7a572f47bb36f48591aa560c549b9281900390910190a25050565b604080517f636f6e7665727457542875696e743235362900000000000000000000000000008152905190819003601201902081565b60005473ffffffffffffffffffffffffffffffffffffffff163314610d2e57600080fd5b6000805460405173ffffffffffffffffffffffffffffffffffffffff909116917ff8df31144d9c2f0f6b59d69b8b98abd5459d07f2742c4df920b25aae33c6482091a2600080547fffffffffffffffffffffffff0000000000000000000000000000000000000000169055565b610da36112b1565b60005473ffffffffffffffffffffffffffffffffffffffff163314610dc757600080fd5b506040805160608101825284815260208101849052908101829052610dec858261119e565b5050505050565b604080517f6d696e7428616464726573732c75696e743235362900000000000000000000008152905190819003601501902081565b604080517f6d696e744355534428616464726573732c75696e7432353629000000000000008152905190819003601901902081565b60005473ffffffffffffffffffffffffffffffffffffffff1681565b604080517f617070726f7665426c61636b6c6973746564416464726573735370656e64657281527f28616464726573732900000000000000000000000000000000000000000000006020820152905190819003602901902081565b60036020526000908152604090205460ff1681565b604080517f626c61636b6c69737465642829000000000000000000000000000000000000008152905190819003600d01902081565b604080517f64657374726f79426c61636b6c6973746564546f6b656e73286164647265737381527f2c75696e743235362900000000000000000000000000000000000000000000006020820152905190819003602901902081565b60005473ffffffffffffffffffffffffffffffffffffffff163314610f9d57600080fd5b7fffffffff00000000000000000000000000000000000000000000000000000000811660008181526003602090815260409182902080547fffffffffffffffffffffffffffffffffffffffffffffffffffffffffffffff00169055815192835290517f65cd5526557cbd93f0739d00ffcdf8f4a663eb2ed509203d884b3470158724c19281900390910190a150565b604080517f6275726e436172626f6e446f6c6c617228616464726573732c75696e7432353681527f29000000000000000000000000000000000000000000000000000000000000006020820152905190819003602101902081565b604080517f6275726e2875696e7432353629000000000000000000000000000000000000008152905190819003600d01902081565b60015473ffffffffffffffffffffffffffffffffffffffff1681565b60005473ffffffffffffffffffffffffffffffffffffffff1633146110fc57600080fd5b600180547fffffffffffffffffffffffff00000000000000000000000000000000000000001673ffffffffffffffffffffffffffffffffffffffff92909216919091179055565b604080517f636f6e76657274436172626f6e446f6c6c617228616464726573732c75696e7481527f32353629000000000000000000000000000000000000000000000000000000006020820152905190819003602401902081565b7fffffffff00000000000000000000000000000000000000000000000000000000821660009081526002602090815260409091208251805184936111e69284929101906112d3565b5060208281015180516111ff92600185019201906112d3565b506040820151805161121b9160028401916020909101906112d3565b5050507fffffffff00000000000000000000000000000000000000000000000000000000821660008181526003602090815260409182902080547fffffffffffffffffffffffffffffffffffffffffffffffffffffffffffffff00166001179055815192835290517f6195913f4ea9fc2f5193c9f6763975b23790b3be094b1eb18f318437390055129281900390910190a15050565b6060604051908101604052806060815260200160608152602001606081525090565b828054600181600116156101000203166002900490600052602060002090601f016020900481019282601f1061131457805160ff1916838001178555611341565b82800160010185558215611341579182015b82811115611341578251825591602001919060010190611326565b5061134d929150611351565b5090565b61136b91905b8082111561134d5760008155600101611357565b905600a165627a7a7230582045412be6fba046ca9615c729670204ecc178015249cc9714944af509c89df6c30029",
  "source": "pragma solidity ^0.4.24;\r\n\r\nimport \"openzeppelin-solidity/contracts/ownership/Claimable.sol\";\r\n\r\n/**\r\n * @title PermissionSheet\r\n * @dev Stores all of the possible token-level permissions that a user can have access to. For example,\r\n * a user can potentially burn or mint a token. Also maps the permissions\r\n * to each user.\r\n *\r\n */\r\n\r\ncontract PermissionSheet is Claimable {\r\n\t\r\n    /** \r\n        Mappings \r\n    */\r\n\r\n    /* method signature => Permission struct containing details about that permission */\r\n    mapping (bytes4 => Permission) public permissions;\r\n    /* method signature => is this signature currently used as a permission? */\r\n    mapping (bytes4 => bool) public isPermission;\r\n    /* (user address => (methodsignature => does user have permission to execute it?)) */\r\n    mapping (address => mapping(bytes4 => bool)) public hasUserPermission;\r\n\r\n    /** \r\n        Structs \r\n    */\r\n\r\n    /* Contains metadata about a permission to execute a particular method signature. */\r\n    struct Permission {\r\n        string name; // A one-word description for the permission. e.g. \"canMint\"\r\n        string description; // A longer description for the permission. e.g. \"Allows user to mint tokens.\"\r\n        string contract_name; // e.g. \"PermissionedToken\"\r\n    }\r\n\r\n    /** \r\n        Events \r\n    */\r\n    event PermissionAdded(bytes4 methodsignature);\r\n    event PermissionRemoved(bytes4 methodsignature);\r\n    event SetUserPermission(address indexed who, bytes4 methodsignature);\r\n    event RemovedUserPermission(address indexed who, bytes4 methodsignature);\r\n\r\n    /** \r\n        Constants: stores method signatures. These are potential permissions that a user can have, \r\n        and each permission gives the user the ability to call the associated PermissionedToken method signature\r\n    */\r\n    bytes4 public constant MINT_SIG = bytes4(keccak256(\"mint(address,uint256)\"));\r\n    bytes4 public constant MINT_CUSD_SIG = bytes4(keccak256(\"mintCUSD(address,uint256)\"));\r\n    bytes4 public constant CONVERT_WT_SIG = bytes4(keccak256(\"convertWT(uint256)\"));\r\n    bytes4 public constant BURN_SIG = bytes4(keccak256(\"burn(uint256)\"));\r\n    bytes4 public constant CONVERT_CARBON_DOLLAR_SIG = bytes4(keccak256(\"convertCarbonDollar(address,uint256)\"));\r\n    bytes4 public constant BURN_CARBON_DOLLAR_SIG = bytes4(keccak256(\"burnCarbonDollar(address,uint256)\"));\r\n    bytes4 public constant DESTROY_BLACKLISTED_TOKENS_SIG = bytes4(keccak256(\"destroyBlacklistedTokens(address,uint256)\"));\r\n    bytes4 public constant APPROVE_BLACKLISTED_ADDRESS_SPENDER_SIG = bytes4(keccak256(\"approveBlacklistedAddressSpender(address)\"));\r\n    bytes4 public constant BLACKLISTED_SIG = bytes4(keccak256(\"blacklisted()\"));\r\n\r\n    /**\r\n    * @notice Sets a permission within the list of permissions.\r\n    * @param _methodsignature Signature of the method that this permission controls.\r\n    * @param _permissionName A \"slug\" name for this permission (e.g. \"canMint\").\r\n    * @param _permissionDescription A lengthier description for this permission (e.g. \"Allows user to mint tokens\").\r\n    * @param _contractName Name of the contract that the method belongs to.\r\n    */\r\n    function addPermission(\r\n        bytes4 _methodsignature, \r\n        string _permissionName, \r\n        string _permissionDescription, \r\n        string _contractName) public onlyOwner { \r\n        Permission memory p = Permission(_permissionName, _permissionDescription, _contractName);\r\n        _addPermission(_methodsignature, p);\r\n    }\r\n\r\n     /**\r\n    * @notice Sets a permission within the list of permissions.\r\n    * @param _methodsignature Signature of the method that this permission controls.\r\n    * @param _permission A struct containing permission information.\r\n    */\r\n    function _addPermission(bytes4 _methodsignature, Permission _permission) internal {\r\n        permissions[_methodsignature] = _permission;\r\n        isPermission[_methodsignature] = true;\r\n        emit PermissionAdded(_methodsignature);\r\n\r\n    }\r\n\r\n    /**\r\n    * @notice Removes a permission the list of permissions.\r\n    * @param _methodsignature Signature of the method that this permission controls.\r\n    */\r\n    function removePermission(bytes4 _methodsignature) public onlyOwner {\r\n        isPermission[_methodsignature] = false;\r\n        emit PermissionRemoved(_methodsignature);\r\n    }\r\n    \r\n    /**\r\n    * @notice Sets a permission in the list of permissions that a user has.\r\n    * @param _methodsignature Signature of the method that this permission controls.\r\n    */\r\n    function setUserPermission(address _who, bytes4 _methodsignature) public onlyOwner {\r\n        require(isPermission[_methodsignature], \"Permission being set must be for a valid method signature\");\r\n        hasUserPermission[_who][_methodsignature] = true;\r\n        emit SetUserPermission(_who, _methodsignature);\r\n    }\r\n\r\n    /**\r\n    * @notice Removes a permission from the list of permissions that a user has.\r\n    * @param _methodsignature Signature of the method that this permission controls.\r\n    */\r\n    function removeUserPermission(address _who, bytes4 _methodsignature) public onlyOwner {\r\n        require(isPermission[_methodsignature], \"Permission being removed must be for a valid method signature\");\r\n        hasUserPermission[_who][_methodsignature] = false;\r\n        emit RemovedUserPermission(_who, _methodsignature);\r\n    }\r\n}",
  "sourcePath": "C:\\Users\\npain\\Projects\\Carbon\\fiat_gateway\\contracts\\regulator\\dataStorage\\PermissionSheet.sol",
  "compiler": {
    "name": "solc",
    "version": "0.4.24+commit.e67f0147.Emscripten.clang"
  },
  "schemaVersion": "2.0.1",
  "updatedAt": "2018-08-17T20:11:37.916Z"
}