{
  "contractName": "PermissionedTokenStorage",
  "abi": [
    {
      "constant": true,
      "inputs": [],
      "name": "allowances",
      "outputs": [
        {
          "name": "",
          "type": "address"
        }
      ],
      "payable": false,
      "stateMutability": "view",
      "type": "function"
    },
    {
      "constant": true,
      "inputs": [],
      "name": "balances",
      "outputs": [
        {
          "name": "",
          "type": "address"
        }
      ],
      "payable": false,
      "stateMutability": "view",
      "type": "function"
    },
    {
      "constant": true,
      "inputs": [],
      "name": "regulator",
      "outputs": [
        {
          "name": "",
          "type": "address"
        }
      ],
      "payable": false,
      "stateMutability": "view",
      "type": "function"
    },
    {
      "inputs": [
        {
          "name": "_regulator",
          "type": "address"
        },
        {
          "name": "_balances",
          "type": "address"
        },
        {
          "name": "_allowances",
          "type": "address"
        }
      ],
      "payable": false,
      "stateMutability": "nonpayable",
      "type": "constructor"
    }
  ],
  "bytecode": "0x608060405234801561001057600080fd5b506040516060806101c183398101604090815281516020830151919092015160008054600160a060020a0319908116600160a060020a0395861617825560018054821694861694909417909355600280549093169390911692909217905561014390819061007e90396000f3006080604052600436106100565763ffffffff7c01000000000000000000000000000000000000000000000000000000006000350416633ed10b92811461005b5780637bb98a6814610099578063dd8fee14146100ae575b600080fd5b34801561006757600080fd5b506100706100c3565b6040805173ffffffffffffffffffffffffffffffffffffffff9092168252519081900360200190f35b3480156100a557600080fd5b506100706100df565b3480156100ba57600080fd5b506100706100fb565b60025473ffffffffffffffffffffffffffffffffffffffff1681565b60015473ffffffffffffffffffffffffffffffffffffffff1681565b60005473ffffffffffffffffffffffffffffffffffffffff16815600a165627a7a723058207dd48c3cdb7b77bbccc20c93dbfc8af44a33d7df12067b5c0d4ef0c670c0b4b90029",
  "source": "pragma solidity ^0.4.24;\r\n\r\nimport \"./AllowanceSheet.sol\";\r\nimport \"./BalanceSheet.sol\";\r\nimport \"../../../regulator/Regulator.sol\";\r\n\r\n/**\r\n* @title PermissionedTokenStorage\r\n* @notice a PermissionedTokenStorage is constructed by setting Regulator, BalanceSheet, and AllowanceSheet locations.\r\n* Once the storages are set, they cannot be changed.\r\n*/\r\ncontract PermissionedTokenStorage {\r\n    /**\r\n        Storage\r\n    */\r\n    Regulator public regulator;\r\n    BalanceSheet public balances;\r\n    AllowanceSheet public allowances;\r\n\r\n    /**\r\n    * @dev a PermissionedTokenStorageConsumer can set its storages only once, on construction\r\n    *\r\n    **/\r\n    constructor (address _regulator, address _balances, address _allowances) public {\r\n        regulator = Regulator(_regulator);\r\n        balances = BalanceSheet(_balances);\r\n        allowances = AllowanceSheet(_allowances);\r\n    }\r\n}",
  "sourcePath": "C:\\Users\\npain\\Projects\\Carbon\\fiat_gateway\\contracts\\tokens\\permissionedToken\\dataStorage\\PermissionedTokenStorage.sol",
  "compiler": {
    "name": "solc",
    "version": "0.4.24+commit.e67f0147.Emscripten.clang"
  },
  "schemaVersion": "2.0.1",
  "updatedAt": "2018-08-17T17:50:39.529Z"
}