{
  "contractName": "PermissionedToken",
  "abi": [
    {
      "constant": false,
      "inputs": [],
      "name": "unpause",
      "outputs": [],
      "payable": false,
      "stateMutability": "nonpayable",
      "type": "function"
    },
    {
      "constant": false,
      "inputs": [],
      "name": "claimOwnership",
      "outputs": [],
      "payable": false,
      "stateMutability": "nonpayable",
      "type": "function"
    },
    {
      "constant": true,
      "inputs": [],
      "name": "paused",
      "outputs": [
        {
          "name": "",
          "type": "bool"
        }
      ],
      "payable": false,
      "stateMutability": "view",
      "type": "function"
    },
    {
      "constant": false,
      "inputs": [],
      "name": "pause",
      "outputs": [],
      "payable": false,
      "stateMutability": "nonpayable",
      "type": "function"
    },
    {
      "constant": true,
      "inputs": [],
      "name": "isMethodEnabled",
      "outputs": [
        {
          "name": "",
          "type": "bool"
        }
      ],
      "payable": false,
      "stateMutability": "view",
      "type": "function"
    },
    {
      "constant": true,
      "inputs": [],
      "name": "owner",
      "outputs": [
        {
          "name": "",
          "type": "address"
        }
      ],
      "payable": false,
      "stateMutability": "view",
      "type": "function"
    },
    {
      "constant": false,
      "inputs": [],
      "name": "unlock",
      "outputs": [],
      "payable": false,
      "stateMutability": "nonpayable",
      "type": "function"
    },
    {
      "constant": true,
      "inputs": [],
      "name": "tokenStorage",
      "outputs": [
        {
          "name": "",
          "type": "address"
        }
      ],
      "payable": false,
      "stateMutability": "view",
      "type": "function"
    },
    {
      "constant": true,
      "inputs": [],
      "name": "regulator",
      "outputs": [
        {
          "name": "",
          "type": "address"
        }
      ],
      "payable": false,
      "stateMutability": "view",
      "type": "function"
    },
    {
      "constant": true,
      "inputs": [],
      "name": "pendingOwner",
      "outputs": [
        {
          "name": "",
          "type": "address"
        }
      ],
      "payable": false,
      "stateMutability": "view",
      "type": "function"
    },
    {
      "constant": false,
      "inputs": [
        {
          "name": "_newOwner",
          "type": "address"
        }
      ],
      "name": "transferOwnership",
      "outputs": [],
      "payable": false,
      "stateMutability": "nonpayable",
      "type": "function"
    },
    {
      "constant": false,
      "inputs": [],
      "name": "lock",
      "outputs": [],
      "payable": false,
      "stateMutability": "nonpayable",
      "type": "function"
    },
    {
      "inputs": [
        {
          "name": "_regulator",
          "type": "address"
        }
      ],
      "payable": false,
      "stateMutability": "nonpayable",
      "type": "constructor"
    },
    {
      "anonymous": false,
      "inputs": [
        {
          "indexed": true,
          "name": "account",
          "type": "address"
        },
        {
          "indexed": false,
          "name": "amount",
          "type": "uint256"
        }
      ],
      "name": "DestroyedBlacklistedTokens",
      "type": "event"
    },
    {
      "anonymous": false,
      "inputs": [
        {
          "indexed": true,
          "name": "owner",
          "type": "address"
        },
        {
          "indexed": true,
          "name": "spender",
          "type": "address"
        },
        {
          "indexed": false,
          "name": "value",
          "type": "uint256"
        }
      ],
      "name": "ApprovedBlacklistedAddressSpender",
      "type": "event"
    },
    {
      "anonymous": false,
      "inputs": [
        {
          "indexed": true,
          "name": "to",
          "type": "address"
        },
        {
          "indexed": false,
          "name": "value",
          "type": "uint256"
        }
      ],
      "name": "Mint",
      "type": "event"
    },
    {
      "anonymous": false,
      "inputs": [
        {
          "indexed": true,
          "name": "burner",
          "type": "address"
        },
        {
          "indexed": false,
          "name": "value",
          "type": "uint256"
        }
      ],
      "name": "Burn",
      "type": "event"
    },
    {
      "anonymous": false,
      "inputs": [
        {
          "indexed": true,
          "name": "from",
          "type": "address"
        },
        {
          "indexed": true,
          "name": "to",
          "type": "address"
        },
        {
          "indexed": false,
          "name": "value",
          "type": "uint256"
        }
      ],
      "name": "Transfer",
      "type": "event"
    },
    {
      "anonymous": false,
      "inputs": [
        {
          "indexed": true,
          "name": "owner",
          "type": "address"
        },
        {
          "indexed": true,
          "name": "spender",
          "type": "address"
        },
        {
          "indexed": false,
          "name": "value",
          "type": "uint256"
        }
      ],
      "name": "Approval",
      "type": "event"
    },
    {
      "anonymous": false,
      "inputs": [
        {
          "indexed": true,
          "name": "oldRegulator",
          "type": "address"
        },
        {
          "indexed": true,
          "name": "newRegulator",
          "type": "address"
        }
      ],
      "name": "ChangedRegulator",
      "type": "event"
    },
    {
      "anonymous": false,
      "inputs": [],
      "name": "Unlocked",
      "type": "event"
    },
    {
      "anonymous": false,
      "inputs": [],
      "name": "Locked",
      "type": "event"
    },
    {
      "anonymous": false,
      "inputs": [],
      "name": "Pause",
      "type": "event"
    },
    {
      "anonymous": false,
      "inputs": [],
      "name": "Unpause",
      "type": "event"
    },
    {
      "anonymous": false,
      "inputs": [
        {
          "indexed": true,
          "name": "previousOwner",
          "type": "address"
        },
        {
          "indexed": true,
          "name": "newOwner",
          "type": "address"
        }
      ],
      "name": "OwnershipTransferred",
      "type": "event"
    },
    {
      "constant": false,
      "inputs": [
        {
          "name": "_to",
          "type": "address"
        },
        {
          "name": "_amount",
          "type": "uint256"
        }
      ],
      "name": "mint",
      "outputs": [],
      "payable": false,
      "stateMutability": "nonpayable",
      "type": "function"
    },
    {
      "constant": false,
      "inputs": [
        {
          "name": "_amount",
          "type": "uint256"
        }
      ],
      "name": "burn",
      "outputs": [],
      "payable": false,
      "stateMutability": "nonpayable",
      "type": "function"
    },
    {
      "constant": false,
      "inputs": [
        {
          "name": "_spender",
          "type": "address"
        },
        {
          "name": "_value",
          "type": "uint256"
        }
      ],
      "name": "approve",
      "outputs": [
        {
          "name": "",
          "type": "bool"
        }
      ],
      "payable": false,
      "stateMutability": "nonpayable",
      "type": "function"
    },
    {
      "constant": false,
      "inputs": [
        {
          "name": "_spender",
          "type": "address"
        },
        {
          "name": "_addedValue",
          "type": "uint256"
        }
      ],
      "name": "increaseApproval",
      "outputs": [
        {
          "name": "",
          "type": "bool"
        }
      ],
      "payable": false,
      "stateMutability": "nonpayable",
      "type": "function"
    },
    {
      "constant": false,
      "inputs": [
        {
          "name": "_spender",
          "type": "address"
        },
        {
          "name": "_subtractedValue",
          "type": "uint256"
        }
      ],
      "name": "decreaseApproval",
      "outputs": [
        {
          "name": "",
          "type": "bool"
        }
      ],
      "payable": false,
      "stateMutability": "nonpayable",
      "type": "function"
    },
    {
      "constant": false,
      "inputs": [
        {
          "name": "_who",
          "type": "address"
        },
        {
          "name": "_amount",
          "type": "uint256"
        }
      ],
      "name": "destroyBlacklistedTokens",
      "outputs": [],
      "payable": false,
      "stateMutability": "nonpayable",
      "type": "function"
    },
    {
      "constant": false,
      "inputs": [
        {
          "name": "_blacklistedAccount",
          "type": "address"
        }
      ],
      "name": "approveBlacklistedAddressSpender",
      "outputs": [],
      "payable": false,
      "stateMutability": "nonpayable",
      "type": "function"
    },
    {
      "constant": false,
      "inputs": [
        {
          "name": "_to",
          "type": "address"
        },
        {
          "name": "_amount",
          "type": "uint256"
        }
      ],
      "name": "transfer",
      "outputs": [
        {
          "name": "",
          "type": "bool"
        }
      ],
      "payable": false,
      "stateMutability": "nonpayable",
      "type": "function"
    },
    {
      "constant": false,
      "inputs": [
        {
          "name": "_from",
          "type": "address"
        },
        {
          "name": "_to",
          "type": "address"
        },
        {
          "name": "_amount",
          "type": "uint256"
        }
      ],
      "name": "transferFrom",
      "outputs": [
        {
          "name": "",
          "type": "bool"
        }
      ],
      "payable": false,
      "stateMutability": "nonpayable",
      "type": "function"
    },
    {
      "constant": false,
      "inputs": [
        {
          "name": "_newRegulator",
          "type": "address"
        }
      ],
      "name": "setRegulator",
      "outputs": [],
      "payable": false,
      "stateMutability": "nonpayable",
      "type": "function"
    },
    {
      "constant": true,
      "inputs": [],
      "name": "blacklisted",
      "outputs": [
        {
          "name": "",
          "type": "bool"
        }
      ],
      "payable": false,
      "stateMutability": "view",
      "type": "function"
    },
    {
      "constant": true,
      "inputs": [
        {
          "name": "owner",
          "type": "address"
        },
        {
          "name": "spender",
          "type": "address"
        }
      ],
      "name": "allowance",
      "outputs": [
        {
          "name": "",
          "type": "uint256"
        }
      ],
      "payable": false,
      "stateMutability": "view",
      "type": "function"
    },
    {
      "constant": true,
      "inputs": [],
      "name": "totalSupply",
      "outputs": [
        {
          "name": "",
          "type": "uint256"
        }
      ],
      "payable": false,
      "stateMutability": "view",
      "type": "function"
    },
    {
      "constant": true,
      "inputs": [
        {
          "name": "_addr",
          "type": "address"
        }
      ],
      "name": "balanceOf",
      "outputs": [
        {
          "name": "",
          "type": "uint256"
        }
      ],
      "payable": false,
      "stateMutability": "view",
      "type": "function"
    }
  ],
  "bytecode": "0x60806040526001805460a060020a61ffff02191690553480156200002257600080fd5b506040516020806200301083398101604052516000805433600160a060020a031991821617909155600180548216905560038054909116600160a060020a03831617905562000070620000b5565b604051809103906000f0801580156200008d573d6000803e3d6000fd5b5060028054600160a060020a031916600160a060020a039290921691909117905550620000c6565b60405161071880620028f883390190565b61282280620000d66000396000f3006080604052600436106101535763ffffffff7c0100000000000000000000000000000000000000000000000000000000600035041663095ea7b3811461015857806318160ddd1461019057806323b872dd146101b75780633f4ba83a146101e157806340c10f19146101f857806342966c681461021c5780634e71e0c8146102345780635bae9ce9146102495780635c975abb1461025e5780636618846314610273578063662f94c01461029757806370a08231146102b85780638456cb59146102d957806388fa2617146102ee5780638da5cb5b14610303578063a69df4b514610334578063a9059cbb14610349578063b199efb51461036d578063c534ba4b14610382578063cde0a4f8146103a6578063d73dd623146103c7578063dd62ed3e146103eb578063dd8fee1414610412578063e30c397814610427578063f2fde38b1461043c578063f83d08ba1461045d575b600080fd5b34801561016457600080fd5b5061017c600160a060020a0360043516602435610472565b604080519115158252519081900360200190f35b34801561019c57600080fd5b506101a561070d565b60408051918252519081900360200190f35b3480156101c357600080fd5b5061017c600160a060020a036004358116906024351660443561079d565b3480156101ed57600080fd5b506101f6610b59565b005b34801561020457600080fd5b506101f6600160a060020a0360043516602435610bd1565b34801561022857600080fd5b506101f6600435610da3565b34801561024057600080fd5b506101f6610e89565b34801561025557600080fd5b5061017c610f11565b34801561026a57600080fd5b5061017c610ffd565b34801561027f57600080fd5b5061017c600160a060020a036004351660243561100d565b3480156102a357600080fd5b506101f6600160a060020a03600435166111bd565b3480156102c457600080fd5b506101a5600160a060020a036004351661147e565b3480156102e557600080fd5b506101f661151b565b3480156102fa57600080fd5b5061017c611598565b34801561030f57600080fd5b506103186115ba565b60408051600160a060020a039092168252519081900360200190f35b34801561034057600080fd5b506101f66115c9565b34801561035557600080fd5b5061017c600160a060020a0360043516602435611642565b34801561037957600080fd5b506103186117e7565b34801561038e57600080fd5b506101f6600160a060020a03600435166024356117f6565b3480156103b257600080fd5b506101f6600160a060020a0360043516611b14565b3480156103d357600080fd5b5061017c600160a060020a0360043516602435611c77565b3480156103f757600080fd5b506101a5600160a060020a0360043581169060243516611e1c565b34801561041e57600080fd5b50610318611ec2565b34801561043357600080fd5b50610318611ed1565b34801561044857600080fd5b506101f6600160a060020a0360043516611ee0565b34801561046957600080fd5b506101f6611f3b565b6003546040805160e060020a637ccce851028152600160a060020a038086166004830152915160009386931691637ccce85191602480830192602092919082900301818887803b1580156104c557600080fd5b505af11580156104d9573d6000803e3d6000fd5b505050506040513d60208110156104ef57600080fd5b505115610534576040805160e560020a62461bcd02815260206004820152601c60248201526000805160206127d7833981519152604482015290519081900360640190fd5b6003546040805160e060020a637ccce851028152336004820181905291519192600160a060020a031691637ccce851916024808201926020929091908290030181600087803b15801561058657600080fd5b505af115801561059a573d6000803e3d6000fd5b505050506040513d60208110156105b057600080fd5b5051156105f5576040805160e560020a62461bcd02815260206004820152601c60248201526000805160206127d7833981519152604482015290519081900360640190fd5b60015460a060020a900460ff161561060c57600080fd5b6001547501000000000000000000000000000000000000000000900460ff16151561063657600080fd5b600254604080517fda46098c000000000000000000000000000000000000000000000000000000008152336004820152600160a060020a038881166024830152604482018890529151919092169163da46098c91606480830192600092919082900301818387803b1580156106aa57600080fd5b505af11580156106be573d6000803e3d6000fd5b5050604080518781529051600160a060020a03891693503392507f8c5be1e5ebec7d5bd14f71427d1e84f3dd0314c0f7b2291e5b200ac8c7c3b9259181900360200190a3506001949350505050565b600254604080517f18160ddd0000000000000000000000000000000000000000000000000000000081529051600092600160a060020a0316916318160ddd91600480830192602092919082900301818787803b15801561076c57600080fd5b505af1158015610780573d6000803e3d6000fd5b505050506040513d602081101561079657600080fd5b5051905090565b60015460009060a060020a900460ff16156107b757600080fd5b6003546040805160e060020a637ccce851028152600160a060020a03808716600483015291518793879360009384939190921691637ccce85191602480830192602092919082900301818787803b15801561081157600080fd5b505af1158015610825573d6000803e3d6000fd5b505050506040513d602081101561083b57600080fd5b505115610892576040805160e560020a62461bcd02815260206004820152601f60248201527f526563697069656e742063616e6e6f7420626520626c61636b6c697374656400604482015290519081900360640190fd5b6003546040805160e060020a637ccce851028152600160a060020a03878116600483015291519190921691637ccce8519160248083019260209291908290030181600087803b1580156108e457600080fd5b505af11580156108f8573d6000803e3d6000fd5b505050506040513d602081101561090e57600080fd5b5051600354604080517f91c4529f0000000000000000000000000000000000000000000000000000000081523360048201529051929450600160a060020a03909116916391c4529f916024808201926020929091908290030181600087803b15801561097957600080fd5b505af115801561098d573d6000803e3d6000fd5b505050506040513d60208110156109a357600080fd5b505190508115806109b15750805b1515610a53576040805160e560020a62461bcd02815260206004820152604c60248201527f4f726967696e2063616e6e6f7420626520626c61636b6c69737465642069662060448201527f7370656e646572206973206e6f7420616e20617070726f76656420626c61636b60648201527f6c697374207370656e6465720000000000000000000000000000000000000000608482015290519081900360a40190fd5b610a5d8833611e1c565b861115610ab4576040805160e560020a62461bcd02815260206004820181905260248201527f6e6f7420656e6f75676820616c6c6f77616e636520746f207472616e73666572604482015290519081900360640190fd5b610abf878988611f9c565b600254604080517f97d88cd2000000000000000000000000000000000000000000000000000000008152600160a060020a038b81166004830152336024830152604482018a9052915191909216916397d88cd291606480830192600092919082900301818387803b158015610b3357600080fd5b505af1158015610b47573d6000803e3d6000fd5b5060019b9a5050505050505050505050565b600054600160a060020a03163314610b7057600080fd5b60015460a060020a900460ff161515610b8857600080fd5b6001805474ff0000000000000000000000000000000000000000191690556040517f7805862f689e2f13df9f062ff482ad3ad112aca9e0847911ed832e158c525b3390600090a1565b6003546040805160e060020a637ccce851028152600160a060020a038086166004830152915185939290921691637ccce851916024808201926020929091908290030181600087803b158015610c2657600080fd5b505af1158015610c3a573d6000803e3d6000fd5b505050506040513d6020811015610c5057600080fd5b505115610c95576040805160e560020a62461bcd02815260206004820152601c60248201526000805160206127d7833981519152604482015290519081900360640190fd5b6003546040805160e360020a63029b6dab02815233600482015260008035600160e060020a03191660248301529151600160a060020a03909316926314db6d5892604480840193602093929083900390910190829087803b158015610cf957600080fd5b505af1158015610d0d573d6000803e3d6000fd5b505050506040513d6020811015610d2357600080fd5b50511515610d7d576040805160e560020a62461bcd02815260206004820152603160248201526000805160206127b78339815191526044820152600080516020612797833981519152606482015290519081900360840190fd5b60015460a060020a900460ff1615610d9457600080fd5b610d9e83836121af565b505050565b6003546040805160e060020a637ccce851028152336004820181905291519192600160a060020a031691637ccce851916024808201926020929091908290030181600087803b158015610df557600080fd5b505af1158015610e09573d6000803e3d6000fd5b505050506040513d6020811015610e1f57600080fd5b505115610e64576040805160e560020a62461bcd02815260206004820152601c60248201526000805160206127d7833981519152604482015290519081900360640190fd5b60015460a060020a900460ff1615610e7b57600080fd5b610e853383612337565b5050565b600154600160a060020a03163314610ea057600080fd5b60015460008054604051600160a060020a0393841693909116917f8be0079c531659141344cd1fd0a4f28419497f9722a3daafe3b4186f6b6457e091a3600180546000805473ffffffffffffffffffffffffffffffffffffffff19908116600160a060020a03841617909155169055565b6003546040805160e360020a63029b6dab02815233600482015260008035600160e060020a031916602483015291519192600160a060020a0316916314db6d589160448082019260209290919082900301818787803b158015610f7357600080fd5b505af1158015610f87573d6000803e3d6000fd5b505050506040513d6020811015610f9d57600080fd5b50511515610ff7576040805160e560020a62461bcd02815260206004820152603160248201526000805160206127b78339815191526044820152600080516020612797833981519152606482015290519081900360840190fd5b50600190565b60015460a060020a900460ff1681565b6003546040805160e060020a637ccce851028152600160a060020a038086166004830152915160009386931691637ccce85191602480830192602092919082900301818887803b15801561106057600080fd5b505af1158015611074573d6000803e3d6000fd5b505050506040513d602081101561108a57600080fd5b5051156110cf576040805160e560020a62461bcd02815260206004820152601c60248201526000805160206127d7833981519152604482015290519081900360640190fd5b6003546040805160e060020a637ccce851028152336004820181905291519192600160a060020a031691637ccce851916024808201926020929091908290030181600087803b15801561112157600080fd5b505af1158015611135573d6000803e3d6000fd5b505050506040513d602081101561114b57600080fd5b505115611190576040805160e560020a62461bcd02815260206004820152601c60248201526000805160206127d7833981519152604482015290519081900360640190fd5b60015460a060020a900460ff16156111a757600080fd5b6111b285853361251f565b506001949350505050565b6003546040805160e060020a637ccce851028152600160a060020a038085166004830152915184939290921691637ccce851916024808201926020929091908290030181600087803b15801561121257600080fd5b505af1158015611226573d6000803e3d6000fd5b505050506040513d602081101561123c57600080fd5b50511515611294576040805160e560020a62461bcd02815260206004820152601860248201527f55736572206d75737420626520626c61636b6c69737465640000000000000000604482015290519081900360640190fd5b60015460a060020a900460ff16156112ab57600080fd5b6003546040805160e360020a63029b6dab02815233600482015260008035600160e060020a03191660248301529151600160a060020a03909316926314db6d5892604480840193602093929083900390910190829087803b15801561130f57600080fd5b505af1158015611323573d6000803e3d6000fd5b505050506040513d602081101561133957600080fd5b50511515611393576040805160e560020a62461bcd02815260206004820152603160248201526000805160206127b78339815191526044820152600080516020612797833981519152606482015290519081900360840190fd5b600254600160a060020a031663da46098c83336113af8261147e565b604080517c010000000000000000000000000000000000000000000000000000000063ffffffff8716028152600160a060020a03948516600482015292909316602483015260448201529051606480830192600092919082900301818387803b15801561141b57600080fd5b505af115801561142f573d6000803e3d6000fd5b503392505050600160a060020a0383167f3b1ffca3903932aa264fbb5b7b381746e2b7b61c9c5a6024bad48d23f958a6c26114698561147e565b60408051918252519081900360200190a35050565b600254604080517f27e235e3000000000000000000000000000000000000000000000000000000008152600160a060020a038481166004830152915160009392909216916327e235e39160248082019260209290919082900301818787803b1580156114e957600080fd5b505af11580156114fd573d6000803e3d6000fd5b505050506040513d602081101561151357600080fd5b505192915050565b600054600160a060020a0316331461153257600080fd5b60015460a060020a900460ff161561154957600080fd5b6001805474ff0000000000000000000000000000000000000000191660a060020a1790556040517f6985a02210a168e66602d3235cb6db0e70f92b3ba4d376a33c0f3d9434bff62590600090a1565b6001547501000000000000000000000000000000000000000000900460ff1681565b600054600160a060020a031681565b600054600160a060020a031633146115e057600080fd5b6001805475ff000000000000000000000000000000000000000000191675010000000000000000000000000000000000000000001790556040517f19aad37188a1d3921e29eb3c66acf43d81975e107cb650d58cca878627955fd690600090a1565b6003546040805160e060020a637ccce851028152600160a060020a038086166004830152915160009386931691637ccce85191602480830192602092919082900301818887803b15801561169557600080fd5b505af11580156116a9573d6000803e3d6000fd5b505050506040513d60208110156116bf57600080fd5b505115611704576040805160e560020a62461bcd02815260206004820152601c60248201526000805160206127d7833981519152604482015290519081900360640190fd5b6003546040805160e060020a637ccce851028152336004820181905291519192600160a060020a031691637ccce851916024808201926020929091908290030181600087803b15801561175657600080fd5b505af115801561176a573d6000803e3d6000fd5b505050506040513d602081101561178057600080fd5b5051156117c5576040805160e560020a62461bcd02815260206004820152601c60248201526000805160206127d7833981519152604482015290519081900360640190fd5b60015460a060020a900460ff16156117dc57600080fd5b6111b2853386611f9c565b600254600160a060020a031681565b6003546040805160e060020a637ccce851028152600160a060020a038086166004830152915185939290921691637ccce851916024808201926020929091908290030181600087803b15801561184b57600080fd5b505af115801561185f573d6000803e3d6000fd5b505050506040513d602081101561187557600080fd5b505115156118cd576040805160e560020a62461bcd02815260206004820152601860248201527f55736572206d75737420626520626c61636b6c69737465640000000000000000604482015290519081900360640190fd5b60015460a060020a900460ff16156118e457600080fd5b6003546040805160e360020a63029b6dab02815233600482015260008035600160e060020a03191660248301529151600160a060020a03909316926314db6d5892604480840193602093929083900390910190829087803b15801561194857600080fd5b505af115801561195c573d6000803e3d6000fd5b505050506040513d602081101561197257600080fd5b505115156119cc576040805160e560020a62461bcd02815260206004820152603160248201526000805160206127b78339815191526044820152600080516020612797833981519152606482015290519081900360840190fd5b600254604080517fcf8eeb7e000000000000000000000000000000000000000000000000000000008152600160a060020a038681166004830152602482018690529151919092169163cf8eeb7e91604480830192600092919082900301818387803b158015611a3a57600080fd5b505af1158015611a4e573d6000803e3d6000fd5b5050600254604080517f82838c76000000000000000000000000000000000000000000000000000000008152600481018790529051600160a060020a0390921693506382838c76925060248082019260009290919082900301818387803b158015611ab857600080fd5b505af1158015611acc573d6000803e3d6000fd5b5050604080518581529051600160a060020a03871693507fb81d1dffb753076892e04e6e1234d137b031f70d859c299876b0486e966424fd92509081900360200190a2505050565b60008054600160a060020a03163314611b2c57600080fd5b600354600160a060020a0383811691161415611b92576040805160e560020a62461bcd02815260206004820152601760248201527f4d7573742062652061206e657720726567756c61746f72000000000000000000604482015290519081900360640190fd5b611b9b826126ab565b1515611c17576040805160e560020a62461bcd02815260206004820152603860248201527f43616e6e6f7420736574206120726567756c61746f722073746f72616765207460448201527f6f2061206e6f6e2d636f6e747261637420616464726573730000000000000000606482015290519081900360840190fd5b5060038054600160a060020a0383811673ffffffffffffffffffffffffffffffffffffffff19831681179093556040519116919082907f4a59b4b607c6055b37a4716d7813d7d4d2c288e4d0dd8298e365b260a1f262e890600090a35050565b6003546040805160e060020a637ccce851028152600160a060020a038086166004830152915160009386931691637ccce85191602480830192602092919082900301818887803b158015611cca57600080fd5b505af1158015611cde573d6000803e3d6000fd5b505050506040513d6020811015611cf457600080fd5b505115611d39576040805160e560020a62461bcd02815260206004820152601c60248201526000805160206127d7833981519152604482015290519081900360640190fd5b6003546040805160e060020a637ccce851028152336004820181905291519192600160a060020a031691637ccce851916024808201926020929091908290030181600087803b158015611d8b57600080fd5b505af1158015611d9f573d6000803e3d6000fd5b505050506040513d6020811015611db557600080fd5b505115611dfa576040805160e560020a62461bcd02815260206004820152601c60248201526000805160206127d7833981519152604482015290519081900360640190fd5b60015460a060020a900460ff1615611e1157600080fd5b6111b28585336126b3565b600254604080517f55b6ed5c000000000000000000000000000000000000000000000000000000008152600160a060020a0385811660048301528481166024830152915160009392909216916355b6ed5c9160448082019260209290919082900301818787803b158015611e8f57600080fd5b505af1158015611ea3573d6000803e3d6000fd5b505050506040513d6020811015611eb957600080fd5b50519392505050565b600354600160a060020a031681565b600154600160a060020a031681565b600054600160a060020a03163314611ef757600080fd5b600160a060020a0381161515611f0c57600080fd5b6001805473ffffffffffffffffffffffffffffffffffffffff1916600160a060020a0392909216919091179055565b600054600160a060020a03163314611f5257600080fd5b6001805475ff000000000000000000000000000000000000000000191690556040517f0f2e5b6c72c6a4491efd919a9f9a409f324ef0708c11ee57d410c2cb06c0992b90600090a1565b600160a060020a0383161515611ffc576040805160e560020a62461bcd02815260206004820152601860248201527f746f20616464726573732063616e6e6f74206265203078300000000000000000604482015290519081900360640190fd5b6120058261147e565b81111561205c576040805160e560020a62461bcd02815260206004820152601e60248201527f6e6f7420656e6f7567682062616c616e636520746f207472616e736665720000604482015290519081900360640190fd5b600254604080517f21e5383a000000000000000000000000000000000000000000000000000000008152600160a060020a03868116600483015260248201859052915191909216916321e5383a91604480830192600092919082900301818387803b1580156120ca57600080fd5b505af11580156120de573d6000803e3d6000fd5b5050600254604080517fcf8eeb7e000000000000000000000000000000000000000000000000000000008152600160a060020a03878116600483015260248201879052915191909216935063cf8eeb7e9250604480830192600092919082900301818387803b15801561215057600080fd5b505af1158015612164573d6000803e3d6000fd5b5050604080518481529051600160a060020a038088169450861692507fddf252ad1be2c89b69c2b068fc378daa952ba7f163c4a11628f55a4df523b3ef9181900360200190a3505050565b600254604080517fe468688e000000000000000000000000000000000000000000000000000000008152600481018490529051600160a060020a039092169163e468688e9160248082019260009290919082900301818387803b15801561221557600080fd5b505af1158015612229573d6000803e3d6000fd5b5050600254604080517f21e5383a000000000000000000000000000000000000000000000000000000008152600160a060020a0387811660048301526024820187905291519190921693506321e5383a9250604480830192600092919082900301818387803b15801561229b57600080fd5b505af11580156122af573d6000803e3d6000fd5b5050604080518481529051600160a060020a03861693507f0f6798a560793a54c3bcfe86a93cde1e73087d944c0ea20544137d412139688592509081900360200190a2604080518281529051600160a060020a038416916000917fddf252ad1be2c89b69c2b068fc378daa952ba7f163c4a11628f55a4df523b3ef9181900360200190a35050565b6123408261147e565b811115612397576040805160e560020a62461bcd02815260206004820152601a60248201527f6e6f7420656e6f7567682062616c616e636520746f206275726e000000000000604482015290519081900360640190fd5b600254604080517fcf8eeb7e000000000000000000000000000000000000000000000000000000008152600160a060020a038581166004830152602482018590529151919092169163cf8eeb7e91604480830192600092919082900301818387803b15801561240557600080fd5b505af1158015612419573d6000803e3d6000fd5b5050600254604080517f82838c76000000000000000000000000000000000000000000000000000000008152600481018690529051600160a060020a0390921693506382838c76925060248082019260009290919082900301818387803b15801561248357600080fd5b505af1158015612497573d6000803e3d6000fd5b5050604080518481529051600160a060020a03861693507fcc16f5dbb4873280815c1ee09dbd06736cffcc184412cf7a71a0fdb75d397ca592509081900360200190a2604080518281529051600091600160a060020a038516917fddf252ad1be2c89b69c2b068fc378daa952ba7f163c4a11628f55a4df523b3ef9181900360200190a35050565b600061252b8285611e1c565b9050808311156125c657600254604080517fda46098c000000000000000000000000000000000000000000000000000000008152600160a060020a0385811660048301528781166024830152600060448301819052925193169263da46098c9260648084019391929182900301818387803b1580156125a957600080fd5b505af11580156125bd573d6000803e3d6000fd5b50505050612655565b600254604080517f97d88cd2000000000000000000000000000000000000000000000000000000008152600160a060020a038581166004830152878116602483015260448201879052915191909216916397d88cd291606480830192600092919082900301818387803b15801561263c57600080fd5b505af1158015612650573d6000803e3d6000fd5b505050505b83600160a060020a031682600160a060020a03167f8c5be1e5ebec7d5bd14f71427d1e84f3dd0314c0f7b2291e5b200ac8c7c3b9256126948588611e1c565b60408051918252519081900360200190a350505050565b6000903b1190565b600254604080517f5fd72d16000000000000000000000000000000000000000000000000000000008152600160a060020a03848116600483015286811660248301526044820186905291519190921691635fd72d1691606480830192600092919082900301818387803b15801561272957600080fd5b505af115801561273d573d6000803e3d6000fd5b5050505082600160a060020a031681600160a060020a03167f8c5be1e5ebec7d5bd14f71427d1e84f3dd0314c0f7b2291e5b200ac8c7c3b9256127808487611e1c565b60408051918252519081900360200190a3505050560020657865637574652066756e6374696f6e0000000000000000000000000000005573657220646f6573206e6f742068617665207065726d697373696f6e20746f55736572206d757374206e6f7420626520626c61636b6c697374656400000000a165627a7a72305820acf444a6b9f92ac47db1d861beaaa8e58f7d88322a7a06c01b01caabcb10e9470029608060405260008054600160a060020a031990811633179091556001805490911690556106e7806100316000396000f3006080604052600436106100e55763ffffffff7c010000000000000000000000000000000000000000000000000000000060003504166318160ddd81146100ea57806321e5383a1461011157806327e235e3146101375780634e71e0c81461015857806355b6ed5c1461016d5780635fd72d161461019457806382838c76146101be5780638da5cb5b146101d657806397d88cd214610207578063cf8eeb7e14610231578063da46098c14610255578063e30443bc1461027f578063e30c3978146102a3578063e468688e146102b8578063f2fde38b146102d0578063f7ea7a3d146102f1575b600080fd5b3480156100f657600080fd5b506100ff610309565b60408051918252519081900360200190f35b34801561011d57600080fd5b50610135600160a060020a036004351660243561030f565b005b34801561014357600080fd5b506100ff600160a060020a036004351661036f565b34801561016457600080fd5b50610135610381565b34801561017957600080fd5b506100ff600160a060020a0360043581169060243516610409565b3480156101a057600080fd5b50610135600160a060020a0360043581169060243516604435610426565b3480156101ca57600080fd5b506101356004356104a4565b3480156101e257600080fd5b506101eb6104d4565b60408051600160a060020a039092168252519081900360200190f35b34801561021357600080fd5b50610135600160a060020a03600435811690602435166044356104e3565b34801561023d57600080fd5b50610135600160a060020a0360043516602435610530565b34801561026157600080fd5b50610135600160a060020a0360043581169060243516604435610570565b34801561028b57600080fd5b50610135600160a060020a03600435166024356105b3565b3480156102af57600080fd5b506101eb6105e6565b3480156102c457600080fd5b506101356004356105f5565b3480156102dc57600080fd5b50610135600160a060020a036004351661061f565b3480156102fd57600080fd5b5061013560043561067a565b60045481565b600054600160a060020a0316331461032657600080fd5b600160a060020a03821660009081526003602052604090205461034f908263ffffffff61069616565b600160a060020a0390921660009081526003602052604090209190915550565b60036020526000908152604090205481565b600154600160a060020a0316331461039857600080fd5b60015460008054604051600160a060020a0393841693909116917f8be0079c531659141344cd1fd0a4f28419497f9722a3daafe3b4186f6b6457e091a3600180546000805473ffffffffffffffffffffffffffffffffffffffff19908116600160a060020a03841617909155169055565b600260209081526000928352604080842090915290825290205481565b600054600160a060020a0316331461043d57600080fd5b600160a060020a03808416600090815260026020908152604080832093861683529290522054610473908263ffffffff61069616565b600160a060020a03938416600090815260026020908152604080832095909616825293909352929091209190915550565b600054600160a060020a031633146104bb57600080fd5b6004546104ce908263ffffffff6106a916565b60045550565b600054600160a060020a031681565b600054600160a060020a031633146104fa57600080fd5b600160a060020a03808416600090815260026020908152604080832093861683529290522054610473908263ffffffff6106a916565b600054600160a060020a0316331461054757600080fd5b600160a060020a03821660009081526003602052604090205461034f908263ffffffff6106a916565b600054600160a060020a0316331461058757600080fd5b600160a060020a0392831660009081526002602090815260408083209490951682529290925291902055565b600054600160a060020a031633146105ca57600080fd5b600160a060020a03909116600090815260036020526040902055565b600154600160a060020a031681565b600054600160a060020a0316331461060c57600080fd5b6004546104ce908263ffffffff61069616565b600054600160a060020a0316331461063657600080fd5b600160a060020a038116151561064b57600080fd5b6001805473ffffffffffffffffffffffffffffffffffffffff1916600160a060020a0392909216919091179055565b600054600160a060020a0316331461069157600080fd5b600455565b818101828110156106a357fe5b92915050565b6000828211156106b557fe5b509003905600a165627a7a7230582032ddf97d0bc66a7c3294cced0402123ff13218ae899d994703d8b4c013c3e4a60029",
  "source": "pragma solidity ^0.4.24;\n\nimport \"./dataStorage/PermissionedTokenStorage.sol\";\nimport \"openzeppelin-solidity/contracts/math/SafeMath.sol\";\nimport \"openzeppelin-solidity/contracts/AddressUtils.sol\";\nimport \"openzeppelin-solidity/contracts/token/ERC20/ERC20.sol\";\nimport \"../../helpers/Lockable.sol\";\nimport \"../../helpers/Pausable.sol\";\nimport \"../../regulator/Regulator.sol\";\n\n/**\n* @title PermissionedToken\n* @notice A permissioned token that enables transfers, withdrawals, and deposits to occur \n* if and only if it is approved by an on-chain Regulator service. PermissionedToken is an\n* ERC-20 smart contract representing ownership of securities and overrides the\n* transfer, burn, and mint methods to check with the Regulator.\n*/\ncontract PermissionedToken is ERC20, Pausable, Lockable {\n    using SafeMath for uint256;\n\n    /** Events */\n    event DestroyedBlacklistedTokens(address indexed account, uint256 amount);\n    event ApprovedBlacklistedAddressSpender(address indexed owner, address indexed spender, uint256 value);\n    event Mint(address indexed to, uint256 value);\n    event Burn(address indexed burner, uint256 value);\n    event Transfer(address indexed from, address indexed to, uint256 value);\n    event Approval(address indexed owner, address indexed spender, uint256 value);\n    event ChangedRegulator(address indexed oldRegulator, address indexed newRegulator );\n\n    PermissionedTokenStorage public tokenStorage;\n    Regulator public regulator;\n\n    /**\n    * @dev create a new PermissionedToken with a brand new data storage\n    **/\n    constructor (address _regulator) public {\n        regulator = Regulator(_regulator);\n        tokenStorage = new PermissionedTokenStorage();\n    }\n\n    /** Modifiers **/\n\n    /** @notice Modifier that allows function access to be restricted based on\n    * whether the regulator allows the message sender to execute that function.\n    **/\n    modifier requiresPermission() {\n        require (regulator.hasUserPermission(msg.sender, msg.sig), \"User does not have permission to execute function\");\n        _;\n    }\n\n    /** @notice Modifier that checks whether or not a transferFrom operation can\n    * succeed with the given _from and _to address. See transferFrom()'s documentation for\n    * more details.\n    **/\n    modifier transferFromConditionsRequired(address _from, address _to) {\n        require(!regulator.isBlacklistedUser(_to), \"Recipient cannot be blacklisted\");\n        \n        // If the origin user is blacklisted, the transaction can only succeed if \n        // the message sender is a user that has been approved to transfer \n        // blacklisted tokens out of this address.\n        bool is_origin_blacklisted = regulator.isBlacklistedUser(_from);\n\n        // Is the message sender a person with the ability to transfer tokens out of a blacklisted account?\n        bool sender_can_spend_from_blacklisted_address = regulator.isBlacklistSpender(msg.sender);\n        require(!is_origin_blacklisted || sender_can_spend_from_blacklisted_address, \"Origin cannot be blacklisted if spender is not an approved blacklist spender\");\n        _;\n    }\n\n    /** @notice Modifier that checks whether a user is blacklisted.\n     * @param _user The address of the user to check.\n    **/\n    modifier userBlacklisted(address _user) {\n        require(regulator.isBlacklistedUser(_user), \"User must be blacklisted\");\n        _;\n    }\n\n    /** @notice Modifier that checks whether a user is not blacklisted.\n     * @param _user The address of the user to check.\n    **/\n    modifier userNotBlacklisted(address _user) {\n        require(!regulator.isBlacklistedUser(_user), \"User must not be blacklisted\");\n        _;\n    }\n\n    /** Functions **/\n\n    /**\n    * @notice Allows user to mint if they have the appropriate permissions. User generally\n    * must have minting authority.\n    * @dev Should be access-restricted with the 'requiresPermission' modifier when implementing.\n    * @param _to The address of the receiver\n    * @param _amount The number of tokens to mint\n    */\n    function mint(address _to, uint256 _amount) public userNotBlacklisted(_to) requiresPermission whenNotPaused {\n        _mint(_to, _amount);\n    }\n\n    /**\n    * @notice Remove CUSD from supply\n    * @param _amount The number of tokens to burn\n    * @return `true` if successful and `false` if unsuccessful\n    */\n    function burn(uint256 _amount) userNotBlacklisted(msg.sender) public whenNotPaused {\n        _burn(msg.sender, _amount);\n    }\n\n    /**\n    * @notice Implements ERC-20 standard approve function. Locked or disabled by default to protect against\n    * double spend attacks. To modify allowances, clients should call safer increase/decreaseApproval methods.\n    * Upon construction, all calls to approve() will revert unless this contract owner explicitly unlocks approve()\n    */\n    function approve(address _spender, uint256 _value) \n    public userNotBlacklisted(_spender) userNotBlacklisted(msg.sender) whenNotPaused whenUnlocked returns (bool) {\n        tokenStorage.setAllowance(msg.sender, _spender, _value);\n        emit Approval(msg.sender, _spender, _value);\n        return true;\n    }\n\n    /**\n     * @dev Increase the amount of tokens that an owner allowed to a spender.\n     * @notice increaseApproval should be used instead of approve when the user's allowance\n     * is greater than 0. Using increaseApproval protects against potential double-spend attacks\n     * by moving the check of whether the user has spent their allowance to the time that the transaction \n     * is mined, removing the user's ability to double-spend\n     * @param _spender The address which will spend the funds.\n     * @param _addedValue The amount of tokens to increase the allowance by.\n     */\n    function increaseApproval(address _spender, uint256 _addedValue) \n    public userNotBlacklisted(_spender) userNotBlacklisted(msg.sender) whenNotPaused returns (bool) {\n        _increaseApproval(_spender, _addedValue, msg.sender);\n        return true;\n    }\n\n    /**\n     * @dev Decrease the amount of tokens that an owner allowed to a spender.\n     * @notice decreaseApproval should be used instead of approve when the user's allowance\n     * is greater than 0. Using decreaseApproval protects against potential double-spend attacks\n     * by moving the check of whether the user has spent their allowance to the time that the transaction \n     * is mined, removing the user's ability to double-spend\n     * @param _spender The address which will spend the funds.\n     * @param _subtractedValue The amount of tokens to decrease the allowance by.\n     */\n    function decreaseApproval(address _spender, uint256 _subtractedValue) \n    public userNotBlacklisted(_spender) userNotBlacklisted(msg.sender) whenNotPaused returns (bool) {\n        _decreaseApproval(_spender, _subtractedValue, msg.sender);\n        return true;\n    }\n\n    /**\n    * @notice Destroy the tokens owned by a blacklisted account. This function can generally\n    * only be called by a central authority.\n    * @dev Should be access-restricted with the 'requiresPermission' modifier when implementing.\n    * @param _who Account to destroy tokens from. Must be a blacklisted account.\n    */\n    function destroyBlacklistedTokens(address _who, uint256 _amount) public userBlacklisted(_who) whenNotPaused requiresPermission {\n        tokenStorage.subBalance(_who, _amount);\n        tokenStorage.subTotalSupply(_amount);\n        emit DestroyedBlacklistedTokens(_who, _amount);\n    }\n    /**\n    * @notice Allows a central authority to approve themselves as a spender on a blacklisted account.\n    * By default, the allowance is set to the balance of the blacklisted account, so that the\n    * authority has full control over the account balance.\n    * @dev Should be access-restricted with the 'requiresPermission' modifier when implementing.\n    * @param _blacklistedAccount The blacklisted account.\n    */\n    function approveBlacklistedAddressSpender(address _blacklistedAccount) \n    public userBlacklisted(_blacklistedAccount) whenNotPaused requiresPermission {\n        tokenStorage.setAllowance(_blacklistedAccount, msg.sender, balanceOf(_blacklistedAccount));\n        emit ApprovedBlacklistedAddressSpender(_blacklistedAccount, msg.sender, balanceOf(_blacklistedAccount));\n    }\n\n    /**\n    * @notice Initiates a \"send\" operation towards another user. See `transferFrom` for details.\n    * @param _to The address of the receiver. This user must not be blacklisted, or else the tranfer\n    * will fail.\n    * @param _amount The number of tokens to transfer\n    *\n    * @return `true` if successful \n    */\n    function transfer(address _to, uint256 _amount) public userNotBlacklisted(_to) userNotBlacklisted(msg.sender) whenNotPaused returns (bool) {\n        _transfer(_to, msg.sender, _amount);\n        return true;\n    }\n\n    /**\n    * @notice Initiates a transfer operation between address `_from` and `_to`. Requires that the\n    * message sender is an approved spender on the _from account.\n    * @dev When implemented, it should use the transferFromConditionsRequired() modifier.\n    * @param _to The address of the recipient. This address must not be blacklisted.\n    * @param _from The address of the origin of funds. This address _could_ be blacklisted, because\n    * a regulator may want to transfer tokens out of a blacklisted account, for example.\n    * In order to do so, the regulator would have to add themselves as an approved spender\n    * on the account via `addBlacklistAddressSpender()`, and would then be able to transfer tokens out of it.\n    * @param _amount The number of tokens to transfer\n    * @return `true` if successful \n    */\n    function transferFrom(address _from, address _to, uint256 _amount) \n    public whenNotPaused transferFromConditionsRequired(_from, _to) returns (bool) {\n        require(_amount <= allowance(_from, msg.sender),\"not enough allowance to transfer\");\n        _transfer(_to, _from, _amount);\n        tokenStorage.subAllowance(_from, msg.sender, _amount);\n        return true;\n    }\n\n    /**\n    *\n    * @dev Only the token owner can change its regulator\n    * @param _newRegulator the new Regulator for this token\n    *\n    */\n    function setRegulator(address _newRegulator) public onlyOwner {\n        require(_newRegulator != address(regulator), \"Must be a new regulator\");\n        require(AddressUtils.isContract(_newRegulator), \"Cannot set a regulator storage to a non-contract address\");\n        address old = address(regulator);\n        regulator = Regulator(_newRegulator);\n        emit ChangedRegulator(old, _newRegulator);\n    }\n\n    /**\n    * @notice If a user is blacklisted, they will have the permission to \n    * execute this dummy function. This function effectively acts as a marker \n    * to indicate that a user is blacklisted. We include this function to be consistent with our\n    * invariant that every possible userPermission (listed in Regulator) enables access to a single \n    * PermissionedToken function. Thus, the 'BLACKLISTED' permission gives access to this function\n    * @return `true` if successful\n    */\n    function blacklisted() public view requiresPermission returns (bool) {\n        return true;\n    }\n\n    /**\n    * ERC20 standard functions\n    */\n    function allowance(address owner, address spender) public view returns (uint256) {\n        return tokenStorage.allowances(owner, spender);\n    }\n\n    function totalSupply() public view returns (uint256) {\n        return tokenStorage.totalSupply();\n    }\n\n    function balanceOf(address _addr) public view returns (uint256) {\n        return tokenStorage.balances(_addr);\n    }\n\n\n    /** Internal functions **/\n    \n    function _decreaseApproval(address _spender, uint256 _subtractedValue, address _tokenHolder) internal {\n        uint256 oldValue = allowance(_tokenHolder, _spender);\n        if (_subtractedValue > oldValue) {\n            tokenStorage.setAllowance(_tokenHolder, _spender, 0);\n        } else {\n            tokenStorage.subAllowance(_tokenHolder, _spender, _subtractedValue);\n        }\n        emit Approval(_tokenHolder, _spender, allowance(_tokenHolder, _spender));\n    }\n\n    function _increaseApproval(address _spender, uint256 _addedValue, address _tokenHolder) internal {\n        tokenStorage.addAllowance(_tokenHolder, _spender, _addedValue);\n        emit Approval(_tokenHolder, _spender, allowance(_tokenHolder, _spender));\n    }\n\n    function _burn(address _tokensOf, uint256 _amount) internal {\n        require(_amount <= balanceOf(_tokensOf),\"not enough balance to burn\");\n        // no need to require value <= totalSupply, since that would imply the\n        // sender's balance is greater than the totalSupply, which *should* be an assertion failure\n        tokenStorage.subBalance(_tokensOf, _amount);\n        tokenStorage.subTotalSupply(_amount);\n        emit Burn(_tokensOf, _amount);\n        emit Transfer(_tokensOf, address(0), _amount);\n    }\n\n    function _mint(address _to, uint256 _amount) internal {\n        tokenStorage.addTotalSupply(_amount);\n        tokenStorage.addBalance(_to, _amount);\n        emit Mint(_to, _amount);\n        emit Transfer(address(0), _to, _amount);\n    }\n\n    function _transfer(address _to, address _from, uint256 _amount) internal {\n        require(_to != address(0),\"to address cannot be 0x0\");\n        require(_amount <= balanceOf(_from),\"not enough balance to transfer\");\n\n        tokenStorage.addBalance(_to, _amount);\n        tokenStorage.subBalance(_from, _amount);\n        emit Transfer(_from, _to, _amount);\n    }\n\n}",
  "sourcePath": "/Users/nicholaspai/Carbon/fiat_gateway/contracts/tokens/permissionedToken/PermissionedToken.sol",
  "compiler": {
    "name": "solc",
    "version": "0.4.25+commit.59dbf8f1.Emscripten.clang"
  },
  "schemaVersion": "3.0.0-beta.1",
  "updatedAt": "2018-12-03T00:47:05.673Z"
}