{
  "contractName": "PermissionedTokenProxy",
  "abi": [
    {
      "constant": false,
      "inputs": [],
      "name": "claimOwnership",
      "outputs": [],
      "payable": false,
      "stateMutability": "nonpayable",
      "type": "function"
    },
    {
      "constant": true,
      "inputs": [],
      "name": "owner",
      "outputs": [
        {
          "name": "",
          "type": "address"
        }
      ],
      "payable": false,
      "stateMutability": "view",
      "type": "function"
    },
    {
      "constant": true,
      "inputs": [],
      "name": "tokenStorage",
      "outputs": [
        {
          "name": "",
          "type": "address"
        }
      ],
      "payable": false,
      "stateMutability": "view",
      "type": "function"
    },
    {
      "constant": true,
      "inputs": [],
      "name": "regulator",
      "outputs": [
        {
          "name": "",
          "type": "address"
        }
      ],
      "payable": false,
      "stateMutability": "view",
      "type": "function"
    },
    {
      "constant": true,
      "inputs": [],
      "name": "pendingOwner",
      "outputs": [
        {
          "name": "",
          "type": "address"
        }
      ],
      "payable": false,
      "stateMutability": "view",
      "type": "function"
    },
    {
      "constant": false,
      "inputs": [
        {
          "name": "_newOwner",
          "type": "address"
        }
      ],
      "name": "transferOwnership",
      "outputs": [],
      "payable": false,
      "stateMutability": "nonpayable",
      "type": "function"
    },
    {
      "inputs": [
        {
          "name": "_implementation",
          "type": "address"
        },
        {
          "name": "_regulator",
          "type": "address"
        }
      ],
      "payable": false,
      "stateMutability": "nonpayable",
      "type": "constructor"
    },
    {
      "payable": true,
      "stateMutability": "payable",
      "type": "fallback"
    },
    {
      "anonymous": false,
      "inputs": [
        {
          "indexed": true,
          "name": "oldRegulator",
          "type": "address"
        },
        {
          "indexed": true,
          "name": "newRegulator",
          "type": "address"
        }
      ],
      "name": "ChangedRegulator",
      "type": "event"
    },
    {
      "anonymous": false,
      "inputs": [
        {
          "indexed": true,
          "name": "previousOwner",
          "type": "address"
        },
        {
          "indexed": true,
          "name": "newOwner",
          "type": "address"
        }
      ],
      "name": "OwnershipTransferred",
      "type": "event"
    },
    {
      "anonymous": false,
      "inputs": [
        {
          "indexed": false,
          "name": "implementation",
          "type": "address"
        }
      ],
      "name": "Upgraded",
      "type": "event"
    },
    {
      "constant": false,
      "inputs": [
        {
          "name": "newImplementation",
          "type": "address"
        }
      ],
      "name": "upgradeTo",
      "outputs": [],
      "payable": false,
      "stateMutability": "nonpayable",
      "type": "function"
    },
    {
      "constant": true,
      "inputs": [],
      "name": "implementation",
      "outputs": [
        {
          "name": "",
          "type": "address"
        }
      ],
      "payable": false,
      "stateMutability": "view",
      "type": "function"
    }
  ],
  "bytecode": "0x608060405234801561001057600080fd5b50604051604080610db183398101604081815282516020938401517f6f72672e7a657070656c696e6f732e70726f78792e696d706c656d656e74617484527f696f6e0000000000000000000000000000000000000000000000000000000000948401949094529051918290036023019091209091908290600080516020610d918339815191521461009d57fe5b6100af8164010000000061012e810204565b506000805433600160a060020a031991821617909155600180548216905560038054909116600160a060020a0383161790556100e96101f4565b604051809103906000f080158015610105573d6000803e3d6000fd5b5060028054600160a060020a031916600160a060020a0392909216919091179055506102049050565b6000610146826401000000006104326101ec82021704565b15156101d957604080517f08c379a000000000000000000000000000000000000000000000000000000000815260206004820152603b60248201527f43616e6e6f742073657420612070726f787920696d706c656d656e746174696f60448201527f6e20746f2061206e6f6e2d636f6e747261637420616464726573730000000000606482015290519081900360840190fd5b50600080516020610d9183398151915255565b6000903b1190565b6040516107188061067983390190565b610466806102136000396000f30060806040526004361061008d5763ffffffff7c01000000000000000000000000000000000000000000000000000000006000350416633659cfe681146100975780634e71e0c8146100b85780635c60da1b146100cd5780638da5cb5b146100fe578063b199efb514610113578063dd8fee1414610128578063e30c39781461013d578063f2fde38b14610152575b610095610173565b005b3480156100a357600080fd5b50610095600160a060020a036004351661018d565b3480156100c457600080fd5b506100956101b0565b3480156100d957600080fd5b506100e2610238565b60408051600160a060020a039092168252519081900360200190f35b34801561010a57600080fd5b506100e2610247565b34801561011f57600080fd5b506100e2610256565b34801561013457600080fd5b506100e2610265565b34801561014957600080fd5b506100e2610274565b34801561015e57600080fd5b50610095600160a060020a0360043516610283565b61017b61018b565b61018b6101866102de565b610303565b565b600054600160a060020a031633146101a457600080fd5b6101ad81610327565b50565b600154600160a060020a031633146101c757600080fd5b60015460008054604051600160a060020a0393841693909116917f8be0079c531659141344cd1fd0a4f28419497f9722a3daafe3b4186f6b6457e091a3600180546000805473ffffffffffffffffffffffffffffffffffffffff19908116600160a060020a03841617909155169055565b60006102426102de565b905090565b600054600160a060020a031681565b600254600160a060020a031681565b600354600160a060020a031681565b600154600160a060020a031681565b600054600160a060020a0316331461029a57600080fd5b600160a060020a03811615156102af57600080fd5b6001805473ffffffffffffffffffffffffffffffffffffffff1916600160a060020a0392909216919091179055565b7f7050c9e0f4ca769c69bd3a8ef740bc37934f8e2c036e5a723fd8ee048ed3f8c35490565b3660008037600080366000845af43d6000803e808015610322573d6000f35b3d6000fd5b6103308161036f565b60408051600160a060020a038316815290517fbc7cd75a20ee27fd9adebab32041f755214dbc6bffa90cc0225b39da2e5c2d3b9181900360200190a150565b600061037a82610432565b151561040d57604080517f08c379a000000000000000000000000000000000000000000000000000000000815260206004820152603b60248201527f43616e6e6f742073657420612070726f787920696d706c656d656e746174696f60448201527f6e20746f2061206e6f6e2d636f6e747261637420616464726573730000000000606482015290519081900360840190fd5b507f7050c9e0f4ca769c69bd3a8ef740bc37934f8e2c036e5a723fd8ee048ed3f8c355565b6000903b11905600a165627a7a72305820d79f9e2cae1e519034d122b62df2f4a2bec78b7e8530813518d8df4011ca2b6c0029608060405260008054600160a060020a031990811633179091556001805490911690556106e7806100316000396000f3006080604052600436106100e55763ffffffff7c010000000000000000000000000000000000000000000000000000000060003504166318160ddd81146100ea57806321e5383a1461011157806327e235e3146101375780634e71e0c81461015857806355b6ed5c1461016d5780635fd72d161461019457806382838c76146101be5780638da5cb5b146101d657806397d88cd214610207578063cf8eeb7e14610231578063da46098c14610255578063e30443bc1461027f578063e30c3978146102a3578063e468688e146102b8578063f2fde38b146102d0578063f7ea7a3d146102f1575b600080fd5b3480156100f657600080fd5b506100ff610309565b60408051918252519081900360200190f35b34801561011d57600080fd5b50610135600160a060020a036004351660243561030f565b005b34801561014357600080fd5b506100ff600160a060020a036004351661036f565b34801561016457600080fd5b50610135610381565b34801561017957600080fd5b506100ff600160a060020a0360043581169060243516610409565b3480156101a057600080fd5b50610135600160a060020a0360043581169060243516604435610426565b3480156101ca57600080fd5b506101356004356104a4565b3480156101e257600080fd5b506101eb6104d4565b60408051600160a060020a039092168252519081900360200190f35b34801561021357600080fd5b50610135600160a060020a03600435811690602435166044356104e3565b34801561023d57600080fd5b50610135600160a060020a0360043516602435610530565b34801561026157600080fd5b50610135600160a060020a0360043581169060243516604435610570565b34801561028b57600080fd5b50610135600160a060020a03600435166024356105b3565b3480156102af57600080fd5b506101eb6105e6565b3480156102c457600080fd5b506101356004356105f5565b3480156102dc57600080fd5b50610135600160a060020a036004351661061f565b3480156102fd57600080fd5b5061013560043561067a565b60045481565b600054600160a060020a0316331461032657600080fd5b600160a060020a03821660009081526003602052604090205461034f908263ffffffff61069616565b600160a060020a0390921660009081526003602052604090209190915550565b60036020526000908152604090205481565b600154600160a060020a0316331461039857600080fd5b60015460008054604051600160a060020a0393841693909116917f8be0079c531659141344cd1fd0a4f28419497f9722a3daafe3b4186f6b6457e091a3600180546000805473ffffffffffffffffffffffffffffffffffffffff19908116600160a060020a03841617909155169055565b600260209081526000928352604080842090915290825290205481565b600054600160a060020a0316331461043d57600080fd5b600160a060020a03808416600090815260026020908152604080832093861683529290522054610473908263ffffffff61069616565b600160a060020a03938416600090815260026020908152604080832095909616825293909352929091209190915550565b600054600160a060020a031633146104bb57600080fd5b6004546104ce908263ffffffff6106a916565b60045550565b600054600160a060020a031681565b600054600160a060020a031633146104fa57600080fd5b600160a060020a03808416600090815260026020908152604080832093861683529290522054610473908263ffffffff6106a916565b600054600160a060020a0316331461054757600080fd5b600160a060020a03821660009081526003602052604090205461034f908263ffffffff6106a916565b600054600160a060020a0316331461058757600080fd5b600160a060020a0392831660009081526002602090815260408083209490951682529290925291902055565b600054600160a060020a031633146105ca57600080fd5b600160a060020a03909116600090815260036020526040902055565b600154600160a060020a031681565b600054600160a060020a0316331461060c57600080fd5b6004546104ce908263ffffffff61069616565b600054600160a060020a0316331461063657600080fd5b600160a060020a038116151561064b57600080fd5b6001805473ffffffffffffffffffffffffffffffffffffffff1916600160a060020a0392909216919091179055565b600054600160a060020a0316331461069157600080fd5b600455565b818101828110156106a357fe5b92915050565b6000828211156106b557fe5b509003905600a165627a7a72305820aedc8f8f5d2ec047db8a77ac7af64d87a9e84df392b69e942ea0ab5f4866c42500297050c9e0f4ca769c69bd3a8ef740bc37934f8e2c036e5a723fd8ee048ed3f8c3",
  "source": "pragma solidity ^0.4.24;\r\n\r\nimport \"./dataStorage/PermissionedTokenStorage.sol\";\r\nimport \"zos-lib/contracts/upgradeability/UpgradeabilityProxy.sol\";\r\nimport \"../../regulator/Regulator.sol\";\r\nimport '../../helpers/Ownable.sol';\r\nimport \"openzeppelin-solidity/contracts/AddressUtils.sol\";\r\n\r\n/**\r\n* @title PermissionedTokenProxy\r\n* @notice A proxy contract that serves the latest implementation of PermissionedToken.\r\n*/\r\ncontract PermissionedTokenProxy is UpgradeabilityProxy, Ownable {\r\n    \r\n    PermissionedTokenStorage public tokenStorage;\r\n    Regulator public regulator;\r\n\r\n    // Events\r\n    event ChangedRegulator(address indexed oldRegulator, address indexed newRegulator );\r\n\r\n\r\n    /**\r\n    * @dev create a new PermissionedToken as a proxy contract\r\n    * with a brand new data storage \r\n    **/\r\n    constructor(address _implementation, address _regulator) \r\n    UpgradeabilityProxy(_implementation) public {\r\n        regulator = Regulator(_regulator);\r\n        tokenStorage = new PermissionedTokenStorage();\r\n    }\r\n\r\n    /**\r\n    * @dev Upgrade the backing implementation of the proxy.\r\n    * Only the admin can call this function.\r\n    * @param newImplementation Address of the new implementation.\r\n    */\r\n    function upgradeTo(address newImplementation) public onlyOwner {\r\n        _upgradeTo(newImplementation);\r\n    }\r\n\r\n\r\n    /**\r\n    * @return The address of the implementation.\r\n    */\r\n    function implementation() public view returns (address) {\r\n        return _implementation();\r\n    }\r\n}",
  "sourcePath": "C:\\Users\\npain\\Projects\\Carbon\\fiat_gateway\\contracts\\tokens\\permissionedToken\\PermissionedTokenProxy.sol",
  "compiler": {
    "name": "solc",
    "version": "0.4.24+commit.e67f0147.Emscripten.clang"
  },
  "schemaVersion": "2.0.1",
  "updatedAt": "2018-10-06T05:55:34.533Z"
}