{
  "contractName": "PermissionSheetMock",
  "abi": [
    {
      "constant": true,
      "inputs": [
        {
          "name": "",
          "type": "address"
        },
        {
          "name": "",
          "type": "bytes4"
        }
      ],
      "name": "hasUserPermission",
      "outputs": [
        {
          "name": "",
          "type": "bool"
        }
      ],
      "payable": false,
      "stateMutability": "view",
      "type": "function"
    },
    {
      "constant": false,
      "inputs": [
        {
          "name": "_who",
          "type": "address"
        },
        {
          "name": "_methodsignature",
          "type": "bytes4"
        }
      ],
      "name": "setUserPermission",
      "outputs": [],
      "payable": false,
      "stateMutability": "nonpayable",
      "type": "function"
    },
    {
      "constant": true,
      "inputs": [
        {
          "name": "",
          "type": "bytes4"
        }
      ],
      "name": "permissions",
      "outputs": [
        {
          "name": "name",
          "type": "string"
        },
        {
          "name": "description",
          "type": "string"
        },
        {
          "name": "contract_name",
          "type": "string"
        }
      ],
      "payable": false,
      "stateMutability": "view",
      "type": "function"
    },
    {
      "constant": false,
      "inputs": [],
      "name": "claimOwnership",
      "outputs": [],
      "payable": false,
      "stateMutability": "nonpayable",
      "type": "function"
    },
    {
      "constant": false,
      "inputs": [
        {
          "name": "_who",
          "type": "address"
        },
        {
          "name": "_methodsignature",
          "type": "bytes4"
        }
      ],
      "name": "removeUserPermission",
      "outputs": [],
      "payable": false,
      "stateMutability": "nonpayable",
      "type": "function"
    },
    {
      "constant": true,
      "inputs": [],
      "name": "CONVERT_WT_SIG",
      "outputs": [
        {
          "name": "",
          "type": "bytes4"
        }
      ],
      "payable": false,
      "stateMutability": "view",
      "type": "function"
    },
    {
      "constant": false,
      "inputs": [
        {
          "name": "_methodsignature",
          "type": "bytes4"
        },
        {
          "name": "_permissionName",
          "type": "string"
        },
        {
          "name": "_permissionDescription",
          "type": "string"
        },
        {
          "name": "_contractName",
          "type": "string"
        }
      ],
      "name": "addPermission",
      "outputs": [],
      "payable": false,
      "stateMutability": "nonpayable",
      "type": "function"
    },
    {
      "constant": true,
      "inputs": [],
      "name": "MINT_SIG",
      "outputs": [
        {
          "name": "",
          "type": "bytes4"
        }
      ],
      "payable": false,
      "stateMutability": "view",
      "type": "function"
    },
    {
      "constant": true,
      "inputs": [],
      "name": "MINT_CUSD_SIG",
      "outputs": [
        {
          "name": "",
          "type": "bytes4"
        }
      ],
      "payable": false,
      "stateMutability": "view",
      "type": "function"
    },
    {
      "constant": true,
      "inputs": [],
      "name": "owner",
      "outputs": [
        {
          "name": "",
          "type": "address"
        }
      ],
      "payable": false,
      "stateMutability": "view",
      "type": "function"
    },
    {
      "constant": true,
      "inputs": [],
      "name": "APPROVE_BLACKLISTED_ADDRESS_SPENDER_SIG",
      "outputs": [
        {
          "name": "",
          "type": "bytes4"
        }
      ],
      "payable": false,
      "stateMutability": "view",
      "type": "function"
    },
    {
      "constant": true,
      "inputs": [
        {
          "name": "",
          "type": "bytes4"
        }
      ],
      "name": "isPermission",
      "outputs": [
        {
          "name": "",
          "type": "bool"
        }
      ],
      "payable": false,
      "stateMutability": "view",
      "type": "function"
    },
    {
      "constant": true,
      "inputs": [],
      "name": "BLACKLISTED_SIG",
      "outputs": [
        {
          "name": "",
          "type": "bytes4"
        }
      ],
      "payable": false,
      "stateMutability": "view",
      "type": "function"
    },
    {
      "constant": true,
      "inputs": [],
      "name": "DESTROY_BLACKLISTED_TOKENS_SIG",
      "outputs": [
        {
          "name": "",
          "type": "bytes4"
        }
      ],
      "payable": false,
      "stateMutability": "view",
      "type": "function"
    },
    {
      "constant": false,
      "inputs": [
        {
          "name": "_methodsignature",
          "type": "bytes4"
        }
      ],
      "name": "removePermission",
      "outputs": [],
      "payable": false,
      "stateMutability": "nonpayable",
      "type": "function"
    },
    {
      "constant": true,
      "inputs": [],
      "name": "BURN_CARBON_DOLLAR_SIG",
      "outputs": [
        {
          "name": "",
          "type": "bytes4"
        }
      ],
      "payable": false,
      "stateMutability": "view",
      "type": "function"
    },
    {
      "constant": true,
      "inputs": [],
      "name": "BURN_SIG",
      "outputs": [
        {
          "name": "",
          "type": "bytes4"
        }
      ],
      "payable": false,
      "stateMutability": "view",
      "type": "function"
    },
    {
      "constant": true,
      "inputs": [],
      "name": "pendingOwner",
      "outputs": [
        {
          "name": "",
          "type": "address"
        }
      ],
      "payable": false,
      "stateMutability": "view",
      "type": "function"
    },
    {
      "constant": false,
      "inputs": [
        {
          "name": "_newOwner",
          "type": "address"
        }
      ],
      "name": "transferOwnership",
      "outputs": [],
      "payable": false,
      "stateMutability": "nonpayable",
      "type": "function"
    },
    {
      "constant": true,
      "inputs": [],
      "name": "CONVERT_CARBON_DOLLAR_SIG",
      "outputs": [
        {
          "name": "",
          "type": "bytes4"
        }
      ],
      "payable": false,
      "stateMutability": "view",
      "type": "function"
    },
    {
      "inputs": [],
      "payable": false,
      "stateMutability": "nonpayable",
      "type": "constructor"
    },
    {
      "anonymous": false,
      "inputs": [
        {
          "indexed": false,
          "name": "methodsignature",
          "type": "bytes4"
        }
      ],
      "name": "PermissionAdded",
      "type": "event"
    },
    {
      "anonymous": false,
      "inputs": [
        {
          "indexed": false,
          "name": "methodsignature",
          "type": "bytes4"
        }
      ],
      "name": "PermissionRemoved",
      "type": "event"
    },
    {
      "anonymous": false,
      "inputs": [
        {
          "indexed": true,
          "name": "who",
          "type": "address"
        },
        {
          "indexed": false,
          "name": "methodsignature",
          "type": "bytes4"
        }
      ],
      "name": "SetUserPermission",
      "type": "event"
    },
    {
      "anonymous": false,
      "inputs": [
        {
          "indexed": true,
          "name": "who",
          "type": "address"
        },
        {
          "indexed": false,
          "name": "methodsignature",
          "type": "bytes4"
        }
      ],
      "name": "RemovedUserPermission",
      "type": "event"
    },
    {
      "anonymous": false,
      "inputs": [
        {
          "indexed": true,
          "name": "previousOwner",
          "type": "address"
        },
        {
          "indexed": true,
          "name": "newOwner",
          "type": "address"
        }
      ],
      "name": "OwnershipTransferred",
      "type": "event"
    }
  ],
  "bytecode": "0x60806040523480156200001157600080fd5b5060008054600160a060020a0319908116331790915560018054909116905562000043640100000000620000e1810204565b620000566401000000006200014d810204565b62000069640100000000620001b7810204565b6200007c64010000000062000221810204565b6200008f640100000000620002b2810204565b620000a264010000000062000343810204565b620000b5640100000000620003ad810204565b620000c86401000000006200043e810204565b620000db640100000000620004cf810204565b62000754565b604080517f6d696e7428616464726573732c75696e743235362900000000000000000000008152815190819003601501812060208083018452600080845284518083018652818152855192830190955281526200014b939192919064010000000062000539810204565b565b604080517f6d696e744355534428616464726573732c75696e7432353629000000000000008152815190819003601901812060208083018452600080845284518083018652818152855192830190955281526200014b939192919064010000000062000539810204565b604080517f6275726e2875696e7432353629000000000000000000000000000000000000008152815190819003600d01812060208083018452600080845284518083018652818152855192830190955281526200014b939192919064010000000062000539810204565b604080517f636f6e76657274436172626f6e446f6c6c617228616464726573732c75696e7481527f323536290000000000000000000000000000000000000000000000000000000060208083019190915282519182900360240182208282018452600080845284518084018652818152855193840190955282526200014b9390929164010000000062000539810204565b604080517f6275726e436172626f6e446f6c6c617228616464726573732c75696e7432353681527f290000000000000000000000000000000000000000000000000000000000000060208083019190915282519182900360210182208282018452600080845284518084018652818152855193840190955282526200014b9390929164010000000062000539810204565b604080517f636f6e7665727457542875696e743235362900000000000000000000000000008152815190819003601201812060208083018452600080845284518083018652818152855192830190955281526200014b939192919064010000000062000539810204565b604080517f64657374726f79426c61636b6c6973746564546f6b656e73286164647265737381527f2c75696e7432353629000000000000000000000000000000000000000000000060208083019190915282519182900360290182208282018452600080845284518084018652818152855193840190955282526200014b9390929164010000000062000539810204565b604080517f617070726f7665426c61636b6c6973746564416464726573735370656e64657281527f286164647265737329000000000000000000000000000000000000000000000060208083019190915282519182900360290182208282018452600080845284518084018652818152855193840190955282526200014b9390929164010000000062000539810204565b604080517f626c61636b6c69737465642829000000000000000000000000000000000000008152815190819003600d01812060208083018452600080845284518083018652818152855192830190955281526200014b939192919064010000000062000539810204565b620005436200068d565b600054600160a060020a031633146200055b57600080fd5b5060408051606081018252848152602081018490529081018290526200058b858264010000000062000592810204565b5050505050565b7fffffffff0000000000000000000000000000000000000000000000000000000082166000908152600260209081526040909120825180518493620005dc928492910190620006af565b506020828101518051620005f79260018501920190620006af565b506040820151805162000615916002840191602090910190620006af565b5050507fffffffff000000000000000000000000000000000000000000000000000000008216600081815260036020908152604091829020805460ff19166001179055815192835290517f6195913f4ea9fc2f5193c9f6763975b23790b3be094b1eb18f318437390055129281900390910190a15050565b6060604051908101604052806060815260200160608152602001606081525090565b828054600181600116156101000203166002900490600052602060002090601f016020900481019282601f10620006f257805160ff191683800117855562000722565b8280016001018555821562000722579182015b828111156200072257825182559160200191906001019062000705565b506200073092915062000734565b5090565b6200075191905b808211156200073057600081556001016200073b565b90565b61130b80620007646000396000f3006080604052600436106101115763ffffffff7c010000000000000000000000000000000000000000000000000000000060003504166314db6d5881146101165780631c870eee1461017d578063395a7b30146101d25780634e71e0c8146103505780635317e44414610365578063639c44cf146103b8578063780bfed01461040257806388f14b0e146104fe5780638b7c8109146105135780638da5cb5b146105285780638f959f5414610566578063933aa6671461057b5780639491951b146105b5578063ab96cb46146105ca578063b8ccbd17146105df578063c1c49cbb14610619578063cfbf1b901461062e578063e30c397814610643578063f2fde38b14610658578063f9d5054314610686575b600080fd5b34801561012257600080fd5b5061016973ffffffffffffffffffffffffffffffffffffffff600435167fffffffff000000000000000000000000000000000000000000000000000000006024351661069b565b604080519115158252519081900360200190f35b34801561018957600080fd5b506101d073ffffffffffffffffffffffffffffffffffffffff600435167fffffffff00000000000000000000000000000000000000000000000000000000602435166106bb565b005b3480156101de57600080fd5b5061020c7fffffffff0000000000000000000000000000000000000000000000000000000060043516610859565b60405180806020018060200180602001848103845287818151815260200191508051906020019080838360005b83811015610251578181015183820152602001610239565b50505050905090810190601f16801561027e5780820380516001836020036101000a031916815260200191505b50848103835286518152865160209182019188019080838360005b838110156102b1578181015183820152602001610299565b50505050905090810190601f1680156102de5780820380516001836020036101000a031916815260200191505b50848103825285518152855160209182019187019080838360005b838110156103115781810151838201526020016102f9565b50505050905090810190601f16801561033e5780820380516001836020036101000a031916815260200191505b50965050505050505060405180910390f35b34801561035c57600080fd5b506101d0610a60565b34801561037157600080fd5b506101d073ffffffffffffffffffffffffffffffffffffffff600435167fffffffff0000000000000000000000000000000000000000000000000000000060243516610b1a565b3480156103c457600080fd5b506103cd610cb5565b604080517fffffffff000000000000000000000000000000000000000000000000000000009092168252519081900360200190f35b34801561040e57600080fd5b5060408051602060046024803582810135601f81018590048502860185019096528585526101d09583357fffffffff000000000000000000000000000000000000000000000000000000001695369560449491939091019190819084018382808284375050604080516020601f89358b018035918201839004830284018301909452808352979a99988101979196509182019450925082915084018382808284375050604080516020601f89358b018035918201839004830284018301909452808352979a999881019791965091820194509250829150840183828082843750949750610cea9650505050505050565b34801561050a57600080fd5b506103cd610d42565b34801561051f57600080fd5b506103cd610d77565b34801561053457600080fd5b5061053d610dac565b6040805173ffffffffffffffffffffffffffffffffffffffff9092168252519081900360200190f35b34801561057257600080fd5b506103cd610dc8565b34801561058757600080fd5b506101697fffffffff0000000000000000000000000000000000000000000000000000000060043516610e23565b3480156105c157600080fd5b506103cd610e38565b3480156105d657600080fd5b506103cd610e6d565b3480156105eb57600080fd5b506101d07fffffffff0000000000000000000000000000000000000000000000000000000060043516610ec8565b34801561062557600080fd5b506103cd610f7b565b34801561063a57600080fd5b506103cd610fd6565b34801561064f57600080fd5b5061053d61100b565b34801561066457600080fd5b506101d073ffffffffffffffffffffffffffffffffffffffff60043516611027565b34801561069257600080fd5b506103cd6110b4565b600460209081526000928352604080842090915290825290205460ff1681565b60005473ffffffffffffffffffffffffffffffffffffffff1633146106df57600080fd5b7fffffffff00000000000000000000000000000000000000000000000000000000811660009081526003602052604090205460ff1615156107a757604080517f08c379a000000000000000000000000000000000000000000000000000000000815260206004820152603960248201527f5065726d697373696f6e206265696e6720736574206d75737420626520666f7260448201527f20612076616c6964206d6574686f64207369676e617475726500000000000000606482015290519081900360840190fd5b73ffffffffffffffffffffffffffffffffffffffff821660008181526004602090815260408083207fffffffff0000000000000000000000000000000000000000000000000000000086168085529083529281902080547fffffffffffffffffffffffffffffffffffffffffffffffffffffffffffffff001660011790558051928352517f190688d3ad83a240fa6749f3d9eda5b51877cc1f53d8d408f57f77d81c6c410e9281900390910190a25050565b600260208181526000928352604092839020805484516001821615610100027fffffffffffffffffffffffffffffffffffffffffffffffffffffffffffffffff0190911693909304601f81018390048302840183019094528383529283918301828280156109085780601f106108dd57610100808354040283529160200191610908565b820191906000526020600020905b8154815290600101906020018083116108eb57829003601f168201915b505050505090806001018054600181600116156101000203166002900480601f0160208091040260200160405190810160405280929190818152602001828054600181600116156101000203166002900480156109a65780601f1061097b576101008083540402835291602001916109a6565b820191906000526020600020905b81548152906001019060200180831161098957829003601f168201915b50505060028085018054604080516020601f7fffffffffffffffffffffffffffffffffffffffffffffffffffffffffffffffff6101006001871615020190941695909504928301859004850281018501909152818152959695945090925090830182828015610a565780601f10610a2b57610100808354040283529160200191610a56565b820191906000526020600020905b815481529060010190602001808311610a3957829003601f168201915b5050505050905083565b60015473ffffffffffffffffffffffffffffffffffffffff163314610a8457600080fd5b6001546000805460405173ffffffffffffffffffffffffffffffffffffffff93841693909116917f8be0079c531659141344cd1fd0a4f28419497f9722a3daafe3b4186f6b6457e091a360018054600080547fffffffffffffffffffffffff000000000000000000000000000000000000000090811673ffffffffffffffffffffffffffffffffffffffff841617909155169055565b60005473ffffffffffffffffffffffffffffffffffffffff163314610b3e57600080fd5b7fffffffff00000000000000000000000000000000000000000000000000000000811660009081526003602052604090205460ff161515610c0657604080517f08c379a000000000000000000000000000000000000000000000000000000000815260206004820152603d60248201527f5065726d697373696f6e206265696e672072656d6f766564206d75737420626560448201527f20666f7220612076616c6964206d6574686f64207369676e6174757265000000606482015290519081900360840190fd5b73ffffffffffffffffffffffffffffffffffffffff821660008181526004602090815260408083207fffffffff0000000000000000000000000000000000000000000000000000000086168085529083529281902080547fffffffffffffffffffffffffffffffffffffffffffffffffffffffffffffff001690558051928352517ff588bf9ea415beafc66d76db54e249a45b8d7a572f47bb36f48591aa560c549b9281900390910190a25050565b604080517f636f6e7665727457542875696e743235362900000000000000000000000000008152905190819003601201902081565b610cf2611222565b60005473ffffffffffffffffffffffffffffffffffffffff163314610d1657600080fd5b506040805160608101825284815260208101849052908101829052610d3b858261110f565b5050505050565b604080517f6d696e7428616464726573732c75696e743235362900000000000000000000008152905190819003601501902081565b604080517f6d696e744355534428616464726573732c75696e7432353629000000000000008152905190819003601901902081565b60005473ffffffffffffffffffffffffffffffffffffffff1681565b604080517f617070726f7665426c61636b6c6973746564416464726573735370656e64657281527f28616464726573732900000000000000000000000000000000000000000000006020820152905190819003602901902081565b60036020526000908152604090205460ff1681565b604080517f626c61636b6c69737465642829000000000000000000000000000000000000008152905190819003600d01902081565b604080517f64657374726f79426c61636b6c6973746564546f6b656e73286164647265737381527f2c75696e743235362900000000000000000000000000000000000000000000006020820152905190819003602901902081565b60005473ffffffffffffffffffffffffffffffffffffffff163314610eec57600080fd5b7fffffffff00000000000000000000000000000000000000000000000000000000811660008181526003602090815260409182902080547fffffffffffffffffffffffffffffffffffffffffffffffffffffffffffffff00169055815192835290517f65cd5526557cbd93f0739d00ffcdf8f4a663eb2ed509203d884b3470158724c19281900390910190a150565b604080517f6275726e436172626f6e446f6c6c617228616464726573732c75696e7432353681527f29000000000000000000000000000000000000000000000000000000000000006020820152905190819003602101902081565b604080517f6275726e2875696e7432353629000000000000000000000000000000000000008152905190819003600d01902081565b60015473ffffffffffffffffffffffffffffffffffffffff1681565b60005473ffffffffffffffffffffffffffffffffffffffff16331461104b57600080fd5b73ffffffffffffffffffffffffffffffffffffffff8116151561106d57600080fd5b600180547fffffffffffffffffffffffff00000000000000000000000000000000000000001673ffffffffffffffffffffffffffffffffffffffff92909216919091179055565b604080517f636f6e76657274436172626f6e446f6c6c617228616464726573732c75696e7481527f32353629000000000000000000000000000000000000000000000000000000006020820152905190819003602401902081565b7fffffffff0000000000000000000000000000000000000000000000000000000082166000908152600260209081526040909120825180518493611157928492910190611244565b5060208281015180516111709260018501920190611244565b506040820151805161118c916002840191602090910190611244565b5050507fffffffff00000000000000000000000000000000000000000000000000000000821660008181526003602090815260409182902080547fffffffffffffffffffffffffffffffffffffffffffffffffffffffffffffff00166001179055815192835290517f6195913f4ea9fc2f5193c9f6763975b23790b3be094b1eb18f318437390055129281900390910190a15050565b6060604051908101604052806060815260200160608152602001606081525090565b828054600181600116156101000203166002900490600052602060002090601f016020900481019282601f1061128557805160ff19168380011785556112b2565b828001600101855582156112b2579182015b828111156112b2578251825591602001919060010190611297565b506112be9291506112c2565b5090565b6112dc91905b808211156112be57600081556001016112c8565b905600a165627a7a72305820eb71c83d5f1d0c95aebc5555fef3803f9fc35089e1b44efc029e1347c96bb8f80029",
  "source": "pragma solidity ^0.4.24;\r\n\r\nimport \"../dataStorage/PermissionSheet.sol\";\r\n\r\n/**\r\n*\r\n* @dev creates a PermissionSheet-loaded with all permissions\r\n*\r\n*/\r\ncontract PermissionSheetMock is PermissionSheet {\r\n    /** \r\n        @dev Initializes common permissions\r\n     */\r\n    constructor() public {\r\n        setMintPermission();\r\n        setMintCUSDPermission();\r\n        setBurnPermission();\r\n        setConvertCarbonDollarPermission();\r\n        setBurnCarbonDollarPermission();\r\n        setConvertWTPermission();\r\n        setDestroyBlacklistedTokensPermission();\r\n        setApproveBlacklistedAddressSpenderPermission();\r\n        setDestroySelfPermission();\r\n    }\r\n\r\n    function setMintPermission() internal {\r\n        addPermission(MINT_SIG, \"\",\"\",\"\");\r\n    }\r\n    \r\n    function setMintCUSDPermission() internal {\r\n        addPermission(MINT_CUSD_SIG, \"\",\"\",\"\");\r\n    }\r\n\r\n    function setBurnPermission() internal {\r\n        addPermission(BURN_SIG, \"\",\"\",\"\");\r\n    }\r\n\r\n    function setConvertCarbonDollarPermission() internal {\r\n        addPermission(CONVERT_CARBON_DOLLAR_SIG, \"\",\"\",\"\");\r\n    }\r\n\r\n    function setBurnCarbonDollarPermission() internal {\r\n        addPermission(BURN_CARBON_DOLLAR_SIG, \"\",\"\",\"\");\r\n    }\r\n\r\n    function setConvertWTPermission() internal {\r\n        addPermission(CONVERT_WT_SIG, \"\",\"\",\"\");\r\n    }\r\n\r\n    function setDestroyBlacklistedTokensPermission() internal {\r\n        addPermission(DESTROY_BLACKLISTED_TOKENS_SIG, \"\",\"\",\"\");\r\n    }\r\n\r\n    function setApproveBlacklistedAddressSpenderPermission() internal {\r\n        addPermission(APPROVE_BLACKLISTED_ADDRESS_SPENDER_SIG, \"\",\"\",\"\");\r\n    }\r\n\r\n    function setDestroySelfPermission() internal {\r\n        addPermission(BLACKLISTED_SIG, \"\",\"\",\"\");\r\n    }\r\n}",
  "sourcePath": "C:\\Users\\npain\\Projects\\Carbon\\fiat_gateway\\contracts\\regulator\\mocks\\PermissionSheetMock.sol",
  "compiler": {
    "name": "solc",
    "version": "0.4.24+commit.e67f0147.Emscripten.clang"
  },
  "schemaVersion": "2.0.1",
  "updatedAt": "2018-08-18T15:48:20.664Z"
}