{
  "contractName": "PermissionSheet",
  "abi": [
    {
      "constant": true,
      "inputs": [
        {
          "name": "",
          "type": "address"
        },
        {
          "name": "",
          "type": "bytes4"
        }
      ],
      "name": "hasUserPermission",
      "outputs": [
        {
          "name": "",
          "type": "bool"
        }
      ],
      "payable": false,
      "stateMutability": "view",
      "type": "function"
    },
    {
      "constant": true,
      "inputs": [
        {
          "name": "",
          "type": "bytes4"
        }
      ],
      "name": "permissions",
      "outputs": [
        {
          "name": "name",
          "type": "string"
        },
        {
          "name": "description",
          "type": "string"
        },
        {
          "name": "contract_name",
          "type": "string"
        }
      ],
      "payable": false,
      "stateMutability": "view",
      "type": "function"
    },
    {
      "constant": true,
      "inputs": [],
      "name": "CONVERT_WT_SIG",
      "outputs": [
        {
          "name": "",
          "type": "bytes4"
        }
      ],
      "payable": false,
      "stateMutability": "view",
      "type": "function"
    },
    {
      "constant": false,
      "inputs": [],
      "name": "renounceOwnership",
      "outputs": [],
      "payable": false,
      "stateMutability": "nonpayable",
      "type": "function"
    },
    {
      "constant": true,
      "inputs": [],
      "name": "MINT_SIG",
      "outputs": [
        {
          "name": "",
          "type": "bytes4"
        }
      ],
      "payable": false,
      "stateMutability": "view",
      "type": "function"
    },
    {
      "constant": true,
      "inputs": [],
      "name": "MINT_CUSD_SIG",
      "outputs": [
        {
          "name": "",
          "type": "bytes4"
        }
      ],
      "payable": false,
      "stateMutability": "view",
      "type": "function"
    },
    {
      "constant": true,
      "inputs": [],
      "name": "owner",
      "outputs": [
        {
          "name": "",
          "type": "address"
        }
      ],
      "payable": false,
      "stateMutability": "view",
      "type": "function"
    },
    {
      "constant": true,
      "inputs": [],
      "name": "APPROVE_BLACKLISTED_ADDRESS_SPENDER_SIG",
      "outputs": [
        {
          "name": "",
          "type": "bytes4"
        }
      ],
      "payable": false,
      "stateMutability": "view",
      "type": "function"
    },
    {
      "constant": true,
      "inputs": [
        {
          "name": "",
          "type": "bytes4"
        }
      ],
      "name": "isPermission",
      "outputs": [
        {
          "name": "",
          "type": "bool"
        }
      ],
      "payable": false,
      "stateMutability": "view",
      "type": "function"
    },
    {
      "constant": true,
      "inputs": [],
      "name": "BLACKLISTED_SIG",
      "outputs": [
        {
          "name": "",
          "type": "bytes4"
        }
      ],
      "payable": false,
      "stateMutability": "view",
      "type": "function"
    },
    {
      "constant": true,
      "inputs": [],
      "name": "DESTROY_BLACKLISTED_TOKENS_SIG",
      "outputs": [
        {
          "name": "",
          "type": "bytes4"
        }
      ],
      "payable": false,
      "stateMutability": "view",
      "type": "function"
    },
    {
      "constant": true,
      "inputs": [],
      "name": "BURN_CARBON_DOLLAR_SIG",
      "outputs": [
        {
          "name": "",
          "type": "bytes4"
        }
      ],
      "payable": false,
      "stateMutability": "view",
      "type": "function"
    },
    {
      "constant": true,
      "inputs": [],
      "name": "BURN_SIG",
      "outputs": [
        {
          "name": "",
          "type": "bytes4"
        }
      ],
      "payable": false,
      "stateMutability": "view",
      "type": "function"
    },
    {
      "constant": false,
      "inputs": [
        {
          "name": "_newOwner",
          "type": "address"
        }
      ],
      "name": "transferOwnership",
      "outputs": [],
      "payable": false,
      "stateMutability": "nonpayable",
      "type": "function"
    },
    {
      "constant": true,
      "inputs": [],
      "name": "CONVERT_CARBON_DOLLAR_SIG",
      "outputs": [
        {
          "name": "",
          "type": "bytes4"
        }
      ],
      "payable": false,
      "stateMutability": "view",
      "type": "function"
    },
    {
      "anonymous": false,
      "inputs": [
        {
          "indexed": false,
          "name": "methodsignature",
          "type": "bytes4"
        }
      ],
      "name": "PermissionAdded",
      "type": "event"
    },
    {
      "anonymous": false,
      "inputs": [
        {
          "indexed": false,
          "name": "methodsignature",
          "type": "bytes4"
        }
      ],
      "name": "PermissionRemoved",
      "type": "event"
    },
    {
      "anonymous": false,
      "inputs": [
        {
          "indexed": true,
          "name": "who",
          "type": "address"
        },
        {
          "indexed": false,
          "name": "methodsignature",
          "type": "bytes4"
        }
      ],
      "name": "SetUserPermission",
      "type": "event"
    },
    {
      "anonymous": false,
      "inputs": [
        {
          "indexed": true,
          "name": "who",
          "type": "address"
        },
        {
          "indexed": false,
          "name": "methodsignature",
          "type": "bytes4"
        }
      ],
      "name": "RemovedUserPermission",
      "type": "event"
    },
    {
      "anonymous": false,
      "inputs": [
        {
          "indexed": true,
          "name": "previousOwner",
          "type": "address"
        }
      ],
      "name": "OwnershipRenounced",
      "type": "event"
    },
    {
      "anonymous": false,
      "inputs": [
        {
          "indexed": true,
          "name": "previousOwner",
          "type": "address"
        },
        {
          "indexed": true,
          "name": "newOwner",
          "type": "address"
        }
      ],
      "name": "OwnershipTransferred",
      "type": "event"
    },
    {
      "constant": false,
      "inputs": [
        {
          "name": "_methodsignature",
          "type": "bytes4"
        },
        {
          "name": "_permissionName",
          "type": "string"
        },
        {
          "name": "_permissionDescription",
          "type": "string"
        },
        {
          "name": "_contractName",
          "type": "string"
        }
      ],
      "name": "addPermission",
      "outputs": [],
      "payable": false,
      "stateMutability": "nonpayable",
      "type": "function"
    },
    {
      "constant": false,
      "inputs": [
        {
          "name": "_methodsignature",
          "type": "bytes4"
        }
      ],
      "name": "removePermission",
      "outputs": [],
      "payable": false,
      "stateMutability": "nonpayable",
      "type": "function"
    },
    {
      "constant": false,
      "inputs": [
        {
          "name": "_who",
          "type": "address"
        },
        {
          "name": "_methodsignature",
          "type": "bytes4"
        }
      ],
      "name": "setUserPermission",
      "outputs": [],
      "payable": false,
      "stateMutability": "nonpayable",
      "type": "function"
    },
    {
      "constant": false,
      "inputs": [
        {
          "name": "_who",
          "type": "address"
        },
        {
          "name": "_methodsignature",
          "type": "bytes4"
        }
      ],
      "name": "removeUserPermission",
      "outputs": [],
      "payable": false,
      "stateMutability": "nonpayable",
      "type": "function"
    }
  ],
  "bytecode": "0x608060405260008054600160a060020a031916331790556112f9806100256000396000f3006080604052600436106101065763ffffffff7c010000000000000000000000000000000000000000000000000000000060003504166314db6d58811461010b5780631c870eee14610172578063395a7b30146101c75780635317e44414610345578063639c44cf14610398578063715018a6146103e2578063780bfed0146103f757806388f14b0e146104f35780638b7c8109146105085780638da5cb5b1461051d5780638f959f541461055b578063933aa667146105705780639491951b146105aa578063ab96cb46146105bf578063b8ccbd17146105d4578063c1c49cbb1461060e578063cfbf1b9014610623578063f2fde38b14610638578063f9d5054314610666575b600080fd5b34801561011757600080fd5b5061015e73ffffffffffffffffffffffffffffffffffffffff600435167fffffffff000000000000000000000000000000000000000000000000000000006024351661067b565b604080519115158252519081900360200190f35b34801561017e57600080fd5b506101c573ffffffffffffffffffffffffffffffffffffffff600435167fffffffff000000000000000000000000000000000000000000000000000000006024351661069b565b005b3480156101d357600080fd5b506102017fffffffff0000000000000000000000000000000000000000000000000000000060043516610839565b60405180806020018060200180602001848103845287818151815260200191508051906020019080838360005b8381101561024657818101518382015260200161022e565b50505050905090810190601f1680156102735780820380516001836020036101000a031916815260200191505b50848103835286518152865160209182019188019080838360005b838110156102a657818101518382015260200161028e565b50505050905090810190601f1680156102d35780820380516001836020036101000a031916815260200191505b50848103825285518152855160209182019187019080838360005b838110156103065781810151838201526020016102ee565b50505050905090810190601f1680156103335780820380516001836020036101000a031916815260200191505b50965050505050505060405180910390f35b34801561035157600080fd5b506101c573ffffffffffffffffffffffffffffffffffffffff600435167fffffffff0000000000000000000000000000000000000000000000000000000060243516610a41565b3480156103a457600080fd5b506103ad610bdc565b604080517fffffffff000000000000000000000000000000000000000000000000000000009092168252519081900360200190f35b3480156103ee57600080fd5b506101c5610c11565b34801561040357600080fd5b5060408051602060046024803582810135601f81018590048502860185019096528585526101c59583357fffffffff000000000000000000000000000000000000000000000000000000001695369560449491939091019190819084018382808284375050604080516020601f89358b018035918201839004830284018301909452808352979a99988101979196509182019450925082915084018382808284375050604080516020601f89358b018035918201839004830284018301909452808352979a999881019791965091820194509250829150840183828082843750949750610ca29650505050505050565b3480156104ff57600080fd5b506103ad610cfa565b34801561051457600080fd5b506103ad610d2f565b34801561052957600080fd5b50610532610d64565b6040805173ffffffffffffffffffffffffffffffffffffffff9092168252519081900360200190f35b34801561056757600080fd5b506103ad610d80565b34801561057c57600080fd5b5061015e7fffffffff0000000000000000000000000000000000000000000000000000000060043516610ddb565b3480156105b657600080fd5b506103ad610df0565b3480156105cb57600080fd5b506103ad610e25565b3480156105e057600080fd5b506101c57fffffffff0000000000000000000000000000000000000000000000000000000060043516610e80565b34801561061a57600080fd5b506103ad610f33565b34801561062f57600080fd5b506103ad610f8e565b34801561064457600080fd5b506101c573ffffffffffffffffffffffffffffffffffffffff60043516610fc3565b34801561067257600080fd5b506103ad610ff3565b600360209081526000928352604080842090915290825290205460ff1681565b60005473ffffffffffffffffffffffffffffffffffffffff1633146106bf57600080fd5b7fffffffff00000000000000000000000000000000000000000000000000000000811660009081526002602052604090205460ff16151561078757604080517f08c379a000000000000000000000000000000000000000000000000000000000815260206004820152603960248201527f5065726d697373696f6e206265696e6720736574206d75737420626520666f7260448201527f20612076616c6964206d6574686f64207369676e617475726500000000000000606482015290519081900360840190fd5b73ffffffffffffffffffffffffffffffffffffffff821660008181526003602090815260408083207fffffffff0000000000000000000000000000000000000000000000000000000086168085529083529281902080547fffffffffffffffffffffffffffffffffffffffffffffffffffffffffffffff001660011790558051928352517f190688d3ad83a240fa6749f3d9eda5b51877cc1f53d8d408f57f77d81c6c410e9281900390910190a25050565b60016020818152600092835260409283902080548451600294821615610100027fffffffffffffffffffffffffffffffffffffffffffffffffffffffffffffffff0190911693909304601f81018390048302840183019094528383529283918301828280156108e95780601f106108be576101008083540402835291602001916108e9565b820191906000526020600020905b8154815290600101906020018083116108cc57829003601f168201915b505050505090806001018054600181600116156101000203166002900480601f0160208091040260200160405190810160405280929190818152602001828054600181600116156101000203166002900480156109875780601f1061095c57610100808354040283529160200191610987565b820191906000526020600020905b81548152906001019060200180831161096a57829003601f168201915b50505060028085018054604080516020601f7fffffffffffffffffffffffffffffffffffffffffffffffffffffffffffffffff6101006001871615020190941695909504928301859004850281018501909152818152959695945090925090830182828015610a375780601f10610a0c57610100808354040283529160200191610a37565b820191906000526020600020905b815481529060010190602001808311610a1a57829003601f168201915b5050505050905083565b60005473ffffffffffffffffffffffffffffffffffffffff163314610a6557600080fd5b7fffffffff00000000000000000000000000000000000000000000000000000000811660009081526002602052604090205460ff161515610b2d57604080517f08c379a000000000000000000000000000000000000000000000000000000000815260206004820152603d60248201527f5065726d697373696f6e206265696e672072656d6f766564206d75737420626560448201527f20666f7220612076616c6964206d6574686f64207369676e6174757265000000606482015290519081900360840190fd5b73ffffffffffffffffffffffffffffffffffffffff821660008181526003602090815260408083207fffffffff0000000000000000000000000000000000000000000000000000000086168085529083529281902080547fffffffffffffffffffffffffffffffffffffffffffffffffffffffffffffff001690558051928352517ff588bf9ea415beafc66d76db54e249a45b8d7a572f47bb36f48591aa560c549b9281900390910190a25050565b604080517f636f6e7665727457542875696e743235362900000000000000000000000000008152905190819003601201902081565b60005473ffffffffffffffffffffffffffffffffffffffff163314610c3557600080fd5b6000805460405173ffffffffffffffffffffffffffffffffffffffff909116917ff8df31144d9c2f0f6b59d69b8b98abd5459d07f2742c4df920b25aae33c6482091a2600080547fffffffffffffffffffffffff0000000000000000000000000000000000000000169055565b610caa611210565b60005473ffffffffffffffffffffffffffffffffffffffff163314610cce57600080fd5b506040805160608101825284815260208101849052908101829052610cf3858261104e565b5050505050565b604080517f6d696e7428616464726573732c75696e743235362900000000000000000000008152905190819003601501902081565b604080517f6d696e744355534428616464726573732c75696e7432353629000000000000008152905190819003601901902081565b60005473ffffffffffffffffffffffffffffffffffffffff1681565b604080517f617070726f7665426c61636b6c6973746564416464726573735370656e64657281527f28616464726573732900000000000000000000000000000000000000000000006020820152905190819003602901902081565b60026020526000908152604090205460ff1681565b604080517f626c61636b6c69737465642829000000000000000000000000000000000000008152905190819003600d01902081565b604080517f64657374726f79426c61636b6c6973746564546f6b656e73286164647265737381527f2c75696e743235362900000000000000000000000000000000000000000000006020820152905190819003602901902081565b60005473ffffffffffffffffffffffffffffffffffffffff163314610ea457600080fd5b7fffffffff00000000000000000000000000000000000000000000000000000000811660008181526002602090815260409182902080547fffffffffffffffffffffffffffffffffffffffffffffffffffffffffffffff00169055815192835290517f65cd5526557cbd93f0739d00ffcdf8f4a663eb2ed509203d884b3470158724c19281900390910190a150565b604080517f6275726e436172626f6e446f6c6c617228616464726573732c75696e7432353681527f29000000000000000000000000000000000000000000000000000000000000006020820152905190819003602101902081565b604080517f6275726e2875696e7432353629000000000000000000000000000000000000008152905190819003600d01902081565b60005473ffffffffffffffffffffffffffffffffffffffff163314610fe757600080fd5b610ff081611161565b50565b604080517f636f6e76657274436172626f6e446f6c6c617228616464726573732c75696e7481527f32353629000000000000000000000000000000000000000000000000000000006020820152905190819003602401902081565b7fffffffff0000000000000000000000000000000000000000000000000000000082166000908152600160209081526040909120825180518493611096928492910190611232565b5060208281015180516110af9260018501920190611232565b50604082015180516110cb916002840191602090910190611232565b5050507fffffffff00000000000000000000000000000000000000000000000000000000821660008181526002602090815260409182902080547fffffffffffffffffffffffffffffffffffffffffffffffffffffffffffffff00166001179055815192835290517f6195913f4ea9fc2f5193c9f6763975b23790b3be094b1eb18f318437390055129281900390910190a15050565b73ffffffffffffffffffffffffffffffffffffffff8116151561118357600080fd5b6000805460405173ffffffffffffffffffffffffffffffffffffffff808516939216917f8be0079c531659141344cd1fd0a4f28419497f9722a3daafe3b4186f6b6457e091a3600080547fffffffffffffffffffffffff00000000000000000000000000000000000000001673ffffffffffffffffffffffffffffffffffffffff92909216919091179055565b6060604051908101604052806060815260200160608152602001606081525090565b828054600181600116156101000203166002900490600052602060002090601f016020900481019282601f1061127357805160ff19168380011785556112a0565b828001600101855582156112a0579182015b828111156112a0578251825591602001919060010190611285565b506112ac9291506112b0565b5090565b6112ca91905b808211156112ac57600081556001016112b6565b905600a165627a7a723058205b8581e8aa8ba77ee2ba2a3ffc7d73c6bb45110a1f4f1a16228dd348ba9426b40029",
  "source": "pragma solidity ^0.4.24;\r\n\r\nimport \"openzeppelin-solidity/contracts/ownership/Ownable.sol\";\r\n\r\n/**\r\n * @title PermissionSheet\r\n * @dev Stores all of the possible token-level permissions that a user can have access to. For example,\r\n * a user can potentially burn or mint a token. Also maps the permissions\r\n * to each user.\r\n *\r\n */\r\n\r\ncontract PermissionSheet is Ownable {\r\n\t\r\n    /** \r\n        Mappings \r\n    */\r\n\r\n    /* method signature => Permission struct containing details about that permission */\r\n    mapping (bytes4 => Permission) public permissions;\r\n    /* method signature => is this signature currently used as a permission? */\r\n    mapping (bytes4 => bool) public isPermission;\r\n    /* (user address => (methodsignature => does user have permission to execute it?)) */\r\n    mapping (address => mapping(bytes4 => bool)) public hasUserPermission;\r\n\r\n    /** \r\n        Structs \r\n    */\r\n\r\n    /* Contains metadata about a permission to execute a particular method signature. */\r\n    struct Permission {\r\n        string name; // A one-word description for the permission. e.g. \"canMint\"\r\n        string description; // A longer description for the permission. e.g. \"Allows user to mint tokens.\"\r\n        string contract_name; // e.g. \"PermissionedToken\"\r\n    }\r\n\r\n    /** \r\n        Events \r\n    */\r\n    event PermissionAdded(bytes4 methodsignature);\r\n    event PermissionRemoved(bytes4 methodsignature);\r\n    event SetUserPermission(address indexed who, bytes4 methodsignature);\r\n    event RemovedUserPermission(address indexed who, bytes4 methodsignature);\r\n\r\n    /** \r\n        Constants: stores method signatures \r\n    */\r\n    bytes4 public constant MINT_SIG = bytes4(keccak256(\"mint(address,uint256)\"));\r\n    bytes4 public constant MINT_CUSD_SIG = bytes4(keccak256(\"mintCUSD(address,uint256)\"));\r\n    bytes4 public constant CONVERT_WT_SIG = bytes4(keccak256(\"convertWT(uint256)\"));\r\n    bytes4 public constant BURN_SIG = bytes4(keccak256(\"burn(uint256)\"));\r\n    bytes4 public constant CONVERT_CARBON_DOLLAR_SIG = bytes4(keccak256(\"convertCarbonDollar(address,uint256)\"));\r\n    bytes4 public constant BURN_CARBON_DOLLAR_SIG = bytes4(keccak256(\"burnCarbonDollar(address,uint256)\"));\r\n    bytes4 public constant DESTROY_BLACKLISTED_TOKENS_SIG = bytes4(keccak256(\"destroyBlacklistedTokens(address,uint256)\"));\r\n    bytes4 public constant APPROVE_BLACKLISTED_ADDRESS_SPENDER_SIG = bytes4(keccak256(\"approveBlacklistedAddressSpender(address)\"));\r\n    bytes4 public constant BLACKLISTED_SIG = bytes4(keccak256(\"blacklisted()\"));\r\n\r\n    /**\r\n    * @notice Sets a permission within the list of permissions.\r\n    * @param _methodsignature Signature of the method that this permission controls.\r\n    * @param _permissionName A \"slug\" name for this permission (e.g. \"canMint\").\r\n    * @param _permissionDescription A lengthier description for this permission (e.g. \"Allows user to mint tokens\").\r\n    * @param _contractName Name of the contract that the method belongs to.\r\n    */\r\n    function addPermission(\r\n        bytes4 _methodsignature, \r\n        string _permissionName, \r\n        string _permissionDescription, \r\n        string _contractName) public onlyOwner { \r\n        Permission memory p = Permission(_permissionName, _permissionDescription, _contractName);\r\n        _addPermission(_methodsignature, p);\r\n    }\r\n\r\n     /**\r\n    * @notice Sets a permission within the list of permissions.\r\n    * @param _methodsignature Signature of the method that this permission controls.\r\n    * @param _permission A struct containing permission information.\r\n    */\r\n    function _addPermission(bytes4 _methodsignature, Permission _permission) internal {\r\n        permissions[_methodsignature] = _permission;\r\n        isPermission[_methodsignature] = true;\r\n        emit PermissionAdded(_methodsignature);\r\n\r\n    }\r\n\r\n    /**\r\n    * @notice Removes a permission the list of permissions.\r\n    * @param _methodsignature Signature of the method that this permission controls.\r\n    */\r\n    function removePermission(bytes4 _methodsignature) public onlyOwner {\r\n        isPermission[_methodsignature] = false;\r\n        emit PermissionRemoved(_methodsignature);\r\n    }\r\n    \r\n    /**\r\n    * @notice Sets a permission in the list of permissions that a user has.\r\n    * @param _methodsignature Signature of the method that this permission controls.\r\n    */\r\n    function setUserPermission(address _who, bytes4 _methodsignature) public onlyOwner {\r\n        require(isPermission[_methodsignature], \"Permission being set must be for a valid method signature\");\r\n        hasUserPermission[_who][_methodsignature] = true;\r\n        emit SetUserPermission(_who, _methodsignature);\r\n    }\r\n\r\n    /**\r\n    * @notice Removes a permission from the list of permissions that a user has.\r\n    * @param _methodsignature Signature of the method that this permission controls.\r\n    */\r\n    function removeUserPermission(address _who, bytes4 _methodsignature) public onlyOwner {\r\n        require(isPermission[_methodsignature], \"Permission being removed must be for a valid method signature\");\r\n        hasUserPermission[_who][_methodsignature] = false;\r\n        emit RemovedUserPermission(_who, _methodsignature);\r\n    }\r\n}",
  "sourcePath": "C:\\Users\\Max Piasevoli\\Desktop\\Carbon\\fiat_gateway\\contracts\\regulator\\dataStorage\\PermissionSheet.sol",
  "compiler": {
    "name": "solc",
    "version": "0.4.24+commit.e67f0147.Emscripten.clang"
  },
  "schemaVersion": "2.0.1",
  "updatedAt": "2018-08-16T17:04:42.192Z"
}