{
  "contractName": "PermissionedToken",
  "abi": [
    {
      "constant": false,
      "inputs": [
        {
          "name": "_spender",
          "type": "address"
        },
        {
          "name": "_value",
          "type": "uint256"
        }
      ],
      "name": "approve",
      "outputs": [
        {
          "name": "",
          "type": "bool"
        }
      ],
      "payable": false,
      "stateMutability": "nonpayable",
      "type": "function"
    },
    {
      "constant": true,
      "inputs": [],
      "name": "totalSupply",
      "outputs": [
        {
          "name": "",
          "type": "uint256"
        }
      ],
      "payable": false,
      "stateMutability": "view",
      "type": "function"
    },
    {
      "constant": true,
      "inputs": [],
      "name": "allowances",
      "outputs": [
        {
          "name": "",
          "type": "address"
        }
      ],
      "payable": false,
      "stateMutability": "view",
      "type": "function"
    },
    {
      "constant": false,
      "inputs": [],
      "name": "unpause",
      "outputs": [],
      "payable": false,
      "stateMutability": "nonpayable",
      "type": "function"
    },
    {
      "constant": false,
      "inputs": [],
      "name": "claimOwnership",
      "outputs": [],
      "payable": false,
      "stateMutability": "nonpayable",
      "type": "function"
    },
    {
      "constant": false,
      "inputs": [
        {
          "name": "_sheet",
          "type": "address"
        }
      ],
      "name": "setBalanceSheet",
      "outputs": [
        {
          "name": "",
          "type": "bool"
        }
      ],
      "payable": false,
      "stateMutability": "nonpayable",
      "type": "function"
    },
    {
      "constant": true,
      "inputs": [],
      "name": "paused",
      "outputs": [
        {
          "name": "",
          "type": "bool"
        }
      ],
      "payable": false,
      "stateMutability": "view",
      "type": "function"
    },
    {
      "constant": false,
      "inputs": [
        {
          "name": "_spender",
          "type": "address"
        },
        {
          "name": "_subtractedValue",
          "type": "uint256"
        }
      ],
      "name": "decreaseApproval",
      "outputs": [
        {
          "name": "",
          "type": "bool"
        }
      ],
      "payable": false,
      "stateMutability": "nonpayable",
      "type": "function"
    },
    {
      "constant": true,
      "inputs": [
        {
          "name": "_owner",
          "type": "address"
        }
      ],
      "name": "balanceOf",
      "outputs": [
        {
          "name": "balance",
          "type": "uint256"
        }
      ],
      "payable": false,
      "stateMutability": "view",
      "type": "function"
    },
    {
      "constant": false,
      "inputs": [],
      "name": "renounceOwnership",
      "outputs": [],
      "payable": false,
      "stateMutability": "nonpayable",
      "type": "function"
    },
    {
      "constant": true,
      "inputs": [],
      "name": "balances",
      "outputs": [
        {
          "name": "",
          "type": "address"
        }
      ],
      "payable": false,
      "stateMutability": "view",
      "type": "function"
    },
    {
      "constant": false,
      "inputs": [],
      "name": "pause",
      "outputs": [],
      "payable": false,
      "stateMutability": "nonpayable",
      "type": "function"
    },
    {
      "constant": true,
      "inputs": [],
      "name": "owner",
      "outputs": [
        {
          "name": "",
          "type": "address"
        }
      ],
      "payable": false,
      "stateMutability": "view",
      "type": "function"
    },
    {
      "constant": true,
      "inputs": [],
      "name": "rProxy",
      "outputs": [
        {
          "name": "",
          "type": "address"
        }
      ],
      "payable": false,
      "stateMutability": "view",
      "type": "function"
    },
    {
      "constant": false,
      "inputs": [
        {
          "name": "_spender",
          "type": "address"
        },
        {
          "name": "_addedValue",
          "type": "uint256"
        }
      ],
      "name": "increaseApproval",
      "outputs": [
        {
          "name": "",
          "type": "bool"
        }
      ],
      "payable": false,
      "stateMutability": "nonpayable",
      "type": "function"
    },
    {
      "constant": true,
      "inputs": [
        {
          "name": "_owner",
          "type": "address"
        },
        {
          "name": "_spender",
          "type": "address"
        }
      ],
      "name": "allowance",
      "outputs": [
        {
          "name": "",
          "type": "uint256"
        }
      ],
      "payable": false,
      "stateMutability": "view",
      "type": "function"
    },
    {
      "constant": true,
      "inputs": [],
      "name": "pendingOwner",
      "outputs": [
        {
          "name": "",
          "type": "address"
        }
      ],
      "payable": false,
      "stateMutability": "view",
      "type": "function"
    },
    {
      "constant": false,
      "inputs": [
        {
          "name": "_sheet",
          "type": "address"
        }
      ],
      "name": "setAllowanceSheet",
      "outputs": [
        {
          "name": "",
          "type": "bool"
        }
      ],
      "payable": false,
      "stateMutability": "nonpayable",
      "type": "function"
    },
    {
      "constant": false,
      "inputs": [
        {
          "name": "newOwner",
          "type": "address"
        }
      ],
      "name": "transferOwnership",
      "outputs": [],
      "payable": false,
      "stateMutability": "nonpayable",
      "type": "function"
    },
    {
      "inputs": [
        {
          "name": "_rProxy",
          "type": "address"
        }
      ],
      "payable": false,
      "stateMutability": "nonpayable",
      "type": "constructor"
    },
    {
      "anonymous": false,
      "inputs": [
        {
          "indexed": false,
          "name": "oldProxy",
          "type": "address"
        },
        {
          "indexed": false,
          "name": "newProxy",
          "type": "address"
        }
      ],
      "name": "ChangedRegulatorProxy",
      "type": "event"
    },
    {
      "anonymous": false,
      "inputs": [
        {
          "indexed": false,
          "name": "oldRegulator",
          "type": "address"
        },
        {
          "indexed": false,
          "name": "newRegulator",
          "type": "address"
        }
      ],
      "name": "ChangedRegulator",
      "type": "event"
    },
    {
      "anonymous": false,
      "inputs": [
        {
          "indexed": false,
          "name": "oldRegulator",
          "type": "address"
        },
        {
          "indexed": false,
          "name": "newRegulator",
          "type": "address"
        }
      ],
      "name": "RegulatorUserPermissionsMigrated",
      "type": "event"
    },
    {
      "anonymous": false,
      "inputs": [
        {
          "indexed": false,
          "name": "oldRegulator",
          "type": "address"
        },
        {
          "indexed": false,
          "name": "newRegulator",
          "type": "address"
        }
      ],
      "name": "RegulatorPermissionStorageMigrated",
      "type": "event"
    },
    {
      "anonymous": false,
      "inputs": [
        {
          "indexed": false,
          "name": "account",
          "type": "address"
        },
        {
          "indexed": false,
          "name": "amount",
          "type": "uint256"
        }
      ],
      "name": "DestroyedBlacklistedTokens",
      "type": "event"
    },
    {
      "anonymous": false,
      "inputs": [
        {
          "indexed": true,
          "name": "user",
          "type": "address"
        },
        {
          "indexed": false,
          "name": "balance_before_destruction",
          "type": "uint256"
        }
      ],
      "name": "UserDestroyedSelf",
      "type": "event"
    },
    {
      "anonymous": false,
      "inputs": [],
      "name": "Pause",
      "type": "event"
    },
    {
      "anonymous": false,
      "inputs": [],
      "name": "Unpause",
      "type": "event"
    },
    {
      "anonymous": false,
      "inputs": [
        {
          "indexed": true,
          "name": "to",
          "type": "address"
        },
        {
          "indexed": false,
          "name": "value",
          "type": "uint256"
        }
      ],
      "name": "Mint",
      "type": "event"
    },
    {
      "anonymous": false,
      "inputs": [
        {
          "indexed": true,
          "name": "burner",
          "type": "address"
        },
        {
          "indexed": false,
          "name": "value",
          "type": "uint256"
        },
        {
          "indexed": false,
          "name": "note",
          "type": "string"
        }
      ],
      "name": "Burn",
      "type": "event"
    },
    {
      "anonymous": false,
      "inputs": [
        {
          "indexed": true,
          "name": "sheet",
          "type": "address"
        }
      ],
      "name": "AllowanceSheetSet",
      "type": "event"
    },
    {
      "anonymous": false,
      "inputs": [
        {
          "indexed": true,
          "name": "sheet",
          "type": "address"
        }
      ],
      "name": "BalanceSheetSet",
      "type": "event"
    },
    {
      "anonymous": false,
      "inputs": [
        {
          "indexed": true,
          "name": "previousOwner",
          "type": "address"
        }
      ],
      "name": "OwnershipRenounced",
      "type": "event"
    },
    {
      "anonymous": false,
      "inputs": [
        {
          "indexed": true,
          "name": "previousOwner",
          "type": "address"
        },
        {
          "indexed": true,
          "name": "newOwner",
          "type": "address"
        }
      ],
      "name": "OwnershipTransferred",
      "type": "event"
    },
    {
      "anonymous": false,
      "inputs": [
        {
          "indexed": true,
          "name": "owner",
          "type": "address"
        },
        {
          "indexed": true,
          "name": "spender",
          "type": "address"
        },
        {
          "indexed": false,
          "name": "value",
          "type": "uint256"
        }
      ],
      "name": "Approval",
      "type": "event"
    },
    {
      "anonymous": false,
      "inputs": [
        {
          "indexed": true,
          "name": "from",
          "type": "address"
        },
        {
          "indexed": true,
          "name": "to",
          "type": "address"
        },
        {
          "indexed": false,
          "name": "value",
          "type": "uint256"
        }
      ],
      "name": "Transfer",
      "type": "event"
    },
    {
      "constant": false,
      "inputs": [
        {
          "name": "_rProxy",
          "type": "address"
        }
      ],
      "name": "setRegulatorProxy",
      "outputs": [],
      "payable": false,
      "stateMutability": "nonpayable",
      "type": "function"
    },
    {
      "constant": false,
      "inputs": [
        {
          "name": "_reg",
          "type": "address"
        },
        {
          "name": "_migrateData",
          "type": "bool"
        }
      ],
      "name": "setRegulator",
      "outputs": [],
      "payable": false,
      "stateMutability": "nonpayable",
      "type": "function"
    },
    {
      "constant": false,
      "inputs": [
        {
          "name": "_oldRegulatorAddr",
          "type": "address"
        }
      ],
      "name": "migrateAllRegulatorData",
      "outputs": [],
      "payable": false,
      "stateMutability": "nonpayable",
      "type": "function"
    },
    {
      "constant": false,
      "inputs": [
        {
          "name": "_oldRegulatorAddr",
          "type": "address"
        }
      ],
      "name": "migrateUserPermissionsStorage",
      "outputs": [],
      "payable": false,
      "stateMutability": "nonpayable",
      "type": "function"
    },
    {
      "constant": false,
      "inputs": [
        {
          "name": "_oldRegulatorAddr",
          "type": "address"
        }
      ],
      "name": "migratePermissionStorage",
      "outputs": [],
      "payable": false,
      "stateMutability": "nonpayable",
      "type": "function"
    },
    {
      "constant": false,
      "inputs": [
        {
          "name": "_to",
          "type": "address"
        },
        {
          "name": "_amount",
          "type": "uint256"
        }
      ],
      "name": "mint",
      "outputs": [
        {
          "name": "",
          "type": "bool"
        }
      ],
      "payable": false,
      "stateMutability": "nonpayable",
      "type": "function"
    },
    {
      "constant": false,
      "inputs": [
        {
          "name": "_amount",
          "type": "uint256"
        }
      ],
      "name": "burn",
      "outputs": [
        {
          "name": "",
          "type": "bool"
        }
      ],
      "payable": false,
      "stateMutability": "nonpayable",
      "type": "function"
    },
    {
      "constant": false,
      "inputs": [
        {
          "name": "_value",
          "type": "uint256"
        },
        {
          "name": "_note",
          "type": "string"
        }
      ],
      "name": "burn",
      "outputs": [
        {
          "name": "",
          "type": "bool"
        }
      ],
      "payable": false,
      "stateMutability": "nonpayable",
      "type": "function"
    },
    {
      "constant": false,
      "inputs": [
        {
          "name": "_who",
          "type": "address"
        }
      ],
      "name": "destroyBlacklistedTokens",
      "outputs": [],
      "payable": false,
      "stateMutability": "nonpayable",
      "type": "function"
    },
    {
      "constant": false,
      "inputs": [
        {
          "name": "_to",
          "type": "address"
        },
        {
          "name": "_amount",
          "type": "uint256"
        }
      ],
      "name": "transfer",
      "outputs": [
        {
          "name": "",
          "type": "bool"
        }
      ],
      "payable": false,
      "stateMutability": "nonpayable",
      "type": "function"
    },
    {
      "constant": false,
      "inputs": [
        {
          "name": "_from",
          "type": "address"
        },
        {
          "name": "_to",
          "type": "address"
        },
        {
          "name": "_amount",
          "type": "uint256"
        }
      ],
      "name": "transferFrom",
      "outputs": [
        {
          "name": "",
          "type": "bool"
        }
      ],
      "payable": false,
      "stateMutability": "nonpayable",
      "type": "function"
    },
    {
      "constant": false,
      "inputs": [],
      "name": "destroySelf",
      "outputs": [
        {
          "name": "",
          "type": "bool"
        }
      ],
      "payable": false,
      "stateMutability": "nonpayable",
      "type": "function"
    }
  ],
  "bytecode": "0x60806040526000600460146101000a81548160ff0219169083151502179055503480156200002c57600080fd5b50604051602080620049a183398101806040528101908080519060200190929190505050336000806101000a81548173ffffffffffffffffffffffffffffffffffffffff021916908373ffffffffffffffffffffffffffffffffffffffff160217905550620000aa81620000b1640100000000026401000000009004565b506200024e565b60008060009054906101000a900473ffffffffffffffffffffffffffffffffffffffff1673ffffffffffffffffffffffffffffffffffffffff163373ffffffffffffffffffffffffffffffffffffffff161415156200010f57600080fd5b6200012e826200023b6401000000000262002f99176401000000009004565b15156200013a57600080fd5b600560009054906101000a900473ffffffffffffffffffffffffffffffffffffffff16905081600560006101000a81548173ffffffffffffffffffffffffffffffffffffffff021916908373ffffffffffffffffffffffffffffffffffffffff1602179055507f7f597d4bfdaa690ec812caf4a8134905c02e65103fd73f41f374d8828465ffaf8183604051808373ffffffffffffffffffffffffffffffffffffffff1673ffffffffffffffffffffffffffffffffffffffff1681526020018273ffffffffffffffffffffffffffffffffffffffff1673ffffffffffffffffffffffffffffffffffffffff1681526020019250505060405180910390a15050565b600080823b905060008111915050919050565b614743806200025e6000396000f30060806040526004361061018b576000357c0100000000000000000000000000000000000000000000000000000000900463ffffffff168063095ea7b31461019057806318160ddd146101f55780631e2186ae146102205780631e5bd14a1461024f57806323b872dd1461029e5780633d45befc146103235780633ed10b92146103665780633f4ba83a146103bd57806340c10f19146103d457806342966c68146104395780634a08b0311461047e5780634a59d941146104c15780634e71e0c81461050457806354f78dad1461051b5780635c975abb1461057657806366188463146105a557806370a082311461060a578063715018a6146106615780637641e6f3146106785780637bb98a68146107035780638456cb591461075a5780638da5cb5b14610771578063a0bb4a1a146107c8578063a9059cbb1461081f578063bb9a968314610884578063c08b6186146108c7578063d73dd6231461090a578063dd62ed3e1461096f578063e30c3978146109e6578063edc1e4f914610a3d578063f2fde38b14610a98575b600080fd5b34801561019c57600080fd5b506101db600480360381019080803573ffffffffffffffffffffffffffffffffffffffff16906020019092919080359060200190929190505050610adb565b604051808215151515815260200191505060405180910390f35b34801561020157600080fd5b5061020a610af2565b6040518082815260200191505060405180910390f35b34801561022c57600080fd5b50610235610afc565b604051808215151515815260200191505060405180910390f35b34801561025b57600080fd5b5061029c600480360381019080803573ffffffffffffffffffffffffffffffffffffffff169060200190929190803515159060200190929190505050610dbd565b005b3480156102aa57600080fd5b50610309600480360381019080803573ffffffffffffffffffffffffffffffffffffffff169060200190929190803573ffffffffffffffffffffffffffffffffffffffff16906020019092919080359060200190929190505050611055565b604051808215151515815260200191505060405180910390f35b34801561032f57600080fd5b50610364600480360381019080803573ffffffffffffffffffffffffffffffffffffffff1690602001909291905050506112f6565b005b34801561037257600080fd5b5061037b611468565b604051808273ffffffffffffffffffffffffffffffffffffffff1673ffffffffffffffffffffffffffffffffffffffff16815260200191505060405180910390f35b3480156103c957600080fd5b506103d261148e565b005b3480156103e057600080fd5b5061041f600480360381019080803573ffffffffffffffffffffffffffffffffffffffff1690602001909291908035906020019092919050505061154d565b604051808215151515815260200191505060405180910390f35b34801561044557600080fd5b50610464600480360381019080803590602001909291905050506116d1565b604051808215151515815260200191505060405180910390f35b34801561048a57600080fd5b506104bf600480360381019080803573ffffffffffffffffffffffffffffffffffffffff169060200190929190505050611864565b005b3480156104cd57600080fd5b50610502600480360381019080803573ffffffffffffffffffffffffffffffffffffffff169060200190929190505050611b15565b005b34801561051057600080fd5b50610519611dc6565b005b34801561052757600080fd5b5061055c600480360381019080803573ffffffffffffffffffffffffffffffffffffffff169060200190929190505050611f65565b604051808215151515815260200191505060405180910390f35b34801561058257600080fd5b5061058b6120ed565b604051808215151515815260200191505060405180910390f35b3480156105b157600080fd5b506105f0600480360381019080803573ffffffffffffffffffffffffffffffffffffffff16906020019092919080359060200190929190505050612100565b604051808215151515815260200191505060405180910390f35b34801561061657600080fd5b5061064b600480360381019080803573ffffffffffffffffffffffffffffffffffffffff169060200190929190505050612117565b6040518082815260200191505060405180910390f35b34801561066d57600080fd5b50610676612218565b005b34801561068457600080fd5b506106e960048036038101908080359060200190929190803590602001908201803590602001908080601f016020809104026020016040519081016040528093929190818152602001838380828437820191505050505050919291929050505061231a565b604051808215151515815260200191505060405180910390f35b34801561070f57600080fd5b50610718612331565b604051808273ffffffffffffffffffffffffffffffffffffffff1673ffffffffffffffffffffffffffffffffffffffff16815260200191505060405180910390f35b34801561076657600080fd5b5061076f612357565b005b34801561077d57600080fd5b50610786612417565b604051808273ffffffffffffffffffffffffffffffffffffffff1673ffffffffffffffffffffffffffffffffffffffff16815260200191505060405180910390f35b3480156107d457600080fd5b506107dd61243c565b604051808273ffffffffffffffffffffffffffffffffffffffff1673ffffffffffffffffffffffffffffffffffffffff16815260200191505060405180910390f35b34801561082b57600080fd5b5061086a600480360381019080803573ffffffffffffffffffffffffffffffffffffffff16906020019092919080359060200190929190505050612462565b604051808215151515815260200191505060405180910390f35b34801561089057600080fd5b506108c5600480360381019080803573ffffffffffffffffffffffffffffffffffffffff1690602001909291905050506125fb565b005b3480156108d357600080fd5b50610908600480360381019080803573ffffffffffffffffffffffffffffffffffffffff169060200190929190505050612b4a565b005b34801561091657600080fd5b50610955600480360381019080803573ffffffffffffffffffffffffffffffffffffffff16906020019092919080359060200190929190505050612bba565b604051808215151515815260200191505060405180910390f35b34801561097b57600080fd5b506109d0600480360381019080803573ffffffffffffffffffffffffffffffffffffffff169060200190929190803573ffffffffffffffffffffffffffffffffffffffff169060200190929190505050612bd1565b6040518082815260200191505060405180910390f35b3480156109f257600080fd5b506109fb612d07565b604051808273ffffffffffffffffffffffffffffffffffffffff1673ffffffffffffffffffffffffffffffffffffffff16815260200191505060405180910390f35b348015610a4957600080fd5b50610a7e600480360381019080803573ffffffffffffffffffffffffffffffffffffffff169060200190929190505050612d2d565b604051808215151515815260200191505060405180910390f35b348015610aa457600080fd5b50610ad9600480360381019080803573ffffffffffffffffffffffffffffffffffffffff169060200190929190505050612eb5565b005b6000610ae8838333612f54565b6001905092915050565b6000600354905090565b600080600560009054906101000a900473ffffffffffffffffffffffffffffffffffffffff1673ffffffffffffffffffffffffffffffffffffffff1663bed98a0d336000357fffffffff00000000000000000000000000000000000000000000000000000000166040518363ffffffff167c0100000000000000000000000000000000000000000000000000000000028152600401808373ffffffffffffffffffffffffffffffffffffffff1673ffffffffffffffffffffffffffffffffffffffff168152602001827bffffffffffffffffffffffffffffffffffffffffffffffffffffffff19167bffffffffffffffffffffffffffffffffffffffffffffffffffffffff1916815260200192505050602060405180830381600087803b158015610c2657600080fd5b505af1158015610c3a573d6000803e3d6000fd5b505050506040513d6020811015610c5057600080fd5b81019080805190602001909291905050501515610c6c57600080fd5b610c7533612117565b9050600260009054906101000a900473ffffffffffffffffffffffffffffffffffffffff1673ffffffffffffffffffffffffffffffffffffffff1663e30443bc3360006040518363ffffffff167c0100000000000000000000000000000000000000000000000000000000028152600401808373ffffffffffffffffffffffffffffffffffffffff1673ffffffffffffffffffffffffffffffffffffffff16815260200182815260200192505050600060405180830381600087803b158015610d3d57600080fd5b505af1158015610d51573d6000803e3d6000fd5b50505050610d6a81600354612f8090919063ffffffff16565b503373ffffffffffffffffffffffffffffffffffffffff167f6d6c0e0c3d47211ca1ed288ed1437a1326f0082be6bfe32351b35387941f6388826040518082815260200191505060405180910390a25090565b6000806000809054906101000a900473ffffffffffffffffffffffffffffffffffffffff1673ffffffffffffffffffffffffffffffffffffffff163373ffffffffffffffffffffffffffffffffffffffff16141515610e1b57600080fd5b610e2484612f99565b1515610e2f57600080fd5b600560009054906101000a900473ffffffffffffffffffffffffffffffffffffffff1691508173ffffffffffffffffffffffffffffffffffffffff16635c60da1b6040518163ffffffff167c0100000000000000000000000000000000000000000000000000000000028152600401602060405180830381600087803b158015610eb857600080fd5b505af1158015610ecc573d6000803e3d6000fd5b505050506040513d6020811015610ee257600080fd5b810190808051906020019092919050505090508173ffffffffffffffffffffffffffffffffffffffff16633659cfe6856040518263ffffffff167c0100000000000000000000000000000000000000000000000000000000028152600401808273ffffffffffffffffffffffffffffffffffffffff1673ffffffffffffffffffffffffffffffffffffffff168152602001915050600060405180830381600087803b158015610f9057600080fd5b505af1158015610fa4573d6000803e3d6000fd5b505050508215610fb857610fb781612b4a565b5b7f4a59b4b607c6055b37a4716d7813d7d4d2c288e4d0dd8298e365b260a1f262e88185604051808373ffffffffffffffffffffffffffffffffffffffff1673ffffffffffffffffffffffffffffffffffffffff1681526020018273ffffffffffffffffffffffffffffffffffffffff1673ffffffffffffffffffffffffffffffffffffffff1681526020019250505060405180910390a150505050565b600081600260009054906101000a900473ffffffffffffffffffffffffffffffffffffffff1673ffffffffffffffffffffffffffffffffffffffff1663f8b2cb4f866040518263ffffffff167c0100000000000000000000000000000000000000000000000000000000028152600401808273ffffffffffffffffffffffffffffffffffffffff1673ffffffffffffffffffffffffffffffffffffffff168152602001915050602060405180830381600087803b15801561111557600080fd5b505af1158015611129573d6000803e3d6000fd5b505050506040513d602081101561113f57600080fd5b810190808051906020019092919050505010151561115c57600080fd5b600560009054906101000a900473ffffffffffffffffffffffffffffffffffffffff1673ffffffffffffffffffffffffffffffffffffffff1663bed98a0d8460405180807f64657374726f7953656c66282900000000000000000000000000000000000000815250600d01905060405180910390206040518363ffffffff167c0100000000000000000000000000000000000000000000000000000000028152600401808373ffffffffffffffffffffffffffffffffffffffff1673ffffffffffffffffffffffffffffffffffffffff168152602001827bffffffffffffffffffffffffffffffffffffffffffffffffffffffff19167bffffffffffffffffffffffffffffffffffffffffffffffffffffffff1916815260200192505050602060405180830381600087803b15801561129457600080fd5b505af11580156112a8573d6000803e3d6000fd5b505050506040513d60208110156112be57600080fd5b810190808051906020019092919050505015156112ea576112e184848433612fac565b600190506112ef565b600090505b9392505050565b60008060009054906101000a900473ffffffffffffffffffffffffffffffffffffffff1673ffffffffffffffffffffffffffffffffffffffff163373ffffffffffffffffffffffffffffffffffffffff1614151561135357600080fd5b61135c82612f99565b151561136757600080fd5b600560009054906101000a900473ffffffffffffffffffffffffffffffffffffffff16905081600560006101000a81548173ffffffffffffffffffffffffffffffffffffffff021916908373ffffffffffffffffffffffffffffffffffffffff1602179055507f7f597d4bfdaa690ec812caf4a8134905c02e65103fd73f41f374d8828465ffaf8183604051808373ffffffffffffffffffffffffffffffffffffffff1673ffffffffffffffffffffffffffffffffffffffff1681526020018273ffffffffffffffffffffffffffffffffffffffff1673ffffffffffffffffffffffffffffffffffffffff1681526020019250505060405180910390a15050565b600460009054906101000a900473ffffffffffffffffffffffffffffffffffffffff1681565b6000809054906101000a900473ffffffffffffffffffffffffffffffffffffffff1673ffffffffffffffffffffffffffffffffffffffff163373ffffffffffffffffffffffffffffffffffffffff161415156114e957600080fd5b600460149054906101000a900460ff16151561150457600080fd5b6000600460146101000a81548160ff0219169083151502179055507f7805862f689e2f13df9f062ff482ad3ad112aca9e0847911ed832e158c525b3360405160405180910390a1565b6000600560009054906101000a900473ffffffffffffffffffffffffffffffffffffffff1673ffffffffffffffffffffffffffffffffffffffff1663bed98a0d336000357fffffffff00000000000000000000000000000000000000000000000000000000166040518363ffffffff167c0100000000000000000000000000000000000000000000000000000000028152600401808373ffffffffffffffffffffffffffffffffffffffff1673ffffffffffffffffffffffffffffffffffffffff168152602001827bffffffffffffffffffffffffffffffffffffffffffffffffffffffff19167bffffffffffffffffffffffffffffffffffffffffffffffffffffffff1916815260200192505050602060405180830381600087803b15801561167657600080fd5b505af115801561168a573d6000803e3d6000fd5b505050506040513d60208110156116a057600080fd5b810190808051906020019092919050505015156116bc57600080fd5b6116c68383612fda565b506001905092915050565b6000600560009054906101000a900473ffffffffffffffffffffffffffffffffffffffff1673ffffffffffffffffffffffffffffffffffffffff1663bed98a0d336000357fffffffff00000000000000000000000000000000000000000000000000000000166040518363ffffffff167c0100000000000000000000000000000000000000000000000000000000028152600401808373ffffffffffffffffffffffffffffffffffffffff1673ffffffffffffffffffffffffffffffffffffffff168152602001827bffffffffffffffffffffffffffffffffffffffffffffffffffffffff19167bffffffffffffffffffffffffffffffffffffffffffffffffffffffff1916815260200192505050602060405180830381600087803b1580156117fa57600080fd5b505af115801561180e573d6000803e3d6000fd5b505050506040513d602081101561182457600080fd5b8101908080519060200190929190505050151561184057600080fd5b61185a82602060405190810160405280600081525061231a565b5060019050919050565b60008060008060009054906101000a900473ffffffffffffffffffffffffffffffffffffffff1673ffffffffffffffffffffffffffffffffffffffff163373ffffffffffffffffffffffffffffffffffffffff161415156118c457600080fd5b8392508273ffffffffffffffffffffffffffffffffffffffff169150600560009054906101000a900473ffffffffffffffffffffffffffffffffffffffff1690508073ffffffffffffffffffffffffffffffffffffffff16635672f4a0836040518263ffffffff167c0100000000000000000000000000000000000000000000000000000000028152600401808273ffffffffffffffffffffffffffffffffffffffff1673ffffffffffffffffffffffffffffffffffffffff168152602001915050600060405180830381600087803b1580156119a057600080fd5b505af11580156119b4573d6000803e3d6000fd5b505050507f1ce1076e4594e70965349520463654ffab0dfbbd23ceaa509aad5809899569d484600560009054906101000a900473ffffffffffffffffffffffffffffffffffffffff1673ffffffffffffffffffffffffffffffffffffffff16635c60da1b6040518163ffffffff167c0100000000000000000000000000000000000000000000000000000000028152600401602060405180830381600087803b158015611a6057600080fd5b505af1158015611a74573d6000803e3d6000fd5b505050506040513d6020811015611a8a57600080fd5b8101908080519060200190929190505050604051808373ffffffffffffffffffffffffffffffffffffffff1673ffffffffffffffffffffffffffffffffffffffff1681526020018273ffffffffffffffffffffffffffffffffffffffff1673ffffffffffffffffffffffffffffffffffffffff1681526020019250505060405180910390a150505050565b60008060008060009054906101000a900473ffffffffffffffffffffffffffffffffffffffff1673ffffffffffffffffffffffffffffffffffffffff163373ffffffffffffffffffffffffffffffffffffffff16141515611b7557600080fd5b8392508273ffffffffffffffffffffffffffffffffffffffff169150600560009054906101000a900473ffffffffffffffffffffffffffffffffffffffff1690508073ffffffffffffffffffffffffffffffffffffffff1663aef5eb80836040518263ffffffff167c0100000000000000000000000000000000000000000000000000000000028152600401808273ffffffffffffffffffffffffffffffffffffffff1673ffffffffffffffffffffffffffffffffffffffff168152602001915050600060405180830381600087803b158015611c5157600080fd5b505af1158015611c65573d6000803e3d6000fd5b505050507f1ce1076e4594e70965349520463654ffab0dfbbd23ceaa509aad5809899569d484600560009054906101000a900473ffffffffffffffffffffffffffffffffffffffff1673ffffffffffffffffffffffffffffffffffffffff16635c60da1b6040518163ffffffff167c0100000000000000000000000000000000000000000000000000000000028152600401602060405180830381600087803b158015611d1157600080fd5b505af1158015611d25573d6000803e3d6000fd5b505050506040513d6020811015611d3b57600080fd5b8101908080519060200190929190505050604051808373ffffffffffffffffffffffffffffffffffffffff1673ffffffffffffffffffffffffffffffffffffffff1681526020018273ffffffffffffffffffffffffffffffffffffffff1673ffffffffffffffffffffffffffffffffffffffff1681526020019250505060405180910390a150505050565b600160009054906101000a900473ffffffffffffffffffffffffffffffffffffffff1673ffffffffffffffffffffffffffffffffffffffff163373ffffffffffffffffffffffffffffffffffffffff16141515611e2257600080fd5b600160009054906101000a900473ffffffffffffffffffffffffffffffffffffffff1673ffffffffffffffffffffffffffffffffffffffff166000809054906101000a900473ffffffffffffffffffffffffffffffffffffffff1673ffffffffffffffffffffffffffffffffffffffff167f8be0079c531659141344cd1fd0a4f28419497f9722a3daafe3b4186f6b6457e060405160405180910390a3600160009054906101000a900473ffffffffffffffffffffffffffffffffffffffff166000806101000a81548173ffffffffffffffffffffffffffffffffffffffff021916908373ffffffffffffffffffffffffffffffffffffffff1602179055506000600160006101000a81548173ffffffffffffffffffffffffffffffffffffffff021916908373ffffffffffffffffffffffffffffffffffffffff160217905550565b60008060009054906101000a900473ffffffffffffffffffffffffffffffffffffffff1673ffffffffffffffffffffffffffffffffffffffff163373ffffffffffffffffffffffffffffffffffffffff16141515611fc257600080fd5b81600260006101000a81548173ffffffffffffffffffffffffffffffffffffffff021916908373ffffffffffffffffffffffffffffffffffffffff160217905550600260009054906101000a900473ffffffffffffffffffffffffffffffffffffffff1673ffffffffffffffffffffffffffffffffffffffff16634e71e0c86040518163ffffffff167c0100000000000000000000000000000000000000000000000000000000028152600401600060405180830381600087803b15801561208957600080fd5b505af115801561209d573d6000803e3d6000fd5b505050508173ffffffffffffffffffffffffffffffffffffffff167fa89fb8ab3845cb6919c98b54ca0d8f398df48c64ae04ed309cd7b130539badd460405160405180910390a260019050919050565b600460149054906101000a900460ff1681565b600061210d8383336131ed565b6001905092915050565b6000600260009054906101000a900473ffffffffffffffffffffffffffffffffffffffff1673ffffffffffffffffffffffffffffffffffffffff166370a08231836040518263ffffffff167c0100000000000000000000000000000000000000000000000000000000028152600401808273ffffffffffffffffffffffffffffffffffffffff1673ffffffffffffffffffffffffffffffffffffffff168152602001915050602060405180830381600087803b1580156121d657600080fd5b505af11580156121ea573d6000803e3d6000fd5b505050506040513d602081101561220057600080fd5b81019080805190602001909291905050509050919050565b6000809054906101000a900473ffffffffffffffffffffffffffffffffffffffff1673ffffffffffffffffffffffffffffffffffffffff163373ffffffffffffffffffffffffffffffffffffffff1614151561227357600080fd5b6000809054906101000a900473ffffffffffffffffffffffffffffffffffffffff1673ffffffffffffffffffffffffffffffffffffffff167ff8df31144d9c2f0f6b59d69b8b98abd5459d07f2742c4df920b25aae33c6482060405160405180910390a260008060006101000a81548173ffffffffffffffffffffffffffffffffffffffff021916908373ffffffffffffffffffffffffffffffffffffffff160217905550565b6000612327338484613219565b6001905092915050565b600260009054906101000a900473ffffffffffffffffffffffffffffffffffffffff1681565b6000809054906101000a900473ffffffffffffffffffffffffffffffffffffffff1673ffffffffffffffffffffffffffffffffffffffff163373ffffffffffffffffffffffffffffffffffffffff161415156123b257600080fd5b600460149054906101000a900460ff161515156123ce57600080fd5b6001600460146101000a81548160ff0219169083151502179055507f6985a02210a168e66602d3235cb6db0e70f92b3ba4d376a33c0f3d9434bff62560405160405180910390a1565b6000809054906101000a900473ffffffffffffffffffffffffffffffffffffffff1681565b600560009054906101000a900473ffffffffffffffffffffffffffffffffffffffff1681565b6000600560009054906101000a900473ffffffffffffffffffffffffffffffffffffffff1673ffffffffffffffffffffffffffffffffffffffff1663bed98a0d8460405180807f64657374726f7953656c66282900000000000000000000000000000000000000815250600d01905060405180910390206040518363ffffffff167c0100000000000000000000000000000000000000000000000000000000028152600401808373ffffffffffffffffffffffffffffffffffffffff1673ffffffffffffffffffffffffffffffffffffffff168152602001827bffffffffffffffffffffffffffffffffffffffffffffffffffffffff19167bffffffffffffffffffffffffffffffffffffffffffffffffffffffff1916815260200192505050602060405180830381600087803b15801561259c57600080fd5b505af11580156125b0573d6000803e3d6000fd5b505050506040513d60208110156125c657600080fd5b8101908080519060200190929190505050156125e557600090506125f5565b6125ef8383613245565b50600190505b92915050565b6000600560009054906101000a900473ffffffffffffffffffffffffffffffffffffffff1673ffffffffffffffffffffffffffffffffffffffff1663bed98a0d336000357fffffffff00000000000000000000000000000000000000000000000000000000166040518363ffffffff167c0100000000000000000000000000000000000000000000000000000000028152600401808373ffffffffffffffffffffffffffffffffffffffff1673ffffffffffffffffffffffffffffffffffffffff168152602001827bffffffffffffffffffffffffffffffffffffffffffffffffffffffff19167bffffffffffffffffffffffffffffffffffffffffffffffffffffffff1916815260200192505050602060405180830381600087803b15801561272457600080fd5b505af1158015612738573d6000803e3d6000fd5b505050506040513d602081101561274e57600080fd5b8101908080519060200190929190505050151561276a57600080fd5b600560009054906101000a900473ffffffffffffffffffffffffffffffffffffffff1673ffffffffffffffffffffffffffffffffffffffff1663bed98a0d8360405180807f64657374726f7953656c66282900000000000000000000000000000000000000815250600d01905060405180910390206040518363ffffffff167c0100000000000000000000000000000000000000000000000000000000028152600401808373ffffffffffffffffffffffffffffffffffffffff1673ffffffffffffffffffffffffffffffffffffffff168152602001827bffffffffffffffffffffffffffffffffffffffffffffffffffffffff19167bffffffffffffffffffffffffffffffffffffffffffffffffffffffff1916815260200192505050602060405180830381600087803b1580156128a257600080fd5b505af11580156128b6573d6000803e3d6000fd5b505050506040513d60208110156128cc57600080fd5b810190808051906020019092919050505015156128e857600080fd5b600260009054906101000a900473ffffffffffffffffffffffffffffffffffffffff1673ffffffffffffffffffffffffffffffffffffffff1663f8b2cb4f836040518263ffffffff167c0100000000000000000000000000000000000000000000000000000000028152600401808273ffffffffffffffffffffffffffffffffffffffff1673ffffffffffffffffffffffffffffffffffffffff168152602001915050602060405180830381600087803b1580156129a557600080fd5b505af11580156129b9573d6000803e3d6000fd5b505050506040513d60208110156129cf57600080fd5b81019080805190602001909291905050509050600260009054906101000a900473ffffffffffffffffffffffffffffffffffffffff1673ffffffffffffffffffffffffffffffffffffffff1663e30443bc8360006040518363ffffffff167c0100000000000000000000000000000000000000000000000000000000028152600401808373ffffffffffffffffffffffffffffffffffffffff1673ffffffffffffffffffffffffffffffffffffffff16815260200182815260200192505050600060405180830381600087803b158015612aa857600080fd5b505af1158015612abc573d6000803e3d6000fd5b50505050612ad581600354612f8090919063ffffffff16565b6003819055507fb81d1dffb753076892e04e6e1234d137b031f70d859c299876b0486e966424fd8282604051808373ffffffffffffffffffffffffffffffffffffffff1673ffffffffffffffffffffffffffffffffffffffff1681526020018281526020019250505060405180910390a15050565b6000809054906101000a900473ffffffffffffffffffffffffffffffffffffffff1673ffffffffffffffffffffffffffffffffffffffff163373ffffffffffffffffffffffffffffffffffffffff16141515612ba557600080fd5b612bae81611864565b612bb781611b15565b50565b6000612bc783833361325c565b6001905092915050565b6000600460009054906101000a900473ffffffffffffffffffffffffffffffffffffffff1673ffffffffffffffffffffffffffffffffffffffff16631a46ec8284846040518363ffffffff167c0100000000000000000000000000000000000000000000000000000000028152600401808373ffffffffffffffffffffffffffffffffffffffff1673ffffffffffffffffffffffffffffffffffffffff1681526020018273ffffffffffffffffffffffffffffffffffffffff1673ffffffffffffffffffffffffffffffffffffffff16815260200192505050602060405180830381600087803b158015612cc457600080fd5b505af1158015612cd8573d6000803e3d6000fd5b505050506040513d6020811015612cee57600080fd5b8101908080519060200190929190505050905092915050565b600160009054906101000a900473ffffffffffffffffffffffffffffffffffffffff1681565b60008060009054906101000a900473ffffffffffffffffffffffffffffffffffffffff1673ffffffffffffffffffffffffffffffffffffffff163373ffffffffffffffffffffffffffffffffffffffff16141515612d8a57600080fd5b81600460006101000a81548173ffffffffffffffffffffffffffffffffffffffff021916908373ffffffffffffffffffffffffffffffffffffffff160217905550600460009054906101000a900473ffffffffffffffffffffffffffffffffffffffff1673ffffffffffffffffffffffffffffffffffffffff16634e71e0c86040518163ffffffff167c0100000000000000000000000000000000000000000000000000000000028152600401600060405180830381600087803b158015612e5157600080fd5b505af1158015612e65573d6000803e3d6000fd5b505050508173ffffffffffffffffffffffffffffffffffffffff167fb02601a43e72e0ac747eb6d02226aec79064038d7ce3db3e633b1e769c5ed3bb60405160405180910390a260019050919050565b6000809054906101000a900473ffffffffffffffffffffffffffffffffffffffff1673ffffffffffffffffffffffffffffffffffffffff163373ffffffffffffffffffffffffffffffffffffffff16141515612f1057600080fd5b80600160006101000a81548173ffffffffffffffffffffffffffffffffffffffff021916908373ffffffffffffffffffffffffffffffffffffffff16021790555050565b600460149054906101000a900460ff16151515612f7057600080fd5b612f7b838383613288565b505050565b6000828211151515612f8e57fe5b818303905092915050565b600080823b905060008111915050919050565b600460149054906101000a900460ff16151515612fc857600080fd5b612fd484848484613403565b50505050565b60008060009054906101000a900473ffffffffffffffffffffffffffffffffffffffff1673ffffffffffffffffffffffffffffffffffffffff163373ffffffffffffffffffffffffffffffffffffffff1614151561303757600080fd5b61304c826003546136c890919063ffffffff16565b600381905550600260009054906101000a900473ffffffffffffffffffffffffffffffffffffffff1673ffffffffffffffffffffffffffffffffffffffff166321e5383a84846040518363ffffffff167c0100000000000000000000000000000000000000000000000000000000028152600401808373ffffffffffffffffffffffffffffffffffffffff1673ffffffffffffffffffffffffffffffffffffffff16815260200182815260200192505050600060405180830381600087803b15801561311757600080fd5b505af115801561312b573d6000803e3d6000fd5b505050508273ffffffffffffffffffffffffffffffffffffffff167f0f6798a560793a54c3bcfe86a93cde1e73087d944c0ea20544137d4121396885836040518082815260200191505060405180910390a28273ffffffffffffffffffffffffffffffffffffffff16600073ffffffffffffffffffffffffffffffffffffffff167fddf252ad1be2c89b69c2b068fc378daa952ba7f163c4a11628f55a4df523b3ef846040518082815260200191505060405180910390a36001905092915050565b600460149054906101000a900460ff1615151561320957600080fd5b6132148383836136e4565b505050565b600460149054906101000a900460ff1615151561323557600080fd5b613240838383613bdb565b505050565b6000613252338484613f68565b6001905092915050565b600460149054906101000a900460ff1615151561327857600080fd5b613283838383613f94565b505050565b600460009054906101000a900473ffffffffffffffffffffffffffffffffffffffff1673ffffffffffffffffffffffffffffffffffffffff1663da46098c8285856040518463ffffffff167c0100000000000000000000000000000000000000000000000000000000028152600401808473ffffffffffffffffffffffffffffffffffffffff1673ffffffffffffffffffffffffffffffffffffffff1681526020018373ffffffffffffffffffffffffffffffffffffffff1673ffffffffffffffffffffffffffffffffffffffff1681526020018281526020019350505050600060405180830381600087803b15801561338157600080fd5b505af1158015613395573d6000803e3d6000fd5b505050508273ffffffffffffffffffffffffffffffffffffffff168173ffffffffffffffffffffffffffffffffffffffff167f8c5be1e5ebec7d5bd14f71427d1e84f3dd0314c0f7b2291e5b200ac8c7c3b925846040518082815260200191505060405180910390a3505050565b600460009054906101000a900473ffffffffffffffffffffffffffffffffffffffff1673ffffffffffffffffffffffffffffffffffffffff16631a46ec8285836040518363ffffffff167c0100000000000000000000000000000000000000000000000000000000028152600401808373ffffffffffffffffffffffffffffffffffffffff1673ffffffffffffffffffffffffffffffffffffffff1681526020018273ffffffffffffffffffffffffffffffffffffffff1673ffffffffffffffffffffffffffffffffffffffff16815260200192505050602060405180830381600087803b1580156134f457600080fd5b505af1158015613508573d6000803e3d6000fd5b505050506040513d602081101561351e57600080fd5b810190808051906020019092919050505082111515156135a6576040517f08c379a00000000000000000000000000000000000000000000000000000000081526004018080602001828103825260208152602001807f6e6f7420656e6f75676820616c6c6f77616e636520746f207472616e7366657281525060200191505060405180910390fd5b600460009054906101000a900473ffffffffffffffffffffffffffffffffffffffff1673ffffffffffffffffffffffffffffffffffffffff166397d88cd28583856040518463ffffffff167c0100000000000000000000000000000000000000000000000000000000028152600401808473ffffffffffffffffffffffffffffffffffffffff1673ffffffffffffffffffffffffffffffffffffffff1681526020018373ffffffffffffffffffffffffffffffffffffffff1673ffffffffffffffffffffffffffffffffffffffff1681526020018281526020019350505050600060405180830381600087803b15801561369f57600080fd5b505af11580156136b3573d6000803e3d6000fd5b505050506136c2848484613f68565b50505050565b600081830190508281101515156136db57fe5b80905092915050565b6000600460009054906101000a900473ffffffffffffffffffffffffffffffffffffffff1673ffffffffffffffffffffffffffffffffffffffff16631a46ec8283866040518363ffffffff167c0100000000000000000000000000000000000000000000000000000000028152600401808373ffffffffffffffffffffffffffffffffffffffff1673ffffffffffffffffffffffffffffffffffffffff1681526020018273ffffffffffffffffffffffffffffffffffffffff1673ffffffffffffffffffffffffffffffffffffffff16815260200192505050602060405180830381600087803b1580156137d757600080fd5b505af11580156137eb573d6000803e3d6000fd5b505050506040513d602081101561380157600080fd5b810190808051906020019092919050505090508083111561393357600460009054906101000a900473ffffffffffffffffffffffffffffffffffffffff1673ffffffffffffffffffffffffffffffffffffffff1663da46098c838660006040518463ffffffff167c0100000000000000000000000000000000000000000000000000000000028152600401808473ffffffffffffffffffffffffffffffffffffffff1673ffffffffffffffffffffffffffffffffffffffff1681526020018373ffffffffffffffffffffffffffffffffffffffff1673ffffffffffffffffffffffffffffffffffffffff1681526020018281526020019350505050600060405180830381600087803b15801561391657600080fd5b505af115801561392a573d6000803e3d6000fd5b50505050613a45565b600460009054906101000a900473ffffffffffffffffffffffffffffffffffffffff1673ffffffffffffffffffffffffffffffffffffffff166397d88cd28386866040518463ffffffff167c0100000000000000000000000000000000000000000000000000000000028152600401808473ffffffffffffffffffffffffffffffffffffffff1673ffffffffffffffffffffffffffffffffffffffff1681526020018373ffffffffffffffffffffffffffffffffffffffff1673ffffffffffffffffffffffffffffffffffffffff1681526020018281526020019350505050600060405180830381600087803b158015613a2c57600080fd5b505af1158015613a40573d6000803e3d6000fd5b505050505b8373ffffffffffffffffffffffffffffffffffffffff168273ffffffffffffffffffffffffffffffffffffffff167f8c5be1e5ebec7d5bd14f71427d1e84f3dd0314c0f7b2291e5b200ac8c7c3b925600460009054906101000a900473ffffffffffffffffffffffffffffffffffffffff1673ffffffffffffffffffffffffffffffffffffffff16631a46ec8286896040518363ffffffff167c0100000000000000000000000000000000000000000000000000000000028152600401808373ffffffffffffffffffffffffffffffffffffffff1673ffffffffffffffffffffffffffffffffffffffff1681526020018273ffffffffffffffffffffffffffffffffffffffff1673ffffffffffffffffffffffffffffffffffffffff16815260200192505050602060405180830381600087803b158015613b8557600080fd5b505af1158015613b99573d6000803e3d6000fd5b505050506040513d6020811015613baf57600080fd5b81019080805190602001909291905050506040518082815260200191505060405180910390a350505050565b600260009054906101000a900473ffffffffffffffffffffffffffffffffffffffff1673ffffffffffffffffffffffffffffffffffffffff166370a08231846040518263ffffffff167c0100000000000000000000000000000000000000000000000000000000028152600401808273ffffffffffffffffffffffffffffffffffffffff1673ffffffffffffffffffffffffffffffffffffffff168152602001915050602060405180830381600087803b158015613c9857600080fd5b505af1158015613cac573d6000803e3d6000fd5b505050506040513d6020811015613cc257600080fd5b81019080805190602001909291905050508211151515613d4a576040517f08c379a000000000000000000000000000000000000000000000000000000000815260040180806020018281038252601a8152602001807f6e6f7420656e6f7567682062616c616e636520746f206275726e00000000000081525060200191505060405180910390fd5b600260009054906101000a900473ffffffffffffffffffffffffffffffffffffffff1673ffffffffffffffffffffffffffffffffffffffff1663cf8eeb7e84846040518363ffffffff167c0100000000000000000000000000000000000000000000000000000000028152600401808373ffffffffffffffffffffffffffffffffffffffff1673ffffffffffffffffffffffffffffffffffffffff16815260200182815260200192505050600060405180830381600087803b158015613e0f57600080fd5b505af1158015613e23573d6000803e3d6000fd5b50505050613e3c82600354612f8090919063ffffffff16565b6003819055508273ffffffffffffffffffffffffffffffffffffffff167f47e772fda56eb54ab211642ce5421882c49fc2b7033455982af14588ae4207ff83836040518083815260200180602001828103825283818151815260200191508051906020019080838360005b83811015613ec2578082015181840152602081019050613ea7565b50505050905090810190601f168015613eef5780820380516001836020036101000a031916815260200191505b50935050505060405180910390a2600073ffffffffffffffffffffffffffffffffffffffff168373ffffffffffffffffffffffffffffffffffffffff167fddf252ad1be2c89b69c2b068fc378daa952ba7f163c4a11628f55a4df523b3ef846040518082815260200191505060405180910390a3505050565b600460149054906101000a900460ff16151515613f8457600080fd5b613f8f83838361423a565b505050565b600460009054906101000a900473ffffffffffffffffffffffffffffffffffffffff1673ffffffffffffffffffffffffffffffffffffffff16635fd72d168285856040518463ffffffff167c0100000000000000000000000000000000000000000000000000000000028152600401808473ffffffffffffffffffffffffffffffffffffffff1673ffffffffffffffffffffffffffffffffffffffff1681526020018373ffffffffffffffffffffffffffffffffffffffff1673ffffffffffffffffffffffffffffffffffffffff1681526020018281526020019350505050600060405180830381600087803b15801561408d57600080fd5b505af11580156140a1573d6000803e3d6000fd5b505050508273ffffffffffffffffffffffffffffffffffffffff168173ffffffffffffffffffffffffffffffffffffffff167f8c5be1e5ebec7d5bd14f71427d1e84f3dd0314c0f7b2291e5b200ac8c7c3b925600460009054906101000a900473ffffffffffffffffffffffffffffffffffffffff1673ffffffffffffffffffffffffffffffffffffffff16631a46ec8285886040518363ffffffff167c0100000000000000000000000000000000000000000000000000000000028152600401808373ffffffffffffffffffffffffffffffffffffffff1673ffffffffffffffffffffffffffffffffffffffff1681526020018273ffffffffffffffffffffffffffffffffffffffff1673ffffffffffffffffffffffffffffffffffffffff16815260200192505050602060405180830381600087803b1580156141e557600080fd5b505af11580156141f9573d6000803e3d6000fd5b505050506040513d602081101561420f57600080fd5b81019080805190602001909291905050506040518082815260200191505060405180910390a3505050565b600073ffffffffffffffffffffffffffffffffffffffff168273ffffffffffffffffffffffffffffffffffffffff16141515156142df576040517f08c379a00000000000000000000000000000000000000000000000000000000081526004018080602001828103825260188152602001807f746f20616464726573732063616e6e6f7420626520307830000000000000000081525060200191505060405180910390fd5b600073ffffffffffffffffffffffffffffffffffffffff168373ffffffffffffffffffffffffffffffffffffffff1614151515614384576040517f08c379a000000000000000000000000000000000000000000000000000000000815260040180806020018281038252601a8152602001807f66726f6d20616464726573732063616e6e6f742062652030783000000000000081525060200191505060405180910390fd5b600260009054906101000a900473ffffffffffffffffffffffffffffffffffffffff1673ffffffffffffffffffffffffffffffffffffffff166370a08231846040518263ffffffff167c0100000000000000000000000000000000000000000000000000000000028152600401808273ffffffffffffffffffffffffffffffffffffffff1673ffffffffffffffffffffffffffffffffffffffff168152602001915050602060405180830381600087803b15801561444157600080fd5b505af1158015614455573d6000803e3d6000fd5b505050506040513d602081101561446b57600080fd5b810190808051906020019092919050505081111515156144f3576040517f08c379a000000000000000000000000000000000000000000000000000000000815260040180806020018281038252601e8152602001807f6e6f7420656e6f7567682062616c616e636520746f207472616e73666572000081525060200191505060405180910390fd5b600260009054906101000a900473ffffffffffffffffffffffffffffffffffffffff1673ffffffffffffffffffffffffffffffffffffffff1663cf8eeb7e84836040518363ffffffff167c0100000000000000000000000000000000000000000000000000000000028152600401808373ffffffffffffffffffffffffffffffffffffffff1673ffffffffffffffffffffffffffffffffffffffff16815260200182815260200192505050600060405180830381600087803b1580156145b857600080fd5b505af11580156145cc573d6000803e3d6000fd5b50505050600260009054906101000a900473ffffffffffffffffffffffffffffffffffffffff1673ffffffffffffffffffffffffffffffffffffffff166321e5383a83836040518363ffffffff167c0100000000000000000000000000000000000000000000000000000000028152600401808373ffffffffffffffffffffffffffffffffffffffff1673ffffffffffffffffffffffffffffffffffffffff16815260200182815260200192505050600060405180830381600087803b15801561469557600080fd5b505af11580156146a9573d6000803e3d6000fd5b505050508173ffffffffffffffffffffffffffffffffffffffff168373ffffffffffffffffffffffffffffffffffffffff167fddf252ad1be2c89b69c2b068fc378daa952ba7f163c4a11628f55a4df523b3ef836040518082815260200191505060405180910390a35050505600a165627a7a72305820845f1b1a420d7df38d47e2be0688712a2ebb8ecfec1dd49884910f21ea225c920029",
  "source": "pragma solidity ^0.4.23;\n\nimport \"./Regulator.sol\";\nimport \"./RegulatorProxy.sol\";\nimport \"openzeppelin-solidity/contracts/ownership/Ownable.sol\";\nimport \"openzeppelin-solidity/contracts/AddressUtils.sol\";\nimport \"../modularERC20/ModularBurnableToken.sol\";\nimport \"../modularERC20/ModularMintableToken.sol\";\nimport \"../modularERC20/ModularPausableToken.sol\";\n\n\n/**\n* @title Permissioned Token\n* @dev A permissioned token that enables transfers, withdrawals, and deposits to occur if and only\n* if it is approved by an on-chain Regulator service. PermissionedToken is an\n* ERC-20 smart contract representing ownership of securities and overrides the\n* transfer, burn, and mint methods to check with the Regulator\n*\n* Current responsibilities: \n* \tAnyone can transfer \n*\tOwner can mint, destroy blacklisted tokens\n*\tDepositors can burn\n*/\ncontract PermissionedToken is Ownable, ModularPausableToken {\n    /**\n    * @notice Address of `RegulatorProxy` that points to the latest\n    *         `Regulator` contract responsible for checking and applying trade\n    *         permissions.\n    */\n    address public rProxy;\n\n    /**\n    * @notice Constructor sets the regulator that determines account permissions\n    * @param _rProxy Address of `RegulatorProxy` contract\n    */\n    constructor (address _rProxy) public {\n        setRegulatorProxy(_rProxy);\n    }\n\n    modifier requiresPermission() {\n        require (Regulator(rProxy).hasPermission(msg.sender, msg.sig));\n        _;\n    }\n\n    event ChangedRegulatorProxy(address oldProxy, address newProxy);\n    \n    /**\n    * @notice Sets the address of the currently used regulator proxy\n    * @param _rProxy Address of new `RegulatorProxy` contract\n    */\n    function setRegulatorProxy(address _rProxy) public onlyOwner {\n        require(AddressUtils.isContract(_rProxy));\n        address oldProxy = rProxy;\n        rProxy = _rProxy;\n        emit ChangedRegulatorProxy(oldProxy, _rProxy);\n    }\n\n    event ChangedRegulator(address oldRegulator, address newRegulator);\n    \n    /**\n    * @notice Sets the regulator that the regulator proxy points to\n    * @param _reg Address of new `Regulator` contract\n    * @param _migrateData Boolean indicating whether or not to migrate regulator data\n    *  from the old regulator to the new one\n    */\n    function setRegulator(address _reg, bool _migrateData) public onlyOwner {\n        require(AddressUtils.isContract(_reg));\n        RegulatorProxy proxy = RegulatorProxy(rProxy);\n        address oldRegulator = proxy.implementation();\n        proxy.upgradeTo(_reg);\n        if (_migrateData) migrateAllRegulatorData(oldRegulator);\n        emit ChangedRegulator(oldRegulator, _reg);\n    }\n\n    event RegulatorUserPermissionsMigrated(address oldRegulator, address newRegulator);\n    event RegulatorPermissionStorageMigrated(address oldRegulator, address newRegulator);\n\n    /**\n    * @notice Migrates all data from a regulator address to the current regulator\n    * @param _oldRegulatorAddr Address of old `Regulator` contract\n    */\n    function migrateAllRegulatorData(address _oldRegulatorAddr) public onlyOwner {\n        migrateUserPermissionsStorage(_oldRegulatorAddr);\n        migratePermissionStorage(_oldRegulatorAddr);\n    }\n\n    /**\n    * @notice Migrates user permission data from a regulator address to the current regulator\n    * @param _oldRegulatorAddr Address of old `Regulator` contract\n    */\n    function migrateUserPermissionsStorage(address _oldRegulatorAddr) public onlyOwner {\n        Regulator oldRegulator = Regulator(_oldRegulatorAddr);\n        address oldPermissions = address(oldRegulator.userPermissions);\n        Regulator newRegulator = Regulator(rProxy);\n        newRegulator.setUserPermissionsStorage(oldPermissions);\n        emit RegulatorUserPermissionsMigrated(_oldRegulatorAddr, RegulatorProxy(rProxy).implementation());\n    }\n\n    /**\n    * @notice Migrates permission type data from a regulator address to the current regulator\n    * @param _oldRegulatorAddr Address of old `Regulator` contract\n    */\n    function migratePermissionStorage(address _oldRegulatorAddr) public onlyOwner {\n        Regulator oldRegulator = Regulator(_oldRegulatorAddr);\n        address oldPermissions = address(oldRegulator.availablePermissions);\n        Regulator newRegulator = Regulator(rProxy);\n        newRegulator.setPermissionStorage(oldPermissions);\n        emit RegulatorUserPermissionsMigrated(_oldRegulatorAddr, RegulatorProxy(rProxy).implementation());\n    }\n\n    /**\n    * @notice overridden function that include logic to check whether account can withdraw tokens.\n    * @param _to The address of the receiver\n    * @param _amount The number of tokens to withdraw\n    * @return `true` if successful and `false` if unsuccessful\n    */\n    function mint(address _to, uint256 _amount) public requiresPermission returns (bool) {\n        super.mint(_to, _amount);\n        return true;\n    }\n\n    /**\n    * @notice overridden function that include logic to check whether account can deposit tokens.\n    * @param _amount The number of tokens to burn\n    *\n    * @return `true` if successful and `false` if unsuccessful\n    */\n    function burn(uint256 _amount) public requiresPermission returns (bool) {\n        super.burn(_amount, \"\");\n        return true;\n    }\n\n    event DestroyedBlacklistedTokens(address account, uint256 amount);\n    /**\n    * @notice destroy the tokens owned by an account\n    * @param _who account to destroy tokens from\n    */\n    function destroyBlacklistedTokens(address _who) requiresPermission public {\n        require(Regulator(rProxy).hasPermission(_who, bytes4(keccak256(\"destroySelf()\")))); // User must be blacklisted\n        uint256 balance = balances.getBalance(_who);\n        balances.setBalance(_who, 0);\n        totalSupply_ = totalSupply_.sub(balance);\n        emit DestroyedBlacklistedTokens(_who, balance);\n    }\n\n    /**\n    * @notice Initiates a \"send\" operation towards another user. See `transferFrom` for details.\n    * @param _to The address of the receiver\n    * @param _amount The number of tokens to transfer\n    *\n    * @return `true` if successful and `false` if unsuccessful\n    */\n    function transfer(address _to, uint256 _amount) public returns (bool) {\n        if (Regulator(rProxy).hasPermission(_to, bytes4(keccak256(\"destroySelf()\")))) {\n            // User is blacklisted, so they cannot initiate a transfer\n            return false;\n        }\n        super.transfer(_to, _amount);\n        return true;\n    }\n\n    /**\n    * @notice Initiates a transfer operation between address `_from` and `_to`.\n    *\n    * @param _to The address of the receiver\n    * @param _from The address of the sender\n    * @param _amount The number of tokens to transfer\n    *\n    * @return `true` if successful and `false` if unsuccessful\n    */\n    function transferFrom(address _from, address _to, uint256 _amount) public returns (bool) {\n        require(balances.getBalance(_from) < _amount);\n        if (! Regulator(rProxy).hasPermission(_to, bytes4(keccak256(\"destroySelf()\")))) {\n            // If _to user is not blacklisted (doesn't have the ability to destroy themselves), then \n            // we allow the transaction to continue.\n            transferFromAllArgs(_from, _to, _amount, msg.sender);\n            return true;\n        }\n        return false;\n    }\n\n    /**\n    * @notice If a user is blacklisted, then they will have the ability to \n    * destroy their own tokens. This function provides that ability.\n    */\n    event UserDestroyedSelf(address indexed user, uint256 balance_before_destruction);\n    function destroySelf() requiresPermission public returns (bool) {\n        uint256 balance = balanceOf(msg.sender);\n        balances.setBalance(msg.sender, 0);\n        totalSupply_.sub(balance);\n        emit UserDestroyedSelf(msg.sender, balance);\n    }\n\n}",
  "sourcePath": "/Users/tanishqaggarwal/Documents/carbon/fiat_gateway/contracts/permissions/PermissionedToken.sol",
  "compiler": {
    "name": "solc",
    "version": "0.4.24+commit.e67f0147.Emscripten.clang"
  },
  "schemaVersion": "2.0.0",
  "updatedAt": "2018-07-11T01:40:09.807Z"
}