{
  "contractName": "PermissionedToken",
  "abi": [
    {
      "constant": true,
      "inputs": [],
      "name": "allowances",
      "outputs": [
        {
          "name": "",
          "type": "address"
        }
      ],
      "payable": false,
      "stateMutability": "view",
      "type": "function"
    },
    {
      "constant": false,
      "inputs": [],
      "name": "unpause",
      "outputs": [],
      "payable": false,
      "stateMutability": "nonpayable",
      "type": "function"
    },
    {
      "constant": false,
      "inputs": [],
      "name": "claimOwnership",
      "outputs": [],
      "payable": false,
      "stateMutability": "nonpayable",
      "type": "function"
    },
    {
      "constant": true,
      "inputs": [],
      "name": "paused",
      "outputs": [
        {
          "name": "",
          "type": "bool"
        }
      ],
      "payable": false,
      "stateMutability": "view",
      "type": "function"
    },
    {
      "constant": false,
      "inputs": [
        {
          "name": "_newStorageAddress",
          "type": "address"
        }
      ],
      "name": "setBalanceStorage",
      "outputs": [],
      "payable": false,
      "stateMutability": "nonpayable",
      "type": "function"
    },
    {
      "constant": true,
      "inputs": [],
      "name": "balances",
      "outputs": [
        {
          "name": "",
          "type": "address"
        }
      ],
      "payable": false,
      "stateMutability": "view",
      "type": "function"
    },
    {
      "constant": false,
      "inputs": [],
      "name": "pause",
      "outputs": [],
      "payable": false,
      "stateMutability": "nonpayable",
      "type": "function"
    },
    {
      "constant": true,
      "inputs": [],
      "name": "isMethodEnabled",
      "outputs": [
        {
          "name": "",
          "type": "bool"
        }
      ],
      "payable": false,
      "stateMutability": "view",
      "type": "function"
    },
    {
      "constant": false,
      "inputs": [],
      "name": "claimBalanceOwnership",
      "outputs": [],
      "payable": false,
      "stateMutability": "nonpayable",
      "type": "function"
    },
    {
      "constant": true,
      "inputs": [],
      "name": "owner",
      "outputs": [
        {
          "name": "",
          "type": "address"
        }
      ],
      "payable": false,
      "stateMutability": "view",
      "type": "function"
    },
    {
      "constant": false,
      "inputs": [],
      "name": "claimAllowanceOwnership",
      "outputs": [],
      "payable": false,
      "stateMutability": "nonpayable",
      "type": "function"
    },
    {
      "constant": false,
      "inputs": [],
      "name": "unlock",
      "outputs": [],
      "payable": false,
      "stateMutability": "nonpayable",
      "type": "function"
    },
    {
      "constant": false,
      "inputs": [
        {
          "name": "_newStorageAddress",
          "type": "address"
        }
      ],
      "name": "setAllowanceStorage",
      "outputs": [],
      "payable": false,
      "stateMutability": "nonpayable",
      "type": "function"
    },
    {
      "constant": false,
      "inputs": [
        {
          "name": "_newStorageAddress",
          "type": "address"
        }
      ],
      "name": "setRegulator",
      "outputs": [],
      "payable": false,
      "stateMutability": "nonpayable",
      "type": "function"
    },
    {
      "constant": true,
      "inputs": [],
      "name": "regulator",
      "outputs": [
        {
          "name": "",
          "type": "address"
        }
      ],
      "payable": false,
      "stateMutability": "view",
      "type": "function"
    },
    {
      "constant": true,
      "inputs": [],
      "name": "pendingOwner",
      "outputs": [
        {
          "name": "",
          "type": "address"
        }
      ],
      "payable": false,
      "stateMutability": "view",
      "type": "function"
    },
    {
      "constant": false,
      "inputs": [
        {
          "name": "_newOwner",
          "type": "address"
        }
      ],
      "name": "transferOwnership",
      "outputs": [],
      "payable": false,
      "stateMutability": "nonpayable",
      "type": "function"
    },
    {
      "constant": false,
      "inputs": [],
      "name": "lock",
      "outputs": [],
      "payable": false,
      "stateMutability": "nonpayable",
      "type": "function"
    },
    {
      "inputs": [
        {
          "name": "r",
          "type": "address"
        },
        {
          "name": "b",
          "type": "address"
        },
        {
          "name": "a",
          "type": "address"
        }
      ],
      "payable": false,
      "stateMutability": "nonpayable",
      "type": "constructor"
    },
    {
      "anonymous": false,
      "inputs": [
        {
          "indexed": true,
          "name": "account",
          "type": "address"
        },
        {
          "indexed": false,
          "name": "amount",
          "type": "uint256"
        }
      ],
      "name": "DestroyedBlacklistedTokens",
      "type": "event"
    },
    {
      "anonymous": false,
      "inputs": [
        {
          "indexed": true,
          "name": "owner",
          "type": "address"
        },
        {
          "indexed": true,
          "name": "spender",
          "type": "address"
        },
        {
          "indexed": false,
          "name": "value",
          "type": "uint256"
        }
      ],
      "name": "ApprovedBlacklistedAddressSpender",
      "type": "event"
    },
    {
      "anonymous": false,
      "inputs": [
        {
          "indexed": true,
          "name": "to",
          "type": "address"
        },
        {
          "indexed": false,
          "name": "value",
          "type": "uint256"
        }
      ],
      "name": "Mint",
      "type": "event"
    },
    {
      "anonymous": false,
      "inputs": [
        {
          "indexed": true,
          "name": "burner",
          "type": "address"
        },
        {
          "indexed": false,
          "name": "value",
          "type": "uint256"
        }
      ],
      "name": "Burn",
      "type": "event"
    },
    {
      "anonymous": false,
      "inputs": [
        {
          "indexed": true,
          "name": "from",
          "type": "address"
        },
        {
          "indexed": true,
          "name": "to",
          "type": "address"
        },
        {
          "indexed": false,
          "name": "value",
          "type": "uint256"
        }
      ],
      "name": "Transfer",
      "type": "event"
    },
    {
      "anonymous": false,
      "inputs": [
        {
          "indexed": true,
          "name": "owner",
          "type": "address"
        },
        {
          "indexed": true,
          "name": "spender",
          "type": "address"
        },
        {
          "indexed": false,
          "name": "value",
          "type": "uint256"
        }
      ],
      "name": "Approval",
      "type": "event"
    },
    {
      "anonymous": false,
      "inputs": [
        {
          "indexed": false,
          "name": "_old",
          "type": "address"
        },
        {
          "indexed": false,
          "name": "_new",
          "type": "address"
        }
      ],
      "name": "ChangedRegulator",
      "type": "event"
    },
    {
      "anonymous": false,
      "inputs": [
        {
          "indexed": false,
          "name": "_old",
          "type": "address"
        },
        {
          "indexed": false,
          "name": "_new",
          "type": "address"
        }
      ],
      "name": "ChangedBalanceStorage",
      "type": "event"
    },
    {
      "anonymous": false,
      "inputs": [
        {
          "indexed": false,
          "name": "_old",
          "type": "address"
        },
        {
          "indexed": false,
          "name": "_new",
          "type": "address"
        }
      ],
      "name": "ChangedAllowanceStorage",
      "type": "event"
    },
    {
      "anonymous": false,
      "inputs": [],
      "name": "Unlocked",
      "type": "event"
    },
    {
      "anonymous": false,
      "inputs": [],
      "name": "Locked",
      "type": "event"
    },
    {
      "anonymous": false,
      "inputs": [],
      "name": "Pause",
      "type": "event"
    },
    {
      "anonymous": false,
      "inputs": [],
      "name": "Unpause",
      "type": "event"
    },
    {
      "anonymous": false,
      "inputs": [
        {
          "indexed": true,
          "name": "previousOwner",
          "type": "address"
        },
        {
          "indexed": true,
          "name": "newOwner",
          "type": "address"
        }
      ],
      "name": "OwnershipTransferred",
      "type": "event"
    },
    {
      "constant": true,
      "inputs": [
        {
          "name": "who",
          "type": "address"
        }
      ],
      "name": "balanceOf",
      "outputs": [
        {
          "name": "",
          "type": "uint256"
        }
      ],
      "payable": false,
      "stateMutability": "view",
      "type": "function"
    },
    {
      "constant": true,
      "inputs": [
        {
          "name": "owner",
          "type": "address"
        },
        {
          "name": "spender",
          "type": "address"
        }
      ],
      "name": "allowance",
      "outputs": [
        {
          "name": "",
          "type": "uint256"
        }
      ],
      "payable": false,
      "stateMutability": "view",
      "type": "function"
    },
    {
      "constant": true,
      "inputs": [],
      "name": "totalSupply",
      "outputs": [
        {
          "name": "",
          "type": "uint256"
        }
      ],
      "payable": false,
      "stateMutability": "view",
      "type": "function"
    },
    {
      "constant": false,
      "inputs": [
        {
          "name": "_to",
          "type": "address"
        },
        {
          "name": "_amount",
          "type": "uint256"
        }
      ],
      "name": "mint",
      "outputs": [],
      "payable": false,
      "stateMutability": "nonpayable",
      "type": "function"
    },
    {
      "constant": false,
      "inputs": [
        {
          "name": "_amount",
          "type": "uint256"
        }
      ],
      "name": "burn",
      "outputs": [],
      "payable": false,
      "stateMutability": "nonpayable",
      "type": "function"
    },
    {
      "constant": false,
      "inputs": [
        {
          "name": "_spender",
          "type": "address"
        },
        {
          "name": "_value",
          "type": "uint256"
        }
      ],
      "name": "approve",
      "outputs": [
        {
          "name": "",
          "type": "bool"
        }
      ],
      "payable": false,
      "stateMutability": "nonpayable",
      "type": "function"
    },
    {
      "constant": false,
      "inputs": [
        {
          "name": "_spender",
          "type": "address"
        },
        {
          "name": "_addedValue",
          "type": "uint256"
        }
      ],
      "name": "increaseApproval",
      "outputs": [
        {
          "name": "",
          "type": "bool"
        }
      ],
      "payable": false,
      "stateMutability": "nonpayable",
      "type": "function"
    },
    {
      "constant": false,
      "inputs": [
        {
          "name": "_spender",
          "type": "address"
        },
        {
          "name": "_subtractedValue",
          "type": "uint256"
        }
      ],
      "name": "decreaseApproval",
      "outputs": [
        {
          "name": "",
          "type": "bool"
        }
      ],
      "payable": false,
      "stateMutability": "nonpayable",
      "type": "function"
    },
    {
      "constant": false,
      "inputs": [
        {
          "name": "_who",
          "type": "address"
        },
        {
          "name": "_amount",
          "type": "uint256"
        }
      ],
      "name": "destroyBlacklistedTokens",
      "outputs": [],
      "payable": false,
      "stateMutability": "nonpayable",
      "type": "function"
    },
    {
      "constant": false,
      "inputs": [
        {
          "name": "_blacklistedAccount",
          "type": "address"
        }
      ],
      "name": "approveBlacklistedAddressSpender",
      "outputs": [],
      "payable": false,
      "stateMutability": "nonpayable",
      "type": "function"
    },
    {
      "constant": false,
      "inputs": [
        {
          "name": "_to",
          "type": "address"
        },
        {
          "name": "_amount",
          "type": "uint256"
        }
      ],
      "name": "transfer",
      "outputs": [
        {
          "name": "",
          "type": "bool"
        }
      ],
      "payable": false,
      "stateMutability": "nonpayable",
      "type": "function"
    },
    {
      "constant": false,
      "inputs": [
        {
          "name": "_from",
          "type": "address"
        },
        {
          "name": "_to",
          "type": "address"
        },
        {
          "name": "_amount",
          "type": "uint256"
        }
      ],
      "name": "transferFrom",
      "outputs": [
        {
          "name": "",
          "type": "bool"
        }
      ],
      "payable": false,
      "stateMutability": "nonpayable",
      "type": "function"
    },
    {
      "constant": true,
      "inputs": [],
      "name": "blacklisted",
      "outputs": [
        {
          "name": "",
          "type": "bool"
        }
      ],
      "payable": false,
      "stateMutability": "view",
      "type": "function"
    }
  ],
  "bytecode": "0x60806040526001805460a060020a61ffff021916905534801561002157600080fd5b50604051606080613ce68339810160409081528151602083015191909201516000805433600160a060020a03199182161782556001805482169055600280548216600160a060020a03968716179055600380548216948616949094179093556004805490931693909116929092179055613c459081906100a190396000f30060806040526004361061018a5763ffffffff7c0100000000000000000000000000000000000000000000000000000000600035041663095ea7b3811461018f57806318160ddd146101d457806323b872dd146101fb5780633ed10b92146102325780633f4ba83a1461027057806340c10f191461028757806342966c68146102b85780634e71e0c8146102d05780635bae9ce9146102e55780635c975abb146102fa578063661884631461030f578063662f94c01461034057806370a082311461036e57806373e9e0e51461039c5780637bb98a68146103ca5780638456cb59146103df57806388fa2617146103f45780638955ed7e146104095780638da5cb5b1461041e5780639b2bdc2014610433578063a69df4b514610448578063a9059cbb1461045d578063c52dd6441461048e578063c534ba4b146104bc578063cde0a4f8146104ed578063d73dd6231461051b578063dd62ed3e1461054c578063dd8fee1414610580578063e30c397814610595578063f2fde38b146105aa578063f83d08ba146105d8575b600080fd5b34801561019b57600080fd5b506101c073ffffffffffffffffffffffffffffffffffffffff600435166024356105ed565b604080519115158252519081900360200190f35b3480156101e057600080fd5b506101e9610949565b60408051918252519081900360200190f35b34801561020757600080fd5b506101c073ffffffffffffffffffffffffffffffffffffffff600435811690602435166044356109e6565b34801561023e57600080fd5b506102476110c1565b6040805173ffffffffffffffffffffffffffffffffffffffff9092168252519081900360200190f35b34801561027c57600080fd5b506102856110dd565b005b34801561029357600080fd5b5061028573ffffffffffffffffffffffffffffffffffffffff6004351660243561117d565b3480156102c457600080fd5b50610285600435611311565b3480156102dc57600080fd5b506102856114a4565b3480156102f157600080fd5b506101c061155e565b34801561030657600080fd5b506101c06116c0565b34801561031b57600080fd5b506101c073ffffffffffffffffffffffffffffffffffffffff600435166024356116e1565b34801561034c57600080fd5b5061028573ffffffffffffffffffffffffffffffffffffffff60043516611937565b34801561037a57600080fd5b506101e973ffffffffffffffffffffffffffffffffffffffff60043516611ce0565b3480156103a857600080fd5b5061028573ffffffffffffffffffffffffffffffffffffffff60043516611d8a565b3480156103d657600080fd5b50610247611f5e565b3480156103eb57600080fd5b50610285611f7a565b34801561040057600080fd5b506101c0612030565b34801561041557600080fd5b50610285612052565b34801561042a57600080fd5b506102476120f2565b34801561043f57600080fd5b5061028561210e565b34801561045457600080fd5b50610285612177565b34801561046957600080fd5b506101c073ffffffffffffffffffffffffffffffffffffffff60043516602435612206565b34801561049a57600080fd5b5061028573ffffffffffffffffffffffffffffffffffffffff600435166126bd565b3480156104c857600080fd5b5061028573ffffffffffffffffffffffffffffffffffffffff60043516602435612891565b3480156104f957600080fd5b5061028573ffffffffffffffffffffffffffffffffffffffff60043516612c97565b34801561052757600080fd5b506101c073ffffffffffffffffffffffffffffffffffffffff60043516602435612e6b565b34801561055857600080fd5b506101e973ffffffffffffffffffffffffffffffffffffffff600435811690602435166130b7565b34801561058c57600080fd5b5061024761316c565b3480156105a157600080fd5b50610247613188565b3480156105b657600080fd5b5061028573ffffffffffffffffffffffffffffffffffffffff600435166131a4565b3480156105e457600080fd5b50610285613231565b600254604080517f7ccce85100000000000000000000000000000000000000000000000000000000815273ffffffffffffffffffffffffffffffffffffffff8086166004830152915160009386931691637ccce85191602480830192602092919082900301818887803b15801561066357600080fd5b505af1158015610677573d6000803e3d6000fd5b505050506040513d602081101561068d57600080fd5b5051156106fb57604080517f08c379a000000000000000000000000000000000000000000000000000000000815260206004820152601c60248201527f55736572206d757374206e6f7420626520626c61636b6c697374656400000000604482015290519081900360640190fd5b600254604080517f7ccce851000000000000000000000000000000000000000000000000000000008152336004820152905173ffffffffffffffffffffffffffffffffffffffff90921691637ccce851916024808201926020929091908290030181600087803b15801561076e57600080fd5b505af1158015610782573d6000803e3d6000fd5b505050506040513d602081101561079857600080fd5b50511561080657604080517f08c379a000000000000000000000000000000000000000000000000000000000815260206004820152601e60248201527f53656e646572206d757374206e6f7420626520626c61636b6c69737465640000604482015290519081900360640190fd5b60015474010000000000000000000000000000000000000000900460ff161561082e57600080fd5b6001547501000000000000000000000000000000000000000000900460ff16151561085857600080fd5b60048054604080517fda46098c000000000000000000000000000000000000000000000000000000008152339381019390935273ffffffffffffffffffffffffffffffffffffffff878116602485015260448401879052905191169163da46098c91606480830192600092919082900301818387803b1580156108da57600080fd5b505af11580156108ee573d6000803e3d6000fd5b505060408051868152905173ffffffffffffffffffffffffffffffffffffffff881693503392507f8c5be1e5ebec7d5bd14f71427d1e84f3dd0314c0f7b2291e5b200ac8c7c3b9259181900360200190a35060019392505050565b600354604080517f18160ddd000000000000000000000000000000000000000000000000000000008152905160009273ffffffffffffffffffffffffffffffffffffffff16916318160ddd91600480830192602092919082900301818787803b1580156109b557600080fd5b505af11580156109c9573d6000803e3d6000fd5b505050506040513d60208110156109df57600080fd5b5051905090565b60015460009074010000000000000000000000000000000000000000900460ff1615610a1157600080fd5b600254604080517f7ccce85100000000000000000000000000000000000000000000000000000000815273ffffffffffffffffffffffffffffffffffffffff808716600483015291518793879360009384939190921691637ccce85191602480830192602092919082900301818787803b158015610a8e57600080fd5b505af1158015610aa2573d6000803e3d6000fd5b505050506040513d6020811015610ab857600080fd5b505115610b2657604080517f08c379a000000000000000000000000000000000000000000000000000000000815260206004820152601f60248201527f526563697069656e742063616e6e6f7420626520626c61636b6c697374656400604482015290519081900360640190fd5b600254604080517f7ccce85100000000000000000000000000000000000000000000000000000000815273ffffffffffffffffffffffffffffffffffffffff878116600483015291519190921691637ccce8519160248083019260209291908290030181600087803b158015610b9b57600080fd5b505af1158015610baf573d6000803e3d6000fd5b505050506040513d6020811015610bc557600080fd5b5051600254604080517f91c4529f000000000000000000000000000000000000000000000000000000008152336004820152905192945073ffffffffffffffffffffffffffffffffffffffff909116916391c4529f916024808201926020929091908290030181600087803b158015610c3d57600080fd5b505af1158015610c51573d6000803e3d6000fd5b505050506040513d6020811015610c6757600080fd5b50519050811580610c755750805b1515610d2e57604080517f08c379a000000000000000000000000000000000000000000000000000000000815260206004820152604c60248201527f4f726967696e2063616e6e6f7420626520626c61636b6c69737465642069662060448201527f7370656e646572206973206e6f7420616e20617070726f76656420626c61636b60648201527f6c697374207370656e6465720000000000000000000000000000000000000000608482015290519081900360a40190fd5b610d3888336130b7565b861115610da657604080517f08c379a000000000000000000000000000000000000000000000000000000000815260206004820181905260248201527f6e6f7420656e6f75676820616c6c6f77616e636520746f207472616e73666572604482015290519081900360640190fd5b73ffffffffffffffffffffffffffffffffffffffff87161515610e2a57604080517f08c379a000000000000000000000000000000000000000000000000000000000815260206004820152601860248201527f746f20616464726573732063616e6e6f74206265203078300000000000000000604482015290519081900360640190fd5b610e3388611ce0565b861115610ea157604080517f08c379a000000000000000000000000000000000000000000000000000000000815260206004820152601e60248201527f6e6f7420656e6f7567682062616c616e636520746f207472616e736665720000604482015290519081900360640190fd5b60048054604080517f97d88cd200000000000000000000000000000000000000000000000000000000815273ffffffffffffffffffffffffffffffffffffffff8c811694820194909452336024820152604481018a9052905192909116916397d88cd29160648082019260009290919082900301818387803b158015610f2657600080fd5b505af1158015610f3a573d6000803e3d6000fd5b5050600354604080517f21e5383a00000000000000000000000000000000000000000000000000000000815273ffffffffffffffffffffffffffffffffffffffff8c81166004830152602482018c905291519190921693506321e5383a9250604480830192600092919082900301818387803b158015610fb957600080fd5b505af1158015610fcd573d6000803e3d6000fd5b5050600354604080517fcf8eeb7e00000000000000000000000000000000000000000000000000000000815273ffffffffffffffffffffffffffffffffffffffff8d81166004830152602482018c9052915191909216935063cf8eeb7e9250604480830192600092919082900301818387803b15801561104c57600080fd5b505af1158015611060573d6000803e3d6000fd5b505060408051898152905173ffffffffffffffffffffffffffffffffffffffff808c1694508c1692507fddf252ad1be2c89b69c2b068fc378daa952ba7f163c4a11628f55a4df523b3ef9181900360200190a3506001979650505050505050565b60045473ffffffffffffffffffffffffffffffffffffffff1681565b60005473ffffffffffffffffffffffffffffffffffffffff16331461110157600080fd5b60015474010000000000000000000000000000000000000000900460ff16151561112a57600080fd5b600180547fffffffffffffffffffffff00ffffffffffffffffffffffffffffffffffffffff1690556040517f7805862f689e2f13df9f062ff482ad3ad112aca9e0847911ed832e158c525b3390600090a1565b600254604080517f14db6d58000000000000000000000000000000000000000000000000000000008152336004820152600080357fffffffff00000000000000000000000000000000000000000000000000000000166024830152915173ffffffffffffffffffffffffffffffffffffffff909316926314db6d5892604480840193602093929083900390910190829087803b15801561121c57600080fd5b505af1158015611230573d6000803e3d6000fd5b505050506040513d602081101561124657600080fd5b505115156112db57604080517f08c379a000000000000000000000000000000000000000000000000000000000815260206004820152603160248201527f5573657220646f6573206e6f742068617665207065726d697373696f6e20746f60448201527f20657865637574652066756e6374696f6e000000000000000000000000000000606482015290519081900360840190fd5b60015474010000000000000000000000000000000000000000900460ff161561130357600080fd5b61130d82826132a8565b5050565b600254604080517f14db6d58000000000000000000000000000000000000000000000000000000008152336004820152600080357fffffffff00000000000000000000000000000000000000000000000000000000166024830152915173ffffffffffffffffffffffffffffffffffffffff909316926314db6d5892604480840193602093929083900390910190829087803b1580156113b057600080fd5b505af11580156113c4573d6000803e3d6000fd5b505050506040513d60208110156113da57600080fd5b5051151561146f57604080517f08c379a000000000000000000000000000000000000000000000000000000000815260206004820152603160248201527f5573657220646f6573206e6f742068617665207065726d697373696f6e20746f60448201527f20657865637574652066756e6374696f6e000000000000000000000000000000606482015290519081900360840190fd5b60015474010000000000000000000000000000000000000000900460ff161561149757600080fd5b6114a13382613576565b50565b60015473ffffffffffffffffffffffffffffffffffffffff1633146114c857600080fd5b6001546000805460405173ffffffffffffffffffffffffffffffffffffffff93841693909116917f8be0079c531659141344cd1fd0a4f28419497f9722a3daafe3b4186f6b6457e091a360018054600080547fffffffffffffffffffffffff000000000000000000000000000000000000000090811673ffffffffffffffffffffffffffffffffffffffff841617909155169055565b600254604080517f14db6d58000000000000000000000000000000000000000000000000000000008152336004820152600080357fffffffff000000000000000000000000000000000000000000000000000000001660248301529151919273ffffffffffffffffffffffffffffffffffffffff16916314db6d589160448082019260209290919082900301818787803b1580156115fb57600080fd5b505af115801561160f573d6000803e3d6000fd5b505050506040513d602081101561162557600080fd5b505115156116ba57604080517f08c379a000000000000000000000000000000000000000000000000000000000815260206004820152603160248201527f5573657220646f6573206e6f742068617665207065726d697373696f6e20746f60448201527f20657865637574652066756e6374696f6e000000000000000000000000000000606482015290519081900360840190fd5b50600190565b60015474010000000000000000000000000000000000000000900460ff1681565b600254604080517f7ccce85100000000000000000000000000000000000000000000000000000000815273ffffffffffffffffffffffffffffffffffffffff8086166004830152915160009386931691637ccce85191602480830192602092919082900301818887803b15801561175757600080fd5b505af115801561176b573d6000803e3d6000fd5b505050506040513d602081101561178157600080fd5b5051156117ef57604080517f08c379a000000000000000000000000000000000000000000000000000000000815260206004820152601c60248201527f55736572206d757374206e6f7420626520626c61636b6c697374656400000000604482015290519081900360640190fd5b600254604080517f7ccce851000000000000000000000000000000000000000000000000000000008152336004820152905173ffffffffffffffffffffffffffffffffffffffff90921691637ccce851916024808201926020929091908290030181600087803b15801561186257600080fd5b505af1158015611876573d6000803e3d6000fd5b505050506040513d602081101561188c57600080fd5b5051156118fa57604080517f08c379a000000000000000000000000000000000000000000000000000000000815260206004820152601e60248201527f53656e646572206d757374206e6f7420626520626c61636b6c69737465640000604482015290519081900360640190fd5b60015474010000000000000000000000000000000000000000900460ff161561192257600080fd5b61192d8484336137a9565b5060019392505050565b600254604080517f7ccce85100000000000000000000000000000000000000000000000000000000815273ffffffffffffffffffffffffffffffffffffffff8085166004830152915184939290921691637ccce851916024808201926020929091908290030181600087803b1580156119af57600080fd5b505af11580156119c3573d6000803e3d6000fd5b505050506040513d60208110156119d957600080fd5b50511515611a4857604080517f08c379a000000000000000000000000000000000000000000000000000000000815260206004820152601860248201527f55736572206d75737420626520626c61636b6c69737465640000000000000000604482015290519081900360640190fd5b60015474010000000000000000000000000000000000000000900460ff1615611a7057600080fd5b600254604080517f14db6d58000000000000000000000000000000000000000000000000000000008152336004820152600080357fffffffff00000000000000000000000000000000000000000000000000000000166024830152915173ffffffffffffffffffffffffffffffffffffffff909316926314db6d5892604480840193602093929083900390910190829087803b158015611b0f57600080fd5b505af1158015611b23573d6000803e3d6000fd5b505050506040513d6020811015611b3957600080fd5b50511515611bce57604080517f08c379a000000000000000000000000000000000000000000000000000000000815260206004820152603160248201527f5573657220646f6573206e6f742068617665207065726d697373696f6e20746f60448201527f20657865637574652066756e6374696f6e000000000000000000000000000000606482015290519081900360840190fd5b60045473ffffffffffffffffffffffffffffffffffffffff1663da46098c8333611bf782611ce0565b604080517c010000000000000000000000000000000000000000000000000000000063ffffffff871602815273ffffffffffffffffffffffffffffffffffffffff948516600482015292909316602483015260448201529051606480830192600092919082900301818387803b158015611c7057600080fd5b505af1158015611c84573d6000803e3d6000fd5b50339250505073ffffffffffffffffffffffffffffffffffffffff83167f3b1ffca3903932aa264fbb5b7b381746e2b7b61c9c5a6024bad48d23f958a6c2611ccb85611ce0565b60408051918252519081900360200190a35050565b600354604080517f70a0823100000000000000000000000000000000000000000000000000000000815273ffffffffffffffffffffffffffffffffffffffff8481166004830152915160009392909216916370a082319160248082019260209290919082900301818787803b158015611d5857600080fd5b505af1158015611d6c573d6000803e3d6000fd5b505050506040513d6020811015611d8257600080fd5b505192915050565b6000805473ffffffffffffffffffffffffffffffffffffffff163314611daf57600080fd5b60035473ffffffffffffffffffffffffffffffffffffffff83811691161415611e3957604080517f08c379a000000000000000000000000000000000000000000000000000000000815260206004820152601b60248201527f4d7573742062652061206e65772062616c616e63652073686565740000000000604482015290519081900360640190fd5b611e4282613a8a565b1515611ed557604080517f08c379a000000000000000000000000000000000000000000000000000000000815260206004820152603860248201527f43616e6e6f7420736574206120726567756c61746f722073746f72616765207460448201527f6f2061206e6f6e2d636f6e747261637420616464726573730000000000000000606482015290519081900360840190fd5b506003805473ffffffffffffffffffffffffffffffffffffffff8381167fffffffffffffffffffffffff0000000000000000000000000000000000000000831681179093556040805191909216808252602082019390935281517f8c3d37b41e983f0d5b0b91de3f9d5055c73a17beebc7adfce9b677ab7c07ad2d929181900390910190a15050565b60035473ffffffffffffffffffffffffffffffffffffffff1681565b60005473ffffffffffffffffffffffffffffffffffffffff163314611f9e57600080fd5b60015474010000000000000000000000000000000000000000900460ff1615611fc657600080fd5b600180547fffffffffffffffffffffff00ffffffffffffffffffffffffffffffffffffffff16740100000000000000000000000000000000000000001790556040517f6985a02210a168e66602d3235cb6db0e70f92b3ba4d376a33c0f3d9434bff62590600090a1565b6001547501000000000000000000000000000000000000000000900460ff1681565b600360009054906101000a900473ffffffffffffffffffffffffffffffffffffffff1673ffffffffffffffffffffffffffffffffffffffff16634e71e0c86040518163ffffffff167c0100000000000000000000000000000000000000000000000000000000028152600401600060405180830381600087803b1580156120d857600080fd5b505af11580156120ec573d6000803e3d6000fd5b50505050565b60005473ffffffffffffffffffffffffffffffffffffffff1681565b60048054604080517f4e71e0c8000000000000000000000000000000000000000000000000000000008152905173ffffffffffffffffffffffffffffffffffffffff90921692634e71e0c892828201926000929082900301818387803b1580156120d857600080fd5b60005473ffffffffffffffffffffffffffffffffffffffff16331461219b57600080fd5b600180547fffffffffffffffffffff00ffffffffffffffffffffffffffffffffffffffffff1675010000000000000000000000000000000000000000001790556040517f19aad37188a1d3921e29eb3c66acf43d81975e107cb650d58cca878627955fd690600090a1565b600254604080517f7ccce85100000000000000000000000000000000000000000000000000000000815273ffffffffffffffffffffffffffffffffffffffff8086166004830152915160009386931691637ccce85191602480830192602092919082900301818887803b15801561227c57600080fd5b505af1158015612290573d6000803e3d6000fd5b505050506040513d60208110156122a657600080fd5b50511561231457604080517f08c379a000000000000000000000000000000000000000000000000000000000815260206004820152601f60248201527f526563697069656e742063616e6e6f7420626520626c61636b6c697374656400604482015290519081900360640190fd5b600254604080517f7ccce851000000000000000000000000000000000000000000000000000000008152336004820152905173ffffffffffffffffffffffffffffffffffffffff90921691637ccce851916024808201926020929091908290030181600087803b15801561238757600080fd5b505af115801561239b573d6000803e3d6000fd5b505050506040513d60208110156123b157600080fd5b50511561241f57604080517f08c379a000000000000000000000000000000000000000000000000000000000815260206004820152601c60248201527f53656e6465722063616e6e6f7420626520626c61636b6c697374656400000000604482015290519081900360640190fd5b60015474010000000000000000000000000000000000000000900460ff161561244757600080fd5b73ffffffffffffffffffffffffffffffffffffffff841615156124cb57604080517f08c379a000000000000000000000000000000000000000000000000000000000815260206004820152601860248201527f746f20616464726573732063616e6e6f74206265203078300000000000000000604482015290519081900360640190fd5b6124d433611ce0565b83111561254257604080517f08c379a000000000000000000000000000000000000000000000000000000000815260206004820152601e60248201527f6e6f7420656e6f7567682062616c616e636520746f207472616e736665720000604482015290519081900360640190fd5b600354604080517fcf8eeb7e00000000000000000000000000000000000000000000000000000000815233600482015260248101869052905173ffffffffffffffffffffffffffffffffffffffff9092169163cf8eeb7e9160448082019260009290919082900301818387803b1580156125bb57600080fd5b505af11580156125cf573d6000803e3d6000fd5b5050600354604080517f21e5383a00000000000000000000000000000000000000000000000000000000815273ffffffffffffffffffffffffffffffffffffffff89811660048301526024820189905291519190921693506321e5383a9250604480830192600092919082900301818387803b15801561264e57600080fd5b505af1158015612662573d6000803e3d6000fd5b505060408051868152905173ffffffffffffffffffffffffffffffffffffffff881693503392507fddf252ad1be2c89b69c2b068fc378daa952ba7f163c4a11628f55a4df523b3ef9181900360200190a35060019392505050565b6000805473ffffffffffffffffffffffffffffffffffffffff1633146126e257600080fd5b60045473ffffffffffffffffffffffffffffffffffffffff8381169116141561276c57604080517f08c379a000000000000000000000000000000000000000000000000000000000815260206004820152601b60248201527f4d7573742062652061206e65772073746f726167652073686565740000000000604482015290519081900360640190fd5b61277582613a8a565b151561280857604080517f08c379a000000000000000000000000000000000000000000000000000000000815260206004820152603860248201527f43616e6e6f7420736574206120726567756c61746f722073746f72616765207460448201527f6f2061206e6f6e2d636f6e747261637420616464726573730000000000000000606482015290519081900360840190fd5b506004805473ffffffffffffffffffffffffffffffffffffffff8381167fffffffffffffffffffffffff0000000000000000000000000000000000000000831681179093556040805191909216808252602082019390935281517fec358425c40511d576e1c52be7593403bceacda627234c873b52589fef7b2359929181900390910190a15050565b600254604080517f7ccce85100000000000000000000000000000000000000000000000000000000815273ffffffffffffffffffffffffffffffffffffffff8086166004830152915185939290921691637ccce851916024808201926020929091908290030181600087803b15801561290957600080fd5b505af115801561291d573d6000803e3d6000fd5b505050506040513d602081101561293357600080fd5b505115156129a257604080517f08c379a000000000000000000000000000000000000000000000000000000000815260206004820152601860248201527f55736572206d75737420626520626c61636b6c69737465640000000000000000604482015290519081900360640190fd5b60015474010000000000000000000000000000000000000000900460ff16156129ca57600080fd5b600254604080517f14db6d58000000000000000000000000000000000000000000000000000000008152336004820152600080357fffffffff00000000000000000000000000000000000000000000000000000000166024830152915173ffffffffffffffffffffffffffffffffffffffff909316926314db6d5892604480840193602093929083900390910190829087803b158015612a6957600080fd5b505af1158015612a7d573d6000803e3d6000fd5b505050506040513d6020811015612a9357600080fd5b50511515612b2857604080517f08c379a000000000000000000000000000000000000000000000000000000000815260206004820152603160248201527f5573657220646f6573206e6f742068617665207065726d697373696f6e20746f60448201527f20657865637574652066756e6374696f6e000000000000000000000000000000606482015290519081900360840190fd5b600354604080517fcf8eeb7e00000000000000000000000000000000000000000000000000000000815273ffffffffffffffffffffffffffffffffffffffff8681166004830152602482018690529151919092169163cf8eeb7e91604480830192600092919082900301818387803b158015612ba357600080fd5b505af1158015612bb7573d6000803e3d6000fd5b5050600354604080517f82838c7600000000000000000000000000000000000000000000000000000000815260048101879052905173ffffffffffffffffffffffffffffffffffffffff90921693506382838c76925060248082019260009290919082900301818387803b158015612c2e57600080fd5b505af1158015612c42573d6000803e3d6000fd5b505060408051858152905173ffffffffffffffffffffffffffffffffffffffff871693507fb81d1dffb753076892e04e6e1234d137b031f70d859c299876b0486e966424fd92509081900360200190a2505050565b6000805473ffffffffffffffffffffffffffffffffffffffff163314612cbc57600080fd5b60025473ffffffffffffffffffffffffffffffffffffffff83811691161415612d4657604080517f08c379a000000000000000000000000000000000000000000000000000000000815260206004820152601760248201527f4d7573742062652061206e657720726567756c61746f72000000000000000000604482015290519081900360640190fd5b612d4f82613a8a565b1515612de257604080517f08c379a000000000000000000000000000000000000000000000000000000000815260206004820152603860248201527f43616e6e6f7420736574206120726567756c61746f722073746f72616765207460448201527f6f2061206e6f6e2d636f6e747261637420616464726573730000000000000000606482015290519081900360840190fd5b506002805473ffffffffffffffffffffffffffffffffffffffff8381167fffffffffffffffffffffffff0000000000000000000000000000000000000000831681179093556040805191909216808252602082019390935281517f4a59b4b607c6055b37a4716d7813d7d4d2c288e4d0dd8298e365b260a1f262e8929181900390910190a15050565b600254604080517f7ccce85100000000000000000000000000000000000000000000000000000000815273ffffffffffffffffffffffffffffffffffffffff8086166004830152915160009386931691637ccce85191602480830192602092919082900301818887803b158015612ee157600080fd5b505af1158015612ef5573d6000803e3d6000fd5b505050506040513d6020811015612f0b57600080fd5b505115612f7957604080517f08c379a000000000000000000000000000000000000000000000000000000000815260206004820152601c60248201527f55736572206d757374206e6f7420626520626c61636b6c697374656400000000604482015290519081900360640190fd5b600254604080517f7ccce851000000000000000000000000000000000000000000000000000000008152336004820152905173ffffffffffffffffffffffffffffffffffffffff90921691637ccce851916024808201926020929091908290030181600087803b158015612fec57600080fd5b505af1158015613000573d6000803e3d6000fd5b505050506040513d602081101561301657600080fd5b50511561308457604080517f08c379a000000000000000000000000000000000000000000000000000000000815260206004820152601e60248201527f53656e646572206d757374206e6f7420626520626c61636b6c69737465640000604482015290519081900360640190fd5b60015474010000000000000000000000000000000000000000900460ff16156130ac57600080fd5b61192d848433613a92565b60048054604080517f1a46ec8200000000000000000000000000000000000000000000000000000000815273ffffffffffffffffffffffffffffffffffffffff868116948201949094528484166024820152905160009390921691631a46ec829160448082019260209290919082900301818787803b15801561313957600080fd5b505af115801561314d573d6000803e3d6000fd5b505050506040513d602081101561316357600080fd5b50519392505050565b60025473ffffffffffffffffffffffffffffffffffffffff1681565b60015473ffffffffffffffffffffffffffffffffffffffff1681565b60005473ffffffffffffffffffffffffffffffffffffffff1633146131c857600080fd5b73ffffffffffffffffffffffffffffffffffffffff811615156131ea57600080fd5b600180547fffffffffffffffffffffffff00000000000000000000000000000000000000001673ffffffffffffffffffffffffffffffffffffffff92909216919091179055565b60005473ffffffffffffffffffffffffffffffffffffffff16331461325557600080fd5b600180547fffffffffffffffffffff00ffffffffffffffffffffffffffffffffffffffffff1690556040517f0f2e5b6c72c6a4491efd919a9f9a409f324ef0708c11ee57d410c2cb06c0992b90600090a1565b600254604080517fd88c271e00000000000000000000000000000000000000000000000000000000815273ffffffffffffffffffffffffffffffffffffffff808616600483015291518593929092169163d88c271e916024808201926020929091908290030181600087803b15801561332057600080fd5b505af1158015613334573d6000803e3d6000fd5b505050506040513d602081101561334a57600080fd5b505115156133b957604080517f08c379a000000000000000000000000000000000000000000000000000000000815260206004820152601860248201527f55736572206d7573742062652077686974656c69737465640000000000000000604482015290519081900360640190fd5b600354604080517fe468688e00000000000000000000000000000000000000000000000000000000815260048101859052905173ffffffffffffffffffffffffffffffffffffffff9092169163e468688e9160248082019260009290919082900301818387803b15801561342c57600080fd5b505af1158015613440573d6000803e3d6000fd5b5050600354604080517f21e5383a00000000000000000000000000000000000000000000000000000000815273ffffffffffffffffffffffffffffffffffffffff88811660048301526024820188905291519190921693506321e5383a9250604480830192600092919082900301818387803b1580156134bf57600080fd5b505af11580156134d3573d6000803e3d6000fd5b505060408051858152905173ffffffffffffffffffffffffffffffffffffffff871693507f0f6798a560793a54c3bcfe86a93cde1e73087d944c0ea20544137d412139688592509081900360200190a260408051838152905173ffffffffffffffffffffffffffffffffffffffff8516916000917fddf252ad1be2c89b69c2b068fc378daa952ba7f163c4a11628f55a4df523b3ef9181900360200190a3505050565b61357f82611ce0565b8111156135ed57604080517f08c379a000000000000000000000000000000000000000000000000000000000815260206004820152601a60248201527f6e6f7420656e6f7567682062616c616e636520746f206275726e000000000000604482015290519081900360640190fd5b600354604080517fcf8eeb7e00000000000000000000000000000000000000000000000000000000815273ffffffffffffffffffffffffffffffffffffffff8581166004830152602482018590529151919092169163cf8eeb7e91604480830192600092919082900301818387803b15801561366857600080fd5b505af115801561367c573d6000803e3d6000fd5b5050600354604080517f82838c7600000000000000000000000000000000000000000000000000000000815260048101869052905173ffffffffffffffffffffffffffffffffffffffff90921693506382838c76925060248082019260009290919082900301818387803b1580156136f357600080fd5b505af1158015613707573d6000803e3d6000fd5b505060408051848152905173ffffffffffffffffffffffffffffffffffffffff861693507fcc16f5dbb4873280815c1ee09dbd06736cffcc184412cf7a71a0fdb75d397ca592509081900360200190a260408051828152905160009173ffffffffffffffffffffffffffffffffffffffff8516917fddf252ad1be2c89b69c2b068fc378daa952ba7f163c4a11628f55a4df523b3ef9181900360200190a35050565b60048054604080517f1a46ec8200000000000000000000000000000000000000000000000000000000815273ffffffffffffffffffffffffffffffffffffffff858116948201949094528684166024820152905160009390921691631a46ec829160448082019260209290919082900301818787803b15801561382b57600080fd5b505af115801561383f573d6000803e3d6000fd5b505050506040513d602081101561385557600080fd5b50519050808311156139035760048054604080517fda46098c00000000000000000000000000000000000000000000000000000000815273ffffffffffffffffffffffffffffffffffffffff8681169482019490945287841660248201526000604482018190529151939092169263da46098c92606480820193929182900301818387803b1580156138e657600080fd5b505af11580156138fa573d6000803e3d6000fd5b505050506139a3565b60048054604080517f97d88cd200000000000000000000000000000000000000000000000000000000815273ffffffffffffffffffffffffffffffffffffffff86811694820194909452878416602482015260448101879052905192909116916397d88cd29160648082019260009290919082900301818387803b15801561398a57600080fd5b505af115801561399e573d6000803e3d6000fd5b505050505b60048054604080517f1a46ec8200000000000000000000000000000000000000000000000000000000815273ffffffffffffffffffffffffffffffffffffffff8681169482018590528089166024830181905292519294937f8c5be1e5ebec7d5bd14f71427d1e84f3dd0314c0f7b2291e5b200ac8c7c3b92593911691631a46ec829160448083019260209291908290030181600087803b158015613a4757600080fd5b505af1158015613a5b573d6000803e3d6000fd5b505050506040513d6020811015613a7157600080fd5b505160408051918252519081900360200190a350505050565b6000903b1190565b60048054604080517f5fd72d1600000000000000000000000000000000000000000000000000000000815273ffffffffffffffffffffffffffffffffffffffff8581169482019490945286841660248201526044810186905290519290911691635fd72d169160648082019260009290919082900301818387803b158015613b1957600080fd5b505af1158015613b2d573d6000803e3d6000fd5b505060048054604080517f1a46ec8200000000000000000000000000000000000000000000000000000000815273ffffffffffffffffffffffffffffffffffffffff8781169482018590528981166024830181905292519296509394507f8c5be1e5ebec7d5bd14f71427d1e84f3dd0314c0f7b2291e5b200ac8c7c3b9259390921691631a46ec829160448083019260209291908290030181600087803b158015613bd757600080fd5b505af1158015613beb573d6000803e3d6000fd5b505050506040513d6020811015613c0157600080fd5b505160408051918252519081900360200190a35050505600a165627a7a723058208603ed64d2ceea2495334101c670979fd5178323268c017bf78ef6af44a7147f0029",
  "source": "pragma solidity ^0.4.24;\r\n\r\nimport \"./dataStorage/MutablePermissionedTokenStorage.sol\";\r\nimport \"openzeppelin-solidity/contracts/AddressUtils.sol\";\r\nimport \"openzeppelin-solidity/contracts/math/SafeMath.sol\";\r\nimport \"openzeppelin-solidity/contracts/AddressUtils.sol\";\r\n// import \"openzeppelin-solidity/contracts/lifecycle/Pausable.sol\";\r\nimport \"openzeppelin-solidity/contracts/token/ERC20/ERC20.sol\";\r\nimport \"../../helpers/Lockable.sol\";\r\nimport \"../../helpers/Pausable.sol\";\r\n\r\n/**\r\n* @title PermissionedToken\r\n* @notice A permissioned token that enables transfers, withdrawals, and deposits to occur \r\n* if and only if it is approved by an on-chain Regulator service. PermissionedToken is an\r\n* ERC-20 smart contract representing ownership of securities and overrides the\r\n* transfer, burn, and mint methods to check with the Regulator.\r\n*/\r\ncontract PermissionedToken is ERC20, Pausable, Lockable, MutablePermissionedTokenStorage {\r\n    using SafeMath for uint256;\r\n\r\n    /** Events */\r\n    event DestroyedBlacklistedTokens(address indexed account, uint256 amount);\r\n    event ApprovedBlacklistedAddressSpender(address indexed owner, address indexed spender, uint256 value);\r\n    event Mint(address indexed to, uint256 value);\r\n    event Burn(address indexed burner, uint256 value);\r\n    event Transfer(address indexed from, address indexed to, uint256 value);\r\n    event Approval(address indexed owner, address indexed spender, uint256 value);\r\n\r\n\r\n    constructor (address r, address b, address a) \r\n    MutablePermissionedTokenStorage(r, b, a) public {}\r\n\r\n    /** Modifiers **/\r\n\r\n    /** @notice Modifier that allows function access to be restricted based on\r\n    * whether the regulator allows the message sender to execute that function.\r\n    **/\r\n    modifier requiresPermission() {\r\n        require (regulator.hasUserPermission(msg.sender, msg.sig), \"User does not have permission to execute function\");\r\n        _;\r\n    }\r\n\r\n    /** @notice Modifier that checks whether or not a transfer operation can send tokens to the\r\n     * _to address. See transfer()'s documentation for\r\n     * more details.\r\n    **/\r\n    modifier transferConditionsRequired(address _to) {\r\n        require(!regulator.isBlacklistedUser(_to), \"Recipient cannot be blacklisted\");\r\n        require(!regulator.isBlacklistedUser(msg.sender), \"Sender cannot be blacklisted\");\r\n        _;\r\n    }\r\n\r\n     /** @notice Modifier that checks whether or not a transferFrom operation can\r\n     * succeed with the given _from and _to address. See transferFrom()'s documentation for\r\n     * more details.\r\n    **/\r\n    modifier transferFromConditionsRequired(address _from, address _to) {\r\n        require(!regulator.isBlacklistedUser(_to), \"Recipient cannot be blacklisted\");\r\n        \r\n        // If the origin user is blacklisted, the transaction can only succeed if \r\n        // the message sender is a user that has been approved to transfer \r\n        // blacklisted tokens out of this address.\r\n        bool is_origin_blacklisted = regulator.isBlacklistedUser(_from);\r\n\r\n        // Is the message sender a person with the ability to transfer tokens out of a blacklisted account?\r\n        bool sender_can_spend_from_blacklisted_address = regulator.isBlacklistSpender(msg.sender);\r\n        require(!is_origin_blacklisted || sender_can_spend_from_blacklisted_address, \"Origin cannot be blacklisted if spender is not an approved blacklist spender\");\r\n        _;\r\n    }\r\n\r\n    /** @notice Modifier that checks whether a user is whitelisted.\r\n     * @param _user The address of the user to check.\r\n    **/\r\n    modifier userWhitelisted(address _user) {\r\n        require(regulator.isWhitelistedUser(_user), \"User must be whitelisted\");\r\n        _;\r\n    }\r\n\r\n    /** @notice Modifier that checks whether a user is blacklisted.\r\n     * @param _user The address of the user to check.\r\n    **/\r\n    modifier userBlacklisted(address _user) {\r\n        require(regulator.isBlacklistedUser(_user), \"User must be blacklisted\");\r\n        _;\r\n    }\r\n\r\n    /** @notice Modifier that checks whether a user is not blacklisted.\r\n     * @param _user The address of the user to check.\r\n    **/\r\n    modifier userNotBlacklisted(address _user) {\r\n        require(!regulator.isBlacklistedUser(_user), \"User must not be blacklisted\");\r\n        _;\r\n    }\r\n\r\n    /** @notice Modifier that checks whether the caller of a function is not blacklisted.\r\n    **/\r\n    modifier senderNotBlacklisted() {\r\n        require(!regulator.isBlacklistedUser(msg.sender), \"Sender must not be blacklisted\");\r\n        _;\r\n    }\r\n\r\n    /** Functions **/\r\n\r\n    /**\r\n    * @notice Implements balanceOf() as specified in the ERC20 standard.\r\n    */\r\n    function balanceOf(address who) public view returns (uint256) {\r\n        return balances.balanceOf(who);\r\n    }\r\n\r\n    /**\r\n    * @notice Implements allowance() as specified in the ERC20 standard.\r\n    */\r\n    function allowance(address owner, address spender) public view returns (uint256) {\r\n        return allowances.allowanceOf(owner, spender);\r\n    }\r\n\r\n    /**\r\n    * @notice Implements totalSupply() as specified in the ERC20 standard.\r\n    */\r\n    function totalSupply() public view returns (uint256) {\r\n        return balances.totalSupply();\r\n    }\r\n\r\n    /**\r\n    * @notice Allows user to mint if they have the appropriate permissions. User generally\r\n    * has to be some sort of centralized authority.\r\n    * @dev Should be access-restricted with the 'requiresPermission' modifier when implementing.\r\n    * @param _to The address of the receiver\r\n    * @param _amount The number of tokens to mint\r\n    */\r\n    function mint(address _to, uint256 _amount) public requiresPermission whenNotPaused {\r\n        return _mint(_to, _amount);\r\n    }\r\n    \r\n    function _mint(address _to, uint256 _amount) internal userWhitelisted(_to) {\r\n        balances.addTotalSupply(_amount);\r\n        balances.addBalance(_to, _amount);\r\n        emit Mint(_to, _amount);\r\n        emit Transfer(address(0), _to, _amount);\r\n    }\r\n\r\n    /**\r\n    * @notice Allows user to mint if they have the appropriate permissions. User generally\r\n    * is just a \"whitelisted\" user (i.e. a user registered with the fiat gateway.)\r\n    * @dev Should be access-restricted with the 'requiresPermission' modifier when implementing.\r\n    * @param _amount The number of tokens to burn\r\n    * @return `true` if successful and `false` if unsuccessful\r\n    */\r\n    function burn(uint256 _amount) public requiresPermission whenNotPaused {\r\n        _burn(msg.sender, _amount);\r\n    }\r\n\r\n    function _burn(address _tokensOf, uint256 _amount) internal {\r\n        require(_amount <= balanceOf(_tokensOf),\"not enough balance to burn\");\r\n        // no need to require value <= totalSupply, since that would imply the\r\n        // sender's balance is greater than the totalSupply, which *should* be an assertion failure\r\n        balances.subBalance(_tokensOf, _amount);\r\n        balances.subTotalSupply(_amount);\r\n        emit Burn(_tokensOf, _amount);\r\n        emit Transfer(_tokensOf, address(0), _amount);\r\n    }\r\n\r\n    /**\r\n    * @notice Implements ERC-20 standard approve function. Locked or disabled by default to protect against\r\n    * double spend attacks. To modify allowances, clients should call safer increase/decreaseApproval methods.\r\n    * Upon construction, all calls to approve() will revert unless this contract owner explicitly unlocks approve()\r\n    */\r\n    function approve(address _spender, uint256 _value) \r\n    public userNotBlacklisted(_spender) senderNotBlacklisted whenNotPaused whenUnlocked returns (bool) {\r\n        allowances.setAllowance(msg.sender, _spender, _value);\r\n        emit Approval(msg.sender, _spender, _value);\r\n        return true;\r\n    }\r\n\r\n    /**\r\n     * @dev Increase the amount of tokens that an owner allowed to a spender.\r\n     * @notice increaseApproval should be used instead of approve when the user's allowance\r\n     * is greater than 0. Using increaseApproval protects against potential double-spend attacks\r\n     * by moving the check of whether the user has spent their allowance to the time that the transaction \r\n     * is mined, removing the user's ability to double-spend\r\n     * @param _spender The address which will spend the funds.\r\n     * @param _addedValue The amount of tokens to increase the allowance by.\r\n     */\r\n    function increaseApproval(address _spender, uint _addedValue) \r\n    public userNotBlacklisted(_spender) senderNotBlacklisted whenNotPaused returns (bool) {\r\n        increaseApprovalAllArgs(_spender, _addedValue, msg.sender);\r\n        return true;\r\n    }\r\n\r\n    function increaseApprovalAllArgs(address _spender, uint256 _addedValue, address _tokenHolder) internal {\r\n        allowances.addAllowance(_tokenHolder, _spender, _addedValue);\r\n        emit Approval(_tokenHolder, _spender, allowances.allowanceOf(_tokenHolder, _spender));\r\n    }\r\n\r\n    /**\r\n     * @dev Decrease the amount of tokens that an owner allowed to a spender.\r\n     * @notice decreaseApproval should be used instead of approve when the user's allowance\r\n     * is greater than 0. Using decreaseApproval protects against potential double-spend attacks\r\n     * by moving the check of whether the user has spent their allowance to the time that the transaction \r\n     * is mined, removing the user's ability to double-spend\r\n     * @param _spender The address which will spend the funds.\r\n     * @param _subtractedValue The amount of tokens to decrease the allowance by.\r\n     */\r\n    function decreaseApproval(address _spender, uint _subtractedValue) \r\n    public userNotBlacklisted(_spender) senderNotBlacklisted whenNotPaused returns (bool) {\r\n        decreaseApprovalAllArgs(_spender, _subtractedValue, msg.sender);\r\n        return true;\r\n    }\r\n\r\n    function decreaseApprovalAllArgs(address _spender, uint256 _subtractedValue, address _tokenHolder) internal {\r\n        uint256 oldValue = allowances.allowanceOf(_tokenHolder, _spender);\r\n        if (_subtractedValue > oldValue) {\r\n            allowances.setAllowance(_tokenHolder, _spender, 0);\r\n        } else {\r\n            allowances.subAllowance(_tokenHolder, _spender, _subtractedValue);\r\n        }\r\n        emit Approval(_tokenHolder, _spender, allowances.allowanceOf(_tokenHolder, _spender));\r\n    }\r\n\r\n    /**\r\n    * @notice Destroy the tokens owned by a blacklisted account. This function can generally\r\n    * only be called by a central authority.\r\n    * @dev Should be access-restricted with the 'requiresPermission' modifier when implementing.\r\n    * @param _who Account to destroy tokens from. Must be a blacklisted account.\r\n    */\r\n    function destroyBlacklistedTokens(address _who, uint256 _amount) public userBlacklisted(_who) whenNotPaused requiresPermission {\r\n        balances.subBalance(_who, _amount);\r\n        balances.subTotalSupply(_amount);\r\n        emit DestroyedBlacklistedTokens(_who, _amount);\r\n    }\r\n    /**\r\n    * @notice Allows a central authority to approve themselves as a spender on a blacklisted account.\r\n    * By default, the allowance is set to the balance of the blacklisted account, so that the\r\n    * authority has full control over the account balance.\r\n    * @dev Should be access-restricted with the 'requiresPermission' modifier when implementing.\r\n    * @param _blacklistedAccount The blacklisted account.\r\n    */\r\n    function approveBlacklistedAddressSpender(address _blacklistedAccount) \r\n    public userBlacklisted(_blacklistedAccount) whenNotPaused requiresPermission {\r\n        allowances.setAllowance(_blacklistedAccount, msg.sender, balanceOf(_blacklistedAccount));\r\n        emit ApprovedBlacklistedAddressSpender(_blacklistedAccount, msg.sender, balanceOf(_blacklistedAccount));\r\n    }\r\n\r\n    /**\r\n    * @notice Initiates a \"send\" operation towards another user. See `transferFrom` for details.\r\n    * @dev When implemented, it should use the transferConditionsRequired() modifier.\r\n    * @param _to The address of the receiver. This user must not be blacklisted, or else the tranfer\r\n    * will fail.\r\n    * @param _amount The number of tokens to transfer\r\n    *\r\n    * @return `true` if successful \r\n    */\r\n    function transfer(address _to, uint256 _amount) public transferConditionsRequired(_to) whenNotPaused returns (bool) {\r\n        require(_to != address(0),\"to address cannot be 0x0\");\r\n        require(_amount <= balanceOf(msg.sender),\"not enough balance to transfer\");\r\n\r\n        balances.subBalance(msg.sender, _amount);\r\n        balances.addBalance(_to, _amount);\r\n        emit Transfer(msg.sender, _to, _amount);\r\n        return true;\r\n    }\r\n\r\n    /**\r\n    * @notice Initiates a transfer operation between address `_from` and `_to`. Requires that the\r\n    * message sender is an approved spender on the _from account.\r\n    * @dev When implemented, it should use the transferFromConditionsRequired() modifier.\r\n    * @param _to The address of the recipient. This address must not be blacklisted.\r\n    * @param _from The address of the origin of funds. This address _could_ be blacklisted, because\r\n    * a regulator may want to transfer tokens out of a blacklisted account, for example.\r\n    * In order to do so, the regulator would have to add themselves as an approved spender\r\n    * on the account via `addBlacklistAddressSpender()`, and would then be able to transfer tokens out of it.\r\n    * @param _amount The number of tokens to transfer\r\n    * @return `true` if successful \r\n    */\r\n    function transferFrom(address _from, address _to, uint256 _amount) \r\n    public whenNotPaused transferFromConditionsRequired(_from, _to) returns (bool) {\r\n        require(_amount <= allowance(_from, msg.sender),\"not enough allowance to transfer\");\r\n        require(_to != address(0),\"to address cannot be 0x0\");\r\n        require(_amount <= balanceOf(_from),\"not enough balance to transfer\");\r\n        \r\n        allowances.subAllowance(_from, msg.sender, _amount);\r\n        balances.addBalance(_to, _amount);\r\n        balances.subBalance(_from, _amount);\r\n        emit Transfer(_from, _to, _amount);\r\n        return true;\r\n    }\r\n\r\n    /**\r\n    * @notice If a user is blacklisted, they will have the permission to \r\n    * execute this dummy function. This function effectively acts as a marker \r\n    * to indicate that a user is blacklisted. We include this function to be consistent with our\r\n    * invariant that every possible userPermission (listed in Regulator) enables access to a single \r\n    * PermissionedToken function. Thus, the 'BLACKLISTED' permission gives access to this function\r\n    * @return `true` if successful\r\n    */\r\n    function blacklisted() public view requiresPermission returns (bool) {\r\n        return true;\r\n    }\r\n}",
  "sourcePath": "C:\\Users\\npain\\Projects\\Carbon\\fiat_gateway\\contracts\\tokens\\permissionedToken\\PermissionedToken.sol",
  "compiler": {
    "name": "solc",
    "version": "0.4.24+commit.e67f0147.Emscripten.clang"
  },
  "schemaVersion": "2.0.1",
  "updatedAt": "2018-08-18T15:48:20.677Z"
}