{
  "contractName": "PermissionedToken",
  "abi": [
    {
      "constant": true,
      "inputs": [],
      "name": "allowances",
      "outputs": [
        {
          "name": "",
          "type": "address"
        }
      ],
      "payable": false,
      "stateMutability": "view",
      "type": "function"
    },
    {
      "constant": false,
      "inputs": [],
      "name": "unpause",
      "outputs": [],
      "payable": false,
      "stateMutability": "nonpayable",
      "type": "function"
    },
    {
      "constant": true,
      "inputs": [],
      "name": "paused",
      "outputs": [
        {
          "name": "",
          "type": "bool"
        }
      ],
      "payable": false,
      "stateMutability": "view",
      "type": "function"
    },
    {
      "constant": false,
      "inputs": [],
      "name": "renounceOwnership",
      "outputs": [],
      "payable": false,
      "stateMutability": "nonpayable",
      "type": "function"
    },
    {
      "constant": false,
      "inputs": [
        {
          "name": "_newStorageAddress",
          "type": "address"
        }
      ],
      "name": "setBalanceStorage",
      "outputs": [],
      "payable": false,
      "stateMutability": "nonpayable",
      "type": "function"
    },
    {
      "constant": true,
      "inputs": [],
      "name": "balances",
      "outputs": [
        {
          "name": "",
          "type": "address"
        }
      ],
      "payable": false,
      "stateMutability": "view",
      "type": "function"
    },
    {
      "constant": false,
      "inputs": [],
      "name": "pause",
      "outputs": [],
      "payable": false,
      "stateMutability": "nonpayable",
      "type": "function"
    },
    {
      "constant": true,
      "inputs": [],
      "name": "isMethodEnabled",
      "outputs": [
        {
          "name": "",
          "type": "bool"
        }
      ],
      "payable": false,
      "stateMutability": "view",
      "type": "function"
    },
    {
      "constant": true,
      "inputs": [],
      "name": "owner",
      "outputs": [
        {
          "name": "",
          "type": "address"
        }
      ],
      "payable": false,
      "stateMutability": "view",
      "type": "function"
    },
    {
      "constant": false,
      "inputs": [],
      "name": "unlock",
      "outputs": [],
      "payable": false,
      "stateMutability": "nonpayable",
      "type": "function"
    },
    {
      "constant": false,
      "inputs": [
        {
          "name": "_newStorageAddress",
          "type": "address"
        }
      ],
      "name": "setAllowanceStorage",
      "outputs": [],
      "payable": false,
      "stateMutability": "nonpayable",
      "type": "function"
    },
    {
      "constant": false,
      "inputs": [
        {
          "name": "_newStorageAddress",
          "type": "address"
        }
      ],
      "name": "setRegulator",
      "outputs": [],
      "payable": false,
      "stateMutability": "nonpayable",
      "type": "function"
    },
    {
      "constant": true,
      "inputs": [],
      "name": "regulator",
      "outputs": [
        {
          "name": "",
          "type": "address"
        }
      ],
      "payable": false,
      "stateMutability": "view",
      "type": "function"
    },
    {
      "constant": false,
      "inputs": [
        {
          "name": "_newOwner",
          "type": "address"
        }
      ],
      "name": "transferOwnership",
      "outputs": [],
      "payable": false,
      "stateMutability": "nonpayable",
      "type": "function"
    },
    {
      "constant": false,
      "inputs": [],
      "name": "lock",
      "outputs": [],
      "payable": false,
      "stateMutability": "nonpayable",
      "type": "function"
    },
    {
      "inputs": [
        {
          "name": "r",
          "type": "address"
        },
        {
          "name": "b",
          "type": "address"
        },
        {
          "name": "a",
          "type": "address"
        }
      ],
      "payable": false,
      "stateMutability": "nonpayable",
      "type": "constructor"
    },
    {
      "anonymous": false,
      "inputs": [
        {
          "indexed": true,
          "name": "account",
          "type": "address"
        },
        {
          "indexed": false,
          "name": "amount",
          "type": "uint256"
        }
      ],
      "name": "DestroyedBlacklistedTokens",
      "type": "event"
    },
    {
      "anonymous": false,
      "inputs": [
        {
          "indexed": true,
          "name": "owner",
          "type": "address"
        },
        {
          "indexed": true,
          "name": "spender",
          "type": "address"
        },
        {
          "indexed": false,
          "name": "value",
          "type": "uint256"
        }
      ],
      "name": "ApprovedBlacklistedAddressSpender",
      "type": "event"
    },
    {
      "anonymous": false,
      "inputs": [
        {
          "indexed": true,
          "name": "to",
          "type": "address"
        },
        {
          "indexed": false,
          "name": "value",
          "type": "uint256"
        }
      ],
      "name": "Mint",
      "type": "event"
    },
    {
      "anonymous": false,
      "inputs": [
        {
          "indexed": true,
          "name": "burner",
          "type": "address"
        },
        {
          "indexed": false,
          "name": "value",
          "type": "uint256"
        }
      ],
      "name": "Burn",
      "type": "event"
    },
    {
      "anonymous": false,
      "inputs": [
        {
          "indexed": true,
          "name": "from",
          "type": "address"
        },
        {
          "indexed": true,
          "name": "to",
          "type": "address"
        },
        {
          "indexed": false,
          "name": "value",
          "type": "uint256"
        }
      ],
      "name": "Transfer",
      "type": "event"
    },
    {
      "anonymous": false,
      "inputs": [
        {
          "indexed": true,
          "name": "owner",
          "type": "address"
        },
        {
          "indexed": true,
          "name": "spender",
          "type": "address"
        },
        {
          "indexed": false,
          "name": "value",
          "type": "uint256"
        }
      ],
      "name": "Approval",
      "type": "event"
    },
    {
      "anonymous": false,
      "inputs": [
        {
          "indexed": false,
          "name": "_old",
          "type": "address"
        },
        {
          "indexed": false,
          "name": "_new",
          "type": "address"
        }
      ],
      "name": "ChangedRegulator",
      "type": "event"
    },
    {
      "anonymous": false,
      "inputs": [
        {
          "indexed": false,
          "name": "_old",
          "type": "address"
        },
        {
          "indexed": false,
          "name": "_new",
          "type": "address"
        }
      ],
      "name": "ChangedBalanceStorage",
      "type": "event"
    },
    {
      "anonymous": false,
      "inputs": [
        {
          "indexed": false,
          "name": "_old",
          "type": "address"
        },
        {
          "indexed": false,
          "name": "_new",
          "type": "address"
        }
      ],
      "name": "ChangedAllowanceStorage",
      "type": "event"
    },
    {
      "anonymous": false,
      "inputs": [],
      "name": "Unlocked",
      "type": "event"
    },
    {
      "anonymous": false,
      "inputs": [],
      "name": "Locked",
      "type": "event"
    },
    {
      "anonymous": false,
      "inputs": [],
      "name": "Pause",
      "type": "event"
    },
    {
      "anonymous": false,
      "inputs": [],
      "name": "Unpause",
      "type": "event"
    },
    {
      "anonymous": false,
      "inputs": [
        {
          "indexed": true,
          "name": "previousOwner",
          "type": "address"
        }
      ],
      "name": "OwnershipRenounced",
      "type": "event"
    },
    {
      "anonymous": false,
      "inputs": [
        {
          "indexed": true,
          "name": "previousOwner",
          "type": "address"
        },
        {
          "indexed": true,
          "name": "newOwner",
          "type": "address"
        }
      ],
      "name": "OwnershipTransferred",
      "type": "event"
    },
    {
      "constant": true,
      "inputs": [
        {
          "name": "who",
          "type": "address"
        }
      ],
      "name": "balanceOf",
      "outputs": [
        {
          "name": "",
          "type": "uint256"
        }
      ],
      "payable": false,
      "stateMutability": "view",
      "type": "function"
    },
    {
      "constant": true,
      "inputs": [
        {
          "name": "owner",
          "type": "address"
        },
        {
          "name": "spender",
          "type": "address"
        }
      ],
      "name": "allowance",
      "outputs": [
        {
          "name": "",
          "type": "uint256"
        }
      ],
      "payable": false,
      "stateMutability": "view",
      "type": "function"
    },
    {
      "constant": true,
      "inputs": [],
      "name": "totalSupply",
      "outputs": [
        {
          "name": "",
          "type": "uint256"
        }
      ],
      "payable": false,
      "stateMutability": "view",
      "type": "function"
    },
    {
      "constant": false,
      "inputs": [
        {
          "name": "_to",
          "type": "address"
        },
        {
          "name": "_amount",
          "type": "uint256"
        }
      ],
      "name": "mint",
      "outputs": [],
      "payable": false,
      "stateMutability": "nonpayable",
      "type": "function"
    },
    {
      "constant": false,
      "inputs": [
        {
          "name": "_amount",
          "type": "uint256"
        }
      ],
      "name": "burn",
      "outputs": [],
      "payable": false,
      "stateMutability": "nonpayable",
      "type": "function"
    },
    {
      "constant": false,
      "inputs": [
        {
          "name": "_spender",
          "type": "address"
        },
        {
          "name": "_value",
          "type": "uint256"
        }
      ],
      "name": "approve",
      "outputs": [
        {
          "name": "",
          "type": "bool"
        }
      ],
      "payable": false,
      "stateMutability": "nonpayable",
      "type": "function"
    },
    {
      "constant": false,
      "inputs": [
        {
          "name": "_spender",
          "type": "address"
        },
        {
          "name": "_addedValue",
          "type": "uint256"
        }
      ],
      "name": "increaseApproval",
      "outputs": [
        {
          "name": "",
          "type": "bool"
        }
      ],
      "payable": false,
      "stateMutability": "nonpayable",
      "type": "function"
    },
    {
      "constant": false,
      "inputs": [
        {
          "name": "_spender",
          "type": "address"
        },
        {
          "name": "_subtractedValue",
          "type": "uint256"
        }
      ],
      "name": "decreaseApproval",
      "outputs": [
        {
          "name": "",
          "type": "bool"
        }
      ],
      "payable": false,
      "stateMutability": "nonpayable",
      "type": "function"
    },
    {
      "constant": false,
      "inputs": [
        {
          "name": "_who",
          "type": "address"
        },
        {
          "name": "_amount",
          "type": "uint256"
        }
      ],
      "name": "destroyBlacklistedTokens",
      "outputs": [],
      "payable": false,
      "stateMutability": "nonpayable",
      "type": "function"
    },
    {
      "constant": false,
      "inputs": [
        {
          "name": "_blacklistedAccount",
          "type": "address"
        }
      ],
      "name": "approveBlacklistedAddressSpender",
      "outputs": [],
      "payable": false,
      "stateMutability": "nonpayable",
      "type": "function"
    },
    {
      "constant": false,
      "inputs": [
        {
          "name": "_to",
          "type": "address"
        },
        {
          "name": "_amount",
          "type": "uint256"
        }
      ],
      "name": "transfer",
      "outputs": [
        {
          "name": "",
          "type": "bool"
        }
      ],
      "payable": false,
      "stateMutability": "nonpayable",
      "type": "function"
    },
    {
      "constant": false,
      "inputs": [
        {
          "name": "_from",
          "type": "address"
        },
        {
          "name": "_to",
          "type": "address"
        },
        {
          "name": "_amount",
          "type": "uint256"
        }
      ],
      "name": "transferFrom",
      "outputs": [
        {
          "name": "",
          "type": "bool"
        }
      ],
      "payable": false,
      "stateMutability": "nonpayable",
      "type": "function"
    },
    {
      "constant": true,
      "inputs": [],
      "name": "blacklisted",
      "outputs": [
        {
          "name": "",
          "type": "bool"
        }
      ],
      "payable": false,
      "stateMutability": "view",
      "type": "function"
    }
  ],
  "bytecode": "0x60806040526000805460a060020a61ffff021916905534801561002157600080fd5b50604051606080613b618339810160409081528151602083015191909201516000805433600160a060020a0319918216178255600180548216600160a060020a03968716179055600280548216948616949094179093556003805490931693909116929092179055613ac890819061009990396000f3006080604052600436106101695763ffffffff7c0100000000000000000000000000000000000000000000000000000000600035041663095ea7b3811461016e57806318160ddd146101b357806323b872dd146101da5780633ed10b92146102115780633f4ba83a1461024f57806340c10f191461026657806342966c68146102975780635bae9ce9146102af5780635c975abb146102c457806366188463146102d9578063662f94c01461030a57806370a0823114610338578063715018a61461036657806373e9e0e51461037b5780637bb98a68146103a95780638456cb59146103be57806388fa2617146103d35780638da5cb5b146103e8578063a69df4b5146103fd578063a9059cbb14610412578063c52dd64414610443578063c534ba4b14610471578063cde0a4f8146104a2578063d73dd623146104d0578063dd62ed3e14610501578063dd8fee1414610535578063f2fde38b1461054a578063f83d08ba14610578575b600080fd5b34801561017a57600080fd5b5061019f73ffffffffffffffffffffffffffffffffffffffff6004351660243561058d565b604080519115158252519081900360200190f35b3480156101bf57600080fd5b506101c86108e8565b60408051918252519081900360200190f35b3480156101e657600080fd5b5061019f73ffffffffffffffffffffffffffffffffffffffff60043581169060243516604435610985565b34801561021d57600080fd5b5061022661105a565b6040805173ffffffffffffffffffffffffffffffffffffffff9092168252519081900360200190f35b34801561025b57600080fd5b50610264611076565b005b34801561027257600080fd5b5061026473ffffffffffffffffffffffffffffffffffffffff60043516602435611114565b3480156102a357600080fd5b506102646004356112a8565b3480156102bb57600080fd5b5061019f61143b565b3480156102d057600080fd5b5061019f61159d565b3480156102e557600080fd5b5061019f73ffffffffffffffffffffffffffffffffffffffff600435166024356115be565b34801561031657600080fd5b5061026473ffffffffffffffffffffffffffffffffffffffff60043516611814565b34801561034457600080fd5b506101c873ffffffffffffffffffffffffffffffffffffffff60043516611bbd565b34801561037257600080fd5b50610264611c67565b34801561038757600080fd5b5061026473ffffffffffffffffffffffffffffffffffffffff60043516611cf8565b3480156103b557600080fd5b50610226611ecc565b3480156103ca57600080fd5b50610264611ee8565b3480156103df57600080fd5b5061019f611f9c565b3480156103f457600080fd5b50610226611fbe565b34801561040957600080fd5b50610264611fda565b34801561041e57600080fd5b5061019f73ffffffffffffffffffffffffffffffffffffffff60043516602435612067565b34801561044f57600080fd5b5061026473ffffffffffffffffffffffffffffffffffffffff6004351661251e565b34801561047d57600080fd5b5061026473ffffffffffffffffffffffffffffffffffffffff600435166024356126f2565b3480156104ae57600080fd5b5061026473ffffffffffffffffffffffffffffffffffffffff60043516612af8565b3480156104dc57600080fd5b5061019f73ffffffffffffffffffffffffffffffffffffffff60043516602435612ccc565b34801561050d57600080fd5b506101c873ffffffffffffffffffffffffffffffffffffffff60043581169060243516612f18565b34801561054157600080fd5b50610226612fcb565b34801561055657600080fd5b5061026473ffffffffffffffffffffffffffffffffffffffff60043516612fe7565b34801561058457600080fd5b50610264613014565b600154604080517f7ccce85100000000000000000000000000000000000000000000000000000000815273ffffffffffffffffffffffffffffffffffffffff8086166004830152915160009386931691637ccce85191602480830192602092919082900301818887803b15801561060357600080fd5b505af1158015610617573d6000803e3d6000fd5b505050506040513d602081101561062d57600080fd5b50511561069b57604080517f08c379a000000000000000000000000000000000000000000000000000000000815260206004820152601c60248201527f55736572206d757374206e6f7420626520626c61636b6c697374656400000000604482015290519081900360640190fd5b600154604080517f7ccce851000000000000000000000000000000000000000000000000000000008152336004820152905173ffffffffffffffffffffffffffffffffffffffff90921691637ccce851916024808201926020929091908290030181600087803b15801561070e57600080fd5b505af1158015610722573d6000803e3d6000fd5b505050506040513d602081101561073857600080fd5b5051156107a657604080517f08c379a000000000000000000000000000000000000000000000000000000000815260206004820152601e60248201527f53656e646572206d757374206e6f7420626520626c61636b6c69737465640000604482015290519081900360640190fd5b60005474010000000000000000000000000000000000000000900460ff16156107ce57600080fd5b6000547501000000000000000000000000000000000000000000900460ff1615156107f857600080fd5b600354604080517fda46098c00000000000000000000000000000000000000000000000000000000815233600482015273ffffffffffffffffffffffffffffffffffffffff8781166024830152604482018790529151919092169163da46098c91606480830192600092919082900301818387803b15801561087957600080fd5b505af115801561088d573d6000803e3d6000fd5b505060408051868152905173ffffffffffffffffffffffffffffffffffffffff881693503392507f8c5be1e5ebec7d5bd14f71427d1e84f3dd0314c0f7b2291e5b200ac8c7c3b9259181900360200190a35060019392505050565b600254604080517f18160ddd000000000000000000000000000000000000000000000000000000008152905160009273ffffffffffffffffffffffffffffffffffffffff16916318160ddd91600480830192602092919082900301818787803b15801561095457600080fd5b505af1158015610968573d6000803e3d6000fd5b505050506040513d602081101561097e57600080fd5b5051905090565b6000805474010000000000000000000000000000000000000000900460ff16156109ae57600080fd5b600154604080517f7ccce85100000000000000000000000000000000000000000000000000000000815273ffffffffffffffffffffffffffffffffffffffff808716600483015291518793879360009384939190921691637ccce85191602480830192602092919082900301818787803b158015610a2b57600080fd5b505af1158015610a3f573d6000803e3d6000fd5b505050506040513d6020811015610a5557600080fd5b505115610ac357604080517f08c379a000000000000000000000000000000000000000000000000000000000815260206004820152601f60248201527f526563697069656e742063616e6e6f7420626520626c61636b6c697374656400604482015290519081900360640190fd5b600154604080517f7ccce85100000000000000000000000000000000000000000000000000000000815273ffffffffffffffffffffffffffffffffffffffff878116600483015291519190921691637ccce8519160248083019260209291908290030181600087803b158015610b3857600080fd5b505af1158015610b4c573d6000803e3d6000fd5b505050506040513d6020811015610b6257600080fd5b5051600154604080517f91c4529f000000000000000000000000000000000000000000000000000000008152336004820152905192945073ffffffffffffffffffffffffffffffffffffffff909116916391c4529f916024808201926020929091908290030181600087803b158015610bda57600080fd5b505af1158015610bee573d6000803e3d6000fd5b505050506040513d6020811015610c0457600080fd5b50519050811580610c125750805b1515610ccb57604080517f08c379a000000000000000000000000000000000000000000000000000000000815260206004820152604c60248201527f4f726967696e2063616e6e6f7420626520626c61636b6c69737465642069662060448201527f7370656e646572206973206e6f7420616e20617070726f76656420626c61636b60648201527f6c697374207370656e6465720000000000000000000000000000000000000000608482015290519081900360a40190fd5b610cd58833612f18565b861115610d4357604080517f08c379a000000000000000000000000000000000000000000000000000000000815260206004820181905260248201527f6e6f7420656e6f75676820616c6c6f77616e636520746f207472616e73666572604482015290519081900360640190fd5b73ffffffffffffffffffffffffffffffffffffffff87161515610dc757604080517f08c379a000000000000000000000000000000000000000000000000000000000815260206004820152601860248201527f746f20616464726573732063616e6e6f74206265203078300000000000000000604482015290519081900360640190fd5b610dd088611bbd565b861115610e3e57604080517f08c379a000000000000000000000000000000000000000000000000000000000815260206004820152601e60248201527f6e6f7420656e6f7567682062616c616e636520746f207472616e736665720000604482015290519081900360640190fd5b600354604080517f97d88cd200000000000000000000000000000000000000000000000000000000815273ffffffffffffffffffffffffffffffffffffffff8b81166004830152336024830152604482018a9052915191909216916397d88cd291606480830192600092919082900301818387803b158015610ebf57600080fd5b505af1158015610ed3573d6000803e3d6000fd5b5050600254604080517f21e5383a00000000000000000000000000000000000000000000000000000000815273ffffffffffffffffffffffffffffffffffffffff8c81166004830152602482018c905291519190921693506321e5383a9250604480830192600092919082900301818387803b158015610f5257600080fd5b505af1158015610f66573d6000803e3d6000fd5b5050600254604080517fcf8eeb7e00000000000000000000000000000000000000000000000000000000815273ffffffffffffffffffffffffffffffffffffffff8d81166004830152602482018c9052915191909216935063cf8eeb7e9250604480830192600092919082900301818387803b158015610fe557600080fd5b505af1158015610ff9573d6000803e3d6000fd5b505060408051898152905173ffffffffffffffffffffffffffffffffffffffff808c1694508c1692507fddf252ad1be2c89b69c2b068fc378daa952ba7f163c4a11628f55a4df523b3ef9181900360200190a3506001979650505050505050565b60035473ffffffffffffffffffffffffffffffffffffffff1681565b60005473ffffffffffffffffffffffffffffffffffffffff16331461109a57600080fd5b60005474010000000000000000000000000000000000000000900460ff1615156110c357600080fd5b600080547fffffffffffffffffffffff00ffffffffffffffffffffffffffffffffffffffff1681556040517f7805862f689e2f13df9f062ff482ad3ad112aca9e0847911ed832e158c525b339190a1565b600154604080517f14db6d58000000000000000000000000000000000000000000000000000000008152336004820152600080357fffffffff00000000000000000000000000000000000000000000000000000000166024830152915173ffffffffffffffffffffffffffffffffffffffff909316926314db6d5892604480840193602093929083900390910190829087803b1580156111b357600080fd5b505af11580156111c7573d6000803e3d6000fd5b505050506040513d60208110156111dd57600080fd5b5051151561127257604080517f08c379a000000000000000000000000000000000000000000000000000000000815260206004820152603160248201527f5573657220646f6573206e6f742068617665207065726d697373696f6e20746f60448201527f20657865637574652066756e6374696f6e000000000000000000000000000000606482015290519081900360840190fd5b60005474010000000000000000000000000000000000000000900460ff161561129a57600080fd5b6112a48282613089565b5050565b600154604080517f14db6d58000000000000000000000000000000000000000000000000000000008152336004820152600080357fffffffff00000000000000000000000000000000000000000000000000000000166024830152915173ffffffffffffffffffffffffffffffffffffffff909316926314db6d5892604480840193602093929083900390910190829087803b15801561134757600080fd5b505af115801561135b573d6000803e3d6000fd5b505050506040513d602081101561137157600080fd5b5051151561140657604080517f08c379a000000000000000000000000000000000000000000000000000000000815260206004820152603160248201527f5573657220646f6573206e6f742068617665207065726d697373696f6e20746f60448201527f20657865637574652066756e6374696f6e000000000000000000000000000000606482015290519081900360840190fd5b60005474010000000000000000000000000000000000000000900460ff161561142e57600080fd5b6114383382613357565b50565b600154604080517f14db6d58000000000000000000000000000000000000000000000000000000008152336004820152600080357fffffffff000000000000000000000000000000000000000000000000000000001660248301529151919273ffffffffffffffffffffffffffffffffffffffff16916314db6d589160448082019260209290919082900301818787803b1580156114d857600080fd5b505af11580156114ec573d6000803e3d6000fd5b505050506040513d602081101561150257600080fd5b5051151561159757604080517f08c379a000000000000000000000000000000000000000000000000000000000815260206004820152603160248201527f5573657220646f6573206e6f742068617665207065726d697373696f6e20746f60448201527f20657865637574652066756e6374696f6e000000000000000000000000000000606482015290519081900360840190fd5b50600190565b60005474010000000000000000000000000000000000000000900460ff1681565b600154604080517f7ccce85100000000000000000000000000000000000000000000000000000000815273ffffffffffffffffffffffffffffffffffffffff8086166004830152915160009386931691637ccce85191602480830192602092919082900301818887803b15801561163457600080fd5b505af1158015611648573d6000803e3d6000fd5b505050506040513d602081101561165e57600080fd5b5051156116cc57604080517f08c379a000000000000000000000000000000000000000000000000000000000815260206004820152601c60248201527f55736572206d757374206e6f7420626520626c61636b6c697374656400000000604482015290519081900360640190fd5b600154604080517f7ccce851000000000000000000000000000000000000000000000000000000008152336004820152905173ffffffffffffffffffffffffffffffffffffffff90921691637ccce851916024808201926020929091908290030181600087803b15801561173f57600080fd5b505af1158015611753573d6000803e3d6000fd5b505050506040513d602081101561176957600080fd5b5051156117d757604080517f08c379a000000000000000000000000000000000000000000000000000000000815260206004820152601e60248201527f53656e646572206d757374206e6f7420626520626c61636b6c69737465640000604482015290519081900360640190fd5b60005474010000000000000000000000000000000000000000900460ff16156117ff57600080fd5b61180a84843361358a565b5060019392505050565b600154604080517f7ccce85100000000000000000000000000000000000000000000000000000000815273ffffffffffffffffffffffffffffffffffffffff8085166004830152915184939290921691637ccce851916024808201926020929091908290030181600087803b15801561188c57600080fd5b505af11580156118a0573d6000803e3d6000fd5b505050506040513d60208110156118b657600080fd5b5051151561192557604080517f08c379a000000000000000000000000000000000000000000000000000000000815260206004820152601860248201527f55736572206d75737420626520626c61636b6c69737465640000000000000000604482015290519081900360640190fd5b60005474010000000000000000000000000000000000000000900460ff161561194d57600080fd5b600154604080517f14db6d58000000000000000000000000000000000000000000000000000000008152336004820152600080357fffffffff00000000000000000000000000000000000000000000000000000000166024830152915173ffffffffffffffffffffffffffffffffffffffff909316926314db6d5892604480840193602093929083900390910190829087803b1580156119ec57600080fd5b505af1158015611a00573d6000803e3d6000fd5b505050506040513d6020811015611a1657600080fd5b50511515611aab57604080517f08c379a000000000000000000000000000000000000000000000000000000000815260206004820152603160248201527f5573657220646f6573206e6f742068617665207065726d697373696f6e20746f60448201527f20657865637574652066756e6374696f6e000000000000000000000000000000606482015290519081900360840190fd5b60035473ffffffffffffffffffffffffffffffffffffffff1663da46098c8333611ad482611bbd565b604080517c010000000000000000000000000000000000000000000000000000000063ffffffff871602815273ffffffffffffffffffffffffffffffffffffffff948516600482015292909316602483015260448201529051606480830192600092919082900301818387803b158015611b4d57600080fd5b505af1158015611b61573d6000803e3d6000fd5b50339250505073ffffffffffffffffffffffffffffffffffffffff83167f3b1ffca3903932aa264fbb5b7b381746e2b7b61c9c5a6024bad48d23f958a6c2611ba885611bbd565b60408051918252519081900360200190a35050565b600254604080517f70a0823100000000000000000000000000000000000000000000000000000000815273ffffffffffffffffffffffffffffffffffffffff8481166004830152915160009392909216916370a082319160248082019260209290919082900301818787803b158015611c3557600080fd5b505af1158015611c49573d6000803e3d6000fd5b505050506040513d6020811015611c5f57600080fd5b505192915050565b60005473ffffffffffffffffffffffffffffffffffffffff163314611c8b57600080fd5b6000805460405173ffffffffffffffffffffffffffffffffffffffff909116917ff8df31144d9c2f0f6b59d69b8b98abd5459d07f2742c4df920b25aae33c6482091a2600080547fffffffffffffffffffffffff0000000000000000000000000000000000000000169055565b6000805473ffffffffffffffffffffffffffffffffffffffff163314611d1d57600080fd5b60025473ffffffffffffffffffffffffffffffffffffffff83811691161415611da757604080517f08c379a000000000000000000000000000000000000000000000000000000000815260206004820152601b60248201527f4d7573742062652061206e65772062616c616e63652073686565740000000000604482015290519081900360640190fd5b611db082613864565b1515611e4357604080517f08c379a000000000000000000000000000000000000000000000000000000000815260206004820152603860248201527f43616e6e6f7420736574206120726567756c61746f722073746f72616765207460448201527f6f2061206e6f6e2d636f6e747261637420616464726573730000000000000000606482015290519081900360840190fd5b506002805473ffffffffffffffffffffffffffffffffffffffff8381167fffffffffffffffffffffffff0000000000000000000000000000000000000000831681179093556040805191909216808252602082019390935281517f8c3d37b41e983f0d5b0b91de3f9d5055c73a17beebc7adfce9b677ab7c07ad2d929181900390910190a15050565b60025473ffffffffffffffffffffffffffffffffffffffff1681565b60005473ffffffffffffffffffffffffffffffffffffffff163314611f0c57600080fd5b60005474010000000000000000000000000000000000000000900460ff1615611f3457600080fd5b600080547fffffffffffffffffffffff00ffffffffffffffffffffffffffffffffffffffff16740100000000000000000000000000000000000000001781556040517f6985a02210a168e66602d3235cb6db0e70f92b3ba4d376a33c0f3d9434bff6259190a1565b6000547501000000000000000000000000000000000000000000900460ff1681565b60005473ffffffffffffffffffffffffffffffffffffffff1681565b60005473ffffffffffffffffffffffffffffffffffffffff163314611ffe57600080fd5b600080547fffffffffffffffffffff00ffffffffffffffffffffffffffffffffffffffffff1675010000000000000000000000000000000000000000001781556040517f19aad37188a1d3921e29eb3c66acf43d81975e107cb650d58cca878627955fd69190a1565b600154604080517f7ccce85100000000000000000000000000000000000000000000000000000000815273ffffffffffffffffffffffffffffffffffffffff8086166004830152915160009386931691637ccce85191602480830192602092919082900301818887803b1580156120dd57600080fd5b505af11580156120f1573d6000803e3d6000fd5b505050506040513d602081101561210757600080fd5b50511561217557604080517f08c379a000000000000000000000000000000000000000000000000000000000815260206004820152601f60248201527f526563697069656e742063616e6e6f7420626520626c61636b6c697374656400604482015290519081900360640190fd5b600154604080517f7ccce851000000000000000000000000000000000000000000000000000000008152336004820152905173ffffffffffffffffffffffffffffffffffffffff90921691637ccce851916024808201926020929091908290030181600087803b1580156121e857600080fd5b505af11580156121fc573d6000803e3d6000fd5b505050506040513d602081101561221257600080fd5b50511561228057604080517f08c379a000000000000000000000000000000000000000000000000000000000815260206004820152601c60248201527f53656e6465722063616e6e6f7420626520626c61636b6c697374656400000000604482015290519081900360640190fd5b60005474010000000000000000000000000000000000000000900460ff16156122a857600080fd5b73ffffffffffffffffffffffffffffffffffffffff8416151561232c57604080517f08c379a000000000000000000000000000000000000000000000000000000000815260206004820152601860248201527f746f20616464726573732063616e6e6f74206265203078300000000000000000604482015290519081900360640190fd5b61233533611bbd565b8311156123a357604080517f08c379a000000000000000000000000000000000000000000000000000000000815260206004820152601e60248201527f6e6f7420656e6f7567682062616c616e636520746f207472616e736665720000604482015290519081900360640190fd5b600254604080517fcf8eeb7e00000000000000000000000000000000000000000000000000000000815233600482015260248101869052905173ffffffffffffffffffffffffffffffffffffffff9092169163cf8eeb7e9160448082019260009290919082900301818387803b15801561241c57600080fd5b505af1158015612430573d6000803e3d6000fd5b5050600254604080517f21e5383a00000000000000000000000000000000000000000000000000000000815273ffffffffffffffffffffffffffffffffffffffff89811660048301526024820189905291519190921693506321e5383a9250604480830192600092919082900301818387803b1580156124af57600080fd5b505af11580156124c3573d6000803e3d6000fd5b505060408051868152905173ffffffffffffffffffffffffffffffffffffffff881693503392507fddf252ad1be2c89b69c2b068fc378daa952ba7f163c4a11628f55a4df523b3ef9181900360200190a35060019392505050565b6000805473ffffffffffffffffffffffffffffffffffffffff16331461254357600080fd5b60035473ffffffffffffffffffffffffffffffffffffffff838116911614156125cd57604080517f08c379a000000000000000000000000000000000000000000000000000000000815260206004820152601b60248201527f4d7573742062652061206e65772073746f726167652073686565740000000000604482015290519081900360640190fd5b6125d682613864565b151561266957604080517f08c379a000000000000000000000000000000000000000000000000000000000815260206004820152603860248201527f43616e6e6f7420736574206120726567756c61746f722073746f72616765207460448201527f6f2061206e6f6e2d636f6e747261637420616464726573730000000000000000606482015290519081900360840190fd5b506003805473ffffffffffffffffffffffffffffffffffffffff8381167fffffffffffffffffffffffff0000000000000000000000000000000000000000831681179093556040805191909216808252602082019390935281517fec358425c40511d576e1c52be7593403bceacda627234c873b52589fef7b2359929181900390910190a15050565b600154604080517f7ccce85100000000000000000000000000000000000000000000000000000000815273ffffffffffffffffffffffffffffffffffffffff8086166004830152915185939290921691637ccce851916024808201926020929091908290030181600087803b15801561276a57600080fd5b505af115801561277e573d6000803e3d6000fd5b505050506040513d602081101561279457600080fd5b5051151561280357604080517f08c379a000000000000000000000000000000000000000000000000000000000815260206004820152601860248201527f55736572206d75737420626520626c61636b6c69737465640000000000000000604482015290519081900360640190fd5b60005474010000000000000000000000000000000000000000900460ff161561282b57600080fd5b600154604080517f14db6d58000000000000000000000000000000000000000000000000000000008152336004820152600080357fffffffff00000000000000000000000000000000000000000000000000000000166024830152915173ffffffffffffffffffffffffffffffffffffffff909316926314db6d5892604480840193602093929083900390910190829087803b1580156128ca57600080fd5b505af11580156128de573d6000803e3d6000fd5b505050506040513d60208110156128f457600080fd5b5051151561298957604080517f08c379a000000000000000000000000000000000000000000000000000000000815260206004820152603160248201527f5573657220646f6573206e6f742068617665207065726d697373696f6e20746f60448201527f20657865637574652066756e6374696f6e000000000000000000000000000000606482015290519081900360840190fd5b600254604080517fcf8eeb7e00000000000000000000000000000000000000000000000000000000815273ffffffffffffffffffffffffffffffffffffffff8681166004830152602482018690529151919092169163cf8eeb7e91604480830192600092919082900301818387803b158015612a0457600080fd5b505af1158015612a18573d6000803e3d6000fd5b5050600254604080517f82838c7600000000000000000000000000000000000000000000000000000000815260048101879052905173ffffffffffffffffffffffffffffffffffffffff90921693506382838c76925060248082019260009290919082900301818387803b158015612a8f57600080fd5b505af1158015612aa3573d6000803e3d6000fd5b505060408051858152905173ffffffffffffffffffffffffffffffffffffffff871693507fb81d1dffb753076892e04e6e1234d137b031f70d859c299876b0486e966424fd92509081900360200190a2505050565b6000805473ffffffffffffffffffffffffffffffffffffffff163314612b1d57600080fd5b60015473ffffffffffffffffffffffffffffffffffffffff83811691161415612ba757604080517f08c379a000000000000000000000000000000000000000000000000000000000815260206004820152601760248201527f4d7573742062652061206e657720726567756c61746f72000000000000000000604482015290519081900360640190fd5b612bb082613864565b1515612c4357604080517f08c379a000000000000000000000000000000000000000000000000000000000815260206004820152603860248201527f43616e6e6f7420736574206120726567756c61746f722073746f72616765207460448201527f6f2061206e6f6e2d636f6e747261637420616464726573730000000000000000606482015290519081900360840190fd5b506001805473ffffffffffffffffffffffffffffffffffffffff8381167fffffffffffffffffffffffff0000000000000000000000000000000000000000831681179093556040805191909216808252602082019390935281517f4a59b4b607c6055b37a4716d7813d7d4d2c288e4d0dd8298e365b260a1f262e8929181900390910190a15050565b600154604080517f7ccce85100000000000000000000000000000000000000000000000000000000815273ffffffffffffffffffffffffffffffffffffffff8086166004830152915160009386931691637ccce85191602480830192602092919082900301818887803b158015612d4257600080fd5b505af1158015612d56573d6000803e3d6000fd5b505050506040513d6020811015612d6c57600080fd5b505115612dda57604080517f08c379a000000000000000000000000000000000000000000000000000000000815260206004820152601c60248201527f55736572206d757374206e6f7420626520626c61636b6c697374656400000000604482015290519081900360640190fd5b600154604080517f7ccce851000000000000000000000000000000000000000000000000000000008152336004820152905173ffffffffffffffffffffffffffffffffffffffff90921691637ccce851916024808201926020929091908290030181600087803b158015612e4d57600080fd5b505af1158015612e61573d6000803e3d6000fd5b505050506040513d6020811015612e7757600080fd5b505115612ee557604080517f08c379a000000000000000000000000000000000000000000000000000000000815260206004820152601e60248201527f53656e646572206d757374206e6f7420626520626c61636b6c69737465640000604482015290519081900360640190fd5b60005474010000000000000000000000000000000000000000900460ff1615612f0d57600080fd5b61180a84843361386c565b600354604080517f1a46ec8200000000000000000000000000000000000000000000000000000000815273ffffffffffffffffffffffffffffffffffffffff8581166004830152848116602483015291516000939290921691631a46ec829160448082019260209290919082900301818787803b158015612f9857600080fd5b505af1158015612fac573d6000803e3d6000fd5b505050506040513d6020811015612fc257600080fd5b50519392505050565b60015473ffffffffffffffffffffffffffffffffffffffff1681565b60005473ffffffffffffffffffffffffffffffffffffffff16331461300b57600080fd5b611438816139ed565b60005473ffffffffffffffffffffffffffffffffffffffff16331461303857600080fd5b600080547fffffffffffffffffffff00ffffffffffffffffffffffffffffffffffffffffff1681556040517f0f2e5b6c72c6a4491efd919a9f9a409f324ef0708c11ee57d410c2cb06c0992b9190a1565b600154604080517fd88c271e00000000000000000000000000000000000000000000000000000000815273ffffffffffffffffffffffffffffffffffffffff808616600483015291518593929092169163d88c271e916024808201926020929091908290030181600087803b15801561310157600080fd5b505af1158015613115573d6000803e3d6000fd5b505050506040513d602081101561312b57600080fd5b5051151561319a57604080517f08c379a000000000000000000000000000000000000000000000000000000000815260206004820152601860248201527f55736572206d7573742062652077686974656c69737465640000000000000000604482015290519081900360640190fd5b600254604080517fe468688e00000000000000000000000000000000000000000000000000000000815260048101859052905173ffffffffffffffffffffffffffffffffffffffff9092169163e468688e9160248082019260009290919082900301818387803b15801561320d57600080fd5b505af1158015613221573d6000803e3d6000fd5b5050600254604080517f21e5383a00000000000000000000000000000000000000000000000000000000815273ffffffffffffffffffffffffffffffffffffffff88811660048301526024820188905291519190921693506321e5383a9250604480830192600092919082900301818387803b1580156132a057600080fd5b505af11580156132b4573d6000803e3d6000fd5b505060408051858152905173ffffffffffffffffffffffffffffffffffffffff871693507f0f6798a560793a54c3bcfe86a93cde1e73087d944c0ea20544137d412139688592509081900360200190a260408051838152905173ffffffffffffffffffffffffffffffffffffffff8516916000917fddf252ad1be2c89b69c2b068fc378daa952ba7f163c4a11628f55a4df523b3ef9181900360200190a3505050565b61336082611bbd565b8111156133ce57604080517f08c379a000000000000000000000000000000000000000000000000000000000815260206004820152601a60248201527f6e6f7420656e6f7567682062616c616e636520746f206275726e000000000000604482015290519081900360640190fd5b600254604080517fcf8eeb7e00000000000000000000000000000000000000000000000000000000815273ffffffffffffffffffffffffffffffffffffffff8581166004830152602482018590529151919092169163cf8eeb7e91604480830192600092919082900301818387803b15801561344957600080fd5b505af115801561345d573d6000803e3d6000fd5b5050600254604080517f82838c7600000000000000000000000000000000000000000000000000000000815260048101869052905173ffffffffffffffffffffffffffffffffffffffff90921693506382838c76925060248082019260009290919082900301818387803b1580156134d457600080fd5b505af11580156134e8573d6000803e3d6000fd5b505060408051848152905173ffffffffffffffffffffffffffffffffffffffff861693507fcc16f5dbb4873280815c1ee09dbd06736cffcc184412cf7a71a0fdb75d397ca592509081900360200190a260408051828152905160009173ffffffffffffffffffffffffffffffffffffffff8516917fddf252ad1be2c89b69c2b068fc378daa952ba7f163c4a11628f55a4df523b3ef9181900360200190a35050565b600354604080517f1a46ec8200000000000000000000000000000000000000000000000000000000815273ffffffffffffffffffffffffffffffffffffffff8481166004830152868116602483015291516000939290921691631a46ec829160448082019260209290919082900301818787803b15801561360a57600080fd5b505af115801561361e573d6000803e3d6000fd5b505050506040513d602081101561363457600080fd5b50519050808311156136de57600354604080517fda46098c00000000000000000000000000000000000000000000000000000000815273ffffffffffffffffffffffffffffffffffffffff85811660048301528781166024830152600060448301819052925193169263da46098c9260648084019391929182900301818387803b1580156136c157600080fd5b505af11580156136d5573d6000803e3d6000fd5b5050505061377a565b600354604080517f97d88cd200000000000000000000000000000000000000000000000000000000815273ffffffffffffffffffffffffffffffffffffffff8581166004830152878116602483015260448201879052915191909216916397d88cd291606480830192600092919082900301818387803b15801561376157600080fd5b505af1158015613775573d6000803e3d6000fd5b505050505b600354604080517f1a46ec8200000000000000000000000000000000000000000000000000000000815273ffffffffffffffffffffffffffffffffffffffff85811660048301819052888216602484018190529351939490937f8c5be1e5ebec7d5bd14f71427d1e84f3dd0314c0f7b2291e5b200ac8c7c3b925939290911691631a46ec829160448083019260209291908290030181600087803b15801561382157600080fd5b505af1158015613835573d6000803e3d6000fd5b505050506040513d602081101561384b57600080fd5b505160408051918252519081900360200190a350505050565b6000903b1190565b600354604080517f5fd72d1600000000000000000000000000000000000000000000000000000000815273ffffffffffffffffffffffffffffffffffffffff848116600483015286811660248301526044820186905291519190921691635fd72d1691606480830192600092919082900301818387803b1580156138ef57600080fd5b505af1158015613903573d6000803e3d6000fd5b5050600354604080517f1a46ec8200000000000000000000000000000000000000000000000000000000815273ffffffffffffffffffffffffffffffffffffffff86811660048301819052818a1660248401819052935193965094507f8c5be1e5ebec7d5bd14f71427d1e84f3dd0314c0f7b2291e5b200ac8c7c3b925931691631a46ec82916044808201926020929091908290030181600087803b1580156139ab57600080fd5b505af11580156139bf573d6000803e3d6000fd5b505050506040513d60208110156139d557600080fd5b505160408051918252519081900360200190a3505050565b73ffffffffffffffffffffffffffffffffffffffff81161515613a0f57600080fd5b6000805460405173ffffffffffffffffffffffffffffffffffffffff808516939216917f8be0079c531659141344cd1fd0a4f28419497f9722a3daafe3b4186f6b6457e091a3600080547fffffffffffffffffffffffff00000000000000000000000000000000000000001673ffffffffffffffffffffffffffffffffffffffff929092169190911790555600a165627a7a72305820ac383473ebd74cfb4c48112155ef37b09f7482f02e34dde55da655df7904cfdd0029",
  "source": "pragma solidity ^0.4.24;\r\n\r\nimport \"./dataStorage/MutablePermissionedTokenStorage.sol\";\r\nimport \"openzeppelin-solidity/contracts/AddressUtils.sol\";\r\nimport \"openzeppelin-solidity/contracts/math/SafeMath.sol\";\r\nimport \"openzeppelin-solidity/contracts/AddressUtils.sol\";\r\nimport \"openzeppelin-solidity/contracts/lifecycle/Pausable.sol\";\r\nimport \"openzeppelin-solidity/contracts/token/ERC20/ERC20.sol\";\r\nimport \"./helpers/Lockable.sol\";\r\n\r\n/**\r\n* @title PermissionedToken\r\n* @notice A permissioned token that enables transfers, withdrawals, and deposits to occur \r\n* if and only if it is approved by an on-chain Regulator service. PermissionedToken is an\r\n* ERC-20 smart contract representing ownership of securities and overrides the\r\n* transfer, burn, and mint methods to check with the Regulator.\r\n*/\r\ncontract PermissionedToken is ERC20, Pausable, Lockable, MutablePermissionedTokenStorage {\r\n    using SafeMath for uint256;\r\n\r\n    /** Events */\r\n    event DestroyedBlacklistedTokens(address indexed account, uint256 amount);\r\n    event ApprovedBlacklistedAddressSpender(address indexed owner, address indexed spender, uint256 value);\r\n    event Mint(address indexed to, uint256 value);\r\n    event Burn(address indexed burner, uint256 value);\r\n    event Transfer(address indexed from, address indexed to, uint256 value);\r\n    event Approval(address indexed owner, address indexed spender, uint256 value);\r\n\r\n\r\n    constructor (address r, address b, address a) \r\n    MutablePermissionedTokenStorage(r, b, a) public {}\r\n\r\n    /** Modifiers **/\r\n\r\n    /** @notice Modifier that allows function access to be restricted based on\r\n    * whether the regulator allows the message sender to execute that function.\r\n    **/\r\n    modifier requiresPermission() {\r\n        require (regulator.hasUserPermission(msg.sender, msg.sig), \"User does not have permission to execute function\");\r\n        _;\r\n    }\r\n\r\n    /** @notice Modifier that checks whether or not a transfer operation can send tokens to the\r\n     * _to address. See transfer()'s documentation for\r\n     * more details.\r\n    **/\r\n    modifier transferConditionsRequired(address _to) {\r\n        require(!regulator.isBlacklistedUser(_to), \"Recipient cannot be blacklisted\");\r\n        require(!regulator.isBlacklistedUser(msg.sender), \"Sender cannot be blacklisted\");\r\n        _;\r\n    }\r\n\r\n     /** @notice Modifier that checks whether or not a transferFrom operation can\r\n     * succeed with the given _from and _to address. See transferFrom()'s documentation for\r\n     * more details.\r\n    **/\r\n    modifier transferFromConditionsRequired(address _from, address _to) {\r\n        require(!regulator.isBlacklistedUser(_to), \"Recipient cannot be blacklisted\");\r\n        \r\n        // If the origin user is blacklisted, the transaction can only succeed if \r\n        // the message sender is a user that has been approved to transfer \r\n        // blacklisted tokens out of this address.\r\n        bool is_origin_blacklisted = regulator.isBlacklistedUser(_from);\r\n\r\n        // Is the message sender a person with the ability to transfer tokens out of a blacklisted account?\r\n        bool sender_can_spend_from_blacklisted_address = regulator.isBlacklistSpender(msg.sender);\r\n        require(!is_origin_blacklisted || sender_can_spend_from_blacklisted_address, \"Origin cannot be blacklisted if spender is not an approved blacklist spender\");\r\n        _;\r\n    }\r\n\r\n    /** @notice Modifier that checks whether a user is whitelisted.\r\n     * @param _user The address of the user to check.\r\n    **/\r\n    modifier userWhitelisted(address _user) {\r\n        require(regulator.isWhitelistedUser(_user), \"User must be whitelisted\");\r\n        _;\r\n    }\r\n\r\n    /** @notice Modifier that checks whether a user is blacklisted.\r\n     * @param _user The address of the user to check.\r\n    **/\r\n    modifier userBlacklisted(address _user) {\r\n        require(regulator.isBlacklistedUser(_user), \"User must be blacklisted\");\r\n        _;\r\n    }\r\n\r\n    /** @notice Modifier that checks whether a user is not blacklisted.\r\n     * @param _user The address of the user to check.\r\n    **/\r\n    modifier userNotBlacklisted(address _user) {\r\n        require(!regulator.isBlacklistedUser(_user), \"User must not be blacklisted\");\r\n        _;\r\n    }\r\n\r\n    /** @notice Modifier that checks whether the caller of a function is not blacklisted.\r\n    **/\r\n    modifier senderNotBlacklisted() {\r\n        require(!regulator.isBlacklistedUser(msg.sender), \"Sender must not be blacklisted\");\r\n        _;\r\n    }\r\n\r\n    /** Functions **/\r\n\r\n    /**\r\n    * @notice Implements balanceOf() as specified in the ERC20 standard.\r\n    */\r\n    function balanceOf(address who) public view returns (uint256) {\r\n        return balances.balanceOf(who);\r\n    }\r\n\r\n    /**\r\n    * @notice Implements allowance() as specified in the ERC20 standard.\r\n    */\r\n    function allowance(address owner, address spender) public view returns (uint256) {\r\n        return allowances.allowanceOf(owner, spender);\r\n    }\r\n\r\n    /**\r\n    * @notice Implements totalSupply() as specified in the ERC20 standard.\r\n    */\r\n    function totalSupply() public view returns (uint256) {\r\n        return balances.totalSupply();\r\n    }\r\n\r\n    /**\r\n    * @notice Allows user to mint if they have the appropriate permissions. User generally\r\n    * has to be some sort of centralized authority.\r\n    * @dev Should be access-restricted with the 'requiresPermission' modifier when implementing.\r\n    * @param _to The address of the receiver\r\n    * @param _amount The number of tokens to mint\r\n    */\r\n    function mint(address _to, uint256 _amount) public requiresPermission whenNotPaused {\r\n        return _mint(_to, _amount);\r\n    }\r\n    \r\n    function _mint(address _to, uint256 _amount) internal userWhitelisted(_to) {\r\n        balances.addTotalSupply(_amount);\r\n        balances.addBalance(_to, _amount);\r\n        emit Mint(_to, _amount);\r\n        emit Transfer(address(0), _to, _amount);\r\n    }\r\n\r\n    /**\r\n    * @notice Allows user to mint if they have the appropriate permissions. User generally\r\n    * is just a \"whitelisted\" user (i.e. a user registered with the fiat gateway.)\r\n    * @dev Should be access-restricted with the 'requiresPermission' modifier when implementing.\r\n    * @param _amount The number of tokens to burn\r\n    * @return `true` if successful and `false` if unsuccessful\r\n    */\r\n    function burn(uint256 _amount) public requiresPermission whenNotPaused {\r\n        _burn(msg.sender, _amount);\r\n    }\r\n\r\n    function _burn(address _tokensOf, uint256 _amount) internal {\r\n        require(_amount <= balanceOf(_tokensOf),\"not enough balance to burn\");\r\n        // no need to require value <= totalSupply, since that would imply the\r\n        // sender's balance is greater than the totalSupply, which *should* be an assertion failure\r\n        balances.subBalance(_tokensOf, _amount);\r\n        balances.subTotalSupply(_amount);\r\n        emit Burn(_tokensOf, _amount);\r\n        emit Transfer(_tokensOf, address(0), _amount);\r\n    }\r\n\r\n    /**\r\n    * @notice Implements ERC-20 standard approve function. Locked or disabled by default to protect against\r\n    * double spend attacks. To modify allowances, clients should call safer increase/decreaseApproval methods\r\n    */\r\n    function approve(address _spender, uint256 _value) \r\n    public userNotBlacklisted(_spender) senderNotBlacklisted whenNotPaused whenUnlocked returns (bool) {\r\n        allowances.setAllowance(msg.sender, _spender, _value);\r\n        emit Approval(msg.sender, _spender, _value);\r\n        return true;\r\n    }\r\n\r\n    /**\r\n     * @dev Increase the amount of tokens that an owner allowed to a spender.\r\n     * @notice increaseApproval should be used instead of approve when the user's allowance\r\n     * is greater than 0. Using increaseApproval protects against potential double-spend attacks\r\n     * by moving the check of whether the user has spent their allowance to the time that the transaction \r\n     * is mined, removing the user's ability to double-spend\r\n     * @param _spender The address which will spend the funds.\r\n     * @param _addedValue The amount of tokens to increase the allowance by.\r\n     */\r\n    function increaseApproval(address _spender, uint _addedValue) \r\n    public userNotBlacklisted(_spender) senderNotBlacklisted whenNotPaused returns (bool) {\r\n        increaseApprovalAllArgs(_spender, _addedValue, msg.sender);\r\n        return true;\r\n    }\r\n\r\n    function increaseApprovalAllArgs(address _spender, uint256 _addedValue, address _tokenHolder) internal {\r\n        allowances.addAllowance(_tokenHolder, _spender, _addedValue);\r\n        emit Approval(_tokenHolder, _spender, allowances.allowanceOf(_tokenHolder, _spender));\r\n    }\r\n\r\n    /**\r\n     * @dev Decrease the amount of tokens that an owner allowed to a spender.\r\n     * @notice decreaseApproval should be used instead of approve when the user's allowance\r\n     * is greater than 0. Using decreaseApproval protects against potential double-spend attacks\r\n     * by moving the check of whether the user has spent their allowance to the time that the transaction \r\n     * is mined, removing the user's ability to double-spend\r\n     * @param _spender The address which will spend the funds.\r\n     * @param _subtractedValue The amount of tokens to decrease the allowance by.\r\n     */\r\n    function decreaseApproval(address _spender, uint _subtractedValue) \r\n    public userNotBlacklisted(_spender) senderNotBlacklisted whenNotPaused returns (bool) {\r\n        decreaseApprovalAllArgs(_spender, _subtractedValue, msg.sender);\r\n        return true;\r\n    }\r\n\r\n    function decreaseApprovalAllArgs(address _spender, uint256 _subtractedValue, address _tokenHolder) internal {\r\n        uint256 oldValue = allowances.allowanceOf(_tokenHolder, _spender);\r\n        if (_subtractedValue > oldValue) {\r\n            allowances.setAllowance(_tokenHolder, _spender, 0);\r\n        } else {\r\n            allowances.subAllowance(_tokenHolder, _spender, _subtractedValue);\r\n        }\r\n        emit Approval(_tokenHolder, _spender, allowances.allowanceOf(_tokenHolder, _spender));\r\n    }\r\n\r\n    /**\r\n    * @notice Destroy the tokens owned by a blacklisted account. This function can generally\r\n    * only be called by a central authority.\r\n    * @dev Should be access-restricted with the 'requiresPermission' modifier when implementing.\r\n    * @param _who Account to destroy tokens from. Must be a blacklisted account.\r\n    */\r\n    function destroyBlacklistedTokens(address _who, uint256 _amount) public userBlacklisted(_who) whenNotPaused requiresPermission {\r\n        balances.subBalance(_who, _amount);\r\n        balances.subTotalSupply(_amount);\r\n        emit DestroyedBlacklistedTokens(_who, _amount);\r\n    }\r\n    /**\r\n    * @notice Allows a central authority to approve themselves as a spender on a blacklisted account.\r\n    * By default, the allowance is set to the balance of the blacklisted account, so that the\r\n    * authority has full control over the account balance.\r\n    * @dev Should be access-restricted with the 'requiresPermission' modifier when implementing.\r\n    * @param _blacklistedAccount The blacklisted account.\r\n    */\r\n    function approveBlacklistedAddressSpender(address _blacklistedAccount) \r\n    public userBlacklisted(_blacklistedAccount) whenNotPaused requiresPermission {\r\n        allowances.setAllowance(_blacklistedAccount, msg.sender, balanceOf(_blacklistedAccount));\r\n        emit ApprovedBlacklistedAddressSpender(_blacklistedAccount, msg.sender, balanceOf(_blacklistedAccount));\r\n    }\r\n\r\n    /**\r\n    * @notice Initiates a \"send\" operation towards another user. See `transferFrom` for details.\r\n    * @dev When implemented, it should use the transferConditionsRequired() modifier.\r\n    * @param _to The address of the receiver. This user must not be blacklisted, or else the tranfer\r\n    * will fail.\r\n    * @param _amount The number of tokens to transfer\r\n    *\r\n    * @return `true` if successful \r\n    */\r\n    function transfer(address _to, uint256 _amount) public transferConditionsRequired(_to) whenNotPaused returns (bool) {\r\n        require(_to != address(0),\"to address cannot be 0x0\");\r\n        require(_amount <= balanceOf(msg.sender),\"not enough balance to transfer\");\r\n\r\n        balances.subBalance(msg.sender, _amount);\r\n        balances.addBalance(_to, _amount);\r\n        emit Transfer(msg.sender, _to, _amount);\r\n        return true;\r\n    }\r\n\r\n    /**\r\n    * @notice Initiates a transfer operation between address `_from` and `_to`. Requires that the\r\n    * message sender is an approved spender on the _from account.\r\n    * @dev When implemented, it should use the transferFromConditionsRequired() modifier.\r\n    * @param _to The address of the recipient. This address must not be blacklisted.\r\n    * @param _from The address of the origin of funds. This address _could_ be blacklisted, because\r\n    * a regulator may want to transfer tokens out of a blacklisted account, for example.\r\n    * In order to do so, the regulator would have to add themselves as an approved spender\r\n    * on the account via `addBlacklistAddressSpender()`, and would then be able to transfer tokens out of it.\r\n    * @param _amount The number of tokens to transfer\r\n    * @return `true` if successful \r\n    */\r\n    function transferFrom(address _from, address _to, uint256 _amount) \r\n    public whenNotPaused transferFromConditionsRequired(_from, _to) returns (bool) {\r\n        require(_amount <= allowance(_from, msg.sender),\"not enough allowance to transfer\");\r\n        require(_to != address(0),\"to address cannot be 0x0\");\r\n        require(_amount <= balanceOf(_from),\"not enough balance to transfer\");\r\n        \r\n        allowances.subAllowance(_from, msg.sender, _amount);\r\n        balances.addBalance(_to, _amount);\r\n        balances.subBalance(_from, _amount);\r\n        emit Transfer(_from, _to, _amount);\r\n        return true;\r\n    }\r\n\r\n    /**\r\n    * @notice If a user is blacklisted, they will have the permission to \r\n    * execute this dummy function. This function effectively acts as a marker \r\n    * to indicate that a user is blacklisted. We include this function to be consistent with our\r\n    * invariant that every possible userPermission (listed in Regulator) enables access to a single \r\n    * PermissionedToken function. Thus, the 'BLACKLISTED' permission gives access to this function\r\n    * @return `true` if successful\r\n    */\r\n    function blacklisted() public view requiresPermission returns (bool) {\r\n        return true;\r\n    }\r\n}",
  "sourcePath": "C:\\Users\\npain\\Projects\\Carbon\\fiat_gateway\\contracts\\tokens\\permissionedToken\\PermissionedToken.sol",
  "compiler": {
    "name": "solc",
    "version": "0.4.24+commit.e67f0147.Emscripten.clang"
  },
  "schemaVersion": "2.0.1",
  "updatedAt": "2018-08-17T17:50:39.547Z"
}