{
  "contractName": "PermissionedTokenStorage",
  "abi": [
    {
      "constant": true,
      "inputs": [],
      "name": "totalSupply",
      "outputs": [
        {
          "name": "",
          "type": "uint256"
        }
      ],
      "payable": false,
      "stateMutability": "view",
      "type": "function"
    },
    {
      "constant": true,
      "inputs": [
        {
          "name": "",
          "type": "address"
        }
      ],
      "name": "balances",
      "outputs": [
        {
          "name": "",
          "type": "uint256"
        }
      ],
      "payable": false,
      "stateMutability": "view",
      "type": "function"
    },
    {
      "constant": false,
      "inputs": [],
      "name": "claimOwnership",
      "outputs": [],
      "payable": false,
      "stateMutability": "nonpayable",
      "type": "function"
    },
    {
      "constant": true,
      "inputs": [
        {
          "name": "",
          "type": "address"
        },
        {
          "name": "",
          "type": "address"
        }
      ],
      "name": "allowances",
      "outputs": [
        {
          "name": "",
          "type": "uint256"
        }
      ],
      "payable": false,
      "stateMutability": "view",
      "type": "function"
    },
    {
      "constant": true,
      "inputs": [],
      "name": "owner",
      "outputs": [
        {
          "name": "",
          "type": "address"
        }
      ],
      "payable": false,
      "stateMutability": "view",
      "type": "function"
    },
    {
      "constant": true,
      "inputs": [],
      "name": "pendingOwner",
      "outputs": [
        {
          "name": "",
          "type": "address"
        }
      ],
      "payable": false,
      "stateMutability": "view",
      "type": "function"
    },
    {
      "constant": false,
      "inputs": [
        {
          "name": "_newOwner",
          "type": "address"
        }
      ],
      "name": "transferOwnership",
      "outputs": [],
      "payable": false,
      "stateMutability": "nonpayable",
      "type": "function"
    },
    {
      "anonymous": false,
      "inputs": [
        {
          "indexed": true,
          "name": "previousOwner",
          "type": "address"
        },
        {
          "indexed": true,
          "name": "newOwner",
          "type": "address"
        }
      ],
      "name": "OwnershipTransferred",
      "type": "event"
    },
    {
      "constant": false,
      "inputs": [
        {
          "name": "_tokenHolder",
          "type": "address"
        },
        {
          "name": "_spender",
          "type": "address"
        },
        {
          "name": "_value",
          "type": "uint256"
        }
      ],
      "name": "addAllowance",
      "outputs": [],
      "payable": false,
      "stateMutability": "nonpayable",
      "type": "function"
    },
    {
      "constant": false,
      "inputs": [
        {
          "name": "_tokenHolder",
          "type": "address"
        },
        {
          "name": "_spender",
          "type": "address"
        },
        {
          "name": "_value",
          "type": "uint256"
        }
      ],
      "name": "subAllowance",
      "outputs": [],
      "payable": false,
      "stateMutability": "nonpayable",
      "type": "function"
    },
    {
      "constant": false,
      "inputs": [
        {
          "name": "_tokenHolder",
          "type": "address"
        },
        {
          "name": "_spender",
          "type": "address"
        },
        {
          "name": "_value",
          "type": "uint256"
        }
      ],
      "name": "setAllowance",
      "outputs": [],
      "payable": false,
      "stateMutability": "nonpayable",
      "type": "function"
    },
    {
      "constant": false,
      "inputs": [
        {
          "name": "_addr",
          "type": "address"
        },
        {
          "name": "_value",
          "type": "uint256"
        }
      ],
      "name": "addBalance",
      "outputs": [],
      "payable": false,
      "stateMutability": "nonpayable",
      "type": "function"
    },
    {
      "constant": false,
      "inputs": [
        {
          "name": "_addr",
          "type": "address"
        },
        {
          "name": "_value",
          "type": "uint256"
        }
      ],
      "name": "subBalance",
      "outputs": [],
      "payable": false,
      "stateMutability": "nonpayable",
      "type": "function"
    },
    {
      "constant": false,
      "inputs": [
        {
          "name": "_addr",
          "type": "address"
        },
        {
          "name": "_value",
          "type": "uint256"
        }
      ],
      "name": "setBalance",
      "outputs": [],
      "payable": false,
      "stateMutability": "nonpayable",
      "type": "function"
    },
    {
      "constant": false,
      "inputs": [
        {
          "name": "_value",
          "type": "uint256"
        }
      ],
      "name": "addTotalSupply",
      "outputs": [],
      "payable": false,
      "stateMutability": "nonpayable",
      "type": "function"
    },
    {
      "constant": false,
      "inputs": [
        {
          "name": "_value",
          "type": "uint256"
        }
      ],
      "name": "subTotalSupply",
      "outputs": [],
      "payable": false,
      "stateMutability": "nonpayable",
      "type": "function"
    },
    {
      "constant": false,
      "inputs": [
        {
          "name": "_value",
          "type": "uint256"
        }
      ],
      "name": "setTotalSupply",
      "outputs": [],
      "payable": false,
      "stateMutability": "nonpayable",
      "type": "function"
    }
  ],
  "bytecode": "0x608060405260008054600160a060020a031990811633179091556001805490911690556106e7806100316000396000f3006080604052600436106100e55763ffffffff7c010000000000000000000000000000000000000000000000000000000060003504166318160ddd81146100ea57806321e5383a1461011157806327e235e3146101375780634e71e0c81461015857806355b6ed5c1461016d5780635fd72d161461019457806382838c76146101be5780638da5cb5b146101d657806397d88cd214610207578063cf8eeb7e14610231578063da46098c14610255578063e30443bc1461027f578063e30c3978146102a3578063e468688e146102b8578063f2fde38b146102d0578063f7ea7a3d146102f1575b600080fd5b3480156100f657600080fd5b506100ff610309565b60408051918252519081900360200190f35b34801561011d57600080fd5b50610135600160a060020a036004351660243561030f565b005b34801561014357600080fd5b506100ff600160a060020a036004351661036f565b34801561016457600080fd5b50610135610381565b34801561017957600080fd5b506100ff600160a060020a0360043581169060243516610409565b3480156101a057600080fd5b50610135600160a060020a0360043581169060243516604435610426565b3480156101ca57600080fd5b506101356004356104a4565b3480156101e257600080fd5b506101eb6104d4565b60408051600160a060020a039092168252519081900360200190f35b34801561021357600080fd5b50610135600160a060020a03600435811690602435166044356104e3565b34801561023d57600080fd5b50610135600160a060020a0360043516602435610530565b34801561026157600080fd5b50610135600160a060020a0360043581169060243516604435610570565b34801561028b57600080fd5b50610135600160a060020a03600435166024356105b3565b3480156102af57600080fd5b506101eb6105e6565b3480156102c457600080fd5b506101356004356105f5565b3480156102dc57600080fd5b50610135600160a060020a036004351661061f565b3480156102fd57600080fd5b5061013560043561067a565b60045481565b600054600160a060020a0316331461032657600080fd5b600160a060020a03821660009081526003602052604090205461034f908263ffffffff61069616565b600160a060020a0390921660009081526003602052604090209190915550565b60036020526000908152604090205481565b600154600160a060020a0316331461039857600080fd5b60015460008054604051600160a060020a0393841693909116917f8be0079c531659141344cd1fd0a4f28419497f9722a3daafe3b4186f6b6457e091a3600180546000805473ffffffffffffffffffffffffffffffffffffffff19908116600160a060020a03841617909155169055565b600260209081526000928352604080842090915290825290205481565b600054600160a060020a0316331461043d57600080fd5b600160a060020a03808416600090815260026020908152604080832093861683529290522054610473908263ffffffff61069616565b600160a060020a03938416600090815260026020908152604080832095909616825293909352929091209190915550565b600054600160a060020a031633146104bb57600080fd5b6004546104ce908263ffffffff6106a916565b60045550565b600054600160a060020a031681565b600054600160a060020a031633146104fa57600080fd5b600160a060020a03808416600090815260026020908152604080832093861683529290522054610473908263ffffffff6106a916565b600054600160a060020a0316331461054757600080fd5b600160a060020a03821660009081526003602052604090205461034f908263ffffffff6106a916565b600054600160a060020a0316331461058757600080fd5b600160a060020a0392831660009081526002602090815260408083209490951682529290925291902055565b600054600160a060020a031633146105ca57600080fd5b600160a060020a03909116600090815260036020526040902055565b600154600160a060020a031681565b600054600160a060020a0316331461060c57600080fd5b6004546104ce908263ffffffff61069616565b600054600160a060020a0316331461063657600080fd5b600160a060020a038116151561064b57600080fd5b6001805473ffffffffffffffffffffffffffffffffffffffff1916600160a060020a0392909216919091179055565b600054600160a060020a0316331461069157600080fd5b600455565b818101828110156106a357fe5b92915050565b6000828211156106b557fe5b509003905600a165627a7a72305820aedc8f8f5d2ec047db8a77ac7af64d87a9e84df392b69e942ea0ab5f4866c4250029",
  "source": "pragma solidity ^0.4.24;\r\n\r\nimport \"openzeppelin-solidity/contracts/math/SafeMath.sol\";\r\nimport '../../../helpers/Ownable.sol';\r\nimport \"openzeppelin-solidity/contracts/AddressUtils.sol\";\r\n\r\n/**\r\n* @title PermissionedTokenStorage\r\n* @notice a PermissionedTokenStorage is constructed by setting Regulator, BalanceSheet, and AllowanceSheet locations.\r\n* Once the storages are set, they cannot be changed.\r\n*/\r\ncontract PermissionedTokenStorage is Ownable {\r\n    using SafeMath for uint256;\r\n\r\n    /**\r\n        Storage\r\n    */\r\n    mapping (address => mapping (address => uint256)) public allowances;\r\n    mapping (address => uint256) public balances;\r\n    uint256 public totalSupply;\r\n\r\n    function addAllowance(address _tokenHolder, address _spender, uint256 _value) public onlyOwner {\r\n        allowances[_tokenHolder][_spender] = allowances[_tokenHolder][_spender].add(_value);\r\n    }\r\n\r\n    function subAllowance(address _tokenHolder, address _spender, uint256 _value) public onlyOwner {\r\n        allowances[_tokenHolder][_spender] = allowances[_tokenHolder][_spender].sub(_value);\r\n    }\r\n\r\n    function setAllowance(address _tokenHolder, address _spender, uint256 _value) public onlyOwner {\r\n        allowances[_tokenHolder][_spender] = _value;\r\n    }\r\n\r\n    function addBalance(address _addr, uint256 _value) public onlyOwner {\r\n        balances[_addr] = balances[_addr].add(_value);\r\n    }\r\n\r\n    function subBalance(address _addr, uint256 _value) public onlyOwner {\r\n        balances[_addr] = balances[_addr].sub(_value);\r\n    }\r\n\r\n    function setBalance(address _addr, uint256 _value) public onlyOwner {\r\n        balances[_addr] = _value;\r\n    }\r\n\r\n    function addTotalSupply(uint256 _value) public onlyOwner {\r\n        totalSupply = totalSupply.add(_value);\r\n    }\r\n\r\n    function subTotalSupply(uint256 _value) public onlyOwner {\r\n        totalSupply = totalSupply.sub(_value);\r\n    }\r\n\r\n    function setTotalSupply(uint256 _value) public onlyOwner {\r\n        totalSupply = _value;\r\n    }\r\n\r\n}",
  "sourcePath": "C:\\Users\\npain\\Projects\\Carbon\\fiat_gateway\\contracts\\tokens\\permissionedToken\\dataStorage\\PermissionedTokenStorage.sol",
  "compiler": {
    "name": "solc",
    "version": "0.4.24+commit.e67f0147.Emscripten.clang"
  },
  "schemaVersion": "2.0.1",
  "updatedAt": "2018-10-06T05:55:34.625Z"
}