{
  "contractName": "PermissionedToken",
  "abi": [
    {
      "constant": false,
      "inputs": [
        {
          "name": "_spender",
          "type": "address"
        },
        {
          "name": "_value",
          "type": "uint256"
        }
      ],
      "name": "approve",
      "outputs": [
        {
          "name": "",
          "type": "bool"
        }
      ],
      "payable": false,
      "stateMutability": "nonpayable",
      "type": "function"
    },
    {
      "constant": true,
      "inputs": [],
      "name": "totalSupply",
      "outputs": [
        {
          "name": "",
          "type": "uint256"
        }
      ],
      "payable": false,
      "stateMutability": "view",
      "type": "function"
    },
    {
      "constant": true,
      "inputs": [],
      "name": "allowances",
      "outputs": [
        {
          "name": "",
          "type": "address"
        }
      ],
      "payable": false,
      "stateMutability": "view",
      "type": "function"
    },
    {
      "constant": false,
      "inputs": [],
      "name": "unpause",
      "outputs": [],
      "payable": false,
      "stateMutability": "nonpayable",
      "type": "function"
    },
    {
      "constant": false,
      "inputs": [],
      "name": "claimOwnership",
      "outputs": [],
      "payable": false,
      "stateMutability": "nonpayable",
      "type": "function"
    },
    {
      "constant": false,
      "inputs": [
        {
          "name": "_sheet",
          "type": "address"
        }
      ],
      "name": "setBalanceSheet",
      "outputs": [
        {
          "name": "",
          "type": "bool"
        }
      ],
      "payable": false,
      "stateMutability": "nonpayable",
      "type": "function"
    },
    {
      "constant": true,
      "inputs": [],
      "name": "paused",
      "outputs": [
        {
          "name": "",
          "type": "bool"
        }
      ],
      "payable": false,
      "stateMutability": "view",
      "type": "function"
    },
    {
      "constant": false,
      "inputs": [
        {
          "name": "_spender",
          "type": "address"
        },
        {
          "name": "_subtractedValue",
          "type": "uint256"
        }
      ],
      "name": "decreaseApproval",
      "outputs": [
        {
          "name": "",
          "type": "bool"
        }
      ],
      "payable": false,
      "stateMutability": "nonpayable",
      "type": "function"
    },
    {
      "constant": true,
      "inputs": [
        {
          "name": "_owner",
          "type": "address"
        }
      ],
      "name": "balanceOf",
      "outputs": [
        {
          "name": "balance",
          "type": "uint256"
        }
      ],
      "payable": false,
      "stateMutability": "view",
      "type": "function"
    },
    {
      "constant": false,
      "inputs": [],
      "name": "renounceOwnership",
      "outputs": [],
      "payable": false,
      "stateMutability": "nonpayable",
      "type": "function"
    },
    {
      "constant": true,
      "inputs": [],
      "name": "balances",
      "outputs": [
        {
          "name": "",
          "type": "address"
        }
      ],
      "payable": false,
      "stateMutability": "view",
      "type": "function"
    },
    {
      "constant": false,
      "inputs": [],
      "name": "pause",
      "outputs": [],
      "payable": false,
      "stateMutability": "nonpayable",
      "type": "function"
    },
    {
      "constant": true,
      "inputs": [],
      "name": "owner",
      "outputs": [
        {
          "name": "",
          "type": "address"
        }
      ],
      "payable": false,
      "stateMutability": "view",
      "type": "function"
    },
    {
      "constant": true,
      "inputs": [],
      "name": "rProxy",
      "outputs": [
        {
          "name": "",
          "type": "address"
        }
      ],
      "payable": false,
      "stateMutability": "view",
      "type": "function"
    },
    {
      "constant": true,
      "inputs": [
        {
          "name": "contractName",
          "type": "string"
        },
        {
          "name": "migrationId",
          "type": "string"
        }
      ],
      "name": "isMigrated",
      "outputs": [
        {
          "name": "",
          "type": "bool"
        }
      ],
      "payable": false,
      "stateMutability": "view",
      "type": "function"
    },
    {
      "constant": false,
      "inputs": [
        {
          "name": "_spender",
          "type": "address"
        },
        {
          "name": "_addedValue",
          "type": "uint256"
        }
      ],
      "name": "increaseApproval",
      "outputs": [
        {
          "name": "",
          "type": "bool"
        }
      ],
      "payable": false,
      "stateMutability": "nonpayable",
      "type": "function"
    },
    {
      "constant": true,
      "inputs": [
        {
          "name": "_owner",
          "type": "address"
        },
        {
          "name": "_spender",
          "type": "address"
        }
      ],
      "name": "allowance",
      "outputs": [
        {
          "name": "",
          "type": "uint256"
        }
      ],
      "payable": false,
      "stateMutability": "view",
      "type": "function"
    },
    {
      "constant": true,
      "inputs": [],
      "name": "pendingOwner",
      "outputs": [
        {
          "name": "",
          "type": "address"
        }
      ],
      "payable": false,
      "stateMutability": "view",
      "type": "function"
    },
    {
      "constant": false,
      "inputs": [
        {
          "name": "_sheet",
          "type": "address"
        }
      ],
      "name": "setAllowanceSheet",
      "outputs": [
        {
          "name": "",
          "type": "bool"
        }
      ],
      "payable": false,
      "stateMutability": "nonpayable",
      "type": "function"
    },
    {
      "constant": false,
      "inputs": [
        {
          "name": "newOwner",
          "type": "address"
        }
      ],
      "name": "transferOwnership",
      "outputs": [],
      "payable": false,
      "stateMutability": "nonpayable",
      "type": "function"
    },
    {
      "inputs": [
        {
          "name": "_rProxy",
          "type": "address"
        }
      ],
      "payable": false,
      "stateMutability": "nonpayable",
      "type": "constructor"
    },
    {
      "anonymous": false,
      "inputs": [
        {
          "indexed": false,
          "name": "oldProxy",
          "type": "address"
        },
        {
          "indexed": false,
          "name": "newProxy",
          "type": "address"
        }
      ],
      "name": "ChangedRegulatorProxy",
      "type": "event"
    },
    {
      "anonymous": false,
      "inputs": [
        {
          "indexed": true,
          "name": "account",
          "type": "address"
        },
        {
          "indexed": false,
          "name": "amount",
          "type": "uint256"
        }
      ],
      "name": "DestroyedBlacklistedTokens",
      "type": "event"
    },
    {
      "anonymous": false,
      "inputs": [
        {
          "indexed": true,
          "name": "user",
          "type": "address"
        },
        {
          "indexed": false,
          "name": "balance_before_destruction",
          "type": "uint256"
        }
      ],
      "name": "UserDestroyedSelf",
      "type": "event"
    },
    {
      "anonymous": false,
      "inputs": [],
      "name": "Pause",
      "type": "event"
    },
    {
      "anonymous": false,
      "inputs": [],
      "name": "Unpause",
      "type": "event"
    },
    {
      "anonymous": false,
      "inputs": [
        {
          "indexed": true,
          "name": "to",
          "type": "address"
        },
        {
          "indexed": false,
          "name": "value",
          "type": "uint256"
        }
      ],
      "name": "Mint",
      "type": "event"
    },
    {
      "anonymous": false,
      "inputs": [
        {
          "indexed": true,
          "name": "burner",
          "type": "address"
        },
        {
          "indexed": false,
          "name": "value",
          "type": "uint256"
        },
        {
          "indexed": false,
          "name": "note",
          "type": "string"
        }
      ],
      "name": "Burn",
      "type": "event"
    },
    {
      "anonymous": false,
      "inputs": [
        {
          "indexed": true,
          "name": "sheet",
          "type": "address"
        }
      ],
      "name": "AllowanceSheetSet",
      "type": "event"
    },
    {
      "anonymous": false,
      "inputs": [
        {
          "indexed": true,
          "name": "sheet",
          "type": "address"
        }
      ],
      "name": "BalanceSheetSet",
      "type": "event"
    },
    {
      "anonymous": false,
      "inputs": [
        {
          "indexed": false,
          "name": "contractName",
          "type": "string"
        },
        {
          "indexed": false,
          "name": "migrationId",
          "type": "string"
        }
      ],
      "name": "Migrated",
      "type": "event"
    },
    {
      "anonymous": false,
      "inputs": [
        {
          "indexed": true,
          "name": "previousOwner",
          "type": "address"
        }
      ],
      "name": "OwnershipRenounced",
      "type": "event"
    },
    {
      "anonymous": false,
      "inputs": [
        {
          "indexed": true,
          "name": "previousOwner",
          "type": "address"
        },
        {
          "indexed": true,
          "name": "newOwner",
          "type": "address"
        }
      ],
      "name": "OwnershipTransferred",
      "type": "event"
    },
    {
      "anonymous": false,
      "inputs": [
        {
          "indexed": true,
          "name": "owner",
          "type": "address"
        },
        {
          "indexed": true,
          "name": "spender",
          "type": "address"
        },
        {
          "indexed": false,
          "name": "value",
          "type": "uint256"
        }
      ],
      "name": "Approval",
      "type": "event"
    },
    {
      "anonymous": false,
      "inputs": [
        {
          "indexed": true,
          "name": "from",
          "type": "address"
        },
        {
          "indexed": true,
          "name": "to",
          "type": "address"
        },
        {
          "indexed": false,
          "name": "value",
          "type": "uint256"
        }
      ],
      "name": "Transfer",
      "type": "event"
    },
    {
      "constant": false,
      "inputs": [],
      "name": "initialize",
      "outputs": [],
      "payable": false,
      "stateMutability": "nonpayable",
      "type": "function"
    },
    {
      "constant": false,
      "inputs": [
        {
          "name": "_oldToken",
          "type": "address"
        }
      ],
      "name": "migrate",
      "outputs": [],
      "payable": false,
      "stateMutability": "nonpayable",
      "type": "function"
    },
    {
      "constant": false,
      "inputs": [],
      "name": "transferStorageOwnership",
      "outputs": [],
      "payable": false,
      "stateMutability": "nonpayable",
      "type": "function"
    },
    {
      "constant": false,
      "inputs": [
        {
          "name": "_rProxy",
          "type": "address"
        }
      ],
      "name": "setRegulatorProxy",
      "outputs": [],
      "payable": false,
      "stateMutability": "nonpayable",
      "type": "function"
    },
    {
      "constant": false,
      "inputs": [
        {
          "name": "_to",
          "type": "address"
        },
        {
          "name": "_amount",
          "type": "uint256"
        }
      ],
      "name": "mint",
      "outputs": [
        {
          "name": "",
          "type": "bool"
        }
      ],
      "payable": false,
      "stateMutability": "nonpayable",
      "type": "function"
    },
    {
      "constant": false,
      "inputs": [
        {
          "name": "_value",
          "type": "uint256"
        },
        {
          "name": "_note",
          "type": "string"
        }
      ],
      "name": "burn",
      "outputs": [
        {
          "name": "",
          "type": "bool"
        }
      ],
      "payable": false,
      "stateMutability": "nonpayable",
      "type": "function"
    },
    {
      "constant": false,
      "inputs": [
        {
          "name": "_amount",
          "type": "uint256"
        }
      ],
      "name": "burn",
      "outputs": [
        {
          "name": "",
          "type": "bool"
        }
      ],
      "payable": false,
      "stateMutability": "nonpayable",
      "type": "function"
    },
    {
      "constant": false,
      "inputs": [
        {
          "name": "_who",
          "type": "address"
        }
      ],
      "name": "destroyBlacklistedTokens",
      "outputs": [],
      "payable": false,
      "stateMutability": "nonpayable",
      "type": "function"
    },
    {
      "constant": false,
      "inputs": [
        {
          "name": "_who",
          "type": "address"
        }
      ],
      "name": "addBlacklistedAddressSpender",
      "outputs": [],
      "payable": false,
      "stateMutability": "nonpayable",
      "type": "function"
    },
    {
      "constant": false,
      "inputs": [
        {
          "name": "_to",
          "type": "address"
        },
        {
          "name": "_amount",
          "type": "uint256"
        }
      ],
      "name": "transfer",
      "outputs": [
        {
          "name": "",
          "type": "bool"
        }
      ],
      "payable": false,
      "stateMutability": "nonpayable",
      "type": "function"
    },
    {
      "constant": false,
      "inputs": [
        {
          "name": "_from",
          "type": "address"
        },
        {
          "name": "_to",
          "type": "address"
        },
        {
          "name": "_amount",
          "type": "uint256"
        }
      ],
      "name": "transferFrom",
      "outputs": [
        {
          "name": "",
          "type": "bool"
        }
      ],
      "payable": false,
      "stateMutability": "nonpayable",
      "type": "function"
    },
    {
      "constant": false,
      "inputs": [],
      "name": "destroySelf",
      "outputs": [
        {
          "name": "",
          "type": "bool"
        }
      ],
      "payable": false,
      "stateMutability": "nonpayable",
      "type": "function"
    }
  ],
  "bytecode": "0x60806040526000600560146101000a81548160ff0219169083151502179055503480156200002c57600080fd5b5060405160208062004f4b83398101806040528101908080519060200190929190505050336000806101000a81548173ffffffffffffffffffffffffffffffffffffffff021916908373ffffffffffffffffffffffffffffffffffffffff160217905550620000aa81620000b1640100000000026401000000009004565b506200024e565b60008060009054906101000a900473ffffffffffffffffffffffffffffffffffffffff1673ffffffffffffffffffffffffffffffffffffffff163373ffffffffffffffffffffffffffffffffffffffff161415156200010f57600080fd5b6200012e826200023b6401000000000262003433176401000000009004565b15156200013a57600080fd5b600660009054906101000a900473ffffffffffffffffffffffffffffffffffffffff16905081600660006101000a81548173ffffffffffffffffffffffffffffffffffffffff021916908373ffffffffffffffffffffffffffffffffffffffff1602179055507f7f597d4bfdaa690ec812caf4a8134905c02e65103fd73f41f374d8828465ffaf8183604051808373ffffffffffffffffffffffffffffffffffffffff1673ffffffffffffffffffffffffffffffffffffffff1681526020018273ffffffffffffffffffffffffffffffffffffffff1673ffffffffffffffffffffffffffffffffffffffff1681526020019250505060405180910390a15050565b600080823b905060008111915050919050565b614ced806200025e6000396000f300608060405260043610610196576000357c0100000000000000000000000000000000000000000000000000000000900463ffffffff168063095ea7b31461019b57806318160ddd146102005780631e2186ae1461022b57806323b872dd1461025a5780633d45befc146102df5780633ed10b92146103225780633f4ba83a1461037957806340c10f191461039057806342966c68146103f55780634e71e0c81461043a578063546f87781461045157806354f78dad146104685780635c975abb146104c357806366188463146104f257806370a0823114610557578063715018a6146105ae5780637641e6f3146105c55780637bb98a68146106505780638129fc1c146106a75780638456cb59146106be5780638da5cb5b146106d5578063a0bb4a1a1461072c578063a313b70214610783578063a9059cbb146107c6578063bb9a96831461082b578063c0bac1a81461086e578063ce5494bb14610935578063d73dd62314610978578063dd62ed3e146109dd578063e30c397814610a54578063edc1e4f914610aab578063f2fde38b14610b06575b600080fd5b3480156101a757600080fd5b506101e6600480360381019080803573ffffffffffffffffffffffffffffffffffffffff16906020019092919080359060200190929190505050610b49565b604051808215151515815260200191505060405180910390f35b34801561020c57600080fd5b50610215610b60565b6040518082815260200191505060405180910390f35b34801561023757600080fd5b50610240610b6a565b604051808215151515815260200191505060405180910390f35b34801561026657600080fd5b506102c5600480360381019080803573ffffffffffffffffffffffffffffffffffffffff169060200190929190803573ffffffffffffffffffffffffffffffffffffffff16906020019092919080359060200190929190505050610e2b565b604051808215151515815260200191505060405180910390f35b3480156102eb57600080fd5b50610320600480360381019080803573ffffffffffffffffffffffffffffffffffffffff169060200190929190505050611050565b005b34801561032e57600080fd5b506103376111c2565b604051808273ffffffffffffffffffffffffffffffffffffffff1673ffffffffffffffffffffffffffffffffffffffff16815260200191505060405180910390f35b34801561038557600080fd5b5061038e6111e8565b005b34801561039c57600080fd5b506103db600480360381019080803573ffffffffffffffffffffffffffffffffffffffff169060200190929190803590602001909291905050506112a7565b604051808215151515815260200191505060405180910390f35b34801561040157600080fd5b5061042060048036038101908080359060200190929190505050611428565b604051808215151515815260200191505060405180910390f35b34801561044657600080fd5b5061044f6115b8565b005b34801561045d57600080fd5b50610466611757565b005b34801561047457600080fd5b506104a9600480360381019080803573ffffffffffffffffffffffffffffffffffffffff16906020019092919050505061195e565b604051808215151515815260200191505060405180910390f35b3480156104cf57600080fd5b506104d8611ae6565b604051808215151515815260200191505060405180910390f35b3480156104fe57600080fd5b5061053d600480360381019080803573ffffffffffffffffffffffffffffffffffffffff16906020019092919080359060200190929190505050611af9565b604051808215151515815260200191505060405180910390f35b34801561056357600080fd5b50610598600480360381019080803573ffffffffffffffffffffffffffffffffffffffff169060200190929190505050611b10565b6040518082815260200191505060405180910390f35b3480156105ba57600080fd5b506105c3611c11565b005b3480156105d157600080fd5b5061063660048036038101908080359060200190929190803590602001908201803590602001908080601f0160208091040260200160405190810160405280939291908181526020018383808284378201915050505050509192919290505050611d13565b604051808215151515815260200191505060405180910390f35b34801561065c57600080fd5b50610665611d2a565b604051808273ffffffffffffffffffffffffffffffffffffffff1673ffffffffffffffffffffffffffffffffffffffff16815260200191505060405180910390f35b3480156106b357600080fd5b506106bc611d50565b005b3480156106ca57600080fd5b506106d3611fcc565b005b3480156106e157600080fd5b506106ea61208c565b604051808273ffffffffffffffffffffffffffffffffffffffff1673ffffffffffffffffffffffffffffffffffffffff16815260200191505060405180910390f35b34801561073857600080fd5b506107416120b1565b604051808273ffffffffffffffffffffffffffffffffffffffff1673ffffffffffffffffffffffffffffffffffffffff16815260200191505060405180910390f35b34801561078f57600080fd5b506107c4600480360381019080803573ffffffffffffffffffffffffffffffffffffffff1690602001909291905050506120d7565b005b3480156107d257600080fd5b50610811600480360381019080803573ffffffffffffffffffffffffffffffffffffffff1690602001909291908035906020019092919050505061244c565b604051808215151515815260200191505060405180910390f35b34801561083757600080fd5b5061086c600480360381019080803573ffffffffffffffffffffffffffffffffffffffff169060200190929190505050612567565b005b34801561087a57600080fd5b5061091b600480360381019080803590602001908201803590602001908080601f0160208091040260200160405190810160405280939291908181526020018383808284378201915050505050509192919290803590602001908201803590602001908080601f0160208091040260200160405190810160405280939291908181526020018383808284378201915050505050509192919290505050612a1e565b604051808215151515815260200191505060405180910390f35b34801561094157600080fd5b50610976600480360381019080803573ffffffffffffffffffffffffffffffffffffffff169060200190929190505050612b0a565b005b34801561098457600080fd5b506109c3600480360381019080803573ffffffffffffffffffffffffffffffffffffffff16906020019092919080359060200190929190505050613026565b604051808215151515815260200191505060405180910390f35b3480156109e957600080fd5b50610a3e600480360381019080803573ffffffffffffffffffffffffffffffffffffffff169060200190929190803573ffffffffffffffffffffffffffffffffffffffff16906020019092919050505061303d565b6040518082815260200191505060405180910390f35b348015610a6057600080fd5b50610a69613173565b604051808273ffffffffffffffffffffffffffffffffffffffff1673ffffffffffffffffffffffffffffffffffffffff16815260200191505060405180910390f35b348015610ab757600080fd5b50610aec600480360381019080803573ffffffffffffffffffffffffffffffffffffffff169060200190929190505050613199565b604051808215151515815260200191505060405180910390f35b348015610b1257600080fd5b50610b47600480360381019080803573ffffffffffffffffffffffffffffffffffffffff169060200190929190505050613321565b005b6000610b568383336133c0565b6001905092915050565b6000600454905090565b600080600660009054906101000a900473ffffffffffffffffffffffffffffffffffffffff1673ffffffffffffffffffffffffffffffffffffffff1663bed98a0d336000357fffffffff00000000000000000000000000000000000000000000000000000000166040518363ffffffff167c0100000000000000000000000000000000000000000000000000000000028152600401808373ffffffffffffffffffffffffffffffffffffffff1673ffffffffffffffffffffffffffffffffffffffff168152602001827bffffffffffffffffffffffffffffffffffffffffffffffffffffffff19167bffffffffffffffffffffffffffffffffffffffffffffffffffffffff1916815260200192505050602060405180830381600087803b158015610c9457600080fd5b505af1158015610ca8573d6000803e3d6000fd5b505050506040513d6020811015610cbe57600080fd5b81019080805190602001909291905050501515610cda57600080fd5b610ce333611b10565b9050600360009054906101000a900473ffffffffffffffffffffffffffffffffffffffff1673ffffffffffffffffffffffffffffffffffffffff1663e30443bc3360006040518363ffffffff167c0100000000000000000000000000000000000000000000000000000000028152600401808373ffffffffffffffffffffffffffffffffffffffff1673ffffffffffffffffffffffffffffffffffffffff16815260200182815260200192505050600060405180830381600087803b158015610dab57600080fd5b505af1158015610dbf573d6000803e3d6000fd5b50505050610dd8816004546133ec90919063ffffffff16565b503373ffffffffffffffffffffffffffffffffffffffff167f6d6c0e0c3d47211ca1ed288ed1437a1326f0082be6bfe32351b35387941f6388826040518082815260200191505060405180910390a25090565b600081600360009054906101000a900473ffffffffffffffffffffffffffffffffffffffff1673ffffffffffffffffffffffffffffffffffffffff166370a08231866040518263ffffffff167c0100000000000000000000000000000000000000000000000000000000028152600401808273ffffffffffffffffffffffffffffffffffffffff1673ffffffffffffffffffffffffffffffffffffffff168152602001915050602060405180830381600087803b158015610eeb57600080fd5b505af1158015610eff573d6000803e3d6000fd5b505050506040513d6020811015610f1557600080fd5b8101908080519060200190929190505050101515610f3257600080fd5b600660009054906101000a900473ffffffffffffffffffffffffffffffffffffffff1673ffffffffffffffffffffffffffffffffffffffff16637ccce851846040518263ffffffff167c0100000000000000000000000000000000000000000000000000000000028152600401808273ffffffffffffffffffffffffffffffffffffffff1673ffffffffffffffffffffffffffffffffffffffff168152602001915050602060405180830381600087803b158015610fef57600080fd5b505af1158015611003573d6000803e3d6000fd5b505050506040513d602081101561101957600080fd5b8101908080519060200190929190505050156110385760009050611049565b61104484848433613405565b600190505b9392505050565b60008060009054906101000a900473ffffffffffffffffffffffffffffffffffffffff1673ffffffffffffffffffffffffffffffffffffffff163373ffffffffffffffffffffffffffffffffffffffff161415156110ad57600080fd5b6110b682613433565b15156110c157600080fd5b600660009054906101000a900473ffffffffffffffffffffffffffffffffffffffff16905081600660006101000a81548173ffffffffffffffffffffffffffffffffffffffff021916908373ffffffffffffffffffffffffffffffffffffffff1602179055507f7f597d4bfdaa690ec812caf4a8134905c02e65103fd73f41f374d8828465ffaf8183604051808373ffffffffffffffffffffffffffffffffffffffff1673ffffffffffffffffffffffffffffffffffffffff1681526020018273ffffffffffffffffffffffffffffffffffffffff1673ffffffffffffffffffffffffffffffffffffffff1681526020019250505060405180910390a15050565b600560009054906101000a900473ffffffffffffffffffffffffffffffffffffffff1681565b6000809054906101000a900473ffffffffffffffffffffffffffffffffffffffff1673ffffffffffffffffffffffffffffffffffffffff163373ffffffffffffffffffffffffffffffffffffffff1614151561124357600080fd5b600560149054906101000a900460ff16151561125e57600080fd5b6000600560146101000a81548160ff0219169083151502179055507f7805862f689e2f13df9f062ff482ad3ad112aca9e0847911ed832e158c525b3360405160405180910390a1565b6000600660009054906101000a900473ffffffffffffffffffffffffffffffffffffffff1673ffffffffffffffffffffffffffffffffffffffff1663bed98a0d336000357fffffffff00000000000000000000000000000000000000000000000000000000166040518363ffffffff167c0100000000000000000000000000000000000000000000000000000000028152600401808373ffffffffffffffffffffffffffffffffffffffff1673ffffffffffffffffffffffffffffffffffffffff168152602001827bffffffffffffffffffffffffffffffffffffffffffffffffffffffff19167bffffffffffffffffffffffffffffffffffffffffffffffffffffffff1916815260200192505050602060405180830381600087803b1580156113d057600080fd5b505af11580156113e4573d6000803e3d6000fd5b505050506040513d60208110156113fa57600080fd5b8101908080519060200190929190505050151561141657600080fd5b6114208383613446565b905092915050565b6000600660009054906101000a900473ffffffffffffffffffffffffffffffffffffffff1673ffffffffffffffffffffffffffffffffffffffff1663bed98a0d336000357fffffffff00000000000000000000000000000000000000000000000000000000166040518363ffffffff167c0100000000000000000000000000000000000000000000000000000000028152600401808373ffffffffffffffffffffffffffffffffffffffff1673ffffffffffffffffffffffffffffffffffffffff168152602001827bffffffffffffffffffffffffffffffffffffffffffffffffffffffff19167bffffffffffffffffffffffffffffffffffffffffffffffffffffffff1916815260200192505050602060405180830381600087803b15801561155157600080fd5b505af1158015611565573d6000803e3d6000fd5b505050506040513d602081101561157b57600080fd5b8101908080519060200190929190505050151561159757600080fd5b6115b1826020604051908101604052806000815250611d13565b9050919050565b600160009054906101000a900473ffffffffffffffffffffffffffffffffffffffff1673ffffffffffffffffffffffffffffffffffffffff163373ffffffffffffffffffffffffffffffffffffffff1614151561161457600080fd5b600160009054906101000a900473ffffffffffffffffffffffffffffffffffffffff1673ffffffffffffffffffffffffffffffffffffffff166000809054906101000a900473ffffffffffffffffffffffffffffffffffffffff1673ffffffffffffffffffffffffffffffffffffffff167f8be0079c531659141344cd1fd0a4f28419497f9722a3daafe3b4186f6b6457e060405160405180910390a3600160009054906101000a900473ffffffffffffffffffffffffffffffffffffffff166000806101000a81548173ffffffffffffffffffffffffffffffffffffffff021916908373ffffffffffffffffffffffffffffffffffffffff1602179055506000600160006101000a81548173ffffffffffffffffffffffffffffffffffffffff021916908373ffffffffffffffffffffffffffffffffffffffff160217905550565b6000809054906101000a900473ffffffffffffffffffffffffffffffffffffffff1673ffffffffffffffffffffffffffffffffffffffff163373ffffffffffffffffffffffffffffffffffffffff161415156117b257600080fd5b600360009054906101000a900473ffffffffffffffffffffffffffffffffffffffff1673ffffffffffffffffffffffffffffffffffffffff1663f2fde38b336040518263ffffffff167c0100000000000000000000000000000000000000000000000000000000028152600401808273ffffffffffffffffffffffffffffffffffffffff1673ffffffffffffffffffffffffffffffffffffffff168152602001915050600060405180830381600087803b15801561186f57600080fd5b505af1158015611883573d6000803e3d6000fd5b50505050600560009054906101000a900473ffffffffffffffffffffffffffffffffffffffff1673ffffffffffffffffffffffffffffffffffffffff1663f2fde38b336040518263ffffffff167c0100000000000000000000000000000000000000000000000000000000028152600401808273ffffffffffffffffffffffffffffffffffffffff1673ffffffffffffffffffffffffffffffffffffffff168152602001915050600060405180830381600087803b15801561194457600080fd5b505af1158015611958573d6000803e3d6000fd5b50505050565b60008060009054906101000a900473ffffffffffffffffffffffffffffffffffffffff1673ffffffffffffffffffffffffffffffffffffffff163373ffffffffffffffffffffffffffffffffffffffff161415156119bb57600080fd5b81600360006101000a81548173ffffffffffffffffffffffffffffffffffffffff021916908373ffffffffffffffffffffffffffffffffffffffff160217905550600360009054906101000a900473ffffffffffffffffffffffffffffffffffffffff1673ffffffffffffffffffffffffffffffffffffffff16634e71e0c86040518163ffffffff167c0100000000000000000000000000000000000000000000000000000000028152600401600060405180830381600087803b158015611a8257600080fd5b505af1158015611a96573d6000803e3d6000fd5b505050508173ffffffffffffffffffffffffffffffffffffffff167fa89fb8ab3845cb6919c98b54ca0d8f398df48c64ae04ed309cd7b130539badd460405160405180910390a260019050919050565b600560149054906101000a900460ff1681565b6000611b06838333613659565b6001905092915050565b6000600360009054906101000a900473ffffffffffffffffffffffffffffffffffffffff1673ffffffffffffffffffffffffffffffffffffffff166370a08231836040518263ffffffff167c0100000000000000000000000000000000000000000000000000000000028152600401808273ffffffffffffffffffffffffffffffffffffffff1673ffffffffffffffffffffffffffffffffffffffff168152602001915050602060405180830381600087803b158015611bcf57600080fd5b505af1158015611be3573d6000803e3d6000fd5b505050506040513d6020811015611bf957600080fd5b81019080805190602001909291905050509050919050565b6000809054906101000a900473ffffffffffffffffffffffffffffffffffffffff1673ffffffffffffffffffffffffffffffffffffffff163373ffffffffffffffffffffffffffffffffffffffff16141515611c6c57600080fd5b6000809054906101000a900473ffffffffffffffffffffffffffffffffffffffff1673ffffffffffffffffffffffffffffffffffffffff167ff8df31144d9c2f0f6b59d69b8b98abd5459d07f2742c4df920b25aae33c6482060405160405180910390a260008060006101000a81548173ffffffffffffffffffffffffffffffffffffffff021916908373ffffffffffffffffffffffffffffffffffffffff160217905550565b6000611d20338484613685565b6001905092915050565b600360009054906101000a900473ffffffffffffffffffffffffffffffffffffffff1681565b6040805190810160405280601181526020017f5065726d697373696f6e6564546f6b656e0000000000000000000000000000008152506040805190810160405280600381526020017f312e300000000000000000000000000000000000000000000000000000000000815250611dc68282612a1e565b151515611dd257600080fd5b7fdd117a11c22118c9dee4b5a67ce578bc44529dce21ee0ccc439588fbb9fb4ea38282604051808060200180602001838103835285818151815260200191508051906020019080838360005b83811015611e39578082015181840152602081019050611e1e565b50505050905090810190601f168015611e665780820380516001836020036101000a031916815260200191505b50838103825284818151815260200191508051906020019080838360005b83811015611e9f578082015181840152602081019050611e84565b50505050905090810190601f168015611ecc5780820380516001836020036101000a031916815260200191505b5094505050505060405180910390a160016002836040518082805190602001908083835b602083101515611f155780518252602082019150602081019050602083039250611ef0565b6001836020036101000a0380198251168184511680821785525050505050509050019150509081526020016040518091039020826040518082805190602001908083835b602083101515611f7e5780518252602082019150602081019050602083039250611f59565b6001836020036101000a038019825116818451168082178552505050505050905001915050908152602001604051809103902060006101000a81548160ff0219169083151502179055505050565b6000809054906101000a900473ffffffffffffffffffffffffffffffffffffffff1673ffffffffffffffffffffffffffffffffffffffff163373ffffffffffffffffffffffffffffffffffffffff1614151561202757600080fd5b600560149054906101000a900460ff1615151561204357600080fd5b6001600560146101000a81548160ff0219169083151502179055507f6985a02210a168e66602d3235cb6db0e70f92b3ba4d376a33c0f3d9434bff62560405160405180910390a1565b6000809054906101000a900473ffffffffffffffffffffffffffffffffffffffff1681565b600660009054906101000a900473ffffffffffffffffffffffffffffffffffffffff1681565b600660009054906101000a900473ffffffffffffffffffffffffffffffffffffffff1673ffffffffffffffffffffffffffffffffffffffff1663bed98a0d336000357fffffffff00000000000000000000000000000000000000000000000000000000166040518363ffffffff167c0100000000000000000000000000000000000000000000000000000000028152600401808373ffffffffffffffffffffffffffffffffffffffff1673ffffffffffffffffffffffffffffffffffffffff168152602001827bffffffffffffffffffffffffffffffffffffffffffffffffffffffff19167bffffffffffffffffffffffffffffffffffffffffffffffffffffffff1916815260200192505050602060405180830381600087803b1580156121fe57600080fd5b505af1158015612212573d6000803e3d6000fd5b505050506040513d602081101561222857600080fd5b8101908080519060200190929190505050151561224457600080fd5b600660009054906101000a900473ffffffffffffffffffffffffffffffffffffffff1673ffffffffffffffffffffffffffffffffffffffff16637ccce851826040518263ffffffff167c0100000000000000000000000000000000000000000000000000000000028152600401808273ffffffffffffffffffffffffffffffffffffffff1673ffffffffffffffffffffffffffffffffffffffff168152602001915050602060405180830381600087803b15801561230157600080fd5b505af1158015612315573d6000803e3d6000fd5b505050506040513d602081101561232b57600080fd5b8101908080519060200190929190505050151561234757600080fd5b61244933600360009054906101000a900473ffffffffffffffffffffffffffffffffffffffff1673ffffffffffffffffffffffffffffffffffffffff166370a08231846040518263ffffffff167c0100000000000000000000000000000000000000000000000000000000028152600401808273ffffffffffffffffffffffffffffffffffffffff1673ffffffffffffffffffffffffffffffffffffffff168152602001915050602060405180830381600087803b15801561240857600080fd5b505af115801561241c573d6000803e3d6000fd5b505050506040513d602081101561243257600080fd5b8101908080519060200190929190505050836133c0565b50565b6000600660009054906101000a900473ffffffffffffffffffffffffffffffffffffffff1673ffffffffffffffffffffffffffffffffffffffff16637ccce851846040518263ffffffff167c0100000000000000000000000000000000000000000000000000000000028152600401808273ffffffffffffffffffffffffffffffffffffffff1673ffffffffffffffffffffffffffffffffffffffff168152602001915050602060405180830381600087803b15801561250b57600080fd5b505af115801561251f573d6000803e3d6000fd5b505050506040513d602081101561253557600080fd5b8101908080519060200190929190505050156125545760009050612561565b61255e83836136b1565b90505b92915050565b6000600660009054906101000a900473ffffffffffffffffffffffffffffffffffffffff1673ffffffffffffffffffffffffffffffffffffffff1663bed98a0d336000357fffffffff00000000000000000000000000000000000000000000000000000000166040518363ffffffff167c0100000000000000000000000000000000000000000000000000000000028152600401808373ffffffffffffffffffffffffffffffffffffffff1673ffffffffffffffffffffffffffffffffffffffff168152602001827bffffffffffffffffffffffffffffffffffffffffffffffffffffffff19167bffffffffffffffffffffffffffffffffffffffffffffffffffffffff1916815260200192505050602060405180830381600087803b15801561269057600080fd5b505af11580156126a4573d6000803e3d6000fd5b505050506040513d60208110156126ba57600080fd5b810190808051906020019092919050505015156126d657600080fd5b600660009054906101000a900473ffffffffffffffffffffffffffffffffffffffff1673ffffffffffffffffffffffffffffffffffffffff16637ccce851836040518263ffffffff167c0100000000000000000000000000000000000000000000000000000000028152600401808273ffffffffffffffffffffffffffffffffffffffff1673ffffffffffffffffffffffffffffffffffffffff168152602001915050602060405180830381600087803b15801561279357600080fd5b505af11580156127a7573d6000803e3d6000fd5b505050506040513d60208110156127bd57600080fd5b810190808051906020019092919050505015156127d957600080fd5b600360009054906101000a900473ffffffffffffffffffffffffffffffffffffffff1673ffffffffffffffffffffffffffffffffffffffff166370a08231836040518263ffffffff167c0100000000000000000000000000000000000000000000000000000000028152600401808273ffffffffffffffffffffffffffffffffffffffff1673ffffffffffffffffffffffffffffffffffffffff168152602001915050602060405180830381600087803b15801561289657600080fd5b505af11580156128aa573d6000803e3d6000fd5b505050506040513d60208110156128c057600080fd5b81019080805190602001909291905050509050600360009054906101000a900473ffffffffffffffffffffffffffffffffffffffff1673ffffffffffffffffffffffffffffffffffffffff1663e30443bc8360006040518363ffffffff167c0100000000000000000000000000000000000000000000000000000000028152600401808373ffffffffffffffffffffffffffffffffffffffff1673ffffffffffffffffffffffffffffffffffffffff16815260200182815260200192505050600060405180830381600087803b15801561299957600080fd5b505af11580156129ad573d6000803e3d6000fd5b505050506129c6816004546133ec90919063ffffffff16565b6004819055508173ffffffffffffffffffffffffffffffffffffffff167fb81d1dffb753076892e04e6e1234d137b031f70d859c299876b0486e966424fd826040518082815260200191505060405180910390a25050565b60006002836040518082805190602001908083835b602083101515612a585780518252602082019150602081019050602083039250612a33565b6001836020036101000a0380198251168184511680821785525050505050509050019150509081526020016040518091039020826040518082805190602001908083835b602083101515612ac15780518252602082019150602081019050602083039250612a9c565b6001836020036101000a038019825116818451168082178552505050505050905001915050908152602001604051809103902060009054906101000a900460ff16905092915050565b60006040805190810160405280601181526020017f5065726d697373696f6e6564546f6b656e0000000000000000000000000000008152506040805190810160405280600381526020017f312e3000000000000000000000000000000000000000000000000000000000008152506040805190810160405280600381526020017f312e310000000000000000000000000000000000000000000000000000000000815250612bb88383612a1e565b8015612bcb5750612bc98382612a1e565b155b1515612bd657600080fd5b8493508373ffffffffffffffffffffffffffffffffffffffff16634e71e0c86040518163ffffffff167c0100000000000000000000000000000000000000000000000000000000028152600401600060405180830381600087803b158015612c3d57600080fd5b505af1158015612c51573d6000803e3d6000fd5b505050508373ffffffffffffffffffffffffffffffffffffffff1663546f87786040518163ffffffff167c0100000000000000000000000000000000000000000000000000000000028152600401600060405180830381600087803b158015612cb957600080fd5b505af1158015612ccd573d6000803e3d6000fd5b50505050612d788473ffffffffffffffffffffffffffffffffffffffff16637bb98a686040518163ffffffff167c0100000000000000000000000000000000000000000000000000000000028152600401602060405180830381600087803b158015612d3857600080fd5b505af1158015612d4c573d6000803e3d6000fd5b505050506040513d6020811015612d6257600080fd5b810190808051906020019092919050505061195e565b50612e208473ffffffffffffffffffffffffffffffffffffffff16633ed10b926040518163ffffffff167c0100000000000000000000000000000000000000000000000000000000028152600401602060405180830381600087803b158015612de057600080fd5b505af1158015612df4573d6000803e3d6000fd5b505050506040513d6020811015612e0a57600080fd5b8101908080519060200190929190505050613199565b50612e296136c8565b7fdd117a11c22118c9dee4b5a67ce578bc44529dce21ee0ccc439588fbb9fb4ea38382604051808060200180602001838103835285818151815260200191508051906020019080838360005b83811015612e90578082015181840152602081019050612e75565b50505050905090810190601f168015612ebd5780820380516001836020036101000a031916815260200191505b50838103825284818151815260200191508051906020019080838360005b83811015612ef6578082015181840152602081019050612edb565b50505050905090810190601f168015612f235780820380516001836020036101000a031916815260200191505b5094505050505060405180910390a160016002846040518082805190602001908083835b602083101515612f6c5780518252602082019150602081019050602083039250612f47565b6001836020036101000a0380198251168184511680821785525050505050509050019150509081526020016040518091039020826040518082805190602001908083835b602083101515612fd55780518252602082019150602081019050602083039250612fb0565b6001836020036101000a038019825116818451168082178552505050505050905001915050908152602001604051809103902060006101000a81548160ff0219169083151502179055505050505050565b6000613033838333613806565b6001905092915050565b6000600560009054906101000a900473ffffffffffffffffffffffffffffffffffffffff1673ffffffffffffffffffffffffffffffffffffffff16631a46ec8284846040518363ffffffff167c0100000000000000000000000000000000000000000000000000000000028152600401808373ffffffffffffffffffffffffffffffffffffffff1673ffffffffffffffffffffffffffffffffffffffff1681526020018273ffffffffffffffffffffffffffffffffffffffff1673ffffffffffffffffffffffffffffffffffffffff16815260200192505050602060405180830381600087803b15801561313057600080fd5b505af1158015613144573d6000803e3d6000fd5b505050506040513d602081101561315a57600080fd5b8101908080519060200190929190505050905092915050565b600160009054906101000a900473ffffffffffffffffffffffffffffffffffffffff1681565b60008060009054906101000a900473ffffffffffffffffffffffffffffffffffffffff1673ffffffffffffffffffffffffffffffffffffffff163373ffffffffffffffffffffffffffffffffffffffff161415156131f657600080fd5b81600560006101000a81548173ffffffffffffffffffffffffffffffffffffffff021916908373ffffffffffffffffffffffffffffffffffffffff160217905550600560009054906101000a900473ffffffffffffffffffffffffffffffffffffffff1673ffffffffffffffffffffffffffffffffffffffff16634e71e0c86040518163ffffffff167c0100000000000000000000000000000000000000000000000000000000028152600401600060405180830381600087803b1580156132bd57600080fd5b505af11580156132d1573d6000803e3d6000fd5b505050508173ffffffffffffffffffffffffffffffffffffffff167fb02601a43e72e0ac747eb6d02226aec79064038d7ce3db3e633b1e769c5ed3bb60405160405180910390a260019050919050565b6000809054906101000a900473ffffffffffffffffffffffffffffffffffffffff1673ffffffffffffffffffffffffffffffffffffffff163373ffffffffffffffffffffffffffffffffffffffff1614151561337c57600080fd5b80600160006101000a81548173ffffffffffffffffffffffffffffffffffffffff021916908373ffffffffffffffffffffffffffffffffffffffff16021790555050565b600560149054906101000a900460ff161515156133dc57600080fd5b6133e7838383613832565b505050565b60008282111515156133fa57fe5b818303905092915050565b600560149054906101000a900460ff1615151561342157600080fd5b61342d848484846139ad565b50505050565b600080823b905060008111915050919050565b60008060009054906101000a900473ffffffffffffffffffffffffffffffffffffffff1673ffffffffffffffffffffffffffffffffffffffff163373ffffffffffffffffffffffffffffffffffffffff161415156134a357600080fd5b6134b882600454613c7290919063ffffffff16565b600481905550600360009054906101000a900473ffffffffffffffffffffffffffffffffffffffff1673ffffffffffffffffffffffffffffffffffffffff166321e5383a84846040518363ffffffff167c0100000000000000000000000000000000000000000000000000000000028152600401808373ffffffffffffffffffffffffffffffffffffffff1673ffffffffffffffffffffffffffffffffffffffff16815260200182815260200192505050600060405180830381600087803b15801561358357600080fd5b505af1158015613597573d6000803e3d6000fd5b505050508273ffffffffffffffffffffffffffffffffffffffff167f0f6798a560793a54c3bcfe86a93cde1e73087d944c0ea20544137d4121396885836040518082815260200191505060405180910390a28273ffffffffffffffffffffffffffffffffffffffff16600073ffffffffffffffffffffffffffffffffffffffff167fddf252ad1be2c89b69c2b068fc378daa952ba7f163c4a11628f55a4df523b3ef846040518082815260200191505060405180910390a36001905092915050565b600560149054906101000a900460ff1615151561367557600080fd5b613680838383613c8e565b505050565b600560149054906101000a900460ff161515156136a157600080fd5b6136ac838383614185565b505050565b60006136be338484614512565b6001905092915050565b600360009054906101000a900473ffffffffffffffffffffffffffffffffffffffff1673ffffffffffffffffffffffffffffffffffffffff16634e71e0c86040518163ffffffff167c0100000000000000000000000000000000000000000000000000000000028152600401600060405180830381600087803b15801561374e57600080fd5b505af1158015613762573d6000803e3d6000fd5b50505050600560009054906101000a900473ffffffffffffffffffffffffffffffffffffffff1673ffffffffffffffffffffffffffffffffffffffff16634e71e0c86040518163ffffffff167c0100000000000000000000000000000000000000000000000000000000028152600401600060405180830381600087803b1580156137ec57600080fd5b505af1158015613800573d6000803e3d6000fd5b50505050565b600560149054906101000a900460ff1615151561382257600080fd5b61382d83838361453e565b505050565b600560009054906101000a900473ffffffffffffffffffffffffffffffffffffffff1673ffffffffffffffffffffffffffffffffffffffff1663da46098c8285856040518463ffffffff167c0100000000000000000000000000000000000000000000000000000000028152600401808473ffffffffffffffffffffffffffffffffffffffff1673ffffffffffffffffffffffffffffffffffffffff1681526020018373ffffffffffffffffffffffffffffffffffffffff1673ffffffffffffffffffffffffffffffffffffffff1681526020018281526020019350505050600060405180830381600087803b15801561392b57600080fd5b505af115801561393f573d6000803e3d6000fd5b505050508273ffffffffffffffffffffffffffffffffffffffff168173ffffffffffffffffffffffffffffffffffffffff167f8c5be1e5ebec7d5bd14f71427d1e84f3dd0314c0f7b2291e5b200ac8c7c3b925846040518082815260200191505060405180910390a3505050565b600560009054906101000a900473ffffffffffffffffffffffffffffffffffffffff1673ffffffffffffffffffffffffffffffffffffffff16631a46ec8285836040518363ffffffff167c0100000000000000000000000000000000000000000000000000000000028152600401808373ffffffffffffffffffffffffffffffffffffffff1673ffffffffffffffffffffffffffffffffffffffff1681526020018273ffffffffffffffffffffffffffffffffffffffff1673ffffffffffffffffffffffffffffffffffffffff16815260200192505050602060405180830381600087803b158015613a9e57600080fd5b505af1158015613ab2573d6000803e3d6000fd5b505050506040513d6020811015613ac857600080fd5b81019080805190602001909291905050508211151515613b50576040517f08c379a00000000000000000000000000000000000000000000000000000000081526004018080602001828103825260208152602001807f6e6f7420656e6f75676820616c6c6f77616e636520746f207472616e7366657281525060200191505060405180910390fd5b600560009054906101000a900473ffffffffffffffffffffffffffffffffffffffff1673ffffffffffffffffffffffffffffffffffffffff166397d88cd28583856040518463ffffffff167c0100000000000000000000000000000000000000000000000000000000028152600401808473ffffffffffffffffffffffffffffffffffffffff1673ffffffffffffffffffffffffffffffffffffffff1681526020018373ffffffffffffffffffffffffffffffffffffffff1673ffffffffffffffffffffffffffffffffffffffff1681526020018281526020019350505050600060405180830381600087803b158015613c4957600080fd5b505af1158015613c5d573d6000803e3d6000fd5b50505050613c6c848484614512565b50505050565b60008183019050828110151515613c8557fe5b80905092915050565b6000600560009054906101000a900473ffffffffffffffffffffffffffffffffffffffff1673ffffffffffffffffffffffffffffffffffffffff16631a46ec8283866040518363ffffffff167c0100000000000000000000000000000000000000000000000000000000028152600401808373ffffffffffffffffffffffffffffffffffffffff1673ffffffffffffffffffffffffffffffffffffffff1681526020018273ffffffffffffffffffffffffffffffffffffffff1673ffffffffffffffffffffffffffffffffffffffff16815260200192505050602060405180830381600087803b158015613d8157600080fd5b505af1158015613d95573d6000803e3d6000fd5b505050506040513d6020811015613dab57600080fd5b8101908080519060200190929190505050905080831115613edd57600560009054906101000a900473ffffffffffffffffffffffffffffffffffffffff1673ffffffffffffffffffffffffffffffffffffffff1663da46098c838660006040518463ffffffff167c0100000000000000000000000000000000000000000000000000000000028152600401808473ffffffffffffffffffffffffffffffffffffffff1673ffffffffffffffffffffffffffffffffffffffff1681526020018373ffffffffffffffffffffffffffffffffffffffff1673ffffffffffffffffffffffffffffffffffffffff1681526020018281526020019350505050600060405180830381600087803b158015613ec057600080fd5b505af1158015613ed4573d6000803e3d6000fd5b50505050613fef565b600560009054906101000a900473ffffffffffffffffffffffffffffffffffffffff1673ffffffffffffffffffffffffffffffffffffffff166397d88cd28386866040518463ffffffff167c0100000000000000000000000000000000000000000000000000000000028152600401808473ffffffffffffffffffffffffffffffffffffffff1673ffffffffffffffffffffffffffffffffffffffff1681526020018373ffffffffffffffffffffffffffffffffffffffff1673ffffffffffffffffffffffffffffffffffffffff1681526020018281526020019350505050600060405180830381600087803b158015613fd657600080fd5b505af1158015613fea573d6000803e3d6000fd5b505050505b8373ffffffffffffffffffffffffffffffffffffffff168273ffffffffffffffffffffffffffffffffffffffff167f8c5be1e5ebec7d5bd14f71427d1e84f3dd0314c0f7b2291e5b200ac8c7c3b925600560009054906101000a900473ffffffffffffffffffffffffffffffffffffffff1673ffffffffffffffffffffffffffffffffffffffff16631a46ec8286896040518363ffffffff167c0100000000000000000000000000000000000000000000000000000000028152600401808373ffffffffffffffffffffffffffffffffffffffff1673ffffffffffffffffffffffffffffffffffffffff1681526020018273ffffffffffffffffffffffffffffffffffffffff1673ffffffffffffffffffffffffffffffffffffffff16815260200192505050602060405180830381600087803b15801561412f57600080fd5b505af1158015614143573d6000803e3d6000fd5b505050506040513d602081101561415957600080fd5b81019080805190602001909291905050506040518082815260200191505060405180910390a350505050565b600360009054906101000a900473ffffffffffffffffffffffffffffffffffffffff1673ffffffffffffffffffffffffffffffffffffffff166370a08231846040518263ffffffff167c0100000000000000000000000000000000000000000000000000000000028152600401808273ffffffffffffffffffffffffffffffffffffffff1673ffffffffffffffffffffffffffffffffffffffff168152602001915050602060405180830381600087803b15801561424257600080fd5b505af1158015614256573d6000803e3d6000fd5b505050506040513d602081101561426c57600080fd5b810190808051906020019092919050505082111515156142f4576040517f08c379a000000000000000000000000000000000000000000000000000000000815260040180806020018281038252601a8152602001807f6e6f7420656e6f7567682062616c616e636520746f206275726e00000000000081525060200191505060405180910390fd5b600360009054906101000a900473ffffffffffffffffffffffffffffffffffffffff1673ffffffffffffffffffffffffffffffffffffffff1663cf8eeb7e84846040518363ffffffff167c0100000000000000000000000000000000000000000000000000000000028152600401808373ffffffffffffffffffffffffffffffffffffffff1673ffffffffffffffffffffffffffffffffffffffff16815260200182815260200192505050600060405180830381600087803b1580156143b957600080fd5b505af11580156143cd573d6000803e3d6000fd5b505050506143e6826004546133ec90919063ffffffff16565b6004819055508273ffffffffffffffffffffffffffffffffffffffff167f47e772fda56eb54ab211642ce5421882c49fc2b7033455982af14588ae4207ff83836040518083815260200180602001828103825283818151815260200191508051906020019080838360005b8381101561446c578082015181840152602081019050614451565b50505050905090810190601f1680156144995780820380516001836020036101000a031916815260200191505b50935050505060405180910390a2600073ffffffffffffffffffffffffffffffffffffffff168373ffffffffffffffffffffffffffffffffffffffff167fddf252ad1be2c89b69c2b068fc378daa952ba7f163c4a11628f55a4df523b3ef846040518082815260200191505060405180910390a3505050565b600560149054906101000a900460ff1615151561452e57600080fd5b6145398383836147e4565b505050565b600560009054906101000a900473ffffffffffffffffffffffffffffffffffffffff1673ffffffffffffffffffffffffffffffffffffffff16635fd72d168285856040518463ffffffff167c0100000000000000000000000000000000000000000000000000000000028152600401808473ffffffffffffffffffffffffffffffffffffffff1673ffffffffffffffffffffffffffffffffffffffff1681526020018373ffffffffffffffffffffffffffffffffffffffff1673ffffffffffffffffffffffffffffffffffffffff1681526020018281526020019350505050600060405180830381600087803b15801561463757600080fd5b505af115801561464b573d6000803e3d6000fd5b505050508273ffffffffffffffffffffffffffffffffffffffff168173ffffffffffffffffffffffffffffffffffffffff167f8c5be1e5ebec7d5bd14f71427d1e84f3dd0314c0f7b2291e5b200ac8c7c3b925600560009054906101000a900473ffffffffffffffffffffffffffffffffffffffff1673ffffffffffffffffffffffffffffffffffffffff16631a46ec8285886040518363ffffffff167c0100000000000000000000000000000000000000000000000000000000028152600401808373ffffffffffffffffffffffffffffffffffffffff1673ffffffffffffffffffffffffffffffffffffffff1681526020018273ffffffffffffffffffffffffffffffffffffffff1673ffffffffffffffffffffffffffffffffffffffff16815260200192505050602060405180830381600087803b15801561478f57600080fd5b505af11580156147a3573d6000803e3d6000fd5b505050506040513d60208110156147b957600080fd5b81019080805190602001909291905050506040518082815260200191505060405180910390a3505050565b600073ffffffffffffffffffffffffffffffffffffffff168273ffffffffffffffffffffffffffffffffffffffff1614151515614889576040517f08c379a00000000000000000000000000000000000000000000000000000000081526004018080602001828103825260188152602001807f746f20616464726573732063616e6e6f7420626520307830000000000000000081525060200191505060405180910390fd5b600073ffffffffffffffffffffffffffffffffffffffff168373ffffffffffffffffffffffffffffffffffffffff161415151561492e576040517f08c379a000000000000000000000000000000000000000000000000000000000815260040180806020018281038252601a8152602001807f66726f6d20616464726573732063616e6e6f742062652030783000000000000081525060200191505060405180910390fd5b600360009054906101000a900473ffffffffffffffffffffffffffffffffffffffff1673ffffffffffffffffffffffffffffffffffffffff166370a08231846040518263ffffffff167c0100000000000000000000000000000000000000000000000000000000028152600401808273ffffffffffffffffffffffffffffffffffffffff1673ffffffffffffffffffffffffffffffffffffffff168152602001915050602060405180830381600087803b1580156149eb57600080fd5b505af11580156149ff573d6000803e3d6000fd5b505050506040513d6020811015614a1557600080fd5b81019080805190602001909291905050508111151515614a9d576040517f08c379a000000000000000000000000000000000000000000000000000000000815260040180806020018281038252601e8152602001807f6e6f7420656e6f7567682062616c616e636520746f207472616e73666572000081525060200191505060405180910390fd5b600360009054906101000a900473ffffffffffffffffffffffffffffffffffffffff1673ffffffffffffffffffffffffffffffffffffffff1663cf8eeb7e84836040518363ffffffff167c0100000000000000000000000000000000000000000000000000000000028152600401808373ffffffffffffffffffffffffffffffffffffffff1673ffffffffffffffffffffffffffffffffffffffff16815260200182815260200192505050600060405180830381600087803b158015614b6257600080fd5b505af1158015614b76573d6000803e3d6000fd5b50505050600360009054906101000a900473ffffffffffffffffffffffffffffffffffffffff1673ffffffffffffffffffffffffffffffffffffffff166321e5383a83836040518363ffffffff167c0100000000000000000000000000000000000000000000000000000000028152600401808373ffffffffffffffffffffffffffffffffffffffff1673ffffffffffffffffffffffffffffffffffffffff16815260200182815260200192505050600060405180830381600087803b158015614c3f57600080fd5b505af1158015614c53573d6000803e3d6000fd5b505050508173ffffffffffffffffffffffffffffffffffffffff168373ffffffffffffffffffffffffffffffffffffffff167fddf252ad1be2c89b69c2b068fc378daa952ba7f163c4a11628f55a4df523b3ef836040518082815260200191505060405180910390a35050505600a165627a7a72305820615f769c2e09f5e31ce3da3e57206a788156a7ea0080c0d1df25c6e34c190ac50029",
  "source": "pragma solidity ^0.4.23;\n\nimport \"./Regulator.sol\";\nimport \"./RegulatorProxy.sol\";\nimport \"openzeppelin-solidity/contracts/ownership/Claimable.sol\";\nimport \"openzeppelin-solidity/contracts/AddressUtils.sol\";\nimport \"zos-lib/contracts/migrations/Migratable.sol\";\nimport \"../modularERC20/ModularBurnableToken.sol\";\nimport \"../modularERC20/ModularMintableToken.sol\";\nimport \"../modularERC20/ModularPausableToken.sol\";\n\n\n/**\n* @title Permissioned Token\n* @notice A permissioned token that enables transfers, withdrawals, and deposits to occur \n* if and only if it is approved by an on-chain Regulator service. PermissionedToken is an\n* ERC-20 smart contract representing ownership of securities and overrides the\n* transfer, burn, and mint methods to check with the Regulator\n*\n* Current responsibilities: \n* \tAnyone can transfer \n*\tOwner can mint, destroy blacklisted tokens\n*\tDepositors can burn\n*/\ncontract PermissionedToken is Claimable, Migratable, ModularPausableToken {\n    /**\n    * @notice Address of `RegulatorProxy` that points to the latest\n    *         `Regulator` contract responsible for checking and applying trade\n    *         permissions.\n    */\n    address public rProxy;\n\n    /** Events */\n    event ChangedRegulatorProxy(address oldProxy, address newProxy);\n    event DestroyedBlacklistedTokens(address indexed account, uint256 amount);\n    event UserDestroyedSelf(address indexed user, uint256 balance_before_destruction);\n\n    /** Modifiers */\n\n    /** @notice Modifier that allows function access to be restricted based on\n    * whether the regulator allows the message sender to execute that function.\n    **/\n    modifier requiresPermission() {\n        require (Regulator(rProxy).hasPermission(msg.sender, msg.sig));\n        _;\n    }\n\n    /**\n    * @notice Constructor sets the regulator proxy contract.\n    * @param _rProxy Address of `RegulatorProxy` contract\n    */\n    constructor(address _rProxy) Ownable() public {\n        setRegulatorProxy(_rProxy);\n    }\n\n    /**\n    * @notice Function used as part of Migratable interface. Must be called when\n    * proxy is assigned to contract in order to correctly assign the contract's\n    * version number.\n    *\n    * If deploying a new contract version, the version number must be changed as well. \n    */\n    function initialize() isInitializer(\"PermissionedToken\", \"1.0\") public {\n        // Nothing to initialize!\n    }\n\n    /** @notice Migrates data from an old token contract to a new one.\n    * Precondition: the new contract has already been transferred ownership of the old contract.\n    *\n    * If deploying a new contract version, updating the version numbers is necessary if you\n    * wish to run the migration.\n    * @param _oldToken The address of the old token contract. \n    */\n    function migrate(address _oldToken) isMigration(\"PermissionedToken\", \"1.0\", \"1.1\") public {\n        PermissionedToken oldToken = PermissionedToken(_oldToken);\n        oldToken.claimOwnership(); // Take the proferred ownership of the old contract\n        oldToken.transferStorageOwnership();\n        setBalanceSheet(address(oldToken.balances()));\n        setAllowanceSheet(address(oldToken.allowances()));\n        claimStorageOwnership();\n    }\n\n    /** @notice Transfers ownership of the balance and allowance sheets to the owner\n    * of this token contract. This is useful for migrations, since the new token contract is made the\n    * owner of the old token contract.\n    **/\n    function transferStorageOwnership() onlyOwner public {\n        balances.transferOwnership(msg.sender);\n        allowances.transferOwnership(msg.sender);\n    }\n\n    /** @notice Claims ownership of the balance and allowance sheets. Succeeds if the\n    * ownership of those contracts was transferred to this contract.\n    *\n    * This function is strictly used for migrations.\n    **/\n    function claimStorageOwnership() internal {\n        balances.claimOwnership();\n        allowances.claimOwnership();\n    }\n\n    /**\n    * @notice Sets the address of the currently used regulator proxy\n    * @param _rProxy Address of new `RegulatorProxy` contract\n    */\n    function setRegulatorProxy(address _rProxy) public onlyOwner {\n        require(AddressUtils.isContract(_rProxy));\n        address oldProxy = rProxy;\n        rProxy = _rProxy;\n        emit ChangedRegulatorProxy(oldProxy, _rProxy);\n    }\n\n    /**\n    * @notice Allows user to mint if they have the appropriate permissions. User generally\n    * has to be some sort of centralized authority, e.g. PrimeTrust.\n    * @param _to The address of the receiver\n    * @param _amount The number of tokens to withdraw\n    * @return `true` if successful and `false` if unsuccessful\n    */\n    function mint(address _to, uint256 _amount) public requiresPermission returns (bool) {\n        return super.mint(_to, _amount);\n    }\n\n    /**\n    * @notice Allows user to mint if they have the appropriate permissions. User generally\n    * is just a \"whitelisted\" user (i.e. a user registered with the fiat gateway.)\n    * @param _amount The number of tokens to burn\n    *\n    * @return `true` if successful and `false` if unsuccessful\n    */\n    function burn(uint256 _amount) public requiresPermission returns (bool) {\n        return super.burn(_amount, \"\");\n    }\n\n    /**\n    * @notice Destroy the tokens owned by a blacklisted account. This function can generally\n    * only be called by a central authority.\n    * @param _who Account to destroy tokens from. Must be a blacklisted account.\n    */\n    function destroyBlacklistedTokens(address _who) requiresPermission public {\n        require(Regulator(rProxy).isBlacklistedUser(_who));\n        uint256 balance = balances.balanceOf(_who);\n        balances.setBalance(_who, 0);\n        totalSupply_ = totalSupply_.sub(balance);\n        emit DestroyedBlacklistedTokens(_who, balance);\n    }\n\n    /**\n    * @notice Allows a central authority to add themselves as a spender on a blacklisted account.\n    * By default, the allowance is set to the balance of the blacklisted account, so that the\n    * authority has full control over the account balance.\n    * @param _who The blacklisted account.\n    */\n    function addBlacklistedAddressSpender(address _who) requiresPermission public {\n        require(Regulator(rProxy).isBlacklistedUser(_who));\n        approveAllArgs(msg.sender, balances.balanceOf(_who), _who);\n    }\n\n    /**\n    * @notice Initiates a \"send\" operation towards another user. See `transferFrom` for details.\n    * @param _to The address of the receiver. This user must not be blacklisted, or else the tranfer\n    * will fail.\n    * @param _amount The number of tokens to transfer\n    *\n    * @return `true` if successful and `false` if unsuccessful\n    */\n    function transfer(address _to, uint256 _amount) public returns (bool) {\n        if (Regulator(rProxy).isBlacklistedUser(_to)) {\n            // User is blacklisted, so they cannot initiate a transfer\n            return false;\n        }\n        return super.transfer(_to, _amount);\n    }\n\n    /**\n    * @notice Initiates a transfer operation between address `_from` and `_to`.\n    *\n    * @param _to The address of the recipient. This address must not be blacklisted.\n    * @param _from The address of the origin of funds. This address _could_ be blacklisted, because\n    * a regulator may want to transfer tokens out of a blacklisted account, for example.\n    * In order to do so, the regulator would have to add themselves as an approved spender\n    * on the account via `addBlacklistAddressSpender()`, and would then be able to transfer tokens out of it.\n    * @param _amount The number of tokens to transfer\n    *\n    * @return `true` if successful and `false` if unsuccessful\n    */\n    function transferFrom(address _from, address _to, uint256 _amount) public returns (bool) {\n        require(balances.balanceOf(_from) < _amount);\n        if (Regulator(rProxy).isBlacklistedUser(_to)) {\n            // If user is blacklisted, fail the transaction.\n            return false; \n        }\n        // Otherwise, allow it to continue.\n        transferFromAllArgs(_from, _to, _amount, msg.sender);\n        return true;\n    }\n\n    /**\n    * @notice If a user is blacklisted, then they will have the ability to \n    * destroy their own tokens. This function provides that ability.\n    */\n    function destroySelf() requiresPermission public returns (bool) {\n        uint256 balance = balanceOf(msg.sender);\n        balances.setBalance(msg.sender, 0);\n        totalSupply_.sub(balance);\n        emit UserDestroyedSelf(msg.sender, balance);\n    }\n\n}",
  "sourcePath": "/Users/tanishqaggarwal/Documents/carbon/fiat_gateway/contracts/permissionedToken/PermissionedToken.sol",
  "compiler": {
    "name": "solc",
    "version": "0.4.24+commit.e67f0147.Emscripten.clang"
  },
  "schemaVersion": "2.0.0",
  "updatedAt": "2018-07-12T20:33:25.068Z"
}