{
  "contractName": "PermissionedTokenStorage",
  "abi": [
    {
      "constant": true,
      "inputs": [],
      "name": "allowances",
      "outputs": [
        {
          "name": "",
          "type": "address"
        }
      ],
      "payable": false,
      "stateMutability": "view",
      "type": "function"
    },
    {
      "constant": true,
      "inputs": [],
      "name": "balances",
      "outputs": [
        {
          "name": "",
          "type": "address"
        }
      ],
      "payable": false,
      "stateMutability": "view",
      "type": "function"
    },
    {
      "constant": true,
      "inputs": [],
      "name": "regulator",
      "outputs": [
        {
          "name": "",
          "type": "address"
        }
      ],
      "payable": false,
      "stateMutability": "view",
      "type": "function"
    },
    {
      "inputs": [
        {
          "name": "_regulator",
          "type": "address"
        },
        {
          "name": "_balances",
          "type": "address"
        },
        {
          "name": "_allowances",
          "type": "address"
        }
      ],
      "payable": false,
      "stateMutability": "nonpayable",
      "type": "constructor"
    }
  ],
  "bytecode": "0x608060405234801561001057600080fd5b506040516060806101c183398101604090815281516020830151919092015160008054600160a060020a0319908116600160a060020a0395861617825560018054821694861694909417909355600280549093169390911692909217905561014390819061007e90396000f3006080604052600436106100565763ffffffff7c01000000000000000000000000000000000000000000000000000000006000350416633ed10b92811461005b5780637bb98a6814610099578063dd8fee14146100ae575b600080fd5b34801561006757600080fd5b506100706100c3565b6040805173ffffffffffffffffffffffffffffffffffffffff9092168252519081900360200190f35b3480156100a557600080fd5b506100706100df565b3480156100ba57600080fd5b506100706100fb565b60025473ffffffffffffffffffffffffffffffffffffffff1681565b60015473ffffffffffffffffffffffffffffffffffffffff1681565b60005473ffffffffffffffffffffffffffffffffffffffff16815600a165627a7a723058208d089a7264a69c9d710eb0e91086e38c22a5ab1b3d1c36557cc955fac136f0350029",
  "source": "pragma solidity ^0.4.24;\n\nimport \"./AllowanceSheet.sol\";\nimport \"./BalanceSheet.sol\";\nimport \"../../../regulator/Regulator.sol\";\n\n/**\n* @title PermissionedTokenStorage\n* @notice a PermissionedTokenStorage is constructed by setting Regulator, BalanceSheet, and AllowanceSheet locations.\n* Once the storages are set, they cannot be changed.\n*/\ncontract PermissionedTokenStorage {\n    /**\n        Storage\n    */\n    Regulator public regulator;\n    BalanceSheet public balances;\n    AllowanceSheet public allowances;\n\n    /**\n    * @dev a PermissionedTokenStorageConsumer can set its storages only once, on construction\n    *\n    **/\n    constructor (address _regulator, address _balances, address _allowances) public {\n        regulator = Regulator(_regulator);\n        balances = BalanceSheet(_balances);\n        allowances = AllowanceSheet(_allowances);\n    }\n}",
  "sourcePath": "/Users/tanishqaggarwal/Documents/carbon/fiat_gateway/contracts/tokens/permissionedToken/dataStorage/PermissionedTokenStorage.sol",
  "compiler": {
    "name": "solc",
    "version": "0.4.24+commit.e67f0147.Emscripten.clang"
  },
  "schemaVersion": "2.0.1",
  "updatedAt": "2018-08-13T20:26:34.641Z"
}