{
  "contractName": "PermissionedTokenStorage",
  "abi": [
    {
      "constant": true,
      "inputs": [],
      "name": "allowances",
      "outputs": [
        {
          "name": "",
          "type": "address"
        }
      ],
      "payable": false,
      "stateMutability": "view",
      "type": "function"
    },
    {
      "constant": true,
      "inputs": [],
      "name": "balances",
      "outputs": [
        {
          "name": "",
          "type": "address"
        }
      ],
      "payable": false,
      "stateMutability": "view",
      "type": "function"
    },
    {
      "constant": true,
      "inputs": [],
      "name": "regulator",
      "outputs": [
        {
          "name": "",
          "type": "address"
        }
      ],
      "payable": false,
      "stateMutability": "view",
      "type": "function"
    },
    {
      "inputs": [
        {
          "name": "_regulator",
          "type": "address"
        },
        {
          "name": "_balances",
          "type": "address"
        },
        {
          "name": "_allowances",
          "type": "address"
        }
      ],
      "payable": false,
      "stateMutability": "nonpayable",
      "type": "constructor"
    },
    {
      "constant": false,
      "inputs": [],
      "name": "claimBalanceOwnership",
      "outputs": [],
      "payable": false,
      "stateMutability": "nonpayable",
      "type": "function"
    },
    {
      "constant": false,
      "inputs": [],
      "name": "claimAllowanceOwnership",
      "outputs": [],
      "payable": false,
      "stateMutability": "nonpayable",
      "type": "function"
    }
  ],
  "bytecode": "0x608060405234801561001057600080fd5b5060405160608061032983398101604090815281516020830151919092015160008054600160a060020a0319908116600160a060020a039586161782556001805482169486169490941790935560028054909316939091169290921790556102ab90819061007e90396000f30060806040526004361061006c5763ffffffff7c01000000000000000000000000000000000000000000000000000000006000350416633ed10b9281146100715780637bb98a68146100af5780638955ed7e146100c45780639b2bdc20146100db578063dd8fee14146100f0575b600080fd5b34801561007d57600080fd5b50610086610105565b6040805173ffffffffffffffffffffffffffffffffffffffff9092168252519081900360200190f35b3480156100bb57600080fd5b50610086610121565b3480156100d057600080fd5b506100d961013d565b005b3480156100e757600080fd5b506100d96101dd565b3480156100fc57600080fd5b50610086610263565b60025473ffffffffffffffffffffffffffffffffffffffff1681565b60015473ffffffffffffffffffffffffffffffffffffffff1681565b600160009054906101000a900473ffffffffffffffffffffffffffffffffffffffff1673ffffffffffffffffffffffffffffffffffffffff16634e71e0c86040518163ffffffff167c0100000000000000000000000000000000000000000000000000000000028152600401600060405180830381600087803b1580156101c357600080fd5b505af11580156101d7573d6000803e3d6000fd5b50505050565b600260009054906101000a900473ffffffffffffffffffffffffffffffffffffffff1673ffffffffffffffffffffffffffffffffffffffff16634e71e0c86040518163ffffffff167c0100000000000000000000000000000000000000000000000000000000028152600401600060405180830381600087803b1580156101c357600080fd5b60005473ffffffffffffffffffffffffffffffffffffffff16815600a165627a7a72305820fa0a8255d09663d8ad0b65ef44e0873f4816436d29397fe968c580c205d6a9fa0029",
  "source": "pragma solidity ^0.4.24;\r\n\r\nimport \"./AllowanceSheet.sol\";\r\nimport \"./BalanceSheet.sol\";\r\nimport \"../../../regulator/Regulator.sol\";\r\n\r\n/**\r\n* @title PermissionedTokenStorage\r\n* @notice a PermissionedTokenStorage is constructed by setting Regulator, BalanceSheet, and AllowanceSheet locations.\r\n* Once the storages are set, they cannot be changed.\r\n*/\r\ncontract PermissionedTokenStorage {\r\n    /**\r\n        Storage\r\n    */\r\n    Regulator public regulator;\r\n    BalanceSheet public balances;\r\n    AllowanceSheet public allowances;\r\n\r\n    /**\r\n    * @dev a PermissionedTokenStorageConsumer can set its storages only once, on construction\r\n    *\r\n    **/\r\n    constructor (address _regulator, address _balances, address _allowances) public {\r\n        regulator = Regulator(_regulator);\r\n        balances = BalanceSheet(_balances);\r\n        allowances = AllowanceSheet(_allowances);\r\n    }\r\n\r\n    /**\r\n    * @dev claim ownership of balance sheet passed into constructor.\r\n    **/\r\n    function claimBalanceOwnership() public {\r\n        balances.claimOwnership();\r\n    }\r\n\r\n    /**\r\n    * @dev claim ownership of allowance sheet passed into constructor.\r\n    **/\r\n    function claimAllowanceOwnership() public {\r\n        allowances.claimOwnership();\r\n    }\r\n}",
  "sourcePath": "C:\\Users\\npain\\Projects\\Carbon\\fiat_gateway\\contracts\\tokens\\permissionedToken\\dataStorage\\PermissionedTokenStorage.sol",
  "compiler": {
    "name": "solc",
    "version": "0.4.24+commit.e67f0147.Emscripten.clang"
  },
  "schemaVersion": "2.0.1",
  "updatedAt": "2018-08-18T21:52:41.880Z"
}