{
  "contractName": "PermissionedToken",
  "abi": [
    {
      "constant": true,
      "inputs": [],
      "name": "mintingFinished",
      "outputs": [
        {
          "name": "",
          "type": "bool"
        }
      ],
      "payable": false,
      "stateMutability": "view",
      "type": "function"
    },
    {
      "constant": false,
      "inputs": [
        {
          "name": "_spender",
          "type": "address"
        },
        {
          "name": "_value",
          "type": "uint256"
        }
      ],
      "name": "approve",
      "outputs": [
        {
          "name": "",
          "type": "bool"
        }
      ],
      "payable": false,
      "stateMutability": "nonpayable",
      "type": "function"
    },
    {
      "constant": true,
      "inputs": [],
      "name": "totalSupply",
      "outputs": [
        {
          "name": "",
          "type": "uint256"
        }
      ],
      "payable": false,
      "stateMutability": "view",
      "type": "function"
    },
    {
      "constant": false,
      "inputs": [],
      "name": "unpause",
      "outputs": [],
      "payable": false,
      "stateMutability": "nonpayable",
      "type": "function"
    },
    {
      "constant": false,
      "inputs": [
        {
          "name": "_value",
          "type": "uint256"
        }
      ],
      "name": "burn",
      "outputs": [],
      "payable": false,
      "stateMutability": "nonpayable",
      "type": "function"
    },
    {
      "constant": true,
      "inputs": [],
      "name": "regulatorProxy",
      "outputs": [
        {
          "name": "",
          "type": "address"
        }
      ],
      "payable": false,
      "stateMutability": "view",
      "type": "function"
    },
    {
      "constant": true,
      "inputs": [],
      "name": "paused",
      "outputs": [
        {
          "name": "",
          "type": "bool"
        }
      ],
      "payable": false,
      "stateMutability": "view",
      "type": "function"
    },
    {
      "constant": false,
      "inputs": [
        {
          "name": "_spender",
          "type": "address"
        },
        {
          "name": "_subtractedValue",
          "type": "uint256"
        }
      ],
      "name": "decreaseApproval",
      "outputs": [
        {
          "name": "success",
          "type": "bool"
        }
      ],
      "payable": false,
      "stateMutability": "nonpayable",
      "type": "function"
    },
    {
      "constant": true,
      "inputs": [
        {
          "name": "_owner",
          "type": "address"
        }
      ],
      "name": "balanceOf",
      "outputs": [
        {
          "name": "",
          "type": "uint256"
        }
      ],
      "payable": false,
      "stateMutability": "view",
      "type": "function"
    },
    {
      "constant": false,
      "inputs": [],
      "name": "renounceOwnership",
      "outputs": [],
      "payable": false,
      "stateMutability": "nonpayable",
      "type": "function"
    },
    {
      "constant": false,
      "inputs": [],
      "name": "finishMinting",
      "outputs": [
        {
          "name": "",
          "type": "bool"
        }
      ],
      "payable": false,
      "stateMutability": "nonpayable",
      "type": "function"
    },
    {
      "constant": false,
      "inputs": [],
      "name": "pause",
      "outputs": [],
      "payable": false,
      "stateMutability": "nonpayable",
      "type": "function"
    },
    {
      "constant": true,
      "inputs": [],
      "name": "owner",
      "outputs": [
        {
          "name": "",
          "type": "address"
        }
      ],
      "payable": false,
      "stateMutability": "view",
      "type": "function"
    },
    {
      "constant": false,
      "inputs": [
        {
          "name": "_spender",
          "type": "address"
        },
        {
          "name": "_addedValue",
          "type": "uint256"
        }
      ],
      "name": "increaseApproval",
      "outputs": [
        {
          "name": "success",
          "type": "bool"
        }
      ],
      "payable": false,
      "stateMutability": "nonpayable",
      "type": "function"
    },
    {
      "constant": true,
      "inputs": [
        {
          "name": "_owner",
          "type": "address"
        },
        {
          "name": "_spender",
          "type": "address"
        }
      ],
      "name": "allowance",
      "outputs": [
        {
          "name": "",
          "type": "uint256"
        }
      ],
      "payable": false,
      "stateMutability": "view",
      "type": "function"
    },
    {
      "constant": false,
      "inputs": [
        {
          "name": "_newOwner",
          "type": "address"
        }
      ],
      "name": "transferOwnership",
      "outputs": [],
      "payable": false,
      "stateMutability": "nonpayable",
      "type": "function"
    },
    {
      "inputs": [
        {
          "name": "_regulatorProxy",
          "type": "address"
        }
      ],
      "payable": false,
      "stateMutability": "nonpayable",
      "type": "constructor"
    },
    {
      "anonymous": false,
      "inputs": [
        {
          "indexed": false,
          "name": "depositor",
          "type": "address"
        }
      ],
      "name": "DepositorAdded",
      "type": "event"
    },
    {
      "anonymous": false,
      "inputs": [
        {
          "indexed": false,
          "name": "depositor",
          "type": "address"
        }
      ],
      "name": "DepositorRemoved",
      "type": "event"
    },
    {
      "anonymous": false,
      "inputs": [
        {
          "indexed": false,
          "name": "account",
          "type": "address"
        },
        {
          "indexed": false,
          "name": "amount",
          "type": "uint256"
        }
      ],
      "name": "DestroyBlacklistedTokens",
      "type": "event"
    },
    {
      "anonymous": false,
      "inputs": [
        {
          "indexed": true,
          "name": "to",
          "type": "address"
        },
        {
          "indexed": false,
          "name": "amount",
          "type": "uint256"
        }
      ],
      "name": "Mint",
      "type": "event"
    },
    {
      "anonymous": false,
      "inputs": [],
      "name": "MintFinished",
      "type": "event"
    },
    {
      "anonymous": false,
      "inputs": [
        {
          "indexed": true,
          "name": "burner",
          "type": "address"
        },
        {
          "indexed": false,
          "name": "value",
          "type": "uint256"
        }
      ],
      "name": "Burn",
      "type": "event"
    },
    {
      "anonymous": false,
      "inputs": [],
      "name": "Pause",
      "type": "event"
    },
    {
      "anonymous": false,
      "inputs": [],
      "name": "Unpause",
      "type": "event"
    },
    {
      "anonymous": false,
      "inputs": [
        {
          "indexed": true,
          "name": "previousOwner",
          "type": "address"
        }
      ],
      "name": "OwnershipRenounced",
      "type": "event"
    },
    {
      "anonymous": false,
      "inputs": [
        {
          "indexed": true,
          "name": "previousOwner",
          "type": "address"
        },
        {
          "indexed": true,
          "name": "newOwner",
          "type": "address"
        }
      ],
      "name": "OwnershipTransferred",
      "type": "event"
    },
    {
      "anonymous": false,
      "inputs": [
        {
          "indexed": true,
          "name": "owner",
          "type": "address"
        },
        {
          "indexed": true,
          "name": "spender",
          "type": "address"
        },
        {
          "indexed": false,
          "name": "value",
          "type": "uint256"
        }
      ],
      "name": "Approval",
      "type": "event"
    },
    {
      "anonymous": false,
      "inputs": [
        {
          "indexed": true,
          "name": "from",
          "type": "address"
        },
        {
          "indexed": true,
          "name": "to",
          "type": "address"
        },
        {
          "indexed": false,
          "name": "value",
          "type": "uint256"
        }
      ],
      "name": "Transfer",
      "type": "event"
    },
    {
      "constant": false,
      "inputs": [
        {
          "name": "_depositor",
          "type": "address"
        }
      ],
      "name": "addDepositor",
      "outputs": [],
      "payable": false,
      "stateMutability": "nonpayable",
      "type": "function"
    },
    {
      "constant": false,
      "inputs": [
        {
          "name": "_depositor",
          "type": "address"
        }
      ],
      "name": "removeDepositor",
      "outputs": [],
      "payable": false,
      "stateMutability": "nonpayable",
      "type": "function"
    },
    {
      "constant": true,
      "inputs": [
        {
          "name": "_depositor",
          "type": "address"
        }
      ],
      "name": "isDepositor",
      "outputs": [
        {
          "name": "",
          "type": "bool"
        }
      ],
      "payable": false,
      "stateMutability": "view",
      "type": "function"
    },
    {
      "constant": false,
      "inputs": [
        {
          "name": "_to",
          "type": "address"
        },
        {
          "name": "_amount",
          "type": "uint256"
        }
      ],
      "name": "mint",
      "outputs": [
        {
          "name": "",
          "type": "bool"
        }
      ],
      "payable": false,
      "stateMutability": "nonpayable",
      "type": "function"
    },
    {
      "constant": false,
      "inputs": [
        {
          "name": "_amount",
          "type": "uint256"
        }
      ],
      "name": "_burn",
      "outputs": [
        {
          "name": "",
          "type": "bool"
        }
      ],
      "payable": false,
      "stateMutability": "nonpayable",
      "type": "function"
    },
    {
      "constant": false,
      "inputs": [
        {
          "name": "_who",
          "type": "address"
        }
      ],
      "name": "destroyBlacklistedTokens",
      "outputs": [],
      "payable": false,
      "stateMutability": "nonpayable",
      "type": "function"
    },
    {
      "constant": false,
      "inputs": [
        {
          "name": "_to",
          "type": "address"
        },
        {
          "name": "_amount",
          "type": "uint256"
        }
      ],
      "name": "transfer",
      "outputs": [
        {
          "name": "",
          "type": "bool"
        }
      ],
      "payable": false,
      "stateMutability": "nonpayable",
      "type": "function"
    },
    {
      "constant": false,
      "inputs": [
        {
          "name": "_from",
          "type": "address"
        },
        {
          "name": "_to",
          "type": "address"
        },
        {
          "name": "_amount",
          "type": "uint256"
        }
      ],
      "name": "transferFrom",
      "outputs": [
        {
          "name": "",
          "type": "bool"
        }
      ],
      "payable": false,
      "stateMutability": "nonpayable",
      "type": "function"
    }
  ],
  "bytecode": "0x60806040526000600360146101000a81548160ff0219169083151502179055506000600360156101000a81548160ff02191690831515021790555034801561004657600080fd5b50604051602080612abf8339810180604052810190808051906020019092919050505033600360006101000a81548173ffffffffffffffffffffffffffffffffffffffff021916908373ffffffffffffffffffffffffffffffffffffffff160217905550600073ffffffffffffffffffffffffffffffffffffffff168173ffffffffffffffffffffffffffffffffffffffff16141515156100e657600080fd5b80600460006101000a81548173ffffffffffffffffffffffffffffffffffffffff021916908373ffffffffffffffffffffffffffffffffffffffff16021790555050612988806101376000396000f30060806040526004361061013e576000357c0100000000000000000000000000000000000000000000000000000000900463ffffffff16806305d2035b14610143578063095ea7b31461017257806318160ddd146101d757806323b872dd146102025780632f70d1ba146102875780633f4ba83a146102e257806340c10f19146102f957806342966c681461035e57806349a054771461038b5780635c975abb146103e2578063661884631461041157806370a0823114610476578063715018a6146104cd5780637d64bcb4146104e45780638456cb59146105135780638b73e6061461052a5780638da5cb5b1461056d5780639b1f9e74146105c4578063a9059cbb14610609578063bb9a96831461066e578063d73dd623146106b1578063dd62ed3e14610716578063f2fde38b1461078d578063fc8acba2146107d0575b600080fd5b34801561014f57600080fd5b50610158610813565b604051808215151515815260200191505060405180910390f35b34801561017e57600080fd5b506101bd600480360381019080803573ffffffffffffffffffffffffffffffffffffffff16906020019092919080359060200190929190505050610826565b604051808215151515815260200191505060405180910390f35b3480156101e357600080fd5b506101ec610856565b6040518082815260200191505060405180910390f35b34801561020e57600080fd5b5061026d600480360381019080803573ffffffffffffffffffffffffffffffffffffffff169060200190929190803573ffffffffffffffffffffffffffffffffffffffff16906020019092919080359060200190929190505050610860565b604051808215151515815260200191505060405180910390f35b34801561029357600080fd5b506102c8600480360381019080803573ffffffffffffffffffffffffffffffffffffffff1690602001909291905050506109dd565b604051808215151515815260200191505060405180910390f35b3480156102ee57600080fd5b506102f7610a33565b005b34801561030557600080fd5b50610344600480360381019080803573ffffffffffffffffffffffffffffffffffffffff16906020019092919080359060200190929190505050610af3565b604051808215151515815260200191505060405180910390f35b34801561036a57600080fd5b5061038960048036038101908080359060200190929190505050610c15565b005b34801561039757600080fd5b506103a0610c22565b604051808273ffffffffffffffffffffffffffffffffffffffff1673ffffffffffffffffffffffffffffffffffffffff16815260200191505060405180910390f35b3480156103ee57600080fd5b506103f7610c48565b604051808215151515815260200191505060405180910390f35b34801561041d57600080fd5b5061045c600480360381019080803573ffffffffffffffffffffffffffffffffffffffff16906020019092919080359060200190929190505050610c5b565b604051808215151515815260200191505060405180910390f35b34801561048257600080fd5b506104b7600480360381019080803573ffffffffffffffffffffffffffffffffffffffff169060200190929190505050610c8b565b6040518082815260200191505060405180910390f35b3480156104d957600080fd5b506104e2610cd3565b005b3480156104f057600080fd5b506104f9610dd8565b604051808215151515815260200191505060405180910390f35b34801561051f57600080fd5b50610528610ea0565b005b34801561053657600080fd5b5061056b600480360381019080803573ffffffffffffffffffffffffffffffffffffffff169060200190929190505050610f61565b005b34801561057957600080fd5b5061058261107b565b604051808273ffffffffffffffffffffffffffffffffffffffff1673ffffffffffffffffffffffffffffffffffffffff16815260200191505060405180910390f35b3480156105d057600080fd5b506105ef600480360381019080803590602001909291905050506110a1565b604051808215151515815260200191505060405180910390f35b34801561061557600080fd5b50610654600480360381019080803573ffffffffffffffffffffffffffffffffffffffff1690602001909291908035906020019092919050505061117c565b604051808215151515815260200191505060405180910390f35b34801561067a57600080fd5b506106af600480360381019080803573ffffffffffffffffffffffffffffffffffffffff1690602001909291905050506112f7565b005b3480156106bd57600080fd5b506106fc600480360381019080803573ffffffffffffffffffffffffffffffffffffffff16906020019092919080359060200190929190505050611530565b604051808215151515815260200191505060405180910390f35b34801561072257600080fd5b50610777600480360381019080803573ffffffffffffffffffffffffffffffffffffffff169060200190929190803573ffffffffffffffffffffffffffffffffffffffff169060200190929190505050611560565b6040518082815260200191505060405180910390f35b34801561079957600080fd5b506107ce600480360381019080803573ffffffffffffffffffffffffffffffffffffffff1690602001909291905050506115e7565b005b3480156107dc57600080fd5b50610811600480360381019080803573ffffffffffffffffffffffffffffffffffffffff16906020019092919050505061164f565b005b600360159054906101000a900460ff1681565b6000600360149054906101000a900460ff1615151561084457600080fd5b61084e8383611769565b905092915050565b6000600154905090565b60006108a1846040805190810160405280600b81526020017f626c61636b6c697374656400000000000000000000000000000000000000000081525061185b565b151515610916576040517f08c379a00000000000000000000000000000000000000000000000000000000081526004018080602001828103825260158152602001807f73656e64657220697320626c61636b6c6973746564000000000000000000000081525060200191505060405180910390fd5b610955836040805190810160405280600b81526020017f626c61636b6c697374656400000000000000000000000000000000000000000081525061185b565b1515156109ca576040517f08c379a00000000000000000000000000000000000000000000000000000000081526004018080602001828103825260178152602001807f726563656976657220697320626c61636b6c697374656400000000000000000081525060200191505060405180910390fd5b6109d58484846119ca565b509392505050565b6000600560008373ffffffffffffffffffffffffffffffffffffffff1673ffffffffffffffffffffffffffffffffffffffff16815260200190815260200160002060009054906101000a900460ff169050919050565b600360009054906101000a900473ffffffffffffffffffffffffffffffffffffffff1673ffffffffffffffffffffffffffffffffffffffff163373ffffffffffffffffffffffffffffffffffffffff16141515610a8f57600080fd5b600360149054906101000a900460ff161515610aaa57600080fd5b6000600360146101000a81548160ff0219169083151502179055507f7805862f689e2f13df9f062ff482ad3ad112aca9e0847911ed832e158c525b3360405160405180910390a1565b6000600360009054906101000a900473ffffffffffffffffffffffffffffffffffffffff1673ffffffffffffffffffffffffffffffffffffffff163373ffffffffffffffffffffffffffffffffffffffff16141515610b5157600080fd5b610b90836040805190810160405280600981526020017f77686974656c697374000000000000000000000000000000000000000000000081525061185b565b1515610c04576040517f08c379a000000000000000000000000000000000000000000000000000000000815260040180806020018281038252601e8152602001807f6163636f756e74206973206e6f7420616c6c6f77656420746f206d696e74000081525060200191505060405180910390fd5b610c0e83836119fc565b5092915050565b610c1f3382611be2565b50565b600460009054906101000a900473ffffffffffffffffffffffffffffffffffffffff1681565b600360149054906101000a900460ff1681565b6000600360149054906101000a900460ff16151515610c7957600080fd5b610c838383611d95565b905092915050565b60008060008373ffffffffffffffffffffffffffffffffffffffff1673ffffffffffffffffffffffffffffffffffffffff168152602001908152602001600020549050919050565b600360009054906101000a900473ffffffffffffffffffffffffffffffffffffffff1673ffffffffffffffffffffffffffffffffffffffff163373ffffffffffffffffffffffffffffffffffffffff16141515610d2f57600080fd5b600360009054906101000a900473ffffffffffffffffffffffffffffffffffffffff1673ffffffffffffffffffffffffffffffffffffffff167ff8df31144d9c2f0f6b59d69b8b98abd5459d07f2742c4df920b25aae33c6482060405160405180910390a26000600360006101000a81548173ffffffffffffffffffffffffffffffffffffffff021916908373ffffffffffffffffffffffffffffffffffffffff160217905550565b6000600360009054906101000a900473ffffffffffffffffffffffffffffffffffffffff1673ffffffffffffffffffffffffffffffffffffffff163373ffffffffffffffffffffffffffffffffffffffff16141515610e3657600080fd5b600360159054906101000a900460ff16151515610e5257600080fd5b6001600360156101000a81548160ff0219169083151502179055507fae5184fba832cb2b1f702aca6117b8d265eaf03ad33eb133f19dde0f5920fa0860405160405180910390a16001905090565b600360009054906101000a900473ffffffffffffffffffffffffffffffffffffffff1673ffffffffffffffffffffffffffffffffffffffff163373ffffffffffffffffffffffffffffffffffffffff16141515610efc57600080fd5b600360149054906101000a900460ff16151515610f1857600080fd5b6001600360146101000a81548160ff0219169083151502179055507f6985a02210a168e66602d3235cb6db0e70f92b3ba4d376a33c0f3d9434bff62560405160405180910390a1565b600360009054906101000a900473ffffffffffffffffffffffffffffffffffffffff1673ffffffffffffffffffffffffffffffffffffffff163373ffffffffffffffffffffffffffffffffffffffff16141515610fbd57600080fd5b6000600560008373ffffffffffffffffffffffffffffffffffffffff1673ffffffffffffffffffffffffffffffffffffffff16815260200190815260200160002060006101000a81548160ff0219169083151502179055507fbc12c224e0d437ba41f0b1d746dea5cb82c6d3808b990d3780eacbd3adcad0eb81604051808273ffffffffffffffffffffffffffffffffffffffff1673ffffffffffffffffffffffffffffffffffffffff16815260200191505060405180910390a150565b600360009054906101000a900473ffffffffffffffffffffffffffffffffffffffff1681565b60006110ac336109dd565b15156110b757600080fd5b6110f6336040805190810160405280600981526020017f77686974656c697374000000000000000000000000000000000000000000000081525061185b565b151561116a576040517f08c379a000000000000000000000000000000000000000000000000000000000815260040180806020018281038252601e8152602001807f6163636f756e74206973206e6f7420616c6c6f77656420746f206275726e000081525060200191505060405180910390fd5b61117382610c15565b60019050919050565b60006111bd336040805190810160405280600b81526020017f626c61636b6c697374656400000000000000000000000000000000000000000081525061185b565b151515611232576040517f08c379a00000000000000000000000000000000000000000000000000000000081526004018080602001828103825260158152602001807f73656e64657220697320626c61636b6c6973746564000000000000000000000081525060200191505060405180910390fd5b611271836040805190810160405280600b81526020017f626c61636b6c697374656400000000000000000000000000000000000000000081525061185b565b1515156112e6576040517f08c379a00000000000000000000000000000000000000000000000000000000081526004018080602001828103825260178152602001807f726563656976657220697320626c61636b6c697374656400000000000000000081525060200191505060405180910390fd5b6112f08383612026565b5092915050565b6000600360009054906101000a900473ffffffffffffffffffffffffffffffffffffffff1673ffffffffffffffffffffffffffffffffffffffff163373ffffffffffffffffffffffffffffffffffffffff1614151561135557600080fd5b611394826040805190810160405280600b81526020017f626c61636b6c697374656400000000000000000000000000000000000000000081525061185b565b1515611408576040517f08c379a000000000000000000000000000000000000000000000000000000000815260040180806020018281038252601a8152602001807f6163636f756e74206973206e6f7420626c61636b6c697374656400000000000081525060200191505060405180910390fd5b61141182610c8b565b9050611464816000808573ffffffffffffffffffffffffffffffffffffffff1673ffffffffffffffffffffffffffffffffffffffff1681526020019081526020016000205461205690919063ffffffff16565b6000808473ffffffffffffffffffffffffffffffffffffffff1673ffffffffffffffffffffffffffffffffffffffff168152602001908152602001600020819055506114bb8160015461205690919063ffffffff16565b6001819055507f06ed7501d76b06078d7f9b37c080e61a4d13bc01d9a636bf222a2c4b2c387de48282604051808373ffffffffffffffffffffffffffffffffffffffff1673ffffffffffffffffffffffffffffffffffffffff1681526020018281526020019250505060405180910390a15050565b6000600360149054906101000a900460ff1615151561154e57600080fd5b611558838361206f565b905092915050565b6000600260008473ffffffffffffffffffffffffffffffffffffffff1673ffffffffffffffffffffffffffffffffffffffff16815260200190815260200160002060008373ffffffffffffffffffffffffffffffffffffffff1673ffffffffffffffffffffffffffffffffffffffff16815260200190815260200160002054905092915050565b600360009054906101000a900473ffffffffffffffffffffffffffffffffffffffff1673ffffffffffffffffffffffffffffffffffffffff163373ffffffffffffffffffffffffffffffffffffffff1614151561164357600080fd5b61164c8161226b565b50565b600360009054906101000a900473ffffffffffffffffffffffffffffffffffffffff1673ffffffffffffffffffffffffffffffffffffffff163373ffffffffffffffffffffffffffffffffffffffff161415156116ab57600080fd5b6001600560008373ffffffffffffffffffffffffffffffffffffffff1673ffffffffffffffffffffffffffffffffffffffff16815260200190815260200160002060006101000a81548160ff0219169083151502179055507f5eea62661ac9a33be3f9320ecd60878cd5e92025ffec0f2e9969d2448b497eda81604051808273ffffffffffffffffffffffffffffffffffffffff1673ffffffffffffffffffffffffffffffffffffffff16815260200191505060405180910390a150565b600081600260003373ffffffffffffffffffffffffffffffffffffffff1673ffffffffffffffffffffffffffffffffffffffff16815260200190815260200160002060008573ffffffffffffffffffffffffffffffffffffffff1673ffffffffffffffffffffffffffffffffffffffff168152602001908152602001600020819055508273ffffffffffffffffffffffffffffffffffffffff163373ffffffffffffffffffffffffffffffffffffffff167f8c5be1e5ebec7d5bd14f71427d1e84f3dd0314c0f7b2291e5b200ac8c7c3b925846040518082815260200191505060405180910390a36001905092915050565b6000600460009054906101000a900473ffffffffffffffffffffffffffffffffffffffff1673ffffffffffffffffffffffffffffffffffffffff16630b7c45a284846040518363ffffffff167c0100000000000000000000000000000000000000000000000000000000028152600401808373ffffffffffffffffffffffffffffffffffffffff1673ffffffffffffffffffffffffffffffffffffffff16815260200180602001828103825283818151815260200191508051906020019080838360005b8381101561193a57808201518184015260208101905061191f565b50505050905090810190601f1680156119675780820380516001836020036101000a031916815260200191505b509350505050602060405180830381600087803b15801561198757600080fd5b505af115801561199b573d6000803e3d6000fd5b505050506040513d60208110156119b157600080fd5b8101908080519060200190929190505050905092915050565b6000600360149054906101000a900460ff161515156119e857600080fd5b6119f3848484612367565b90509392505050565b6000600360009054906101000a900473ffffffffffffffffffffffffffffffffffffffff1673ffffffffffffffffffffffffffffffffffffffff163373ffffffffffffffffffffffffffffffffffffffff16141515611a5a57600080fd5b600360159054906101000a900460ff16151515611a7657600080fd5b611a8b8260015461272190919063ffffffff16565b600181905550611ae2826000808673ffffffffffffffffffffffffffffffffffffffff1673ffffffffffffffffffffffffffffffffffffffff1681526020019081526020016000205461272190919063ffffffff16565b6000808573ffffffffffffffffffffffffffffffffffffffff1673ffffffffffffffffffffffffffffffffffffffff168152602001908152602001600020819055508273ffffffffffffffffffffffffffffffffffffffff167f0f6798a560793a54c3bcfe86a93cde1e73087d944c0ea20544137d4121396885836040518082815260200191505060405180910390a28273ffffffffffffffffffffffffffffffffffffffff16600073ffffffffffffffffffffffffffffffffffffffff167fddf252ad1be2c89b69c2b068fc378daa952ba7f163c4a11628f55a4df523b3ef846040518082815260200191505060405180910390a36001905092915050565b6000808373ffffffffffffffffffffffffffffffffffffffff1673ffffffffffffffffffffffffffffffffffffffff168152602001908152602001600020548111151515611c2f57600080fd5b611c80816000808573ffffffffffffffffffffffffffffffffffffffff1673ffffffffffffffffffffffffffffffffffffffff1681526020019081526020016000205461205690919063ffffffff16565b6000808473ffffffffffffffffffffffffffffffffffffffff1673ffffffffffffffffffffffffffffffffffffffff16815260200190815260200160002081905550611cd78160015461205690919063ffffffff16565b6001819055508173ffffffffffffffffffffffffffffffffffffffff167fcc16f5dbb4873280815c1ee09dbd06736cffcc184412cf7a71a0fdb75d397ca5826040518082815260200191505060405180910390a2600073ffffffffffffffffffffffffffffffffffffffff168273ffffffffffffffffffffffffffffffffffffffff167fddf252ad1be2c89b69c2b068fc378daa952ba7f163c4a11628f55a4df523b3ef836040518082815260200191505060405180910390a35050565b600080600260003373ffffffffffffffffffffffffffffffffffffffff1673ffffffffffffffffffffffffffffffffffffffff16815260200190815260200160002060008573ffffffffffffffffffffffffffffffffffffffff1673ffffffffffffffffffffffffffffffffffffffff16815260200190815260200160002054905080831115611ea6576000600260003373ffffffffffffffffffffffffffffffffffffffff1673ffffffffffffffffffffffffffffffffffffffff16815260200190815260200160002060008673ffffffffffffffffffffffffffffffffffffffff1673ffffffffffffffffffffffffffffffffffffffff16815260200190815260200160002081905550611f3a565b611eb9838261205690919063ffffffff16565b600260003373ffffffffffffffffffffffffffffffffffffffff1673ffffffffffffffffffffffffffffffffffffffff16815260200190815260200160002060008673ffffffffffffffffffffffffffffffffffffffff1673ffffffffffffffffffffffffffffffffffffffff168152602001908152602001600020819055505b8373ffffffffffffffffffffffffffffffffffffffff163373ffffffffffffffffffffffffffffffffffffffff167f8c5be1e5ebec7d5bd14f71427d1e84f3dd0314c0f7b2291e5b200ac8c7c3b925600260003373ffffffffffffffffffffffffffffffffffffffff1673ffffffffffffffffffffffffffffffffffffffff16815260200190815260200160002060008873ffffffffffffffffffffffffffffffffffffffff1673ffffffffffffffffffffffffffffffffffffffff168152602001908152602001600020546040518082815260200191505060405180910390a3600191505092915050565b6000600360149054906101000a900460ff1615151561204457600080fd5b61204e838361273d565b905092915050565b600082821115151561206457fe5b818303905092915050565b600061210082600260003373ffffffffffffffffffffffffffffffffffffffff1673ffffffffffffffffffffffffffffffffffffffff16815260200190815260200160002060008673ffffffffffffffffffffffffffffffffffffffff1673ffffffffffffffffffffffffffffffffffffffff1681526020019081526020016000205461272190919063ffffffff16565b600260003373ffffffffffffffffffffffffffffffffffffffff1673ffffffffffffffffffffffffffffffffffffffff16815260200190815260200160002060008573ffffffffffffffffffffffffffffffffffffffff1673ffffffffffffffffffffffffffffffffffffffff168152602001908152602001600020819055508273ffffffffffffffffffffffffffffffffffffffff163373ffffffffffffffffffffffffffffffffffffffff167f8c5be1e5ebec7d5bd14f71427d1e84f3dd0314c0f7b2291e5b200ac8c7c3b925600260003373ffffffffffffffffffffffffffffffffffffffff1673ffffffffffffffffffffffffffffffffffffffff16815260200190815260200160002060008773ffffffffffffffffffffffffffffffffffffffff1673ffffffffffffffffffffffffffffffffffffffff168152602001908152602001600020546040518082815260200191505060405180910390a36001905092915050565b600073ffffffffffffffffffffffffffffffffffffffff168173ffffffffffffffffffffffffffffffffffffffff16141515156122a757600080fd5b8073ffffffffffffffffffffffffffffffffffffffff16600360009054906101000a900473ffffffffffffffffffffffffffffffffffffffff1673ffffffffffffffffffffffffffffffffffffffff167f8be0079c531659141344cd1fd0a4f28419497f9722a3daafe3b4186f6b6457e060405160405180910390a380600360006101000a81548173ffffffffffffffffffffffffffffffffffffffff021916908373ffffffffffffffffffffffffffffffffffffffff16021790555050565b60008073ffffffffffffffffffffffffffffffffffffffff168373ffffffffffffffffffffffffffffffffffffffff16141515156123a457600080fd5b6000808573ffffffffffffffffffffffffffffffffffffffff1673ffffffffffffffffffffffffffffffffffffffff1681526020019081526020016000205482111515156123f157600080fd5b600260008573ffffffffffffffffffffffffffffffffffffffff1673ffffffffffffffffffffffffffffffffffffffff16815260200190815260200160002060003373ffffffffffffffffffffffffffffffffffffffff1673ffffffffffffffffffffffffffffffffffffffff16815260200190815260200160002054821115151561247c57600080fd5b6124cd826000808773ffffffffffffffffffffffffffffffffffffffff1673ffffffffffffffffffffffffffffffffffffffff1681526020019081526020016000205461205690919063ffffffff16565b6000808673ffffffffffffffffffffffffffffffffffffffff1673ffffffffffffffffffffffffffffffffffffffff16815260200190815260200160002081905550612560826000808673ffffffffffffffffffffffffffffffffffffffff1673ffffffffffffffffffffffffffffffffffffffff1681526020019081526020016000205461272190919063ffffffff16565b6000808573ffffffffffffffffffffffffffffffffffffffff1673ffffffffffffffffffffffffffffffffffffffff1681526020019081526020016000208190555061263182600260008773ffffffffffffffffffffffffffffffffffffffff1673ffffffffffffffffffffffffffffffffffffffff16815260200190815260200160002060003373ffffffffffffffffffffffffffffffffffffffff1673ffffffffffffffffffffffffffffffffffffffff1681526020019081526020016000205461205690919063ffffffff16565b600260008673ffffffffffffffffffffffffffffffffffffffff1673ffffffffffffffffffffffffffffffffffffffff16815260200190815260200160002060003373ffffffffffffffffffffffffffffffffffffffff1673ffffffffffffffffffffffffffffffffffffffff168152602001908152602001600020819055508273ffffffffffffffffffffffffffffffffffffffff168473ffffffffffffffffffffffffffffffffffffffff167fddf252ad1be2c89b69c2b068fc378daa952ba7f163c4a11628f55a4df523b3ef846040518082815260200191505060405180910390a3600190509392505050565b6000818301905082811015151561273457fe5b80905092915050565b60008073ffffffffffffffffffffffffffffffffffffffff168373ffffffffffffffffffffffffffffffffffffffff161415151561277a57600080fd5b6000803373ffffffffffffffffffffffffffffffffffffffff1673ffffffffffffffffffffffffffffffffffffffff1681526020019081526020016000205482111515156127c757600080fd5b612818826000803373ffffffffffffffffffffffffffffffffffffffff1673ffffffffffffffffffffffffffffffffffffffff1681526020019081526020016000205461205690919063ffffffff16565b6000803373ffffffffffffffffffffffffffffffffffffffff1673ffffffffffffffffffffffffffffffffffffffff168152602001908152602001600020819055506128ab826000808673ffffffffffffffffffffffffffffffffffffffff1673ffffffffffffffffffffffffffffffffffffffff1681526020019081526020016000205461272190919063ffffffff16565b6000808573ffffffffffffffffffffffffffffffffffffffff1673ffffffffffffffffffffffffffffffffffffffff168152602001908152602001600020819055508273ffffffffffffffffffffffffffffffffffffffff163373ffffffffffffffffffffffffffffffffffffffff167fddf252ad1be2c89b69c2b068fc378daa952ba7f163c4a11628f55a4df523b3ef846040518082815260200191505060405180910390a360019050929150505600a165627a7a723058204ee739490c7d7395ab28f83bb309d613553574141747db6bca72c9d21f5e09410029",
  "source": "pragma solidity ^0.4.23;\r\n\r\nimport \"./RegulatorProxy.sol\";\r\nimport \"openzeppelin-solidity/contracts/ownership/Ownable.sol\";\r\nimport \"openzeppelin-solidity/contracts/token/ERC20/PausableToken.sol\";\r\nimport \"openzeppelin-solidity/contracts/token/ERC20/BurnableToken.sol\";\r\nimport \"openzeppelin-solidity/contracts/token/ERC20/MintableToken.sol\";\r\n\r\n\r\n/**\r\n* @title Permissioned Token\r\n* @dev A permissioned token that enables transfers, withdrawals, and deposits to occur if and only\r\n* if it is approved by an on-chain Regulator service. PermissionedToken is an\r\n* ERC-20 smart contract representing ownership of securities and overrides the\r\n* transfer, burn, and mint methods to check with the Regulator\r\n*\r\n* Current assumptions: \r\n* \tAnyone can transfer \r\n*/\r\ncontract PermissionedToken is Ownable, PausableToken, BurnableToken, MintableToken {\r\n\t\r\n\t// ASSUMPTION: account can only have one status at any given time\r\n\r\n\t// Passes KYC & AML and therefore can redeem CarbonUSD and mint new CarbonUSD for USD\r\n\tstring constant WHITELISTED = \"whitelist\";\r\n\t// User has an ERC20 wallet and can transfer, but still needs to pass KYC & AML to burn or mint\r\n\tstring constant NONLISTED = \"nonlisted\";\r\n\t// Cannot transfer, burn, or mint\r\n\tstring constant BLACKLISTED = \"blacklisted\";\r\n\r\n\t/**\r\n\t* @notice Address of the `RegulatorProxy` that points to the latest\r\n\t*         `Regulator` contract responsible for checking trade\r\n\t*         permissions.\r\n\t*/\r\n\tRegulatorProxy public regulatorProxy;\r\n\r\n\t/**\r\n\t* @notice accounts with ability to burn and deposit tokens\r\n\t*\r\n\t*/\r\n\tmapping(address => bool) depositAccounts;\r\n\r\n\t// Modifiers\r\n\r\n\t/**\r\n\t* @notice Throws if called by any account that does not have deposit access\r\n\t*\r\n\t*/\r\n\tmodifier onlyDepositor() {\r\n\t\trequire (isDepositor(msg.sender));\r\n\t\t_;\r\n\t}\r\n\r\n\t// Events\r\n\tevent DepositorAdded(address depositor);\r\n\tevent DepositorRemoved(address depositor);\r\n\tevent DestroyBlacklistedTokens(address account, uint256 amount);\r\n\r\n\t// Methods\r\n\r\n\t/**\r\n\t* @notice Constructor sets the RegulatorProxy that determines account permissions\r\n\t* @param _regulatorProxy Address of `RegulatorProxy` contract\r\n\t*/\r\n\tconstructor (address _regulatorProxy) public {\r\n\t\trequire(_regulatorProxy != address(0));\r\n\t\tregulatorProxy = RegulatorProxy(_regulatorProxy);\r\n\t}\r\n\r\n\t/**\r\n\t* @notice Add a depositor who has access to burn tokens\r\n\t* @param _depositor Address to add\r\n\t*/\r\n\tfunction addDepositor(address _depositor) public onlyOwner {\r\n\t\tdepositAccounts[_depositor] = true;\r\n\t\temit DepositorAdded(_depositor);\r\n\t}\r\n\r\n\t/**\r\n\t* @notice Remove a depositor who has access to burn tokens\r\n\t* @param _depositor Address to remove\r\n\t*/\r\n\tfunction removeDepositor(address _depositor) public onlyOwner {\r\n\t\tdepositAccounts[_depositor] = false;\r\n\t\temit DepositorRemoved(_depositor);\r\n\t}\r\n\r\n\tfunction isDepositor(address _depositor) public view returns (bool) {\r\n\t\treturn depositAccounts[_depositor];\r\n\t}\r\n\r\n\t/**\r\n\t* @notice Performs the regulator check\r\n\t* @param _who the account to check \r\n\t* @param _attribute the permission to check\r\n\t*\r\n\t* @return 'true' if the check was successful and 'false' if unsuccessful\r\n\t*/\r\n\tfunction check(address _who, string _attribute) private view returns (bool) {\r\n\t\treturn regulatorProxy.hasAttribute(_who, _attribute);\r\n\t}\r\n\r\n\t/**\r\n\t* @notice overridden function that include logic to check whether account can withdraw tokens.\r\n\t* @param _to The address of the receiver\r\n\t* @param _amount The number of tokens to withdraw\r\n\t*\r\n\t* @return `true` if successful and `false` if unsuccessful\r\n\t*/\r\n\tfunction mint(address _to, uint256 _amount) public onlyOwner returns (bool) {\r\n\t\trequire(check(_to, WHITELISTED), \"account is not allowed to mint\");\r\n\t\tsuper.mint(_to, _amount);\r\n\t}\r\n\r\n\t/**\r\n\t* @notice overridden function that include logic to check whether account can deposit tokens.\r\n\t* @param _amount The number of tokens to burn\r\n\t*\r\n\t* @return `true` if successful and `false` if unsuccessful\r\n\t*/\r\n\tfunction _burn(uint256 _amount) public onlyDepositor returns (bool) {\r\n\t\trequire(check(msg.sender, WHITELISTED), \"account is not allowed to burn\");\r\n\t\tsuper.burn(_amount);\r\n\t\treturn true;\r\n\t}\r\n\r\n\t/**\r\n\t* @notice destroy the tokens owned by a blacklisted account\r\n\t* @param _who account to destroy tokens from\r\n\t*/\r\n\tfunction destroyBlacklistedTokens(address _who) public onlyOwner {\r\n\t\trequire(check(_who, BLACKLISTED), \"account is not blacklisted\");\r\n\t\tuint256 oldAmount = balanceOf(_who);\r\n\t\tbalances[_who] = balances[_who].sub(oldAmount);\r\n\t\ttotalSupply_ = totalSupply_.sub(oldAmount);\r\n\t\temit DestroyBlacklistedTokens(_who, oldAmount);\r\n\t}\r\n\r\n\t/**\r\n\t* @notice overridden function that includes logic to check for trade validity.\r\n\t* @param _to The address of the receiver\r\n\t* @param _amount The number of tokens to transfer\r\n\t*\r\n\t* @return `true` if successful and `false` if unsuccessful\r\n\t*/\r\n\tfunction transfer(address _to, uint256 _amount) public returns (bool) {\r\n\t\trequire(!check(msg.sender, BLACKLISTED), \"sender is blacklisted\");\r\n\t\trequire(!check(_to, BLACKLISTED), \"receiver is blacklisted\");\r\n\t\tsuper.transfer(_to, _amount);\r\n\t}\r\n\r\n\tfunction transferFrom(address _from, address _to, uint256 _amount) public returns (bool) {\r\n\t\trequire(!check(_from, BLACKLISTED), \"sender is blacklisted\");\r\n\t\trequire(!check(_to, BLACKLISTED), \"receiver is blacklisted\");\r\n\t\tsuper.transferFrom(_from, _to, _amount);\r\n\t}\r\n\r\n}",
  "sourcePath": "C:\\Users\\npain\\Projects\\Carbon\\fiat_gateway\\contracts\\PermissionedToken.sol",
  "compiler": {
    "name": "solc",
    "version": "0.4.24+commit.e67f0147.Emscripten.clang"
  },
  "schemaVersion": "2.0.1",
  "updatedAt": "2018-06-30T18:09:54.880Z"
}