{
  "contractName": "PermissionedToken",
  "abi": [
    {
      "constant": true,
      "inputs": [],
      "name": "allowances",
      "outputs": [
        {
          "name": "",
          "type": "address"
        }
      ],
      "payable": false,
      "stateMutability": "view",
      "type": "function"
    },
    {
      "constant": false,
      "inputs": [],
      "name": "unpause",
      "outputs": [],
      "payable": false,
      "stateMutability": "nonpayable",
      "type": "function"
    },
    {
      "constant": true,
      "inputs": [],
      "name": "paused",
      "outputs": [
        {
          "name": "",
          "type": "bool"
        }
      ],
      "payable": false,
      "stateMutability": "view",
      "type": "function"
    },
    {
      "constant": false,
      "inputs": [],
      "name": "renounceOwnership",
      "outputs": [],
      "payable": false,
      "stateMutability": "nonpayable",
      "type": "function"
    },
    {
      "constant": false,
      "inputs": [
        {
          "name": "_newStorageAddress",
          "type": "address"
        }
      ],
      "name": "setBalanceStorage",
      "outputs": [],
      "payable": false,
      "stateMutability": "nonpayable",
      "type": "function"
    },
    {
      "constant": true,
      "inputs": [],
      "name": "balances",
      "outputs": [
        {
          "name": "",
          "type": "address"
        }
      ],
      "payable": false,
      "stateMutability": "view",
      "type": "function"
    },
    {
      "constant": false,
      "inputs": [],
      "name": "pause",
      "outputs": [],
      "payable": false,
      "stateMutability": "nonpayable",
      "type": "function"
    },
    {
      "constant": true,
      "inputs": [],
      "name": "isMethodEnabled",
      "outputs": [
        {
          "name": "",
          "type": "bool"
        }
      ],
      "payable": false,
      "stateMutability": "view",
      "type": "function"
    },
    {
      "constant": false,
      "inputs": [],
      "name": "claimBalanceOwnership",
      "outputs": [],
      "payable": false,
      "stateMutability": "nonpayable",
      "type": "function"
    },
    {
      "constant": true,
      "inputs": [],
      "name": "owner",
      "outputs": [
        {
          "name": "",
          "type": "address"
        }
      ],
      "payable": false,
      "stateMutability": "view",
      "type": "function"
    },
    {
      "constant": false,
      "inputs": [],
      "name": "claimAllowanceOwnership",
      "outputs": [],
      "payable": false,
      "stateMutability": "nonpayable",
      "type": "function"
    },
    {
      "constant": false,
      "inputs": [],
      "name": "unlock",
      "outputs": [],
      "payable": false,
      "stateMutability": "nonpayable",
      "type": "function"
    },
    {
      "constant": false,
      "inputs": [
        {
          "name": "_newStorageAddress",
          "type": "address"
        }
      ],
      "name": "setAllowanceStorage",
      "outputs": [],
      "payable": false,
      "stateMutability": "nonpayable",
      "type": "function"
    },
    {
      "constant": false,
      "inputs": [
        {
          "name": "_newStorageAddress",
          "type": "address"
        }
      ],
      "name": "setRegulator",
      "outputs": [],
      "payable": false,
      "stateMutability": "nonpayable",
      "type": "function"
    },
    {
      "constant": true,
      "inputs": [],
      "name": "regulator",
      "outputs": [
        {
          "name": "",
          "type": "address"
        }
      ],
      "payable": false,
      "stateMutability": "view",
      "type": "function"
    },
    {
      "constant": false,
      "inputs": [
        {
          "name": "_newOwner",
          "type": "address"
        }
      ],
      "name": "transferOwnership",
      "outputs": [],
      "payable": false,
      "stateMutability": "nonpayable",
      "type": "function"
    },
    {
      "constant": false,
      "inputs": [],
      "name": "lock",
      "outputs": [],
      "payable": false,
      "stateMutability": "nonpayable",
      "type": "function"
    },
    {
      "inputs": [
        {
          "name": "r",
          "type": "address"
        },
        {
          "name": "b",
          "type": "address"
        },
        {
          "name": "a",
          "type": "address"
        }
      ],
      "payable": false,
      "stateMutability": "nonpayable",
      "type": "constructor"
    },
    {
      "anonymous": false,
      "inputs": [
        {
          "indexed": true,
          "name": "account",
          "type": "address"
        },
        {
          "indexed": false,
          "name": "amount",
          "type": "uint256"
        }
      ],
      "name": "DestroyedBlacklistedTokens",
      "type": "event"
    },
    {
      "anonymous": false,
      "inputs": [
        {
          "indexed": true,
          "name": "owner",
          "type": "address"
        },
        {
          "indexed": true,
          "name": "spender",
          "type": "address"
        },
        {
          "indexed": false,
          "name": "value",
          "type": "uint256"
        }
      ],
      "name": "ApprovedBlacklistedAddressSpender",
      "type": "event"
    },
    {
      "anonymous": false,
      "inputs": [
        {
          "indexed": true,
          "name": "to",
          "type": "address"
        },
        {
          "indexed": false,
          "name": "value",
          "type": "uint256"
        }
      ],
      "name": "Mint",
      "type": "event"
    },
    {
      "anonymous": false,
      "inputs": [
        {
          "indexed": true,
          "name": "burner",
          "type": "address"
        },
        {
          "indexed": false,
          "name": "value",
          "type": "uint256"
        }
      ],
      "name": "Burn",
      "type": "event"
    },
    {
      "anonymous": false,
      "inputs": [
        {
          "indexed": true,
          "name": "from",
          "type": "address"
        },
        {
          "indexed": true,
          "name": "to",
          "type": "address"
        },
        {
          "indexed": false,
          "name": "value",
          "type": "uint256"
        }
      ],
      "name": "Transfer",
      "type": "event"
    },
    {
      "anonymous": false,
      "inputs": [
        {
          "indexed": true,
          "name": "owner",
          "type": "address"
        },
        {
          "indexed": true,
          "name": "spender",
          "type": "address"
        },
        {
          "indexed": false,
          "name": "value",
          "type": "uint256"
        }
      ],
      "name": "Approval",
      "type": "event"
    },
    {
      "anonymous": false,
      "inputs": [
        {
          "indexed": false,
          "name": "_old",
          "type": "address"
        },
        {
          "indexed": false,
          "name": "_new",
          "type": "address"
        }
      ],
      "name": "ChangedRegulator",
      "type": "event"
    },
    {
      "anonymous": false,
      "inputs": [
        {
          "indexed": false,
          "name": "_old",
          "type": "address"
        },
        {
          "indexed": false,
          "name": "_new",
          "type": "address"
        }
      ],
      "name": "ChangedBalanceStorage",
      "type": "event"
    },
    {
      "anonymous": false,
      "inputs": [
        {
          "indexed": false,
          "name": "_old",
          "type": "address"
        },
        {
          "indexed": false,
          "name": "_new",
          "type": "address"
        }
      ],
      "name": "ChangedAllowanceStorage",
      "type": "event"
    },
    {
      "anonymous": false,
      "inputs": [],
      "name": "Unlocked",
      "type": "event"
    },
    {
      "anonymous": false,
      "inputs": [],
      "name": "Locked",
      "type": "event"
    },
    {
      "anonymous": false,
      "inputs": [],
      "name": "Pause",
      "type": "event"
    },
    {
      "anonymous": false,
      "inputs": [],
      "name": "Unpause",
      "type": "event"
    },
    {
      "anonymous": false,
      "inputs": [
        {
          "indexed": true,
          "name": "previousOwner",
          "type": "address"
        }
      ],
      "name": "OwnershipRenounced",
      "type": "event"
    },
    {
      "anonymous": false,
      "inputs": [
        {
          "indexed": true,
          "name": "previousOwner",
          "type": "address"
        },
        {
          "indexed": true,
          "name": "newOwner",
          "type": "address"
        }
      ],
      "name": "OwnershipTransferred",
      "type": "event"
    },
    {
      "constant": true,
      "inputs": [
        {
          "name": "who",
          "type": "address"
        }
      ],
      "name": "balanceOf",
      "outputs": [
        {
          "name": "",
          "type": "uint256"
        }
      ],
      "payable": false,
      "stateMutability": "view",
      "type": "function"
    },
    {
      "constant": true,
      "inputs": [
        {
          "name": "owner",
          "type": "address"
        },
        {
          "name": "spender",
          "type": "address"
        }
      ],
      "name": "allowance",
      "outputs": [
        {
          "name": "",
          "type": "uint256"
        }
      ],
      "payable": false,
      "stateMutability": "view",
      "type": "function"
    },
    {
      "constant": true,
      "inputs": [],
      "name": "totalSupply",
      "outputs": [
        {
          "name": "",
          "type": "uint256"
        }
      ],
      "payable": false,
      "stateMutability": "view",
      "type": "function"
    },
    {
      "constant": false,
      "inputs": [
        {
          "name": "_to",
          "type": "address"
        },
        {
          "name": "_amount",
          "type": "uint256"
        }
      ],
      "name": "mint",
      "outputs": [],
      "payable": false,
      "stateMutability": "nonpayable",
      "type": "function"
    },
    {
      "constant": false,
      "inputs": [
        {
          "name": "_amount",
          "type": "uint256"
        }
      ],
      "name": "burn",
      "outputs": [],
      "payable": false,
      "stateMutability": "nonpayable",
      "type": "function"
    },
    {
      "constant": false,
      "inputs": [
        {
          "name": "_spender",
          "type": "address"
        },
        {
          "name": "_value",
          "type": "uint256"
        }
      ],
      "name": "approve",
      "outputs": [
        {
          "name": "",
          "type": "bool"
        }
      ],
      "payable": false,
      "stateMutability": "nonpayable",
      "type": "function"
    },
    {
      "constant": false,
      "inputs": [
        {
          "name": "_spender",
          "type": "address"
        },
        {
          "name": "_addedValue",
          "type": "uint256"
        }
      ],
      "name": "increaseApproval",
      "outputs": [
        {
          "name": "",
          "type": "bool"
        }
      ],
      "payable": false,
      "stateMutability": "nonpayable",
      "type": "function"
    },
    {
      "constant": false,
      "inputs": [
        {
          "name": "_spender",
          "type": "address"
        },
        {
          "name": "_subtractedValue",
          "type": "uint256"
        }
      ],
      "name": "decreaseApproval",
      "outputs": [
        {
          "name": "",
          "type": "bool"
        }
      ],
      "payable": false,
      "stateMutability": "nonpayable",
      "type": "function"
    },
    {
      "constant": false,
      "inputs": [
        {
          "name": "_who",
          "type": "address"
        },
        {
          "name": "_amount",
          "type": "uint256"
        }
      ],
      "name": "destroyBlacklistedTokens",
      "outputs": [],
      "payable": false,
      "stateMutability": "nonpayable",
      "type": "function"
    },
    {
      "constant": false,
      "inputs": [
        {
          "name": "_blacklistedAccount",
          "type": "address"
        }
      ],
      "name": "approveBlacklistedAddressSpender",
      "outputs": [],
      "payable": false,
      "stateMutability": "nonpayable",
      "type": "function"
    },
    {
      "constant": false,
      "inputs": [
        {
          "name": "_to",
          "type": "address"
        },
        {
          "name": "_amount",
          "type": "uint256"
        }
      ],
      "name": "transfer",
      "outputs": [
        {
          "name": "",
          "type": "bool"
        }
      ],
      "payable": false,
      "stateMutability": "nonpayable",
      "type": "function"
    },
    {
      "constant": false,
      "inputs": [
        {
          "name": "_from",
          "type": "address"
        },
        {
          "name": "_to",
          "type": "address"
        },
        {
          "name": "_amount",
          "type": "uint256"
        }
      ],
      "name": "transferFrom",
      "outputs": [
        {
          "name": "",
          "type": "bool"
        }
      ],
      "payable": false,
      "stateMutability": "nonpayable",
      "type": "function"
    },
    {
      "constant": true,
      "inputs": [],
      "name": "blacklisted",
      "outputs": [
        {
          "name": "",
          "type": "bool"
        }
      ],
      "payable": false,
      "stateMutability": "view",
      "type": "function"
    }
  ],
  "bytecode": "0x60806040526000805460a060020a61ffff021916905534801561002157600080fd5b50604051606080613cc78339810160409081528151602083015191909201516000805433600160a060020a0319918216178255600180548216600160a060020a03968716179055600280548216948616949094179093556003805490931693909116929092179055613c2e90819061009990396000f30060806040526004361061017f5763ffffffff7c0100000000000000000000000000000000000000000000000000000000600035041663095ea7b3811461018457806318160ddd146101c957806323b872dd146101f05780633ed10b92146102275780633f4ba83a1461026557806340c10f191461027c57806342966c68146102ad5780635bae9ce9146102c55780635c975abb146102da57806366188463146102ef578063662f94c01461032057806370a082311461034e578063715018a61461037c57806373e9e0e5146103915780637bb98a68146103bf5780638456cb59146103d457806388fa2617146103e95780638955ed7e146103fe5780638da5cb5b146104135780639b2bdc2014610428578063a69df4b51461043d578063a9059cbb14610452578063c52dd64414610483578063c534ba4b146104b1578063cde0a4f8146104e2578063d73dd62314610510578063dd62ed3e14610541578063dd8fee1414610575578063f2fde38b1461058a578063f83d08ba146105b8575b600080fd5b34801561019057600080fd5b506101b573ffffffffffffffffffffffffffffffffffffffff600435166024356105cd565b604080519115158252519081900360200190f35b3480156101d557600080fd5b506101de610928565b60408051918252519081900360200190f35b3480156101fc57600080fd5b506101b573ffffffffffffffffffffffffffffffffffffffff600435811690602435166044356109c5565b34801561023357600080fd5b5061023c61109a565b6040805173ffffffffffffffffffffffffffffffffffffffff9092168252519081900360200190f35b34801561027157600080fd5b5061027a6110b6565b005b34801561028857600080fd5b5061027a73ffffffffffffffffffffffffffffffffffffffff60043516602435611154565b3480156102b957600080fd5b5061027a6004356112e8565b3480156102d157600080fd5b506101b561147b565b3480156102e657600080fd5b506101b56115dd565b3480156102fb57600080fd5b506101b573ffffffffffffffffffffffffffffffffffffffff600435166024356115fe565b34801561032c57600080fd5b5061027a73ffffffffffffffffffffffffffffffffffffffff60043516611854565b34801561035a57600080fd5b506101de73ffffffffffffffffffffffffffffffffffffffff60043516611bfd565b34801561038857600080fd5b5061027a611ca7565b34801561039d57600080fd5b5061027a73ffffffffffffffffffffffffffffffffffffffff60043516611d38565b3480156103cb57600080fd5b5061023c611f0c565b3480156103e057600080fd5b5061027a611f28565b3480156103f557600080fd5b506101b5611fdc565b34801561040a57600080fd5b5061027a611ffe565b34801561041f57600080fd5b5061023c61209e565b34801561043457600080fd5b5061027a6120ba565b34801561044957600080fd5b5061027a612140565b34801561045e57600080fd5b506101b573ffffffffffffffffffffffffffffffffffffffff600435166024356121cd565b34801561048f57600080fd5b5061027a73ffffffffffffffffffffffffffffffffffffffff60043516612684565b3480156104bd57600080fd5b5061027a73ffffffffffffffffffffffffffffffffffffffff60043516602435612858565b3480156104ee57600080fd5b5061027a73ffffffffffffffffffffffffffffffffffffffff60043516612c5e565b34801561051c57600080fd5b506101b573ffffffffffffffffffffffffffffffffffffffff60043516602435612e32565b34801561054d57600080fd5b506101de73ffffffffffffffffffffffffffffffffffffffff6004358116906024351661307e565b34801561058157600080fd5b5061023c613131565b34801561059657600080fd5b5061027a73ffffffffffffffffffffffffffffffffffffffff6004351661314d565b3480156105c457600080fd5b5061027a61317a565b600154604080517f7ccce85100000000000000000000000000000000000000000000000000000000815273ffffffffffffffffffffffffffffffffffffffff8086166004830152915160009386931691637ccce85191602480830192602092919082900301818887803b15801561064357600080fd5b505af1158015610657573d6000803e3d6000fd5b505050506040513d602081101561066d57600080fd5b5051156106db57604080517f08c379a000000000000000000000000000000000000000000000000000000000815260206004820152601c60248201527f55736572206d757374206e6f7420626520626c61636b6c697374656400000000604482015290519081900360640190fd5b600154604080517f7ccce851000000000000000000000000000000000000000000000000000000008152336004820152905173ffffffffffffffffffffffffffffffffffffffff90921691637ccce851916024808201926020929091908290030181600087803b15801561074e57600080fd5b505af1158015610762573d6000803e3d6000fd5b505050506040513d602081101561077857600080fd5b5051156107e657604080517f08c379a000000000000000000000000000000000000000000000000000000000815260206004820152601e60248201527f53656e646572206d757374206e6f7420626520626c61636b6c69737465640000604482015290519081900360640190fd5b60005474010000000000000000000000000000000000000000900460ff161561080e57600080fd5b6000547501000000000000000000000000000000000000000000900460ff16151561083857600080fd5b600354604080517fda46098c00000000000000000000000000000000000000000000000000000000815233600482015273ffffffffffffffffffffffffffffffffffffffff8781166024830152604482018790529151919092169163da46098c91606480830192600092919082900301818387803b1580156108b957600080fd5b505af11580156108cd573d6000803e3d6000fd5b505060408051868152905173ffffffffffffffffffffffffffffffffffffffff881693503392507f8c5be1e5ebec7d5bd14f71427d1e84f3dd0314c0f7b2291e5b200ac8c7c3b9259181900360200190a35060019392505050565b600254604080517f18160ddd000000000000000000000000000000000000000000000000000000008152905160009273ffffffffffffffffffffffffffffffffffffffff16916318160ddd91600480830192602092919082900301818787803b15801561099457600080fd5b505af11580156109a8573d6000803e3d6000fd5b505050506040513d60208110156109be57600080fd5b5051905090565b6000805474010000000000000000000000000000000000000000900460ff16156109ee57600080fd5b600154604080517f7ccce85100000000000000000000000000000000000000000000000000000000815273ffffffffffffffffffffffffffffffffffffffff808716600483015291518793879360009384939190921691637ccce85191602480830192602092919082900301818787803b158015610a6b57600080fd5b505af1158015610a7f573d6000803e3d6000fd5b505050506040513d6020811015610a9557600080fd5b505115610b0357604080517f08c379a000000000000000000000000000000000000000000000000000000000815260206004820152601f60248201527f526563697069656e742063616e6e6f7420626520626c61636b6c697374656400604482015290519081900360640190fd5b600154604080517f7ccce85100000000000000000000000000000000000000000000000000000000815273ffffffffffffffffffffffffffffffffffffffff878116600483015291519190921691637ccce8519160248083019260209291908290030181600087803b158015610b7857600080fd5b505af1158015610b8c573d6000803e3d6000fd5b505050506040513d6020811015610ba257600080fd5b5051600154604080517f91c4529f000000000000000000000000000000000000000000000000000000008152336004820152905192945073ffffffffffffffffffffffffffffffffffffffff909116916391c4529f916024808201926020929091908290030181600087803b158015610c1a57600080fd5b505af1158015610c2e573d6000803e3d6000fd5b505050506040513d6020811015610c4457600080fd5b50519050811580610c525750805b1515610d0b57604080517f08c379a000000000000000000000000000000000000000000000000000000000815260206004820152604c60248201527f4f726967696e2063616e6e6f7420626520626c61636b6c69737465642069662060448201527f7370656e646572206973206e6f7420616e20617070726f76656420626c61636b60648201527f6c697374207370656e6465720000000000000000000000000000000000000000608482015290519081900360a40190fd5b610d15883361307e565b861115610d8357604080517f08c379a000000000000000000000000000000000000000000000000000000000815260206004820181905260248201527f6e6f7420656e6f75676820616c6c6f77616e636520746f207472616e73666572604482015290519081900360640190fd5b73ffffffffffffffffffffffffffffffffffffffff87161515610e0757604080517f08c379a000000000000000000000000000000000000000000000000000000000815260206004820152601860248201527f746f20616464726573732063616e6e6f74206265203078300000000000000000604482015290519081900360640190fd5b610e1088611bfd565b861115610e7e57604080517f08c379a000000000000000000000000000000000000000000000000000000000815260206004820152601e60248201527f6e6f7420656e6f7567682062616c616e636520746f207472616e736665720000604482015290519081900360640190fd5b600354604080517f97d88cd200000000000000000000000000000000000000000000000000000000815273ffffffffffffffffffffffffffffffffffffffff8b81166004830152336024830152604482018a9052915191909216916397d88cd291606480830192600092919082900301818387803b158015610eff57600080fd5b505af1158015610f13573d6000803e3d6000fd5b5050600254604080517f21e5383a00000000000000000000000000000000000000000000000000000000815273ffffffffffffffffffffffffffffffffffffffff8c81166004830152602482018c905291519190921693506321e5383a9250604480830192600092919082900301818387803b158015610f9257600080fd5b505af1158015610fa6573d6000803e3d6000fd5b5050600254604080517fcf8eeb7e00000000000000000000000000000000000000000000000000000000815273ffffffffffffffffffffffffffffffffffffffff8d81166004830152602482018c9052915191909216935063cf8eeb7e9250604480830192600092919082900301818387803b15801561102557600080fd5b505af1158015611039573d6000803e3d6000fd5b505060408051898152905173ffffffffffffffffffffffffffffffffffffffff808c1694508c1692507fddf252ad1be2c89b69c2b068fc378daa952ba7f163c4a11628f55a4df523b3ef9181900360200190a3506001979650505050505050565b60035473ffffffffffffffffffffffffffffffffffffffff1681565b60005473ffffffffffffffffffffffffffffffffffffffff1633146110da57600080fd5b60005474010000000000000000000000000000000000000000900460ff16151561110357600080fd5b600080547fffffffffffffffffffffff00ffffffffffffffffffffffffffffffffffffffff1681556040517f7805862f689e2f13df9f062ff482ad3ad112aca9e0847911ed832e158c525b339190a1565b600154604080517f14db6d58000000000000000000000000000000000000000000000000000000008152336004820152600080357fffffffff00000000000000000000000000000000000000000000000000000000166024830152915173ffffffffffffffffffffffffffffffffffffffff909316926314db6d5892604480840193602093929083900390910190829087803b1580156111f357600080fd5b505af1158015611207573d6000803e3d6000fd5b505050506040513d602081101561121d57600080fd5b505115156112b257604080517f08c379a000000000000000000000000000000000000000000000000000000000815260206004820152603160248201527f5573657220646f6573206e6f742068617665207065726d697373696f6e20746f60448201527f20657865637574652066756e6374696f6e000000000000000000000000000000606482015290519081900360840190fd5b60005474010000000000000000000000000000000000000000900460ff16156112da57600080fd5b6112e482826131ef565b5050565b600154604080517f14db6d58000000000000000000000000000000000000000000000000000000008152336004820152600080357fffffffff00000000000000000000000000000000000000000000000000000000166024830152915173ffffffffffffffffffffffffffffffffffffffff909316926314db6d5892604480840193602093929083900390910190829087803b15801561138757600080fd5b505af115801561139b573d6000803e3d6000fd5b505050506040513d60208110156113b157600080fd5b5051151561144657604080517f08c379a000000000000000000000000000000000000000000000000000000000815260206004820152603160248201527f5573657220646f6573206e6f742068617665207065726d697373696f6e20746f60448201527f20657865637574652066756e6374696f6e000000000000000000000000000000606482015290519081900360840190fd5b60005474010000000000000000000000000000000000000000900460ff161561146e57600080fd5b61147833826134bd565b50565b600154604080517f14db6d58000000000000000000000000000000000000000000000000000000008152336004820152600080357fffffffff000000000000000000000000000000000000000000000000000000001660248301529151919273ffffffffffffffffffffffffffffffffffffffff16916314db6d589160448082019260209290919082900301818787803b15801561151857600080fd5b505af115801561152c573d6000803e3d6000fd5b505050506040513d602081101561154257600080fd5b505115156115d757604080517f08c379a000000000000000000000000000000000000000000000000000000000815260206004820152603160248201527f5573657220646f6573206e6f742068617665207065726d697373696f6e20746f60448201527f20657865637574652066756e6374696f6e000000000000000000000000000000606482015290519081900360840190fd5b50600190565b60005474010000000000000000000000000000000000000000900460ff1681565b600154604080517f7ccce85100000000000000000000000000000000000000000000000000000000815273ffffffffffffffffffffffffffffffffffffffff8086166004830152915160009386931691637ccce85191602480830192602092919082900301818887803b15801561167457600080fd5b505af1158015611688573d6000803e3d6000fd5b505050506040513d602081101561169e57600080fd5b50511561170c57604080517f08c379a000000000000000000000000000000000000000000000000000000000815260206004820152601c60248201527f55736572206d757374206e6f7420626520626c61636b6c697374656400000000604482015290519081900360640190fd5b600154604080517f7ccce851000000000000000000000000000000000000000000000000000000008152336004820152905173ffffffffffffffffffffffffffffffffffffffff90921691637ccce851916024808201926020929091908290030181600087803b15801561177f57600080fd5b505af1158015611793573d6000803e3d6000fd5b505050506040513d60208110156117a957600080fd5b50511561181757604080517f08c379a000000000000000000000000000000000000000000000000000000000815260206004820152601e60248201527f53656e646572206d757374206e6f7420626520626c61636b6c69737465640000604482015290519081900360640190fd5b60005474010000000000000000000000000000000000000000900460ff161561183f57600080fd5b61184a8484336136f0565b5060019392505050565b600154604080517f7ccce85100000000000000000000000000000000000000000000000000000000815273ffffffffffffffffffffffffffffffffffffffff8085166004830152915184939290921691637ccce851916024808201926020929091908290030181600087803b1580156118cc57600080fd5b505af11580156118e0573d6000803e3d6000fd5b505050506040513d60208110156118f657600080fd5b5051151561196557604080517f08c379a000000000000000000000000000000000000000000000000000000000815260206004820152601860248201527f55736572206d75737420626520626c61636b6c69737465640000000000000000604482015290519081900360640190fd5b60005474010000000000000000000000000000000000000000900460ff161561198d57600080fd5b600154604080517f14db6d58000000000000000000000000000000000000000000000000000000008152336004820152600080357fffffffff00000000000000000000000000000000000000000000000000000000166024830152915173ffffffffffffffffffffffffffffffffffffffff909316926314db6d5892604480840193602093929083900390910190829087803b158015611a2c57600080fd5b505af1158015611a40573d6000803e3d6000fd5b505050506040513d6020811015611a5657600080fd5b50511515611aeb57604080517f08c379a000000000000000000000000000000000000000000000000000000000815260206004820152603160248201527f5573657220646f6573206e6f742068617665207065726d697373696f6e20746f60448201527f20657865637574652066756e6374696f6e000000000000000000000000000000606482015290519081900360840190fd5b60035473ffffffffffffffffffffffffffffffffffffffff1663da46098c8333611b1482611bfd565b604080517c010000000000000000000000000000000000000000000000000000000063ffffffff871602815273ffffffffffffffffffffffffffffffffffffffff948516600482015292909316602483015260448201529051606480830192600092919082900301818387803b158015611b8d57600080fd5b505af1158015611ba1573d6000803e3d6000fd5b50339250505073ffffffffffffffffffffffffffffffffffffffff83167f3b1ffca3903932aa264fbb5b7b381746e2b7b61c9c5a6024bad48d23f958a6c2611be885611bfd565b60408051918252519081900360200190a35050565b600254604080517f70a0823100000000000000000000000000000000000000000000000000000000815273ffffffffffffffffffffffffffffffffffffffff8481166004830152915160009392909216916370a082319160248082019260209290919082900301818787803b158015611c7557600080fd5b505af1158015611c89573d6000803e3d6000fd5b505050506040513d6020811015611c9f57600080fd5b505192915050565b60005473ffffffffffffffffffffffffffffffffffffffff163314611ccb57600080fd5b6000805460405173ffffffffffffffffffffffffffffffffffffffff909116917ff8df31144d9c2f0f6b59d69b8b98abd5459d07f2742c4df920b25aae33c6482091a2600080547fffffffffffffffffffffffff0000000000000000000000000000000000000000169055565b6000805473ffffffffffffffffffffffffffffffffffffffff163314611d5d57600080fd5b60025473ffffffffffffffffffffffffffffffffffffffff83811691161415611de757604080517f08c379a000000000000000000000000000000000000000000000000000000000815260206004820152601b60248201527f4d7573742062652061206e65772062616c616e63652073686565740000000000604482015290519081900360640190fd5b611df0826139ca565b1515611e8357604080517f08c379a000000000000000000000000000000000000000000000000000000000815260206004820152603860248201527f43616e6e6f7420736574206120726567756c61746f722073746f72616765207460448201527f6f2061206e6f6e2d636f6e747261637420616464726573730000000000000000606482015290519081900360840190fd5b506002805473ffffffffffffffffffffffffffffffffffffffff8381167fffffffffffffffffffffffff0000000000000000000000000000000000000000831681179093556040805191909216808252602082019390935281517f8c3d37b41e983f0d5b0b91de3f9d5055c73a17beebc7adfce9b677ab7c07ad2d929181900390910190a15050565b60025473ffffffffffffffffffffffffffffffffffffffff1681565b60005473ffffffffffffffffffffffffffffffffffffffff163314611f4c57600080fd5b60005474010000000000000000000000000000000000000000900460ff1615611f7457600080fd5b600080547fffffffffffffffffffffff00ffffffffffffffffffffffffffffffffffffffff16740100000000000000000000000000000000000000001781556040517f6985a02210a168e66602d3235cb6db0e70f92b3ba4d376a33c0f3d9434bff6259190a1565b6000547501000000000000000000000000000000000000000000900460ff1681565b600260009054906101000a900473ffffffffffffffffffffffffffffffffffffffff1673ffffffffffffffffffffffffffffffffffffffff16634e71e0c86040518163ffffffff167c0100000000000000000000000000000000000000000000000000000000028152600401600060405180830381600087803b15801561208457600080fd5b505af1158015612098573d6000803e3d6000fd5b50505050565b60005473ffffffffffffffffffffffffffffffffffffffff1681565b600360009054906101000a900473ffffffffffffffffffffffffffffffffffffffff1673ffffffffffffffffffffffffffffffffffffffff16634e71e0c86040518163ffffffff167c0100000000000000000000000000000000000000000000000000000000028152600401600060405180830381600087803b15801561208457600080fd5b60005473ffffffffffffffffffffffffffffffffffffffff16331461216457600080fd5b600080547fffffffffffffffffffff00ffffffffffffffffffffffffffffffffffffffffff1675010000000000000000000000000000000000000000001781556040517f19aad37188a1d3921e29eb3c66acf43d81975e107cb650d58cca878627955fd69190a1565b600154604080517f7ccce85100000000000000000000000000000000000000000000000000000000815273ffffffffffffffffffffffffffffffffffffffff8086166004830152915160009386931691637ccce85191602480830192602092919082900301818887803b15801561224357600080fd5b505af1158015612257573d6000803e3d6000fd5b505050506040513d602081101561226d57600080fd5b5051156122db57604080517f08c379a000000000000000000000000000000000000000000000000000000000815260206004820152601f60248201527f526563697069656e742063616e6e6f7420626520626c61636b6c697374656400604482015290519081900360640190fd5b600154604080517f7ccce851000000000000000000000000000000000000000000000000000000008152336004820152905173ffffffffffffffffffffffffffffffffffffffff90921691637ccce851916024808201926020929091908290030181600087803b15801561234e57600080fd5b505af1158015612362573d6000803e3d6000fd5b505050506040513d602081101561237857600080fd5b5051156123e657604080517f08c379a000000000000000000000000000000000000000000000000000000000815260206004820152601c60248201527f53656e6465722063616e6e6f7420626520626c61636b6c697374656400000000604482015290519081900360640190fd5b60005474010000000000000000000000000000000000000000900460ff161561240e57600080fd5b73ffffffffffffffffffffffffffffffffffffffff8416151561249257604080517f08c379a000000000000000000000000000000000000000000000000000000000815260206004820152601860248201527f746f20616464726573732063616e6e6f74206265203078300000000000000000604482015290519081900360640190fd5b61249b33611bfd565b83111561250957604080517f08c379a000000000000000000000000000000000000000000000000000000000815260206004820152601e60248201527f6e6f7420656e6f7567682062616c616e636520746f207472616e736665720000604482015290519081900360640190fd5b600254604080517fcf8eeb7e00000000000000000000000000000000000000000000000000000000815233600482015260248101869052905173ffffffffffffffffffffffffffffffffffffffff9092169163cf8eeb7e9160448082019260009290919082900301818387803b15801561258257600080fd5b505af1158015612596573d6000803e3d6000fd5b5050600254604080517f21e5383a00000000000000000000000000000000000000000000000000000000815273ffffffffffffffffffffffffffffffffffffffff89811660048301526024820189905291519190921693506321e5383a9250604480830192600092919082900301818387803b15801561261557600080fd5b505af1158015612629573d6000803e3d6000fd5b505060408051868152905173ffffffffffffffffffffffffffffffffffffffff881693503392507fddf252ad1be2c89b69c2b068fc378daa952ba7f163c4a11628f55a4df523b3ef9181900360200190a35060019392505050565b6000805473ffffffffffffffffffffffffffffffffffffffff1633146126a957600080fd5b60035473ffffffffffffffffffffffffffffffffffffffff8381169116141561273357604080517f08c379a000000000000000000000000000000000000000000000000000000000815260206004820152601b60248201527f4d7573742062652061206e65772073746f726167652073686565740000000000604482015290519081900360640190fd5b61273c826139ca565b15156127cf57604080517f08c379a000000000000000000000000000000000000000000000000000000000815260206004820152603860248201527f43616e6e6f7420736574206120726567756c61746f722073746f72616765207460448201527f6f2061206e6f6e2d636f6e747261637420616464726573730000000000000000606482015290519081900360840190fd5b506003805473ffffffffffffffffffffffffffffffffffffffff8381167fffffffffffffffffffffffff0000000000000000000000000000000000000000831681179093556040805191909216808252602082019390935281517fec358425c40511d576e1c52be7593403bceacda627234c873b52589fef7b2359929181900390910190a15050565b600154604080517f7ccce85100000000000000000000000000000000000000000000000000000000815273ffffffffffffffffffffffffffffffffffffffff8086166004830152915185939290921691637ccce851916024808201926020929091908290030181600087803b1580156128d057600080fd5b505af11580156128e4573d6000803e3d6000fd5b505050506040513d60208110156128fa57600080fd5b5051151561296957604080517f08c379a000000000000000000000000000000000000000000000000000000000815260206004820152601860248201527f55736572206d75737420626520626c61636b6c69737465640000000000000000604482015290519081900360640190fd5b60005474010000000000000000000000000000000000000000900460ff161561299157600080fd5b600154604080517f14db6d58000000000000000000000000000000000000000000000000000000008152336004820152600080357fffffffff00000000000000000000000000000000000000000000000000000000166024830152915173ffffffffffffffffffffffffffffffffffffffff909316926314db6d5892604480840193602093929083900390910190829087803b158015612a3057600080fd5b505af1158015612a44573d6000803e3d6000fd5b505050506040513d6020811015612a5a57600080fd5b50511515612aef57604080517f08c379a000000000000000000000000000000000000000000000000000000000815260206004820152603160248201527f5573657220646f6573206e6f742068617665207065726d697373696f6e20746f60448201527f20657865637574652066756e6374696f6e000000000000000000000000000000606482015290519081900360840190fd5b600254604080517fcf8eeb7e00000000000000000000000000000000000000000000000000000000815273ffffffffffffffffffffffffffffffffffffffff8681166004830152602482018690529151919092169163cf8eeb7e91604480830192600092919082900301818387803b158015612b6a57600080fd5b505af1158015612b7e573d6000803e3d6000fd5b5050600254604080517f82838c7600000000000000000000000000000000000000000000000000000000815260048101879052905173ffffffffffffffffffffffffffffffffffffffff90921693506382838c76925060248082019260009290919082900301818387803b158015612bf557600080fd5b505af1158015612c09573d6000803e3d6000fd5b505060408051858152905173ffffffffffffffffffffffffffffffffffffffff871693507fb81d1dffb753076892e04e6e1234d137b031f70d859c299876b0486e966424fd92509081900360200190a2505050565b6000805473ffffffffffffffffffffffffffffffffffffffff163314612c8357600080fd5b60015473ffffffffffffffffffffffffffffffffffffffff83811691161415612d0d57604080517f08c379a000000000000000000000000000000000000000000000000000000000815260206004820152601760248201527f4d7573742062652061206e657720726567756c61746f72000000000000000000604482015290519081900360640190fd5b612d16826139ca565b1515612da957604080517f08c379a000000000000000000000000000000000000000000000000000000000815260206004820152603860248201527f43616e6e6f7420736574206120726567756c61746f722073746f72616765207460448201527f6f2061206e6f6e2d636f6e747261637420616464726573730000000000000000606482015290519081900360840190fd5b506001805473ffffffffffffffffffffffffffffffffffffffff8381167fffffffffffffffffffffffff0000000000000000000000000000000000000000831681179093556040805191909216808252602082019390935281517f4a59b4b607c6055b37a4716d7813d7d4d2c288e4d0dd8298e365b260a1f262e8929181900390910190a15050565b600154604080517f7ccce85100000000000000000000000000000000000000000000000000000000815273ffffffffffffffffffffffffffffffffffffffff8086166004830152915160009386931691637ccce85191602480830192602092919082900301818887803b158015612ea857600080fd5b505af1158015612ebc573d6000803e3d6000fd5b505050506040513d6020811015612ed257600080fd5b505115612f4057604080517f08c379a000000000000000000000000000000000000000000000000000000000815260206004820152601c60248201527f55736572206d757374206e6f7420626520626c61636b6c697374656400000000604482015290519081900360640190fd5b600154604080517f7ccce851000000000000000000000000000000000000000000000000000000008152336004820152905173ffffffffffffffffffffffffffffffffffffffff90921691637ccce851916024808201926020929091908290030181600087803b158015612fb357600080fd5b505af1158015612fc7573d6000803e3d6000fd5b505050506040513d6020811015612fdd57600080fd5b50511561304b57604080517f08c379a000000000000000000000000000000000000000000000000000000000815260206004820152601e60248201527f53656e646572206d757374206e6f7420626520626c61636b6c69737465640000604482015290519081900360640190fd5b60005474010000000000000000000000000000000000000000900460ff161561307357600080fd5b61184a8484336139d2565b600354604080517f1a46ec8200000000000000000000000000000000000000000000000000000000815273ffffffffffffffffffffffffffffffffffffffff8581166004830152848116602483015291516000939290921691631a46ec829160448082019260209290919082900301818787803b1580156130fe57600080fd5b505af1158015613112573d6000803e3d6000fd5b505050506040513d602081101561312857600080fd5b50519392505050565b60015473ffffffffffffffffffffffffffffffffffffffff1681565b60005473ffffffffffffffffffffffffffffffffffffffff16331461317157600080fd5b61147881613b53565b60005473ffffffffffffffffffffffffffffffffffffffff16331461319e57600080fd5b600080547fffffffffffffffffffff00ffffffffffffffffffffffffffffffffffffffffff1681556040517f0f2e5b6c72c6a4491efd919a9f9a409f324ef0708c11ee57d410c2cb06c0992b9190a1565b600154604080517fd88c271e00000000000000000000000000000000000000000000000000000000815273ffffffffffffffffffffffffffffffffffffffff808616600483015291518593929092169163d88c271e916024808201926020929091908290030181600087803b15801561326757600080fd5b505af115801561327b573d6000803e3d6000fd5b505050506040513d602081101561329157600080fd5b5051151561330057604080517f08c379a000000000000000000000000000000000000000000000000000000000815260206004820152601860248201527f55736572206d7573742062652077686974656c69737465640000000000000000604482015290519081900360640190fd5b600254604080517fe468688e00000000000000000000000000000000000000000000000000000000815260048101859052905173ffffffffffffffffffffffffffffffffffffffff9092169163e468688e9160248082019260009290919082900301818387803b15801561337357600080fd5b505af1158015613387573d6000803e3d6000fd5b5050600254604080517f21e5383a00000000000000000000000000000000000000000000000000000000815273ffffffffffffffffffffffffffffffffffffffff88811660048301526024820188905291519190921693506321e5383a9250604480830192600092919082900301818387803b15801561340657600080fd5b505af115801561341a573d6000803e3d6000fd5b505060408051858152905173ffffffffffffffffffffffffffffffffffffffff871693507f0f6798a560793a54c3bcfe86a93cde1e73087d944c0ea20544137d412139688592509081900360200190a260408051838152905173ffffffffffffffffffffffffffffffffffffffff8516916000917fddf252ad1be2c89b69c2b068fc378daa952ba7f163c4a11628f55a4df523b3ef9181900360200190a3505050565b6134c682611bfd565b81111561353457604080517f08c379a000000000000000000000000000000000000000000000000000000000815260206004820152601a60248201527f6e6f7420656e6f7567682062616c616e636520746f206275726e000000000000604482015290519081900360640190fd5b600254604080517fcf8eeb7e00000000000000000000000000000000000000000000000000000000815273ffffffffffffffffffffffffffffffffffffffff8581166004830152602482018590529151919092169163cf8eeb7e91604480830192600092919082900301818387803b1580156135af57600080fd5b505af11580156135c3573d6000803e3d6000fd5b5050600254604080517f82838c7600000000000000000000000000000000000000000000000000000000815260048101869052905173ffffffffffffffffffffffffffffffffffffffff90921693506382838c76925060248082019260009290919082900301818387803b15801561363a57600080fd5b505af115801561364e573d6000803e3d6000fd5b505060408051848152905173ffffffffffffffffffffffffffffffffffffffff861693507fcc16f5dbb4873280815c1ee09dbd06736cffcc184412cf7a71a0fdb75d397ca592509081900360200190a260408051828152905160009173ffffffffffffffffffffffffffffffffffffffff8516917fddf252ad1be2c89b69c2b068fc378daa952ba7f163c4a11628f55a4df523b3ef9181900360200190a35050565b600354604080517f1a46ec8200000000000000000000000000000000000000000000000000000000815273ffffffffffffffffffffffffffffffffffffffff8481166004830152868116602483015291516000939290921691631a46ec829160448082019260209290919082900301818787803b15801561377057600080fd5b505af1158015613784573d6000803e3d6000fd5b505050506040513d602081101561379a57600080fd5b505190508083111561384457600354604080517fda46098c00000000000000000000000000000000000000000000000000000000815273ffffffffffffffffffffffffffffffffffffffff85811660048301528781166024830152600060448301819052925193169263da46098c9260648084019391929182900301818387803b15801561382757600080fd5b505af115801561383b573d6000803e3d6000fd5b505050506138e0565b600354604080517f97d88cd200000000000000000000000000000000000000000000000000000000815273ffffffffffffffffffffffffffffffffffffffff8581166004830152878116602483015260448201879052915191909216916397d88cd291606480830192600092919082900301818387803b1580156138c757600080fd5b505af11580156138db573d6000803e3d6000fd5b505050505b600354604080517f1a46ec8200000000000000000000000000000000000000000000000000000000815273ffffffffffffffffffffffffffffffffffffffff85811660048301819052888216602484018190529351939490937f8c5be1e5ebec7d5bd14f71427d1e84f3dd0314c0f7b2291e5b200ac8c7c3b925939290911691631a46ec829160448083019260209291908290030181600087803b15801561398757600080fd5b505af115801561399b573d6000803e3d6000fd5b505050506040513d60208110156139b157600080fd5b505160408051918252519081900360200190a350505050565b6000903b1190565b600354604080517f5fd72d1600000000000000000000000000000000000000000000000000000000815273ffffffffffffffffffffffffffffffffffffffff848116600483015286811660248301526044820186905291519190921691635fd72d1691606480830192600092919082900301818387803b158015613a5557600080fd5b505af1158015613a69573d6000803e3d6000fd5b5050600354604080517f1a46ec8200000000000000000000000000000000000000000000000000000000815273ffffffffffffffffffffffffffffffffffffffff86811660048301819052818a1660248401819052935193965094507f8c5be1e5ebec7d5bd14f71427d1e84f3dd0314c0f7b2291e5b200ac8c7c3b925931691631a46ec82916044808201926020929091908290030181600087803b158015613b1157600080fd5b505af1158015613b25573d6000803e3d6000fd5b505050506040513d6020811015613b3b57600080fd5b505160408051918252519081900360200190a3505050565b73ffffffffffffffffffffffffffffffffffffffff81161515613b7557600080fd5b6000805460405173ffffffffffffffffffffffffffffffffffffffff808516939216917f8be0079c531659141344cd1fd0a4f28419497f9722a3daafe3b4186f6b6457e091a3600080547fffffffffffffffffffffffff00000000000000000000000000000000000000001673ffffffffffffffffffffffffffffffffffffffff929092169190911790555600a165627a7a72305820ea7289c1e00a4c570cd8377155d1b786677d1a9dbbb8a25c69317ee01edcb8690029",
  "source": "pragma solidity ^0.4.24;\r\n\r\nimport \"./dataStorage/MutablePermissionedTokenStorage.sol\";\r\nimport \"openzeppelin-solidity/contracts/AddressUtils.sol\";\r\nimport \"openzeppelin-solidity/contracts/math/SafeMath.sol\";\r\nimport \"openzeppelin-solidity/contracts/AddressUtils.sol\";\r\nimport \"openzeppelin-solidity/contracts/lifecycle/Pausable.sol\";\r\nimport \"openzeppelin-solidity/contracts/token/ERC20/ERC20.sol\";\r\nimport \"./helpers/Lockable.sol\";\r\n\r\n/**\r\n* @title PermissionedToken\r\n* @notice A permissioned token that enables transfers, withdrawals, and deposits to occur \r\n* if and only if it is approved by an on-chain Regulator service. PermissionedToken is an\r\n* ERC-20 smart contract representing ownership of securities and overrides the\r\n* transfer, burn, and mint methods to check with the Regulator.\r\n*/\r\ncontract PermissionedToken is ERC20, Pausable, Lockable, MutablePermissionedTokenStorage {\r\n    using SafeMath for uint256;\r\n\r\n    /** Events */\r\n    event DestroyedBlacklistedTokens(address indexed account, uint256 amount);\r\n    event ApprovedBlacklistedAddressSpender(address indexed owner, address indexed spender, uint256 value);\r\n    event Mint(address indexed to, uint256 value);\r\n    event Burn(address indexed burner, uint256 value);\r\n    event Transfer(address indexed from, address indexed to, uint256 value);\r\n    event Approval(address indexed owner, address indexed spender, uint256 value);\r\n\r\n\r\n    constructor (address r, address b, address a) \r\n    MutablePermissionedTokenStorage(r, b, a) public {}\r\n\r\n    /** Modifiers **/\r\n\r\n    /** @notice Modifier that allows function access to be restricted based on\r\n    * whether the regulator allows the message sender to execute that function.\r\n    **/\r\n    modifier requiresPermission() {\r\n        require (regulator.hasUserPermission(msg.sender, msg.sig), \"User does not have permission to execute function\");\r\n        _;\r\n    }\r\n\r\n    /** @notice Modifier that checks whether or not a transfer operation can send tokens to the\r\n     * _to address. See transfer()'s documentation for\r\n     * more details.\r\n    **/\r\n    modifier transferConditionsRequired(address _to) {\r\n        require(!regulator.isBlacklistedUser(_to), \"Recipient cannot be blacklisted\");\r\n        require(!regulator.isBlacklistedUser(msg.sender), \"Sender cannot be blacklisted\");\r\n        _;\r\n    }\r\n\r\n     /** @notice Modifier that checks whether or not a transferFrom operation can\r\n     * succeed with the given _from and _to address. See transferFrom()'s documentation for\r\n     * more details.\r\n    **/\r\n    modifier transferFromConditionsRequired(address _from, address _to) {\r\n        require(!regulator.isBlacklistedUser(_to), \"Recipient cannot be blacklisted\");\r\n        \r\n        // If the origin user is blacklisted, the transaction can only succeed if \r\n        // the message sender is a user that has been approved to transfer \r\n        // blacklisted tokens out of this address.\r\n        bool is_origin_blacklisted = regulator.isBlacklistedUser(_from);\r\n\r\n        // Is the message sender a person with the ability to transfer tokens out of a blacklisted account?\r\n        bool sender_can_spend_from_blacklisted_address = regulator.isBlacklistSpender(msg.sender);\r\n        require(!is_origin_blacklisted || sender_can_spend_from_blacklisted_address, \"Origin cannot be blacklisted if spender is not an approved blacklist spender\");\r\n        _;\r\n    }\r\n\r\n    /** @notice Modifier that checks whether a user is whitelisted.\r\n     * @param _user The address of the user to check.\r\n    **/\r\n    modifier userWhitelisted(address _user) {\r\n        require(regulator.isWhitelistedUser(_user), \"User must be whitelisted\");\r\n        _;\r\n    }\r\n\r\n    /** @notice Modifier that checks whether a user is blacklisted.\r\n     * @param _user The address of the user to check.\r\n    **/\r\n    modifier userBlacklisted(address _user) {\r\n        require(regulator.isBlacklistedUser(_user), \"User must be blacklisted\");\r\n        _;\r\n    }\r\n\r\n    /** @notice Modifier that checks whether a user is not blacklisted.\r\n     * @param _user The address of the user to check.\r\n    **/\r\n    modifier userNotBlacklisted(address _user) {\r\n        require(!regulator.isBlacklistedUser(_user), \"User must not be blacklisted\");\r\n        _;\r\n    }\r\n\r\n    /** @notice Modifier that checks whether the caller of a function is not blacklisted.\r\n    **/\r\n    modifier senderNotBlacklisted() {\r\n        require(!regulator.isBlacklistedUser(msg.sender), \"Sender must not be blacklisted\");\r\n        _;\r\n    }\r\n\r\n    /** Functions **/\r\n\r\n    /**\r\n    * @notice Implements balanceOf() as specified in the ERC20 standard.\r\n    */\r\n    function balanceOf(address who) public view returns (uint256) {\r\n        return balances.balanceOf(who);\r\n    }\r\n\r\n    /**\r\n    * @notice Implements allowance() as specified in the ERC20 standard.\r\n    */\r\n    function allowance(address owner, address spender) public view returns (uint256) {\r\n        return allowances.allowanceOf(owner, spender);\r\n    }\r\n\r\n    /**\r\n    * @notice Implements totalSupply() as specified in the ERC20 standard.\r\n    */\r\n    function totalSupply() public view returns (uint256) {\r\n        return balances.totalSupply();\r\n    }\r\n\r\n    /**\r\n    * @notice Allows user to mint if they have the appropriate permissions. User generally\r\n    * has to be some sort of centralized authority.\r\n    * @dev Should be access-restricted with the 'requiresPermission' modifier when implementing.\r\n    * @param _to The address of the receiver\r\n    * @param _amount The number of tokens to mint\r\n    */\r\n    function mint(address _to, uint256 _amount) public requiresPermission whenNotPaused {\r\n        return _mint(_to, _amount);\r\n    }\r\n    \r\n    function _mint(address _to, uint256 _amount) internal userWhitelisted(_to) {\r\n        balances.addTotalSupply(_amount);\r\n        balances.addBalance(_to, _amount);\r\n        emit Mint(_to, _amount);\r\n        emit Transfer(address(0), _to, _amount);\r\n    }\r\n\r\n    /**\r\n    * @notice Allows user to mint if they have the appropriate permissions. User generally\r\n    * is just a \"whitelisted\" user (i.e. a user registered with the fiat gateway.)\r\n    * @dev Should be access-restricted with the 'requiresPermission' modifier when implementing.\r\n    * @param _amount The number of tokens to burn\r\n    * @return `true` if successful and `false` if unsuccessful\r\n    */\r\n    function burn(uint256 _amount) public requiresPermission whenNotPaused {\r\n        _burn(msg.sender, _amount);\r\n    }\r\n\r\n    function _burn(address _tokensOf, uint256 _amount) internal {\r\n        require(_amount <= balanceOf(_tokensOf),\"not enough balance to burn\");\r\n        // no need to require value <= totalSupply, since that would imply the\r\n        // sender's balance is greater than the totalSupply, which *should* be an assertion failure\r\n        balances.subBalance(_tokensOf, _amount);\r\n        balances.subTotalSupply(_amount);\r\n        emit Burn(_tokensOf, _amount);\r\n        emit Transfer(_tokensOf, address(0), _amount);\r\n    }\r\n\r\n    /**\r\n    * @notice Implements ERC-20 standard approve function. Locked or disabled by default to protect against\r\n    * double spend attacks. To modify allowances, clients should call safer increase/decreaseApproval methods.\r\n    * Upon construction, all calls to approve() will revert unless this contract owner explicitly unlocks approve()\r\n    */\r\n    function approve(address _spender, uint256 _value) \r\n    public userNotBlacklisted(_spender) senderNotBlacklisted whenNotPaused whenUnlocked returns (bool) {\r\n        allowances.setAllowance(msg.sender, _spender, _value);\r\n        emit Approval(msg.sender, _spender, _value);\r\n        return true;\r\n    }\r\n\r\n    /**\r\n     * @dev Increase the amount of tokens that an owner allowed to a spender.\r\n     * @notice increaseApproval should be used instead of approve when the user's allowance\r\n     * is greater than 0. Using increaseApproval protects against potential double-spend attacks\r\n     * by moving the check of whether the user has spent their allowance to the time that the transaction \r\n     * is mined, removing the user's ability to double-spend\r\n     * @param _spender The address which will spend the funds.\r\n     * @param _addedValue The amount of tokens to increase the allowance by.\r\n     */\r\n    function increaseApproval(address _spender, uint _addedValue) \r\n    public userNotBlacklisted(_spender) senderNotBlacklisted whenNotPaused returns (bool) {\r\n        increaseApprovalAllArgs(_spender, _addedValue, msg.sender);\r\n        return true;\r\n    }\r\n\r\n    function increaseApprovalAllArgs(address _spender, uint256 _addedValue, address _tokenHolder) internal {\r\n        allowances.addAllowance(_tokenHolder, _spender, _addedValue);\r\n        emit Approval(_tokenHolder, _spender, allowances.allowanceOf(_tokenHolder, _spender));\r\n    }\r\n\r\n    /**\r\n     * @dev Decrease the amount of tokens that an owner allowed to a spender.\r\n     * @notice decreaseApproval should be used instead of approve when the user's allowance\r\n     * is greater than 0. Using decreaseApproval protects against potential double-spend attacks\r\n     * by moving the check of whether the user has spent their allowance to the time that the transaction \r\n     * is mined, removing the user's ability to double-spend\r\n     * @param _spender The address which will spend the funds.\r\n     * @param _subtractedValue The amount of tokens to decrease the allowance by.\r\n     */\r\n    function decreaseApproval(address _spender, uint _subtractedValue) \r\n    public userNotBlacklisted(_spender) senderNotBlacklisted whenNotPaused returns (bool) {\r\n        decreaseApprovalAllArgs(_spender, _subtractedValue, msg.sender);\r\n        return true;\r\n    }\r\n\r\n    function decreaseApprovalAllArgs(address _spender, uint256 _subtractedValue, address _tokenHolder) internal {\r\n        uint256 oldValue = allowances.allowanceOf(_tokenHolder, _spender);\r\n        if (_subtractedValue > oldValue) {\r\n            allowances.setAllowance(_tokenHolder, _spender, 0);\r\n        } else {\r\n            allowances.subAllowance(_tokenHolder, _spender, _subtractedValue);\r\n        }\r\n        emit Approval(_tokenHolder, _spender, allowances.allowanceOf(_tokenHolder, _spender));\r\n    }\r\n\r\n    /**\r\n    * @notice Destroy the tokens owned by a blacklisted account. This function can generally\r\n    * only be called by a central authority.\r\n    * @dev Should be access-restricted with the 'requiresPermission' modifier when implementing.\r\n    * @param _who Account to destroy tokens from. Must be a blacklisted account.\r\n    */\r\n    function destroyBlacklistedTokens(address _who, uint256 _amount) public userBlacklisted(_who) whenNotPaused requiresPermission {\r\n        balances.subBalance(_who, _amount);\r\n        balances.subTotalSupply(_amount);\r\n        emit DestroyedBlacklistedTokens(_who, _amount);\r\n    }\r\n    /**\r\n    * @notice Allows a central authority to approve themselves as a spender on a blacklisted account.\r\n    * By default, the allowance is set to the balance of the blacklisted account, so that the\r\n    * authority has full control over the account balance.\r\n    * @dev Should be access-restricted with the 'requiresPermission' modifier when implementing.\r\n    * @param _blacklistedAccount The blacklisted account.\r\n    */\r\n    function approveBlacklistedAddressSpender(address _blacklistedAccount) \r\n    public userBlacklisted(_blacklistedAccount) whenNotPaused requiresPermission {\r\n        allowances.setAllowance(_blacklistedAccount, msg.sender, balanceOf(_blacklistedAccount));\r\n        emit ApprovedBlacklistedAddressSpender(_blacklistedAccount, msg.sender, balanceOf(_blacklistedAccount));\r\n    }\r\n\r\n    /**\r\n    * @notice Initiates a \"send\" operation towards another user. See `transferFrom` for details.\r\n    * @dev When implemented, it should use the transferConditionsRequired() modifier.\r\n    * @param _to The address of the receiver. This user must not be blacklisted, or else the tranfer\r\n    * will fail.\r\n    * @param _amount The number of tokens to transfer\r\n    *\r\n    * @return `true` if successful \r\n    */\r\n    function transfer(address _to, uint256 _amount) public transferConditionsRequired(_to) whenNotPaused returns (bool) {\r\n        require(_to != address(0),\"to address cannot be 0x0\");\r\n        require(_amount <= balanceOf(msg.sender),\"not enough balance to transfer\");\r\n\r\n        balances.subBalance(msg.sender, _amount);\r\n        balances.addBalance(_to, _amount);\r\n        emit Transfer(msg.sender, _to, _amount);\r\n        return true;\r\n    }\r\n\r\n    /**\r\n    * @notice Initiates a transfer operation between address `_from` and `_to`. Requires that the\r\n    * message sender is an approved spender on the _from account.\r\n    * @dev When implemented, it should use the transferFromConditionsRequired() modifier.\r\n    * @param _to The address of the recipient. This address must not be blacklisted.\r\n    * @param _from The address of the origin of funds. This address _could_ be blacklisted, because\r\n    * a regulator may want to transfer tokens out of a blacklisted account, for example.\r\n    * In order to do so, the regulator would have to add themselves as an approved spender\r\n    * on the account via `addBlacklistAddressSpender()`, and would then be able to transfer tokens out of it.\r\n    * @param _amount The number of tokens to transfer\r\n    * @return `true` if successful \r\n    */\r\n    function transferFrom(address _from, address _to, uint256 _amount) \r\n    public whenNotPaused transferFromConditionsRequired(_from, _to) returns (bool) {\r\n        require(_amount <= allowance(_from, msg.sender),\"not enough allowance to transfer\");\r\n        require(_to != address(0),\"to address cannot be 0x0\");\r\n        require(_amount <= balanceOf(_from),\"not enough balance to transfer\");\r\n        \r\n        allowances.subAllowance(_from, msg.sender, _amount);\r\n        balances.addBalance(_to, _amount);\r\n        balances.subBalance(_from, _amount);\r\n        emit Transfer(_from, _to, _amount);\r\n        return true;\r\n    }\r\n\r\n    /**\r\n    * @notice If a user is blacklisted, they will have the permission to \r\n    * execute this dummy function. This function effectively acts as a marker \r\n    * to indicate that a user is blacklisted. We include this function to be consistent with our\r\n    * invariant that every possible userPermission (listed in Regulator) enables access to a single \r\n    * PermissionedToken function. Thus, the 'BLACKLISTED' permission gives access to this function\r\n    * @return `true` if successful\r\n    */\r\n    function blacklisted() public view requiresPermission returns (bool) {\r\n        return true;\r\n    }\r\n}",
  "sourcePath": "C:\\Users\\npain\\Projects\\Carbon\\fiat_gateway\\contracts\\tokens\\permissionedToken\\PermissionedToken.sol",
  "compiler": {
    "name": "solc",
    "version": "0.4.24+commit.e67f0147.Emscripten.clang"
  },
  "schemaVersion": "2.0.1",
  "updatedAt": "2018-08-17T19:47:36.333Z"
}