{
  "contractName": "RegulatorStorage",
  "abi": [
    {
      "constant": true,
      "inputs": [
        {
          "name": "",
          "type": "bytes4"
        }
      ],
      "name": "permissions",
      "outputs": [
        {
          "name": "name",
          "type": "string"
        },
        {
          "name": "description",
          "type": "string"
        },
        {
          "name": "contract_name",
          "type": "string"
        },
        {
          "name": "active",
          "type": "bool"
        }
      ],
      "payable": false,
      "stateMutability": "view",
      "type": "function"
    },
    {
      "constant": false,
      "inputs": [],
      "name": "claimOwnership",
      "outputs": [],
      "payable": false,
      "stateMutability": "nonpayable",
      "type": "function"
    },
    {
      "constant": true,
      "inputs": [],
      "name": "CONVERT_WT_SIG",
      "outputs": [
        {
          "name": "",
          "type": "bytes4"
        }
      ],
      "payable": false,
      "stateMutability": "view",
      "type": "function"
    },
    {
      "constant": true,
      "inputs": [
        {
          "name": "",
          "type": "address"
        },
        {
          "name": "",
          "type": "bytes4"
        }
      ],
      "name": "userPermissions",
      "outputs": [
        {
          "name": "",
          "type": "bool"
        }
      ],
      "payable": false,
      "stateMutability": "view",
      "type": "function"
    },
    {
      "constant": true,
      "inputs": [],
      "name": "MINT_SIG",
      "outputs": [
        {
          "name": "",
          "type": "bytes4"
        }
      ],
      "payable": false,
      "stateMutability": "view",
      "type": "function"
    },
    {
      "constant": true,
      "inputs": [],
      "name": "MINT_CUSD_SIG",
      "outputs": [
        {
          "name": "",
          "type": "bytes4"
        }
      ],
      "payable": false,
      "stateMutability": "view",
      "type": "function"
    },
    {
      "constant": true,
      "inputs": [],
      "name": "owner",
      "outputs": [
        {
          "name": "",
          "type": "address"
        }
      ],
      "payable": false,
      "stateMutability": "view",
      "type": "function"
    },
    {
      "constant": true,
      "inputs": [],
      "name": "APPROVE_BLACKLISTED_ADDRESS_SPENDER_SIG",
      "outputs": [
        {
          "name": "",
          "type": "bytes4"
        }
      ],
      "payable": false,
      "stateMutability": "view",
      "type": "function"
    },
    {
      "constant": true,
      "inputs": [],
      "name": "BLACKLISTED_SIG",
      "outputs": [
        {
          "name": "",
          "type": "bytes4"
        }
      ],
      "payable": false,
      "stateMutability": "view",
      "type": "function"
    },
    {
      "constant": true,
      "inputs": [],
      "name": "DESTROY_BLACKLISTED_TOKENS_SIG",
      "outputs": [
        {
          "name": "",
          "type": "bytes4"
        }
      ],
      "payable": false,
      "stateMutability": "view",
      "type": "function"
    },
    {
      "constant": true,
      "inputs": [],
      "name": "BURN_CARBON_DOLLAR_SIG",
      "outputs": [
        {
          "name": "",
          "type": "bytes4"
        }
      ],
      "payable": false,
      "stateMutability": "view",
      "type": "function"
    },
    {
      "constant": true,
      "inputs": [],
      "name": "BURN_SIG",
      "outputs": [
        {
          "name": "",
          "type": "bytes4"
        }
      ],
      "payable": false,
      "stateMutability": "view",
      "type": "function"
    },
    {
      "constant": true,
      "inputs": [],
      "name": "pendingOwner",
      "outputs": [
        {
          "name": "",
          "type": "address"
        }
      ],
      "payable": false,
      "stateMutability": "view",
      "type": "function"
    },
    {
      "constant": false,
      "inputs": [
        {
          "name": "_newOwner",
          "type": "address"
        }
      ],
      "name": "transferOwnership",
      "outputs": [],
      "payable": false,
      "stateMutability": "nonpayable",
      "type": "function"
    },
    {
      "constant": true,
      "inputs": [],
      "name": "CONVERT_CARBON_DOLLAR_SIG",
      "outputs": [
        {
          "name": "",
          "type": "bytes4"
        }
      ],
      "payable": false,
      "stateMutability": "view",
      "type": "function"
    },
    {
      "constant": true,
      "inputs": [
        {
          "name": "",
          "type": "address"
        }
      ],
      "name": "validators",
      "outputs": [
        {
          "name": "",
          "type": "bool"
        }
      ],
      "payable": false,
      "stateMutability": "view",
      "type": "function"
    },
    {
      "anonymous": false,
      "inputs": [
        {
          "indexed": false,
          "name": "methodsignature",
          "type": "bytes4"
        }
      ],
      "name": "PermissionAdded",
      "type": "event"
    },
    {
      "anonymous": false,
      "inputs": [
        {
          "indexed": false,
          "name": "methodsignature",
          "type": "bytes4"
        }
      ],
      "name": "PermissionRemoved",
      "type": "event"
    },
    {
      "anonymous": false,
      "inputs": [
        {
          "indexed": true,
          "name": "validator",
          "type": "address"
        }
      ],
      "name": "ValidatorAdded",
      "type": "event"
    },
    {
      "anonymous": false,
      "inputs": [
        {
          "indexed": true,
          "name": "validator",
          "type": "address"
        }
      ],
      "name": "ValidatorRemoved",
      "type": "event"
    },
    {
      "anonymous": false,
      "inputs": [
        {
          "indexed": true,
          "name": "previousOwner",
          "type": "address"
        },
        {
          "indexed": true,
          "name": "newOwner",
          "type": "address"
        }
      ],
      "name": "OwnershipTransferred",
      "type": "event"
    },
    {
      "constant": false,
      "inputs": [
        {
          "name": "_methodsignature",
          "type": "bytes4"
        },
        {
          "name": "_permissionName",
          "type": "string"
        },
        {
          "name": "_permissionDescription",
          "type": "string"
        },
        {
          "name": "_contractName",
          "type": "string"
        }
      ],
      "name": "addPermission",
      "outputs": [],
      "payable": false,
      "stateMutability": "nonpayable",
      "type": "function"
    },
    {
      "constant": false,
      "inputs": [
        {
          "name": "_methodsignature",
          "type": "bytes4"
        }
      ],
      "name": "removePermission",
      "outputs": [],
      "payable": false,
      "stateMutability": "nonpayable",
      "type": "function"
    },
    {
      "constant": false,
      "inputs": [
        {
          "name": "_who",
          "type": "address"
        },
        {
          "name": "_methodsignature",
          "type": "bytes4"
        }
      ],
      "name": "setUserPermission",
      "outputs": [],
      "payable": false,
      "stateMutability": "nonpayable",
      "type": "function"
    },
    {
      "constant": false,
      "inputs": [
        {
          "name": "_who",
          "type": "address"
        },
        {
          "name": "_methodsignature",
          "type": "bytes4"
        }
      ],
      "name": "removeUserPermission",
      "outputs": [],
      "payable": false,
      "stateMutability": "nonpayable",
      "type": "function"
    },
    {
      "constant": false,
      "inputs": [
        {
          "name": "_validator",
          "type": "address"
        }
      ],
      "name": "addValidator",
      "outputs": [],
      "payable": false,
      "stateMutability": "nonpayable",
      "type": "function"
    },
    {
      "constant": false,
      "inputs": [
        {
          "name": "_validator",
          "type": "address"
        }
      ],
      "name": "removeValidator",
      "outputs": [],
      "payable": false,
      "stateMutability": "nonpayable",
      "type": "function"
    },
    {
      "constant": true,
      "inputs": [
        {
          "name": "_validator",
          "type": "address"
        }
      ],
      "name": "isValidator",
      "outputs": [
        {
          "name": "",
          "type": "bool"
        }
      ],
      "payable": false,
      "stateMutability": "view",
      "type": "function"
    },
    {
      "constant": true,
      "inputs": [
        {
          "name": "_methodsignature",
          "type": "bytes4"
        }
      ],
      "name": "isPermission",
      "outputs": [
        {
          "name": "",
          "type": "bool"
        }
      ],
      "payable": false,
      "stateMutability": "view",
      "type": "function"
    },
    {
      "constant": true,
      "inputs": [
        {
          "name": "_methodsignature",
          "type": "bytes4"
        }
      ],
      "name": "getPermission",
      "outputs": [
        {
          "name": "name",
          "type": "string"
        },
        {
          "name": "description",
          "type": "string"
        },
        {
          "name": "contract_name",
          "type": "string"
        },
        {
          "name": "active",
          "type": "bool"
        }
      ],
      "payable": false,
      "stateMutability": "view",
      "type": "function"
    },
    {
      "constant": true,
      "inputs": [
        {
          "name": "_who",
          "type": "address"
        },
        {
          "name": "_methodsignature",
          "type": "bytes4"
        }
      ],
      "name": "hasUserPermission",
      "outputs": [
        {
          "name": "",
          "type": "bool"
        }
      ],
      "payable": false,
      "stateMutability": "view",
      "type": "function"
    }
  ],
  "bytecode": "0x608060405260008054600160a060020a03199081163317909155600180549091169055611499806100316000396000f3006080604052600436106101535763ffffffff7c010000000000000000000000000000000000000000000000000000000060003504166314db6d5881146101585780631830f4931461019a5780631c870eee14610308578063395a7b301461033857806340a141ff1461035a5780634d238c8e1461037b5780634e71e0c81461039c5780635317e444146103b1578063639c44cf146103df578063780bfed0146104115780638707e2f4146104f557806388f14b0e146105235780638b7c8109146105385780638da5cb5b1461054d5780638f959f541461057e578063933aa667146105935780639491951b146105b5578063ab96cb46146105ca578063b8ccbd17146105df578063c1c49cbb14610601578063cfbf1b9014610616578063e30c39781461062b578063f2fde38b14610640578063f9d5054314610661578063fa52c7d814610676578063facd743b14610697575b600080fd5b34801561016457600080fd5b50610186600160a060020a0360043516600160e060020a0319602435166106b8565b604080519115158252519081900360200190f35b3480156101a657600080fd5b506101bc600160e060020a0319600435166106ef565b604080518215156060820152608080825286519082015285519091829160208084019284019160a08501918a019080838360005b838110156102085781810151838201526020016101f0565b50505050905090810190601f1680156102355780820380516001836020036101000a031916815260200191505b50848103835287518152875160209182019189019080838360005b83811015610268578181015183820152602001610250565b50505050905090810190601f1680156102955780820380516001836020036101000a031916815260200191505b50848103825286518152865160209182019188019080838360005b838110156102c85781810151838201526020016102b0565b50505050905090810190601f1680156102f55780820380516001836020036101000a031916815260200191505b5097505050505050505060405180910390f35b34801561031457600080fd5b50610336600160a060020a0360043516600160e060020a0319602435166108dc565b005b34801561034457600080fd5b506101bc600160e060020a031960043516610a00565b34801561036657600080fd5b50610336600160a060020a0360043516610bd4565b34801561038757600080fd5b50610336600160a060020a0360043516610c34565b3480156103a857600080fd5b50610336610c97565b3480156103bd57600080fd5b50610336600160a060020a0360043516600160e060020a031960243516610d1f565b3480156103eb57600080fd5b506103f4610e40565b60408051600160e060020a03199092168252519081900360200190f35b34801561041d57600080fd5b5060408051602060046024803582810135601f8101859004850286018501909652858552610336958335600160e060020a03191695369560449491939091019190819084018382808284375050604080516020601f89358b018035918201839004830284018301909452808352979a99988101979196509182019450925082915084018382808284375050604080516020601f89358b018035918201839004830284018301909452808352979a999881019791965091820194509250829150840183828082843750949750610e759650505050505050565b34801561050157600080fd5b50610186600160a060020a0360043516600160e060020a031960243516610fb0565b34801561052f57600080fd5b506103f4610fd0565b34801561054457600080fd5b506103f4611005565b34801561055957600080fd5b5061056261103a565b60408051600160a060020a039092168252519081900360200190f35b34801561058a57600080fd5b506103f4611049565b34801561059f57600080fd5b50610186600160e060020a0319600435166110a4565b3480156105c157600080fd5b506103f46110c6565b3480156105d657600080fd5b506103f46110fb565b3480156105eb57600080fd5b50610336600160e060020a031960043516611156565b34801561060d57600080fd5b506103f46111ff565b34801561062257600080fd5b506103f461125a565b34801561063757600080fd5b5061056261128f565b34801561064c57600080fd5b50610336600160a060020a036004351661129e565b34801561066d57600080fd5b506103f46112f9565b34801561068257600080fd5b50610186600160a060020a0360043516611354565b3480156106a357600080fd5b50610186600160a060020a0360043516611369565b600160a060020a0382166000908152600460209081526040808320600160e060020a03198516845290915290205460ff1692915050565b600160e060020a0319811660009081526002602081815260408084206003810154815483516101006001808416159190910260001901909216879004601f8101879004870282018701909552848152606097889788979196938601949086019360ff90911692918691908301828280156107aa5780601f1061077f576101008083540402835291602001916107aa565b820191906000526020600020905b81548152906001019060200180831161078d57829003601f168201915b5050865460408051602060026001851615610100026000190190941693909304601f8101849004840282018401909252818152959950889450925084019050828280156108385780601f1061080d57610100808354040283529160200191610838565b820191906000526020600020905b81548152906001019060200180831161081b57829003601f168201915b5050855460408051602060026001851615610100026000190190941693909304601f8101849004840282018401909252818152959850879450925084019050828280156108c65780601f1061089b576101008083540402835291602001916108c6565b820191906000526020600020905b8154815290600101906020018083116108a957829003601f168201915b5050505050915093509350935093509193509193565b6108e533611369565b1515610929576040805160e560020a62461bcd028152602060048201526018602482015260008051602061144e833981519152604482015290519081900360640190fd5b600160e060020a0319811660009081526002602052604090206003015460ff1615156109c5576040805160e560020a62461bcd02815260206004820152603960248201527f5065726d697373696f6e206265696e6720736574206d75737420626520666f7260448201527f20612076616c6964206d6574686f64207369676e617475726500000000000000606482015290519081900360840190fd5b600160a060020a039091166000908152600460209081526040808320600160e060020a0319909416835292905220805460ff19166001179055565b600260208181526000928352604092839020805484516001821615610100026000190190911693909304601f8101839004830284018301909452838352928391830182828015610a915780601f10610a6657610100808354040283529160200191610a91565b820191906000526020600020905b815481529060010190602001808311610a7457829003601f168201915b505050505090806001018054600181600116156101000203166002900480601f016020809104026020016040519081016040528092919081815260200182805460018160011615610100020316600290048015610b2f5780601f10610b0457610100808354040283529160200191610b2f565b820191906000526020600020905b815481529060010190602001808311610b1257829003601f168201915b50505060028085018054604080516020601f6000196101006001871615020190941695909504928301859004850281018501909152818152959695945090925090830182828015610bc15780601f10610b9657610100808354040283529160200191610bc1565b820191906000526020600020905b815481529060010190602001808311610ba457829003601f168201915b5050506003909301549192505060ff1684565b600054600160a060020a03163314610beb57600080fd5b600160a060020a038116600081815260036020526040808220805460ff19169055517fe1434e25d6611e0db941968fdc97811c982ac1602e951637d206f5fdda9dd8f19190a250565b600054600160a060020a03163314610c4b57600080fd5b600160a060020a038116600081815260036020526040808220805460ff19166001179055517fe366c1c0452ed8eec96861e9e54141ebff23c9ec89fe27b996b45f5ec38849879190a250565b600154600160a060020a03163314610cae57600080fd5b60015460008054604051600160a060020a0393841693909116917f8be0079c531659141344cd1fd0a4f28419497f9722a3daafe3b4186f6b6457e091a3600180546000805473ffffffffffffffffffffffffffffffffffffffff19908116600160a060020a03841617909155169055565b610d2833611369565b1515610d6c576040805160e560020a62461bcd028152602060048201526018602482015260008051602061144e833981519152604482015290519081900360640190fd5b600160e060020a0319811660009081526002602052604090206003015460ff161515610e08576040805160e560020a62461bcd02815260206004820152603d60248201527f5065726d697373696f6e206265696e672072656d6f766564206d75737420626560448201527f20666f7220612076616c6964206d6574686f64207369676e6174757265000000606482015290519081900360840190fd5b600160a060020a039091166000908152600460209081526040808320600160e060020a0319909416835292905220805460ff19169055565b604080517f636f6e7665727457542875696e743235362900000000000000000000000000008152905190819003601201902081565b610e7d611387565b610e8633611369565b1515610eca576040805160e560020a62461bcd028152602060048201526018602482015260008051602061144e833981519152604482015290519081900360640190fd5b5060408051608081018252848152602080820185905281830184905260016060830152600160e060020a03198716600090815260028252929092208151805192938493610f1a92849201906113b2565b506020828101518051610f3392600185019201906113b2565b5060408201518051610f4f9160028401916020909101906113b2565b50606091909101516003909101805460ff191691151591909117905560408051600160e060020a03198716815290517f6195913f4ea9fc2f5193c9f6763975b23790b3be094b1eb18f31843739005512916020908290030190a15050505050565b600460209081526000928352604080842090915290825290205460ff1681565b604080517f6d696e7428616464726573732c75696e743235362900000000000000000000008152905190819003601501902081565b604080517f6d696e744355534428616464726573732c75696e7432353629000000000000008152905190819003601901902081565b600054600160a060020a031681565b604080517f617070726f7665426c61636b6c6973746564416464726573735370656e64657281527f28616464726573732900000000000000000000000000000000000000000000006020820152905190819003602901902081565b600160e060020a03191660009081526002602052604090206003015460ff1690565b604080517f626c61636b6c69737465642829000000000000000000000000000000000000008152905190819003600d01902081565b604080517f64657374726f79426c61636b6c6973746564546f6b656e73286164647265737381527f2c75696e743235362900000000000000000000000000000000000000000000006020820152905190819003602901902081565b61115f33611369565b15156111a3576040805160e560020a62461bcd028152602060048201526018602482015260008051602061144e833981519152604482015290519081900360640190fd5b600160e060020a03198116600081815260026020908152604091829020600301805460ff19169055815192835290517f65cd5526557cbd93f0739d00ffcdf8f4a663eb2ed509203d884b3470158724c19281900390910190a150565b604080517f6275726e436172626f6e446f6c6c617228616464726573732c75696e7432353681527f29000000000000000000000000000000000000000000000000000000000000006020820152905190819003602101902081565b604080517f6275726e2875696e7432353629000000000000000000000000000000000000008152905190819003600d01902081565b600154600160a060020a031681565b600054600160a060020a031633146112b557600080fd5b600160a060020a03811615156112ca57600080fd5b6001805473ffffffffffffffffffffffffffffffffffffffff1916600160a060020a0392909216919091179055565b604080517f636f6e76657274436172626f6e446f6c6c617228616464726573732c75696e7481527f32353629000000000000000000000000000000000000000000000000000000006020820152905190819003602401902081565b60036020526000908152604090205460ff1681565b600160a060020a031660009081526003602052604090205460ff1690565b6080604051908101604052806060815260200160608152602001606081526020016000151581525090565b828054600181600116156101000203166002900490600052602060002090601f016020900481019282601f106113f357805160ff1916838001178555611420565b82800160010185558215611420579182015b82811115611420578251825591602001919060010190611405565b5061142c929150611430565b5090565b61144a91905b8082111561142c5760008155600101611436565b90560053656e646572206d7573742062652076616c696461746f720000000000000000a165627a7a7230582091162fb054aaf9df46bee8881053e5f2abe2a6e7b535d685d79b9a68d77da4760029",
  "source": "pragma solidity ^0.4.24;\r\n\r\nimport '../../helpers/Ownable.sol';\r\n\r\n/**\r\n*\r\n* @dev Stores permissions and validators and provides setter and getter methods. \r\n* Permissions determine which methods users have access to call. Validators\r\n* are able to mutate permissions at the Regulator level.\r\n*\r\n*/\r\ncontract RegulatorStorage is Ownable {\r\n    \r\n    /** \r\n        Structs \r\n    */\r\n\r\n    /* Contains metadata about a permission to execute a particular method signature. */\r\n    struct Permission {\r\n        string name; // A one-word description for the permission. e.g. \"canMint\"\r\n        string description; // A longer description for the permission. e.g. \"Allows user to mint tokens.\"\r\n        string contract_name; // e.g. \"PermissionedToken\"\r\n        bool active; // Permissions can be turned on or off by regulator\r\n    }\r\n\r\n    /** \r\n        Constants: stores method signatures. These are potential permissions that a user can have, \r\n        and each permission gives the user the ability to call the associated PermissionedToken method signature\r\n    */\r\n    bytes4 public constant MINT_SIG = bytes4(keccak256(\"mint(address,uint256)\"));\r\n    bytes4 public constant MINT_CUSD_SIG = bytes4(keccak256(\"mintCUSD(address,uint256)\"));\r\n    bytes4 public constant CONVERT_WT_SIG = bytes4(keccak256(\"convertWT(uint256)\"));\r\n    bytes4 public constant BURN_SIG = bytes4(keccak256(\"burn(uint256)\"));\r\n    bytes4 public constant CONVERT_CARBON_DOLLAR_SIG = bytes4(keccak256(\"convertCarbonDollar(address,uint256)\"));\r\n    bytes4 public constant BURN_CARBON_DOLLAR_SIG = bytes4(keccak256(\"burnCarbonDollar(address,uint256)\"));\r\n    bytes4 public constant DESTROY_BLACKLISTED_TOKENS_SIG = bytes4(keccak256(\"destroyBlacklistedTokens(address,uint256)\"));\r\n    bytes4 public constant APPROVE_BLACKLISTED_ADDRESS_SPENDER_SIG = bytes4(keccak256(\"approveBlacklistedAddressSpender(address)\"));\r\n    bytes4 public constant BLACKLISTED_SIG = bytes4(keccak256(\"blacklisted()\"));\r\n\r\n    /** \r\n        Mappings \r\n    */\r\n\r\n    /* each method signature maps to a Permission */\r\n    mapping (bytes4 => Permission) public permissions;\r\n    /* list of validators, either active or inactive */\r\n    mapping (address => bool) public validators;\r\n    /* each user can be given access to a given method signature */\r\n    mapping (address => mapping (bytes4 => bool)) public userPermissions;\r\n\r\n    /** \r\n        Events \r\n    */\r\n    event PermissionAdded(bytes4 methodsignature);\r\n    event PermissionRemoved(bytes4 methodsignature);\r\n    event ValidatorAdded(address indexed validator);\r\n    event ValidatorRemoved(address indexed validator);\r\n\r\n    /** \r\n        Modifiers \r\n    */\r\n    /**\r\n    * @notice Throws if called by any account that does not have access to set attributes\r\n    */\r\n    modifier onlyValidator() {\r\n        require (isValidator(msg.sender), \"Sender must be validator\");\r\n        _;\r\n    }\r\n\r\n    /**\r\n    * @notice Sets a permission within the list of permissions.\r\n    * @param _methodsignature Signature of the method that this permission controls.\r\n    * @param _permissionName A \"slug\" name for this permission (e.g. \"canMint\").\r\n    * @param _permissionDescription A lengthier description for this permission (e.g. \"Allows user to mint tokens\").\r\n    * @param _contractName Name of the contract that the method belongs to.\r\n    */\r\n    function addPermission(\r\n        bytes4 _methodsignature, \r\n        string _permissionName, \r\n        string _permissionDescription, \r\n        string _contractName) public onlyValidator { \r\n        Permission memory p = Permission(_permissionName, _permissionDescription, _contractName, true);\r\n        permissions[_methodsignature] = p;\r\n        emit PermissionAdded(_methodsignature);\r\n    }\r\n\r\n    /**\r\n    * @notice Removes a permission the list of permissions.\r\n    * @param _methodsignature Signature of the method that this permission controls.\r\n    */\r\n    function removePermission(bytes4 _methodsignature) public onlyValidator {\r\n        permissions[_methodsignature].active = false;\r\n        emit PermissionRemoved(_methodsignature);\r\n    }\r\n    \r\n    /**\r\n    * @notice Sets a permission in the list of permissions that a user has.\r\n    * @param _methodsignature Signature of the method that this permission controls.\r\n    */\r\n    function setUserPermission(address _who, bytes4 _methodsignature) public onlyValidator {\r\n        require(permissions[_methodsignature].active, \"Permission being set must be for a valid method signature\");\r\n        userPermissions[_who][_methodsignature] = true;\r\n    }\r\n\r\n    /**\r\n    * @notice Removes a permission from the list of permissions that a user has.\r\n    * @param _methodsignature Signature of the method that this permission controls.\r\n    */\r\n    function removeUserPermission(address _who, bytes4 _methodsignature) public onlyValidator {\r\n        require(permissions[_methodsignature].active, \"Permission being removed must be for a valid method signature\");\r\n        userPermissions[_who][_methodsignature] = false;\r\n    }\r\n\r\n    /**\r\n    * @notice add a Validator\r\n    * @param _validator Address of validator to add\r\n    */\r\n    function addValidator(address _validator) public onlyOwner {\r\n        validators[_validator] = true;\r\n        emit ValidatorAdded(_validator);\r\n    }\r\n\r\n    /**\r\n    * @notice remove a Validator\r\n    * @param _validator Address of validator to remove\r\n    */\r\n    function removeValidator(address _validator) public onlyOwner {\r\n        validators[_validator] = false;\r\n        emit ValidatorRemoved(_validator);\r\n    }\r\n\r\n    /**\r\n    * @notice does validator exist?\r\n    * @return true if yes, false if no\r\n    **/\r\n    function isValidator(address _validator) public view returns (bool) {\r\n        return validators[_validator];\r\n    }\r\n\r\n    /**\r\n    * @notice does permission exist?\r\n    * @return true if yes, false if no\r\n    **/\r\n    function isPermission(bytes4 _methodsignature) public view returns (bool) {\r\n        return permissions[_methodsignature].active;\r\n    }\r\n\r\n    /**\r\n    * @notice get Permission structure\r\n    * @param _methodsignature request to retrieve the Permission struct for this methodsignature\r\n    * @return Permission\r\n    **/\r\n    function getPermission(bytes4 _methodsignature) public view returns \r\n        (string name, \r\n         string description, \r\n         string contract_name,\r\n         bool active) {\r\n        return (permissions[_methodsignature].name,\r\n                permissions[_methodsignature].description,\r\n                permissions[_methodsignature].contract_name,\r\n                permissions[_methodsignature].active);\r\n    }\r\n\r\n    /**\r\n    * @notice does permission exist?\r\n    * @return true if yes, false if no\r\n    **/\r\n    function hasUserPermission(address _who, bytes4 _methodsignature) public view returns (bool) {\r\n        return userPermissions[_who][_methodsignature];\r\n    }\r\n}",
  "sourcePath": "C:\\Users\\npain\\Projects\\Carbon\\fiat_gateway\\contracts\\regulator\\dataStorage\\RegulatorStorage.sol",
  "compiler": {
    "name": "solc",
    "version": "0.4.24+commit.e67f0147.Emscripten.clang"
  },
  "schemaVersion": "2.0.1",
  "updatedAt": "2018-10-06T05:55:34.570Z"
}