{
  "contractName": "RegulatorStorage",
  "abi": [
    {
      "constant": true,
      "inputs": [
        {
          "name": "",
          "type": "bytes4"
        }
      ],
      "name": "permissions",
      "outputs": [
        {
          "name": "name",
          "type": "string"
        },
        {
          "name": "description",
          "type": "string"
        },
        {
          "name": "contract_name",
          "type": "string"
        },
        {
          "name": "active",
          "type": "bool"
        }
      ],
      "payable": false,
      "stateMutability": "view",
      "type": "function"
    },
    {
      "constant": false,
      "inputs": [],
      "name": "claimOwnership",
      "outputs": [],
      "payable": false,
      "stateMutability": "nonpayable",
      "type": "function"
    },
    {
      "constant": true,
      "inputs": [
        {
          "name": "",
          "type": "address"
        },
        {
          "name": "",
          "type": "bytes4"
        }
      ],
      "name": "userPermissions",
      "outputs": [
        {
          "name": "",
          "type": "bool"
        }
      ],
      "payable": false,
      "stateMutability": "view",
      "type": "function"
    },
    {
      "constant": true,
      "inputs": [],
      "name": "MINT_SIG",
      "outputs": [
        {
          "name": "",
          "type": "bytes4"
        }
      ],
      "payable": false,
      "stateMutability": "view",
      "type": "function"
    },
    {
      "constant": true,
      "inputs": [],
      "name": "MINT_CUSD_SIG",
      "outputs": [
        {
          "name": "",
          "type": "bytes4"
        }
      ],
      "payable": false,
      "stateMutability": "view",
      "type": "function"
    },
    {
      "constant": true,
      "inputs": [],
      "name": "owner",
      "outputs": [
        {
          "name": "",
          "type": "address"
        }
      ],
      "payable": false,
      "stateMutability": "view",
      "type": "function"
    },
    {
      "constant": true,
      "inputs": [],
      "name": "APPROVE_BLACKLISTED_ADDRESS_SPENDER_SIG",
      "outputs": [
        {
          "name": "",
          "type": "bytes4"
        }
      ],
      "payable": false,
      "stateMutability": "view",
      "type": "function"
    },
    {
      "constant": true,
      "inputs": [],
      "name": "BLACKLISTED_SIG",
      "outputs": [
        {
          "name": "",
          "type": "bytes4"
        }
      ],
      "payable": false,
      "stateMutability": "view",
      "type": "function"
    },
    {
      "constant": true,
      "inputs": [],
      "name": "DESTROY_BLACKLISTED_TOKENS_SIG",
      "outputs": [
        {
          "name": "",
          "type": "bytes4"
        }
      ],
      "payable": false,
      "stateMutability": "view",
      "type": "function"
    },
    {
      "constant": true,
      "inputs": [],
      "name": "pendingOwner",
      "outputs": [
        {
          "name": "",
          "type": "address"
        }
      ],
      "payable": false,
      "stateMutability": "view",
      "type": "function"
    },
    {
      "constant": false,
      "inputs": [
        {
          "name": "_newOwner",
          "type": "address"
        }
      ],
      "name": "transferOwnership",
      "outputs": [],
      "payable": false,
      "stateMutability": "nonpayable",
      "type": "function"
    },
    {
      "constant": true,
      "inputs": [
        {
          "name": "",
          "type": "address"
        }
      ],
      "name": "validators",
      "outputs": [
        {
          "name": "",
          "type": "bool"
        }
      ],
      "payable": false,
      "stateMutability": "view",
      "type": "function"
    },
    {
      "anonymous": false,
      "inputs": [
        {
          "indexed": false,
          "name": "methodsignature",
          "type": "bytes4"
        }
      ],
      "name": "PermissionAdded",
      "type": "event"
    },
    {
      "anonymous": false,
      "inputs": [
        {
          "indexed": false,
          "name": "methodsignature",
          "type": "bytes4"
        }
      ],
      "name": "PermissionRemoved",
      "type": "event"
    },
    {
      "anonymous": false,
      "inputs": [
        {
          "indexed": true,
          "name": "validator",
          "type": "address"
        }
      ],
      "name": "ValidatorAdded",
      "type": "event"
    },
    {
      "anonymous": false,
      "inputs": [
        {
          "indexed": true,
          "name": "validator",
          "type": "address"
        }
      ],
      "name": "ValidatorRemoved",
      "type": "event"
    },
    {
      "anonymous": false,
      "inputs": [
        {
          "indexed": true,
          "name": "previousOwner",
          "type": "address"
        },
        {
          "indexed": true,
          "name": "newOwner",
          "type": "address"
        }
      ],
      "name": "OwnershipTransferred",
      "type": "event"
    },
    {
      "constant": false,
      "inputs": [
        {
          "name": "_methodsignature",
          "type": "bytes4"
        },
        {
          "name": "_permissionName",
          "type": "string"
        },
        {
          "name": "_permissionDescription",
          "type": "string"
        },
        {
          "name": "_contractName",
          "type": "string"
        }
      ],
      "name": "addPermission",
      "outputs": [],
      "payable": false,
      "stateMutability": "nonpayable",
      "type": "function"
    },
    {
      "constant": false,
      "inputs": [
        {
          "name": "_methodsignature",
          "type": "bytes4"
        }
      ],
      "name": "removePermission",
      "outputs": [],
      "payable": false,
      "stateMutability": "nonpayable",
      "type": "function"
    },
    {
      "constant": false,
      "inputs": [
        {
          "name": "_who",
          "type": "address"
        },
        {
          "name": "_methodsignature",
          "type": "bytes4"
        }
      ],
      "name": "setUserPermission",
      "outputs": [],
      "payable": false,
      "stateMutability": "nonpayable",
      "type": "function"
    },
    {
      "constant": false,
      "inputs": [
        {
          "name": "_who",
          "type": "address"
        },
        {
          "name": "_methodsignature",
          "type": "bytes4"
        }
      ],
      "name": "removeUserPermission",
      "outputs": [],
      "payable": false,
      "stateMutability": "nonpayable",
      "type": "function"
    },
    {
      "constant": false,
      "inputs": [
        {
          "name": "_validator",
          "type": "address"
        }
      ],
      "name": "addValidator",
      "outputs": [],
      "payable": false,
      "stateMutability": "nonpayable",
      "type": "function"
    },
    {
      "constant": false,
      "inputs": [
        {
          "name": "_validator",
          "type": "address"
        }
      ],
      "name": "removeValidator",
      "outputs": [],
      "payable": false,
      "stateMutability": "nonpayable",
      "type": "function"
    },
    {
      "constant": true,
      "inputs": [
        {
          "name": "_validator",
          "type": "address"
        }
      ],
      "name": "isValidator",
      "outputs": [
        {
          "name": "",
          "type": "bool"
        }
      ],
      "payable": false,
      "stateMutability": "view",
      "type": "function"
    },
    {
      "constant": true,
      "inputs": [
        {
          "name": "_methodsignature",
          "type": "bytes4"
        }
      ],
      "name": "isPermission",
      "outputs": [
        {
          "name": "",
          "type": "bool"
        }
      ],
      "payable": false,
      "stateMutability": "view",
      "type": "function"
    },
    {
      "constant": true,
      "inputs": [
        {
          "name": "_methodsignature",
          "type": "bytes4"
        }
      ],
      "name": "getPermission",
      "outputs": [
        {
          "name": "name",
          "type": "string"
        },
        {
          "name": "description",
          "type": "string"
        },
        {
          "name": "contract_name",
          "type": "string"
        },
        {
          "name": "active",
          "type": "bool"
        }
      ],
      "payable": false,
      "stateMutability": "view",
      "type": "function"
    },
    {
      "constant": true,
      "inputs": [
        {
          "name": "_who",
          "type": "address"
        },
        {
          "name": "_methodsignature",
          "type": "bytes4"
        }
      ],
      "name": "hasUserPermission",
      "outputs": [
        {
          "name": "",
          "type": "bool"
        }
      ],
      "payable": false,
      "stateMutability": "view",
      "type": "function"
    }
  ],
  "bytecode": "0x608060405260008054600160a060020a031990811633179091556001805490911690556112f9806100316000396000f3006080604052600436106101275763ffffffff7c010000000000000000000000000000000000000000000000000000000060003504166314db6d58811461012c5780631830f4931461016e5780631c870eee146102dc578063395a7b301461030c57806340a141ff1461032e5780634d238c8e1461034f5780634e71e0c8146103705780635317e44414610385578063780bfed0146103b35780638707e2f41461049757806388f14b0e146104c55780638b7c8109146104f75780638da5cb5b1461050c5780638f959f541461053d578063933aa667146105525780639491951b14610574578063ab96cb4614610589578063b8ccbd171461059e578063e30c3978146105c0578063f2fde38b146105d5578063fa52c7d8146105f6578063facd743b14610617575b600080fd5b34801561013857600080fd5b5061015a600160a060020a0360043516600160e060020a031960243516610638565b604080519115158252519081900360200190f35b34801561017a57600080fd5b50610190600160e060020a03196004351661066f565b604080518215156060820152608080825286519082015285519091829160208084019284019160a08501918a019080838360005b838110156101dc5781810151838201526020016101c4565b50505050905090810190601f1680156102095780820380516001836020036101000a031916815260200191505b50848103835287518152875160209182019189019080838360005b8381101561023c578181015183820152602001610224565b50505050905090810190601f1680156102695780820380516001836020036101000a031916815260200191505b50848103825286518152865160209182019188019080838360005b8381101561029c578181015183820152602001610284565b50505050905090810190601f1680156102c95780820380516001836020036101000a031916815260200191505b5097505050505050505060405180910390f35b3480156102e857600080fd5b5061030a600160a060020a0360043516600160e060020a03196024351661085c565b005b34801561031857600080fd5b50610190600160e060020a031960043516610980565b34801561033a57600080fd5b5061030a600160a060020a0360043516610b54565b34801561035b57600080fd5b5061030a600160a060020a0360043516610bb4565b34801561037c57600080fd5b5061030a610c17565b34801561039157600080fd5b5061030a600160a060020a0360043516600160e060020a031960243516610c9f565b3480156103bf57600080fd5b5060408051602060046024803582810135601f810185900485028601850190965285855261030a958335600160e060020a03191695369560449491939091019190819084018382808284375050604080516020601f89358b018035918201839004830284018301909452808352979a99988101979196509182019450925082915084018382808284375050604080516020601f89358b018035918201839004830284018301909452808352979a999881019791965091820194509250829150840183828082843750949750610dc09650505050505050565b3480156104a357600080fd5b5061015a600160a060020a0360043516600160e060020a031960243516610efb565b3480156104d157600080fd5b506104da610f1b565b60408051600160e060020a03199092168252519081900360200190f35b34801561050357600080fd5b506104da610f50565b34801561051857600080fd5b50610521610f85565b60408051600160a060020a039092168252519081900360200190f35b34801561054957600080fd5b506104da610f94565b34801561055e57600080fd5b5061015a600160e060020a031960043516610fef565b34801561058057600080fd5b506104da611011565b34801561059557600080fd5b506104da611046565b3480156105aa57600080fd5b5061030a600160e060020a0319600435166110a1565b3480156105cc57600080fd5b5061052161114a565b3480156105e157600080fd5b5061030a600160a060020a0360043516611159565b34801561060257600080fd5b5061015a600160a060020a03600435166111b4565b34801561062357600080fd5b5061015a600160a060020a03600435166111c9565b600160a060020a0382166000908152600460209081526040808320600160e060020a03198516845290915290205460ff1692915050565b600160e060020a0319811660009081526002602081815260408084206003810154815483516101006001808416159190910260001901909216879004601f8101879004870282018701909552848152606097889788979196938601949086019360ff909116929186919083018282801561072a5780601f106106ff5761010080835404028352916020019161072a565b820191906000526020600020905b81548152906001019060200180831161070d57829003601f168201915b5050865460408051602060026001851615610100026000190190941693909304601f8101849004840282018401909252818152959950889450925084019050828280156107b85780601f1061078d576101008083540402835291602001916107b8565b820191906000526020600020905b81548152906001019060200180831161079b57829003601f168201915b5050855460408051602060026001851615610100026000190190941693909304601f8101849004840282018401909252818152959850879450925084019050828280156108465780601f1061081b57610100808354040283529160200191610846565b820191906000526020600020905b81548152906001019060200180831161082957829003601f168201915b5050505050915093509350935093509193509193565b610865336111c9565b15156108a9576040805160e560020a62461bcd02815260206004820152601860248201526000805160206112ae833981519152604482015290519081900360640190fd5b600160e060020a0319811660009081526002602052604090206003015460ff161515610945576040805160e560020a62461bcd02815260206004820152603960248201527f5065726d697373696f6e206265696e6720736574206d75737420626520666f7260448201527f20612076616c6964206d6574686f64207369676e617475726500000000000000606482015290519081900360840190fd5b600160a060020a039091166000908152600460209081526040808320600160e060020a0319909416835292905220805460ff19166001179055565b600260208181526000928352604092839020805484516001821615610100026000190190911693909304601f8101839004830284018301909452838352928391830182828015610a115780601f106109e657610100808354040283529160200191610a11565b820191906000526020600020905b8154815290600101906020018083116109f457829003601f168201915b505050505090806001018054600181600116156101000203166002900480601f016020809104026020016040519081016040528092919081815260200182805460018160011615610100020316600290048015610aaf5780601f10610a8457610100808354040283529160200191610aaf565b820191906000526020600020905b815481529060010190602001808311610a9257829003601f168201915b50505060028085018054604080516020601f6000196101006001871615020190941695909504928301859004850281018501909152818152959695945090925090830182828015610b415780601f10610b1657610100808354040283529160200191610b41565b820191906000526020600020905b815481529060010190602001808311610b2457829003601f168201915b5050506003909301549192505060ff1684565b600054600160a060020a03163314610b6b57600080fd5b600160a060020a038116600081815260036020526040808220805460ff19169055517fe1434e25d6611e0db941968fdc97811c982ac1602e951637d206f5fdda9dd8f19190a250565b600054600160a060020a03163314610bcb57600080fd5b600160a060020a038116600081815260036020526040808220805460ff19166001179055517fe366c1c0452ed8eec96861e9e54141ebff23c9ec89fe27b996b45f5ec38849879190a250565b600154600160a060020a03163314610c2e57600080fd5b60015460008054604051600160a060020a0393841693909116917f8be0079c531659141344cd1fd0a4f28419497f9722a3daafe3b4186f6b6457e091a3600180546000805473ffffffffffffffffffffffffffffffffffffffff19908116600160a060020a03841617909155169055565b610ca8336111c9565b1515610cec576040805160e560020a62461bcd02815260206004820152601860248201526000805160206112ae833981519152604482015290519081900360640190fd5b600160e060020a0319811660009081526002602052604090206003015460ff161515610d88576040805160e560020a62461bcd02815260206004820152603d60248201527f5065726d697373696f6e206265696e672072656d6f766564206d75737420626560448201527f20666f7220612076616c6964206d6574686f64207369676e6174757265000000606482015290519081900360840190fd5b600160a060020a039091166000908152600460209081526040808320600160e060020a0319909416835292905220805460ff19169055565b610dc86111e7565b610dd1336111c9565b1515610e15576040805160e560020a62461bcd02815260206004820152601860248201526000805160206112ae833981519152604482015290519081900360640190fd5b5060408051608081018252848152602080820185905281830184905260016060830152600160e060020a03198716600090815260028252929092208151805192938493610e659284920190611212565b506020828101518051610e7e9260018501920190611212565b5060408201518051610e9a916002840191602090910190611212565b50606091909101516003909101805460ff191691151591909117905560408051600160e060020a03198716815290517f6195913f4ea9fc2f5193c9f6763975b23790b3be094b1eb18f31843739005512916020908290030190a15050505050565b600460209081526000928352604080842090915290825290205460ff1681565b604080517f6d696e7428616464726573732c75696e743235362900000000000000000000008152905190819003601501902081565b604080517f6d696e744355534428616464726573732c75696e7432353629000000000000008152905190819003601901902081565b600054600160a060020a031681565b604080517f617070726f7665426c61636b6c6973746564416464726573735370656e64657281527f28616464726573732900000000000000000000000000000000000000000000006020820152905190819003602901902081565b600160e060020a03191660009081526002602052604090206003015460ff1690565b604080517f626c61636b6c69737465642829000000000000000000000000000000000000008152905190819003600d01902081565b604080517f64657374726f79426c61636b6c6973746564546f6b656e73286164647265737381527f2c75696e743235362900000000000000000000000000000000000000000000006020820152905190819003602901902081565b6110aa336111c9565b15156110ee576040805160e560020a62461bcd02815260206004820152601860248201526000805160206112ae833981519152604482015290519081900360640190fd5b600160e060020a03198116600081815260026020908152604091829020600301805460ff19169055815192835290517f65cd5526557cbd93f0739d00ffcdf8f4a663eb2ed509203d884b3470158724c19281900390910190a150565b600154600160a060020a031681565b600054600160a060020a0316331461117057600080fd5b600160a060020a038116151561118557600080fd5b6001805473ffffffffffffffffffffffffffffffffffffffff1916600160a060020a0392909216919091179055565b60036020526000908152604090205460ff1681565b600160a060020a031660009081526003602052604090205460ff1690565b6080604051908101604052806060815260200160608152602001606081526020016000151581525090565b828054600181600116156101000203166002900490600052602060002090601f016020900481019282601f1061125357805160ff1916838001178555611280565b82800160010185558215611280579182015b82811115611280578251825591602001919060010190611265565b5061128c929150611290565b5090565b6112aa91905b8082111561128c5760008155600101611296565b90560053656e646572206d7573742062652076616c696461746f720000000000000000a165627a7a723058203f71a5f97fe0ccab12a671ffacba8b4d0ef2489432900e76fc687fd9de5040e80029",
  "source": "pragma solidity ^0.4.24;\n\nimport '../../helpers/Ownable.sol';\n\n/**\n*\n* @dev Stores permissions and validators and provides setter and getter methods. \n* Permissions determine which methods users have access to call. Validators\n* are able to mutate permissions at the Regulator level.\n*\n*/\ncontract RegulatorStorage is Ownable {\n    \n    /** \n        Structs \n    */\n\n    /* Contains metadata about a permission to execute a particular method signature. */\n    struct Permission {\n        string name; // A one-word description for the permission. e.g. \"canMint\"\n        string description; // A longer description for the permission. e.g. \"Allows user to mint tokens.\"\n        string contract_name; // e.g. \"PermissionedToken\"\n        bool active; // Permissions can be turned on or off by regulator\n    }\n\n    /** \n        Constants: stores method signatures. These are potential permissions that a user can have, \n        and each permission gives the user the ability to call the associated PermissionedToken method signature\n    */\n    bytes4 public constant MINT_SIG = bytes4(keccak256(\"mint(address,uint256)\"));\n    bytes4 public constant MINT_CUSD_SIG = bytes4(keccak256(\"mintCUSD(address,uint256)\"));\n    bytes4 public constant DESTROY_BLACKLISTED_TOKENS_SIG = bytes4(keccak256(\"destroyBlacklistedTokens(address,uint256)\"));\n    bytes4 public constant APPROVE_BLACKLISTED_ADDRESS_SPENDER_SIG = bytes4(keccak256(\"approveBlacklistedAddressSpender(address)\"));\n    bytes4 public constant BLACKLISTED_SIG = bytes4(keccak256(\"blacklisted()\"));\n\n    /** \n        Mappings \n    */\n\n    /* each method signature maps to a Permission */\n    mapping (bytes4 => Permission) public permissions;\n    /* list of validators, either active or inactive */\n    mapping (address => bool) public validators;\n    /* each user can be given access to a given method signature */\n    mapping (address => mapping (bytes4 => bool)) public userPermissions;\n\n    /** \n        Events \n    */\n    event PermissionAdded(bytes4 methodsignature);\n    event PermissionRemoved(bytes4 methodsignature);\n    event ValidatorAdded(address indexed validator);\n    event ValidatorRemoved(address indexed validator);\n\n    /** \n        Modifiers \n    */\n    /**\n    * @notice Throws if called by any account that does not have access to set attributes\n    */\n    modifier onlyValidator() {\n        require (isValidator(msg.sender), \"Sender must be validator\");\n        _;\n    }\n\n    /**\n    * @notice Sets a permission within the list of permissions.\n    * @param _methodsignature Signature of the method that this permission controls.\n    * @param _permissionName A \"slug\" name for this permission (e.g. \"canMint\").\n    * @param _permissionDescription A lengthier description for this permission (e.g. \"Allows user to mint tokens\").\n    * @param _contractName Name of the contract that the method belongs to.\n    */\n    function addPermission(\n        bytes4 _methodsignature, \n        string _permissionName, \n        string _permissionDescription, \n        string _contractName) public onlyValidator { \n        Permission memory p = Permission(_permissionName, _permissionDescription, _contractName, true);\n        permissions[_methodsignature] = p;\n        emit PermissionAdded(_methodsignature);\n    }\n\n    /**\n    * @notice Removes a permission the list of permissions.\n    * @param _methodsignature Signature of the method that this permission controls.\n    */\n    function removePermission(bytes4 _methodsignature) public onlyValidator {\n        permissions[_methodsignature].active = false;\n        emit PermissionRemoved(_methodsignature);\n    }\n    \n    /**\n    * @notice Sets a permission in the list of permissions that a user has.\n    * @param _methodsignature Signature of the method that this permission controls.\n    */\n    function setUserPermission(address _who, bytes4 _methodsignature) public onlyValidator {\n        require(permissions[_methodsignature].active, \"Permission being set must be for a valid method signature\");\n        userPermissions[_who][_methodsignature] = true;\n    }\n\n    /**\n    * @notice Removes a permission from the list of permissions that a user has.\n    * @param _methodsignature Signature of the method that this permission controls.\n    */\n    function removeUserPermission(address _who, bytes4 _methodsignature) public onlyValidator {\n        require(permissions[_methodsignature].active, \"Permission being removed must be for a valid method signature\");\n        userPermissions[_who][_methodsignature] = false;\n    }\n\n    /**\n    * @notice add a Validator\n    * @param _validator Address of validator to add\n    */\n    function addValidator(address _validator) public onlyOwner {\n        validators[_validator] = true;\n        emit ValidatorAdded(_validator);\n    }\n\n    /**\n    * @notice remove a Validator\n    * @param _validator Address of validator to remove\n    */\n    function removeValidator(address _validator) public onlyOwner {\n        validators[_validator] = false;\n        emit ValidatorRemoved(_validator);\n    }\n\n    /**\n    * @notice does validator exist?\n    * @return true if yes, false if no\n    **/\n    function isValidator(address _validator) public view returns (bool) {\n        return validators[_validator];\n    }\n\n    /**\n    * @notice does permission exist?\n    * @return true if yes, false if no\n    **/\n    function isPermission(bytes4 _methodsignature) public view returns (bool) {\n        return permissions[_methodsignature].active;\n    }\n\n    /**\n    * @notice get Permission structure\n    * @param _methodsignature request to retrieve the Permission struct for this methodsignature\n    * @return Permission\n    **/\n    function getPermission(bytes4 _methodsignature) public view returns \n        (string name, \n         string description, \n         string contract_name,\n         bool active) {\n        return (permissions[_methodsignature].name,\n                permissions[_methodsignature].description,\n                permissions[_methodsignature].contract_name,\n                permissions[_methodsignature].active);\n    }\n\n    /**\n    * @notice does permission exist?\n    * @return true if yes, false if no\n    **/\n    function hasUserPermission(address _who, bytes4 _methodsignature) public view returns (bool) {\n        return userPermissions[_who][_methodsignature];\n    }\n}",
  "sourcePath": "/Users/gmaister/Desktop/workspace/Carbon/fiatgateway_ethcontracts/contracts/regulator/dataStorage/RegulatorStorage.sol",
  "compiler": {
    "name": "solc",
    "version": "0.4.24+commit.e67f0147.Emscripten.clang"
  },
  "schemaVersion": "2.0.1",
  "updatedAt": "2019-01-06T19:47:50.935Z"
}