{
  "contractName": "Regulator",
  "abi": [
    {
      "constant": false,
      "inputs": [],
      "name": "renounceOwnership",
      "outputs": [],
      "payable": false,
      "stateMutability": "nonpayable",
      "type": "function"
    },
    {
      "constant": true,
      "inputs": [],
      "name": "owner",
      "outputs": [
        {
          "name": "",
          "type": "address"
        }
      ],
      "payable": false,
      "stateMutability": "view",
      "type": "function"
    },
    {
      "constant": false,
      "inputs": [
        {
          "name": "_newOwner",
          "type": "address"
        }
      ],
      "name": "transferOwnership",
      "outputs": [],
      "payable": false,
      "stateMutability": "nonpayable",
      "type": "function"
    },
    {
      "anonymous": false,
      "inputs": [
        {
          "indexed": true,
          "name": "who",
          "type": "address"
        },
        {
          "indexed": false,
          "name": "attribute",
          "type": "string"
        },
        {
          "indexed": false,
          "name": "value",
          "type": "uint256"
        },
        {
          "indexed": false,
          "name": "notes",
          "type": "string"
        },
        {
          "indexed": true,
          "name": "adminAddr",
          "type": "address"
        },
        {
          "indexed": false,
          "name": "timestamp",
          "type": "uint256"
        }
      ],
      "name": "SetAttribute",
      "type": "event"
    },
    {
      "anonymous": false,
      "inputs": [
        {
          "indexed": false,
          "name": "validator",
          "type": "address"
        }
      ],
      "name": "ValidatorAdded",
      "type": "event"
    },
    {
      "anonymous": false,
      "inputs": [
        {
          "indexed": false,
          "name": "validator",
          "type": "address"
        }
      ],
      "name": "ValidatorRemoved",
      "type": "event"
    },
    {
      "anonymous": false,
      "inputs": [
        {
          "indexed": true,
          "name": "previousOwner",
          "type": "address"
        }
      ],
      "name": "OwnershipRenounced",
      "type": "event"
    },
    {
      "anonymous": false,
      "inputs": [
        {
          "indexed": true,
          "name": "previousOwner",
          "type": "address"
        },
        {
          "indexed": true,
          "name": "newOwner",
          "type": "address"
        }
      ],
      "name": "OwnershipTransferred",
      "type": "event"
    },
    {
      "constant": false,
      "inputs": [
        {
          "name": "_validator",
          "type": "address"
        }
      ],
      "name": "addValidator",
      "outputs": [],
      "payable": false,
      "stateMutability": "nonpayable",
      "type": "function"
    },
    {
      "constant": false,
      "inputs": [
        {
          "name": "_validator",
          "type": "address"
        }
      ],
      "name": "removeValidator",
      "outputs": [],
      "payable": false,
      "stateMutability": "nonpayable",
      "type": "function"
    },
    {
      "constant": false,
      "inputs": [
        {
          "name": "_who",
          "type": "address"
        },
        {
          "name": "_attribute",
          "type": "string"
        },
        {
          "name": "_value",
          "type": "uint256"
        },
        {
          "name": "_notes",
          "type": "string"
        }
      ],
      "name": "setAttribute",
      "outputs": [],
      "payable": false,
      "stateMutability": "nonpayable",
      "type": "function"
    },
    {
      "constant": true,
      "inputs": [
        {
          "name": "_who",
          "type": "address"
        },
        {
          "name": "_attribute",
          "type": "string"
        }
      ],
      "name": "hasAttribute",
      "outputs": [
        {
          "name": "",
          "type": "bool"
        }
      ],
      "payable": false,
      "stateMutability": "view",
      "type": "function"
    },
    {
      "constant": true,
      "inputs": [
        {
          "name": "_who",
          "type": "address"
        },
        {
          "name": "_attribute",
          "type": "string"
        }
      ],
      "name": "getAttribute",
      "outputs": [
        {
          "name": "",
          "type": "uint256"
        },
        {
          "name": "",
          "type": "string"
        },
        {
          "name": "",
          "type": "address"
        },
        {
          "name": "",
          "type": "uint256"
        }
      ],
      "payable": false,
      "stateMutability": "view",
      "type": "function"
    }
  ],
  "bytecode": "0x6080604052336000806101000a81548173ffffffffffffffffffffffffffffffffffffffff021916908373ffffffffffffffffffffffffffffffffffffffff1602179055506110eb806100536000396000f30060806040526004361061008e576000357c0100000000000000000000000000000000000000000000000000000000900463ffffffff1680630b7c45a21461009357806340a141ff146101345780634d238c8e146101775780635449e2fc146101ba57806369c23d9a146102fd578063715018a6146103d65780638da5cb5b146103ed578063f2fde38b14610444575b600080fd5b34801561009f57600080fd5b5061011a600480360381019080803573ffffffffffffffffffffffffffffffffffffffff169060200190929190803590602001908201803590602001908080601f0160208091040260200160405190810160405280939291908181526020018383808284378201915050505050509192919290505050610487565b604051808215151515815260200191505060405180910390f35b34801561014057600080fd5b50610175600480360381019080803573ffffffffffffffffffffffffffffffffffffffff169060200190929190505050610540565b005b34801561018357600080fd5b506101b8600480360381019080803573ffffffffffffffffffffffffffffffffffffffff1690602001909291905050506105f6565b005b3480156101c657600080fd5b50610241600480360381019080803573ffffffffffffffffffffffffffffffffffffffff169060200190929190803590602001908201803590602001908080601f016020809104026020016040519081016040528093929190818152602001838380828437820191505050505050919291929050505061070f565b60405180858152602001806020018473ffffffffffffffffffffffffffffffffffffffff1673ffffffffffffffffffffffffffffffffffffffff168152602001838152602001828103825285818151815260200191508051906020019080838360005b838110156102bf5780820151818401526020810190506102a4565b50505050905090810190601f1680156102ec5780820380516001836020036101000a031916815260200191505b509550505050505060405180910390f35b34801561030957600080fd5b506103d4600480360381019080803573ffffffffffffffffffffffffffffffffffffffff169060200190929190803590602001908201803590602001908080601f016020809104026020016040519081016040528093929190818152602001838380828437820191505050505050919291929080359060200190929190803590602001908201803590602001908080601f0160208091040260200160405190810160405280939291908181526020018383808284378201915050505050509192919290505050610a92565b005b3480156103e257600080fd5b506103eb610d92565b005b3480156103f957600080fd5b50610402610e94565b604051808273ffffffffffffffffffffffffffffffffffffffff1673ffffffffffffffffffffffffffffffffffffffff16815260200191505060405180910390f35b34801561045057600080fd5b50610485600480360381019080803573ffffffffffffffffffffffffffffffffffffffff169060200190929190505050610eb9565b005b600080600160008573ffffffffffffffffffffffffffffffffffffffff1673ffffffffffffffffffffffffffffffffffffffff168152602001908152602001600020836040518082805190602001908083835b6020831015156104ff57805182526020820191506020810190506020830392506104da565b6001836020036101000a0380198251168184511680821785525050505050509050019150509081526020016040518091039020600001541415905092915050565b6000809054906101000a900473ffffffffffffffffffffffffffffffffffffffff1673ffffffffffffffffffffffffffffffffffffffff163373ffffffffffffffffffffffffffffffffffffffff1614151561059b57600080fd5b6000600260008373ffffffffffffffffffffffffffffffffffffffff1673ffffffffffffffffffffffffffffffffffffffff16815260200190815260200160002060006101000a81548160ff02191690831515021790555050565b6000809054906101000a900473ffffffffffffffffffffffffffffffffffffffff1673ffffffffffffffffffffffffffffffffffffffff163373ffffffffffffffffffffffffffffffffffffffff1614151561065157600080fd5b6001600260008373ffffffffffffffffffffffffffffffffffffffff1673ffffffffffffffffffffffffffffffffffffffff16815260200190815260200160002060006101000a81548160ff0219169083151502179055507fe366c1c0452ed8eec96861e9e54141ebff23c9ec89fe27b996b45f5ec388498781604051808273ffffffffffffffffffffffffffffffffffffffff1673ffffffffffffffffffffffffffffffffffffffff16815260200191505060405180910390a150565b60006060600080600160008773ffffffffffffffffffffffffffffffffffffffff1673ffffffffffffffffffffffffffffffffffffffff168152602001908152602001600020856040518082805190602001908083835b60208310151561078b5780518252602082019150602081019050602083039250610766565b6001836020036101000a038019825116818451168082178552505050505050905001915050908152602001604051809103902060000154600160008873ffffffffffffffffffffffffffffffffffffffff1673ffffffffffffffffffffffffffffffffffffffff168152602001908152602001600020866040518082805190602001908083835b6020831015156108375780518252602082019150602081019050602083039250610812565b6001836020036101000a0380198251168184511680821785525050505050509050019150509081526020016040518091039020600101600160008973ffffffffffffffffffffffffffffffffffffffff1673ffffffffffffffffffffffffffffffffffffffff168152602001908152602001600020876040518082805190602001908083835b6020831015156108e257805182526020820191506020810190506020830392506108bd565b6001836020036101000a038019825116818451168082178552505050505050905001915050908152602001604051809103902060020160009054906101000a900473ffffffffffffffffffffffffffffffffffffffff16600160008a73ffffffffffffffffffffffffffffffffffffffff1673ffffffffffffffffffffffffffffffffffffffff168152602001908152602001600020886040518082805190602001908083835b6020831015156109ae5780518252602082019150602081019050602083039250610989565b6001836020036101000a038019825116818451168082178552505050505050905001915050908152602001604051809103902060030154828054600181600116156101000203166002900480601f016020809104026020016040519081016040528092919081815260200182805460018160011615610100020316600290048015610a7a5780601f10610a4f57610100808354040283529160200191610a7a565b820191906000526020600020905b815481529060010190602001808311610a5d57829003601f168201915b50505050509250935093509350935092959194509250565b600260003373ffffffffffffffffffffffffffffffffffffffff1673ffffffffffffffffffffffffffffffffffffffff16815260200190815260200160002060009054906101000a900460ff161515610aea57600080fd5b6080604051908101604052808381526020018281526020013373ffffffffffffffffffffffffffffffffffffffff16815260200142815250600160008673ffffffffffffffffffffffffffffffffffffffff1673ffffffffffffffffffffffffffffffffffffffff168152602001908152602001600020846040518082805190602001908083835b602083101515610b975780518252602082019150602081019050602083039250610b72565b6001836020036101000a0380198251168184511680821785525050505050509050019150509081526020016040518091039020600082015181600001556020820151816001019080519060200190610bf092919061101a565b5060408201518160020160006101000a81548173ffffffffffffffffffffffffffffffffffffffff021916908373ffffffffffffffffffffffffffffffffffffffff160217905550606082015181600301559050503373ffffffffffffffffffffffffffffffffffffffff168473ffffffffffffffffffffffffffffffffffffffff167f37fdf9d79a7241e757f5d7cbf5eb03d6298dbbb2453a2e44df5efcd6f0ec1a8885858542604051808060200185815260200180602001848152602001838103835287818151815260200191508051906020019080838360005b83811015610ce8578082015181840152602081019050610ccd565b50505050905090810190601f168015610d155780820380516001836020036101000a031916815260200191505b50838103825285818151815260200191508051906020019080838360005b83811015610d4e578082015181840152602081019050610d33565b50505050905090810190601f168015610d7b5780820380516001836020036101000a031916815260200191505b50965050505050505060405180910390a350505050565b6000809054906101000a900473ffffffffffffffffffffffffffffffffffffffff1673ffffffffffffffffffffffffffffffffffffffff163373ffffffffffffffffffffffffffffffffffffffff16141515610ded57600080fd5b6000809054906101000a900473ffffffffffffffffffffffffffffffffffffffff1673ffffffffffffffffffffffffffffffffffffffff167ff8df31144d9c2f0f6b59d69b8b98abd5459d07f2742c4df920b25aae33c6482060405160405180910390a260008060006101000a81548173ffffffffffffffffffffffffffffffffffffffff021916908373ffffffffffffffffffffffffffffffffffffffff160217905550565b6000809054906101000a900473ffffffffffffffffffffffffffffffffffffffff1681565b6000809054906101000a900473ffffffffffffffffffffffffffffffffffffffff1673ffffffffffffffffffffffffffffffffffffffff163373ffffffffffffffffffffffffffffffffffffffff16141515610f1457600080fd5b610f1d81610f20565b50565b600073ffffffffffffffffffffffffffffffffffffffff168173ffffffffffffffffffffffffffffffffffffffff1614151515610f5c57600080fd5b8073ffffffffffffffffffffffffffffffffffffffff166000809054906101000a900473ffffffffffffffffffffffffffffffffffffffff1673ffffffffffffffffffffffffffffffffffffffff167f8be0079c531659141344cd1fd0a4f28419497f9722a3daafe3b4186f6b6457e060405160405180910390a3806000806101000a81548173ffffffffffffffffffffffffffffffffffffffff021916908373ffffffffffffffffffffffffffffffffffffffff16021790555050565b828054600181600116156101000203166002900490600052602060002090601f016020900481019282601f1061105b57805160ff1916838001178555611089565b82800160010185558215611089579182015b8281111561108857825182559160200191906001019061106d565b5b509050611096919061109a565b5090565b6110bc91905b808211156110b85760008160009055506001016110a0565b5090565b905600a165627a7a72305820f33506fef45f38e56b43ca70766c37b0ca2a0b86c3cbeb9c5fe6cd54bd9304540029",
  "source": "pragma solidity ^0.4.23;\r\n\r\nimport \"openzeppelin-solidity/contracts/ownership/Ownable.sol\";\r\n\r\n/**\r\n * @title Regulator\r\n * @dev Regulator can be configured to meet relevant securities regulations, KYC policies\r\n * AML requirements, tax laws, and more. The Regulator ensures that the PermissionedToken\r\n * makes compliant transfers possible. Contains the permissions necessary\r\n * for regulatory compliance.\r\n *\r\n */\r\ncontract Regulator is Ownable {\r\n\t/**\r\n\t* @notice Stores permission attributes for users. An example use case is an ERC20\r\n    * token that requires its users to go through a KYC/AML check - in this case\r\n    * a validator can set an account's \"hasPassedKYC/AML\" attribute to 1 to indicate\r\n    * that account can use the token. This mapping stores that value (1, in the\r\n    * example) as well as which validator last set the value and at what time,\r\n    * so that e.g. the check can be renewed at appropriate intervals.\r\n\t*/\r\n\tmapping (address => mapping (string => AttributeData)) attributes;\r\n\r\n\t/**\r\n\t* @notice accounts with ability to set attributes\r\n\t*\r\n\t*/\r\n\tmapping (address => bool) validators;\r\n\r\n\t/**\r\n\t* @notice Attribute associated metadata\r\n\t*/\r\n\tstruct AttributeData {\r\n\t\tuint256 value; // 0 if account does not have attribute\r\n\t\tstring notes;\r\n\t\taddress adminAddr; // address of admin who set the address\r\n\t\tuint256 timestamp; // block time stamp that attribute is set\r\n\t}\r\n\r\n\t// Modifiers\r\n\r\n\t/**\r\n\t* @notice Throws if called by any account that does not have access to set attributes\r\n\t*\r\n\t*/\r\n\tmodifier onlyValidator() {\r\n\t\trequire (validators[msg.sender]);\r\n\t\t_;\r\n\t}\r\n\r\n\r\n\t// Events\r\n\tevent SetAttribute(address indexed who, string attribute, uint256 value, string notes, address indexed adminAddr, uint256 timestamp);\r\n\tevent ValidatorAdded(address validator);\r\n\tevent ValidatorRemoved(address validator);\r\n\r\n\t// Methods\r\n\r\n\r\n\t/**\r\n\t* @notice add a Validator\r\n\t* @param _validator Address of validator to add\r\n\t*/\r\n\tfunction addValidator(address _validator) public onlyOwner {\r\n\t\tvalidators[_validator] = true;\r\n\t\temit ValidatorAdded(_validator);\r\n\t}\r\n\r\n\t/**\r\n\t* @notice remove a Validator\r\n\t* @param _validator Address of validator to remove\r\n\t*/\r\n\tfunction removeValidator(address _validator) public onlyOwner {\r\n\t\tvalidators[_validator] = false;\r\n\t}\r\n\t\t\r\n\t/**\r\n\t* @notice Sets an attribute for an acccount. Only validators can add an attribute\r\n\t* @param _who The address of the account that we are setting the value of an attribute for\r\n\t* @param _attribute The attribute (eg. \"KYC\") in question\r\n\t* @param _value Whether the account has this attribute or not\r\n\t* @param _notes Additional metadata\r\n\t*/\r\n\tfunction setAttribute(address _who, string _attribute, uint256 _value, string _notes) public onlyValidator {\r\n\t\tattributes[_who][_attribute] = AttributeData(_value, _notes, msg.sender, block.timestamp);\r\n\t\temit SetAttribute(_who, _attribute, _value, _notes, msg.sender, block.timestamp);\r\n\t}\r\n\r\n\t/**\r\n\t* @notice Checks whether an account has an attribute \r\n\t* @param _who The address of the account that we are checking the value of an attribute for\r\n\t* @param _attribute The attribute (eg. \"KYC\") in question\r\n\t* @return A boolean to determine whether the account has the attribute\r\n\t*/\r\n\tfunction hasAttribute(address _who, string _attribute) public view returns (bool) {\r\n\t\treturn attributes[_who][_attribute].value != 0;\r\n\t}\r\n\r\n\t/**\r\n\t* @notice Get attribute data of account's attribute\r\n\t* @param _who The address of the account that we are checking \r\n\t* @param _attribute The attribute (eg. \"KYC\") in question\r\n\t* @return Tuple of AttributeData metadata\r\n\t*/\r\n\tfunction getAttribute(address _who, string _attribute) public view returns (uint256, string, address, uint256) {\r\n\t\treturn (attributes[_who][_attribute].value, \r\n\t\t\t\tattributes[_who][_attribute].notes,\r\n\t\t\t\tattributes[_who][_attribute].adminAddr,\r\n\t\t\t\tattributes[_who][_attribute].timestamp);\r\n\t}\r\n}",
  "sourcePath": "C:\\Users\\npain\\Projects\\Carbon\\fiat_gateway\\contracts\\Regulator.sol",
  "compiler": {
    "name": "solc",
    "version": "0.4.24+commit.e67f0147.Emscripten.clang"
  },
  "schemaVersion": "2.0.1",
  "updatedAt": "2018-06-30T18:09:54.870Z"
}