{
  "contractName": "RegulatorProxy",
  "abi": [
    {
      "constant": false,
      "inputs": [],
      "name": "renounceOwnership",
      "outputs": [],
      "payable": false,
      "stateMutability": "nonpayable",
      "type": "function"
    },
    {
      "constant": true,
      "inputs": [],
      "name": "owner",
      "outputs": [
        {
          "name": "",
          "type": "address"
        }
      ],
      "payable": false,
      "stateMutability": "view",
      "type": "function"
    },
    {
      "constant": true,
      "inputs": [],
      "name": "permissions",
      "outputs": [
        {
          "name": "",
          "type": "address"
        }
      ],
      "payable": false,
      "stateMutability": "view",
      "type": "function"
    },
    {
      "constant": false,
      "inputs": [
        {
          "name": "_newStorageAddress",
          "type": "address"
        }
      ],
      "name": "setPermissionStorage",
      "outputs": [],
      "payable": false,
      "stateMutability": "nonpayable",
      "type": "function"
    },
    {
      "constant": true,
      "inputs": [],
      "name": "validators",
      "outputs": [
        {
          "name": "",
          "type": "address"
        }
      ],
      "payable": false,
      "stateMutability": "view",
      "type": "function"
    },
    {
      "constant": false,
      "inputs": [
        {
          "name": "_newStorageAddress",
          "type": "address"
        }
      ],
      "name": "setValidatorStorage",
      "outputs": [],
      "payable": false,
      "stateMutability": "nonpayable",
      "type": "function"
    },
    {
      "constant": false,
      "inputs": [
        {
          "name": "_newOwner",
          "type": "address"
        }
      ],
      "name": "transferOwnership",
      "outputs": [],
      "payable": false,
      "stateMutability": "nonpayable",
      "type": "function"
    },
    {
      "inputs": [
        {
          "name": "i",
          "type": "address"
        },
        {
          "name": "p",
          "type": "address"
        },
        {
          "name": "v",
          "type": "address"
        }
      ],
      "payable": false,
      "stateMutability": "nonpayable",
      "type": "constructor"
    },
    {
      "payable": true,
      "stateMutability": "payable",
      "type": "fallback"
    },
    {
      "anonymous": false,
      "inputs": [
        {
          "indexed": false,
          "name": "_old",
          "type": "address"
        },
        {
          "indexed": false,
          "name": "_new",
          "type": "address"
        }
      ],
      "name": "ChangedPermissionStorage",
      "type": "event"
    },
    {
      "anonymous": false,
      "inputs": [
        {
          "indexed": false,
          "name": "_old",
          "type": "address"
        },
        {
          "indexed": false,
          "name": "_new",
          "type": "address"
        }
      ],
      "name": "ChangedValidatorStorage",
      "type": "event"
    },
    {
      "anonymous": false,
      "inputs": [
        {
          "indexed": true,
          "name": "previousOwner",
          "type": "address"
        }
      ],
      "name": "OwnershipRenounced",
      "type": "event"
    },
    {
      "anonymous": false,
      "inputs": [
        {
          "indexed": true,
          "name": "previousOwner",
          "type": "address"
        },
        {
          "indexed": true,
          "name": "newOwner",
          "type": "address"
        }
      ],
      "name": "OwnershipTransferred",
      "type": "event"
    },
    {
      "anonymous": false,
      "inputs": [
        {
          "indexed": false,
          "name": "implementation",
          "type": "address"
        }
      ],
      "name": "Upgraded",
      "type": "event"
    },
    {
      "constant": false,
      "inputs": [
        {
          "name": "newImplementation",
          "type": "address"
        }
      ],
      "name": "upgradeTo",
      "outputs": [],
      "payable": false,
      "stateMutability": "nonpayable",
      "type": "function"
    },
    {
      "constant": true,
      "inputs": [],
      "name": "implementation",
      "outputs": [
        {
          "name": "",
          "type": "address"
        }
      ],
      "payable": false,
      "stateMutability": "view",
      "type": "function"
    }
  ],
  "bytecode": "0x608060405234801561001057600080fd5b50604051606080610b368339810160408181528251602080850151948301517f6f72672e7a657070656c696e6f732e70726f78792e696d706c656d656e74617485527f696f6e00000000000000000000000000000000000000000000000000000000009185019190915291519283900360230190922091929182908290829082908790600080516020610b16833981519152146100a957fe5b6100bb816401000000006100fe810204565b5060008054600160a060020a0319908116331790915560018054600160a060020a0394851690831617905560028054929093169116179055506101c49350505050565b60006101168264010000000061079d6101bc82021704565b15156101a957604080517f08c379a000000000000000000000000000000000000000000000000000000000815260206004820152603b60248201527f43616e6e6f742073657420612070726f787920696d706c656d656e746174696f60448201527f6e20746f2061206e6f6e2d636f6e747261637420616464726573730000000000606482015290519081900360840190fd5b50600080516020610b1683398151915255565b6000903b1190565b610943806101d36000396000f3006080604052600436106100985763ffffffff7c01000000000000000000000000000000000000000000000000000000006000350416633659cfe681146100a25780635c60da1b146100d0578063715018a61461010e5780638da5cb5b14610123578063ab8c71c014610138578063aef5eb801461014d578063ca1e78191461017b578063e51207e714610190578063f2fde38b146101be575b6100a06101ec565b005b3480156100ae57600080fd5b506100a073ffffffffffffffffffffffffffffffffffffffff60043516610206565b3480156100dc57600080fd5b506100e5610236565b6040805173ffffffffffffffffffffffffffffffffffffffff9092168252519081900360200190f35b34801561011a57600080fd5b506100a0610245565b34801561012f57600080fd5b506100e56102d6565b34801561014457600080fd5b506100e56102f2565b34801561015957600080fd5b506100a073ffffffffffffffffffffffffffffffffffffffff6004351661030e565b34801561018757600080fd5b506100e56104e2565b34801561019c57600080fd5b506100a073ffffffffffffffffffffffffffffffffffffffff600435166104fe565b3480156101ca57600080fd5b506100a073ffffffffffffffffffffffffffffffffffffffff600435166106d2565b6101f4610204565b6102046101ff6106ff565b610724565b565b60005473ffffffffffffffffffffffffffffffffffffffff16331461022a57600080fd5b61023381610748565b50565b60006102406106ff565b905090565b60005473ffffffffffffffffffffffffffffffffffffffff16331461026957600080fd5b6000805460405173ffffffffffffffffffffffffffffffffffffffff909116917ff8df31144d9c2f0f6b59d69b8b98abd5459d07f2742c4df920b25aae33c6482091a2600080547fffffffffffffffffffffffff0000000000000000000000000000000000000000169055565b60005473ffffffffffffffffffffffffffffffffffffffff1681565b60015473ffffffffffffffffffffffffffffffffffffffff1681565b6000805473ffffffffffffffffffffffffffffffffffffffff16331461033357600080fd5b60015473ffffffffffffffffffffffffffffffffffffffff838116911614156103bd57604080517f08c379a000000000000000000000000000000000000000000000000000000000815260206004820152601e60248201527f4d7573742062652061206e6577207065726d697373696f6e2073686565740000604482015290519081900360640190fd5b6103c68261079d565b151561045957604080517f08c379a000000000000000000000000000000000000000000000000000000000815260206004820152603860248201527f43616e6e6f7420736574206120726567756c61746f722073746f72616765207460448201527f6f2061206e6f6e2d636f6e747261637420616464726573730000000000000000606482015290519081900360840190fd5b506001805473ffffffffffffffffffffffffffffffffffffffff8381167fffffffffffffffffffffffff0000000000000000000000000000000000000000831681179093556040805191909216808252602082019390935281517fe17aee9aa44ff533ce61ee89d13b1d2a8cb1143b69d05d08a5d136acae8a7707929181900390910190a15050565b60025473ffffffffffffffffffffffffffffffffffffffff1681565b6000805473ffffffffffffffffffffffffffffffffffffffff16331461052357600080fd5b60025473ffffffffffffffffffffffffffffffffffffffff838116911614156105ad57604080517f08c379a000000000000000000000000000000000000000000000000000000000815260206004820152601d60248201527f4d7573742062652061206e65772076616c696461746f72207368656574000000604482015290519081900360640190fd5b6105b68261079d565b151561064957604080517f08c379a000000000000000000000000000000000000000000000000000000000815260206004820152603860248201527f43616e6e6f7420736574206120726567756c61746f722073746f72616765207460448201527f6f2061206e6f6e2d636f6e747261637420616464726573730000000000000000606482015290519081900360840190fd5b506002805473ffffffffffffffffffffffffffffffffffffffff8381167fffffffffffffffffffffffff0000000000000000000000000000000000000000831681179093556040805191909216808252602082019390935281517f8ca674c4f8f0a3a35b50833ae3d8d889663de2b78cdbe0765021594acec3cda2929181900390910190a15050565b60005473ffffffffffffffffffffffffffffffffffffffff1633146106f657600080fd5b610233816107a5565b7f7050c9e0f4ca769c69bd3a8ef740bc37934f8e2c036e5a723fd8ee048ed3f8c35490565b3660008037600080366000845af43d6000803e808015610743573d6000f35b3d6000fd5b61075181610854565b6040805173ffffffffffffffffffffffffffffffffffffffff8316815290517fbc7cd75a20ee27fd9adebab32041f755214dbc6bffa90cc0225b39da2e5c2d3b9181900360200190a150565b6000903b1190565b73ffffffffffffffffffffffffffffffffffffffff811615156107c757600080fd5b6000805460405173ffffffffffffffffffffffffffffffffffffffff808516939216917f8be0079c531659141344cd1fd0a4f28419497f9722a3daafe3b4186f6b6457e091a3600080547fffffffffffffffffffffffff00000000000000000000000000000000000000001673ffffffffffffffffffffffffffffffffffffffff92909216919091179055565b600061085f8261079d565b15156108f257604080517f08c379a000000000000000000000000000000000000000000000000000000000815260206004820152603b60248201527f43616e6e6f742073657420612070726f787920696d706c656d656e746174696f60448201527f6e20746f2061206e6f6e2d636f6e747261637420616464726573730000000000606482015290519081900360840190fd5b507f7050c9e0f4ca769c69bd3a8ef740bc37934f8e2c036e5a723fd8ee048ed3f8c3555600a165627a7a72305820e1c80d66c4ade2d5c1e883107f379cbdcd58cf95b3e8f381f37ae064f71e542400297050c9e0f4ca769c69bd3a8ef740bc37934f8e2c036e5a723fd8ee048ed3f8c3",
  "source": "pragma solidity ^0.4.24;\n\nimport \"zos-lib/contracts/upgradeability/UpgradeabilityProxy.sol\";\nimport \"./dataStorage/MutableRegulatorStorage.sol\";\nimport \"openzeppelin-solidity/contracts/ownership/Ownable.sol\";\n\n/**\n * @title RegulatorProxy\n * @dev A RegulatorProxy is a proxy contract that acts identically to a Regulator from the\n * user's point of view. It can change its data storage locations and can also\n * change its implementation contract location. A call to RegulatorProxy delegates the function call\n * to the latest implementation contract's version of the function and the proxy then\n * calls that function in the context of the proxy's data storage\n *\n */\ncontract RegulatorProxy is UpgradeabilityProxy, Ownable, MutableRegulatorStorage {\n\n    \n    constructor(address i, address p, address v) public\n    UpgradeabilityProxy(i)\n    MutableRegulatorStorage(p, v) {}\n\n    /**\n    * @dev Upgrade the backing implementation of the proxy.\n    * Only the admin can call this function.\n    * @param newImplementation Address of the new implementation.\n    */\n    function upgradeTo(address newImplementation) public onlyOwner {\n        _upgradeTo(newImplementation);\n\n    }\n\n      /**\n    * @return The address of the implementation.\n    */\n    function implementation() public view returns (address) {\n        return _implementation();\n    }\n}",
  "sourcePath": "/Users/tanishqaggarwal/Documents/carbon/fiat_gateway/contracts/regulator/RegulatorProxy.sol",
  "compiler": {
    "name": "solc",
    "version": "0.4.24+commit.e67f0147.Emscripten.clang"
  },
  "schemaVersion": "2.0.1",
  "updatedAt": "2018-08-13T20:26:34.606Z"
}