{
  "contractName": "Regulator",
  "abi": [
    {
      "constant": false,
      "inputs": [],
      "name": "claimPermissionOwnership",
      "outputs": [],
      "payable": false,
      "stateMutability": "nonpayable",
      "type": "function"
    },
    {
      "constant": false,
      "inputs": [],
      "name": "claimOwnership",
      "outputs": [],
      "payable": false,
      "stateMutability": "nonpayable",
      "type": "function"
    },
    {
      "constant": false,
      "inputs": [],
      "name": "renounceOwnership",
      "outputs": [],
      "payable": false,
      "stateMutability": "nonpayable",
      "type": "function"
    },
    {
      "constant": false,
      "inputs": [],
      "name": "claimValidatorOwnership",
      "outputs": [],
      "payable": false,
      "stateMutability": "nonpayable",
      "type": "function"
    },
    {
      "constant": true,
      "inputs": [],
      "name": "owner",
      "outputs": [
        {
          "name": "",
          "type": "address"
        }
      ],
      "payable": false,
      "stateMutability": "view",
      "type": "function"
    },
    {
      "constant": true,
      "inputs": [],
      "name": "permissions",
      "outputs": [
        {
          "name": "",
          "type": "address"
        }
      ],
      "payable": false,
      "stateMutability": "view",
      "type": "function"
    },
    {
      "constant": false,
      "inputs": [
        {
          "name": "_newStorageAddress",
          "type": "address"
        }
      ],
      "name": "setPermissionStorage",
      "outputs": [],
      "payable": false,
      "stateMutability": "nonpayable",
      "type": "function"
    },
    {
      "constant": true,
      "inputs": [],
      "name": "validators",
      "outputs": [
        {
          "name": "",
          "type": "address"
        }
      ],
      "payable": false,
      "stateMutability": "view",
      "type": "function"
    },
    {
      "constant": true,
      "inputs": [],
      "name": "pendingOwner",
      "outputs": [
        {
          "name": "",
          "type": "address"
        }
      ],
      "payable": false,
      "stateMutability": "view",
      "type": "function"
    },
    {
      "constant": false,
      "inputs": [
        {
          "name": "_newStorageAddress",
          "type": "address"
        }
      ],
      "name": "setValidatorStorage",
      "outputs": [],
      "payable": false,
      "stateMutability": "nonpayable",
      "type": "function"
    },
    {
      "constant": false,
      "inputs": [
        {
          "name": "newOwner",
          "type": "address"
        }
      ],
      "name": "transferOwnership",
      "outputs": [],
      "payable": false,
      "stateMutability": "nonpayable",
      "type": "function"
    },
    {
      "inputs": [
        {
          "name": "p",
          "type": "address"
        },
        {
          "name": "v",
          "type": "address"
        }
      ],
      "payable": false,
      "stateMutability": "nonpayable",
      "type": "constructor"
    },
    {
      "anonymous": false,
      "inputs": [
        {
          "indexed": true,
          "name": "who",
          "type": "address"
        }
      ],
      "name": "SetWhitelistedUser",
      "type": "event"
    },
    {
      "anonymous": false,
      "inputs": [
        {
          "indexed": true,
          "name": "who",
          "type": "address"
        }
      ],
      "name": "SetBlacklistedUser",
      "type": "event"
    },
    {
      "anonymous": false,
      "inputs": [
        {
          "indexed": true,
          "name": "who",
          "type": "address"
        }
      ],
      "name": "SetNonlistedUser",
      "type": "event"
    },
    {
      "anonymous": false,
      "inputs": [
        {
          "indexed": true,
          "name": "who",
          "type": "address"
        }
      ],
      "name": "SetMinter",
      "type": "event"
    },
    {
      "anonymous": false,
      "inputs": [
        {
          "indexed": true,
          "name": "who",
          "type": "address"
        }
      ],
      "name": "RemovedMinter",
      "type": "event"
    },
    {
      "anonymous": false,
      "inputs": [
        {
          "indexed": true,
          "name": "who",
          "type": "address"
        }
      ],
      "name": "SetBlacklistDestroyer",
      "type": "event"
    },
    {
      "anonymous": false,
      "inputs": [
        {
          "indexed": true,
          "name": "who",
          "type": "address"
        }
      ],
      "name": "RemovedBlacklistDestroyer",
      "type": "event"
    },
    {
      "anonymous": false,
      "inputs": [
        {
          "indexed": true,
          "name": "who",
          "type": "address"
        }
      ],
      "name": "SetBlacklistSpender",
      "type": "event"
    },
    {
      "anonymous": false,
      "inputs": [
        {
          "indexed": true,
          "name": "who",
          "type": "address"
        }
      ],
      "name": "RemovedBlacklistSpender",
      "type": "event"
    },
    {
      "anonymous": false,
      "inputs": [
        {
          "indexed": false,
          "name": "_old",
          "type": "address"
        },
        {
          "indexed": false,
          "name": "_new",
          "type": "address"
        }
      ],
      "name": "ChangedPermissionStorage",
      "type": "event"
    },
    {
      "anonymous": false,
      "inputs": [
        {
          "indexed": false,
          "name": "_old",
          "type": "address"
        },
        {
          "indexed": false,
          "name": "_new",
          "type": "address"
        }
      ],
      "name": "ChangedValidatorStorage",
      "type": "event"
    },
    {
      "anonymous": false,
      "inputs": [
        {
          "indexed": true,
          "name": "previousOwner",
          "type": "address"
        }
      ],
      "name": "OwnershipRenounced",
      "type": "event"
    },
    {
      "anonymous": false,
      "inputs": [
        {
          "indexed": true,
          "name": "previousOwner",
          "type": "address"
        },
        {
          "indexed": true,
          "name": "newOwner",
          "type": "address"
        }
      ],
      "name": "OwnershipTransferred",
      "type": "event"
    },
    {
      "constant": false,
      "inputs": [
        {
          "name": "_who",
          "type": "address"
        }
      ],
      "name": "addValidator",
      "outputs": [],
      "payable": false,
      "stateMutability": "nonpayable",
      "type": "function"
    },
    {
      "constant": false,
      "inputs": [
        {
          "name": "_who",
          "type": "address"
        }
      ],
      "name": "removeValidator",
      "outputs": [],
      "payable": false,
      "stateMutability": "nonpayable",
      "type": "function"
    },
    {
      "constant": true,
      "inputs": [
        {
          "name": "_who",
          "type": "address"
        }
      ],
      "name": "isValidator",
      "outputs": [
        {
          "name": "",
          "type": "bool"
        }
      ],
      "payable": false,
      "stateMutability": "view",
      "type": "function"
    },
    {
      "constant": false,
      "inputs": [
        {
          "name": "_who",
          "type": "address"
        }
      ],
      "name": "setMinter",
      "outputs": [],
      "payable": false,
      "stateMutability": "nonpayable",
      "type": "function"
    },
    {
      "constant": false,
      "inputs": [
        {
          "name": "_who",
          "type": "address"
        }
      ],
      "name": "removeMinter",
      "outputs": [],
      "payable": false,
      "stateMutability": "nonpayable",
      "type": "function"
    },
    {
      "constant": true,
      "inputs": [
        {
          "name": "_who",
          "type": "address"
        }
      ],
      "name": "isMinter",
      "outputs": [
        {
          "name": "",
          "type": "bool"
        }
      ],
      "payable": false,
      "stateMutability": "view",
      "type": "function"
    },
    {
      "constant": false,
      "inputs": [
        {
          "name": "_who",
          "type": "address"
        }
      ],
      "name": "setBlacklistSpender",
      "outputs": [],
      "payable": false,
      "stateMutability": "nonpayable",
      "type": "function"
    },
    {
      "constant": false,
      "inputs": [
        {
          "name": "_who",
          "type": "address"
        }
      ],
      "name": "removeBlacklistSpender",
      "outputs": [],
      "payable": false,
      "stateMutability": "nonpayable",
      "type": "function"
    },
    {
      "constant": true,
      "inputs": [
        {
          "name": "_who",
          "type": "address"
        }
      ],
      "name": "isBlacklistSpender",
      "outputs": [
        {
          "name": "",
          "type": "bool"
        }
      ],
      "payable": false,
      "stateMutability": "view",
      "type": "function"
    },
    {
      "constant": false,
      "inputs": [
        {
          "name": "_who",
          "type": "address"
        }
      ],
      "name": "setBlacklistDestroyer",
      "outputs": [],
      "payable": false,
      "stateMutability": "nonpayable",
      "type": "function"
    },
    {
      "constant": false,
      "inputs": [
        {
          "name": "_who",
          "type": "address"
        }
      ],
      "name": "removeBlacklistDestroyer",
      "outputs": [],
      "payable": false,
      "stateMutability": "nonpayable",
      "type": "function"
    },
    {
      "constant": true,
      "inputs": [
        {
          "name": "_who",
          "type": "address"
        }
      ],
      "name": "isBlacklistDestroyer",
      "outputs": [
        {
          "name": "",
          "type": "bool"
        }
      ],
      "payable": false,
      "stateMutability": "view",
      "type": "function"
    },
    {
      "constant": false,
      "inputs": [
        {
          "name": "_who",
          "type": "address"
        }
      ],
      "name": "setWhitelistedUser",
      "outputs": [],
      "payable": false,
      "stateMutability": "nonpayable",
      "type": "function"
    },
    {
      "constant": false,
      "inputs": [
        {
          "name": "_who",
          "type": "address"
        }
      ],
      "name": "setBlacklistedUser",
      "outputs": [],
      "payable": false,
      "stateMutability": "nonpayable",
      "type": "function"
    },
    {
      "constant": false,
      "inputs": [
        {
          "name": "_who",
          "type": "address"
        }
      ],
      "name": "setNonlistedUser",
      "outputs": [],
      "payable": false,
      "stateMutability": "nonpayable",
      "type": "function"
    },
    {
      "constant": true,
      "inputs": [
        {
          "name": "_who",
          "type": "address"
        }
      ],
      "name": "isWhitelistedUser",
      "outputs": [
        {
          "name": "",
          "type": "bool"
        }
      ],
      "payable": false,
      "stateMutability": "view",
      "type": "function"
    },
    {
      "constant": true,
      "inputs": [
        {
          "name": "_who",
          "type": "address"
        }
      ],
      "name": "isBlacklistedUser",
      "outputs": [
        {
          "name": "",
          "type": "bool"
        }
      ],
      "payable": false,
      "stateMutability": "view",
      "type": "function"
    },
    {
      "constant": true,
      "inputs": [
        {
          "name": "_who",
          "type": "address"
        }
      ],
      "name": "isNonlistedUser",
      "outputs": [
        {
          "name": "",
          "type": "bool"
        }
      ],
      "payable": false,
      "stateMutability": "view",
      "type": "function"
    },
    {
      "constant": false,
      "inputs": [
        {
          "name": "_who",
          "type": "address"
        },
        {
          "name": "_methodsignature",
          "type": "bytes4"
        }
      ],
      "name": "setUserPermission",
      "outputs": [],
      "payable": false,
      "stateMutability": "nonpayable",
      "type": "function"
    },
    {
      "constant": false,
      "inputs": [
        {
          "name": "_who",
          "type": "address"
        },
        {
          "name": "_methodsignature",
          "type": "bytes4"
        }
      ],
      "name": "removeUserPermission",
      "outputs": [],
      "payable": false,
      "stateMutability": "nonpayable",
      "type": "function"
    },
    {
      "constant": true,
      "inputs": [
        {
          "name": "_who",
          "type": "address"
        },
        {
          "name": "_methodsignature",
          "type": "bytes4"
        }
      ],
      "name": "hasUserPermission",
      "outputs": [
        {
          "name": "",
          "type": "bool"
        }
      ],
      "payable": false,
      "stateMutability": "view",
      "type": "function"
    },
    {
      "constant": false,
      "inputs": [
        {
          "name": "_methodsignature",
          "type": "bytes4"
        },
        {
          "name": "_permissionName",
          "type": "string"
        },
        {
          "name": "_permissionDescription",
          "type": "string"
        },
        {
          "name": "_contractName",
          "type": "string"
        }
      ],
      "name": "addPermission",
      "outputs": [],
      "payable": false,
      "stateMutability": "nonpayable",
      "type": "function"
    },
    {
      "constant": true,
      "inputs": [
        {
          "name": "_methodsignature",
          "type": "bytes4"
        }
      ],
      "name": "getPermission",
      "outputs": [
        {
          "name": "name",
          "type": "string"
        },
        {
          "name": "description",
          "type": "string"
        },
        {
          "name": "contract_name",
          "type": "string"
        }
      ],
      "payable": false,
      "stateMutability": "view",
      "type": "function"
    },
    {
      "constant": false,
      "inputs": [
        {
          "name": "_methodsignature",
          "type": "bytes4"
        }
      ],
      "name": "removePermission",
      "outputs": [],
      "payable": false,
      "stateMutability": "nonpayable",
      "type": "function"
    },
    {
      "constant": true,
      "inputs": [
        {
          "name": "_methodsignature",
          "type": "bytes4"
        }
      ],
      "name": "isPermission",
      "outputs": [
        {
          "name": "",
          "type": "bool"
        }
      ],
      "payable": false,
      "stateMutability": "view",
      "type": "function"
    }
  ],
  "bytecode": "0x608060405234801561001057600080fd5b50604051604080614e2f83398101604052805160209091015160008054600160a060020a0319908116331790915560028054600160a060020a0394851690831617905560038054939092169216919091179055614dbd806100726000396000f3006080604052600436106101c15763ffffffff7c0100000000000000000000000000000000000000000000000000000000600035041663029043a481146101c657806309533303146101f65780630bdb3d5a1461022457806314db6d58146102395780631830f493146102a05780631c870eee1461041e578063231a439e146104715780633092afd51461049f57806340a141ff146104cd5780634d238c8e146104fb5780634d54dc96146105295780634e71e0c8146105575780635317e4441461056c578063556b6384146105bf578063715018a6146105ed578063780bfed0146106025780637ccce851146106fe57806385a2785e1461072c5780638da5cb5b1461074157806391c4529f1461077f578063933aa667146107ad578063aa271e1a146107e7578063ab8c71c014610815578063aef5eb801461082a578063b8ccbd1714610858578063c1331bc314610892578063c56bea64146108c0578063ca1e7819146108ee578063cd49539114610903578063d88c271e14610931578063e30c39781461095f578063e51207e714610974578063f2fde38b146109a2578063f530259e146109d0578063facd743b146109fe578063fca3b5aa14610a2c575b600080fd5b3480156101d257600080fd5b506101f473ffffffffffffffffffffffffffffffffffffffff60043516610a5a565b005b34801561020257600080fd5b506101f473ffffffffffffffffffffffffffffffffffffffff60043516610e38565b34801561023057600080fd5b506101f4610eba565b34801561024557600080fd5b5061028c73ffffffffffffffffffffffffffffffffffffffff600435167fffffffff0000000000000000000000000000000000000000000000000000000060243516610f5a565b604080519115158252519081900360200190f35b3480156102ac57600080fd5b506102da7fffffffff000000000000000000000000000000000000000000000000000000006004351661102d565b60405180806020018060200180602001848103845287818151815260200191508051906020019080838360005b8381101561031f578181015183820152602001610307565b50505050905090810190601f16801561034c5780820380516001836020036101000a031916815260200191505b50848103835286518152865160209182019188019080838360005b8381101561037f578181015183820152602001610367565b50505050905090810190601f1680156103ac5780820380516001836020036101000a031916815260200191505b50848103825285518152855160209182019187019080838360005b838110156103df5781810151838201526020016103c7565b50505050905090810190601f16801561040c5780820380516001836020036101000a031916815260200191505b50965050505050505060405180910390f35b34801561042a57600080fd5b506101f473ffffffffffffffffffffffffffffffffffffffff600435167fffffffff000000000000000000000000000000000000000000000000000000006024351661120c565b34801561047d57600080fd5b506101f473ffffffffffffffffffffffffffffffffffffffff6004351661133a565b3480156104ab57600080fd5b506101f473ffffffffffffffffffffffffffffffffffffffff60043516611718565b3480156104d957600080fd5b506101f473ffffffffffffffffffffffffffffffffffffffff60043516611797565b34801561050757600080fd5b506101f473ffffffffffffffffffffffffffffffffffffffff6004351661184a565b34801561053557600080fd5b5061028c73ffffffffffffffffffffffffffffffffffffffff600435166118e2565b34801561056357600080fd5b506101f4611a39565b34801561057857600080fd5b506101f473ffffffffffffffffffffffffffffffffffffffff600435167fffffffff0000000000000000000000000000000000000000000000000000000060243516611af3565b3480156105cb57600080fd5b506101f473ffffffffffffffffffffffffffffffffffffffff60043516611c05565b3480156105f957600080fd5b506101f4611fe3565b34801561060e57600080fd5b5060408051602060046024803582810135601f81018590048502860185019096528585526101f49583357fffffffff000000000000000000000000000000000000000000000000000000001695369560449491939091019190819084018382808284375050604080516020601f89358b018035918201839004830284018301909452808352979a99988101979196509182019450925082915084018382808284375050604080516020601f89358b018035918201839004830284018301909452808352979a9998810197919650918201945092508291508401838280828437509497506120749650505050505050565b34801561070a57600080fd5b5061028c73ffffffffffffffffffffffffffffffffffffffff600435166122d6565b34801561073857600080fd5b506101f46123f4565b34801561074d57600080fd5b5061075661247a565b6040805173ffffffffffffffffffffffffffffffffffffffff9092168252519081900360200190f35b34801561078b57600080fd5b5061028c73ffffffffffffffffffffffffffffffffffffffff60043516612496565b3480156107b957600080fd5b5061028c7fffffffff0000000000000000000000000000000000000000000000000000000060043516612522565b3480156107f357600080fd5b5061028c73ffffffffffffffffffffffffffffffffffffffff600435166125e8565b34801561082157600080fd5b50610756612674565b34801561083657600080fd5b506101f473ffffffffffffffffffffffffffffffffffffffff60043516612690565b34801561086457600080fd5b506101f47fffffffff0000000000000000000000000000000000000000000000000000000060043516612864565b34801561089e57600080fd5b506101f473ffffffffffffffffffffffffffffffffffffffff6004351661296e565b3480156108cc57600080fd5b506101f473ffffffffffffffffffffffffffffffffffffffff60043516612d4c565b3480156108fa57600080fd5b50610756612dcb565b34801561090f57600080fd5b506101f473ffffffffffffffffffffffffffffffffffffffff60043516612de7565b34801561093d57600080fd5b5061028c73ffffffffffffffffffffffffffffffffffffffff60043516612e66565b34801561096b57600080fd5b50610756612f83565b34801561098057600080fd5b506101f473ffffffffffffffffffffffffffffffffffffffff60043516612f9f565b3480156109ae57600080fd5b506101f473ffffffffffffffffffffffffffffffffffffffff60043516613173565b3480156109dc57600080fd5b5061028c73ffffffffffffffffffffffffffffffffffffffff600435166131de565b348015610a0a57600080fd5b5061028c73ffffffffffffffffffffffffffffffffffffffff6004351661326a565b348015610a3857600080fd5b506101f473ffffffffffffffffffffffffffffffffffffffff600435166132e2565b610a633361326a565b1515610ad057604080517f08c379a000000000000000000000000000000000000000000000000000000000815260206004820152601860248201527f53656e646572206d7573742062652076616c696461746f720000000000000000604482015290519081900360640190fd5b600254604080517f8f959f54000000000000000000000000000000000000000000000000000000008152905173ffffffffffffffffffffffffffffffffffffffff9092169163933aa667918391638f959f54916004808201926020929091908290030181600087803b158015610b4557600080fd5b505af1158015610b59573d6000803e3d6000fd5b505050506040513d6020811015610b6f57600080fd5b5051604080517c010000000000000000000000000000000000000000000000000000000063ffffffff85160281527fffffffff0000000000000000000000000000000000000000000000000000000090921660048301525160248083019260209291908290030181600087803b158015610be857600080fd5b505af1158015610bfc573d6000803e3d6000fd5b505050506040513d6020811015610c1257600080fd5b50511515610ca757604080517f08c379a000000000000000000000000000000000000000000000000000000000815260206004820152602960248201527f426c61636b6c697374207370656e64696e67206e6f7420737570706f7274656460448201527f20627920746f6b656e0000000000000000000000000000000000000000000000606482015290519081900360840190fd5b600254604080517f8f959f54000000000000000000000000000000000000000000000000000000008152905173ffffffffffffffffffffffffffffffffffffffff90921691635317e4449184918491638f959f549160048083019260209291908290030181600087803b158015610d1d57600080fd5b505af1158015610d31573d6000803e3d6000fd5b505050506040513d6020811015610d4757600080fd5b5051604080517c010000000000000000000000000000000000000000000000000000000063ffffffff861602815273ffffffffffffffffffffffffffffffffffffffff90931660048401527fffffffff00000000000000000000000000000000000000000000000000000000909116602483015251604480830192600092919082900301818387803b158015610ddc57600080fd5b505af1158015610df0573d6000803e3d6000fd5b505060405173ffffffffffffffffffffffffffffffffffffffff841692507fb8b0c8ee459f1d6bd645483509388a7c33773a7ca838bf63ebe8d49d0cb057e59150600090a250565b610e413361326a565b1515610eae57604080517f08c379a000000000000000000000000000000000000000000000000000000000815260206004820152601860248201527f53656e646572206d7573742062652076616c696461746f720000000000000000604482015290519081900360640190fd5b610eb781613361565b50565b600260009054906101000a900473ffffffffffffffffffffffffffffffffffffffff1673ffffffffffffffffffffffffffffffffffffffff16634e71e0c86040518163ffffffff167c0100000000000000000000000000000000000000000000000000000000028152600401600060405180830381600087803b158015610f4057600080fd5b505af1158015610f54573d6000803e3d6000fd5b50505050565b600254604080517f14db6d5800000000000000000000000000000000000000000000000000000000815273ffffffffffffffffffffffffffffffffffffffff85811660048301527fffffffff0000000000000000000000000000000000000000000000000000000085166024830152915160009392909216916314db6d589160448082019260209290919082900301818787803b158015610ffa57600080fd5b505af115801561100e573d6000803e3d6000fd5b505050506040513d602081101561102457600080fd5b50519392505050565b600254604080517f395a7b300000000000000000000000000000000000000000000000000000000081527fffffffff000000000000000000000000000000000000000000000000000000008416600482015290516060928392839273ffffffffffffffffffffffffffffffffffffffff9092169163395a7b309160248082019260009290919082900301818387803b1580156110c857600080fd5b505af11580156110dc573d6000803e3d6000fd5b505050506040513d6000823e601f3d9081017fffffffffffffffffffffffffffffffffffffffffffffffffffffffffffffffe0168201604052606081101561112357600080fd5b81019080805164010000000081111561113b57600080fd5b8201602081018481111561114e57600080fd5b815164010000000081118282018710171561116857600080fd5b5050929190602001805164010000000081111561118457600080fd5b8201602081018481111561119757600080fd5b81516401000000008111828201871017156111b157600080fd5b505092919060200180516401000000008111156111cd57600080fd5b820160208101848111156111e057600080fd5b81516401000000008111828201871017156111fa57600080fd5b50959a94995097509295505050505050565b6112153361326a565b151561128257604080517f08c379a000000000000000000000000000000000000000000000000000000000815260206004820152601860248201527f53656e646572206d7573742062652076616c696461746f720000000000000000604482015290519081900360640190fd5b600254604080517f1c870eee00000000000000000000000000000000000000000000000000000000815273ffffffffffffffffffffffffffffffffffffffff85811660048301527fffffffff000000000000000000000000000000000000000000000000000000008516602483015291519190921691631c870eee91604480830192600092919082900301818387803b15801561131e57600080fd5b505af1158015611332573d6000803e3d6000fd5b505050505050565b6113433361326a565b15156113b057604080517f08c379a000000000000000000000000000000000000000000000000000000000815260206004820152601860248201527f53656e646572206d7573742062652076616c696461746f720000000000000000604482015290519081900360640190fd5b600254604080517fab96cb46000000000000000000000000000000000000000000000000000000008152905173ffffffffffffffffffffffffffffffffffffffff9092169163933aa66791839163ab96cb46916004808201926020929091908290030181600087803b15801561142557600080fd5b505af1158015611439573d6000803e3d6000fd5b505050506040513d602081101561144f57600080fd5b5051604080517c010000000000000000000000000000000000000000000000000000000063ffffffff85160281527fffffffff0000000000000000000000000000000000000000000000000000000090921660048301525160248083019260209291908290030181600087803b1580156114c857600080fd5b505af11580156114dc573d6000803e3d6000fd5b505050506040513d60208110156114f257600080fd5b5051151561158757604080517f08c379a000000000000000000000000000000000000000000000000000000000815260206004820152603260248201527f426c61636b6c69737420746f6b656e206465737472756374696f6e206e6f742060448201527f737570706f7274656420627920746f6b656e0000000000000000000000000000606482015290519081900360840190fd5b600254604080517fab96cb46000000000000000000000000000000000000000000000000000000008152905173ffffffffffffffffffffffffffffffffffffffff90921691631c870eee918491849163ab96cb469160048083019260209291908290030181600087803b1580156115fd57600080fd5b505af1158015611611573d6000803e3d6000fd5b505050506040513d602081101561162757600080fd5b5051604080517c010000000000000000000000000000000000000000000000000000000063ffffffff861602815273ffffffffffffffffffffffffffffffffffffffff90931660048401527fffffffff00000000000000000000000000000000000000000000000000000000909116602483015251604480830192600092919082900301818387803b1580156116bc57600080fd5b505af11580156116d0573d6000803e3d6000fd5b505060405173ffffffffffffffffffffffffffffffffffffffff841692507fcc8fff52f1373f98b1e3e0505c266d5706ba7fd81e4be56fbf3c42b9a8ee4b759150600090a250565b6117213361326a565b151561178e57604080517f08c379a000000000000000000000000000000000000000000000000000000000815260206004820152601860248201527f53656e646572206d7573742062652076616c696461746f720000000000000000604482015290519081900360640190fd5b610eb7816139ed565b60005473ffffffffffffffffffffffffffffffffffffffff1633146117bb57600080fd5b600354604080517f40a141ff00000000000000000000000000000000000000000000000000000000815273ffffffffffffffffffffffffffffffffffffffff8481166004830152915191909216916340a141ff91602480830192600092919082900301818387803b15801561182f57600080fd5b505af1158015611843573d6000803e3d6000fd5b5050505050565b60005473ffffffffffffffffffffffffffffffffffffffff16331461186e57600080fd5b600354604080517f4d238c8e00000000000000000000000000000000000000000000000000000000815273ffffffffffffffffffffffffffffffffffffffff848116600483015291519190921691634d238c8e91602480830192600092919082900301818387803b15801561182f57600080fd5b600061199f82600260009054906101000a900473ffffffffffffffffffffffffffffffffffffffff1673ffffffffffffffffffffffffffffffffffffffff1663cfbf1b906040518163ffffffff167c0100000000000000000000000000000000000000000000000000000000028152600401602060405180830381600087803b15801561196e57600080fd5b505af1158015611982573d6000803e3d6000fd5b505050506040513d602081101561199857600080fd5b5051610f5a565b158015611a335750611a3182600260009054906101000a900473ffffffffffffffffffffffffffffffffffffffff1673ffffffffffffffffffffffffffffffffffffffff16639491951b6040518163ffffffff167c0100000000000000000000000000000000000000000000000000000000028152600401602060405180830381600087803b15801561196e57600080fd5b155b92915050565b60015473ffffffffffffffffffffffffffffffffffffffff163314611a5d57600080fd5b6001546000805460405173ffffffffffffffffffffffffffffffffffffffff93841693909116917f8be0079c531659141344cd1fd0a4f28419497f9722a3daafe3b4186f6b6457e091a360018054600080547fffffffffffffffffffffffff000000000000000000000000000000000000000090811673ffffffffffffffffffffffffffffffffffffffff841617909155169055565b611afc3361326a565b1515611b6957604080517f08c379a000000000000000000000000000000000000000000000000000000000815260206004820152601860248201527f53656e646572206d7573742062652076616c696461746f720000000000000000604482015290519081900360640190fd5b600254604080517f5317e44400000000000000000000000000000000000000000000000000000000815273ffffffffffffffffffffffffffffffffffffffff85811660048301527fffffffff000000000000000000000000000000000000000000000000000000008516602483015291519190921691635317e44491604480830192600092919082900301818387803b15801561131e57600080fd5b611c0e3361326a565b1515611c7b57604080517f08c379a000000000000000000000000000000000000000000000000000000000815260206004820152601860248201527f53656e646572206d7573742062652076616c696461746f720000000000000000604482015290519081900360640190fd5b600254604080517fab96cb46000000000000000000000000000000000000000000000000000000008152905173ffffffffffffffffffffffffffffffffffffffff9092169163933aa66791839163ab96cb46916004808201926020929091908290030181600087803b158015611cf057600080fd5b505af1158015611d04573d6000803e3d6000fd5b505050506040513d6020811015611d1a57600080fd5b5051604080517c010000000000000000000000000000000000000000000000000000000063ffffffff85160281527fffffffff0000000000000000000000000000000000000000000000000000000090921660048301525160248083019260209291908290030181600087803b158015611d9357600080fd5b505af1158015611da7573d6000803e3d6000fd5b505050506040513d6020811015611dbd57600080fd5b50511515611e5257604080517f08c379a000000000000000000000000000000000000000000000000000000000815260206004820152603260248201527f426c61636b6c69737420746f6b656e206465737472756374696f6e206e6f742060448201527f737570706f7274656420627920746f6b656e0000000000000000000000000000606482015290519081900360840190fd5b600254604080517fab96cb46000000000000000000000000000000000000000000000000000000008152905173ffffffffffffffffffffffffffffffffffffffff90921691635317e444918491849163ab96cb469160048083019260209291908290030181600087803b158015611ec857600080fd5b505af1158015611edc573d6000803e3d6000fd5b505050506040513d6020811015611ef257600080fd5b5051604080517c010000000000000000000000000000000000000000000000000000000063ffffffff861602815273ffffffffffffffffffffffffffffffffffffffff90931660048401527fffffffff00000000000000000000000000000000000000000000000000000000909116602483015251604480830192600092919082900301818387803b158015611f8757600080fd5b505af1158015611f9b573d6000803e3d6000fd5b505060405173ffffffffffffffffffffffffffffffffffffffff841692507f86bb58560ff5b69582569594aec27466e395f18de8783a40ead458348c9173d39150600090a250565b60005473ffffffffffffffffffffffffffffffffffffffff16331461200757600080fd5b6000805460405173ffffffffffffffffffffffffffffffffffffffff909116917ff8df31144d9c2f0f6b59d69b8b98abd5459d07f2742c4df920b25aae33c6482091a2600080547fffffffffffffffffffffffff0000000000000000000000000000000000000000169055565b61207d3361326a565b15156120ea57604080517f08c379a000000000000000000000000000000000000000000000000000000000815260206004820152601860248201527f53656e646572206d7573742062652076616c696461746f720000000000000000604482015290519081900360640190fd5b6002546040517f780bfed00000000000000000000000000000000000000000000000000000000081527fffffffff0000000000000000000000000000000000000000000000000000000086166004820190815260806024830190815286516084840152865173ffffffffffffffffffffffffffffffffffffffff9094169363780bfed09389938993899389936044810191606482019160a40190602089019080838360005b838110156121a757818101518382015260200161218f565b50505050905090810190601f1680156121d45780820380516001836020036101000a031916815260200191505b50848103835286518152865160209182019188019080838360005b838110156122075781810151838201526020016121ef565b50505050905090810190601f1680156122345780820380516001836020036101000a031916815260200191505b50848103825285518152855160209182019187019080838360005b8381101561226757818101518382015260200161224f565b50505050905090810190601f1680156122945780820380516001836020036101000a031916815260200191505b50975050505050505050600060405180830381600087803b1580156122b857600080fd5b505af11580156122cc573d6000803e3d6000fd5b5050505050505050565b600061236282600260009054906101000a900473ffffffffffffffffffffffffffffffffffffffff1673ffffffffffffffffffffffffffffffffffffffff1663cfbf1b906040518163ffffffff167c0100000000000000000000000000000000000000000000000000000000028152600401602060405180830381600087803b15801561196e57600080fd5b158015611a335750611a3382600260009054906101000a900473ffffffffffffffffffffffffffffffffffffffff1673ffffffffffffffffffffffffffffffffffffffff16639491951b6040518163ffffffff167c0100000000000000000000000000000000000000000000000000000000028152600401602060405180830381600087803b15801561196e57600080fd5b600360009054906101000a900473ffffffffffffffffffffffffffffffffffffffff1673ffffffffffffffffffffffffffffffffffffffff16634e71e0c86040518163ffffffff167c0100000000000000000000000000000000000000000000000000000000028152600401600060405180830381600087803b158015610f4057600080fd5b60005473ffffffffffffffffffffffffffffffffffffffff1681565b6000611a3382600260009054906101000a900473ffffffffffffffffffffffffffffffffffffffff1673ffffffffffffffffffffffffffffffffffffffff16638f959f546040518163ffffffff167c0100000000000000000000000000000000000000000000000000000000028152600401602060405180830381600087803b15801561196e57600080fd5b600254604080517f933aa6670000000000000000000000000000000000000000000000000000000081527fffffffff0000000000000000000000000000000000000000000000000000000084166004820152905160009273ffffffffffffffffffffffffffffffffffffffff169163933aa66791602480830192602092919082900301818787803b1580156125b657600080fd5b505af11580156125ca573d6000803e3d6000fd5b505050506040513d60208110156125e057600080fd5b505192915050565b6000611a3382600260009054906101000a900473ffffffffffffffffffffffffffffffffffffffff1673ffffffffffffffffffffffffffffffffffffffff166388f14b0e6040518163ffffffff167c0100000000000000000000000000000000000000000000000000000000028152600401602060405180830381600087803b15801561196e57600080fd5b60025473ffffffffffffffffffffffffffffffffffffffff1681565b6000805473ffffffffffffffffffffffffffffffffffffffff1633146126b557600080fd5b60025473ffffffffffffffffffffffffffffffffffffffff8381169116141561273f57604080517f08c379a000000000000000000000000000000000000000000000000000000000815260206004820152601e60248201527f4d7573742062652061206e6577207065726d697373696f6e2073686565740000604482015290519081900360640190fd5b61274882613d2f565b15156127db57604080517f08c379a000000000000000000000000000000000000000000000000000000000815260206004820152603860248201527f43616e6e6f7420736574206120726567756c61746f722073746f72616765207460448201527f6f2061206e6f6e2d636f6e747261637420616464726573730000000000000000606482015290519081900360840190fd5b506002805473ffffffffffffffffffffffffffffffffffffffff8381167fffffffffffffffffffffffff0000000000000000000000000000000000000000831681179093556040805191909216808252602082019390935281517fe17aee9aa44ff533ce61ee89d13b1d2a8cb1143b69d05d08a5d136acae8a7707929181900390910190a15050565b61286d3361326a565b15156128da57604080517f08c379a000000000000000000000000000000000000000000000000000000000815260206004820152601860248201527f53656e646572206d7573742062652076616c696461746f720000000000000000604482015290519081900360640190fd5b600254604080517fb8ccbd170000000000000000000000000000000000000000000000000000000081527fffffffff0000000000000000000000000000000000000000000000000000000084166004820152905173ffffffffffffffffffffffffffffffffffffffff9092169163b8ccbd179160248082019260009290919082900301818387803b15801561182f57600080fd5b6129773361326a565b15156129e457604080517f08c379a000000000000000000000000000000000000000000000000000000000815260206004820152601860248201527f53656e646572206d7573742062652076616c696461746f720000000000000000604482015290519081900360640190fd5b600254604080517f8f959f54000000000000000000000000000000000000000000000000000000008152905173ffffffffffffffffffffffffffffffffffffffff9092169163933aa667918391638f959f54916004808201926020929091908290030181600087803b158015612a5957600080fd5b505af1158015612a6d573d6000803e3d6000fd5b505050506040513d6020811015612a8357600080fd5b5051604080517c010000000000000000000000000000000000000000000000000000000063ffffffff85160281527fffffffff0000000000000000000000000000000000000000000000000000000090921660048301525160248083019260209291908290030181600087803b158015612afc57600080fd5b505af1158015612b10573d6000803e3d6000fd5b505050506040513d6020811015612b2657600080fd5b50511515612bbb57604080517f08c379a000000000000000000000000000000000000000000000000000000000815260206004820152602960248201527f426c61636b6c697374207370656e64696e67206e6f7420737570706f7274656460448201527f20627920746f6b656e0000000000000000000000000000000000000000000000606482015290519081900360840190fd5b600254604080517f8f959f54000000000000000000000000000000000000000000000000000000008152905173ffffffffffffffffffffffffffffffffffffffff90921691631c870eee9184918491638f959f549160048083019260209291908290030181600087803b158015612c3157600080fd5b505af1158015612c45573d6000803e3d6000fd5b505050506040513d6020811015612c5b57600080fd5b5051604080517c010000000000000000000000000000000000000000000000000000000063ffffffff861602815273ffffffffffffffffffffffffffffffffffffffff90931660048401527fffffffff00000000000000000000000000000000000000000000000000000000909116602483015251604480830192600092919082900301818387803b158015612cf057600080fd5b505af1158015612d04573d6000803e3d6000fd5b505060405173ffffffffffffffffffffffffffffffffffffffff841692507faa23b83c4c61a5f45cfa40a87b5140110977014da47ac244df45db2f1ce18a9e9150600090a250565b612d553361326a565b1515612dc257604080517f08c379a000000000000000000000000000000000000000000000000000000000815260206004820152601860248201527f53656e646572206d7573742062652076616c696461746f720000000000000000604482015290519081900360640190fd5b610eb781613d37565b60035473ffffffffffffffffffffffffffffffffffffffff1681565b612df03361326a565b1515612e5d57604080517f08c379a000000000000000000000000000000000000000000000000000000000815260206004820152601860248201527f53656e646572206d7573742062652076616c696461746f720000000000000000604482015290519081900360640190fd5b610eb7816143c3565b6000612ef282600260009054906101000a900473ffffffffffffffffffffffffffffffffffffffff1673ffffffffffffffffffffffffffffffffffffffff1663cfbf1b906040518163ffffffff167c0100000000000000000000000000000000000000000000000000000000028152600401602060405180830381600087803b15801561196e57600080fd5b8015611a335750611a3182600260009054906101000a900473ffffffffffffffffffffffffffffffffffffffff1673ffffffffffffffffffffffffffffffffffffffff16639491951b6040518163ffffffff167c0100000000000000000000000000000000000000000000000000000000028152600401602060405180830381600087803b15801561196e57600080fd5b60015473ffffffffffffffffffffffffffffffffffffffff1681565b6000805473ffffffffffffffffffffffffffffffffffffffff163314612fc457600080fd5b60035473ffffffffffffffffffffffffffffffffffffffff8381169116141561304e57604080517f08c379a000000000000000000000000000000000000000000000000000000000815260206004820152601d60248201527f4d7573742062652061206e65772076616c696461746f72207368656574000000604482015290519081900360640190fd5b61305782613d2f565b15156130ea57604080517f08c379a000000000000000000000000000000000000000000000000000000000815260206004820152603860248201527f43616e6e6f7420736574206120726567756c61746f722073746f72616765207460448201527f6f2061206e6f6e2d636f6e747261637420616464726573730000000000000000606482015290519081900360840190fd5b506003805473ffffffffffffffffffffffffffffffffffffffff8381167fffffffffffffffffffffffff0000000000000000000000000000000000000000831681179093556040805191909216808252602082019390935281517f8ca674c4f8f0a3a35b50833ae3d8d889663de2b78cdbe0765021594acec3cda2929181900390910190a15050565b60005473ffffffffffffffffffffffffffffffffffffffff16331461319757600080fd5b600180547fffffffffffffffffffffffff00000000000000000000000000000000000000001673ffffffffffffffffffffffffffffffffffffffff92909216919091179055565b6000611a3382600260009054906101000a900473ffffffffffffffffffffffffffffffffffffffff1673ffffffffffffffffffffffffffffffffffffffff1663ab96cb466040518163ffffffff167c0100000000000000000000000000000000000000000000000000000000028152600401602060405180830381600087803b15801561196e57600080fd5b600354604080517ffacd743b00000000000000000000000000000000000000000000000000000000815273ffffffffffffffffffffffffffffffffffffffff84811660048301529151600093929092169163facd743b9160248082019260209290919082900301818787803b1580156125b657600080fd5b6132eb3361326a565b151561335857604080517f08c379a000000000000000000000000000000000000000000000000000000000815260206004820152601860248201527f53656e646572206d7573742062652076616c696461746f720000000000000000604482015290519081900360640190fd5b610eb781614a4f565b600254604080517fcfbf1b90000000000000000000000000000000000000000000000000000000008152905173ffffffffffffffffffffffffffffffffffffffff9092169163933aa66791839163cfbf1b90916004808201926020929091908290030181600087803b1580156133d657600080fd5b505af11580156133ea573d6000803e3d6000fd5b505050506040513d602081101561340057600080fd5b5051604080517c010000000000000000000000000000000000000000000000000000000063ffffffff85160281527fffffffff0000000000000000000000000000000000000000000000000000000090921660048301525160248083019260209291908290030181600087803b15801561347957600080fd5b505af115801561348d573d6000803e3d6000fd5b505050506040513d60208110156134a357600080fd5b5051151561353857604080517f08c379a000000000000000000000000000000000000000000000000000000000815260206004820152602260248201527f4275726e206d6574686f64206e6f7420737570706f7274656420627920746f6b60448201527f656e000000000000000000000000000000000000000000000000000000000000606482015290519081900360840190fd5b600254604080517f9491951b000000000000000000000000000000000000000000000000000000008152905173ffffffffffffffffffffffffffffffffffffffff9092169163933aa667918391639491951b916004808201926020929091908290030181600087803b1580156135ad57600080fd5b505af11580156135c1573d6000803e3d6000fd5b505050506040513d60208110156135d757600080fd5b5051604080517c010000000000000000000000000000000000000000000000000000000063ffffffff85160281527fffffffff0000000000000000000000000000000000000000000000000000000090921660048301525160248083019260209291908290030181600087803b15801561365057600080fd5b505af1158015613664573d6000803e3d6000fd5b505050506040513d602081101561367a57600080fd5b5051151561370f57604080517f08c379a000000000000000000000000000000000000000000000000000000000815260206004820152602b60248201527f53656c662d6465737472756374206d6574686f64206e6f7420737570706f727460448201527f656420627920746f6b656e000000000000000000000000000000000000000000606482015290519081900360840190fd5b600254604080517fcfbf1b90000000000000000000000000000000000000000000000000000000008152905173ffffffffffffffffffffffffffffffffffffffff90921691631c870eee918491849163cfbf1b909160048083019260209291908290030181600087803b15801561378557600080fd5b505af1158015613799573d6000803e3d6000fd5b505050506040513d60208110156137af57600080fd5b5051604080517c010000000000000000000000000000000000000000000000000000000063ffffffff861602815273ffffffffffffffffffffffffffffffffffffffff90931660048401527fffffffff00000000000000000000000000000000000000000000000000000000909116602483015251604480830192600092919082900301818387803b15801561384457600080fd5b505af1158015613858573d6000803e3d6000fd5b5050600254604080517f9491951b000000000000000000000000000000000000000000000000000000008152905173ffffffffffffffffffffffffffffffffffffffff9092169350635317e444925084918491639491951b9160048083019260209291908290030181600087803b1580156138d257600080fd5b505af11580156138e6573d6000803e3d6000fd5b505050506040513d60208110156138fc57600080fd5b5051604080517c010000000000000000000000000000000000000000000000000000000063ffffffff861602815273ffffffffffffffffffffffffffffffffffffffff90931660048401527fffffffff00000000000000000000000000000000000000000000000000000000909116602483015251604480830192600092919082900301818387803b15801561399157600080fd5b505af11580156139a5573d6000803e3d6000fd5b505060405173ffffffffffffffffffffffffffffffffffffffff841692507f86b7e0c3e1db481670ce05712af57844698476ca35579a16697e6be0452808689150600090a250565b600254604080517f88f14b0e000000000000000000000000000000000000000000000000000000008152905173ffffffffffffffffffffffffffffffffffffffff9092169163933aa6679183916388f14b0e916004808201926020929091908290030181600087803b158015613a6257600080fd5b505af1158015613a76573d6000803e3d6000fd5b505050506040513d6020811015613a8c57600080fd5b5051604080517c010000000000000000000000000000000000000000000000000000000063ffffffff85160281527fffffffff0000000000000000000000000000000000000000000000000000000090921660048301525160248083019260209291908290030181600087803b158015613b0557600080fd5b505af1158015613b19573d6000803e3d6000fd5b505050506040513d6020811015613b2f57600080fd5b50511515613b9e57604080517f08c379a000000000000000000000000000000000000000000000000000000000815260206004820152601e60248201527f4d696e74696e67206e6f7420737570706f7274656420627920746f6b656e0000604482015290519081900360640190fd5b600254604080517f88f14b0e000000000000000000000000000000000000000000000000000000008152905173ffffffffffffffffffffffffffffffffffffffff90921691635317e44491849184916388f14b0e9160048083019260209291908290030181600087803b158015613c1457600080fd5b505af1158015613c28573d6000803e3d6000fd5b505050506040513d6020811015613c3e57600080fd5b5051604080517c010000000000000000000000000000000000000000000000000000000063ffffffff861602815273ffffffffffffffffffffffffffffffffffffffff90931660048401527fffffffff00000000000000000000000000000000000000000000000000000000909116602483015251604480830192600092919082900301818387803b158015613cd357600080fd5b505af1158015613ce7573d6000803e3d6000fd5b505060405173ffffffffffffffffffffffffffffffffffffffff841692507fc93cfdd5d8f442c448a02ed11ccff64355643272c9f2be94b723f2181af1a8969150600090a250565b6000903b1190565b600254604080517fcfbf1b90000000000000000000000000000000000000000000000000000000008152905173ffffffffffffffffffffffffffffffffffffffff9092169163933aa66791839163cfbf1b90916004808201926020929091908290030181600087803b158015613dac57600080fd5b505af1158015613dc0573d6000803e3d6000fd5b505050506040513d6020811015613dd657600080fd5b5051604080517c010000000000000000000000000000000000000000000000000000000063ffffffff85160281527fffffffff0000000000000000000000000000000000000000000000000000000090921660048301525160248083019260209291908290030181600087803b158015613e4f57600080fd5b505af1158015613e63573d6000803e3d6000fd5b505050506040513d6020811015613e7957600080fd5b50511515613f0e57604080517f08c379a000000000000000000000000000000000000000000000000000000000815260206004820152602260248201527f4275726e206d6574686f64206e6f7420737570706f7274656420627920746f6b60448201527f656e000000000000000000000000000000000000000000000000000000000000606482015290519081900360840190fd5b600254604080517f9491951b000000000000000000000000000000000000000000000000000000008152905173ffffffffffffffffffffffffffffffffffffffff9092169163933aa667918391639491951b916004808201926020929091908290030181600087803b158015613f8357600080fd5b505af1158015613f97573d6000803e3d6000fd5b505050506040513d6020811015613fad57600080fd5b5051604080517c010000000000000000000000000000000000000000000000000000000063ffffffff85160281527fffffffff0000000000000000000000000000000000000000000000000000000090921660048301525160248083019260209291908290030181600087803b15801561402657600080fd5b505af115801561403a573d6000803e3d6000fd5b505050506040513d602081101561405057600080fd5b505115156140e557604080517f08c379a000000000000000000000000000000000000000000000000000000000815260206004820152602b60248201527f53656c662d6465737472756374206d6574686f64206e6f7420737570706f727460448201527f656420627920746f6b656e000000000000000000000000000000000000000000606482015290519081900360840190fd5b600254604080517fcfbf1b90000000000000000000000000000000000000000000000000000000008152905173ffffffffffffffffffffffffffffffffffffffff90921691635317e444918491849163cfbf1b909160048083019260209291908290030181600087803b15801561415b57600080fd5b505af115801561416f573d6000803e3d6000fd5b505050506040513d602081101561418557600080fd5b5051604080517c010000000000000000000000000000000000000000000000000000000063ffffffff861602815273ffffffffffffffffffffffffffffffffffffffff90931660048401527fffffffff00000000000000000000000000000000000000000000000000000000909116602483015251604480830192600092919082900301818387803b15801561421a57600080fd5b505af115801561422e573d6000803e3d6000fd5b5050600254604080517f9491951b000000000000000000000000000000000000000000000000000000008152905173ffffffffffffffffffffffffffffffffffffffff9092169350631c870eee925084918491639491951b9160048083019260209291908290030181600087803b1580156142a857600080fd5b505af11580156142bc573d6000803e3d6000fd5b505050506040513d60208110156142d257600080fd5b5051604080517c010000000000000000000000000000000000000000000000000000000063ffffffff861602815273ffffffffffffffffffffffffffffffffffffffff90931660048401527fffffffff00000000000000000000000000000000000000000000000000000000909116602483015251604480830192600092919082900301818387803b15801561436757600080fd5b505af115801561437b573d6000803e3d6000fd5b505060405173ffffffffffffffffffffffffffffffffffffffff841692507f8ed6db9e8aeb425f391c919c79778f978777d9e9e9f357656b139b2e9251de929150600090a250565b600254604080517fcfbf1b90000000000000000000000000000000000000000000000000000000008152905173ffffffffffffffffffffffffffffffffffffffff9092169163933aa66791839163cfbf1b90916004808201926020929091908290030181600087803b15801561443857600080fd5b505af115801561444c573d6000803e3d6000fd5b505050506040513d602081101561446257600080fd5b5051604080517c010000000000000000000000000000000000000000000000000000000063ffffffff85160281527fffffffff0000000000000000000000000000000000000000000000000000000090921660048301525160248083019260209291908290030181600087803b1580156144db57600080fd5b505af11580156144ef573d6000803e3d6000fd5b505050506040513d602081101561450557600080fd5b5051151561459a57604080517f08c379a000000000000000000000000000000000000000000000000000000000815260206004820152602260248201527f4275726e206d6574686f64206e6f7420737570706f7274656420627920746f6b60448201527f656e000000000000000000000000000000000000000000000000000000000000606482015290519081900360840190fd5b600254604080517f9491951b000000000000000000000000000000000000000000000000000000008152905173ffffffffffffffffffffffffffffffffffffffff9092169163933aa667918391639491951b916004808201926020929091908290030181600087803b15801561460f57600080fd5b505af1158015614623573d6000803e3d6000fd5b505050506040513d602081101561463957600080fd5b5051604080517c010000000000000000000000000000000000000000000000000000000063ffffffff85160281527fffffffff0000000000000000000000000000000000000000000000000000000090921660048301525160248083019260209291908290030181600087803b1580156146b257600080fd5b505af11580156146c6573d6000803e3d6000fd5b505050506040513d60208110156146dc57600080fd5b5051151561477157604080517f08c379a000000000000000000000000000000000000000000000000000000000815260206004820152602b60248201527f53656c662d6465737472756374206d6574686f64206e6f7420737570706f727460448201527f656420627920746f6b656e000000000000000000000000000000000000000000606482015290519081900360840190fd5b600254604080517fcfbf1b90000000000000000000000000000000000000000000000000000000008152905173ffffffffffffffffffffffffffffffffffffffff90921691635317e444918491849163cfbf1b909160048083019260209291908290030181600087803b1580156147e757600080fd5b505af11580156147fb573d6000803e3d6000fd5b505050506040513d602081101561481157600080fd5b5051604080517c010000000000000000000000000000000000000000000000000000000063ffffffff861602815273ffffffffffffffffffffffffffffffffffffffff90931660048401527fffffffff00000000000000000000000000000000000000000000000000000000909116602483015251604480830192600092919082900301818387803b1580156148a657600080fd5b505af11580156148ba573d6000803e3d6000fd5b5050600254604080517f9491951b000000000000000000000000000000000000000000000000000000008152905173ffffffffffffffffffffffffffffffffffffffff9092169350635317e444925084918491639491951b9160048083019260209291908290030181600087803b15801561493457600080fd5b505af1158015614948573d6000803e3d6000fd5b505050506040513d602081101561495e57600080fd5b5051604080517c010000000000000000000000000000000000000000000000000000000063ffffffff861602815273ffffffffffffffffffffffffffffffffffffffff90931660048401527fffffffff00000000000000000000000000000000000000000000000000000000909116602483015251604480830192600092919082900301818387803b1580156149f357600080fd5b505af1158015614a07573d6000803e3d6000fd5b505060405173ffffffffffffffffffffffffffffffffffffffff841692507f99fac8adcffc13d01bc3b656d54bfa9e5f9a77ace9bf19f5a1a9469990a782b79150600090a250565b600254604080517f88f14b0e000000000000000000000000000000000000000000000000000000008152905173ffffffffffffffffffffffffffffffffffffffff9092169163933aa6679183916388f14b0e916004808201926020929091908290030181600087803b158015614ac457600080fd5b505af1158015614ad8573d6000803e3d6000fd5b505050506040513d6020811015614aee57600080fd5b5051604080517c010000000000000000000000000000000000000000000000000000000063ffffffff85160281527fffffffff0000000000000000000000000000000000000000000000000000000090921660048301525160248083019260209291908290030181600087803b158015614b6757600080fd5b505af1158015614b7b573d6000803e3d6000fd5b505050506040513d6020811015614b9157600080fd5b50511515614c0057604080517f08c379a000000000000000000000000000000000000000000000000000000000815260206004820152601e60248201527f4d696e74696e67206e6f7420737570706f7274656420627920746f6b656e0000604482015290519081900360640190fd5b600254604080517f88f14b0e000000000000000000000000000000000000000000000000000000008152905173ffffffffffffffffffffffffffffffffffffffff90921691631c870eee91849184916388f14b0e9160048083019260209291908290030181600087803b158015614c7657600080fd5b505af1158015614c8a573d6000803e3d6000fd5b505050506040513d6020811015614ca057600080fd5b5051604080517c010000000000000000000000000000000000000000000000000000000063ffffffff861602815273ffffffffffffffffffffffffffffffffffffffff90931660048401527fffffffff00000000000000000000000000000000000000000000000000000000909116602483015251604480830192600092919082900301818387803b158015614d3557600080fd5b505af1158015614d49573d6000803e3d6000fd5b505060405173ffffffffffffffffffffffffffffffffffffffff841692507fcec52196e972044edde8689a1b608e459c5946b7f3e5c8cd3d6d8e126d422e1c9150600090a2505600a165627a7a72305820322317c02f0d7984205f4bf23fb83f1ad5fb1b383a2c46fb55cf21421bcad9550029",
  "source": "pragma solidity ^0.4.24;\r\n\r\nimport \"openzeppelin-solidity/contracts/AddressUtils.sol\";\r\nimport \"./dataStorage/MutableRegulatorStorage.sol\";\r\n\r\n\r\n/**\r\n * @title Regulator\r\n * @dev Regulator can be configured to meet relevant securities regulations, KYC policies\r\n * AML requirements, tax laws, and more. The Regulator ensures that the PermissionedToken\r\n * makes compliant transfers possible. Contains the userPermissions necessary\r\n * for regulatory compliance.\r\n *\r\n */\r\ncontract Regulator is MutableRegulatorStorage {\r\n    /** \r\n        Modifiers \r\n    */\r\n    /**\r\n    * @notice Throws if called by any account that does not have access to set attributes\r\n    */\r\n    modifier onlyValidator() {\r\n        require (isValidator(msg.sender), \"Sender must be validator\");\r\n        _;\r\n    }\r\n\r\n    /** \r\n        Events \r\n    */\r\n    event SetWhitelistedUser(address indexed who);\r\n    event SetBlacklistedUser(address indexed who);\r\n    event SetNonlistedUser(address indexed who);\r\n    event SetMinter(address indexed who);\r\n    event RemovedMinter(address indexed who);\r\n    event SetBlacklistDestroyer(address indexed who);\r\n    event RemovedBlacklistDestroyer(address indexed who);\r\n    event SetBlacklistSpender(address indexed who);\r\n    event RemovedBlacklistSpender(address indexed who);\r\n\r\n\r\n    constructor (address p, address v) MutableRegulatorStorage(p, v) public {}\r\n\r\n    /**\r\n    * @notice Adds a validator to the regulator entity.\r\n    * @param _who New validator.\r\n    */\r\n    function addValidator(address _who) public onlyOwner {\r\n        validators.addValidator(_who);\r\n    }\r\n\r\n    /**\r\n    * @notice Removes a validator from the regulator entity.\r\n    * @param _who Validator to remove.\r\n    */\r\n    function removeValidator(address _who) public onlyOwner {\r\n        validators.removeValidator(_who);\r\n    }\r\n\r\n    /** Returns whether or not a user is a validator.\r\n     * @param _who The address of the account in question.\r\n     * @return `true` if the user is a validator, `false` otherwise.\r\n     */\r\n    function isValidator(address _who) public view returns (bool) {\r\n        return validators.isValidator(_who);\r\n    }\r\n\r\n    /**\r\n    * @notice Sets the necessary permissions for a user to mint tokens.\r\n    * @param _who The address of the account that we are setting permissions for.\r\n    */\r\n    function setMinter(address _who) public onlyValidator {\r\n        _setMinter(_who);\r\n    }\r\n\r\n    function _setMinter(address _who) internal {\r\n        require(permissions.isPermission(permissions.MINT_SIG()), \"Minting not supported by token\");\r\n        permissions.setUserPermission(_who, permissions.MINT_SIG());\r\n        emit SetMinter(_who);\r\n    }\r\n\r\n    /**\r\n    * @notice Removes the necessary permissions for a user to mint tokens.\r\n    * @param _who The address of the account that we are removing permissions for.\r\n    */\r\n    function removeMinter(address _who) public onlyValidator {\r\n        _removeMinter(_who);\r\n    }\r\n\r\n    function _removeMinter(address _who) internal {\r\n        require(permissions.isPermission(permissions.MINT_SIG()), \"Minting not supported by token\");\r\n        permissions.removeUserPermission(_who, permissions.MINT_SIG());\r\n        emit RemovedMinter(_who);\r\n    }\r\n\r\n    /** Returns whether or not a user is a minter.\r\n     * @param _who The address of the account in question.\r\n     * @return `true` if the user is a minter, `false` otherwise.\r\n     */\r\n    function isMinter(address _who) public view returns (bool) {\r\n        return hasUserPermission(_who, permissions.MINT_SIG());\r\n    }\r\n\r\n    /**\r\n    * @notice Sets the necessary permissions for a user to spend tokens from a blacklisted account.\r\n    * @param _who The address of the account that we are setting permissions for.\r\n    */\r\n    function setBlacklistSpender(address _who) public onlyValidator {\r\n        require(permissions.isPermission(permissions.APPROVE_BLACKLISTED_ADDRESS_SPENDER_SIG()), \"Blacklist spending not supported by token\");\r\n        permissions.setUserPermission(_who, permissions.APPROVE_BLACKLISTED_ADDRESS_SPENDER_SIG());\r\n        emit SetBlacklistSpender(_who);\r\n    }\r\n    \r\n    /**\r\n    * @notice Removes the necessary permissions for a user to spend tokens from a blacklisted account.\r\n    * @param _who The address of the account that we are removing permissions for.\r\n    */\r\n    function removeBlacklistSpender(address _who) public onlyValidator {\r\n        require(permissions.isPermission(permissions.APPROVE_BLACKLISTED_ADDRESS_SPENDER_SIG()), \"Blacklist spending not supported by token\");\r\n        permissions.removeUserPermission(_who, permissions.APPROVE_BLACKLISTED_ADDRESS_SPENDER_SIG());\r\n        emit RemovedBlacklistSpender(_who);\r\n    }\r\n\r\n    /** Returns whether or not a user is a blacklist spender.\r\n     * @param _who The address of the account in question.\r\n     * @return `true` if the user is a blacklist spender, `false` otherwise.\r\n     */\r\n    function isBlacklistSpender(address _who) public view returns (bool) {\r\n        return hasUserPermission(_who, permissions.APPROVE_BLACKLISTED_ADDRESS_SPENDER_SIG());\r\n    }\r\n\r\n    /**\r\n    * @notice Sets the necessary permissions for a user to destroy tokens from a blacklisted account.\r\n    * @param _who The address of the account that we are setting permissions for.\r\n    */\r\n    function setBlacklistDestroyer(address _who) public onlyValidator {\r\n        require(permissions.isPermission(permissions.DESTROY_BLACKLISTED_TOKENS_SIG()), \"Blacklist token destruction not supported by token\");\r\n        permissions.setUserPermission(_who, permissions.DESTROY_BLACKLISTED_TOKENS_SIG());\r\n        emit SetBlacklistDestroyer(_who);\r\n    }\r\n    \r\n\r\n    /**\r\n    * @notice Removes the necessary permissions for a user to destroy tokens from a blacklisted account.\r\n    * @param _who The address of the account that we are removing permissions for.\r\n    */\r\n    function removeBlacklistDestroyer(address _who) public onlyValidator {\r\n        require(permissions.isPermission(permissions.DESTROY_BLACKLISTED_TOKENS_SIG()), \"Blacklist token destruction not supported by token\");\r\n        permissions.removeUserPermission(_who, permissions.DESTROY_BLACKLISTED_TOKENS_SIG());\r\n        emit RemovedBlacklistDestroyer(_who);\r\n    }\r\n\r\n    /** Returns whether or not a user is a blacklist destroyer.\r\n     * @param _who The address of the account in question.\r\n     * @return `true` if the user is a blacklist destroyer, `false` otherwise.\r\n     */\r\n    function isBlacklistDestroyer(address _who) public view returns (bool) {\r\n        return hasUserPermission(_who, permissions.DESTROY_BLACKLISTED_TOKENS_SIG());\r\n    }\r\n\r\n    /**\r\n    * @notice Sets the necessary permissions for a \"whitelisted\" user.\r\n    * @param _who The address of the account that we are setting permissions for.\r\n    */\r\n    function setWhitelistedUser(address _who) public onlyValidator {\r\n        _setWhitelistedUser(_who);\r\n    }\r\n\r\n    function _setWhitelistedUser(address _who) internal {\r\n        require(permissions.isPermission(permissions.BURN_SIG()), \"Burn method not supported by token\");\r\n        require(permissions.isPermission(permissions.BLACKLISTED_SIG()), \"Self-destruct method not supported by token\");\r\n        permissions.setUserPermission(_who, permissions.BURN_SIG());\r\n        permissions.removeUserPermission(_who, permissions.BLACKLISTED_SIG());\r\n        emit SetWhitelistedUser(_who);\r\n    }\r\n\r\n    /**\r\n    * @notice Sets the necessary permissions for a \"blacklisted\" user. A blacklisted user has their accounts\r\n    * frozen; they cannot transfer, burn, or withdraw any tokens.\r\n    * @param _who The address of the account that we are setting permissions for.\r\n    */\r\n    function setBlacklistedUser(address _who) public onlyValidator {\r\n        _setBlacklistedUser(_who);\r\n    }\r\n\r\n    function _setBlacklistedUser(address _who) internal {\r\n        require(permissions.isPermission(permissions.BURN_SIG()), \"Burn method not supported by token\");\r\n        require(permissions.isPermission(permissions.BLACKLISTED_SIG()), \"Self-destruct method not supported by token\");\r\n        permissions.removeUserPermission(_who, permissions.BURN_SIG());\r\n        permissions.setUserPermission(_who, permissions.BLACKLISTED_SIG());\r\n        emit SetBlacklistedUser(_who);\r\n    }\r\n\r\n    /**\r\n    * @notice Sets the necessary permissions for a \"nonlisted\" user. Nonlisted users can trade tokens,\r\n    * but cannot burn them (and therefore cannot convert them into fiat.)\r\n    * @param _who The address of the account that we are setting permissions for.\r\n    */\r\n    function setNonlistedUser(address _who) public onlyValidator {\r\n        _setNonlistedUser(_who);\r\n    }\r\n\r\n    function _setNonlistedUser(address _who) internal {\r\n        require(permissions.isPermission(permissions.BURN_SIG()), \"Burn method not supported by token\");\r\n        require(permissions.isPermission(permissions.BLACKLISTED_SIG()), \"Self-destruct method not supported by token\");\r\n        permissions.removeUserPermission(_who, permissions.BURN_SIG());\r\n        permissions.removeUserPermission(_who, permissions.BLACKLISTED_SIG());\r\n        emit SetNonlistedUser(_who);\r\n    }\r\n\r\n    /** Returns whether or not a user is whitelisted.\r\n     * @param _who The address of the account in question.\r\n     * @return `true` if the user is whitelisted, `false` otherwise.\r\n     */\r\n    function isWhitelistedUser(address _who) public view returns (bool) {\r\n        return (hasUserPermission(_who, permissions.BURN_SIG()) && !hasUserPermission(_who, permissions.BLACKLISTED_SIG()));\r\n    }\r\n\r\n    /** Returns whether or not a user is blacklisted.\r\n     * @param _who The address of the account in question.\r\n     * @return `true` if the user is blacklisted, `false` otherwise.\r\n     */\r\n    function isBlacklistedUser(address _who) public view returns (bool) {\r\n        return (!hasUserPermission(_who, permissions.BURN_SIG()) && hasUserPermission(_who, permissions.BLACKLISTED_SIG()));\r\n    }\r\n\r\n    /** Returns whether or not a user is nonlisted.\r\n     * @param _who The address of the account in question.\r\n     * @return `true` if the user is nonlisted, `false` otherwise.\r\n     */\r\n    function isNonlistedUser(address _who) public view returns (bool) {\r\n        return (!hasUserPermission(_who, permissions.BURN_SIG()) && !hasUserPermission(_who, permissions.BLACKLISTED_SIG()));\r\n    }\r\n        \r\n    /**\r\n    * @notice Sets a permission for an acccount. Only validators can set a permission\r\n    * @param _who The address of the account that we are setting the value of an attribute for\r\n    * @param _methodsignature The signature of the method that the user is getting permission to run.\r\n    */\r\n    function setUserPermission(address _who, bytes4 _methodsignature) public onlyValidator {\r\n        permissions.setUserPermission(_who, _methodsignature);\r\n    }\r\n \r\n    /**\r\n    * @notice Removes a permission for an acccount. Only validators can remove a permission\r\n    * @param _who The address of the account that we are setting the value of an attribute for\r\n    * @param _methodsignature The signature of the method that the user will no longer be able to execute.\r\n    */\r\n    function removeUserPermission(address _who, bytes4 _methodsignature) public onlyValidator {\r\n        permissions.removeUserPermission(_who, _methodsignature);\r\n    }\r\n\r\n    /**\r\n    * @notice Checks whether an account has the permission to execute a function\r\n    * @param _who The address of the account\r\n    * @param _methodsignature The signature of the method in question\r\n    * @return A boolean indicating whether the user has permission or not\r\n    */\r\n    function hasUserPermission(address _who, bytes4 _methodsignature) public view returns (bool) {\r\n        return permissions.hasUserPermission(_who,_methodsignature);\r\n    }\r\n\r\n    /**\r\n    * @notice Sets a permission within the list of permissions.\r\n    * @param _methodsignature Signature of the method that this permission controls.\r\n    * @param _permissionName A \"slug\" name for this permission (e.g. \"canMint\").\r\n    * @param _permissionDescription A lengthier description for this permission (e.g. \"Allows user to mint tokens\").\r\n    * @param _contractName Name of the contract that the method belongs to.\r\n    */\r\n    function addPermission(\r\n        bytes4 _methodsignature, \r\n        string _permissionName, \r\n        string _permissionDescription,\r\n        string _contractName) \r\n    public onlyValidator {\r\n        permissions.addPermission(_methodsignature, _permissionName, _permissionDescription, _contractName);\r\n    }\r\n\r\n    function getPermission(bytes4 _methodsignature) public view returns\r\n            (string name, \r\n            string description, \r\n            string contract_name) {\r\n        return (permissions.permissions(_methodsignature));\r\n    }\r\n\r\n    /**\r\n    * @notice Removes a permission the list of permissions.\r\n    * @param _methodsignature Signature of the method that this permission controls.\r\n    */\r\n    function removePermission(bytes4 _methodsignature) public onlyValidator {\r\n        permissions.removePermission(_methodsignature);\r\n    }\r\n\r\n    /**\r\n    * @notice Checks whether a method signature is a valid permission\r\n    * @param _methodsignature The signature of the method in question\r\n    * @return A boolean indicating whether the permission is valid or not\r\n    */\r\n    function isPermission(bytes4 _methodsignature) public view returns (bool) {\r\n        return permissions.isPermission(_methodsignature);\r\n    }\r\n}",
  "sourcePath": "C:\\Users\\npain\\Projects\\Carbon\\fiat_gateway\\contracts\\regulator\\Regulator.sol",
  "compiler": {
    "name": "solc",
    "version": "0.4.24+commit.e67f0147.Emscripten.clang"
  },
  "schemaVersion": "2.0.1",
  "updatedAt": "2018-08-17T20:11:37.929Z"
}