{
  "contractName": "RegulatorService",
  "abi": [
    {
      "constant": false,
      "inputs": [],
      "name": "renounceOwnership",
      "outputs": [],
      "payable": false,
      "stateMutability": "nonpayable",
      "type": "function"
    },
    {
      "constant": true,
      "inputs": [],
      "name": "owner",
      "outputs": [
        {
          "name": "",
          "type": "address"
        }
      ],
      "payable": false,
      "stateMutability": "view",
      "type": "function"
    },
    {
      "constant": false,
      "inputs": [
        {
          "name": "_newOwner",
          "type": "address"
        }
      ],
      "name": "transferOwnership",
      "outputs": [],
      "payable": false,
      "stateMutability": "nonpayable",
      "type": "function"
    },
    {
      "anonymous": false,
      "inputs": [
        {
          "indexed": true,
          "name": "who",
          "type": "address"
        },
        {
          "indexed": false,
          "name": "attribute",
          "type": "string"
        },
        {
          "indexed": false,
          "name": "value",
          "type": "uint256"
        },
        {
          "indexed": false,
          "name": "notes",
          "type": "string"
        },
        {
          "indexed": true,
          "name": "adminAddr",
          "type": "address"
        },
        {
          "indexed": false,
          "name": "timestamp",
          "type": "uint256"
        }
      ],
      "name": "SetAttribute",
      "type": "event"
    },
    {
      "anonymous": false,
      "inputs": [
        {
          "indexed": true,
          "name": "previousOwner",
          "type": "address"
        }
      ],
      "name": "OwnershipRenounced",
      "type": "event"
    },
    {
      "anonymous": false,
      "inputs": [
        {
          "indexed": true,
          "name": "previousOwner",
          "type": "address"
        },
        {
          "indexed": true,
          "name": "newOwner",
          "type": "address"
        }
      ],
      "name": "OwnershipTransferred",
      "type": "event"
    },
    {
      "constant": false,
      "inputs": [
        {
          "name": "_who",
          "type": "address"
        },
        {
          "name": "_attribute",
          "type": "string"
        },
        {
          "name": "_value",
          "type": "uint256"
        },
        {
          "name": "_notes",
          "type": "string"
        }
      ],
      "name": "setAttribute",
      "outputs": [],
      "payable": false,
      "stateMutability": "nonpayable",
      "type": "function"
    },
    {
      "constant": true,
      "inputs": [
        {
          "name": "_who",
          "type": "address"
        },
        {
          "name": "_attribute",
          "type": "string"
        }
      ],
      "name": "hasAttribute",
      "outputs": [
        {
          "name": "",
          "type": "bool"
        }
      ],
      "payable": false,
      "stateMutability": "view",
      "type": "function"
    }
  ],
  "bytecode": "0x6080604052336000806101000a81548173ffffffffffffffffffffffffffffffffffffffff021916908373ffffffffffffffffffffffffffffffffffffffff1602179055506109b2806100536000396000f30060806040526004361061006d576000357c0100000000000000000000000000000000000000000000000000000000900463ffffffff1680630b7c45a21461007257806369c23d9a14610113578063715018a6146101ec5780638da5cb5b14610203578063f2fde38b1461025a575b600080fd5b34801561007e57600080fd5b506100f9600480360381019080803573ffffffffffffffffffffffffffffffffffffffff169060200190929190803590602001908201803590602001908080601f016020809104026020016040519081016040528093929190818152602001838380828437820191505050505050919291929050505061029d565b604051808215151515815260200191505060405180910390f35b34801561011f57600080fd5b506101ea600480360381019080803573ffffffffffffffffffffffffffffffffffffffff169060200190929190803590602001908201803590602001908080601f016020809104026020016040519081016040528093929190818152602001838380828437820191505050505050919291929080359060200190929190803590602001908201803590602001908080601f0160208091040260200160405190810160405280939291908181526020018383808284378201915050505050509192919290505050610356565b005b3480156101f857600080fd5b50610201610659565b005b34801561020f57600080fd5b5061021861075b565b604051808273ffffffffffffffffffffffffffffffffffffffff1673ffffffffffffffffffffffffffffffffffffffff16815260200191505060405180910390f35b34801561026657600080fd5b5061029b600480360381019080803573ffffffffffffffffffffffffffffffffffffffff169060200190929190505050610780565b005b600080600160008573ffffffffffffffffffffffffffffffffffffffff1673ffffffffffffffffffffffffffffffffffffffff168152602001908152602001600020836040518082805190602001908083835b60208310151561031557805182526020820191506020810190506020830392506102f0565b6001836020036101000a0380198251168184511680821785525050505050509050019150509081526020016040518091039020600001541415905092915050565b6000809054906101000a900473ffffffffffffffffffffffffffffffffffffffff1673ffffffffffffffffffffffffffffffffffffffff163373ffffffffffffffffffffffffffffffffffffffff161415156103b157600080fd5b6080604051908101604052808381526020018281526020013373ffffffffffffffffffffffffffffffffffffffff16815260200142815250600160008673ffffffffffffffffffffffffffffffffffffffff1673ffffffffffffffffffffffffffffffffffffffff168152602001908152602001600020846040518082805190602001908083835b60208310151561045e5780518252602082019150602081019050602083039250610439565b6001836020036101000a03801982511681845116808217855250505050505090500191505090815260200160405180910390206000820151816000015560208201518160010190805190602001906104b79291906108e1565b5060408201518160020160006101000a81548173ffffffffffffffffffffffffffffffffffffffff021916908373ffffffffffffffffffffffffffffffffffffffff160217905550606082015181600301559050503373ffffffffffffffffffffffffffffffffffffffff168473ffffffffffffffffffffffffffffffffffffffff167f37fdf9d79a7241e757f5d7cbf5eb03d6298dbbb2453a2e44df5efcd6f0ec1a8885858542604051808060200185815260200180602001848152602001838103835287818151815260200191508051906020019080838360005b838110156105af578082015181840152602081019050610594565b50505050905090810190601f1680156105dc5780820380516001836020036101000a031916815260200191505b50838103825285818151815260200191508051906020019080838360005b838110156106155780820151818401526020810190506105fa565b50505050905090810190601f1680156106425780820380516001836020036101000a031916815260200191505b50965050505050505060405180910390a350505050565b6000809054906101000a900473ffffffffffffffffffffffffffffffffffffffff1673ffffffffffffffffffffffffffffffffffffffff163373ffffffffffffffffffffffffffffffffffffffff161415156106b457600080fd5b6000809054906101000a900473ffffffffffffffffffffffffffffffffffffffff1673ffffffffffffffffffffffffffffffffffffffff167ff8df31144d9c2f0f6b59d69b8b98abd5459d07f2742c4df920b25aae33c6482060405160405180910390a260008060006101000a81548173ffffffffffffffffffffffffffffffffffffffff021916908373ffffffffffffffffffffffffffffffffffffffff160217905550565b6000809054906101000a900473ffffffffffffffffffffffffffffffffffffffff1681565b6000809054906101000a900473ffffffffffffffffffffffffffffffffffffffff1673ffffffffffffffffffffffffffffffffffffffff163373ffffffffffffffffffffffffffffffffffffffff161415156107db57600080fd5b6107e4816107e7565b50565b600073ffffffffffffffffffffffffffffffffffffffff168173ffffffffffffffffffffffffffffffffffffffff161415151561082357600080fd5b8073ffffffffffffffffffffffffffffffffffffffff166000809054906101000a900473ffffffffffffffffffffffffffffffffffffffff1673ffffffffffffffffffffffffffffffffffffffff167f8be0079c531659141344cd1fd0a4f28419497f9722a3daafe3b4186f6b6457e060405160405180910390a3806000806101000a81548173ffffffffffffffffffffffffffffffffffffffff021916908373ffffffffffffffffffffffffffffffffffffffff16021790555050565b828054600181600116156101000203166002900490600052602060002090601f016020900481019282601f1061092257805160ff1916838001178555610950565b82800160010185558215610950579182015b8281111561094f578251825591602001919060010190610934565b5b50905061095d9190610961565b5090565b61098391905b8082111561097f576000816000905550600101610967565b5090565b905600a165627a7a723058202de7346ef20f7b5fb30bc3e3fa756e0bea7f9ce71ef553119a93f56f794738710029",
  "source": "pragma solidity ^0.4.23;\r\n\r\nimport \"openzeppelin-solidity/contracts/ownership/Ownable.sol\";\r\n\r\n// Owner of this contract can update token-level settings\r\ncontract RegulatorService is Ownable {\r\n\t// Stores arbitrary attributes for users. An example use case is an ERC20\r\n    // token that requires its users to go through a KYC/AML check - in this case\r\n    // a validator can set an account's \"hasPassedKYC/AML\" attribute to 1 to indicate\r\n    // that account can use the token. This mapping stores that value (1, in the\r\n    // example) as well as which validator last set the value and at what time,\r\n    // so that e.g. the check can be renewed at appropriate intervals.\r\n\tmapping (address => mapping (string => AttributeData)) private attributes;\r\n\r\n\tstruct AttributeData {\r\n\t\tuint256 value;\r\n\t\tstring notes;\r\n\t\taddress adminAddr;\r\n\t\tuint256 timestamp;\r\n\t}\r\n\r\n\t// Events\r\n\tevent SetAttribute(address indexed who, string attribute, uint256 value, string notes, address indexed adminAddr, uint256 timestamp);\r\n\r\n\t// Methods\r\n\r\n\t/**\r\n\t* @dev Sets an attribute for an acccount\r\n\t* @param _who The address of the account that we are setting the value of an attribute for\r\n\t* @param _attribute The attribute (eg. \"KYC\") in question\r\n\t* @param _value Whether the account has this attribute or not\r\n\t* @param _notes Additional metadata\r\n\t*/\r\n\tfunction setAttribute(address _who, string _attribute, uint256 _value, string _notes) onlyOwner public {\r\n\t\tattributes[_who][_attribute] = AttributeData(_value, _notes, msg.sender, block.timestamp);\r\n\t\temit SetAttribute(_who, _attribute, _value, _notes, msg.sender, block.timestamp);\r\n\t}\r\n\r\n\t/**\r\n\t* @dev Checks whether an account has an attribute \r\n\t* @param _who The address of the account that we are checking the value of an attribute for\r\n\t* @param _attribute The attribute (eg. \"KYC\") in question\r\n\t* @return A boolean to determine whether the account has the attribute\r\n\t*/\r\n\tfunction hasAttribute(address _who, string _attribute) public view returns (bool) {\r\n\t\treturn attributes[_who][_attribute].value != 0;\r\n\t}\r\n}",
  "sourcePath": "C:\\Users\\npain\\Projects\\Carbon\\fiat_gateway\\contracts\\RegulatorService.sol",
  "compiler": {
    "name": "solc",
    "version": "0.4.24+commit.e67f0147.Emscripten.clang"
  },
  "schemaVersion": "2.0.1",
  "updatedAt": "2018-06-28T16:37:10.149Z"
}