{
  "contractName": "RegulatorProxyFactory",
  "abi": [
    {
      "constant": true,
      "inputs": [
        {
          "name": "",
          "type": "uint256"
        }
      ],
      "name": "regulators",
      "outputs": [
        {
          "name": "",
          "type": "address"
        }
      ],
      "payable": false,
      "stateMutability": "view",
      "type": "function"
    },
    {
      "anonymous": false,
      "inputs": [
        {
          "indexed": false,
          "name": "newRegulator",
          "type": "address"
        },
        {
          "indexed": false,
          "name": "index",
          "type": "uint256"
        }
      ],
      "name": "CreatedRegulatorProxy",
      "type": "event"
    },
    {
      "constant": false,
      "inputs": [
        {
          "name": "regulatorImplementation",
          "type": "address"
        }
      ],
      "name": "createRegulatorProxy",
      "outputs": [],
      "payable": false,
      "stateMutability": "nonpayable",
      "type": "function"
    },
    {
      "constant": false,
      "inputs": [
        {
          "name": "regulator",
          "type": "address"
        }
      ],
      "name": "addAllPermissions",
      "outputs": [],
      "payable": false,
      "stateMutability": "nonpayable",
      "type": "function"
    },
    {
      "constant": true,
      "inputs": [],
      "name": "getCount",
      "outputs": [
        {
          "name": "",
          "type": "uint256"
        }
      ],
      "payable": false,
      "stateMutability": "view",
      "type": "function"
    },
    {
      "constant": true,
      "inputs": [
        {
          "name": "i",
          "type": "uint256"
        }
      ],
      "name": "getRegulatorProxy",
      "outputs": [
        {
          "name": "",
          "type": "address"
        }
      ],
      "payable": false,
      "stateMutability": "view",
      "type": "function"
    }
  ],
  "bytecode": "0x608060405234801561001057600080fd5b50612095806100206000396000f3006080604052600436106100535763ffffffff60e060020a600035041663286ae97f811461005857806353986e751461007b5780635b508cf0146100af5780636ffa1ea7146100d0578063a87d942c146100e8575b600080fd5b34801561006457600080fd5b50610079600160a060020a036004351661010f565b005b34801561008757600080fd5b50610093600435610707565b60408051600160a060020a039092168252519081900360200190f35b3480156100bb57600080fd5b50610079600160a060020a036004351661072f565b3480156100dc57600080fd5b50610093600435610912565b3480156100f457600080fd5b506100fd6109bb565b60408051918252519081900360200190f35b604080517f4d238c8e0000000000000000000000000000000000000000000000000000000081523060048201529051600160a060020a03831691634d238c8e91602480830192600092919082900301818387803b15801561016f57600080fd5b505af1158015610183573d6000803e3d6000fd5b5050505080600160a060020a031663780bfed082600160a060020a03166388f14b0e6040518163ffffffff1660e060020a028152600401602060405180830381600087803b1580156101d457600080fd5b505af11580156101e8573d6000803e3d6000fd5b505050506040513d60208110156101fe57600080fd5b50516040805160e060020a63ffffffff8516028152600160e060020a031990921660048301526080602483015260006084830181905260c0604484015260c483018190526101006064840152610104830181905290516101448084019382900301818387803b15801561027057600080fd5b505af1158015610284573d6000803e3d6000fd5b5050505080600160a060020a031663780bfed082600160a060020a031663ab96cb466040518163ffffffff1660e060020a028152600401602060405180830381600087803b1580156102d557600080fd5b505af11580156102e9573d6000803e3d6000fd5b505050506040513d60208110156102ff57600080fd5b50516040805160e060020a63ffffffff8516028152600160e060020a031990921660048301526080602483015260006084830181905260c0604484015260c483018190526101006064840152610104830181905290516101448084019382900301818387803b15801561037157600080fd5b505af1158015610385573d6000803e3d6000fd5b5050505080600160a060020a031663780bfed082600160a060020a0316638f959f546040518163ffffffff1660e060020a028152600401602060405180830381600087803b1580156103d657600080fd5b505af11580156103ea573d6000803e3d6000fd5b505050506040513d602081101561040057600080fd5b50516040805160e060020a63ffffffff8516028152600160e060020a031990921660048301526080602483015260006084830181905260c0604484015260c483018190526101006064840152610104830181905290516101448084019382900301818387803b15801561047257600080fd5b505af1158015610486573d6000803e3d6000fd5b5050505080600160a060020a031663780bfed082600160a060020a0316639491951b6040518163ffffffff1660e060020a028152600401602060405180830381600087803b1580156104d757600080fd5b505af11580156104eb573d6000803e3d6000fd5b505050506040513d602081101561050157600080fd5b50516040805160e060020a63ffffffff8516028152600160e060020a031990921660048301526080602483015260006084830181905260c0604484015260c483018190526101006064840152610104830181905290516101448084019382900301818387803b15801561057357600080fd5b505af1158015610587573d6000803e3d6000fd5b5050505080600160a060020a031663780bfed082600160a060020a0316638b7c81096040518163ffffffff1660e060020a028152600401602060405180830381600087803b1580156105d857600080fd5b505af11580156105ec573d6000803e3d6000fd5b505050506040513d602081101561060257600080fd5b50516040805160e060020a63ffffffff8516028152600160e060020a031990921660048301526080602483015260006084830181905260c0604484015260c483018190526101006064840152610104830181905290516101448084019382900301818387803b15801561067457600080fd5b505af1158015610688573d6000803e3d6000fd5b5050604080517f40a141ff0000000000000000000000000000000000000000000000000000000081523060048201529051600160a060020a03851693506340a141ff9250602480830192600092919082900301818387803b1580156106ec57600080fd5b505af1158015610700573d6000803e3d6000fd5b5050505050565b600080548290811061071557fe5b600091825260209091200154600160a060020a0316905081565b6000808261073b6109c1565b600160a060020a03909116815260405190819003602001906000f080158015610768573d6000803e3d6000fd5b50604080517f4d238c8e0000000000000000000000000000000000000000000000000000000081523360048201529051919350839250600160a060020a03831691634d238c8e9160248082019260009290919082900301818387803b1580156107d057600080fd5b505af11580156107e4573d6000803e3d6000fd5b505050506107f18161010f565b604080517ff2fde38b0000000000000000000000000000000000000000000000000000000081523360048201529051600160a060020a0384169163f2fde38b91602480830192600092919082900301818387803b15801561085157600080fd5b505af1158015610865573d6000803e3d6000fd5b505060008054600180820183559180527f290decd9548b62a8d60345a988386fc84ba6bc95484008f6362f93160ef3e56301805473ffffffffffffffffffffffffffffffffffffffff1916600160a060020a0387161790557f03c438f0cc356e051e1bcece6a83a35d5c1205342a7f62cc8c40d3b153fcc90092508491506108eb6109bb565b60408051600160a060020a03909416845291900360208301528051918290030190a1505050565b6000805482108015610925575060008210155b151561099257604080517f08c379a000000000000000000000000000000000000000000000000000000000815260206004820152600d60248201527f496e76616c696420696e64657800000000000000000000000000000000000000604482015290519081900360640190fd5b60008054839081106109a057fe5b600091825260209091200154600160a060020a031692915050565b60005490565b604051611698806109d2833901905600608060405234801561001057600080fd5b506040516020806200169883398101604081815291517f6f72672e7a657070656c696e6f732e70726f78792e696d706c656d656e74617482527f696f6e0000000000000000000000000000000000000000000000000000000000602083015291519081900360230190208190600080516020620016788339815191521461009357fe5b6100a5816401000000006100ca810204565b505060008054600160a060020a03199081163317909155600180549091169055610191565b60006100e2826401000000006113c061018982021704565b151561017557604080517f08c379a000000000000000000000000000000000000000000000000000000000815260206004820152603b60248201527f43616e6e6f742073657420612070726f787920696d706c656d656e746174696f60448201527f6e20746f2061206e6f6e2d636f6e747261637420616464726573730000000000606482015290519081900360840190fd5b506000805160206200167883398151915255565b6000903b1190565b6114d780620001a16000396000f30060806040526004361061013d5763ffffffff7c010000000000000000000000000000000000000000000000000000000060003504166314db6d5881146101475780631830f493146101895780631c870eee146102f75780633659cfe614610325578063395a7b301461034657806340a141ff146103685780634d238c8e146103895780634e71e0c8146103aa5780635317e444146103bf5780635c60da1b146103ed578063780bfed01461041e5780638707e2f41461050257806388f14b0e146105305780638b7c8109146105625780638da5cb5b146105775780638f959f541461058c578063933aa667146105a15780639491951b146105c3578063ab96cb46146105d8578063b8ccbd17146105ed578063e30c39781461060f578063f2fde38b14610624578063fa52c7d814610645578063facd743b14610666575b610145610687565b005b34801561015357600080fd5b50610175600160a060020a0360043516600160e060020a0319602435166106a1565b604080519115158252519081900360200190f35b34801561019557600080fd5b506101ab600160e060020a0319600435166106d8565b604080518215156060820152608080825286519082015285519091829160208084019284019160a08501918a019080838360005b838110156101f75781810151838201526020016101df565b50505050905090810190601f1680156102245780820380516001836020036101000a031916815260200191505b50848103835287518152875160209182019189019080838360005b8381101561025757818101518382015260200161023f565b50505050905090810190601f1680156102845780820380516001836020036101000a031916815260200191505b50848103825286518152865160209182019188019080838360005b838110156102b757818101518382015260200161029f565b50505050905090810190601f1680156102e45780820380516001836020036101000a031916815260200191505b5097505050505050505060405180910390f35b34801561030357600080fd5b50610145600160a060020a0360043516600160e060020a0319602435166108c5565b34801561033157600080fd5b50610145600160a060020a03600435166109e9565b34801561035257600080fd5b506101ab600160e060020a031960043516610a0c565b34801561037457600080fd5b50610145600160a060020a0360043516610be0565b34801561039557600080fd5b50610145600160a060020a0360043516610c40565b3480156103b657600080fd5b50610145610ca3565b3480156103cb57600080fd5b50610145600160a060020a0360043516600160e060020a031960243516610d2b565b3480156103f957600080fd5b50610402610e4c565b60408051600160a060020a039092168252519081900360200190f35b34801561042a57600080fd5b5060408051602060046024803582810135601f8101859004850286018501909652858552610145958335600160e060020a03191695369560449491939091019190819084018382808284375050604080516020601f89358b018035918201839004830284018301909452808352979a99988101979196509182019450925082915084018382808284375050604080516020601f89358b018035918201839004830284018301909452808352979a999881019791965091820194509250829150840183828082843750949750610e5c9650505050505050565b34801561050e57600080fd5b50610175600160a060020a0360043516600160e060020a031960243516610f97565b34801561053c57600080fd5b50610545610fb7565b60408051600160e060020a03199092168252519081900360200190f35b34801561056e57600080fd5b50610545610fec565b34801561058357600080fd5b50610402611021565b34801561059857600080fd5b50610545611030565b3480156105ad57600080fd5b50610175600160e060020a03196004351661108b565b3480156105cf57600080fd5b506105456110ad565b3480156105e457600080fd5b506105456110e2565b3480156105f957600080fd5b50610145600160e060020a03196004351661113d565b34801561061b57600080fd5b506104026111e6565b34801561063057600080fd5b50610145600160a060020a03600435166111f5565b34801561065157600080fd5b50610175600160a060020a0360043516611250565b34801561067257600080fd5b50610175600160a060020a0360043516611265565b61068f61069f565b61069f61069a611283565b6112a8565b565b600160a060020a0382166000908152600460209081526040808320600160e060020a03198516845290915290205460ff1692915050565b600160e060020a0319811660009081526002602081815260408084206003810154815483516101006001808416159190910260001901909216879004601f8101879004870282018701909552848152606097889788979196938601949086019360ff90911692918691908301828280156107935780601f1061076857610100808354040283529160200191610793565b820191906000526020600020905b81548152906001019060200180831161077657829003601f168201915b5050865460408051602060026001851615610100026000190190941693909304601f8101849004840282018401909252818152959950889450925084019050828280156108215780601f106107f657610100808354040283529160200191610821565b820191906000526020600020905b81548152906001019060200180831161080457829003601f168201915b5050855460408051602060026001851615610100026000190190941693909304601f8101849004840282018401909252818152959850879450925084019050828280156108af5780601f10610884576101008083540402835291602001916108af565b820191906000526020600020905b81548152906001019060200180831161089257829003601f168201915b5050505050915093509350935093509193509193565b6108ce33611265565b1515610912576040805160e560020a62461bcd028152602060048201526018602482015260008051602061148c833981519152604482015290519081900360640190fd5b600160e060020a0319811660009081526002602052604090206003015460ff1615156109ae576040805160e560020a62461bcd02815260206004820152603960248201527f5065726d697373696f6e206265696e6720736574206d75737420626520666f7260448201527f20612076616c6964206d6574686f64207369676e617475726500000000000000606482015290519081900360840190fd5b600160a060020a039091166000908152600460209081526040808320600160e060020a0319909416835292905220805460ff19166001179055565b600054600160a060020a03163314610a0057600080fd5b610a09816112cc565b50565b600260208181526000928352604092839020805484516001821615610100026000190190911693909304601f8101839004830284018301909452838352928391830182828015610a9d5780601f10610a7257610100808354040283529160200191610a9d565b820191906000526020600020905b815481529060010190602001808311610a8057829003601f168201915b505050505090806001018054600181600116156101000203166002900480601f016020809104026020016040519081016040528092919081815260200182805460018160011615610100020316600290048015610b3b5780601f10610b1057610100808354040283529160200191610b3b565b820191906000526020600020905b815481529060010190602001808311610b1e57829003601f168201915b50505060028085018054604080516020601f6000196101006001871615020190941695909504928301859004850281018501909152818152959695945090925090830182828015610bcd5780601f10610ba257610100808354040283529160200191610bcd565b820191906000526020600020905b815481529060010190602001808311610bb057829003601f168201915b5050506003909301549192505060ff1684565b600054600160a060020a03163314610bf757600080fd5b600160a060020a038116600081815260036020526040808220805460ff19169055517fe1434e25d6611e0db941968fdc97811c982ac1602e951637d206f5fdda9dd8f19190a250565b600054600160a060020a03163314610c5757600080fd5b600160a060020a038116600081815260036020526040808220805460ff19166001179055517fe366c1c0452ed8eec96861e9e54141ebff23c9ec89fe27b996b45f5ec38849879190a250565b600154600160a060020a03163314610cba57600080fd5b60015460008054604051600160a060020a0393841693909116917f8be0079c531659141344cd1fd0a4f28419497f9722a3daafe3b4186f6b6457e091a3600180546000805473ffffffffffffffffffffffffffffffffffffffff19908116600160a060020a03841617909155169055565b610d3433611265565b1515610d78576040805160e560020a62461bcd028152602060048201526018602482015260008051602061148c833981519152604482015290519081900360640190fd5b600160e060020a0319811660009081526002602052604090206003015460ff161515610e14576040805160e560020a62461bcd02815260206004820152603d60248201527f5065726d697373696f6e206265696e672072656d6f766564206d75737420626560448201527f20666f7220612076616c6964206d6574686f64207369676e6174757265000000606482015290519081900360840190fd5b600160a060020a039091166000908152600460209081526040808320600160e060020a0319909416835292905220805460ff19169055565b6000610e56611283565b90505b90565b610e646113c8565b610e6d33611265565b1515610eb1576040805160e560020a62461bcd028152602060048201526018602482015260008051602061148c833981519152604482015290519081900360640190fd5b5060408051608081018252848152602080820185905281830184905260016060830152600160e060020a03198716600090815260028252929092208151805192938493610f0192849201906113f3565b506020828101518051610f1a92600185019201906113f3565b5060408201518051610f369160028401916020909101906113f3565b50606091909101516003909101805460ff191691151591909117905560408051600160e060020a03198716815290517f6195913f4ea9fc2f5193c9f6763975b23790b3be094b1eb18f31843739005512916020908290030190a15050505050565b600460209081526000928352604080842090915290825290205460ff1681565b604080517f6d696e7428616464726573732c75696e743235362900000000000000000000008152905190819003601501902081565b604080517f6d696e744355534428616464726573732c75696e7432353629000000000000008152905190819003601901902081565b600054600160a060020a031681565b604080517f617070726f7665426c61636b6c6973746564416464726573735370656e64657281527f28616464726573732900000000000000000000000000000000000000000000006020820152905190819003602901902081565b600160e060020a03191660009081526002602052604090206003015460ff1690565b604080517f626c61636b6c69737465642829000000000000000000000000000000000000008152905190819003600d01902081565b604080517f64657374726f79426c61636b6c6973746564546f6b656e73286164647265737381527f2c75696e743235362900000000000000000000000000000000000000000000006020820152905190819003602901902081565b61114633611265565b151561118a576040805160e560020a62461bcd028152602060048201526018602482015260008051602061148c833981519152604482015290519081900360640190fd5b600160e060020a03198116600081815260026020908152604091829020600301805460ff19169055815192835290517f65cd5526557cbd93f0739d00ffcdf8f4a663eb2ed509203d884b3470158724c19281900390910190a150565b600154600160a060020a031681565b600054600160a060020a0316331461120c57600080fd5b600160a060020a038116151561122157600080fd5b6001805473ffffffffffffffffffffffffffffffffffffffff1916600160a060020a0392909216919091179055565b60036020526000908152604090205460ff1681565b600160a060020a031660009081526003602052604090205460ff1690565b7f7050c9e0f4ca769c69bd3a8ef740bc37934f8e2c036e5a723fd8ee048ed3f8c35490565b3660008037600080366000845af43d6000803e8080156112c7573d6000f35b3d6000fd5b6112d581611314565b60408051600160a060020a038316815290517fbc7cd75a20ee27fd9adebab32041f755214dbc6bffa90cc0225b39da2e5c2d3b9181900360200190a150565b600061131f826113c0565b151561139b576040805160e560020a62461bcd02815260206004820152603b60248201527f43616e6e6f742073657420612070726f787920696d706c656d656e746174696f60448201527f6e20746f2061206e6f6e2d636f6e747261637420616464726573730000000000606482015290519081900360840190fd5b507f7050c9e0f4ca769c69bd3a8ef740bc37934f8e2c036e5a723fd8ee048ed3f8c355565b6000903b1190565b6080604051908101604052806060815260200160608152602001606081526020016000151581525090565b828054600181600116156101000203166002900490600052602060002090601f016020900481019282601f1061143457805160ff1916838001178555611461565b82800160010185558215611461579182015b82811115611461578251825591602001919060010190611446565b5061146d929150611471565b5090565b610e5991905b8082111561146d5760008155600101611477560053656e646572206d7573742062652076616c696461746f720000000000000000a165627a7a7230582087079bd866911fa615a6600b5e387e488444c92802cace562bdb2a1af804248000297050c9e0f4ca769c69bd3a8ef740bc37934f8e2c036e5a723fd8ee048ed3f8c3a165627a7a72305820b74027eb953f0999ff34e118c3deb16b6da1c16c8a07fa16ee3d3aca17837bbe0029",
  "source": "pragma solidity ^0.4.24;\n\nimport \"../regulator/RegulatorProxy.sol\";\nimport \"../regulator/Regulator.sol\";\n\n/**\n*\n* @dev RegulatorProxyFactory creates new RegulatorProxy contracts with new data storage sheets, properly configured\n* with ownership, and the proxy logic implementations are based on a user-specified Regulator. \n*\n**/\ncontract RegulatorProxyFactory {\n\n    // TODO: Instead of a single array of addresses, this should be a mapping or an array\n    // of objects of type { address: ...new_regulator, type: whitelisted_or_cusd }\n    address[] public regulators;\n\n    // Events\n    event CreatedRegulatorProxy(address newRegulator, uint256 index);\n\n    /**\n    *\n    * @dev generate a new proxyaddress that users can cast to a Regulator or RegulatorProxy. The\n    * proxy has empty data storage contracts connected to it and it is set with an initial logic contract\n    * to which it will delegate functionality\n    * @notice the method caller will have to claim ownership of regulators since regulators are claimable\n    * @param regulatorImplementation the address of the logic contract that the proxy will initialize its implementation to\n    *\n    **/\n    function createRegulatorProxy(address regulatorImplementation) public {\n\n        // Store new data storage contracts for regulator proxy\n        address proxy = address(new RegulatorProxy(regulatorImplementation));\n        Regulator newRegulator = Regulator(proxy);\n\n        // Testing: Add msg.sender as a validator, add all permissions\n        newRegulator.addValidator(msg.sender);\n        addAllPermissions(newRegulator);\n\n        // The function caller should own the proxy contract, so they will need to claim ownership\n        RegulatorProxy(proxy).transferOwnership(msg.sender);\n\n        regulators.push(proxy);\n        emit CreatedRegulatorProxy(proxy, getCount()-1);\n    }\n\n    /**\n    *\n    * @dev Add all permission signatures to regulator\n    *\n    **/\n    function addAllPermissions(Regulator regulator) public {\n\n        // Make this contract a temporary validator to add all permissions\n        regulator.addValidator(this);\n        regulator.addPermission(regulator.MINT_SIG(), \"\", \"\", \"\" );\n        regulator.addPermission(regulator.DESTROY_BLACKLISTED_TOKENS_SIG(), \"\", \"\", \"\" );\n        regulator.addPermission(regulator.APPROVE_BLACKLISTED_ADDRESS_SPENDER_SIG(), \"\", \"\", \"\" );\n        regulator.addPermission(regulator.BLACKLISTED_SIG(), \"\", \"\", \"\" );\n        regulator.addPermission(regulator.MINT_CUSD_SIG(), \"\", \"\", \"\" );\n        regulator.removeValidator(this);\n    }\n\n    // Return number of proxies created \n    function getCount() public view returns (uint256) {\n        return regulators.length;\n    }\n\n    // Return the i'th created proxy. The most recently created proxy will be at position getCount()-1.\n    function getRegulatorProxy(uint256 i) public view returns(address) {\n        require((i < regulators.length) && (i >= 0), \"Invalid index\");\n        return regulators[i];\n    }\n}\n",
  "sourcePath": "/Users/nicholaspai/Carbon/fiat_gateway/contracts/factories/RegulatorProxyFactory.sol",
  "compiler": {
    "name": "solc",
    "version": "0.4.24+commit.e67f0147.Emscripten.clang"
  },
  "schemaVersion": "2.0.1",
  "updatedAt": "2018-12-13T18:27:59.727Z"
}