{
  "contractName": "RegulatorStorage",
  "abi": [
    {
      "constant": true,
      "inputs": [],
      "name": "permissions",
      "outputs": [
        {
          "name": "",
          "type": "address"
        }
      ],
      "payable": false,
      "stateMutability": "view",
      "type": "function"
    },
    {
      "constant": true,
      "inputs": [],
      "name": "validators",
      "outputs": [
        {
          "name": "",
          "type": "address"
        }
      ],
      "payable": false,
      "stateMutability": "view",
      "type": "function"
    },
    {
      "inputs": [
        {
          "name": "_permissions",
          "type": "address"
        },
        {
          "name": "_validators",
          "type": "address"
        }
      ],
      "payable": false,
      "stateMutability": "nonpayable",
      "type": "constructor"
    }
  ],
  "bytecode": "0x608060405234801561001057600080fd5b5060405160408061016483398101604052805160209091015160008054600160a060020a03938416600160a060020a0319918216179091556001805493909216921691909117905560fe806100666000396000f30060806040526004361060485763ffffffff7c0100000000000000000000000000000000000000000000000000000000600035041663ab8c71c08114604d578063ca1e7819146088575b600080fd5b348015605857600080fd5b50605f609a565b6040805173ffffffffffffffffffffffffffffffffffffffff9092168252519081900360200190f35b348015609357600080fd5b50605f60b6565b60005473ffffffffffffffffffffffffffffffffffffffff1681565b60015473ffffffffffffffffffffffffffffffffffffffff16815600a165627a7a7230582050cc9a5c21be788240349567bc58cb7bd266b985ff9e932db74d28dbc6bcb4da0029",
  "source": "pragma solidity ^0.4.24;\r\n\r\nimport \"./PermissionSheet.sol\";\r\nimport \"./ValidatorSheet.sol\";\r\n\r\n/**\r\n*\r\n* @dev contains a PermissionSheet and a ValidatorSheet\r\n*\r\n*/\r\ncontract RegulatorStorage {\r\n    /**\r\n    \tStorage\r\n    */\r\n    PermissionSheet public permissions;\r\n    ValidatorSheet public validators;\r\n\r\n    /**\r\n    * @dev a RegulatorStorage can set its storages only once, on construction\r\n    *\r\n    **/\r\n    constructor (address _permissions, address _validators) public {\r\n        permissions = PermissionSheet(_permissions);\r\n        validators = ValidatorSheet(_validators);\r\n    }\r\n}",
  "sourcePath": "C:\\Users\\npain\\Projects\\Carbon\\fiat_gateway\\contracts\\regulator\\dataStorage\\RegulatorStorage.sol",
  "compiler": {
    "name": "solc",
    "version": "0.4.24+commit.e67f0147.Emscripten.clang"
  },
  "schemaVersion": "2.0.1",
  "updatedAt": "2018-08-17T17:50:39.518Z"
}