{
  "contractName": "Regulator",
  "abi": [
    {
      "constant": true,
      "inputs": [],
      "name": "userPermissions",
      "outputs": [
        {
          "name": "",
          "type": "address"
        }
      ],
      "payable": false,
      "stateMutability": "view",
      "type": "function"
    },
    {
      "constant": true,
      "inputs": [],
      "name": "DESTROYSELF_SIG",
      "outputs": [
        {
          "name": "",
          "type": "bytes4"
        }
      ],
      "payable": false,
      "stateMutability": "view",
      "type": "function"
    },
    {
      "constant": false,
      "inputs": [],
      "name": "claimOwnership",
      "outputs": [],
      "payable": false,
      "stateMutability": "nonpayable",
      "type": "function"
    },
    {
      "constant": true,
      "inputs": [],
      "name": "DESTROYBLACKLIST_SIG",
      "outputs": [
        {
          "name": "",
          "type": "bytes4"
        }
      ],
      "payable": false,
      "stateMutability": "view",
      "type": "function"
    },
    {
      "constant": false,
      "inputs": [],
      "name": "renounceOwnership",
      "outputs": [],
      "payable": false,
      "stateMutability": "nonpayable",
      "type": "function"
    },
    {
      "constant": true,
      "inputs": [],
      "name": "MINT_SIG",
      "outputs": [
        {
          "name": "",
          "type": "bytes4"
        }
      ],
      "payable": false,
      "stateMutability": "view",
      "type": "function"
    },
    {
      "constant": true,
      "inputs": [],
      "name": "owner",
      "outputs": [
        {
          "name": "",
          "type": "address"
        }
      ],
      "payable": false,
      "stateMutability": "view",
      "type": "function"
    },
    {
      "constant": true,
      "inputs": [],
      "name": "availablePermissions",
      "outputs": [
        {
          "name": "",
          "type": "address"
        }
      ],
      "payable": false,
      "stateMutability": "view",
      "type": "function"
    },
    {
      "constant": true,
      "inputs": [
        {
          "name": "contractName",
          "type": "string"
        },
        {
          "name": "migrationId",
          "type": "string"
        }
      ],
      "name": "isMigrated",
      "outputs": [
        {
          "name": "",
          "type": "bool"
        }
      ],
      "payable": false,
      "stateMutability": "view",
      "type": "function"
    },
    {
      "constant": true,
      "inputs": [],
      "name": "validators",
      "outputs": [
        {
          "name": "",
          "type": "address"
        }
      ],
      "payable": false,
      "stateMutability": "view",
      "type": "function"
    },
    {
      "constant": true,
      "inputs": [],
      "name": "BURN_SIG",
      "outputs": [
        {
          "name": "",
          "type": "bytes4"
        }
      ],
      "payable": false,
      "stateMutability": "view",
      "type": "function"
    },
    {
      "constant": true,
      "inputs": [],
      "name": "pendingOwner",
      "outputs": [
        {
          "name": "",
          "type": "address"
        }
      ],
      "payable": false,
      "stateMutability": "view",
      "type": "function"
    },
    {
      "constant": false,
      "inputs": [
        {
          "name": "newOwner",
          "type": "address"
        }
      ],
      "name": "transferOwnership",
      "outputs": [],
      "payable": false,
      "stateMutability": "nonpayable",
      "type": "function"
    },
    {
      "anonymous": false,
      "inputs": [
        {
          "indexed": false,
          "name": "oldStorage",
          "type": "address"
        },
        {
          "indexed": false,
          "name": "newStorage",
          "type": "address"
        }
      ],
      "name": "SetPermissionStorage",
      "type": "event"
    },
    {
      "anonymous": false,
      "inputs": [
        {
          "indexed": false,
          "name": "oldStorage",
          "type": "address"
        },
        {
          "indexed": false,
          "name": "newStorage",
          "type": "address"
        }
      ],
      "name": "SetUserPermissionsStorage",
      "type": "event"
    },
    {
      "anonymous": false,
      "inputs": [
        {
          "indexed": false,
          "name": "oldStorage",
          "type": "address"
        },
        {
          "indexed": false,
          "name": "newStorage",
          "type": "address"
        }
      ],
      "name": "SetValidatorStorage",
      "type": "event"
    },
    {
      "anonymous": false,
      "inputs": [
        {
          "indexed": false,
          "name": "contractName",
          "type": "string"
        },
        {
          "indexed": false,
          "name": "migrationId",
          "type": "string"
        }
      ],
      "name": "Migrated",
      "type": "event"
    },
    {
      "anonymous": false,
      "inputs": [
        {
          "indexed": true,
          "name": "previousOwner",
          "type": "address"
        }
      ],
      "name": "OwnershipRenounced",
      "type": "event"
    },
    {
      "anonymous": false,
      "inputs": [
        {
          "indexed": true,
          "name": "previousOwner",
          "type": "address"
        },
        {
          "indexed": true,
          "name": "newOwner",
          "type": "address"
        }
      ],
      "name": "OwnershipTransferred",
      "type": "event"
    },
    {
      "constant": false,
      "inputs": [],
      "name": "initialize",
      "outputs": [],
      "payable": false,
      "stateMutability": "nonpayable",
      "type": "function"
    },
    {
      "constant": false,
      "inputs": [
        {
          "name": "_oldRegulator",
          "type": "address"
        }
      ],
      "name": "migrate",
      "outputs": [],
      "payable": false,
      "stateMutability": "nonpayable",
      "type": "function"
    },
    {
      "constant": false,
      "inputs": [],
      "name": "transferStorageOwnership",
      "outputs": [],
      "payable": false,
      "stateMutability": "nonpayable",
      "type": "function"
    },
    {
      "constant": false,
      "inputs": [
        {
          "name": "_who",
          "type": "address"
        }
      ],
      "name": "setMinter",
      "outputs": [],
      "payable": false,
      "stateMutability": "nonpayable",
      "type": "function"
    },
    {
      "constant": false,
      "inputs": [
        {
          "name": "_who",
          "type": "address"
        }
      ],
      "name": "removeMinter",
      "outputs": [],
      "payable": false,
      "stateMutability": "nonpayable",
      "type": "function"
    },
    {
      "constant": true,
      "inputs": [
        {
          "name": "_who",
          "type": "address"
        }
      ],
      "name": "isMinter",
      "outputs": [
        {
          "name": "",
          "type": "bool"
        }
      ],
      "payable": false,
      "stateMutability": "view",
      "type": "function"
    },
    {
      "constant": false,
      "inputs": [
        {
          "name": "_who",
          "type": "address"
        }
      ],
      "name": "setWhitelistedUser",
      "outputs": [],
      "payable": false,
      "stateMutability": "nonpayable",
      "type": "function"
    },
    {
      "constant": false,
      "inputs": [
        {
          "name": "_who",
          "type": "address"
        }
      ],
      "name": "setBlacklistedUser",
      "outputs": [],
      "payable": false,
      "stateMutability": "nonpayable",
      "type": "function"
    },
    {
      "constant": false,
      "inputs": [
        {
          "name": "_who",
          "type": "address"
        }
      ],
      "name": "setNonlistedUser",
      "outputs": [],
      "payable": false,
      "stateMutability": "nonpayable",
      "type": "function"
    },
    {
      "constant": true,
      "inputs": [
        {
          "name": "_who",
          "type": "address"
        }
      ],
      "name": "isWhitelistedUser",
      "outputs": [
        {
          "name": "",
          "type": "bool"
        }
      ],
      "payable": false,
      "stateMutability": "view",
      "type": "function"
    },
    {
      "constant": true,
      "inputs": [
        {
          "name": "_who",
          "type": "address"
        }
      ],
      "name": "isBlacklistedUser",
      "outputs": [
        {
          "name": "",
          "type": "bool"
        }
      ],
      "payable": false,
      "stateMutability": "view",
      "type": "function"
    },
    {
      "constant": true,
      "inputs": [
        {
          "name": "_who",
          "type": "address"
        }
      ],
      "name": "isNonlistedUser",
      "outputs": [
        {
          "name": "",
          "type": "bool"
        }
      ],
      "payable": false,
      "stateMutability": "view",
      "type": "function"
    },
    {
      "constant": false,
      "inputs": [
        {
          "name": "_who",
          "type": "address"
        },
        {
          "name": "_methodsignature",
          "type": "bytes4"
        }
      ],
      "name": "setPermission",
      "outputs": [],
      "payable": false,
      "stateMutability": "nonpayable",
      "type": "function"
    },
    {
      "constant": false,
      "inputs": [
        {
          "name": "_who",
          "type": "address"
        },
        {
          "name": "_methodsignature",
          "type": "bytes4"
        }
      ],
      "name": "removePermission",
      "outputs": [],
      "payable": false,
      "stateMutability": "nonpayable",
      "type": "function"
    },
    {
      "constant": true,
      "inputs": [
        {
          "name": "_who",
          "type": "address"
        },
        {
          "name": "_methodsignature",
          "type": "bytes4"
        }
      ],
      "name": "hasPermission",
      "outputs": [
        {
          "name": "",
          "type": "bool"
        }
      ],
      "payable": false,
      "stateMutability": "view",
      "type": "function"
    }
  ],
  "bytecode": "0x608060405260405180807f64657374726f7953656c66282900000000000000000000000000000000000000815250600d0190506040518091039020600560146101000a81548163ffffffff02191690837c01000000000000000000000000000000000000000000000000000000009004021790555060405180807f6275726e2875696e743235362900000000000000000000000000000000000000815250600d0190506040518091039020600560186101000a81548163ffffffff02191690837c01000000000000000000000000000000000000000000000000000000009004021790555060405180807f6d696e7428616464726573732c75696e74323536290000000000000000000000815250601501905060405180910390206005601c6101000a81548163ffffffff02191690837c01000000000000000000000000000000000000000000000000000000009004021790555060405180807f64657374726f79426c61636b6c6973746564546f6b656e73286164647265737381526020017f290000000000000000000000000000000000000000000000000000000000000081525060210190506040518091039020600660006101000a81548163ffffffff02191690837c010000000000000000000000000000000000000000000000000000000090040217905550336000806101000a81548173ffffffffffffffffffffffffffffffffffffffff021916908373ffffffffffffffffffffffffffffffffffffffff160217905550614738806102396000396000f30060806040526004361061016a576000357c0100000000000000000000000000000000000000000000000000000000900463ffffffff16806302abcae21461016f578063072b0515146101db57806309533303146102325780630b2f6d4114610275578063174d8b85146102e15780633092afd51461034a5780634d54dc961461038d5780634e71e0c8146103e8578063522f6e69146103ff578063546f877814610468578063715018a61461047f5780637ccce851146104965780638129fc1c146104f157806388f14b0e146105085780638da5cb5b14610571578063aa271e1a146105c8578063b2daee5c14610623578063bed98a0d1461067a578063c0bac1a8146106fe578063c56bea64146107c5578063ca1e781914610808578063cd4953911461085f578063ce5494bb146108a2578063cfbf1b90146108e5578063d88c271e1461094e578063e30c3978146109a9578063f2fde38b14610a00578063fca3b5aa14610a43575b600080fd5b34801561017b57600080fd5b506101d9600480360381019080803573ffffffffffffffffffffffffffffffffffffffff16906020019092919080357bffffffffffffffffffffffffffffffffffffffffffffffffffffffff19169060200190929190505050610a86565b005b3480156101e757600080fd5b506101f0610dbd565b604051808273ffffffffffffffffffffffffffffffffffffffff1673ffffffffffffffffffffffffffffffffffffffff16815260200191505060405180910390f35b34801561023e57600080fd5b50610273600480360381019080803573ffffffffffffffffffffffffffffffffffffffff169060200190929190505050610de3565b005b34801561028157600080fd5b506102df600480360381019080803573ffffffffffffffffffffffffffffffffffffffff16906020019092919080357bffffffffffffffffffffffffffffffffffffffffffffffffffffffff19169060200190929190505050611513565b005b3480156102ed57600080fd5b506102f661184a565b60405180827bffffffffffffffffffffffffffffffffffffffffffffffffffffffff19167bffffffffffffffffffffffffffffffffffffffffffffffffffffffff1916815260200191505060405180910390f35b34801561035657600080fd5b5061038b600480360381019080803573ffffffffffffffffffffffffffffffffffffffff169060200190929190505050611879565b005b34801561039957600080fd5b506103ce600480360381019080803573ffffffffffffffffffffffffffffffffffffffff169060200190929190505050611c6e565b604051808215151515815260200191505060405180910390f35b3480156103f457600080fd5b506103fd611ceb565b005b34801561040b57600080fd5b50610414611e8a565b60405180827bffffffffffffffffffffffffffffffffffffffffffffffffffffffff19167bffffffffffffffffffffffffffffffffffffffffffffffffffffffff1916815260200191505060405180910390f35b34801561047457600080fd5b5061047d611eb9565b005b34801561048b57600080fd5b50610494612195565b005b3480156104a257600080fd5b506104d7600480360381019080803573ffffffffffffffffffffffffffffffffffffffff169060200190929190505050612297565b604051808215151515815260200191505060405180910390f35b3480156104fd57600080fd5b50610506612313565b005b34801561051457600080fd5b5061051d61258f565b60405180827bffffffffffffffffffffffffffffffffffffffffffffffffffffffff19167bffffffffffffffffffffffffffffffffffffffffffffffffffffffff1916815260200191505060405180910390f35b34801561057d57600080fd5b506105866125be565b604051808273ffffffffffffffffffffffffffffffffffffffff1673ffffffffffffffffffffffffffffffffffffffff16815260200191505060405180910390f35b3480156105d457600080fd5b50610609600480360381019080803573ffffffffffffffffffffffffffffffffffffffff1690602001909291905050506125e3565b604051808215151515815260200191505060405180910390f35b34801561062f57600080fd5b50610638612621565b604051808273ffffffffffffffffffffffffffffffffffffffff1673ffffffffffffffffffffffffffffffffffffffff16815260200191505060405180910390f35b34801561068657600080fd5b506106e4600480360381019080803573ffffffffffffffffffffffffffffffffffffffff16906020019092919080357bffffffffffffffffffffffffffffffffffffffffffffffffffffffff19169060200190929190505050612647565b604051808215151515815260200191505060405180910390f35b34801561070a57600080fd5b506107ab600480360381019080803590602001908201803590602001908080601f0160208091040260200160405190810160405280939291908181526020018383808284378201915050505050509192919290803590602001908201803590602001908080601f016020809104026020016040519081016040528093929190818152602001838380828437820191505050505050919291929050505061278f565b604051808215151515815260200191505060405180910390f35b3480156107d157600080fd5b50610806600480360381019080803573ffffffffffffffffffffffffffffffffffffffff16906020019092919050505061287b565b005b34801561081457600080fd5b5061081d612fab565b604051808273ffffffffffffffffffffffffffffffffffffffff1673ffffffffffffffffffffffffffffffffffffffff16815260200191505060405180910390f35b34801561086b57600080fd5b506108a0600480360381019080803573ffffffffffffffffffffffffffffffffffffffff169060200190929190505050612fd1565b005b3480156108ae57600080fd5b506108e3600480360381019080803573ffffffffffffffffffffffffffffffffffffffff169060200190929190505050613701565b005b3480156108f157600080fd5b506108fa613cc2565b60405180827bffffffffffffffffffffffffffffffffffffffffffffffffffffffff19167bffffffffffffffffffffffffffffffffffffffffffffffffffffffff1916815260200191505060405180910390f35b34801561095a57600080fd5b5061098f600480360381019080803573ffffffffffffffffffffffffffffffffffffffff169060200190929190505050613cf1565b604051808215151515815260200191505060405180910390f35b3480156109b557600080fd5b506109be613d6d565b604051808273ffffffffffffffffffffffffffffffffffffffff1673ffffffffffffffffffffffffffffffffffffffff16815260200191505060405180910390f35b348015610a0c57600080fd5b50610a41600480360381019080803573ffffffffffffffffffffffffffffffffffffffff169060200190929190505050613d93565b005b348015610a4f57600080fd5b50610a84600480360381019080803573ffffffffffffffffffffffffffffffffffffffff169060200190929190505050613e32565b005b600560009054906101000a900473ffffffffffffffffffffffffffffffffffffffff1673ffffffffffffffffffffffffffffffffffffffff1663facd743b336040518263ffffffff167c0100000000000000000000000000000000000000000000000000000000028152600401808273ffffffffffffffffffffffffffffffffffffffff1673ffffffffffffffffffffffffffffffffffffffff168152602001915050602060405180830381600087803b158015610b4357600080fd5b505af1158015610b57573d6000803e3d6000fd5b505050506040513d6020811015610b6d57600080fd5b81019080805190602001909291905050501515610b8957600080fd5b600360009054906101000a900473ffffffffffffffffffffffffffffffffffffffff1673ffffffffffffffffffffffffffffffffffffffff1663933aa667826040518263ffffffff167c010000000000000000000000000000000000000000000000000000000002815260040180827bffffffffffffffffffffffffffffffffffffffffffffffffffffffff19167bffffffffffffffffffffffffffffffffffffffffffffffffffffffff19168152602001915050602060405180830381600087803b158015610c5857600080fd5b505af1158015610c6c573d6000803e3d6000fd5b505050506040513d6020811015610c8257600080fd5b81019080805190602001909291905050501515610c9e57600080fd5b600460009054906101000a900473ffffffffffffffffffffffffffffffffffffffff1673ffffffffffffffffffffffffffffffffffffffff166302abcae283836040518363ffffffff167c0100000000000000000000000000000000000000000000000000000000028152600401808373ffffffffffffffffffffffffffffffffffffffff1673ffffffffffffffffffffffffffffffffffffffff168152602001827bffffffffffffffffffffffffffffffffffffffffffffffffffffffff19167bffffffffffffffffffffffffffffffffffffffffffffffffffffffff1916815260200192505050600060405180830381600087803b158015610da157600080fd5b505af1158015610db5573d6000803e3d6000fd5b505050505050565b600460009054906101000a900473ffffffffffffffffffffffffffffffffffffffff1681565b600560009054906101000a900473ffffffffffffffffffffffffffffffffffffffff1673ffffffffffffffffffffffffffffffffffffffff1663facd743b336040518263ffffffff167c0100000000000000000000000000000000000000000000000000000000028152600401808273ffffffffffffffffffffffffffffffffffffffff1673ffffffffffffffffffffffffffffffffffffffff168152602001915050602060405180830381600087803b158015610ea057600080fd5b505af1158015610eb4573d6000803e3d6000fd5b505050506040513d6020811015610eca57600080fd5b81019080805190602001909291905050501515610ee657600080fd5b600360009054906101000a900473ffffffffffffffffffffffffffffffffffffffff1673ffffffffffffffffffffffffffffffffffffffff1663933aa667600560189054906101000a90047c0100000000000000000000000000000000000000000000000000000000026040518263ffffffff167c010000000000000000000000000000000000000000000000000000000002815260040180827bffffffffffffffffffffffffffffffffffffffffffffffffffffffff19167bffffffffffffffffffffffffffffffffffffffffffffffffffffffff19168152602001915050602060405180830381600087803b158015610fe057600080fd5b505af1158015610ff4573d6000803e3d6000fd5b505050506040513d602081101561100a57600080fd5b810190808051906020019092919050505015156110b5576040517f08c379a00000000000000000000000000000000000000000000000000000000081526004018080602001828103825260228152602001807f4275726e206d6574686f64206e6f7420737570706f7274656420627920746f6b81526020017f656e00000000000000000000000000000000000000000000000000000000000081525060400191505060405180910390fd5b600360009054906101000a900473ffffffffffffffffffffffffffffffffffffffff1673ffffffffffffffffffffffffffffffffffffffff1663933aa667600560149054906101000a90047c0100000000000000000000000000000000000000000000000000000000026040518263ffffffff167c010000000000000000000000000000000000000000000000000000000002815260040180827bffffffffffffffffffffffffffffffffffffffffffffffffffffffff19167bffffffffffffffffffffffffffffffffffffffffffffffffffffffff19168152602001915050602060405180830381600087803b1580156111af57600080fd5b505af11580156111c3573d6000803e3d6000fd5b505050506040513d60208110156111d957600080fd5b81019080805190602001909291905050501515611284576040517f08c379a000000000000000000000000000000000000000000000000000000000815260040180806020018281038252602b8152602001807f53656c662d6465737472756374206d6574686f64206e6f7420737570706f727481526020017f656420627920746f6b656e00000000000000000000000000000000000000000081525060400191505060405180910390fd5b600460009054906101000a900473ffffffffffffffffffffffffffffffffffffffff1673ffffffffffffffffffffffffffffffffffffffff166302abcae282600560189054906101000a90047c0100000000000000000000000000000000000000000000000000000000026040518363ffffffff167c0100000000000000000000000000000000000000000000000000000000028152600401808373ffffffffffffffffffffffffffffffffffffffff1673ffffffffffffffffffffffffffffffffffffffff168152602001827bffffffffffffffffffffffffffffffffffffffffffffffffffffffff19167bffffffffffffffffffffffffffffffffffffffffffffffffffffffff1916815260200192505050600060405180830381600087803b1580156113b257600080fd5b505af11580156113c6573d6000803e3d6000fd5b50505050600460009054906101000a900473ffffffffffffffffffffffffffffffffffffffff1673ffffffffffffffffffffffffffffffffffffffff16630b2f6d4182600560149054906101000a90047c0100000000000000000000000000000000000000000000000000000000026040518363ffffffff167c0100000000000000000000000000000000000000000000000000000000028152600401808373ffffffffffffffffffffffffffffffffffffffff1673ffffffffffffffffffffffffffffffffffffffff168152602001827bffffffffffffffffffffffffffffffffffffffffffffffffffffffff19167bffffffffffffffffffffffffffffffffffffffffffffffffffffffff1916815260200192505050600060405180830381600087803b1580156114f857600080fd5b505af115801561150c573d6000803e3d6000fd5b5050505050565b600560009054906101000a900473ffffffffffffffffffffffffffffffffffffffff1673ffffffffffffffffffffffffffffffffffffffff1663facd743b336040518263ffffffff167c0100000000000000000000000000000000000000000000000000000000028152600401808273ffffffffffffffffffffffffffffffffffffffff1673ffffffffffffffffffffffffffffffffffffffff168152602001915050602060405180830381600087803b1580156115d057600080fd5b505af11580156115e4573d6000803e3d6000fd5b505050506040513d60208110156115fa57600080fd5b8101908080519060200190929190505050151561161657600080fd5b600360009054906101000a900473ffffffffffffffffffffffffffffffffffffffff1673ffffffffffffffffffffffffffffffffffffffff1663933aa667826040518263ffffffff167c010000000000000000000000000000000000000000000000000000000002815260040180827bffffffffffffffffffffffffffffffffffffffffffffffffffffffff19167bffffffffffffffffffffffffffffffffffffffffffffffffffffffff19168152602001915050602060405180830381600087803b1580156116e557600080fd5b505af11580156116f9573d6000803e3d6000fd5b505050506040513d602081101561170f57600080fd5b8101908080519060200190929190505050151561172b57600080fd5b600460009054906101000a900473ffffffffffffffffffffffffffffffffffffffff1673ffffffffffffffffffffffffffffffffffffffff16630b2f6d4183836040518363ffffffff167c0100000000000000000000000000000000000000000000000000000000028152600401808373ffffffffffffffffffffffffffffffffffffffff1673ffffffffffffffffffffffffffffffffffffffff168152602001827bffffffffffffffffffffffffffffffffffffffffffffffffffffffff19167bffffffffffffffffffffffffffffffffffffffffffffffffffffffff1916815260200192505050600060405180830381600087803b15801561182e57600080fd5b505af1158015611842573d6000803e3d6000fd5b505050505050565b600560149054906101000a90047c01000000000000000000000000000000000000000000000000000000000281565b600560009054906101000a900473ffffffffffffffffffffffffffffffffffffffff1673ffffffffffffffffffffffffffffffffffffffff1663facd743b336040518263ffffffff167c0100000000000000000000000000000000000000000000000000000000028152600401808273ffffffffffffffffffffffffffffffffffffffff1673ffffffffffffffffffffffffffffffffffffffff168152602001915050602060405180830381600087803b15801561193657600080fd5b505af115801561194a573d6000803e3d6000fd5b505050506040513d602081101561196057600080fd5b8101908080519060200190929190505050151561197c57600080fd5b600360009054906101000a900473ffffffffffffffffffffffffffffffffffffffff1673ffffffffffffffffffffffffffffffffffffffff1663933aa6676005601c9054906101000a90047c0100000000000000000000000000000000000000000000000000000000026040518263ffffffff167c010000000000000000000000000000000000000000000000000000000002815260040180827bffffffffffffffffffffffffffffffffffffffffffffffffffffffff19167bffffffffffffffffffffffffffffffffffffffffffffffffffffffff19168152602001915050602060405180830381600087803b158015611a7657600080fd5b505af1158015611a8a573d6000803e3d6000fd5b505050506040513d6020811015611aa057600080fd5b81019080805190602001909291905050501515611b25576040517f08c379a000000000000000000000000000000000000000000000000000000000815260040180806020018281038252601e8152602001807f4d696e74696e67206e6f7420737570706f7274656420627920746f6b656e000081525060200191505060405180910390fd5b600460009054906101000a900473ffffffffffffffffffffffffffffffffffffffff1673ffffffffffffffffffffffffffffffffffffffff16630b2f6d41826005601c9054906101000a90047c0100000000000000000000000000000000000000000000000000000000026040518363ffffffff167c0100000000000000000000000000000000000000000000000000000000028152600401808373ffffffffffffffffffffffffffffffffffffffff1673ffffffffffffffffffffffffffffffffffffffff168152602001827bffffffffffffffffffffffffffffffffffffffffffffffffffffffff19167bffffffffffffffffffffffffffffffffffffffffffffffffffffffff1916815260200192505050600060405180830381600087803b158015611c5357600080fd5b505af1158015611c67573d6000803e3d6000fd5b5050505050565b6000611ca582600560189054906101000a90047c010000000000000000000000000000000000000000000000000000000002612647565b158015611ce45750611ce282600560149054906101000a90047c010000000000000000000000000000000000000000000000000000000002612647565b155b9050919050565b600160009054906101000a900473ffffffffffffffffffffffffffffffffffffffff1673ffffffffffffffffffffffffffffffffffffffff163373ffffffffffffffffffffffffffffffffffffffff16141515611d4757600080fd5b600160009054906101000a900473ffffffffffffffffffffffffffffffffffffffff1673ffffffffffffffffffffffffffffffffffffffff166000809054906101000a900473ffffffffffffffffffffffffffffffffffffffff1673ffffffffffffffffffffffffffffffffffffffff167f8be0079c531659141344cd1fd0a4f28419497f9722a3daafe3b4186f6b6457e060405160405180910390a3600160009054906101000a900473ffffffffffffffffffffffffffffffffffffffff166000806101000a81548173ffffffffffffffffffffffffffffffffffffffff021916908373ffffffffffffffffffffffffffffffffffffffff1602179055506000600160006101000a81548173ffffffffffffffffffffffffffffffffffffffff021916908373ffffffffffffffffffffffffffffffffffffffff160217905550565b600660009054906101000a90047c01000000000000000000000000000000000000000000000000000000000281565b6000809054906101000a900473ffffffffffffffffffffffffffffffffffffffff1673ffffffffffffffffffffffffffffffffffffffff163373ffffffffffffffffffffffffffffffffffffffff16141515611f1457600080fd5b600460009054906101000a900473ffffffffffffffffffffffffffffffffffffffff1673ffffffffffffffffffffffffffffffffffffffff1663f2fde38b336040518263ffffffff167c0100000000000000000000000000000000000000000000000000000000028152600401808273ffffffffffffffffffffffffffffffffffffffff1673ffffffffffffffffffffffffffffffffffffffff168152602001915050600060405180830381600087803b158015611fd157600080fd5b505af1158015611fe5573d6000803e3d6000fd5b50505050600360009054906101000a900473ffffffffffffffffffffffffffffffffffffffff1673ffffffffffffffffffffffffffffffffffffffff1663f2fde38b336040518263ffffffff167c0100000000000000000000000000000000000000000000000000000000028152600401808273ffffffffffffffffffffffffffffffffffffffff1673ffffffffffffffffffffffffffffffffffffffff168152602001915050600060405180830381600087803b1580156120a657600080fd5b505af11580156120ba573d6000803e3d6000fd5b50505050600560009054906101000a900473ffffffffffffffffffffffffffffffffffffffff1673ffffffffffffffffffffffffffffffffffffffff1663f2fde38b336040518263ffffffff167c0100000000000000000000000000000000000000000000000000000000028152600401808273ffffffffffffffffffffffffffffffffffffffff1673ffffffffffffffffffffffffffffffffffffffff168152602001915050600060405180830381600087803b15801561217b57600080fd5b505af115801561218f573d6000803e3d6000fd5b50505050565b6000809054906101000a900473ffffffffffffffffffffffffffffffffffffffff1673ffffffffffffffffffffffffffffffffffffffff163373ffffffffffffffffffffffffffffffffffffffff161415156121f057600080fd5b6000809054906101000a900473ffffffffffffffffffffffffffffffffffffffff1673ffffffffffffffffffffffffffffffffffffffff167ff8df31144d9c2f0f6b59d69b8b98abd5459d07f2742c4df920b25aae33c6482060405160405180910390a260008060006101000a81548173ffffffffffffffffffffffffffffffffffffffff021916908373ffffffffffffffffffffffffffffffffffffffff160217905550565b60006122ce82600560189054906101000a90047c010000000000000000000000000000000000000000000000000000000002612647565b15801561230c575061230b82600560149054906101000a90047c010000000000000000000000000000000000000000000000000000000002612647565b5b9050919050565b6040805190810160405280600981526020017f526567756c61746f7200000000000000000000000000000000000000000000008152506040805190810160405280600381526020017f312e300000000000000000000000000000000000000000000000000000000000815250612389828261278f565b15151561239557600080fd5b7fdd117a11c22118c9dee4b5a67ce578bc44529dce21ee0ccc439588fbb9fb4ea38282604051808060200180602001838103835285818151815260200191508051906020019080838360005b838110156123fc5780820151818401526020810190506123e1565b50505050905090810190601f1680156124295780820380516001836020036101000a031916815260200191505b50838103825284818151815260200191508051906020019080838360005b83811015612462578082015181840152602081019050612447565b50505050905090810190601f16801561248f5780820380516001836020036101000a031916815260200191505b5094505050505060405180910390a160016002836040518082805190602001908083835b6020831015156124d857805182526020820191506020810190506020830392506124b3565b6001836020036101000a0380198251168184511680821785525050505050509050019150509081526020016040518091039020826040518082805190602001908083835b602083101515612541578051825260208201915060208101905060208303925061251c565b6001836020036101000a038019825116818451168082178552505050505050905001915050908152602001604051809103902060006101000a81548160ff0219169083151502179055505050565b6005601c9054906101000a90047c01000000000000000000000000000000000000000000000000000000000281565b6000809054906101000a900473ffffffffffffffffffffffffffffffffffffffff1681565b600061261a826005601c9054906101000a90047c010000000000000000000000000000000000000000000000000000000002612647565b9050919050565b600360009054906101000a900473ffffffffffffffffffffffffffffffffffffffff1681565b6000600460009054906101000a900473ffffffffffffffffffffffffffffffffffffffff1673ffffffffffffffffffffffffffffffffffffffff16634af43e4f84846040518363ffffffff167c0100000000000000000000000000000000000000000000000000000000028152600401808373ffffffffffffffffffffffffffffffffffffffff1673ffffffffffffffffffffffffffffffffffffffff168152602001827bffffffffffffffffffffffffffffffffffffffffffffffffffffffff19167bffffffffffffffffffffffffffffffffffffffffffffffffffffffff1916815260200192505050602060405180830381600087803b15801561274c57600080fd5b505af1158015612760573d6000803e3d6000fd5b505050506040513d602081101561277657600080fd5b8101908080519060200190929190505050905092915050565b60006002836040518082805190602001908083835b6020831015156127c957805182526020820191506020810190506020830392506127a4565b6001836020036101000a0380198251168184511680821785525050505050509050019150509081526020016040518091039020826040518082805190602001908083835b602083101515612832578051825260208201915060208101905060208303925061280d565b6001836020036101000a038019825116818451168082178552505050505050905001915050908152602001604051809103902060009054906101000a900460ff16905092915050565b600560009054906101000a900473ffffffffffffffffffffffffffffffffffffffff1673ffffffffffffffffffffffffffffffffffffffff1663facd743b336040518263ffffffff167c0100000000000000000000000000000000000000000000000000000000028152600401808273ffffffffffffffffffffffffffffffffffffffff1673ffffffffffffffffffffffffffffffffffffffff168152602001915050602060405180830381600087803b15801561293857600080fd5b505af115801561294c573d6000803e3d6000fd5b505050506040513d602081101561296257600080fd5b8101908080519060200190929190505050151561297e57600080fd5b600360009054906101000a900473ffffffffffffffffffffffffffffffffffffffff1673ffffffffffffffffffffffffffffffffffffffff1663933aa667600560189054906101000a90047c0100000000000000000000000000000000000000000000000000000000026040518263ffffffff167c010000000000000000000000000000000000000000000000000000000002815260040180827bffffffffffffffffffffffffffffffffffffffffffffffffffffffff19167bffffffffffffffffffffffffffffffffffffffffffffffffffffffff19168152602001915050602060405180830381600087803b158015612a7857600080fd5b505af1158015612a8c573d6000803e3d6000fd5b505050506040513d6020811015612aa257600080fd5b81019080805190602001909291905050501515612b4d576040517f08c379a00000000000000000000000000000000000000000000000000000000081526004018080602001828103825260228152602001807f4275726e206d6574686f64206e6f7420737570706f7274656420627920746f6b81526020017f656e00000000000000000000000000000000000000000000000000000000000081525060400191505060405180910390fd5b600360009054906101000a900473ffffffffffffffffffffffffffffffffffffffff1673ffffffffffffffffffffffffffffffffffffffff1663933aa667600560149054906101000a90047c0100000000000000000000000000000000000000000000000000000000026040518263ffffffff167c010000000000000000000000000000000000000000000000000000000002815260040180827bffffffffffffffffffffffffffffffffffffffffffffffffffffffff19167bffffffffffffffffffffffffffffffffffffffffffffffffffffffff19168152602001915050602060405180830381600087803b158015612c4757600080fd5b505af1158015612c5b573d6000803e3d6000fd5b505050506040513d6020811015612c7157600080fd5b81019080805190602001909291905050501515612d1c576040517f08c379a000000000000000000000000000000000000000000000000000000000815260040180806020018281038252602b8152602001807f53656c662d6465737472756374206d6574686f64206e6f7420737570706f727481526020017f656420627920746f6b656e00000000000000000000000000000000000000000081525060400191505060405180910390fd5b600460009054906101000a900473ffffffffffffffffffffffffffffffffffffffff1673ffffffffffffffffffffffffffffffffffffffff16630b2f6d4182600560189054906101000a90047c0100000000000000000000000000000000000000000000000000000000026040518363ffffffff167c0100000000000000000000000000000000000000000000000000000000028152600401808373ffffffffffffffffffffffffffffffffffffffff1673ffffffffffffffffffffffffffffffffffffffff168152602001827bffffffffffffffffffffffffffffffffffffffffffffffffffffffff19167bffffffffffffffffffffffffffffffffffffffffffffffffffffffff1916815260200192505050600060405180830381600087803b158015612e4a57600080fd5b505af1158015612e5e573d6000803e3d6000fd5b50505050600460009054906101000a900473ffffffffffffffffffffffffffffffffffffffff1673ffffffffffffffffffffffffffffffffffffffff166302abcae282600560149054906101000a90047c0100000000000000000000000000000000000000000000000000000000026040518363ffffffff167c0100000000000000000000000000000000000000000000000000000000028152600401808373ffffffffffffffffffffffffffffffffffffffff1673ffffffffffffffffffffffffffffffffffffffff168152602001827bffffffffffffffffffffffffffffffffffffffffffffffffffffffff19167bffffffffffffffffffffffffffffffffffffffffffffffffffffffff1916815260200192505050600060405180830381600087803b158015612f9057600080fd5b505af1158015612fa4573d6000803e3d6000fd5b5050505050565b600560009054906101000a900473ffffffffffffffffffffffffffffffffffffffff1681565b600560009054906101000a900473ffffffffffffffffffffffffffffffffffffffff1673ffffffffffffffffffffffffffffffffffffffff1663facd743b336040518263ffffffff167c0100000000000000000000000000000000000000000000000000000000028152600401808273ffffffffffffffffffffffffffffffffffffffff1673ffffffffffffffffffffffffffffffffffffffff168152602001915050602060405180830381600087803b15801561308e57600080fd5b505af11580156130a2573d6000803e3d6000fd5b505050506040513d60208110156130b857600080fd5b810190808051906020019092919050505015156130d457600080fd5b600360009054906101000a900473ffffffffffffffffffffffffffffffffffffffff1673ffffffffffffffffffffffffffffffffffffffff1663933aa667600560189054906101000a90047c0100000000000000000000000000000000000000000000000000000000026040518263ffffffff167c010000000000000000000000000000000000000000000000000000000002815260040180827bffffffffffffffffffffffffffffffffffffffffffffffffffffffff19167bffffffffffffffffffffffffffffffffffffffffffffffffffffffff19168152602001915050602060405180830381600087803b1580156131ce57600080fd5b505af11580156131e2573d6000803e3d6000fd5b505050506040513d60208110156131f857600080fd5b810190808051906020019092919050505015156132a3576040517f08c379a00000000000000000000000000000000000000000000000000000000081526004018080602001828103825260228152602001807f4275726e206d6574686f64206e6f7420737570706f7274656420627920746f6b81526020017f656e00000000000000000000000000000000000000000000000000000000000081525060400191505060405180910390fd5b600360009054906101000a900473ffffffffffffffffffffffffffffffffffffffff1673ffffffffffffffffffffffffffffffffffffffff1663933aa667600560149054906101000a90047c0100000000000000000000000000000000000000000000000000000000026040518263ffffffff167c010000000000000000000000000000000000000000000000000000000002815260040180827bffffffffffffffffffffffffffffffffffffffffffffffffffffffff19167bffffffffffffffffffffffffffffffffffffffffffffffffffffffff19168152602001915050602060405180830381600087803b15801561339d57600080fd5b505af11580156133b1573d6000803e3d6000fd5b505050506040513d60208110156133c757600080fd5b81019080805190602001909291905050501515613472576040517f08c379a000000000000000000000000000000000000000000000000000000000815260040180806020018281038252602b8152602001807f53656c662d6465737472756374206d6574686f64206e6f7420737570706f727481526020017f656420627920746f6b656e00000000000000000000000000000000000000000081525060400191505060405180910390fd5b600460009054906101000a900473ffffffffffffffffffffffffffffffffffffffff1673ffffffffffffffffffffffffffffffffffffffff16630b2f6d4182600560189054906101000a90047c0100000000000000000000000000000000000000000000000000000000026040518363ffffffff167c0100000000000000000000000000000000000000000000000000000000028152600401808373ffffffffffffffffffffffffffffffffffffffff1673ffffffffffffffffffffffffffffffffffffffff168152602001827bffffffffffffffffffffffffffffffffffffffffffffffffffffffff19167bffffffffffffffffffffffffffffffffffffffffffffffffffffffff1916815260200192505050600060405180830381600087803b1580156135a057600080fd5b505af11580156135b4573d6000803e3d6000fd5b50505050600460009054906101000a900473ffffffffffffffffffffffffffffffffffffffff1673ffffffffffffffffffffffffffffffffffffffff16630b2f6d4182600560149054906101000a90047c0100000000000000000000000000000000000000000000000000000000026040518363ffffffff167c0100000000000000000000000000000000000000000000000000000000028152600401808373ffffffffffffffffffffffffffffffffffffffff1673ffffffffffffffffffffffffffffffffffffffff168152602001827bffffffffffffffffffffffffffffffffffffffffffffffffffffffff19167bffffffffffffffffffffffffffffffffffffffffffffffffffffffff1916815260200192505050600060405180830381600087803b1580156136e657600080fd5b505af11580156136fa573d6000803e3d6000fd5b5050505050565b60006040805190810160405280600981526020017f526567756c61746f7200000000000000000000000000000000000000000000008152506040805190810160405280600381526020017f312e3000000000000000000000000000000000000000000000000000000000008152506040805190810160405280600381526020017f312e3100000000000000000000000000000000000000000000000000000000008152506137af838361278f565b80156137c257506137c0838261278f565b155b15156137cd57600080fd5b8493508373ffffffffffffffffffffffffffffffffffffffff16634e71e0c86040518163ffffffff167c0100000000000000000000000000000000000000000000000000000000028152600401600060405180830381600087803b15801561383457600080fd5b505af1158015613848573d6000803e3d6000fd5b505050508373ffffffffffffffffffffffffffffffffffffffff1663546f87786040518163ffffffff167c0100000000000000000000000000000000000000000000000000000000028152600401600060405180830381600087803b1580156138b057600080fd5b505af11580156138c4573d6000803e3d6000fd5b5050505061396f8473ffffffffffffffffffffffffffffffffffffffff1663b2daee5c6040518163ffffffff167c0100000000000000000000000000000000000000000000000000000000028152600401602060405180830381600087803b15801561392f57600080fd5b505af1158015613943573d6000803e3d6000fd5b505050506040513d602081101561395957600080fd5b8101908080519060200190929190505050614227565b613a168473ffffffffffffffffffffffffffffffffffffffff1663072b05156040518163ffffffff167c0100000000000000000000000000000000000000000000000000000000028152600401602060405180830381600087803b1580156139d657600080fd5b505af11580156139ea573d6000803e3d6000fd5b505050506040513d6020811015613a0057600080fd5b810190808051906020019092919050505061432a565b613abd8473ffffffffffffffffffffffffffffffffffffffff1663ca1e78196040518163ffffffff167c0100000000000000000000000000000000000000000000000000000000028152600401602060405180830381600087803b158015613a7d57600080fd5b505af1158015613a91573d6000803e3d6000fd5b505050506040513d6020811015613aa757600080fd5b810190808051906020019092919050505061442d565b613ac5614530565b7fdd117a11c22118c9dee4b5a67ce578bc44529dce21ee0ccc439588fbb9fb4ea38382604051808060200180602001838103835285818151815260200191508051906020019080838360005b83811015613b2c578082015181840152602081019050613b11565b50505050905090810190601f168015613b595780820380516001836020036101000a031916815260200191505b50838103825284818151815260200191508051906020019080838360005b83811015613b92578082015181840152602081019050613b77565b50505050905090810190601f168015613bbf5780820380516001836020036101000a031916815260200191505b5094505050505060405180910390a160016002846040518082805190602001908083835b602083101515613c085780518252602082019150602081019050602083039250613be3565b6001836020036101000a0380198251168184511680821785525050505050509050019150509081526020016040518091039020826040518082805190602001908083835b602083101515613c715780518252602082019150602081019050602083039250613c4c565b6001836020036101000a038019825116818451168082178552505050505050905001915050908152602001604051809103902060006101000a81548160ff0219169083151502179055505050505050565b600560189054906101000a90047c01000000000000000000000000000000000000000000000000000000000281565b6000613d2882600560189054906101000a90047c010000000000000000000000000000000000000000000000000000000002612647565b8015613d665750613d6482600560149054906101000a90047c010000000000000000000000000000000000000000000000000000000002612647565b155b9050919050565b600160009054906101000a900473ffffffffffffffffffffffffffffffffffffffff1681565b6000809054906101000a900473ffffffffffffffffffffffffffffffffffffffff1673ffffffffffffffffffffffffffffffffffffffff163373ffffffffffffffffffffffffffffffffffffffff16141515613dee57600080fd5b80600160006101000a81548173ffffffffffffffffffffffffffffffffffffffff021916908373ffffffffffffffffffffffffffffffffffffffff16021790555050565b600560009054906101000a900473ffffffffffffffffffffffffffffffffffffffff1673ffffffffffffffffffffffffffffffffffffffff1663facd743b336040518263ffffffff167c0100000000000000000000000000000000000000000000000000000000028152600401808273ffffffffffffffffffffffffffffffffffffffff1673ffffffffffffffffffffffffffffffffffffffff168152602001915050602060405180830381600087803b158015613eef57600080fd5b505af1158015613f03573d6000803e3d6000fd5b505050506040513d6020811015613f1957600080fd5b81019080805190602001909291905050501515613f3557600080fd5b600360009054906101000a900473ffffffffffffffffffffffffffffffffffffffff1673ffffffffffffffffffffffffffffffffffffffff1663933aa6676005601c9054906101000a90047c0100000000000000000000000000000000000000000000000000000000026040518263ffffffff167c010000000000000000000000000000000000000000000000000000000002815260040180827bffffffffffffffffffffffffffffffffffffffffffffffffffffffff19167bffffffffffffffffffffffffffffffffffffffffffffffffffffffff19168152602001915050602060405180830381600087803b15801561402f57600080fd5b505af1158015614043573d6000803e3d6000fd5b505050506040513d602081101561405957600080fd5b810190808051906020019092919050505015156140de576040517f08c379a000000000000000000000000000000000000000000000000000000000815260040180806020018281038252601e8152602001807f4d696e74696e67206e6f7420737570706f7274656420627920746f6b656e000081525060200191505060405180910390fd5b600460009054906101000a900473ffffffffffffffffffffffffffffffffffffffff1673ffffffffffffffffffffffffffffffffffffffff166302abcae2826005601c9054906101000a90047c0100000000000000000000000000000000000000000000000000000000026040518363ffffffff167c0100000000000000000000000000000000000000000000000000000000028152600401808373ffffffffffffffffffffffffffffffffffffffff1673ffffffffffffffffffffffffffffffffffffffff168152602001827bffffffffffffffffffffffffffffffffffffffffffffffffffffffff19167bffffffffffffffffffffffffffffffffffffffffffffffffffffffff1916815260200192505050600060405180830381600087803b15801561420c57600080fd5b505af1158015614220573d6000803e3d6000fd5b5050505050565b6000600360009054906101000a900473ffffffffffffffffffffffffffffffffffffffff16905081600360006101000a81548173ffffffffffffffffffffffffffffffffffffffff021916908373ffffffffffffffffffffffffffffffffffffffff1602179055507f7539cbc20455659eb1b9f83350bb91703811c01a9ca31d76b43028c6bddf51908183604051808373ffffffffffffffffffffffffffffffffffffffff1673ffffffffffffffffffffffffffffffffffffffff1681526020018273ffffffffffffffffffffffffffffffffffffffff1673ffffffffffffffffffffffffffffffffffffffff1681526020019250505060405180910390a15050565b6000600460009054906101000a900473ffffffffffffffffffffffffffffffffffffffff16905081600460006101000a81548173ffffffffffffffffffffffffffffffffffffffff021916908373ffffffffffffffffffffffffffffffffffffffff1602179055507fa235fc7f220d278a18cc5b5afdf77a237e23c869c620342dd27938360d051e6e8183604051808373ffffffffffffffffffffffffffffffffffffffff1673ffffffffffffffffffffffffffffffffffffffff1681526020018273ffffffffffffffffffffffffffffffffffffffff1673ffffffffffffffffffffffffffffffffffffffff1681526020019250505060405180910390a15050565b6000600560009054906101000a900473ffffffffffffffffffffffffffffffffffffffff16905081600560006101000a81548173ffffffffffffffffffffffffffffffffffffffff021916908373ffffffffffffffffffffffffffffffffffffffff1602179055507ff2fe5c6d565e5d7377b2510087e7f003413e3ea0906d4a69e12120cf6365aacf8183604051808373ffffffffffffffffffffffffffffffffffffffff1673ffffffffffffffffffffffffffffffffffffffff1681526020018273ffffffffffffffffffffffffffffffffffffffff1673ffffffffffffffffffffffffffffffffffffffff1681526020019250505060405180910390a15050565b600460009054906101000a900473ffffffffffffffffffffffffffffffffffffffff1673ffffffffffffffffffffffffffffffffffffffff16634e71e0c86040518163ffffffff167c0100000000000000000000000000000000000000000000000000000000028152600401600060405180830381600087803b1580156145b657600080fd5b505af11580156145ca573d6000803e3d6000fd5b50505050600360009054906101000a900473ffffffffffffffffffffffffffffffffffffffff1673ffffffffffffffffffffffffffffffffffffffff16634e71e0c86040518163ffffffff167c0100000000000000000000000000000000000000000000000000000000028152600401600060405180830381600087803b15801561465457600080fd5b505af1158015614668573d6000803e3d6000fd5b50505050600560009054906101000a900473ffffffffffffffffffffffffffffffffffffffff1673ffffffffffffffffffffffffffffffffffffffff16634e71e0c86040518163ffffffff167c0100000000000000000000000000000000000000000000000000000000028152600401600060405180830381600087803b1580156146f257600080fd5b505af1158015614706573d6000803e3d6000fd5b505050505600a165627a7a72305820a2a4c907c8e8c87cc9a84e23614f8af1fdb7e688dbe4616f4b38de02520a4b1d0029",
  "source": "pragma solidity ^0.4.23;\n\nimport \"openzeppelin-solidity/contracts/ownership/Claimable.sol\";\nimport \"zos-lib/contracts/migrations/Migratable.sol\";\nimport \"./PermissionStorage.sol\";\nimport \"./UserPermissionsStorage.sol\";\nimport \"./ValidatorStorage.sol\";\n\n/**\n * @title Regulator\n * @dev Regulator can be configured to meet relevant securities regulations, KYC policies\n * AML requirements, tax laws, and more. The Regulator ensures that the PermissionedToken\n * makes compliant transfers possible. Contains the userPermissions necessary\n * for regulatory compliance.\n *\n */\ncontract Regulator is Claimable, Migratable {\n    /** STORAGES\n    */\n\n    /** \n    * @notice Stores a mapping from method signatures to permission attributes (e.g. whether\n      the permission is \"activated\" for use, and additional attributes such as the\n      method's name and location in the code.)\n    */\n    PermissionStorage public availablePermissions;\n\n    /** \n    * @notice Stores a mapping from users to execution permissions that they hold.\n    */\n    UserPermissionsStorage public userPermissions;\n\n    /**\n    * @notice accounts with ability to set attributes\n    *\n    */\n    ValidatorStorage public validators;\n\n    /** \n        Constants: stores method signatures \n    */\n    bytes4 public DESTROYSELF_SIG = bytes4(keccak256(\"destroySelf()\"));\n    bytes4 public BURN_SIG = bytes4(keccak256(\"burn(uint256)\"));\n    bytes4 public MINT_SIG = bytes4(keccak256(\"mint(address,uint256)\"));\n    bytes4 public DESTROYBLACKLIST_SIG = bytes4(keccak256(\"destroyBlacklistedTokens(address)\"));\n\n    /** \n        Modifiers \n    */\n    /**\n    * @notice Throws if called by any account that does not have access to set attributes\n    */\n    modifier onlyValidator() {\n        require (validators.isValidator(msg.sender));\n        _;\n    }\n\n    /** \n        Events \n    */\n    event SetPermissionStorage(address oldStorage, address newStorage);\n    event SetUserPermissionsStorage(address oldStorage, address newStorage);\n    event SetValidatorStorage(address oldStorage, address newStorage);\n\n    /**\n    * @notice Function used as part of Migratable interface. Must be called when\n    * a proxy is assigned to contract in order to correctly assign the contract's\n    * version number.\n    *\n    * If deploying a new contract version, the version number must be changed as well. \n    */\n    function initialize() isInitializer(\"Regulator\", \"1.0\") public {\n        // Nothing to initialize!\n    }\n\n    /** @notice Migrates data from an old regulator contract to a new one. Precondition: \n    *  the new contract has already been transferred ownership of the old contract.\n    *   @param _oldRegulator The address of the old regulator. \n    */\n    function migrate(address _oldRegulator) isMigration(\"Regulator\", \"1.0\", \"1.1\") public {\n        Regulator oldRegulator = Regulator(_oldRegulator);\n        oldRegulator.claimOwnership(); // Take the proferred ownership of the old contract\n        oldRegulator.transferStorageOwnership();\n        setPermissionStorage(address(oldRegulator.availablePermissions()));\n        setUserPermissionsStorage(address(oldRegulator.userPermissions()));\n        setValidatorStorage(address(oldRegulator.validators()));\n        claimStorageOwnership();\n    }\n\n    /**\n    * @notice Sets the internal permission storage to point to a new storage.\n    * @param _newStorage The address of a new PermissionStorage.\n    */\n    function setPermissionStorage(address _newStorage) internal {\n        address _oldStorage = address(availablePermissions);\n        availablePermissions = PermissionStorage(_newStorage);\n        emit SetPermissionStorage(_oldStorage, _newStorage);\n    }\n\n    /**\n    * @notice Sets the internal user permissions storage to point to a new storage.\n    * @param _newStorage The address of a new UserPermissionsStorage.\n    */\n    function setUserPermissionsStorage(address _newStorage) internal {\n        address _oldStorage = address(userPermissions);\n        userPermissions = UserPermissionsStorage(_newStorage);\n        emit SetUserPermissionsStorage(_oldStorage, _newStorage);\n    }\n\n    /**\n    * @notice Sets the internal validators storage to point to a new storage.\n    * @param _newStorage The address of a new ValidatorStorage.\n    */\n    function setValidatorStorage(address _newStorage) internal {\n        address _oldStorage = address(validators);\n        validators = ValidatorStorage(_newStorage);\n        emit SetValidatorStorage(_oldStorage, _newStorage);\n    }\n\n    /** @notice Transfers ownership of the storage contracts to the owner  of this token contract. \n    * This is useful for migrations, since the new token contract is made the\n    * owner of the old token contract.\n    **/\n    function transferStorageOwnership() public onlyOwner {\n        userPermissions.transferOwnership(msg.sender);\n        availablePermissions.transferOwnership(msg.sender);\n        validators.transferOwnership(msg.sender);\n    }\n\n    /** @notice Claims ownership of the storage contracts. Succeeds if the\n    * ownership of those contracts was transferred to this contract\n    * (which will happen in the case of a migration).\n    *\n    * This function is strictly used for migrations.\n    **/\n    function claimStorageOwnership() internal {\n        userPermissions.claimOwnership();\n        availablePermissions.claimOwnership();\n        validators.claimOwnership();\n    }\n\n    /**\n    * @notice Sets the necessary permissions for a user to mint tokens.\n    * @param _who The address of the account that we are setting permissions for.\n    */\n    function setMinter(address _who) public onlyValidator {\n        require(availablePermissions.isPermission(MINT_SIG), \"Minting not supported by token\");\n        userPermissions.setPermission(_who, MINT_SIG);\n    }\n    \n\n    /**\n    * @notice Removes the necessary permissions for a user to mint tokens.\n    * @param _who The address of the account that we are removing permissions for.\n    */\n    function removeMinter(address _who) public onlyValidator {\n        require(availablePermissions.isPermission(MINT_SIG), \"Minting not supported by token\");\n        userPermissions.removePermission(_who, MINT_SIG);\n    }\n\n    /** Returns whether or not a user is a minter.\n     * @param _who The address of the account in question.\n     * @return `true` if the user is a minter, `false` otherwise.\n     */\n    function isMinter(address _who) public view returns (bool) {\n        return hasPermission(_who, MINT_SIG);\n    }\n\n    /**\n    * @notice Sets the necessary permissions for a \"whitelisted\" user.\n    * @param _who The address of the account that we are setting permissions for.\n    */\n    function setWhitelistedUser(address _who) public onlyValidator {\n        require(availablePermissions.isPermission(BURN_SIG), \"Burn method not supported by token\");\n        require(availablePermissions.isPermission(DESTROYSELF_SIG), \"Self-destruct method not supported by token\");\n        userPermissions.setPermission(_who, BURN_SIG);\n        userPermissions.removePermission(_who, DESTROYSELF_SIG);\n    }\n\n    /**\n    * @notice Sets the necessary permissions for a \"blacklisted\" user. A blacklisted user has their accounts\n    * frozen; they cannot transfer, burn, or withdraw any tokens.\n    * @param _who The address of the account that we are setting permissions for.\n    */\n    function setBlacklistedUser(address _who) public onlyValidator {\n        require(availablePermissions.isPermission(BURN_SIG), \"Burn method not supported by token\");\n        require(availablePermissions.isPermission(DESTROYSELF_SIG), \"Self-destruct method not supported by token\");\n        userPermissions.removePermission(_who, BURN_SIG);\n        userPermissions.setPermission(_who, DESTROYSELF_SIG);\n    }\n\n    /**\n    * @notice Sets the necessary permissions for a \"nonlisted\" user. Nonlisted users can trade tokens,\n    * but cannot burn them (and therefore cannot convert them into fiat.)\n    * @param _who The address of the account that we are setting permissions for.\n    */\n    function setNonlistedUser(address _who) public onlyValidator {\n        require(availablePermissions.isPermission(BURN_SIG), \"Burn method not supported by token\");\n        require(availablePermissions.isPermission(DESTROYSELF_SIG), \"Self-destruct method not supported by token\");\n        userPermissions.removePermission(_who, BURN_SIG);\n        userPermissions.removePermission(_who, DESTROYSELF_SIG);\n    }\n\n    /** Returns whether or not a user is whitelisted.\n     * @param _who The address of the account in question.\n     * @return `true` if the user is whitelisted, `false` otherwise.\n     */\n    function isWhitelistedUser(address _who) public view returns (bool) {\n        return (hasPermission(_who, BURN_SIG) && !hasPermission(_who, DESTROYSELF_SIG));\n    }\n\n    /** Returns whether or not a user is blacklisted.\n     * @param _who The address of the account in question.\n     * @return `true` if the user is blacklisted, `false` otherwise.\n     */\n    function isBlacklistedUser(address _who) public view returns (bool) {\n        return (!hasPermission(_who, BURN_SIG) && hasPermission(_who, DESTROYSELF_SIG));\n    }\n\n    /** Returns whether or not a user is nonlisted.\n     * @param _who The address of the account in question.\n     * @return `true` if the user is nonlisted, `false` otherwise.\n     */\n    function isNonlistedUser(address _who) public view returns (bool) {\n        return (!hasPermission(_who, BURN_SIG) && !hasPermission(_who, DESTROYSELF_SIG));\n    }\n        \n    /**\n    * @notice Sets a permission for an acccount. Only validators can set a permission\n    * @param _who The address of the account that we are setting the value of an attribute for\n    * @param _methodsignature The signature of the method that the user is getting permission to run.\n    */\n    function setPermission(address _who, bytes4 _methodsignature) public onlyValidator {\n        require(availablePermissions.isPermission(_methodsignature));\n        userPermissions.setPermission(_who, _methodsignature);\n    }\n \n    /**\n    * @notice Removes a permission for an acccount. Only validators can remove a permission\n    * @param _who The address of the account that we are setting the value of an attribute for\n    * @param _methodsignature The signature of the method that the user will no longer be able to execute.\n    */\n    function removePermission(address _who, bytes4 _methodsignature) public onlyValidator {\n        require(availablePermissions.isPermission(_methodsignature));\n        userPermissions.removePermission(_who, _methodsignature);\n    }\n\n    /**\n    * @notice Checks whether an account has the permission to execute a function\n    * @param _who The address of the account\n    * @param _methodsignature The signature of the method in question\n    * @return A boolean indicating whether the user has permission or not\n    */\n    function hasPermission(address _who, bytes4 _methodsignature) public view returns (bool) {\n        return userPermissions.getPermission(_who, _methodsignature);\n    }\n}",
  "sourcePath": "/Users/tanishqaggarwal/Documents/carbon/fiat_gateway/contracts/permissionedToken/Regulator.sol",
  "compiler": {
    "name": "solc",
    "version": "0.4.24+commit.e67f0147.Emscripten.clang"
  },
  "schemaVersion": "2.0.0",
  "updatedAt": "2018-07-12T20:04:49.671Z"
}