{
  "contractName": "RegulatorStorage",
  "abi": [
    {
      "constant": true,
      "inputs": [],
      "name": "permissions",
      "outputs": [
        {
          "name": "",
          "type": "address"
        }
      ],
      "payable": false,
      "stateMutability": "view",
      "type": "function"
    },
    {
      "constant": true,
      "inputs": [],
      "name": "validators",
      "outputs": [
        {
          "name": "",
          "type": "address"
        }
      ],
      "payable": false,
      "stateMutability": "view",
      "type": "function"
    },
    {
      "inputs": [
        {
          "name": "_permissions",
          "type": "address"
        },
        {
          "name": "_validators",
          "type": "address"
        }
      ],
      "payable": false,
      "stateMutability": "nonpayable",
      "type": "constructor"
    },
    {
      "constant": false,
      "inputs": [],
      "name": "claimPermissionOwnership",
      "outputs": [],
      "payable": false,
      "stateMutability": "nonpayable",
      "type": "function"
    },
    {
      "constant": false,
      "inputs": [],
      "name": "claimValidatorOwnership",
      "outputs": [],
      "payable": false,
      "stateMutability": "nonpayable",
      "type": "function"
    }
  ],
  "bytecode": "0x608060405234801561001057600080fd5b506040516040806102b783398101604052805160209091015160008054600160a060020a03938416600160a060020a03199182161790915560018054939092169216919091179055610250806100676000396000f3006080604052600436106100615763ffffffff7c01000000000000000000000000000000000000000000000000000000006000350416630bdb3d5a811461006657806385a2785e1461007d578063ab8c71c014610092578063ca1e7819146100d0575b600080fd5b34801561007257600080fd5b5061007b6100e5565b005b34801561008957600080fd5b5061007b610166565b34801561009e57600080fd5b506100a76101ec565b6040805173ffffffffffffffffffffffffffffffffffffffff9092168252519081900360200190f35b3480156100dc57600080fd5b506100a7610208565b60008054604080517f4e71e0c8000000000000000000000000000000000000000000000000000000008152905173ffffffffffffffffffffffffffffffffffffffff90921692634e71e0c89260048084019382900301818387803b15801561014c57600080fd5b505af1158015610160573d6000803e3d6000fd5b50505050565b600160009054906101000a900473ffffffffffffffffffffffffffffffffffffffff1673ffffffffffffffffffffffffffffffffffffffff16634e71e0c86040518163ffffffff167c0100000000000000000000000000000000000000000000000000000000028152600401600060405180830381600087803b15801561014c57600080fd5b60005473ffffffffffffffffffffffffffffffffffffffff1681565b60015473ffffffffffffffffffffffffffffffffffffffff16815600a165627a7a723058203232dff8d8eb1b294e73b5bf27271468c7753319f61392d7061820404ad306a30029",
  "source": "pragma solidity ^0.4.24;\r\n\r\nimport \"./PermissionSheet.sol\";\r\nimport \"./ValidatorSheet.sol\";\r\n\r\n/**\r\n*\r\n* @dev contains a PermissionSheet and a ValidatorSheet\r\n*\r\n*/\r\ncontract RegulatorStorage {\r\n    /**\r\n    \tStorage\r\n    */\r\n    PermissionSheet public permissions;\r\n    ValidatorSheet public validators;\r\n\r\n    /**\r\n    * @dev a RegulatorStorage can set its storages only once, on construction\r\n    *\r\n    **/\r\n    constructor (address _permissions, address _validators) public {\r\n        permissions = PermissionSheet(_permissions);\r\n        validators = ValidatorSheet(_validators);\r\n    }\r\n\r\n    /**\r\n    * @dev claim ownership of permission sheet passed into constructor.\r\n    **/\r\n    function claimPermissionOwnership() public {\r\n        permissions.claimOwnership();\r\n    }\r\n\r\n    /**\r\n    * @dev claim ownership of validator sheet passed into constructor.\r\n    **/\r\n    function claimValidatorOwnership() public {\r\n        validators.claimOwnership();\r\n    }\r\n}",
  "sourcePath": "C:\\Users\\npain\\Projects\\Carbon\\fiat_gateway\\contracts\\regulator\\dataStorage\\RegulatorStorage.sol",
  "compiler": {
    "name": "solc",
    "version": "0.4.24+commit.e67f0147.Emscripten.clang"
  },
  "schemaVersion": "2.0.1",
  "updatedAt": "2018-08-18T21:52:41.857Z"
}