{
  "contractName": "RegulatorProxyFactory",
  "abi": [
    {
      "constant": true,
      "inputs": [
        {
          "name": "",
          "type": "uint256"
        }
      ],
      "name": "regulators",
      "outputs": [
        {
          "name": "",
          "type": "address"
        }
      ],
      "payable": false,
      "stateMutability": "view",
      "type": "function"
    },
    {
      "anonymous": false,
      "inputs": [
        {
          "indexed": false,
          "name": "newRegulator",
          "type": "address"
        },
        {
          "indexed": false,
          "name": "index",
          "type": "uint256"
        }
      ],
      "name": "CreatedRegulatorProxy",
      "type": "event"
    },
    {
      "constant": false,
      "inputs": [
        {
          "name": "regulatorImplementation",
          "type": "address"
        }
      ],
      "name": "createRegulatorProxy",
      "outputs": [],
      "payable": false,
      "stateMutability": "nonpayable",
      "type": "function"
    },
    {
      "constant": true,
      "inputs": [],
      "name": "getCount",
      "outputs": [
        {
          "name": "",
          "type": "uint256"
        }
      ],
      "payable": false,
      "stateMutability": "view",
      "type": "function"
    },
    {
      "constant": true,
      "inputs": [
        {
          "name": "i",
          "type": "uint256"
        }
      ],
      "name": "getRegulatorProxy",
      "outputs": [
        {
          "name": "",
          "type": "address"
        }
      ],
      "payable": false,
      "stateMutability": "view",
      "type": "function"
    }
  ],
  "bytecode": "0x608060405234801561001057600080fd5b506133d2806100206000396000f300608060405260043610620000665763ffffffff7c010000000000000000000000000000000000000000000000000000000060003504166353986e7581146200006b5780635b508cf014620000af5780636ffa1ea714620000e2578063a87d942c14620000fd575b600080fd5b3480156200007857600080fd5b506200008660043562000127565b6040805173ffffffffffffffffffffffffffffffffffffffff9092168252519081900360200190f35b348015620000bc57600080fd5b50620000e073ffffffffffffffffffffffffffffffffffffffff600435166200015d565b005b348015620000ef57600080fd5b5062000086600435620005f0565b3480156200010a57600080fd5b5062000115620006a9565b60408051918252519081900360200190f35b60008054829081106200013657fe5b60009182526020909120015473ffffffffffffffffffffffffffffffffffffffff16905081565b60008060006200016c620006af565b604051809103906000f08015801562000189573d6000803e3d6000fd5b5092503362000197620006c0565b73ffffffffffffffffffffffffffffffffffffffff909116815260405190819003602001906000f080158015620001d2573d6000803e3d6000fd5b509150838383620001e2620006d1565b73ffffffffffffffffffffffffffffffffffffffff938416815291831660208301529091166040808301919091525190819003606001906000f0801580156200022f573d6000803e3d6000fd5b5090508273ffffffffffffffffffffffffffffffffffffffff1663f2fde38b826040518263ffffffff167c0100000000000000000000000000000000000000000000000000000000028152600401808273ffffffffffffffffffffffffffffffffffffffff1673ffffffffffffffffffffffffffffffffffffffff168152602001915050600060405180830381600087803b158015620002ce57600080fd5b505af1158015620002e3573d6000803e3d6000fd5b505050508173ffffffffffffffffffffffffffffffffffffffff1663f2fde38b826040518263ffffffff167c0100000000000000000000000000000000000000000000000000000000028152600401808273ffffffffffffffffffffffffffffffffffffffff1673ffffffffffffffffffffffffffffffffffffffff168152602001915050600060405180830381600087803b1580156200038357600080fd5b505af115801562000398573d6000803e3d6000fd5b505050508073ffffffffffffffffffffffffffffffffffffffff16630bdb3d5a6040518163ffffffff167c0100000000000000000000000000000000000000000000000000000000028152600401600060405180830381600087803b1580156200040157600080fd5b505af115801562000416573d6000803e3d6000fd5b505050508073ffffffffffffffffffffffffffffffffffffffff166385a2785e6040518163ffffffff167c0100000000000000000000000000000000000000000000000000000000028152600401600060405180830381600087803b1580156200047f57600080fd5b505af115801562000494573d6000803e3d6000fd5b5050604080517ff2fde38b000000000000000000000000000000000000000000000000000000008152336004820152905173ffffffffffffffffffffffffffffffffffffffff8516935063f2fde38b9250602480830192600092919082900301818387803b1580156200050657600080fd5b505af11580156200051b573d6000803e3d6000fd5b505060008054600180820183559180527f290decd9548b62a8d60345a988386fc84ba6bc95484008f6362f93160ef3e5630180547fffffffffffffffffffffffff00000000000000000000000000000000000000001673ffffffffffffffffffffffffffffffffffffffff86161790557f03c438f0cc356e051e1bcece6a83a35d5c1205342a7f62cc8c40d3b153fcc9009250839150620005bb620006a9565b6040805173ffffffffffffffffffffffffffffffffffffffff909416845291900360208301528051918290030190a150505050565b600080548210801562000604575060008210155b15156200067257604080517f08c379a000000000000000000000000000000000000000000000000000000000815260206004820152600d60248201527f496e76616c696420696e64657800000000000000000000000000000000000000604482015290519081900360640190fd5b60008054839081106200068157fe5b60009182526020909120015473ffffffffffffffffffffffffffffffffffffffff1692915050565b60005490565b604051611a6f80620006e383390190565b60405161059b806200215283390190565b604051610cba80620026ed83390190560060806040523480156200001157600080fd5b5060008054600160a060020a0319908116331790915560018054909116905562000043640100000000620000e1810204565b620000566401000000006200014d810204565b62000069640100000000620001b7810204565b6200007c64010000000062000221810204565b6200008f640100000000620002b2810204565b620000a264010000000062000343810204565b620000b5640100000000620003ad810204565b620000c86401000000006200043e810204565b620000db640100000000620004cf810204565b62000754565b604080517f6d696e7428616464726573732c75696e743235362900000000000000000000008152815190819003601501812060208083018452600080845284518083018652818152855192830190955281526200014b939192919064010000000062000539810204565b565b604080517f6d696e744355534428616464726573732c75696e7432353629000000000000008152815190819003601901812060208083018452600080845284518083018652818152855192830190955281526200014b939192919064010000000062000539810204565b604080517f6275726e2875696e7432353629000000000000000000000000000000000000008152815190819003600d01812060208083018452600080845284518083018652818152855192830190955281526200014b939192919064010000000062000539810204565b604080517f636f6e76657274436172626f6e446f6c6c617228616464726573732c75696e7481527f323536290000000000000000000000000000000000000000000000000000000060208083019190915282519182900360240182208282018452600080845284518084018652818152855193840190955282526200014b9390929164010000000062000539810204565b604080517f6275726e436172626f6e446f6c6c617228616464726573732c75696e7432353681527f290000000000000000000000000000000000000000000000000000000000000060208083019190915282519182900360210182208282018452600080845284518084018652818152855193840190955282526200014b9390929164010000000062000539810204565b604080517f636f6e7665727457542875696e743235362900000000000000000000000000008152815190819003601201812060208083018452600080845284518083018652818152855192830190955281526200014b939192919064010000000062000539810204565b604080517f64657374726f79426c61636b6c6973746564546f6b656e73286164647265737381527f2c75696e7432353629000000000000000000000000000000000000000000000060208083019190915282519182900360290182208282018452600080845284518084018652818152855193840190955282526200014b9390929164010000000062000539810204565b604080517f617070726f7665426c61636b6c6973746564416464726573735370656e64657281527f286164647265737329000000000000000000000000000000000000000000000060208083019190915282519182900360290182208282018452600080845284518084018652818152855193840190955282526200014b9390929164010000000062000539810204565b604080517f626c61636b6c69737465642829000000000000000000000000000000000000008152815190819003600d01812060208083018452600080845284518083018652818152855192830190955281526200014b939192919064010000000062000539810204565b620005436200068d565b600054600160a060020a031633146200055b57600080fd5b5060408051606081018252848152602081018490529081018290526200058b858264010000000062000592810204565b5050505050565b7fffffffff0000000000000000000000000000000000000000000000000000000082166000908152600260209081526040909120825180518493620005dc928492910190620006af565b506020828101518051620005f79260018501920190620006af565b506040820151805162000615916002840191602090910190620006af565b5050507fffffffff000000000000000000000000000000000000000000000000000000008216600081815260036020908152604091829020805460ff19166001179055815192835290517f6195913f4ea9fc2f5193c9f6763975b23790b3be094b1eb18f318437390055129281900390910190a15050565b6060604051908101604052806060815260200160608152602001606081525090565b828054600181600116156101000203166002900490600052602060002090601f016020900481019282601f10620006f257805160ff191683800117855562000722565b8280016001018555821562000722579182015b828111156200072257825182559160200191906001019062000705565b506200073092915062000734565b5090565b6200075191905b808211156200073057600081556001016200073b565b90565b61130b80620007646000396000f3006080604052600436106101115763ffffffff7c010000000000000000000000000000000000000000000000000000000060003504166314db6d5881146101165780631c870eee1461017d578063395a7b30146101d25780634e71e0c8146103505780635317e44414610365578063639c44cf146103b8578063780bfed01461040257806388f14b0e146104fe5780638b7c8109146105135780638da5cb5b146105285780638f959f5414610566578063933aa6671461057b5780639491951b146105b5578063ab96cb46146105ca578063b8ccbd17146105df578063c1c49cbb14610619578063cfbf1b901461062e578063e30c397814610643578063f2fde38b14610658578063f9d5054314610686575b600080fd5b34801561012257600080fd5b5061016973ffffffffffffffffffffffffffffffffffffffff600435167fffffffff000000000000000000000000000000000000000000000000000000006024351661069b565b604080519115158252519081900360200190f35b34801561018957600080fd5b506101d073ffffffffffffffffffffffffffffffffffffffff600435167fffffffff00000000000000000000000000000000000000000000000000000000602435166106bb565b005b3480156101de57600080fd5b5061020c7fffffffff0000000000000000000000000000000000000000000000000000000060043516610859565b60405180806020018060200180602001848103845287818151815260200191508051906020019080838360005b83811015610251578181015183820152602001610239565b50505050905090810190601f16801561027e5780820380516001836020036101000a031916815260200191505b50848103835286518152865160209182019188019080838360005b838110156102b1578181015183820152602001610299565b50505050905090810190601f1680156102de5780820380516001836020036101000a031916815260200191505b50848103825285518152855160209182019187019080838360005b838110156103115781810151838201526020016102f9565b50505050905090810190601f16801561033e5780820380516001836020036101000a031916815260200191505b50965050505050505060405180910390f35b34801561035c57600080fd5b506101d0610a60565b34801561037157600080fd5b506101d073ffffffffffffffffffffffffffffffffffffffff600435167fffffffff0000000000000000000000000000000000000000000000000000000060243516610b1a565b3480156103c457600080fd5b506103cd610cb5565b604080517fffffffff000000000000000000000000000000000000000000000000000000009092168252519081900360200190f35b34801561040e57600080fd5b5060408051602060046024803582810135601f81018590048502860185019096528585526101d09583357fffffffff000000000000000000000000000000000000000000000000000000001695369560449491939091019190819084018382808284375050604080516020601f89358b018035918201839004830284018301909452808352979a99988101979196509182019450925082915084018382808284375050604080516020601f89358b018035918201839004830284018301909452808352979a999881019791965091820194509250829150840183828082843750949750610cea9650505050505050565b34801561050a57600080fd5b506103cd610d42565b34801561051f57600080fd5b506103cd610d77565b34801561053457600080fd5b5061053d610dac565b6040805173ffffffffffffffffffffffffffffffffffffffff9092168252519081900360200190f35b34801561057257600080fd5b506103cd610dc8565b34801561058757600080fd5b506101697fffffffff0000000000000000000000000000000000000000000000000000000060043516610e23565b3480156105c157600080fd5b506103cd610e38565b3480156105d657600080fd5b506103cd610e6d565b3480156105eb57600080fd5b506101d07fffffffff0000000000000000000000000000000000000000000000000000000060043516610ec8565b34801561062557600080fd5b506103cd610f7b565b34801561063a57600080fd5b506103cd610fd6565b34801561064f57600080fd5b5061053d61100b565b34801561066457600080fd5b506101d073ffffffffffffffffffffffffffffffffffffffff60043516611027565b34801561069257600080fd5b506103cd6110b4565b600460209081526000928352604080842090915290825290205460ff1681565b60005473ffffffffffffffffffffffffffffffffffffffff1633146106df57600080fd5b7fffffffff00000000000000000000000000000000000000000000000000000000811660009081526003602052604090205460ff1615156107a757604080517f08c379a000000000000000000000000000000000000000000000000000000000815260206004820152603960248201527f5065726d697373696f6e206265696e6720736574206d75737420626520666f7260448201527f20612076616c6964206d6574686f64207369676e617475726500000000000000606482015290519081900360840190fd5b73ffffffffffffffffffffffffffffffffffffffff821660008181526004602090815260408083207fffffffff0000000000000000000000000000000000000000000000000000000086168085529083529281902080547fffffffffffffffffffffffffffffffffffffffffffffffffffffffffffffff001660011790558051928352517f7d707a9f70e273d4eadaa0e186399099d7299cd61e4b247d792d1f3482bd71e29281900390910190a25050565b600260208181526000928352604092839020805484516001821615610100027fffffffffffffffffffffffffffffffffffffffffffffffffffffffffffffffff0190911693909304601f81018390048302840183019094528383529283918301828280156109085780601f106108dd57610100808354040283529160200191610908565b820191906000526020600020905b8154815290600101906020018083116108eb57829003601f168201915b505050505090806001018054600181600116156101000203166002900480601f0160208091040260200160405190810160405280929190818152602001828054600181600116156101000203166002900480156109a65780601f1061097b576101008083540402835291602001916109a6565b820191906000526020600020905b81548152906001019060200180831161098957829003601f168201915b50505060028085018054604080516020601f7fffffffffffffffffffffffffffffffffffffffffffffffffffffffffffffffff6101006001871615020190941695909504928301859004850281018501909152818152959695945090925090830182828015610a565780601f10610a2b57610100808354040283529160200191610a56565b820191906000526020600020905b815481529060010190602001808311610a3957829003601f168201915b5050505050905083565b60015473ffffffffffffffffffffffffffffffffffffffff163314610a8457600080fd5b6001546000805460405173ffffffffffffffffffffffffffffffffffffffff93841693909116917f8be0079c531659141344cd1fd0a4f28419497f9722a3daafe3b4186f6b6457e091a360018054600080547fffffffffffffffffffffffff000000000000000000000000000000000000000090811673ffffffffffffffffffffffffffffffffffffffff841617909155169055565b60005473ffffffffffffffffffffffffffffffffffffffff163314610b3e57600080fd5b7fffffffff00000000000000000000000000000000000000000000000000000000811660009081526003602052604090205460ff161515610c0657604080517f08c379a000000000000000000000000000000000000000000000000000000000815260206004820152603d60248201527f5065726d697373696f6e206265696e672072656d6f766564206d75737420626560448201527f20666f7220612076616c6964206d6574686f64207369676e6174757265000000606482015290519081900360840190fd5b73ffffffffffffffffffffffffffffffffffffffff821660008181526004602090815260408083207fffffffff0000000000000000000000000000000000000000000000000000000086168085529083529281902080547fffffffffffffffffffffffffffffffffffffffffffffffffffffffffffffff001690558051928352517f70ce1a3270f54d474f92538dc9f983cb7c34f61f5a5a3827bc25138cf2edd22e9281900390910190a25050565b604080517f636f6e7665727457542875696e743235362900000000000000000000000000008152905190819003601201902081565b610cf2611222565b60005473ffffffffffffffffffffffffffffffffffffffff163314610d1657600080fd5b506040805160608101825284815260208101849052908101829052610d3b858261110f565b5050505050565b604080517f6d696e7428616464726573732c75696e743235362900000000000000000000008152905190819003601501902081565b604080517f6d696e744355534428616464726573732c75696e7432353629000000000000008152905190819003601901902081565b60005473ffffffffffffffffffffffffffffffffffffffff1681565b604080517f617070726f7665426c61636b6c6973746564416464726573735370656e64657281527f28616464726573732900000000000000000000000000000000000000000000006020820152905190819003602901902081565b60036020526000908152604090205460ff1681565b604080517f626c61636b6c69737465642829000000000000000000000000000000000000008152905190819003600d01902081565b604080517f64657374726f79426c61636b6c6973746564546f6b656e73286164647265737381527f2c75696e743235362900000000000000000000000000000000000000000000006020820152905190819003602901902081565b60005473ffffffffffffffffffffffffffffffffffffffff163314610eec57600080fd5b7fffffffff00000000000000000000000000000000000000000000000000000000811660008181526003602090815260409182902080547fffffffffffffffffffffffffffffffffffffffffffffffffffffffffffffff00169055815192835290517f65cd5526557cbd93f0739d00ffcdf8f4a663eb2ed509203d884b3470158724c19281900390910190a150565b604080517f6275726e436172626f6e446f6c6c617228616464726573732c75696e7432353681527f29000000000000000000000000000000000000000000000000000000000000006020820152905190819003602101902081565b604080517f6275726e2875696e7432353629000000000000000000000000000000000000008152905190819003600d01902081565b60015473ffffffffffffffffffffffffffffffffffffffff1681565b60005473ffffffffffffffffffffffffffffffffffffffff16331461104b57600080fd5b73ffffffffffffffffffffffffffffffffffffffff8116151561106d57600080fd5b600180547fffffffffffffffffffffffff00000000000000000000000000000000000000001673ffffffffffffffffffffffffffffffffffffffff92909216919091179055565b604080517f636f6e76657274436172626f6e446f6c6c617228616464726573732c75696e7481527f32353629000000000000000000000000000000000000000000000000000000006020820152905190819003602401902081565b7fffffffff0000000000000000000000000000000000000000000000000000000082166000908152600260209081526040909120825180518493611157928492910190611244565b5060208281015180516111709260018501920190611244565b506040820151805161118c916002840191602090910190611244565b5050507fffffffff00000000000000000000000000000000000000000000000000000000821660008181526003602090815260409182902080547fffffffffffffffffffffffffffffffffffffffffffffffffffffffffffffff00166001179055815192835290517f6195913f4ea9fc2f5193c9f6763975b23790b3be094b1eb18f318437390055129281900390910190a15050565b6060604051908101604052806060815260200160608152602001606081525090565b828054600181600116156101000203166002900490600052602060002090601f016020900481019282601f1061128557805160ff19168380011785556112b2565b828001600101855582156112b2579182015b828111156112b2578251825591602001919060010190611297565b506112be9291506112c2565b5090565b6112dc91905b808211156112be57600081556001016112c8565b905600a165627a7a7230582076fab44ea7c1f564111f25a2c9dc23986dfc3ecd68ecf876e05e0ad121ca38920029608060405234801561001057600080fd5b5060405160208061059b833981016040525160008054600160a060020a0319908116331790915560018054909116905561005281640100000000610058810204565b506100d0565b600054600160a060020a0316331461006f57600080fd5b61008181640100000000610084810204565b50565b600160a060020a038116600081815260026020526040808220805460ff19166001179055517fe366c1c0452ed8eec96861e9e54141ebff23c9ec89fe27b996b45f5ec38849879190a250565b6104bc806100df6000396000f3006080604052600436106100825763ffffffff7c010000000000000000000000000000000000000000000000000000000060003504166340a141ff81146100875780634d238c8e146100b75780634e71e0c8146100e55780638da5cb5b146100fa578063e30c397814610138578063f2fde38b1461014d578063facd743b1461017b575b600080fd5b34801561009357600080fd5b506100b573ffffffffffffffffffffffffffffffffffffffff600435166101bd565b005b3480156100c357600080fd5b506100b573ffffffffffffffffffffffffffffffffffffffff60043516610255565b3480156100f157600080fd5b506100b5610285565b34801561010657600080fd5b5061010f61033f565b6040805173ffffffffffffffffffffffffffffffffffffffff9092168252519081900360200190f35b34801561014457600080fd5b5061010f61035b565b34801561015957600080fd5b506100b573ffffffffffffffffffffffffffffffffffffffff60043516610377565b34801561018757600080fd5b506101a973ffffffffffffffffffffffffffffffffffffffff60043516610404565b604080519115158252519081900360200190f35b60005473ffffffffffffffffffffffffffffffffffffffff1633146101e157600080fd5b73ffffffffffffffffffffffffffffffffffffffff811660008181526002602052604080822080547fffffffffffffffffffffffffffffffffffffffffffffffffffffffffffffff00169055517fe1434e25d6611e0db941968fdc97811c982ac1602e951637d206f5fdda9dd8f19190a250565b60005473ffffffffffffffffffffffffffffffffffffffff16331461027957600080fd5b61028281610419565b50565b60015473ffffffffffffffffffffffffffffffffffffffff1633146102a957600080fd5b6001546000805460405173ffffffffffffffffffffffffffffffffffffffff93841693909116917f8be0079c531659141344cd1fd0a4f28419497f9722a3daafe3b4186f6b6457e091a360018054600080547fffffffffffffffffffffffff000000000000000000000000000000000000000090811673ffffffffffffffffffffffffffffffffffffffff841617909155169055565b60005473ffffffffffffffffffffffffffffffffffffffff1681565b60015473ffffffffffffffffffffffffffffffffffffffff1681565b60005473ffffffffffffffffffffffffffffffffffffffff16331461039b57600080fd5b73ffffffffffffffffffffffffffffffffffffffff811615156103bd57600080fd5b600180547fffffffffffffffffffffffff00000000000000000000000000000000000000001673ffffffffffffffffffffffffffffffffffffffff92909216919091179055565b60026020526000908152604090205460ff1681565b73ffffffffffffffffffffffffffffffffffffffff811660008181526002602052604080822080547fffffffffffffffffffffffffffffffffffffffffffffffffffffffffffffff00166001179055517fe366c1c0452ed8eec96861e9e54141ebff23c9ec89fe27b996b45f5ec38849879190a2505600a165627a7a723058205e382f355303c86608b996b2dbf606dc56bad17c26824c3469a6cd39668abcbd0029608060405234801561001057600080fd5b50604051606080610cba8339810160408181528251602080850151948301517f6f72672e7a657070656c696e6f732e70726f78792e696d706c656d656e74617485527f696f6e00000000000000000000000000000000000000000000000000000000009185019190915291519283900360230190922091929182908290829082908790600080516020610c9a833981519152146100a957fe5b6100bb81640100000000610106810204565b5060008054600160a060020a03199081163317909155600180548216905560028054600160a060020a0394851690831617905560038054929093169116179055506101cc9350505050565b600061011e826401000000006109c86101c482021704565b15156101b157604080517f08c379a000000000000000000000000000000000000000000000000000000000815260206004820152603b60248201527f43616e6e6f742073657420612070726f787920696d706c656d656e746174696f60448201527f6e20746f2061206e6f6e2d636f6e747261637420616464726573730000000000606482015290519081900360840190fd5b50600080516020610c9a83398151915255565b6000903b1190565b610abf806101db6000396000f3006080604052600436106100b95763ffffffff7c01000000000000000000000000000000000000000000000000000000006000350416630bdb3d5a81146100c35780633659cfe6146100d85780634e71e0c8146101065780635c60da1b1461011b57806385a2785e146101595780638da5cb5b1461016e578063ab8c71c014610183578063aef5eb8014610198578063ca1e7819146101c6578063e30c3978146101db578063e51207e7146101f0578063f2fde38b1461021e575b6100c161024c565b005b3480156100cf57600080fd5b506100c1610266565b3480156100e457600080fd5b506100c173ffffffffffffffffffffffffffffffffffffffff60043516610306565b34801561011257600080fd5b506100c1610336565b34801561012757600080fd5b506101306103f0565b6040805173ffffffffffffffffffffffffffffffffffffffff9092168252519081900360200190f35b34801561016557600080fd5b506100c16103ff565b34801561017a57600080fd5b50610130610485565b34801561018f57600080fd5b506101306104a1565b3480156101a457600080fd5b506100c173ffffffffffffffffffffffffffffffffffffffff600435166104bd565b3480156101d257600080fd5b50610130610691565b3480156101e757600080fd5b506101306106ad565b3480156101fc57600080fd5b506100c173ffffffffffffffffffffffffffffffffffffffff600435166106c9565b34801561022a57600080fd5b506100c173ffffffffffffffffffffffffffffffffffffffff6004351661089d565b610254610264565b61026461025f61092a565b61094f565b565b600260009054906101000a900473ffffffffffffffffffffffffffffffffffffffff1673ffffffffffffffffffffffffffffffffffffffff16634e71e0c86040518163ffffffff167c0100000000000000000000000000000000000000000000000000000000028152600401600060405180830381600087803b1580156102ec57600080fd5b505af1158015610300573d6000803e3d6000fd5b50505050565b60005473ffffffffffffffffffffffffffffffffffffffff16331461032a57600080fd5b61033381610973565b50565b60015473ffffffffffffffffffffffffffffffffffffffff16331461035a57600080fd5b6001546000805460405173ffffffffffffffffffffffffffffffffffffffff93841693909116917f8be0079c531659141344cd1fd0a4f28419497f9722a3daafe3b4186f6b6457e091a360018054600080547fffffffffffffffffffffffff000000000000000000000000000000000000000090811673ffffffffffffffffffffffffffffffffffffffff841617909155169055565b60006103fa61092a565b905090565b600360009054906101000a900473ffffffffffffffffffffffffffffffffffffffff1673ffffffffffffffffffffffffffffffffffffffff16634e71e0c86040518163ffffffff167c0100000000000000000000000000000000000000000000000000000000028152600401600060405180830381600087803b1580156102ec57600080fd5b60005473ffffffffffffffffffffffffffffffffffffffff1681565b60025473ffffffffffffffffffffffffffffffffffffffff1681565b6000805473ffffffffffffffffffffffffffffffffffffffff1633146104e257600080fd5b60025473ffffffffffffffffffffffffffffffffffffffff8381169116141561056c57604080517f08c379a000000000000000000000000000000000000000000000000000000000815260206004820152601e60248201527f4d7573742062652061206e6577207065726d697373696f6e2073686565740000604482015290519081900360640190fd5b610575826109c8565b151561060857604080517f08c379a000000000000000000000000000000000000000000000000000000000815260206004820152603860248201527f43616e6e6f7420736574206120726567756c61746f722073746f72616765207460448201527f6f2061206e6f6e2d636f6e747261637420616464726573730000000000000000606482015290519081900360840190fd5b506002805473ffffffffffffffffffffffffffffffffffffffff8381167fffffffffffffffffffffffff0000000000000000000000000000000000000000831681179093556040805191909216808252602082019390935281517fe17aee9aa44ff533ce61ee89d13b1d2a8cb1143b69d05d08a5d136acae8a7707929181900390910190a15050565b60035473ffffffffffffffffffffffffffffffffffffffff1681565b60015473ffffffffffffffffffffffffffffffffffffffff1681565b6000805473ffffffffffffffffffffffffffffffffffffffff1633146106ee57600080fd5b60035473ffffffffffffffffffffffffffffffffffffffff8381169116141561077857604080517f08c379a000000000000000000000000000000000000000000000000000000000815260206004820152601d60248201527f4d7573742062652061206e65772076616c696461746f72207368656574000000604482015290519081900360640190fd5b610781826109c8565b151561081457604080517f08c379a000000000000000000000000000000000000000000000000000000000815260206004820152603860248201527f43616e6e6f7420736574206120726567756c61746f722073746f72616765207460448201527f6f2061206e6f6e2d636f6e747261637420616464726573730000000000000000606482015290519081900360840190fd5b506003805473ffffffffffffffffffffffffffffffffffffffff8381167fffffffffffffffffffffffff0000000000000000000000000000000000000000831681179093556040805191909216808252602082019390935281517f8ca674c4f8f0a3a35b50833ae3d8d889663de2b78cdbe0765021594acec3cda2929181900390910190a15050565b60005473ffffffffffffffffffffffffffffffffffffffff1633146108c157600080fd5b73ffffffffffffffffffffffffffffffffffffffff811615156108e357600080fd5b600180547fffffffffffffffffffffffff00000000000000000000000000000000000000001673ffffffffffffffffffffffffffffffffffffffff92909216919091179055565b7f7050c9e0f4ca769c69bd3a8ef740bc37934f8e2c036e5a723fd8ee048ed3f8c35490565b3660008037600080366000845af43d6000803e80801561096e573d6000f35b3d6000fd5b61097c816109d0565b6040805173ffffffffffffffffffffffffffffffffffffffff8316815290517fbc7cd75a20ee27fd9adebab32041f755214dbc6bffa90cc0225b39da2e5c2d3b9181900360200190a150565b6000903b1190565b60006109db826109c8565b1515610a6e57604080517f08c379a000000000000000000000000000000000000000000000000000000000815260206004820152603b60248201527f43616e6e6f742073657420612070726f787920696d706c656d656e746174696f60448201527f6e20746f2061206e6f6e2d636f6e747261637420616464726573730000000000606482015290519081900360840190fd5b507f7050c9e0f4ca769c69bd3a8ef740bc37934f8e2c036e5a723fd8ee048ed3f8c3555600a165627a7a723058209343bef89a2c7bf71a1b47213bf52c40d0cca46efc3c0cb73aae1c7b1b6b111000297050c9e0f4ca769c69bd3a8ef740bc37934f8e2c036e5a723fd8ee048ed3f8c3a165627a7a723058202a893f93531d87c5013f64307491a03025e4d5fd005650481f45c04dfc03cae20029",
  "source": "pragma solidity ^0.4.24;\r\n\r\nimport \"../regulator/RegulatorProxy.sol\";\r\nimport \"../regulator/mocks/PermissionSheetMock.sol\";\r\nimport \"../regulator/mocks/ValidatorSheetMock.sol\";\r\nimport \"../regulator/Regulator.sol\";\r\n\r\n/**\r\n*\r\n* @dev RegulatorProxyFactory creates new RegulatorProxy contracts with new data storage sheets, properly configured\r\n* with ownership, and the proxy logic implementations are based on a user-specified Regulator. \r\n*\r\n**/\r\ncontract RegulatorProxyFactory {\r\n    // Parameters\r\n    address[] public regulators;\r\n\r\n    // Events\r\n    event CreatedRegulatorProxy(address newRegulator, uint256 index);\r\n\r\n    /**\r\n    *\r\n    * @dev generate a new proxyaddress that users can cast to a Regulator or RegulatorProxy. The\r\n    * proxy has empty data storage contracts connected to it and it is set with an initial logic contract\r\n    * to which it will delegate functionality\r\n    * @notice the method caller will have to claim ownership of regulators since regulators are claimable\r\n    * @param regulatorImplementation the address of the logic contract that the proxy will initialize its implementation to\r\n    *\r\n    **/\r\n    function createRegulatorProxy(address regulatorImplementation) public {\r\n\r\n        // Store new data storage contracts for regulator proxy\r\n        address permissions = address(new PermissionSheetMock()); // All permissions added\r\n        address validators = address(new ValidatorSheetMock(msg.sender)); // Adds msg.sender as validator\r\n\r\n        address proxy = address(new RegulatorProxy(regulatorImplementation, permissions, validators));\r\n\r\n        // data storages should ultimately point be owned by the proxy, since it will delegate function\r\n        // calls to the latest implementation *in the context of the proxy contract*\r\n        PermissionSheet(permissions).transferOwnership(address(proxy));\r\n        ValidatorSheet(validators).transferOwnership(address(proxy));\r\n        Regulator(proxy).claimPermissionOwnership();\r\n        Regulator(proxy).claimValidatorOwnership();\r\n\r\n        // The function caller should own the proxy contract, so they will need to claim ownership\r\n        RegulatorProxy(proxy).transferOwnership(msg.sender);\r\n\r\n        regulators.push(proxy);\r\n        emit CreatedRegulatorProxy(proxy, getCount()-1);\r\n    }\r\n\r\n    // Return number of proxies created \r\n    function getCount() public view returns (uint256) {\r\n        return regulators.length;\r\n    }\r\n\r\n    // Return the i'th created proxy. The most recently created proxy will be at position getCount()-1.\r\n    function getRegulatorProxy(uint256 i) public view returns(address) {\r\n        require((i < regulators.length) && (i >= 0), \"Invalid index\");\r\n        return regulators[i];\r\n    }\r\n}\r\n",
  "sourcePath": "C:\\Users\\npain\\Projects\\Carbon\\fiat_gateway\\contracts\\factories\\RegulatorProxyFactory.sol",
  "compiler": {
    "name": "solc",
    "version": "0.4.24+commit.e67f0147.Emscripten.clang"
  },
  "schemaVersion": "2.0.1",
  "updatedAt": "2018-08-18T21:52:41.856Z"
}