{
  "contractName": "RegulatorProxyFactory",
  "abi": [
    {
      "constant": true,
      "inputs": [
        {
          "name": "",
          "type": "uint256"
        }
      ],
      "name": "regulators",
      "outputs": [
        {
          "name": "",
          "type": "address"
        }
      ],
      "payable": false,
      "stateMutability": "view",
      "type": "function"
    },
    {
      "anonymous": false,
      "inputs": [
        {
          "indexed": false,
          "name": "newRegulator",
          "type": "address"
        },
        {
          "indexed": false,
          "name": "index",
          "type": "uint256"
        }
      ],
      "name": "CreatedRegulatorProxy",
      "type": "event"
    },
    {
      "constant": false,
      "inputs": [
        {
          "name": "regulatorImplementation",
          "type": "address"
        }
      ],
      "name": "createRegulatorProxy",
      "outputs": [],
      "payable": false,
      "stateMutability": "nonpayable",
      "type": "function"
    },
    {
      "constant": false,
      "inputs": [
        {
          "name": "regulator",
          "type": "address"
        }
      ],
      "name": "addAllPermissions",
      "outputs": [],
      "payable": false,
      "stateMutability": "nonpayable",
      "type": "function"
    },
    {
      "constant": true,
      "inputs": [],
      "name": "getCount",
      "outputs": [
        {
          "name": "",
          "type": "uint256"
        }
      ],
      "payable": false,
      "stateMutability": "view",
      "type": "function"
    },
    {
      "constant": true,
      "inputs": [
        {
          "name": "i",
          "type": "uint256"
        }
      ],
      "name": "getRegulatorProxy",
      "outputs": [
        {
          "name": "",
          "type": "address"
        }
      ],
      "payable": false,
      "stateMutability": "view",
      "type": "function"
    }
  ],
  "bytecode": "0x608060405234801561001057600080fd5b50612642806100206000396000f3006080604052600436106100535763ffffffff60e060020a600035041663286ae97f811461005857806353986e751461007b5780635b508cf0146100af5780636ffa1ea7146100d0578063a87d942c146100e8575b600080fd5b34801561006457600080fd5b50610079600160a060020a036004351661010f565b005b34801561008757600080fd5b50610093600435610b0b565b60408051600160a060020a039092168252519081900360200190f35b3480156100bb57600080fd5b50610079600160a060020a0360043516610b33565b3480156100dc57600080fd5b50610093600435610d16565b3480156100f457600080fd5b506100fd610dbf565b60408051918252519081900360200190f35b604080517f4d238c8e0000000000000000000000000000000000000000000000000000000081523060048201529051600160a060020a03831691634d238c8e91602480830192600092919082900301818387803b15801561016f57600080fd5b505af1158015610183573d6000803e3d6000fd5b5050505080600160a060020a031663780bfed082600160a060020a03166388f14b0e6040518163ffffffff1660e060020a028152600401602060405180830381600087803b1580156101d457600080fd5b505af11580156101e8573d6000803e3d6000fd5b505050506040513d60208110156101fe57600080fd5b50516040805160e060020a63ffffffff8516028152600160e060020a031990921660048301526080602483015260006084830181905260c0604484015260c483018190526101006064840152610104830181905290516101448084019382900301818387803b15801561027057600080fd5b505af1158015610284573d6000803e3d6000fd5b5050505080600160a060020a031663780bfed082600160a060020a031663cfbf1b906040518163ffffffff1660e060020a028152600401602060405180830381600087803b1580156102d557600080fd5b505af11580156102e9573d6000803e3d6000fd5b505050506040513d60208110156102ff57600080fd5b50516040805160e060020a63ffffffff8516028152600160e060020a031990921660048301526080602483015260006084830181905260c0604484015260c483018190526101006064840152610104830181905290516101448084019382900301818387803b15801561037157600080fd5b505af1158015610385573d6000803e3d6000fd5b5050505080600160a060020a031663780bfed082600160a060020a031663ab96cb466040518163ffffffff1660e060020a028152600401602060405180830381600087803b1580156103d657600080fd5b505af11580156103ea573d6000803e3d6000fd5b505050506040513d602081101561040057600080fd5b50516040805160e060020a63ffffffff8516028152600160e060020a031990921660048301526080602483015260006084830181905260c0604484015260c483018190526101006064840152610104830181905290516101448084019382900301818387803b15801561047257600080fd5b505af1158015610486573d6000803e3d6000fd5b5050505080600160a060020a031663780bfed082600160a060020a0316638f959f546040518163ffffffff1660e060020a028152600401602060405180830381600087803b1580156104d757600080fd5b505af11580156104eb573d6000803e3d6000fd5b505050506040513d602081101561050157600080fd5b50516040805160e060020a63ffffffff8516028152600160e060020a031990921660048301526080602483015260006084830181905260c0604484015260c483018190526101006064840152610104830181905290516101448084019382900301818387803b15801561057357600080fd5b505af1158015610587573d6000803e3d6000fd5b5050505080600160a060020a031663780bfed082600160a060020a0316639491951b6040518163ffffffff1660e060020a028152600401602060405180830381600087803b1580156105d857600080fd5b505af11580156105ec573d6000803e3d6000fd5b505050506040513d602081101561060257600080fd5b50516040805160e060020a63ffffffff8516028152600160e060020a031990921660048301526080602483015260006084830181905260c0604484015260c483018190526101006064840152610104830181905290516101448084019382900301818387803b15801561067457600080fd5b505af1158015610688573d6000803e3d6000fd5b5050505080600160a060020a031663780bfed082600160a060020a031663f9d505436040518163ffffffff1660e060020a028152600401602060405180830381600087803b1580156106d957600080fd5b505af11580156106ed573d6000803e3d6000fd5b505050506040513d602081101561070357600080fd5b50516040805160e060020a63ffffffff8516028152600160e060020a031990921660048301526080602483015260006084830181905260c0604484015260c483018190526101006064840152610104830181905290516101448084019382900301818387803b15801561077557600080fd5b505af1158015610789573d6000803e3d6000fd5b5050505080600160a060020a031663780bfed082600160a060020a031663c1c49cbb6040518163ffffffff1660e060020a028152600401602060405180830381600087803b1580156107da57600080fd5b505af11580156107ee573d6000803e3d6000fd5b505050506040513d602081101561080457600080fd5b50516040805160e060020a63ffffffff8516028152600160e060020a031990921660048301526080602483015260006084830181905260c0604484015260c483018190526101006064840152610104830181905290516101448084019382900301818387803b15801561087657600080fd5b505af115801561088a573d6000803e3d6000fd5b5050505080600160a060020a031663780bfed082600160a060020a0316638b7c81096040518163ffffffff1660e060020a028152600401602060405180830381600087803b1580156108db57600080fd5b505af11580156108ef573d6000803e3d6000fd5b505050506040513d602081101561090557600080fd5b50516040805160e060020a63ffffffff8516028152600160e060020a031990921660048301526080602483015260006084830181905260c0604484015260c483018190526101006064840152610104830181905290516101448084019382900301818387803b15801561097757600080fd5b505af115801561098b573d6000803e3d6000fd5b5050505080600160a060020a031663780bfed082600160a060020a031663639c44cf6040518163ffffffff1660e060020a028152600401602060405180830381600087803b1580156109dc57600080fd5b505af11580156109f0573d6000803e3d6000fd5b505050506040513d6020811015610a0657600080fd5b50516040805160e060020a63ffffffff8516028152600160e060020a031990921660048301526080602483015260006084830181905260c0604484015260c483018190526101006064840152610104830181905290516101448084019382900301818387803b158015610a7857600080fd5b505af1158015610a8c573d6000803e3d6000fd5b5050604080517f40a141ff0000000000000000000000000000000000000000000000000000000081523060048201529051600160a060020a03851693506340a141ff9250602480830192600092919082900301818387803b158015610af057600080fd5b505af1158015610b04573d6000803e3d6000fd5b5050505050565b6000805482908110610b1957fe5b600091825260209091200154600160a060020a0316905081565b60008082610b3f610dc5565b600160a060020a03909116815260405190819003602001906000f080158015610b6c573d6000803e3d6000fd5b50604080517f4d238c8e0000000000000000000000000000000000000000000000000000000081523360048201529051919350839250600160a060020a03831691634d238c8e9160248082019260009290919082900301818387803b158015610bd457600080fd5b505af1158015610be8573d6000803e3d6000fd5b50505050610bf58161010f565b604080517ff2fde38b0000000000000000000000000000000000000000000000000000000081523360048201529051600160a060020a0384169163f2fde38b91602480830192600092919082900301818387803b158015610c5557600080fd5b505af1158015610c69573d6000803e3d6000fd5b505060008054600180820183559180527f290decd9548b62a8d60345a988386fc84ba6bc95484008f6362f93160ef3e56301805473ffffffffffffffffffffffffffffffffffffffff1916600160a060020a0387161790557f03c438f0cc356e051e1bcece6a83a35d5c1205342a7f62cc8c40d3b153fcc9009250849150610cef610dbf565b60408051600160a060020a03909416845291900360208301528051918290030190a1505050565b6000805482108015610d29575060008210155b1515610d9657604080517f08c379a000000000000000000000000000000000000000000000000000000000815260206004820152600d60248201527f496e76616c696420696e64657800000000000000000000000000000000000000604482015290519081900360640190fd5b6000805483908110610da457fe5b600091825260209091200154600160a060020a031692915050565b60005490565b60405161184180610dd683390190560060806040523480156200001157600080fd5b506040516020806200184183398101604081815291517f6f72672e7a657070656c696e6f732e70726f78792e696d706c656d656e74617482527f696f6e000000000000000000000000000000000000000000000000000000000060208301529151908190036023019020819060008051602062001821833981519152146200009557fe5b620000a981640100000000620000cf810204565b505060008054600160a060020a031990811633179091556001805490911690556200019a565b6000620000ea82640100000000620015606200019282021704565b15156200017e57604080517f08c379a000000000000000000000000000000000000000000000000000000000815260206004820152603b60248201527f43616e6e6f742073657420612070726f787920696d706c656d656e746174696f60448201527f6e20746f2061206e6f6e2d636f6e747261637420616464726573730000000000606482015290519081900360840190fd5b506000805160206200182183398151915255565b6000903b1190565b61167780620001aa6000396000f3006080604052600436106101695763ffffffff7c010000000000000000000000000000000000000000000000000000000060003504166314db6d5881146101735780631830f493146101b55780631c870eee146103235780633659cfe614610351578063395a7b301461037257806340a141ff146103945780634d238c8e146103b55780634e71e0c8146103d65780635317e444146103eb5780635c60da1b14610419578063639c44cf1461044a578063780bfed01461047c5780638707e2f41461056057806388f14b0e1461058e5780638b7c8109146105a35780638da5cb5b146105b85780638f959f54146105cd578063933aa667146105e25780639491951b14610604578063ab96cb4614610619578063b8ccbd171461062e578063c1c49cbb14610650578063cfbf1b9014610665578063e30c39781461067a578063f2fde38b1461068f578063f9d50543146106b0578063fa52c7d8146106c5578063facd743b146106e6575b610171610707565b005b34801561017f57600080fd5b506101a1600160a060020a0360043516600160e060020a031960243516610721565b604080519115158252519081900360200190f35b3480156101c157600080fd5b506101d7600160e060020a031960043516610758565b604080518215156060820152608080825286519082015285519091829160208084019284019160a08501918a019080838360005b8381101561022357818101518382015260200161020b565b50505050905090810190601f1680156102505780820380516001836020036101000a031916815260200191505b50848103835287518152875160209182019189019080838360005b8381101561028357818101518382015260200161026b565b50505050905090810190601f1680156102b05780820380516001836020036101000a031916815260200191505b50848103825286518152865160209182019188019080838360005b838110156102e35781810151838201526020016102cb565b50505050905090810190601f1680156103105780820380516001836020036101000a031916815260200191505b5097505050505050505060405180910390f35b34801561032f57600080fd5b50610171600160a060020a0360043516600160e060020a031960243516610945565b34801561035d57600080fd5b50610171600160a060020a0360043516610a69565b34801561037e57600080fd5b506101d7600160e060020a031960043516610a8c565b3480156103a057600080fd5b50610171600160a060020a0360043516610c60565b3480156103c157600080fd5b50610171600160a060020a0360043516610cc0565b3480156103e257600080fd5b50610171610d23565b3480156103f757600080fd5b50610171600160a060020a0360043516600160e060020a031960243516610dab565b34801561042557600080fd5b5061042e610ecc565b60408051600160a060020a039092168252519081900360200190f35b34801561045657600080fd5b5061045f610edc565b60408051600160e060020a03199092168252519081900360200190f35b34801561048857600080fd5b5060408051602060046024803582810135601f8101859004850286018501909652858552610171958335600160e060020a03191695369560449491939091019190819084018382808284375050604080516020601f89358b018035918201839004830284018301909452808352979a99988101979196509182019450925082915084018382808284375050604080516020601f89358b018035918201839004830284018301909452808352979a999881019791965091820194509250829150840183828082843750949750610f119650505050505050565b34801561056c57600080fd5b506101a1600160a060020a0360043516600160e060020a03196024351661104c565b34801561059a57600080fd5b5061045f61106c565b3480156105af57600080fd5b5061045f6110a1565b3480156105c457600080fd5b5061042e6110d6565b3480156105d957600080fd5b5061045f6110e5565b3480156105ee57600080fd5b506101a1600160e060020a031960043516611140565b34801561061057600080fd5b5061045f611162565b34801561062557600080fd5b5061045f611197565b34801561063a57600080fd5b50610171600160e060020a0319600435166111f2565b34801561065c57600080fd5b5061045f61129b565b34801561067157600080fd5b5061045f6112f6565b34801561068657600080fd5b5061042e61132b565b34801561069b57600080fd5b50610171600160a060020a036004351661133a565b3480156106bc57600080fd5b5061045f611395565b3480156106d157600080fd5b506101a1600160a060020a03600435166113f0565b3480156106f257600080fd5b506101a1600160a060020a0360043516611405565b61070f61071f565b61071f61071a611423565b611448565b565b600160a060020a0382166000908152600460209081526040808320600160e060020a03198516845290915290205460ff1692915050565b600160e060020a0319811660009081526002602081815260408084206003810154815483516101006001808416159190910260001901909216879004601f8101879004870282018701909552848152606097889788979196938601949086019360ff90911692918691908301828280156108135780601f106107e857610100808354040283529160200191610813565b820191906000526020600020905b8154815290600101906020018083116107f657829003601f168201915b5050865460408051602060026001851615610100026000190190941693909304601f8101849004840282018401909252818152959950889450925084019050828280156108a15780601f10610876576101008083540402835291602001916108a1565b820191906000526020600020905b81548152906001019060200180831161088457829003601f168201915b5050855460408051602060026001851615610100026000190190941693909304601f81018490048402820184019092528181529598508794509250840190508282801561092f5780601f106109045761010080835404028352916020019161092f565b820191906000526020600020905b81548152906001019060200180831161091257829003601f168201915b5050505050915093509350935093509193509193565b61094e33611405565b1515610992576040805160e560020a62461bcd028152602060048201526018602482015260008051602061162c833981519152604482015290519081900360640190fd5b600160e060020a0319811660009081526002602052604090206003015460ff161515610a2e576040805160e560020a62461bcd02815260206004820152603960248201527f5065726d697373696f6e206265696e6720736574206d75737420626520666f7260448201527f20612076616c6964206d6574686f64207369676e617475726500000000000000606482015290519081900360840190fd5b600160a060020a039091166000908152600460209081526040808320600160e060020a0319909416835292905220805460ff19166001179055565b600054600160a060020a03163314610a8057600080fd5b610a898161146c565b50565b600260208181526000928352604092839020805484516001821615610100026000190190911693909304601f8101839004830284018301909452838352928391830182828015610b1d5780601f10610af257610100808354040283529160200191610b1d565b820191906000526020600020905b815481529060010190602001808311610b0057829003601f168201915b505050505090806001018054600181600116156101000203166002900480601f016020809104026020016040519081016040528092919081815260200182805460018160011615610100020316600290048015610bbb5780601f10610b9057610100808354040283529160200191610bbb565b820191906000526020600020905b815481529060010190602001808311610b9e57829003601f168201915b50505060028085018054604080516020601f6000196101006001871615020190941695909504928301859004850281018501909152818152959695945090925090830182828015610c4d5780601f10610c2257610100808354040283529160200191610c4d565b820191906000526020600020905b815481529060010190602001808311610c3057829003601f168201915b5050506003909301549192505060ff1684565b600054600160a060020a03163314610c7757600080fd5b600160a060020a038116600081815260036020526040808220805460ff19169055517fe1434e25d6611e0db941968fdc97811c982ac1602e951637d206f5fdda9dd8f19190a250565b600054600160a060020a03163314610cd757600080fd5b600160a060020a038116600081815260036020526040808220805460ff19166001179055517fe366c1c0452ed8eec96861e9e54141ebff23c9ec89fe27b996b45f5ec38849879190a250565b600154600160a060020a03163314610d3a57600080fd5b60015460008054604051600160a060020a0393841693909116917f8be0079c531659141344cd1fd0a4f28419497f9722a3daafe3b4186f6b6457e091a3600180546000805473ffffffffffffffffffffffffffffffffffffffff19908116600160a060020a03841617909155169055565b610db433611405565b1515610df8576040805160e560020a62461bcd028152602060048201526018602482015260008051602061162c833981519152604482015290519081900360640190fd5b600160e060020a0319811660009081526002602052604090206003015460ff161515610e94576040805160e560020a62461bcd02815260206004820152603d60248201527f5065726d697373696f6e206265696e672072656d6f766564206d75737420626560448201527f20666f7220612076616c6964206d6574686f64207369676e6174757265000000606482015290519081900360840190fd5b600160a060020a039091166000908152600460209081526040808320600160e060020a0319909416835292905220805460ff19169055565b6000610ed6611423565b90505b90565b604080517f636f6e7665727457542875696e743235362900000000000000000000000000008152905190819003601201902081565b610f19611568565b610f2233611405565b1515610f66576040805160e560020a62461bcd028152602060048201526018602482015260008051602061162c833981519152604482015290519081900360640190fd5b5060408051608081018252848152602080820185905281830184905260016060830152600160e060020a03198716600090815260028252929092208151805192938493610fb69284920190611593565b506020828101518051610fcf9260018501920190611593565b5060408201518051610feb916002840191602090910190611593565b50606091909101516003909101805460ff191691151591909117905560408051600160e060020a03198716815290517f6195913f4ea9fc2f5193c9f6763975b23790b3be094b1eb18f31843739005512916020908290030190a15050505050565b600460209081526000928352604080842090915290825290205460ff1681565b604080517f6d696e7428616464726573732c75696e743235362900000000000000000000008152905190819003601501902081565b604080517f6d696e744355534428616464726573732c75696e7432353629000000000000008152905190819003601901902081565b600054600160a060020a031681565b604080517f617070726f7665426c61636b6c6973746564416464726573735370656e64657281527f28616464726573732900000000000000000000000000000000000000000000006020820152905190819003602901902081565b600160e060020a03191660009081526002602052604090206003015460ff1690565b604080517f626c61636b6c69737465642829000000000000000000000000000000000000008152905190819003600d01902081565b604080517f64657374726f79426c61636b6c6973746564546f6b656e73286164647265737381527f2c75696e743235362900000000000000000000000000000000000000000000006020820152905190819003602901902081565b6111fb33611405565b151561123f576040805160e560020a62461bcd028152602060048201526018602482015260008051602061162c833981519152604482015290519081900360640190fd5b600160e060020a03198116600081815260026020908152604091829020600301805460ff19169055815192835290517f65cd5526557cbd93f0739d00ffcdf8f4a663eb2ed509203d884b3470158724c19281900390910190a150565b604080517f6275726e436172626f6e446f6c6c617228616464726573732c75696e7432353681527f29000000000000000000000000000000000000000000000000000000000000006020820152905190819003602101902081565b604080517f6275726e2875696e7432353629000000000000000000000000000000000000008152905190819003600d01902081565b600154600160a060020a031681565b600054600160a060020a0316331461135157600080fd5b600160a060020a038116151561136657600080fd5b6001805473ffffffffffffffffffffffffffffffffffffffff1916600160a060020a0392909216919091179055565b604080517f636f6e76657274436172626f6e446f6c6c617228616464726573732c75696e7481527f32353629000000000000000000000000000000000000000000000000000000006020820152905190819003602401902081565b60036020526000908152604090205460ff1681565b600160a060020a031660009081526003602052604090205460ff1690565b7f7050c9e0f4ca769c69bd3a8ef740bc37934f8e2c036e5a723fd8ee048ed3f8c35490565b3660008037600080366000845af43d6000803e808015611467573d6000f35b3d6000fd5b611475816114b4565b60408051600160a060020a038316815290517fbc7cd75a20ee27fd9adebab32041f755214dbc6bffa90cc0225b39da2e5c2d3b9181900360200190a150565b60006114bf82611560565b151561153b576040805160e560020a62461bcd02815260206004820152603b60248201527f43616e6e6f742073657420612070726f787920696d706c656d656e746174696f60448201527f6e20746f2061206e6f6e2d636f6e747261637420616464726573730000000000606482015290519081900360840190fd5b507f7050c9e0f4ca769c69bd3a8ef740bc37934f8e2c036e5a723fd8ee048ed3f8c355565b6000903b1190565b6080604051908101604052806060815260200160608152602001606081526020016000151581525090565b828054600181600116156101000203166002900490600052602060002090601f016020900481019282601f106115d457805160ff1916838001178555611601565b82800160010185558215611601579182015b828111156116015782518255916020019190600101906115e6565b5061160d929150611611565b5090565b610ed991905b8082111561160d5760008155600101611617560053656e646572206d7573742062652076616c696461746f720000000000000000a165627a7a72305820cc9fb92d196fd26c5df1ba01c3ac5c529d0b24e2434eddb99da751f6f21c88a500297050c9e0f4ca769c69bd3a8ef740bc37934f8e2c036e5a723fd8ee048ed3f8c3a165627a7a7230582009cec8772c0a4e98e84f75eb255c1b233e13b10ca1fe519faf8dbbccb2bf6a270029",
  "source": "pragma solidity ^0.4.24;\r\n\r\nimport \"../regulator/RegulatorProxy.sol\";\r\nimport \"../regulator/Regulator.sol\";\r\n\r\n/**\r\n*\r\n* @dev RegulatorProxyFactory creates new RegulatorProxy contracts with new data storage sheets, properly configured\r\n* with ownership, and the proxy logic implementations are based on a user-specified Regulator. \r\n*\r\n**/\r\ncontract RegulatorProxyFactory {\r\n\r\n    // TODO: Instead of a single array of addresses, this should be a mapping or an array\r\n    // of objects of type { address: ...new_regulator, type: whitelisted_or_cusd }\r\n    address[] public regulators;\r\n\r\n    // Events\r\n    event CreatedRegulatorProxy(address newRegulator, uint256 index);\r\n\r\n    /**\r\n    *\r\n    * @dev generate a new proxyaddress that users can cast to a Regulator or RegulatorProxy. The\r\n    * proxy has empty data storage contracts connected to it and it is set with an initial logic contract\r\n    * to which it will delegate functionality\r\n    * @notice the method caller will have to claim ownership of regulators since regulators are claimable\r\n    * @param regulatorImplementation the address of the logic contract that the proxy will initialize its implementation to\r\n    *\r\n    **/\r\n    function createRegulatorProxy(address regulatorImplementation) public {\r\n\r\n        // Store new data storage contracts for regulator proxy\r\n        address proxy = address(new RegulatorProxy(regulatorImplementation));\r\n        Regulator newRegulator = Regulator(proxy);\r\n\r\n        // Testing: Add msg.sender as a validator, add all permissions\r\n        newRegulator.addValidator(msg.sender);\r\n        addAllPermissions(newRegulator);\r\n\r\n        // The function caller should own the proxy contract, so they will need to claim ownership\r\n        RegulatorProxy(proxy).transferOwnership(msg.sender);\r\n\r\n        regulators.push(proxy);\r\n        emit CreatedRegulatorProxy(proxy, getCount()-1);\r\n    }\r\n\r\n    /**\r\n    *\r\n    * @dev Add all permission signatures to regulator\r\n    *\r\n    **/\r\n    function addAllPermissions(Regulator regulator) public {\r\n\r\n        // Make this contract a temporary validator to add all permissions\r\n        regulator.addValidator(this);\r\n        regulator.addPermission(regulator.MINT_SIG(), \"\", \"\", \"\" );\r\n        regulator.addPermission(regulator.BURN_SIG(), \"\", \"\", \"\" );\r\n        regulator.addPermission(regulator.DESTROY_BLACKLISTED_TOKENS_SIG(), \"\", \"\", \"\" );\r\n        regulator.addPermission(regulator.APPROVE_BLACKLISTED_ADDRESS_SPENDER_SIG(), \"\", \"\", \"\" );\r\n        regulator.addPermission(regulator.BLACKLISTED_SIG(), \"\", \"\", \"\" );\r\n        regulator.addPermission(regulator.CONVERT_CARBON_DOLLAR_SIG(), \"\", \"\", \"\" );\r\n        regulator.addPermission(regulator.BURN_CARBON_DOLLAR_SIG(), \"\", \"\", \"\" );\r\n        regulator.addPermission(regulator.MINT_CUSD_SIG(), \"\", \"\", \"\" );\r\n        regulator.addPermission(regulator.CONVERT_WT_SIG(), \"\", \"\", \"\" );\r\n        regulator.removeValidator(this);\r\n    }\r\n\r\n    // Return number of proxies created \r\n    function getCount() public view returns (uint256) {\r\n        return regulators.length;\r\n    }\r\n\r\n    // Return the i'th created proxy. The most recently created proxy will be at position getCount()-1.\r\n    function getRegulatorProxy(uint256 i) public view returns(address) {\r\n        require((i < regulators.length) && (i >= 0), \"Invalid index\");\r\n        return regulators[i];\r\n    }\r\n}\r\n",
  "sourcePath": "C:\\Users\\npain\\Projects\\Carbon\\fiat_gateway\\contracts\\factories\\RegulatorProxyFactory.sol",
  "compiler": {
    "name": "solc",
    "version": "0.4.24+commit.e67f0147.Emscripten.clang"
  },
  "schemaVersion": "2.0.1",
  "updatedAt": "2018-09-28T20:09:30.557Z"
}