{
  "contractName": "Regulator",
  "abi": [
    {
      "constant": true,
      "inputs": [],
      "name": "userPermissions",
      "outputs": [
        {
          "name": "",
          "type": "address"
        }
      ],
      "payable": false,
      "stateMutability": "view",
      "type": "function"
    },
    {
      "constant": true,
      "inputs": [],
      "name": "DESTROYSELF_SIG",
      "outputs": [
        {
          "name": "",
          "type": "bytes4"
        }
      ],
      "payable": false,
      "stateMutability": "view",
      "type": "function"
    },
    {
      "constant": false,
      "inputs": [],
      "name": "claimOwnership",
      "outputs": [],
      "payable": false,
      "stateMutability": "nonpayable",
      "type": "function"
    },
    {
      "constant": true,
      "inputs": [],
      "name": "DESTROYBLACKLIST_SIG",
      "outputs": [
        {
          "name": "",
          "type": "bytes4"
        }
      ],
      "payable": false,
      "stateMutability": "view",
      "type": "function"
    },
    {
      "constant": false,
      "inputs": [],
      "name": "renounceOwnership",
      "outputs": [],
      "payable": false,
      "stateMutability": "nonpayable",
      "type": "function"
    },
    {
      "constant": true,
      "inputs": [],
      "name": "ADD_BLACKLISTED_SPENDER_SIG",
      "outputs": [
        {
          "name": "",
          "type": "bytes4"
        }
      ],
      "payable": false,
      "stateMutability": "view",
      "type": "function"
    },
    {
      "constant": true,
      "inputs": [],
      "name": "MINT_SIG",
      "outputs": [
        {
          "name": "",
          "type": "bytes4"
        }
      ],
      "payable": false,
      "stateMutability": "view",
      "type": "function"
    },
    {
      "constant": true,
      "inputs": [],
      "name": "owner",
      "outputs": [
        {
          "name": "",
          "type": "address"
        }
      ],
      "payable": false,
      "stateMutability": "view",
      "type": "function"
    },
    {
      "constant": true,
      "inputs": [],
      "name": "availablePermissions",
      "outputs": [
        {
          "name": "",
          "type": "address"
        }
      ],
      "payable": false,
      "stateMutability": "view",
      "type": "function"
    },
    {
      "constant": true,
      "inputs": [
        {
          "name": "contractName",
          "type": "string"
        },
        {
          "name": "migrationId",
          "type": "string"
        }
      ],
      "name": "isMigrated",
      "outputs": [
        {
          "name": "",
          "type": "bool"
        }
      ],
      "payable": false,
      "stateMutability": "view",
      "type": "function"
    },
    {
      "constant": true,
      "inputs": [],
      "name": "validators",
      "outputs": [
        {
          "name": "",
          "type": "address"
        }
      ],
      "payable": false,
      "stateMutability": "view",
      "type": "function"
    },
    {
      "constant": true,
      "inputs": [],
      "name": "BURN_SIG",
      "outputs": [
        {
          "name": "",
          "type": "bytes4"
        }
      ],
      "payable": false,
      "stateMutability": "view",
      "type": "function"
    },
    {
      "constant": true,
      "inputs": [],
      "name": "pendingOwner",
      "outputs": [
        {
          "name": "",
          "type": "address"
        }
      ],
      "payable": false,
      "stateMutability": "view",
      "type": "function"
    },
    {
      "constant": false,
      "inputs": [
        {
          "name": "newOwner",
          "type": "address"
        }
      ],
      "name": "transferOwnership",
      "outputs": [],
      "payable": false,
      "stateMutability": "nonpayable",
      "type": "function"
    },
    {
      "anonymous": false,
      "inputs": [
        {
          "indexed": false,
          "name": "oldStorage",
          "type": "address"
        },
        {
          "indexed": false,
          "name": "newStorage",
          "type": "address"
        }
      ],
      "name": "SetPermissionStorage",
      "type": "event"
    },
    {
      "anonymous": false,
      "inputs": [
        {
          "indexed": false,
          "name": "oldStorage",
          "type": "address"
        },
        {
          "indexed": false,
          "name": "newStorage",
          "type": "address"
        }
      ],
      "name": "SetUserPermissionsStorage",
      "type": "event"
    },
    {
      "anonymous": false,
      "inputs": [
        {
          "indexed": false,
          "name": "oldStorage",
          "type": "address"
        },
        {
          "indexed": false,
          "name": "newStorage",
          "type": "address"
        }
      ],
      "name": "SetValidatorStorage",
      "type": "event"
    },
    {
      "anonymous": false,
      "inputs": [
        {
          "indexed": false,
          "name": "contractName",
          "type": "string"
        },
        {
          "indexed": false,
          "name": "migrationId",
          "type": "string"
        }
      ],
      "name": "Migrated",
      "type": "event"
    },
    {
      "anonymous": false,
      "inputs": [
        {
          "indexed": true,
          "name": "previousOwner",
          "type": "address"
        }
      ],
      "name": "OwnershipRenounced",
      "type": "event"
    },
    {
      "anonymous": false,
      "inputs": [
        {
          "indexed": true,
          "name": "previousOwner",
          "type": "address"
        },
        {
          "indexed": true,
          "name": "newOwner",
          "type": "address"
        }
      ],
      "name": "OwnershipTransferred",
      "type": "event"
    },
    {
      "constant": false,
      "inputs": [],
      "name": "initialize",
      "outputs": [],
      "payable": false,
      "stateMutability": "nonpayable",
      "type": "function"
    },
    {
      "constant": false,
      "inputs": [
        {
          "name": "_oldRegulator",
          "type": "address"
        }
      ],
      "name": "migrate",
      "outputs": [],
      "payable": false,
      "stateMutability": "nonpayable",
      "type": "function"
    },
    {
      "constant": false,
      "inputs": [
        {
          "name": "_newStorage",
          "type": "address"
        }
      ],
      "name": "setPermissionStorage",
      "outputs": [],
      "payable": false,
      "stateMutability": "nonpayable",
      "type": "function"
    },
    {
      "constant": false,
      "inputs": [
        {
          "name": "_newStorage",
          "type": "address"
        }
      ],
      "name": "setUserPermissionsStorage",
      "outputs": [],
      "payable": false,
      "stateMutability": "nonpayable",
      "type": "function"
    },
    {
      "constant": false,
      "inputs": [
        {
          "name": "_newStorage",
          "type": "address"
        }
      ],
      "name": "setValidatorStorage",
      "outputs": [],
      "payable": false,
      "stateMutability": "nonpayable",
      "type": "function"
    },
    {
      "constant": false,
      "inputs": [],
      "name": "transferStorageOwnership",
      "outputs": [],
      "payable": false,
      "stateMutability": "nonpayable",
      "type": "function"
    },
    {
      "constant": false,
      "inputs": [],
      "name": "claimStorageOwnership",
      "outputs": [],
      "payable": false,
      "stateMutability": "nonpayable",
      "type": "function"
    },
    {
      "constant": false,
      "inputs": [
        {
          "name": "_who",
          "type": "address"
        }
      ],
      "name": "addValidator",
      "outputs": [],
      "payable": false,
      "stateMutability": "nonpayable",
      "type": "function"
    },
    {
      "constant": false,
      "inputs": [
        {
          "name": "_who",
          "type": "address"
        }
      ],
      "name": "removeValidator",
      "outputs": [],
      "payable": false,
      "stateMutability": "nonpayable",
      "type": "function"
    },
    {
      "constant": false,
      "inputs": [
        {
          "name": "_who",
          "type": "address"
        }
      ],
      "name": "setMinter",
      "outputs": [],
      "payable": false,
      "stateMutability": "nonpayable",
      "type": "function"
    },
    {
      "constant": false,
      "inputs": [
        {
          "name": "_who",
          "type": "address"
        }
      ],
      "name": "removeMinter",
      "outputs": [],
      "payable": false,
      "stateMutability": "nonpayable",
      "type": "function"
    },
    {
      "constant": true,
      "inputs": [
        {
          "name": "_who",
          "type": "address"
        }
      ],
      "name": "isMinter",
      "outputs": [
        {
          "name": "",
          "type": "bool"
        }
      ],
      "payable": false,
      "stateMutability": "view",
      "type": "function"
    },
    {
      "constant": false,
      "inputs": [
        {
          "name": "_who",
          "type": "address"
        }
      ],
      "name": "setWhitelistedUser",
      "outputs": [],
      "payable": false,
      "stateMutability": "nonpayable",
      "type": "function"
    },
    {
      "constant": false,
      "inputs": [
        {
          "name": "_who",
          "type": "address"
        }
      ],
      "name": "setBlacklistedUser",
      "outputs": [],
      "payable": false,
      "stateMutability": "nonpayable",
      "type": "function"
    },
    {
      "constant": false,
      "inputs": [
        {
          "name": "_who",
          "type": "address"
        }
      ],
      "name": "setNonlistedUser",
      "outputs": [],
      "payable": false,
      "stateMutability": "nonpayable",
      "type": "function"
    },
    {
      "constant": true,
      "inputs": [
        {
          "name": "_who",
          "type": "address"
        }
      ],
      "name": "isWhitelistedUser",
      "outputs": [
        {
          "name": "",
          "type": "bool"
        }
      ],
      "payable": false,
      "stateMutability": "view",
      "type": "function"
    },
    {
      "constant": true,
      "inputs": [
        {
          "name": "_who",
          "type": "address"
        }
      ],
      "name": "isBlacklistedUser",
      "outputs": [
        {
          "name": "",
          "type": "bool"
        }
      ],
      "payable": false,
      "stateMutability": "view",
      "type": "function"
    },
    {
      "constant": true,
      "inputs": [
        {
          "name": "_who",
          "type": "address"
        }
      ],
      "name": "isNonlistedUser",
      "outputs": [
        {
          "name": "",
          "type": "bool"
        }
      ],
      "payable": false,
      "stateMutability": "view",
      "type": "function"
    },
    {
      "constant": false,
      "inputs": [
        {
          "name": "_who",
          "type": "address"
        },
        {
          "name": "_methodsignature",
          "type": "bytes4"
        }
      ],
      "name": "setPermission",
      "outputs": [],
      "payable": false,
      "stateMutability": "nonpayable",
      "type": "function"
    },
    {
      "constant": false,
      "inputs": [
        {
          "name": "_who",
          "type": "address"
        },
        {
          "name": "_methodsignature",
          "type": "bytes4"
        }
      ],
      "name": "removePermission",
      "outputs": [],
      "payable": false,
      "stateMutability": "nonpayable",
      "type": "function"
    },
    {
      "constant": true,
      "inputs": [
        {
          "name": "_who",
          "type": "address"
        },
        {
          "name": "_methodsignature",
          "type": "bytes4"
        }
      ],
      "name": "hasPermission",
      "outputs": [
        {
          "name": "",
          "type": "bool"
        }
      ],
      "payable": false,
      "stateMutability": "view",
      "type": "function"
    }
  ],
  "bytecode": "0x608060405260405180807f64657374726f7953656c66282900000000000000000000000000000000000000815250600d0190506040518091039020600560146101000a81548163ffffffff02191690837c01000000000000000000000000000000000000000000000000000000009004021790555060405180807f6275726e2875696e743235362900000000000000000000000000000000000000815250600d0190506040518091039020600560186101000a81548163ffffffff02191690837c01000000000000000000000000000000000000000000000000000000009004021790555060405180807f6d696e7428616464726573732c75696e74323536290000000000000000000000815250601501905060405180910390206005601c6101000a81548163ffffffff02191690837c01000000000000000000000000000000000000000000000000000000009004021790555060405180807f64657374726f79426c61636b6c6973746564546f6b656e73286164647265737381526020017f290000000000000000000000000000000000000000000000000000000000000081525060210190506040518091039020600660006101000a81548163ffffffff02191690837c01000000000000000000000000000000000000000000000000000000009004021790555060405180807f616464426c61636b6c6973746564416464726573735370656e6465722861646481526020017f726573732900000000000000000000000000000000000000000000000000000081525060250190506040518091039020600660046101000a81548163ffffffff02191690837c010000000000000000000000000000000000000000000000000000000090040217905550336000806101000a81548173ffffffffffffffffffffffffffffffffffffffff021916908373ffffffffffffffffffffffffffffffffffffffff1602179055506144fb806102cf6000396000f3006080604052600436106101b7576000357c0100000000000000000000000000000000000000000000000000000000900463ffffffff16806302abcae2146101bc578063072b051514610228578063095333031461027f5780630b2f6d41146102c2578063174d8b851461032e5780633092afd51461039757806340a141ff146103da5780634d238c8e1461041d5780634d54dc96146104605780634e71e0c8146104bb578063522f6e69146104d2578063546f87781461053b5780635672f4a014610552578063715018a6146105955780637ccce851146105ac5780638129fc1c1461060757806387b6eaf21461061e57806388f14b0e146106875780638da5cb5b146106f0578063aa271e1a14610747578063aef5eb80146107a2578063b2daee5c146107e5578063b516af701461083c578063bed98a0d14610853578063c0bac1a8146108d7578063c56bea641461099e578063ca1e7819146109e1578063cd49539114610a38578063ce5494bb14610a7b578063cfbf1b9014610abe578063d88c271e14610b27578063e30c397814610b82578063e51207e714610bd9578063f2fde38b14610c1c578063fca3b5aa14610c5f575b600080fd5b3480156101c857600080fd5b50610226600480360381019080803573ffffffffffffffffffffffffffffffffffffffff16906020019092919080357bffffffffffffffffffffffffffffffffffffffffffffffffffffffff19169060200190929190505050610ca2565b005b34801561023457600080fd5b5061023d610fd9565b604051808273ffffffffffffffffffffffffffffffffffffffff1673ffffffffffffffffffffffffffffffffffffffff16815260200191505060405180910390f35b34801561028b57600080fd5b506102c0600480360381019080803573ffffffffffffffffffffffffffffffffffffffff169060200190929190505050610fff565b005b3480156102ce57600080fd5b5061032c600480360381019080803573ffffffffffffffffffffffffffffffffffffffff16906020019092919080357bffffffffffffffffffffffffffffffffffffffffffffffffffffffff1916906020019092919050505061150d565b005b34801561033a57600080fd5b50610343611844565b60405180827bffffffffffffffffffffffffffffffffffffffffffffffffffffffff19167bffffffffffffffffffffffffffffffffffffffffffffffffffffffff1916815260200191505060405180910390f35b3480156103a357600080fd5b506103d8600480360381019080803573ffffffffffffffffffffffffffffffffffffffff169060200190929190505050611873565b005b3480156103e657600080fd5b5061041b600480360381019080803573ffffffffffffffffffffffffffffffffffffffff169060200190929190505050611b57565b005b34801561042957600080fd5b5061045e600480360381019080803573ffffffffffffffffffffffffffffffffffffffff169060200190929190505050611c8a565b005b34801561046c57600080fd5b506104a1600480360381019080803573ffffffffffffffffffffffffffffffffffffffff169060200190929190505050611dbd565b604051808215151515815260200191505060405180910390f35b3480156104c757600080fd5b506104d0611e3a565b005b3480156104de57600080fd5b506104e7611fd9565b60405180827bffffffffffffffffffffffffffffffffffffffffffffffffffffffff19167bffffffffffffffffffffffffffffffffffffffffffffffffffffffff1916815260200191505060405180910390f35b34801561054757600080fd5b50610550612008565b005b34801561055e57600080fd5b50610593600480360381019080803573ffffffffffffffffffffffffffffffffffffffff1690602001909291905050506122e4565b005b3480156105a157600080fd5b506105aa61234b565b005b3480156105b857600080fd5b506105ed600480360381019080803573ffffffffffffffffffffffffffffffffffffffff16906020019092919050505061244d565b604051808215151515815260200191505060405180910390f35b34801561061357600080fd5b5061061c6124c9565b005b34801561062a57600080fd5b50610633612745565b60405180827bffffffffffffffffffffffffffffffffffffffffffffffffffffffff19167bffffffffffffffffffffffffffffffffffffffffffffffffffffffff1916815260200191505060405180910390f35b34801561069357600080fd5b5061069c612774565b60405180827bffffffffffffffffffffffffffffffffffffffffffffffffffffffff19167bffffffffffffffffffffffffffffffffffffffffffffffffffffffff1916815260200191505060405180910390f35b3480156106fc57600080fd5b506107056127a3565b604051808273ffffffffffffffffffffffffffffffffffffffff1673ffffffffffffffffffffffffffffffffffffffff16815260200191505060405180910390f35b34801561075357600080fd5b50610788600480360381019080803573ffffffffffffffffffffffffffffffffffffffff1690602001909291905050506127c8565b604051808215151515815260200191505060405180910390f35b3480156107ae57600080fd5b506107e3600480360381019080803573ffffffffffffffffffffffffffffffffffffffff169060200190929190505050612806565b005b3480156107f157600080fd5b506107fa61286d565b604051808273ffffffffffffffffffffffffffffffffffffffff1673ffffffffffffffffffffffffffffffffffffffff16815260200191505060405180910390f35b34801561084857600080fd5b50610851612893565b005b34801561085f57600080fd5b506108bd600480360381019080803573ffffffffffffffffffffffffffffffffffffffff16906020019092919080357bffffffffffffffffffffffffffffffffffffffffffffffffffffffff191690602001909291905050506128f8565b604051808215151515815260200191505060405180910390f35b3480156108e357600080fd5b50610984600480360381019080803590602001908201803590602001908080601f0160208091040260200160405190810160405280939291908181526020018383808284378201915050505050509192919290803590602001908201803590602001908080601f0160208091040260200160405190810160405280939291908181526020018383808284378201915050505050509192919290505050612a40565b604051808215151515815260200191505060405180910390f35b3480156109aa57600080fd5b506109df600480360381019080803573ffffffffffffffffffffffffffffffffffffffff169060200190929190505050612b2c565b005b3480156109ed57600080fd5b506109f661303a565b604051808273ffffffffffffffffffffffffffffffffffffffff1673ffffffffffffffffffffffffffffffffffffffff16815260200191505060405180910390f35b348015610a4457600080fd5b50610a79600480360381019080803573ffffffffffffffffffffffffffffffffffffffff169060200190929190505050613060565b005b348015610a8757600080fd5b50610abc600480360381019080803573ffffffffffffffffffffffffffffffffffffffff16906020019092919050505061356e565b005b348015610aca57600080fd5b50610ad3613b2f565b60405180827bffffffffffffffffffffffffffffffffffffffffffffffffffffffff19167bffffffffffffffffffffffffffffffffffffffffffffffffffffffff1916815260200191505060405180910390f35b348015610b3357600080fd5b50610b68600480360381019080803573ffffffffffffffffffffffffffffffffffffffff169060200190929190505050613b5e565b604051808215151515815260200191505060405180910390f35b348015610b8e57600080fd5b50610b97613bda565b604051808273ffffffffffffffffffffffffffffffffffffffff1673ffffffffffffffffffffffffffffffffffffffff16815260200191505060405180910390f35b348015610be557600080fd5b50610c1a600480360381019080803573ffffffffffffffffffffffffffffffffffffffff169060200190929190505050613c00565b005b348015610c2857600080fd5b50610c5d600480360381019080803573ffffffffffffffffffffffffffffffffffffffff169060200190929190505050613c67565b005b348015610c6b57600080fd5b50610ca0600480360381019080803573ffffffffffffffffffffffffffffffffffffffff169060200190929190505050613d06565b005b600560009054906101000a900473ffffffffffffffffffffffffffffffffffffffff1673ffffffffffffffffffffffffffffffffffffffff1663facd743b336040518263ffffffff167c0100000000000000000000000000000000000000000000000000000000028152600401808273ffffffffffffffffffffffffffffffffffffffff1673ffffffffffffffffffffffffffffffffffffffff168152602001915050602060405180830381600087803b158015610d5f57600080fd5b505af1158015610d73573d6000803e3d6000fd5b505050506040513d6020811015610d8957600080fd5b81019080805190602001909291905050501515610da557600080fd5b600360009054906101000a900473ffffffffffffffffffffffffffffffffffffffff1673ffffffffffffffffffffffffffffffffffffffff1663933aa667826040518263ffffffff167c010000000000000000000000000000000000000000000000000000000002815260040180827bffffffffffffffffffffffffffffffffffffffffffffffffffffffff19167bffffffffffffffffffffffffffffffffffffffffffffffffffffffff19168152602001915050602060405180830381600087803b158015610e7457600080fd5b505af1158015610e88573d6000803e3d6000fd5b505050506040513d6020811015610e9e57600080fd5b81019080805190602001909291905050501515610eba57600080fd5b600460009054906101000a900473ffffffffffffffffffffffffffffffffffffffff1673ffffffffffffffffffffffffffffffffffffffff166302abcae283836040518363ffffffff167c0100000000000000000000000000000000000000000000000000000000028152600401808373ffffffffffffffffffffffffffffffffffffffff1673ffffffffffffffffffffffffffffffffffffffff168152602001827bffffffffffffffffffffffffffffffffffffffffffffffffffffffff19167bffffffffffffffffffffffffffffffffffffffffffffffffffffffff1916815260200192505050600060405180830381600087803b158015610fbd57600080fd5b505af1158015610fd1573d6000803e3d6000fd5b505050505050565b600460009054906101000a900473ffffffffffffffffffffffffffffffffffffffff1681565b600560009054906101000a900473ffffffffffffffffffffffffffffffffffffffff1673ffffffffffffffffffffffffffffffffffffffff1663facd743b336040518263ffffffff167c0100000000000000000000000000000000000000000000000000000000028152600401808273ffffffffffffffffffffffffffffffffffffffff1673ffffffffffffffffffffffffffffffffffffffff168152602001915050602060405180830381600087803b1580156110bc57600080fd5b505af11580156110d0573d6000803e3d6000fd5b505050506040513d60208110156110e657600080fd5b8101908080519060200190929190505050151561110257600080fd5b600360009054906101000a900473ffffffffffffffffffffffffffffffffffffffff1673ffffffffffffffffffffffffffffffffffffffff1663933aa667600560189054906101000a90047c0100000000000000000000000000000000000000000000000000000000026040518263ffffffff167c010000000000000000000000000000000000000000000000000000000002815260040180827bffffffffffffffffffffffffffffffffffffffffffffffffffffffff19167bffffffffffffffffffffffffffffffffffffffffffffffffffffffff19168152602001915050602060405180830381600087803b1580156111fc57600080fd5b505af1158015611210573d6000803e3d6000fd5b505050506040513d602081101561122657600080fd5b810190808051906020019092919050505015156112d1576040517f08c379a00000000000000000000000000000000000000000000000000000000081526004018080602001828103825260228152602001807f4275726e206d6574686f64206e6f7420737570706f7274656420627920746f6b81526020017f656e00000000000000000000000000000000000000000000000000000000000081525060400191505060405180910390fd5b600360009054906101000a900473ffffffffffffffffffffffffffffffffffffffff1673ffffffffffffffffffffffffffffffffffffffff1663933aa667600560149054906101000a90047c0100000000000000000000000000000000000000000000000000000000026040518263ffffffff167c010000000000000000000000000000000000000000000000000000000002815260040180827bffffffffffffffffffffffffffffffffffffffffffffffffffffffff19167bffffffffffffffffffffffffffffffffffffffffffffffffffffffff19168152602001915050602060405180830381600087803b1580156113cb57600080fd5b505af11580156113df573d6000803e3d6000fd5b505050506040513d60208110156113f557600080fd5b810190808051906020019092919050505015156114a0576040517f08c379a000000000000000000000000000000000000000000000000000000000815260040180806020018281038252602b8152602001807f53656c662d6465737472756374206d6574686f64206e6f7420737570706f727481526020017f656420627920746f6b656e00000000000000000000000000000000000000000081525060400191505060405180910390fd5b6114d581600560189054906101000a90047c010000000000000000000000000000000000000000000000000000000002610ca2565b61150a81600560149054906101000a90047c01000000000000000000000000000000000000000000000000000000000261150d565b50565b600560009054906101000a900473ffffffffffffffffffffffffffffffffffffffff1673ffffffffffffffffffffffffffffffffffffffff1663facd743b336040518263ffffffff167c0100000000000000000000000000000000000000000000000000000000028152600401808273ffffffffffffffffffffffffffffffffffffffff1673ffffffffffffffffffffffffffffffffffffffff168152602001915050602060405180830381600087803b1580156115ca57600080fd5b505af11580156115de573d6000803e3d6000fd5b505050506040513d60208110156115f457600080fd5b8101908080519060200190929190505050151561161057600080fd5b600360009054906101000a900473ffffffffffffffffffffffffffffffffffffffff1673ffffffffffffffffffffffffffffffffffffffff1663933aa667826040518263ffffffff167c010000000000000000000000000000000000000000000000000000000002815260040180827bffffffffffffffffffffffffffffffffffffffffffffffffffffffff19167bffffffffffffffffffffffffffffffffffffffffffffffffffffffff19168152602001915050602060405180830381600087803b1580156116df57600080fd5b505af11580156116f3573d6000803e3d6000fd5b505050506040513d602081101561170957600080fd5b8101908080519060200190929190505050151561172557600080fd5b600460009054906101000a900473ffffffffffffffffffffffffffffffffffffffff1673ffffffffffffffffffffffffffffffffffffffff16630b2f6d4183836040518363ffffffff167c0100000000000000000000000000000000000000000000000000000000028152600401808373ffffffffffffffffffffffffffffffffffffffff1673ffffffffffffffffffffffffffffffffffffffff168152602001827bffffffffffffffffffffffffffffffffffffffffffffffffffffffff19167bffffffffffffffffffffffffffffffffffffffffffffffffffffffff1916815260200192505050600060405180830381600087803b15801561182857600080fd5b505af115801561183c573d6000803e3d6000fd5b505050505050565b600560149054906101000a90047c01000000000000000000000000000000000000000000000000000000000281565b600560009054906101000a900473ffffffffffffffffffffffffffffffffffffffff1673ffffffffffffffffffffffffffffffffffffffff1663facd743b336040518263ffffffff167c0100000000000000000000000000000000000000000000000000000000028152600401808273ffffffffffffffffffffffffffffffffffffffff1673ffffffffffffffffffffffffffffffffffffffff168152602001915050602060405180830381600087803b15801561193057600080fd5b505af1158015611944573d6000803e3d6000fd5b505050506040513d602081101561195a57600080fd5b8101908080519060200190929190505050151561197657600080fd5b600360009054906101000a900473ffffffffffffffffffffffffffffffffffffffff1673ffffffffffffffffffffffffffffffffffffffff1663933aa6676005601c9054906101000a90047c0100000000000000000000000000000000000000000000000000000000026040518263ffffffff167c010000000000000000000000000000000000000000000000000000000002815260040180827bffffffffffffffffffffffffffffffffffffffffffffffffffffffff19167bffffffffffffffffffffffffffffffffffffffffffffffffffffffff19168152602001915050602060405180830381600087803b158015611a7057600080fd5b505af1158015611a84573d6000803e3d6000fd5b505050506040513d6020811015611a9a57600080fd5b81019080805190602001909291905050501515611b1f576040517f08c379a000000000000000000000000000000000000000000000000000000000815260040180806020018281038252601e8152602001807f4d696e74696e67206e6f7420737570706f7274656420627920746f6b656e000081525060200191505060405180910390fd5b611b54816005601c9054906101000a90047c01000000000000000000000000000000000000000000000000000000000261150d565b50565b6000809054906101000a900473ffffffffffffffffffffffffffffffffffffffff1673ffffffffffffffffffffffffffffffffffffffff163373ffffffffffffffffffffffffffffffffffffffff16141515611bb257600080fd5b600560009054906101000a900473ffffffffffffffffffffffffffffffffffffffff1673ffffffffffffffffffffffffffffffffffffffff166340a141ff826040518263ffffffff167c0100000000000000000000000000000000000000000000000000000000028152600401808273ffffffffffffffffffffffffffffffffffffffff1673ffffffffffffffffffffffffffffffffffffffff168152602001915050600060405180830381600087803b158015611c6f57600080fd5b505af1158015611c83573d6000803e3d6000fd5b5050505050565b6000809054906101000a900473ffffffffffffffffffffffffffffffffffffffff1673ffffffffffffffffffffffffffffffffffffffff163373ffffffffffffffffffffffffffffffffffffffff16141515611ce557600080fd5b600560009054906101000a900473ffffffffffffffffffffffffffffffffffffffff1673ffffffffffffffffffffffffffffffffffffffff16634d238c8e826040518263ffffffff167c0100000000000000000000000000000000000000000000000000000000028152600401808273ffffffffffffffffffffffffffffffffffffffff1673ffffffffffffffffffffffffffffffffffffffff168152602001915050600060405180830381600087803b158015611da257600080fd5b505af1158015611db6573d6000803e3d6000fd5b5050505050565b6000611df482600560189054906101000a90047c0100000000000000000000000000000000000000000000000000000000026128f8565b158015611e335750611e3182600560149054906101000a90047c0100000000000000000000000000000000000000000000000000000000026128f8565b155b9050919050565b600160009054906101000a900473ffffffffffffffffffffffffffffffffffffffff1673ffffffffffffffffffffffffffffffffffffffff163373ffffffffffffffffffffffffffffffffffffffff16141515611e9657600080fd5b600160009054906101000a900473ffffffffffffffffffffffffffffffffffffffff1673ffffffffffffffffffffffffffffffffffffffff166000809054906101000a900473ffffffffffffffffffffffffffffffffffffffff1673ffffffffffffffffffffffffffffffffffffffff167f8be0079c531659141344cd1fd0a4f28419497f9722a3daafe3b4186f6b6457e060405160405180910390a3600160009054906101000a900473ffffffffffffffffffffffffffffffffffffffff166000806101000a81548173ffffffffffffffffffffffffffffffffffffffff021916908373ffffffffffffffffffffffffffffffffffffffff1602179055506000600160006101000a81548173ffffffffffffffffffffffffffffffffffffffff021916908373ffffffffffffffffffffffffffffffffffffffff160217905550565b600660009054906101000a90047c01000000000000000000000000000000000000000000000000000000000281565b6000809054906101000a900473ffffffffffffffffffffffffffffffffffffffff1673ffffffffffffffffffffffffffffffffffffffff163373ffffffffffffffffffffffffffffffffffffffff1614151561206357600080fd5b600460009054906101000a900473ffffffffffffffffffffffffffffffffffffffff1673ffffffffffffffffffffffffffffffffffffffff1663f2fde38b336040518263ffffffff167c0100000000000000000000000000000000000000000000000000000000028152600401808273ffffffffffffffffffffffffffffffffffffffff1673ffffffffffffffffffffffffffffffffffffffff168152602001915050600060405180830381600087803b15801561212057600080fd5b505af1158015612134573d6000803e3d6000fd5b50505050600360009054906101000a900473ffffffffffffffffffffffffffffffffffffffff1673ffffffffffffffffffffffffffffffffffffffff1663f2fde38b336040518263ffffffff167c0100000000000000000000000000000000000000000000000000000000028152600401808273ffffffffffffffffffffffffffffffffffffffff1673ffffffffffffffffffffffffffffffffffffffff168152602001915050600060405180830381600087803b1580156121f557600080fd5b505af1158015612209573d6000803e3d6000fd5b50505050600560009054906101000a900473ffffffffffffffffffffffffffffffffffffffff1673ffffffffffffffffffffffffffffffffffffffff1663f2fde38b336040518263ffffffff167c0100000000000000000000000000000000000000000000000000000000028152600401808273ffffffffffffffffffffffffffffffffffffffff1673ffffffffffffffffffffffffffffffffffffffff168152602001915050600060405180830381600087803b1580156122ca57600080fd5b505af11580156122de573d6000803e3d6000fd5b50505050565b6000809054906101000a900473ffffffffffffffffffffffffffffffffffffffff1673ffffffffffffffffffffffffffffffffffffffff163373ffffffffffffffffffffffffffffffffffffffff1614151561233f57600080fd5b61234881613fea565b50565b6000809054906101000a900473ffffffffffffffffffffffffffffffffffffffff1673ffffffffffffffffffffffffffffffffffffffff163373ffffffffffffffffffffffffffffffffffffffff161415156123a657600080fd5b6000809054906101000a900473ffffffffffffffffffffffffffffffffffffffff1673ffffffffffffffffffffffffffffffffffffffff167ff8df31144d9c2f0f6b59d69b8b98abd5459d07f2742c4df920b25aae33c6482060405160405180910390a260008060006101000a81548173ffffffffffffffffffffffffffffffffffffffff021916908373ffffffffffffffffffffffffffffffffffffffff160217905550565b600061248482600560189054906101000a90047c0100000000000000000000000000000000000000000000000000000000026128f8565b1580156124c257506124c182600560149054906101000a90047c0100000000000000000000000000000000000000000000000000000000026128f8565b5b9050919050565b6040805190810160405280600981526020017f526567756c61746f7200000000000000000000000000000000000000000000008152506040805190810160405280600381526020017f312e30000000000000000000000000000000000000000000000000000000000081525061253f8282612a40565b15151561254b57600080fd5b7fdd117a11c22118c9dee4b5a67ce578bc44529dce21ee0ccc439588fbb9fb4ea38282604051808060200180602001838103835285818151815260200191508051906020019080838360005b838110156125b2578082015181840152602081019050612597565b50505050905090810190601f1680156125df5780820380516001836020036101000a031916815260200191505b50838103825284818151815260200191508051906020019080838360005b838110156126185780820151818401526020810190506125fd565b50505050905090810190601f1680156126455780820380516001836020036101000a031916815260200191505b5094505050505060405180910390a160016002836040518082805190602001908083835b60208310151561268e5780518252602082019150602081019050602083039250612669565b6001836020036101000a0380198251168184511680821785525050505050509050019150509081526020016040518091039020826040518082805190602001908083835b6020831015156126f757805182526020820191506020810190506020830392506126d2565b6001836020036101000a038019825116818451168082178552505050505050905001915050908152602001604051809103902060006101000a81548160ff0219169083151502179055505050565b600660049054906101000a90047c01000000000000000000000000000000000000000000000000000000000281565b6005601c9054906101000a90047c01000000000000000000000000000000000000000000000000000000000281565b6000809054906101000a900473ffffffffffffffffffffffffffffffffffffffff1681565b60006127ff826005601c9054906101000a90047c0100000000000000000000000000000000000000000000000000000000026128f8565b9050919050565b6000809054906101000a900473ffffffffffffffffffffffffffffffffffffffff1673ffffffffffffffffffffffffffffffffffffffff163373ffffffffffffffffffffffffffffffffffffffff1614151561286157600080fd5b61286a816140ed565b50565b600360009054906101000a900473ffffffffffffffffffffffffffffffffffffffff1681565b6000809054906101000a900473ffffffffffffffffffffffffffffffffffffffff1673ffffffffffffffffffffffffffffffffffffffff163373ffffffffffffffffffffffffffffffffffffffff161415156128ee57600080fd5b6128f66141f0565b565b6000600460009054906101000a900473ffffffffffffffffffffffffffffffffffffffff1673ffffffffffffffffffffffffffffffffffffffff1663bed98a0d84846040518363ffffffff167c0100000000000000000000000000000000000000000000000000000000028152600401808373ffffffffffffffffffffffffffffffffffffffff1673ffffffffffffffffffffffffffffffffffffffff168152602001827bffffffffffffffffffffffffffffffffffffffffffffffffffffffff19167bffffffffffffffffffffffffffffffffffffffffffffffffffffffff1916815260200192505050602060405180830381600087803b1580156129fd57600080fd5b505af1158015612a11573d6000803e3d6000fd5b505050506040513d6020811015612a2757600080fd5b8101908080519060200190929190505050905092915050565b60006002836040518082805190602001908083835b602083101515612a7a5780518252602082019150602081019050602083039250612a55565b6001836020036101000a0380198251168184511680821785525050505050509050019150509081526020016040518091039020826040518082805190602001908083835b602083101515612ae35780518252602082019150602081019050602083039250612abe565b6001836020036101000a038019825116818451168082178552505050505050905001915050908152602001604051809103902060009054906101000a900460ff16905092915050565b600560009054906101000a900473ffffffffffffffffffffffffffffffffffffffff1673ffffffffffffffffffffffffffffffffffffffff1663facd743b336040518263ffffffff167c0100000000000000000000000000000000000000000000000000000000028152600401808273ffffffffffffffffffffffffffffffffffffffff1673ffffffffffffffffffffffffffffffffffffffff168152602001915050602060405180830381600087803b158015612be957600080fd5b505af1158015612bfd573d6000803e3d6000fd5b505050506040513d6020811015612c1357600080fd5b81019080805190602001909291905050501515612c2f57600080fd5b600360009054906101000a900473ffffffffffffffffffffffffffffffffffffffff1673ffffffffffffffffffffffffffffffffffffffff1663933aa667600560189054906101000a90047c0100000000000000000000000000000000000000000000000000000000026040518263ffffffff167c010000000000000000000000000000000000000000000000000000000002815260040180827bffffffffffffffffffffffffffffffffffffffffffffffffffffffff19167bffffffffffffffffffffffffffffffffffffffffffffffffffffffff19168152602001915050602060405180830381600087803b158015612d2957600080fd5b505af1158015612d3d573d6000803e3d6000fd5b505050506040513d6020811015612d5357600080fd5b81019080805190602001909291905050501515612dfe576040517f08c379a00000000000000000000000000000000000000000000000000000000081526004018080602001828103825260228152602001807f4275726e206d6574686f64206e6f7420737570706f7274656420627920746f6b81526020017f656e00000000000000000000000000000000000000000000000000000000000081525060400191505060405180910390fd5b600360009054906101000a900473ffffffffffffffffffffffffffffffffffffffff1673ffffffffffffffffffffffffffffffffffffffff1663933aa667600560149054906101000a90047c0100000000000000000000000000000000000000000000000000000000026040518263ffffffff167c010000000000000000000000000000000000000000000000000000000002815260040180827bffffffffffffffffffffffffffffffffffffffffffffffffffffffff19167bffffffffffffffffffffffffffffffffffffffffffffffffffffffff19168152602001915050602060405180830381600087803b158015612ef857600080fd5b505af1158015612f0c573d6000803e3d6000fd5b505050506040513d6020811015612f2257600080fd5b81019080805190602001909291905050501515612fcd576040517f08c379a000000000000000000000000000000000000000000000000000000000815260040180806020018281038252602b8152602001807f53656c662d6465737472756374206d6574686f64206e6f7420737570706f727481526020017f656420627920746f6b656e00000000000000000000000000000000000000000081525060400191505060405180910390fd5b61300281600560189054906101000a90047c01000000000000000000000000000000000000000000000000000000000261150d565b61303781600560149054906101000a90047c010000000000000000000000000000000000000000000000000000000002610ca2565b50565b600560009054906101000a900473ffffffffffffffffffffffffffffffffffffffff1681565b600560009054906101000a900473ffffffffffffffffffffffffffffffffffffffff1673ffffffffffffffffffffffffffffffffffffffff1663facd743b336040518263ffffffff167c0100000000000000000000000000000000000000000000000000000000028152600401808273ffffffffffffffffffffffffffffffffffffffff1673ffffffffffffffffffffffffffffffffffffffff168152602001915050602060405180830381600087803b15801561311d57600080fd5b505af1158015613131573d6000803e3d6000fd5b505050506040513d602081101561314757600080fd5b8101908080519060200190929190505050151561316357600080fd5b600360009054906101000a900473ffffffffffffffffffffffffffffffffffffffff1673ffffffffffffffffffffffffffffffffffffffff1663933aa667600560189054906101000a90047c0100000000000000000000000000000000000000000000000000000000026040518263ffffffff167c010000000000000000000000000000000000000000000000000000000002815260040180827bffffffffffffffffffffffffffffffffffffffffffffffffffffffff19167bffffffffffffffffffffffffffffffffffffffffffffffffffffffff19168152602001915050602060405180830381600087803b15801561325d57600080fd5b505af1158015613271573d6000803e3d6000fd5b505050506040513d602081101561328757600080fd5b81019080805190602001909291905050501515613332576040517f08c379a00000000000000000000000000000000000000000000000000000000081526004018080602001828103825260228152602001807f4275726e206d6574686f64206e6f7420737570706f7274656420627920746f6b81526020017f656e00000000000000000000000000000000000000000000000000000000000081525060400191505060405180910390fd5b600360009054906101000a900473ffffffffffffffffffffffffffffffffffffffff1673ffffffffffffffffffffffffffffffffffffffff1663933aa667600560149054906101000a90047c0100000000000000000000000000000000000000000000000000000000026040518263ffffffff167c010000000000000000000000000000000000000000000000000000000002815260040180827bffffffffffffffffffffffffffffffffffffffffffffffffffffffff19167bffffffffffffffffffffffffffffffffffffffffffffffffffffffff19168152602001915050602060405180830381600087803b15801561342c57600080fd5b505af1158015613440573d6000803e3d6000fd5b505050506040513d602081101561345657600080fd5b81019080805190602001909291905050501515613501576040517f08c379a000000000000000000000000000000000000000000000000000000000815260040180806020018281038252602b8152602001807f53656c662d6465737472756374206d6574686f64206e6f7420737570706f727481526020017f656420627920746f6b656e00000000000000000000000000000000000000000081525060400191505060405180910390fd5b61353681600560189054906101000a90047c01000000000000000000000000000000000000000000000000000000000261150d565b61356b81600560149054906101000a90047c01000000000000000000000000000000000000000000000000000000000261150d565b50565b60006040805190810160405280600981526020017f526567756c61746f7200000000000000000000000000000000000000000000008152506040805190810160405280600381526020017f312e3000000000000000000000000000000000000000000000000000000000008152506040805190810160405280600381526020017f312e31000000000000000000000000000000000000000000000000000000000081525061361c8383612a40565b801561362f575061362d8382612a40565b155b151561363a57600080fd5b8493508373ffffffffffffffffffffffffffffffffffffffff16634e71e0c86040518163ffffffff167c0100000000000000000000000000000000000000000000000000000000028152600401600060405180830381600087803b1580156136a157600080fd5b505af11580156136b5573d6000803e3d6000fd5b505050508373ffffffffffffffffffffffffffffffffffffffff1663546f87786040518163ffffffff167c0100000000000000000000000000000000000000000000000000000000028152600401600060405180830381600087803b15801561371d57600080fd5b505af1158015613731573d6000803e3d6000fd5b505050506137dc8473ffffffffffffffffffffffffffffffffffffffff1663b2daee5c6040518163ffffffff167c0100000000000000000000000000000000000000000000000000000000028152600401602060405180830381600087803b15801561379c57600080fd5b505af11580156137b0573d6000803e3d6000fd5b505050506040513d60208110156137c657600080fd5b81019080805190602001909291905050506140ed565b6138838473ffffffffffffffffffffffffffffffffffffffff1663072b05156040518163ffffffff167c0100000000000000000000000000000000000000000000000000000000028152600401602060405180830381600087803b15801561384357600080fd5b505af1158015613857573d6000803e3d6000fd5b505050506040513d602081101561386d57600080fd5b8101908080519060200190929190505050613fea565b61392a8473ffffffffffffffffffffffffffffffffffffffff1663ca1e78196040518163ffffffff167c0100000000000000000000000000000000000000000000000000000000028152600401602060405180830381600087803b1580156138ea57600080fd5b505af11580156138fe573d6000803e3d6000fd5b505050506040513d602081101561391457600080fd5b81019080805190602001909291905050506143cc565b6139326141f0565b7fdd117a11c22118c9dee4b5a67ce578bc44529dce21ee0ccc439588fbb9fb4ea38382604051808060200180602001838103835285818151815260200191508051906020019080838360005b8381101561399957808201518184015260208101905061397e565b50505050905090810190601f1680156139c65780820380516001836020036101000a031916815260200191505b50838103825284818151815260200191508051906020019080838360005b838110156139ff5780820151818401526020810190506139e4565b50505050905090810190601f168015613a2c5780820380516001836020036101000a031916815260200191505b5094505050505060405180910390a160016002846040518082805190602001908083835b602083101515613a755780518252602082019150602081019050602083039250613a50565b6001836020036101000a0380198251168184511680821785525050505050509050019150509081526020016040518091039020826040518082805190602001908083835b602083101515613ade5780518252602082019150602081019050602083039250613ab9565b6001836020036101000a038019825116818451168082178552505050505050905001915050908152602001604051809103902060006101000a81548160ff0219169083151502179055505050505050565b600560189054906101000a90047c01000000000000000000000000000000000000000000000000000000000281565b6000613b9582600560189054906101000a90047c0100000000000000000000000000000000000000000000000000000000026128f8565b8015613bd35750613bd182600560149054906101000a90047c0100000000000000000000000000000000000000000000000000000000026128f8565b155b9050919050565b600160009054906101000a900473ffffffffffffffffffffffffffffffffffffffff1681565b6000809054906101000a900473ffffffffffffffffffffffffffffffffffffffff1673ffffffffffffffffffffffffffffffffffffffff163373ffffffffffffffffffffffffffffffffffffffff16141515613c5b57600080fd5b613c64816143cc565b50565b6000809054906101000a900473ffffffffffffffffffffffffffffffffffffffff1673ffffffffffffffffffffffffffffffffffffffff163373ffffffffffffffffffffffffffffffffffffffff16141515613cc257600080fd5b80600160006101000a81548173ffffffffffffffffffffffffffffffffffffffff021916908373ffffffffffffffffffffffffffffffffffffffff16021790555050565b600560009054906101000a900473ffffffffffffffffffffffffffffffffffffffff1673ffffffffffffffffffffffffffffffffffffffff1663facd743b336040518263ffffffff167c0100000000000000000000000000000000000000000000000000000000028152600401808273ffffffffffffffffffffffffffffffffffffffff1673ffffffffffffffffffffffffffffffffffffffff168152602001915050602060405180830381600087803b158015613dc357600080fd5b505af1158015613dd7573d6000803e3d6000fd5b505050506040513d6020811015613ded57600080fd5b81019080805190602001909291905050501515613e0957600080fd5b600360009054906101000a900473ffffffffffffffffffffffffffffffffffffffff1673ffffffffffffffffffffffffffffffffffffffff1663933aa6676005601c9054906101000a90047c0100000000000000000000000000000000000000000000000000000000026040518263ffffffff167c010000000000000000000000000000000000000000000000000000000002815260040180827bffffffffffffffffffffffffffffffffffffffffffffffffffffffff19167bffffffffffffffffffffffffffffffffffffffffffffffffffffffff19168152602001915050602060405180830381600087803b158015613f0357600080fd5b505af1158015613f17573d6000803e3d6000fd5b505050506040513d6020811015613f2d57600080fd5b81019080805190602001909291905050501515613fb2576040517f08c379a000000000000000000000000000000000000000000000000000000000815260040180806020018281038252601e8152602001807f4d696e74696e67206e6f7420737570706f7274656420627920746f6b656e000081525060200191505060405180910390fd5b613fe7816005601c9054906101000a90047c010000000000000000000000000000000000000000000000000000000002610ca2565b50565b6000600460009054906101000a900473ffffffffffffffffffffffffffffffffffffffff16905081600460006101000a81548173ffffffffffffffffffffffffffffffffffffffff021916908373ffffffffffffffffffffffffffffffffffffffff1602179055507fa235fc7f220d278a18cc5b5afdf77a237e23c869c620342dd27938360d051e6e8183604051808373ffffffffffffffffffffffffffffffffffffffff1673ffffffffffffffffffffffffffffffffffffffff1681526020018273ffffffffffffffffffffffffffffffffffffffff1673ffffffffffffffffffffffffffffffffffffffff1681526020019250505060405180910390a15050565b6000600360009054906101000a900473ffffffffffffffffffffffffffffffffffffffff16905081600360006101000a81548173ffffffffffffffffffffffffffffffffffffffff021916908373ffffffffffffffffffffffffffffffffffffffff1602179055507f7539cbc20455659eb1b9f83350bb91703811c01a9ca31d76b43028c6bddf51908183604051808373ffffffffffffffffffffffffffffffffffffffff1673ffffffffffffffffffffffffffffffffffffffff1681526020018273ffffffffffffffffffffffffffffffffffffffff1673ffffffffffffffffffffffffffffffffffffffff1681526020019250505060405180910390a15050565b600460009054906101000a900473ffffffffffffffffffffffffffffffffffffffff1673ffffffffffffffffffffffffffffffffffffffff16634e71e0c86040518163ffffffff167c0100000000000000000000000000000000000000000000000000000000028152600401600060405180830381600087803b15801561427657600080fd5b505af115801561428a573d6000803e3d6000fd5b50505050600360009054906101000a900473ffffffffffffffffffffffffffffffffffffffff1673ffffffffffffffffffffffffffffffffffffffff16634e71e0c86040518163ffffffff167c0100000000000000000000000000000000000000000000000000000000028152600401600060405180830381600087803b15801561431457600080fd5b505af1158015614328573d6000803e3d6000fd5b50505050600560009054906101000a900473ffffffffffffffffffffffffffffffffffffffff1673ffffffffffffffffffffffffffffffffffffffff16634e71e0c86040518163ffffffff167c0100000000000000000000000000000000000000000000000000000000028152600401600060405180830381600087803b1580156143b257600080fd5b505af11580156143c6573d6000803e3d6000fd5b50505050565b6000600560009054906101000a900473ffffffffffffffffffffffffffffffffffffffff16905081600560006101000a81548173ffffffffffffffffffffffffffffffffffffffff021916908373ffffffffffffffffffffffffffffffffffffffff1602179055507ff2fe5c6d565e5d7377b2510087e7f003413e3ea0906d4a69e12120cf6365aacf8183604051808373ffffffffffffffffffffffffffffffffffffffff1673ffffffffffffffffffffffffffffffffffffffff1681526020018273ffffffffffffffffffffffffffffffffffffffff1673ffffffffffffffffffffffffffffffffffffffff1681526020019250505060405180910390a150505600a165627a7a72305820e824de124f2a48cf9414f434f41dabf0b7b57c0f1510ab516f00e536b1ba302c0029",
  "source": "pragma solidity ^0.4.23;\n\nimport \"openzeppelin-solidity/contracts/ownership/Claimable.sol\";\nimport \"zos-lib/contracts/migrations/Migratable.sol\";\nimport \"./PermissionStorage.sol\";\nimport \"./UserPermissionsStorage.sol\";\nimport \"./ValidatorStorage.sol\";\n\n/**\n * @title Regulator\n * @dev Regulator can be configured to meet relevant securities regulations, KYC policies\n * AML requirements, tax laws, and more. The Regulator ensures that the PermissionedToken\n * makes compliant transfers possible. Contains the userPermissions necessary\n * for regulatory compliance.\n *\n */\ncontract Regulator is Claimable, Migratable {\n    /** STORAGES\n    */\n\n    /** \n    * @notice Stores a mapping from method signatures to permission attributes (e.g. whether\n      the permission is \"activated\" for use, and additional attributes such as the\n      method's name and location in the code.)\n    */\n    PermissionStorage public availablePermissions;\n\n    /** \n    * @notice Stores a mapping from users to execution permissions that they hold.\n    */\n    UserPermissionsStorage public userPermissions;\n\n    /**\n    * @notice accounts with ability to set attributes\n    *\n    */\n    ValidatorStorage public validators;\n\n    /** \n        Constants: stores method signatures \n    */\n    bytes4 public DESTROYSELF_SIG = bytes4(keccak256(\"destroySelf()\"));\n    bytes4 public BURN_SIG = bytes4(keccak256(\"burn(uint256)\"));\n    bytes4 public MINT_SIG = bytes4(keccak256(\"mint(address,uint256)\"));\n    bytes4 public DESTROYBLACKLIST_SIG = bytes4(keccak256(\"destroyBlacklistedTokens(address)\"));\n    bytes4 public ADD_BLACKLISTED_SPENDER_SIG = bytes4(keccak256(\"addBlacklistedAddressSpender(address)\"));\n\n    /** \n        Modifiers \n    */\n    /**\n    * @notice Throws if called by any account that does not have access to set attributes\n    */\n    modifier onlyValidator() {\n        require (validators.isValidator(msg.sender));\n        _;\n    }\n\n    /** \n        Events \n    */\n    event SetPermissionStorage(address oldStorage, address newStorage);\n    event SetUserPermissionsStorage(address oldStorage, address newStorage);\n    event SetValidatorStorage(address oldStorage, address newStorage);\n\n    /**\n    * @notice Function used as part of Migratable interface. Must be called when\n    * a proxy is assigned to contract in order to correctly assign the contract's\n    * version number.\n    *\n    * If deploying a new contract version, the version number must be changed as well. \n    */\n    function initialize() isInitializer(\"Regulator\", \"1.0\") public {\n        // Nothing to initialize!\n    }\n\n    /** @notice Migrates data from an old regulator contract to a new one. Precondition: \n    *  the new contract has already been transferred ownership of the old contract.\n    *   @param _oldRegulator The address of the old regulator. \n    */\n    function migrate(address _oldRegulator) isMigration(\"Regulator\", \"1.0\", \"1.1\") public {\n        Regulator oldRegulator = Regulator(_oldRegulator);\n        oldRegulator.claimOwnership(); // Take the proferred ownership of the old contract\n        oldRegulator.transferStorageOwnership();\n        setPS(address(oldRegulator.availablePermissions()));\n        setUPS(address(oldRegulator.userPermissions()));\n        setVS(address(oldRegulator.validators()));\n        claimSO();\n    }\n\n    /**\n    * @notice Sets the internal permission storage to point to a new storage.\n    * @param _newStorage The address of a new PermissionStorage.\n    */\n    function setPermissionStorage(address _newStorage) public onlyOwner {\n        setPS(_newStorage);\n    }\n\n    // Allows the migrate function to set the storage.\n    function setPS(address _newStorage) internal {\n        address _oldStorage = address(availablePermissions);\n        availablePermissions = PermissionStorage(_newStorage);\n        emit SetPermissionStorage(_oldStorage, _newStorage);\n    }\n\n    /**\n    * @notice Sets the internal user permissions storage to point to a new storage.\n    * @param _newStorage The address of a new UserPermissionsStorage.\n    */\n    function setUserPermissionsStorage(address _newStorage) public onlyOwner {\n        setUPS(_newStorage);\n    }\n\n    // Allows the migrate function to set the storage.\n    function setUPS(address _newStorage) internal {\n        address _oldStorage = address(userPermissions);\n        userPermissions = UserPermissionsStorage(_newStorage);\n        emit SetUserPermissionsStorage(_oldStorage, _newStorage);\n    }\n\n    /**\n    * @notice Sets the internal validators storage to point to a new storage.\n    * @param _newStorage The address of a new ValidatorStorage.\n    */\n    function setValidatorStorage(address _newStorage) public onlyOwner {\n        setVS(_newStorage);\n    }\n\n    // Allows the migrate function to set the storage.\n    function setVS(address _newStorage) internal {\n        address _oldStorage = address(validators);\n        validators = ValidatorStorage(_newStorage);\n        emit SetValidatorStorage(_oldStorage, _newStorage);\n    }\n\n    /** @notice Transfers ownership of the storage contracts to the owner  of this token contract. \n    * This is useful for migrations, since the new token contract is made the\n    * owner of the old token contract.\n    **/\n    function transferStorageOwnership() public onlyOwner {\n        userPermissions.transferOwnership(msg.sender);\n        availablePermissions.transferOwnership(msg.sender);\n        validators.transferOwnership(msg.sender);\n    }\n\n    /** @notice Claims ownership of the storage contracts. Succeeds if the\n    * ownership of those contracts was transferred to this contract\n    * (which will happen in the case of a migration).\n    **/\n    function claimStorageOwnership() public onlyOwner {\n        claimSO();\n    }\n\n    function claimSO() internal {\n        userPermissions.claimOwnership();\n        availablePermissions.claimOwnership();\n        validators.claimOwnership();\n    }\n\n    /**\n    * @notice Adds a validator to the regulator entity.\n    * @param _who New validator.\n    */\n    function addValidator(address _who) public onlyOwner {\n        validators.addValidator(_who);\n    }\n\n    /**\n    * @notice Removes a validator from the regulator entity.\n    * @param _who Validator to remove.\n    */\n    function removeValidator(address _who) public onlyOwner {\n        validators.removeValidator(_who);\n    }\n\n    /**\n    * @notice Sets the necessary permissions for a user to mint tokens.\n    * @param _who The address of the account that we are setting permissions for.\n    */\n    function setMinter(address _who) public onlyValidator {\n        require(availablePermissions.isPermission(MINT_SIG), \"Minting not supported by token\");\n        setPermission(_who, MINT_SIG);\n    }\n    \n\n    /**\n    * @notice Removes the necessary permissions for a user to mint tokens.\n    * @param _who The address of the account that we are removing permissions for.\n    */\n    function removeMinter(address _who) public onlyValidator {\n        require(availablePermissions.isPermission(MINT_SIG), \"Minting not supported by token\");\n        removePermission(_who, MINT_SIG);\n    }\n\n    /** Returns whether or not a user is a minter.\n     * @param _who The address of the account in question.\n     * @return `true` if the user is a minter, `false` otherwise.\n     */\n    function isMinter(address _who) public view returns (bool) {\n        return hasPermission(_who, MINT_SIG);\n    }\n\n    /**\n    * @notice Sets the necessary permissions for a \"whitelisted\" user.\n    * @param _who The address of the account that we are setting permissions for.\n    */\n    function setWhitelistedUser(address _who) public onlyValidator {\n        require(availablePermissions.isPermission(BURN_SIG), \"Burn method not supported by token\");\n        require(availablePermissions.isPermission(DESTROYSELF_SIG), \"Self-destruct method not supported by token\");\n        setPermission(_who, BURN_SIG);\n        removePermission(_who, DESTROYSELF_SIG);\n    }\n\n    /**\n    * @notice Sets the necessary permissions for a \"blacklisted\" user. A blacklisted user has their accounts\n    * frozen; they cannot transfer, burn, or withdraw any tokens.\n    * @param _who The address of the account that we are setting permissions for.\n    */\n    function setBlacklistedUser(address _who) public onlyValidator {\n        require(availablePermissions.isPermission(BURN_SIG), \"Burn method not supported by token\");\n        require(availablePermissions.isPermission(DESTROYSELF_SIG), \"Self-destruct method not supported by token\");\n        removePermission(_who, BURN_SIG);\n        setPermission(_who, DESTROYSELF_SIG);\n    }\n\n    /**\n    * @notice Sets the necessary permissions for a \"nonlisted\" user. Nonlisted users can trade tokens,\n    * but cannot burn them (and therefore cannot convert them into fiat.)\n    * @param _who The address of the account that we are setting permissions for.\n    */\n    function setNonlistedUser(address _who) public onlyValidator {\n        require(availablePermissions.isPermission(BURN_SIG), \"Burn method not supported by token\");\n        require(availablePermissions.isPermission(DESTROYSELF_SIG), \"Self-destruct method not supported by token\");\n        removePermission(_who, BURN_SIG);\n        removePermission(_who, DESTROYSELF_SIG);\n    }\n\n    /** Returns whether or not a user is whitelisted.\n     * @param _who The address of the account in question.\n     * @return `true` if the user is whitelisted, `false` otherwise.\n     */\n    function isWhitelistedUser(address _who) public view returns (bool) {\n        return (hasPermission(_who, BURN_SIG) && !hasPermission(_who, DESTROYSELF_SIG));\n    }\n\n    /** Returns whether or not a user is blacklisted.\n     * @param _who The address of the account in question.\n     * @return `true` if the user is blacklisted, `false` otherwise.\n     */\n    function isBlacklistedUser(address _who) public view returns (bool) {\n        return (!hasPermission(_who, BURN_SIG) && hasPermission(_who, DESTROYSELF_SIG));\n    }\n\n    /** Returns whether or not a user is nonlisted.\n     * @param _who The address of the account in question.\n     * @return `true` if the user is nonlisted, `false` otherwise.\n     */\n    function isNonlistedUser(address _who) public view returns (bool) {\n        return (!hasPermission(_who, BURN_SIG) && !hasPermission(_who, DESTROYSELF_SIG));\n    }\n        \n    /**\n    * @notice Sets a permission for an acccount. Only validators can set a permission\n    * @param _who The address of the account that we are setting the value of an attribute for\n    * @param _methodsignature The signature of the method that the user is getting permission to run.\n    */\n    function setPermission(address _who, bytes4 _methodsignature) public onlyValidator {\n        require(availablePermissions.isPermission(_methodsignature));\n        userPermissions.setPermission(_who, _methodsignature);\n    }\n \n    /**\n    * @notice Removes a permission for an acccount. Only validators can remove a permission\n    * @param _who The address of the account that we are setting the value of an attribute for\n    * @param _methodsignature The signature of the method that the user will no longer be able to execute.\n    */\n    function removePermission(address _who, bytes4 _methodsignature) public onlyValidator {\n        require(availablePermissions.isPermission(_methodsignature));\n        userPermissions.removePermission(_who, _methodsignature);\n    }\n\n    /**\n    * @notice Checks whether an account has the permission to execute a function\n    * @param _who The address of the account\n    * @param _methodsignature The signature of the method in question\n    * @return A boolean indicating whether the user has permission or not\n    */\n    function hasPermission(address _who, bytes4 _methodsignature) public view returns (bool) {\n        return userPermissions.hasPermission(_who, _methodsignature);\n    }\n}",
  "sourcePath": "/Users/tanishqaggarwal/Documents/carbon/fiat_gateway/contracts/permissionedToken/Regulator.sol",
  "compiler": {
    "name": "solc",
    "version": "0.4.24+commit.e67f0147.Emscripten.clang"
  },
  "schemaVersion": "2.0.0",
  "updatedAt": "2018-07-16T19:09:15.677Z"
}