{
  "contractName": "RegulatorMock",
  "abi": [
    {
      "constant": false,
      "inputs": [
        {
          "name": "_who",
          "type": "address"
        }
      ],
      "name": "removeBlacklistSpender",
      "outputs": [],
      "payable": false,
      "stateMutability": "nonpayable",
      "type": "function"
    },
    {
      "constant": true,
      "inputs": [
        {
          "name": "_who",
          "type": "address"
        },
        {
          "name": "_methodsignature",
          "type": "bytes4"
        }
      ],
      "name": "hasUserPermission",
      "outputs": [
        {
          "name": "",
          "type": "bool"
        }
      ],
      "payable": false,
      "stateMutability": "view",
      "type": "function"
    },
    {
      "constant": true,
      "inputs": [
        {
          "name": "_methodsignature",
          "type": "bytes4"
        }
      ],
      "name": "getPermission",
      "outputs": [
        {
          "name": "name",
          "type": "string"
        },
        {
          "name": "description",
          "type": "string"
        },
        {
          "name": "contract_name",
          "type": "string"
        },
        {
          "name": "active",
          "type": "bool"
        }
      ],
      "payable": false,
      "stateMutability": "view",
      "type": "function"
    },
    {
      "constant": false,
      "inputs": [
        {
          "name": "_who",
          "type": "address"
        },
        {
          "name": "_methodsignature",
          "type": "bytes4"
        }
      ],
      "name": "setUserPermission",
      "outputs": [],
      "payable": false,
      "stateMutability": "nonpayable",
      "type": "function"
    },
    {
      "constant": false,
      "inputs": [
        {
          "name": "_who",
          "type": "address"
        }
      ],
      "name": "setBlacklistDestroyer",
      "outputs": [],
      "payable": false,
      "stateMutability": "nonpayable",
      "type": "function"
    },
    {
      "constant": false,
      "inputs": [
        {
          "name": "_who",
          "type": "address"
        }
      ],
      "name": "removeMinter",
      "outputs": [],
      "payable": false,
      "stateMutability": "nonpayable",
      "type": "function"
    },
    {
      "constant": true,
      "inputs": [
        {
          "name": "",
          "type": "bytes4"
        }
      ],
      "name": "permissions",
      "outputs": [
        {
          "name": "name",
          "type": "string"
        },
        {
          "name": "description",
          "type": "string"
        },
        {
          "name": "contract_name",
          "type": "string"
        },
        {
          "name": "active",
          "type": "bool"
        }
      ],
      "payable": false,
      "stateMutability": "view",
      "type": "function"
    },
    {
      "constant": false,
      "inputs": [
        {
          "name": "_validator",
          "type": "address"
        }
      ],
      "name": "removeValidator",
      "outputs": [],
      "payable": false,
      "stateMutability": "nonpayable",
      "type": "function"
    },
    {
      "constant": false,
      "inputs": [
        {
          "name": "_validator",
          "type": "address"
        }
      ],
      "name": "addValidator",
      "outputs": [],
      "payable": false,
      "stateMutability": "nonpayable",
      "type": "function"
    },
    {
      "constant": false,
      "inputs": [],
      "name": "claimOwnership",
      "outputs": [],
      "payable": false,
      "stateMutability": "nonpayable",
      "type": "function"
    },
    {
      "constant": false,
      "inputs": [
        {
          "name": "_who",
          "type": "address"
        },
        {
          "name": "_methodsignature",
          "type": "bytes4"
        }
      ],
      "name": "removeUserPermission",
      "outputs": [],
      "payable": false,
      "stateMutability": "nonpayable",
      "type": "function"
    },
    {
      "constant": false,
      "inputs": [
        {
          "name": "_who",
          "type": "address"
        }
      ],
      "name": "removeBlacklistDestroyer",
      "outputs": [],
      "payable": false,
      "stateMutability": "nonpayable",
      "type": "function"
    },
    {
      "constant": false,
      "inputs": [
        {
          "name": "_methodsignature",
          "type": "bytes4"
        },
        {
          "name": "_permissionName",
          "type": "string"
        },
        {
          "name": "_permissionDescription",
          "type": "string"
        },
        {
          "name": "_contractName",
          "type": "string"
        }
      ],
      "name": "addPermission",
      "outputs": [],
      "payable": false,
      "stateMutability": "nonpayable",
      "type": "function"
    },
    {
      "constant": true,
      "inputs": [
        {
          "name": "_who",
          "type": "address"
        }
      ],
      "name": "isBlacklistedUser",
      "outputs": [
        {
          "name": "",
          "type": "bool"
        }
      ],
      "payable": false,
      "stateMutability": "view",
      "type": "function"
    },
    {
      "constant": true,
      "inputs": [
        {
          "name": "",
          "type": "address"
        },
        {
          "name": "",
          "type": "bytes4"
        }
      ],
      "name": "userPermissions",
      "outputs": [
        {
          "name": "",
          "type": "bool"
        }
      ],
      "payable": false,
      "stateMutability": "view",
      "type": "function"
    },
    {
      "constant": true,
      "inputs": [],
      "name": "MINT_SIG",
      "outputs": [
        {
          "name": "",
          "type": "bytes4"
        }
      ],
      "payable": false,
      "stateMutability": "view",
      "type": "function"
    },
    {
      "constant": true,
      "inputs": [],
      "name": "MINT_CUSD_SIG",
      "outputs": [
        {
          "name": "",
          "type": "bytes4"
        }
      ],
      "payable": false,
      "stateMutability": "view",
      "type": "function"
    },
    {
      "constant": true,
      "inputs": [],
      "name": "owner",
      "outputs": [
        {
          "name": "",
          "type": "address"
        }
      ],
      "payable": false,
      "stateMutability": "view",
      "type": "function"
    },
    {
      "constant": true,
      "inputs": [],
      "name": "APPROVE_BLACKLISTED_ADDRESS_SPENDER_SIG",
      "outputs": [
        {
          "name": "",
          "type": "bytes4"
        }
      ],
      "payable": false,
      "stateMutability": "view",
      "type": "function"
    },
    {
      "constant": true,
      "inputs": [
        {
          "name": "_who",
          "type": "address"
        }
      ],
      "name": "isBlacklistSpender",
      "outputs": [
        {
          "name": "",
          "type": "bool"
        }
      ],
      "payable": false,
      "stateMutability": "view",
      "type": "function"
    },
    {
      "constant": true,
      "inputs": [
        {
          "name": "_methodsignature",
          "type": "bytes4"
        }
      ],
      "name": "isPermission",
      "outputs": [
        {
          "name": "",
          "type": "bool"
        }
      ],
      "payable": false,
      "stateMutability": "view",
      "type": "function"
    },
    {
      "constant": true,
      "inputs": [],
      "name": "BLACKLISTED_SIG",
      "outputs": [
        {
          "name": "",
          "type": "bytes4"
        }
      ],
      "payable": false,
      "stateMutability": "view",
      "type": "function"
    },
    {
      "constant": true,
      "inputs": [
        {
          "name": "_who",
          "type": "address"
        }
      ],
      "name": "isMinter",
      "outputs": [
        {
          "name": "",
          "type": "bool"
        }
      ],
      "payable": false,
      "stateMutability": "view",
      "type": "function"
    },
    {
      "constant": true,
      "inputs": [],
      "name": "DESTROY_BLACKLISTED_TOKENS_SIG",
      "outputs": [
        {
          "name": "",
          "type": "bytes4"
        }
      ],
      "payable": false,
      "stateMutability": "view",
      "type": "function"
    },
    {
      "constant": false,
      "inputs": [
        {
          "name": "_methodsignature",
          "type": "bytes4"
        }
      ],
      "name": "removePermission",
      "outputs": [],
      "payable": false,
      "stateMutability": "nonpayable",
      "type": "function"
    },
    {
      "constant": false,
      "inputs": [
        {
          "name": "_who",
          "type": "address"
        }
      ],
      "name": "setBlacklistSpender",
      "outputs": [],
      "payable": false,
      "stateMutability": "nonpayable",
      "type": "function"
    },
    {
      "constant": false,
      "inputs": [
        {
          "name": "_who",
          "type": "address"
        }
      ],
      "name": "setBlacklistedUser",
      "outputs": [],
      "payable": false,
      "stateMutability": "nonpayable",
      "type": "function"
    },
    {
      "constant": true,
      "inputs": [],
      "name": "pendingOwner",
      "outputs": [
        {
          "name": "",
          "type": "address"
        }
      ],
      "payable": false,
      "stateMutability": "view",
      "type": "function"
    },
    {
      "constant": false,
      "inputs": [
        {
          "name": "_newOwner",
          "type": "address"
        }
      ],
      "name": "transferOwnership",
      "outputs": [],
      "payable": false,
      "stateMutability": "nonpayable",
      "type": "function"
    },
    {
      "constant": true,
      "inputs": [
        {
          "name": "_who",
          "type": "address"
        }
      ],
      "name": "isBlacklistDestroyer",
      "outputs": [
        {
          "name": "",
          "type": "bool"
        }
      ],
      "payable": false,
      "stateMutability": "view",
      "type": "function"
    },
    {
      "constant": true,
      "inputs": [
        {
          "name": "",
          "type": "address"
        }
      ],
      "name": "validators",
      "outputs": [
        {
          "name": "",
          "type": "bool"
        }
      ],
      "payable": false,
      "stateMutability": "view",
      "type": "function"
    },
    {
      "constant": true,
      "inputs": [
        {
          "name": "_validator",
          "type": "address"
        }
      ],
      "name": "isValidator",
      "outputs": [
        {
          "name": "",
          "type": "bool"
        }
      ],
      "payable": false,
      "stateMutability": "view",
      "type": "function"
    },
    {
      "constant": false,
      "inputs": [
        {
          "name": "_who",
          "type": "address"
        }
      ],
      "name": "setMinter",
      "outputs": [],
      "payable": false,
      "stateMutability": "nonpayable",
      "type": "function"
    },
    {
      "inputs": [],
      "payable": false,
      "stateMutability": "nonpayable",
      "type": "constructor"
    },
    {
      "anonymous": false,
      "inputs": [
        {
          "indexed": true,
          "name": "who",
          "type": "address"
        }
      ],
      "name": "LogBlacklistedUser",
      "type": "event"
    },
    {
      "anonymous": false,
      "inputs": [
        {
          "indexed": true,
          "name": "who",
          "type": "address"
        }
      ],
      "name": "LogSetMinter",
      "type": "event"
    },
    {
      "anonymous": false,
      "inputs": [
        {
          "indexed": true,
          "name": "who",
          "type": "address"
        }
      ],
      "name": "LogRemovedMinter",
      "type": "event"
    },
    {
      "anonymous": false,
      "inputs": [
        {
          "indexed": true,
          "name": "who",
          "type": "address"
        }
      ],
      "name": "LogSetBlacklistDestroyer",
      "type": "event"
    },
    {
      "anonymous": false,
      "inputs": [
        {
          "indexed": true,
          "name": "who",
          "type": "address"
        }
      ],
      "name": "LogRemovedBlacklistDestroyer",
      "type": "event"
    },
    {
      "anonymous": false,
      "inputs": [
        {
          "indexed": true,
          "name": "who",
          "type": "address"
        }
      ],
      "name": "LogSetBlacklistSpender",
      "type": "event"
    },
    {
      "anonymous": false,
      "inputs": [
        {
          "indexed": true,
          "name": "who",
          "type": "address"
        }
      ],
      "name": "LogRemovedBlacklistSpender",
      "type": "event"
    },
    {
      "anonymous": false,
      "inputs": [
        {
          "indexed": false,
          "name": "methodsignature",
          "type": "bytes4"
        }
      ],
      "name": "PermissionAdded",
      "type": "event"
    },
    {
      "anonymous": false,
      "inputs": [
        {
          "indexed": false,
          "name": "methodsignature",
          "type": "bytes4"
        }
      ],
      "name": "PermissionRemoved",
      "type": "event"
    },
    {
      "anonymous": false,
      "inputs": [
        {
          "indexed": true,
          "name": "validator",
          "type": "address"
        }
      ],
      "name": "ValidatorAdded",
      "type": "event"
    },
    {
      "anonymous": false,
      "inputs": [
        {
          "indexed": true,
          "name": "validator",
          "type": "address"
        }
      ],
      "name": "ValidatorRemoved",
      "type": "event"
    },
    {
      "anonymous": false,
      "inputs": [
        {
          "indexed": true,
          "name": "previousOwner",
          "type": "address"
        },
        {
          "indexed": true,
          "name": "newOwner",
          "type": "address"
        }
      ],
      "name": "OwnershipTransferred",
      "type": "event"
    }
  ],
  "bytecode": "0x60806040523480156200001157600080fd5b506000805433600160a060020a031991821681179092556001805490911690556200004590640100000000620000aa810204565b620000586401000000006200010e810204565b6200006b6401000000006200017a810204565b6200007e640100000000620001e4810204565b6200009164010000000062000275810204565b620000a464010000000062000306810204565b62000606565b600054600160a060020a03163314620000c257600080fd5b600160a060020a038116600081815260036020526040808220805460ff19166001179055517fe366c1c0452ed8eec96861e9e54141ebff23c9ec89fe27b996b45f5ec38849879190a250565b604080517f6d696e7428616464726573732c75696e7432353629000000000000000000000081528151908190036015018120602080830184526000808452845180830186528181528551928301909552815262000178939192919064010000000062000370810204565b565b604080517f6d696e744355534428616464726573732c75696e74323536290000000000000081528151908190036019018120602080830184526000808452845180830186528181528551928301909552815262000178939192919064010000000062000370810204565b604080517f64657374726f79426c61636b6c6973746564546f6b656e73286164647265737381527f2c75696e743235362900000000000000000000000000000000000000000000006020808301919091528251918290036029018220828201845260008084528451808401865281815285519384019095528252620001789390929164010000000062000370810204565b604080517f617070726f7665426c61636b6c6973746564416464726573735370656e64657281527f28616464726573732900000000000000000000000000000000000000000000006020808301919091528251918290036029018220828201845260008084528451808401865281815285519384019095528252620001789390929164010000000062000370810204565b604080517f626c61636b6c69737465642829000000000000000000000000000000000000008152815190819003600d018120602080830184526000808452845180830186528181528551928301909552815262000178939192919064010000000062000370810204565b6200037a62000536565b6200038e3364010000000062000518810204565b1515620003fc57604080517f08c379a000000000000000000000000000000000000000000000000000000000815260206004820152601860248201527f53656e646572206d7573742062652076616c696461746f720000000000000000604482015290519081900360640190fd5b50604080516080810182528481526020808201859052818301849052600160608301527fffffffff00000000000000000000000000000000000000000000000000000000871660009081526002825292909220815180519293849362000466928492019062000561565b50602082810151805162000481926001850192019062000561565b50604082015180516200049f91600284019160209091019062000561565b50606091909101516003909101805460ff1916911515919091179055604080517fffffffff000000000000000000000000000000000000000000000000000000008716815290517f6195913f4ea9fc2f5193c9f6763975b23790b3be094b1eb18f31843739005512916020908290030190a15050505050565b600160a060020a031660009081526003602052604090205460ff1690565b6080604051908101604052806060815260200160608152602001606081526020016000151581525090565b828054600181600116156101000203166002900490600052602060002090601f016020900481019282601f10620005a457805160ff1916838001178555620005d4565b82800160010185558215620005d4579182015b82811115620005d4578251825591602001919060010190620005b7565b50620005e2929150620005e6565b5090565b6200060391905b80821115620005e25760008155600101620005ed565b90565b6121b980620006166000396000f3006080604052600436106101a05763ffffffff7c0100000000000000000000000000000000000000000000000000000000600035041663029043a481146101a557806314db6d58146101c85780631830f4931461020a5780631c870eee14610378578063231a439e146103a65780633092afd5146103c7578063395a7b30146103e857806340a141ff1461040a5780634d238c8e1461042b5780634e71e0c81461044c5780635317e44414610461578063556b63841461048f578063780bfed0146104b05780637ccce851146105945780638707e2f4146105b557806388f14b0e146105e35780638b7c8109146106155780638da5cb5b1461062a5780638f959f541461065b57806391c4529f14610670578063933aa667146106915780639491951b146106b3578063aa271e1a146106c8578063ab96cb46146106e9578063b8ccbd17146106fe578063c1331bc314610720578063c56bea6414610741578063e30c397814610762578063f2fde38b14610777578063f530259e14610798578063fa52c7d8146107b9578063facd743b146107da578063fca3b5aa146107fb575b600080fd5b3480156101b157600080fd5b506101c6600160a060020a036004351661081c565b005b3480156101d457600080fd5b506101f6600160a060020a0360043516600160e060020a031960243516610998565b604080519115158252519081900360200190f35b34801561021657600080fd5b5061022c600160e060020a0319600435166109cf565b604080518215156060820152608080825286519082015285519091829160208084019284019160a08501918a019080838360005b83811015610278578181015183820152602001610260565b50505050905090810190601f1680156102a55780820380516001836020036101000a031916815260200191505b50848103835287518152875160209182019189019080838360005b838110156102d85781810151838201526020016102c0565b50505050905090810190601f1680156103055780820380516001836020036101000a031916815260200191505b50848103825286518152865160209182019188019080838360005b83811015610338578181015183820152602001610320565b50505050905090810190601f1680156103655780820380516001836020036101000a031916815260200191505b5097505050505050505060405180910390f35b34801561038457600080fd5b506101c6600160a060020a0360043516600160e060020a031960243516610bbc565b3480156103b257600080fd5b506101c6600160a060020a0360043516610ce0565b3480156103d357600080fd5b506101c6600160a060020a0360043516610e5c565b3480156103f457600080fd5b5061022c600160e060020a031960043516610eb5565b34801561041657600080fd5b506101c6600160a060020a0360043516611089565b34801561043757600080fd5b506101c6600160a060020a03600435166110e9565b34801561045857600080fd5b506101c661114c565b34801561046d57600080fd5b506101c6600160a060020a0360043516600160e060020a0319602435166111d4565b34801561049b57600080fd5b506101c6600160a060020a03600435166112f5565b3480156104bc57600080fd5b5060408051602060046024803582810135601f81018590048502860185019096528585526101c6958335600160e060020a03191695369560449491939091019190819084018382808284375050604080516020601f89358b018035918201839004830284018301909452808352979a99988101979196509182019450925082915084018382808284375050604080516020601f89358b018035918201839004830284018301909452808352979a9998810197919650918201945092508291508401838280828437509497506114719650505050505050565b3480156105a057600080fd5b506101f6600160a060020a03600435166115ac565b3480156105c157600080fd5b506101f6600160a060020a0360043516600160e060020a0319602435166115e1565b3480156105ef57600080fd5b506105f8611601565b60408051600160e060020a03199092168252519081900360200190f35b34801561062157600080fd5b506105f8611624565b34801561063657600080fd5b5061063f611647565b60408051600160a060020a039092168252519081900360200190f35b34801561066757600080fd5b506105f8611656565b34801561067c57600080fd5b506101f6600160a060020a036004351661168d565b34801561069d57600080fd5b506101f6600160e060020a0319600435166116d0565b3480156106bf57600080fd5b506105f86116f2565b3480156106d457600080fd5b506101f6600160a060020a0360043516611715565b3480156106f557600080fd5b506105f8611776565b34801561070a57600080fd5b506101c6600160e060020a0319600435166117ad565b34801561072c57600080fd5b506101c6600160a060020a0360043516611856565b34801561074d57600080fd5b506101c6600160a060020a03600435166119d2565b34801561076e57600080fd5b5061063f611a28565b34801561078357600080fd5b506101c6600160a060020a0360043516611a37565b3480156107a457600080fd5b506101f6600160a060020a0360043516611a92565b3480156107c557600080fd5b506101f6600160a060020a0360043516611ad5565b3480156107e657600080fd5b506101f6600160a060020a0360043516611aea565b34801561080757600080fd5b506101c6600160a060020a0360043516611b08565b61082533611aea565b1515610869576040805160e560020a62461bcd028152602060048201526018602482015260008051602061212e833981519152604482015290519081900360640190fd5b604080516000805160206120ae833981519152815260008051602061210e833981519152602082015290519081900360290190206108a6906116d0565b1515610922576040805160e560020a62461bcd02815260206004820152602960248201527f426c61636b6c697374207370656e64696e67206e6f7420737570706f7274656460448201527f20627920746f6b656e0000000000000000000000000000000000000000000000606482015290519081900360840190fd5b604080516000805160206120ae833981519152815260008051602061210e833981519152602082015290519081900360290190206109619082906111d4565b604051600160a060020a038216907fb5ead9fec464a658dd452c45cc1f51bd31f3a2d4bc054f90ae1fa8051794b0f590600090a250565b600160a060020a0382166000908152600460209081526040808320600160e060020a03198516845290915290205460ff1692915050565b600160e060020a0319811660009081526002602081815260408084206003810154815483516101006001808416159190910260001901909216879004601f8101879004870282018701909552848152606097889788979196938601949086019360ff9091169291869190830182828015610a8a5780601f10610a5f57610100808354040283529160200191610a8a565b820191906000526020600020905b815481529060010190602001808311610a6d57829003601f168201915b5050865460408051602060026001851615610100026000190190941693909304601f810184900484028201840190925281815295995088945092508401905082828015610b185780601f10610aed57610100808354040283529160200191610b18565b820191906000526020600020905b815481529060010190602001808311610afb57829003601f168201915b5050855460408051602060026001851615610100026000190190941693909304601f810184900484028201840190925281815295985087945092508401905082828015610ba65780601f10610b7b57610100808354040283529160200191610ba6565b820191906000526020600020905b815481529060010190602001808311610b8957829003601f168201915b5050505050915093509350935093509193509193565b610bc533611aea565b1515610c09576040805160e560020a62461bcd028152602060048201526018602482015260008051602061212e833981519152604482015290519081900360640190fd5b600160e060020a0319811660009081526002602052604090206003015460ff161515610ca5576040805160e560020a62461bcd02815260206004820152603960248201527f5065726d697373696f6e206265696e6720736574206d75737420626520666f7260448201527f20612076616c6964206d6574686f64207369676e617475726500000000000000606482015290519081900360840190fd5b600160a060020a039091166000908152600460209081526040808320600160e060020a0319909416835292905220805460ff19166001179055565b610ce933611aea565b1515610d2d576040805160e560020a62461bcd028152602060048201526018602482015260008051602061212e833981519152604482015290519081900360640190fd5b604080516000805160206120ee83398151915281526000805160206120ce83398151915260208201529051908190036029019020610d6a906116d0565b1515610de6576040805160e560020a62461bcd02815260206004820152603260248201527f426c61636b6c69737420746f6b656e206465737472756374696f6e206e6f742060448201527f737570706f7274656420627920746f6b656e0000000000000000000000000000606482015290519081900360840190fd5b604080516000805160206120ee83398151915281526000805160206120ce83398151915260208201529051908190036029019020610e25908290610bbc565b604051600160a060020a038216907fc8cc73c74b92642427979fdf8cbcd3f3a1e5a071058f68d87d200483e90278b590600090a250565b610e6533611aea565b1515610ea9576040805160e560020a62461bcd028152602060048201526018602482015260008051602061212e833981519152604482015290519081900360640190fd5b610eb281611b5e565b50565b600260208181526000928352604092839020805484516001821615610100026000190190911693909304601f8101839004830284018301909452838352928391830182828015610f465780601f10610f1b57610100808354040283529160200191610f46565b820191906000526020600020905b815481529060010190602001808311610f2957829003601f168201915b505050505090806001018054600181600116156101000203166002900480601f016020809104026020016040519081016040528092919081815260200182805460018160011615610100020316600290048015610fe45780601f10610fb957610100808354040283529160200191610fe4565b820191906000526020600020905b815481529060010190602001808311610fc757829003601f168201915b50505060028085018054604080516020601f60001961010060018716150201909416959095049283018590048502810185019091528181529596959450909250908301828280156110765780601f1061104b57610100808354040283529160200191611076565b820191906000526020600020905b81548152906001019060200180831161105957829003601f168201915b5050506003909301549192505060ff1684565b600054600160a060020a031633146110a057600080fd5b600160a060020a038116600081815260036020526040808220805460ff19169055517fe1434e25d6611e0db941968fdc97811c982ac1602e951637d206f5fdda9dd8f19190a250565b600054600160a060020a0316331461110057600080fd5b600160a060020a038116600081815260036020526040808220805460ff19166001179055517fe366c1c0452ed8eec96861e9e54141ebff23c9ec89fe27b996b45f5ec38849879190a250565b600154600160a060020a0316331461116357600080fd5b60015460008054604051600160a060020a0393841693909116917f8be0079c531659141344cd1fd0a4f28419497f9722a3daafe3b4186f6b6457e091a3600180546000805473ffffffffffffffffffffffffffffffffffffffff19908116600160a060020a03841617909155169055565b6111dd33611aea565b1515611221576040805160e560020a62461bcd028152602060048201526018602482015260008051602061212e833981519152604482015290519081900360640190fd5b600160e060020a0319811660009081526002602052604090206003015460ff1615156112bd576040805160e560020a62461bcd02815260206004820152603d60248201527f5065726d697373696f6e206265696e672072656d6f766564206d75737420626560448201527f20666f7220612076616c6964206d6574686f64207369676e6174757265000000606482015290519081900360840190fd5b600160a060020a039091166000908152600460209081526040808320600160e060020a0319909416835292905220805460ff19169055565b6112fe33611aea565b1515611342576040805160e560020a62461bcd028152602060048201526018602482015260008051602061212e833981519152604482015290519081900360640190fd5b604080516000805160206120ee83398151915281526000805160206120ce8339815191526020820152905190819003602901902061137f906116d0565b15156113fb576040805160e560020a62461bcd02815260206004820152603260248201527f426c61636b6c69737420746f6b656e206465737472756374696f6e206e6f742060448201527f737570706f7274656420627920746f6b656e0000000000000000000000000000606482015290519081900360840190fd5b604080516000805160206120ee83398151915281526000805160206120ce8339815191526020820152905190819003602901902061143a9082906111d4565b604051600160a060020a038216907fcc060ec5d05ac54bd2af5095f9a42db1cc630ebbfb1146724d624b4ce89a5e8490600090a250565b611479611fc7565b61148233611aea565b15156114c6576040805160e560020a62461bcd028152602060048201526018602482015260008051602061212e833981519152604482015290519081900360640190fd5b5060408051608081018252848152602080820185905281830184905260016060830152600160e060020a031987166000908152600282529290922081518051929384936115169284920190611ff2565b50602082810151805161152f9260018501920190611ff2565b506040820151805161154b916002840191602090910190611ff2565b50606091909101516003909101805460ff191691151591909117905560408051600160e060020a03198716815290517f6195913f4ea9fc2f5193c9f6763975b23790b3be094b1eb18f31843739005512916020908290030190a15050505050565b60006115db82604051808060008051602061216e833981519152815250600d0190506040518091039020610998565b92915050565b600460209081526000928352604080842090915290825290205460ff1681565b6040805160008051602061214e8339815191528152905190819003601501902081565b6040805160008051602061208e8339815191528152905190819003601901902081565b600054600160a060020a031681565b604080516000805160206120ae833981519152815260008051602061210e8339815191526020820152905190819003602901902081565b60006115db8260405180806000805160206120ae833981519152815260200160008051602061210e83398151915281525060290190506040518091039020610998565b600160e060020a03191660009081526002602052604090206003015460ff1690565b6040805160008051602061216e8339815191528152905190819003600d01902081565b600061174482604051808060008051602061214e83398151915281525060150190506040518091039020610998565b80156115db57506040805160008051602061208e833981519152815290519081900360190190206115db908390610998565b604080516000805160206120ee83398151915281526000805160206120ce8339815191526020820152905190819003602901902081565b6117b633611aea565b15156117fa576040805160e560020a62461bcd028152602060048201526018602482015260008051602061212e833981519152604482015290519081900360640190fd5b600160e060020a03198116600081815260026020908152604091829020600301805460ff19169055815192835290517f65cd5526557cbd93f0739d00ffcdf8f4a663eb2ed509203d884b3470158724c19281900390910190a150565b61185f33611aea565b15156118a3576040805160e560020a62461bcd028152602060048201526018602482015260008051602061212e833981519152604482015290519081900360640190fd5b604080516000805160206120ae833981519152815260008051602061210e833981519152602082015290519081900360290190206118e0906116d0565b151561195c576040805160e560020a62461bcd02815260206004820152602960248201527f426c61636b6c697374207370656e64696e67206e6f7420737570706f7274656460448201527f20627920746f6b656e0000000000000000000000000000000000000000000000606482015290519081900360840190fd5b604080516000805160206120ae833981519152815260008051602061210e8339815191526020820152905190819003602901902061199b908290610bbc565b604051600160a060020a038216907feb9ec59379e252bf8accf2ecf164d50f79b20d66ba85abae9cc795ad1ba5e5a890600090a250565b6119db33611aea565b1515611a1f576040805160e560020a62461bcd028152602060048201526018602482015260008051602061212e833981519152604482015290519081900360640190fd5b610eb281611d0f565b600154600160a060020a031681565b600054600160a060020a03163314611a4e57600080fd5b600160a060020a0381161515611a6357600080fd5b6001805473ffffffffffffffffffffffffffffffffffffffff1916600160a060020a0392909216919091179055565b60006115db8260405180806000805160206120ee83398151915281526020016000805160206120ce83398151915281525060290190506040518091039020610998565b60036020526000908152604090205460ff1681565b600160a060020a031660009081526003602052604090205460ff1690565b611b1133611aea565b1515611b55576040805160e560020a62461bcd028152602060048201526018602482015260008051602061212e833981519152604482015290519081900360640190fd5b610eb281611e16565b6040805160008051602061214e83398151915281529051908190036015019020611b87906116d0565b1515611bdd576040805160e560020a62461bcd02815260206004820152601e60248201527f4d696e74696e67206e6f7420737570706f7274656420627920746f6b656e0000604482015290519081900360640190fd5b6040805160008051602061208e83398151915281529051908190036019019020611c06906116d0565b1515611c82576040805160e560020a62461bcd02815260206004820152602660248201527f4d696e74696e6720746f2043555344206e6f7420737570706f7274656420627960448201527f20746f6b656e0000000000000000000000000000000000000000000000000000606482015290519081900360840190fd5b6040805160008051602061208e83398151915281529051908190036019019020611cad9082906111d4565b6040805160008051602061214e83398151915281529051908190036015019020611cd89082906111d4565b604051600160a060020a038216907fcfee518972af5b17e262a5c3d62175cf1150cdad0423ac7d4e7f4ae1c0934df090600090a250565b6040805160008051602061216e8339815191528152905190819003600d019020611d38906116d0565b1515611db4576040805160e560020a62461bcd02815260206004820152602b60248201527f53656c662d6465737472756374206d6574686f64206e6f7420737570706f727460448201527f656420627920746f6b656e000000000000000000000000000000000000000000606482015290519081900360840190fd5b6040805160008051602061216e8339815191528152905190819003600d019020611ddf908290610bbc565b604051600160a060020a038216907fe188e80e8d523dc5ac6bbae932c30011688c5a4269bd1d97fb3493e57056459990600090a250565b6040805160008051602061214e83398151915281529051908190036015019020611e3f906116d0565b1515611e95576040805160e560020a62461bcd02815260206004820152601e60248201527f4d696e74696e67206e6f7420737570706f7274656420627920746f6b656e0000604482015290519081900360640190fd5b6040805160008051602061208e83398151915281529051908190036019019020611ebe906116d0565b1515611f3a576040805160e560020a62461bcd02815260206004820152602660248201527f4d696e74696e6720746f2043555344206e6f7420737570706f7274656420627960448201527f20746f6b656e0000000000000000000000000000000000000000000000000000606482015290519081900360840190fd5b6040805160008051602061214e83398151915281529051908190036015019020611f65908290610bbc565b6040805160008051602061208e83398151915281529051908190036019019020611f90908290610bbc565b604051600160a060020a038216907f5e0c8c15134773cb6fe4d2cc6f9e5683049cc6277f742e2a7e0e89a2d3d1e40890600090a250565b6080604051908101604052806060815260200160608152602001606081526020016000151581525090565b828054600181600116156101000203166002900490600052602060002090601f016020900481019282601f1061203357805160ff1916838001178555612060565b82800160010185558215612060579182015b82811115612060578251825591602001919060010190612045565b5061206c929150612070565b5090565b61208a91905b8082111561206c5760008155600101612076565b9056006d696e744355534428616464726573732c75696e743235362900000000000000617070726f7665426c61636b6c6973746564416464726573735370656e6465722c75696e7432353629000000000000000000000000000000000000000000000064657374726f79426c61636b6c6973746564546f6b656e732861646472657373286164647265737329000000000000000000000000000000000000000000000053656e646572206d7573742062652076616c696461746f7200000000000000006d696e7428616464726573732c75696e74323536290000000000000000000000626c61636b6c6973746564282900000000000000000000000000000000000000a165627a7a72305820e55076bdd983dd8e81b93994cda11bb373d87149c12d4af28482fc0193667c510029",
  "source": "pragma solidity ^0.4.24;\n\nimport \"../Regulator.sol\";\n\n/**\n*\n* @dev creates a Reglator with a single Validator and all Permissions \n*\n**/\ncontract RegulatorMock is Regulator {\n    /** \n        @dev Initializes common permissions from validator, validator set to msg.sender\n     */\n    constructor() public {\n        addValidator(msg.sender);\n        setMintPermission();\n        setMintCUSDPermission();\n        setDestroyBlacklistedTokensPermission();\n        setApproveBlacklistedAddressSpenderPermission();\n        setDestroySelfPermission();\n    }\n\n    function setMintPermission() internal {\n        addPermission(MINT_SIG, \"\",\"\",\"\");\n    }\n\n    function setMintCUSDPermission() internal {\n        addPermission(MINT_CUSD_SIG, \"\",\"\",\"\");\n    }\n\n    function setDestroyBlacklistedTokensPermission() internal {\n        addPermission(DESTROY_BLACKLISTED_TOKENS_SIG, \"\",\"\",\"\");\n    }\n\n    function setApproveBlacklistedAddressSpenderPermission() internal {\n        addPermission(APPROVE_BLACKLISTED_ADDRESS_SPENDER_SIG, \"\",\"\",\"\");\n    }\n\n    function setDestroySelfPermission() internal {\n        addPermission(BLACKLISTED_SIG, \"\",\"\",\"\");\n    }\n}",
  "sourcePath": "/Users/nicholaspai/Carbon/fiat_gateway/contracts/regulator/mocks/RegulatorMock.sol",
  "compiler": {
    "name": "solc",
    "version": "0.4.25+commit.59dbf8f1.Emscripten.clang"
  },
  "schemaVersion": "3.0.0-beta.1",
  "updatedAt": "2018-12-01T19:07:15.173Z"
}