{
  "contractName": "Regulator",
  "abi": [
    {
      "constant": true,
      "inputs": [],
      "name": "userPermissions",
      "outputs": [
        {
          "name": "",
          "type": "address"
        }
      ],
      "payable": false,
      "stateMutability": "view",
      "type": "function"
    },
    {
      "constant": true,
      "inputs": [],
      "name": "DESTROYSELF_SIG",
      "outputs": [
        {
          "name": "",
          "type": "bytes4"
        }
      ],
      "payable": false,
      "stateMutability": "view",
      "type": "function"
    },
    {
      "constant": false,
      "inputs": [],
      "name": "claimOwnership",
      "outputs": [],
      "payable": false,
      "stateMutability": "nonpayable",
      "type": "function"
    },
    {
      "constant": true,
      "inputs": [],
      "name": "DESTROYBLACKLIST_SIG",
      "outputs": [
        {
          "name": "",
          "type": "bytes4"
        }
      ],
      "payable": false,
      "stateMutability": "view",
      "type": "function"
    },
    {
      "constant": false,
      "inputs": [],
      "name": "renounceOwnership",
      "outputs": [],
      "payable": false,
      "stateMutability": "nonpayable",
      "type": "function"
    },
    {
      "constant": true,
      "inputs": [],
      "name": "ADD_BLACKLISTED_SPENDER_SIG",
      "outputs": [
        {
          "name": "",
          "type": "bytes4"
        }
      ],
      "payable": false,
      "stateMutability": "view",
      "type": "function"
    },
    {
      "constant": true,
      "inputs": [],
      "name": "MINT_SIG",
      "outputs": [
        {
          "name": "",
          "type": "bytes4"
        }
      ],
      "payable": false,
      "stateMutability": "view",
      "type": "function"
    },
    {
      "constant": true,
      "inputs": [],
      "name": "owner",
      "outputs": [
        {
          "name": "",
          "type": "address"
        }
      ],
      "payable": false,
      "stateMutability": "view",
      "type": "function"
    },
    {
      "constant": true,
      "inputs": [],
      "name": "availablePermissions",
      "outputs": [
        {
          "name": "",
          "type": "address"
        }
      ],
      "payable": false,
      "stateMutability": "view",
      "type": "function"
    },
    {
      "constant": true,
      "inputs": [
        {
          "name": "contractName",
          "type": "string"
        },
        {
          "name": "migrationId",
          "type": "string"
        }
      ],
      "name": "isMigrated",
      "outputs": [
        {
          "name": "",
          "type": "bool"
        }
      ],
      "payable": false,
      "stateMutability": "view",
      "type": "function"
    },
    {
      "constant": true,
      "inputs": [],
      "name": "validators",
      "outputs": [
        {
          "name": "",
          "type": "address"
        }
      ],
      "payable": false,
      "stateMutability": "view",
      "type": "function"
    },
    {
      "constant": true,
      "inputs": [],
      "name": "BURN_SIG",
      "outputs": [
        {
          "name": "",
          "type": "bytes4"
        }
      ],
      "payable": false,
      "stateMutability": "view",
      "type": "function"
    },
    {
      "constant": true,
      "inputs": [],
      "name": "pendingOwner",
      "outputs": [
        {
          "name": "",
          "type": "address"
        }
      ],
      "payable": false,
      "stateMutability": "view",
      "type": "function"
    },
    {
      "constant": false,
      "inputs": [
        {
          "name": "newOwner",
          "type": "address"
        }
      ],
      "name": "transferOwnership",
      "outputs": [],
      "payable": false,
      "stateMutability": "nonpayable",
      "type": "function"
    },
    {
      "anonymous": false,
      "inputs": [
        {
          "indexed": false,
          "name": "oldStorage",
          "type": "address"
        },
        {
          "indexed": false,
          "name": "newStorage",
          "type": "address"
        }
      ],
      "name": "SetPermissionStorage",
      "type": "event"
    },
    {
      "anonymous": false,
      "inputs": [
        {
          "indexed": false,
          "name": "oldStorage",
          "type": "address"
        },
        {
          "indexed": false,
          "name": "newStorage",
          "type": "address"
        }
      ],
      "name": "SetUserPermissionsStorage",
      "type": "event"
    },
    {
      "anonymous": false,
      "inputs": [
        {
          "indexed": false,
          "name": "oldStorage",
          "type": "address"
        },
        {
          "indexed": false,
          "name": "newStorage",
          "type": "address"
        }
      ],
      "name": "SetValidatorStorage",
      "type": "event"
    },
    {
      "anonymous": false,
      "inputs": [
        {
          "indexed": false,
          "name": "contractName",
          "type": "string"
        },
        {
          "indexed": false,
          "name": "migrationId",
          "type": "string"
        }
      ],
      "name": "Migrated",
      "type": "event"
    },
    {
      "anonymous": false,
      "inputs": [
        {
          "indexed": true,
          "name": "previousOwner",
          "type": "address"
        }
      ],
      "name": "OwnershipRenounced",
      "type": "event"
    },
    {
      "anonymous": false,
      "inputs": [
        {
          "indexed": true,
          "name": "previousOwner",
          "type": "address"
        },
        {
          "indexed": true,
          "name": "newOwner",
          "type": "address"
        }
      ],
      "name": "OwnershipTransferred",
      "type": "event"
    },
    {
      "constant": false,
      "inputs": [],
      "name": "initialize",
      "outputs": [],
      "payable": false,
      "stateMutability": "nonpayable",
      "type": "function"
    },
    {
      "constant": false,
      "inputs": [
        {
          "name": "_oldRegulator",
          "type": "address"
        }
      ],
      "name": "migrate",
      "outputs": [],
      "payable": false,
      "stateMutability": "nonpayable",
      "type": "function"
    },
    {
      "constant": false,
      "inputs": [
        {
          "name": "_newStorage",
          "type": "address"
        }
      ],
      "name": "setPermissionStorage",
      "outputs": [],
      "payable": false,
      "stateMutability": "nonpayable",
      "type": "function"
    },
    {
      "constant": false,
      "inputs": [
        {
          "name": "_newStorage",
          "type": "address"
        }
      ],
      "name": "setUserPermissionsStorage",
      "outputs": [],
      "payable": false,
      "stateMutability": "nonpayable",
      "type": "function"
    },
    {
      "constant": false,
      "inputs": [
        {
          "name": "_newStorage",
          "type": "address"
        }
      ],
      "name": "setValidatorStorage",
      "outputs": [],
      "payable": false,
      "stateMutability": "nonpayable",
      "type": "function"
    },
    {
      "constant": false,
      "inputs": [],
      "name": "transferStorageOwnership",
      "outputs": [],
      "payable": false,
      "stateMutability": "nonpayable",
      "type": "function"
    },
    {
      "constant": false,
      "inputs": [],
      "name": "claimStorageOwnership",
      "outputs": [],
      "payable": false,
      "stateMutability": "nonpayable",
      "type": "function"
    },
    {
      "constant": false,
      "inputs": [
        {
          "name": "_who",
          "type": "address"
        }
      ],
      "name": "addValidator",
      "outputs": [],
      "payable": false,
      "stateMutability": "nonpayable",
      "type": "function"
    },
    {
      "constant": false,
      "inputs": [
        {
          "name": "_who",
          "type": "address"
        }
      ],
      "name": "removeValidator",
      "outputs": [],
      "payable": false,
      "stateMutability": "nonpayable",
      "type": "function"
    },
    {
      "constant": false,
      "inputs": [
        {
          "name": "_who",
          "type": "address"
        }
      ],
      "name": "setMinter",
      "outputs": [],
      "payable": false,
      "stateMutability": "nonpayable",
      "type": "function"
    },
    {
      "constant": false,
      "inputs": [
        {
          "name": "_who",
          "type": "address"
        }
      ],
      "name": "removeMinter",
      "outputs": [],
      "payable": false,
      "stateMutability": "nonpayable",
      "type": "function"
    },
    {
      "constant": true,
      "inputs": [
        {
          "name": "_who",
          "type": "address"
        }
      ],
      "name": "isMinter",
      "outputs": [
        {
          "name": "",
          "type": "bool"
        }
      ],
      "payable": false,
      "stateMutability": "view",
      "type": "function"
    },
    {
      "constant": false,
      "inputs": [
        {
          "name": "_who",
          "type": "address"
        }
      ],
      "name": "setBlacklistSpender",
      "outputs": [],
      "payable": false,
      "stateMutability": "nonpayable",
      "type": "function"
    },
    {
      "constant": false,
      "inputs": [
        {
          "name": "_who",
          "type": "address"
        }
      ],
      "name": "removeBlacklistSpender",
      "outputs": [],
      "payable": false,
      "stateMutability": "nonpayable",
      "type": "function"
    },
    {
      "constant": true,
      "inputs": [
        {
          "name": "_who",
          "type": "address"
        }
      ],
      "name": "isBlacklistSpender",
      "outputs": [
        {
          "name": "",
          "type": "bool"
        }
      ],
      "payable": false,
      "stateMutability": "view",
      "type": "function"
    },
    {
      "constant": false,
      "inputs": [
        {
          "name": "_who",
          "type": "address"
        }
      ],
      "name": "setBlacklistDestroyer",
      "outputs": [],
      "payable": false,
      "stateMutability": "nonpayable",
      "type": "function"
    },
    {
      "constant": false,
      "inputs": [
        {
          "name": "_who",
          "type": "address"
        }
      ],
      "name": "removeBlacklistDestroyer",
      "outputs": [],
      "payable": false,
      "stateMutability": "nonpayable",
      "type": "function"
    },
    {
      "constant": true,
      "inputs": [
        {
          "name": "_who",
          "type": "address"
        }
      ],
      "name": "isBlacklistDestroyer",
      "outputs": [
        {
          "name": "",
          "type": "bool"
        }
      ],
      "payable": false,
      "stateMutability": "view",
      "type": "function"
    },
    {
      "constant": false,
      "inputs": [
        {
          "name": "_who",
          "type": "address"
        }
      ],
      "name": "setWhitelistedUser",
      "outputs": [],
      "payable": false,
      "stateMutability": "nonpayable",
      "type": "function"
    },
    {
      "constant": false,
      "inputs": [
        {
          "name": "_who",
          "type": "address"
        }
      ],
      "name": "setBlacklistedUser",
      "outputs": [],
      "payable": false,
      "stateMutability": "nonpayable",
      "type": "function"
    },
    {
      "constant": false,
      "inputs": [
        {
          "name": "_who",
          "type": "address"
        }
      ],
      "name": "setNonlistedUser",
      "outputs": [],
      "payable": false,
      "stateMutability": "nonpayable",
      "type": "function"
    },
    {
      "constant": true,
      "inputs": [
        {
          "name": "_who",
          "type": "address"
        }
      ],
      "name": "isWhitelistedUser",
      "outputs": [
        {
          "name": "",
          "type": "bool"
        }
      ],
      "payable": false,
      "stateMutability": "view",
      "type": "function"
    },
    {
      "constant": true,
      "inputs": [
        {
          "name": "_who",
          "type": "address"
        }
      ],
      "name": "isBlacklistedUser",
      "outputs": [
        {
          "name": "",
          "type": "bool"
        }
      ],
      "payable": false,
      "stateMutability": "view",
      "type": "function"
    },
    {
      "constant": true,
      "inputs": [
        {
          "name": "_who",
          "type": "address"
        }
      ],
      "name": "isNonlistedUser",
      "outputs": [
        {
          "name": "",
          "type": "bool"
        }
      ],
      "payable": false,
      "stateMutability": "view",
      "type": "function"
    },
    {
      "constant": false,
      "inputs": [
        {
          "name": "_who",
          "type": "address"
        },
        {
          "name": "_methodsignature",
          "type": "bytes4"
        }
      ],
      "name": "setPermission",
      "outputs": [],
      "payable": false,
      "stateMutability": "nonpayable",
      "type": "function"
    },
    {
      "constant": false,
      "inputs": [
        {
          "name": "_who",
          "type": "address"
        },
        {
          "name": "_methodsignature",
          "type": "bytes4"
        }
      ],
      "name": "removePermission",
      "outputs": [],
      "payable": false,
      "stateMutability": "nonpayable",
      "type": "function"
    },
    {
      "constant": true,
      "inputs": [
        {
          "name": "_who",
          "type": "address"
        },
        {
          "name": "_methodsignature",
          "type": "bytes4"
        }
      ],
      "name": "hasPermission",
      "outputs": [
        {
          "name": "",
          "type": "bool"
        }
      ],
      "payable": false,
      "stateMutability": "view",
      "type": "function"
    }
  ],
  "bytecode": "0x608060405260405180807f64657374726f7953656c66282900000000000000000000000000000000000000815250600d0190506040518091039020600560146101000a81548163ffffffff02191690837c01000000000000000000000000000000000000000000000000000000009004021790555060405180807f6275726e2875696e743235362900000000000000000000000000000000000000815250600d0190506040518091039020600560186101000a81548163ffffffff02191690837c01000000000000000000000000000000000000000000000000000000009004021790555060405180807f6d696e7428616464726573732c75696e74323536290000000000000000000000815250601501905060405180910390206005601c6101000a81548163ffffffff02191690837c01000000000000000000000000000000000000000000000000000000009004021790555060405180807f64657374726f79426c61636b6c6973746564546f6b656e73286164647265737381526020017f290000000000000000000000000000000000000000000000000000000000000081525060210190506040518091039020600660006101000a81548163ffffffff02191690837c01000000000000000000000000000000000000000000000000000000009004021790555060405180807f616464426c61636b6c6973746564416464726573735370656e6465722861646481526020017f726573732900000000000000000000000000000000000000000000000000000081525060250190506040518091039020600660046101000a81548163ffffffff02191690837c010000000000000000000000000000000000000000000000000000000090040217905550336000806101000a81548173ffffffffffffffffffffffffffffffffffffffff021916908373ffffffffffffffffffffffffffffffffffffffff1602179055506153a3806102cf6000396000f3006080604052600436106101f9576000357c0100000000000000000000000000000000000000000000000000000000900463ffffffff168063029043a4146101fe57806302abcae214610241578063072b0515146102ad57806309533303146103045780630b2f6d4114610347578063174d8b85146103b3578063231a439e1461041c5780633092afd51461045f57806340a141ff146104a25780634d238c8e146104e55780634d54dc96146105285780634e71e0c814610583578063522f6e691461059a578063546f877814610603578063556b63841461061a5780635672f4a01461065d578063715018a6146106a05780637ccce851146106b75780638129fc1c1461071257806387b6eaf21461072957806388f14b0e146107925780638da5cb5b146107fb57806391c4529f14610852578063aa271e1a146108ad578063aef5eb8014610908578063b2daee5c1461094b578063b516af70146109a2578063bed98a0d146109b9578063c0bac1a814610a3d578063c1331bc314610b04578063c56bea6414610b47578063ca1e781914610b8a578063cd49539114610be1578063ce5494bb14610c24578063cfbf1b9014610c67578063d88c271e14610cd0578063e30c397814610d2b578063e51207e714610d82578063f2fde38b14610dc5578063f530259e14610e08578063fca3b5aa14610e63575b600080fd5b34801561020a57600080fd5b5061023f600480360381019080803573ffffffffffffffffffffffffffffffffffffffff169060200190929190505050610ea6565b005b34801561024d57600080fd5b506102ab600480360381019080803573ffffffffffffffffffffffffffffffffffffffff16906020019092919080357bffffffffffffffffffffffffffffffffffffffffffffffffffffffff191690602001909291905050506111b0565b005b3480156102b957600080fd5b506102c26114e7565b604051808273ffffffffffffffffffffffffffffffffffffffff1673ffffffffffffffffffffffffffffffffffffffff16815260200191505060405180910390f35b34801561031057600080fd5b50610345600480360381019080803573ffffffffffffffffffffffffffffffffffffffff16906020019092919050505061150d565b005b34801561035357600080fd5b506103b1600480360381019080803573ffffffffffffffffffffffffffffffffffffffff16906020019092919080357bffffffffffffffffffffffffffffffffffffffffffffffffffffffff19169060200190929190505050611a1b565b005b3480156103bf57600080fd5b506103c8611d52565b60405180827bffffffffffffffffffffffffffffffffffffffffffffffffffffffff19167bffffffffffffffffffffffffffffffffffffffffffffffffffffffff1916815260200191505060405180910390f35b34801561042857600080fd5b5061045d600480360381019080803573ffffffffffffffffffffffffffffffffffffffff169060200190929190505050611d81565b005b34801561046b57600080fd5b506104a0600480360381019080803573ffffffffffffffffffffffffffffffffffffffff16906020019092919050505061208b565b005b3480156104ae57600080fd5b506104e3600480360381019080803573ffffffffffffffffffffffffffffffffffffffff16906020019092919050505061236f565b005b3480156104f157600080fd5b50610526600480360381019080803573ffffffffffffffffffffffffffffffffffffffff1690602001909291905050506124a2565b005b34801561053457600080fd5b50610569600480360381019080803573ffffffffffffffffffffffffffffffffffffffff1690602001909291905050506125d5565b604051808215151515815260200191505060405180910390f35b34801561058f57600080fd5b50610598612652565b005b3480156105a657600080fd5b506105af6127f1565b60405180827bffffffffffffffffffffffffffffffffffffffffffffffffffffffff19167bffffffffffffffffffffffffffffffffffffffffffffffffffffffff1916815260200191505060405180910390f35b34801561060f57600080fd5b50610618612820565b005b34801561062657600080fd5b5061065b600480360381019080803573ffffffffffffffffffffffffffffffffffffffff169060200190929190505050612afc565b005b34801561066957600080fd5b5061069e600480360381019080803573ffffffffffffffffffffffffffffffffffffffff169060200190929190505050612e06565b005b3480156106ac57600080fd5b506106b5612e6d565b005b3480156106c357600080fd5b506106f8600480360381019080803573ffffffffffffffffffffffffffffffffffffffff169060200190929190505050612f6f565b604051808215151515815260200191505060405180910390f35b34801561071e57600080fd5b50610727612feb565b005b34801561073557600080fd5b5061073e613267565b60405180827bffffffffffffffffffffffffffffffffffffffffffffffffffffffff19167bffffffffffffffffffffffffffffffffffffffffffffffffffffffff1916815260200191505060405180910390f35b34801561079e57600080fd5b506107a7613296565b60405180827bffffffffffffffffffffffffffffffffffffffffffffffffffffffff19167bffffffffffffffffffffffffffffffffffffffffffffffffffffffff1916815260200191505060405180910390f35b34801561080757600080fd5b506108106132c5565b604051808273ffffffffffffffffffffffffffffffffffffffff1673ffffffffffffffffffffffffffffffffffffffff16815260200191505060405180910390f35b34801561085e57600080fd5b50610893600480360381019080803573ffffffffffffffffffffffffffffffffffffffff1690602001909291905050506132ea565b604051808215151515815260200191505060405180910390f35b3480156108b957600080fd5b506108ee600480360381019080803573ffffffffffffffffffffffffffffffffffffffff169060200190929190505050613328565b604051808215151515815260200191505060405180910390f35b34801561091457600080fd5b50610949600480360381019080803573ffffffffffffffffffffffffffffffffffffffff169060200190929190505050613366565b005b34801561095757600080fd5b506109606133cd565b604051808273ffffffffffffffffffffffffffffffffffffffff1673ffffffffffffffffffffffffffffffffffffffff16815260200191505060405180910390f35b3480156109ae57600080fd5b506109b76133f3565b005b3480156109c557600080fd5b50610a23600480360381019080803573ffffffffffffffffffffffffffffffffffffffff16906020019092919080357bffffffffffffffffffffffffffffffffffffffffffffffffffffffff19169060200190929190505050613458565b604051808215151515815260200191505060405180910390f35b348015610a4957600080fd5b50610aea600480360381019080803590602001908201803590602001908080601f0160208091040260200160405190810160405280939291908181526020018383808284378201915050505050509192919290803590602001908201803590602001908080601f01602080910402602001604051908101604052809392919081815260200183838082843782019150505050505091929192905050506135a0565b604051808215151515815260200191505060405180910390f35b348015610b1057600080fd5b50610b45600480360381019080803573ffffffffffffffffffffffffffffffffffffffff16906020019092919050505061368c565b005b348015610b5357600080fd5b50610b88600480360381019080803573ffffffffffffffffffffffffffffffffffffffff169060200190929190505050613996565b005b348015610b9657600080fd5b50610b9f613ea4565b604051808273ffffffffffffffffffffffffffffffffffffffff1673ffffffffffffffffffffffffffffffffffffffff16815260200191505060405180910390f35b348015610bed57600080fd5b50610c22600480360381019080803573ffffffffffffffffffffffffffffffffffffffff169060200190929190505050613eca565b005b348015610c3057600080fd5b50610c65600480360381019080803573ffffffffffffffffffffffffffffffffffffffff1690602001909291905050506143d8565b005b348015610c7357600080fd5b50610c7c614999565b60405180827bffffffffffffffffffffffffffffffffffffffffffffffffffffffff19167bffffffffffffffffffffffffffffffffffffffffffffffffffffffff1916815260200191505060405180910390f35b348015610cdc57600080fd5b50610d11600480360381019080803573ffffffffffffffffffffffffffffffffffffffff1690602001909291905050506149c8565b604051808215151515815260200191505060405180910390f35b348015610d3757600080fd5b50610d40614a44565b604051808273ffffffffffffffffffffffffffffffffffffffff1673ffffffffffffffffffffffffffffffffffffffff16815260200191505060405180910390f35b348015610d8e57600080fd5b50610dc3600480360381019080803573ffffffffffffffffffffffffffffffffffffffff169060200190929190505050614a6a565b005b348015610dd157600080fd5b50610e06600480360381019080803573ffffffffffffffffffffffffffffffffffffffff169060200190929190505050614ad1565b005b348015610e1457600080fd5b50610e49600480360381019080803573ffffffffffffffffffffffffffffffffffffffff169060200190929190505050614b70565b604051808215151515815260200191505060405180910390f35b348015610e6f57600080fd5b50610ea4600480360381019080803573ffffffffffffffffffffffffffffffffffffffff169060200190929190505050614bae565b005b600560009054906101000a900473ffffffffffffffffffffffffffffffffffffffff1673ffffffffffffffffffffffffffffffffffffffff1663facd743b336040518263ffffffff167c0100000000000000000000000000000000000000000000000000000000028152600401808273ffffffffffffffffffffffffffffffffffffffff1673ffffffffffffffffffffffffffffffffffffffff168152602001915050602060405180830381600087803b158015610f6357600080fd5b505af1158015610f77573d6000803e3d6000fd5b505050506040513d6020811015610f8d57600080fd5b81019080805190602001909291905050501515610fa957600080fd5b600360009054906101000a900473ffffffffffffffffffffffffffffffffffffffff1673ffffffffffffffffffffffffffffffffffffffff1663933aa6676005601c9054906101000a90047c0100000000000000000000000000000000000000000000000000000000026040518263ffffffff167c010000000000000000000000000000000000000000000000000000000002815260040180827bffffffffffffffffffffffffffffffffffffffffffffffffffffffff19167bffffffffffffffffffffffffffffffffffffffffffffffffffffffff19168152602001915050602060405180830381600087803b1580156110a357600080fd5b505af11580156110b7573d6000803e3d6000fd5b505050506040513d60208110156110cd57600080fd5b81019080805190602001909291905050501515611178576040517f08c379a00000000000000000000000000000000000000000000000000000000081526004018080602001828103825260298152602001807f426c61636b6c697374207370656e64696e67206e6f7420737570706f7274656481526020017f20627920746f6b656e000000000000000000000000000000000000000000000081525060400191505060405180910390fd5b6111ad81600660049054906101000a90047c010000000000000000000000000000000000000000000000000000000002611a1b565b50565b600560009054906101000a900473ffffffffffffffffffffffffffffffffffffffff1673ffffffffffffffffffffffffffffffffffffffff1663facd743b336040518263ffffffff167c0100000000000000000000000000000000000000000000000000000000028152600401808273ffffffffffffffffffffffffffffffffffffffff1673ffffffffffffffffffffffffffffffffffffffff168152602001915050602060405180830381600087803b15801561126d57600080fd5b505af1158015611281573d6000803e3d6000fd5b505050506040513d602081101561129757600080fd5b810190808051906020019092919050505015156112b357600080fd5b600360009054906101000a900473ffffffffffffffffffffffffffffffffffffffff1673ffffffffffffffffffffffffffffffffffffffff1663933aa667826040518263ffffffff167c010000000000000000000000000000000000000000000000000000000002815260040180827bffffffffffffffffffffffffffffffffffffffffffffffffffffffff19167bffffffffffffffffffffffffffffffffffffffffffffffffffffffff19168152602001915050602060405180830381600087803b15801561138257600080fd5b505af1158015611396573d6000803e3d6000fd5b505050506040513d60208110156113ac57600080fd5b810190808051906020019092919050505015156113c857600080fd5b600460009054906101000a900473ffffffffffffffffffffffffffffffffffffffff1673ffffffffffffffffffffffffffffffffffffffff166302abcae283836040518363ffffffff167c0100000000000000000000000000000000000000000000000000000000028152600401808373ffffffffffffffffffffffffffffffffffffffff1673ffffffffffffffffffffffffffffffffffffffff168152602001827bffffffffffffffffffffffffffffffffffffffffffffffffffffffff19167bffffffffffffffffffffffffffffffffffffffffffffffffffffffff1916815260200192505050600060405180830381600087803b1580156114cb57600080fd5b505af11580156114df573d6000803e3d6000fd5b505050505050565b600460009054906101000a900473ffffffffffffffffffffffffffffffffffffffff1681565b600560009054906101000a900473ffffffffffffffffffffffffffffffffffffffff1673ffffffffffffffffffffffffffffffffffffffff1663facd743b336040518263ffffffff167c0100000000000000000000000000000000000000000000000000000000028152600401808273ffffffffffffffffffffffffffffffffffffffff1673ffffffffffffffffffffffffffffffffffffffff168152602001915050602060405180830381600087803b1580156115ca57600080fd5b505af11580156115de573d6000803e3d6000fd5b505050506040513d60208110156115f457600080fd5b8101908080519060200190929190505050151561161057600080fd5b600360009054906101000a900473ffffffffffffffffffffffffffffffffffffffff1673ffffffffffffffffffffffffffffffffffffffff1663933aa667600560189054906101000a90047c0100000000000000000000000000000000000000000000000000000000026040518263ffffffff167c010000000000000000000000000000000000000000000000000000000002815260040180827bffffffffffffffffffffffffffffffffffffffffffffffffffffffff19167bffffffffffffffffffffffffffffffffffffffffffffffffffffffff19168152602001915050602060405180830381600087803b15801561170a57600080fd5b505af115801561171e573d6000803e3d6000fd5b505050506040513d602081101561173457600080fd5b810190808051906020019092919050505015156117df576040517f08c379a00000000000000000000000000000000000000000000000000000000081526004018080602001828103825260228152602001807f4275726e206d6574686f64206e6f7420737570706f7274656420627920746f6b81526020017f656e00000000000000000000000000000000000000000000000000000000000081525060400191505060405180910390fd5b600360009054906101000a900473ffffffffffffffffffffffffffffffffffffffff1673ffffffffffffffffffffffffffffffffffffffff1663933aa667600560149054906101000a90047c0100000000000000000000000000000000000000000000000000000000026040518263ffffffff167c010000000000000000000000000000000000000000000000000000000002815260040180827bffffffffffffffffffffffffffffffffffffffffffffffffffffffff19167bffffffffffffffffffffffffffffffffffffffffffffffffffffffff19168152602001915050602060405180830381600087803b1580156118d957600080fd5b505af11580156118ed573d6000803e3d6000fd5b505050506040513d602081101561190357600080fd5b810190808051906020019092919050505015156119ae576040517f08c379a000000000000000000000000000000000000000000000000000000000815260040180806020018281038252602b8152602001807f53656c662d6465737472756374206d6574686f64206e6f7420737570706f727481526020017f656420627920746f6b656e00000000000000000000000000000000000000000081525060400191505060405180910390fd5b6119e381600560189054906101000a90047c0100000000000000000000000000000000000000000000000000000000026111b0565b611a1881600560149054906101000a90047c010000000000000000000000000000000000000000000000000000000002611a1b565b50565b600560009054906101000a900473ffffffffffffffffffffffffffffffffffffffff1673ffffffffffffffffffffffffffffffffffffffff1663facd743b336040518263ffffffff167c0100000000000000000000000000000000000000000000000000000000028152600401808273ffffffffffffffffffffffffffffffffffffffff1673ffffffffffffffffffffffffffffffffffffffff168152602001915050602060405180830381600087803b158015611ad857600080fd5b505af1158015611aec573d6000803e3d6000fd5b505050506040513d6020811015611b0257600080fd5b81019080805190602001909291905050501515611b1e57600080fd5b600360009054906101000a900473ffffffffffffffffffffffffffffffffffffffff1673ffffffffffffffffffffffffffffffffffffffff1663933aa667826040518263ffffffff167c010000000000000000000000000000000000000000000000000000000002815260040180827bffffffffffffffffffffffffffffffffffffffffffffffffffffffff19167bffffffffffffffffffffffffffffffffffffffffffffffffffffffff19168152602001915050602060405180830381600087803b158015611bed57600080fd5b505af1158015611c01573d6000803e3d6000fd5b505050506040513d6020811015611c1757600080fd5b81019080805190602001909291905050501515611c3357600080fd5b600460009054906101000a900473ffffffffffffffffffffffffffffffffffffffff1673ffffffffffffffffffffffffffffffffffffffff16630b2f6d4183836040518363ffffffff167c0100000000000000000000000000000000000000000000000000000000028152600401808373ffffffffffffffffffffffffffffffffffffffff1673ffffffffffffffffffffffffffffffffffffffff168152602001827bffffffffffffffffffffffffffffffffffffffffffffffffffffffff19167bffffffffffffffffffffffffffffffffffffffffffffffffffffffff1916815260200192505050600060405180830381600087803b158015611d3657600080fd5b505af1158015611d4a573d6000803e3d6000fd5b505050505050565b600560149054906101000a90047c01000000000000000000000000000000000000000000000000000000000281565b600560009054906101000a900473ffffffffffffffffffffffffffffffffffffffff1673ffffffffffffffffffffffffffffffffffffffff1663facd743b336040518263ffffffff167c0100000000000000000000000000000000000000000000000000000000028152600401808273ffffffffffffffffffffffffffffffffffffffff1673ffffffffffffffffffffffffffffffffffffffff168152602001915050602060405180830381600087803b158015611e3e57600080fd5b505af1158015611e52573d6000803e3d6000fd5b505050506040513d6020811015611e6857600080fd5b81019080805190602001909291905050501515611e8457600080fd5b600360009054906101000a900473ffffffffffffffffffffffffffffffffffffffff1673ffffffffffffffffffffffffffffffffffffffff1663933aa667600660009054906101000a90047c0100000000000000000000000000000000000000000000000000000000026040518263ffffffff167c010000000000000000000000000000000000000000000000000000000002815260040180827bffffffffffffffffffffffffffffffffffffffffffffffffffffffff19167bffffffffffffffffffffffffffffffffffffffffffffffffffffffff19168152602001915050602060405180830381600087803b158015611f7e57600080fd5b505af1158015611f92573d6000803e3d6000fd5b505050506040513d6020811015611fa857600080fd5b81019080805190602001909291905050501515612053576040517f08c379a00000000000000000000000000000000000000000000000000000000081526004018080602001828103825260328152602001807f426c61636b6c69737420746f6b656e206465737472756374696f6e206e6f742081526020017f737570706f7274656420627920746f6b656e000000000000000000000000000081525060400191505060405180910390fd5b61208881600660009054906101000a90047c0100000000000000000000000000000000000000000000000000000000026111b0565b50565b600560009054906101000a900473ffffffffffffffffffffffffffffffffffffffff1673ffffffffffffffffffffffffffffffffffffffff1663facd743b336040518263ffffffff167c0100000000000000000000000000000000000000000000000000000000028152600401808273ffffffffffffffffffffffffffffffffffffffff1673ffffffffffffffffffffffffffffffffffffffff168152602001915050602060405180830381600087803b15801561214857600080fd5b505af115801561215c573d6000803e3d6000fd5b505050506040513d602081101561217257600080fd5b8101908080519060200190929190505050151561218e57600080fd5b600360009054906101000a900473ffffffffffffffffffffffffffffffffffffffff1673ffffffffffffffffffffffffffffffffffffffff1663933aa6676005601c9054906101000a90047c0100000000000000000000000000000000000000000000000000000000026040518263ffffffff167c010000000000000000000000000000000000000000000000000000000002815260040180827bffffffffffffffffffffffffffffffffffffffffffffffffffffffff19167bffffffffffffffffffffffffffffffffffffffffffffffffffffffff19168152602001915050602060405180830381600087803b15801561228857600080fd5b505af115801561229c573d6000803e3d6000fd5b505050506040513d60208110156122b257600080fd5b81019080805190602001909291905050501515612337576040517f08c379a000000000000000000000000000000000000000000000000000000000815260040180806020018281038252601e8152602001807f4d696e74696e67206e6f7420737570706f7274656420627920746f6b656e000081525060200191505060405180910390fd5b61236c816005601c9054906101000a90047c010000000000000000000000000000000000000000000000000000000002611a1b565b50565b6000809054906101000a900473ffffffffffffffffffffffffffffffffffffffff1673ffffffffffffffffffffffffffffffffffffffff163373ffffffffffffffffffffffffffffffffffffffff161415156123ca57600080fd5b600560009054906101000a900473ffffffffffffffffffffffffffffffffffffffff1673ffffffffffffffffffffffffffffffffffffffff166340a141ff826040518263ffffffff167c0100000000000000000000000000000000000000000000000000000000028152600401808273ffffffffffffffffffffffffffffffffffffffff1673ffffffffffffffffffffffffffffffffffffffff168152602001915050600060405180830381600087803b15801561248757600080fd5b505af115801561249b573d6000803e3d6000fd5b5050505050565b6000809054906101000a900473ffffffffffffffffffffffffffffffffffffffff1673ffffffffffffffffffffffffffffffffffffffff163373ffffffffffffffffffffffffffffffffffffffff161415156124fd57600080fd5b600560009054906101000a900473ffffffffffffffffffffffffffffffffffffffff1673ffffffffffffffffffffffffffffffffffffffff16634d238c8e826040518263ffffffff167c0100000000000000000000000000000000000000000000000000000000028152600401808273ffffffffffffffffffffffffffffffffffffffff1673ffffffffffffffffffffffffffffffffffffffff168152602001915050600060405180830381600087803b1580156125ba57600080fd5b505af11580156125ce573d6000803e3d6000fd5b5050505050565b600061260c82600560189054906101000a90047c010000000000000000000000000000000000000000000000000000000002613458565b15801561264b575061264982600560149054906101000a90047c010000000000000000000000000000000000000000000000000000000002613458565b155b9050919050565b600160009054906101000a900473ffffffffffffffffffffffffffffffffffffffff1673ffffffffffffffffffffffffffffffffffffffff163373ffffffffffffffffffffffffffffffffffffffff161415156126ae57600080fd5b600160009054906101000a900473ffffffffffffffffffffffffffffffffffffffff1673ffffffffffffffffffffffffffffffffffffffff166000809054906101000a900473ffffffffffffffffffffffffffffffffffffffff1673ffffffffffffffffffffffffffffffffffffffff167f8be0079c531659141344cd1fd0a4f28419497f9722a3daafe3b4186f6b6457e060405160405180910390a3600160009054906101000a900473ffffffffffffffffffffffffffffffffffffffff166000806101000a81548173ffffffffffffffffffffffffffffffffffffffff021916908373ffffffffffffffffffffffffffffffffffffffff1602179055506000600160006101000a81548173ffffffffffffffffffffffffffffffffffffffff021916908373ffffffffffffffffffffffffffffffffffffffff160217905550565b600660009054906101000a90047c01000000000000000000000000000000000000000000000000000000000281565b6000809054906101000a900473ffffffffffffffffffffffffffffffffffffffff1673ffffffffffffffffffffffffffffffffffffffff163373ffffffffffffffffffffffffffffffffffffffff1614151561287b57600080fd5b600460009054906101000a900473ffffffffffffffffffffffffffffffffffffffff1673ffffffffffffffffffffffffffffffffffffffff1663f2fde38b336040518263ffffffff167c0100000000000000000000000000000000000000000000000000000000028152600401808273ffffffffffffffffffffffffffffffffffffffff1673ffffffffffffffffffffffffffffffffffffffff168152602001915050600060405180830381600087803b15801561293857600080fd5b505af115801561294c573d6000803e3d6000fd5b50505050600360009054906101000a900473ffffffffffffffffffffffffffffffffffffffff1673ffffffffffffffffffffffffffffffffffffffff1663f2fde38b336040518263ffffffff167c0100000000000000000000000000000000000000000000000000000000028152600401808273ffffffffffffffffffffffffffffffffffffffff1673ffffffffffffffffffffffffffffffffffffffff168152602001915050600060405180830381600087803b158015612a0d57600080fd5b505af1158015612a21573d6000803e3d6000fd5b50505050600560009054906101000a900473ffffffffffffffffffffffffffffffffffffffff1673ffffffffffffffffffffffffffffffffffffffff1663f2fde38b336040518263ffffffff167c0100000000000000000000000000000000000000000000000000000000028152600401808273ffffffffffffffffffffffffffffffffffffffff1673ffffffffffffffffffffffffffffffffffffffff168152602001915050600060405180830381600087803b158015612ae257600080fd5b505af1158015612af6573d6000803e3d6000fd5b50505050565b600560009054906101000a900473ffffffffffffffffffffffffffffffffffffffff1673ffffffffffffffffffffffffffffffffffffffff1663facd743b336040518263ffffffff167c0100000000000000000000000000000000000000000000000000000000028152600401808273ffffffffffffffffffffffffffffffffffffffff1673ffffffffffffffffffffffffffffffffffffffff168152602001915050602060405180830381600087803b158015612bb957600080fd5b505af1158015612bcd573d6000803e3d6000fd5b505050506040513d6020811015612be357600080fd5b81019080805190602001909291905050501515612bff57600080fd5b600360009054906101000a900473ffffffffffffffffffffffffffffffffffffffff1673ffffffffffffffffffffffffffffffffffffffff1663933aa667600660009054906101000a90047c0100000000000000000000000000000000000000000000000000000000026040518263ffffffff167c010000000000000000000000000000000000000000000000000000000002815260040180827bffffffffffffffffffffffffffffffffffffffffffffffffffffffff19167bffffffffffffffffffffffffffffffffffffffffffffffffffffffff19168152602001915050602060405180830381600087803b158015612cf957600080fd5b505af1158015612d0d573d6000803e3d6000fd5b505050506040513d6020811015612d2357600080fd5b81019080805190602001909291905050501515612dce576040517f08c379a00000000000000000000000000000000000000000000000000000000081526004018080602001828103825260328152602001807f426c61636b6c69737420746f6b656e206465737472756374696f6e206e6f742081526020017f737570706f7274656420627920746f6b656e000000000000000000000000000081525060400191505060405180910390fd5b612e0381600660009054906101000a90047c010000000000000000000000000000000000000000000000000000000002611a1b565b50565b6000809054906101000a900473ffffffffffffffffffffffffffffffffffffffff1673ffffffffffffffffffffffffffffffffffffffff163373ffffffffffffffffffffffffffffffffffffffff16141515612e6157600080fd5b612e6a81614e92565b50565b6000809054906101000a900473ffffffffffffffffffffffffffffffffffffffff1673ffffffffffffffffffffffffffffffffffffffff163373ffffffffffffffffffffffffffffffffffffffff16141515612ec857600080fd5b6000809054906101000a900473ffffffffffffffffffffffffffffffffffffffff1673ffffffffffffffffffffffffffffffffffffffff167ff8df31144d9c2f0f6b59d69b8b98abd5459d07f2742c4df920b25aae33c6482060405160405180910390a260008060006101000a81548173ffffffffffffffffffffffffffffffffffffffff021916908373ffffffffffffffffffffffffffffffffffffffff160217905550565b6000612fa682600560189054906101000a90047c010000000000000000000000000000000000000000000000000000000002613458565b158015612fe45750612fe382600560149054906101000a90047c010000000000000000000000000000000000000000000000000000000002613458565b5b9050919050565b6040805190810160405280600981526020017f526567756c61746f7200000000000000000000000000000000000000000000008152506040805190810160405280600381526020017f312e30000000000000000000000000000000000000000000000000000000000081525061306182826135a0565b15151561306d57600080fd5b7fdd117a11c22118c9dee4b5a67ce578bc44529dce21ee0ccc439588fbb9fb4ea38282604051808060200180602001838103835285818151815260200191508051906020019080838360005b838110156130d45780820151818401526020810190506130b9565b50505050905090810190601f1680156131015780820380516001836020036101000a031916815260200191505b50838103825284818151815260200191508051906020019080838360005b8381101561313a57808201518184015260208101905061311f565b50505050905090810190601f1680156131675780820380516001836020036101000a031916815260200191505b5094505050505060405180910390a160016002836040518082805190602001908083835b6020831015156131b0578051825260208201915060208101905060208303925061318b565b6001836020036101000a0380198251168184511680821785525050505050509050019150509081526020016040518091039020826040518082805190602001908083835b60208310151561321957805182526020820191506020810190506020830392506131f4565b6001836020036101000a038019825116818451168082178552505050505050905001915050908152602001604051809103902060006101000a81548160ff0219169083151502179055505050565b600660049054906101000a90047c01000000000000000000000000000000000000000000000000000000000281565b6005601c9054906101000a90047c01000000000000000000000000000000000000000000000000000000000281565b6000809054906101000a900473ffffffffffffffffffffffffffffffffffffffff1681565b600061332182600660049054906101000a90047c010000000000000000000000000000000000000000000000000000000002613458565b9050919050565b600061335f826005601c9054906101000a90047c010000000000000000000000000000000000000000000000000000000002613458565b9050919050565b6000809054906101000a900473ffffffffffffffffffffffffffffffffffffffff1673ffffffffffffffffffffffffffffffffffffffff163373ffffffffffffffffffffffffffffffffffffffff161415156133c157600080fd5b6133ca81614f95565b50565b600360009054906101000a900473ffffffffffffffffffffffffffffffffffffffff1681565b6000809054906101000a900473ffffffffffffffffffffffffffffffffffffffff1673ffffffffffffffffffffffffffffffffffffffff163373ffffffffffffffffffffffffffffffffffffffff1614151561344e57600080fd5b613456615098565b565b6000600460009054906101000a900473ffffffffffffffffffffffffffffffffffffffff1673ffffffffffffffffffffffffffffffffffffffff1663bed98a0d84846040518363ffffffff167c0100000000000000000000000000000000000000000000000000000000028152600401808373ffffffffffffffffffffffffffffffffffffffff1673ffffffffffffffffffffffffffffffffffffffff168152602001827bffffffffffffffffffffffffffffffffffffffffffffffffffffffff19167bffffffffffffffffffffffffffffffffffffffffffffffffffffffff1916815260200192505050602060405180830381600087803b15801561355d57600080fd5b505af1158015613571573d6000803e3d6000fd5b505050506040513d602081101561358757600080fd5b8101908080519060200190929190505050905092915050565b60006002836040518082805190602001908083835b6020831015156135da57805182526020820191506020810190506020830392506135b5565b6001836020036101000a0380198251168184511680821785525050505050509050019150509081526020016040518091039020826040518082805190602001908083835b602083101515613643578051825260208201915060208101905060208303925061361e565b6001836020036101000a038019825116818451168082178552505050505050905001915050908152602001604051809103902060009054906101000a900460ff16905092915050565b600560009054906101000a900473ffffffffffffffffffffffffffffffffffffffff1673ffffffffffffffffffffffffffffffffffffffff1663facd743b336040518263ffffffff167c0100000000000000000000000000000000000000000000000000000000028152600401808273ffffffffffffffffffffffffffffffffffffffff1673ffffffffffffffffffffffffffffffffffffffff168152602001915050602060405180830381600087803b15801561374957600080fd5b505af115801561375d573d6000803e3d6000fd5b505050506040513d602081101561377357600080fd5b8101908080519060200190929190505050151561378f57600080fd5b600360009054906101000a900473ffffffffffffffffffffffffffffffffffffffff1673ffffffffffffffffffffffffffffffffffffffff1663933aa6676005601c9054906101000a90047c0100000000000000000000000000000000000000000000000000000000026040518263ffffffff167c010000000000000000000000000000000000000000000000000000000002815260040180827bffffffffffffffffffffffffffffffffffffffffffffffffffffffff19167bffffffffffffffffffffffffffffffffffffffffffffffffffffffff19168152602001915050602060405180830381600087803b15801561388957600080fd5b505af115801561389d573d6000803e3d6000fd5b505050506040513d60208110156138b357600080fd5b8101908080519060200190929190505050151561395e576040517f08c379a00000000000000000000000000000000000000000000000000000000081526004018080602001828103825260298152602001807f426c61636b6c697374207370656e64696e67206e6f7420737570706f7274656481526020017f20627920746f6b656e000000000000000000000000000000000000000000000081525060400191505060405180910390fd5b61399381600660049054906101000a90047c0100000000000000000000000000000000000000000000000000000000026111b0565b50565b600560009054906101000a900473ffffffffffffffffffffffffffffffffffffffff1673ffffffffffffffffffffffffffffffffffffffff1663facd743b336040518263ffffffff167c0100000000000000000000000000000000000000000000000000000000028152600401808273ffffffffffffffffffffffffffffffffffffffff1673ffffffffffffffffffffffffffffffffffffffff168152602001915050602060405180830381600087803b158015613a5357600080fd5b505af1158015613a67573d6000803e3d6000fd5b505050506040513d6020811015613a7d57600080fd5b81019080805190602001909291905050501515613a9957600080fd5b600360009054906101000a900473ffffffffffffffffffffffffffffffffffffffff1673ffffffffffffffffffffffffffffffffffffffff1663933aa667600560189054906101000a90047c0100000000000000000000000000000000000000000000000000000000026040518263ffffffff167c010000000000000000000000000000000000000000000000000000000002815260040180827bffffffffffffffffffffffffffffffffffffffffffffffffffffffff19167bffffffffffffffffffffffffffffffffffffffffffffffffffffffff19168152602001915050602060405180830381600087803b158015613b9357600080fd5b505af1158015613ba7573d6000803e3d6000fd5b505050506040513d6020811015613bbd57600080fd5b81019080805190602001909291905050501515613c68576040517f08c379a00000000000000000000000000000000000000000000000000000000081526004018080602001828103825260228152602001807f4275726e206d6574686f64206e6f7420737570706f7274656420627920746f6b81526020017f656e00000000000000000000000000000000000000000000000000000000000081525060400191505060405180910390fd5b600360009054906101000a900473ffffffffffffffffffffffffffffffffffffffff1673ffffffffffffffffffffffffffffffffffffffff1663933aa667600560149054906101000a90047c0100000000000000000000000000000000000000000000000000000000026040518263ffffffff167c010000000000000000000000000000000000000000000000000000000002815260040180827bffffffffffffffffffffffffffffffffffffffffffffffffffffffff19167bffffffffffffffffffffffffffffffffffffffffffffffffffffffff19168152602001915050602060405180830381600087803b158015613d6257600080fd5b505af1158015613d76573d6000803e3d6000fd5b505050506040513d6020811015613d8c57600080fd5b81019080805190602001909291905050501515613e37576040517f08c379a000000000000000000000000000000000000000000000000000000000815260040180806020018281038252602b8152602001807f53656c662d6465737472756374206d6574686f64206e6f7420737570706f727481526020017f656420627920746f6b656e00000000000000000000000000000000000000000081525060400191505060405180910390fd5b613e6c81600560189054906101000a90047c010000000000000000000000000000000000000000000000000000000002611a1b565b613ea181600560149054906101000a90047c0100000000000000000000000000000000000000000000000000000000026111b0565b50565b600560009054906101000a900473ffffffffffffffffffffffffffffffffffffffff1681565b600560009054906101000a900473ffffffffffffffffffffffffffffffffffffffff1673ffffffffffffffffffffffffffffffffffffffff1663facd743b336040518263ffffffff167c0100000000000000000000000000000000000000000000000000000000028152600401808273ffffffffffffffffffffffffffffffffffffffff1673ffffffffffffffffffffffffffffffffffffffff168152602001915050602060405180830381600087803b158015613f8757600080fd5b505af1158015613f9b573d6000803e3d6000fd5b505050506040513d6020811015613fb157600080fd5b81019080805190602001909291905050501515613fcd57600080fd5b600360009054906101000a900473ffffffffffffffffffffffffffffffffffffffff1673ffffffffffffffffffffffffffffffffffffffff1663933aa667600560189054906101000a90047c0100000000000000000000000000000000000000000000000000000000026040518263ffffffff167c010000000000000000000000000000000000000000000000000000000002815260040180827bffffffffffffffffffffffffffffffffffffffffffffffffffffffff19167bffffffffffffffffffffffffffffffffffffffffffffffffffffffff19168152602001915050602060405180830381600087803b1580156140c757600080fd5b505af11580156140db573d6000803e3d6000fd5b505050506040513d60208110156140f157600080fd5b8101908080519060200190929190505050151561419c576040517f08c379a00000000000000000000000000000000000000000000000000000000081526004018080602001828103825260228152602001807f4275726e206d6574686f64206e6f7420737570706f7274656420627920746f6b81526020017f656e00000000000000000000000000000000000000000000000000000000000081525060400191505060405180910390fd5b600360009054906101000a900473ffffffffffffffffffffffffffffffffffffffff1673ffffffffffffffffffffffffffffffffffffffff1663933aa667600560149054906101000a90047c0100000000000000000000000000000000000000000000000000000000026040518263ffffffff167c010000000000000000000000000000000000000000000000000000000002815260040180827bffffffffffffffffffffffffffffffffffffffffffffffffffffffff19167bffffffffffffffffffffffffffffffffffffffffffffffffffffffff19168152602001915050602060405180830381600087803b15801561429657600080fd5b505af11580156142aa573d6000803e3d6000fd5b505050506040513d60208110156142c057600080fd5b8101908080519060200190929190505050151561436b576040517f08c379a000000000000000000000000000000000000000000000000000000000815260040180806020018281038252602b8152602001807f53656c662d6465737472756374206d6574686f64206e6f7420737570706f727481526020017f656420627920746f6b656e00000000000000000000000000000000000000000081525060400191505060405180910390fd5b6143a081600560189054906101000a90047c010000000000000000000000000000000000000000000000000000000002611a1b565b6143d581600560149054906101000a90047c010000000000000000000000000000000000000000000000000000000002611a1b565b50565b60006040805190810160405280600981526020017f526567756c61746f7200000000000000000000000000000000000000000000008152506040805190810160405280600381526020017f312e3000000000000000000000000000000000000000000000000000000000008152506040805190810160405280600381526020017f312e31000000000000000000000000000000000000000000000000000000000081525061448683836135a0565b8015614499575061449783826135a0565b155b15156144a457600080fd5b8493508373ffffffffffffffffffffffffffffffffffffffff16634e71e0c86040518163ffffffff167c0100000000000000000000000000000000000000000000000000000000028152600401600060405180830381600087803b15801561450b57600080fd5b505af115801561451f573d6000803e3d6000fd5b505050508373ffffffffffffffffffffffffffffffffffffffff1663546f87786040518163ffffffff167c0100000000000000000000000000000000000000000000000000000000028152600401600060405180830381600087803b15801561458757600080fd5b505af115801561459b573d6000803e3d6000fd5b505050506146468473ffffffffffffffffffffffffffffffffffffffff1663b2daee5c6040518163ffffffff167c0100000000000000000000000000000000000000000000000000000000028152600401602060405180830381600087803b15801561460657600080fd5b505af115801561461a573d6000803e3d6000fd5b505050506040513d602081101561463057600080fd5b8101908080519060200190929190505050614f95565b6146ed8473ffffffffffffffffffffffffffffffffffffffff1663072b05156040518163ffffffff167c0100000000000000000000000000000000000000000000000000000000028152600401602060405180830381600087803b1580156146ad57600080fd5b505af11580156146c1573d6000803e3d6000fd5b505050506040513d60208110156146d757600080fd5b8101908080519060200190929190505050614e92565b6147948473ffffffffffffffffffffffffffffffffffffffff1663ca1e78196040518163ffffffff167c0100000000000000000000000000000000000000000000000000000000028152600401602060405180830381600087803b15801561475457600080fd5b505af1158015614768573d6000803e3d6000fd5b505050506040513d602081101561477e57600080fd5b8101908080519060200190929190505050615274565b61479c615098565b7fdd117a11c22118c9dee4b5a67ce578bc44529dce21ee0ccc439588fbb9fb4ea38382604051808060200180602001838103835285818151815260200191508051906020019080838360005b838110156148035780820151818401526020810190506147e8565b50505050905090810190601f1680156148305780820380516001836020036101000a031916815260200191505b50838103825284818151815260200191508051906020019080838360005b8381101561486957808201518184015260208101905061484e565b50505050905090810190601f1680156148965780820380516001836020036101000a031916815260200191505b5094505050505060405180910390a160016002846040518082805190602001908083835b6020831015156148df57805182526020820191506020810190506020830392506148ba565b6001836020036101000a0380198251168184511680821785525050505050509050019150509081526020016040518091039020826040518082805190602001908083835b6020831015156149485780518252602082019150602081019050602083039250614923565b6001836020036101000a038019825116818451168082178552505050505050905001915050908152602001604051809103902060006101000a81548160ff0219169083151502179055505050505050565b600560189054906101000a90047c01000000000000000000000000000000000000000000000000000000000281565b60006149ff82600560189054906101000a90047c010000000000000000000000000000000000000000000000000000000002613458565b8015614a3d5750614a3b82600560149054906101000a90047c010000000000000000000000000000000000000000000000000000000002613458565b155b9050919050565b600160009054906101000a900473ffffffffffffffffffffffffffffffffffffffff1681565b6000809054906101000a900473ffffffffffffffffffffffffffffffffffffffff1673ffffffffffffffffffffffffffffffffffffffff163373ffffffffffffffffffffffffffffffffffffffff16141515614ac557600080fd5b614ace81615274565b50565b6000809054906101000a900473ffffffffffffffffffffffffffffffffffffffff1673ffffffffffffffffffffffffffffffffffffffff163373ffffffffffffffffffffffffffffffffffffffff16141515614b2c57600080fd5b80600160006101000a81548173ffffffffffffffffffffffffffffffffffffffff021916908373ffffffffffffffffffffffffffffffffffffffff16021790555050565b6000614ba782600660009054906101000a90047c010000000000000000000000000000000000000000000000000000000002613458565b9050919050565b600560009054906101000a900473ffffffffffffffffffffffffffffffffffffffff1673ffffffffffffffffffffffffffffffffffffffff1663facd743b336040518263ffffffff167c0100000000000000000000000000000000000000000000000000000000028152600401808273ffffffffffffffffffffffffffffffffffffffff1673ffffffffffffffffffffffffffffffffffffffff168152602001915050602060405180830381600087803b158015614c6b57600080fd5b505af1158015614c7f573d6000803e3d6000fd5b505050506040513d6020811015614c9557600080fd5b81019080805190602001909291905050501515614cb157600080fd5b600360009054906101000a900473ffffffffffffffffffffffffffffffffffffffff1673ffffffffffffffffffffffffffffffffffffffff1663933aa6676005601c9054906101000a90047c0100000000000000000000000000000000000000000000000000000000026040518263ffffffff167c010000000000000000000000000000000000000000000000000000000002815260040180827bffffffffffffffffffffffffffffffffffffffffffffffffffffffff19167bffffffffffffffffffffffffffffffffffffffffffffffffffffffff19168152602001915050602060405180830381600087803b158015614dab57600080fd5b505af1158015614dbf573d6000803e3d6000fd5b505050506040513d6020811015614dd557600080fd5b81019080805190602001909291905050501515614e5a576040517f08c379a000000000000000000000000000000000000000000000000000000000815260040180806020018281038252601e8152602001807f4d696e74696e67206e6f7420737570706f7274656420627920746f6b656e000081525060200191505060405180910390fd5b614e8f816005601c9054906101000a90047c0100000000000000000000000000000000000000000000000000000000026111b0565b50565b6000600460009054906101000a900473ffffffffffffffffffffffffffffffffffffffff16905081600460006101000a81548173ffffffffffffffffffffffffffffffffffffffff021916908373ffffffffffffffffffffffffffffffffffffffff1602179055507fa235fc7f220d278a18cc5b5afdf77a237e23c869c620342dd27938360d051e6e8183604051808373ffffffffffffffffffffffffffffffffffffffff1673ffffffffffffffffffffffffffffffffffffffff1681526020018273ffffffffffffffffffffffffffffffffffffffff1673ffffffffffffffffffffffffffffffffffffffff1681526020019250505060405180910390a15050565b6000600360009054906101000a900473ffffffffffffffffffffffffffffffffffffffff16905081600360006101000a81548173ffffffffffffffffffffffffffffffffffffffff021916908373ffffffffffffffffffffffffffffffffffffffff1602179055507f7539cbc20455659eb1b9f83350bb91703811c01a9ca31d76b43028c6bddf51908183604051808373ffffffffffffffffffffffffffffffffffffffff1673ffffffffffffffffffffffffffffffffffffffff1681526020018273ffffffffffffffffffffffffffffffffffffffff1673ffffffffffffffffffffffffffffffffffffffff1681526020019250505060405180910390a15050565b600460009054906101000a900473ffffffffffffffffffffffffffffffffffffffff1673ffffffffffffffffffffffffffffffffffffffff16634e71e0c86040518163ffffffff167c0100000000000000000000000000000000000000000000000000000000028152600401600060405180830381600087803b15801561511e57600080fd5b505af1158015615132573d6000803e3d6000fd5b50505050600360009054906101000a900473ffffffffffffffffffffffffffffffffffffffff1673ffffffffffffffffffffffffffffffffffffffff16634e71e0c86040518163ffffffff167c0100000000000000000000000000000000000000000000000000000000028152600401600060405180830381600087803b1580156151bc57600080fd5b505af11580156151d0573d6000803e3d6000fd5b50505050600560009054906101000a900473ffffffffffffffffffffffffffffffffffffffff1673ffffffffffffffffffffffffffffffffffffffff16634e71e0c86040518163ffffffff167c0100000000000000000000000000000000000000000000000000000000028152600401600060405180830381600087803b15801561525a57600080fd5b505af115801561526e573d6000803e3d6000fd5b50505050565b6000600560009054906101000a900473ffffffffffffffffffffffffffffffffffffffff16905081600560006101000a81548173ffffffffffffffffffffffffffffffffffffffff021916908373ffffffffffffffffffffffffffffffffffffffff1602179055507ff2fe5c6d565e5d7377b2510087e7f003413e3ea0906d4a69e12120cf6365aacf8183604051808373ffffffffffffffffffffffffffffffffffffffff1673ffffffffffffffffffffffffffffffffffffffff1681526020018273ffffffffffffffffffffffffffffffffffffffff1673ffffffffffffffffffffffffffffffffffffffff1681526020019250505060405180910390a150505600a165627a7a723058201300313b48548870bd39e5318805e22660f3a898ac9e187d6ec6e50c73f396170029",
  "source": "pragma solidity ^0.4.23;\n\nimport \"openzeppelin-solidity/contracts/ownership/Claimable.sol\";\nimport \"zos-lib/contracts/migrations/Migratable.sol\";\nimport \"./PermissionStorage.sol\";\nimport \"./UserPermissionsStorage.sol\";\nimport \"./ValidatorStorage.sol\";\n\n/**\n * @title Regulator\n * @dev Regulator can be configured to meet relevant securities regulations, KYC policies\n * AML requirements, tax laws, and more. The Regulator ensures that the PermissionedToken\n * makes compliant transfers possible. Contains the userPermissions necessary\n * for regulatory compliance.\n *\n */\ncontract Regulator is Claimable, Migratable {\n    /** STORAGES\n    */\n\n    /** \n    * @notice Stores a mapping from method signatures to permission attributes (e.g. whether\n      the permission is \"activated\" for use, and additional attributes such as the\n      method's name and location in the code.)\n    */\n    PermissionStorage public availablePermissions;\n\n    /** \n    * @notice Stores a mapping from users to execution permissions that they hold.\n    */\n    UserPermissionsStorage public userPermissions;\n\n    /**\n    * @notice accounts with ability to set attributes\n    *\n    */\n    ValidatorStorage public validators;\n\n    /** \n        Constants: stores method signatures \n    */\n    bytes4 public DESTROYSELF_SIG = bytes4(keccak256(\"destroySelf()\"));\n    bytes4 public BURN_SIG = bytes4(keccak256(\"burn(uint256)\"));\n    bytes4 public MINT_SIG = bytes4(keccak256(\"mint(address,uint256)\"));\n    bytes4 public DESTROYBLACKLIST_SIG = bytes4(keccak256(\"destroyBlacklistedTokens(address)\"));\n    bytes4 public ADD_BLACKLISTED_SPENDER_SIG = bytes4(keccak256(\"addBlacklistedAddressSpender(address)\"));\n\n    /** \n        Modifiers \n    */\n    /**\n    * @notice Throws if called by any account that does not have access to set attributes\n    */\n    modifier onlyValidator() {\n        require (validators.isValidator(msg.sender));\n        _;\n    }\n\n    /** \n        Events \n    */\n    event SetPermissionStorage(address oldStorage, address newStorage);\n    event SetUserPermissionsStorage(address oldStorage, address newStorage);\n    event SetValidatorStorage(address oldStorage, address newStorage);\n\n    /**\n    * @notice Function used as part of Migratable interface. Must be called when\n    * a proxy is assigned to contract in order to correctly assign the contract's\n    * version number.\n    *\n    * If deploying a new contract version, the version number must be changed as well. \n    */\n    function initialize() isInitializer(\"Regulator\", \"1.0\") public {\n        // Nothing to initialize!\n    }\n\n    /** @notice Migrates data from an old regulator contract to a new one. Precondition: \n    *  the new contract has already been transferred ownership of the old contract.\n    *   @param _oldRegulator The address of the old regulator. \n    */\n    function migrate(address _oldRegulator) isMigration(\"Regulator\", \"1.0\", \"1.1\") public {\n        Regulator oldRegulator = Regulator(_oldRegulator);\n        oldRegulator.claimOwnership(); // Take the proferred ownership of the old contract\n        oldRegulator.transferStorageOwnership();\n        setPS(address(oldRegulator.availablePermissions()));\n        setUPS(address(oldRegulator.userPermissions()));\n        setVS(address(oldRegulator.validators()));\n        claimSO();\n    }\n\n    /**\n    * @notice Sets the internal permission storage to point to a new storage.\n    * @param _newStorage The address of a new PermissionStorage.\n    */\n    function setPermissionStorage(address _newStorage) public onlyOwner {\n        setPS(_newStorage);\n    }\n\n    // Allows the migrate function to set the storage.\n    function setPS(address _newStorage) internal {\n        address _oldStorage = address(availablePermissions);\n        availablePermissions = PermissionStorage(_newStorage);\n        emit SetPermissionStorage(_oldStorage, _newStorage);\n    }\n\n    /**\n    * @notice Sets the internal user permissions storage to point to a new storage.\n    * @param _newStorage The address of a new UserPermissionsStorage.\n    */\n    function setUserPermissionsStorage(address _newStorage) public onlyOwner {\n        setUPS(_newStorage);\n    }\n\n    // Allows the migrate function to set the storage.\n    function setUPS(address _newStorage) internal {\n        address _oldStorage = address(userPermissions);\n        userPermissions = UserPermissionsStorage(_newStorage);\n        emit SetUserPermissionsStorage(_oldStorage, _newStorage);\n    }\n\n    /**\n    * @notice Sets the internal validators storage to point to a new storage.\n    * @param _newStorage The address of a new ValidatorStorage.\n    */\n    function setValidatorStorage(address _newStorage) public onlyOwner {\n        setVS(_newStorage);\n    }\n\n    // Allows the migrate function to set the storage.\n    function setVS(address _newStorage) internal {\n        address _oldStorage = address(validators);\n        validators = ValidatorStorage(_newStorage);\n        emit SetValidatorStorage(_oldStorage, _newStorage);\n    }\n\n    /** @notice Transfers ownership of the storage contracts to the owner  of this token contract. \n    * This is useful for migrations, since the new token contract is made the\n    * owner of the old token contract.\n    **/\n    function transferStorageOwnership() public onlyOwner {\n        userPermissions.transferOwnership(msg.sender);\n        availablePermissions.transferOwnership(msg.sender);\n        validators.transferOwnership(msg.sender);\n    }\n\n    /** @notice Claims ownership of the storage contracts. Succeeds if the\n    * ownership of those contracts was transferred to this contract\n    * (which will happen in the case of a migration).\n    **/\n    function claimStorageOwnership() public onlyOwner {\n        claimSO();\n    }\n\n    function claimSO() internal {\n        userPermissions.claimOwnership();\n        availablePermissions.claimOwnership();\n        validators.claimOwnership();\n    }\n\n    /**\n    * @notice Adds a validator to the regulator entity.\n    * @param _who New validator.\n    */\n    function addValidator(address _who) public onlyOwner {\n        validators.addValidator(_who);\n    }\n\n    /**\n    * @notice Removes a validator from the regulator entity.\n    * @param _who Validator to remove.\n    */\n    function removeValidator(address _who) public onlyOwner {\n        validators.removeValidator(_who);\n    }\n\n    /**\n    * @notice Sets the necessary permissions for a user to mint tokens.\n    * @param _who The address of the account that we are setting permissions for.\n    */\n    function setMinter(address _who) public onlyValidator {\n        require(availablePermissions.isPermission(MINT_SIG), \"Minting not supported by token\");\n        setPermission(_who, MINT_SIG);\n    }\n    \n\n    /**\n    * @notice Removes the necessary permissions for a user to mint tokens.\n    * @param _who The address of the account that we are removing permissions for.\n    */\n    function removeMinter(address _who) public onlyValidator {\n        require(availablePermissions.isPermission(MINT_SIG), \"Minting not supported by token\");\n        removePermission(_who, MINT_SIG);\n    }\n\n    /** Returns whether or not a user is a minter.\n     * @param _who The address of the account in question.\n     * @return `true` if the user is a minter, `false` otherwise.\n     */\n    function isMinter(address _who) public view returns (bool) {\n        return hasPermission(_who, MINT_SIG);\n    }\n\n    /**\n    * @notice Sets the necessary permissions for a user to spend tokens from a blacklisted account.\n    * @param _who The address of the account that we are setting permissions for.\n    */\n    function setBlacklistSpender(address _who) public onlyValidator {\n        require(availablePermissions.isPermission(MINT_SIG), \"Blacklist spending not supported by token\");\n        setPermission(_who, ADD_BLACKLISTED_SPENDER_SIG);\n    }\n    \n\n    /**\n    * @notice Removes the necessary permissions for a user to spend tokens from a blacklisted account.\n    * @param _who The address of the account that we are removing permissions for.\n    */\n    function removeBlacklistSpender(address _who) public onlyValidator {\n        require(availablePermissions.isPermission(MINT_SIG), \"Blacklist spending not supported by token\");\n        removePermission(_who, ADD_BLACKLISTED_SPENDER_SIG);\n    }\n\n    /** Returns whether or not a user is a blacklist spender.\n     * @param _who The address of the account in question.\n     * @return `true` if the user is a blacklist spender, `false` otherwise.\n     */\n    function isBlacklistSpender(address _who) public view returns (bool) {\n        return hasPermission(_who, ADD_BLACKLISTED_SPENDER_SIG);\n    }\n\n    /**\n    * @notice Sets the necessary permissions for a user to destroy tokens from a blacklisted account.\n    * @param _who The address of the account that we are setting permissions for.\n    */\n    function setBlacklistDestroyer(address _who) public onlyValidator {\n        require(availablePermissions.isPermission(DESTROYBLACKLIST_SIG), \"Blacklist token destruction not supported by token\");\n        setPermission(_who, DESTROYBLACKLIST_SIG);\n    }\n    \n\n    /**\n    * @notice Removes the necessary permissions for a user to destroy tokens from a blacklisted account.\n    * @param _who The address of the account that we are removing permissions for.\n    */\n    function removeBlacklistDestroyer(address _who) public onlyValidator {\n        require(availablePermissions.isPermission(DESTROYBLACKLIST_SIG), \"Blacklist token destruction not supported by token\");\n        removePermission(_who, DESTROYBLACKLIST_SIG);\n    }\n\n    /** Returns whether or not a user is a blacklist destroyer.\n     * @param _who The address of the account in question.\n     * @return `true` if the user is a blacklist destroyer, `false` otherwise.\n     */\n    function isBlacklistDestroyer(address _who) public view returns (bool) {\n        return hasPermission(_who, DESTROYBLACKLIST_SIG);\n    }\n\n    /**\n    * @notice Sets the necessary permissions for a \"whitelisted\" user.\n    * @param _who The address of the account that we are setting permissions for.\n    */\n    function setWhitelistedUser(address _who) public onlyValidator {\n        require(availablePermissions.isPermission(BURN_SIG), \"Burn method not supported by token\");\n        require(availablePermissions.isPermission(DESTROYSELF_SIG), \"Self-destruct method not supported by token\");\n        setPermission(_who, BURN_SIG);\n        removePermission(_who, DESTROYSELF_SIG);\n    }\n\n    /**\n    * @notice Sets the necessary permissions for a \"blacklisted\" user. A blacklisted user has their accounts\n    * frozen; they cannot transfer, burn, or withdraw any tokens.\n    * @param _who The address of the account that we are setting permissions for.\n    */\n    function setBlacklistedUser(address _who) public onlyValidator {\n        require(availablePermissions.isPermission(BURN_SIG), \"Burn method not supported by token\");\n        require(availablePermissions.isPermission(DESTROYSELF_SIG), \"Self-destruct method not supported by token\");\n        removePermission(_who, BURN_SIG);\n        setPermission(_who, DESTROYSELF_SIG);\n    }\n\n    /**\n    * @notice Sets the necessary permissions for a \"nonlisted\" user. Nonlisted users can trade tokens,\n    * but cannot burn them (and therefore cannot convert them into fiat.)\n    * @param _who The address of the account that we are setting permissions for.\n    */\n    function setNonlistedUser(address _who) public onlyValidator {\n        require(availablePermissions.isPermission(BURN_SIG), \"Burn method not supported by token\");\n        require(availablePermissions.isPermission(DESTROYSELF_SIG), \"Self-destruct method not supported by token\");\n        removePermission(_who, BURN_SIG);\n        removePermission(_who, DESTROYSELF_SIG);\n    }\n\n    /** Returns whether or not a user is whitelisted.\n     * @param _who The address of the account in question.\n     * @return `true` if the user is whitelisted, `false` otherwise.\n     */\n    function isWhitelistedUser(address _who) public view returns (bool) {\n        return (hasPermission(_who, BURN_SIG) && !hasPermission(_who, DESTROYSELF_SIG));\n    }\n\n    /** Returns whether or not a user is blacklisted.\n     * @param _who The address of the account in question.\n     * @return `true` if the user is blacklisted, `false` otherwise.\n     */\n    function isBlacklistedUser(address _who) public view returns (bool) {\n        return (!hasPermission(_who, BURN_SIG) && hasPermission(_who, DESTROYSELF_SIG));\n    }\n\n    /** Returns whether or not a user is nonlisted.\n     * @param _who The address of the account in question.\n     * @return `true` if the user is nonlisted, `false` otherwise.\n     */\n    function isNonlistedUser(address _who) public view returns (bool) {\n        return (!hasPermission(_who, BURN_SIG) && !hasPermission(_who, DESTROYSELF_SIG));\n    }\n        \n    /**\n    * @notice Sets a permission for an acccount. Only validators can set a permission\n    * @param _who The address of the account that we are setting the value of an attribute for\n    * @param _methodsignature The signature of the method that the user is getting permission to run.\n    */\n    function setPermission(address _who, bytes4 _methodsignature) public onlyValidator {\n        require(availablePermissions.isPermission(_methodsignature));\n        userPermissions.setPermission(_who, _methodsignature);\n    }\n \n    /**\n    * @notice Removes a permission for an acccount. Only validators can remove a permission\n    * @param _who The address of the account that we are setting the value of an attribute for\n    * @param _methodsignature The signature of the method that the user will no longer be able to execute.\n    */\n    function removePermission(address _who, bytes4 _methodsignature) public onlyValidator {\n        require(availablePermissions.isPermission(_methodsignature));\n        userPermissions.removePermission(_who, _methodsignature);\n    }\n\n    /**\n    * @notice Checks whether an account has the permission to execute a function\n    * @param _who The address of the account\n    * @param _methodsignature The signature of the method in question\n    * @return A boolean indicating whether the user has permission or not\n    */\n    function hasPermission(address _who, bytes4 _methodsignature) public view returns (bool) {\n        return userPermissions.hasPermission(_who, _methodsignature);\n    }\n}",
  "sourcePath": "/Users/tanishqaggarwal/Documents/carbon/fiat_gateway/contracts/regulator/Regulator.sol",
  "compiler": {
    "name": "solc",
    "version": "0.4.24+commit.e67f0147.Emscripten.clang"
  },
  "schemaVersion": "2.0.0",
  "updatedAt": "2018-07-17T04:37:53.773Z"
}