{
  "contractName": "Regulator",
  "abi": [
    {
      "constant": true,
      "inputs": [
        {
          "name": "_who",
          "type": "address"
        },
        {
          "name": "_methodsignature",
          "type": "bytes4"
        }
      ],
      "name": "hasUserPermission",
      "outputs": [
        {
          "name": "",
          "type": "bool"
        }
      ],
      "payable": false,
      "stateMutability": "view",
      "type": "function",
      "signature": "0x14db6d58"
    },
    {
      "constant": true,
      "inputs": [
        {
          "name": "_methodsignature",
          "type": "bytes4"
        }
      ],
      "name": "getPermission",
      "outputs": [
        {
          "name": "name",
          "type": "string"
        },
        {
          "name": "description",
          "type": "string"
        },
        {
          "name": "contract_name",
          "type": "string"
        },
        {
          "name": "active",
          "type": "bool"
        }
      ],
      "payable": false,
      "stateMutability": "view",
      "type": "function",
      "signature": "0x1830f493"
    },
    {
      "constant": false,
      "inputs": [
        {
          "name": "_who",
          "type": "address"
        },
        {
          "name": "_methodsignature",
          "type": "bytes4"
        }
      ],
      "name": "setUserPermission",
      "outputs": [],
      "payable": false,
      "stateMutability": "nonpayable",
      "type": "function",
      "signature": "0x1c870eee"
    },
    {
      "constant": true,
      "inputs": [
        {
          "name": "",
          "type": "bytes4"
        }
      ],
      "name": "permissions",
      "outputs": [
        {
          "name": "name",
          "type": "string"
        },
        {
          "name": "description",
          "type": "string"
        },
        {
          "name": "contract_name",
          "type": "string"
        },
        {
          "name": "active",
          "type": "bool"
        }
      ],
      "payable": false,
      "stateMutability": "view",
      "type": "function",
      "signature": "0x395a7b30"
    },
    {
      "constant": false,
      "inputs": [
        {
          "name": "_validator",
          "type": "address"
        }
      ],
      "name": "removeValidator",
      "outputs": [],
      "payable": false,
      "stateMutability": "nonpayable",
      "type": "function",
      "signature": "0x40a141ff"
    },
    {
      "constant": false,
      "inputs": [
        {
          "name": "_validator",
          "type": "address"
        }
      ],
      "name": "addValidator",
      "outputs": [],
      "payable": false,
      "stateMutability": "nonpayable",
      "type": "function",
      "signature": "0x4d238c8e"
    },
    {
      "constant": false,
      "inputs": [],
      "name": "claimOwnership",
      "outputs": [],
      "payable": false,
      "stateMutability": "nonpayable",
      "type": "function",
      "signature": "0x4e71e0c8"
    },
    {
      "constant": false,
      "inputs": [
        {
          "name": "_who",
          "type": "address"
        },
        {
          "name": "_methodsignature",
          "type": "bytes4"
        }
      ],
      "name": "removeUserPermission",
      "outputs": [],
      "payable": false,
      "stateMutability": "nonpayable",
      "type": "function",
      "signature": "0x5317e444"
    },
    {
      "constant": false,
      "inputs": [
        {
          "name": "_methodsignature",
          "type": "bytes4"
        },
        {
          "name": "_permissionName",
          "type": "string"
        },
        {
          "name": "_permissionDescription",
          "type": "string"
        },
        {
          "name": "_contractName",
          "type": "string"
        }
      ],
      "name": "addPermission",
      "outputs": [],
      "payable": false,
      "stateMutability": "nonpayable",
      "type": "function",
      "signature": "0x780bfed0"
    },
    {
      "constant": true,
      "inputs": [
        {
          "name": "",
          "type": "address"
        },
        {
          "name": "",
          "type": "bytes4"
        }
      ],
      "name": "userPermissions",
      "outputs": [
        {
          "name": "",
          "type": "bool"
        }
      ],
      "payable": false,
      "stateMutability": "view",
      "type": "function",
      "signature": "0x8707e2f4"
    },
    {
      "constant": true,
      "inputs": [],
      "name": "MINT_SIG",
      "outputs": [
        {
          "name": "",
          "type": "bytes4"
        }
      ],
      "payable": false,
      "stateMutability": "view",
      "type": "function",
      "signature": "0x88f14b0e"
    },
    {
      "constant": true,
      "inputs": [],
      "name": "MINT_CUSD_SIG",
      "outputs": [
        {
          "name": "",
          "type": "bytes4"
        }
      ],
      "payable": false,
      "stateMutability": "view",
      "type": "function",
      "signature": "0x8b7c8109"
    },
    {
      "constant": true,
      "inputs": [],
      "name": "owner",
      "outputs": [
        {
          "name": "",
          "type": "address"
        }
      ],
      "payable": false,
      "stateMutability": "view",
      "type": "function",
      "signature": "0x8da5cb5b"
    },
    {
      "constant": true,
      "inputs": [],
      "name": "APPROVE_BLACKLISTED_ADDRESS_SPENDER_SIG",
      "outputs": [
        {
          "name": "",
          "type": "bytes4"
        }
      ],
      "payable": false,
      "stateMutability": "view",
      "type": "function",
      "signature": "0x8f959f54"
    },
    {
      "constant": true,
      "inputs": [
        {
          "name": "_methodsignature",
          "type": "bytes4"
        }
      ],
      "name": "isPermission",
      "outputs": [
        {
          "name": "",
          "type": "bool"
        }
      ],
      "payable": false,
      "stateMutability": "view",
      "type": "function",
      "signature": "0x933aa667"
    },
    {
      "constant": true,
      "inputs": [],
      "name": "BLACKLISTED_SIG",
      "outputs": [
        {
          "name": "",
          "type": "bytes4"
        }
      ],
      "payable": false,
      "stateMutability": "view",
      "type": "function",
      "signature": "0x9491951b"
    },
    {
      "constant": true,
      "inputs": [],
      "name": "DESTROY_BLACKLISTED_TOKENS_SIG",
      "outputs": [
        {
          "name": "",
          "type": "bytes4"
        }
      ],
      "payable": false,
      "stateMutability": "view",
      "type": "function",
      "signature": "0xab96cb46"
    },
    {
      "constant": false,
      "inputs": [
        {
          "name": "_methodsignature",
          "type": "bytes4"
        }
      ],
      "name": "removePermission",
      "outputs": [],
      "payable": false,
      "stateMutability": "nonpayable",
      "type": "function",
      "signature": "0xb8ccbd17"
    },
    {
      "constant": true,
      "inputs": [],
      "name": "pendingOwner",
      "outputs": [
        {
          "name": "",
          "type": "address"
        }
      ],
      "payable": false,
      "stateMutability": "view",
      "type": "function",
      "signature": "0xe30c3978"
    },
    {
      "constant": false,
      "inputs": [
        {
          "name": "_newOwner",
          "type": "address"
        }
      ],
      "name": "transferOwnership",
      "outputs": [],
      "payable": false,
      "stateMutability": "nonpayable",
      "type": "function",
      "signature": "0xf2fde38b"
    },
    {
      "constant": true,
      "inputs": [
        {
          "name": "",
          "type": "address"
        }
      ],
      "name": "validators",
      "outputs": [
        {
          "name": "",
          "type": "bool"
        }
      ],
      "payable": false,
      "stateMutability": "view",
      "type": "function",
      "signature": "0xfa52c7d8"
    },
    {
      "constant": true,
      "inputs": [
        {
          "name": "_validator",
          "type": "address"
        }
      ],
      "name": "isValidator",
      "outputs": [
        {
          "name": "",
          "type": "bool"
        }
      ],
      "payable": false,
      "stateMutability": "view",
      "type": "function",
      "signature": "0xfacd743b"
    },
    {
      "anonymous": false,
      "inputs": [
        {
          "indexed": true,
          "name": "who",
          "type": "address"
        }
      ],
      "name": "LogBlacklistedUser",
      "type": "event",
      "signature": "0xe188e80e8d523dc5ac6bbae932c30011688c5a4269bd1d97fb3493e570564599"
    },
    {
      "anonymous": false,
      "inputs": [
        {
          "indexed": true,
          "name": "who",
          "type": "address"
        }
      ],
      "name": "LogRemovedBlacklistedUser",
      "type": "event",
      "signature": "0x6fa07dba4ccda25355cee4499be9d133a72b913636c460857f413e1b39a09fc3"
    },
    {
      "anonymous": false,
      "inputs": [
        {
          "indexed": true,
          "name": "who",
          "type": "address"
        }
      ],
      "name": "LogSetMinter",
      "type": "event",
      "signature": "0x5e0c8c15134773cb6fe4d2cc6f9e5683049cc6277f742e2a7e0e89a2d3d1e408"
    },
    {
      "anonymous": false,
      "inputs": [
        {
          "indexed": true,
          "name": "who",
          "type": "address"
        }
      ],
      "name": "LogRemovedMinter",
      "type": "event",
      "signature": "0xcfee518972af5b17e262a5c3d62175cf1150cdad0423ac7d4e7f4ae1c0934df0"
    },
    {
      "anonymous": false,
      "inputs": [
        {
          "indexed": true,
          "name": "who",
          "type": "address"
        }
      ],
      "name": "LogSetBlacklistDestroyer",
      "type": "event",
      "signature": "0xc8cc73c74b92642427979fdf8cbcd3f3a1e5a071058f68d87d200483e90278b5"
    },
    {
      "anonymous": false,
      "inputs": [
        {
          "indexed": true,
          "name": "who",
          "type": "address"
        }
      ],
      "name": "LogRemovedBlacklistDestroyer",
      "type": "event",
      "signature": "0xcc060ec5d05ac54bd2af5095f9a42db1cc630ebbfb1146724d624b4ce89a5e84"
    },
    {
      "anonymous": false,
      "inputs": [
        {
          "indexed": true,
          "name": "who",
          "type": "address"
        }
      ],
      "name": "LogSetBlacklistSpender",
      "type": "event",
      "signature": "0xeb9ec59379e252bf8accf2ecf164d50f79b20d66ba85abae9cc795ad1ba5e5a8"
    },
    {
      "anonymous": false,
      "inputs": [
        {
          "indexed": true,
          "name": "who",
          "type": "address"
        }
      ],
      "name": "LogRemovedBlacklistSpender",
      "type": "event",
      "signature": "0xb5ead9fec464a658dd452c45cc1f51bd31f3a2d4bc054f90ae1fa8051794b0f5"
    },
    {
      "anonymous": false,
      "inputs": [
        {
          "indexed": false,
          "name": "methodsignature",
          "type": "bytes4"
        }
      ],
      "name": "PermissionAdded",
      "type": "event",
      "signature": "0x6195913f4ea9fc2f5193c9f6763975b23790b3be094b1eb18f31843739005512"
    },
    {
      "anonymous": false,
      "inputs": [
        {
          "indexed": false,
          "name": "methodsignature",
          "type": "bytes4"
        }
      ],
      "name": "PermissionRemoved",
      "type": "event",
      "signature": "0x65cd5526557cbd93f0739d00ffcdf8f4a663eb2ed509203d884b3470158724c1"
    },
    {
      "anonymous": false,
      "inputs": [
        {
          "indexed": true,
          "name": "validator",
          "type": "address"
        }
      ],
      "name": "ValidatorAdded",
      "type": "event",
      "signature": "0xe366c1c0452ed8eec96861e9e54141ebff23c9ec89fe27b996b45f5ec3884987"
    },
    {
      "anonymous": false,
      "inputs": [
        {
          "indexed": true,
          "name": "validator",
          "type": "address"
        }
      ],
      "name": "ValidatorRemoved",
      "type": "event",
      "signature": "0xe1434e25d6611e0db941968fdc97811c982ac1602e951637d206f5fdda9dd8f1"
    },
    {
      "anonymous": false,
      "inputs": [
        {
          "indexed": true,
          "name": "previousOwner",
          "type": "address"
        },
        {
          "indexed": true,
          "name": "newOwner",
          "type": "address"
        }
      ],
      "name": "OwnershipTransferred",
      "type": "event",
      "signature": "0x8be0079c531659141344cd1fd0a4f28419497f9722a3daafe3b4186f6b6457e0"
    },
    {
      "constant": false,
      "inputs": [
        {
          "name": "_who",
          "type": "address"
        }
      ],
      "name": "setMinter",
      "outputs": [],
      "payable": false,
      "stateMutability": "nonpayable",
      "type": "function",
      "signature": "0xfca3b5aa"
    },
    {
      "constant": false,
      "inputs": [
        {
          "name": "_who",
          "type": "address"
        }
      ],
      "name": "removeMinter",
      "outputs": [],
      "payable": false,
      "stateMutability": "nonpayable",
      "type": "function",
      "signature": "0x3092afd5"
    },
    {
      "constant": false,
      "inputs": [
        {
          "name": "_who",
          "type": "address"
        }
      ],
      "name": "setBlacklistSpender",
      "outputs": [],
      "payable": false,
      "stateMutability": "nonpayable",
      "type": "function",
      "signature": "0xc1331bc3"
    },
    {
      "constant": false,
      "inputs": [
        {
          "name": "_who",
          "type": "address"
        }
      ],
      "name": "removeBlacklistSpender",
      "outputs": [],
      "payable": false,
      "stateMutability": "nonpayable",
      "type": "function",
      "signature": "0x029043a4"
    },
    {
      "constant": false,
      "inputs": [
        {
          "name": "_who",
          "type": "address"
        }
      ],
      "name": "setBlacklistDestroyer",
      "outputs": [],
      "payable": false,
      "stateMutability": "nonpayable",
      "type": "function",
      "signature": "0x231a439e"
    },
    {
      "constant": false,
      "inputs": [
        {
          "name": "_who",
          "type": "address"
        }
      ],
      "name": "removeBlacklistDestroyer",
      "outputs": [],
      "payable": false,
      "stateMutability": "nonpayable",
      "type": "function",
      "signature": "0x556b6384"
    },
    {
      "constant": false,
      "inputs": [
        {
          "name": "_who",
          "type": "address"
        }
      ],
      "name": "setBlacklistedUser",
      "outputs": [],
      "payable": false,
      "stateMutability": "nonpayable",
      "type": "function",
      "signature": "0xc56bea64"
    },
    {
      "constant": false,
      "inputs": [
        {
          "name": "_who",
          "type": "address"
        }
      ],
      "name": "removeBlacklistedUser",
      "outputs": [],
      "payable": false,
      "stateMutability": "nonpayable",
      "type": "function",
      "signature": "0x34334e9e"
    },
    {
      "constant": true,
      "inputs": [
        {
          "name": "_who",
          "type": "address"
        }
      ],
      "name": "isBlacklistedUser",
      "outputs": [
        {
          "name": "",
          "type": "bool"
        }
      ],
      "payable": false,
      "stateMutability": "view",
      "type": "function",
      "signature": "0x7ccce851"
    },
    {
      "constant": true,
      "inputs": [
        {
          "name": "_who",
          "type": "address"
        }
      ],
      "name": "isBlacklistSpender",
      "outputs": [
        {
          "name": "",
          "type": "bool"
        }
      ],
      "payable": false,
      "stateMutability": "view",
      "type": "function",
      "signature": "0x91c4529f"
    },
    {
      "constant": true,
      "inputs": [
        {
          "name": "_who",
          "type": "address"
        }
      ],
      "name": "isBlacklistDestroyer",
      "outputs": [
        {
          "name": "",
          "type": "bool"
        }
      ],
      "payable": false,
      "stateMutability": "view",
      "type": "function",
      "signature": "0xf530259e"
    },
    {
      "constant": true,
      "inputs": [
        {
          "name": "_who",
          "type": "address"
        }
      ],
      "name": "isMinter",
      "outputs": [
        {
          "name": "",
          "type": "bool"
        }
      ],
      "payable": false,
      "stateMutability": "view",
      "type": "function",
      "signature": "0xaa271e1a"
    }
  ],
  "bytecode": "0x608060405260008054600160a060020a03199081163317909155600180549091169055612342806100316000396000f3006080604052600436106101ab5763ffffffff7c0100000000000000000000000000000000000000000000000000000000600035041663029043a481146101b057806314db6d58146101d35780631830f493146102155780631c870eee14610383578063231a439e146103b15780633092afd5146103d257806334334e9e146103f3578063395a7b301461041457806340a141ff146104365780634d238c8e146104575780634e71e0c8146104785780635317e4441461048d578063556b6384146104bb578063780bfed0146104dc5780637ccce851146105c05780638707e2f4146105e157806388f14b0e1461060f5780638b7c8109146106415780638da5cb5b146106565780638f959f541461068757806391c4529f1461069c578063933aa667146106bd5780639491951b146106df578063aa271e1a146106f4578063ab96cb4614610715578063b8ccbd171461072a578063c1331bc31461074c578063c56bea641461076d578063e30c39781461078e578063f2fde38b146107a3578063f530259e146107c4578063fa52c7d8146107e5578063facd743b14610806578063fca3b5aa14610827575b600080fd5b3480156101bc57600080fd5b506101d1600160a060020a0360043516610848565b005b3480156101df57600080fd5b50610201600160a060020a0360043516600160e060020a0319602435166109c4565b604080519115158252519081900360200190f35b34801561022157600080fd5b50610237600160e060020a0319600435166109fb565b604080518215156060820152608080825286519082015285519091829160208084019284019160a08501918a019080838360005b8381101561028357818101518382015260200161026b565b50505050905090810190601f1680156102b05780820380516001836020036101000a031916815260200191505b50848103835287518152875160209182019189019080838360005b838110156102e35781810151838201526020016102cb565b50505050905090810190601f1680156103105780820380516001836020036101000a031916815260200191505b50848103825286518152865160209182019188019080838360005b8381101561034357818101518382015260200161032b565b50505050905090810190601f1680156103705780820380516001836020036101000a031916815260200191505b5097505050505050505060405180910390f35b34801561038f57600080fd5b506101d1600160a060020a0360043516600160e060020a031960243516610be8565b3480156103bd57600080fd5b506101d1600160a060020a0360043516610d0c565b3480156103de57600080fd5b506101d1600160a060020a0360043516610e88565b3480156103ff57600080fd5b506101d1600160a060020a0360043516610ee1565b34801561042057600080fd5b50610237600160e060020a031960043516610f37565b34801561044257600080fd5b506101d1600160a060020a036004351661110b565b34801561046357600080fd5b506101d1600160a060020a036004351661116b565b34801561048457600080fd5b506101d16111ce565b34801561049957600080fd5b506101d1600160a060020a0360043516600160e060020a031960243516611256565b3480156104c757600080fd5b506101d1600160a060020a0360043516611377565b3480156104e857600080fd5b5060408051602060046024803582810135601f81018590048502860185019096528585526101d1958335600160e060020a03191695369560449491939091019190819084018382808284375050604080516020601f89358b018035918201839004830284018301909452808352979a99988101979196509182019450925082915084018382808284375050604080516020601f89358b018035918201839004830284018301909452808352979a9998810197919650918201945092508291508401838280828437509497506114f39650505050505050565b3480156105cc57600080fd5b50610201600160a060020a036004351661162e565b3480156105ed57600080fd5b50610201600160a060020a0360043516600160e060020a031960243516611663565b34801561061b57600080fd5b50610624611683565b60408051600160e060020a03199092168252519081900360200190f35b34801561064d57600080fd5b506106246116a6565b34801561066257600080fd5b5061066b6116c9565b60408051600160a060020a039092168252519081900360200190f35b34801561069357600080fd5b506106246116d8565b3480156106a857600080fd5b50610201600160a060020a036004351661170f565b3480156106c957600080fd5b50610201600160e060020a031960043516611752565b3480156106eb57600080fd5b50610624611774565b34801561070057600080fd5b50610201600160a060020a0360043516611797565b34801561072157600080fd5b506106246117f8565b34801561073657600080fd5b506101d1600160e060020a03196004351661182f565b34801561075857600080fd5b506101d1600160a060020a03600435166118d8565b34801561077957600080fd5b506101d1600160a060020a0360043516611a54565b34801561079a57600080fd5b5061066b611aaa565b3480156107af57600080fd5b506101d1600160a060020a0360043516611ab9565b3480156107d057600080fd5b50610201600160a060020a0360043516611b14565b3480156107f157600080fd5b50610201600160a060020a0360043516611b57565b34801561081257600080fd5b50610201600160a060020a0360043516611b6c565b34801561083357600080fd5b506101d1600160a060020a0360043516611b8a565b61085133611b6c565b1515610895576040805160e560020a62461bcd02815260206004820152601860248201526000805160206122b7833981519152604482015290519081900360640190fd5b604080516000805160206122378339815191528152600080516020612297833981519152602082015290519081900360290190206108d290611752565b151561094e576040805160e560020a62461bcd02815260206004820152602960248201527f426c61636b6c697374207370656e64696e67206e6f7420737570706f7274656460448201527f20627920746f6b656e0000000000000000000000000000000000000000000000606482015290519081900360840190fd5b6040805160008051602061223783398151915281526000805160206122978339815191526020820152905190819003602901902061098d908290611256565b604051600160a060020a038216907fb5ead9fec464a658dd452c45cc1f51bd31f3a2d4bc054f90ae1fa8051794b0f590600090a250565b600160a060020a0382166000908152600460209081526040808320600160e060020a03198516845290915290205460ff1692915050565b600160e060020a0319811660009081526002602081815260408084206003810154815483516101006001808416159190910260001901909216879004601f8101879004870282018701909552848152606097889788979196938601949086019360ff9091169291869190830182828015610ab65780601f10610a8b57610100808354040283529160200191610ab6565b820191906000526020600020905b815481529060010190602001808311610a9957829003601f168201915b5050865460408051602060026001851615610100026000190190941693909304601f810184900484028201840190925281815295995088945092508401905082828015610b445780601f10610b1957610100808354040283529160200191610b44565b820191906000526020600020905b815481529060010190602001808311610b2757829003601f168201915b5050855460408051602060026001851615610100026000190190941693909304601f810184900484028201840190925281815295985087945092508401905082828015610bd25780601f10610ba757610100808354040283529160200191610bd2565b820191906000526020600020905b815481529060010190602001808311610bb557829003601f168201915b5050505050915093509350935093509193509193565b610bf133611b6c565b1515610c35576040805160e560020a62461bcd02815260206004820152601860248201526000805160206122b7833981519152604482015290519081900360640190fd5b600160e060020a0319811660009081526002602052604090206003015460ff161515610cd1576040805160e560020a62461bcd02815260206004820152603960248201527f5065726d697373696f6e206265696e6720736574206d75737420626520666f7260448201527f20612076616c6964206d6574686f64207369676e617475726500000000000000606482015290519081900360840190fd5b600160a060020a039091166000908152600460209081526040808320600160e060020a0319909416835292905220805460ff19166001179055565b610d1533611b6c565b1515610d59576040805160e560020a62461bcd02815260206004820152601860248201526000805160206122b7833981519152604482015290519081900360640190fd5b60408051600080516020612277833981519152815260008051602061225783398151915260208201529051908190036029019020610d9690611752565b1515610e12576040805160e560020a62461bcd02815260206004820152603260248201527f426c61636b6c69737420746f6b656e206465737472756374696f6e206e6f742060448201527f737570706f7274656420627920746f6b656e0000000000000000000000000000606482015290519081900360840190fd5b60408051600080516020612277833981519152815260008051602061225783398151915260208201529051908190036029019020610e51908290610be8565b604051600160a060020a038216907fc8cc73c74b92642427979fdf8cbcd3f3a1e5a071058f68d87d200483e90278b590600090a250565b610e9133611b6c565b1515610ed5576040805160e560020a62461bcd02815260206004820152601860248201526000805160206122b7833981519152604482015290519081900360640190fd5b610ede81611be0565b50565b610eea33611b6c565b1515610f2e576040805160e560020a62461bcd02815260206004820152601860248201526000805160206122b7833981519152604482015290519081900360640190fd5b610ede81611d91565b600260208181526000928352604092839020805484516001821615610100026000190190911693909304601f8101839004830284018301909452838352928391830182828015610fc85780601f10610f9d57610100808354040283529160200191610fc8565b820191906000526020600020905b815481529060010190602001808311610fab57829003601f168201915b505050505090806001018054600181600116156101000203166002900480601f0160208091040260200160405190810160405280929190818152602001828054600181600116156101000203166002900480156110665780601f1061103b57610100808354040283529160200191611066565b820191906000526020600020905b81548152906001019060200180831161104957829003601f168201915b50505060028085018054604080516020601f60001961010060018716150201909416959095049283018590048502810185019091528181529596959450909250908301828280156110f85780601f106110cd576101008083540402835291602001916110f8565b820191906000526020600020905b8154815290600101906020018083116110db57829003601f168201915b5050506003909301549192505060ff1684565b600054600160a060020a0316331461112257600080fd5b600160a060020a038116600081815260036020526040808220805460ff19169055517fe1434e25d6611e0db941968fdc97811c982ac1602e951637d206f5fdda9dd8f19190a250565b600054600160a060020a0316331461118257600080fd5b600160a060020a038116600081815260036020526040808220805460ff19166001179055517fe366c1c0452ed8eec96861e9e54141ebff23c9ec89fe27b996b45f5ec38849879190a250565b600154600160a060020a031633146111e557600080fd5b60015460008054604051600160a060020a0393841693909116917f8be0079c531659141344cd1fd0a4f28419497f9722a3daafe3b4186f6b6457e091a3600180546000805473ffffffffffffffffffffffffffffffffffffffff19908116600160a060020a03841617909155169055565b61125f33611b6c565b15156112a3576040805160e560020a62461bcd02815260206004820152601860248201526000805160206122b7833981519152604482015290519081900360640190fd5b600160e060020a0319811660009081526002602052604090206003015460ff16151561133f576040805160e560020a62461bcd02815260206004820152603d60248201527f5065726d697373696f6e206265696e672072656d6f766564206d75737420626560448201527f20666f7220612076616c6964206d6574686f64207369676e6174757265000000606482015290519081900360840190fd5b600160a060020a039091166000908152600460209081526040808320600160e060020a0319909416835292905220805460ff19169055565b61138033611b6c565b15156113c4576040805160e560020a62461bcd02815260206004820152601860248201526000805160206122b7833981519152604482015290519081900360640190fd5b6040805160008051602061227783398151915281526000805160206122578339815191526020820152905190819003602901902061140190611752565b151561147d576040805160e560020a62461bcd02815260206004820152603260248201527f426c61636b6c69737420746f6b656e206465737472756374696f6e206e6f742060448201527f737570706f7274656420627920746f6b656e0000000000000000000000000000606482015290519081900360840190fd5b604080516000805160206122778339815191528152600080516020612257833981519152602082015290519081900360290190206114bc908290611256565b604051600160a060020a038216907fcc060ec5d05ac54bd2af5095f9a42db1cc630ebbfb1146724d624b4ce89a5e8490600090a250565b6114fb612150565b61150433611b6c565b1515611548576040805160e560020a62461bcd02815260206004820152601860248201526000805160206122b7833981519152604482015290519081900360640190fd5b5060408051608081018252848152602080820185905281830184905260016060830152600160e060020a03198716600090815260028252929092208151805192938493611598928492019061217b565b5060208281015180516115b1926001850192019061217b565b50604082015180516115cd91600284019160209091019061217b565b50606091909101516003909101805460ff191691151591909117905560408051600160e060020a03198716815290517f6195913f4ea9fc2f5193c9f6763975b23790b3be094b1eb18f31843739005512916020908290030190a15050505050565b600061165d8260405180806000805160206122f7833981519152815250600d01905060405180910390206109c4565b92915050565b600460209081526000928352604080842090915290825290205460ff1681565b604080516000805160206122d78339815191528152905190819003601501902081565b604080516000805160206122178339815191528152905190819003601901902081565b600054600160a060020a031681565b6040805160008051602061223783398151915281526000805160206122978339815191526020820152905190819003602901902081565b600061165d8260405180806000805160206122378339815191528152602001600080516020612297833981519152815250602901905060405180910390206109c4565b600160e060020a03191660009081526002602052604090206003015460ff1690565b604080516000805160206122f78339815191528152905190819003600d01902081565b60006117c68260405180806000805160206122d7833981519152815250601501905060405180910390206109c4565b801561165d5750604080516000805160206122178339815191528152905190819003601901902061165d9083906109c4565b6040805160008051602061227783398151915281526000805160206122578339815191526020820152905190819003602901902081565b61183833611b6c565b151561187c576040805160e560020a62461bcd02815260206004820152601860248201526000805160206122b7833981519152604482015290519081900360640190fd5b600160e060020a03198116600081815260026020908152604091829020600301805460ff19169055815192835290517f65cd5526557cbd93f0739d00ffcdf8f4a663eb2ed509203d884b3470158724c19281900390910190a150565b6118e133611b6c565b1515611925576040805160e560020a62461bcd02815260206004820152601860248201526000805160206122b7833981519152604482015290519081900360640190fd5b6040805160008051602061223783398151915281526000805160206122978339815191526020820152905190819003602901902061196290611752565b15156119de576040805160e560020a62461bcd02815260206004820152602960248201527f426c61636b6c697374207370656e64696e67206e6f7420737570706f7274656460448201527f20627920746f6b656e0000000000000000000000000000000000000000000000606482015290519081900360840190fd5b60408051600080516020612237833981519152815260008051602061229783398151915260208201529051908190036029019020611a1d908290610be8565b604051600160a060020a038216907feb9ec59379e252bf8accf2ecf164d50f79b20d66ba85abae9cc795ad1ba5e5a890600090a250565b611a5d33611b6c565b1515611aa1576040805160e560020a62461bcd02815260206004820152601860248201526000805160206122b7833981519152604482015290519081900360640190fd5b610ede81611e98565b600154600160a060020a031681565b600054600160a060020a03163314611ad057600080fd5b600160a060020a0381161515611ae557600080fd5b6001805473ffffffffffffffffffffffffffffffffffffffff1916600160a060020a0392909216919091179055565b600061165d8260405180806000805160206122778339815191528152602001600080516020612257833981519152815250602901905060405180910390206109c4565b60036020526000908152604090205460ff1681565b600160a060020a031660009081526003602052604090205460ff1690565b611b9333611b6c565b1515611bd7576040805160e560020a62461bcd02815260206004820152601860248201526000805160206122b7833981519152604482015290519081900360640190fd5b610ede81611f9f565b604080516000805160206122d783398151915281529051908190036015019020611c0990611752565b1515611c5f576040805160e560020a62461bcd02815260206004820152601e60248201527f4d696e74696e67206e6f7420737570706f7274656420627920746f6b656e0000604482015290519081900360640190fd5b6040805160008051602061221783398151915281529051908190036019019020611c8890611752565b1515611d04576040805160e560020a62461bcd02815260206004820152602660248201527f4d696e74696e6720746f2043555344206e6f7420737570706f7274656420627960448201527f20746f6b656e0000000000000000000000000000000000000000000000000000606482015290519081900360840190fd5b6040805160008051602061221783398151915281529051908190036019019020611d2f908290611256565b604080516000805160206122d783398151915281529051908190036015019020611d5a908290611256565b604051600160a060020a038216907fcfee518972af5b17e262a5c3d62175cf1150cdad0423ac7d4e7f4ae1c0934df090600090a250565b604080516000805160206122f78339815191528152905190819003600d019020611dba90611752565b1515611e36576040805160e560020a62461bcd02815260206004820152602b60248201527f53656c662d6465737472756374206d6574686f64206e6f7420737570706f727460448201527f656420627920746f6b656e000000000000000000000000000000000000000000606482015290519081900360840190fd5b604080516000805160206122f78339815191528152905190819003600d019020611e61908290611256565b604051600160a060020a038216907f6fa07dba4ccda25355cee4499be9d133a72b913636c460857f413e1b39a09fc390600090a250565b604080516000805160206122f78339815191528152905190819003600d019020611ec190611752565b1515611f3d576040805160e560020a62461bcd02815260206004820152602b60248201527f53656c662d6465737472756374206d6574686f64206e6f7420737570706f727460448201527f656420627920746f6b656e000000000000000000000000000000000000000000606482015290519081900360840190fd5b604080516000805160206122f78339815191528152905190819003600d019020611f68908290610be8565b604051600160a060020a038216907fe188e80e8d523dc5ac6bbae932c30011688c5a4269bd1d97fb3493e57056459990600090a250565b604080516000805160206122d783398151915281529051908190036015019020611fc890611752565b151561201e576040805160e560020a62461bcd02815260206004820152601e60248201527f4d696e74696e67206e6f7420737570706f7274656420627920746f6b656e0000604482015290519081900360640190fd5b604080516000805160206122178339815191528152905190819003601901902061204790611752565b15156120c3576040805160e560020a62461bcd02815260206004820152602660248201527f4d696e74696e6720746f2043555344206e6f7420737570706f7274656420627960448201527f20746f6b656e0000000000000000000000000000000000000000000000000000606482015290519081900360840190fd5b604080516000805160206122d7833981519152815290519081900360150190206120ee908290610be8565b6040805160008051602061221783398151915281529051908190036019019020612119908290610be8565b604051600160a060020a038216907f5e0c8c15134773cb6fe4d2cc6f9e5683049cc6277f742e2a7e0e89a2d3d1e40890600090a250565b6080604051908101604052806060815260200160608152602001606081526020016000151581525090565b828054600181600116156101000203166002900490600052602060002090601f016020900481019282601f106121bc57805160ff19168380011785556121e9565b828001600101855582156121e9579182015b828111156121e95782518255916020019190600101906121ce565b506121f59291506121f9565b5090565b61221391905b808211156121f557600081556001016121ff565b9056006d696e744355534428616464726573732c75696e743235362900000000000000617070726f7665426c61636b6c6973746564416464726573735370656e6465722c75696e7432353629000000000000000000000000000000000000000000000064657374726f79426c61636b6c6973746564546f6b656e732861646472657373286164647265737329000000000000000000000000000000000000000000000053656e646572206d7573742062652076616c696461746f7200000000000000006d696e7428616464726573732c75696e74323536290000000000000000000000626c61636b6c6973746564282900000000000000000000000000000000000000a165627a7a723058200eadde3a53289cba99409e6e2083dcc36bf5122f7dca7b3c449d98b8b24491900029",
  "source": "pragma solidity ^0.4.24;\n\nimport \"./dataStorage/RegulatorStorage.sol\";\n\n/**\n * @title Regulator\n * @dev Regulator can be configured to meet relevant securities regulations, KYC policies\n * AML requirements, tax laws, and more. The Regulator ensures that the PermissionedToken\n * makes compliant transfers possible. Contains the userPermissions necessary\n * for regulatory compliance.\n *\n */\ncontract Regulator is RegulatorStorage {\n    \n    /** \n        Modifiers \n    */\n    /**\n    * @notice Throws if called by any account that does not have access to set attributes\n    */\n    modifier onlyValidator() {\n        require (isValidator(msg.sender), \"Sender must be validator\");\n        _;\n    }\n\n    /** \n        Events \n    */\n    event LogBlacklistedUser(address indexed who);\n    event LogRemovedBlacklistedUser(address indexed who);\n    event LogSetMinter(address indexed who);\n    event LogRemovedMinter(address indexed who);\n    event LogSetBlacklistDestroyer(address indexed who);\n    event LogRemovedBlacklistDestroyer(address indexed who);\n    event LogSetBlacklistSpender(address indexed who);\n    event LogRemovedBlacklistSpender(address indexed who);\n\n    /**\n    * @notice Sets the necessary permissions for a user to mint tokens.\n    * @param _who The address of the account that we are setting permissions for.\n    */\n    function setMinter(address _who) public onlyValidator {\n        _setMinter(_who);\n    }\n\n    /**\n    * @notice Removes the necessary permissions for a user to mint tokens.\n    * @param _who The address of the account that we are removing permissions for.\n    */\n    function removeMinter(address _who) public onlyValidator {\n        _removeMinter(_who);\n    }\n\n    /**\n    * @notice Sets the necessary permissions for a user to spend tokens from a blacklisted account.\n    * @param _who The address of the account that we are setting permissions for.\n    */\n    function setBlacklistSpender(address _who) public onlyValidator {\n        require(isPermission(APPROVE_BLACKLISTED_ADDRESS_SPENDER_SIG), \"Blacklist spending not supported by token\");\n        setUserPermission(_who, APPROVE_BLACKLISTED_ADDRESS_SPENDER_SIG);\n        emit LogSetBlacklistSpender(_who);\n    }\n    \n    /**\n    * @notice Removes the necessary permissions for a user to spend tokens from a blacklisted account.\n    * @param _who The address of the account that we are removing permissions for.\n    */\n    function removeBlacklistSpender(address _who) public onlyValidator {\n        require(isPermission(APPROVE_BLACKLISTED_ADDRESS_SPENDER_SIG), \"Blacklist spending not supported by token\");\n        removeUserPermission(_who, APPROVE_BLACKLISTED_ADDRESS_SPENDER_SIG);\n        emit LogRemovedBlacklistSpender(_who);\n    }\n\n    /**\n    * @notice Sets the necessary permissions for a user to destroy tokens from a blacklisted account.\n    * @param _who The address of the account that we are setting permissions for.\n    */\n    function setBlacklistDestroyer(address _who) public onlyValidator {\n        require(isPermission(DESTROY_BLACKLISTED_TOKENS_SIG), \"Blacklist token destruction not supported by token\");\n        setUserPermission(_who, DESTROY_BLACKLISTED_TOKENS_SIG);\n        emit LogSetBlacklistDestroyer(_who);\n    }\n    \n\n    /**\n    * @notice Removes the necessary permissions for a user to destroy tokens from a blacklisted account.\n    * @param _who The address of the account that we are removing permissions for.\n    */\n    function removeBlacklistDestroyer(address _who) public onlyValidator {\n        require(isPermission(DESTROY_BLACKLISTED_TOKENS_SIG), \"Blacklist token destruction not supported by token\");\n        removeUserPermission(_who, DESTROY_BLACKLISTED_TOKENS_SIG);\n        emit LogRemovedBlacklistDestroyer(_who);\n    }\n\n    /**\n    * @notice Sets the necessary permissions for a \"blacklisted\" user. A blacklisted user has their accounts\n    * frozen; they cannot transfer, burn, or withdraw any tokens.\n    * @param _who The address of the account that we are setting permissions for.\n    */\n    function setBlacklistedUser(address _who) public onlyValidator {\n        _setBlacklistedUser(_who);\n    }\n\n    /**\n    * @notice Removes the necessary permissions for a \"blacklisted\" user. A blacklisted user has their accounts\n    * frozen; they cannot transfer, burn, or withdraw any tokens.\n    * @param _who The address of the account that we are changing permissions for.\n    */\n    function removeBlacklistedUser(address _who) public onlyValidator {\n        _removeBlacklistedUser(_who);\n    }\n\n    /** Returns whether or not a user is blacklisted.\n     * @param _who The address of the account in question.\n     * @return `true` if the user is blacklisted, `false` otherwise.\n     */\n    function isBlacklistedUser(address _who) public view returns (bool) {\n        return (hasUserPermission(_who, BLACKLISTED_SIG));\n    }\n\n\n    /** Returns whether or not a user is a blacklist spender.\n     * @param _who The address of the account in question.\n     * @return `true` if the user is a blacklist spender, `false` otherwise.\n     */\n    function isBlacklistSpender(address _who) public view returns (bool) {\n        return hasUserPermission(_who, APPROVE_BLACKLISTED_ADDRESS_SPENDER_SIG);\n    }\n\n    /** Returns whether or not a user is a blacklist destroyer.\n     * @param _who The address of the account in question.\n     * @return `true` if the user is a blacklist destroyer, `false` otherwise.\n     */\n    function isBlacklistDestroyer(address _who) public view returns (bool) {\n        return hasUserPermission(_who, DESTROY_BLACKLISTED_TOKENS_SIG);\n    }\n\n    /** Returns whether or not a user is a minter.\n     * @param _who The address of the account in question.\n     * @return `true` if the user is a minter, `false` otherwise.\n     */\n    function isMinter(address _who) public view returns (bool) {\n        return (hasUserPermission(_who, MINT_SIG) && hasUserPermission(_who, MINT_CUSD_SIG));\n    }\n\n    /** Internal Functions **/\n\n    function _setMinter(address _who) internal {\n        require(isPermission(MINT_SIG), \"Minting not supported by token\");\n        require(isPermission(MINT_CUSD_SIG), \"Minting to CUSD not supported by token\");\n        setUserPermission(_who, MINT_SIG);\n        setUserPermission(_who, MINT_CUSD_SIG);\n        emit LogSetMinter(_who);\n    }\n\n    function _removeMinter(address _who) internal {\n        require(isPermission(MINT_SIG), \"Minting not supported by token\");\n        require(isPermission(MINT_CUSD_SIG), \"Minting to CUSD not supported by token\");\n        removeUserPermission(_who, MINT_CUSD_SIG);\n        removeUserPermission(_who, MINT_SIG);\n        emit LogRemovedMinter(_who);\n    }\n\n    function _setBlacklistedUser(address _who) internal {\n        require(isPermission(BLACKLISTED_SIG), \"Self-destruct method not supported by token\");\n        setUserPermission(_who, BLACKLISTED_SIG);\n        emit LogBlacklistedUser(_who);\n    }\n\n    function _removeBlacklistedUser(address _who) internal {\n        require(isPermission(BLACKLISTED_SIG), \"Self-destruct method not supported by token\");\n        removeUserPermission(_who, BLACKLISTED_SIG);\n        emit LogRemovedBlacklistedUser(_who);\n    }\n}",
  "sourcePath": "/Users/nicholaspai/Carbon/fiat_gateway/contracts/regulator/Regulator.sol",
  "compiler": {
    "name": "solc",
    "version": "0.4.25+commit.59dbf8f1.Emscripten.clang"
  },
  "schemaVersion": "3.0.0-beta.1",
  "updatedAt": "2018-12-02T22:19:05.841Z"
}