{
  "contractName": "RegulatorStorage",
  "abi": [
    {
      "constant": true,
      "inputs": [],
      "name": "permissions",
      "outputs": [
        {
          "name": "",
          "type": "address"
        }
      ],
      "payable": false,
      "stateMutability": "view",
      "type": "function"
    },
    {
      "constant": true,
      "inputs": [],
      "name": "validators",
      "outputs": [
        {
          "name": "",
          "type": "address"
        }
      ],
      "payable": false,
      "stateMutability": "view",
      "type": "function"
    },
    {
      "inputs": [
        {
          "name": "_permissions",
          "type": "address"
        },
        {
          "name": "_validators",
          "type": "address"
        }
      ],
      "payable": false,
      "stateMutability": "nonpayable",
      "type": "constructor"
    }
  ],
  "bytecode": "0x608060405234801561001057600080fd5b5060405160408061016483398101604052805160209091015160008054600160a060020a03938416600160a060020a0319918216179091556001805493909216921691909117905560fe806100666000396000f30060806040526004361060485763ffffffff7c0100000000000000000000000000000000000000000000000000000000600035041663ab8c71c08114604d578063ca1e7819146088575b600080fd5b348015605857600080fd5b50605f609a565b6040805173ffffffffffffffffffffffffffffffffffffffff9092168252519081900360200190f35b348015609357600080fd5b50605f60b6565b60005473ffffffffffffffffffffffffffffffffffffffff1681565b60015473ffffffffffffffffffffffffffffffffffffffff16815600a165627a7a7230582056f93a2b4540ba2bcdab16a8baa5733f1c6ef9326f52805ba4c62dea8a2e8f4f0029",
  "source": "pragma solidity ^0.4.24;\n\nimport \"./PermissionSheet.sol\";\nimport \"./ValidatorSheet.sol\";\n\n/**\n*\n* @dev contains a PermissionSheet and a ValidatorSheet\n*\n*/\ncontract RegulatorStorage {\n    /**\n    \tStorage\n    */\n    PermissionSheet public permissions;\n    ValidatorSheet public validators;\n\n    /**\n    * @dev a RegulatorStorage can set its storages only once, on construction\n    *\n    **/\n    constructor (address _permissions, address _validators) public {\n        permissions = PermissionSheet(_permissions);\n        validators = ValidatorSheet(_validators);\n    }\n}",
  "sourcePath": "/Users/tanishqaggarwal/Documents/carbon/fiat_gateway/contracts/regulator/dataStorage/RegulatorStorage.sol",
  "compiler": {
    "name": "solc",
    "version": "0.4.24+commit.e67f0147.Emscripten.clang"
  },
  "schemaVersion": "2.0.1",
  "updatedAt": "2018-08-13T20:26:34.608Z"
}