{
  "contractName": "RegulatorProxyFactory",
  "abi": [
    {
      "constant": true,
      "inputs": [
        {
          "name": "",
          "type": "uint256"
        }
      ],
      "name": "regulators",
      "outputs": [
        {
          "name": "",
          "type": "address"
        }
      ],
      "payable": false,
      "stateMutability": "view",
      "type": "function"
    },
    {
      "anonymous": false,
      "inputs": [
        {
          "indexed": false,
          "name": "newRegulator",
          "type": "address"
        },
        {
          "indexed": false,
          "name": "index",
          "type": "uint256"
        }
      ],
      "name": "CreatedRegulatorProxy",
      "type": "event"
    },
    {
      "constant": true,
      "inputs": [],
      "name": "getCount",
      "outputs": [
        {
          "name": "",
          "type": "uint256"
        }
      ],
      "payable": false,
      "stateMutability": "view",
      "type": "function"
    },
    {
      "constant": true,
      "inputs": [
        {
          "name": "i",
          "type": "uint256"
        }
      ],
      "name": "getRegulatorProxy",
      "outputs": [
        {
          "name": "",
          "type": "address"
        }
      ],
      "payable": false,
      "stateMutability": "view",
      "type": "function"
    },
    {
      "constant": false,
      "inputs": [
        {
          "name": "regulatorImplementation",
          "type": "address"
        }
      ],
      "name": "createRegulatorProxy",
      "outputs": [],
      "payable": false,
      "stateMutability": "nonpayable",
      "type": "function"
    }
  ],
  "bytecode": "0x608060405234801561001057600080fd5b50613118806100206000396000f300608060405260043610620000665763ffffffff7c010000000000000000000000000000000000000000000000000000000060003504166353986e7581146200006b5780635b508cf014620000af5780636ffa1ea714620000e2578063a87d942c14620000fd575b600080fd5b3480156200007857600080fd5b506200008660043562000127565b6040805173ffffffffffffffffffffffffffffffffffffffff9092168252519081900360200190f35b348015620000bc57600080fd5b50620000e073ffffffffffffffffffffffffffffffffffffffff600435166200015d565b005b348015620000ef57600080fd5b5062000086600435620004f4565b3480156200010a57600080fd5b5062000115620005ad565b60408051918252519081900360200190f35b60008054829081106200013657fe5b60009182526020909120015473ffffffffffffffffffffffffffffffffffffffff16905081565b60008060006200016c620005b3565b604051809103906000f08015801562000189573d6000803e3d6000fd5b5092503362000197620005c4565b73ffffffffffffffffffffffffffffffffffffffff909116815260405190819003602001906000f080158015620001d2573d6000803e3d6000fd5b509150838383620001e2620005d5565b73ffffffffffffffffffffffffffffffffffffffff938416815291831660208301529091166040808301919091525190819003606001906000f0801580156200022f573d6000803e3d6000fd5b5090508273ffffffffffffffffffffffffffffffffffffffff1663f2fde38b826040518263ffffffff167c0100000000000000000000000000000000000000000000000000000000028152600401808273ffffffffffffffffffffffffffffffffffffffff1673ffffffffffffffffffffffffffffffffffffffff168152602001915050600060405180830381600087803b158015620002ce57600080fd5b505af1158015620002e3573d6000803e3d6000fd5b505050508173ffffffffffffffffffffffffffffffffffffffff1663f2fde38b826040518263ffffffff167c0100000000000000000000000000000000000000000000000000000000028152600401808273ffffffffffffffffffffffffffffffffffffffff1673ffffffffffffffffffffffffffffffffffffffff168152602001915050600060405180830381600087803b1580156200038357600080fd5b505af115801562000398573d6000803e3d6000fd5b5050604080517ff2fde38b000000000000000000000000000000000000000000000000000000008152336004820152905173ffffffffffffffffffffffffffffffffffffffff8516935063f2fde38b9250602480830192600092919082900301818387803b1580156200040a57600080fd5b505af11580156200041f573d6000803e3d6000fd5b505060008054600180820183559180527f290decd9548b62a8d60345a988386fc84ba6bc95484008f6362f93160ef3e5630180547fffffffffffffffffffffffff00000000000000000000000000000000000000001673ffffffffffffffffffffffffffffffffffffffff86161790557f03c438f0cc356e051e1bcece6a83a35d5c1205342a7f62cc8c40d3b153fcc9009250839150620004bf620005ad565b6040805173ffffffffffffffffffffffffffffffffffffffff909416845291900360208301528051918290030190a150505050565b600080548210801562000508575060008210155b15156200057657604080517f08c379a000000000000000000000000000000000000000000000000000000000815260206004820152600d60248201527f496e76616c696420696e64657800000000000000000000000000000000000000604482015290519081900360640190fd5b60008054839081106200058557fe5b60009182526020909120015473ffffffffffffffffffffffffffffffffffffffff1692915050565b60005490565b604051611a5180620005e783390190565b60405161057f806200203883390190565b604051610b3680620025b783390190560060806040523480156200001157600080fd5b5060008054600160a060020a0319163317905562000037640100000000620000d5810204565b6200004a64010000000062000141810204565b6200005d640100000000620001ab810204565b6200007064010000000062000215810204565b62000083640100000000620002a6810204565b6200009664010000000062000337810204565b620000a9640100000000620003a1810204565b620000bc64010000000062000432810204565b620000cf640100000000620004c3810204565b62000748565b604080517f6d696e7428616464726573732c75696e743235362900000000000000000000008152815190819003601501812060208083018452600080845284518083018652818152855192830190955281526200013f93919291906401000000006200052d810204565b565b604080517f6d696e744355534428616464726573732c75696e7432353629000000000000008152815190819003601901812060208083018452600080845284518083018652818152855192830190955281526200013f93919291906401000000006200052d810204565b604080517f6275726e2875696e7432353629000000000000000000000000000000000000008152815190819003600d01812060208083018452600080845284518083018652818152855192830190955281526200013f93919291906401000000006200052d810204565b604080517f636f6e76657274436172626f6e446f6c6c617228616464726573732c75696e7481527f323536290000000000000000000000000000000000000000000000000000000060208083019190915282519182900360240182208282018452600080845284518084018652818152855193840190955282526200013f939092916401000000006200052d810204565b604080517f6275726e436172626f6e446f6c6c617228616464726573732c75696e7432353681527f290000000000000000000000000000000000000000000000000000000000000060208083019190915282519182900360210182208282018452600080845284518084018652818152855193840190955282526200013f939092916401000000006200052d810204565b604080517f636f6e7665727457542875696e743235362900000000000000000000000000008152815190819003601201812060208083018452600080845284518083018652818152855192830190955281526200013f93919291906401000000006200052d810204565b604080517f64657374726f79426c61636b6c6973746564546f6b656e73286164647265737381527f2c75696e7432353629000000000000000000000000000000000000000000000060208083019190915282519182900360290182208282018452600080845284518084018652818152855193840190955282526200013f939092916401000000006200052d810204565b604080517f617070726f7665426c61636b6c6973746564416464726573735370656e64657281527f286164647265737329000000000000000000000000000000000000000000000060208083019190915282519182900360290182208282018452600080845284518084018652818152855193840190955282526200013f939092916401000000006200052d810204565b604080517f626c61636b6c69737465642829000000000000000000000000000000000000008152815190819003600d01812060208083018452600080845284518083018652818152855192830190955281526200013f93919291906401000000006200052d810204565b6200053762000681565b600054600160a060020a031633146200054f57600080fd5b5060408051606081018252848152602081018490529081018290526200057f858264010000000062000586810204565b5050505050565b7fffffffff0000000000000000000000000000000000000000000000000000000082166000908152600160209081526040909120825180518493620005d0928492910190620006a3565b506020828101518051620005eb9260018501920190620006a3565b506040820151805162000609916002840191602090910190620006a3565b5050507fffffffff000000000000000000000000000000000000000000000000000000008216600081815260026020908152604091829020805460ff19166001179055815192835290517f6195913f4ea9fc2f5193c9f6763975b23790b3be094b1eb18f318437390055129281900390910190a15050565b6060604051908101604052806060815260200160608152602001606081525090565b828054600181600116156101000203166002900490600052602060002090601f016020900481019282601f10620006e657805160ff191683800117855562000716565b8280016001018555821562000716579182015b8281111562000716578251825591602001919060010190620006f9565b506200072492915062000728565b5090565b6200074591905b808211156200072457600081556001016200072f565b90565b6112f980620007586000396000f3006080604052600436106101065763ffffffff7c010000000000000000000000000000000000000000000000000000000060003504166314db6d58811461010b5780631c870eee14610172578063395a7b30146101c75780635317e44414610345578063639c44cf14610398578063715018a6146103e2578063780bfed0146103f757806388f14b0e146104f35780638b7c8109146105085780638da5cb5b1461051d5780638f959f541461055b578063933aa667146105705780639491951b146105aa578063ab96cb46146105bf578063b8ccbd17146105d4578063c1c49cbb1461060e578063cfbf1b9014610623578063f2fde38b14610638578063f9d5054314610666575b600080fd5b34801561011757600080fd5b5061015e73ffffffffffffffffffffffffffffffffffffffff600435167fffffffff000000000000000000000000000000000000000000000000000000006024351661067b565b604080519115158252519081900360200190f35b34801561017e57600080fd5b506101c573ffffffffffffffffffffffffffffffffffffffff600435167fffffffff000000000000000000000000000000000000000000000000000000006024351661069b565b005b3480156101d357600080fd5b506102017fffffffff0000000000000000000000000000000000000000000000000000000060043516610839565b60405180806020018060200180602001848103845287818151815260200191508051906020019080838360005b8381101561024657818101518382015260200161022e565b50505050905090810190601f1680156102735780820380516001836020036101000a031916815260200191505b50848103835286518152865160209182019188019080838360005b838110156102a657818101518382015260200161028e565b50505050905090810190601f1680156102d35780820380516001836020036101000a031916815260200191505b50848103825285518152855160209182019187019080838360005b838110156103065781810151838201526020016102ee565b50505050905090810190601f1680156103335780820380516001836020036101000a031916815260200191505b50965050505050505060405180910390f35b34801561035157600080fd5b506101c573ffffffffffffffffffffffffffffffffffffffff600435167fffffffff0000000000000000000000000000000000000000000000000000000060243516610a41565b3480156103a457600080fd5b506103ad610bdc565b604080517fffffffff000000000000000000000000000000000000000000000000000000009092168252519081900360200190f35b3480156103ee57600080fd5b506101c5610c11565b34801561040357600080fd5b5060408051602060046024803582810135601f81018590048502860185019096528585526101c59583357fffffffff000000000000000000000000000000000000000000000000000000001695369560449491939091019190819084018382808284375050604080516020601f89358b018035918201839004830284018301909452808352979a99988101979196509182019450925082915084018382808284375050604080516020601f89358b018035918201839004830284018301909452808352979a999881019791965091820194509250829150840183828082843750949750610ca29650505050505050565b3480156104ff57600080fd5b506103ad610cfa565b34801561051457600080fd5b506103ad610d2f565b34801561052957600080fd5b50610532610d64565b6040805173ffffffffffffffffffffffffffffffffffffffff9092168252519081900360200190f35b34801561056757600080fd5b506103ad610d80565b34801561057c57600080fd5b5061015e7fffffffff0000000000000000000000000000000000000000000000000000000060043516610ddb565b3480156105b657600080fd5b506103ad610df0565b3480156105cb57600080fd5b506103ad610e25565b3480156105e057600080fd5b506101c57fffffffff0000000000000000000000000000000000000000000000000000000060043516610e80565b34801561061a57600080fd5b506103ad610f33565b34801561062f57600080fd5b506103ad610f8e565b34801561064457600080fd5b506101c573ffffffffffffffffffffffffffffffffffffffff60043516610fc3565b34801561067257600080fd5b506103ad610ff3565b600360209081526000928352604080842090915290825290205460ff1681565b60005473ffffffffffffffffffffffffffffffffffffffff1633146106bf57600080fd5b7fffffffff00000000000000000000000000000000000000000000000000000000811660009081526002602052604090205460ff16151561078757604080517f08c379a000000000000000000000000000000000000000000000000000000000815260206004820152603960248201527f5065726d697373696f6e206265696e6720736574206d75737420626520666f7260448201527f20612076616c6964206d6574686f64207369676e617475726500000000000000606482015290519081900360840190fd5b73ffffffffffffffffffffffffffffffffffffffff821660008181526003602090815260408083207fffffffff0000000000000000000000000000000000000000000000000000000086168085529083529281902080547fffffffffffffffffffffffffffffffffffffffffffffffffffffffffffffff001660011790558051928352517f190688d3ad83a240fa6749f3d9eda5b51877cc1f53d8d408f57f77d81c6c410e9281900390910190a25050565b60016020818152600092835260409283902080548451600294821615610100027fffffffffffffffffffffffffffffffffffffffffffffffffffffffffffffffff0190911693909304601f81018390048302840183019094528383529283918301828280156108e95780601f106108be576101008083540402835291602001916108e9565b820191906000526020600020905b8154815290600101906020018083116108cc57829003601f168201915b505050505090806001018054600181600116156101000203166002900480601f0160208091040260200160405190810160405280929190818152602001828054600181600116156101000203166002900480156109875780601f1061095c57610100808354040283529160200191610987565b820191906000526020600020905b81548152906001019060200180831161096a57829003601f168201915b50505060028085018054604080516020601f7fffffffffffffffffffffffffffffffffffffffffffffffffffffffffffffffff6101006001871615020190941695909504928301859004850281018501909152818152959695945090925090830182828015610a375780601f10610a0c57610100808354040283529160200191610a37565b820191906000526020600020905b815481529060010190602001808311610a1a57829003601f168201915b5050505050905083565b60005473ffffffffffffffffffffffffffffffffffffffff163314610a6557600080fd5b7fffffffff00000000000000000000000000000000000000000000000000000000811660009081526002602052604090205460ff161515610b2d57604080517f08c379a000000000000000000000000000000000000000000000000000000000815260206004820152603d60248201527f5065726d697373696f6e206265696e672072656d6f766564206d75737420626560448201527f20666f7220612076616c6964206d6574686f64207369676e6174757265000000606482015290519081900360840190fd5b73ffffffffffffffffffffffffffffffffffffffff821660008181526003602090815260408083207fffffffff0000000000000000000000000000000000000000000000000000000086168085529083529281902080547fffffffffffffffffffffffffffffffffffffffffffffffffffffffffffffff001690558051928352517ff588bf9ea415beafc66d76db54e249a45b8d7a572f47bb36f48591aa560c549b9281900390910190a25050565b604080517f636f6e7665727457542875696e743235362900000000000000000000000000008152905190819003601201902081565b60005473ffffffffffffffffffffffffffffffffffffffff163314610c3557600080fd5b6000805460405173ffffffffffffffffffffffffffffffffffffffff909116917ff8df31144d9c2f0f6b59d69b8b98abd5459d07f2742c4df920b25aae33c6482091a2600080547fffffffffffffffffffffffff0000000000000000000000000000000000000000169055565b610caa611210565b60005473ffffffffffffffffffffffffffffffffffffffff163314610cce57600080fd5b506040805160608101825284815260208101849052908101829052610cf3858261104e565b5050505050565b604080517f6d696e7428616464726573732c75696e743235362900000000000000000000008152905190819003601501902081565b604080517f6d696e744355534428616464726573732c75696e7432353629000000000000008152905190819003601901902081565b60005473ffffffffffffffffffffffffffffffffffffffff1681565b604080517f617070726f7665426c61636b6c6973746564416464726573735370656e64657281527f28616464726573732900000000000000000000000000000000000000000000006020820152905190819003602901902081565b60026020526000908152604090205460ff1681565b604080517f626c61636b6c69737465642829000000000000000000000000000000000000008152905190819003600d01902081565b604080517f64657374726f79426c61636b6c6973746564546f6b656e73286164647265737381527f2c75696e743235362900000000000000000000000000000000000000000000006020820152905190819003602901902081565b60005473ffffffffffffffffffffffffffffffffffffffff163314610ea457600080fd5b7fffffffff00000000000000000000000000000000000000000000000000000000811660008181526002602090815260409182902080547fffffffffffffffffffffffffffffffffffffffffffffffffffffffffffffff00169055815192835290517f65cd5526557cbd93f0739d00ffcdf8f4a663eb2ed509203d884b3470158724c19281900390910190a150565b604080517f6275726e436172626f6e446f6c6c617228616464726573732c75696e7432353681527f29000000000000000000000000000000000000000000000000000000000000006020820152905190819003602101902081565b604080517f6275726e2875696e7432353629000000000000000000000000000000000000008152905190819003600d01902081565b60005473ffffffffffffffffffffffffffffffffffffffff163314610fe757600080fd5b610ff081611161565b50565b604080517f636f6e76657274436172626f6e446f6c6c617228616464726573732c75696e7481527f32353629000000000000000000000000000000000000000000000000000000006020820152905190819003602401902081565b7fffffffff0000000000000000000000000000000000000000000000000000000082166000908152600160209081526040909120825180518493611096928492910190611232565b5060208281015180516110af9260018501920190611232565b50604082015180516110cb916002840191602090910190611232565b5050507fffffffff00000000000000000000000000000000000000000000000000000000821660008181526002602090815260409182902080547fffffffffffffffffffffffffffffffffffffffffffffffffffffffffffffff00166001179055815192835290517f6195913f4ea9fc2f5193c9f6763975b23790b3be094b1eb18f318437390055129281900390910190a15050565b73ffffffffffffffffffffffffffffffffffffffff8116151561118357600080fd5b6000805460405173ffffffffffffffffffffffffffffffffffffffff808516939216917f8be0079c531659141344cd1fd0a4f28419497f9722a3daafe3b4186f6b6457e091a3600080547fffffffffffffffffffffffff00000000000000000000000000000000000000001673ffffffffffffffffffffffffffffffffffffffff92909216919091179055565b6060604051908101604052806060815260200160608152602001606081525090565b828054600181600116156101000203166002900490600052602060002090601f016020900481019282601f1061127357805160ff19168380011785556112a0565b828001600101855582156112a0579182015b828111156112a0578251825591602001919060010190611285565b506112ac9291506112b0565b5090565b6112ca91905b808211156112ac57600081556001016112b6565b905600a165627a7a72305820b80f9a83cbf1c6ee85a3c1f78a77c78f317f471fa9ceff3bd3f131cf66b42f8d0029608060405234801561001057600080fd5b5060405160208061057f833981016040525160008054600160a060020a031916331790556100468164010000000061004c810204565b506100c7565b600054600160a060020a0316331461006357600080fd5b61007581640100000000610078810204565b50565b600160a060020a0381166000818152600160208190526040808320805460ff1916909217909155517fe366c1c0452ed8eec96861e9e54141ebff23c9ec89fe27b996b45f5ec38849879190a250565b6104a9806100d66000396000f3006080604052600436106100775763ffffffff7c010000000000000000000000000000000000000000000000000000000060003504166340a141ff811461007c5780634d238c8e146100ac578063715018a6146100da5780638da5cb5b146100ef578063f2fde38b1461012d578063facd743b1461015b575b600080fd5b34801561008857600080fd5b506100aa73ffffffffffffffffffffffffffffffffffffffff6004351661019d565b005b3480156100b857600080fd5b506100aa73ffffffffffffffffffffffffffffffffffffffff60043516610235565b3480156100e657600080fd5b506100aa610265565b3480156100fb57600080fd5b506101046102f6565b6040805173ffffffffffffffffffffffffffffffffffffffff9092168252519081900360200190f35b34801561013957600080fd5b506100aa73ffffffffffffffffffffffffffffffffffffffff60043516610312565b34801561016757600080fd5b5061018973ffffffffffffffffffffffffffffffffffffffff6004351661033f565b604080519115158252519081900360200190f35b60005473ffffffffffffffffffffffffffffffffffffffff1633146101c157600080fd5b73ffffffffffffffffffffffffffffffffffffffff811660008181526001602052604080822080547fffffffffffffffffffffffffffffffffffffffffffffffffffffffffffffff00169055517fe1434e25d6611e0db941968fdc97811c982ac1602e951637d206f5fdda9dd8f19190a250565b60005473ffffffffffffffffffffffffffffffffffffffff16331461025957600080fd5b61026281610354565b50565b60005473ffffffffffffffffffffffffffffffffffffffff16331461028957600080fd5b6000805460405173ffffffffffffffffffffffffffffffffffffffff909116917ff8df31144d9c2f0f6b59d69b8b98abd5459d07f2742c4df920b25aae33c6482091a2600080547fffffffffffffffffffffffff0000000000000000000000000000000000000000169055565b60005473ffffffffffffffffffffffffffffffffffffffff1681565b60005473ffffffffffffffffffffffffffffffffffffffff16331461033657600080fd5b610262816103ce565b60016020526000908152604090205460ff1681565b73ffffffffffffffffffffffffffffffffffffffff8116600081815260016020819052604080832080547fffffffffffffffffffffffffffffffffffffffffffffffffffffffffffffff0016909217909155517fe366c1c0452ed8eec96861e9e54141ebff23c9ec89fe27b996b45f5ec38849879190a250565b73ffffffffffffffffffffffffffffffffffffffff811615156103f057600080fd5b6000805460405173ffffffffffffffffffffffffffffffffffffffff808516939216917f8be0079c531659141344cd1fd0a4f28419497f9722a3daafe3b4186f6b6457e091a3600080547fffffffffffffffffffffffff00000000000000000000000000000000000000001673ffffffffffffffffffffffffffffffffffffffff929092169190911790555600a165627a7a72305820240b44de7577e929354eb9a17a48d4e3c9377d21fc892a3095c1d7fb58fc0e550029608060405234801561001057600080fd5b50604051606080610b368339810160408181528251602080850151948301517f6f72672e7a657070656c696e6f732e70726f78792e696d706c656d656e74617485527f696f6e00000000000000000000000000000000000000000000000000000000009185019190915291519283900360230190922091929182908290829082908790600080516020610b16833981519152146100a957fe5b6100bb816401000000006100fe810204565b5060008054600160a060020a0319908116331790915560018054600160a060020a0394851690831617905560028054929093169116179055506101c49350505050565b60006101168264010000000061079d6101bc82021704565b15156101a957604080517f08c379a000000000000000000000000000000000000000000000000000000000815260206004820152603b60248201527f43616e6e6f742073657420612070726f787920696d706c656d656e746174696f60448201527f6e20746f2061206e6f6e2d636f6e747261637420616464726573730000000000606482015290519081900360840190fd5b50600080516020610b1683398151915255565b6000903b1190565b610943806101d36000396000f3006080604052600436106100985763ffffffff7c01000000000000000000000000000000000000000000000000000000006000350416633659cfe681146100a25780635c60da1b146100d0578063715018a61461010e5780638da5cb5b14610123578063ab8c71c014610138578063aef5eb801461014d578063ca1e78191461017b578063e51207e714610190578063f2fde38b146101be575b6100a06101ec565b005b3480156100ae57600080fd5b506100a073ffffffffffffffffffffffffffffffffffffffff60043516610206565b3480156100dc57600080fd5b506100e5610236565b6040805173ffffffffffffffffffffffffffffffffffffffff9092168252519081900360200190f35b34801561011a57600080fd5b506100a0610245565b34801561012f57600080fd5b506100e56102d6565b34801561014457600080fd5b506100e56102f2565b34801561015957600080fd5b506100a073ffffffffffffffffffffffffffffffffffffffff6004351661030e565b34801561018757600080fd5b506100e56104e2565b34801561019c57600080fd5b506100a073ffffffffffffffffffffffffffffffffffffffff600435166104fe565b3480156101ca57600080fd5b506100a073ffffffffffffffffffffffffffffffffffffffff600435166106d2565b6101f4610204565b6102046101ff6106ff565b610724565b565b60005473ffffffffffffffffffffffffffffffffffffffff16331461022a57600080fd5b61023381610748565b50565b60006102406106ff565b905090565b60005473ffffffffffffffffffffffffffffffffffffffff16331461026957600080fd5b6000805460405173ffffffffffffffffffffffffffffffffffffffff909116917ff8df31144d9c2f0f6b59d69b8b98abd5459d07f2742c4df920b25aae33c6482091a2600080547fffffffffffffffffffffffff0000000000000000000000000000000000000000169055565b60005473ffffffffffffffffffffffffffffffffffffffff1681565b60015473ffffffffffffffffffffffffffffffffffffffff1681565b6000805473ffffffffffffffffffffffffffffffffffffffff16331461033357600080fd5b60015473ffffffffffffffffffffffffffffffffffffffff838116911614156103bd57604080517f08c379a000000000000000000000000000000000000000000000000000000000815260206004820152601e60248201527f4d7573742062652061206e6577207065726d697373696f6e2073686565740000604482015290519081900360640190fd5b6103c68261079d565b151561045957604080517f08c379a000000000000000000000000000000000000000000000000000000000815260206004820152603860248201527f43616e6e6f7420736574206120726567756c61746f722073746f72616765207460448201527f6f2061206e6f6e2d636f6e747261637420616464726573730000000000000000606482015290519081900360840190fd5b506001805473ffffffffffffffffffffffffffffffffffffffff8381167fffffffffffffffffffffffff0000000000000000000000000000000000000000831681179093556040805191909216808252602082019390935281517fe17aee9aa44ff533ce61ee89d13b1d2a8cb1143b69d05d08a5d136acae8a7707929181900390910190a15050565b60025473ffffffffffffffffffffffffffffffffffffffff1681565b6000805473ffffffffffffffffffffffffffffffffffffffff16331461052357600080fd5b60025473ffffffffffffffffffffffffffffffffffffffff838116911614156105ad57604080517f08c379a000000000000000000000000000000000000000000000000000000000815260206004820152601d60248201527f4d7573742062652061206e65772076616c696461746f72207368656574000000604482015290519081900360640190fd5b6105b68261079d565b151561064957604080517f08c379a000000000000000000000000000000000000000000000000000000000815260206004820152603860248201527f43616e6e6f7420736574206120726567756c61746f722073746f72616765207460448201527f6f2061206e6f6e2d636f6e747261637420616464726573730000000000000000606482015290519081900360840190fd5b506002805473ffffffffffffffffffffffffffffffffffffffff8381167fffffffffffffffffffffffff0000000000000000000000000000000000000000831681179093556040805191909216808252602082019390935281517f8ca674c4f8f0a3a35b50833ae3d8d889663de2b78cdbe0765021594acec3cda2929181900390910190a15050565b60005473ffffffffffffffffffffffffffffffffffffffff1633146106f657600080fd5b610233816107a5565b7f7050c9e0f4ca769c69bd3a8ef740bc37934f8e2c036e5a723fd8ee048ed3f8c35490565b3660008037600080366000845af43d6000803e808015610743573d6000f35b3d6000fd5b61075181610854565b6040805173ffffffffffffffffffffffffffffffffffffffff8316815290517fbc7cd75a20ee27fd9adebab32041f755214dbc6bffa90cc0225b39da2e5c2d3b9181900360200190a150565b6000903b1190565b73ffffffffffffffffffffffffffffffffffffffff811615156107c757600080fd5b6000805460405173ffffffffffffffffffffffffffffffffffffffff808516939216917f8be0079c531659141344cd1fd0a4f28419497f9722a3daafe3b4186f6b6457e091a3600080547fffffffffffffffffffffffff00000000000000000000000000000000000000001673ffffffffffffffffffffffffffffffffffffffff92909216919091179055565b600061085f8261079d565b15156108f257604080517f08c379a000000000000000000000000000000000000000000000000000000000815260206004820152603b60248201527f43616e6e6f742073657420612070726f787920696d706c656d656e746174696f60448201527f6e20746f2061206e6f6e2d636f6e747261637420616464726573730000000000606482015290519081900360840190fd5b507f7050c9e0f4ca769c69bd3a8ef740bc37934f8e2c036e5a723fd8ee048ed3f8c3555600a165627a7a72305820c700de75c96b3afe957827b2b526da2862fe0bb33fa786ebbc81f492f73fe08600297050c9e0f4ca769c69bd3a8ef740bc37934f8e2c036e5a723fd8ee048ed3f8c3a165627a7a723058206a10e850e27bc23e62755ea6996c2c4d7e64dfc520dccdaa8a72083054857bce0029",
  "source": "pragma solidity ^0.4.23;\r\n\r\nimport \"../regulator/RegulatorProxy.sol\";\r\nimport \"../regulator/mocks/PermissionSheetMock.sol\";\r\nimport \"../regulator/mocks/ValidatorSheetMock.sol\";\r\n\r\n/**\r\n*\r\n* @dev RegulatorProxyFactory creates new RegulatorProxy contracts. \r\n*\r\n**/\r\ncontract RegulatorProxyFactory {\r\n    // Parameters\r\n    address[] public regulators;\r\n\r\n    // Events\r\n    event CreatedRegulatorProxy(address newRegulator, uint index);\r\n\r\n    // Return number of proxies created \r\n    function getCount() public view returns (uint) {\r\n        return regulators.length;\r\n    }\r\n\r\n    // Return the i'th created proxy\r\n    function getRegulatorProxy(uint i) public view returns(address) {\r\n        require((i < regulators.length) && (i >= 0), \"Invalid index\");\r\n        return regulators[i];\r\n    }\r\n\r\n    /**\r\n    *\r\n    * @dev generate a new proxyaddress that users can cast to a Regulator or RegulatorProxy. The\r\n    * proxy has empty data storage contracts connected to it and it is set with an initial logic contract\r\n    * to which it will delegate functionality\r\n    * @param regulatorImplementation the address of the logic contract that the proxy will initialize its implementation to\r\n    *\r\n    **/\r\n    function createRegulatorProxy(address regulatorImplementation) public {\r\n\r\n        // Store new data storage contracts for regulator proxy\r\n        address permissions = address(new PermissionSheetMock()); // All permissions added\r\n        address validators = address(new ValidatorSheetMock(msg.sender)); // Adds msg.sender as validator\r\n\r\n        address proxy = address(new RegulatorProxy(regulatorImplementation, permissions, validators));\r\n\r\n        // data storages should ultimately point be owned by the proxy, since it will delegate function\r\n        // calls to the latest implementation *in the context of the proxy contract*\r\n        PermissionSheet(permissions).transferOwnership(address(proxy));\r\n        ValidatorSheet(validators).transferOwnership(address(proxy));\r\n\r\n        // add msg sender as validators\r\n        // ValidatorSheet(validators).addValidator(msg.sender);\r\n\r\n        // The function caller should own the proxy contract\r\n        RegulatorProxy(proxy).transferOwnership(msg.sender);\r\n\r\n        regulators.push(proxy);\r\n        emit CreatedRegulatorProxy(proxy, getCount()-1);\r\n    }\r\n}\r\n",
  "sourcePath": "C:\\Users\\npain\\Projects\\Carbon\\fiat_gateway\\contracts\\factories\\RegulatorProxyFactory.sol",
  "compiler": {
    "name": "solc",
    "version": "0.4.24+commit.e67f0147.Emscripten.clang"
  },
  "schemaVersion": "2.0.1",
  "updatedAt": "2018-08-17T17:50:43.415Z"
}