{
  "contractName": "RegulatorProxy",
  "abi": [
    {
      "constant": false,
      "inputs": [],
      "name": "renounceOwnership",
      "outputs": [],
      "payable": false,
      "stateMutability": "nonpayable",
      "type": "function"
    },
    {
      "constant": true,
      "inputs": [],
      "name": "owner",
      "outputs": [
        {
          "name": "",
          "type": "address"
        }
      ],
      "payable": false,
      "stateMutability": "view",
      "type": "function"
    },
    {
      "constant": true,
      "inputs": [],
      "name": "regulator",
      "outputs": [
        {
          "name": "",
          "type": "address"
        }
      ],
      "payable": false,
      "stateMutability": "view",
      "type": "function"
    },
    {
      "constant": false,
      "inputs": [
        {
          "name": "_newOwner",
          "type": "address"
        }
      ],
      "name": "transferOwnership",
      "outputs": [],
      "payable": false,
      "stateMutability": "nonpayable",
      "type": "function"
    },
    {
      "inputs": [
        {
          "name": "_regulator",
          "type": "address"
        }
      ],
      "payable": false,
      "stateMutability": "nonpayable",
      "type": "constructor"
    },
    {
      "anonymous": false,
      "inputs": [
        {
          "indexed": false,
          "name": "oldRegulator",
          "type": "address"
        },
        {
          "indexed": false,
          "name": "newRegulator",
          "type": "address"
        }
      ],
      "name": "ReplaceRegulator",
      "type": "event"
    },
    {
      "anonymous": false,
      "inputs": [
        {
          "indexed": true,
          "name": "previousOwner",
          "type": "address"
        }
      ],
      "name": "OwnershipRenounced",
      "type": "event"
    },
    {
      "anonymous": false,
      "inputs": [
        {
          "indexed": true,
          "name": "previousOwner",
          "type": "address"
        },
        {
          "indexed": true,
          "name": "newOwner",
          "type": "address"
        }
      ],
      "name": "OwnershipTransferred",
      "type": "event"
    },
    {
      "constant": false,
      "inputs": [
        {
          "name": "_regulator",
          "type": "address"
        }
      ],
      "name": "replaceService",
      "outputs": [],
      "payable": false,
      "stateMutability": "nonpayable",
      "type": "function"
    },
    {
      "constant": true,
      "inputs": [
        {
          "name": "_who",
          "type": "address"
        },
        {
          "name": "_attribute",
          "type": "string"
        }
      ],
      "name": "hasAttribute",
      "outputs": [
        {
          "name": "",
          "type": "bool"
        }
      ],
      "payable": false,
      "stateMutability": "view",
      "type": "function"
    }
  ],
  "bytecode": "0x608060405234801561001057600080fd5b5060405160208061094a83398101806040528101908080519060200190929190505050336000806101000a81548173ffffffffffffffffffffffffffffffffffffffff021916908373ffffffffffffffffffffffffffffffffffffffff160217905550600073ffffffffffffffffffffffffffffffffffffffff168173ffffffffffffffffffffffffffffffffffffffff16141515156100af57600080fd5b80600160006101000a81548173ffffffffffffffffffffffffffffffffffffffff021916908373ffffffffffffffffffffffffffffffffffffffff1602179055505061084a806101006000396000f300608060405260043610610078576000357c0100000000000000000000000000000000000000000000000000000000900463ffffffff1680630680d58a1461007d5780630b7c45a2146100c0578063715018a6146101615780638da5cb5b14610178578063dd8fee14146101cf578063f2fde38b14610226575b600080fd5b34801561008957600080fd5b506100be600480360381019080803573ffffffffffffffffffffffffffffffffffffffff169060200190929190505050610269565b005b3480156100cc57600080fd5b50610147600480360381019080803573ffffffffffffffffffffffffffffffffffffffff169060200190929190803590602001908201803590602001908080601f0160208091040260200160405190810160405280939291908181526020018383808284378201915050505050509192919290505050610401565b604051808215151515815260200191505060405180910390f35b34801561016d57600080fd5b50610176610570565b005b34801561018457600080fd5b5061018d610672565b604051808273ffffffffffffffffffffffffffffffffffffffff1673ffffffffffffffffffffffffffffffffffffffff16815260200191505060405180910390f35b3480156101db57600080fd5b506101e4610697565b604051808273ffffffffffffffffffffffffffffffffffffffff1673ffffffffffffffffffffffffffffffffffffffff16815260200191505060405180910390f35b34801561023257600080fd5b50610267600480360381019080803573ffffffffffffffffffffffffffffffffffffffff1690602001909291905050506106bd565b005b60008060009054906101000a900473ffffffffffffffffffffffffffffffffffffffff1673ffffffffffffffffffffffffffffffffffffffff163373ffffffffffffffffffffffffffffffffffffffff161415156102c657600080fd5b816000813b90506000811115156102dc57600080fd5b600160009054906101000a900473ffffffffffffffffffffffffffffffffffffffff16925083600160006101000a81548173ffffffffffffffffffffffffffffffffffffffff021916908373ffffffffffffffffffffffffffffffffffffffff1602179055507fe10513d88845b19c6d195ff97b15a28ef71538fdf8c4cce978d59cfbe858ef4a83600160009054906101000a900473ffffffffffffffffffffffffffffffffffffffff16604051808373ffffffffffffffffffffffffffffffffffffffff1673ffffffffffffffffffffffffffffffffffffffff1681526020018273ffffffffffffffffffffffffffffffffffffffff1673ffffffffffffffffffffffffffffffffffffffff1681526020019250505060405180910390a150505050565b6000600160009054906101000a900473ffffffffffffffffffffffffffffffffffffffff1673ffffffffffffffffffffffffffffffffffffffff16630b7c45a284846040518363ffffffff167c0100000000000000000000000000000000000000000000000000000000028152600401808373ffffffffffffffffffffffffffffffffffffffff1673ffffffffffffffffffffffffffffffffffffffff16815260200180602001828103825283818151815260200191508051906020019080838360005b838110156104e05780820151818401526020810190506104c5565b50505050905090810190601f16801561050d5780820380516001836020036101000a031916815260200191505b509350505050602060405180830381600087803b15801561052d57600080fd5b505af1158015610541573d6000803e3d6000fd5b505050506040513d602081101561055757600080fd5b8101908080519060200190929190505050905092915050565b6000809054906101000a900473ffffffffffffffffffffffffffffffffffffffff1673ffffffffffffffffffffffffffffffffffffffff163373ffffffffffffffffffffffffffffffffffffffff161415156105cb57600080fd5b6000809054906101000a900473ffffffffffffffffffffffffffffffffffffffff1673ffffffffffffffffffffffffffffffffffffffff167ff8df31144d9c2f0f6b59d69b8b98abd5459d07f2742c4df920b25aae33c6482060405160405180910390a260008060006101000a81548173ffffffffffffffffffffffffffffffffffffffff021916908373ffffffffffffffffffffffffffffffffffffffff160217905550565b6000809054906101000a900473ffffffffffffffffffffffffffffffffffffffff1681565b600160009054906101000a900473ffffffffffffffffffffffffffffffffffffffff1681565b6000809054906101000a900473ffffffffffffffffffffffffffffffffffffffff1673ffffffffffffffffffffffffffffffffffffffff163373ffffffffffffffffffffffffffffffffffffffff1614151561071857600080fd5b61072181610724565b50565b600073ffffffffffffffffffffffffffffffffffffffff168173ffffffffffffffffffffffffffffffffffffffff161415151561076057600080fd5b8073ffffffffffffffffffffffffffffffffffffffff166000809054906101000a900473ffffffffffffffffffffffffffffffffffffffff1673ffffffffffffffffffffffffffffffffffffffff167f8be0079c531659141344cd1fd0a4f28419497f9722a3daafe3b4186f6b6457e060405160405180910390a3806000806101000a81548173ffffffffffffffffffffffffffffffffffffffff021916908373ffffffffffffffffffffffffffffffffffffffff160217905550505600a165627a7a72305820844176d3c4a9317415fc36462e826aa86ee143fd40d5e2a51e377ef4b1ec28420029",
  "source": "pragma solidity ^0.4.23;\r\n\r\nimport \"openzeppelin-solidity/contracts/ownership/Ownable.sol\";\r\nimport \"./Regulator.sol\";\r\n\r\n/**\r\n* @title RegulatorProxy\r\n* @dev Accounts for regulatory requirement changes over time. \r\n* Routes the PermissionedToken to the correct version of the Regulator\r\n* service.\r\n*\r\n*/\r\ncontract RegulatorProxy is Ownable {\r\n\t\r\n\t/**\r\n\t* @notice Address of the latest `Regulator` us responsible for checking trade\r\n\t*         permissions.\r\n\t*/\r\n\taddress public regulator;\r\n\r\n\t// Events\r\n\r\n\tevent ReplaceRegulator(address oldRegulator, address newRegulator);\r\n\r\n\t// Methods\r\n\r\n\t/**\r\n\t* @notice Constructor sets a Regulator service\r\n\t* @param _regulator The address of the `Regulator' service\r\n\t*\r\n\t*/\r\n\tconstructor (address _regulator) public {\r\n\t\trequire(_regulator != address(0));\r\n\t\tregulator = _regulator;\r\n\t}\r\n\r\n\t/**\r\n\t* @dev Validate contract address\r\n\t* Credit: https://github.com/Dexaran/ERC223-token-standard/blob/Recommended/ERC223_Token.sol#L107-L114\r\n\t* @param _regulator The Regulator address\r\n\t*/\r\n\tmodifier withContract(address _regulator) {\r\n\t\tuint length;\r\n\t\tassembly { length := extcodesize(_regulator) }\r\n\t\trequire(length > 0);\r\n\t\t_;\r\n\t}\r\n\r\n\t/**\r\n\t* @notice Replaces the address pointer to the `RegulatorService`.\r\n\t* This method is only callable by the contract's owner\r\n\t* @param _regulator The new `Regulator` service\r\n\t*/\r\n\tfunction replaceService(address _regulator) public onlyOwner withContract(_regulator) {\r\n\t\taddress oldRegulator = regulator;\r\n\t\tregulator = _regulator;\r\n\t\temit ReplaceRegulator(oldRegulator, regulator);\r\n\t}\r\n\r\n\r\n\t/**\r\n\t* @notice Queries the Regulator whether an account has a permission\r\n\t* @param _who the account to check \r\n\t* @param _attribute the permission to check\r\n\t* @return 'true' if the check was successful and 'false' if unsuccessful\r\n\t*/\r\n\tfunction hasAttribute(address _who, string _attribute) public view returns (bool) {\r\n\t\treturn Regulator(regulator).hasAttribute(_who, _attribute);\r\n\t}\r\n\r\n\r\n\r\n}",
  "sourcePath": "C:\\Users\\npain\\Projects\\Carbon\\fiat_gateway\\contracts\\RegulatorProxy.sol",
  "compiler": {
    "name": "solc",
    "version": "0.4.24+commit.e67f0147.Emscripten.clang"
  },
  "schemaVersion": "2.0.1",
  "updatedAt": "2018-06-30T16:29:31.292Z"
}