{
  "contractName": "StablecoinWhitelist",
  "abi": [
    {
      "constant": true,
      "inputs": [
        {
          "name": "",
          "type": "address"
        }
      ],
      "name": "isWhitelisted",
      "outputs": [
        {
          "name": "",
          "type": "bool"
        }
      ],
      "payable": false,
      "stateMutability": "view",
      "type": "function"
    },
    {
      "constant": false,
      "inputs": [],
      "name": "claimOwnership",
      "outputs": [],
      "payable": false,
      "stateMutability": "nonpayable",
      "type": "function"
    },
    {
      "constant": true,
      "inputs": [],
      "name": "owner",
      "outputs": [
        {
          "name": "",
          "type": "address"
        }
      ],
      "payable": false,
      "stateMutability": "view",
      "type": "function"
    },
    {
      "constant": true,
      "inputs": [],
      "name": "pendingOwner",
      "outputs": [
        {
          "name": "",
          "type": "address"
        }
      ],
      "payable": false,
      "stateMutability": "view",
      "type": "function"
    },
    {
      "constant": false,
      "inputs": [
        {
          "name": "_newOwner",
          "type": "address"
        }
      ],
      "name": "transferOwnership",
      "outputs": [],
      "payable": false,
      "stateMutability": "nonpayable",
      "type": "function"
    },
    {
      "anonymous": false,
      "inputs": [
        {
          "indexed": true,
          "name": "stablecoin",
          "type": "address"
        }
      ],
      "name": "StablecoinAdded",
      "type": "event"
    },
    {
      "anonymous": false,
      "inputs": [
        {
          "indexed": true,
          "name": "stablecoin",
          "type": "address"
        }
      ],
      "name": "StablecoinRemoved",
      "type": "event"
    },
    {
      "anonymous": false,
      "inputs": [
        {
          "indexed": true,
          "name": "previousOwner",
          "type": "address"
        },
        {
          "indexed": true,
          "name": "newOwner",
          "type": "address"
        }
      ],
      "name": "OwnershipTransferred",
      "type": "event"
    },
    {
      "constant": false,
      "inputs": [
        {
          "name": "_token",
          "type": "address"
        }
      ],
      "name": "addStablecoin",
      "outputs": [],
      "payable": false,
      "stateMutability": "nonpayable",
      "type": "function"
    },
    {
      "constant": false,
      "inputs": [
        {
          "name": "_token",
          "type": "address"
        }
      ],
      "name": "removeStablecoin",
      "outputs": [],
      "payable": false,
      "stateMutability": "nonpayable",
      "type": "function"
    }
  ],
  "bytecode": "0x608060405260008054600160a060020a031990811633179091556001805490911690556104b0806100316000396000f3006080604052600436106100825763ffffffff7c01000000000000000000000000000000000000000000000000000000006000350416630418945a81146100875780633af32abf146100b75780633b947d2b146100f95780634e71e0c8146101275780638da5cb5b1461013c578063e30c39781461017a578063f2fde38b1461018f575b600080fd5b34801561009357600080fd5b506100b573ffffffffffffffffffffffffffffffffffffffff600435166101bd565b005b3480156100c357600080fd5b506100e573ffffffffffffffffffffffffffffffffffffffff60043516610258565b604080519115158252519081900360200190f35b34801561010557600080fd5b506100b573ffffffffffffffffffffffffffffffffffffffff6004351661026d565b34801561013357600080fd5b506100b5610305565b34801561014857600080fd5b506101516103bf565b6040805173ffffffffffffffffffffffffffffffffffffffff9092168252519081900360200190f35b34801561018657600080fd5b506101516103db565b34801561019b57600080fd5b506100b573ffffffffffffffffffffffffffffffffffffffff600435166103f7565b60005473ffffffffffffffffffffffffffffffffffffffff1633146101e157600080fd5b73ffffffffffffffffffffffffffffffffffffffff811660008181526002602052604080822080547fffffffffffffffffffffffffffffffffffffffffffffffffffffffffffffff00166001179055517f3db297c09c19972ba6a701ff373ab97e21ff1e4992e863c7abe44e9b2fed08479190a250565b60026020526000908152604090205460ff1681565b60005473ffffffffffffffffffffffffffffffffffffffff16331461029157600080fd5b73ffffffffffffffffffffffffffffffffffffffff811660008181526002602052604080822080547fffffffffffffffffffffffffffffffffffffffffffffffffffffffffffffff00169055517f3302a1b37f04242bb55603f5449e7ecd690a35eef08ba1353c48c20e2aae9cda9190a250565b60015473ffffffffffffffffffffffffffffffffffffffff16331461032957600080fd5b6001546000805460405173ffffffffffffffffffffffffffffffffffffffff93841693909116917f8be0079c531659141344cd1fd0a4f28419497f9722a3daafe3b4186f6b6457e091a360018054600080547fffffffffffffffffffffffff000000000000000000000000000000000000000090811673ffffffffffffffffffffffffffffffffffffffff841617909155169055565b60005473ffffffffffffffffffffffffffffffffffffffff1681565b60015473ffffffffffffffffffffffffffffffffffffffff1681565b60005473ffffffffffffffffffffffffffffffffffffffff16331461041b57600080fd5b73ffffffffffffffffffffffffffffffffffffffff8116151561043d57600080fd5b600180547fffffffffffffffffffffffff00000000000000000000000000000000000000001673ffffffffffffffffffffffffffffffffffffffff929092169190911790555600a165627a7a72305820365306345a29f950fc3b0179911fbc6cdd0f384312ccd3809f64e3daaa5b17540029",
  "source": "pragma solidity ^0.4.24;\r\n\r\n// import \"openzeppelin-solidity/contracts/ownership/Claimable.sol\";\r\nimport '../../../helpers/Ownable.sol';\r\n\r\n/**\r\n* @title StablecoinWhitelist\r\n* @notice Contains a mapping indicating whether or not a token contract\r\n* is approved to participate on the CarbonUSD network. We can also refer\r\n* to tokens on the whitelist as \"stablecoins\".\r\n*/\r\ncontract StablecoinWhitelist is Ownable {\r\n    /** \r\n        Mappings\r\n    */\r\n\r\n    /* is the token address referring to a stablecoin/whitelisted token? */\r\n    mapping (address => bool) public isWhitelisted;\r\n\r\n    /** \r\n        Events\r\n    */\r\n    event StablecoinAdded(address indexed stablecoin);\r\n    event StablecoinRemoved(address indexed stablecoin);\r\n\r\n    /** @notice Add a token to the whitelist.\r\n        @param _token Address of the new stablecoin.\r\n    */\r\n    function addStablecoin(address _token) public onlyOwner {\r\n        isWhitelisted[_token] = true;\r\n        emit StablecoinAdded(_token);\r\n    }\r\n\r\n    /** @notice Removes a token from the whitelist.\r\n        @param _token Address of the ex-stablecoin.\r\n    */\r\n    function removeStablecoin(address _token) public onlyOwner {\r\n        isWhitelisted[_token] = false;\r\n        emit StablecoinRemoved(_token);\r\n    }\r\n}",
  "sourcePath": "C:\\Users\\npain\\Projects\\Carbon\\fiat_gateway\\contracts\\tokens\\carbonToken\\dataStorage\\StablecoinWhitelist.sol",
  "compiler": {
    "name": "solc",
    "version": "0.4.24+commit.e67f0147.Emscripten.clang"
  },
  "schemaVersion": "2.0.1",
  "updatedAt": "2018-08-18T15:48:20.677Z"
}