{
  "contractName": "StablecoinWhitelist",
  "abi": [
    {
      "constant": true,
      "inputs": [
        {
          "name": "",
          "type": "address"
        }
      ],
      "name": "isWhitelisted",
      "outputs": [
        {
          "name": "",
          "type": "bool"
        }
      ],
      "payable": false,
      "stateMutability": "view",
      "type": "function"
    },
    {
      "constant": false,
      "inputs": [],
      "name": "renounceOwnership",
      "outputs": [],
      "payable": false,
      "stateMutability": "nonpayable",
      "type": "function"
    },
    {
      "constant": true,
      "inputs": [],
      "name": "owner",
      "outputs": [
        {
          "name": "",
          "type": "address"
        }
      ],
      "payable": false,
      "stateMutability": "view",
      "type": "function"
    },
    {
      "constant": false,
      "inputs": [
        {
          "name": "_newOwner",
          "type": "address"
        }
      ],
      "name": "transferOwnership",
      "outputs": [],
      "payable": false,
      "stateMutability": "nonpayable",
      "type": "function"
    },
    {
      "anonymous": false,
      "inputs": [
        {
          "indexed": true,
          "name": "stablecoin",
          "type": "address"
        }
      ],
      "name": "StablecoinAdded",
      "type": "event"
    },
    {
      "anonymous": false,
      "inputs": [
        {
          "indexed": true,
          "name": "stablecoin",
          "type": "address"
        }
      ],
      "name": "StablecoinRemoved",
      "type": "event"
    },
    {
      "anonymous": false,
      "inputs": [
        {
          "indexed": true,
          "name": "previousOwner",
          "type": "address"
        }
      ],
      "name": "OwnershipRenounced",
      "type": "event"
    },
    {
      "anonymous": false,
      "inputs": [
        {
          "indexed": true,
          "name": "previousOwner",
          "type": "address"
        },
        {
          "indexed": true,
          "name": "newOwner",
          "type": "address"
        }
      ],
      "name": "OwnershipTransferred",
      "type": "event"
    },
    {
      "constant": false,
      "inputs": [
        {
          "name": "stablecoin",
          "type": "address"
        }
      ],
      "name": "addStablecoin",
      "outputs": [],
      "payable": false,
      "stateMutability": "nonpayable",
      "type": "function"
    },
    {
      "constant": false,
      "inputs": [
        {
          "name": "stablecoin",
          "type": "address"
        }
      ],
      "name": "removeStablecoin",
      "outputs": [],
      "payable": false,
      "stateMutability": "nonpayable",
      "type": "function"
    }
  ],
  "bytecode": "0x608060405260008054600160a060020a031916331790556104a0806100256000396000f3006080604052600436106100775763ffffffff7c01000000000000000000000000000000000000000000000000000000006000350416630418945a811461007c5780633af32abf146100ac5780633b947d2b146100ee578063715018a61461011c5780638da5cb5b14610131578063f2fde38b1461016f575b600080fd5b34801561008857600080fd5b506100aa73ffffffffffffffffffffffffffffffffffffffff6004351661019d565b005b3480156100b857600080fd5b506100da73ffffffffffffffffffffffffffffffffffffffff6004351661023b565b604080519115158252519081900360200190f35b3480156100fa57600080fd5b506100aa73ffffffffffffffffffffffffffffffffffffffff60043516610250565b34801561012857600080fd5b506100aa6102e8565b34801561013d57600080fd5b50610146610379565b6040805173ffffffffffffffffffffffffffffffffffffffff9092168252519081900360200190f35b34801561017b57600080fd5b506100aa73ffffffffffffffffffffffffffffffffffffffff60043516610395565b60005473ffffffffffffffffffffffffffffffffffffffff1633146101c157600080fd5b73ffffffffffffffffffffffffffffffffffffffff8116600081815260016020819052604080832080547fffffffffffffffffffffffffffffffffffffffffffffffffffffffffffffff0016909217909155517f3db297c09c19972ba6a701ff373ab97e21ff1e4992e863c7abe44e9b2fed08479190a250565b60016020526000908152604090205460ff1681565b60005473ffffffffffffffffffffffffffffffffffffffff16331461027457600080fd5b73ffffffffffffffffffffffffffffffffffffffff811660008181526001602052604080822080547fffffffffffffffffffffffffffffffffffffffffffffffffffffffffffffff00169055517f3302a1b37f04242bb55603f5449e7ecd690a35eef08ba1353c48c20e2aae9cda9190a250565b60005473ffffffffffffffffffffffffffffffffffffffff16331461030c57600080fd5b6000805460405173ffffffffffffffffffffffffffffffffffffffff909116917ff8df31144d9c2f0f6b59d69b8b98abd5459d07f2742c4df920b25aae33c6482091a2600080547fffffffffffffffffffffffff0000000000000000000000000000000000000000169055565b60005473ffffffffffffffffffffffffffffffffffffffff1681565b60005473ffffffffffffffffffffffffffffffffffffffff1633146103b957600080fd5b6103c2816103c5565b50565b73ffffffffffffffffffffffffffffffffffffffff811615156103e757600080fd5b6000805460405173ffffffffffffffffffffffffffffffffffffffff808516939216917f8be0079c531659141344cd1fd0a4f28419497f9722a3daafe3b4186f6b6457e091a3600080547fffffffffffffffffffffffff00000000000000000000000000000000000000001673ffffffffffffffffffffffffffffffffffffffff929092169190911790555600a165627a7a7230582019ee11155dd54b81cd6342c3a32da2392eabdfd45582d5eb97d37010b4f9e1350029",
  "source": "pragma solidity ^0.4.24;\n\nimport \"openzeppelin-solidity/contracts/ownership/Ownable.sol\";\nimport \"openzeppelin-solidity/contracts/math/SafeMath.sol\";\n\n/**\n* @title FeeSheet\n* @notice Contains a mapping indicating whether or not a token contract\n* is approved to participate on the CarbonUSD network.\n*/\ncontract StablecoinWhitelist is Ownable {\n    /** \n        Mappings\n    */\n    // (stablecoin address => is the stablecoin whitelisted)\n    mapping (address => bool) public isWhitelisted;\n\n    /** \n        Events\n    */\n    event StablecoinAdded(address indexed stablecoin);\n    event StablecoinRemoved(address indexed stablecoin);\n\n    /** @notice Add a stablecoin to the whitelist.\n        @param stablecoin Address of the stablecoin.\n    */\n    function addStablecoin(address stablecoin) public onlyOwner {\n        isWhitelisted[stablecoin] = true;\n        emit StablecoinAdded(stablecoin);\n    }\n\n    /** @notice Removes a stablecoin from the whitelist.\n        @param stablecoin Address of the stablecoin.\n    */\n    function removeStablecoin(address stablecoin) public onlyOwner {\n        isWhitelisted[stablecoin] = false;\n        emit StablecoinRemoved(stablecoin);\n    }\n}",
  "sourcePath": "/Users/tanishqaggarwal/Documents/carbon/fiat_gateway/contracts/tokens/carbonToken/dataStorage/StablecoinWhitelist.sol",
  "compiler": {
    "name": "solc",
    "version": "0.4.24+commit.e67f0147.Emscripten.clang"
  },
  "schemaVersion": "2.0.1",
  "updatedAt": "2018-08-13T20:26:34.632Z"
}