{
  "contractName": "Token_V2",
  "abi": [
    {
      "constant": true,
      "inputs": [],
      "name": "mintingFinished",
      "outputs": [
        {
          "name": "",
          "type": "bool"
        }
      ],
      "payable": false,
      "stateMutability": "view",
      "type": "function"
    },
    {
      "constant": false,
      "inputs": [
        {
          "name": "spender",
          "type": "address"
        },
        {
          "name": "value",
          "type": "uint256"
        }
      ],
      "name": "approve",
      "outputs": [],
      "payable": false,
      "stateMutability": "nonpayable",
      "type": "function"
    },
    {
      "constant": true,
      "inputs": [],
      "name": "initialized",
      "outputs": [
        {
          "name": "",
          "type": "bool"
        }
      ],
      "payable": false,
      "stateMutability": "view",
      "type": "function"
    },
    {
      "constant": true,
      "inputs": [],
      "name": "totalSupply",
      "outputs": [
        {
          "name": "",
          "type": "uint256"
        }
      ],
      "payable": false,
      "stateMutability": "view",
      "type": "function"
    },
    {
      "constant": false,
      "inputs": [
        {
          "name": "from",
          "type": "address"
        },
        {
          "name": "to",
          "type": "address"
        },
        {
          "name": "value",
          "type": "uint256"
        }
      ],
      "name": "transferFrom",
      "outputs": [],
      "payable": false,
      "stateMutability": "nonpayable",
      "type": "function"
    },
    {
      "constant": false,
      "inputs": [
        {
          "name": "to",
          "type": "address"
        },
        {
          "name": "value",
          "type": "uint256"
        }
      ],
      "name": "mint",
      "outputs": [],
      "payable": false,
      "stateMutability": "nonpayable",
      "type": "function"
    },
    {
      "constant": false,
      "inputs": [
        {
          "name": "spender",
          "type": "address"
        },
        {
          "name": "subtractedValue",
          "type": "uint256"
        }
      ],
      "name": "decreaseApproval",
      "outputs": [],
      "payable": false,
      "stateMutability": "nonpayable",
      "type": "function"
    },
    {
      "constant": true,
      "inputs": [
        {
          "name": "owner",
          "type": "address"
        }
      ],
      "name": "balanceOf",
      "outputs": [
        {
          "name": "",
          "type": "uint256"
        }
      ],
      "payable": false,
      "stateMutability": "view",
      "type": "function"
    },
    {
      "constant": false,
      "inputs": [],
      "name": "finishMinting",
      "outputs": [],
      "payable": false,
      "stateMutability": "nonpayable",
      "type": "function"
    },
    {
      "constant": true,
      "inputs": [],
      "name": "owner",
      "outputs": [
        {
          "name": "",
          "type": "address"
        }
      ],
      "payable": false,
      "stateMutability": "view",
      "type": "function"
    },
    {
      "constant": false,
      "inputs": [
        {
          "name": "to",
          "type": "address"
        },
        {
          "name": "value",
          "type": "uint256"
        }
      ],
      "name": "transfer",
      "outputs": [],
      "payable": false,
      "stateMutability": "nonpayable",
      "type": "function"
    },
    {
      "constant": false,
      "inputs": [
        {
          "name": "owner",
          "type": "address"
        }
      ],
      "name": "initialize",
      "outputs": [],
      "payable": false,
      "stateMutability": "nonpayable",
      "type": "function"
    },
    {
      "constant": false,
      "inputs": [
        {
          "name": "spender",
          "type": "address"
        },
        {
          "name": "addedValue",
          "type": "uint256"
        }
      ],
      "name": "increaseApproval",
      "outputs": [],
      "payable": false,
      "stateMutability": "nonpayable",
      "type": "function"
    },
    {
      "constant": true,
      "inputs": [
        {
          "name": "owner",
          "type": "address"
        },
        {
          "name": "spender",
          "type": "address"
        }
      ],
      "name": "allowance",
      "outputs": [
        {
          "name": "",
          "type": "uint256"
        }
      ],
      "payable": false,
      "stateMutability": "view",
      "type": "function"
    },
    {
      "constant": false,
      "inputs": [
        {
          "name": "newOwner",
          "type": "address"
        }
      ],
      "name": "transferOwnership",
      "outputs": [],
      "payable": false,
      "stateMutability": "nonpayable",
      "type": "function"
    },
    {
      "anonymous": false,
      "inputs": [
        {
          "indexed": true,
          "name": "burner",
          "type": "address"
        },
        {
          "indexed": false,
          "name": "value",
          "type": "uint256"
        }
      ],
      "name": "Burn",
      "type": "event"
    },
    {
      "anonymous": false,
      "inputs": [
        {
          "indexed": true,
          "name": "to",
          "type": "address"
        },
        {
          "indexed": false,
          "name": "amount",
          "type": "uint256"
        }
      ],
      "name": "Mint",
      "type": "event"
    },
    {
      "anonymous": false,
      "inputs": [],
      "name": "MintFinished",
      "type": "event"
    },
    {
      "anonymous": false,
      "inputs": [
        {
          "indexed": false,
          "name": "previousOwner",
          "type": "address"
        },
        {
          "indexed": false,
          "name": "newOwner",
          "type": "address"
        }
      ],
      "name": "OwnershipTransferred",
      "type": "event"
    },
    {
      "anonymous": false,
      "inputs": [
        {
          "indexed": true,
          "name": "from",
          "type": "address"
        },
        {
          "indexed": true,
          "name": "to",
          "type": "address"
        },
        {
          "indexed": false,
          "name": "value",
          "type": "uint256"
        }
      ],
      "name": "Transfer",
      "type": "event"
    },
    {
      "anonymous": false,
      "inputs": [
        {
          "indexed": true,
          "name": "owner",
          "type": "address"
        },
        {
          "indexed": true,
          "name": "spender",
          "type": "address"
        },
        {
          "indexed": false,
          "name": "value",
          "type": "uint256"
        }
      ],
      "name": "Approval",
      "type": "event"
    },
    {
      "constant": false,
      "inputs": [
        {
          "name": "value",
          "type": "uint256"
        }
      ],
      "name": "burn",
      "outputs": [],
      "payable": false,
      "stateMutability": "nonpayable",
      "type": "function"
    }
  ],
  "bytecode": "0x608060405234801561001057600080fd5b50611e82806100206000396000f3006080604052600436106100e6576000357c0100000000000000000000000000000000000000000000000000000000900463ffffffff16806305d2035b146100eb578063095ea7b31461011a578063158ef93e1461016757806318160ddd1461019657806323b872dd146101c157806340c10f191461022e57806342966c681461027b57806366188463146102a857806370a08231146102f55780637d64bcb41461034c5780638da5cb5b14610363578063a9059cbb146103ba578063c4d66de814610407578063d73dd6231461044a578063dd62ed3e14610497578063f2fde38b1461050e575b600080fd5b3480156100f757600080fd5b50610100610551565b604051808215151515815260200191505060405180910390f35b34801561012657600080fd5b50610165600480360381019080803573ffffffffffffffffffffffffffffffffffffffff169060200190929190803590602001909291905050506105b6565b005b34801561017357600080fd5b5061017c61075e565b604051808215151515815260200191505060405180910390f35b3480156101a257600080fd5b506101ab6107c3565b6040518082815260200191505060405180910390f35b3480156101cd57600080fd5b5061022c600480360381019080803573ffffffffffffffffffffffffffffffffffffffff169060200190929190803573ffffffffffffffffffffffffffffffffffffffff1690602001909291908035906020019092919050505061081a565b005b34801561023a57600080fd5b50610279600480360381019080803573ffffffffffffffffffffffffffffffffffffffff16906020019092919080359060200190929190505050610cb5565b005b34801561028757600080fd5b506102a660048036038101908080359060200190929190505050610d66565b005b3480156102b457600080fd5b506102f3600480360381019080803573ffffffffffffffffffffffffffffffffffffffff16906020019092919080359060200190929190505050610f65565b005b34801561030157600080fd5b50610336600480360381019080803573ffffffffffffffffffffffffffffffffffffffff169060200190929190505050611164565b6040518082815260200191505060405180910390f35b34801561035857600080fd5b5061036161126e565b005b34801561036f57600080fd5b5061037861135a565b604051808273ffffffffffffffffffffffffffffffffffffffff1673ffffffffffffffffffffffffffffffffffffffff16815260200191505060405180910390f35b3480156103c657600080fd5b50610405600480360381019080803573ffffffffffffffffffffffffffffffffffffffff169060200190929190803590602001909291905050506113d2565b005b34801561041357600080fd5b50610448600480360381019080803573ffffffffffffffffffffffffffffffffffffffff1690602001909291905050506116e9565b005b34801561045657600080fd5b50610495600480360381019080803573ffffffffffffffffffffffffffffffffffffffff16906020019092919080359060200190929190505050611772565b005b3480156104a357600080fd5b506104f8600480360381019080803573ffffffffffffffffffffffffffffffffffffffff169060200190929190803573ffffffffffffffffffffffffffffffffffffffff16906020019092919050505061193e565b6040518082815260200191505060405180910390f35b34801561051a57600080fd5b5061054f600480360381019080803573ffffffffffffffffffffffffffffffffffffffff169060200190929190505050611a7d565b005b60006004600060405180807f6d696e74696e6746696e69736865640000000000000000000000000000000000815250600f01905060405180910390206000191660001916815260200190815260200160002060009054906101000a900460ff16905090565b6000338360405160200180806020018473ffffffffffffffffffffffffffffffffffffffff1673ffffffffffffffffffffffffffffffffffffffff1681526020018373ffffffffffffffffffffffffffffffffffffffff1673ffffffffffffffffffffffffffffffffffffffff168152602001828103825260098152602001807f616c6c6f77616e6365000000000000000000000000000000000000000000000081525060200193505050506040516020818303038152906040526040518082805190602001908083835b6020831015156106a65780518252602082019150602081019050602083039250610681565b6001836020036101000a03801982511681845116808217855250505050505090500191505060405180910390209050816000808360001916600019168152602001908152602001600020819055508273ffffffffffffffffffffffffffffffffffffffff163373ffffffffffffffffffffffffffffffffffffffff167f8c5be1e5ebec7d5bd14f71427d1e84f3dd0314c0f7b2291e5b200ac8c7c3b925846040518082815260200191505060405180910390a3505050565b60006004600060405180807f746f6b656e5f76315f696e697469616c697a6564000000000000000000000000815250601401905060405180910390206000191660001916815260200190815260200160002060009054906101000a900460ff16905090565b600080600060405180807f746f74616c537570706c79000000000000000000000000000000000000000000815250600b01905060405180910390206000191660001916815260200190815260200160002054905090565b60008060008460405160200180806020018373ffffffffffffffffffffffffffffffffffffffff1673ffffffffffffffffffffffffffffffffffffffff168152602001828103825260078152602001807f62616c616e636500000000000000000000000000000000000000000000000000815250602001925050506040516020818303038152906040526040518082805190602001908083835b6020831015156108d957805182526020820191506020810190506020830392506108b4565b6001836020036101000a038019825116818451168082178552505050505050905001915050604051809103902092508560405160200180806020018373ffffffffffffffffffffffffffffffffffffffff1673ffffffffffffffffffffffffffffffffffffffff168152602001828103825260078152602001807f62616c616e636500000000000000000000000000000000000000000000000000815250602001925050506040516020818303038152906040526040518082805190602001908083835b6020831015156109c2578051825260208201915060208101905060208303925061099d565b6001836020036101000a03801982511681845116808217855250505050505090500191505060405180910390209150853360405160200180806020018473ffffffffffffffffffffffffffffffffffffffff1673ffffffffffffffffffffffffffffffffffffffff1681526020018373ffffffffffffffffffffffffffffffffffffffff1673ffffffffffffffffffffffffffffffffffffffff168152602001828103825260098152602001807f616c6c6f77616e6365000000000000000000000000000000000000000000000081525060200193505050506040516020818303038152906040526040518082805190602001908083835b602083101515610adf5780518252602082019150602081019050602083039250610aba565b6001836020036101000a03801982511681845116808217855250505050505090500191505060405180910390209050600073ffffffffffffffffffffffffffffffffffffffff168573ffffffffffffffffffffffffffffffffffffffff1614151515610b4a57600080fd5b8360008084600019166000191681526020019081526020016000205410151515610b7357600080fd5b8360008083600019166000191681526020019081526020016000205410151515610b9c57600080fd5b610bb784610ba988611164565b611b0690919063ffffffff16565b600080846000191660001916815260200190815260200160002081905550610bf084610be287611164565b611b1f90919063ffffffff16565b600080856000191660001916815260200190815260200160002081905550610c2a84610c1c883361193e565b611b0690919063ffffffff16565b6000808360001916600019168152602001908152602001600020819055508473ffffffffffffffffffffffffffffffffffffffff168673ffffffffffffffffffffffffffffffffffffffff167fddf252ad1be2c89b69c2b068fc378daa952ba7f163c4a11628f55a4df523b3ef866040518082815260200191505060405180910390a3505050505050565b610cbd61135a565b73ffffffffffffffffffffffffffffffffffffffff163373ffffffffffffffffffffffffffffffffffffffff16141515610cf657600080fd5b610cfe610551565b151515610d0a57600080fd5b610d148282611b3b565b8173ffffffffffffffffffffffffffffffffffffffff167f0f6798a560793a54c3bcfe86a93cde1e73087d944c0ea20544137d4121396885826040518082815260200191505060405180910390a25050565b60008082610d7333611164565b10151515610d8057600080fd5b60405180807f746f74616c537570706c79000000000000000000000000000000000000000000815250600b019050604051809103902091503360405160200180806020018373ffffffffffffffffffffffffffffffffffffffff1673ffffffffffffffffffffffffffffffffffffffff168152602001828103825260078152602001807f62616c616e636500000000000000000000000000000000000000000000000000815250602001925050506040516020818303038152906040526040518082805190602001908083835b602083101515610e725780518252602082019150602081019050602083039250610e4d565b6001836020036101000a03801982511681845116808217855250505050505090500191505060405180910390209050610ebb83610ead6107c3565b611b0690919063ffffffff16565b600080846000191660001916815260200190815260200160002081905550610ef483610ee633611164565b611b0690919063ffffffff16565b6000808360001916600019168152602001908152602001600020819055503373ffffffffffffffffffffffffffffffffffffffff167fcc16f5dbb4873280815c1ee09dbd06736cffcc184412cf7a71a0fdb75d397ca5846040518082815260200191505060405180910390a2505050565b600080610f72338561193e565b9150338460405160200180806020018473ffffffffffffffffffffffffffffffffffffffff1673ffffffffffffffffffffffffffffffffffffffff1681526020018373ffffffffffffffffffffffffffffffffffffffff1673ffffffffffffffffffffffffffffffffffffffff168152602001828103825260098152602001807f616c6c6f77616e6365000000000000000000000000000000000000000000000081525060200193505050506040516020818303038152906040526040518082805190602001908083835b602083101515611062578051825260208201915060208101905060208303925061103d565b6001836020036101000a03801982511681845116808217855250505050505090500191505060405180910390209050818311156110be5760008060008360001916600019168152602001908152602001600020819055506110f0565b6110d18383611b0690919063ffffffff16565b6000808360001916600019168152602001908152602001600020819055505b8373ffffffffffffffffffffffffffffffffffffffff163373ffffffffffffffffffffffffffffffffffffffff167f8c5be1e5ebec7d5bd14f71427d1e84f3dd0314c0f7b2291e5b200ac8c7c3b925611149338861193e565b6040518082815260200191505060405180910390a350505050565b60008060008360405160200180806020018373ffffffffffffffffffffffffffffffffffffffff1673ffffffffffffffffffffffffffffffffffffffff168152602001828103825260078152602001807f62616c616e636500000000000000000000000000000000000000000000000000815250602001925050506040516020818303038152906040526040518082805190602001908083835b60208310151561122357805182526020820191506020810190506020830392506111fe565b6001836020036101000a038019825116818451168082178552505050505050905001915050604051809103902060001916600019168152602001908152602001600020549050919050565b61127661135a565b73ffffffffffffffffffffffffffffffffffffffff163373ffffffffffffffffffffffffffffffffffffffff161415156112af57600080fd5b6112b7610551565b1515156112c357600080fd5b60016004600060405180807f6d696e74696e6746696e69736865640000000000000000000000000000000000815250600f01905060405180910390206000191660001916815260200190815260200160002060006101000a81548160ff0219169083151502179055507fae5184fba832cb2b1f702aca6117b8d265eaf03ad33eb133f19dde0f5920fa0860405160405180910390a1565b60006002600060405180807f6f776e6572000000000000000000000000000000000000000000000000000000815250600501905060405180910390206000191660001916815260200190815260200160002060009054906101000a900473ffffffffffffffffffffffffffffffffffffffff16905090565b6000808360405160200180806020018373ffffffffffffffffffffffffffffffffffffffff1673ffffffffffffffffffffffffffffffffffffffff168152602001828103825260078152602001807f62616c616e636500000000000000000000000000000000000000000000000000815250602001925050506040516020818303038152906040526040518082805190602001908083835b60208310151561148f578051825260208201915060208101905060208303925061146a565b6001836020036101000a038019825116818451168082178552505050505050905001915050604051809103902091503360405160200180806020018373ffffffffffffffffffffffffffffffffffffffff1673ffffffffffffffffffffffffffffffffffffffff168152602001828103825260078152602001807f62616c616e636500000000000000000000000000000000000000000000000000815250602001925050506040516020818303038152906040526040518082805190602001908083835b6020831015156115785780518252602082019150602081019050602083039250611553565b6001836020036101000a03801982511681845116808217855250505050505090500191505060405180910390209050600073ffffffffffffffffffffffffffffffffffffffff168473ffffffffffffffffffffffffffffffffffffffff16141515156115e357600080fd5b826000808360001916600019168152602001908152602001600020541015151561160c57600080fd5b6116278361161933611164565b611b0690919063ffffffff16565b6000808360001916600019168152602001908152602001600020819055506116608361165286611164565b611b1f90919063ffffffff16565b6000808460001916600019168152602001908152602001600020819055508373ffffffffffffffffffffffffffffffffffffffff163373ffffffffffffffffffffffffffffffffffffffff167fddf252ad1be2c89b69c2b068fc378daa952ba7f163c4a11628f55a4df523b3ef856040518082815260200191505060405180910390a350505050565b6116f161075e565b1515156116fd57600080fd5b61170681611d26565b60016004600060405180807f746f6b656e5f76315f696e697469616c697a6564000000000000000000000000815250601401905060405180910390206000191660001916815260200190815260200160002060006101000a81548160ff02191690831515021790555050565b6000338360405160200180806020018473ffffffffffffffffffffffffffffffffffffffff1673ffffffffffffffffffffffffffffffffffffffff1681526020018373ffffffffffffffffffffffffffffffffffffffff1673ffffffffffffffffffffffffffffffffffffffff168152602001828103825260098152602001807f616c6c6f77616e6365000000000000000000000000000000000000000000000081525060200193505050506040516020818303038152906040526040518082805190602001908083835b602083101515611862578051825260208201915060208101905060208303925061183d565b6001836020036101000a038019825116818451168082178552505050505050905001915050604051809103902090506118ad8261189f338661193e565b611b1f90919063ffffffff16565b6000808360001916600019168152602001908152602001600020819055508273ffffffffffffffffffffffffffffffffffffffff163373ffffffffffffffffffffffffffffffffffffffff167f8c5be1e5ebec7d5bd14f71427d1e84f3dd0314c0f7b2291e5b200ac8c7c3b925611924338761193e565b6040518082815260200191505060405180910390a3505050565b6000806000848460405160200180806020018473ffffffffffffffffffffffffffffffffffffffff1673ffffffffffffffffffffffffffffffffffffffff1681526020018373ffffffffffffffffffffffffffffffffffffffff1673ffffffffffffffffffffffffffffffffffffffff168152602001828103825260098152602001807f616c6c6f77616e6365000000000000000000000000000000000000000000000081525060200193505050506040516020818303038152906040526040518082805190602001908083835b602083101515611a315780518252602082019150602081019050602083039250611a0c565b6001836020036101000a03801982511681845116808217855250505050505090500191505060405180910390206000191660001916815260200190815260200160002054905092915050565b611a8561135a565b73ffffffffffffffffffffffffffffffffffffffff163373ffffffffffffffffffffffffffffffffffffffff16141515611abe57600080fd5b600073ffffffffffffffffffffffffffffffffffffffff168173ffffffffffffffffffffffffffffffffffffffff1614151515611afa57600080fd5b611b0381611d26565b50565b6000828211151515611b1457fe5b818303905092915050565b60008183019050828110151515611b3257fe5b80905092915050565b6000808360405160200180806020018373ffffffffffffffffffffffffffffffffffffffff1673ffffffffffffffffffffffffffffffffffffffff168152602001828103825260078152602001807f62616c616e636500000000000000000000000000000000000000000000000000815250602001925050506040516020818303038152906040526040518082805190602001908083835b602083101515611bf85780518252602082019150602081019050602083039250611bd3565b6001836020036101000a0380198251168184511680821785525050505050509050019150506040518091039020915060405180807f746f74616c537570706c79000000000000000000000000000000000000000000815250600b01905060405180910390209050611c7a83611c6c86611164565b611b1f90919063ffffffff16565b600080846000191660001916815260200190815260200160002081905550611cb283611ca46107c3565b611b1f90919063ffffffff16565b6000808360001916600019168152602001908152602001600020819055508373ffffffffffffffffffffffffffffffffffffffff1660007fddf252ad1be2c89b69c2b068fc378daa952ba7f163c4a11628f55a4df523b3ef856040518082815260200191505060405180910390a350505050565b7f8be0079c531659141344cd1fd0a4f28419497f9722a3daafe3b4186f6b6457e0611d4f61135a565b82604051808373ffffffffffffffffffffffffffffffffffffffff1673ffffffffffffffffffffffffffffffffffffffff1681526020018273ffffffffffffffffffffffffffffffffffffffff1673ffffffffffffffffffffffffffffffffffffffff1681526020019250505060405180910390a1806002600060405180807f6f776e6572000000000000000000000000000000000000000000000000000000815250600501905060405180910390206000191660001916815260200190815260200160002060006101000a81548173ffffffffffffffffffffffffffffffffffffffff021916908373ffffffffffffffffffffffffffffffffffffffff160217905550505600a165627a7a723058201fead81578ffceb0c74fa3d65449710194c657e55ec175ee3ade92a9f48e7dad0029",
  "source": "pragma solidity ^0.4.23;\r\n\r\nimport './Token_V1.sol';\r\n\r\n/**\r\n * @title Token_V2\r\n * @dev Version 2 of a token to show upgradeability.\r\n * The idea here is to extend a token behaviour providing burnable functionalities\r\n * in addition to what's provided in version 1\r\n */\r\ncontract Token_V2 is Token_V1 {\r\n  event Burn(address indexed burner, uint256 value);\r\n\r\n  function burn(uint256 value) public {\r\n    require(balanceOf(msg.sender) >= value);\r\n    bytes32 totalSupplyHash = keccak256(\"totalSupply\");\r\n    bytes32 balanceSenderHash = keccak256(abi.encode(\"balance\", msg.sender));\r\n    uintStorage[totalSupplyHash] = totalSupply().sub(value);\r\n    uintStorage[balanceSenderHash] = balanceOf(msg.sender).sub(value);\r\n    emit Burn(msg.sender, value);\r\n  }\r\n}",
  "sourcePath": "C:\\Users\\npain\\Projects\\Carbon\\fiat_gateway\\contracts\\test\\Token_V2.sol",
  "compiler": {
    "name": "solc",
    "version": "0.4.24+commit.e67f0147.Emscripten.clang"
  },
  "schemaVersion": "2.0.1",
  "updatedAt": "2018-07-15T16:33:07.888Z"
}