{
  "contractName": "Token_V0",
  "abi": [
    {
      "anonymous": false,
      "inputs": [
        {
          "indexed": true,
          "name": "from",
          "type": "address"
        },
        {
          "indexed": true,
          "name": "to",
          "type": "address"
        },
        {
          "indexed": false,
          "name": "value",
          "type": "uint256"
        }
      ],
      "name": "Transfer",
      "type": "event"
    },
    {
      "anonymous": false,
      "inputs": [
        {
          "indexed": true,
          "name": "owner",
          "type": "address"
        },
        {
          "indexed": true,
          "name": "spender",
          "type": "address"
        },
        {
          "indexed": false,
          "name": "value",
          "type": "uint256"
        }
      ],
      "name": "Approval",
      "type": "event"
    },
    {
      "constant": true,
      "inputs": [],
      "name": "totalSupply",
      "outputs": [
        {
          "name": "",
          "type": "uint256"
        }
      ],
      "payable": false,
      "stateMutability": "view",
      "type": "function"
    },
    {
      "constant": true,
      "inputs": [
        {
          "name": "owner",
          "type": "address"
        }
      ],
      "name": "balanceOf",
      "outputs": [
        {
          "name": "",
          "type": "uint256"
        }
      ],
      "payable": false,
      "stateMutability": "view",
      "type": "function"
    },
    {
      "constant": true,
      "inputs": [
        {
          "name": "owner",
          "type": "address"
        },
        {
          "name": "spender",
          "type": "address"
        }
      ],
      "name": "allowance",
      "outputs": [
        {
          "name": "",
          "type": "uint256"
        }
      ],
      "payable": false,
      "stateMutability": "view",
      "type": "function"
    },
    {
      "constant": false,
      "inputs": [
        {
          "name": "to",
          "type": "address"
        },
        {
          "name": "value",
          "type": "uint256"
        }
      ],
      "name": "transfer",
      "outputs": [],
      "payable": false,
      "stateMutability": "nonpayable",
      "type": "function"
    },
    {
      "constant": false,
      "inputs": [
        {
          "name": "from",
          "type": "address"
        },
        {
          "name": "to",
          "type": "address"
        },
        {
          "name": "value",
          "type": "uint256"
        }
      ],
      "name": "transferFrom",
      "outputs": [],
      "payable": false,
      "stateMutability": "nonpayable",
      "type": "function"
    },
    {
      "constant": false,
      "inputs": [
        {
          "name": "spender",
          "type": "address"
        },
        {
          "name": "value",
          "type": "uint256"
        }
      ],
      "name": "approve",
      "outputs": [],
      "payable": false,
      "stateMutability": "nonpayable",
      "type": "function"
    },
    {
      "constant": false,
      "inputs": [
        {
          "name": "spender",
          "type": "address"
        },
        {
          "name": "addedValue",
          "type": "uint256"
        }
      ],
      "name": "increaseApproval",
      "outputs": [],
      "payable": false,
      "stateMutability": "nonpayable",
      "type": "function"
    },
    {
      "constant": false,
      "inputs": [
        {
          "name": "spender",
          "type": "address"
        },
        {
          "name": "subtractedValue",
          "type": "uint256"
        }
      ],
      "name": "decreaseApproval",
      "outputs": [],
      "payable": false,
      "stateMutability": "nonpayable",
      "type": "function"
    },
    {
      "constant": false,
      "inputs": [
        {
          "name": "to",
          "type": "address"
        },
        {
          "name": "value",
          "type": "uint256"
        }
      ],
      "name": "mint",
      "outputs": [],
      "payable": false,
      "stateMutability": "nonpayable",
      "type": "function"
    }
  ],
  "bytecode": "0x608060405234801561001057600080fd5b50611596806100206000396000f300608060405260043610610099576000357c0100000000000000000000000000000000000000000000000000000000900463ffffffff168063095ea7b31461009e57806318160ddd146100eb57806323b872dd1461011657806340c10f191461018357806366188463146101d057806370a082311461021d578063a9059cbb14610274578063d73dd623146102c1578063dd62ed3e1461030e575b600080fd5b3480156100aa57600080fd5b506100e9600480360381019080803573ffffffffffffffffffffffffffffffffffffffff16906020019092919080359060200190929190505050610385565b005b3480156100f757600080fd5b5061010061052d565b6040518082815260200191505060405180910390f35b34801561012257600080fd5b50610181600480360381019080803573ffffffffffffffffffffffffffffffffffffffff169060200190929190803573ffffffffffffffffffffffffffffffffffffffff16906020019092919080359060200190929190505050610584565b005b34801561018f57600080fd5b506101ce600480360381019080803573ffffffffffffffffffffffffffffffffffffffff16906020019092919080359060200190929190505050610a1f565b005b3480156101dc57600080fd5b5061021b600480360381019080803573ffffffffffffffffffffffffffffffffffffffff16906020019092919080359060200190929190505050610c0a565b005b34801561022957600080fd5b5061025e600480360381019080803573ffffffffffffffffffffffffffffffffffffffff169060200190929190505050610e09565b6040518082815260200191505060405180910390f35b34801561028057600080fd5b506102bf600480360381019080803573ffffffffffffffffffffffffffffffffffffffff16906020019092919080359060200190929190505050610f13565b005b3480156102cd57600080fd5b5061030c600480360381019080803573ffffffffffffffffffffffffffffffffffffffff1690602001909291908035906020019092919050505061122a565b005b34801561031a57600080fd5b5061036f600480360381019080803573ffffffffffffffffffffffffffffffffffffffff169060200190929190803573ffffffffffffffffffffffffffffffffffffffff1690602001909291905050506113f6565b6040518082815260200191505060405180910390f35b6000338360405160200180806020018473ffffffffffffffffffffffffffffffffffffffff1673ffffffffffffffffffffffffffffffffffffffff1681526020018373ffffffffffffffffffffffffffffffffffffffff1673ffffffffffffffffffffffffffffffffffffffff168152602001828103825260098152602001807f616c6c6f77616e6365000000000000000000000000000000000000000000000081525060200193505050506040516020818303038152906040526040518082805190602001908083835b6020831015156104755780518252602082019150602081019050602083039250610450565b6001836020036101000a03801982511681845116808217855250505050505090500191505060405180910390209050816000808360001916600019168152602001908152602001600020819055508273ffffffffffffffffffffffffffffffffffffffff163373ffffffffffffffffffffffffffffffffffffffff167f8c5be1e5ebec7d5bd14f71427d1e84f3dd0314c0f7b2291e5b200ac8c7c3b925846040518082815260200191505060405180910390a3505050565b600080600060405180807f746f74616c537570706c79000000000000000000000000000000000000000000815250600b01905060405180910390206000191660001916815260200190815260200160002054905090565b60008060008460405160200180806020018373ffffffffffffffffffffffffffffffffffffffff1673ffffffffffffffffffffffffffffffffffffffff168152602001828103825260078152602001807f62616c616e636500000000000000000000000000000000000000000000000000815250602001925050506040516020818303038152906040526040518082805190602001908083835b602083101515610643578051825260208201915060208101905060208303925061061e565b6001836020036101000a038019825116818451168082178552505050505050905001915050604051809103902092508560405160200180806020018373ffffffffffffffffffffffffffffffffffffffff1673ffffffffffffffffffffffffffffffffffffffff168152602001828103825260078152602001807f62616c616e636500000000000000000000000000000000000000000000000000815250602001925050506040516020818303038152906040526040518082805190602001908083835b60208310151561072c5780518252602082019150602081019050602083039250610707565b6001836020036101000a03801982511681845116808217855250505050505090500191505060405180910390209150853360405160200180806020018473ffffffffffffffffffffffffffffffffffffffff1673ffffffffffffffffffffffffffffffffffffffff1681526020018373ffffffffffffffffffffffffffffffffffffffff1673ffffffffffffffffffffffffffffffffffffffff168152602001828103825260098152602001807f616c6c6f77616e6365000000000000000000000000000000000000000000000081525060200193505050506040516020818303038152906040526040518082805190602001908083835b6020831015156108495780518252602082019150602081019050602083039250610824565b6001836020036101000a03801982511681845116808217855250505050505090500191505060405180910390209050600073ffffffffffffffffffffffffffffffffffffffff168573ffffffffffffffffffffffffffffffffffffffff16141515156108b457600080fd5b83600080846000191660001916815260200190815260200160002054101515156108dd57600080fd5b836000808360001916600019168152602001908152602001600020541015151561090657600080fd5b6109218461091388610e09565b61153590919063ffffffff16565b60008084600019166000191681526020019081526020016000208190555061095a8461094c87610e09565b61154e90919063ffffffff16565b6000808560001916600019168152602001908152602001600020819055506109948461098688336113f6565b61153590919063ffffffff16565b6000808360001916600019168152602001908152602001600020819055508473ffffffffffffffffffffffffffffffffffffffff168673ffffffffffffffffffffffffffffffffffffffff167fddf252ad1be2c89b69c2b068fc378daa952ba7f163c4a11628f55a4df523b3ef866040518082815260200191505060405180910390a3505050505050565b6000808360405160200180806020018373ffffffffffffffffffffffffffffffffffffffff1673ffffffffffffffffffffffffffffffffffffffff168152602001828103825260078152602001807f62616c616e636500000000000000000000000000000000000000000000000000815250602001925050506040516020818303038152906040526040518082805190602001908083835b602083101515610adc5780518252602082019150602081019050602083039250610ab7565b6001836020036101000a0380198251168184511680821785525050505050509050019150506040518091039020915060405180807f746f74616c537570706c79000000000000000000000000000000000000000000815250600b01905060405180910390209050610b5e83610b5086610e09565b61154e90919063ffffffff16565b600080846000191660001916815260200190815260200160002081905550610b9683610b8861052d565b61154e90919063ffffffff16565b6000808360001916600019168152602001908152602001600020819055508373ffffffffffffffffffffffffffffffffffffffff1660007fddf252ad1be2c89b69c2b068fc378daa952ba7f163c4a11628f55a4df523b3ef856040518082815260200191505060405180910390a350505050565b600080610c1733856113f6565b9150338460405160200180806020018473ffffffffffffffffffffffffffffffffffffffff1673ffffffffffffffffffffffffffffffffffffffff1681526020018373ffffffffffffffffffffffffffffffffffffffff1673ffffffffffffffffffffffffffffffffffffffff168152602001828103825260098152602001807f616c6c6f77616e6365000000000000000000000000000000000000000000000081525060200193505050506040516020818303038152906040526040518082805190602001908083835b602083101515610d075780518252602082019150602081019050602083039250610ce2565b6001836020036101000a0380198251168184511680821785525050505050509050019150506040518091039020905081831115610d63576000806000836000191660001916815260200190815260200160002081905550610d95565b610d76838361153590919063ffffffff16565b6000808360001916600019168152602001908152602001600020819055505b8373ffffffffffffffffffffffffffffffffffffffff163373ffffffffffffffffffffffffffffffffffffffff167f8c5be1e5ebec7d5bd14f71427d1e84f3dd0314c0f7b2291e5b200ac8c7c3b925610dee33886113f6565b6040518082815260200191505060405180910390a350505050565b60008060008360405160200180806020018373ffffffffffffffffffffffffffffffffffffffff1673ffffffffffffffffffffffffffffffffffffffff168152602001828103825260078152602001807f62616c616e636500000000000000000000000000000000000000000000000000815250602001925050506040516020818303038152906040526040518082805190602001908083835b602083101515610ec85780518252602082019150602081019050602083039250610ea3565b6001836020036101000a038019825116818451168082178552505050505050905001915050604051809103902060001916600019168152602001908152602001600020549050919050565b6000808360405160200180806020018373ffffffffffffffffffffffffffffffffffffffff1673ffffffffffffffffffffffffffffffffffffffff168152602001828103825260078152602001807f62616c616e636500000000000000000000000000000000000000000000000000815250602001925050506040516020818303038152906040526040518082805190602001908083835b602083101515610fd05780518252602082019150602081019050602083039250610fab565b6001836020036101000a038019825116818451168082178552505050505050905001915050604051809103902091503360405160200180806020018373ffffffffffffffffffffffffffffffffffffffff1673ffffffffffffffffffffffffffffffffffffffff168152602001828103825260078152602001807f62616c616e636500000000000000000000000000000000000000000000000000815250602001925050506040516020818303038152906040526040518082805190602001908083835b6020831015156110b95780518252602082019150602081019050602083039250611094565b6001836020036101000a03801982511681845116808217855250505050505090500191505060405180910390209050600073ffffffffffffffffffffffffffffffffffffffff168473ffffffffffffffffffffffffffffffffffffffff161415151561112457600080fd5b826000808360001916600019168152602001908152602001600020541015151561114d57600080fd5b6111688361115a33610e09565b61153590919063ffffffff16565b6000808360001916600019168152602001908152602001600020819055506111a18361119386610e09565b61154e90919063ffffffff16565b6000808460001916600019168152602001908152602001600020819055508373ffffffffffffffffffffffffffffffffffffffff163373ffffffffffffffffffffffffffffffffffffffff167fddf252ad1be2c89b69c2b068fc378daa952ba7f163c4a11628f55a4df523b3ef856040518082815260200191505060405180910390a350505050565b6000338360405160200180806020018473ffffffffffffffffffffffffffffffffffffffff1673ffffffffffffffffffffffffffffffffffffffff1681526020018373ffffffffffffffffffffffffffffffffffffffff1673ffffffffffffffffffffffffffffffffffffffff168152602001828103825260098152602001807f616c6c6f77616e6365000000000000000000000000000000000000000000000081525060200193505050506040516020818303038152906040526040518082805190602001908083835b60208310151561131a57805182526020820191506020810190506020830392506112f5565b6001836020036101000a038019825116818451168082178552505050505050905001915050604051809103902090506113658261135733866113f6565b61154e90919063ffffffff16565b6000808360001916600019168152602001908152602001600020819055508273ffffffffffffffffffffffffffffffffffffffff163373ffffffffffffffffffffffffffffffffffffffff167f8c5be1e5ebec7d5bd14f71427d1e84f3dd0314c0f7b2291e5b200ac8c7c3b9256113dc33876113f6565b6040518082815260200191505060405180910390a3505050565b6000806000848460405160200180806020018473ffffffffffffffffffffffffffffffffffffffff1673ffffffffffffffffffffffffffffffffffffffff1681526020018373ffffffffffffffffffffffffffffffffffffffff1673ffffffffffffffffffffffffffffffffffffffff168152602001828103825260098152602001807f616c6c6f77616e6365000000000000000000000000000000000000000000000081525060200193505050506040516020818303038152906040526040518082805190602001908083835b6020831015156114e957805182526020820191506020810190506020830392506114c4565b6001836020036101000a03801982511681845116808217855250505050505090500191505060405180910390206000191660001916815260200190815260200160002054905092915050565b600082821115151561154357fe5b818303905092915050565b6000818301905082811015151561156157fe5b809050929150505600a165627a7a72305820e0ddff40f5a13db481f572cbf165fe103e9e32d5ed79862c482df54786dd1c710029",
  "source": "pragma solidity ^0.4.23;\r\n\r\nimport '../eternalStorage/EternalStorage.sol';\r\nimport 'openzeppelin-solidity/contracts/math/SafeMath.sol';\r\n\r\n/**\r\n * @title Token_V0\r\n * @dev Version 0 of a token to show upgradeability.\r\n */\r\ncontract Token_V0 is EternalStorage {\r\n  using SafeMath for uint256;\r\n\r\n  event Transfer(address indexed from, address indexed to, uint256 value);\r\n  event Approval(address indexed owner, address indexed spender, uint256 value);\r\n\r\n  function totalSupply() public view returns (uint256) {\r\n    return uintStorage[keccak256(\"totalSupply\")];\r\n  }\r\n\r\n  function balanceOf(address owner) public view returns (uint256) {\r\n    return uintStorage[keccak256(abi.encode(\"balance\", owner))];\r\n  }\r\n\r\n  function allowance(address owner, address spender) public view returns (uint256) {\r\n    return uintStorage[keccak256(abi.encode(\"allowance\", owner, spender))];\r\n  }\r\n\r\n  function transfer(address to, uint256 value) public {\r\n    bytes32 balanceToHash = keccak256(abi.encode(\"balance\", to));\r\n    bytes32 balanceSenderHash = keccak256(abi.encode(\"balance\", msg.sender));\r\n\r\n    require(to != address(0));\r\n    require(uintStorage[balanceSenderHash] >= value);\r\n\r\n    uintStorage[balanceSenderHash] = balanceOf(msg.sender).sub(value);\r\n    uintStorage[balanceToHash] = balanceOf(to).add(value);\r\n    emit Transfer(msg.sender, to, value);\r\n  }\r\n\r\n  function transferFrom(address from, address to, uint256 value) public {\r\n    bytes32 balanceToHash = keccak256(abi.encode(\"balance\", to));\r\n    bytes32 balanceFromHash = keccak256(abi.encode(\"balance\", from));\r\n    bytes32 allowanceFromToSenderHash = keccak256(abi.encode(\"allowance\", from, msg.sender));\r\n\r\n    require(to != address(0));\r\n    require(uintStorage[balanceFromHash] >= value );\r\n    require(uintStorage[allowanceFromToSenderHash] >= value);\r\n\r\n    uintStorage[balanceFromHash] = balanceOf(from).sub(value);\r\n    uintStorage[balanceToHash] = balanceOf(to).add(value);\r\n    uintStorage[allowanceFromToSenderHash] = allowance(from, msg.sender).sub(value);\r\n    emit Transfer(from, to, value);\r\n  }\r\n\r\n  function approve(address spender, uint256 value) public {\r\n    bytes32 allowanceSenderToSpenderHash = keccak256(abi.encode(\"allowance\", msg.sender, spender));\r\n    uintStorage[allowanceSenderToSpenderHash] = value;\r\n    emit Approval(msg.sender, spender, value);\r\n  }\r\n\r\n  function increaseApproval(address spender, uint256 addedValue) public {\r\n    bytes32 allowanceSenderToSpenderHash = keccak256(abi.encode(\"allowance\", msg.sender, spender));\r\n    uintStorage[allowanceSenderToSpenderHash] = allowance(msg.sender, spender).add(addedValue);\r\n    emit Approval(msg.sender, spender, allowance(msg.sender, spender));\r\n  }\r\n\r\n  function decreaseApproval(address spender, uint256 subtractedValue) public {\r\n    uint256 oldValue = allowance(msg.sender, spender);\r\n    bytes32 allowanceSenderToSpenderHash = keccak256(abi.encode(\"allowance\", msg.sender, spender));\r\n    if (subtractedValue > oldValue) {\r\n      uintStorage[allowanceSenderToSpenderHash] = 0;\r\n    } else {\r\n      uintStorage[allowanceSenderToSpenderHash] = oldValue.sub(subtractedValue);\r\n    }\r\n    emit Approval(msg.sender, spender, allowance(msg.sender, spender));\r\n  }\r\n\r\n  function mint(address to, uint256 value) public {\r\n    bytes32 balanceToHash = keccak256(abi.encode(\"balance\", to));\r\n    bytes32 totalSupplyHash = keccak256(\"totalSupply\");\r\n\r\n    uintStorage[balanceToHash] = balanceOf(to).add(value);\r\n    uintStorage[totalSupplyHash] = totalSupply().add(value);\r\n    emit Transfer(0x0, to, value);\r\n  }\r\n}",
  "sourcePath": "C:\\Users\\npain\\Projects\\Carbon\\fiat_gateway\\contracts\\test\\Token_V0.sol",
  "compiler": {
    "name": "solc",
    "version": "0.4.24+commit.e67f0147.Emscripten.clang"
  },
  "schemaVersion": "2.0.1",
  "updatedAt": "2018-07-15T16:33:07.895Z"
}