{
  "contractName": "Token_V1",
  "abi": [
    {
      "constant": false,
      "inputs": [
        {
          "name": "spender",
          "type": "address"
        },
        {
          "name": "value",
          "type": "uint256"
        }
      ],
      "name": "approve",
      "outputs": [],
      "payable": false,
      "stateMutability": "nonpayable",
      "type": "function"
    },
    {
      "constant": true,
      "inputs": [],
      "name": "totalSupply",
      "outputs": [
        {
          "name": "",
          "type": "uint256"
        }
      ],
      "payable": false,
      "stateMutability": "view",
      "type": "function"
    },
    {
      "constant": false,
      "inputs": [
        {
          "name": "from",
          "type": "address"
        },
        {
          "name": "to",
          "type": "address"
        },
        {
          "name": "value",
          "type": "uint256"
        }
      ],
      "name": "transferFrom",
      "outputs": [],
      "payable": false,
      "stateMutability": "nonpayable",
      "type": "function"
    },
    {
      "constant": false,
      "inputs": [
        {
          "name": "spender",
          "type": "address"
        },
        {
          "name": "subtractedValue",
          "type": "uint256"
        }
      ],
      "name": "decreaseApproval",
      "outputs": [],
      "payable": false,
      "stateMutability": "nonpayable",
      "type": "function"
    },
    {
      "constant": true,
      "inputs": [
        {
          "name": "owner",
          "type": "address"
        }
      ],
      "name": "balanceOf",
      "outputs": [
        {
          "name": "",
          "type": "uint256"
        }
      ],
      "payable": false,
      "stateMutability": "view",
      "type": "function"
    },
    {
      "constant": true,
      "inputs": [],
      "name": "owner",
      "outputs": [
        {
          "name": "",
          "type": "address"
        }
      ],
      "payable": false,
      "stateMutability": "view",
      "type": "function"
    },
    {
      "constant": false,
      "inputs": [
        {
          "name": "to",
          "type": "address"
        },
        {
          "name": "value",
          "type": "uint256"
        }
      ],
      "name": "transfer",
      "outputs": [],
      "payable": false,
      "stateMutability": "nonpayable",
      "type": "function"
    },
    {
      "constant": false,
      "inputs": [
        {
          "name": "spender",
          "type": "address"
        },
        {
          "name": "addedValue",
          "type": "uint256"
        }
      ],
      "name": "increaseApproval",
      "outputs": [],
      "payable": false,
      "stateMutability": "nonpayable",
      "type": "function"
    },
    {
      "constant": true,
      "inputs": [
        {
          "name": "owner",
          "type": "address"
        },
        {
          "name": "spender",
          "type": "address"
        }
      ],
      "name": "allowance",
      "outputs": [
        {
          "name": "",
          "type": "uint256"
        }
      ],
      "payable": false,
      "stateMutability": "view",
      "type": "function"
    },
    {
      "constant": false,
      "inputs": [
        {
          "name": "newOwner",
          "type": "address"
        }
      ],
      "name": "transferOwnership",
      "outputs": [],
      "payable": false,
      "stateMutability": "nonpayable",
      "type": "function"
    },
    {
      "anonymous": false,
      "inputs": [
        {
          "indexed": true,
          "name": "to",
          "type": "address"
        },
        {
          "indexed": false,
          "name": "amount",
          "type": "uint256"
        }
      ],
      "name": "Mint",
      "type": "event"
    },
    {
      "anonymous": false,
      "inputs": [],
      "name": "MintFinished",
      "type": "event"
    },
    {
      "anonymous": false,
      "inputs": [
        {
          "indexed": false,
          "name": "previousOwner",
          "type": "address"
        },
        {
          "indexed": false,
          "name": "newOwner",
          "type": "address"
        }
      ],
      "name": "OwnershipTransferred",
      "type": "event"
    },
    {
      "anonymous": false,
      "inputs": [
        {
          "indexed": true,
          "name": "from",
          "type": "address"
        },
        {
          "indexed": true,
          "name": "to",
          "type": "address"
        },
        {
          "indexed": false,
          "name": "value",
          "type": "uint256"
        }
      ],
      "name": "Transfer",
      "type": "event"
    },
    {
      "anonymous": false,
      "inputs": [
        {
          "indexed": true,
          "name": "owner",
          "type": "address"
        },
        {
          "indexed": true,
          "name": "spender",
          "type": "address"
        },
        {
          "indexed": false,
          "name": "value",
          "type": "uint256"
        }
      ],
      "name": "Approval",
      "type": "event"
    },
    {
      "constant": false,
      "inputs": [
        {
          "name": "owner",
          "type": "address"
        }
      ],
      "name": "initialize",
      "outputs": [],
      "payable": false,
      "stateMutability": "nonpayable",
      "type": "function"
    },
    {
      "constant": true,
      "inputs": [],
      "name": "initialized",
      "outputs": [
        {
          "name": "",
          "type": "bool"
        }
      ],
      "payable": false,
      "stateMutability": "view",
      "type": "function"
    },
    {
      "constant": true,
      "inputs": [],
      "name": "mintingFinished",
      "outputs": [
        {
          "name": "",
          "type": "bool"
        }
      ],
      "payable": false,
      "stateMutability": "view",
      "type": "function"
    },
    {
      "constant": false,
      "inputs": [
        {
          "name": "to",
          "type": "address"
        },
        {
          "name": "value",
          "type": "uint256"
        }
      ],
      "name": "mint",
      "outputs": [],
      "payable": false,
      "stateMutability": "nonpayable",
      "type": "function"
    },
    {
      "constant": false,
      "inputs": [],
      "name": "finishMinting",
      "outputs": [],
      "payable": false,
      "stateMutability": "nonpayable",
      "type": "function"
    }
  ],
  "bytecode": "0x608060405234801561001057600080fd5b50611c4b806100206000396000f3006080604052600436106100db576000357c0100000000000000000000000000000000000000000000000000000000900463ffffffff16806305d2035b146100e0578063095ea7b31461010f578063158ef93e1461015c57806318160ddd1461018b57806323b872dd146101b657806340c10f1914610223578063661884631461027057806370a08231146102bd5780637d64bcb4146103145780638da5cb5b1461032b578063a9059cbb14610382578063c4d66de8146103cf578063d73dd62314610412578063dd62ed3e1461045f578063f2fde38b146104d6575b600080fd5b3480156100ec57600080fd5b506100f5610519565b604051808215151515815260200191505060405180910390f35b34801561011b57600080fd5b5061015a600480360381019080803573ffffffffffffffffffffffffffffffffffffffff1690602001909291908035906020019092919050505061057e565b005b34801561016857600080fd5b50610171610726565b604051808215151515815260200191505060405180910390f35b34801561019757600080fd5b506101a061078b565b6040518082815260200191505060405180910390f35b3480156101c257600080fd5b50610221600480360381019080803573ffffffffffffffffffffffffffffffffffffffff169060200190929190803573ffffffffffffffffffffffffffffffffffffffff169060200190929190803590602001909291905050506107e2565b005b34801561022f57600080fd5b5061026e600480360381019080803573ffffffffffffffffffffffffffffffffffffffff16906020019092919080359060200190929190505050610c7d565b005b34801561027c57600080fd5b506102bb600480360381019080803573ffffffffffffffffffffffffffffffffffffffff16906020019092919080359060200190929190505050610d2e565b005b3480156102c957600080fd5b506102fe600480360381019080803573ffffffffffffffffffffffffffffffffffffffff169060200190929190505050610f2d565b6040518082815260200191505060405180910390f35b34801561032057600080fd5b50610329611037565b005b34801561033757600080fd5b50610340611123565b604051808273ffffffffffffffffffffffffffffffffffffffff1673ffffffffffffffffffffffffffffffffffffffff16815260200191505060405180910390f35b34801561038e57600080fd5b506103cd600480360381019080803573ffffffffffffffffffffffffffffffffffffffff1690602001909291908035906020019092919050505061119b565b005b3480156103db57600080fd5b50610410600480360381019080803573ffffffffffffffffffffffffffffffffffffffff1690602001909291905050506114b2565b005b34801561041e57600080fd5b5061045d600480360381019080803573ffffffffffffffffffffffffffffffffffffffff1690602001909291908035906020019092919050505061153b565b005b34801561046b57600080fd5b506104c0600480360381019080803573ffffffffffffffffffffffffffffffffffffffff169060200190929190803573ffffffffffffffffffffffffffffffffffffffff169060200190929190505050611707565b6040518082815260200191505060405180910390f35b3480156104e257600080fd5b50610517600480360381019080803573ffffffffffffffffffffffffffffffffffffffff169060200190929190505050611846565b005b60006004600060405180807f6d696e74696e6746696e69736865640000000000000000000000000000000000815250600f01905060405180910390206000191660001916815260200190815260200160002060009054906101000a900460ff16905090565b6000338360405160200180806020018473ffffffffffffffffffffffffffffffffffffffff1673ffffffffffffffffffffffffffffffffffffffff1681526020018373ffffffffffffffffffffffffffffffffffffffff1673ffffffffffffffffffffffffffffffffffffffff168152602001828103825260098152602001807f616c6c6f77616e6365000000000000000000000000000000000000000000000081525060200193505050506040516020818303038152906040526040518082805190602001908083835b60208310151561066e5780518252602082019150602081019050602083039250610649565b6001836020036101000a03801982511681845116808217855250505050505090500191505060405180910390209050816000808360001916600019168152602001908152602001600020819055508273ffffffffffffffffffffffffffffffffffffffff163373ffffffffffffffffffffffffffffffffffffffff167f8c5be1e5ebec7d5bd14f71427d1e84f3dd0314c0f7b2291e5b200ac8c7c3b925846040518082815260200191505060405180910390a3505050565b60006004600060405180807f746f6b656e5f76315f696e697469616c697a6564000000000000000000000000815250601401905060405180910390206000191660001916815260200190815260200160002060009054906101000a900460ff16905090565b600080600060405180807f746f74616c537570706c79000000000000000000000000000000000000000000815250600b01905060405180910390206000191660001916815260200190815260200160002054905090565b60008060008460405160200180806020018373ffffffffffffffffffffffffffffffffffffffff1673ffffffffffffffffffffffffffffffffffffffff168152602001828103825260078152602001807f62616c616e636500000000000000000000000000000000000000000000000000815250602001925050506040516020818303038152906040526040518082805190602001908083835b6020831015156108a1578051825260208201915060208101905060208303925061087c565b6001836020036101000a038019825116818451168082178552505050505050905001915050604051809103902092508560405160200180806020018373ffffffffffffffffffffffffffffffffffffffff1673ffffffffffffffffffffffffffffffffffffffff168152602001828103825260078152602001807f62616c616e636500000000000000000000000000000000000000000000000000815250602001925050506040516020818303038152906040526040518082805190602001908083835b60208310151561098a5780518252602082019150602081019050602083039250610965565b6001836020036101000a03801982511681845116808217855250505050505090500191505060405180910390209150853360405160200180806020018473ffffffffffffffffffffffffffffffffffffffff1673ffffffffffffffffffffffffffffffffffffffff1681526020018373ffffffffffffffffffffffffffffffffffffffff1673ffffffffffffffffffffffffffffffffffffffff168152602001828103825260098152602001807f616c6c6f77616e6365000000000000000000000000000000000000000000000081525060200193505050506040516020818303038152906040526040518082805190602001908083835b602083101515610aa75780518252602082019150602081019050602083039250610a82565b6001836020036101000a03801982511681845116808217855250505050505090500191505060405180910390209050600073ffffffffffffffffffffffffffffffffffffffff168573ffffffffffffffffffffffffffffffffffffffff1614151515610b1257600080fd5b8360008084600019166000191681526020019081526020016000205410151515610b3b57600080fd5b8360008083600019166000191681526020019081526020016000205410151515610b6457600080fd5b610b7f84610b7188610f2d565b6118cf90919063ffffffff16565b600080846000191660001916815260200190815260200160002081905550610bb884610baa87610f2d565b6118e890919063ffffffff16565b600080856000191660001916815260200190815260200160002081905550610bf284610be48833611707565b6118cf90919063ffffffff16565b6000808360001916600019168152602001908152602001600020819055508473ffffffffffffffffffffffffffffffffffffffff168673ffffffffffffffffffffffffffffffffffffffff167fddf252ad1be2c89b69c2b068fc378daa952ba7f163c4a11628f55a4df523b3ef866040518082815260200191505060405180910390a3505050505050565b610c85611123565b73ffffffffffffffffffffffffffffffffffffffff163373ffffffffffffffffffffffffffffffffffffffff16141515610cbe57600080fd5b610cc6610519565b151515610cd257600080fd5b610cdc8282611904565b8173ffffffffffffffffffffffffffffffffffffffff167f0f6798a560793a54c3bcfe86a93cde1e73087d944c0ea20544137d4121396885826040518082815260200191505060405180910390a25050565b600080610d3b3385611707565b9150338460405160200180806020018473ffffffffffffffffffffffffffffffffffffffff1673ffffffffffffffffffffffffffffffffffffffff1681526020018373ffffffffffffffffffffffffffffffffffffffff1673ffffffffffffffffffffffffffffffffffffffff168152602001828103825260098152602001807f616c6c6f77616e6365000000000000000000000000000000000000000000000081525060200193505050506040516020818303038152906040526040518082805190602001908083835b602083101515610e2b5780518252602082019150602081019050602083039250610e06565b6001836020036101000a0380198251168184511680821785525050505050509050019150506040518091039020905081831115610e87576000806000836000191660001916815260200190815260200160002081905550610eb9565b610e9a83836118cf90919063ffffffff16565b6000808360001916600019168152602001908152602001600020819055505b8373ffffffffffffffffffffffffffffffffffffffff163373ffffffffffffffffffffffffffffffffffffffff167f8c5be1e5ebec7d5bd14f71427d1e84f3dd0314c0f7b2291e5b200ac8c7c3b925610f123388611707565b6040518082815260200191505060405180910390a350505050565b60008060008360405160200180806020018373ffffffffffffffffffffffffffffffffffffffff1673ffffffffffffffffffffffffffffffffffffffff168152602001828103825260078152602001807f62616c616e636500000000000000000000000000000000000000000000000000815250602001925050506040516020818303038152906040526040518082805190602001908083835b602083101515610fec5780518252602082019150602081019050602083039250610fc7565b6001836020036101000a038019825116818451168082178552505050505050905001915050604051809103902060001916600019168152602001908152602001600020549050919050565b61103f611123565b73ffffffffffffffffffffffffffffffffffffffff163373ffffffffffffffffffffffffffffffffffffffff1614151561107857600080fd5b611080610519565b15151561108c57600080fd5b60016004600060405180807f6d696e74696e6746696e69736865640000000000000000000000000000000000815250600f01905060405180910390206000191660001916815260200190815260200160002060006101000a81548160ff0219169083151502179055507fae5184fba832cb2b1f702aca6117b8d265eaf03ad33eb133f19dde0f5920fa0860405160405180910390a1565b60006002600060405180807f6f776e6572000000000000000000000000000000000000000000000000000000815250600501905060405180910390206000191660001916815260200190815260200160002060009054906101000a900473ffffffffffffffffffffffffffffffffffffffff16905090565b6000808360405160200180806020018373ffffffffffffffffffffffffffffffffffffffff1673ffffffffffffffffffffffffffffffffffffffff168152602001828103825260078152602001807f62616c616e636500000000000000000000000000000000000000000000000000815250602001925050506040516020818303038152906040526040518082805190602001908083835b6020831015156112585780518252602082019150602081019050602083039250611233565b6001836020036101000a038019825116818451168082178552505050505050905001915050604051809103902091503360405160200180806020018373ffffffffffffffffffffffffffffffffffffffff1673ffffffffffffffffffffffffffffffffffffffff168152602001828103825260078152602001807f62616c616e636500000000000000000000000000000000000000000000000000815250602001925050506040516020818303038152906040526040518082805190602001908083835b602083101515611341578051825260208201915060208101905060208303925061131c565b6001836020036101000a03801982511681845116808217855250505050505090500191505060405180910390209050600073ffffffffffffffffffffffffffffffffffffffff168473ffffffffffffffffffffffffffffffffffffffff16141515156113ac57600080fd5b82600080836000191660001916815260200190815260200160002054101515156113d557600080fd5b6113f0836113e233610f2d565b6118cf90919063ffffffff16565b6000808360001916600019168152602001908152602001600020819055506114298361141b86610f2d565b6118e890919063ffffffff16565b6000808460001916600019168152602001908152602001600020819055508373ffffffffffffffffffffffffffffffffffffffff163373ffffffffffffffffffffffffffffffffffffffff167fddf252ad1be2c89b69c2b068fc378daa952ba7f163c4a11628f55a4df523b3ef856040518082815260200191505060405180910390a350505050565b6114ba610726565b1515156114c657600080fd5b6114cf81611aef565b60016004600060405180807f746f6b656e5f76315f696e697469616c697a6564000000000000000000000000815250601401905060405180910390206000191660001916815260200190815260200160002060006101000a81548160ff02191690831515021790555050565b6000338360405160200180806020018473ffffffffffffffffffffffffffffffffffffffff1673ffffffffffffffffffffffffffffffffffffffff1681526020018373ffffffffffffffffffffffffffffffffffffffff1673ffffffffffffffffffffffffffffffffffffffff168152602001828103825260098152602001807f616c6c6f77616e6365000000000000000000000000000000000000000000000081525060200193505050506040516020818303038152906040526040518082805190602001908083835b60208310151561162b5780518252602082019150602081019050602083039250611606565b6001836020036101000a03801982511681845116808217855250505050505090500191505060405180910390209050611676826116683386611707565b6118e890919063ffffffff16565b6000808360001916600019168152602001908152602001600020819055508273ffffffffffffffffffffffffffffffffffffffff163373ffffffffffffffffffffffffffffffffffffffff167f8c5be1e5ebec7d5bd14f71427d1e84f3dd0314c0f7b2291e5b200ac8c7c3b9256116ed3387611707565b6040518082815260200191505060405180910390a3505050565b6000806000848460405160200180806020018473ffffffffffffffffffffffffffffffffffffffff1673ffffffffffffffffffffffffffffffffffffffff1681526020018373ffffffffffffffffffffffffffffffffffffffff1673ffffffffffffffffffffffffffffffffffffffff168152602001828103825260098152602001807f616c6c6f77616e6365000000000000000000000000000000000000000000000081525060200193505050506040516020818303038152906040526040518082805190602001908083835b6020831015156117fa57805182526020820191506020810190506020830392506117d5565b6001836020036101000a03801982511681845116808217855250505050505090500191505060405180910390206000191660001916815260200190815260200160002054905092915050565b61184e611123565b73ffffffffffffffffffffffffffffffffffffffff163373ffffffffffffffffffffffffffffffffffffffff1614151561188757600080fd5b600073ffffffffffffffffffffffffffffffffffffffff168173ffffffffffffffffffffffffffffffffffffffff16141515156118c357600080fd5b6118cc81611aef565b50565b60008282111515156118dd57fe5b818303905092915050565b600081830190508281101515156118fb57fe5b80905092915050565b6000808360405160200180806020018373ffffffffffffffffffffffffffffffffffffffff1673ffffffffffffffffffffffffffffffffffffffff168152602001828103825260078152602001807f62616c616e636500000000000000000000000000000000000000000000000000815250602001925050506040516020818303038152906040526040518082805190602001908083835b6020831015156119c1578051825260208201915060208101905060208303925061199c565b6001836020036101000a0380198251168184511680821785525050505050509050019150506040518091039020915060405180807f746f74616c537570706c79000000000000000000000000000000000000000000815250600b01905060405180910390209050611a4383611a3586610f2d565b6118e890919063ffffffff16565b600080846000191660001916815260200190815260200160002081905550611a7b83611a6d61078b565b6118e890919063ffffffff16565b6000808360001916600019168152602001908152602001600020819055508373ffffffffffffffffffffffffffffffffffffffff1660007fddf252ad1be2c89b69c2b068fc378daa952ba7f163c4a11628f55a4df523b3ef856040518082815260200191505060405180910390a350505050565b7f8be0079c531659141344cd1fd0a4f28419497f9722a3daafe3b4186f6b6457e0611b18611123565b82604051808373ffffffffffffffffffffffffffffffffffffffff1673ffffffffffffffffffffffffffffffffffffffff1681526020018273ffffffffffffffffffffffffffffffffffffffff1673ffffffffffffffffffffffffffffffffffffffff1681526020019250505060405180910390a1806002600060405180807f6f776e6572000000000000000000000000000000000000000000000000000000815250600501905060405180910390206000191660001916815260200190815260200160002060006101000a81548173ffffffffffffffffffffffffffffffffffffffff021916908373ffffffffffffffffffffffffffffffffffffffff160217905550505600a165627a7a7230582028d6db1a12caf0c7ae32243b9c94c8ea51bb8e50d5cdc9d0d1b278db1c7e67e40029",
  "source": "pragma solidity ^0.4.23;\r\n\r\nimport './Token_V0.sol';\r\nimport './Ownable.sol';\r\n\r\n/**\r\n * @title Token_V1\r\n * @dev Version 1 of a token to show upgradeability.\r\n * The idea here is to extend a token behaviour providing mintable token functionalities\r\n * in addition to what's provided in version 0\r\n */\r\ncontract Token_V1 is Token_V0, Ownable {\r\n  event Mint(address indexed to, uint256 amount);\r\n  event MintFinished();\r\n\r\n  modifier canMint() {\r\n    require(!mintingFinished());\r\n    _;\r\n  }\r\n\r\n  function initialize(address owner) public {\r\n    require(!initialized());\r\n    setOwner(owner);\r\n    boolStorage[keccak256('token_v1_initialized')] = true;\r\n  }\r\n\r\n  function initialized() public view returns (bool) {\r\n    return boolStorage[keccak256('token_v1_initialized')];\r\n  }\r\n\r\n  function mintingFinished() public view returns (bool) {\r\n    return boolStorage[keccak256('mintingFinished')];\r\n  }\r\n\r\n  function mint(address to, uint256 value) public onlyOwner canMint {\r\n    super.mint(to, value);\r\n    emit Mint(to, value);\r\n  }\r\n\r\n  function finishMinting() public onlyOwner canMint {\r\n    boolStorage[keccak256('mintingFinished')] = true;\r\n    emit MintFinished();\r\n  }\r\n}",
  "sourcePath": "C:\\Users\\npain\\Projects\\Carbon\\fiat_gateway\\contracts\\test\\Token_V1.sol",
  "compiler": {
    "name": "solc",
    "version": "0.4.24+commit.e67f0147.Emscripten.clang"
  },
  "schemaVersion": "2.0.1",
  "updatedAt": "2018-07-15T16:33:07.892Z"
}