{
  "contractName": "Token_Pausable",
  "abi": [
    {
      "constant": true,
      "inputs": [],
      "name": "mintingFinished",
      "outputs": [
        {
          "name": "",
          "type": "bool"
        }
      ],
      "payable": false,
      "stateMutability": "view",
      "type": "function"
    },
    {
      "constant": true,
      "inputs": [],
      "name": "initialized",
      "outputs": [
        {
          "name": "",
          "type": "bool"
        }
      ],
      "payable": false,
      "stateMutability": "view",
      "type": "function"
    },
    {
      "constant": true,
      "inputs": [],
      "name": "totalSupply",
      "outputs": [
        {
          "name": "",
          "type": "uint256"
        }
      ],
      "payable": false,
      "stateMutability": "view",
      "type": "function"
    },
    {
      "constant": false,
      "inputs": [
        {
          "name": "to",
          "type": "address"
        },
        {
          "name": "value",
          "type": "uint256"
        }
      ],
      "name": "mint",
      "outputs": [],
      "payable": false,
      "stateMutability": "nonpayable",
      "type": "function"
    },
    {
      "constant": false,
      "inputs": [
        {
          "name": "value",
          "type": "uint256"
        }
      ],
      "name": "burn",
      "outputs": [],
      "payable": false,
      "stateMutability": "nonpayable",
      "type": "function"
    },
    {
      "constant": true,
      "inputs": [
        {
          "name": "owner",
          "type": "address"
        }
      ],
      "name": "balanceOf",
      "outputs": [
        {
          "name": "",
          "type": "uint256"
        }
      ],
      "payable": false,
      "stateMutability": "view",
      "type": "function"
    },
    {
      "constant": false,
      "inputs": [],
      "name": "finishMinting",
      "outputs": [],
      "payable": false,
      "stateMutability": "nonpayable",
      "type": "function"
    },
    {
      "constant": true,
      "inputs": [],
      "name": "owner",
      "outputs": [
        {
          "name": "",
          "type": "address"
        }
      ],
      "payable": false,
      "stateMutability": "view",
      "type": "function"
    },
    {
      "constant": false,
      "inputs": [
        {
          "name": "owner",
          "type": "address"
        }
      ],
      "name": "initialize",
      "outputs": [],
      "payable": false,
      "stateMutability": "nonpayable",
      "type": "function"
    },
    {
      "constant": true,
      "inputs": [
        {
          "name": "owner",
          "type": "address"
        },
        {
          "name": "spender",
          "type": "address"
        }
      ],
      "name": "allowance",
      "outputs": [
        {
          "name": "",
          "type": "uint256"
        }
      ],
      "payable": false,
      "stateMutability": "view",
      "type": "function"
    },
    {
      "constant": false,
      "inputs": [
        {
          "name": "newOwner",
          "type": "address"
        }
      ],
      "name": "transferOwnership",
      "outputs": [],
      "payable": false,
      "stateMutability": "nonpayable",
      "type": "function"
    },
    {
      "anonymous": false,
      "inputs": [],
      "name": "Pause",
      "type": "event"
    },
    {
      "anonymous": false,
      "inputs": [],
      "name": "Unpause",
      "type": "event"
    },
    {
      "anonymous": false,
      "inputs": [
        {
          "indexed": true,
          "name": "burner",
          "type": "address"
        },
        {
          "indexed": false,
          "name": "value",
          "type": "uint256"
        }
      ],
      "name": "Burn",
      "type": "event"
    },
    {
      "anonymous": false,
      "inputs": [
        {
          "indexed": true,
          "name": "to",
          "type": "address"
        },
        {
          "indexed": false,
          "name": "amount",
          "type": "uint256"
        }
      ],
      "name": "Mint",
      "type": "event"
    },
    {
      "anonymous": false,
      "inputs": [],
      "name": "MintFinished",
      "type": "event"
    },
    {
      "anonymous": false,
      "inputs": [
        {
          "indexed": false,
          "name": "previousOwner",
          "type": "address"
        },
        {
          "indexed": false,
          "name": "newOwner",
          "type": "address"
        }
      ],
      "name": "OwnershipTransferred",
      "type": "event"
    },
    {
      "anonymous": false,
      "inputs": [
        {
          "indexed": true,
          "name": "from",
          "type": "address"
        },
        {
          "indexed": true,
          "name": "to",
          "type": "address"
        },
        {
          "indexed": false,
          "name": "value",
          "type": "uint256"
        }
      ],
      "name": "Transfer",
      "type": "event"
    },
    {
      "anonymous": false,
      "inputs": [
        {
          "indexed": true,
          "name": "owner",
          "type": "address"
        },
        {
          "indexed": true,
          "name": "spender",
          "type": "address"
        },
        {
          "indexed": false,
          "name": "value",
          "type": "uint256"
        }
      ],
      "name": "Approval",
      "type": "event"
    },
    {
      "constant": true,
      "inputs": [],
      "name": "paused",
      "outputs": [
        {
          "name": "",
          "type": "bool"
        }
      ],
      "payable": false,
      "stateMutability": "view",
      "type": "function"
    },
    {
      "constant": false,
      "inputs": [],
      "name": "pause",
      "outputs": [],
      "payable": false,
      "stateMutability": "nonpayable",
      "type": "function"
    },
    {
      "constant": false,
      "inputs": [],
      "name": "unpause",
      "outputs": [],
      "payable": false,
      "stateMutability": "nonpayable",
      "type": "function"
    },
    {
      "constant": false,
      "inputs": [
        {
          "name": "to",
          "type": "address"
        },
        {
          "name": "value",
          "type": "uint256"
        }
      ],
      "name": "transfer",
      "outputs": [],
      "payable": false,
      "stateMutability": "nonpayable",
      "type": "function"
    },
    {
      "constant": false,
      "inputs": [
        {
          "name": "from",
          "type": "address"
        },
        {
          "name": "to",
          "type": "address"
        },
        {
          "name": "value",
          "type": "uint256"
        }
      ],
      "name": "transferFrom",
      "outputs": [],
      "payable": false,
      "stateMutability": "nonpayable",
      "type": "function"
    },
    {
      "constant": false,
      "inputs": [
        {
          "name": "spender",
          "type": "address"
        },
        {
          "name": "value",
          "type": "uint256"
        }
      ],
      "name": "approve",
      "outputs": [],
      "payable": false,
      "stateMutability": "nonpayable",
      "type": "function"
    },
    {
      "constant": false,
      "inputs": [
        {
          "name": "spender",
          "type": "address"
        },
        {
          "name": "addedValue",
          "type": "uint256"
        }
      ],
      "name": "increaseApproval",
      "outputs": [],
      "payable": false,
      "stateMutability": "nonpayable",
      "type": "function"
    },
    {
      "constant": false,
      "inputs": [
        {
          "name": "spender",
          "type": "address"
        },
        {
          "name": "subtractedValue",
          "type": "uint256"
        }
      ],
      "name": "decreaseApproval",
      "outputs": [],
      "payable": false,
      "stateMutability": "nonpayable",
      "type": "function"
    }
  ],
  "bytecode": "0x608060405234801561001057600080fd5b5061219d806100206000396000f300608060405260043610610107576000357c0100000000000000000000000000000000000000000000000000000000900463ffffffff16806305d2035b1461010c578063095ea7b31461013b578063158ef93e1461018857806318160ddd146101b757806323b872dd146101e25780633f4ba83a1461024f57806340c10f191461026657806342966c68146102b35780635c975abb146102e0578063661884631461030f57806370a082311461035c5780637d64bcb4146103b35780638456cb59146103ca5780638da5cb5b146103e1578063a9059cbb14610438578063c4d66de814610485578063d73dd623146104c8578063dd62ed3e14610515578063f2fde38b1461058c575b600080fd5b34801561011857600080fd5b506101216105cf565b604051808215151515815260200191505060405180910390f35b34801561014757600080fd5b50610186600480360381019080803573ffffffffffffffffffffffffffffffffffffffff16906020019092919080359060200190929190505050610634565b005b34801561019457600080fd5b5061019d610656565b604051808215151515815260200191505060405180910390f35b3480156101c357600080fd5b506101cc6106bb565b6040518082815260200191505060405180910390f35b3480156101ee57600080fd5b5061024d600480360381019080803573ffffffffffffffffffffffffffffffffffffffff169060200190929190803573ffffffffffffffffffffffffffffffffffffffff16906020019092919080359060200190929190505050610712565b005b34801561025b57600080fd5b50610264610736565b005b34801561027257600080fd5b506102b1600480360381019080803573ffffffffffffffffffffffffffffffffffffffff16906020019092919080359060200190929190505050610808565b005b3480156102bf57600080fd5b506102de600480360381019080803590602001909291905050506108b9565b005b3480156102ec57600080fd5b506102f5610ab8565b604051808215151515815260200191505060405180910390f35b34801561031b57600080fd5b5061035a600480360381019080803573ffffffffffffffffffffffffffffffffffffffff16906020019092919080359060200190929190505050610b04565b005b34801561036857600080fd5b5061039d600480360381019080803573ffffffffffffffffffffffffffffffffffffffff169060200190929190505050610b26565b6040518082815260200191505060405180910390f35b3480156103bf57600080fd5b506103c8610c30565b005b3480156103d657600080fd5b506103df610d1c565b005b3480156103ed57600080fd5b506103f6610def565b604051808273ffffffffffffffffffffffffffffffffffffffff1673ffffffffffffffffffffffffffffffffffffffff16815260200191505060405180910390f35b34801561044457600080fd5b50610483600480360381019080803573ffffffffffffffffffffffffffffffffffffffff16906020019092919080359060200190929190505050610e67565b005b34801561049157600080fd5b506104c6600480360381019080803573ffffffffffffffffffffffffffffffffffffffff169060200190929190505050610e89565b005b3480156104d457600080fd5b50610513600480360381019080803573ffffffffffffffffffffffffffffffffffffffff16906020019092919080359060200190929190505050610f12565b005b34801561052157600080fd5b50610576600480360381019080803573ffffffffffffffffffffffffffffffffffffffff169060200190929190803573ffffffffffffffffffffffffffffffffffffffff169060200190929190505050610f34565b6040518082815260200191505060405180910390f35b34801561059857600080fd5b506105cd600480360381019080803573ffffffffffffffffffffffffffffffffffffffff169060200190929190505050611073565b005b60006004600060405180807f6d696e74696e6746696e69736865640000000000000000000000000000000000815250600f01905060405180910390206000191660001916815260200190815260200160002060009054906101000a900460ff16905090565b61063c610ab8565b15151561064857600080fd5b61065282826110fc565b5050565b60006004600060405180807f746f6b656e5f6d696e7461626c655f696e697469616c697a6564000000000000815250601a01905060405180910390206000191660001916815260200190815260200160002060009054906101000a900460ff16905090565b600080600060405180807f746f74616c537570706c79000000000000000000000000000000000000000000815250600b01905060405180910390206000191660001916815260200190815260200160002054905090565b61071a610ab8565b15151561072657600080fd5b6107318383836112a4565b505050565b61073e610def565b73ffffffffffffffffffffffffffffffffffffffff163373ffffffffffffffffffffffffffffffffffffffff1614151561077757600080fd5b61077f610ab8565b151561078a57600080fd5b6000600460007f706175736564000000000000000000000000000000000000000000000000000060001916815260200190815260200160002060006101000a81548160ff0219169083151502179055507f7805862f689e2f13df9f062ff482ad3ad112aca9e0847911ed832e158c525b3360405160405180910390a1565b610810610def565b73ffffffffffffffffffffffffffffffffffffffff163373ffffffffffffffffffffffffffffffffffffffff1614151561084957600080fd5b6108516105cf565b15151561085d57600080fd5b610867828261173f565b8173ffffffffffffffffffffffffffffffffffffffff167f0f6798a560793a54c3bcfe86a93cde1e73087d944c0ea20544137d4121396885826040518082815260200191505060405180910390a25050565b600080826108c633610b26565b101515156108d357600080fd5b60405180807f746f74616c537570706c79000000000000000000000000000000000000000000815250600b019050604051809103902091503360405160200180806020018373ffffffffffffffffffffffffffffffffffffffff1673ffffffffffffffffffffffffffffffffffffffff168152602001828103825260078152602001807f62616c616e636500000000000000000000000000000000000000000000000000815250602001925050506040516020818303038152906040526040518082805190602001908083835b6020831015156109c557805182526020820191506020810190506020830392506109a0565b6001836020036101000a03801982511681845116808217855250505050505090500191505060405180910390209050610a0e83610a006106bb565b61192a90919063ffffffff16565b600080846000191660001916815260200190815260200160002081905550610a4783610a3933610b26565b61192a90919063ffffffff16565b6000808360001916600019168152602001908152602001600020819055503373ffffffffffffffffffffffffffffffffffffffff167fcc16f5dbb4873280815c1ee09dbd06736cffcc184412cf7a71a0fdb75d397ca5846040518082815260200191505060405180910390a2505050565b6000600460007f706175736564000000000000000000000000000000000000000000000000000060001916815260200190815260200160002060009054906101000a900460ff16905090565b610b0c610ab8565b151515610b1857600080fd5b610b228282611943565b5050565b60008060008360405160200180806020018373ffffffffffffffffffffffffffffffffffffffff1673ffffffffffffffffffffffffffffffffffffffff168152602001828103825260078152602001807f62616c616e636500000000000000000000000000000000000000000000000000815250602001925050506040516020818303038152906040526040518082805190602001908083835b602083101515610be55780518252602082019150602081019050602083039250610bc0565b6001836020036101000a038019825116818451168082178552505050505050905001915050604051809103902060001916600019168152602001908152602001600020549050919050565b610c38610def565b73ffffffffffffffffffffffffffffffffffffffff163373ffffffffffffffffffffffffffffffffffffffff16141515610c7157600080fd5b610c796105cf565b151515610c8557600080fd5b60016004600060405180807f6d696e74696e6746696e69736865640000000000000000000000000000000000815250600f01905060405180910390206000191660001916815260200190815260200160002060006101000a81548160ff0219169083151502179055507fae5184fba832cb2b1f702aca6117b8d265eaf03ad33eb133f19dde0f5920fa0860405160405180910390a1565b610d24610def565b73ffffffffffffffffffffffffffffffffffffffff163373ffffffffffffffffffffffffffffffffffffffff16141515610d5d57600080fd5b610d65610ab8565b151515610d7157600080fd5b6001600460007f706175736564000000000000000000000000000000000000000000000000000060001916815260200190815260200160002060006101000a81548160ff0219169083151502179055507f6985a02210a168e66602d3235cb6db0e70f92b3ba4d376a33c0f3d9434bff62560405160405180910390a1565b60006002600060405180807f6f776e6572000000000000000000000000000000000000000000000000000000815250600501905060405180910390206000191660001916815260200190815260200160002060009054906101000a900473ffffffffffffffffffffffffffffffffffffffff16905090565b610e6f610ab8565b151515610e7b57600080fd5b610e858282611b42565b5050565b610e91610656565b151515610e9d57600080fd5b610ea681611e59565b60016004600060405180807f746f6b656e5f6d696e7461626c655f696e697469616c697a6564000000000000815250601a01905060405180910390206000191660001916815260200190815260200160002060006101000a81548160ff02191690831515021790555050565b610f1a610ab8565b151515610f2657600080fd5b610f308282611f89565b5050565b6000806000848460405160200180806020018473ffffffffffffffffffffffffffffffffffffffff1673ffffffffffffffffffffffffffffffffffffffff1681526020018373ffffffffffffffffffffffffffffffffffffffff1673ffffffffffffffffffffffffffffffffffffffff168152602001828103825260098152602001807f616c6c6f77616e6365000000000000000000000000000000000000000000000081525060200193505050506040516020818303038152906040526040518082805190602001908083835b6020831015156110275780518252602082019150602081019050602083039250611002565b6001836020036101000a03801982511681845116808217855250505050505090500191505060405180910390206000191660001916815260200190815260200160002054905092915050565b61107b610def565b73ffffffffffffffffffffffffffffffffffffffff163373ffffffffffffffffffffffffffffffffffffffff161415156110b457600080fd5b600073ffffffffffffffffffffffffffffffffffffffff168173ffffffffffffffffffffffffffffffffffffffff16141515156110f057600080fd5b6110f981611e59565b50565b6000338360405160200180806020018473ffffffffffffffffffffffffffffffffffffffff1673ffffffffffffffffffffffffffffffffffffffff1681526020018373ffffffffffffffffffffffffffffffffffffffff1673ffffffffffffffffffffffffffffffffffffffff168152602001828103825260098152602001807f616c6c6f77616e6365000000000000000000000000000000000000000000000081525060200193505050506040516020818303038152906040526040518082805190602001908083835b6020831015156111ec57805182526020820191506020810190506020830392506111c7565b6001836020036101000a03801982511681845116808217855250505050505090500191505060405180910390209050816000808360001916600019168152602001908152602001600020819055508273ffffffffffffffffffffffffffffffffffffffff163373ffffffffffffffffffffffffffffffffffffffff167f8c5be1e5ebec7d5bd14f71427d1e84f3dd0314c0f7b2291e5b200ac8c7c3b925846040518082815260200191505060405180910390a3505050565b60008060008460405160200180806020018373ffffffffffffffffffffffffffffffffffffffff1673ffffffffffffffffffffffffffffffffffffffff168152602001828103825260078152602001807f62616c616e636500000000000000000000000000000000000000000000000000815250602001925050506040516020818303038152906040526040518082805190602001908083835b602083101515611363578051825260208201915060208101905060208303925061133e565b6001836020036101000a038019825116818451168082178552505050505050905001915050604051809103902092508560405160200180806020018373ffffffffffffffffffffffffffffffffffffffff1673ffffffffffffffffffffffffffffffffffffffff168152602001828103825260078152602001807f62616c616e636500000000000000000000000000000000000000000000000000815250602001925050506040516020818303038152906040526040518082805190602001908083835b60208310151561144c5780518252602082019150602081019050602083039250611427565b6001836020036101000a03801982511681845116808217855250505050505090500191505060405180910390209150853360405160200180806020018473ffffffffffffffffffffffffffffffffffffffff1673ffffffffffffffffffffffffffffffffffffffff1681526020018373ffffffffffffffffffffffffffffffffffffffff1673ffffffffffffffffffffffffffffffffffffffff168152602001828103825260098152602001807f616c6c6f77616e6365000000000000000000000000000000000000000000000081525060200193505050506040516020818303038152906040526040518082805190602001908083835b6020831015156115695780518252602082019150602081019050602083039250611544565b6001836020036101000a03801982511681845116808217855250505050505090500191505060405180910390209050600073ffffffffffffffffffffffffffffffffffffffff168573ffffffffffffffffffffffffffffffffffffffff16141515156115d457600080fd5b83600080846000191660001916815260200190815260200160002054101515156115fd57600080fd5b836000808360001916600019168152602001908152602001600020541015151561162657600080fd5b6116418461163388610b26565b61192a90919063ffffffff16565b60008084600019166000191681526020019081526020016000208190555061167a8461166c87610b26565b61215590919063ffffffff16565b6000808560001916600019168152602001908152602001600020819055506116b4846116a68833610f34565b61192a90919063ffffffff16565b6000808360001916600019168152602001908152602001600020819055508473ffffffffffffffffffffffffffffffffffffffff168673ffffffffffffffffffffffffffffffffffffffff167fddf252ad1be2c89b69c2b068fc378daa952ba7f163c4a11628f55a4df523b3ef866040518082815260200191505060405180910390a3505050505050565b6000808360405160200180806020018373ffffffffffffffffffffffffffffffffffffffff1673ffffffffffffffffffffffffffffffffffffffff168152602001828103825260078152602001807f62616c616e636500000000000000000000000000000000000000000000000000815250602001925050506040516020818303038152906040526040518082805190602001908083835b6020831015156117fc57805182526020820191506020810190506020830392506117d7565b6001836020036101000a0380198251168184511680821785525050505050509050019150506040518091039020915060405180807f746f74616c537570706c79000000000000000000000000000000000000000000815250600b0190506040518091039020905061187e8361187086610b26565b61215590919063ffffffff16565b6000808460001916600019168152602001908152602001600020819055506118b6836118a86106bb565b61215590919063ffffffff16565b6000808360001916600019168152602001908152602001600020819055508373ffffffffffffffffffffffffffffffffffffffff1660007fddf252ad1be2c89b69c2b068fc378daa952ba7f163c4a11628f55a4df523b3ef856040518082815260200191505060405180910390a350505050565b600082821115151561193857fe5b818303905092915050565b6000806119503385610f34565b9150338460405160200180806020018473ffffffffffffffffffffffffffffffffffffffff1673ffffffffffffffffffffffffffffffffffffffff1681526020018373ffffffffffffffffffffffffffffffffffffffff1673ffffffffffffffffffffffffffffffffffffffff168152602001828103825260098152602001807f616c6c6f77616e6365000000000000000000000000000000000000000000000081525060200193505050506040516020818303038152906040526040518082805190602001908083835b602083101515611a405780518252602082019150602081019050602083039250611a1b565b6001836020036101000a0380198251168184511680821785525050505050509050019150506040518091039020905081831115611a9c576000806000836000191660001916815260200190815260200160002081905550611ace565b611aaf838361192a90919063ffffffff16565b6000808360001916600019168152602001908152602001600020819055505b8373ffffffffffffffffffffffffffffffffffffffff163373ffffffffffffffffffffffffffffffffffffffff167f8c5be1e5ebec7d5bd14f71427d1e84f3dd0314c0f7b2291e5b200ac8c7c3b925611b273388610f34565b6040518082815260200191505060405180910390a350505050565b6000808360405160200180806020018373ffffffffffffffffffffffffffffffffffffffff1673ffffffffffffffffffffffffffffffffffffffff168152602001828103825260078152602001807f62616c616e636500000000000000000000000000000000000000000000000000815250602001925050506040516020818303038152906040526040518082805190602001908083835b602083101515611bff5780518252602082019150602081019050602083039250611bda565b6001836020036101000a038019825116818451168082178552505050505050905001915050604051809103902091503360405160200180806020018373ffffffffffffffffffffffffffffffffffffffff1673ffffffffffffffffffffffffffffffffffffffff168152602001828103825260078152602001807f62616c616e636500000000000000000000000000000000000000000000000000815250602001925050506040516020818303038152906040526040518082805190602001908083835b602083101515611ce85780518252602082019150602081019050602083039250611cc3565b6001836020036101000a03801982511681845116808217855250505050505090500191505060405180910390209050600073ffffffffffffffffffffffffffffffffffffffff168473ffffffffffffffffffffffffffffffffffffffff1614151515611d5357600080fd5b8260008083600019166000191681526020019081526020016000205410151515611d7c57600080fd5b611d9783611d8933610b26565b61192a90919063ffffffff16565b600080836000191660001916815260200190815260200160002081905550611dd083611dc286610b26565b61215590919063ffffffff16565b6000808460001916600019168152602001908152602001600020819055508373ffffffffffffffffffffffffffffffffffffffff163373ffffffffffffffffffffffffffffffffffffffff167fddf252ad1be2c89b69c2b068fc378daa952ba7f163c4a11628f55a4df523b3ef856040518082815260200191505060405180910390a350505050565b7f8be0079c531659141344cd1fd0a4f28419497f9722a3daafe3b4186f6b6457e0611e82610def565b82604051808373ffffffffffffffffffffffffffffffffffffffff1673ffffffffffffffffffffffffffffffffffffffff1681526020018273ffffffffffffffffffffffffffffffffffffffff1673ffffffffffffffffffffffffffffffffffffffff1681526020019250505060405180910390a1806002600060405180807f6f776e6572000000000000000000000000000000000000000000000000000000815250600501905060405180910390206000191660001916815260200190815260200160002060006101000a81548173ffffffffffffffffffffffffffffffffffffffff021916908373ffffffffffffffffffffffffffffffffffffffff16021790555050565b6000338360405160200180806020018473ffffffffffffffffffffffffffffffffffffffff1673ffffffffffffffffffffffffffffffffffffffff1681526020018373ffffffffffffffffffffffffffffffffffffffff1673ffffffffffffffffffffffffffffffffffffffff168152602001828103825260098152602001807f616c6c6f77616e6365000000000000000000000000000000000000000000000081525060200193505050506040516020818303038152906040526040518082805190602001908083835b6020831015156120795780518252602082019150602081019050602083039250612054565b6001836020036101000a038019825116818451168082178552505050505050905001915050604051809103902090506120c4826120b63386610f34565b61215590919063ffffffff16565b6000808360001916600019168152602001908152602001600020819055508273ffffffffffffffffffffffffffffffffffffffff163373ffffffffffffffffffffffffffffffffffffffff167f8c5be1e5ebec7d5bd14f71427d1e84f3dd0314c0f7b2291e5b200ac8c7c3b92561213b3387610f34565b6040518082815260200191505060405180910390a3505050565b6000818301905082811015151561216857fe5b809050929150505600a165627a7a7230582010abc840dfdc358915e1276ea6dcc77395faed5d9319b372f2a1c53a356b52990029",
  "source": "pragma solidity ^0.4.23;\n\nimport './Token_Burnable.sol';\n\n/**\n * @title Token_Pausable\n * @dev Version 2 of a token to show upgradeability.\n * The idea here is to extend a token behaviour providing pausable functionalities\n * in addition to what's provided in version 2\n */\ncontract Token_Pausable is Token_Burnable {\n  event Pause();\n  event Unpause();\n\n  /**\n   * @dev Modifier to make a function callable only when the contract is not paused.\n   */\n  modifier whenNotPaused() {\n    require(!paused());\n    _;\n  }\n\n  /**\n   * @dev Modifier to make a function callable only when the contract is paused.\n   */\n  modifier whenPaused() {\n    require(paused());\n    _;\n  }\n\n  /**\n   * @dev tells whether the token is paused or not\n   */\n  function paused() public view returns (bool) {\n    return boolStorage['paused'];\n  }\n\n  /**\n   * @dev called by the owner to pause the token, triggers stopped state\n   */\n  function pause() public onlyOwner whenNotPaused {\n    boolStorage['paused'] = true;\n    emit Pause();\n  }\n\n  /**\n   * @dev called by the owner to unpause the tokn, returns to normal state\n   */\n  function unpause() public onlyOwner whenPaused {\n    boolStorage['paused'] = false;\n    emit Unpause();\n  }\n\n  /**\n   * @dev transfer function with not-paused guard\n   */\n  function transfer(address to, uint256 value) public whenNotPaused {\n    return super.transfer(to, value);\n  }\n\n  /**\n   * @dev transferFrom function with not-paused guard\n   */\n  function transferFrom(address from, address to, uint256 value) public whenNotPaused {\n    return super.transferFrom(from, to, value);\n  }\n\n  /**\n   * @dev approve function with not-paused guard\n   */\n  function approve(address spender, uint256 value) public whenNotPaused {\n    return super.approve(spender, value);\n  }\n\n  /**\n   * @dev increaseApproval function with not-paused guard\n   */\n  function increaseApproval(address spender, uint256 addedValue) public whenNotPaused {\n    return super.increaseApproval(spender, addedValue);\n  }\n\n  /**\n   * @dev decreaseApproval function with not-paused guard\n   */\n  function decreaseApproval(address spender, uint256 subtractedValue) public whenNotPaused {\n    return super.decreaseApproval(spender, subtractedValue);\n  }\n}",
  "sourcePath": "/Users/tanishqaggarwal/Documents/carbon/fiat_gateway/contracts/eternalERC20/Token_Pausable.sol",
  "compiler": {
    "name": "solc",
    "version": "0.4.24+commit.e67f0147.Emscripten.clang"
  },
  "schemaVersion": "2.0.0",
  "updatedAt": "2018-07-17T03:21:38.630Z"
}