{
  "contractName": "UpgradeabilityOwnerStorage",
  "abi": [
    {
      "constant": true,
      "inputs": [],
      "name": "upgradeabilityOwner",
      "outputs": [
        {
          "name": "",
          "type": "address"
        }
      ],
      "payable": false,
      "stateMutability": "view",
      "type": "function"
    }
  ],
  "bytecode": "0x608060405234801561001057600080fd5b5060ed8061001f6000396000f300608060405260043610603f576000357c0100000000000000000000000000000000000000000000000000000000900463ffffffff1680636fde8202146044575b600080fd5b348015604f57600080fd5b5060566098565b604051808273ffffffffffffffffffffffffffffffffffffffff1673ffffffffffffffffffffffffffffffffffffffff16815260200191505060405180910390f35b60008060009054906101000a900473ffffffffffffffffffffffffffffffffffffffff169050905600a165627a7a7230582055e183a76570a9b47f6860b948cc15ee189075b3f883bee2238b431b3553ca890029",
  "source": "pragma solidity ^0.4.23;\r\n\r\n\r\n/**\r\n * @title UpgradeabilityOwnerStorage\r\n * @dev This contract keeps track of the upgradeability owner\r\n */\r\ncontract UpgradeabilityOwnerStorage {\r\n  // Owner of the contract\r\n  address private _upgradeabilityOwner;\r\n\r\n  /**\r\n   * @dev Tells the address of the owner\r\n   * @return the address of the owner\r\n   */\r\n  function upgradeabilityOwner() public view returns (address) {\r\n    return _upgradeabilityOwner;\r\n  }\r\n\r\n  /**\r\n   * @dev Sets the address of the owner\r\n   */\r\n  function setUpgradeabilityOwner(address newUpgradeabilityOwner) internal {\r\n    _upgradeabilityOwner = newUpgradeabilityOwner;\r\n  }\r\n}",
  "sourcePath": "C:\\Users\\npain\\Projects\\Carbon\\fiat_gateway\\contracts\\ownedUpgradeabilityProxy\\UpgradeabilityOwnerStorage.sol",
  "compiler": {
    "name": "solc",
    "version": "0.4.24+commit.e67f0147.Emscripten.clang"
  },
  "schemaVersion": "2.0.1",
  "updatedAt": "2018-07-15T16:00:18.523Z"
}