{
  "contractName": "UpgradeabilityProxy",
  "abi": [
    {
      "constant": true,
      "inputs": [],
      "name": "version",
      "outputs": [
        {
          "name": "",
          "type": "string"
        }
      ],
      "payable": false,
      "stateMutability": "view",
      "type": "function"
    },
    {
      "constant": true,
      "inputs": [],
      "name": "implementation",
      "outputs": [
        {
          "name": "",
          "type": "address"
        }
      ],
      "payable": false,
      "stateMutability": "view",
      "type": "function"
    },
    {
      "payable": true,
      "stateMutability": "payable",
      "type": "fallback"
    },
    {
      "anonymous": false,
      "inputs": [
        {
          "indexed": false,
          "name": "version",
          "type": "string"
        },
        {
          "indexed": true,
          "name": "implementation",
          "type": "address"
        }
      ],
      "name": "Upgraded",
      "type": "event"
    }
  ],
  "bytecode": "0x608060405234801561001057600080fd5b5061029a806100206000396000f30060806040526004361061004c576000357c0100000000000000000000000000000000000000000000000000000000900463ffffffff16806354fd4d50146100bb5780635c60da1b1461014b575b60006100566101a2565b9050600073ffffffffffffffffffffffffffffffffffffffff168173ffffffffffffffffffffffffffffffffffffffff161415151561009457600080fd5b60405136600082376000803683855af43d806000843e81600081146100b7578184f35b8184fd5b3480156100c757600080fd5b506100d06101cc565b6040518080602001828103825283818151815260200191508051906020019080838360005b838110156101105780820151818401526020810190506100f5565b50505050905090810190601f16801561013d5780820380516001836020036101000a031916815260200191505b509250505060405180910390f35b34801561015757600080fd5b506101606101a2565b604051808273ffffffffffffffffffffffffffffffffffffffff1673ffffffffffffffffffffffffffffffffffffffff16815260200191505060405180910390f35b6000600160009054906101000a900473ffffffffffffffffffffffffffffffffffffffff16905090565b606060008054600181600116156101000203166002900480601f0160208091040260200160405190810160405280929190818152602001828054600181600116156101000203166002900480156102645780601f1061023957610100808354040283529160200191610264565b820191906000526020600020905b81548152906001019060200180831161024757829003601f168201915b50505050509050905600a165627a7a72305820b62f84c75cefccf9459bf50291a4c4becce422e9d3e9d1708f8f2e169dd74b8f0029",
  "source": "pragma solidity ^0.4.23;\n\nimport './Proxy.sol';\nimport './UpgradeabilityStorage.sol';\n\n/**\n * @title UpgradeabilityProxy\n * @dev This contract represents a proxy where the implementation address to which it will delegate can be upgraded\n */\ncontract UpgradeabilityProxy is Proxy, UpgradeabilityStorage {\n  /**\n  * @dev This event will be emitted every time the implementation gets upgraded\n  * @param version representing the version name of the upgraded implementation\n  * @param implementation representing the address of the upgraded implementation\n  */\n  event Upgraded(string version, address indexed implementation);\n\n  /**\n  * @dev Upgrades the implementation address\n  * @param version representing the version name of the new implementation to be set\n  * @param implementation representing the address of the new implementation to be set\n  */\n  function _upgradeTo(string version, address implementation) internal {\n    require(_implementation != implementation);\n    _version = version;\n    _implementation = implementation;\n    emit Upgraded(version, implementation);\n  }\n}",
  "sourcePath": "/Users/tanishqaggarwal/Documents/carbon/fiat_gateway/contracts/upgradeabilityProxy/UpgradeabilityProxy.sol",
  "compiler": {
    "name": "solc",
    "version": "0.4.24+commit.e67f0147.Emscripten.clang"
  },
  "schemaVersion": "2.0.0",
  "updatedAt": "2018-07-17T04:38:10.196Z"
}