{
  "contractName": "UpgradeabilityProxy",
  "abi": [
    {
      "constant": true,
      "inputs": [],
      "name": "version",
      "outputs": [
        {
          "name": "",
          "type": "string"
        }
      ],
      "payable": false,
      "stateMutability": "view",
      "type": "function"
    },
    {
      "constant": true,
      "inputs": [],
      "name": "implementation",
      "outputs": [
        {
          "name": "",
          "type": "address"
        }
      ],
      "payable": false,
      "stateMutability": "view",
      "type": "function"
    },
    {
      "payable": true,
      "stateMutability": "payable",
      "type": "fallback"
    },
    {
      "anonymous": false,
      "inputs": [
        {
          "indexed": false,
          "name": "version",
          "type": "string"
        },
        {
          "indexed": true,
          "name": "implementation",
          "type": "address"
        }
      ],
      "name": "Upgraded",
      "type": "event"
    }
  ],
  "bytecode": "0x608060405234801561001057600080fd5b5061029a806100206000396000f30060806040526004361061004c576000357c0100000000000000000000000000000000000000000000000000000000900463ffffffff16806354fd4d50146100bb5780635c60da1b1461014b575b60006100566101a2565b9050600073ffffffffffffffffffffffffffffffffffffffff168173ffffffffffffffffffffffffffffffffffffffff161415151561009457600080fd5b60405136600082376000803683855af43d806000843e81600081146100b7578184f35b8184fd5b3480156100c757600080fd5b506100d06101cc565b6040518080602001828103825283818151815260200191508051906020019080838360005b838110156101105780820151818401526020810190506100f5565b50505050905090810190601f16801561013d5780820380516001836020036101000a031916815260200191505b509250505060405180910390f35b34801561015757600080fd5b506101606101a2565b604051808273ffffffffffffffffffffffffffffffffffffffff1673ffffffffffffffffffffffffffffffffffffffff16815260200191505060405180910390f35b6000600160009054906101000a900473ffffffffffffffffffffffffffffffffffffffff16905090565b606060008054600181600116156101000203166002900480601f0160208091040260200160405190810160405280929190818152602001828054600181600116156101000203166002900480156102645780601f1061023957610100808354040283529160200191610264565b820191906000526020600020905b81548152906001019060200180831161024757829003601f168201915b50505050509050905600a165627a7a723058208e3beff260d93e9aec4743ea4d0265abd96289e55da94450b28a1909b8cd4eeb0029",
  "source": "pragma solidity ^0.4.23;\r\n\r\nimport './Proxy.sol';\r\nimport './UpgradeabilityStorage.sol';\r\n\r\n/**\r\n * @title UpgradeabilityProxy\r\n * @dev This contract represents a proxy where the implementation address to which it will delegate can be upgraded\r\n */\r\ncontract UpgradeabilityProxy is Proxy, UpgradeabilityStorage {\r\n  /**\r\n  * @dev This event will be emitted every time the implementation gets upgraded\r\n  * @param version representing the version name of the upgraded implementation\r\n  * @param implementation representing the address of the upgraded implementation\r\n  */\r\n  event Upgraded(string version, address indexed implementation);\r\n\r\n  /**\r\n  * @dev Upgrades the implementation address\r\n  * @param version representing the version name of the new implementation to be set\r\n  * @param implementation representing the address of the new implementation to be set\r\n  */\r\n  function _upgradeTo(string version, address implementation) internal {\r\n    require(_implementation != implementation);\r\n    _version = version;\r\n    _implementation = implementation;\r\n    emit Upgraded(version, implementation);\r\n  }\r\n}",
  "sourcePath": "C:\\Users\\npain\\Projects\\Carbon\\fiat_gateway\\contracts\\upgradeabilityProxy\\UpgradeabilityProxy.sol",
  "compiler": {
    "name": "solc",
    "version": "0.4.24+commit.e67f0147.Emscripten.clang"
  },
  "schemaVersion": "2.0.1",
  "updatedAt": "2018-07-15T16:00:18.526Z"
}