{
  "contractName": "UpgradeabilityStorage",
  "abi": [
    {
      "constant": true,
      "inputs": [],
      "name": "version",
      "outputs": [
        {
          "name": "",
          "type": "string"
        }
      ],
      "payable": false,
      "stateMutability": "view",
      "type": "function"
    },
    {
      "constant": true,
      "inputs": [],
      "name": "implementation",
      "outputs": [
        {
          "name": "",
          "type": "address"
        }
      ],
      "payable": false,
      "stateMutability": "view",
      "type": "function"
    }
  ],
  "bytecode": "0x608060405234801561001057600080fd5b50610230806100206000396000f30060806040526004361061004c576000357c0100000000000000000000000000000000000000000000000000000000900463ffffffff16806354fd4d50146100515780635c60da1b146100e1575b600080fd5b34801561005d57600080fd5b50610066610138565b6040518080602001828103825283818151815260200191508051906020019080838360005b838110156100a657808201518184015260208101905061008b565b50505050905090810190601f1680156100d35780820380516001836020036101000a031916815260200191505b509250505060405180910390f35b3480156100ed57600080fd5b506100f66101da565b604051808273ffffffffffffffffffffffffffffffffffffffff1673ffffffffffffffffffffffffffffffffffffffff16815260200191505060405180910390f35b606060008054600181600116156101000203166002900480601f0160208091040260200160405190810160405280929190818152602001828054600181600116156101000203166002900480156101d05780601f106101a5576101008083540402835291602001916101d0565b820191906000526020600020905b8154815290600101906020018083116101b357829003601f168201915b5050505050905090565b6000600160009054906101000a900473ffffffffffffffffffffffffffffffffffffffff169050905600a165627a7a723058200877891d7d8595af9db04d6447cfa7035423231904093e4eb33acaded31b88930029",
  "source": "pragma solidity ^0.4.23;\r\n\r\n/**\r\n * @title UpgradeabilityStorage\r\n * @dev This contract holds all the necessary state variables to support the upgrade functionality\r\n */\r\ncontract UpgradeabilityStorage {\r\n  // Version name of the current implementation\r\n  string internal _version;\r\n\r\n  // Address of the current implementation\r\n  address internal _implementation;\r\n\r\n  /**\r\n  * @dev Tells the version name of the current implementation\r\n  * @return string representing the name of the current version\r\n  */\r\n  function version() public view returns (string) {\r\n    return _version;\r\n  }\r\n\r\n  /**\r\n  * @dev Tells the address of the current implementation\r\n  * @return address of the current implementation\r\n  */\r\n  function implementation() public view returns (address) {\r\n    return _implementation;\r\n  }\r\n}",
  "sourcePath": "C:\\Users\\npain\\Projects\\Carbon\\fiat_gateway\\contracts\\upgradeabilityProxy\\UpgradeabilityStorage.sol",
  "compiler": {
    "name": "solc",
    "version": "0.4.24+commit.e67f0147.Emscripten.clang"
  },
  "schemaVersion": "2.0.1",
  "updatedAt": "2018-07-15T16:00:18.524Z"
}