{
  "contractName": "ValidatorSheet",
  "abi": [
    {
      "constant": false,
      "inputs": [],
      "name": "renounceOwnership",
      "outputs": [],
      "payable": false,
      "stateMutability": "nonpayable",
      "type": "function"
    },
    {
      "constant": true,
      "inputs": [],
      "name": "owner",
      "outputs": [
        {
          "name": "",
          "type": "address"
        }
      ],
      "payable": false,
      "stateMutability": "view",
      "type": "function"
    },
    {
      "constant": false,
      "inputs": [
        {
          "name": "_newOwner",
          "type": "address"
        }
      ],
      "name": "transferOwnership",
      "outputs": [],
      "payable": false,
      "stateMutability": "nonpayable",
      "type": "function"
    },
    {
      "constant": true,
      "inputs": [
        {
          "name": "",
          "type": "address"
        }
      ],
      "name": "isValidator",
      "outputs": [
        {
          "name": "",
          "type": "bool"
        }
      ],
      "payable": false,
      "stateMutability": "view",
      "type": "function"
    },
    {
      "anonymous": false,
      "inputs": [
        {
          "indexed": true,
          "name": "validator",
          "type": "address"
        }
      ],
      "name": "ValidatorAdded",
      "type": "event"
    },
    {
      "anonymous": false,
      "inputs": [
        {
          "indexed": true,
          "name": "validator",
          "type": "address"
        }
      ],
      "name": "ValidatorRemoved",
      "type": "event"
    },
    {
      "anonymous": false,
      "inputs": [
        {
          "indexed": true,
          "name": "previousOwner",
          "type": "address"
        }
      ],
      "name": "OwnershipRenounced",
      "type": "event"
    },
    {
      "anonymous": false,
      "inputs": [
        {
          "indexed": true,
          "name": "previousOwner",
          "type": "address"
        },
        {
          "indexed": true,
          "name": "newOwner",
          "type": "address"
        }
      ],
      "name": "OwnershipTransferred",
      "type": "event"
    },
    {
      "constant": false,
      "inputs": [
        {
          "name": "_validator",
          "type": "address"
        }
      ],
      "name": "addValidator",
      "outputs": [],
      "payable": false,
      "stateMutability": "nonpayable",
      "type": "function"
    },
    {
      "constant": false,
      "inputs": [
        {
          "name": "_validator",
          "type": "address"
        }
      ],
      "name": "removeValidator",
      "outputs": [],
      "payable": false,
      "stateMutability": "nonpayable",
      "type": "function"
    }
  ],
  "bytecode": "0x608060405260008054600160a060020a031916331790556104a9806100256000396000f3006080604052600436106100775763ffffffff7c010000000000000000000000000000000000000000000000000000000060003504166340a141ff811461007c5780634d238c8e146100ac578063715018a6146100da5780638da5cb5b146100ef578063f2fde38b1461012d578063facd743b1461015b575b600080fd5b34801561008857600080fd5b506100aa73ffffffffffffffffffffffffffffffffffffffff6004351661019d565b005b3480156100b857600080fd5b506100aa73ffffffffffffffffffffffffffffffffffffffff60043516610235565b3480156100e657600080fd5b506100aa610265565b3480156100fb57600080fd5b506101046102f6565b6040805173ffffffffffffffffffffffffffffffffffffffff9092168252519081900360200190f35b34801561013957600080fd5b506100aa73ffffffffffffffffffffffffffffffffffffffff60043516610312565b34801561016757600080fd5b5061018973ffffffffffffffffffffffffffffffffffffffff6004351661033f565b604080519115158252519081900360200190f35b60005473ffffffffffffffffffffffffffffffffffffffff1633146101c157600080fd5b73ffffffffffffffffffffffffffffffffffffffff811660008181526001602052604080822080547fffffffffffffffffffffffffffffffffffffffffffffffffffffffffffffff00169055517fe1434e25d6611e0db941968fdc97811c982ac1602e951637d206f5fdda9dd8f19190a250565b60005473ffffffffffffffffffffffffffffffffffffffff16331461025957600080fd5b61026281610354565b50565b60005473ffffffffffffffffffffffffffffffffffffffff16331461028957600080fd5b6000805460405173ffffffffffffffffffffffffffffffffffffffff909116917ff8df31144d9c2f0f6b59d69b8b98abd5459d07f2742c4df920b25aae33c6482091a2600080547fffffffffffffffffffffffff0000000000000000000000000000000000000000169055565b60005473ffffffffffffffffffffffffffffffffffffffff1681565b60005473ffffffffffffffffffffffffffffffffffffffff16331461033657600080fd5b610262816103ce565b60016020526000908152604090205460ff1681565b73ffffffffffffffffffffffffffffffffffffffff8116600081815260016020819052604080832080547fffffffffffffffffffffffffffffffffffffffffffffffffffffffffffffff0016909217909155517fe366c1c0452ed8eec96861e9e54141ebff23c9ec89fe27b996b45f5ec38849879190a250565b73ffffffffffffffffffffffffffffffffffffffff811615156103f057600080fd5b6000805460405173ffffffffffffffffffffffffffffffffffffffff808516939216917f8be0079c531659141344cd1fd0a4f28419497f9722a3daafe3b4186f6b6457e091a3600080547fffffffffffffffffffffffff00000000000000000000000000000000000000001673ffffffffffffffffffffffffffffffffffffffff929092169190911790555600a165627a7a72305820b7ed0cadf7d3de6e0819d48bf693c76e91775592d2175e407111fb90218642d90029",
  "source": "pragma solidity ^0.4.24;\n\nimport \"openzeppelin-solidity/contracts/ownership/Ownable.sol\";\n\n/**\n * @title ValidatorSheet\n * @dev Stores all validators capable of adding permissions and setting user permissions\n *\n */\ncontract ValidatorSheet is Ownable{\n    /** \n        Mappings \n    */\n\n    // (user address => is user a validator?)\n    mapping (address => bool) public isValidator;\n\n    event ValidatorAdded(address indexed validator);\n    event ValidatorRemoved(address indexed validator);\n\n    /**\n    * @notice add a Validator\n    * @param _validator Address of validator to add\n    */\n    function addValidator(address _validator) public onlyOwner {\n        _addValidator(_validator);\n    }\n    \n    function _addValidator(address _validator) internal {\n        isValidator[_validator] = true;\n        emit ValidatorAdded(_validator);\n    }\n\n    /**\n    * @notice remove a Validator\n    * @param _validator Address of validator to remove\n    */\n    function removeValidator(address _validator) public onlyOwner {\n        isValidator[_validator] = false;\n        emit ValidatorRemoved(_validator);\n    }\n}",
  "sourcePath": "/Users/tanishqaggarwal/Documents/carbon/fiat_gateway/contracts/regulator/dataStorage/ValidatorSheet.sol",
  "compiler": {
    "name": "solc",
    "version": "0.4.24+commit.e67f0147.Emscripten.clang"
  },
  "schemaVersion": "2.0.1",
  "updatedAt": "2018-08-13T20:26:34.609Z"
}