{
  "contractName": "ValidatorSheet",
  "abi": [
    {
      "constant": false,
      "inputs": [],
      "name": "claimOwnership",
      "outputs": [],
      "payable": false,
      "stateMutability": "nonpayable",
      "type": "function"
    },
    {
      "constant": true,
      "inputs": [],
      "name": "owner",
      "outputs": [
        {
          "name": "",
          "type": "address"
        }
      ],
      "payable": false,
      "stateMutability": "view",
      "type": "function"
    },
    {
      "constant": true,
      "inputs": [],
      "name": "pendingOwner",
      "outputs": [
        {
          "name": "",
          "type": "address"
        }
      ],
      "payable": false,
      "stateMutability": "view",
      "type": "function"
    },
    {
      "constant": false,
      "inputs": [
        {
          "name": "_newOwner",
          "type": "address"
        }
      ],
      "name": "transferOwnership",
      "outputs": [],
      "payable": false,
      "stateMutability": "nonpayable",
      "type": "function"
    },
    {
      "constant": true,
      "inputs": [
        {
          "name": "",
          "type": "address"
        }
      ],
      "name": "isValidator",
      "outputs": [
        {
          "name": "",
          "type": "bool"
        }
      ],
      "payable": false,
      "stateMutability": "view",
      "type": "function"
    },
    {
      "anonymous": false,
      "inputs": [
        {
          "indexed": true,
          "name": "validator",
          "type": "address"
        }
      ],
      "name": "ValidatorAdded",
      "type": "event"
    },
    {
      "anonymous": false,
      "inputs": [
        {
          "indexed": true,
          "name": "validator",
          "type": "address"
        }
      ],
      "name": "ValidatorRemoved",
      "type": "event"
    },
    {
      "anonymous": false,
      "inputs": [
        {
          "indexed": true,
          "name": "previousOwner",
          "type": "address"
        },
        {
          "indexed": true,
          "name": "newOwner",
          "type": "address"
        }
      ],
      "name": "OwnershipTransferred",
      "type": "event"
    },
    {
      "constant": false,
      "inputs": [
        {
          "name": "_validator",
          "type": "address"
        }
      ],
      "name": "addValidator",
      "outputs": [],
      "payable": false,
      "stateMutability": "nonpayable",
      "type": "function"
    },
    {
      "constant": false,
      "inputs": [
        {
          "name": "_validator",
          "type": "address"
        }
      ],
      "name": "removeValidator",
      "outputs": [],
      "payable": false,
      "stateMutability": "nonpayable",
      "type": "function"
    }
  ],
  "bytecode": "0x608060405260008054600160a060020a031990811633179091556001805490911690556104bc806100316000396000f3006080604052600436106100825763ffffffff7c010000000000000000000000000000000000000000000000000000000060003504166340a141ff81146100875780634d238c8e146100b75780634e71e0c8146100e55780638da5cb5b146100fa578063e30c397814610138578063f2fde38b1461014d578063facd743b1461017b575b600080fd5b34801561009357600080fd5b506100b573ffffffffffffffffffffffffffffffffffffffff600435166101bd565b005b3480156100c357600080fd5b506100b573ffffffffffffffffffffffffffffffffffffffff60043516610255565b3480156100f157600080fd5b506100b5610285565b34801561010657600080fd5b5061010f61033f565b6040805173ffffffffffffffffffffffffffffffffffffffff9092168252519081900360200190f35b34801561014457600080fd5b5061010f61035b565b34801561015957600080fd5b506100b573ffffffffffffffffffffffffffffffffffffffff60043516610377565b34801561018757600080fd5b506101a973ffffffffffffffffffffffffffffffffffffffff60043516610404565b604080519115158252519081900360200190f35b60005473ffffffffffffffffffffffffffffffffffffffff1633146101e157600080fd5b73ffffffffffffffffffffffffffffffffffffffff811660008181526002602052604080822080547fffffffffffffffffffffffffffffffffffffffffffffffffffffffffffffff00169055517fe1434e25d6611e0db941968fdc97811c982ac1602e951637d206f5fdda9dd8f19190a250565b60005473ffffffffffffffffffffffffffffffffffffffff16331461027957600080fd5b61028281610419565b50565b60015473ffffffffffffffffffffffffffffffffffffffff1633146102a957600080fd5b6001546000805460405173ffffffffffffffffffffffffffffffffffffffff93841693909116917f8be0079c531659141344cd1fd0a4f28419497f9722a3daafe3b4186f6b6457e091a360018054600080547fffffffffffffffffffffffff000000000000000000000000000000000000000090811673ffffffffffffffffffffffffffffffffffffffff841617909155169055565b60005473ffffffffffffffffffffffffffffffffffffffff1681565b60015473ffffffffffffffffffffffffffffffffffffffff1681565b60005473ffffffffffffffffffffffffffffffffffffffff16331461039b57600080fd5b73ffffffffffffffffffffffffffffffffffffffff811615156103bd57600080fd5b600180547fffffffffffffffffffffffff00000000000000000000000000000000000000001673ffffffffffffffffffffffffffffffffffffffff92909216919091179055565b60026020526000908152604090205460ff1681565b73ffffffffffffffffffffffffffffffffffffffff811660008181526002602052604080822080547fffffffffffffffffffffffffffffffffffffffffffffffffffffffffffffff00166001179055517fe366c1c0452ed8eec96861e9e54141ebff23c9ec89fe27b996b45f5ec38849879190a2505600a165627a7a723058206544d1cbfef60ac74b3ef0c8d904b4fc4841f9869ce092a772746f76a18d41b20029",
  "source": "pragma solidity ^0.4.24;\r\n\r\n// import \"openzeppelin-solidity/contracts/ownership/Claimable.sol\";\r\nimport '../../helpers/Ownable.sol';\r\n\r\n/**\r\n * @title ValidatorSheet\r\n * @dev Stores all validators capable of adding permissions and setting user permissions\r\n *\r\n */\r\ncontract ValidatorSheet is Ownable {\r\n    /** \r\n        Mappings \r\n    */\r\n\r\n    // (user address => is user a validator?)\r\n    mapping (address => bool) public isValidator;\r\n\r\n    event ValidatorAdded(address indexed validator);\r\n    event ValidatorRemoved(address indexed validator);\r\n\r\n    /**\r\n    * @notice add a Validator\r\n    * @param _validator Address of validator to add\r\n    */\r\n    function addValidator(address _validator) public onlyOwner {\r\n        _addValidator(_validator);\r\n    }\r\n    \r\n    function _addValidator(address _validator) internal {\r\n        isValidator[_validator] = true;\r\n        emit ValidatorAdded(_validator);\r\n    }\r\n\r\n    /**\r\n    * @notice remove a Validator\r\n    * @param _validator Address of validator to remove\r\n    */\r\n    function removeValidator(address _validator) public onlyOwner {\r\n        isValidator[_validator] = false;\r\n        emit ValidatorRemoved(_validator);\r\n    }\r\n}",
  "sourcePath": "C:\\Users\\npain\\Projects\\Carbon\\fiat_gateway\\contracts\\regulator\\dataStorage\\ValidatorSheet.sol",
  "compiler": {
    "name": "solc",
    "version": "0.4.24+commit.e67f0147.Emscripten.clang"
  },
  "schemaVersion": "2.0.1",
  "updatedAt": "2018-08-18T15:48:20.664Z"
}