{
  "contractName": "WhitelistedTokenRegulator",
  "abi": [
    {
      "constant": false,
      "inputs": [
        {
          "name": "_who",
          "type": "address"
        }
      ],
      "name": "removeBlacklistSpender",
      "outputs": [],
      "payable": false,
      "stateMutability": "nonpayable",
      "type": "function"
    },
    {
      "constant": false,
      "inputs": [
        {
          "name": "_who",
          "type": "address"
        }
      ],
      "name": "setWhitelistedUser",
      "outputs": [],
      "payable": false,
      "stateMutability": "nonpayable",
      "type": "function"
    },
    {
      "constant": true,
      "inputs": [
        {
          "name": "_who",
          "type": "address"
        },
        {
          "name": "_methodsignature",
          "type": "bytes4"
        }
      ],
      "name": "hasUserPermission",
      "outputs": [
        {
          "name": "",
          "type": "bool"
        }
      ],
      "payable": false,
      "stateMutability": "view",
      "type": "function"
    },
    {
      "constant": true,
      "inputs": [
        {
          "name": "_methodsignature",
          "type": "bytes4"
        }
      ],
      "name": "getPermission",
      "outputs": [
        {
          "name": "name",
          "type": "string"
        },
        {
          "name": "description",
          "type": "string"
        },
        {
          "name": "contract_name",
          "type": "string"
        }
      ],
      "payable": false,
      "stateMutability": "view",
      "type": "function"
    },
    {
      "constant": false,
      "inputs": [
        {
          "name": "_who",
          "type": "address"
        },
        {
          "name": "_methodsignature",
          "type": "bytes4"
        }
      ],
      "name": "setUserPermission",
      "outputs": [],
      "payable": false,
      "stateMutability": "nonpayable",
      "type": "function"
    },
    {
      "constant": false,
      "inputs": [
        {
          "name": "_who",
          "type": "address"
        }
      ],
      "name": "setBlacklistDestroyer",
      "outputs": [],
      "payable": false,
      "stateMutability": "nonpayable",
      "type": "function"
    },
    {
      "constant": false,
      "inputs": [
        {
          "name": "_who",
          "type": "address"
        }
      ],
      "name": "removeMinter",
      "outputs": [],
      "payable": false,
      "stateMutability": "nonpayable",
      "type": "function"
    },
    {
      "constant": false,
      "inputs": [
        {
          "name": "_who",
          "type": "address"
        }
      ],
      "name": "removeValidator",
      "outputs": [],
      "payable": false,
      "stateMutability": "nonpayable",
      "type": "function"
    },
    {
      "constant": false,
      "inputs": [
        {
          "name": "_who",
          "type": "address"
        }
      ],
      "name": "addValidator",
      "outputs": [],
      "payable": false,
      "stateMutability": "nonpayable",
      "type": "function"
    },
    {
      "constant": false,
      "inputs": [
        {
          "name": "_who",
          "type": "address"
        },
        {
          "name": "_methodsignature",
          "type": "bytes4"
        }
      ],
      "name": "removeUserPermission",
      "outputs": [],
      "payable": false,
      "stateMutability": "nonpayable",
      "type": "function"
    },
    {
      "constant": false,
      "inputs": [
        {
          "name": "_who",
          "type": "address"
        }
      ],
      "name": "removeBlacklistDestroyer",
      "outputs": [],
      "payable": false,
      "stateMutability": "nonpayable",
      "type": "function"
    },
    {
      "constant": false,
      "inputs": [],
      "name": "renounceOwnership",
      "outputs": [],
      "payable": false,
      "stateMutability": "nonpayable",
      "type": "function"
    },
    {
      "constant": false,
      "inputs": [
        {
          "name": "_methodsignature",
          "type": "bytes4"
        },
        {
          "name": "_permissionName",
          "type": "string"
        },
        {
          "name": "_permissionDescription",
          "type": "string"
        },
        {
          "name": "_contractName",
          "type": "string"
        }
      ],
      "name": "addPermission",
      "outputs": [],
      "payable": false,
      "stateMutability": "nonpayable",
      "type": "function"
    },
    {
      "constant": true,
      "inputs": [],
      "name": "owner",
      "outputs": [
        {
          "name": "",
          "type": "address"
        }
      ],
      "payable": false,
      "stateMutability": "view",
      "type": "function"
    },
    {
      "constant": true,
      "inputs": [
        {
          "name": "_who",
          "type": "address"
        }
      ],
      "name": "isBlacklistSpender",
      "outputs": [
        {
          "name": "",
          "type": "bool"
        }
      ],
      "payable": false,
      "stateMutability": "view",
      "type": "function"
    },
    {
      "constant": true,
      "inputs": [
        {
          "name": "_methodsignature",
          "type": "bytes4"
        }
      ],
      "name": "isPermission",
      "outputs": [
        {
          "name": "",
          "type": "bool"
        }
      ],
      "payable": false,
      "stateMutability": "view",
      "type": "function"
    },
    {
      "constant": true,
      "inputs": [],
      "name": "permissions",
      "outputs": [
        {
          "name": "",
          "type": "address"
        }
      ],
      "payable": false,
      "stateMutability": "view",
      "type": "function"
    },
    {
      "constant": false,
      "inputs": [
        {
          "name": "_newStorageAddress",
          "type": "address"
        }
      ],
      "name": "setPermissionStorage",
      "outputs": [],
      "payable": false,
      "stateMutability": "nonpayable",
      "type": "function"
    },
    {
      "constant": false,
      "inputs": [
        {
          "name": "_methodsignature",
          "type": "bytes4"
        }
      ],
      "name": "removePermission",
      "outputs": [],
      "payable": false,
      "stateMutability": "nonpayable",
      "type": "function"
    },
    {
      "constant": false,
      "inputs": [
        {
          "name": "_who",
          "type": "address"
        }
      ],
      "name": "setBlacklistSpender",
      "outputs": [],
      "payable": false,
      "stateMutability": "nonpayable",
      "type": "function"
    },
    {
      "constant": false,
      "inputs": [
        {
          "name": "_who",
          "type": "address"
        }
      ],
      "name": "setBlacklistedUser",
      "outputs": [],
      "payable": false,
      "stateMutability": "nonpayable",
      "type": "function"
    },
    {
      "constant": true,
      "inputs": [],
      "name": "validators",
      "outputs": [
        {
          "name": "",
          "type": "address"
        }
      ],
      "payable": false,
      "stateMutability": "view",
      "type": "function"
    },
    {
      "constant": false,
      "inputs": [
        {
          "name": "_who",
          "type": "address"
        }
      ],
      "name": "setNonlistedUser",
      "outputs": [],
      "payable": false,
      "stateMutability": "nonpayable",
      "type": "function"
    },
    {
      "constant": false,
      "inputs": [
        {
          "name": "_newStorageAddress",
          "type": "address"
        }
      ],
      "name": "setValidatorStorage",
      "outputs": [],
      "payable": false,
      "stateMutability": "nonpayable",
      "type": "function"
    },
    {
      "constant": false,
      "inputs": [
        {
          "name": "_newOwner",
          "type": "address"
        }
      ],
      "name": "transferOwnership",
      "outputs": [],
      "payable": false,
      "stateMutability": "nonpayable",
      "type": "function"
    },
    {
      "constant": true,
      "inputs": [
        {
          "name": "_who",
          "type": "address"
        }
      ],
      "name": "isBlacklistDestroyer",
      "outputs": [
        {
          "name": "",
          "type": "bool"
        }
      ],
      "payable": false,
      "stateMutability": "view",
      "type": "function"
    },
    {
      "constant": true,
      "inputs": [
        {
          "name": "_who",
          "type": "address"
        }
      ],
      "name": "isValidator",
      "outputs": [
        {
          "name": "",
          "type": "bool"
        }
      ],
      "payable": false,
      "stateMutability": "view",
      "type": "function"
    },
    {
      "constant": false,
      "inputs": [
        {
          "name": "_who",
          "type": "address"
        }
      ],
      "name": "setMinter",
      "outputs": [],
      "payable": false,
      "stateMutability": "nonpayable",
      "type": "function"
    },
    {
      "inputs": [
        {
          "name": "p",
          "type": "address"
        },
        {
          "name": "v",
          "type": "address"
        }
      ],
      "payable": false,
      "stateMutability": "nonpayable",
      "type": "constructor"
    },
    {
      "anonymous": false,
      "inputs": [
        {
          "indexed": true,
          "name": "who",
          "type": "address"
        }
      ],
      "name": "SetWhitelistedUser",
      "type": "event"
    },
    {
      "anonymous": false,
      "inputs": [
        {
          "indexed": true,
          "name": "who",
          "type": "address"
        }
      ],
      "name": "SetBlacklistedUser",
      "type": "event"
    },
    {
      "anonymous": false,
      "inputs": [
        {
          "indexed": true,
          "name": "who",
          "type": "address"
        }
      ],
      "name": "SetNonlistedUser",
      "type": "event"
    },
    {
      "anonymous": false,
      "inputs": [
        {
          "indexed": true,
          "name": "who",
          "type": "address"
        }
      ],
      "name": "SetMinter",
      "type": "event"
    },
    {
      "anonymous": false,
      "inputs": [
        {
          "indexed": true,
          "name": "who",
          "type": "address"
        }
      ],
      "name": "RemovedMinter",
      "type": "event"
    },
    {
      "anonymous": false,
      "inputs": [
        {
          "indexed": true,
          "name": "who",
          "type": "address"
        }
      ],
      "name": "SetBlacklistDestroyer",
      "type": "event"
    },
    {
      "anonymous": false,
      "inputs": [
        {
          "indexed": true,
          "name": "who",
          "type": "address"
        }
      ],
      "name": "RemovedBlacklistDestroyer",
      "type": "event"
    },
    {
      "anonymous": false,
      "inputs": [
        {
          "indexed": true,
          "name": "who",
          "type": "address"
        }
      ],
      "name": "SetBlacklistSpender",
      "type": "event"
    },
    {
      "anonymous": false,
      "inputs": [
        {
          "indexed": true,
          "name": "who",
          "type": "address"
        }
      ],
      "name": "RemovedBlacklistSpender",
      "type": "event"
    },
    {
      "anonymous": false,
      "inputs": [
        {
          "indexed": false,
          "name": "_old",
          "type": "address"
        },
        {
          "indexed": false,
          "name": "_new",
          "type": "address"
        }
      ],
      "name": "ChangedPermissionStorage",
      "type": "event"
    },
    {
      "anonymous": false,
      "inputs": [
        {
          "indexed": false,
          "name": "_old",
          "type": "address"
        },
        {
          "indexed": false,
          "name": "_new",
          "type": "address"
        }
      ],
      "name": "ChangedValidatorStorage",
      "type": "event"
    },
    {
      "anonymous": false,
      "inputs": [
        {
          "indexed": true,
          "name": "previousOwner",
          "type": "address"
        }
      ],
      "name": "OwnershipRenounced",
      "type": "event"
    },
    {
      "anonymous": false,
      "inputs": [
        {
          "indexed": true,
          "name": "previousOwner",
          "type": "address"
        },
        {
          "indexed": true,
          "name": "newOwner",
          "type": "address"
        }
      ],
      "name": "OwnershipTransferred",
      "type": "event"
    },
    {
      "constant": true,
      "inputs": [
        {
          "name": "_who",
          "type": "address"
        }
      ],
      "name": "isMinter",
      "outputs": [
        {
          "name": "",
          "type": "bool"
        }
      ],
      "payable": false,
      "stateMutability": "view",
      "type": "function"
    },
    {
      "constant": true,
      "inputs": [
        {
          "name": "_who",
          "type": "address"
        }
      ],
      "name": "isWhitelistedUser",
      "outputs": [
        {
          "name": "",
          "type": "bool"
        }
      ],
      "payable": false,
      "stateMutability": "view",
      "type": "function"
    },
    {
      "constant": true,
      "inputs": [
        {
          "name": "_who",
          "type": "address"
        }
      ],
      "name": "isBlacklistedUser",
      "outputs": [
        {
          "name": "",
          "type": "bool"
        }
      ],
      "payable": false,
      "stateMutability": "view",
      "type": "function"
    },
    {
      "constant": true,
      "inputs": [
        {
          "name": "_who",
          "type": "address"
        }
      ],
      "name": "isNonlistedUser",
      "outputs": [
        {
          "name": "",
          "type": "bool"
        }
      ],
      "payable": false,
      "stateMutability": "view",
      "type": "function"
    }
  ],
  "bytecode": "0x608060405234801561001057600080fd5b5060405160408062005e7e83398101604052805160209091015160008054600160a060020a0319908116331790915560018054600160a060020a0394851690831617905560028054939092169216919091179055615e0a80620000746000396000f3006080604052600436106101955763ffffffff7c0100000000000000000000000000000000000000000000000000000000600035041663029043a4811461019a57806309533303146101ca57806314db6d58146101f85780631830f4931461025f5780631c870eee146103dd578063231a439e146104305780633092afd51461045e57806340a141ff1461048c5780634d238c8e146104ba5780634d54dc96146104e85780635317e44414610516578063556b638414610569578063715018a614610597578063780bfed0146105ac5780637ccce851146106a85780638da5cb5b146106d657806391c4529f14610714578063933aa66714610742578063aa271e1a1461077c578063ab8c71c0146107aa578063aef5eb80146107bf578063b8ccbd17146107ed578063c1331bc314610827578063c56bea6414610855578063ca1e781914610883578063cd49539114610898578063d88c271e146108c6578063e51207e7146108f4578063f2fde38b14610922578063f530259e14610950578063facd743b1461097e578063fca3b5aa146109ac575b600080fd5b3480156101a657600080fd5b506101c873ffffffffffffffffffffffffffffffffffffffff600435166109da565b005b3480156101d657600080fd5b506101c873ffffffffffffffffffffffffffffffffffffffff60043516610db8565b34801561020457600080fd5b5061024b73ffffffffffffffffffffffffffffffffffffffff600435167fffffffff0000000000000000000000000000000000000000000000000000000060243516610e3a565b604080519115158252519081900360200190f35b34801561026b57600080fd5b506102997fffffffff0000000000000000000000000000000000000000000000000000000060043516610f0d565b60405180806020018060200180602001848103845287818151815260200191508051906020019080838360005b838110156102de5781810151838201526020016102c6565b50505050905090810190601f16801561030b5780820380516001836020036101000a031916815260200191505b50848103835286518152865160209182019188019080838360005b8381101561033e578181015183820152602001610326565b50505050905090810190601f16801561036b5780820380516001836020036101000a031916815260200191505b50848103825285518152855160209182019187019080838360005b8381101561039e578181015183820152602001610386565b50505050905090810190601f1680156103cb5780820380516001836020036101000a031916815260200191505b50965050505050505060405180910390f35b3480156103e957600080fd5b506101c873ffffffffffffffffffffffffffffffffffffffff600435167fffffffff00000000000000000000000000000000000000000000000000000000602435166110ec565b34801561043c57600080fd5b506101c873ffffffffffffffffffffffffffffffffffffffff6004351661121a565b34801561046a57600080fd5b506101c873ffffffffffffffffffffffffffffffffffffffff600435166115f8565b34801561049857600080fd5b506101c873ffffffffffffffffffffffffffffffffffffffff60043516611677565b3480156104c657600080fd5b506101c873ffffffffffffffffffffffffffffffffffffffff6004351661172a565b3480156104f457600080fd5b5061024b73ffffffffffffffffffffffffffffffffffffffff600435166117c2565b34801561052257600080fd5b506101c873ffffffffffffffffffffffffffffffffffffffff600435167fffffffff0000000000000000000000000000000000000000000000000000000060243516611896565b34801561057557600080fd5b506101c873ffffffffffffffffffffffffffffffffffffffff600435166119a8565b3480156105a357600080fd5b506101c8611d86565b3480156105b857600080fd5b5060408051602060046024803582810135601f81018590048502860185019096528585526101c89583357fffffffff000000000000000000000000000000000000000000000000000000001695369560449491939091019190819084018382808284375050604080516020601f89358b018035918201839004830284018301909452808352979a99988101979196509182019450925082915084018382808284375050604080516020601f89358b018035918201839004830284018301909452808352979a999881019791965091820194509250829150840183828082843750949750611e179650505050505050565b3480156106b457600080fd5b5061024b73ffffffffffffffffffffffffffffffffffffffff60043516612079565b3480156106e257600080fd5b506106eb612116565b6040805173ffffffffffffffffffffffffffffffffffffffff9092168252519081900360200190f35b34801561072057600080fd5b5061024b73ffffffffffffffffffffffffffffffffffffffff60043516612132565b34801561074e57600080fd5b5061024b7fffffffff00000000000000000000000000000000000000000000000000000000600435166121be565b34801561078857600080fd5b5061024b73ffffffffffffffffffffffffffffffffffffffff60043516612284565b3480156107b657600080fd5b506106eb612320565b3480156107cb57600080fd5b506101c873ffffffffffffffffffffffffffffffffffffffff6004351661233c565b3480156107f957600080fd5b506101c87fffffffff0000000000000000000000000000000000000000000000000000000060043516612510565b34801561083357600080fd5b506101c873ffffffffffffffffffffffffffffffffffffffff6004351661261a565b34801561086157600080fd5b506101c873ffffffffffffffffffffffffffffffffffffffff600435166129f8565b34801561088f57600080fd5b506106eb612a77565b3480156108a457600080fd5b506101c873ffffffffffffffffffffffffffffffffffffffff60043516612a93565b3480156108d257600080fd5b5061024b73ffffffffffffffffffffffffffffffffffffffff60043516612b12565b34801561090057600080fd5b506101c873ffffffffffffffffffffffffffffffffffffffff60043516612bae565b34801561092e57600080fd5b506101c873ffffffffffffffffffffffffffffffffffffffff60043516612d82565b34801561095c57600080fd5b5061024b73ffffffffffffffffffffffffffffffffffffffff60043516612daf565b34801561098a57600080fd5b5061024b73ffffffffffffffffffffffffffffffffffffffff60043516612e3b565b3480156109b857600080fd5b506101c873ffffffffffffffffffffffffffffffffffffffff60043516612eb3565b6109e333612e3b565b1515610a5057604080517f08c379a000000000000000000000000000000000000000000000000000000000815260206004820152601860248201527f53656e646572206d7573742062652076616c696461746f720000000000000000604482015290519081900360640190fd5b600154604080517f8f959f54000000000000000000000000000000000000000000000000000000008152905173ffffffffffffffffffffffffffffffffffffffff9092169163933aa667918391638f959f54916004808201926020929091908290030181600087803b158015610ac557600080fd5b505af1158015610ad9573d6000803e3d6000fd5b505050506040513d6020811015610aef57600080fd5b5051604080517c010000000000000000000000000000000000000000000000000000000063ffffffff85160281527fffffffff0000000000000000000000000000000000000000000000000000000090921660048301525160248083019260209291908290030181600087803b158015610b6857600080fd5b505af1158015610b7c573d6000803e3d6000fd5b505050506040513d6020811015610b9257600080fd5b50511515610c2757604080517f08c379a000000000000000000000000000000000000000000000000000000000815260206004820152602960248201527f426c61636b6c697374207370656e64696e67206e6f7420737570706f7274656460448201527f20627920746f6b656e0000000000000000000000000000000000000000000000606482015290519081900360840190fd5b600154604080517f8f959f54000000000000000000000000000000000000000000000000000000008152905173ffffffffffffffffffffffffffffffffffffffff90921691635317e4449184918491638f959f549160048083019260209291908290030181600087803b158015610c9d57600080fd5b505af1158015610cb1573d6000803e3d6000fd5b505050506040513d6020811015610cc757600080fd5b5051604080517c010000000000000000000000000000000000000000000000000000000063ffffffff861602815273ffffffffffffffffffffffffffffffffffffffff90931660048401527fffffffff00000000000000000000000000000000000000000000000000000000909116602483015251604480830192600092919082900301818387803b158015610d5c57600080fd5b505af1158015610d70573d6000803e3d6000fd5b505060405173ffffffffffffffffffffffffffffffffffffffff841692507fb8b0c8ee459f1d6bd645483509388a7c33773a7ca838bf63ebe8d49d0cb057e59150600090a250565b610dc133612e3b565b1515610e2e57604080517f08c379a000000000000000000000000000000000000000000000000000000000815260206004820152601860248201527f53656e646572206d7573742062652076616c696461746f720000000000000000604482015290519081900360640190fd5b610e3781612f32565b50565b600154604080517f14db6d5800000000000000000000000000000000000000000000000000000000815273ffffffffffffffffffffffffffffffffffffffff85811660048301527fffffffff0000000000000000000000000000000000000000000000000000000085166024830152915160009392909216916314db6d589160448082019260209290919082900301818787803b158015610eda57600080fd5b505af1158015610eee573d6000803e3d6000fd5b505050506040513d6020811015610f0457600080fd5b50519392505050565b600154604080517f395a7b300000000000000000000000000000000000000000000000000000000081527fffffffff000000000000000000000000000000000000000000000000000000008416600482015290516060928392839273ffffffffffffffffffffffffffffffffffffffff9092169163395a7b309160248082019260009290919082900301818387803b158015610fa857600080fd5b505af1158015610fbc573d6000803e3d6000fd5b505050506040513d6000823e601f3d9081017fffffffffffffffffffffffffffffffffffffffffffffffffffffffffffffffe0168201604052606081101561100357600080fd5b81019080805164010000000081111561101b57600080fd5b8201602081018481111561102e57600080fd5b815164010000000081118282018710171561104857600080fd5b5050929190602001805164010000000081111561106457600080fd5b8201602081018481111561107757600080fd5b815164010000000081118282018710171561109157600080fd5b505092919060200180516401000000008111156110ad57600080fd5b820160208101848111156110c057600080fd5b81516401000000008111828201871017156110da57600080fd5b50959a94995097509295505050505050565b6110f533612e3b565b151561116257604080517f08c379a000000000000000000000000000000000000000000000000000000000815260206004820152601860248201527f53656e646572206d7573742062652076616c696461746f720000000000000000604482015290519081900360640190fd5b600154604080517f1c870eee00000000000000000000000000000000000000000000000000000000815273ffffffffffffffffffffffffffffffffffffffff85811660048301527fffffffff000000000000000000000000000000000000000000000000000000008516602483015291519190921691631c870eee91604480830192600092919082900301818387803b1580156111fe57600080fd5b505af1158015611212573d6000803e3d6000fd5b505050505050565b61122333612e3b565b151561129057604080517f08c379a000000000000000000000000000000000000000000000000000000000815260206004820152601860248201527f53656e646572206d7573742062652076616c696461746f720000000000000000604482015290519081900360640190fd5b600154604080517fab96cb46000000000000000000000000000000000000000000000000000000008152905173ffffffffffffffffffffffffffffffffffffffff9092169163933aa66791839163ab96cb46916004808201926020929091908290030181600087803b15801561130557600080fd5b505af1158015611319573d6000803e3d6000fd5b505050506040513d602081101561132f57600080fd5b5051604080517c010000000000000000000000000000000000000000000000000000000063ffffffff85160281527fffffffff0000000000000000000000000000000000000000000000000000000090921660048301525160248083019260209291908290030181600087803b1580156113a857600080fd5b505af11580156113bc573d6000803e3d6000fd5b505050506040513d60208110156113d257600080fd5b5051151561146757604080517f08c379a000000000000000000000000000000000000000000000000000000000815260206004820152603260248201527f426c61636b6c69737420746f6b656e206465737472756374696f6e206e6f742060448201527f737570706f7274656420627920746f6b656e0000000000000000000000000000606482015290519081900360840190fd5b600154604080517fab96cb46000000000000000000000000000000000000000000000000000000008152905173ffffffffffffffffffffffffffffffffffffffff90921691631c870eee918491849163ab96cb469160048083019260209291908290030181600087803b1580156114dd57600080fd5b505af11580156114f1573d6000803e3d6000fd5b505050506040513d602081101561150757600080fd5b5051604080517c010000000000000000000000000000000000000000000000000000000063ffffffff861602815273ffffffffffffffffffffffffffffffffffffffff90931660048401527fffffffff00000000000000000000000000000000000000000000000000000000909116602483015251604480830192600092919082900301818387803b15801561159c57600080fd5b505af11580156115b0573d6000803e3d6000fd5b505060405173ffffffffffffffffffffffffffffffffffffffff841692507fcc8fff52f1373f98b1e3e0505c266d5706ba7fd81e4be56fbf3c42b9a8ee4b759150600090a250565b61160133612e3b565b151561166e57604080517f08c379a000000000000000000000000000000000000000000000000000000000815260206004820152601860248201527f53656e646572206d7573742062652076616c696461746f720000000000000000604482015290519081900360640190fd5b610e378161325f565b60005473ffffffffffffffffffffffffffffffffffffffff16331461169b57600080fd5b600254604080517f40a141ff00000000000000000000000000000000000000000000000000000000815273ffffffffffffffffffffffffffffffffffffffff8481166004830152915191909216916340a141ff91602480830192600092919082900301818387803b15801561170f57600080fd5b505af1158015611723573d6000803e3d6000fd5b5050505050565b60005473ffffffffffffffffffffffffffffffffffffffff16331461174e57600080fd5b600254604080517f4d238c8e00000000000000000000000000000000000000000000000000000000815273ffffffffffffffffffffffffffffffffffffffff848116600483015291519190921691634d238c8e91602480830192600092919082900301818387803b15801561170f57600080fd5b600061187f82600160009054906101000a900473ffffffffffffffffffffffffffffffffffffffff1673ffffffffffffffffffffffffffffffffffffffff1663639c44cf6040518163ffffffff167c0100000000000000000000000000000000000000000000000000000000028152600401602060405180830381600087803b15801561184e57600080fd5b505af1158015611862573d6000803e3d6000fd5b505050506040513d602081101561187857600080fd5b5051610e3a565b15801561189057506118908261358c565b92915050565b61189f33612e3b565b151561190c57604080517f08c379a000000000000000000000000000000000000000000000000000000000815260206004820152601860248201527f53656e646572206d7573742062652076616c696461746f720000000000000000604482015290519081900360640190fd5b600154604080517f5317e44400000000000000000000000000000000000000000000000000000000815273ffffffffffffffffffffffffffffffffffffffff85811660048301527fffffffff000000000000000000000000000000000000000000000000000000008516602483015291519190921691635317e44491604480830192600092919082900301818387803b1580156111fe57600080fd5b6119b133612e3b565b1515611a1e57604080517f08c379a000000000000000000000000000000000000000000000000000000000815260206004820152601860248201527f53656e646572206d7573742062652076616c696461746f720000000000000000604482015290519081900360640190fd5b600154604080517fab96cb46000000000000000000000000000000000000000000000000000000008152905173ffffffffffffffffffffffffffffffffffffffff9092169163933aa66791839163ab96cb46916004808201926020929091908290030181600087803b158015611a9357600080fd5b505af1158015611aa7573d6000803e3d6000fd5b505050506040513d6020811015611abd57600080fd5b5051604080517c010000000000000000000000000000000000000000000000000000000063ffffffff85160281527fffffffff0000000000000000000000000000000000000000000000000000000090921660048301525160248083019260209291908290030181600087803b158015611b3657600080fd5b505af1158015611b4a573d6000803e3d6000fd5b505050506040513d6020811015611b6057600080fd5b50511515611bf557604080517f08c379a000000000000000000000000000000000000000000000000000000000815260206004820152603260248201527f426c61636b6c69737420746f6b656e206465737472756374696f6e206e6f742060448201527f737570706f7274656420627920746f6b656e0000000000000000000000000000606482015290519081900360840190fd5b600154604080517fab96cb46000000000000000000000000000000000000000000000000000000008152905173ffffffffffffffffffffffffffffffffffffffff90921691635317e444918491849163ab96cb469160048083019260209291908290030181600087803b158015611c6b57600080fd5b505af1158015611c7f573d6000803e3d6000fd5b505050506040513d6020811015611c9557600080fd5b5051604080517c010000000000000000000000000000000000000000000000000000000063ffffffff861602815273ffffffffffffffffffffffffffffffffffffffff90931660048401527fffffffff00000000000000000000000000000000000000000000000000000000909116602483015251604480830192600092919082900301818387803b158015611d2a57600080fd5b505af1158015611d3e573d6000803e3d6000fd5b505060405173ffffffffffffffffffffffffffffffffffffffff841692507f86bb58560ff5b69582569594aec27466e395f18de8783a40ead458348c9173d39150600090a250565b60005473ffffffffffffffffffffffffffffffffffffffff163314611daa57600080fd5b6000805460405173ffffffffffffffffffffffffffffffffffffffff909116917ff8df31144d9c2f0f6b59d69b8b98abd5459d07f2742c4df920b25aae33c6482091a2600080547fffffffffffffffffffffffff0000000000000000000000000000000000000000169055565b611e2033612e3b565b1515611e8d57604080517f08c379a000000000000000000000000000000000000000000000000000000000815260206004820152601860248201527f53656e646572206d7573742062652076616c696461746f720000000000000000604482015290519081900360640190fd5b6001546040517f780bfed00000000000000000000000000000000000000000000000000000000081527fffffffff0000000000000000000000000000000000000000000000000000000086166004820190815260806024830190815286516084840152865173ffffffffffffffffffffffffffffffffffffffff9094169363780bfed09389938993899389936044810191606482019160a40190602089019080838360005b83811015611f4a578181015183820152602001611f32565b50505050905090810190601f168015611f775780820380516001836020036101000a031916815260200191505b50848103835286518152865160209182019188019080838360005b83811015611faa578181015183820152602001611f92565b50505050905090810190601f168015611fd75780820380516001836020036101000a031916815260200191505b50848103825285518152855160209182019187019080838360005b8381101561200a578181015183820152602001611ff2565b50505050905090810190601f1680156120375780820380516001836020036101000a031916815260200191505b50975050505050505050600060405180830381600087803b15801561205b57600080fd5b505af115801561206f573d6000803e3d6000fd5b5050505050505050565b600061210582600160009054906101000a900473ffffffffffffffffffffffffffffffffffffffff1673ffffffffffffffffffffffffffffffffffffffff1663639c44cf6040518163ffffffff167c0100000000000000000000000000000000000000000000000000000000028152600401602060405180830381600087803b15801561184e57600080fd5b1580156118905750611890826136b1565b60005473ffffffffffffffffffffffffffffffffffffffff1681565b600061189082600160009054906101000a900473ffffffffffffffffffffffffffffffffffffffff1673ffffffffffffffffffffffffffffffffffffffff16638f959f546040518163ffffffff167c0100000000000000000000000000000000000000000000000000000000028152600401602060405180830381600087803b15801561184e57600080fd5b600154604080517f933aa6670000000000000000000000000000000000000000000000000000000081527fffffffff0000000000000000000000000000000000000000000000000000000084166004820152905160009273ffffffffffffffffffffffffffffffffffffffff169163933aa66791602480830192602092919082900301818787803b15801561225257600080fd5b505af1158015612266573d6000803e3d6000fd5b505050506040513d602081101561227c57600080fd5b505192915050565b600061228f826137cf565b8015611890575061189082600160009054906101000a900473ffffffffffffffffffffffffffffffffffffffff1673ffffffffffffffffffffffffffffffffffffffff16638b7c81096040518163ffffffff167c0100000000000000000000000000000000000000000000000000000000028152600401602060405180830381600087803b15801561184e57600080fd5b60015473ffffffffffffffffffffffffffffffffffffffff1681565b6000805473ffffffffffffffffffffffffffffffffffffffff16331461236157600080fd5b60015473ffffffffffffffffffffffffffffffffffffffff838116911614156123eb57604080517f08c379a000000000000000000000000000000000000000000000000000000000815260206004820152601e60248201527f4d7573742062652061206e6577207065726d697373696f6e2073686565740000604482015290519081900360640190fd5b6123f48261385b565b151561248757604080517f08c379a000000000000000000000000000000000000000000000000000000000815260206004820152603860248201527f43616e6e6f7420736574206120726567756c61746f722073746f72616765207460448201527f6f2061206e6f6e2d636f6e747261637420616464726573730000000000000000606482015290519081900360840190fd5b506001805473ffffffffffffffffffffffffffffffffffffffff8381167fffffffffffffffffffffffff0000000000000000000000000000000000000000831681179093556040805191909216808252602082019390935281517fe17aee9aa44ff533ce61ee89d13b1d2a8cb1143b69d05d08a5d136acae8a7707929181900390910190a15050565b61251933612e3b565b151561258657604080517f08c379a000000000000000000000000000000000000000000000000000000000815260206004820152601860248201527f53656e646572206d7573742062652076616c696461746f720000000000000000604482015290519081900360640190fd5b600154604080517fb8ccbd170000000000000000000000000000000000000000000000000000000081527fffffffff0000000000000000000000000000000000000000000000000000000084166004820152905173ffffffffffffffffffffffffffffffffffffffff9092169163b8ccbd179160248082019260009290919082900301818387803b15801561170f57600080fd5b61262333612e3b565b151561269057604080517f08c379a000000000000000000000000000000000000000000000000000000000815260206004820152601860248201527f53656e646572206d7573742062652076616c696461746f720000000000000000604482015290519081900360640190fd5b600154604080517f8f959f54000000000000000000000000000000000000000000000000000000008152905173ffffffffffffffffffffffffffffffffffffffff9092169163933aa667918391638f959f54916004808201926020929091908290030181600087803b15801561270557600080fd5b505af1158015612719573d6000803e3d6000fd5b505050506040513d602081101561272f57600080fd5b5051604080517c010000000000000000000000000000000000000000000000000000000063ffffffff85160281527fffffffff0000000000000000000000000000000000000000000000000000000090921660048301525160248083019260209291908290030181600087803b1580156127a857600080fd5b505af11580156127bc573d6000803e3d6000fd5b505050506040513d60208110156127d257600080fd5b5051151561286757604080517f08c379a000000000000000000000000000000000000000000000000000000000815260206004820152602960248201527f426c61636b6c697374207370656e64696e67206e6f7420737570706f7274656460448201527f20627920746f6b656e0000000000000000000000000000000000000000000000606482015290519081900360840190fd5b600154604080517f8f959f54000000000000000000000000000000000000000000000000000000008152905173ffffffffffffffffffffffffffffffffffffffff90921691631c870eee9184918491638f959f549160048083019260209291908290030181600087803b1580156128dd57600080fd5b505af11580156128f1573d6000803e3d6000fd5b505050506040513d602081101561290757600080fd5b5051604080517c010000000000000000000000000000000000000000000000000000000063ffffffff861602815273ffffffffffffffffffffffffffffffffffffffff90931660048401527fffffffff00000000000000000000000000000000000000000000000000000000909116602483015251604480830192600092919082900301818387803b15801561299c57600080fd5b505af11580156129b0573d6000803e3d6000fd5b505060405173ffffffffffffffffffffffffffffffffffffffff841692507faa23b83c4c61a5f45cfa40a87b5140110977014da47ac244df45db2f1ce18a9e9150600090a250565b612a0133612e3b565b1515612a6e57604080517f08c379a000000000000000000000000000000000000000000000000000000000815260206004820152601860248201527f53656e646572206d7573742062652076616c696461746f720000000000000000604482015290519081900360640190fd5b610e3781613863565b60025473ffffffffffffffffffffffffffffffffffffffff1681565b612a9c33612e3b565b1515612b0957604080517f08c379a000000000000000000000000000000000000000000000000000000000815260206004820152601860248201527f53656e646572206d7573742062652076616c696461746f720000000000000000604482015290519081900360640190fd5b610e3781613b90565b6000612b9e82600160009054906101000a900473ffffffffffffffffffffffffffffffffffffffff1673ffffffffffffffffffffffffffffffffffffffff1663639c44cf6040518163ffffffff167c0100000000000000000000000000000000000000000000000000000000028152600401602060405180830381600087803b15801561184e57600080fd5b8015611890575061189082613ebd565b6000805473ffffffffffffffffffffffffffffffffffffffff163314612bd357600080fd5b60025473ffffffffffffffffffffffffffffffffffffffff83811691161415612c5d57604080517f08c379a000000000000000000000000000000000000000000000000000000000815260206004820152601d60248201527f4d7573742062652061206e65772076616c696461746f72207368656574000000604482015290519081900360640190fd5b612c668261385b565b1515612cf957604080517f08c379a000000000000000000000000000000000000000000000000000000000815260206004820152603860248201527f43616e6e6f7420736574206120726567756c61746f722073746f72616765207460448201527f6f2061206e6f6e2d636f6e747261637420616464726573730000000000000000606482015290519081900360840190fd5b506002805473ffffffffffffffffffffffffffffffffffffffff8381167fffffffffffffffffffffffff0000000000000000000000000000000000000000831681179093556040805191909216808252602082019390935281517f8ca674c4f8f0a3a35b50833ae3d8d889663de2b78cdbe0765021594acec3cda2929181900390910190a15050565b60005473ffffffffffffffffffffffffffffffffffffffff163314612da657600080fd5b610e3781613fda565b600061189082600160009054906101000a900473ffffffffffffffffffffffffffffffffffffffff1673ffffffffffffffffffffffffffffffffffffffff1663ab96cb466040518163ffffffff167c0100000000000000000000000000000000000000000000000000000000028152600401602060405180830381600087803b15801561184e57600080fd5b600254604080517ffacd743b00000000000000000000000000000000000000000000000000000000815273ffffffffffffffffffffffffffffffffffffffff84811660048301529151600093929092169163facd743b9160248082019260209290919082900301818787803b15801561225257600080fd5b612ebc33612e3b565b1515612f2957604080517f08c379a000000000000000000000000000000000000000000000000000000000815260206004820152601860248201527f53656e646572206d7573742062652076616c696461746f720000000000000000604482015290519081900360640190fd5b610e3781614089565b600154604080517f639c44cf000000000000000000000000000000000000000000000000000000008152905173ffffffffffffffffffffffffffffffffffffffff9092169163933aa66791839163639c44cf916004808201926020929091908290030181600087803b158015612fa757600080fd5b505af1158015612fbb573d6000803e3d6000fd5b505050506040513d6020811015612fd157600080fd5b5051604080517c010000000000000000000000000000000000000000000000000000000063ffffffff85160281527fffffffff0000000000000000000000000000000000000000000000000000000090921660048301525160248083019260209291908290030181600087803b15801561304a57600080fd5b505af115801561305e573d6000803e3d6000fd5b505050506040513d602081101561307457600080fd5b5051151561310957604080517f08c379a000000000000000000000000000000000000000000000000000000000815260206004820152602960248201527f436f6e76657274696e6720746f2043555344206e6f7420737570706f7274656460448201527f20627920746f6b656e0000000000000000000000000000000000000000000000606482015290519081900360840190fd5b600154604080517f639c44cf000000000000000000000000000000000000000000000000000000008152905173ffffffffffffffffffffffffffffffffffffffff90921691631c870eee918491849163639c44cf9160048083019260209291908290030181600087803b15801561317f57600080fd5b505af1158015613193573d6000803e3d6000fd5b505050506040513d60208110156131a957600080fd5b5051604080517c010000000000000000000000000000000000000000000000000000000063ffffffff861602815273ffffffffffffffffffffffffffffffffffffffff90931660048401527fffffffff00000000000000000000000000000000000000000000000000000000909116602483015251604480830192600092919082900301818387803b15801561323e57600080fd5b505af1158015613252573d6000803e3d6000fd5b50505050610e37816143b6565b600154604080517f8b7c8109000000000000000000000000000000000000000000000000000000008152905173ffffffffffffffffffffffffffffffffffffffff9092169163933aa667918391638b7c8109916004808201926020929091908290030181600087803b1580156132d457600080fd5b505af11580156132e8573d6000803e3d6000fd5b505050506040513d60208110156132fe57600080fd5b5051604080517c010000000000000000000000000000000000000000000000000000000063ffffffff85160281527fffffffff0000000000000000000000000000000000000000000000000000000090921660048301525160248083019260209291908290030181600087803b15801561337757600080fd5b505af115801561338b573d6000803e3d6000fd5b505050506040513d60208110156133a157600080fd5b5051151561343657604080517f08c379a000000000000000000000000000000000000000000000000000000000815260206004820152602660248201527f4d696e74696e6720746f2043555344206e6f7420737570706f7274656420627960448201527f20746f6b656e0000000000000000000000000000000000000000000000000000606482015290519081900360840190fd5b600154604080517f8b7c8109000000000000000000000000000000000000000000000000000000008152905173ffffffffffffffffffffffffffffffffffffffff90921691635317e4449184918491638b7c81099160048083019260209291908290030181600087803b1580156134ac57600080fd5b505af11580156134c0573d6000803e3d6000fd5b505050506040513d60208110156134d657600080fd5b5051604080517c010000000000000000000000000000000000000000000000000000000063ffffffff861602815273ffffffffffffffffffffffffffffffffffffffff90931660048401527fffffffff00000000000000000000000000000000000000000000000000000000909116602483015251604480830192600092919082900301818387803b15801561356b57600080fd5b505af115801561357f573d6000803e3d6000fd5b50505050610e3781614a42565b600061361882600160009054906101000a900473ffffffffffffffffffffffffffffffffffffffff1673ffffffffffffffffffffffffffffffffffffffff1663cfbf1b906040518163ffffffff167c0100000000000000000000000000000000000000000000000000000000028152600401602060405180830381600087803b15801561184e57600080fd5b15801561189057506136aa82600160009054906101000a900473ffffffffffffffffffffffffffffffffffffffff1673ffffffffffffffffffffffffffffffffffffffff16639491951b6040518163ffffffff167c0100000000000000000000000000000000000000000000000000000000028152600401602060405180830381600087803b15801561184e57600080fd5b1592915050565b600061373d82600160009054906101000a900473ffffffffffffffffffffffffffffffffffffffff1673ffffffffffffffffffffffffffffffffffffffff1663cfbf1b906040518163ffffffff167c0100000000000000000000000000000000000000000000000000000000028152600401602060405180830381600087803b15801561184e57600080fd5b158015611890575061189082600160009054906101000a900473ffffffffffffffffffffffffffffffffffffffff1673ffffffffffffffffffffffffffffffffffffffff16639491951b6040518163ffffffff167c0100000000000000000000000000000000000000000000000000000000028152600401602060405180830381600087803b15801561184e57600080fd5b600061189082600160009054906101000a900473ffffffffffffffffffffffffffffffffffffffff1673ffffffffffffffffffffffffffffffffffffffff166388f14b0e6040518163ffffffff167c0100000000000000000000000000000000000000000000000000000000028152600401602060405180830381600087803b15801561184e57600080fd5b6000903b1190565b600154604080517f639c44cf000000000000000000000000000000000000000000000000000000008152905173ffffffffffffffffffffffffffffffffffffffff9092169163933aa66791839163639c44cf916004808201926020929091908290030181600087803b1580156138d857600080fd5b505af11580156138ec573d6000803e3d6000fd5b505050506040513d602081101561390257600080fd5b5051604080517c010000000000000000000000000000000000000000000000000000000063ffffffff85160281527fffffffff0000000000000000000000000000000000000000000000000000000090921660048301525160248083019260209291908290030181600087803b15801561397b57600080fd5b505af115801561398f573d6000803e3d6000fd5b505050506040513d60208110156139a557600080fd5b50511515613a3a57604080517f08c379a000000000000000000000000000000000000000000000000000000000815260206004820152602960248201527f436f6e76657274696e6720746f2043555344206e6f7420737570706f7274656460448201527f20627920746f6b656e0000000000000000000000000000000000000000000000606482015290519081900360840190fd5b600154604080517f639c44cf000000000000000000000000000000000000000000000000000000008152905173ffffffffffffffffffffffffffffffffffffffff90921691635317e444918491849163639c44cf9160048083019260209291908290030181600087803b158015613ab057600080fd5b505af1158015613ac4573d6000803e3d6000fd5b505050506040513d6020811015613ada57600080fd5b5051604080517c010000000000000000000000000000000000000000000000000000000063ffffffff861602815273ffffffffffffffffffffffffffffffffffffffff90931660048401527fffffffff00000000000000000000000000000000000000000000000000000000909116602483015251604480830192600092919082900301818387803b158015613b6f57600080fd5b505af1158015613b83573d6000803e3d6000fd5b50505050610e3781614d84565b600154604080517f639c44cf000000000000000000000000000000000000000000000000000000008152905173ffffffffffffffffffffffffffffffffffffffff9092169163933aa66791839163639c44cf916004808201926020929091908290030181600087803b158015613c0557600080fd5b505af1158015613c19573d6000803e3d6000fd5b505050506040513d6020811015613c2f57600080fd5b5051604080517c010000000000000000000000000000000000000000000000000000000063ffffffff85160281527fffffffff0000000000000000000000000000000000000000000000000000000090921660048301525160248083019260209291908290030181600087803b158015613ca857600080fd5b505af1158015613cbc573d6000803e3d6000fd5b505050506040513d6020811015613cd257600080fd5b50511515613d6757604080517f08c379a000000000000000000000000000000000000000000000000000000000815260206004820152602960248201527f436f6e76657274696e6720746f2043555344206e6f7420737570706f7274656460448201527f20627920746f6b656e0000000000000000000000000000000000000000000000606482015290519081900360840190fd5b600154604080517f639c44cf000000000000000000000000000000000000000000000000000000008152905173ffffffffffffffffffffffffffffffffffffffff90921691635317e444918491849163639c44cf9160048083019260209291908290030181600087803b158015613ddd57600080fd5b505af1158015613df1573d6000803e3d6000fd5b505050506040513d6020811015613e0757600080fd5b5051604080517c010000000000000000000000000000000000000000000000000000000063ffffffff861602815273ffffffffffffffffffffffffffffffffffffffff90931660048401527fffffffff00000000000000000000000000000000000000000000000000000000909116602483015251604480830192600092919082900301818387803b158015613e9c57600080fd5b505af1158015613eb0573d6000803e3d6000fd5b50505050610e3781615410565b6000613f4982600160009054906101000a900473ffffffffffffffffffffffffffffffffffffffff1673ffffffffffffffffffffffffffffffffffffffff1663cfbf1b906040518163ffffffff167c0100000000000000000000000000000000000000000000000000000000028152600401602060405180830381600087803b15801561184e57600080fd5b801561189057506136aa82600160009054906101000a900473ffffffffffffffffffffffffffffffffffffffff1673ffffffffffffffffffffffffffffffffffffffff16639491951b6040518163ffffffff167c0100000000000000000000000000000000000000000000000000000000028152600401602060405180830381600087803b15801561184e57600080fd5b73ffffffffffffffffffffffffffffffffffffffff81161515613ffc57600080fd5b6000805460405173ffffffffffffffffffffffffffffffffffffffff808516939216917f8be0079c531659141344cd1fd0a4f28419497f9722a3daafe3b4186f6b6457e091a3600080547fffffffffffffffffffffffff00000000000000000000000000000000000000001673ffffffffffffffffffffffffffffffffffffffff92909216919091179055565b600154604080517f8b7c8109000000000000000000000000000000000000000000000000000000008152905173ffffffffffffffffffffffffffffffffffffffff9092169163933aa667918391638b7c8109916004808201926020929091908290030181600087803b1580156140fe57600080fd5b505af1158015614112573d6000803e3d6000fd5b505050506040513d602081101561412857600080fd5b5051604080517c010000000000000000000000000000000000000000000000000000000063ffffffff85160281527fffffffff0000000000000000000000000000000000000000000000000000000090921660048301525160248083019260209291908290030181600087803b1580156141a157600080fd5b505af11580156141b5573d6000803e3d6000fd5b505050506040513d60208110156141cb57600080fd5b5051151561426057604080517f08c379a000000000000000000000000000000000000000000000000000000000815260206004820152602660248201527f4d696e74696e6720746f2043555344206e6f7420737570706f7274656420627960448201527f20746f6b656e0000000000000000000000000000000000000000000000000000606482015290519081900360840190fd5b600154604080517f8b7c8109000000000000000000000000000000000000000000000000000000008152905173ffffffffffffffffffffffffffffffffffffffff90921691631c870eee9184918491638b7c81099160048083019260209291908290030181600087803b1580156142d657600080fd5b505af11580156142ea573d6000803e3d6000fd5b505050506040513d602081101561430057600080fd5b5051604080517c010000000000000000000000000000000000000000000000000000000063ffffffff861602815273ffffffffffffffffffffffffffffffffffffffff90931660048401527fffffffff00000000000000000000000000000000000000000000000000000000909116602483015251604480830192600092919082900301818387803b15801561439557600080fd5b505af11580156143a9573d6000803e3d6000fd5b50505050610e3781615a9c565b600154604080517fcfbf1b90000000000000000000000000000000000000000000000000000000008152905173ffffffffffffffffffffffffffffffffffffffff9092169163933aa66791839163cfbf1b90916004808201926020929091908290030181600087803b15801561442b57600080fd5b505af115801561443f573d6000803e3d6000fd5b505050506040513d602081101561445557600080fd5b5051604080517c010000000000000000000000000000000000000000000000000000000063ffffffff85160281527fffffffff0000000000000000000000000000000000000000000000000000000090921660048301525160248083019260209291908290030181600087803b1580156144ce57600080fd5b505af11580156144e2573d6000803e3d6000fd5b505050506040513d60208110156144f857600080fd5b5051151561458d57604080517f08c379a000000000000000000000000000000000000000000000000000000000815260206004820152602260248201527f4275726e206d6574686f64206e6f7420737570706f7274656420627920746f6b60448201527f656e000000000000000000000000000000000000000000000000000000000000606482015290519081900360840190fd5b600154604080517f9491951b000000000000000000000000000000000000000000000000000000008152905173ffffffffffffffffffffffffffffffffffffffff9092169163933aa667918391639491951b916004808201926020929091908290030181600087803b15801561460257600080fd5b505af1158015614616573d6000803e3d6000fd5b505050506040513d602081101561462c57600080fd5b5051604080517c010000000000000000000000000000000000000000000000000000000063ffffffff85160281527fffffffff0000000000000000000000000000000000000000000000000000000090921660048301525160248083019260209291908290030181600087803b1580156146a557600080fd5b505af11580156146b9573d6000803e3d6000fd5b505050506040513d60208110156146cf57600080fd5b5051151561476457604080517f08c379a000000000000000000000000000000000000000000000000000000000815260206004820152602b60248201527f53656c662d6465737472756374206d6574686f64206e6f7420737570706f727460448201527f656420627920746f6b656e000000000000000000000000000000000000000000606482015290519081900360840190fd5b600154604080517fcfbf1b90000000000000000000000000000000000000000000000000000000008152905173ffffffffffffffffffffffffffffffffffffffff90921691631c870eee918491849163cfbf1b909160048083019260209291908290030181600087803b1580156147da57600080fd5b505af11580156147ee573d6000803e3d6000fd5b505050506040513d602081101561480457600080fd5b5051604080517c010000000000000000000000000000000000000000000000000000000063ffffffff861602815273ffffffffffffffffffffffffffffffffffffffff90931660048401527fffffffff00000000000000000000000000000000000000000000000000000000909116602483015251604480830192600092919082900301818387803b15801561489957600080fd5b505af11580156148ad573d6000803e3d6000fd5b5050600154604080517f9491951b000000000000000000000000000000000000000000000000000000008152905173ffffffffffffffffffffffffffffffffffffffff9092169350635317e444925084918491639491951b9160048083019260209291908290030181600087803b15801561492757600080fd5b505af115801561493b573d6000803e3d6000fd5b505050506040513d602081101561495157600080fd5b5051604080517c010000000000000000000000000000000000000000000000000000000063ffffffff861602815273ffffffffffffffffffffffffffffffffffffffff90931660048401527fffffffff00000000000000000000000000000000000000000000000000000000909116602483015251604480830192600092919082900301818387803b1580156149e657600080fd5b505af11580156149fa573d6000803e3d6000fd5b505060405173ffffffffffffffffffffffffffffffffffffffff841692507f86b7e0c3e1db481670ce05712af57844698476ca35579a16697e6be0452808689150600090a250565b600154604080517f88f14b0e000000000000000000000000000000000000000000000000000000008152905173ffffffffffffffffffffffffffffffffffffffff9092169163933aa6679183916388f14b0e916004808201926020929091908290030181600087803b158015614ab757600080fd5b505af1158015614acb573d6000803e3d6000fd5b505050506040513d6020811015614ae157600080fd5b5051604080517c010000000000000000000000000000000000000000000000000000000063ffffffff85160281527fffffffff0000000000000000000000000000000000000000000000000000000090921660048301525160248083019260209291908290030181600087803b158015614b5a57600080fd5b505af1158015614b6e573d6000803e3d6000fd5b505050506040513d6020811015614b8457600080fd5b50511515614bf357604080517f08c379a000000000000000000000000000000000000000000000000000000000815260206004820152601e60248201527f4d696e74696e67206e6f7420737570706f7274656420627920746f6b656e0000604482015290519081900360640190fd5b600154604080517f88f14b0e000000000000000000000000000000000000000000000000000000008152905173ffffffffffffffffffffffffffffffffffffffff90921691635317e44491849184916388f14b0e9160048083019260209291908290030181600087803b158015614c6957600080fd5b505af1158015614c7d573d6000803e3d6000fd5b505050506040513d6020811015614c9357600080fd5b5051604080517c010000000000000000000000000000000000000000000000000000000063ffffffff861602815273ffffffffffffffffffffffffffffffffffffffff90931660048401527fffffffff00000000000000000000000000000000000000000000000000000000909116602483015251604480830192600092919082900301818387803b158015614d2857600080fd5b505af1158015614d3c573d6000803e3d6000fd5b505060405173ffffffffffffffffffffffffffffffffffffffff841692507fc93cfdd5d8f442c448a02ed11ccff64355643272c9f2be94b723f2181af1a8969150600090a250565b600154604080517fcfbf1b90000000000000000000000000000000000000000000000000000000008152905173ffffffffffffffffffffffffffffffffffffffff9092169163933aa66791839163cfbf1b90916004808201926020929091908290030181600087803b158015614df957600080fd5b505af1158015614e0d573d6000803e3d6000fd5b505050506040513d6020811015614e2357600080fd5b5051604080517c010000000000000000000000000000000000000000000000000000000063ffffffff85160281527fffffffff0000000000000000000000000000000000000000000000000000000090921660048301525160248083019260209291908290030181600087803b158015614e9c57600080fd5b505af1158015614eb0573d6000803e3d6000fd5b505050506040513d6020811015614ec657600080fd5b50511515614f5b57604080517f08c379a000000000000000000000000000000000000000000000000000000000815260206004820152602260248201527f4275726e206d6574686f64206e6f7420737570706f7274656420627920746f6b60448201527f656e000000000000000000000000000000000000000000000000000000000000606482015290519081900360840190fd5b600154604080517f9491951b000000000000000000000000000000000000000000000000000000008152905173ffffffffffffffffffffffffffffffffffffffff9092169163933aa667918391639491951b916004808201926020929091908290030181600087803b158015614fd057600080fd5b505af1158015614fe4573d6000803e3d6000fd5b505050506040513d6020811015614ffa57600080fd5b5051604080517c010000000000000000000000000000000000000000000000000000000063ffffffff85160281527fffffffff0000000000000000000000000000000000000000000000000000000090921660048301525160248083019260209291908290030181600087803b15801561507357600080fd5b505af1158015615087573d6000803e3d6000fd5b505050506040513d602081101561509d57600080fd5b5051151561513257604080517f08c379a000000000000000000000000000000000000000000000000000000000815260206004820152602b60248201527f53656c662d6465737472756374206d6574686f64206e6f7420737570706f727460448201527f656420627920746f6b656e000000000000000000000000000000000000000000606482015290519081900360840190fd5b600154604080517fcfbf1b90000000000000000000000000000000000000000000000000000000008152905173ffffffffffffffffffffffffffffffffffffffff90921691635317e444918491849163cfbf1b909160048083019260209291908290030181600087803b1580156151a857600080fd5b505af11580156151bc573d6000803e3d6000fd5b505050506040513d60208110156151d257600080fd5b5051604080517c010000000000000000000000000000000000000000000000000000000063ffffffff861602815273ffffffffffffffffffffffffffffffffffffffff90931660048401527fffffffff00000000000000000000000000000000000000000000000000000000909116602483015251604480830192600092919082900301818387803b15801561526757600080fd5b505af115801561527b573d6000803e3d6000fd5b5050600154604080517f9491951b000000000000000000000000000000000000000000000000000000008152905173ffffffffffffffffffffffffffffffffffffffff9092169350631c870eee925084918491639491951b9160048083019260209291908290030181600087803b1580156152f557600080fd5b505af1158015615309573d6000803e3d6000fd5b505050506040513d602081101561531f57600080fd5b5051604080517c010000000000000000000000000000000000000000000000000000000063ffffffff861602815273ffffffffffffffffffffffffffffffffffffffff90931660048401527fffffffff00000000000000000000000000000000000000000000000000000000909116602483015251604480830192600092919082900301818387803b1580156153b457600080fd5b505af11580156153c8573d6000803e3d6000fd5b505060405173ffffffffffffffffffffffffffffffffffffffff841692507f8ed6db9e8aeb425f391c919c79778f978777d9e9e9f357656b139b2e9251de929150600090a250565b600154604080517fcfbf1b90000000000000000000000000000000000000000000000000000000008152905173ffffffffffffffffffffffffffffffffffffffff9092169163933aa66791839163cfbf1b90916004808201926020929091908290030181600087803b15801561548557600080fd5b505af1158015615499573d6000803e3d6000fd5b505050506040513d60208110156154af57600080fd5b5051604080517c010000000000000000000000000000000000000000000000000000000063ffffffff85160281527fffffffff0000000000000000000000000000000000000000000000000000000090921660048301525160248083019260209291908290030181600087803b15801561552857600080fd5b505af115801561553c573d6000803e3d6000fd5b505050506040513d602081101561555257600080fd5b505115156155e757604080517f08c379a000000000000000000000000000000000000000000000000000000000815260206004820152602260248201527f4275726e206d6574686f64206e6f7420737570706f7274656420627920746f6b60448201527f656e000000000000000000000000000000000000000000000000000000000000606482015290519081900360840190fd5b600154604080517f9491951b000000000000000000000000000000000000000000000000000000008152905173ffffffffffffffffffffffffffffffffffffffff9092169163933aa667918391639491951b916004808201926020929091908290030181600087803b15801561565c57600080fd5b505af1158015615670573d6000803e3d6000fd5b505050506040513d602081101561568657600080fd5b5051604080517c010000000000000000000000000000000000000000000000000000000063ffffffff85160281527fffffffff0000000000000000000000000000000000000000000000000000000090921660048301525160248083019260209291908290030181600087803b1580156156ff57600080fd5b505af1158015615713573d6000803e3d6000fd5b505050506040513d602081101561572957600080fd5b505115156157be57604080517f08c379a000000000000000000000000000000000000000000000000000000000815260206004820152602b60248201527f53656c662d6465737472756374206d6574686f64206e6f7420737570706f727460448201527f656420627920746f6b656e000000000000000000000000000000000000000000606482015290519081900360840190fd5b600154604080517fcfbf1b90000000000000000000000000000000000000000000000000000000008152905173ffffffffffffffffffffffffffffffffffffffff90921691635317e444918491849163cfbf1b909160048083019260209291908290030181600087803b15801561583457600080fd5b505af1158015615848573d6000803e3d6000fd5b505050506040513d602081101561585e57600080fd5b5051604080517c010000000000000000000000000000000000000000000000000000000063ffffffff861602815273ffffffffffffffffffffffffffffffffffffffff90931660048401527fffffffff00000000000000000000000000000000000000000000000000000000909116602483015251604480830192600092919082900301818387803b1580156158f357600080fd5b505af1158015615907573d6000803e3d6000fd5b5050600154604080517f9491951b000000000000000000000000000000000000000000000000000000008152905173ffffffffffffffffffffffffffffffffffffffff9092169350635317e444925084918491639491951b9160048083019260209291908290030181600087803b15801561598157600080fd5b505af1158015615995573d6000803e3d6000fd5b505050506040513d60208110156159ab57600080fd5b5051604080517c010000000000000000000000000000000000000000000000000000000063ffffffff861602815273ffffffffffffffffffffffffffffffffffffffff90931660048401527fffffffff00000000000000000000000000000000000000000000000000000000909116602483015251604480830192600092919082900301818387803b158015615a4057600080fd5b505af1158015615a54573d6000803e3d6000fd5b505060405173ffffffffffffffffffffffffffffffffffffffff841692507f99fac8adcffc13d01bc3b656d54bfa9e5f9a77ace9bf19f5a1a9469990a782b79150600090a250565b600154604080517f88f14b0e000000000000000000000000000000000000000000000000000000008152905173ffffffffffffffffffffffffffffffffffffffff9092169163933aa6679183916388f14b0e916004808201926020929091908290030181600087803b158015615b1157600080fd5b505af1158015615b25573d6000803e3d6000fd5b505050506040513d6020811015615b3b57600080fd5b5051604080517c010000000000000000000000000000000000000000000000000000000063ffffffff85160281527fffffffff0000000000000000000000000000000000000000000000000000000090921660048301525160248083019260209291908290030181600087803b158015615bb457600080fd5b505af1158015615bc8573d6000803e3d6000fd5b505050506040513d6020811015615bde57600080fd5b50511515615c4d57604080517f08c379a000000000000000000000000000000000000000000000000000000000815260206004820152601e60248201527f4d696e74696e67206e6f7420737570706f7274656420627920746f6b656e0000604482015290519081900360640190fd5b600154604080517f88f14b0e000000000000000000000000000000000000000000000000000000008152905173ffffffffffffffffffffffffffffffffffffffff90921691631c870eee91849184916388f14b0e9160048083019260209291908290030181600087803b158015615cc357600080fd5b505af1158015615cd7573d6000803e3d6000fd5b505050506040513d6020811015615ced57600080fd5b5051604080517c010000000000000000000000000000000000000000000000000000000063ffffffff861602815273ffffffffffffffffffffffffffffffffffffffff90931660048401527fffffffff00000000000000000000000000000000000000000000000000000000909116602483015251604480830192600092919082900301818387803b158015615d8257600080fd5b505af1158015615d96573d6000803e3d6000fd5b505060405173ffffffffffffffffffffffffffffffffffffffff841692507fcec52196e972044edde8689a1b608e459c5946b7f3e5c8cd3d6d8e126d422e1c9150600090a2505600a165627a7a72305820a32f057a91d5abc7d38dbb9d5f13144abdf8c7508574ac8979587f4630cf09ac0029",
  "source": "pragma solidity ^0.4.24;\r\n\r\nimport \"../Regulator.sol\";\r\n\r\n/**\r\n * @title WhitelistedTokenRegulator\r\n * @dev WhitelistedTokenRegulator is a type of Regulator that modifies its definitions of\r\n * what constitutes a \"whitelisted/nonlisted/blacklisted\" user. A WhitelistedToken\r\n * provides a user the additional ability to convert from a whtielisted stablecoin into the\r\n * meta-token CUSD, or mint CUSD directly through a specific WT.\r\n *\r\n */\r\ncontract WhitelistedTokenRegulator is Regulator {\r\n    constructor(address p, address v) Regulator(p,v) public {}\r\n\r\n    // A WT minter should have option to either mint directly into CUSD via mintCUSD(), or\r\n    // mint the WT via an ordinary mint() \r\n    function _setMinter(address _who) internal {\r\n        require(permissions.isPermission(permissions.MINT_CUSD_SIG()), \"Minting to CUSD not supported by token\");\r\n        permissions.setUserPermission(_who, permissions.MINT_CUSD_SIG());\r\n        super._setMinter(_who);\r\n    }\r\n\r\n    function _removeMinter(address _who) internal {\r\n        require(permissions.isPermission(permissions.MINT_CUSD_SIG()), \"Minting to CUSD not supported by token\");\r\n        permissions.removeUserPermission(_who, permissions.MINT_CUSD_SIG());\r\n        super._removeMinter(_who);\r\n    }\r\n\r\n    function isMinter(address _who) public view returns (bool) {\r\n        return (super.isMinter(_who) && hasUserPermission(_who, permissions.MINT_CUSD_SIG()));\r\n    }\r\n\r\n    // Setters\r\n\r\n    // A WT whitelisted user should gain ability to convert their WT into CUSD. They can also burn their WT, as a\r\n    // PermissionedToken whitelisted user can do\r\n    function _setWhitelistedUser(address _who) internal {\r\n        require(permissions.isPermission(permissions.CONVERT_WT_SIG()), \"Converting to CUSD not supported by token\");\r\n        permissions.setUserPermission(_who, permissions.CONVERT_WT_SIG());\r\n        super._setWhitelistedUser(_who);\r\n    }\r\n\r\n    function _setBlacklistedUser(address _who) internal {\r\n        require(permissions.isPermission(permissions.CONVERT_WT_SIG()), \"Converting to CUSD not supported by token\");\r\n        permissions.removeUserPermission(_who, permissions.CONVERT_WT_SIG());\r\n        super._setBlacklistedUser(_who);\r\n    }\r\n\r\n    function _setNonlistedUser(address _who) internal {\r\n        require(permissions.isPermission(permissions.CONVERT_WT_SIG()), \"Converting to CUSD not supported by token\");\r\n        permissions.removeUserPermission(_who, permissions.CONVERT_WT_SIG());\r\n        super._setNonlistedUser(_who);\r\n    }\r\n\r\n    // Getters\r\n\r\n    function isWhitelistedUser(address _who) public view returns (bool) {\r\n        return (hasUserPermission(_who, permissions.CONVERT_WT_SIG()) && super.isWhitelistedUser(_who));\r\n    }\r\n\r\n    function isBlacklistedUser(address _who) public view returns (bool) {\r\n        return (!hasUserPermission(_who, permissions.CONVERT_WT_SIG()) && super.isBlacklistedUser(_who));\r\n    }\r\n\r\n    function isNonlistedUser(address _who) public view returns (bool) {\r\n        return (!hasUserPermission(_who, permissions.CONVERT_WT_SIG()) && super.isNonlistedUser(_who));\r\n    }   \r\n}",
  "sourcePath": "C:\\Users\\Max Piasevoli\\Desktop\\Carbon\\fiat_gateway\\contracts\\regulator\\whitelistedRegulator\\WhitelistedTokenRegulator.sol",
  "compiler": {
    "name": "solc",
    "version": "0.4.24+commit.e67f0147.Emscripten.clang"
  },
  "schemaVersion": "2.0.1",
  "updatedAt": "2018-08-16T17:16:38.462Z"
}