{
  "contractName": "WhitelistedTokenRegulator",
  "abi": [
    {
      "constant": false,
      "inputs": [
        {
          "name": "_who",
          "type": "address"
        }
      ],
      "name": "removeBlacklistSpender",
      "outputs": [],
      "payable": false,
      "stateMutability": "nonpayable",
      "type": "function"
    },
    {
      "constant": false,
      "inputs": [
        {
          "name": "_who",
          "type": "address"
        }
      ],
      "name": "setWhitelistedUser",
      "outputs": [],
      "payable": false,
      "stateMutability": "nonpayable",
      "type": "function"
    },
    {
      "constant": false,
      "inputs": [],
      "name": "claimPermissionOwnership",
      "outputs": [],
      "payable": false,
      "stateMutability": "nonpayable",
      "type": "function"
    },
    {
      "constant": true,
      "inputs": [
        {
          "name": "_who",
          "type": "address"
        },
        {
          "name": "_methodsignature",
          "type": "bytes4"
        }
      ],
      "name": "hasUserPermission",
      "outputs": [
        {
          "name": "",
          "type": "bool"
        }
      ],
      "payable": false,
      "stateMutability": "view",
      "type": "function"
    },
    {
      "constant": true,
      "inputs": [
        {
          "name": "_methodsignature",
          "type": "bytes4"
        }
      ],
      "name": "getPermission",
      "outputs": [
        {
          "name": "name",
          "type": "string"
        },
        {
          "name": "description",
          "type": "string"
        },
        {
          "name": "contract_name",
          "type": "string"
        }
      ],
      "payable": false,
      "stateMutability": "view",
      "type": "function"
    },
    {
      "constant": false,
      "inputs": [
        {
          "name": "_who",
          "type": "address"
        },
        {
          "name": "_methodsignature",
          "type": "bytes4"
        }
      ],
      "name": "setUserPermission",
      "outputs": [],
      "payable": false,
      "stateMutability": "nonpayable",
      "type": "function"
    },
    {
      "constant": false,
      "inputs": [
        {
          "name": "_who",
          "type": "address"
        }
      ],
      "name": "setBlacklistDestroyer",
      "outputs": [],
      "payable": false,
      "stateMutability": "nonpayable",
      "type": "function"
    },
    {
      "constant": false,
      "inputs": [
        {
          "name": "_who",
          "type": "address"
        }
      ],
      "name": "removeMinter",
      "outputs": [],
      "payable": false,
      "stateMutability": "nonpayable",
      "type": "function"
    },
    {
      "constant": false,
      "inputs": [
        {
          "name": "_who",
          "type": "address"
        }
      ],
      "name": "removeValidator",
      "outputs": [],
      "payable": false,
      "stateMutability": "nonpayable",
      "type": "function"
    },
    {
      "constant": false,
      "inputs": [
        {
          "name": "_who",
          "type": "address"
        }
      ],
      "name": "addValidator",
      "outputs": [],
      "payable": false,
      "stateMutability": "nonpayable",
      "type": "function"
    },
    {
      "constant": false,
      "inputs": [
        {
          "name": "_who",
          "type": "address"
        },
        {
          "name": "_methodsignature",
          "type": "bytes4"
        }
      ],
      "name": "removeUserPermission",
      "outputs": [],
      "payable": false,
      "stateMutability": "nonpayable",
      "type": "function"
    },
    {
      "constant": false,
      "inputs": [
        {
          "name": "_who",
          "type": "address"
        }
      ],
      "name": "removeBlacklistDestroyer",
      "outputs": [],
      "payable": false,
      "stateMutability": "nonpayable",
      "type": "function"
    },
    {
      "constant": false,
      "inputs": [],
      "name": "renounceOwnership",
      "outputs": [],
      "payable": false,
      "stateMutability": "nonpayable",
      "type": "function"
    },
    {
      "constant": false,
      "inputs": [
        {
          "name": "_methodsignature",
          "type": "bytes4"
        },
        {
          "name": "_permissionName",
          "type": "string"
        },
        {
          "name": "_permissionDescription",
          "type": "string"
        },
        {
          "name": "_contractName",
          "type": "string"
        }
      ],
      "name": "addPermission",
      "outputs": [],
      "payable": false,
      "stateMutability": "nonpayable",
      "type": "function"
    },
    {
      "constant": false,
      "inputs": [],
      "name": "claimValidatorOwnership",
      "outputs": [],
      "payable": false,
      "stateMutability": "nonpayable",
      "type": "function"
    },
    {
      "constant": true,
      "inputs": [],
      "name": "owner",
      "outputs": [
        {
          "name": "",
          "type": "address"
        }
      ],
      "payable": false,
      "stateMutability": "view",
      "type": "function"
    },
    {
      "constant": true,
      "inputs": [
        {
          "name": "_who",
          "type": "address"
        }
      ],
      "name": "isBlacklistSpender",
      "outputs": [
        {
          "name": "",
          "type": "bool"
        }
      ],
      "payable": false,
      "stateMutability": "view",
      "type": "function"
    },
    {
      "constant": true,
      "inputs": [
        {
          "name": "_methodsignature",
          "type": "bytes4"
        }
      ],
      "name": "isPermission",
      "outputs": [
        {
          "name": "",
          "type": "bool"
        }
      ],
      "payable": false,
      "stateMutability": "view",
      "type": "function"
    },
    {
      "constant": true,
      "inputs": [],
      "name": "permissions",
      "outputs": [
        {
          "name": "",
          "type": "address"
        }
      ],
      "payable": false,
      "stateMutability": "view",
      "type": "function"
    },
    {
      "constant": false,
      "inputs": [
        {
          "name": "_newStorageAddress",
          "type": "address"
        }
      ],
      "name": "setPermissionStorage",
      "outputs": [],
      "payable": false,
      "stateMutability": "nonpayable",
      "type": "function"
    },
    {
      "constant": false,
      "inputs": [
        {
          "name": "_methodsignature",
          "type": "bytes4"
        }
      ],
      "name": "removePermission",
      "outputs": [],
      "payable": false,
      "stateMutability": "nonpayable",
      "type": "function"
    },
    {
      "constant": false,
      "inputs": [
        {
          "name": "_who",
          "type": "address"
        }
      ],
      "name": "setBlacklistSpender",
      "outputs": [],
      "payable": false,
      "stateMutability": "nonpayable",
      "type": "function"
    },
    {
      "constant": false,
      "inputs": [
        {
          "name": "_who",
          "type": "address"
        }
      ],
      "name": "setBlacklistedUser",
      "outputs": [],
      "payable": false,
      "stateMutability": "nonpayable",
      "type": "function"
    },
    {
      "constant": true,
      "inputs": [],
      "name": "validators",
      "outputs": [
        {
          "name": "",
          "type": "address"
        }
      ],
      "payable": false,
      "stateMutability": "view",
      "type": "function"
    },
    {
      "constant": false,
      "inputs": [
        {
          "name": "_who",
          "type": "address"
        }
      ],
      "name": "setNonlistedUser",
      "outputs": [],
      "payable": false,
      "stateMutability": "nonpayable",
      "type": "function"
    },
    {
      "constant": false,
      "inputs": [
        {
          "name": "_newStorageAddress",
          "type": "address"
        }
      ],
      "name": "setValidatorStorage",
      "outputs": [],
      "payable": false,
      "stateMutability": "nonpayable",
      "type": "function"
    },
    {
      "constant": false,
      "inputs": [
        {
          "name": "_newOwner",
          "type": "address"
        }
      ],
      "name": "transferOwnership",
      "outputs": [],
      "payable": false,
      "stateMutability": "nonpayable",
      "type": "function"
    },
    {
      "constant": true,
      "inputs": [
        {
          "name": "_who",
          "type": "address"
        }
      ],
      "name": "isBlacklistDestroyer",
      "outputs": [
        {
          "name": "",
          "type": "bool"
        }
      ],
      "payable": false,
      "stateMutability": "view",
      "type": "function"
    },
    {
      "constant": true,
      "inputs": [
        {
          "name": "_who",
          "type": "address"
        }
      ],
      "name": "isValidator",
      "outputs": [
        {
          "name": "",
          "type": "bool"
        }
      ],
      "payable": false,
      "stateMutability": "view",
      "type": "function"
    },
    {
      "constant": false,
      "inputs": [
        {
          "name": "_who",
          "type": "address"
        }
      ],
      "name": "setMinter",
      "outputs": [],
      "payable": false,
      "stateMutability": "nonpayable",
      "type": "function"
    },
    {
      "inputs": [
        {
          "name": "p",
          "type": "address"
        },
        {
          "name": "v",
          "type": "address"
        }
      ],
      "payable": false,
      "stateMutability": "nonpayable",
      "type": "constructor"
    },
    {
      "anonymous": false,
      "inputs": [
        {
          "indexed": true,
          "name": "who",
          "type": "address"
        }
      ],
      "name": "SetWhitelistedUser",
      "type": "event"
    },
    {
      "anonymous": false,
      "inputs": [
        {
          "indexed": true,
          "name": "who",
          "type": "address"
        }
      ],
      "name": "SetBlacklistedUser",
      "type": "event"
    },
    {
      "anonymous": false,
      "inputs": [
        {
          "indexed": true,
          "name": "who",
          "type": "address"
        }
      ],
      "name": "SetNonlistedUser",
      "type": "event"
    },
    {
      "anonymous": false,
      "inputs": [
        {
          "indexed": true,
          "name": "who",
          "type": "address"
        }
      ],
      "name": "SetMinter",
      "type": "event"
    },
    {
      "anonymous": false,
      "inputs": [
        {
          "indexed": true,
          "name": "who",
          "type": "address"
        }
      ],
      "name": "RemovedMinter",
      "type": "event"
    },
    {
      "anonymous": false,
      "inputs": [
        {
          "indexed": true,
          "name": "who",
          "type": "address"
        }
      ],
      "name": "SetBlacklistDestroyer",
      "type": "event"
    },
    {
      "anonymous": false,
      "inputs": [
        {
          "indexed": true,
          "name": "who",
          "type": "address"
        }
      ],
      "name": "RemovedBlacklistDestroyer",
      "type": "event"
    },
    {
      "anonymous": false,
      "inputs": [
        {
          "indexed": true,
          "name": "who",
          "type": "address"
        }
      ],
      "name": "SetBlacklistSpender",
      "type": "event"
    },
    {
      "anonymous": false,
      "inputs": [
        {
          "indexed": true,
          "name": "who",
          "type": "address"
        }
      ],
      "name": "RemovedBlacklistSpender",
      "type": "event"
    },
    {
      "anonymous": false,
      "inputs": [
        {
          "indexed": false,
          "name": "_old",
          "type": "address"
        },
        {
          "indexed": false,
          "name": "_new",
          "type": "address"
        }
      ],
      "name": "ChangedPermissionStorage",
      "type": "event"
    },
    {
      "anonymous": false,
      "inputs": [
        {
          "indexed": false,
          "name": "_old",
          "type": "address"
        },
        {
          "indexed": false,
          "name": "_new",
          "type": "address"
        }
      ],
      "name": "ChangedValidatorStorage",
      "type": "event"
    },
    {
      "anonymous": false,
      "inputs": [
        {
          "indexed": true,
          "name": "previousOwner",
          "type": "address"
        }
      ],
      "name": "OwnershipRenounced",
      "type": "event"
    },
    {
      "anonymous": false,
      "inputs": [
        {
          "indexed": true,
          "name": "previousOwner",
          "type": "address"
        },
        {
          "indexed": true,
          "name": "newOwner",
          "type": "address"
        }
      ],
      "name": "OwnershipTransferred",
      "type": "event"
    },
    {
      "constant": true,
      "inputs": [
        {
          "name": "_who",
          "type": "address"
        }
      ],
      "name": "isMinter",
      "outputs": [
        {
          "name": "",
          "type": "bool"
        }
      ],
      "payable": false,
      "stateMutability": "view",
      "type": "function"
    },
    {
      "constant": true,
      "inputs": [
        {
          "name": "_who",
          "type": "address"
        }
      ],
      "name": "isWhitelistedUser",
      "outputs": [
        {
          "name": "",
          "type": "bool"
        }
      ],
      "payable": false,
      "stateMutability": "view",
      "type": "function"
    },
    {
      "constant": true,
      "inputs": [
        {
          "name": "_who",
          "type": "address"
        }
      ],
      "name": "isBlacklistedUser",
      "outputs": [
        {
          "name": "",
          "type": "bool"
        }
      ],
      "payable": false,
      "stateMutability": "view",
      "type": "function"
    },
    {
      "constant": true,
      "inputs": [
        {
          "name": "_who",
          "type": "address"
        }
      ],
      "name": "isNonlistedUser",
      "outputs": [
        {
          "name": "",
          "type": "bool"
        }
      ],
      "payable": false,
      "stateMutability": "view",
      "type": "function"
    }
  ],
  "bytecode": "0x608060405234801561001057600080fd5b5060405160408062005fe483398101604052805160209091015160008054600160a060020a0319908116331790915560018054600160a060020a0394851690831617905560028054939092169216919091179055615f7080620000746000396000f3006080604052600436106101ab5763ffffffff7c0100000000000000000000000000000000000000000000000000000000600035041663029043a481146101b057806309533303146101e05780630bdb3d5a1461020e57806314db6d58146102235780631830f4931461028a5780631c870eee14610408578063231a439e1461045b5780633092afd51461048957806340a141ff146104b75780634d238c8e146104e55780634d54dc96146105135780635317e44414610541578063556b638414610594578063715018a6146105c2578063780bfed0146105d75780637ccce851146106d357806385a2785e146107015780638da5cb5b1461071657806391c4529f14610754578063933aa66714610782578063aa271e1a146107bc578063ab8c71c0146107ea578063aef5eb80146107ff578063b8ccbd171461082d578063c1331bc314610867578063c56bea6414610895578063ca1e7819146108c3578063cd495391146108d8578063d88c271e14610906578063e51207e714610934578063f2fde38b14610962578063f530259e14610990578063facd743b146109be578063fca3b5aa146109ec575b600080fd5b3480156101bc57600080fd5b506101de73ffffffffffffffffffffffffffffffffffffffff60043516610a1a565b005b3480156101ec57600080fd5b506101de73ffffffffffffffffffffffffffffffffffffffff60043516610df8565b34801561021a57600080fd5b506101de610e7a565b34801561022f57600080fd5b5061027673ffffffffffffffffffffffffffffffffffffffff600435167fffffffff0000000000000000000000000000000000000000000000000000000060243516610f1a565b604080519115158252519081900360200190f35b34801561029657600080fd5b506102c47fffffffff0000000000000000000000000000000000000000000000000000000060043516610fed565b60405180806020018060200180602001848103845287818151815260200191508051906020019080838360005b838110156103095781810151838201526020016102f1565b50505050905090810190601f1680156103365780820380516001836020036101000a031916815260200191505b50848103835286518152865160209182019188019080838360005b83811015610369578181015183820152602001610351565b50505050905090810190601f1680156103965780820380516001836020036101000a031916815260200191505b50848103825285518152855160209182019187019080838360005b838110156103c95781810151838201526020016103b1565b50505050905090810190601f1680156103f65780820380516001836020036101000a031916815260200191505b50965050505050505060405180910390f35b34801561041457600080fd5b506101de73ffffffffffffffffffffffffffffffffffffffff600435167fffffffff00000000000000000000000000000000000000000000000000000000602435166111cc565b34801561046757600080fd5b506101de73ffffffffffffffffffffffffffffffffffffffff600435166112fa565b34801561049557600080fd5b506101de73ffffffffffffffffffffffffffffffffffffffff600435166116d8565b3480156104c357600080fd5b506101de73ffffffffffffffffffffffffffffffffffffffff60043516611757565b3480156104f157600080fd5b506101de73ffffffffffffffffffffffffffffffffffffffff6004351661180a565b34801561051f57600080fd5b5061027673ffffffffffffffffffffffffffffffffffffffff600435166118a2565b34801561054d57600080fd5b506101de73ffffffffffffffffffffffffffffffffffffffff600435167fffffffff0000000000000000000000000000000000000000000000000000000060243516611976565b3480156105a057600080fd5b506101de73ffffffffffffffffffffffffffffffffffffffff60043516611a88565b3480156105ce57600080fd5b506101de611e66565b3480156105e357600080fd5b5060408051602060046024803582810135601f81018590048502860185019096528585526101de9583357fffffffff000000000000000000000000000000000000000000000000000000001695369560449491939091019190819084018382808284375050604080516020601f89358b018035918201839004830284018301909452808352979a99988101979196509182019450925082915084018382808284375050604080516020601f89358b018035918201839004830284018301909452808352979a999881019791965091820194509250829150840183828082843750949750611ef79650505050505050565b3480156106df57600080fd5b5061027673ffffffffffffffffffffffffffffffffffffffff60043516612159565b34801561070d57600080fd5b506101de6121f6565b34801561072257600080fd5b5061072b61227c565b6040805173ffffffffffffffffffffffffffffffffffffffff9092168252519081900360200190f35b34801561076057600080fd5b5061027673ffffffffffffffffffffffffffffffffffffffff60043516612298565b34801561078e57600080fd5b506102767fffffffff0000000000000000000000000000000000000000000000000000000060043516612324565b3480156107c857600080fd5b5061027673ffffffffffffffffffffffffffffffffffffffff600435166123ea565b3480156107f657600080fd5b5061072b612486565b34801561080b57600080fd5b506101de73ffffffffffffffffffffffffffffffffffffffff600435166124a2565b34801561083957600080fd5b506101de7fffffffff0000000000000000000000000000000000000000000000000000000060043516612676565b34801561087357600080fd5b506101de73ffffffffffffffffffffffffffffffffffffffff60043516612780565b3480156108a157600080fd5b506101de73ffffffffffffffffffffffffffffffffffffffff60043516612b5e565b3480156108cf57600080fd5b5061072b612bdd565b3480156108e457600080fd5b506101de73ffffffffffffffffffffffffffffffffffffffff60043516612bf9565b34801561091257600080fd5b5061027673ffffffffffffffffffffffffffffffffffffffff60043516612c78565b34801561094057600080fd5b506101de73ffffffffffffffffffffffffffffffffffffffff60043516612d14565b34801561096e57600080fd5b506101de73ffffffffffffffffffffffffffffffffffffffff60043516612ee8565b34801561099c57600080fd5b5061027673ffffffffffffffffffffffffffffffffffffffff60043516612f15565b3480156109ca57600080fd5b5061027673ffffffffffffffffffffffffffffffffffffffff60043516612fa1565b3480156109f857600080fd5b506101de73ffffffffffffffffffffffffffffffffffffffff60043516613019565b610a2333612fa1565b1515610a9057604080517f08c379a000000000000000000000000000000000000000000000000000000000815260206004820152601860248201527f53656e646572206d7573742062652076616c696461746f720000000000000000604482015290519081900360640190fd5b600154604080517f8f959f54000000000000000000000000000000000000000000000000000000008152905173ffffffffffffffffffffffffffffffffffffffff9092169163933aa667918391638f959f54916004808201926020929091908290030181600087803b158015610b0557600080fd5b505af1158015610b19573d6000803e3d6000fd5b505050506040513d6020811015610b2f57600080fd5b5051604080517c010000000000000000000000000000000000000000000000000000000063ffffffff85160281527fffffffff0000000000000000000000000000000000000000000000000000000090921660048301525160248083019260209291908290030181600087803b158015610ba857600080fd5b505af1158015610bbc573d6000803e3d6000fd5b505050506040513d6020811015610bd257600080fd5b50511515610c6757604080517f08c379a000000000000000000000000000000000000000000000000000000000815260206004820152602960248201527f426c61636b6c697374207370656e64696e67206e6f7420737570706f7274656460448201527f20627920746f6b656e0000000000000000000000000000000000000000000000606482015290519081900360840190fd5b600154604080517f8f959f54000000000000000000000000000000000000000000000000000000008152905173ffffffffffffffffffffffffffffffffffffffff90921691635317e4449184918491638f959f549160048083019260209291908290030181600087803b158015610cdd57600080fd5b505af1158015610cf1573d6000803e3d6000fd5b505050506040513d6020811015610d0757600080fd5b5051604080517c010000000000000000000000000000000000000000000000000000000063ffffffff861602815273ffffffffffffffffffffffffffffffffffffffff90931660048401527fffffffff00000000000000000000000000000000000000000000000000000000909116602483015251604480830192600092919082900301818387803b158015610d9c57600080fd5b505af1158015610db0573d6000803e3d6000fd5b505060405173ffffffffffffffffffffffffffffffffffffffff841692507fb8b0c8ee459f1d6bd645483509388a7c33773a7ca838bf63ebe8d49d0cb057e59150600090a250565b610e0133612fa1565b1515610e6e57604080517f08c379a000000000000000000000000000000000000000000000000000000000815260206004820152601860248201527f53656e646572206d7573742062652076616c696461746f720000000000000000604482015290519081900360640190fd5b610e7781613098565b50565b600160009054906101000a900473ffffffffffffffffffffffffffffffffffffffff1673ffffffffffffffffffffffffffffffffffffffff16634e71e0c86040518163ffffffff167c0100000000000000000000000000000000000000000000000000000000028152600401600060405180830381600087803b158015610f0057600080fd5b505af1158015610f14573d6000803e3d6000fd5b50505050565b600154604080517f14db6d5800000000000000000000000000000000000000000000000000000000815273ffffffffffffffffffffffffffffffffffffffff85811660048301527fffffffff0000000000000000000000000000000000000000000000000000000085166024830152915160009392909216916314db6d589160448082019260209290919082900301818787803b158015610fba57600080fd5b505af1158015610fce573d6000803e3d6000fd5b505050506040513d6020811015610fe457600080fd5b50519392505050565b600154604080517f395a7b300000000000000000000000000000000000000000000000000000000081527fffffffff000000000000000000000000000000000000000000000000000000008416600482015290516060928392839273ffffffffffffffffffffffffffffffffffffffff9092169163395a7b309160248082019260009290919082900301818387803b15801561108857600080fd5b505af115801561109c573d6000803e3d6000fd5b505050506040513d6000823e601f3d9081017fffffffffffffffffffffffffffffffffffffffffffffffffffffffffffffffe016820160405260608110156110e357600080fd5b8101908080516401000000008111156110fb57600080fd5b8201602081018481111561110e57600080fd5b815164010000000081118282018710171561112857600080fd5b5050929190602001805164010000000081111561114457600080fd5b8201602081018481111561115757600080fd5b815164010000000081118282018710171561117157600080fd5b5050929190602001805164010000000081111561118d57600080fd5b820160208101848111156111a057600080fd5b81516401000000008111828201871017156111ba57600080fd5b50959a94995097509295505050505050565b6111d533612fa1565b151561124257604080517f08c379a000000000000000000000000000000000000000000000000000000000815260206004820152601860248201527f53656e646572206d7573742062652076616c696461746f720000000000000000604482015290519081900360640190fd5b600154604080517f1c870eee00000000000000000000000000000000000000000000000000000000815273ffffffffffffffffffffffffffffffffffffffff85811660048301527fffffffff000000000000000000000000000000000000000000000000000000008516602483015291519190921691631c870eee91604480830192600092919082900301818387803b1580156112de57600080fd5b505af11580156112f2573d6000803e3d6000fd5b505050505050565b61130333612fa1565b151561137057604080517f08c379a000000000000000000000000000000000000000000000000000000000815260206004820152601860248201527f53656e646572206d7573742062652076616c696461746f720000000000000000604482015290519081900360640190fd5b600154604080517fab96cb46000000000000000000000000000000000000000000000000000000008152905173ffffffffffffffffffffffffffffffffffffffff9092169163933aa66791839163ab96cb46916004808201926020929091908290030181600087803b1580156113e557600080fd5b505af11580156113f9573d6000803e3d6000fd5b505050506040513d602081101561140f57600080fd5b5051604080517c010000000000000000000000000000000000000000000000000000000063ffffffff85160281527fffffffff0000000000000000000000000000000000000000000000000000000090921660048301525160248083019260209291908290030181600087803b15801561148857600080fd5b505af115801561149c573d6000803e3d6000fd5b505050506040513d60208110156114b257600080fd5b5051151561154757604080517f08c379a000000000000000000000000000000000000000000000000000000000815260206004820152603260248201527f426c61636b6c69737420746f6b656e206465737472756374696f6e206e6f742060448201527f737570706f7274656420627920746f6b656e0000000000000000000000000000606482015290519081900360840190fd5b600154604080517fab96cb46000000000000000000000000000000000000000000000000000000008152905173ffffffffffffffffffffffffffffffffffffffff90921691631c870eee918491849163ab96cb469160048083019260209291908290030181600087803b1580156115bd57600080fd5b505af11580156115d1573d6000803e3d6000fd5b505050506040513d60208110156115e757600080fd5b5051604080517c010000000000000000000000000000000000000000000000000000000063ffffffff861602815273ffffffffffffffffffffffffffffffffffffffff90931660048401527fffffffff00000000000000000000000000000000000000000000000000000000909116602483015251604480830192600092919082900301818387803b15801561167c57600080fd5b505af1158015611690573d6000803e3d6000fd5b505060405173ffffffffffffffffffffffffffffffffffffffff841692507fcc8fff52f1373f98b1e3e0505c266d5706ba7fd81e4be56fbf3c42b9a8ee4b759150600090a250565b6116e133612fa1565b151561174e57604080517f08c379a000000000000000000000000000000000000000000000000000000000815260206004820152601860248201527f53656e646572206d7573742062652076616c696461746f720000000000000000604482015290519081900360640190fd5b610e77816133c5565b60005473ffffffffffffffffffffffffffffffffffffffff16331461177b57600080fd5b600254604080517f40a141ff00000000000000000000000000000000000000000000000000000000815273ffffffffffffffffffffffffffffffffffffffff8481166004830152915191909216916340a141ff91602480830192600092919082900301818387803b1580156117ef57600080fd5b505af1158015611803573d6000803e3d6000fd5b5050505050565b60005473ffffffffffffffffffffffffffffffffffffffff16331461182e57600080fd5b600254604080517f4d238c8e00000000000000000000000000000000000000000000000000000000815273ffffffffffffffffffffffffffffffffffffffff848116600483015291519190921691634d238c8e91602480830192600092919082900301818387803b1580156117ef57600080fd5b600061195f82600160009054906101000a900473ffffffffffffffffffffffffffffffffffffffff1673ffffffffffffffffffffffffffffffffffffffff1663639c44cf6040518163ffffffff167c0100000000000000000000000000000000000000000000000000000000028152600401602060405180830381600087803b15801561192e57600080fd5b505af1158015611942573d6000803e3d6000fd5b505050506040513d602081101561195857600080fd5b5051610f1a565b1580156119705750611970826136f2565b92915050565b61197f33612fa1565b15156119ec57604080517f08c379a000000000000000000000000000000000000000000000000000000000815260206004820152601860248201527f53656e646572206d7573742062652076616c696461746f720000000000000000604482015290519081900360640190fd5b600154604080517f5317e44400000000000000000000000000000000000000000000000000000000815273ffffffffffffffffffffffffffffffffffffffff85811660048301527fffffffff000000000000000000000000000000000000000000000000000000008516602483015291519190921691635317e44491604480830192600092919082900301818387803b1580156112de57600080fd5b611a9133612fa1565b1515611afe57604080517f08c379a000000000000000000000000000000000000000000000000000000000815260206004820152601860248201527f53656e646572206d7573742062652076616c696461746f720000000000000000604482015290519081900360640190fd5b600154604080517fab96cb46000000000000000000000000000000000000000000000000000000008152905173ffffffffffffffffffffffffffffffffffffffff9092169163933aa66791839163ab96cb46916004808201926020929091908290030181600087803b158015611b7357600080fd5b505af1158015611b87573d6000803e3d6000fd5b505050506040513d6020811015611b9d57600080fd5b5051604080517c010000000000000000000000000000000000000000000000000000000063ffffffff85160281527fffffffff0000000000000000000000000000000000000000000000000000000090921660048301525160248083019260209291908290030181600087803b158015611c1657600080fd5b505af1158015611c2a573d6000803e3d6000fd5b505050506040513d6020811015611c4057600080fd5b50511515611cd557604080517f08c379a000000000000000000000000000000000000000000000000000000000815260206004820152603260248201527f426c61636b6c69737420746f6b656e206465737472756374696f6e206e6f742060448201527f737570706f7274656420627920746f6b656e0000000000000000000000000000606482015290519081900360840190fd5b600154604080517fab96cb46000000000000000000000000000000000000000000000000000000008152905173ffffffffffffffffffffffffffffffffffffffff90921691635317e444918491849163ab96cb469160048083019260209291908290030181600087803b158015611d4b57600080fd5b505af1158015611d5f573d6000803e3d6000fd5b505050506040513d6020811015611d7557600080fd5b5051604080517c010000000000000000000000000000000000000000000000000000000063ffffffff861602815273ffffffffffffffffffffffffffffffffffffffff90931660048401527fffffffff00000000000000000000000000000000000000000000000000000000909116602483015251604480830192600092919082900301818387803b158015611e0a57600080fd5b505af1158015611e1e573d6000803e3d6000fd5b505060405173ffffffffffffffffffffffffffffffffffffffff841692507f86bb58560ff5b69582569594aec27466e395f18de8783a40ead458348c9173d39150600090a250565b60005473ffffffffffffffffffffffffffffffffffffffff163314611e8a57600080fd5b6000805460405173ffffffffffffffffffffffffffffffffffffffff909116917ff8df31144d9c2f0f6b59d69b8b98abd5459d07f2742c4df920b25aae33c6482091a2600080547fffffffffffffffffffffffff0000000000000000000000000000000000000000169055565b611f0033612fa1565b1515611f6d57604080517f08c379a000000000000000000000000000000000000000000000000000000000815260206004820152601860248201527f53656e646572206d7573742062652076616c696461746f720000000000000000604482015290519081900360640190fd5b6001546040517f780bfed00000000000000000000000000000000000000000000000000000000081527fffffffff0000000000000000000000000000000000000000000000000000000086166004820190815260806024830190815286516084840152865173ffffffffffffffffffffffffffffffffffffffff9094169363780bfed09389938993899389936044810191606482019160a40190602089019080838360005b8381101561202a578181015183820152602001612012565b50505050905090810190601f1680156120575780820380516001836020036101000a031916815260200191505b50848103835286518152865160209182019188019080838360005b8381101561208a578181015183820152602001612072565b50505050905090810190601f1680156120b75780820380516001836020036101000a031916815260200191505b50848103825285518152855160209182019187019080838360005b838110156120ea5781810151838201526020016120d2565b50505050905090810190601f1680156121175780820380516001836020036101000a031916815260200191505b50975050505050505050600060405180830381600087803b15801561213b57600080fd5b505af115801561214f573d6000803e3d6000fd5b5050505050505050565b60006121e582600160009054906101000a900473ffffffffffffffffffffffffffffffffffffffff1673ffffffffffffffffffffffffffffffffffffffff1663639c44cf6040518163ffffffff167c0100000000000000000000000000000000000000000000000000000000028152600401602060405180830381600087803b15801561192e57600080fd5b158015611970575061197082613817565b600260009054906101000a900473ffffffffffffffffffffffffffffffffffffffff1673ffffffffffffffffffffffffffffffffffffffff16634e71e0c86040518163ffffffff167c0100000000000000000000000000000000000000000000000000000000028152600401600060405180830381600087803b158015610f0057600080fd5b60005473ffffffffffffffffffffffffffffffffffffffff1681565b600061197082600160009054906101000a900473ffffffffffffffffffffffffffffffffffffffff1673ffffffffffffffffffffffffffffffffffffffff16638f959f546040518163ffffffff167c0100000000000000000000000000000000000000000000000000000000028152600401602060405180830381600087803b15801561192e57600080fd5b600154604080517f933aa6670000000000000000000000000000000000000000000000000000000081527fffffffff0000000000000000000000000000000000000000000000000000000084166004820152905160009273ffffffffffffffffffffffffffffffffffffffff169163933aa66791602480830192602092919082900301818787803b1580156123b857600080fd5b505af11580156123cc573d6000803e3d6000fd5b505050506040513d60208110156123e257600080fd5b505192915050565b60006123f582613935565b8015611970575061197082600160009054906101000a900473ffffffffffffffffffffffffffffffffffffffff1673ffffffffffffffffffffffffffffffffffffffff16638b7c81096040518163ffffffff167c0100000000000000000000000000000000000000000000000000000000028152600401602060405180830381600087803b15801561192e57600080fd5b60015473ffffffffffffffffffffffffffffffffffffffff1681565b6000805473ffffffffffffffffffffffffffffffffffffffff1633146124c757600080fd5b60015473ffffffffffffffffffffffffffffffffffffffff8381169116141561255157604080517f08c379a000000000000000000000000000000000000000000000000000000000815260206004820152601e60248201527f4d7573742062652061206e6577207065726d697373696f6e2073686565740000604482015290519081900360640190fd5b61255a826139c1565b15156125ed57604080517f08c379a000000000000000000000000000000000000000000000000000000000815260206004820152603860248201527f43616e6e6f7420736574206120726567756c61746f722073746f72616765207460448201527f6f2061206e6f6e2d636f6e747261637420616464726573730000000000000000606482015290519081900360840190fd5b506001805473ffffffffffffffffffffffffffffffffffffffff8381167fffffffffffffffffffffffff0000000000000000000000000000000000000000831681179093556040805191909216808252602082019390935281517fe17aee9aa44ff533ce61ee89d13b1d2a8cb1143b69d05d08a5d136acae8a7707929181900390910190a15050565b61267f33612fa1565b15156126ec57604080517f08c379a000000000000000000000000000000000000000000000000000000000815260206004820152601860248201527f53656e646572206d7573742062652076616c696461746f720000000000000000604482015290519081900360640190fd5b600154604080517fb8ccbd170000000000000000000000000000000000000000000000000000000081527fffffffff0000000000000000000000000000000000000000000000000000000084166004820152905173ffffffffffffffffffffffffffffffffffffffff9092169163b8ccbd179160248082019260009290919082900301818387803b1580156117ef57600080fd5b61278933612fa1565b15156127f657604080517f08c379a000000000000000000000000000000000000000000000000000000000815260206004820152601860248201527f53656e646572206d7573742062652076616c696461746f720000000000000000604482015290519081900360640190fd5b600154604080517f8f959f54000000000000000000000000000000000000000000000000000000008152905173ffffffffffffffffffffffffffffffffffffffff9092169163933aa667918391638f959f54916004808201926020929091908290030181600087803b15801561286b57600080fd5b505af115801561287f573d6000803e3d6000fd5b505050506040513d602081101561289557600080fd5b5051604080517c010000000000000000000000000000000000000000000000000000000063ffffffff85160281527fffffffff0000000000000000000000000000000000000000000000000000000090921660048301525160248083019260209291908290030181600087803b15801561290e57600080fd5b505af1158015612922573d6000803e3d6000fd5b505050506040513d602081101561293857600080fd5b505115156129cd57604080517f08c379a000000000000000000000000000000000000000000000000000000000815260206004820152602960248201527f426c61636b6c697374207370656e64696e67206e6f7420737570706f7274656460448201527f20627920746f6b656e0000000000000000000000000000000000000000000000606482015290519081900360840190fd5b600154604080517f8f959f54000000000000000000000000000000000000000000000000000000008152905173ffffffffffffffffffffffffffffffffffffffff90921691631c870eee9184918491638f959f549160048083019260209291908290030181600087803b158015612a4357600080fd5b505af1158015612a57573d6000803e3d6000fd5b505050506040513d6020811015612a6d57600080fd5b5051604080517c010000000000000000000000000000000000000000000000000000000063ffffffff861602815273ffffffffffffffffffffffffffffffffffffffff90931660048401527fffffffff00000000000000000000000000000000000000000000000000000000909116602483015251604480830192600092919082900301818387803b158015612b0257600080fd5b505af1158015612b16573d6000803e3d6000fd5b505060405173ffffffffffffffffffffffffffffffffffffffff841692507faa23b83c4c61a5f45cfa40a87b5140110977014da47ac244df45db2f1ce18a9e9150600090a250565b612b6733612fa1565b1515612bd457604080517f08c379a000000000000000000000000000000000000000000000000000000000815260206004820152601860248201527f53656e646572206d7573742062652076616c696461746f720000000000000000604482015290519081900360640190fd5b610e77816139c9565b60025473ffffffffffffffffffffffffffffffffffffffff1681565b612c0233612fa1565b1515612c6f57604080517f08c379a000000000000000000000000000000000000000000000000000000000815260206004820152601860248201527f53656e646572206d7573742062652076616c696461746f720000000000000000604482015290519081900360640190fd5b610e7781613cf6565b6000612d0482600160009054906101000a900473ffffffffffffffffffffffffffffffffffffffff1673ffffffffffffffffffffffffffffffffffffffff1663639c44cf6040518163ffffffff167c0100000000000000000000000000000000000000000000000000000000028152600401602060405180830381600087803b15801561192e57600080fd5b8015611970575061197082614023565b6000805473ffffffffffffffffffffffffffffffffffffffff163314612d3957600080fd5b60025473ffffffffffffffffffffffffffffffffffffffff83811691161415612dc357604080517f08c379a000000000000000000000000000000000000000000000000000000000815260206004820152601d60248201527f4d7573742062652061206e65772076616c696461746f72207368656574000000604482015290519081900360640190fd5b612dcc826139c1565b1515612e5f57604080517f08c379a000000000000000000000000000000000000000000000000000000000815260206004820152603860248201527f43616e6e6f7420736574206120726567756c61746f722073746f72616765207460448201527f6f2061206e6f6e2d636f6e747261637420616464726573730000000000000000606482015290519081900360840190fd5b506002805473ffffffffffffffffffffffffffffffffffffffff8381167fffffffffffffffffffffffff0000000000000000000000000000000000000000831681179093556040805191909216808252602082019390935281517f8ca674c4f8f0a3a35b50833ae3d8d889663de2b78cdbe0765021594acec3cda2929181900390910190a15050565b60005473ffffffffffffffffffffffffffffffffffffffff163314612f0c57600080fd5b610e7781614140565b600061197082600160009054906101000a900473ffffffffffffffffffffffffffffffffffffffff1673ffffffffffffffffffffffffffffffffffffffff1663ab96cb466040518163ffffffff167c0100000000000000000000000000000000000000000000000000000000028152600401602060405180830381600087803b15801561192e57600080fd5b600254604080517ffacd743b00000000000000000000000000000000000000000000000000000000815273ffffffffffffffffffffffffffffffffffffffff84811660048301529151600093929092169163facd743b9160248082019260209290919082900301818787803b1580156123b857600080fd5b61302233612fa1565b151561308f57604080517f08c379a000000000000000000000000000000000000000000000000000000000815260206004820152601860248201527f53656e646572206d7573742062652076616c696461746f720000000000000000604482015290519081900360640190fd5b610e77816141ef565b600154604080517f639c44cf000000000000000000000000000000000000000000000000000000008152905173ffffffffffffffffffffffffffffffffffffffff9092169163933aa66791839163639c44cf916004808201926020929091908290030181600087803b15801561310d57600080fd5b505af1158015613121573d6000803e3d6000fd5b505050506040513d602081101561313757600080fd5b5051604080517c010000000000000000000000000000000000000000000000000000000063ffffffff85160281527fffffffff0000000000000000000000000000000000000000000000000000000090921660048301525160248083019260209291908290030181600087803b1580156131b057600080fd5b505af11580156131c4573d6000803e3d6000fd5b505050506040513d60208110156131da57600080fd5b5051151561326f57604080517f08c379a000000000000000000000000000000000000000000000000000000000815260206004820152602960248201527f436f6e76657274696e6720746f2043555344206e6f7420737570706f7274656460448201527f20627920746f6b656e0000000000000000000000000000000000000000000000606482015290519081900360840190fd5b600154604080517f639c44cf000000000000000000000000000000000000000000000000000000008152905173ffffffffffffffffffffffffffffffffffffffff90921691631c870eee918491849163639c44cf9160048083019260209291908290030181600087803b1580156132e557600080fd5b505af11580156132f9573d6000803e3d6000fd5b505050506040513d602081101561330f57600080fd5b5051604080517c010000000000000000000000000000000000000000000000000000000063ffffffff861602815273ffffffffffffffffffffffffffffffffffffffff90931660048401527fffffffff00000000000000000000000000000000000000000000000000000000909116602483015251604480830192600092919082900301818387803b1580156133a457600080fd5b505af11580156133b8573d6000803e3d6000fd5b50505050610e778161451c565b600154604080517f8b7c8109000000000000000000000000000000000000000000000000000000008152905173ffffffffffffffffffffffffffffffffffffffff9092169163933aa667918391638b7c8109916004808201926020929091908290030181600087803b15801561343a57600080fd5b505af115801561344e573d6000803e3d6000fd5b505050506040513d602081101561346457600080fd5b5051604080517c010000000000000000000000000000000000000000000000000000000063ffffffff85160281527fffffffff0000000000000000000000000000000000000000000000000000000090921660048301525160248083019260209291908290030181600087803b1580156134dd57600080fd5b505af11580156134f1573d6000803e3d6000fd5b505050506040513d602081101561350757600080fd5b5051151561359c57604080517f08c379a000000000000000000000000000000000000000000000000000000000815260206004820152602660248201527f4d696e74696e6720746f2043555344206e6f7420737570706f7274656420627960448201527f20746f6b656e0000000000000000000000000000000000000000000000000000606482015290519081900360840190fd5b600154604080517f8b7c8109000000000000000000000000000000000000000000000000000000008152905173ffffffffffffffffffffffffffffffffffffffff90921691635317e4449184918491638b7c81099160048083019260209291908290030181600087803b15801561361257600080fd5b505af1158015613626573d6000803e3d6000fd5b505050506040513d602081101561363c57600080fd5b5051604080517c010000000000000000000000000000000000000000000000000000000063ffffffff861602815273ffffffffffffffffffffffffffffffffffffffff90931660048401527fffffffff00000000000000000000000000000000000000000000000000000000909116602483015251604480830192600092919082900301818387803b1580156136d157600080fd5b505af11580156136e5573d6000803e3d6000fd5b50505050610e7781614ba8565b600061377e82600160009054906101000a900473ffffffffffffffffffffffffffffffffffffffff1673ffffffffffffffffffffffffffffffffffffffff1663cfbf1b906040518163ffffffff167c0100000000000000000000000000000000000000000000000000000000028152600401602060405180830381600087803b15801561192e57600080fd5b158015611970575061381082600160009054906101000a900473ffffffffffffffffffffffffffffffffffffffff1673ffffffffffffffffffffffffffffffffffffffff16639491951b6040518163ffffffff167c0100000000000000000000000000000000000000000000000000000000028152600401602060405180830381600087803b15801561192e57600080fd5b1592915050565b60006138a382600160009054906101000a900473ffffffffffffffffffffffffffffffffffffffff1673ffffffffffffffffffffffffffffffffffffffff1663cfbf1b906040518163ffffffff167c0100000000000000000000000000000000000000000000000000000000028152600401602060405180830381600087803b15801561192e57600080fd5b158015611970575061197082600160009054906101000a900473ffffffffffffffffffffffffffffffffffffffff1673ffffffffffffffffffffffffffffffffffffffff16639491951b6040518163ffffffff167c0100000000000000000000000000000000000000000000000000000000028152600401602060405180830381600087803b15801561192e57600080fd5b600061197082600160009054906101000a900473ffffffffffffffffffffffffffffffffffffffff1673ffffffffffffffffffffffffffffffffffffffff166388f14b0e6040518163ffffffff167c0100000000000000000000000000000000000000000000000000000000028152600401602060405180830381600087803b15801561192e57600080fd5b6000903b1190565b600154604080517f639c44cf000000000000000000000000000000000000000000000000000000008152905173ffffffffffffffffffffffffffffffffffffffff9092169163933aa66791839163639c44cf916004808201926020929091908290030181600087803b158015613a3e57600080fd5b505af1158015613a52573d6000803e3d6000fd5b505050506040513d6020811015613a6857600080fd5b5051604080517c010000000000000000000000000000000000000000000000000000000063ffffffff85160281527fffffffff0000000000000000000000000000000000000000000000000000000090921660048301525160248083019260209291908290030181600087803b158015613ae157600080fd5b505af1158015613af5573d6000803e3d6000fd5b505050506040513d6020811015613b0b57600080fd5b50511515613ba057604080517f08c379a000000000000000000000000000000000000000000000000000000000815260206004820152602960248201527f436f6e76657274696e6720746f2043555344206e6f7420737570706f7274656460448201527f20627920746f6b656e0000000000000000000000000000000000000000000000606482015290519081900360840190fd5b600154604080517f639c44cf000000000000000000000000000000000000000000000000000000008152905173ffffffffffffffffffffffffffffffffffffffff90921691635317e444918491849163639c44cf9160048083019260209291908290030181600087803b158015613c1657600080fd5b505af1158015613c2a573d6000803e3d6000fd5b505050506040513d6020811015613c4057600080fd5b5051604080517c010000000000000000000000000000000000000000000000000000000063ffffffff861602815273ffffffffffffffffffffffffffffffffffffffff90931660048401527fffffffff00000000000000000000000000000000000000000000000000000000909116602483015251604480830192600092919082900301818387803b158015613cd557600080fd5b505af1158015613ce9573d6000803e3d6000fd5b50505050610e7781614eea565b600154604080517f639c44cf000000000000000000000000000000000000000000000000000000008152905173ffffffffffffffffffffffffffffffffffffffff9092169163933aa66791839163639c44cf916004808201926020929091908290030181600087803b158015613d6b57600080fd5b505af1158015613d7f573d6000803e3d6000fd5b505050506040513d6020811015613d9557600080fd5b5051604080517c010000000000000000000000000000000000000000000000000000000063ffffffff85160281527fffffffff0000000000000000000000000000000000000000000000000000000090921660048301525160248083019260209291908290030181600087803b158015613e0e57600080fd5b505af1158015613e22573d6000803e3d6000fd5b505050506040513d6020811015613e3857600080fd5b50511515613ecd57604080517f08c379a000000000000000000000000000000000000000000000000000000000815260206004820152602960248201527f436f6e76657274696e6720746f2043555344206e6f7420737570706f7274656460448201527f20627920746f6b656e0000000000000000000000000000000000000000000000606482015290519081900360840190fd5b600154604080517f639c44cf000000000000000000000000000000000000000000000000000000008152905173ffffffffffffffffffffffffffffffffffffffff90921691635317e444918491849163639c44cf9160048083019260209291908290030181600087803b158015613f4357600080fd5b505af1158015613f57573d6000803e3d6000fd5b505050506040513d6020811015613f6d57600080fd5b5051604080517c010000000000000000000000000000000000000000000000000000000063ffffffff861602815273ffffffffffffffffffffffffffffffffffffffff90931660048401527fffffffff00000000000000000000000000000000000000000000000000000000909116602483015251604480830192600092919082900301818387803b15801561400257600080fd5b505af1158015614016573d6000803e3d6000fd5b50505050610e7781615576565b60006140af82600160009054906101000a900473ffffffffffffffffffffffffffffffffffffffff1673ffffffffffffffffffffffffffffffffffffffff1663cfbf1b906040518163ffffffff167c0100000000000000000000000000000000000000000000000000000000028152600401602060405180830381600087803b15801561192e57600080fd5b8015611970575061381082600160009054906101000a900473ffffffffffffffffffffffffffffffffffffffff1673ffffffffffffffffffffffffffffffffffffffff16639491951b6040518163ffffffff167c0100000000000000000000000000000000000000000000000000000000028152600401602060405180830381600087803b15801561192e57600080fd5b73ffffffffffffffffffffffffffffffffffffffff8116151561416257600080fd5b6000805460405173ffffffffffffffffffffffffffffffffffffffff808516939216917f8be0079c531659141344cd1fd0a4f28419497f9722a3daafe3b4186f6b6457e091a3600080547fffffffffffffffffffffffff00000000000000000000000000000000000000001673ffffffffffffffffffffffffffffffffffffffff92909216919091179055565b600154604080517f8b7c8109000000000000000000000000000000000000000000000000000000008152905173ffffffffffffffffffffffffffffffffffffffff9092169163933aa667918391638b7c8109916004808201926020929091908290030181600087803b15801561426457600080fd5b505af1158015614278573d6000803e3d6000fd5b505050506040513d602081101561428e57600080fd5b5051604080517c010000000000000000000000000000000000000000000000000000000063ffffffff85160281527fffffffff0000000000000000000000000000000000000000000000000000000090921660048301525160248083019260209291908290030181600087803b15801561430757600080fd5b505af115801561431b573d6000803e3d6000fd5b505050506040513d602081101561433157600080fd5b505115156143c657604080517f08c379a000000000000000000000000000000000000000000000000000000000815260206004820152602660248201527f4d696e74696e6720746f2043555344206e6f7420737570706f7274656420627960448201527f20746f6b656e0000000000000000000000000000000000000000000000000000606482015290519081900360840190fd5b600154604080517f8b7c8109000000000000000000000000000000000000000000000000000000008152905173ffffffffffffffffffffffffffffffffffffffff90921691631c870eee9184918491638b7c81099160048083019260209291908290030181600087803b15801561443c57600080fd5b505af1158015614450573d6000803e3d6000fd5b505050506040513d602081101561446657600080fd5b5051604080517c010000000000000000000000000000000000000000000000000000000063ffffffff861602815273ffffffffffffffffffffffffffffffffffffffff90931660048401527fffffffff00000000000000000000000000000000000000000000000000000000909116602483015251604480830192600092919082900301818387803b1580156144fb57600080fd5b505af115801561450f573d6000803e3d6000fd5b50505050610e7781615c02565b600154604080517fcfbf1b90000000000000000000000000000000000000000000000000000000008152905173ffffffffffffffffffffffffffffffffffffffff9092169163933aa66791839163cfbf1b90916004808201926020929091908290030181600087803b15801561459157600080fd5b505af11580156145a5573d6000803e3d6000fd5b505050506040513d60208110156145bb57600080fd5b5051604080517c010000000000000000000000000000000000000000000000000000000063ffffffff85160281527fffffffff0000000000000000000000000000000000000000000000000000000090921660048301525160248083019260209291908290030181600087803b15801561463457600080fd5b505af1158015614648573d6000803e3d6000fd5b505050506040513d602081101561465e57600080fd5b505115156146f357604080517f08c379a000000000000000000000000000000000000000000000000000000000815260206004820152602260248201527f4275726e206d6574686f64206e6f7420737570706f7274656420627920746f6b60448201527f656e000000000000000000000000000000000000000000000000000000000000606482015290519081900360840190fd5b600154604080517f9491951b000000000000000000000000000000000000000000000000000000008152905173ffffffffffffffffffffffffffffffffffffffff9092169163933aa667918391639491951b916004808201926020929091908290030181600087803b15801561476857600080fd5b505af115801561477c573d6000803e3d6000fd5b505050506040513d602081101561479257600080fd5b5051604080517c010000000000000000000000000000000000000000000000000000000063ffffffff85160281527fffffffff0000000000000000000000000000000000000000000000000000000090921660048301525160248083019260209291908290030181600087803b15801561480b57600080fd5b505af115801561481f573d6000803e3d6000fd5b505050506040513d602081101561483557600080fd5b505115156148ca57604080517f08c379a000000000000000000000000000000000000000000000000000000000815260206004820152602b60248201527f53656c662d6465737472756374206d6574686f64206e6f7420737570706f727460448201527f656420627920746f6b656e000000000000000000000000000000000000000000606482015290519081900360840190fd5b600154604080517fcfbf1b90000000000000000000000000000000000000000000000000000000008152905173ffffffffffffffffffffffffffffffffffffffff90921691631c870eee918491849163cfbf1b909160048083019260209291908290030181600087803b15801561494057600080fd5b505af1158015614954573d6000803e3d6000fd5b505050506040513d602081101561496a57600080fd5b5051604080517c010000000000000000000000000000000000000000000000000000000063ffffffff861602815273ffffffffffffffffffffffffffffffffffffffff90931660048401527fffffffff00000000000000000000000000000000000000000000000000000000909116602483015251604480830192600092919082900301818387803b1580156149ff57600080fd5b505af1158015614a13573d6000803e3d6000fd5b5050600154604080517f9491951b000000000000000000000000000000000000000000000000000000008152905173ffffffffffffffffffffffffffffffffffffffff9092169350635317e444925084918491639491951b9160048083019260209291908290030181600087803b158015614a8d57600080fd5b505af1158015614aa1573d6000803e3d6000fd5b505050506040513d6020811015614ab757600080fd5b5051604080517c010000000000000000000000000000000000000000000000000000000063ffffffff861602815273ffffffffffffffffffffffffffffffffffffffff90931660048401527fffffffff00000000000000000000000000000000000000000000000000000000909116602483015251604480830192600092919082900301818387803b158015614b4c57600080fd5b505af1158015614b60573d6000803e3d6000fd5b505060405173ffffffffffffffffffffffffffffffffffffffff841692507f86b7e0c3e1db481670ce05712af57844698476ca35579a16697e6be0452808689150600090a250565b600154604080517f88f14b0e000000000000000000000000000000000000000000000000000000008152905173ffffffffffffffffffffffffffffffffffffffff9092169163933aa6679183916388f14b0e916004808201926020929091908290030181600087803b158015614c1d57600080fd5b505af1158015614c31573d6000803e3d6000fd5b505050506040513d6020811015614c4757600080fd5b5051604080517c010000000000000000000000000000000000000000000000000000000063ffffffff85160281527fffffffff0000000000000000000000000000000000000000000000000000000090921660048301525160248083019260209291908290030181600087803b158015614cc057600080fd5b505af1158015614cd4573d6000803e3d6000fd5b505050506040513d6020811015614cea57600080fd5b50511515614d5957604080517f08c379a000000000000000000000000000000000000000000000000000000000815260206004820152601e60248201527f4d696e74696e67206e6f7420737570706f7274656420627920746f6b656e0000604482015290519081900360640190fd5b600154604080517f88f14b0e000000000000000000000000000000000000000000000000000000008152905173ffffffffffffffffffffffffffffffffffffffff90921691635317e44491849184916388f14b0e9160048083019260209291908290030181600087803b158015614dcf57600080fd5b505af1158015614de3573d6000803e3d6000fd5b505050506040513d6020811015614df957600080fd5b5051604080517c010000000000000000000000000000000000000000000000000000000063ffffffff861602815273ffffffffffffffffffffffffffffffffffffffff90931660048401527fffffffff00000000000000000000000000000000000000000000000000000000909116602483015251604480830192600092919082900301818387803b158015614e8e57600080fd5b505af1158015614ea2573d6000803e3d6000fd5b505060405173ffffffffffffffffffffffffffffffffffffffff841692507fc93cfdd5d8f442c448a02ed11ccff64355643272c9f2be94b723f2181af1a8969150600090a250565b600154604080517fcfbf1b90000000000000000000000000000000000000000000000000000000008152905173ffffffffffffffffffffffffffffffffffffffff9092169163933aa66791839163cfbf1b90916004808201926020929091908290030181600087803b158015614f5f57600080fd5b505af1158015614f73573d6000803e3d6000fd5b505050506040513d6020811015614f8957600080fd5b5051604080517c010000000000000000000000000000000000000000000000000000000063ffffffff85160281527fffffffff0000000000000000000000000000000000000000000000000000000090921660048301525160248083019260209291908290030181600087803b15801561500257600080fd5b505af1158015615016573d6000803e3d6000fd5b505050506040513d602081101561502c57600080fd5b505115156150c157604080517f08c379a000000000000000000000000000000000000000000000000000000000815260206004820152602260248201527f4275726e206d6574686f64206e6f7420737570706f7274656420627920746f6b60448201527f656e000000000000000000000000000000000000000000000000000000000000606482015290519081900360840190fd5b600154604080517f9491951b000000000000000000000000000000000000000000000000000000008152905173ffffffffffffffffffffffffffffffffffffffff9092169163933aa667918391639491951b916004808201926020929091908290030181600087803b15801561513657600080fd5b505af115801561514a573d6000803e3d6000fd5b505050506040513d602081101561516057600080fd5b5051604080517c010000000000000000000000000000000000000000000000000000000063ffffffff85160281527fffffffff0000000000000000000000000000000000000000000000000000000090921660048301525160248083019260209291908290030181600087803b1580156151d957600080fd5b505af11580156151ed573d6000803e3d6000fd5b505050506040513d602081101561520357600080fd5b5051151561529857604080517f08c379a000000000000000000000000000000000000000000000000000000000815260206004820152602b60248201527f53656c662d6465737472756374206d6574686f64206e6f7420737570706f727460448201527f656420627920746f6b656e000000000000000000000000000000000000000000606482015290519081900360840190fd5b600154604080517fcfbf1b90000000000000000000000000000000000000000000000000000000008152905173ffffffffffffffffffffffffffffffffffffffff90921691635317e444918491849163cfbf1b909160048083019260209291908290030181600087803b15801561530e57600080fd5b505af1158015615322573d6000803e3d6000fd5b505050506040513d602081101561533857600080fd5b5051604080517c010000000000000000000000000000000000000000000000000000000063ffffffff861602815273ffffffffffffffffffffffffffffffffffffffff90931660048401527fffffffff00000000000000000000000000000000000000000000000000000000909116602483015251604480830192600092919082900301818387803b1580156153cd57600080fd5b505af11580156153e1573d6000803e3d6000fd5b5050600154604080517f9491951b000000000000000000000000000000000000000000000000000000008152905173ffffffffffffffffffffffffffffffffffffffff9092169350631c870eee925084918491639491951b9160048083019260209291908290030181600087803b15801561545b57600080fd5b505af115801561546f573d6000803e3d6000fd5b505050506040513d602081101561548557600080fd5b5051604080517c010000000000000000000000000000000000000000000000000000000063ffffffff861602815273ffffffffffffffffffffffffffffffffffffffff90931660048401527fffffffff00000000000000000000000000000000000000000000000000000000909116602483015251604480830192600092919082900301818387803b15801561551a57600080fd5b505af115801561552e573d6000803e3d6000fd5b505060405173ffffffffffffffffffffffffffffffffffffffff841692507f8ed6db9e8aeb425f391c919c79778f978777d9e9e9f357656b139b2e9251de929150600090a250565b600154604080517fcfbf1b90000000000000000000000000000000000000000000000000000000008152905173ffffffffffffffffffffffffffffffffffffffff9092169163933aa66791839163cfbf1b90916004808201926020929091908290030181600087803b1580156155eb57600080fd5b505af11580156155ff573d6000803e3d6000fd5b505050506040513d602081101561561557600080fd5b5051604080517c010000000000000000000000000000000000000000000000000000000063ffffffff85160281527fffffffff0000000000000000000000000000000000000000000000000000000090921660048301525160248083019260209291908290030181600087803b15801561568e57600080fd5b505af11580156156a2573d6000803e3d6000fd5b505050506040513d60208110156156b857600080fd5b5051151561574d57604080517f08c379a000000000000000000000000000000000000000000000000000000000815260206004820152602260248201527f4275726e206d6574686f64206e6f7420737570706f7274656420627920746f6b60448201527f656e000000000000000000000000000000000000000000000000000000000000606482015290519081900360840190fd5b600154604080517f9491951b000000000000000000000000000000000000000000000000000000008152905173ffffffffffffffffffffffffffffffffffffffff9092169163933aa667918391639491951b916004808201926020929091908290030181600087803b1580156157c257600080fd5b505af11580156157d6573d6000803e3d6000fd5b505050506040513d60208110156157ec57600080fd5b5051604080517c010000000000000000000000000000000000000000000000000000000063ffffffff85160281527fffffffff0000000000000000000000000000000000000000000000000000000090921660048301525160248083019260209291908290030181600087803b15801561586557600080fd5b505af1158015615879573d6000803e3d6000fd5b505050506040513d602081101561588f57600080fd5b5051151561592457604080517f08c379a000000000000000000000000000000000000000000000000000000000815260206004820152602b60248201527f53656c662d6465737472756374206d6574686f64206e6f7420737570706f727460448201527f656420627920746f6b656e000000000000000000000000000000000000000000606482015290519081900360840190fd5b600154604080517fcfbf1b90000000000000000000000000000000000000000000000000000000008152905173ffffffffffffffffffffffffffffffffffffffff90921691635317e444918491849163cfbf1b909160048083019260209291908290030181600087803b15801561599a57600080fd5b505af11580156159ae573d6000803e3d6000fd5b505050506040513d60208110156159c457600080fd5b5051604080517c010000000000000000000000000000000000000000000000000000000063ffffffff861602815273ffffffffffffffffffffffffffffffffffffffff90931660048401527fffffffff00000000000000000000000000000000000000000000000000000000909116602483015251604480830192600092919082900301818387803b158015615a5957600080fd5b505af1158015615a6d573d6000803e3d6000fd5b5050600154604080517f9491951b000000000000000000000000000000000000000000000000000000008152905173ffffffffffffffffffffffffffffffffffffffff9092169350635317e444925084918491639491951b9160048083019260209291908290030181600087803b158015615ae757600080fd5b505af1158015615afb573d6000803e3d6000fd5b505050506040513d6020811015615b1157600080fd5b5051604080517c010000000000000000000000000000000000000000000000000000000063ffffffff861602815273ffffffffffffffffffffffffffffffffffffffff90931660048401527fffffffff00000000000000000000000000000000000000000000000000000000909116602483015251604480830192600092919082900301818387803b158015615ba657600080fd5b505af1158015615bba573d6000803e3d6000fd5b505060405173ffffffffffffffffffffffffffffffffffffffff841692507f99fac8adcffc13d01bc3b656d54bfa9e5f9a77ace9bf19f5a1a9469990a782b79150600090a250565b600154604080517f88f14b0e000000000000000000000000000000000000000000000000000000008152905173ffffffffffffffffffffffffffffffffffffffff9092169163933aa6679183916388f14b0e916004808201926020929091908290030181600087803b158015615c7757600080fd5b505af1158015615c8b573d6000803e3d6000fd5b505050506040513d6020811015615ca157600080fd5b5051604080517c010000000000000000000000000000000000000000000000000000000063ffffffff85160281527fffffffff0000000000000000000000000000000000000000000000000000000090921660048301525160248083019260209291908290030181600087803b158015615d1a57600080fd5b505af1158015615d2e573d6000803e3d6000fd5b505050506040513d6020811015615d4457600080fd5b50511515615db357604080517f08c379a000000000000000000000000000000000000000000000000000000000815260206004820152601e60248201527f4d696e74696e67206e6f7420737570706f7274656420627920746f6b656e0000604482015290519081900360640190fd5b600154604080517f88f14b0e000000000000000000000000000000000000000000000000000000008152905173ffffffffffffffffffffffffffffffffffffffff90921691631c870eee91849184916388f14b0e9160048083019260209291908290030181600087803b158015615e2957600080fd5b505af1158015615e3d573d6000803e3d6000fd5b505050506040513d6020811015615e5357600080fd5b5051604080517c010000000000000000000000000000000000000000000000000000000063ffffffff861602815273ffffffffffffffffffffffffffffffffffffffff90931660048401527fffffffff00000000000000000000000000000000000000000000000000000000909116602483015251604480830192600092919082900301818387803b158015615ee857600080fd5b505af1158015615efc573d6000803e3d6000fd5b505060405173ffffffffffffffffffffffffffffffffffffffff841692507fcec52196e972044edde8689a1b608e459c5946b7f3e5c8cd3d6d8e126d422e1c9150600090a2505600a165627a7a72305820f9ec912b91178f69db834feb663998582860f3206b3da8f4d13e3c1dd23ed8270029",
  "source": "pragma solidity ^0.4.24;\r\n\r\nimport \"../Regulator.sol\";\r\n\r\n/**\r\n * @title WhitelistedTokenRegulator\r\n * @dev WhitelistedTokenRegulator is a type of Regulator that modifies its definitions of\r\n * what constitutes a \"whitelisted/nonlisted/blacklisted\" user. A WhitelistedToken\r\n * provides a user the additional ability to convert from a whtielisted stablecoin into the\r\n * meta-token CUSD, or mint CUSD directly through a specific WT.\r\n *\r\n */\r\ncontract WhitelistedTokenRegulator is Regulator {\r\n    constructor(address p, address v) Regulator(p,v) public {}\r\n\r\n    // A WT minter should have option to either mint directly into CUSD via mintCUSD(), or\r\n    // mint the WT via an ordinary mint() \r\n    function _setMinter(address _who) internal {\r\n        require(permissions.isPermission(permissions.MINT_CUSD_SIG()), \"Minting to CUSD not supported by token\");\r\n        permissions.setUserPermission(_who, permissions.MINT_CUSD_SIG());\r\n        super._setMinter(_who);\r\n    }\r\n\r\n    function _removeMinter(address _who) internal {\r\n        require(permissions.isPermission(permissions.MINT_CUSD_SIG()), \"Minting to CUSD not supported by token\");\r\n        permissions.removeUserPermission(_who, permissions.MINT_CUSD_SIG());\r\n        super._removeMinter(_who);\r\n    }\r\n\r\n    function isMinter(address _who) public view returns (bool) {\r\n        return (super.isMinter(_who) && hasUserPermission(_who, permissions.MINT_CUSD_SIG()));\r\n    }\r\n\r\n    // Setters\r\n\r\n    // A WT whitelisted user should gain ability to convert their WT into CUSD. They can also burn their WT, as a\r\n    // PermissionedToken whitelisted user can do\r\n    function _setWhitelistedUser(address _who) internal {\r\n        require(permissions.isPermission(permissions.CONVERT_WT_SIG()), \"Converting to CUSD not supported by token\");\r\n        permissions.setUserPermission(_who, permissions.CONVERT_WT_SIG());\r\n        super._setWhitelistedUser(_who);\r\n    }\r\n\r\n    function _setBlacklistedUser(address _who) internal {\r\n        require(permissions.isPermission(permissions.CONVERT_WT_SIG()), \"Converting to CUSD not supported by token\");\r\n        permissions.removeUserPermission(_who, permissions.CONVERT_WT_SIG());\r\n        super._setBlacklistedUser(_who);\r\n    }\r\n\r\n    function _setNonlistedUser(address _who) internal {\r\n        require(permissions.isPermission(permissions.CONVERT_WT_SIG()), \"Converting to CUSD not supported by token\");\r\n        permissions.removeUserPermission(_who, permissions.CONVERT_WT_SIG());\r\n        super._setNonlistedUser(_who);\r\n    }\r\n\r\n    // Getters\r\n\r\n    function isWhitelistedUser(address _who) public view returns (bool) {\r\n        return (hasUserPermission(_who, permissions.CONVERT_WT_SIG()) && super.isWhitelistedUser(_who));\r\n    }\r\n\r\n    function isBlacklistedUser(address _who) public view returns (bool) {\r\n        return (!hasUserPermission(_who, permissions.CONVERT_WT_SIG()) && super.isBlacklistedUser(_who));\r\n    }\r\n\r\n    function isNonlistedUser(address _who) public view returns (bool) {\r\n        return (!hasUserPermission(_who, permissions.CONVERT_WT_SIG()) && super.isNonlistedUser(_who));\r\n    }   \r\n}",
  "sourcePath": "C:\\Users\\npain\\Projects\\Carbon\\fiat_gateway\\contracts\\regulator\\whitelistedRegulator\\WhitelistedTokenRegulator.sol",
  "compiler": {
    "name": "solc",
    "version": "0.4.24+commit.e67f0147.Emscripten.clang"
  },
  "schemaVersion": "2.0.1",
  "updatedAt": "2018-08-17T20:11:44.142Z"
}