{
  "contractName": "WhitelistedTokenRegulator",
  "abi": [
    {
      "constant": false,
      "inputs": [
        {
          "name": "_who",
          "type": "address"
        }
      ],
      "name": "removeBlacklistSpender",
      "outputs": [],
      "payable": false,
      "stateMutability": "nonpayable",
      "type": "function"
    },
    {
      "constant": false,
      "inputs": [
        {
          "name": "_who",
          "type": "address"
        },
        {
          "name": "_methodsignature",
          "type": "bytes4"
        }
      ],
      "name": "setPermission",
      "outputs": [],
      "payable": false,
      "stateMutability": "nonpayable",
      "type": "function"
    },
    {
      "constant": true,
      "inputs": [],
      "name": "userPermissions",
      "outputs": [
        {
          "name": "",
          "type": "address"
        }
      ],
      "payable": false,
      "stateMutability": "view",
      "type": "function"
    },
    {
      "constant": false,
      "inputs": [
        {
          "name": "_who",
          "type": "address"
        }
      ],
      "name": "setWhitelistedUser",
      "outputs": [],
      "payable": false,
      "stateMutability": "nonpayable",
      "type": "function"
    },
    {
      "constant": false,
      "inputs": [
        {
          "name": "_who",
          "type": "address"
        },
        {
          "name": "_methodsignature",
          "type": "bytes4"
        }
      ],
      "name": "removePermission",
      "outputs": [],
      "payable": false,
      "stateMutability": "nonpayable",
      "type": "function"
    },
    {
      "constant": true,
      "inputs": [],
      "name": "DESTROYSELF_SIG",
      "outputs": [
        {
          "name": "",
          "type": "bytes4"
        }
      ],
      "payable": false,
      "stateMutability": "view",
      "type": "function"
    },
    {
      "constant": false,
      "inputs": [
        {
          "name": "_who",
          "type": "address"
        }
      ],
      "name": "setBlacklistDestroyer",
      "outputs": [],
      "payable": false,
      "stateMutability": "nonpayable",
      "type": "function"
    },
    {
      "constant": false,
      "inputs": [
        {
          "name": "_who",
          "type": "address"
        }
      ],
      "name": "removeValidator",
      "outputs": [],
      "payable": false,
      "stateMutability": "nonpayable",
      "type": "function"
    },
    {
      "constant": false,
      "inputs": [
        {
          "name": "_who",
          "type": "address"
        }
      ],
      "name": "addValidator",
      "outputs": [],
      "payable": false,
      "stateMutability": "nonpayable",
      "type": "function"
    },
    {
      "constant": true,
      "inputs": [
        {
          "name": "_who",
          "type": "address"
        }
      ],
      "name": "isNonlistedUser",
      "outputs": [
        {
          "name": "",
          "type": "bool"
        }
      ],
      "payable": false,
      "stateMutability": "view",
      "type": "function"
    },
    {
      "constant": false,
      "inputs": [],
      "name": "claimOwnership",
      "outputs": [],
      "payable": false,
      "stateMutability": "nonpayable",
      "type": "function"
    },
    {
      "constant": true,
      "inputs": [],
      "name": "DESTROYBLACKLIST_SIG",
      "outputs": [
        {
          "name": "",
          "type": "bytes4"
        }
      ],
      "payable": false,
      "stateMutability": "view",
      "type": "function"
    },
    {
      "constant": false,
      "inputs": [],
      "name": "transferStorageOwnership",
      "outputs": [],
      "payable": false,
      "stateMutability": "nonpayable",
      "type": "function"
    },
    {
      "constant": false,
      "inputs": [
        {
          "name": "_who",
          "type": "address"
        }
      ],
      "name": "removeBlacklistDestroyer",
      "outputs": [],
      "payable": false,
      "stateMutability": "nonpayable",
      "type": "function"
    },
    {
      "constant": false,
      "inputs": [
        {
          "name": "_newStorage",
          "type": "address"
        }
      ],
      "name": "setUserPermissionsStorage",
      "outputs": [],
      "payable": false,
      "stateMutability": "nonpayable",
      "type": "function"
    },
    {
      "constant": false,
      "inputs": [],
      "name": "renounceOwnership",
      "outputs": [],
      "payable": false,
      "stateMutability": "nonpayable",
      "type": "function"
    },
    {
      "constant": true,
      "inputs": [
        {
          "name": "_who",
          "type": "address"
        }
      ],
      "name": "isBlacklistedUser",
      "outputs": [
        {
          "name": "",
          "type": "bool"
        }
      ],
      "payable": false,
      "stateMutability": "view",
      "type": "function"
    },
    {
      "constant": false,
      "inputs": [],
      "name": "initialize",
      "outputs": [],
      "payable": false,
      "stateMutability": "nonpayable",
      "type": "function"
    },
    {
      "constant": true,
      "inputs": [],
      "name": "ADD_BLACKLISTED_SPENDER_SIG",
      "outputs": [
        {
          "name": "",
          "type": "bytes4"
        }
      ],
      "payable": false,
      "stateMutability": "view",
      "type": "function"
    },
    {
      "constant": true,
      "inputs": [],
      "name": "MINT_SIG",
      "outputs": [
        {
          "name": "",
          "type": "bytes4"
        }
      ],
      "payable": false,
      "stateMutability": "view",
      "type": "function"
    },
    {
      "constant": true,
      "inputs": [],
      "name": "owner",
      "outputs": [
        {
          "name": "",
          "type": "address"
        }
      ],
      "payable": false,
      "stateMutability": "view",
      "type": "function"
    },
    {
      "constant": true,
      "inputs": [
        {
          "name": "_who",
          "type": "address"
        }
      ],
      "name": "isBlacklistSpender",
      "outputs": [
        {
          "name": "",
          "type": "bool"
        }
      ],
      "payable": false,
      "stateMutability": "view",
      "type": "function"
    },
    {
      "constant": false,
      "inputs": [
        {
          "name": "_newStorage",
          "type": "address"
        }
      ],
      "name": "setPermissionStorage",
      "outputs": [],
      "payable": false,
      "stateMutability": "nonpayable",
      "type": "function"
    },
    {
      "constant": true,
      "inputs": [],
      "name": "availablePermissions",
      "outputs": [
        {
          "name": "",
          "type": "address"
        }
      ],
      "payable": false,
      "stateMutability": "view",
      "type": "function"
    },
    {
      "constant": false,
      "inputs": [],
      "name": "claimStorageOwnership",
      "outputs": [],
      "payable": false,
      "stateMutability": "nonpayable",
      "type": "function"
    },
    {
      "constant": true,
      "inputs": [
        {
          "name": "_who",
          "type": "address"
        },
        {
          "name": "_methodsignature",
          "type": "bytes4"
        }
      ],
      "name": "hasPermission",
      "outputs": [
        {
          "name": "",
          "type": "bool"
        }
      ],
      "payable": false,
      "stateMutability": "view",
      "type": "function"
    },
    {
      "constant": true,
      "inputs": [
        {
          "name": "contractName",
          "type": "string"
        },
        {
          "name": "migrationId",
          "type": "string"
        }
      ],
      "name": "isMigrated",
      "outputs": [
        {
          "name": "",
          "type": "bool"
        }
      ],
      "payable": false,
      "stateMutability": "view",
      "type": "function"
    },
    {
      "constant": false,
      "inputs": [
        {
          "name": "_who",
          "type": "address"
        }
      ],
      "name": "setBlacklistSpender",
      "outputs": [],
      "payable": false,
      "stateMutability": "nonpayable",
      "type": "function"
    },
    {
      "constant": false,
      "inputs": [
        {
          "name": "_who",
          "type": "address"
        }
      ],
      "name": "setBlacklistedUser",
      "outputs": [],
      "payable": false,
      "stateMutability": "nonpayable",
      "type": "function"
    },
    {
      "constant": true,
      "inputs": [],
      "name": "validators",
      "outputs": [
        {
          "name": "",
          "type": "address"
        }
      ],
      "payable": false,
      "stateMutability": "view",
      "type": "function"
    },
    {
      "constant": false,
      "inputs": [
        {
          "name": "_who",
          "type": "address"
        }
      ],
      "name": "setNonlistedUser",
      "outputs": [],
      "payable": false,
      "stateMutability": "nonpayable",
      "type": "function"
    },
    {
      "constant": false,
      "inputs": [
        {
          "name": "_oldRegulator",
          "type": "address"
        }
      ],
      "name": "migrate",
      "outputs": [],
      "payable": false,
      "stateMutability": "nonpayable",
      "type": "function"
    },
    {
      "constant": true,
      "inputs": [],
      "name": "BURN_SIG",
      "outputs": [
        {
          "name": "",
          "type": "bytes4"
        }
      ],
      "payable": false,
      "stateMutability": "view",
      "type": "function"
    },
    {
      "constant": true,
      "inputs": [
        {
          "name": "_who",
          "type": "address"
        }
      ],
      "name": "isWhitelistedUser",
      "outputs": [
        {
          "name": "",
          "type": "bool"
        }
      ],
      "payable": false,
      "stateMutability": "view",
      "type": "function"
    },
    {
      "constant": true,
      "inputs": [],
      "name": "pendingOwner",
      "outputs": [
        {
          "name": "",
          "type": "address"
        }
      ],
      "payable": false,
      "stateMutability": "view",
      "type": "function"
    },
    {
      "constant": false,
      "inputs": [
        {
          "name": "_newStorage",
          "type": "address"
        }
      ],
      "name": "setValidatorStorage",
      "outputs": [],
      "payable": false,
      "stateMutability": "nonpayable",
      "type": "function"
    },
    {
      "constant": false,
      "inputs": [
        {
          "name": "newOwner",
          "type": "address"
        }
      ],
      "name": "transferOwnership",
      "outputs": [],
      "payable": false,
      "stateMutability": "nonpayable",
      "type": "function"
    },
    {
      "constant": true,
      "inputs": [
        {
          "name": "_who",
          "type": "address"
        }
      ],
      "name": "isBlacklistDestroyer",
      "outputs": [
        {
          "name": "",
          "type": "bool"
        }
      ],
      "payable": false,
      "stateMutability": "view",
      "type": "function"
    },
    {
      "anonymous": false,
      "inputs": [
        {
          "indexed": false,
          "name": "oldStorage",
          "type": "address"
        },
        {
          "indexed": false,
          "name": "newStorage",
          "type": "address"
        }
      ],
      "name": "SetPermissionStorage",
      "type": "event"
    },
    {
      "anonymous": false,
      "inputs": [
        {
          "indexed": false,
          "name": "oldStorage",
          "type": "address"
        },
        {
          "indexed": false,
          "name": "newStorage",
          "type": "address"
        }
      ],
      "name": "SetUserPermissionsStorage",
      "type": "event"
    },
    {
      "anonymous": false,
      "inputs": [
        {
          "indexed": false,
          "name": "oldStorage",
          "type": "address"
        },
        {
          "indexed": false,
          "name": "newStorage",
          "type": "address"
        }
      ],
      "name": "SetValidatorStorage",
      "type": "event"
    },
    {
      "anonymous": false,
      "inputs": [
        {
          "indexed": false,
          "name": "contractName",
          "type": "string"
        },
        {
          "indexed": false,
          "name": "migrationId",
          "type": "string"
        }
      ],
      "name": "Migrated",
      "type": "event"
    },
    {
      "anonymous": false,
      "inputs": [
        {
          "indexed": true,
          "name": "previousOwner",
          "type": "address"
        }
      ],
      "name": "OwnershipRenounced",
      "type": "event"
    },
    {
      "anonymous": false,
      "inputs": [
        {
          "indexed": true,
          "name": "previousOwner",
          "type": "address"
        },
        {
          "indexed": true,
          "name": "newOwner",
          "type": "address"
        }
      ],
      "name": "OwnershipTransferred",
      "type": "event"
    },
    {
      "constant": false,
      "inputs": [
        {
          "name": "_who",
          "type": "address"
        }
      ],
      "name": "setMinter",
      "outputs": [],
      "payable": false,
      "stateMutability": "nonpayable",
      "type": "function"
    },
    {
      "constant": false,
      "inputs": [
        {
          "name": "_who",
          "type": "address"
        }
      ],
      "name": "removeMinter",
      "outputs": [],
      "payable": false,
      "stateMutability": "nonpayable",
      "type": "function"
    },
    {
      "constant": true,
      "inputs": [
        {
          "name": "_who",
          "type": "address"
        }
      ],
      "name": "isMinter",
      "outputs": [
        {
          "name": "",
          "type": "bool"
        }
      ],
      "payable": false,
      "stateMutability": "view",
      "type": "function"
    }
  ],
  "bytecode": "0x608060405260405180807f64657374726f7953656c66282900000000000000000000000000000000000000815250600d0190506040518091039020600560146101000a81548163ffffffff02191690837c01000000000000000000000000000000000000000000000000000000009004021790555060405180807f6275726e2875696e743235362900000000000000000000000000000000000000815250600d0190506040518091039020600560186101000a81548163ffffffff02191690837c01000000000000000000000000000000000000000000000000000000009004021790555060405180807f6d696e7428616464726573732c75696e74323536290000000000000000000000815250601501905060405180910390206005601c6101000a81548163ffffffff02191690837c01000000000000000000000000000000000000000000000000000000009004021790555060405180807f64657374726f79426c61636b6c6973746564546f6b656e73286164647265737381526020017f290000000000000000000000000000000000000000000000000000000000000081525060210190506040518091039020600660006101000a81548163ffffffff02191690837c01000000000000000000000000000000000000000000000000000000009004021790555060405180807f616464426c61636b6c6973746564416464726573735370656e6465722861646481526020017f726573732900000000000000000000000000000000000000000000000000000081525060250190506040518091039020600660046101000a81548163ffffffff02191690837c01000000000000000000000000000000000000000000000000000000009004021790555060405180807f6d696e7428616464726573732c75696e743235362c626f6f6c29000000000000815250601a0190506040518091039020600660086101000a81548163ffffffff02191690837c010000000000000000000000000000000000000000000000000000000090040217905550336000806101000a81548173ffffffffffffffffffffffffffffffffffffffff021916908373ffffffffffffffffffffffffffffffffffffffff160217905550615bef8061033f6000396000f3006080604052600436106101f9576000357c0100000000000000000000000000000000000000000000000000000000900463ffffffff168063029043a4146101fe57806302abcae214610241578063072b0515146102ad57806309533303146103045780630b2f6d4114610347578063174d8b85146103b3578063231a439e1461041c5780633092afd51461045f57806340a141ff146104a25780634d238c8e146104e55780634d54dc96146105285780634e71e0c814610583578063522f6e691461059a578063546f877814610603578063556b63841461061a5780635672f4a01461065d578063715018a6146106a05780637ccce851146106b75780638129fc1c1461071257806387b6eaf21461072957806388f14b0e146107925780638da5cb5b146107fb57806391c4529f14610852578063aa271e1a146108ad578063aef5eb8014610908578063b2daee5c1461094b578063b516af70146109a2578063bed98a0d146109b9578063c0bac1a814610a3d578063c1331bc314610b04578063c56bea6414610b47578063ca1e781914610b8a578063cd49539114610be1578063ce5494bb14610c24578063cfbf1b9014610c67578063d88c271e14610cd0578063e30c397814610d2b578063e51207e714610d82578063f2fde38b14610dc5578063f530259e14610e08578063fca3b5aa14610e63575b600080fd5b34801561020a57600080fd5b5061023f600480360381019080803573ffffffffffffffffffffffffffffffffffffffff169060200190929190505050610ea6565b005b34801561024d57600080fd5b506102ab600480360381019080803573ffffffffffffffffffffffffffffffffffffffff16906020019092919080357bffffffffffffffffffffffffffffffffffffffffffffffffffffffff191690602001909291905050506111b0565b005b3480156102b957600080fd5b506102c26114e7565b604051808273ffffffffffffffffffffffffffffffffffffffff1673ffffffffffffffffffffffffffffffffffffffff16815260200191505060405180910390f35b34801561031057600080fd5b50610345600480360381019080803573ffffffffffffffffffffffffffffffffffffffff16906020019092919050505061150d565b005b34801561035357600080fd5b506103b1600480360381019080803573ffffffffffffffffffffffffffffffffffffffff16906020019092919080357bffffffffffffffffffffffffffffffffffffffffffffffffffffffff19169060200190929190505050611a1b565b005b3480156103bf57600080fd5b506103c8611d52565b60405180827bffffffffffffffffffffffffffffffffffffffffffffffffffffffff19167bffffffffffffffffffffffffffffffffffffffffffffffffffffffff1916815260200191505060405180910390f35b34801561042857600080fd5b5061045d600480360381019080803573ffffffffffffffffffffffffffffffffffffffff169060200190929190505050611d81565b005b34801561046b57600080fd5b506104a0600480360381019080803573ffffffffffffffffffffffffffffffffffffffff16906020019092919050505061208b565b005b3480156104ae57600080fd5b506104e3600480360381019080803573ffffffffffffffffffffffffffffffffffffffff169060200190929190505050612795565b005b3480156104f157600080fd5b50610526600480360381019080803573ffffffffffffffffffffffffffffffffffffffff1690602001909291905050506128c8565b005b34801561053457600080fd5b50610569600480360381019080803573ffffffffffffffffffffffffffffffffffffffff1690602001909291905050506129fb565b604051808215151515815260200191505060405180910390f35b34801561058f57600080fd5b50610598612a78565b005b3480156105a657600080fd5b506105af612c17565b60405180827bffffffffffffffffffffffffffffffffffffffffffffffffffffffff19167bffffffffffffffffffffffffffffffffffffffffffffffffffffffff1916815260200191505060405180910390f35b34801561060f57600080fd5b50610618612c46565b005b34801561062657600080fd5b5061065b600480360381019080803573ffffffffffffffffffffffffffffffffffffffff169060200190929190505050612f22565b005b34801561066957600080fd5b5061069e600480360381019080803573ffffffffffffffffffffffffffffffffffffffff16906020019092919050505061322c565b005b3480156106ac57600080fd5b506106b5613293565b005b3480156106c357600080fd5b506106f8600480360381019080803573ffffffffffffffffffffffffffffffffffffffff169060200190929190505050613395565b604051808215151515815260200191505060405180910390f35b34801561071e57600080fd5b50610727613411565b005b34801561073557600080fd5b5061073e61368d565b60405180827bffffffffffffffffffffffffffffffffffffffffffffffffffffffff19167bffffffffffffffffffffffffffffffffffffffffffffffffffffffff1916815260200191505060405180910390f35b34801561079e57600080fd5b506107a76136bc565b60405180827bffffffffffffffffffffffffffffffffffffffffffffffffffffffff19167bffffffffffffffffffffffffffffffffffffffffffffffffffffffff1916815260200191505060405180910390f35b34801561080757600080fd5b506108106136eb565b604051808273ffffffffffffffffffffffffffffffffffffffff1673ffffffffffffffffffffffffffffffffffffffff16815260200191505060405180910390f35b34801561085e57600080fd5b50610893600480360381019080803573ffffffffffffffffffffffffffffffffffffffff169060200190929190505050613710565b604051808215151515815260200191505060405180910390f35b3480156108b957600080fd5b506108ee600480360381019080803573ffffffffffffffffffffffffffffffffffffffff16906020019092919050505061374e565b604051808215151515815260200191505060405180910390f35b34801561091457600080fd5b50610949600480360381019080803573ffffffffffffffffffffffffffffffffffffffff16906020019092919050505061378c565b005b34801561095757600080fd5b506109606137f3565b604051808273ffffffffffffffffffffffffffffffffffffffff1673ffffffffffffffffffffffffffffffffffffffff16815260200191505060405180910390f35b3480156109ae57600080fd5b506109b7613819565b005b3480156109c557600080fd5b50610a23600480360381019080803573ffffffffffffffffffffffffffffffffffffffff16906020019092919080357bffffffffffffffffffffffffffffffffffffffffffffffffffffffff1916906020019092919050505061387e565b604051808215151515815260200191505060405180910390f35b348015610a4957600080fd5b50610aea600480360381019080803590602001908201803590602001908080601f0160208091040260200160405190810160405280939291908181526020018383808284378201915050505050509192919290803590602001908201803590602001908080601f01602080910402602001604051908101604052809392919081815260200183838082843782019150505050505091929192905050506139c6565b604051808215151515815260200191505060405180910390f35b348015610b1057600080fd5b50610b45600480360381019080803573ffffffffffffffffffffffffffffffffffffffff169060200190929190505050613ab2565b005b348015610b5357600080fd5b50610b88600480360381019080803573ffffffffffffffffffffffffffffffffffffffff169060200190929190505050613dbc565b005b348015610b9657600080fd5b50610b9f6142ca565b604051808273ffffffffffffffffffffffffffffffffffffffff1673ffffffffffffffffffffffffffffffffffffffff16815260200191505060405180910390f35b348015610bed57600080fd5b50610c22600480360381019080803573ffffffffffffffffffffffffffffffffffffffff1690602001909291905050506142f0565b005b348015610c3057600080fd5b50610c65600480360381019080803573ffffffffffffffffffffffffffffffffffffffff1690602001909291905050506147fe565b005b348015610c7357600080fd5b50610c7c614dbf565b60405180827bffffffffffffffffffffffffffffffffffffffffffffffffffffffff19167bffffffffffffffffffffffffffffffffffffffffffffffffffffffff1916815260200191505060405180910390f35b348015610cdc57600080fd5b50610d11600480360381019080803573ffffffffffffffffffffffffffffffffffffffff169060200190929190505050614dee565b604051808215151515815260200191505060405180910390f35b348015610d3757600080fd5b50610d40614e6a565b604051808273ffffffffffffffffffffffffffffffffffffffff1673ffffffffffffffffffffffffffffffffffffffff16815260200191505060405180910390f35b348015610d8e57600080fd5b50610dc3600480360381019080803573ffffffffffffffffffffffffffffffffffffffff169060200190929190505050614e90565b005b348015610dd157600080fd5b50610e06600480360381019080803573ffffffffffffffffffffffffffffffffffffffff169060200190929190505050614ef7565b005b348015610e1457600080fd5b50610e49600480360381019080803573ffffffffffffffffffffffffffffffffffffffff169060200190929190505050614f96565b604051808215151515815260200191505060405180910390f35b348015610e6f57600080fd5b50610ea4600480360381019080803573ffffffffffffffffffffffffffffffffffffffff169060200190929190505050614fd4565b005b600560009054906101000a900473ffffffffffffffffffffffffffffffffffffffff1673ffffffffffffffffffffffffffffffffffffffff1663facd743b336040518263ffffffff167c0100000000000000000000000000000000000000000000000000000000028152600401808273ffffffffffffffffffffffffffffffffffffffff1673ffffffffffffffffffffffffffffffffffffffff168152602001915050602060405180830381600087803b158015610f6357600080fd5b505af1158015610f77573d6000803e3d6000fd5b505050506040513d6020811015610f8d57600080fd5b81019080805190602001909291905050501515610fa957600080fd5b600360009054906101000a900473ffffffffffffffffffffffffffffffffffffffff1673ffffffffffffffffffffffffffffffffffffffff1663933aa6676005601c9054906101000a90047c0100000000000000000000000000000000000000000000000000000000026040518263ffffffff167c010000000000000000000000000000000000000000000000000000000002815260040180827bffffffffffffffffffffffffffffffffffffffffffffffffffffffff19167bffffffffffffffffffffffffffffffffffffffffffffffffffffffff19168152602001915050602060405180830381600087803b1580156110a357600080fd5b505af11580156110b7573d6000803e3d6000fd5b505050506040513d60208110156110cd57600080fd5b81019080805190602001909291905050501515611178576040517f08c379a00000000000000000000000000000000000000000000000000000000081526004018080602001828103825260298152602001807f426c61636b6c697374207370656e64696e67206e6f7420737570706f7274656481526020017f20627920746f6b656e000000000000000000000000000000000000000000000081525060400191505060405180910390fd5b6111ad81600660049054906101000a90047c010000000000000000000000000000000000000000000000000000000002611a1b565b50565b600560009054906101000a900473ffffffffffffffffffffffffffffffffffffffff1673ffffffffffffffffffffffffffffffffffffffff1663facd743b336040518263ffffffff167c0100000000000000000000000000000000000000000000000000000000028152600401808273ffffffffffffffffffffffffffffffffffffffff1673ffffffffffffffffffffffffffffffffffffffff168152602001915050602060405180830381600087803b15801561126d57600080fd5b505af1158015611281573d6000803e3d6000fd5b505050506040513d602081101561129757600080fd5b810190808051906020019092919050505015156112b357600080fd5b600360009054906101000a900473ffffffffffffffffffffffffffffffffffffffff1673ffffffffffffffffffffffffffffffffffffffff1663933aa667826040518263ffffffff167c010000000000000000000000000000000000000000000000000000000002815260040180827bffffffffffffffffffffffffffffffffffffffffffffffffffffffff19167bffffffffffffffffffffffffffffffffffffffffffffffffffffffff19168152602001915050602060405180830381600087803b15801561138257600080fd5b505af1158015611396573d6000803e3d6000fd5b505050506040513d60208110156113ac57600080fd5b810190808051906020019092919050505015156113c857600080fd5b600460009054906101000a900473ffffffffffffffffffffffffffffffffffffffff1673ffffffffffffffffffffffffffffffffffffffff166302abcae283836040518363ffffffff167c0100000000000000000000000000000000000000000000000000000000028152600401808373ffffffffffffffffffffffffffffffffffffffff1673ffffffffffffffffffffffffffffffffffffffff168152602001827bffffffffffffffffffffffffffffffffffffffffffffffffffffffff19167bffffffffffffffffffffffffffffffffffffffffffffffffffffffff1916815260200192505050600060405180830381600087803b1580156114cb57600080fd5b505af11580156114df573d6000803e3d6000fd5b505050505050565b600460009054906101000a900473ffffffffffffffffffffffffffffffffffffffff1681565b600560009054906101000a900473ffffffffffffffffffffffffffffffffffffffff1673ffffffffffffffffffffffffffffffffffffffff1663facd743b336040518263ffffffff167c0100000000000000000000000000000000000000000000000000000000028152600401808273ffffffffffffffffffffffffffffffffffffffff1673ffffffffffffffffffffffffffffffffffffffff168152602001915050602060405180830381600087803b1580156115ca57600080fd5b505af11580156115de573d6000803e3d6000fd5b505050506040513d60208110156115f457600080fd5b8101908080519060200190929190505050151561161057600080fd5b600360009054906101000a900473ffffffffffffffffffffffffffffffffffffffff1673ffffffffffffffffffffffffffffffffffffffff1663933aa667600560189054906101000a90047c0100000000000000000000000000000000000000000000000000000000026040518263ffffffff167c010000000000000000000000000000000000000000000000000000000002815260040180827bffffffffffffffffffffffffffffffffffffffffffffffffffffffff19167bffffffffffffffffffffffffffffffffffffffffffffffffffffffff19168152602001915050602060405180830381600087803b15801561170a57600080fd5b505af115801561171e573d6000803e3d6000fd5b505050506040513d602081101561173457600080fd5b810190808051906020019092919050505015156117df576040517f08c379a00000000000000000000000000000000000000000000000000000000081526004018080602001828103825260228152602001807f4275726e206d6574686f64206e6f7420737570706f7274656420627920746f6b81526020017f656e00000000000000000000000000000000000000000000000000000000000081525060400191505060405180910390fd5b600360009054906101000a900473ffffffffffffffffffffffffffffffffffffffff1673ffffffffffffffffffffffffffffffffffffffff1663933aa667600560149054906101000a90047c0100000000000000000000000000000000000000000000000000000000026040518263ffffffff167c010000000000000000000000000000000000000000000000000000000002815260040180827bffffffffffffffffffffffffffffffffffffffffffffffffffffffff19167bffffffffffffffffffffffffffffffffffffffffffffffffffffffff19168152602001915050602060405180830381600087803b1580156118d957600080fd5b505af11580156118ed573d6000803e3d6000fd5b505050506040513d602081101561190357600080fd5b810190808051906020019092919050505015156119ae576040517f08c379a000000000000000000000000000000000000000000000000000000000815260040180806020018281038252602b8152602001807f53656c662d6465737472756374206d6574686f64206e6f7420737570706f727481526020017f656420627920746f6b656e00000000000000000000000000000000000000000081525060400191505060405180910390fd5b6119e381600560189054906101000a90047c0100000000000000000000000000000000000000000000000000000000026111b0565b611a1881600560149054906101000a90047c010000000000000000000000000000000000000000000000000000000002611a1b565b50565b600560009054906101000a900473ffffffffffffffffffffffffffffffffffffffff1673ffffffffffffffffffffffffffffffffffffffff1663facd743b336040518263ffffffff167c0100000000000000000000000000000000000000000000000000000000028152600401808273ffffffffffffffffffffffffffffffffffffffff1673ffffffffffffffffffffffffffffffffffffffff168152602001915050602060405180830381600087803b158015611ad857600080fd5b505af1158015611aec573d6000803e3d6000fd5b505050506040513d6020811015611b0257600080fd5b81019080805190602001909291905050501515611b1e57600080fd5b600360009054906101000a900473ffffffffffffffffffffffffffffffffffffffff1673ffffffffffffffffffffffffffffffffffffffff1663933aa667826040518263ffffffff167c010000000000000000000000000000000000000000000000000000000002815260040180827bffffffffffffffffffffffffffffffffffffffffffffffffffffffff19167bffffffffffffffffffffffffffffffffffffffffffffffffffffffff19168152602001915050602060405180830381600087803b158015611bed57600080fd5b505af1158015611c01573d6000803e3d6000fd5b505050506040513d6020811015611c1757600080fd5b81019080805190602001909291905050501515611c3357600080fd5b600460009054906101000a900473ffffffffffffffffffffffffffffffffffffffff1673ffffffffffffffffffffffffffffffffffffffff16630b2f6d4183836040518363ffffffff167c0100000000000000000000000000000000000000000000000000000000028152600401808373ffffffffffffffffffffffffffffffffffffffff1673ffffffffffffffffffffffffffffffffffffffff168152602001827bffffffffffffffffffffffffffffffffffffffffffffffffffffffff19167bffffffffffffffffffffffffffffffffffffffffffffffffffffffff1916815260200192505050600060405180830381600087803b158015611d3657600080fd5b505af1158015611d4a573d6000803e3d6000fd5b505050505050565b600560149054906101000a90047c01000000000000000000000000000000000000000000000000000000000281565b600560009054906101000a900473ffffffffffffffffffffffffffffffffffffffff1673ffffffffffffffffffffffffffffffffffffffff1663facd743b336040518263ffffffff167c0100000000000000000000000000000000000000000000000000000000028152600401808273ffffffffffffffffffffffffffffffffffffffff1673ffffffffffffffffffffffffffffffffffffffff168152602001915050602060405180830381600087803b158015611e3e57600080fd5b505af1158015611e52573d6000803e3d6000fd5b505050506040513d6020811015611e6857600080fd5b81019080805190602001909291905050501515611e8457600080fd5b600360009054906101000a900473ffffffffffffffffffffffffffffffffffffffff1673ffffffffffffffffffffffffffffffffffffffff1663933aa667600660009054906101000a90047c0100000000000000000000000000000000000000000000000000000000026040518263ffffffff167c010000000000000000000000000000000000000000000000000000000002815260040180827bffffffffffffffffffffffffffffffffffffffffffffffffffffffff19167bffffffffffffffffffffffffffffffffffffffffffffffffffffffff19168152602001915050602060405180830381600087803b158015611f7e57600080fd5b505af1158015611f92573d6000803e3d6000fd5b505050506040513d6020811015611fa857600080fd5b81019080805190602001909291905050501515612053576040517f08c379a00000000000000000000000000000000000000000000000000000000081526004018080602001828103825260328152602001807f426c61636b6c69737420746f6b656e206465737472756374696f6e206e6f742081526020017f737570706f7274656420627920746f6b656e000000000000000000000000000081525060400191505060405180910390fd5b61208881600660009054906101000a90047c0100000000000000000000000000000000000000000000000000000000026111b0565b50565b600560009054906101000a900473ffffffffffffffffffffffffffffffffffffffff1673ffffffffffffffffffffffffffffffffffffffff1663facd743b336040518263ffffffff167c0100000000000000000000000000000000000000000000000000000000028152600401808273ffffffffffffffffffffffffffffffffffffffff1673ffffffffffffffffffffffffffffffffffffffff168152602001915050602060405180830381600087803b15801561214857600080fd5b505af115801561215c573d6000803e3d6000fd5b505050506040513d602081101561217257600080fd5b8101908080519060200190929190505050151561218e57600080fd5b600360009054906101000a900473ffffffffffffffffffffffffffffffffffffffff1673ffffffffffffffffffffffffffffffffffffffff1663933aa6676005601c9054906101000a90047c0100000000000000000000000000000000000000000000000000000000026040518263ffffffff167c010000000000000000000000000000000000000000000000000000000002815260040180827bffffffffffffffffffffffffffffffffffffffffffffffffffffffff19167bffffffffffffffffffffffffffffffffffffffffffffffffffffffff19168152602001915050602060405180830381600087803b15801561228857600080fd5b505af115801561229c573d6000803e3d6000fd5b505050506040513d60208110156122b257600080fd5b81019080805190602001909291905050501515612337576040517f08c379a000000000000000000000000000000000000000000000000000000000815260040180806020018281038252601e8152602001807f4d696e74696e67206e6f7420737570706f7274656420627920746f6b656e000081525060200191505060405180910390fd5b600360009054906101000a900473ffffffffffffffffffffffffffffffffffffffff1673ffffffffffffffffffffffffffffffffffffffff1663933aa667600660089054906101000a90047c0100000000000000000000000000000000000000000000000000000000026040518263ffffffff167c010000000000000000000000000000000000000000000000000000000002815260040180827bffffffffffffffffffffffffffffffffffffffffffffffffffffffff19167bffffffffffffffffffffffffffffffffffffffffffffffffffffffff19168152602001915050602060405180830381600087803b15801561243157600080fd5b505af1158015612445573d6000803e3d6000fd5b505050506040513d602081101561245b57600080fd5b81019080805190602001909291905050501515612506576040517f08c379a00000000000000000000000000000000000000000000000000000000081526004018080602001828103825260268152602001807f4d696e74696e6720746f2043555344206e6f7420737570706f7274656420627981526020017f20746f6b656e000000000000000000000000000000000000000000000000000081525060400191505060405180910390fd5b600460009054906101000a900473ffffffffffffffffffffffffffffffffffffffff1673ffffffffffffffffffffffffffffffffffffffff16630b2f6d41826005601c9054906101000a90047c0100000000000000000000000000000000000000000000000000000000026040518363ffffffff167c0100000000000000000000000000000000000000000000000000000000028152600401808373ffffffffffffffffffffffffffffffffffffffff1673ffffffffffffffffffffffffffffffffffffffff168152602001827bffffffffffffffffffffffffffffffffffffffffffffffffffffffff19167bffffffffffffffffffffffffffffffffffffffffffffffffffffffff1916815260200192505050600060405180830381600087803b15801561263457600080fd5b505af1158015612648573d6000803e3d6000fd5b50505050600460009054906101000a900473ffffffffffffffffffffffffffffffffffffffff1673ffffffffffffffffffffffffffffffffffffffff16630b2f6d4182600660089054906101000a90047c0100000000000000000000000000000000000000000000000000000000026040518363ffffffff167c0100000000000000000000000000000000000000000000000000000000028152600401808373ffffffffffffffffffffffffffffffffffffffff1673ffffffffffffffffffffffffffffffffffffffff168152602001827bffffffffffffffffffffffffffffffffffffffffffffffffffffffff19167bffffffffffffffffffffffffffffffffffffffffffffffffffffffff1916815260200192505050600060405180830381600087803b15801561277a57600080fd5b505af115801561278e573d6000803e3d6000fd5b5050505050565b6000809054906101000a900473ffffffffffffffffffffffffffffffffffffffff1673ffffffffffffffffffffffffffffffffffffffff163373ffffffffffffffffffffffffffffffffffffffff161415156127f057600080fd5b600560009054906101000a900473ffffffffffffffffffffffffffffffffffffffff1673ffffffffffffffffffffffffffffffffffffffff166340a141ff826040518263ffffffff167c0100000000000000000000000000000000000000000000000000000000028152600401808273ffffffffffffffffffffffffffffffffffffffff1673ffffffffffffffffffffffffffffffffffffffff168152602001915050600060405180830381600087803b1580156128ad57600080fd5b505af11580156128c1573d6000803e3d6000fd5b5050505050565b6000809054906101000a900473ffffffffffffffffffffffffffffffffffffffff1673ffffffffffffffffffffffffffffffffffffffff163373ffffffffffffffffffffffffffffffffffffffff1614151561292357600080fd5b600560009054906101000a900473ffffffffffffffffffffffffffffffffffffffff1673ffffffffffffffffffffffffffffffffffffffff16634d238c8e826040518263ffffffff167c0100000000000000000000000000000000000000000000000000000000028152600401808273ffffffffffffffffffffffffffffffffffffffff1673ffffffffffffffffffffffffffffffffffffffff168152602001915050600060405180830381600087803b1580156129e057600080fd5b505af11580156129f4573d6000803e3d6000fd5b5050505050565b6000612a3282600560189054906101000a90047c01000000000000000000000000000000000000000000000000000000000261387e565b158015612a715750612a6f82600560149054906101000a90047c01000000000000000000000000000000000000000000000000000000000261387e565b155b9050919050565b600160009054906101000a900473ffffffffffffffffffffffffffffffffffffffff1673ffffffffffffffffffffffffffffffffffffffff163373ffffffffffffffffffffffffffffffffffffffff16141515612ad457600080fd5b600160009054906101000a900473ffffffffffffffffffffffffffffffffffffffff1673ffffffffffffffffffffffffffffffffffffffff166000809054906101000a900473ffffffffffffffffffffffffffffffffffffffff1673ffffffffffffffffffffffffffffffffffffffff167f8be0079c531659141344cd1fd0a4f28419497f9722a3daafe3b4186f6b6457e060405160405180910390a3600160009054906101000a900473ffffffffffffffffffffffffffffffffffffffff166000806101000a81548173ffffffffffffffffffffffffffffffffffffffff021916908373ffffffffffffffffffffffffffffffffffffffff1602179055506000600160006101000a81548173ffffffffffffffffffffffffffffffffffffffff021916908373ffffffffffffffffffffffffffffffffffffffff160217905550565b600660009054906101000a90047c01000000000000000000000000000000000000000000000000000000000281565b6000809054906101000a900473ffffffffffffffffffffffffffffffffffffffff1673ffffffffffffffffffffffffffffffffffffffff163373ffffffffffffffffffffffffffffffffffffffff16141515612ca157600080fd5b600460009054906101000a900473ffffffffffffffffffffffffffffffffffffffff1673ffffffffffffffffffffffffffffffffffffffff1663f2fde38b336040518263ffffffff167c0100000000000000000000000000000000000000000000000000000000028152600401808273ffffffffffffffffffffffffffffffffffffffff1673ffffffffffffffffffffffffffffffffffffffff168152602001915050600060405180830381600087803b158015612d5e57600080fd5b505af1158015612d72573d6000803e3d6000fd5b50505050600360009054906101000a900473ffffffffffffffffffffffffffffffffffffffff1673ffffffffffffffffffffffffffffffffffffffff1663f2fde38b336040518263ffffffff167c0100000000000000000000000000000000000000000000000000000000028152600401808273ffffffffffffffffffffffffffffffffffffffff1673ffffffffffffffffffffffffffffffffffffffff168152602001915050600060405180830381600087803b158015612e3357600080fd5b505af1158015612e47573d6000803e3d6000fd5b50505050600560009054906101000a900473ffffffffffffffffffffffffffffffffffffffff1673ffffffffffffffffffffffffffffffffffffffff1663f2fde38b336040518263ffffffff167c0100000000000000000000000000000000000000000000000000000000028152600401808273ffffffffffffffffffffffffffffffffffffffff1673ffffffffffffffffffffffffffffffffffffffff168152602001915050600060405180830381600087803b158015612f0857600080fd5b505af1158015612f1c573d6000803e3d6000fd5b50505050565b600560009054906101000a900473ffffffffffffffffffffffffffffffffffffffff1673ffffffffffffffffffffffffffffffffffffffff1663facd743b336040518263ffffffff167c0100000000000000000000000000000000000000000000000000000000028152600401808273ffffffffffffffffffffffffffffffffffffffff1673ffffffffffffffffffffffffffffffffffffffff168152602001915050602060405180830381600087803b158015612fdf57600080fd5b505af1158015612ff3573d6000803e3d6000fd5b505050506040513d602081101561300957600080fd5b8101908080519060200190929190505050151561302557600080fd5b600360009054906101000a900473ffffffffffffffffffffffffffffffffffffffff1673ffffffffffffffffffffffffffffffffffffffff1663933aa667600660009054906101000a90047c0100000000000000000000000000000000000000000000000000000000026040518263ffffffff167c010000000000000000000000000000000000000000000000000000000002815260040180827bffffffffffffffffffffffffffffffffffffffffffffffffffffffff19167bffffffffffffffffffffffffffffffffffffffffffffffffffffffff19168152602001915050602060405180830381600087803b15801561311f57600080fd5b505af1158015613133573d6000803e3d6000fd5b505050506040513d602081101561314957600080fd5b810190808051906020019092919050505015156131f4576040517f08c379a00000000000000000000000000000000000000000000000000000000081526004018080602001828103825260328152602001807f426c61636b6c69737420746f6b656e206465737472756374696f6e206e6f742081526020017f737570706f7274656420627920746f6b656e000000000000000000000000000081525060400191505060405180910390fd5b61322981600660009054906101000a90047c010000000000000000000000000000000000000000000000000000000002611a1b565b50565b6000809054906101000a900473ffffffffffffffffffffffffffffffffffffffff1673ffffffffffffffffffffffffffffffffffffffff163373ffffffffffffffffffffffffffffffffffffffff1614151561328757600080fd5b613290816156de565b50565b6000809054906101000a900473ffffffffffffffffffffffffffffffffffffffff1673ffffffffffffffffffffffffffffffffffffffff163373ffffffffffffffffffffffffffffffffffffffff161415156132ee57600080fd5b6000809054906101000a900473ffffffffffffffffffffffffffffffffffffffff1673ffffffffffffffffffffffffffffffffffffffff167ff8df31144d9c2f0f6b59d69b8b98abd5459d07f2742c4df920b25aae33c6482060405160405180910390a260008060006101000a81548173ffffffffffffffffffffffffffffffffffffffff021916908373ffffffffffffffffffffffffffffffffffffffff160217905550565b60006133cc82600560189054906101000a90047c01000000000000000000000000000000000000000000000000000000000261387e565b15801561340a575061340982600560149054906101000a90047c01000000000000000000000000000000000000000000000000000000000261387e565b5b9050919050565b6040805190810160405280600981526020017f526567756c61746f7200000000000000000000000000000000000000000000008152506040805190810160405280600381526020017f312e30000000000000000000000000000000000000000000000000000000000081525061348782826139c6565b15151561349357600080fd5b7fdd117a11c22118c9dee4b5a67ce578bc44529dce21ee0ccc439588fbb9fb4ea38282604051808060200180602001838103835285818151815260200191508051906020019080838360005b838110156134fa5780820151818401526020810190506134df565b50505050905090810190601f1680156135275780820380516001836020036101000a031916815260200191505b50838103825284818151815260200191508051906020019080838360005b83811015613560578082015181840152602081019050613545565b50505050905090810190601f16801561358d5780820380516001836020036101000a031916815260200191505b5094505050505060405180910390a160016002836040518082805190602001908083835b6020831015156135d657805182526020820191506020810190506020830392506135b1565b6001836020036101000a0380198251168184511680821785525050505050509050019150509081526020016040518091039020826040518082805190602001908083835b60208310151561363f578051825260208201915060208101905060208303925061361a565b6001836020036101000a038019825116818451168082178552505050505050905001915050908152602001604051809103902060006101000a81548160ff0219169083151502179055505050565b600660049054906101000a90047c01000000000000000000000000000000000000000000000000000000000281565b6005601c9054906101000a90047c01000000000000000000000000000000000000000000000000000000000281565b6000809054906101000a900473ffffffffffffffffffffffffffffffffffffffff1681565b600061374782600660049054906101000a90047c01000000000000000000000000000000000000000000000000000000000261387e565b9050919050565b6000613785826005601c9054906101000a90047c01000000000000000000000000000000000000000000000000000000000261387e565b9050919050565b6000809054906101000a900473ffffffffffffffffffffffffffffffffffffffff1673ffffffffffffffffffffffffffffffffffffffff163373ffffffffffffffffffffffffffffffffffffffff161415156137e757600080fd5b6137f0816157e1565b50565b600360009054906101000a900473ffffffffffffffffffffffffffffffffffffffff1681565b6000809054906101000a900473ffffffffffffffffffffffffffffffffffffffff1673ffffffffffffffffffffffffffffffffffffffff163373ffffffffffffffffffffffffffffffffffffffff1614151561387457600080fd5b61387c6158e4565b565b6000600460009054906101000a900473ffffffffffffffffffffffffffffffffffffffff1673ffffffffffffffffffffffffffffffffffffffff1663bed98a0d84846040518363ffffffff167c0100000000000000000000000000000000000000000000000000000000028152600401808373ffffffffffffffffffffffffffffffffffffffff1673ffffffffffffffffffffffffffffffffffffffff168152602001827bffffffffffffffffffffffffffffffffffffffffffffffffffffffff19167bffffffffffffffffffffffffffffffffffffffffffffffffffffffff1916815260200192505050602060405180830381600087803b15801561398357600080fd5b505af1158015613997573d6000803e3d6000fd5b505050506040513d60208110156139ad57600080fd5b8101908080519060200190929190505050905092915050565b60006002836040518082805190602001908083835b602083101515613a0057805182526020820191506020810190506020830392506139db565b6001836020036101000a0380198251168184511680821785525050505050509050019150509081526020016040518091039020826040518082805190602001908083835b602083101515613a695780518252602082019150602081019050602083039250613a44565b6001836020036101000a038019825116818451168082178552505050505050905001915050908152602001604051809103902060009054906101000a900460ff16905092915050565b600560009054906101000a900473ffffffffffffffffffffffffffffffffffffffff1673ffffffffffffffffffffffffffffffffffffffff1663facd743b336040518263ffffffff167c0100000000000000000000000000000000000000000000000000000000028152600401808273ffffffffffffffffffffffffffffffffffffffff1673ffffffffffffffffffffffffffffffffffffffff168152602001915050602060405180830381600087803b158015613b6f57600080fd5b505af1158015613b83573d6000803e3d6000fd5b505050506040513d6020811015613b9957600080fd5b81019080805190602001909291905050501515613bb557600080fd5b600360009054906101000a900473ffffffffffffffffffffffffffffffffffffffff1673ffffffffffffffffffffffffffffffffffffffff1663933aa6676005601c9054906101000a90047c0100000000000000000000000000000000000000000000000000000000026040518263ffffffff167c010000000000000000000000000000000000000000000000000000000002815260040180827bffffffffffffffffffffffffffffffffffffffffffffffffffffffff19167bffffffffffffffffffffffffffffffffffffffffffffffffffffffff19168152602001915050602060405180830381600087803b158015613caf57600080fd5b505af1158015613cc3573d6000803e3d6000fd5b505050506040513d6020811015613cd957600080fd5b81019080805190602001909291905050501515613d84576040517f08c379a00000000000000000000000000000000000000000000000000000000081526004018080602001828103825260298152602001807f426c61636b6c697374207370656e64696e67206e6f7420737570706f7274656481526020017f20627920746f6b656e000000000000000000000000000000000000000000000081525060400191505060405180910390fd5b613db981600660049054906101000a90047c0100000000000000000000000000000000000000000000000000000000026111b0565b50565b600560009054906101000a900473ffffffffffffffffffffffffffffffffffffffff1673ffffffffffffffffffffffffffffffffffffffff1663facd743b336040518263ffffffff167c0100000000000000000000000000000000000000000000000000000000028152600401808273ffffffffffffffffffffffffffffffffffffffff1673ffffffffffffffffffffffffffffffffffffffff168152602001915050602060405180830381600087803b158015613e7957600080fd5b505af1158015613e8d573d6000803e3d6000fd5b505050506040513d6020811015613ea357600080fd5b81019080805190602001909291905050501515613ebf57600080fd5b600360009054906101000a900473ffffffffffffffffffffffffffffffffffffffff1673ffffffffffffffffffffffffffffffffffffffff1663933aa667600560189054906101000a90047c0100000000000000000000000000000000000000000000000000000000026040518263ffffffff167c010000000000000000000000000000000000000000000000000000000002815260040180827bffffffffffffffffffffffffffffffffffffffffffffffffffffffff19167bffffffffffffffffffffffffffffffffffffffffffffffffffffffff19168152602001915050602060405180830381600087803b158015613fb957600080fd5b505af1158015613fcd573d6000803e3d6000fd5b505050506040513d6020811015613fe357600080fd5b8101908080519060200190929190505050151561408e576040517f08c379a00000000000000000000000000000000000000000000000000000000081526004018080602001828103825260228152602001807f4275726e206d6574686f64206e6f7420737570706f7274656420627920746f6b81526020017f656e00000000000000000000000000000000000000000000000000000000000081525060400191505060405180910390fd5b600360009054906101000a900473ffffffffffffffffffffffffffffffffffffffff1673ffffffffffffffffffffffffffffffffffffffff1663933aa667600560149054906101000a90047c0100000000000000000000000000000000000000000000000000000000026040518263ffffffff167c010000000000000000000000000000000000000000000000000000000002815260040180827bffffffffffffffffffffffffffffffffffffffffffffffffffffffff19167bffffffffffffffffffffffffffffffffffffffffffffffffffffffff19168152602001915050602060405180830381600087803b15801561418857600080fd5b505af115801561419c573d6000803e3d6000fd5b505050506040513d60208110156141b257600080fd5b8101908080519060200190929190505050151561425d576040517f08c379a000000000000000000000000000000000000000000000000000000000815260040180806020018281038252602b8152602001807f53656c662d6465737472756374206d6574686f64206e6f7420737570706f727481526020017f656420627920746f6b656e00000000000000000000000000000000000000000081525060400191505060405180910390fd5b61429281600560189054906101000a90047c010000000000000000000000000000000000000000000000000000000002611a1b565b6142c781600560149054906101000a90047c0100000000000000000000000000000000000000000000000000000000026111b0565b50565b600560009054906101000a900473ffffffffffffffffffffffffffffffffffffffff1681565b600560009054906101000a900473ffffffffffffffffffffffffffffffffffffffff1673ffffffffffffffffffffffffffffffffffffffff1663facd743b336040518263ffffffff167c0100000000000000000000000000000000000000000000000000000000028152600401808273ffffffffffffffffffffffffffffffffffffffff1673ffffffffffffffffffffffffffffffffffffffff168152602001915050602060405180830381600087803b1580156143ad57600080fd5b505af11580156143c1573d6000803e3d6000fd5b505050506040513d60208110156143d757600080fd5b810190808051906020019092919050505015156143f357600080fd5b600360009054906101000a900473ffffffffffffffffffffffffffffffffffffffff1673ffffffffffffffffffffffffffffffffffffffff1663933aa667600560189054906101000a90047c0100000000000000000000000000000000000000000000000000000000026040518263ffffffff167c010000000000000000000000000000000000000000000000000000000002815260040180827bffffffffffffffffffffffffffffffffffffffffffffffffffffffff19167bffffffffffffffffffffffffffffffffffffffffffffffffffffffff19168152602001915050602060405180830381600087803b1580156144ed57600080fd5b505af1158015614501573d6000803e3d6000fd5b505050506040513d602081101561451757600080fd5b810190808051906020019092919050505015156145c2576040517f08c379a00000000000000000000000000000000000000000000000000000000081526004018080602001828103825260228152602001807f4275726e206d6574686f64206e6f7420737570706f7274656420627920746f6b81526020017f656e00000000000000000000000000000000000000000000000000000000000081525060400191505060405180910390fd5b600360009054906101000a900473ffffffffffffffffffffffffffffffffffffffff1673ffffffffffffffffffffffffffffffffffffffff1663933aa667600560149054906101000a90047c0100000000000000000000000000000000000000000000000000000000026040518263ffffffff167c010000000000000000000000000000000000000000000000000000000002815260040180827bffffffffffffffffffffffffffffffffffffffffffffffffffffffff19167bffffffffffffffffffffffffffffffffffffffffffffffffffffffff19168152602001915050602060405180830381600087803b1580156146bc57600080fd5b505af11580156146d0573d6000803e3d6000fd5b505050506040513d60208110156146e657600080fd5b81019080805190602001909291905050501515614791576040517f08c379a000000000000000000000000000000000000000000000000000000000815260040180806020018281038252602b8152602001807f53656c662d6465737472756374206d6574686f64206e6f7420737570706f727481526020017f656420627920746f6b656e00000000000000000000000000000000000000000081525060400191505060405180910390fd5b6147c681600560189054906101000a90047c010000000000000000000000000000000000000000000000000000000002611a1b565b6147fb81600560149054906101000a90047c010000000000000000000000000000000000000000000000000000000002611a1b565b50565b60006040805190810160405280600981526020017f526567756c61746f7200000000000000000000000000000000000000000000008152506040805190810160405280600381526020017f312e3000000000000000000000000000000000000000000000000000000000008152506040805190810160405280600381526020017f312e3100000000000000000000000000000000000000000000000000000000008152506148ac83836139c6565b80156148bf57506148bd83826139c6565b155b15156148ca57600080fd5b8493508373ffffffffffffffffffffffffffffffffffffffff16634e71e0c86040518163ffffffff167c0100000000000000000000000000000000000000000000000000000000028152600401600060405180830381600087803b15801561493157600080fd5b505af1158015614945573d6000803e3d6000fd5b505050508373ffffffffffffffffffffffffffffffffffffffff1663546f87786040518163ffffffff167c0100000000000000000000000000000000000000000000000000000000028152600401600060405180830381600087803b1580156149ad57600080fd5b505af11580156149c1573d6000803e3d6000fd5b50505050614a6c8473ffffffffffffffffffffffffffffffffffffffff1663b2daee5c6040518163ffffffff167c0100000000000000000000000000000000000000000000000000000000028152600401602060405180830381600087803b158015614a2c57600080fd5b505af1158015614a40573d6000803e3d6000fd5b505050506040513d6020811015614a5657600080fd5b81019080805190602001909291905050506157e1565b614b138473ffffffffffffffffffffffffffffffffffffffff1663072b05156040518163ffffffff167c0100000000000000000000000000000000000000000000000000000000028152600401602060405180830381600087803b158015614ad357600080fd5b505af1158015614ae7573d6000803e3d6000fd5b505050506040513d6020811015614afd57600080fd5b81019080805190602001909291905050506156de565b614bba8473ffffffffffffffffffffffffffffffffffffffff1663ca1e78196040518163ffffffff167c0100000000000000000000000000000000000000000000000000000000028152600401602060405180830381600087803b158015614b7a57600080fd5b505af1158015614b8e573d6000803e3d6000fd5b505050506040513d6020811015614ba457600080fd5b8101908080519060200190929190505050615ac0565b614bc26158e4565b7fdd117a11c22118c9dee4b5a67ce578bc44529dce21ee0ccc439588fbb9fb4ea38382604051808060200180602001838103835285818151815260200191508051906020019080838360005b83811015614c29578082015181840152602081019050614c0e565b50505050905090810190601f168015614c565780820380516001836020036101000a031916815260200191505b50838103825284818151815260200191508051906020019080838360005b83811015614c8f578082015181840152602081019050614c74565b50505050905090810190601f168015614cbc5780820380516001836020036101000a031916815260200191505b5094505050505060405180910390a160016002846040518082805190602001908083835b602083101515614d055780518252602082019150602081019050602083039250614ce0565b6001836020036101000a0380198251168184511680821785525050505050509050019150509081526020016040518091039020826040518082805190602001908083835b602083101515614d6e5780518252602082019150602081019050602083039250614d49565b6001836020036101000a038019825116818451168082178552505050505050905001915050908152602001604051809103902060006101000a81548160ff0219169083151502179055505050505050565b600560189054906101000a90047c01000000000000000000000000000000000000000000000000000000000281565b6000614e2582600560189054906101000a90047c01000000000000000000000000000000000000000000000000000000000261387e565b8015614e635750614e6182600560149054906101000a90047c01000000000000000000000000000000000000000000000000000000000261387e565b155b9050919050565b600160009054906101000a900473ffffffffffffffffffffffffffffffffffffffff1681565b6000809054906101000a900473ffffffffffffffffffffffffffffffffffffffff1673ffffffffffffffffffffffffffffffffffffffff163373ffffffffffffffffffffffffffffffffffffffff16141515614eeb57600080fd5b614ef481615ac0565b50565b6000809054906101000a900473ffffffffffffffffffffffffffffffffffffffff1673ffffffffffffffffffffffffffffffffffffffff163373ffffffffffffffffffffffffffffffffffffffff16141515614f5257600080fd5b80600160006101000a81548173ffffffffffffffffffffffffffffffffffffffff021916908373ffffffffffffffffffffffffffffffffffffffff16021790555050565b6000614fcd82600660009054906101000a90047c01000000000000000000000000000000000000000000000000000000000261387e565b9050919050565b600560009054906101000a900473ffffffffffffffffffffffffffffffffffffffff1673ffffffffffffffffffffffffffffffffffffffff1663facd743b336040518263ffffffff167c0100000000000000000000000000000000000000000000000000000000028152600401808273ffffffffffffffffffffffffffffffffffffffff1673ffffffffffffffffffffffffffffffffffffffff168152602001915050602060405180830381600087803b15801561509157600080fd5b505af11580156150a5573d6000803e3d6000fd5b505050506040513d60208110156150bb57600080fd5b810190808051906020019092919050505015156150d757600080fd5b600360009054906101000a900473ffffffffffffffffffffffffffffffffffffffff1673ffffffffffffffffffffffffffffffffffffffff1663933aa6676005601c9054906101000a90047c0100000000000000000000000000000000000000000000000000000000026040518263ffffffff167c010000000000000000000000000000000000000000000000000000000002815260040180827bffffffffffffffffffffffffffffffffffffffffffffffffffffffff19167bffffffffffffffffffffffffffffffffffffffffffffffffffffffff19168152602001915050602060405180830381600087803b1580156151d157600080fd5b505af11580156151e5573d6000803e3d6000fd5b505050506040513d60208110156151fb57600080fd5b81019080805190602001909291905050501515615280576040517f08c379a000000000000000000000000000000000000000000000000000000000815260040180806020018281038252601e8152602001807f4d696e74696e67206e6f7420737570706f7274656420627920746f6b656e000081525060200191505060405180910390fd5b600360009054906101000a900473ffffffffffffffffffffffffffffffffffffffff1673ffffffffffffffffffffffffffffffffffffffff1663933aa667600660089054906101000a90047c0100000000000000000000000000000000000000000000000000000000026040518263ffffffff167c010000000000000000000000000000000000000000000000000000000002815260040180827bffffffffffffffffffffffffffffffffffffffffffffffffffffffff19167bffffffffffffffffffffffffffffffffffffffffffffffffffffffff19168152602001915050602060405180830381600087803b15801561537a57600080fd5b505af115801561538e573d6000803e3d6000fd5b505050506040513d60208110156153a457600080fd5b8101908080519060200190929190505050151561544f576040517f08c379a00000000000000000000000000000000000000000000000000000000081526004018080602001828103825260268152602001807f4d696e74696e6720746f2043555344206e6f7420737570706f7274656420627981526020017f20746f6b656e000000000000000000000000000000000000000000000000000081525060400191505060405180910390fd5b600460009054906101000a900473ffffffffffffffffffffffffffffffffffffffff1673ffffffffffffffffffffffffffffffffffffffff166302abcae2826005601c9054906101000a90047c0100000000000000000000000000000000000000000000000000000000026040518363ffffffff167c0100000000000000000000000000000000000000000000000000000000028152600401808373ffffffffffffffffffffffffffffffffffffffff1673ffffffffffffffffffffffffffffffffffffffff168152602001827bffffffffffffffffffffffffffffffffffffffffffffffffffffffff19167bffffffffffffffffffffffffffffffffffffffffffffffffffffffff1916815260200192505050600060405180830381600087803b15801561557d57600080fd5b505af1158015615591573d6000803e3d6000fd5b50505050600460009054906101000a900473ffffffffffffffffffffffffffffffffffffffff1673ffffffffffffffffffffffffffffffffffffffff166302abcae282600660089054906101000a90047c0100000000000000000000000000000000000000000000000000000000026040518363ffffffff167c0100000000000000000000000000000000000000000000000000000000028152600401808373ffffffffffffffffffffffffffffffffffffffff1673ffffffffffffffffffffffffffffffffffffffff168152602001827bffffffffffffffffffffffffffffffffffffffffffffffffffffffff19167bffffffffffffffffffffffffffffffffffffffffffffffffffffffff1916815260200192505050600060405180830381600087803b1580156156c357600080fd5b505af11580156156d7573d6000803e3d6000fd5b5050505050565b6000600460009054906101000a900473ffffffffffffffffffffffffffffffffffffffff16905081600460006101000a81548173ffffffffffffffffffffffffffffffffffffffff021916908373ffffffffffffffffffffffffffffffffffffffff1602179055507fa235fc7f220d278a18cc5b5afdf77a237e23c869c620342dd27938360d051e6e8183604051808373ffffffffffffffffffffffffffffffffffffffff1673ffffffffffffffffffffffffffffffffffffffff1681526020018273ffffffffffffffffffffffffffffffffffffffff1673ffffffffffffffffffffffffffffffffffffffff1681526020019250505060405180910390a15050565b6000600360009054906101000a900473ffffffffffffffffffffffffffffffffffffffff16905081600360006101000a81548173ffffffffffffffffffffffffffffffffffffffff021916908373ffffffffffffffffffffffffffffffffffffffff1602179055507f7539cbc20455659eb1b9f83350bb91703811c01a9ca31d76b43028c6bddf51908183604051808373ffffffffffffffffffffffffffffffffffffffff1673ffffffffffffffffffffffffffffffffffffffff1681526020018273ffffffffffffffffffffffffffffffffffffffff1673ffffffffffffffffffffffffffffffffffffffff1681526020019250505060405180910390a15050565b600460009054906101000a900473ffffffffffffffffffffffffffffffffffffffff1673ffffffffffffffffffffffffffffffffffffffff16634e71e0c86040518163ffffffff167c0100000000000000000000000000000000000000000000000000000000028152600401600060405180830381600087803b15801561596a57600080fd5b505af115801561597e573d6000803e3d6000fd5b50505050600360009054906101000a900473ffffffffffffffffffffffffffffffffffffffff1673ffffffffffffffffffffffffffffffffffffffff16634e71e0c86040518163ffffffff167c0100000000000000000000000000000000000000000000000000000000028152600401600060405180830381600087803b158015615a0857600080fd5b505af1158015615a1c573d6000803e3d6000fd5b50505050600560009054906101000a900473ffffffffffffffffffffffffffffffffffffffff1673ffffffffffffffffffffffffffffffffffffffff16634e71e0c86040518163ffffffff167c0100000000000000000000000000000000000000000000000000000000028152600401600060405180830381600087803b158015615aa657600080fd5b505af1158015615aba573d6000803e3d6000fd5b50505050565b6000600560009054906101000a900473ffffffffffffffffffffffffffffffffffffffff16905081600560006101000a81548173ffffffffffffffffffffffffffffffffffffffff021916908373ffffffffffffffffffffffffffffffffffffffff1602179055507ff2fe5c6d565e5d7377b2510087e7f003413e3ea0906d4a69e12120cf6365aacf8183604051808373ffffffffffffffffffffffffffffffffffffffff1673ffffffffffffffffffffffffffffffffffffffff1681526020018273ffffffffffffffffffffffffffffffffffffffff1673ffffffffffffffffffffffffffffffffffffffff1681526020019250505060405180910390a150505600a165627a7a72305820188562793db8a705e81de72edf5036b7cd4322480f738c98c1f06844753bb7e20029",
  "source": "pragma solidity ^0.4.23;\n\nimport \"../regulator/Regulator.sol\";\n\ncontract WhitelistedTokenRegulator is Regulator {\n    /**\n    * @notice Sets the necessary permissions for a user to mint tokens. Overrides the simpler minting permissions\n    * from the basic Regulator.\n    * @param _who The address of the account that we are setting permissions for.\n    */\n    bytes4 MINT_CUSD_SIG = bytes4(keccak256(\"mint(address,uint256,bool)\"));\n\n    function setMinter(address _who) public onlyValidator {\n        require(availablePermissions.isPermission(MINT_SIG), \"Minting not supported by token\");\n        require(availablePermissions.isPermission(MINT_CUSD_SIG), \"Minting to CUSD not supported by token\");\n        userPermissions.setPermission(_who, MINT_SIG);\n        userPermissions.setPermission(_who, MINT_CUSD_SIG);\n    }\n\n    /**\n    * @dev Removes the necessary permissions for a user to mint tokens. Overrides the simpler minting permissions\n    * from the basic Regulator.\n    * @param _who The address of the account that we are removing permissions for.\n    */\n    function removeMinter(address _who) public onlyValidator {\n        require(availablePermissions.isPermission(MINT_SIG), \"Minting not supported by token\");\n        require(availablePermissions.isPermission(MINT_CUSD_SIG), \"Minting to CUSD not supported by token\");\n        userPermissions.removePermission(_who, MINT_SIG);\n        userPermissions.removePermission(_who, MINT_CUSD_SIG);\n    }\n\n    /** Returns whether or not a user is a minter.\n     * @param _who The address of the account in question.\n     * @return `true` if the user is a minter, `false` otherwise.\n     */\n    function isMinter(address _who) public view returns (bool) {\n        return hasPermission(_who, MINT_SIG);\n    }\n}",
  "sourcePath": "/Users/tanishqaggarwal/Documents/carbon/fiat_gateway/contracts/regulator/WhitelistedTokenRegulator.sol",
  "compiler": {
    "name": "solc",
    "version": "0.4.24+commit.e67f0147.Emscripten.clang"
  },
  "schemaVersion": "2.0.0",
  "updatedAt": "2018-07-17T04:37:53.778Z"
}