{
  "contractName": "WhitelistedTokenProxy",
  "abi": [
    {
      "constant": true,
      "inputs": [],
      "name": "allowances",
      "outputs": [
        {
          "name": "",
          "type": "address"
        }
      ],
      "payable": false,
      "stateMutability": "view",
      "type": "function"
    },
    {
      "constant": true,
      "inputs": [],
      "name": "cusdAddress",
      "outputs": [
        {
          "name": "",
          "type": "address"
        }
      ],
      "payable": false,
      "stateMutability": "view",
      "type": "function"
    },
    {
      "constant": false,
      "inputs": [],
      "name": "renounceOwnership",
      "outputs": [],
      "payable": false,
      "stateMutability": "nonpayable",
      "type": "function"
    },
    {
      "constant": false,
      "inputs": [
        {
          "name": "_newStorageAddress",
          "type": "address"
        }
      ],
      "name": "setBalanceStorage",
      "outputs": [],
      "payable": false,
      "stateMutability": "nonpayable",
      "type": "function"
    },
    {
      "constant": true,
      "inputs": [],
      "name": "balances",
      "outputs": [
        {
          "name": "",
          "type": "address"
        }
      ],
      "payable": false,
      "stateMutability": "view",
      "type": "function"
    },
    {
      "constant": true,
      "inputs": [],
      "name": "owner",
      "outputs": [
        {
          "name": "",
          "type": "address"
        }
      ],
      "payable": false,
      "stateMutability": "view",
      "type": "function"
    },
    {
      "constant": false,
      "inputs": [
        {
          "name": "_cusd",
          "type": "address"
        }
      ],
      "name": "setCUSDAddress",
      "outputs": [],
      "payable": false,
      "stateMutability": "nonpayable",
      "type": "function"
    },
    {
      "constant": false,
      "inputs": [
        {
          "name": "_newStorageAddress",
          "type": "address"
        }
      ],
      "name": "setAllowanceStorage",
      "outputs": [],
      "payable": false,
      "stateMutability": "nonpayable",
      "type": "function"
    },
    {
      "constant": false,
      "inputs": [
        {
          "name": "_newStorageAddress",
          "type": "address"
        }
      ],
      "name": "setRegulator",
      "outputs": [],
      "payable": false,
      "stateMutability": "nonpayable",
      "type": "function"
    },
    {
      "constant": true,
      "inputs": [],
      "name": "regulator",
      "outputs": [
        {
          "name": "",
          "type": "address"
        }
      ],
      "payable": false,
      "stateMutability": "view",
      "type": "function"
    },
    {
      "constant": false,
      "inputs": [
        {
          "name": "_newOwner",
          "type": "address"
        }
      ],
      "name": "transferOwnership",
      "outputs": [],
      "payable": false,
      "stateMutability": "nonpayable",
      "type": "function"
    },
    {
      "inputs": [
        {
          "name": "i",
          "type": "address"
        },
        {
          "name": "r",
          "type": "address"
        },
        {
          "name": "b",
          "type": "address"
        },
        {
          "name": "a",
          "type": "address"
        },
        {
          "name": "cusd",
          "type": "address"
        }
      ],
      "payable": false,
      "stateMutability": "nonpayable",
      "type": "constructor"
    },
    {
      "payable": true,
      "stateMutability": "payable",
      "type": "fallback"
    },
    {
      "anonymous": false,
      "inputs": [
        {
          "indexed": false,
          "name": "_old",
          "type": "address"
        },
        {
          "indexed": false,
          "name": "_new",
          "type": "address"
        }
      ],
      "name": "ChangedRegulator",
      "type": "event"
    },
    {
      "anonymous": false,
      "inputs": [
        {
          "indexed": false,
          "name": "_old",
          "type": "address"
        },
        {
          "indexed": false,
          "name": "_new",
          "type": "address"
        }
      ],
      "name": "ChangedBalanceStorage",
      "type": "event"
    },
    {
      "anonymous": false,
      "inputs": [
        {
          "indexed": false,
          "name": "_old",
          "type": "address"
        },
        {
          "indexed": false,
          "name": "_new",
          "type": "address"
        }
      ],
      "name": "ChangedAllowanceStorage",
      "type": "event"
    },
    {
      "anonymous": false,
      "inputs": [
        {
          "indexed": true,
          "name": "oldCUSD",
          "type": "address"
        },
        {
          "indexed": true,
          "name": "newCUSD",
          "type": "address"
        }
      ],
      "name": "CUSDAddressChanged",
      "type": "event"
    },
    {
      "anonymous": false,
      "inputs": [
        {
          "indexed": true,
          "name": "previousOwner",
          "type": "address"
        }
      ],
      "name": "OwnershipRenounced",
      "type": "event"
    },
    {
      "anonymous": false,
      "inputs": [
        {
          "indexed": true,
          "name": "previousOwner",
          "type": "address"
        },
        {
          "indexed": true,
          "name": "newOwner",
          "type": "address"
        }
      ],
      "name": "OwnershipTransferred",
      "type": "event"
    },
    {
      "anonymous": false,
      "inputs": [
        {
          "indexed": false,
          "name": "implementation",
          "type": "address"
        }
      ],
      "name": "Upgraded",
      "type": "event"
    },
    {
      "constant": false,
      "inputs": [
        {
          "name": "newImplementation",
          "type": "address"
        }
      ],
      "name": "upgradeTo",
      "outputs": [],
      "payable": false,
      "stateMutability": "nonpayable",
      "type": "function"
    },
    {
      "constant": true,
      "inputs": [],
      "name": "implementation",
      "outputs": [
        {
          "name": "",
          "type": "address"
        }
      ],
      "payable": false,
      "stateMutability": "view",
      "type": "function"
    }
  ],
  "bytecode": "0x608060405234801561001057600080fd5b5060405160a080610fd183398101604081815282516020808501518386015160608701516080909701517f6f72672e7a657070656c696e6f732e70726f78792e696d706c656d656e74617487527f696f6e000000000000000000000000000000000000000000000000000000000093870193909352935194859003602301909420919491849084908490839083908390879081908d90600080516020610fb1833981519152146100bc57fe5b6100ce81640100000000610133810204565b506000805433600160a060020a031991821617909155600180548216600160a060020a03938416179055600280548216968316969096179095556003805486169482169490941790935550600480549093169116179055506101f99650505050505050565b600061014b82640100000000610a886101f182021704565b15156101de57604080517f08c379a000000000000000000000000000000000000000000000000000000000815260206004820152603b60248201527f43616e6e6f742073657420612070726f787920696d706c656d656e746174696f60448201527f6e20746f2061206e6f6e2d636f6e747261637420616464726573730000000000606482015290519081900360840190fd5b50600080516020610fb183398151915255565b6000903b1190565b610da9806102086000396000f3006080604052600436106100c45763ffffffff7c01000000000000000000000000000000000000000000000000000000006000350416633659cfe681146100ce5780633ed10b92146100fc5780635c60da1b1461013a578063636f0cf81461014f578063715018a61461016457806373e9e0e5146101795780637bb98a68146101a75780638da5cb5b146101bc578063a00d7740146101d1578063c52dd644146101ff578063cde0a4f81461022d578063dd8fee141461025b578063f2fde38b14610270575b6100cc61029e565b005b3480156100da57600080fd5b506100cc73ffffffffffffffffffffffffffffffffffffffff600435166102b8565b34801561010857600080fd5b506101116102e8565b6040805173ffffffffffffffffffffffffffffffffffffffff9092168252519081900360200190f35b34801561014657600080fd5b50610111610304565b34801561015b57600080fd5b50610111610313565b34801561017057600080fd5b506100cc61032f565b34801561018557600080fd5b506100cc73ffffffffffffffffffffffffffffffffffffffff600435166103c0565b3480156101b357600080fd5b50610111610594565b3480156101c857600080fd5b506101116105b0565b3480156101dd57600080fd5b506100cc73ffffffffffffffffffffffffffffffffffffffff600435166105cc565b34801561020b57600080fd5b506100cc73ffffffffffffffffffffffffffffffffffffffff600435166105f9565b34801561023957600080fd5b506100cc73ffffffffffffffffffffffffffffffffffffffff600435166107cd565b34801561026757600080fd5b506101116109a1565b34801561027c57600080fd5b506100cc73ffffffffffffffffffffffffffffffffffffffff600435166109bd565b6102a66102b6565b6102b66102b16109ea565b610a0f565b565b60005473ffffffffffffffffffffffffffffffffffffffff1633146102dc57600080fd5b6102e581610a33565b50565b60045473ffffffffffffffffffffffffffffffffffffffff1681565b600061030e6109ea565b905090565b60015473ffffffffffffffffffffffffffffffffffffffff1681565b60005473ffffffffffffffffffffffffffffffffffffffff16331461035357600080fd5b6000805460405173ffffffffffffffffffffffffffffffffffffffff909116917ff8df31144d9c2f0f6b59d69b8b98abd5459d07f2742c4df920b25aae33c6482091a2600080547fffffffffffffffffffffffff0000000000000000000000000000000000000000169055565b6000805473ffffffffffffffffffffffffffffffffffffffff1633146103e557600080fd5b60035473ffffffffffffffffffffffffffffffffffffffff8381169116141561046f57604080517f08c379a000000000000000000000000000000000000000000000000000000000815260206004820152601b60248201527f4d7573742062652061206e65772062616c616e63652073686565740000000000604482015290519081900360640190fd5b61047882610a88565b151561050b57604080517f08c379a000000000000000000000000000000000000000000000000000000000815260206004820152603860248201527f43616e6e6f7420736574206120726567756c61746f722073746f72616765207460448201527f6f2061206e6f6e2d636f6e747261637420616464726573730000000000000000606482015290519081900360840190fd5b506003805473ffffffffffffffffffffffffffffffffffffffff8381167fffffffffffffffffffffffff0000000000000000000000000000000000000000831681179093556040805191909216808252602082019390935281517f8c3d37b41e983f0d5b0b91de3f9d5055c73a17beebc7adfce9b677ab7c07ad2d929181900390910190a15050565b60035473ffffffffffffffffffffffffffffffffffffffff1681565b60005473ffffffffffffffffffffffffffffffffffffffff1681565b60005473ffffffffffffffffffffffffffffffffffffffff1633146105f057600080fd5b6102e581610a90565b6000805473ffffffffffffffffffffffffffffffffffffffff16331461061e57600080fd5b60045473ffffffffffffffffffffffffffffffffffffffff838116911614156106a857604080517f08c379a000000000000000000000000000000000000000000000000000000000815260206004820152601b60248201527f4d7573742062652061206e65772073746f726167652073686565740000000000604482015290519081900360640190fd5b6106b182610a88565b151561074457604080517f08c379a000000000000000000000000000000000000000000000000000000000815260206004820152603860248201527f43616e6e6f7420736574206120726567756c61746f722073746f72616765207460448201527f6f2061206e6f6e2d636f6e747261637420616464726573730000000000000000606482015290519081900360840190fd5b506004805473ffffffffffffffffffffffffffffffffffffffff8381167fffffffffffffffffffffffff0000000000000000000000000000000000000000831681179093556040805191909216808252602082019390935281517fec358425c40511d576e1c52be7593403bceacda627234c873b52589fef7b2359929181900390910190a15050565b6000805473ffffffffffffffffffffffffffffffffffffffff1633146107f257600080fd5b60025473ffffffffffffffffffffffffffffffffffffffff8381169116141561087c57604080517f08c379a000000000000000000000000000000000000000000000000000000000815260206004820152601760248201527f4d7573742062652061206e657720726567756c61746f72000000000000000000604482015290519081900360640190fd5b61088582610a88565b151561091857604080517f08c379a000000000000000000000000000000000000000000000000000000000815260206004820152603860248201527f43616e6e6f7420736574206120726567756c61746f722073746f72616765207460448201527f6f2061206e6f6e2d636f6e747261637420616464726573730000000000000000606482015290519081900360840190fd5b506002805473ffffffffffffffffffffffffffffffffffffffff8381167fffffffffffffffffffffffff0000000000000000000000000000000000000000831681179093556040805191909216808252602082019390935281517f4a59b4b607c6055b37a4716d7813d7d4d2c288e4d0dd8298e365b260a1f262e8929181900390910190a15050565b60025473ffffffffffffffffffffffffffffffffffffffff1681565b60005473ffffffffffffffffffffffffffffffffffffffff1633146109e157600080fd5b6102e581610c0b565b7f7050c9e0f4ca769c69bd3a8ef740bc37934f8e2c036e5a723fd8ee048ed3f8c35490565b3660008037600080366000845af43d6000803e808015610a2e573d6000f35b3d6000fd5b610a3c81610cba565b6040805173ffffffffffffffffffffffffffffffffffffffff8316815290517fbc7cd75a20ee27fd9adebab32041f755214dbc6bffa90cc0225b39da2e5c2d3b9181900360200190a150565b6000903b1190565b60015460009073ffffffffffffffffffffffffffffffffffffffff83811691161415610b1d57604080517f08c379a000000000000000000000000000000000000000000000000000000000815260206004820152601a60248201527f4d7573742062652061206e657720637573642061646472657373000000000000604482015290519081900360640190fd5b610b2682610a88565b1515610b9357604080517f08c379a000000000000000000000000000000000000000000000000000000000815260206004820152601a60248201527f4d75737420626520616e2061637475616c20636f6e7472616374000000000000604482015290519081900360640190fd5b506001805473ffffffffffffffffffffffffffffffffffffffff8381167fffffffffffffffffffffffff0000000000000000000000000000000000000000831681179093556040519116919082907f0ec1b8e8ba02bcff9ae905a36374bb7e8f3bbd8ac86b05d99e881092f538a0aa90600090a35050565b73ffffffffffffffffffffffffffffffffffffffff81161515610c2d57600080fd5b6000805460405173ffffffffffffffffffffffffffffffffffffffff808516939216917f8be0079c531659141344cd1fd0a4f28419497f9722a3daafe3b4186f6b6457e091a3600080547fffffffffffffffffffffffff00000000000000000000000000000000000000001673ffffffffffffffffffffffffffffffffffffffff92909216919091179055565b6000610cc582610a88565b1515610d5857604080517f08c379a000000000000000000000000000000000000000000000000000000000815260206004820152603b60248201527f43616e6e6f742073657420612070726f787920696d706c656d656e746174696f60448201527f6e20746f2061206e6f6e2d636f6e747261637420616464726573730000000000606482015290519081900360840190fd5b507f7050c9e0f4ca769c69bd3a8ef740bc37934f8e2c036e5a723fd8ee048ed3f8c3555600a165627a7a72305820c785cb5d8dfbdfa1aeb259d239cf3462452958a0da34959ac3ab4b5ffe07fb0c00297050c9e0f4ca769c69bd3a8ef740bc37934f8e2c036e5a723fd8ee048ed3f8c3",
  "source": "pragma solidity ^0.4.24;\r\n\r\nimport \"./dataStorage/MutableWhitelistedTokenStorage.sol\";\r\nimport \"../permissionedToken/dataStorage/MutablePermissionedTokenStorage.sol\";\r\nimport \"../permissionedToken/PermissionedTokenProxy.sol\";\r\n\r\n/**\r\n* @title WhitelistedTokenProxy\r\n* @notice This contract IS a WhitelistedToken. All calls to the WhitelistedToken contract will\r\n* be routed through this proxy, since this proxy contract is the owner of the\r\n* storage contracts.\r\n*/\r\ncontract WhitelistedTokenProxy is UpgradeabilityProxy, Ownable, MutableWhitelistedTokenStorage, MutablePermissionedTokenStorage {\r\n    constructor(address i, address r, address b, address a, address cusd) \r\n    UpgradeabilityProxy(i)\r\n    MutableWhitelistedTokenStorage(cusd)\r\n    MutablePermissionedTokenStorage(r, b, a) public {}\r\n\r\n    /**\r\n    * @dev Upgrade the backing implementation of the proxy.\r\n    * Only the admin can call this function.\r\n    * @param newImplementation Address of the new implementation.\r\n    */\r\n    function upgradeTo(address newImplementation) public onlyOwner {\r\n        _upgradeTo(newImplementation);\r\n\r\n    }\r\n\r\n    /**\r\n    * @return The address of the implementation.\r\n    */\r\n    function implementation() public view returns (address) {\r\n        return _implementation();\r\n    }\r\n}",
  "sourcePath": "C:\\Users\\npain\\Projects\\Carbon\\fiat_gateway\\contracts\\tokens\\whitelistedToken\\WhitelistedTokenProxy.sol",
  "compiler": {
    "name": "solc",
    "version": "0.4.24+commit.e67f0147.Emscripten.clang"
  },
  "schemaVersion": "2.0.1",
  "updatedAt": "2018-08-17T17:08:18.253Z"
}