{
  "contractName": "WhitelistedToken",
  "abi": [
    {
      "constant": false,
      "inputs": [
        {
          "name": "_spender",
          "type": "address"
        },
        {
          "name": "_value",
          "type": "uint256"
        }
      ],
      "name": "approve",
      "outputs": [
        {
          "name": "",
          "type": "bool"
        }
      ],
      "payable": false,
      "stateMutability": "nonpayable",
      "type": "function"
    },
    {
      "constant": true,
      "inputs": [],
      "name": "totalSupply",
      "outputs": [
        {
          "name": "",
          "type": "uint256"
        }
      ],
      "payable": false,
      "stateMutability": "view",
      "type": "function"
    },
    {
      "constant": false,
      "inputs": [
        {
          "name": "_from",
          "type": "address"
        },
        {
          "name": "_to",
          "type": "address"
        },
        {
          "name": "_amount",
          "type": "uint256"
        }
      ],
      "name": "transferFrom",
      "outputs": [
        {
          "name": "",
          "type": "bool"
        }
      ],
      "payable": false,
      "stateMutability": "nonpayable",
      "type": "function"
    },
    {
      "constant": true,
      "inputs": [],
      "name": "allowances",
      "outputs": [
        {
          "name": "",
          "type": "address"
        }
      ],
      "payable": false,
      "stateMutability": "view",
      "type": "function"
    },
    {
      "constant": false,
      "inputs": [],
      "name": "unpause",
      "outputs": [],
      "payable": false,
      "stateMutability": "nonpayable",
      "type": "function"
    },
    {
      "constant": false,
      "inputs": [
        {
          "name": "_to",
          "type": "address"
        },
        {
          "name": "_amount",
          "type": "uint256"
        }
      ],
      "name": "mint",
      "outputs": [
        {
          "name": "",
          "type": "bool"
        }
      ],
      "payable": false,
      "stateMutability": "nonpayable",
      "type": "function"
    },
    {
      "constant": false,
      "inputs": [
        {
          "name": "_amount",
          "type": "uint256"
        }
      ],
      "name": "burn",
      "outputs": [],
      "payable": false,
      "stateMutability": "nonpayable",
      "type": "function"
    },
    {
      "constant": true,
      "inputs": [],
      "name": "blacklisted",
      "outputs": [
        {
          "name": "",
          "type": "bool"
        }
      ],
      "payable": false,
      "stateMutability": "view",
      "type": "function"
    },
    {
      "constant": true,
      "inputs": [],
      "name": "paused",
      "outputs": [
        {
          "name": "",
          "type": "bool"
        }
      ],
      "payable": false,
      "stateMutability": "view",
      "type": "function"
    },
    {
      "constant": true,
      "inputs": [],
      "name": "cusdAddress",
      "outputs": [
        {
          "name": "",
          "type": "address"
        }
      ],
      "payable": false,
      "stateMutability": "view",
      "type": "function"
    },
    {
      "constant": false,
      "inputs": [
        {
          "name": "_spender",
          "type": "address"
        },
        {
          "name": "_subtractedValue",
          "type": "uint256"
        }
      ],
      "name": "decreaseApproval",
      "outputs": [
        {
          "name": "",
          "type": "bool"
        }
      ],
      "payable": false,
      "stateMutability": "nonpayable",
      "type": "function"
    },
    {
      "constant": false,
      "inputs": [
        {
          "name": "_blacklistedAccount",
          "type": "address"
        }
      ],
      "name": "approveBlacklistedAddressSpender",
      "outputs": [],
      "payable": false,
      "stateMutability": "nonpayable",
      "type": "function"
    },
    {
      "constant": true,
      "inputs": [
        {
          "name": "who",
          "type": "address"
        }
      ],
      "name": "balanceOf",
      "outputs": [
        {
          "name": "",
          "type": "uint256"
        }
      ],
      "payable": false,
      "stateMutability": "view",
      "type": "function"
    },
    {
      "constant": false,
      "inputs": [],
      "name": "renounceOwnership",
      "outputs": [],
      "payable": false,
      "stateMutability": "nonpayable",
      "type": "function"
    },
    {
      "constant": false,
      "inputs": [
        {
          "name": "_newStorageAddress",
          "type": "address"
        }
      ],
      "name": "setBalanceStorage",
      "outputs": [],
      "payable": false,
      "stateMutability": "nonpayable",
      "type": "function"
    },
    {
      "constant": true,
      "inputs": [],
      "name": "balances",
      "outputs": [
        {
          "name": "",
          "type": "address"
        }
      ],
      "payable": false,
      "stateMutability": "view",
      "type": "function"
    },
    {
      "constant": false,
      "inputs": [],
      "name": "pause",
      "outputs": [],
      "payable": false,
      "stateMutability": "nonpayable",
      "type": "function"
    },
    {
      "constant": true,
      "inputs": [],
      "name": "owner",
      "outputs": [
        {
          "name": "",
          "type": "address"
        }
      ],
      "payable": false,
      "stateMutability": "view",
      "type": "function"
    },
    {
      "constant": false,
      "inputs": [
        {
          "name": "_cusd",
          "type": "address"
        }
      ],
      "name": "setCUSDAddress",
      "outputs": [],
      "payable": false,
      "stateMutability": "nonpayable",
      "type": "function"
    },
    {
      "constant": false,
      "inputs": [
        {
          "name": "_to",
          "type": "address"
        },
        {
          "name": "_amount",
          "type": "uint256"
        }
      ],
      "name": "transfer",
      "outputs": [
        {
          "name": "",
          "type": "bool"
        }
      ],
      "payable": false,
      "stateMutability": "nonpayable",
      "type": "function"
    },
    {
      "constant": false,
      "inputs": [
        {
          "name": "_newStorageAddress",
          "type": "address"
        }
      ],
      "name": "setAllowanceStorage",
      "outputs": [],
      "payable": false,
      "stateMutability": "nonpayable",
      "type": "function"
    },
    {
      "constant": false,
      "inputs": [
        {
          "name": "_who",
          "type": "address"
        },
        {
          "name": "_amount",
          "type": "uint256"
        }
      ],
      "name": "destroyBlacklistedTokens",
      "outputs": [],
      "payable": false,
      "stateMutability": "nonpayable",
      "type": "function"
    },
    {
      "constant": false,
      "inputs": [
        {
          "name": "_newStorageAddress",
          "type": "address"
        }
      ],
      "name": "setRegulator",
      "outputs": [],
      "payable": false,
      "stateMutability": "nonpayable",
      "type": "function"
    },
    {
      "constant": false,
      "inputs": [
        {
          "name": "_spender",
          "type": "address"
        },
        {
          "name": "_addedValue",
          "type": "uint256"
        }
      ],
      "name": "increaseApproval",
      "outputs": [
        {
          "name": "",
          "type": "bool"
        }
      ],
      "payable": false,
      "stateMutability": "nonpayable",
      "type": "function"
    },
    {
      "constant": true,
      "inputs": [
        {
          "name": "owner",
          "type": "address"
        },
        {
          "name": "spender",
          "type": "address"
        }
      ],
      "name": "allowance",
      "outputs": [
        {
          "name": "",
          "type": "uint256"
        }
      ],
      "payable": false,
      "stateMutability": "view",
      "type": "function"
    },
    {
      "constant": true,
      "inputs": [],
      "name": "regulator",
      "outputs": [
        {
          "name": "",
          "type": "address"
        }
      ],
      "payable": false,
      "stateMutability": "view",
      "type": "function"
    },
    {
      "constant": false,
      "inputs": [
        {
          "name": "_newOwner",
          "type": "address"
        }
      ],
      "name": "transferOwnership",
      "outputs": [],
      "payable": false,
      "stateMutability": "nonpayable",
      "type": "function"
    },
    {
      "inputs": [
        {
          "name": "r",
          "type": "address"
        },
        {
          "name": "b",
          "type": "address"
        },
        {
          "name": "a",
          "type": "address"
        },
        {
          "name": "_cusd",
          "type": "address"
        }
      ],
      "payable": false,
      "stateMutability": "nonpayable",
      "type": "constructor"
    },
    {
      "anonymous": false,
      "inputs": [
        {
          "indexed": true,
          "name": "user",
          "type": "address"
        },
        {
          "indexed": false,
          "name": "amount",
          "type": "uint256"
        }
      ],
      "name": "MintedToCUSD",
      "type": "event"
    },
    {
      "anonymous": false,
      "inputs": [
        {
          "indexed": true,
          "name": "user",
          "type": "address"
        },
        {
          "indexed": false,
          "name": "amount",
          "type": "uint256"
        }
      ],
      "name": "ConvertedToCUSD",
      "type": "event"
    },
    {
      "anonymous": false,
      "inputs": [
        {
          "indexed": true,
          "name": "account",
          "type": "address"
        },
        {
          "indexed": false,
          "name": "amount",
          "type": "uint256"
        }
      ],
      "name": "DestroyedBlacklistedTokens",
      "type": "event"
    },
    {
      "anonymous": false,
      "inputs": [
        {
          "indexed": true,
          "name": "owner",
          "type": "address"
        },
        {
          "indexed": true,
          "name": "spender",
          "type": "address"
        },
        {
          "indexed": false,
          "name": "value",
          "type": "uint256"
        }
      ],
      "name": "ApprovedBlacklistedAddressSpender",
      "type": "event"
    },
    {
      "anonymous": false,
      "inputs": [
        {
          "indexed": true,
          "name": "to",
          "type": "address"
        },
        {
          "indexed": false,
          "name": "value",
          "type": "uint256"
        }
      ],
      "name": "Mint",
      "type": "event"
    },
    {
      "anonymous": false,
      "inputs": [
        {
          "indexed": true,
          "name": "burner",
          "type": "address"
        },
        {
          "indexed": false,
          "name": "value",
          "type": "uint256"
        }
      ],
      "name": "Burn",
      "type": "event"
    },
    {
      "anonymous": false,
      "inputs": [
        {
          "indexed": true,
          "name": "from",
          "type": "address"
        },
        {
          "indexed": true,
          "name": "to",
          "type": "address"
        },
        {
          "indexed": false,
          "name": "value",
          "type": "uint256"
        }
      ],
      "name": "Transfer",
      "type": "event"
    },
    {
      "anonymous": false,
      "inputs": [
        {
          "indexed": true,
          "name": "owner",
          "type": "address"
        },
        {
          "indexed": true,
          "name": "spender",
          "type": "address"
        },
        {
          "indexed": false,
          "name": "value",
          "type": "uint256"
        }
      ],
      "name": "Approval",
      "type": "event"
    },
    {
      "anonymous": false,
      "inputs": [
        {
          "indexed": false,
          "name": "_old",
          "type": "address"
        },
        {
          "indexed": false,
          "name": "_new",
          "type": "address"
        }
      ],
      "name": "ChangedRegulator",
      "type": "event"
    },
    {
      "anonymous": false,
      "inputs": [
        {
          "indexed": false,
          "name": "_old",
          "type": "address"
        },
        {
          "indexed": false,
          "name": "_new",
          "type": "address"
        }
      ],
      "name": "ChangedBalanceStorage",
      "type": "event"
    },
    {
      "anonymous": false,
      "inputs": [
        {
          "indexed": false,
          "name": "_old",
          "type": "address"
        },
        {
          "indexed": false,
          "name": "_new",
          "type": "address"
        }
      ],
      "name": "ChangedAllowanceStorage",
      "type": "event"
    },
    {
      "anonymous": false,
      "inputs": [],
      "name": "Pause",
      "type": "event"
    },
    {
      "anonymous": false,
      "inputs": [],
      "name": "Unpause",
      "type": "event"
    },
    {
      "anonymous": false,
      "inputs": [
        {
          "indexed": true,
          "name": "oldCUSD",
          "type": "address"
        },
        {
          "indexed": true,
          "name": "newCUSD",
          "type": "address"
        }
      ],
      "name": "CUSDAddressChanged",
      "type": "event"
    },
    {
      "anonymous": false,
      "inputs": [
        {
          "indexed": true,
          "name": "previousOwner",
          "type": "address"
        }
      ],
      "name": "OwnershipRenounced",
      "type": "event"
    },
    {
      "anonymous": false,
      "inputs": [
        {
          "indexed": true,
          "name": "previousOwner",
          "type": "address"
        },
        {
          "indexed": true,
          "name": "newOwner",
          "type": "address"
        }
      ],
      "name": "OwnershipTransferred",
      "type": "event"
    },
    {
      "constant": false,
      "inputs": [
        {
          "name": "_to",
          "type": "address"
        },
        {
          "name": "_amount",
          "type": "uint256"
        }
      ],
      "name": "mintCUSD",
      "outputs": [
        {
          "name": "",
          "type": "bool"
        }
      ],
      "payable": false,
      "stateMutability": "nonpayable",
      "type": "function"
    },
    {
      "constant": false,
      "inputs": [
        {
          "name": "_amount",
          "type": "uint256"
        }
      ],
      "name": "convertWT",
      "outputs": [
        {
          "name": "",
          "type": "bool"
        }
      ],
      "payable": false,
      "stateMutability": "nonpayable",
      "type": "function"
    }
  ],
  "bytecode": "0x60806040526001805460a060020a60ff021916905534801561002057600080fd5b506040516080806142e4833981016040908152815160208301519183015160609093015160008054600160a060020a0319908116331790915560018054600160a060020a039384169083161790556002805493831693821693909317909255600380549382169383169390931790925560048054929093169116179055614238806100ac6000396000f3006080604052600436106101745763ffffffff7c0100000000000000000000000000000000000000000000000000000000600035041663095ea7b3811461017957806318160ddd146101be57806323b872dd146101e55780633c584d861461021c5780633ed10b92146102345780633f4ba83a1461027257806340c10f191461028957806342966c68146102ba5780635bae9ce9146102d25780635c975abb146102e7578063636f0cf8146102fc5780636618846314610311578063662f94c01461034257806370a0823114610370578063715018a61461039e57806373e9e0e5146103b35780637bb98a68146103e15780638456cb59146103f65780638da5cb5b1461040b57806391dc1b1d14610420578063a00d774014610451578063a9059cbb1461047f578063c52dd644146104b0578063c534ba4b146104de578063cde0a4f81461050f578063d73dd6231461053d578063dd62ed3e1461056e578063dd8fee14146105a2578063f2fde38b146105b7575b600080fd5b34801561018557600080fd5b506101aa73ffffffffffffffffffffffffffffffffffffffff600435166024356105e5565b604080519115158252519081900360200190f35b3480156101ca57600080fd5b506101d3610917565b60408051918252519081900360200190f35b3480156101f157600080fd5b506101aa73ffffffffffffffffffffffffffffffffffffffff600435811690602435166044356109b4565b34801561022857600080fd5b506101aa60043561108f565b34801561024057600080fd5b506102496112dd565b6040805173ffffffffffffffffffffffffffffffffffffffff9092168252519081900360200190f35b34801561027e57600080fd5b506102876112f9565b005b34801561029557600080fd5b506101aa73ffffffffffffffffffffffffffffffffffffffff60043516602435611399565b3480156102c657600080fd5b50610287600435611506565b3480156102de57600080fd5b506101aa611699565b3480156102f357600080fd5b506101aa6117fb565b34801561030857600080fd5b5061024961181c565b34801561031d57600080fd5b506101aa73ffffffffffffffffffffffffffffffffffffffff60043516602435611838565b34801561034e57600080fd5b5061028773ffffffffffffffffffffffffffffffffffffffff60043516611a8e565b34801561037c57600080fd5b506101d373ffffffffffffffffffffffffffffffffffffffff60043516611e37565b3480156103aa57600080fd5b50610287611ee1565b3480156103bf57600080fd5b5061028773ffffffffffffffffffffffffffffffffffffffff60043516611f72565b3480156103ed57600080fd5b50610249612146565b34801561040257600080fd5b50610287612162565b34801561041757600080fd5b50610249612218565b34801561042c57600080fd5b506101aa73ffffffffffffffffffffffffffffffffffffffff60043516602435612234565b34801561045d57600080fd5b5061028773ffffffffffffffffffffffffffffffffffffffff600435166124b3565b34801561048b57600080fd5b506101aa73ffffffffffffffffffffffffffffffffffffffff600435166024356124e0565b3480156104bc57600080fd5b5061028773ffffffffffffffffffffffffffffffffffffffff60043516612997565b3480156104ea57600080fd5b5061028773ffffffffffffffffffffffffffffffffffffffff60043516602435612b6b565b34801561051b57600080fd5b5061028773ffffffffffffffffffffffffffffffffffffffff60043516612f71565b34801561054957600080fd5b506101aa73ffffffffffffffffffffffffffffffffffffffff60043516602435613145565b34801561057a57600080fd5b506101d373ffffffffffffffffffffffffffffffffffffffff60043581169060243516613391565b3480156105ae57600080fd5b50610249613446565b3480156105c357600080fd5b5061028773ffffffffffffffffffffffffffffffffffffffff60043516613462565b600254604080517f7ccce85100000000000000000000000000000000000000000000000000000000815273ffffffffffffffffffffffffffffffffffffffff8086166004830152915160009386931691637ccce85191602480830192602092919082900301818887803b15801561065b57600080fd5b505af115801561066f573d6000803e3d6000fd5b505050506040513d602081101561068557600080fd5b5051156106f357604080517f08c379a000000000000000000000000000000000000000000000000000000000815260206004820152601c60248201527f55736572206d757374206e6f7420626520626c61636b6c697374656400000000604482015290519081900360640190fd5b600254604080517f7ccce851000000000000000000000000000000000000000000000000000000008152336004820152905173ffffffffffffffffffffffffffffffffffffffff90921691637ccce851916024808201926020929091908290030181600087803b15801561076657600080fd5b505af115801561077a573d6000803e3d6000fd5b505050506040513d602081101561079057600080fd5b5051156107fe57604080517f08c379a000000000000000000000000000000000000000000000000000000000815260206004820152601e60248201527f53656e646572206d757374206e6f7420626520626c61636b6c69737465640000604482015290519081900360640190fd5b60015474010000000000000000000000000000000000000000900460ff161561082657600080fd5b60048054604080517fda46098c000000000000000000000000000000000000000000000000000000008152339381019390935273ffffffffffffffffffffffffffffffffffffffff878116602485015260448401879052905191169163da46098c91606480830192600092919082900301818387803b1580156108a857600080fd5b505af11580156108bc573d6000803e3d6000fd5b505060408051868152905173ffffffffffffffffffffffffffffffffffffffff881693503392507f8c5be1e5ebec7d5bd14f71427d1e84f3dd0314c0f7b2291e5b200ac8c7c3b9259181900360200190a35060019392505050565b600354604080517f18160ddd000000000000000000000000000000000000000000000000000000008152905160009273ffffffffffffffffffffffffffffffffffffffff16916318160ddd91600480830192602092919082900301818787803b15801561098357600080fd5b505af1158015610997573d6000803e3d6000fd5b505050506040513d60208110156109ad57600080fd5b5051905090565b60015460009074010000000000000000000000000000000000000000900460ff16156109df57600080fd5b600254604080517f7ccce85100000000000000000000000000000000000000000000000000000000815273ffffffffffffffffffffffffffffffffffffffff808716600483015291518793879360009384939190921691637ccce85191602480830192602092919082900301818787803b158015610a5c57600080fd5b505af1158015610a70573d6000803e3d6000fd5b505050506040513d6020811015610a8657600080fd5b505115610af457604080517f08c379a000000000000000000000000000000000000000000000000000000000815260206004820152601f60248201527f526563697069656e742063616e6e6f7420626520626c61636b6c697374656400604482015290519081900360640190fd5b600254604080517f7ccce85100000000000000000000000000000000000000000000000000000000815273ffffffffffffffffffffffffffffffffffffffff878116600483015291519190921691637ccce8519160248083019260209291908290030181600087803b158015610b6957600080fd5b505af1158015610b7d573d6000803e3d6000fd5b505050506040513d6020811015610b9357600080fd5b5051600254604080517f91c4529f000000000000000000000000000000000000000000000000000000008152336004820152905192945073ffffffffffffffffffffffffffffffffffffffff909116916391c4529f916024808201926020929091908290030181600087803b158015610c0b57600080fd5b505af1158015610c1f573d6000803e3d6000fd5b505050506040513d6020811015610c3557600080fd5b50519050811580610c435750805b1515610cfc57604080517f08c379a000000000000000000000000000000000000000000000000000000000815260206004820152604c60248201527f4f726967696e2063616e6e6f7420626520626c61636b6c69737465642069662060448201527f7370656e646572206973206e6f7420616e20617070726f76656420626c61636b60648201527f6c697374207370656e6465720000000000000000000000000000000000000000608482015290519081900360a40190fd5b610d068833613391565b861115610d7457604080517f08c379a000000000000000000000000000000000000000000000000000000000815260206004820181905260248201527f6e6f7420656e6f75676820616c6c6f77616e636520746f207472616e73666572604482015290519081900360640190fd5b73ffffffffffffffffffffffffffffffffffffffff87161515610df857604080517f08c379a000000000000000000000000000000000000000000000000000000000815260206004820152601860248201527f746f20616464726573732063616e6e6f74206265203078300000000000000000604482015290519081900360640190fd5b610e0188611e37565b861115610e6f57604080517f08c379a000000000000000000000000000000000000000000000000000000000815260206004820152601e60248201527f6e6f7420656e6f7567682062616c616e636520746f207472616e736665720000604482015290519081900360640190fd5b60048054604080517f97d88cd200000000000000000000000000000000000000000000000000000000815273ffffffffffffffffffffffffffffffffffffffff8c811694820194909452336024820152604481018a9052905192909116916397d88cd29160648082019260009290919082900301818387803b158015610ef457600080fd5b505af1158015610f08573d6000803e3d6000fd5b5050600354604080517f21e5383a00000000000000000000000000000000000000000000000000000000815273ffffffffffffffffffffffffffffffffffffffff8c81166004830152602482018c905291519190921693506321e5383a9250604480830192600092919082900301818387803b158015610f8757600080fd5b505af1158015610f9b573d6000803e3d6000fd5b5050600354604080517fcf8eeb7e00000000000000000000000000000000000000000000000000000000815273ffffffffffffffffffffffffffffffffffffffff8d81166004830152602482018c9052915191909216935063cf8eeb7e9250604480830192600092919082900301818387803b15801561101a57600080fd5b505af115801561102e573d6000803e3d6000fd5b505060408051898152905173ffffffffffffffffffffffffffffffffffffffff808c1694508c1692507fddf252ad1be2c89b69c2b068fc378daa952ba7f163c4a11628f55a4df523b3ef9181900360200190a3506001979650505050505050565b600254604080517f14db6d58000000000000000000000000000000000000000000000000000000008152336004820152600080357fffffffff0000000000000000000000000000000000000000000000000000000016602483015291519192839273ffffffffffffffffffffffffffffffffffffffff909116916314db6d5891604480830192602092919082900301818787803b15801561112f57600080fd5b505af1158015611143573d6000803e3d6000fd5b505050506040513d602081101561115957600080fd5b505115156111ee57604080517f08c379a000000000000000000000000000000000000000000000000000000000815260206004820152603160248201527f5573657220646f6573206e6f742068617665207065726d697373696f6e20746f60448201527f20657865637574652066756e6374696f6e000000000000000000000000000000606482015290519081900360840190fd5b826111f833611e37565b101561128b57604080517f08c379a000000000000000000000000000000000000000000000000000000000815260206004820152602d60248201527f436f6e76657273696f6e20616d6f756e742073686f756c64206265206c65737360448201527f207468616e2062616c616e636500000000000000000000000000000000000000606482015290519081900360840190fd5b611295338461348f565b61129f33846136c2565b60408051858152905191925033917f8bd92e48ca7380f64ff4556585a7161f9f0b0f67d1bb875fc1df0ae4fe6c0ae89181900360200190a292915050565b60045473ffffffffffffffffffffffffffffffffffffffff1681565b60005473ffffffffffffffffffffffffffffffffffffffff16331461131d57600080fd5b60015474010000000000000000000000000000000000000000900460ff16151561134657600080fd5b600180547fffffffffffffffffffffff00ffffffffffffffffffffffffffffffffffffffff1690556040517f7805862f689e2f13df9f062ff482ad3ad112aca9e0847911ed832e158c525b3390600090a1565b600254604080517f14db6d58000000000000000000000000000000000000000000000000000000008152336004820152600080357fffffffff000000000000000000000000000000000000000000000000000000001660248301529151919273ffffffffffffffffffffffffffffffffffffffff16916314db6d589160448082019260209290919082900301818787803b15801561143657600080fd5b505af115801561144a573d6000803e3d6000fd5b505050506040513d602081101561146057600080fd5b505115156114f557604080517f08c379a000000000000000000000000000000000000000000000000000000000815260206004820152603160248201527f5573657220646f6573206e6f742068617665207065726d697373696f6e20746f60448201527f20657865637574652066756e6374696f6e000000000000000000000000000000606482015290519081900360840190fd5b6114ff83836138a1565b9392505050565b600254604080517f14db6d58000000000000000000000000000000000000000000000000000000008152336004820152600080357fffffffff00000000000000000000000000000000000000000000000000000000166024830152915173ffffffffffffffffffffffffffffffffffffffff909316926314db6d5892604480840193602093929083900390910190829087803b1580156115a557600080fd5b505af11580156115b9573d6000803e3d6000fd5b505050506040513d60208110156115cf57600080fd5b5051151561166457604080517f08c379a000000000000000000000000000000000000000000000000000000000815260206004820152603160248201527f5573657220646f6573206e6f742068617665207065726d697373696f6e20746f60448201527f20657865637574652066756e6374696f6e000000000000000000000000000000606482015290519081900360840190fd5b60015474010000000000000000000000000000000000000000900460ff161561168c57600080fd5b611696338261348f565b50565b600254604080517f14db6d58000000000000000000000000000000000000000000000000000000008152336004820152600080357fffffffff000000000000000000000000000000000000000000000000000000001660248301529151919273ffffffffffffffffffffffffffffffffffffffff16916314db6d589160448082019260209290919082900301818787803b15801561173657600080fd5b505af115801561174a573d6000803e3d6000fd5b505050506040513d602081101561176057600080fd5b505115156117f557604080517f08c379a000000000000000000000000000000000000000000000000000000000815260206004820152603160248201527f5573657220646f6573206e6f742068617665207065726d697373696f6e20746f60448201527f20657865637574652066756e6374696f6e000000000000000000000000000000606482015290519081900360840190fd5b50600190565b60015474010000000000000000000000000000000000000000900460ff1681565b60015473ffffffffffffffffffffffffffffffffffffffff1681565b600254604080517f7ccce85100000000000000000000000000000000000000000000000000000000815273ffffffffffffffffffffffffffffffffffffffff8086166004830152915160009386931691637ccce85191602480830192602092919082900301818887803b1580156118ae57600080fd5b505af11580156118c2573d6000803e3d6000fd5b505050506040513d60208110156118d857600080fd5b50511561194657604080517f08c379a000000000000000000000000000000000000000000000000000000000815260206004820152601c60248201527f55736572206d757374206e6f7420626520626c61636b6c697374656400000000604482015290519081900360640190fd5b600254604080517f7ccce851000000000000000000000000000000000000000000000000000000008152336004820152905173ffffffffffffffffffffffffffffffffffffffff90921691637ccce851916024808201926020929091908290030181600087803b1580156119b957600080fd5b505af11580156119cd573d6000803e3d6000fd5b505050506040513d60208110156119e357600080fd5b505115611a5157604080517f08c379a000000000000000000000000000000000000000000000000000000000815260206004820152601e60248201527f53656e646572206d757374206e6f7420626520626c61636b6c69737465640000604482015290519081900360640190fd5b60015474010000000000000000000000000000000000000000900460ff1615611a7957600080fd5b611a84848433613b72565b5060019392505050565b600254604080517f7ccce85100000000000000000000000000000000000000000000000000000000815273ffffffffffffffffffffffffffffffffffffffff8085166004830152915184939290921691637ccce851916024808201926020929091908290030181600087803b158015611b0657600080fd5b505af1158015611b1a573d6000803e3d6000fd5b505050506040513d6020811015611b3057600080fd5b50511515611b9f57604080517f08c379a000000000000000000000000000000000000000000000000000000000815260206004820152601860248201527f55736572206d75737420626520626c61636b6c69737465640000000000000000604482015290519081900360640190fd5b60015474010000000000000000000000000000000000000000900460ff1615611bc757600080fd5b600254604080517f14db6d58000000000000000000000000000000000000000000000000000000008152336004820152600080357fffffffff00000000000000000000000000000000000000000000000000000000166024830152915173ffffffffffffffffffffffffffffffffffffffff909316926314db6d5892604480840193602093929083900390910190829087803b158015611c6657600080fd5b505af1158015611c7a573d6000803e3d6000fd5b505050506040513d6020811015611c9057600080fd5b50511515611d2557604080517f08c379a000000000000000000000000000000000000000000000000000000000815260206004820152603160248201527f5573657220646f6573206e6f742068617665207065726d697373696f6e20746f60448201527f20657865637574652066756e6374696f6e000000000000000000000000000000606482015290519081900360840190fd5b60045473ffffffffffffffffffffffffffffffffffffffff1663da46098c8333611d4e82611e37565b604080517c010000000000000000000000000000000000000000000000000000000063ffffffff871602815273ffffffffffffffffffffffffffffffffffffffff948516600482015292909316602483015260448201529051606480830192600092919082900301818387803b158015611dc757600080fd5b505af1158015611ddb573d6000803e3d6000fd5b50339250505073ffffffffffffffffffffffffffffffffffffffff83167f3b1ffca3903932aa264fbb5b7b381746e2b7b61c9c5a6024bad48d23f958a6c2611e2285611e37565b60408051918252519081900360200190a35050565b600354604080517f70a0823100000000000000000000000000000000000000000000000000000000815273ffffffffffffffffffffffffffffffffffffffff8481166004830152915160009392909216916370a082319160248082019260209290919082900301818787803b158015611eaf57600080fd5b505af1158015611ec3573d6000803e3d6000fd5b505050506040513d6020811015611ed957600080fd5b505192915050565b60005473ffffffffffffffffffffffffffffffffffffffff163314611f0557600080fd5b6000805460405173ffffffffffffffffffffffffffffffffffffffff909116917ff8df31144d9c2f0f6b59d69b8b98abd5459d07f2742c4df920b25aae33c6482091a2600080547fffffffffffffffffffffffff0000000000000000000000000000000000000000169055565b6000805473ffffffffffffffffffffffffffffffffffffffff163314611f9757600080fd5b60035473ffffffffffffffffffffffffffffffffffffffff8381169116141561202157604080517f08c379a000000000000000000000000000000000000000000000000000000000815260206004820152601b60248201527f4d7573742062652061206e65772062616c616e63652073686565740000000000604482015290519081900360640190fd5b61202a82613e53565b15156120bd57604080517f08c379a000000000000000000000000000000000000000000000000000000000815260206004820152603860248201527f43616e6e6f7420736574206120726567756c61746f722073746f72616765207460448201527f6f2061206e6f6e2d636f6e747261637420616464726573730000000000000000606482015290519081900360840190fd5b506003805473ffffffffffffffffffffffffffffffffffffffff8381167fffffffffffffffffffffffff0000000000000000000000000000000000000000831681179093556040805191909216808252602082019390935281517f8c3d37b41e983f0d5b0b91de3f9d5055c73a17beebc7adfce9b677ab7c07ad2d929181900390910190a15050565b60035473ffffffffffffffffffffffffffffffffffffffff1681565b60005473ffffffffffffffffffffffffffffffffffffffff16331461218657600080fd5b60015474010000000000000000000000000000000000000000900460ff16156121ae57600080fd5b600180547fffffffffffffffffffffff00ffffffffffffffffffffffffffffffffffffffff16740100000000000000000000000000000000000000001790556040517f6985a02210a168e66602d3235cb6db0e70f92b3ba4d376a33c0f3d9434bff62590600090a1565b60005473ffffffffffffffffffffffffffffffffffffffff1681565b600254604080517f14db6d58000000000000000000000000000000000000000000000000000000008152336004820152600080357fffffffff000000000000000000000000000000000000000000000000000000001660248301529151919273ffffffffffffffffffffffffffffffffffffffff16916314db6d589160448082019260209290919082900301818787803b1580156122d157600080fd5b505af11580156122e5573d6000803e3d6000fd5b505050506040513d60208110156122fb57600080fd5b5051151561239057604080517f08c379a000000000000000000000000000000000000000000000000000000000815260206004820152603160248201527f5573657220646f6573206e6f742068617665207065726d697373696f6e20746f60448201527f20657865637574652066756e6374696f6e000000000000000000000000000000606482015290519081900360840190fd5b600254604080517fd88c271e00000000000000000000000000000000000000000000000000000000815273ffffffffffffffffffffffffffffffffffffffff808716600483015291518693929092169163d88c271e916024808201926020929091908290030181600087803b15801561240857600080fd5b505af115801561241c573d6000803e3d6000fd5b505050506040513d602081101561243257600080fd5b505115156124a157604080517f08c379a000000000000000000000000000000000000000000000000000000000815260206004820152601860248201527f55736572206d7573742062652077686974656c69737465640000000000000000604482015290519081900360640190fd5b6124ab84846136c2565b949350505050565b60005473ffffffffffffffffffffffffffffffffffffffff1633146124d757600080fd5b61169681613e5b565b600254604080517f7ccce85100000000000000000000000000000000000000000000000000000000815273ffffffffffffffffffffffffffffffffffffffff8086166004830152915160009386931691637ccce85191602480830192602092919082900301818887803b15801561255657600080fd5b505af115801561256a573d6000803e3d6000fd5b505050506040513d602081101561258057600080fd5b5051156125ee57604080517f08c379a000000000000000000000000000000000000000000000000000000000815260206004820152601f60248201527f526563697069656e742063616e6e6f7420626520626c61636b6c697374656400604482015290519081900360640190fd5b600254604080517f7ccce851000000000000000000000000000000000000000000000000000000008152336004820152905173ffffffffffffffffffffffffffffffffffffffff90921691637ccce851916024808201926020929091908290030181600087803b15801561266157600080fd5b505af1158015612675573d6000803e3d6000fd5b505050506040513d602081101561268b57600080fd5b5051156126f957604080517f08c379a000000000000000000000000000000000000000000000000000000000815260206004820152601c60248201527f53656e6465722063616e6e6f7420626520626c61636b6c697374656400000000604482015290519081900360640190fd5b60015474010000000000000000000000000000000000000000900460ff161561272157600080fd5b73ffffffffffffffffffffffffffffffffffffffff841615156127a557604080517f08c379a000000000000000000000000000000000000000000000000000000000815260206004820152601860248201527f746f20616464726573732063616e6e6f74206265203078300000000000000000604482015290519081900360640190fd5b6127ae33611e37565b83111561281c57604080517f08c379a000000000000000000000000000000000000000000000000000000000815260206004820152601e60248201527f6e6f7420656e6f7567682062616c616e636520746f207472616e736665720000604482015290519081900360640190fd5b600354604080517fcf8eeb7e00000000000000000000000000000000000000000000000000000000815233600482015260248101869052905173ffffffffffffffffffffffffffffffffffffffff9092169163cf8eeb7e9160448082019260009290919082900301818387803b15801561289557600080fd5b505af11580156128a9573d6000803e3d6000fd5b5050600354604080517f21e5383a00000000000000000000000000000000000000000000000000000000815273ffffffffffffffffffffffffffffffffffffffff89811660048301526024820189905291519190921693506321e5383a9250604480830192600092919082900301818387803b15801561292857600080fd5b505af115801561293c573d6000803e3d6000fd5b505060408051868152905173ffffffffffffffffffffffffffffffffffffffff881693503392507fddf252ad1be2c89b69c2b068fc378daa952ba7f163c4a11628f55a4df523b3ef9181900360200190a35060019392505050565b6000805473ffffffffffffffffffffffffffffffffffffffff1633146129bc57600080fd5b60045473ffffffffffffffffffffffffffffffffffffffff83811691161415612a4657604080517f08c379a000000000000000000000000000000000000000000000000000000000815260206004820152601b60248201527f4d7573742062652061206e65772073746f726167652073686565740000000000604482015290519081900360640190fd5b612a4f82613e53565b1515612ae257604080517f08c379a000000000000000000000000000000000000000000000000000000000815260206004820152603860248201527f43616e6e6f7420736574206120726567756c61746f722073746f72616765207460448201527f6f2061206e6f6e2d636f6e747261637420616464726573730000000000000000606482015290519081900360840190fd5b506004805473ffffffffffffffffffffffffffffffffffffffff8381167fffffffffffffffffffffffff0000000000000000000000000000000000000000831681179093556040805191909216808252602082019390935281517fec358425c40511d576e1c52be7593403bceacda627234c873b52589fef7b2359929181900390910190a15050565b600254604080517f7ccce85100000000000000000000000000000000000000000000000000000000815273ffffffffffffffffffffffffffffffffffffffff8086166004830152915185939290921691637ccce851916024808201926020929091908290030181600087803b158015612be357600080fd5b505af1158015612bf7573d6000803e3d6000fd5b505050506040513d6020811015612c0d57600080fd5b50511515612c7c57604080517f08c379a000000000000000000000000000000000000000000000000000000000815260206004820152601860248201527f55736572206d75737420626520626c61636b6c69737465640000000000000000604482015290519081900360640190fd5b60015474010000000000000000000000000000000000000000900460ff1615612ca457600080fd5b600254604080517f14db6d58000000000000000000000000000000000000000000000000000000008152336004820152600080357fffffffff00000000000000000000000000000000000000000000000000000000166024830152915173ffffffffffffffffffffffffffffffffffffffff909316926314db6d5892604480840193602093929083900390910190829087803b158015612d4357600080fd5b505af1158015612d57573d6000803e3d6000fd5b505050506040513d6020811015612d6d57600080fd5b50511515612e0257604080517f08c379a000000000000000000000000000000000000000000000000000000000815260206004820152603160248201527f5573657220646f6573206e6f742068617665207065726d697373696f6e20746f60448201527f20657865637574652066756e6374696f6e000000000000000000000000000000606482015290519081900360840190fd5b600354604080517fcf8eeb7e00000000000000000000000000000000000000000000000000000000815273ffffffffffffffffffffffffffffffffffffffff8681166004830152602482018690529151919092169163cf8eeb7e91604480830192600092919082900301818387803b158015612e7d57600080fd5b505af1158015612e91573d6000803e3d6000fd5b5050600354604080517f82838c7600000000000000000000000000000000000000000000000000000000815260048101879052905173ffffffffffffffffffffffffffffffffffffffff90921693506382838c76925060248082019260009290919082900301818387803b158015612f0857600080fd5b505af1158015612f1c573d6000803e3d6000fd5b505060408051858152905173ffffffffffffffffffffffffffffffffffffffff871693507fb81d1dffb753076892e04e6e1234d137b031f70d859c299876b0486e966424fd92509081900360200190a2505050565b6000805473ffffffffffffffffffffffffffffffffffffffff163314612f9657600080fd5b60025473ffffffffffffffffffffffffffffffffffffffff8381169116141561302057604080517f08c379a000000000000000000000000000000000000000000000000000000000815260206004820152601760248201527f4d7573742062652061206e657720726567756c61746f72000000000000000000604482015290519081900360640190fd5b61302982613e53565b15156130bc57604080517f08c379a000000000000000000000000000000000000000000000000000000000815260206004820152603860248201527f43616e6e6f7420736574206120726567756c61746f722073746f72616765207460448201527f6f2061206e6f6e2d636f6e747261637420616464726573730000000000000000606482015290519081900360840190fd5b506002805473ffffffffffffffffffffffffffffffffffffffff8381167fffffffffffffffffffffffff0000000000000000000000000000000000000000831681179093556040805191909216808252602082019390935281517f4a59b4b607c6055b37a4716d7813d7d4d2c288e4d0dd8298e365b260a1f262e8929181900390910190a15050565b600254604080517f7ccce85100000000000000000000000000000000000000000000000000000000815273ffffffffffffffffffffffffffffffffffffffff8086166004830152915160009386931691637ccce85191602480830192602092919082900301818887803b1580156131bb57600080fd5b505af11580156131cf573d6000803e3d6000fd5b505050506040513d60208110156131e557600080fd5b50511561325357604080517f08c379a000000000000000000000000000000000000000000000000000000000815260206004820152601c60248201527f55736572206d757374206e6f7420626520626c61636b6c697374656400000000604482015290519081900360640190fd5b600254604080517f7ccce851000000000000000000000000000000000000000000000000000000008152336004820152905173ffffffffffffffffffffffffffffffffffffffff90921691637ccce851916024808201926020929091908290030181600087803b1580156132c657600080fd5b505af11580156132da573d6000803e3d6000fd5b505050506040513d60208110156132f057600080fd5b50511561335e57604080517f08c379a000000000000000000000000000000000000000000000000000000000815260206004820152601e60248201527f53656e646572206d757374206e6f7420626520626c61636b6c69737465640000604482015290519081900360640190fd5b60015474010000000000000000000000000000000000000000900460ff161561338657600080fd5b611a84848433613fd6565b60048054604080517f1a46ec8200000000000000000000000000000000000000000000000000000000815273ffffffffffffffffffffffffffffffffffffffff868116948201949094528484166024820152905160009390921691631a46ec829160448082019260209290919082900301818787803b15801561341357600080fd5b505af1158015613427573d6000803e3d6000fd5b505050506040513d602081101561343d57600080fd5b50519392505050565b60025473ffffffffffffffffffffffffffffffffffffffff1681565b60005473ffffffffffffffffffffffffffffffffffffffff16331461348657600080fd5b6116968161415d565b61349882611e37565b81111561350657604080517f08c379a000000000000000000000000000000000000000000000000000000000815260206004820152601a60248201527f6e6f7420656e6f7567682062616c616e636520746f206275726e000000000000604482015290519081900360640190fd5b600354604080517fcf8eeb7e00000000000000000000000000000000000000000000000000000000815273ffffffffffffffffffffffffffffffffffffffff8581166004830152602482018590529151919092169163cf8eeb7e91604480830192600092919082900301818387803b15801561358157600080fd5b505af1158015613595573d6000803e3d6000fd5b5050600354604080517f82838c7600000000000000000000000000000000000000000000000000000000815260048101869052905173ffffffffffffffffffffffffffffffffffffffff90921693506382838c76925060248082019260009290919082900301818387803b15801561360c57600080fd5b505af1158015613620573d6000803e3d6000fd5b505060408051848152905173ffffffffffffffffffffffffffffffffffffffff861693507fcc16f5dbb4873280815c1ee09dbd06736cffcc184412cf7a71a0fdb75d397ca592509081900360200190a260408051828152905160009173ffffffffffffffffffffffffffffffffffffffff8516917fddf252ad1be2c89b69c2b068fc378daa952ba7f163c4a11628f55a4df523b3ef9181900360200190a35050565b600154600090819073ffffffffffffffffffffffffffffffffffffffff8581169116141561377757604080517f08c379a000000000000000000000000000000000000000000000000000000000815260206004820152602160248201527f43616e6e6f74206d696e7420746f20436172626f6e55534420636f6e7472616360448201527f7400000000000000000000000000000000000000000000000000000000000000606482015290519081900360840190fd5b600154604080517f40c10f1900000000000000000000000000000000000000000000000000000000815273ffffffffffffffffffffffffffffffffffffffff878116600483015260248201879052915191909216916340c10f199160448083019260209291908290030181600087803b1580156137f357600080fd5b505af1158015613807573d6000803e3d6000fd5b505050506040513d602081101561381d57600080fd5b5051905080801561384c575060015461384c9073ffffffffffffffffffffffffffffffffffffffff16846138a1565b60408051858152905191925073ffffffffffffffffffffffffffffffffffffffff8616917f0aa3eb15142a2b8e4c65e571df7bdd989b9f56c6034258ede1c26c1f89d6e3c29181900360200190a29392505050565b600254604080517fd88c271e00000000000000000000000000000000000000000000000000000000815273ffffffffffffffffffffffffffffffffffffffff808616600483015291516000938693169163d88c271e91602480830192602092919082900301818887803b15801561391757600080fd5b505af115801561392b573d6000803e3d6000fd5b505050506040513d602081101561394157600080fd5b505115156139b057604080517f08c379a000000000000000000000000000000000000000000000000000000000815260206004820152601860248201527f55736572206d7573742062652077686974656c69737465640000000000000000604482015290519081900360640190fd5b600354604080517fe468688e00000000000000000000000000000000000000000000000000000000815260048101869052905173ffffffffffffffffffffffffffffffffffffffff9092169163e468688e9160248082019260009290919082900301818387803b158015613a2357600080fd5b505af1158015613a37573d6000803e3d6000fd5b5050600354604080517f21e5383a00000000000000000000000000000000000000000000000000000000815273ffffffffffffffffffffffffffffffffffffffff89811660048301526024820189905291519190921693506321e5383a9250604480830192600092919082900301818387803b158015613ab657600080fd5b505af1158015613aca573d6000803e3d6000fd5b505060408051868152905173ffffffffffffffffffffffffffffffffffffffff881693507f0f6798a560793a54c3bcfe86a93cde1e73087d944c0ea20544137d412139688592509081900360200190a260408051848152905173ffffffffffffffffffffffffffffffffffffffff8616916000917fddf252ad1be2c89b69c2b068fc378daa952ba7f163c4a11628f55a4df523b3ef9181900360200190a35060019392505050565b60048054604080517f1a46ec8200000000000000000000000000000000000000000000000000000000815273ffffffffffffffffffffffffffffffffffffffff858116948201949094528684166024820152905160009390921691631a46ec829160448082019260209290919082900301818787803b158015613bf457600080fd5b505af1158015613c08573d6000803e3d6000fd5b505050506040513d6020811015613c1e57600080fd5b5051905080831115613ccc5760048054604080517fda46098c00000000000000000000000000000000000000000000000000000000815273ffffffffffffffffffffffffffffffffffffffff8681169482019490945287841660248201526000604482018190529151939092169263da46098c92606480820193929182900301818387803b158015613caf57600080fd5b505af1158015613cc3573d6000803e3d6000fd5b50505050613d6c565b60048054604080517f97d88cd200000000000000000000000000000000000000000000000000000000815273ffffffffffffffffffffffffffffffffffffffff86811694820194909452878416602482015260448101879052905192909116916397d88cd29160648082019260009290919082900301818387803b158015613d5357600080fd5b505af1158015613d67573d6000803e3d6000fd5b505050505b60048054604080517f1a46ec8200000000000000000000000000000000000000000000000000000000815273ffffffffffffffffffffffffffffffffffffffff8681169482018590528089166024830181905292519294937f8c5be1e5ebec7d5bd14f71427d1e84f3dd0314c0f7b2291e5b200ac8c7c3b92593911691631a46ec829160448083019260209291908290030181600087803b158015613e1057600080fd5b505af1158015613e24573d6000803e3d6000fd5b505050506040513d6020811015613e3a57600080fd5b505160408051918252519081900360200190a350505050565b6000903b1190565b60015460009073ffffffffffffffffffffffffffffffffffffffff83811691161415613ee857604080517f08c379a000000000000000000000000000000000000000000000000000000000815260206004820152601a60248201527f4d7573742062652061206e657720637573642061646472657373000000000000604482015290519081900360640190fd5b613ef182613e53565b1515613f5e57604080517f08c379a000000000000000000000000000000000000000000000000000000000815260206004820152601a60248201527f4d75737420626520616e2061637475616c20636f6e7472616374000000000000604482015290519081900360640190fd5b506001805473ffffffffffffffffffffffffffffffffffffffff8381167fffffffffffffffffffffffff0000000000000000000000000000000000000000831681179093556040519116919082907f0ec1b8e8ba02bcff9ae905a36374bb7e8f3bbd8ac86b05d99e881092f538a0aa90600090a35050565b60048054604080517f5fd72d1600000000000000000000000000000000000000000000000000000000815273ffffffffffffffffffffffffffffffffffffffff8581169482019490945286841660248201526044810186905290519290911691635fd72d169160648082019260009290919082900301818387803b15801561405d57600080fd5b505af1158015614071573d6000803e3d6000fd5b505060048054604080517f1a46ec8200000000000000000000000000000000000000000000000000000000815273ffffffffffffffffffffffffffffffffffffffff8781169482018590528981166024830181905292519296509394507f8c5be1e5ebec7d5bd14f71427d1e84f3dd0314c0f7b2291e5b200ac8c7c3b9259390921691631a46ec829160448083019260209291908290030181600087803b15801561411b57600080fd5b505af115801561412f573d6000803e3d6000fd5b505050506040513d602081101561414557600080fd5b505160408051918252519081900360200190a3505050565b73ffffffffffffffffffffffffffffffffffffffff8116151561417f57600080fd5b6000805460405173ffffffffffffffffffffffffffffffffffffffff808516939216917f8be0079c531659141344cd1fd0a4f28419497f9722a3daafe3b4186f6b6457e091a3600080547fffffffffffffffffffffffff00000000000000000000000000000000000000001673ffffffffffffffffffffffffffffffffffffffff929092169190911790555600a165627a7a72305820f1117ee3d114b4299f697c8995b857f44481b4608bbdda6e8a9d597c24f76e670029",
  "source": "pragma solidity ^0.4.24;\n\nimport \"../permissionedToken/PermissionedToken.sol\";\nimport \"../carbonToken/CarbonDollar.sol\";\nimport \"./dataStorage/MutableWhitelistedTokenStorage.sol\";\n\n// A whitelisted token can be converted into a CUSD and vice versa\ncontract WhitelistedToken is MutableWhitelistedTokenStorage, PermissionedToken {\n\n    /**\n        Events\n     */\n    event MintedToCUSD(address indexed user, uint256 amount);\n    event ConvertedToCUSD(address indexed user, uint256 amount);\n\n    /**\n    * @notice Constructor sets the regulator proxy contract and the address of the\n    * CarbonUSD contract. The latter is necessary in order to make transactions\n    * with the CarbonDollar smart contract.\n    * @param a Address of allowance sheet. Passed to base constructor.\n    * @param b Address of balance sheet. Passed to base constructor.\n    * @param _cusd Address of `CarbonDollar` contract\n    */\n    constructor(address r, address b, address a, address _cusd) \n    PermissionedToken(r,b,a)\n    MutableWhitelistedTokenStorage(_cusd) public {}\n\n    /**\n    * @notice Mints CarbonUSD for the user. Stores the WT0 that backs the CarbonUSD\n    * into the CarbonUSD contract's escrow account.\n    * @param _to The address of the receiver\n    * @param _amount The number of tokens to withdraw\n    * @return `true` if successful and `false` if unsuccessful\n    */\n    function mintCUSD(address _to, uint256 _amount) public requiresPermission userWhitelisted(_to) returns (bool) {\n        return _mintCUSD(_to, _amount);\n    }\n\n    function _mintCUSD(address _to, uint256 _amount) internal returns (bool) {\n        require(_to != cusdAddress, \"Cannot mint to CarbonUSD contract\"); // This is to prevent Carbon Labs from printing money out of thin air!\n        bool successful = CarbonDollar(cusdAddress).mint(_to, _amount);\n        successful = successful && _mint(cusdAddress, _amount);\n        emit MintedToCUSD(_to, _amount);\n        return successful;\n    }\n\n    /**\n    * @notice Converts WT0 to CarbonUSD for the user. Stores the WT0 that backs the CarbonUSD\n    * into the CarbonUSD contract's escrow account.\n    * @param _amount The number of tokens to withdraw\n    * @return `true` if successful and `false` if unsuccessful\n    */\n    function convertWT(uint256 _amount) public requiresPermission returns (bool) {\n        require(balanceOf(msg.sender) >= _amount, \"Conversion amount should be less than balance\");\n        _burn(msg.sender, _amount);\n        bool mintSuccessful = _mintCUSD(msg.sender, _amount);\n        emit ConvertedToCUSD(msg.sender, _amount);\n        return mintSuccessful;\n    }\n}",
  "sourcePath": "/Users/tanishqaggarwal/Documents/carbon/fiat_gateway/contracts/tokens/whitelistedToken/WhitelistedToken.sol",
  "compiler": {
    "name": "solc",
    "version": "0.4.24+commit.e67f0147.Emscripten.clang"
  },
  "schemaVersion": "2.0.1",
  "updatedAt": "2018-08-13T20:26:47.206Z"
}