{
  "contractName": "WhitelistedTokenStorage",
  "abi": [
    {
      "constant": true,
      "inputs": [],
      "name": "cusdAddress",
      "outputs": [
        {
          "name": "",
          "type": "address"
        }
      ],
      "payable": false,
      "stateMutability": "view",
      "type": "function"
    },
    {
      "inputs": [
        {
          "name": "_cusdAddress",
          "type": "address"
        }
      ],
      "payable": false,
      "stateMutability": "nonpayable",
      "type": "constructor"
    }
  ],
  "bytecode": "0x608060405234801561001057600080fd5b50604051602080610117833981016040525160008054600160a060020a03909216600160a060020a031990921691909117905560c6806100516000396000f300608060405260043610603e5763ffffffff7c0100000000000000000000000000000000000000000000000000000000600035041663636f0cf881146043575b600080fd5b348015604e57600080fd5b506055607e565b6040805173ffffffffffffffffffffffffffffffffffffffff9092168252519081900360200190f35b60005473ffffffffffffffffffffffffffffffffffffffff16815600a165627a7a723058200aef1c7aa0da425a9943c469dcf1908f4b79f8ca25a586c4c53d31350e7fe1750029",
  "source": "pragma solidity ^0.4.24;\n\n/**\n* @title WhitelistedTokenStorage\n* @notice Contains necessary storage contracts for WhitelistedToken.\n*/\ncontract WhitelistedTokenStorage{\n    /**\n        Storage\n    */\n    address public cusdAddress;\n\n    /**\n    * @dev a WhitelistedTokenStorage can set its storages only once, on construction\n    *\n    **/\n    constructor (address _cusdAddress) public {\n        cusdAddress = _cusdAddress;\n    }\n}",
  "sourcePath": "/Users/tanishqaggarwal/Documents/carbon/fiat_gateway/contracts/tokens/whitelistedToken/dataStorage/WhitelistedTokenStorage.sol",
  "compiler": {
    "name": "solc",
    "version": "0.4.24+commit.e67f0147.Emscripten.clang"
  },
  "schemaVersion": "2.0.1",
  "updatedAt": "2018-08-13T20:26:34.645Z"
}