{
  "contractName": "WhitelistedTokenProxyFactory",
  "abi": [
    {
      "constant": true,
      "inputs": [
        {
          "name": "",
          "type": "uint256"
        }
      ],
      "name": "tokens",
      "outputs": [
        {
          "name": "",
          "type": "address"
        }
      ],
      "payable": false,
      "stateMutability": "view",
      "type": "function"
    },
    {
      "anonymous": false,
      "inputs": [
        {
          "indexed": false,
          "name": "newToken",
          "type": "address"
        },
        {
          "indexed": false,
          "name": "index",
          "type": "uint256"
        }
      ],
      "name": "CreatedWhitelistedTokenProxy",
      "type": "event"
    },
    {
      "constant": true,
      "inputs": [],
      "name": "getCount",
      "outputs": [
        {
          "name": "",
          "type": "uint256"
        }
      ],
      "payable": false,
      "stateMutability": "view",
      "type": "function"
    },
    {
      "constant": true,
      "inputs": [
        {
          "name": "i",
          "type": "uint256"
        }
      ],
      "name": "getToken",
      "outputs": [
        {
          "name": "",
          "type": "address"
        }
      ],
      "payable": false,
      "stateMutability": "view",
      "type": "function"
    },
    {
      "constant": false,
      "inputs": [
        {
          "name": "tokenImplementation",
          "type": "address"
        },
        {
          "name": "cusdAddress",
          "type": "address"
        },
        {
          "name": "regulator",
          "type": "address"
        }
      ],
      "name": "createToken",
      "outputs": [],
      "payable": false,
      "stateMutability": "nonpayable",
      "type": "function"
    }
  ],
  "bytecode": "0x608060405234801561001057600080fd5b50612410806100206000396000f3006080604052600436106100615763ffffffff7c01000000000000000000000000000000000000000000000000000000006000350416632e5ac9b181146100665780634f64b2be146100a2578063a87d942c146100e3578063e4b50cb81461010a575b600080fd5b34801561007257600080fd5b506100a073ffffffffffffffffffffffffffffffffffffffff60043581169060243581169060443516610122565b005b3480156100ae57600080fd5b506100ba60043561049d565b6040805173ffffffffffffffffffffffffffffffffffffffff9092168252519081900360200190f35b3480156100ef57600080fd5b506100f86104d2565b60408051918252519081900360200190f35b34801561011657600080fd5b506100ba6004356104d8565b600080600061012f61058e565b604051809103906000f08015801561014b573d6000803e3d6000fd5b50925061015661059e565b604051809103906000f080158015610172573d6000803e3d6000fd5b50915085848484886101826105ae565b73ffffffffffffffffffffffffffffffffffffffff9586168152938516602085015291841660408085019190915290841660608401529216608082015290519081900360a001906000f0801580156101de573d6000803e3d6000fd5b5090508273ffffffffffffffffffffffffffffffffffffffff1663f2fde38b826040518263ffffffff167c0100000000000000000000000000000000000000000000000000000000028152600401808273ffffffffffffffffffffffffffffffffffffffff1673ffffffffffffffffffffffffffffffffffffffff168152602001915050600060405180830381600087803b15801561027c57600080fd5b505af1158015610290573d6000803e3d6000fd5b505050508173ffffffffffffffffffffffffffffffffffffffff1663f2fde38b826040518263ffffffff167c0100000000000000000000000000000000000000000000000000000000028152600401808273ffffffffffffffffffffffffffffffffffffffff1673ffffffffffffffffffffffffffffffffffffffff168152602001915050600060405180830381600087803b15801561032f57600080fd5b505af1158015610343573d6000803e3d6000fd5b5050604080517ff2fde38b000000000000000000000000000000000000000000000000000000008152336004820152905173ffffffffffffffffffffffffffffffffffffffff8516935063f2fde38b9250602480830192600092919082900301818387803b1580156103b457600080fd5b505af11580156103c8573d6000803e3d6000fd5b505060008054600180820183559180527f290decd9548b62a8d60345a988386fc84ba6bc95484008f6362f93160ef3e5630180547fffffffffffffffffffffffff00000000000000000000000000000000000000001673ffffffffffffffffffffffffffffffffffffffff86161790557fe5e0e1013143e46398c59d31694b1b718affcbb7e67ca6d73ce9af5d3b2d7b2b92508391506104666104d2565b6040805173ffffffffffffffffffffffffffffffffffffffff909416845291900360208301528051918290030190a1505050505050565b60008054829081106104ab57fe5b60009182526020909120015473ffffffffffffffffffffffffffffffffffffffff16905081565b60005490565b60008054821080156104eb575060008210155b151561055857604080517f08c379a000000000000000000000000000000000000000000000000000000000815260206004820152600d60248201527f496e76616c696420696e64657800000000000000000000000000000000000000604482015290519081900360640190fd5b600080548390811061056657fe5b60009182526020909120015473ffffffffffffffffffffffffffffffffffffffff1692915050565b6040516106ed806105bf83390190565b60405161061f80610cac83390190565b60405161111a806112cb833901905600608060405260008054600160a060020a031916331790556106c8806100256000396000f3006080604052600436106100c45763ffffffff7c010000000000000000000000000000000000000000000000000000000060003504166318160ddd81146100c957806321e5383a146100f05780634e71e0c81461012357806370a0823114610138578063715018a61461016657806382838c761461017b5780638da5cb5b14610193578063cf8eeb7e146101d1578063e30443bc14610202578063e30c397814610233578063e468688e14610248578063f2fde38b14610260578063f7ea7a3d1461028e575b600080fd5b3480156100d557600080fd5b506100de6102a6565b60408051918252519081900360200190f35b3480156100fc57600080fd5b5061012173ffffffffffffffffffffffffffffffffffffffff600435166024356102ac565b005b34801561012f57600080fd5b50610121610333565b34801561014457600080fd5b506100de73ffffffffffffffffffffffffffffffffffffffff600435166103ed565b34801561017257600080fd5b506101216103ff565b34801561018757600080fd5b50610121600435610490565b34801561019f57600080fd5b506101a86104cd565b6040805173ffffffffffffffffffffffffffffffffffffffff9092168252519081900360200190f35b3480156101dd57600080fd5b5061012173ffffffffffffffffffffffffffffffffffffffff600435166024356104e9565b34801561020e57600080fd5b5061012173ffffffffffffffffffffffffffffffffffffffff60043516602435610543565b34801561023f57600080fd5b506101a8610590565b34801561025457600080fd5b506101216004356105ac565b34801561026c57600080fd5b5061012173ffffffffffffffffffffffffffffffffffffffff600435166105e3565b34801561029a57600080fd5b5061012160043561064e565b60035481565b60005473ffffffffffffffffffffffffffffffffffffffff1633146102d057600080fd5b73ffffffffffffffffffffffffffffffffffffffff8216600090815260026020526040902054610306908263ffffffff61067716565b73ffffffffffffffffffffffffffffffffffffffff90921660009081526002602052604090209190915550565b60015473ffffffffffffffffffffffffffffffffffffffff16331461035757600080fd5b6001546000805460405173ffffffffffffffffffffffffffffffffffffffff93841693909116917f8be0079c531659141344cd1fd0a4f28419497f9722a3daafe3b4186f6b6457e091a360018054600080547fffffffffffffffffffffffff000000000000000000000000000000000000000090811673ffffffffffffffffffffffffffffffffffffffff841617909155169055565b60026020526000908152604090205481565b60005473ffffffffffffffffffffffffffffffffffffffff16331461042357600080fd5b6000805460405173ffffffffffffffffffffffffffffffffffffffff909116917ff8df31144d9c2f0f6b59d69b8b98abd5459d07f2742c4df920b25aae33c6482091a2600080547fffffffffffffffffffffffff0000000000000000000000000000000000000000169055565b60005473ffffffffffffffffffffffffffffffffffffffff1633146104b457600080fd5b6003546104c7908263ffffffff61068a16565b60035550565b60005473ffffffffffffffffffffffffffffffffffffffff1681565b60005473ffffffffffffffffffffffffffffffffffffffff16331461050d57600080fd5b73ffffffffffffffffffffffffffffffffffffffff8216600090815260026020526040902054610306908263ffffffff61068a16565b60005473ffffffffffffffffffffffffffffffffffffffff16331461056757600080fd5b73ffffffffffffffffffffffffffffffffffffffff909116600090815260026020526040902055565b60015473ffffffffffffffffffffffffffffffffffffffff1681565b60005473ffffffffffffffffffffffffffffffffffffffff1633146105d057600080fd5b6003546104c7908263ffffffff61067716565b60005473ffffffffffffffffffffffffffffffffffffffff16331461060757600080fd5b600180547fffffffffffffffffffffffff00000000000000000000000000000000000000001673ffffffffffffffffffffffffffffffffffffffff92909216919091179055565b60005473ffffffffffffffffffffffffffffffffffffffff16331461067257600080fd5b600355565b8181018281101561068457fe5b92915050565b60008282111561069657fe5b509003905600a165627a7a723058209426310e83980701bcff56957d0d6a5f521d596ec78e233650ccf34922ef8f6f0029608060405260008054600160a060020a031916331790556105fa806100256000396000f3006080604052600436106100985763ffffffff7c01000000000000000000000000000000000000000000000000000000006000350416631a46ec82811461009d5780634e71e0c8146100e35780635fd72d16146100fa578063715018a6146101315780638da5cb5b1461014657806397d88cd214610184578063da46098c146101bb578063e30c3978146101f2578063f2fde38b14610207575b600080fd5b3480156100a957600080fd5b506100d173ffffffffffffffffffffffffffffffffffffffff60043581169060243516610235565b60408051918252519081900360200190f35b3480156100ef57600080fd5b506100f8610252565b005b34801561010657600080fd5b506100f873ffffffffffffffffffffffffffffffffffffffff6004358116906024351660443561030c565b34801561013d57600080fd5b506100f86103b1565b34801561015257600080fd5b5061015b610442565b6040805173ffffffffffffffffffffffffffffffffffffffff9092168252519081900360200190f35b34801561019057600080fd5b506100f873ffffffffffffffffffffffffffffffffffffffff6004358116906024351660443561045e565b3480156101c757600080fd5b506100f873ffffffffffffffffffffffffffffffffffffffff600435811690602435166044356104c5565b3480156101fe57600080fd5b5061015b610522565b34801561021357600080fd5b506100f873ffffffffffffffffffffffffffffffffffffffff6004351661053e565b600260209081526000928352604080842090915290825290205481565b60015473ffffffffffffffffffffffffffffffffffffffff16331461027657600080fd5b6001546000805460405173ffffffffffffffffffffffffffffffffffffffff93841693909116917f8be0079c531659141344cd1fd0a4f28419497f9722a3daafe3b4186f6b6457e091a360018054600080547fffffffffffffffffffffffff000000000000000000000000000000000000000090811673ffffffffffffffffffffffffffffffffffffffff841617909155169055565b60005473ffffffffffffffffffffffffffffffffffffffff16331461033057600080fd5b73ffffffffffffffffffffffffffffffffffffffff808416600090815260026020908152604080832093861683529290522054610373908263ffffffff6105a916565b73ffffffffffffffffffffffffffffffffffffffff938416600090815260026020908152604080832095909616825293909352929091209190915550565b60005473ffffffffffffffffffffffffffffffffffffffff1633146103d557600080fd5b6000805460405173ffffffffffffffffffffffffffffffffffffffff909116917ff8df31144d9c2f0f6b59d69b8b98abd5459d07f2742c4df920b25aae33c6482091a2600080547fffffffffffffffffffffffff0000000000000000000000000000000000000000169055565b60005473ffffffffffffffffffffffffffffffffffffffff1681565b60005473ffffffffffffffffffffffffffffffffffffffff16331461048257600080fd5b73ffffffffffffffffffffffffffffffffffffffff808416600090815260026020908152604080832093861683529290522054610373908263ffffffff6105bc16565b60005473ffffffffffffffffffffffffffffffffffffffff1633146104e957600080fd5b73ffffffffffffffffffffffffffffffffffffffff92831660009081526002602090815260408083209490951682529290925291902055565b60015473ffffffffffffffffffffffffffffffffffffffff1681565b60005473ffffffffffffffffffffffffffffffffffffffff16331461056257600080fd5b600180547fffffffffffffffffffffffff00000000000000000000000000000000000000001673ffffffffffffffffffffffffffffffffffffffff92909216919091179055565b818101828110156105b657fe5b92915050565b6000828211156105c857fe5b509003905600a165627a7a72305820afc4b0cd8a65c70c62d8d121bd083a1769aa98634369f1eb0ac298dc9cb073260029608060405234801561001057600080fd5b5060405160a08061111a83398101604081815282516020808501518386015160608701516080909701517f6f72672e7a657070656c696e6f732e70726f78792e696d706c656d656e74617487527f696f6e000000000000000000000000000000000000000000000000000000000093870193909352935194859003602301909420919491849084908490839083908390879081908d906000805160206110fa833981519152146100bc57fe5b6100ce81640100000000610133810204565b506000805433600160a060020a031991821617909155600180548216600160a060020a03938416179055600280548216968316969096179095556003805486169482169490941790935550600480549093169116179055506101f99650505050505050565b600061014b82640100000000610bd16101f182021704565b15156101de57604080517f08c379a000000000000000000000000000000000000000000000000000000000815260206004820152603b60248201527f43616e6e6f742073657420612070726f787920696d706c656d656e746174696f60448201527f6e20746f2061206e6f6e2d636f6e747261637420616464726573730000000000606482015290519081900360840190fd5b506000805160206110fa83398151915255565b6000903b1190565b610ef2806102086000396000f3006080604052600436106100da5763ffffffff7c01000000000000000000000000000000000000000000000000000000006000350416633659cfe681146100e45780633ed10b92146101125780635c60da1b14610150578063636f0cf814610165578063715018a61461017a57806373e9e0e51461018f5780637bb98a68146101bd5780638955ed7e146101d25780638da5cb5b146101e75780639b2bdc20146101fc578063a00d774014610211578063c52dd6441461023f578063cde0a4f81461026d578063dd8fee141461029b578063f2fde38b146102b0575b6100e26102de565b005b3480156100f057600080fd5b506100e273ffffffffffffffffffffffffffffffffffffffff600435166102f8565b34801561011e57600080fd5b50610127610328565b6040805173ffffffffffffffffffffffffffffffffffffffff9092168252519081900360200190f35b34801561015c57600080fd5b50610127610344565b34801561017157600080fd5b50610127610353565b34801561018657600080fd5b506100e261036f565b34801561019b57600080fd5b506100e273ffffffffffffffffffffffffffffffffffffffff60043516610400565b3480156101c957600080fd5b506101276105d4565b3480156101de57600080fd5b506100e26105f0565b3480156101f357600080fd5b50610127610690565b34801561020857600080fd5b506100e26106ac565b34801561021d57600080fd5b506100e273ffffffffffffffffffffffffffffffffffffffff60043516610715565b34801561024b57600080fd5b506100e273ffffffffffffffffffffffffffffffffffffffff60043516610742565b34801561027957600080fd5b506100e273ffffffffffffffffffffffffffffffffffffffff60043516610916565b3480156102a757600080fd5b50610127610aea565b3480156102bc57600080fd5b506100e273ffffffffffffffffffffffffffffffffffffffff60043516610b06565b6102e66102f6565b6102f66102f1610b33565b610b58565b565b60005473ffffffffffffffffffffffffffffffffffffffff16331461031c57600080fd5b61032581610b7c565b50565b60045473ffffffffffffffffffffffffffffffffffffffff1681565b600061034e610b33565b905090565b60015473ffffffffffffffffffffffffffffffffffffffff1681565b60005473ffffffffffffffffffffffffffffffffffffffff16331461039357600080fd5b6000805460405173ffffffffffffffffffffffffffffffffffffffff909116917ff8df31144d9c2f0f6b59d69b8b98abd5459d07f2742c4df920b25aae33c6482091a2600080547fffffffffffffffffffffffff0000000000000000000000000000000000000000169055565b6000805473ffffffffffffffffffffffffffffffffffffffff16331461042557600080fd5b60035473ffffffffffffffffffffffffffffffffffffffff838116911614156104af57604080517f08c379a000000000000000000000000000000000000000000000000000000000815260206004820152601b60248201527f4d7573742062652061206e65772062616c616e63652073686565740000000000604482015290519081900360640190fd5b6104b882610bd1565b151561054b57604080517f08c379a000000000000000000000000000000000000000000000000000000000815260206004820152603860248201527f43616e6e6f7420736574206120726567756c61746f722073746f72616765207460448201527f6f2061206e6f6e2d636f6e747261637420616464726573730000000000000000606482015290519081900360840190fd5b506003805473ffffffffffffffffffffffffffffffffffffffff8381167fffffffffffffffffffffffff0000000000000000000000000000000000000000831681179093556040805191909216808252602082019390935281517f8c3d37b41e983f0d5b0b91de3f9d5055c73a17beebc7adfce9b677ab7c07ad2d929181900390910190a15050565b60035473ffffffffffffffffffffffffffffffffffffffff1681565b600360009054906101000a900473ffffffffffffffffffffffffffffffffffffffff1673ffffffffffffffffffffffffffffffffffffffff16634e71e0c86040518163ffffffff167c0100000000000000000000000000000000000000000000000000000000028152600401600060405180830381600087803b15801561067657600080fd5b505af115801561068a573d6000803e3d6000fd5b50505050565b60005473ffffffffffffffffffffffffffffffffffffffff1681565b60048054604080517f4e71e0c8000000000000000000000000000000000000000000000000000000008152905173ffffffffffffffffffffffffffffffffffffffff90921692634e71e0c892828201926000929082900301818387803b15801561067657600080fd5b60005473ffffffffffffffffffffffffffffffffffffffff16331461073957600080fd5b61032581610bd9565b6000805473ffffffffffffffffffffffffffffffffffffffff16331461076757600080fd5b60045473ffffffffffffffffffffffffffffffffffffffff838116911614156107f157604080517f08c379a000000000000000000000000000000000000000000000000000000000815260206004820152601b60248201527f4d7573742062652061206e65772073746f726167652073686565740000000000604482015290519081900360640190fd5b6107fa82610bd1565b151561088d57604080517f08c379a000000000000000000000000000000000000000000000000000000000815260206004820152603860248201527f43616e6e6f7420736574206120726567756c61746f722073746f72616765207460448201527f6f2061206e6f6e2d636f6e747261637420616464726573730000000000000000606482015290519081900360840190fd5b506004805473ffffffffffffffffffffffffffffffffffffffff8381167fffffffffffffffffffffffff0000000000000000000000000000000000000000831681179093556040805191909216808252602082019390935281517fec358425c40511d576e1c52be7593403bceacda627234c873b52589fef7b2359929181900390910190a15050565b6000805473ffffffffffffffffffffffffffffffffffffffff16331461093b57600080fd5b60025473ffffffffffffffffffffffffffffffffffffffff838116911614156109c557604080517f08c379a000000000000000000000000000000000000000000000000000000000815260206004820152601760248201527f4d7573742062652061206e657720726567756c61746f72000000000000000000604482015290519081900360640190fd5b6109ce82610bd1565b1515610a6157604080517f08c379a000000000000000000000000000000000000000000000000000000000815260206004820152603860248201527f43616e6e6f7420736574206120726567756c61746f722073746f72616765207460448201527f6f2061206e6f6e2d636f6e747261637420616464726573730000000000000000606482015290519081900360840190fd5b506002805473ffffffffffffffffffffffffffffffffffffffff8381167fffffffffffffffffffffffff0000000000000000000000000000000000000000831681179093556040805191909216808252602082019390935281517f4a59b4b607c6055b37a4716d7813d7d4d2c288e4d0dd8298e365b260a1f262e8929181900390910190a15050565b60025473ffffffffffffffffffffffffffffffffffffffff1681565b60005473ffffffffffffffffffffffffffffffffffffffff163314610b2a57600080fd5b61032581610d54565b7f7050c9e0f4ca769c69bd3a8ef740bc37934f8e2c036e5a723fd8ee048ed3f8c35490565b3660008037600080366000845af43d6000803e808015610b77573d6000f35b3d6000fd5b610b8581610e03565b6040805173ffffffffffffffffffffffffffffffffffffffff8316815290517fbc7cd75a20ee27fd9adebab32041f755214dbc6bffa90cc0225b39da2e5c2d3b9181900360200190a150565b6000903b1190565b60015460009073ffffffffffffffffffffffffffffffffffffffff83811691161415610c6657604080517f08c379a000000000000000000000000000000000000000000000000000000000815260206004820152601a60248201527f4d7573742062652061206e657720637573642061646472657373000000000000604482015290519081900360640190fd5b610c6f82610bd1565b1515610cdc57604080517f08c379a000000000000000000000000000000000000000000000000000000000815260206004820152601a60248201527f4d75737420626520616e2061637475616c20636f6e7472616374000000000000604482015290519081900360640190fd5b506001805473ffffffffffffffffffffffffffffffffffffffff8381167fffffffffffffffffffffffff0000000000000000000000000000000000000000831681179093556040519116919082907f0ec1b8e8ba02bcff9ae905a36374bb7e8f3bbd8ac86b05d99e881092f538a0aa90600090a35050565b73ffffffffffffffffffffffffffffffffffffffff81161515610d7657600080fd5b6000805460405173ffffffffffffffffffffffffffffffffffffffff808516939216917f8be0079c531659141344cd1fd0a4f28419497f9722a3daafe3b4186f6b6457e091a3600080547fffffffffffffffffffffffff00000000000000000000000000000000000000001673ffffffffffffffffffffffffffffffffffffffff92909216919091179055565b6000610e0e82610bd1565b1515610ea157604080517f08c379a000000000000000000000000000000000000000000000000000000000815260206004820152603b60248201527f43616e6e6f742073657420612070726f787920696d706c656d656e746174696f60448201527f6e20746f2061206e6f6e2d636f6e747261637420616464726573730000000000606482015290519081900360840190fd5b507f7050c9e0f4ca769c69bd3a8ef740bc37934f8e2c036e5a723fd8ee048ed3f8c3555600a165627a7a7230582051fdf5d2a4ed47e17ae287d582162228655a7129bf92693bbae02dd91a996d3500297050c9e0f4ca769c69bd3a8ef740bc37934f8e2c036e5a723fd8ee048ed3f8c3a165627a7a72305820e6eebb1c42e9d1432bc7f9f31b02cf21b34e57336a160781c84018e46df80db90029",
  "source": "pragma solidity ^0.4.23;\r\n\r\nimport \"../tokens/whitelistedToken/WhitelistedTokenProxy.sol\";\r\nimport \"../tokens/permissionedToken/dataStorage/BalanceSheet.sol\";\r\nimport \"../tokens/permissionedToken/dataStorage/AllowanceSheet.sol\";\r\n\r\n/**\r\n*\r\n* @dev WhitelistedTokenProxyFactory creates new WhitelistedTokenProxyFactory contracts instantiated with data stores. \r\n*\r\n**/\r\ncontract WhitelistedTokenProxyFactory {\r\n    // Parameters\r\n    address[] public tokens;\r\n\r\n    // Events\r\n    event CreatedWhitelistedTokenProxy(address newToken, uint index);\r\n\r\n    // Return number of token proxy contracts created so far\r\n    function getCount() public view returns (uint) {\r\n        return tokens.length;\r\n    }\r\n\r\n    // Return the i'th created token\r\n    function getToken(uint i) public view returns(address) {\r\n        require((i < tokens.length) && (i >= 0), \"Invalid index\");\r\n        return tokens[i];\r\n    }\r\n    \r\n\r\n    /**\r\n    *\r\n    * @dev generate a new proxy address that users can cast to a PermissionedToken or PermissionedTokenProxy. The\r\n    * proxy has empty data storage contracts connected to it and it is set with an initial logic contract\r\n    * to which it will delegate functionality\r\n    * @param regulator the address of the initial regulator contract that regulates the proxy\r\n    * @param tokenImplementation the address of the initial PT token implementation\r\n    *\r\n    **/\r\n    function createToken(address tokenImplementation, address cusdAddress, address regulator) public {\r\n        \r\n        // Store new data storage contracts for token proxy\r\n        address balances = address(new BalanceSheet()); \r\n        address allowances = address(new AllowanceSheet());\r\n\r\n        address proxy = address(new WhitelistedTokenProxy(tokenImplementation, regulator, balances, allowances, cusdAddress));\r\n\r\n        // data storages should ultimately point be owned by the proxy, since it will delegate function\r\n        // calls to the latest implementation *in the context of the proxy contract*\r\n        BalanceSheet(balances).transferOwnership(address(proxy));\r\n        AllowanceSheet(allowances).transferOwnership(address(proxy));\r\n\r\n        // The function caller should own the proxy contract\r\n        WhitelistedTokenProxy(proxy).transferOwnership(msg.sender);\r\n\r\n        tokens.push(proxy);\r\n        emit CreatedWhitelistedTokenProxy(proxy, getCount()-1);\r\n    }\r\n}\r\n\r\n",
  "sourcePath": "C:\\Users\\npain\\Projects\\Carbon\\fiat_gateway\\contracts\\factories\\WhitelistedTokenProxyFactory.sol",
  "compiler": {
    "name": "solc",
    "version": "0.4.24+commit.e67f0147.Emscripten.clang"
  },
  "schemaVersion": "2.0.1",
  "updatedAt": "2018-08-17T20:11:44.131Z"
}