{
  "contractName": "WhitelistedToken",
  "abi": [
    {
      "constant": false,
      "inputs": [
        {
          "name": "_spender",
          "type": "address"
        },
        {
          "name": "_value",
          "type": "uint256"
        }
      ],
      "name": "approve",
      "outputs": [
        {
          "name": "",
          "type": "bool"
        }
      ],
      "payable": false,
      "stateMutability": "nonpayable",
      "type": "function"
    },
    {
      "constant": true,
      "inputs": [],
      "name": "totalSupply",
      "outputs": [
        {
          "name": "",
          "type": "uint256"
        }
      ],
      "payable": false,
      "stateMutability": "view",
      "type": "function"
    },
    {
      "constant": false,
      "inputs": [
        {
          "name": "_from",
          "type": "address"
        },
        {
          "name": "_to",
          "type": "address"
        },
        {
          "name": "_amount",
          "type": "uint256"
        }
      ],
      "name": "transferFrom",
      "outputs": [
        {
          "name": "",
          "type": "bool"
        }
      ],
      "payable": false,
      "stateMutability": "nonpayable",
      "type": "function"
    },
    {
      "constant": false,
      "inputs": [],
      "name": "unpause",
      "outputs": [],
      "payable": false,
      "stateMutability": "nonpayable",
      "type": "function"
    },
    {
      "constant": false,
      "inputs": [
        {
          "name": "_to",
          "type": "address"
        },
        {
          "name": "_amount",
          "type": "uint256"
        }
      ],
      "name": "mint",
      "outputs": [],
      "payable": false,
      "stateMutability": "nonpayable",
      "type": "function"
    },
    {
      "constant": false,
      "inputs": [
        {
          "name": "_amount",
          "type": "uint256"
        }
      ],
      "name": "burn",
      "outputs": [],
      "payable": false,
      "stateMutability": "nonpayable",
      "type": "function"
    },
    {
      "constant": false,
      "inputs": [],
      "name": "claimOwnership",
      "outputs": [],
      "payable": false,
      "stateMutability": "nonpayable",
      "type": "function"
    },
    {
      "constant": true,
      "inputs": [],
      "name": "blacklisted",
      "outputs": [
        {
          "name": "",
          "type": "bool"
        }
      ],
      "payable": false,
      "stateMutability": "view",
      "type": "function"
    },
    {
      "constant": true,
      "inputs": [],
      "name": "paused",
      "outputs": [
        {
          "name": "",
          "type": "bool"
        }
      ],
      "payable": false,
      "stateMutability": "view",
      "type": "function"
    },
    {
      "constant": true,
      "inputs": [],
      "name": "cusdAddress",
      "outputs": [
        {
          "name": "",
          "type": "address"
        }
      ],
      "payable": false,
      "stateMutability": "view",
      "type": "function"
    },
    {
      "constant": false,
      "inputs": [
        {
          "name": "_spender",
          "type": "address"
        },
        {
          "name": "_subtractedValue",
          "type": "uint256"
        }
      ],
      "name": "decreaseApproval",
      "outputs": [
        {
          "name": "",
          "type": "bool"
        }
      ],
      "payable": false,
      "stateMutability": "nonpayable",
      "type": "function"
    },
    {
      "constant": false,
      "inputs": [
        {
          "name": "_blacklistedAccount",
          "type": "address"
        }
      ],
      "name": "approveBlacklistedAddressSpender",
      "outputs": [],
      "payable": false,
      "stateMutability": "nonpayable",
      "type": "function"
    },
    {
      "constant": true,
      "inputs": [
        {
          "name": "_addr",
          "type": "address"
        }
      ],
      "name": "balanceOf",
      "outputs": [
        {
          "name": "",
          "type": "uint256"
        }
      ],
      "payable": false,
      "stateMutability": "view",
      "type": "function"
    },
    {
      "constant": false,
      "inputs": [],
      "name": "pause",
      "outputs": [],
      "payable": false,
      "stateMutability": "nonpayable",
      "type": "function"
    },
    {
      "constant": true,
      "inputs": [],
      "name": "isMethodEnabled",
      "outputs": [
        {
          "name": "",
          "type": "bool"
        }
      ],
      "payable": false,
      "stateMutability": "view",
      "type": "function"
    },
    {
      "constant": true,
      "inputs": [],
      "name": "owner",
      "outputs": [
        {
          "name": "",
          "type": "address"
        }
      ],
      "payable": false,
      "stateMutability": "view",
      "type": "function"
    },
    {
      "constant": false,
      "inputs": [],
      "name": "unlock",
      "outputs": [],
      "payable": false,
      "stateMutability": "nonpayable",
      "type": "function"
    },
    {
      "constant": false,
      "inputs": [
        {
          "name": "_to",
          "type": "address"
        },
        {
          "name": "_amount",
          "type": "uint256"
        }
      ],
      "name": "transfer",
      "outputs": [
        {
          "name": "",
          "type": "bool"
        }
      ],
      "payable": false,
      "stateMutability": "nonpayable",
      "type": "function"
    },
    {
      "constant": true,
      "inputs": [],
      "name": "tokenStorage",
      "outputs": [
        {
          "name": "",
          "type": "address"
        }
      ],
      "payable": false,
      "stateMutability": "view",
      "type": "function"
    },
    {
      "constant": false,
      "inputs": [
        {
          "name": "_who",
          "type": "address"
        },
        {
          "name": "_amount",
          "type": "uint256"
        }
      ],
      "name": "destroyBlacklistedTokens",
      "outputs": [],
      "payable": false,
      "stateMutability": "nonpayable",
      "type": "function"
    },
    {
      "constant": false,
      "inputs": [
        {
          "name": "_newRegulator",
          "type": "address"
        }
      ],
      "name": "setRegulator",
      "outputs": [],
      "payable": false,
      "stateMutability": "nonpayable",
      "type": "function"
    },
    {
      "constant": false,
      "inputs": [
        {
          "name": "_spender",
          "type": "address"
        },
        {
          "name": "_addedValue",
          "type": "uint256"
        }
      ],
      "name": "increaseApproval",
      "outputs": [
        {
          "name": "",
          "type": "bool"
        }
      ],
      "payable": false,
      "stateMutability": "nonpayable",
      "type": "function"
    },
    {
      "constant": true,
      "inputs": [
        {
          "name": "owner",
          "type": "address"
        },
        {
          "name": "spender",
          "type": "address"
        }
      ],
      "name": "allowance",
      "outputs": [
        {
          "name": "",
          "type": "uint256"
        }
      ],
      "payable": false,
      "stateMutability": "view",
      "type": "function"
    },
    {
      "constant": true,
      "inputs": [],
      "name": "regulator",
      "outputs": [
        {
          "name": "",
          "type": "address"
        }
      ],
      "payable": false,
      "stateMutability": "view",
      "type": "function"
    },
    {
      "constant": true,
      "inputs": [],
      "name": "pendingOwner",
      "outputs": [
        {
          "name": "",
          "type": "address"
        }
      ],
      "payable": false,
      "stateMutability": "view",
      "type": "function"
    },
    {
      "constant": false,
      "inputs": [
        {
          "name": "_newOwner",
          "type": "address"
        }
      ],
      "name": "transferOwnership",
      "outputs": [],
      "payable": false,
      "stateMutability": "nonpayable",
      "type": "function"
    },
    {
      "constant": false,
      "inputs": [],
      "name": "lock",
      "outputs": [],
      "payable": false,
      "stateMutability": "nonpayable",
      "type": "function"
    },
    {
      "inputs": [
        {
          "name": "_regulator",
          "type": "address"
        },
        {
          "name": "_cusd",
          "type": "address"
        }
      ],
      "payable": false,
      "stateMutability": "nonpayable",
      "type": "constructor"
    },
    {
      "anonymous": false,
      "inputs": [
        {
          "indexed": true,
          "name": "oldCUSD",
          "type": "address"
        },
        {
          "indexed": true,
          "name": "newCUSD",
          "type": "address"
        }
      ],
      "name": "CUSDAddressChanged",
      "type": "event"
    },
    {
      "anonymous": false,
      "inputs": [
        {
          "indexed": true,
          "name": "user",
          "type": "address"
        },
        {
          "indexed": false,
          "name": "amount",
          "type": "uint256"
        }
      ],
      "name": "MintedToCUSD",
      "type": "event"
    },
    {
      "anonymous": false,
      "inputs": [
        {
          "indexed": true,
          "name": "user",
          "type": "address"
        },
        {
          "indexed": false,
          "name": "amount",
          "type": "uint256"
        }
      ],
      "name": "ConvertedToCUSD",
      "type": "event"
    },
    {
      "anonymous": false,
      "inputs": [
        {
          "indexed": true,
          "name": "account",
          "type": "address"
        },
        {
          "indexed": false,
          "name": "amount",
          "type": "uint256"
        }
      ],
      "name": "DestroyedBlacklistedTokens",
      "type": "event"
    },
    {
      "anonymous": false,
      "inputs": [
        {
          "indexed": true,
          "name": "owner",
          "type": "address"
        },
        {
          "indexed": true,
          "name": "spender",
          "type": "address"
        },
        {
          "indexed": false,
          "name": "value",
          "type": "uint256"
        }
      ],
      "name": "ApprovedBlacklistedAddressSpender",
      "type": "event"
    },
    {
      "anonymous": false,
      "inputs": [
        {
          "indexed": true,
          "name": "to",
          "type": "address"
        },
        {
          "indexed": false,
          "name": "value",
          "type": "uint256"
        }
      ],
      "name": "Mint",
      "type": "event"
    },
    {
      "anonymous": false,
      "inputs": [
        {
          "indexed": true,
          "name": "burner",
          "type": "address"
        },
        {
          "indexed": false,
          "name": "value",
          "type": "uint256"
        }
      ],
      "name": "Burn",
      "type": "event"
    },
    {
      "anonymous": false,
      "inputs": [
        {
          "indexed": true,
          "name": "from",
          "type": "address"
        },
        {
          "indexed": true,
          "name": "to",
          "type": "address"
        },
        {
          "indexed": false,
          "name": "value",
          "type": "uint256"
        }
      ],
      "name": "Transfer",
      "type": "event"
    },
    {
      "anonymous": false,
      "inputs": [
        {
          "indexed": true,
          "name": "owner",
          "type": "address"
        },
        {
          "indexed": true,
          "name": "spender",
          "type": "address"
        },
        {
          "indexed": false,
          "name": "value",
          "type": "uint256"
        }
      ],
      "name": "Approval",
      "type": "event"
    },
    {
      "anonymous": false,
      "inputs": [
        {
          "indexed": true,
          "name": "oldRegulator",
          "type": "address"
        },
        {
          "indexed": true,
          "name": "newRegulator",
          "type": "address"
        }
      ],
      "name": "ChangedRegulator",
      "type": "event"
    },
    {
      "anonymous": false,
      "inputs": [],
      "name": "Unlocked",
      "type": "event"
    },
    {
      "anonymous": false,
      "inputs": [],
      "name": "Locked",
      "type": "event"
    },
    {
      "anonymous": false,
      "inputs": [],
      "name": "Pause",
      "type": "event"
    },
    {
      "anonymous": false,
      "inputs": [],
      "name": "Unpause",
      "type": "event"
    },
    {
      "anonymous": false,
      "inputs": [
        {
          "indexed": true,
          "name": "previousOwner",
          "type": "address"
        },
        {
          "indexed": true,
          "name": "newOwner",
          "type": "address"
        }
      ],
      "name": "OwnershipTransferred",
      "type": "event"
    },
    {
      "constant": false,
      "inputs": [
        {
          "name": "_to",
          "type": "address"
        },
        {
          "name": "_amount",
          "type": "uint256"
        }
      ],
      "name": "mintCUSD",
      "outputs": [],
      "payable": false,
      "stateMutability": "nonpayable",
      "type": "function"
    },
    {
      "constant": false,
      "inputs": [
        {
          "name": "_amount",
          "type": "uint256"
        }
      ],
      "name": "convertWT",
      "outputs": [],
      "payable": false,
      "stateMutability": "nonpayable",
      "type": "function"
    },
    {
      "constant": false,
      "inputs": [
        {
          "name": "_cusd",
          "type": "address"
        }
      ],
      "name": "setCUSDAddress",
      "outputs": [],
      "payable": false,
      "stateMutability": "nonpayable",
      "type": "function"
    }
  ],
  "bytecode": "0x60806040526001805460a060020a61ffff02191690553480156200002257600080fd5b506040516040806200370a8339810160405280516020909101516000805433600160a060020a031991821617909155600180548216905560038054909116600160a060020a0384161790558162000078620000dc565b604051809103906000f08015801562000095573d6000803e3d6000fd5b5060028054600160a060020a0319908116600160a060020a0393841617909155600380548216958316959095179094556004805490941692169190911790915550620000ed565b6040516107188062002ff283390190565b612ef580620000fd6000396000f30060806040526004361061017f5763ffffffff7c0100000000000000000000000000000000000000000000000000000000600035041663095ea7b3811461018457806318160ddd146101bc57806323b872dd146101e35780633c584d861461020d5780633f4ba83a1461022757806340c10f191461023c57806342966c68146102605780634e71e0c8146102785780635bae9ce91461028d5780635c975abb146102a2578063636f0cf8146102b757806366188463146102e8578063662f94c01461030c57806370a082311461032d5780638456cb591461034e57806388fa2617146103635780638da5cb5b1461037857806391dc1b1d1461038d578063a00d7740146103b1578063a69df4b5146103d2578063a9059cbb146103e7578063b199efb51461040b578063c534ba4b14610420578063cde0a4f814610444578063d73dd62314610465578063dd62ed3e14610489578063dd8fee14146104b0578063e30c3978146104c5578063f2fde38b146104da578063f83d08ba146104fb575b600080fd5b34801561019057600080fd5b506101a8600160a060020a0360043516602435610510565b604080519115158252519081900360200190f35b3480156101c857600080fd5b506101d16107ab565b60408051918252519081900360200190f35b3480156101ef57600080fd5b506101a8600160a060020a036004358116906024351660443561083b565b34801561021957600080fd5b50610225600435610bf7565b005b34801561023357600080fd5b50610225610da3565b34801561024857600080fd5b50610225600160a060020a0360043516602435610e1b565b34801561026c57600080fd5b50610225600435610fed565b34801561028457600080fd5b506102256110d3565b34801561029957600080fd5b506101a861115b565b3480156102ae57600080fd5b506101a8611247565b3480156102c357600080fd5b506102cc611257565b60408051600160a060020a039092168252519081900360200190f35b3480156102f457600080fd5b506101a8600160a060020a0360043516602435611266565b34801561031857600080fd5b50610225600160a060020a0360043516611416565b34801561033957600080fd5b506101d1600160a060020a03600435166116d7565b34801561035a57600080fd5b50610225611774565b34801561036f57600080fd5b506101a86117f1565b34801561038457600080fd5b506102cc611813565b34801561039957600080fd5b50610225600160a060020a0360043516602435611822565b3480156103bd57600080fd5b50610225600160a060020a03600435166119ef565b3480156103de57600080fd5b50610225611b2c565b3480156103f357600080fd5b506101a8600160a060020a0360043516602435611ba5565b34801561041757600080fd5b506102cc611d4a565b34801561042c57600080fd5b50610225600160a060020a0360043516602435611d59565b34801561045057600080fd5b50610225600160a060020a0360043516612077565b34801561047157600080fd5b506101a8600160a060020a03600435166024356121da565b34801561049557600080fd5b506101d1600160a060020a036004358116906024351661237f565b3480156104bc57600080fd5b506102cc612425565b3480156104d157600080fd5b506102cc612434565b3480156104e657600080fd5b50610225600160a060020a0360043516612443565b34801561050757600080fd5b5061022561249e565b6003546040805160e060020a637ccce851028152600160a060020a038086166004830152915160009386931691637ccce85191602480830192602092919082900301818887803b15801561056357600080fd5b505af1158015610577573d6000803e3d6000fd5b505050506040513d602081101561058d57600080fd5b5051156105d2576040805160e560020a62461bcd02815260206004820152601c6024820152600080516020612eaa833981519152604482015290519081900360640190fd5b6003546040805160e060020a637ccce851028152336004820181905291519192600160a060020a031691637ccce851916024808201926020929091908290030181600087803b15801561062457600080fd5b505af1158015610638573d6000803e3d6000fd5b505050506040513d602081101561064e57600080fd5b505115610693576040805160e560020a62461bcd02815260206004820152601c6024820152600080516020612eaa833981519152604482015290519081900360640190fd5b60015460a060020a900460ff16156106aa57600080fd5b6001547501000000000000000000000000000000000000000000900460ff1615156106d457600080fd5b600254604080517fda46098c000000000000000000000000000000000000000000000000000000008152336004820152600160a060020a038881166024830152604482018890529151919092169163da46098c91606480830192600092919082900301818387803b15801561074857600080fd5b505af115801561075c573d6000803e3d6000fd5b5050604080518781529051600160a060020a03891693503392507f8c5be1e5ebec7d5bd14f71427d1e84f3dd0314c0f7b2291e5b200ac8c7c3b9259181900360200190a3506001949350505050565b600254604080517f18160ddd0000000000000000000000000000000000000000000000000000000081529051600092600160a060020a0316916318160ddd91600480830192602092919082900301818787803b15801561080a57600080fd5b505af115801561081e573d6000803e3d6000fd5b505050506040513d602081101561083457600080fd5b5051905090565b60015460009060a060020a900460ff161561085557600080fd5b6003546040805160e060020a637ccce851028152600160a060020a03808716600483015291518793879360009384939190921691637ccce85191602480830192602092919082900301818787803b1580156108af57600080fd5b505af11580156108c3573d6000803e3d6000fd5b505050506040513d60208110156108d957600080fd5b505115610930576040805160e560020a62461bcd02815260206004820152601f60248201527f526563697069656e742063616e6e6f7420626520626c61636b6c697374656400604482015290519081900360640190fd5b6003546040805160e060020a637ccce851028152600160a060020a03878116600483015291519190921691637ccce8519160248083019260209291908290030181600087803b15801561098257600080fd5b505af1158015610996573d6000803e3d6000fd5b505050506040513d60208110156109ac57600080fd5b5051600354604080517f91c4529f0000000000000000000000000000000000000000000000000000000081523360048201529051929450600160a060020a03909116916391c4529f916024808201926020929091908290030181600087803b158015610a1757600080fd5b505af1158015610a2b573d6000803e3d6000fd5b505050506040513d6020811015610a4157600080fd5b50519050811580610a4f5750805b1515610af1576040805160e560020a62461bcd02815260206004820152604c60248201527f4f726967696e2063616e6e6f7420626520626c61636b6c69737465642069662060448201527f7370656e646572206973206e6f7420616e20617070726f76656420626c61636b60648201527f6c697374207370656e6465720000000000000000000000000000000000000000608482015290519081900360a40190fd5b610afb883361237f565b861115610b52576040805160e560020a62461bcd02815260206004820181905260248201527f6e6f7420656e6f75676820616c6c6f77616e636520746f207472616e73666572604482015290519081900360640190fd5b610b5d8789886124ff565b600254604080517f97d88cd2000000000000000000000000000000000000000000000000000000008152600160a060020a038b81166004830152336024830152604482018a9052915191909216916397d88cd291606480830192600092919082900301818387803b158015610bd157600080fd5b505af1158015610be5573d6000803e3d6000fd5b5060019b9a5050505050505050505050565b6003546040805160e060020a637ccce851028152336004820181905291519192600160a060020a031691637ccce851916024808201926020929091908290030181600087803b158015610c4957600080fd5b505af1158015610c5d573d6000803e3d6000fd5b505050506040513d6020811015610c7357600080fd5b505115610cb8576040805160e560020a62461bcd02815260206004820152601c6024820152600080516020612eaa833981519152604482015290519081900360640190fd5b60015460a060020a900460ff1615610ccf57600080fd5b81610cd9336116d7565b1015610d55576040805160e560020a62461bcd02815260206004820152602d60248201527f436f6e76657273696f6e20616d6f756e742073686f756c64206265206c65737360448201527f207468616e2062616c616e636500000000000000000000000000000000000000606482015290519081900360840190fd5b610d5f3383612712565b610d6933836128fa565b60408051838152905133917f8bd92e48ca7380f64ff4556585a7161f9f0b0f67d1bb875fc1df0ae4fe6c0ae8919081900360200190a25050565b600054600160a060020a03163314610dba57600080fd5b60015460a060020a900460ff161515610dd257600080fd5b6001805474ff0000000000000000000000000000000000000000191690556040517f7805862f689e2f13df9f062ff482ad3ad112aca9e0847911ed832e158c525b3390600090a1565b6003546040805160e060020a637ccce851028152600160a060020a038086166004830152915185939290921691637ccce851916024808201926020929091908290030181600087803b158015610e7057600080fd5b505af1158015610e84573d6000803e3d6000fd5b505050506040513d6020811015610e9a57600080fd5b505115610edf576040805160e560020a62461bcd02815260206004820152601c6024820152600080516020612eaa833981519152604482015290519081900360640190fd5b6003546040805160e360020a63029b6dab02815233600482015260008035600160e060020a03191660248301529151600160a060020a03909316926314db6d5892604480840193602093929083900390910190829087803b158015610f4357600080fd5b505af1158015610f57573d6000803e3d6000fd5b505050506040513d6020811015610f6d57600080fd5b50511515610fc7576040805160e560020a62461bcd0281526020600482015260316024820152600080516020612e8a8339815191526044820152600080516020612e6a833981519152606482015290519081900360840190fd5b60015460a060020a900460ff1615610fde57600080fd5b610fe88383612a6a565b505050565b6003546040805160e060020a637ccce851028152336004820181905291519192600160a060020a031691637ccce851916024808201926020929091908290030181600087803b15801561103f57600080fd5b505af1158015611053573d6000803e3d6000fd5b505050506040513d602081101561106957600080fd5b5051156110ae576040805160e560020a62461bcd02815260206004820152601c6024820152600080516020612eaa833981519152604482015290519081900360640190fd5b60015460a060020a900460ff16156110c557600080fd5b6110cf3383612712565b5050565b600154600160a060020a031633146110ea57600080fd5b60015460008054604051600160a060020a0393841693909116917f8be0079c531659141344cd1fd0a4f28419497f9722a3daafe3b4186f6b6457e091a3600180546000805473ffffffffffffffffffffffffffffffffffffffff19908116600160a060020a03841617909155169055565b6003546040805160e360020a63029b6dab02815233600482015260008035600160e060020a031916602483015291519192600160a060020a0316916314db6d589160448082019260209290919082900301818787803b1580156111bd57600080fd5b505af11580156111d1573d6000803e3d6000fd5b505050506040513d60208110156111e757600080fd5b50511515611241576040805160e560020a62461bcd0281526020600482015260316024820152600080516020612e8a8339815191526044820152600080516020612e6a833981519152606482015290519081900360840190fd5b50600190565b60015460a060020a900460ff1681565b600454600160a060020a031681565b6003546040805160e060020a637ccce851028152600160a060020a038086166004830152915160009386931691637ccce85191602480830192602092919082900301818887803b1580156112b957600080fd5b505af11580156112cd573d6000803e3d6000fd5b505050506040513d60208110156112e357600080fd5b505115611328576040805160e560020a62461bcd02815260206004820152601c6024820152600080516020612eaa833981519152604482015290519081900360640190fd5b6003546040805160e060020a637ccce851028152336004820181905291519192600160a060020a031691637ccce851916024808201926020929091908290030181600087803b15801561137a57600080fd5b505af115801561138e573d6000803e3d6000fd5b505050506040513d60208110156113a457600080fd5b5051156113e9576040805160e560020a62461bcd02815260206004820152601c6024820152600080516020612eaa833981519152604482015290519081900360640190fd5b60015460a060020a900460ff161561140057600080fd5b61140b858533612bf2565b506001949350505050565b6003546040805160e060020a637ccce851028152600160a060020a038085166004830152915184939290921691637ccce851916024808201926020929091908290030181600087803b15801561146b57600080fd5b505af115801561147f573d6000803e3d6000fd5b505050506040513d602081101561149557600080fd5b505115156114ed576040805160e560020a62461bcd02815260206004820152601860248201527f55736572206d75737420626520626c61636b6c69737465640000000000000000604482015290519081900360640190fd5b60015460a060020a900460ff161561150457600080fd5b6003546040805160e360020a63029b6dab02815233600482015260008035600160e060020a03191660248301529151600160a060020a03909316926314db6d5892604480840193602093929083900390910190829087803b15801561156857600080fd5b505af115801561157c573d6000803e3d6000fd5b505050506040513d602081101561159257600080fd5b505115156115ec576040805160e560020a62461bcd0281526020600482015260316024820152600080516020612e8a8339815191526044820152600080516020612e6a833981519152606482015290519081900360840190fd5b600254600160a060020a031663da46098c8333611608826116d7565b604080517c010000000000000000000000000000000000000000000000000000000063ffffffff8716028152600160a060020a03948516600482015292909316602483015260448201529051606480830192600092919082900301818387803b15801561167457600080fd5b505af1158015611688573d6000803e3d6000fd5b503392505050600160a060020a0383167f3b1ffca3903932aa264fbb5b7b381746e2b7b61c9c5a6024bad48d23f958a6c26116c2856116d7565b60408051918252519081900360200190a35050565b600254604080517f27e235e3000000000000000000000000000000000000000000000000000000008152600160a060020a038481166004830152915160009392909216916327e235e39160248082019260209290919082900301818787803b15801561174257600080fd5b505af1158015611756573d6000803e3d6000fd5b505050506040513d602081101561176c57600080fd5b505192915050565b600054600160a060020a0316331461178b57600080fd5b60015460a060020a900460ff16156117a257600080fd5b6001805474ff0000000000000000000000000000000000000000191660a060020a1790556040517f6985a02210a168e66602d3235cb6db0e70f92b3ba4d376a33c0f3d9434bff62590600090a1565b6001547501000000000000000000000000000000000000000000900460ff1681565b600054600160a060020a031681565b6003546040805160e360020a63029b6dab02815233600482015260008035600160e060020a03191660248301529151600160a060020a03909316926314db6d5892604480840193602093929083900390910190829087803b15801561188657600080fd5b505af115801561189a573d6000803e3d6000fd5b505050506040513d60208110156118b057600080fd5b5051151561190a576040805160e560020a62461bcd0281526020600482015260316024820152600080516020612e8a8339815191526044820152600080516020612e6a833981519152606482015290519081900360840190fd5b60015460a060020a900460ff161561192157600080fd5b6003546040805160e060020a637ccce851028152600160a060020a038086166004830152915185939290921691637ccce851916024808201926020929091908290030181600087803b15801561197657600080fd5b505af115801561198a573d6000803e3d6000fd5b505050506040513d60208110156119a057600080fd5b5051156119e5576040805160e560020a62461bcd02815260206004820152601c6024820152600080516020612eaa833981519152604482015290519081900360640190fd5b610fe883836128fa565b60008054600160a060020a03163314611a0757600080fd5b600454600160a060020a0383811691161415611a6d576040805160e560020a62461bcd02815260206004820152601a60248201527f4d7573742062652061206e657720637573642061646472657373000000000000604482015290519081900360640190fd5b611a7682612d7e565b1515611acc576040805160e560020a62461bcd02815260206004820152601a60248201527f4d75737420626520616e2061637475616c20636f6e7472616374000000000000604482015290519081900360640190fd5b5060048054600160a060020a0383811673ffffffffffffffffffffffffffffffffffffffff19831681179093556040519116919082907f0ec1b8e8ba02bcff9ae905a36374bb7e8f3bbd8ac86b05d99e881092f538a0aa90600090a35050565b600054600160a060020a03163314611b4357600080fd5b6001805475ff000000000000000000000000000000000000000000191675010000000000000000000000000000000000000000001790556040517f19aad37188a1d3921e29eb3c66acf43d81975e107cb650d58cca878627955fd690600090a1565b6003546040805160e060020a637ccce851028152600160a060020a038086166004830152915160009386931691637ccce85191602480830192602092919082900301818887803b158015611bf857600080fd5b505af1158015611c0c573d6000803e3d6000fd5b505050506040513d6020811015611c2257600080fd5b505115611c67576040805160e560020a62461bcd02815260206004820152601c6024820152600080516020612eaa833981519152604482015290519081900360640190fd5b6003546040805160e060020a637ccce851028152336004820181905291519192600160a060020a031691637ccce851916024808201926020929091908290030181600087803b158015611cb957600080fd5b505af1158015611ccd573d6000803e3d6000fd5b505050506040513d6020811015611ce357600080fd5b505115611d28576040805160e560020a62461bcd02815260206004820152601c6024820152600080516020612eaa833981519152604482015290519081900360640190fd5b60015460a060020a900460ff1615611d3f57600080fd5b61140b8533866124ff565b600254600160a060020a031681565b6003546040805160e060020a637ccce851028152600160a060020a038086166004830152915185939290921691637ccce851916024808201926020929091908290030181600087803b158015611dae57600080fd5b505af1158015611dc2573d6000803e3d6000fd5b505050506040513d6020811015611dd857600080fd5b50511515611e30576040805160e560020a62461bcd02815260206004820152601860248201527f55736572206d75737420626520626c61636b6c69737465640000000000000000604482015290519081900360640190fd5b60015460a060020a900460ff1615611e4757600080fd5b6003546040805160e360020a63029b6dab02815233600482015260008035600160e060020a03191660248301529151600160a060020a03909316926314db6d5892604480840193602093929083900390910190829087803b158015611eab57600080fd5b505af1158015611ebf573d6000803e3d6000fd5b505050506040513d6020811015611ed557600080fd5b50511515611f2f576040805160e560020a62461bcd0281526020600482015260316024820152600080516020612e8a8339815191526044820152600080516020612e6a833981519152606482015290519081900360840190fd5b600254604080517fcf8eeb7e000000000000000000000000000000000000000000000000000000008152600160a060020a038681166004830152602482018690529151919092169163cf8eeb7e91604480830192600092919082900301818387803b158015611f9d57600080fd5b505af1158015611fb1573d6000803e3d6000fd5b5050600254604080517f82838c76000000000000000000000000000000000000000000000000000000008152600481018790529051600160a060020a0390921693506382838c76925060248082019260009290919082900301818387803b15801561201b57600080fd5b505af115801561202f573d6000803e3d6000fd5b5050604080518581529051600160a060020a03871693507fb81d1dffb753076892e04e6e1234d137b031f70d859c299876b0486e966424fd92509081900360200190a2505050565b60008054600160a060020a0316331461208f57600080fd5b600354600160a060020a03838116911614156120f5576040805160e560020a62461bcd02815260206004820152601760248201527f4d7573742062652061206e657720726567756c61746f72000000000000000000604482015290519081900360640190fd5b6120fe82612d7e565b151561217a576040805160e560020a62461bcd02815260206004820152603860248201527f43616e6e6f7420736574206120726567756c61746f722073746f72616765207460448201527f6f2061206e6f6e2d636f6e747261637420616464726573730000000000000000606482015290519081900360840190fd5b5060038054600160a060020a0383811673ffffffffffffffffffffffffffffffffffffffff19831681179093556040519116919082907f4a59b4b607c6055b37a4716d7813d7d4d2c288e4d0dd8298e365b260a1f262e890600090a35050565b6003546040805160e060020a637ccce851028152600160a060020a038086166004830152915160009386931691637ccce85191602480830192602092919082900301818887803b15801561222d57600080fd5b505af1158015612241573d6000803e3d6000fd5b505050506040513d602081101561225757600080fd5b50511561229c576040805160e560020a62461bcd02815260206004820152601c6024820152600080516020612eaa833981519152604482015290519081900360640190fd5b6003546040805160e060020a637ccce851028152336004820181905291519192600160a060020a031691637ccce851916024808201926020929091908290030181600087803b1580156122ee57600080fd5b505af1158015612302573d6000803e3d6000fd5b505050506040513d602081101561231857600080fd5b50511561235d576040805160e560020a62461bcd02815260206004820152601c6024820152600080516020612eaa833981519152604482015290519081900360640190fd5b60015460a060020a900460ff161561237457600080fd5b61140b858533612d86565b600254604080517f55b6ed5c000000000000000000000000000000000000000000000000000000008152600160a060020a0385811660048301528481166024830152915160009392909216916355b6ed5c9160448082019260209290919082900301818787803b1580156123f257600080fd5b505af1158015612406573d6000803e3d6000fd5b505050506040513d602081101561241c57600080fd5b50519392505050565b600354600160a060020a031681565b600154600160a060020a031681565b600054600160a060020a0316331461245a57600080fd5b600160a060020a038116151561246f57600080fd5b6001805473ffffffffffffffffffffffffffffffffffffffff1916600160a060020a0392909216919091179055565b600054600160a060020a031633146124b557600080fd5b6001805475ff000000000000000000000000000000000000000000191690556040517f0f2e5b6c72c6a4491efd919a9f9a409f324ef0708c11ee57d410c2cb06c0992b90600090a1565b600160a060020a038316151561255f576040805160e560020a62461bcd02815260206004820152601860248201527f746f20616464726573732063616e6e6f74206265203078300000000000000000604482015290519081900360640190fd5b612568826116d7565b8111156125bf576040805160e560020a62461bcd02815260206004820152601e60248201527f6e6f7420656e6f7567682062616c616e636520746f207472616e736665720000604482015290519081900360640190fd5b600254604080517f21e5383a000000000000000000000000000000000000000000000000000000008152600160a060020a03868116600483015260248201859052915191909216916321e5383a91604480830192600092919082900301818387803b15801561262d57600080fd5b505af1158015612641573d6000803e3d6000fd5b5050600254604080517fcf8eeb7e000000000000000000000000000000000000000000000000000000008152600160a060020a03878116600483015260248201879052915191909216935063cf8eeb7e9250604480830192600092919082900301818387803b1580156126b357600080fd5b505af11580156126c7573d6000803e3d6000fd5b5050604080518481529051600160a060020a038088169450861692507fddf252ad1be2c89b69c2b068fc378daa952ba7f163c4a11628f55a4df523b3ef9181900360200190a3505050565b61271b826116d7565b811115612772576040805160e560020a62461bcd02815260206004820152601a60248201527f6e6f7420656e6f7567682062616c616e636520746f206275726e000000000000604482015290519081900360640190fd5b600254604080517fcf8eeb7e000000000000000000000000000000000000000000000000000000008152600160a060020a038581166004830152602482018590529151919092169163cf8eeb7e91604480830192600092919082900301818387803b1580156127e057600080fd5b505af11580156127f4573d6000803e3d6000fd5b5050600254604080517f82838c76000000000000000000000000000000000000000000000000000000008152600481018690529051600160a060020a0390921693506382838c76925060248082019260009290919082900301818387803b15801561285e57600080fd5b505af1158015612872573d6000803e3d6000fd5b5050604080518481529051600160a060020a03861693507fcc16f5dbb4873280815c1ee09dbd06736cffcc184412cf7a71a0fdb75d397ca592509081900360200190a2604080518281529051600091600160a060020a038516917fddf252ad1be2c89b69c2b068fc378daa952ba7f163c4a11628f55a4df523b3ef9181900360200190a35050565b600454600160a060020a0383811691161415612986576040805160e560020a62461bcd02815260206004820152602160248201527f43616e6e6f74206d696e7420746f20436172626f6e55534420636f6e7472616360448201527f7400000000000000000000000000000000000000000000000000000000000000606482015290519081900360840190fd5b60048054604080517f40c10f19000000000000000000000000000000000000000000000000000000008152600160a060020a038681169482019490945260248101859052905192909116916340c10f199160448082019260009290919082900301818387803b1580156129f857600080fd5b505af1158015612a0c573d6000803e3d6000fd5b5050600454612a279250600160a060020a0316905082612a6a565b604080518281529051600160a060020a038416917f0aa3eb15142a2b8e4c65e571df7bdd989b9f56c6034258ede1c26c1f89d6e3c2919081900360200190a25050565b600254604080517fe468688e000000000000000000000000000000000000000000000000000000008152600481018490529051600160a060020a039092169163e468688e9160248082019260009290919082900301818387803b158015612ad057600080fd5b505af1158015612ae4573d6000803e3d6000fd5b5050600254604080517f21e5383a000000000000000000000000000000000000000000000000000000008152600160a060020a0387811660048301526024820187905291519190921693506321e5383a9250604480830192600092919082900301818387803b158015612b5657600080fd5b505af1158015612b6a573d6000803e3d6000fd5b5050604080518481529051600160a060020a03861693507f0f6798a560793a54c3bcfe86a93cde1e73087d944c0ea20544137d412139688592509081900360200190a2604080518281529051600160a060020a038416916000917fddf252ad1be2c89b69c2b068fc378daa952ba7f163c4a11628f55a4df523b3ef9181900360200190a35050565b6000612bfe828561237f565b905080831115612c9957600254604080517fda46098c000000000000000000000000000000000000000000000000000000008152600160a060020a0385811660048301528781166024830152600060448301819052925193169263da46098c9260648084019391929182900301818387803b158015612c7c57600080fd5b505af1158015612c90573d6000803e3d6000fd5b50505050612d28565b600254604080517f97d88cd2000000000000000000000000000000000000000000000000000000008152600160a060020a038581166004830152878116602483015260448201879052915191909216916397d88cd291606480830192600092919082900301818387803b158015612d0f57600080fd5b505af1158015612d23573d6000803e3d6000fd5b505050505b83600160a060020a031682600160a060020a03167f8c5be1e5ebec7d5bd14f71427d1e84f3dd0314c0f7b2291e5b200ac8c7c3b925612d67858861237f565b60408051918252519081900360200190a350505050565b6000903b1190565b600254604080517f5fd72d16000000000000000000000000000000000000000000000000000000008152600160a060020a03848116600483015286811660248301526044820186905291519190921691635fd72d1691606480830192600092919082900301818387803b158015612dfc57600080fd5b505af1158015612e10573d6000803e3d6000fd5b5050505082600160a060020a031681600160a060020a03167f8c5be1e5ebec7d5bd14f71427d1e84f3dd0314c0f7b2291e5b200ac8c7c3b925612e53848761237f565b60408051918252519081900360200190a3505050560020657865637574652066756e6374696f6e0000000000000000000000000000005573657220646f6573206e6f742068617665207065726d697373696f6e20746f55736572206d757374206e6f7420626520626c61636b6c697374656400000000a165627a7a72305820140303d865657cbc8b5c95b3bae78a1ee8c0c7c60a91c433fe14941e53f77d9a0029608060405260008054600160a060020a031990811633179091556001805490911690556106e7806100316000396000f3006080604052600436106100e55763ffffffff7c010000000000000000000000000000000000000000000000000000000060003504166318160ddd81146100ea57806321e5383a1461011157806327e235e3146101375780634e71e0c81461015857806355b6ed5c1461016d5780635fd72d161461019457806382838c76146101be5780638da5cb5b146101d657806397d88cd214610207578063cf8eeb7e14610231578063da46098c14610255578063e30443bc1461027f578063e30c3978146102a3578063e468688e146102b8578063f2fde38b146102d0578063f7ea7a3d146102f1575b600080fd5b3480156100f657600080fd5b506100ff610309565b60408051918252519081900360200190f35b34801561011d57600080fd5b50610135600160a060020a036004351660243561030f565b005b34801561014357600080fd5b506100ff600160a060020a036004351661036f565b34801561016457600080fd5b50610135610381565b34801561017957600080fd5b506100ff600160a060020a0360043581169060243516610409565b3480156101a057600080fd5b50610135600160a060020a0360043581169060243516604435610426565b3480156101ca57600080fd5b506101356004356104a4565b3480156101e257600080fd5b506101eb6104d4565b60408051600160a060020a039092168252519081900360200190f35b34801561021357600080fd5b50610135600160a060020a03600435811690602435166044356104e3565b34801561023d57600080fd5b50610135600160a060020a0360043516602435610530565b34801561026157600080fd5b50610135600160a060020a0360043581169060243516604435610570565b34801561028b57600080fd5b50610135600160a060020a03600435166024356105b3565b3480156102af57600080fd5b506101eb6105e6565b3480156102c457600080fd5b506101356004356105f5565b3480156102dc57600080fd5b50610135600160a060020a036004351661061f565b3480156102fd57600080fd5b5061013560043561067a565b60045481565b600054600160a060020a0316331461032657600080fd5b600160a060020a03821660009081526003602052604090205461034f908263ffffffff61069616565b600160a060020a0390921660009081526003602052604090209190915550565b60036020526000908152604090205481565b600154600160a060020a0316331461039857600080fd5b60015460008054604051600160a060020a0393841693909116917f8be0079c531659141344cd1fd0a4f28419497f9722a3daafe3b4186f6b6457e091a3600180546000805473ffffffffffffffffffffffffffffffffffffffff19908116600160a060020a03841617909155169055565b600260209081526000928352604080842090915290825290205481565b600054600160a060020a0316331461043d57600080fd5b600160a060020a03808416600090815260026020908152604080832093861683529290522054610473908263ffffffff61069616565b600160a060020a03938416600090815260026020908152604080832095909616825293909352929091209190915550565b600054600160a060020a031633146104bb57600080fd5b6004546104ce908263ffffffff6106a916565b60045550565b600054600160a060020a031681565b600054600160a060020a031633146104fa57600080fd5b600160a060020a03808416600090815260026020908152604080832093861683529290522054610473908263ffffffff6106a916565b600054600160a060020a0316331461054757600080fd5b600160a060020a03821660009081526003602052604090205461034f908263ffffffff6106a916565b600054600160a060020a0316331461058757600080fd5b600160a060020a0392831660009081526002602090815260408083209490951682529290925291902055565b600054600160a060020a031633146105ca57600080fd5b600160a060020a03909116600090815260036020526040902055565b600154600160a060020a031681565b600054600160a060020a0316331461060c57600080fd5b6004546104ce908263ffffffff61069616565b600054600160a060020a0316331461063657600080fd5b600160a060020a038116151561064b57600080fd5b6001805473ffffffffffffffffffffffffffffffffffffffff1916600160a060020a0392909216919091179055565b600054600160a060020a0316331461069157600080fd5b600455565b818101828110156106a357fe5b92915050565b6000828211156106b557fe5b509003905600a165627a7a7230582032ddf97d0bc66a7c3294cced0402123ff13218ae899d994703d8b4c013c3e4a60029",
  "source": "pragma solidity ^0.4.24;\n\nimport \"../permissionedToken/PermissionedToken.sol\";\nimport \"../carbonToken/CarbonDollar.sol\";\nimport \"openzeppelin-solidity/contracts/AddressUtils.sol\";\n\n/**\n* @title WhitelistedToken\n* @notice A WhitelistedToken can be converted into CUSD and vice versa. Converting a WT into a CUSD\n* is the only way for a user to obtain CUSD. This is a permissioned token, so users have to be \n* whitelisted before they can do any mint/burn/convert operation.\n*/\ncontract WhitelistedToken is PermissionedToken {\n\n\n    address public cusdAddress;\n\n    /**\n        Events\n     */\n    event CUSDAddressChanged(address indexed oldCUSD, address indexed newCUSD);\n    event MintedToCUSD(address indexed user, uint256 amount);\n    event ConvertedToCUSD(address indexed user, uint256 amount);\n\n    /**\n    * @notice Constructor sets the regulator contract and the address of the\n    * CarbonUSD meta-token contract. The latter is necessary in order to make transactions\n    * with the CarbonDollar smart contract.\n    */\n    constructor(address _regulator, address _cusd) public PermissionedToken(_regulator) {\n\n        // base class fields\n        regulator = Regulator(_regulator);\n\n        cusdAddress = _cusd;\n\n    }\n\n    /**\n    * @notice Mints CarbonUSD for the user. Stores the WT0 that backs the CarbonUSD\n    * into the CarbonUSD contract's escrow account.\n    * @param _to The address of the receiver\n    * @param _amount The number of CarbonTokens to mint to user\n    */\n    function mintCUSD(address _to, uint256 _amount) public requiresPermission whenNotPaused userNotBlacklisted(_to) {\n        return _mintCUSD(_to, _amount);\n    }\n\n    /**\n    * @notice Converts WT0 to CarbonUSD for the user. Stores the WT0 that backs the CarbonUSD\n    * into the CarbonUSD contract's escrow account.\n    * @param _amount The number of Whitelisted tokens to convert\n    */\n    function convertWT(uint256 _amount) public userNotBlacklisted(msg.sender) whenNotPaused {\n        require(balanceOf(msg.sender) >= _amount, \"Conversion amount should be less than balance\");\n        _burn(msg.sender, _amount);\n        _mintCUSD(msg.sender, _amount);\n        emit ConvertedToCUSD(msg.sender, _amount);\n    }\n\n    /**\n     * @notice Change the cusd address.\n     * @param _cusd the cusd address.\n     */\n    function setCUSDAddress(address _cusd) public onlyOwner {\n        require(_cusd != address(cusdAddress), \"Must be a new cusd address\");\n        require(AddressUtils.isContract(_cusd), \"Must be an actual contract\");\n        address oldCUSD = address(cusdAddress);\n        cusdAddress = _cusd;\n        emit CUSDAddressChanged(oldCUSD, _cusd);\n    }\n\n    function _mintCUSD(address _to, uint256 _amount) internal {\n        require(_to != cusdAddress, \"Cannot mint to CarbonUSD contract\"); // This is to prevent Carbon Labs from printing money out of thin air!\n        CarbonDollar(cusdAddress).mint(_to, _amount);\n        _mint(cusdAddress, _amount);\n        emit MintedToCUSD(_to, _amount);\n    }\n}",
  "sourcePath": "/Users/nicholaspai/Carbon/fiat_gateway/contracts/tokens/whitelistedToken/WhitelistedToken.sol",
  "compiler": {
    "name": "solc",
    "version": "0.4.25+commit.59dbf8f1.Emscripten.clang"
  },
  "schemaVersion": "3.0.0-beta.1",
  "updatedAt": "2018-12-03T19:31:40.758Z"
}