{
  "contractName": "WhitelistedTokenRegulator",
  "abi": [
    {
      "constant": false,
      "inputs": [
        {
          "name": "_who",
          "type": "address"
        }
      ],
      "name": "removeBlacklistSpender",
      "outputs": [],
      "payable": false,
      "stateMutability": "nonpayable",
      "type": "function"
    },
    {
      "constant": false,
      "inputs": [
        {
          "name": "_who",
          "type": "address"
        }
      ],
      "name": "setWhitelistedUser",
      "outputs": [],
      "payable": false,
      "stateMutability": "nonpayable",
      "type": "function"
    },
    {
      "constant": false,
      "inputs": [],
      "name": "claimPermissionOwnership",
      "outputs": [],
      "payable": false,
      "stateMutability": "nonpayable",
      "type": "function"
    },
    {
      "constant": true,
      "inputs": [
        {
          "name": "_who",
          "type": "address"
        },
        {
          "name": "_methodsignature",
          "type": "bytes4"
        }
      ],
      "name": "hasUserPermission",
      "outputs": [
        {
          "name": "",
          "type": "bool"
        }
      ],
      "payable": false,
      "stateMutability": "view",
      "type": "function"
    },
    {
      "constant": true,
      "inputs": [
        {
          "name": "_methodsignature",
          "type": "bytes4"
        }
      ],
      "name": "getPermission",
      "outputs": [
        {
          "name": "name",
          "type": "string"
        },
        {
          "name": "description",
          "type": "string"
        },
        {
          "name": "contract_name",
          "type": "string"
        }
      ],
      "payable": false,
      "stateMutability": "view",
      "type": "function"
    },
    {
      "constant": false,
      "inputs": [
        {
          "name": "_who",
          "type": "address"
        },
        {
          "name": "_methodsignature",
          "type": "bytes4"
        }
      ],
      "name": "setUserPermission",
      "outputs": [],
      "payable": false,
      "stateMutability": "nonpayable",
      "type": "function"
    },
    {
      "constant": false,
      "inputs": [
        {
          "name": "_who",
          "type": "address"
        }
      ],
      "name": "setBlacklistDestroyer",
      "outputs": [],
      "payable": false,
      "stateMutability": "nonpayable",
      "type": "function"
    },
    {
      "constant": false,
      "inputs": [
        {
          "name": "_who",
          "type": "address"
        }
      ],
      "name": "removeMinter",
      "outputs": [],
      "payable": false,
      "stateMutability": "nonpayable",
      "type": "function"
    },
    {
      "constant": false,
      "inputs": [
        {
          "name": "_who",
          "type": "address"
        }
      ],
      "name": "removeValidator",
      "outputs": [],
      "payable": false,
      "stateMutability": "nonpayable",
      "type": "function"
    },
    {
      "constant": false,
      "inputs": [
        {
          "name": "_who",
          "type": "address"
        }
      ],
      "name": "addValidator",
      "outputs": [],
      "payable": false,
      "stateMutability": "nonpayable",
      "type": "function"
    },
    {
      "constant": false,
      "inputs": [],
      "name": "claimOwnership",
      "outputs": [],
      "payable": false,
      "stateMutability": "nonpayable",
      "type": "function"
    },
    {
      "constant": false,
      "inputs": [
        {
          "name": "_who",
          "type": "address"
        },
        {
          "name": "_methodsignature",
          "type": "bytes4"
        }
      ],
      "name": "removeUserPermission",
      "outputs": [],
      "payable": false,
      "stateMutability": "nonpayable",
      "type": "function"
    },
    {
      "constant": false,
      "inputs": [
        {
          "name": "_who",
          "type": "address"
        }
      ],
      "name": "removeBlacklistDestroyer",
      "outputs": [],
      "payable": false,
      "stateMutability": "nonpayable",
      "type": "function"
    },
    {
      "constant": false,
      "inputs": [
        {
          "name": "_methodsignature",
          "type": "bytes4"
        },
        {
          "name": "_permissionName",
          "type": "string"
        },
        {
          "name": "_permissionDescription",
          "type": "string"
        },
        {
          "name": "_contractName",
          "type": "string"
        }
      ],
      "name": "addPermission",
      "outputs": [],
      "payable": false,
      "stateMutability": "nonpayable",
      "type": "function"
    },
    {
      "constant": false,
      "inputs": [],
      "name": "claimValidatorOwnership",
      "outputs": [],
      "payable": false,
      "stateMutability": "nonpayable",
      "type": "function"
    },
    {
      "constant": true,
      "inputs": [],
      "name": "owner",
      "outputs": [
        {
          "name": "",
          "type": "address"
        }
      ],
      "payable": false,
      "stateMutability": "view",
      "type": "function"
    },
    {
      "constant": true,
      "inputs": [
        {
          "name": "_who",
          "type": "address"
        }
      ],
      "name": "isBlacklistSpender",
      "outputs": [
        {
          "name": "",
          "type": "bool"
        }
      ],
      "payable": false,
      "stateMutability": "view",
      "type": "function"
    },
    {
      "constant": true,
      "inputs": [
        {
          "name": "_methodsignature",
          "type": "bytes4"
        }
      ],
      "name": "isPermission",
      "outputs": [
        {
          "name": "",
          "type": "bool"
        }
      ],
      "payable": false,
      "stateMutability": "view",
      "type": "function"
    },
    {
      "constant": true,
      "inputs": [],
      "name": "permissions",
      "outputs": [
        {
          "name": "",
          "type": "address"
        }
      ],
      "payable": false,
      "stateMutability": "view",
      "type": "function"
    },
    {
      "constant": false,
      "inputs": [
        {
          "name": "_newStorageAddress",
          "type": "address"
        }
      ],
      "name": "setPermissionStorage",
      "outputs": [],
      "payable": false,
      "stateMutability": "nonpayable",
      "type": "function"
    },
    {
      "constant": false,
      "inputs": [
        {
          "name": "_methodsignature",
          "type": "bytes4"
        }
      ],
      "name": "removePermission",
      "outputs": [],
      "payable": false,
      "stateMutability": "nonpayable",
      "type": "function"
    },
    {
      "constant": false,
      "inputs": [
        {
          "name": "_who",
          "type": "address"
        }
      ],
      "name": "setBlacklistSpender",
      "outputs": [],
      "payable": false,
      "stateMutability": "nonpayable",
      "type": "function"
    },
    {
      "constant": false,
      "inputs": [
        {
          "name": "_who",
          "type": "address"
        }
      ],
      "name": "setBlacklistedUser",
      "outputs": [],
      "payable": false,
      "stateMutability": "nonpayable",
      "type": "function"
    },
    {
      "constant": true,
      "inputs": [],
      "name": "validators",
      "outputs": [
        {
          "name": "",
          "type": "address"
        }
      ],
      "payable": false,
      "stateMutability": "view",
      "type": "function"
    },
    {
      "constant": false,
      "inputs": [
        {
          "name": "_who",
          "type": "address"
        }
      ],
      "name": "setNonlistedUser",
      "outputs": [],
      "payable": false,
      "stateMutability": "nonpayable",
      "type": "function"
    },
    {
      "constant": true,
      "inputs": [],
      "name": "pendingOwner",
      "outputs": [
        {
          "name": "",
          "type": "address"
        }
      ],
      "payable": false,
      "stateMutability": "view",
      "type": "function"
    },
    {
      "constant": false,
      "inputs": [
        {
          "name": "_newStorageAddress",
          "type": "address"
        }
      ],
      "name": "setValidatorStorage",
      "outputs": [],
      "payable": false,
      "stateMutability": "nonpayable",
      "type": "function"
    },
    {
      "constant": false,
      "inputs": [
        {
          "name": "_newOwner",
          "type": "address"
        }
      ],
      "name": "transferOwnership",
      "outputs": [],
      "payable": false,
      "stateMutability": "nonpayable",
      "type": "function"
    },
    {
      "constant": true,
      "inputs": [
        {
          "name": "_who",
          "type": "address"
        }
      ],
      "name": "isBlacklistDestroyer",
      "outputs": [
        {
          "name": "",
          "type": "bool"
        }
      ],
      "payable": false,
      "stateMutability": "view",
      "type": "function"
    },
    {
      "constant": true,
      "inputs": [
        {
          "name": "_who",
          "type": "address"
        }
      ],
      "name": "isValidator",
      "outputs": [
        {
          "name": "",
          "type": "bool"
        }
      ],
      "payable": false,
      "stateMutability": "view",
      "type": "function"
    },
    {
      "constant": false,
      "inputs": [
        {
          "name": "_who",
          "type": "address"
        }
      ],
      "name": "setMinter",
      "outputs": [],
      "payable": false,
      "stateMutability": "nonpayable",
      "type": "function"
    },
    {
      "inputs": [
        {
          "name": "_permissionSheetAddress",
          "type": "address"
        },
        {
          "name": "_validatorSheetAddress",
          "type": "address"
        }
      ],
      "payable": false,
      "stateMutability": "nonpayable",
      "type": "constructor"
    },
    {
      "anonymous": false,
      "inputs": [
        {
          "indexed": true,
          "name": "who",
          "type": "address"
        }
      ],
      "name": "LogWhitelistedUser",
      "type": "event"
    },
    {
      "anonymous": false,
      "inputs": [
        {
          "indexed": true,
          "name": "who",
          "type": "address"
        }
      ],
      "name": "LogBlacklistedUser",
      "type": "event"
    },
    {
      "anonymous": false,
      "inputs": [
        {
          "indexed": true,
          "name": "who",
          "type": "address"
        }
      ],
      "name": "LogNonlistedUser",
      "type": "event"
    },
    {
      "anonymous": false,
      "inputs": [
        {
          "indexed": true,
          "name": "who",
          "type": "address"
        }
      ],
      "name": "LogSetMinter",
      "type": "event"
    },
    {
      "anonymous": false,
      "inputs": [
        {
          "indexed": true,
          "name": "who",
          "type": "address"
        }
      ],
      "name": "LogRemovedMinter",
      "type": "event"
    },
    {
      "anonymous": false,
      "inputs": [
        {
          "indexed": true,
          "name": "who",
          "type": "address"
        }
      ],
      "name": "LogSetBlacklistDestroyer",
      "type": "event"
    },
    {
      "anonymous": false,
      "inputs": [
        {
          "indexed": true,
          "name": "who",
          "type": "address"
        }
      ],
      "name": "LogRemovedBlacklistDestroyer",
      "type": "event"
    },
    {
      "anonymous": false,
      "inputs": [
        {
          "indexed": true,
          "name": "who",
          "type": "address"
        }
      ],
      "name": "LogSetBlacklistSpender",
      "type": "event"
    },
    {
      "anonymous": false,
      "inputs": [
        {
          "indexed": true,
          "name": "who",
          "type": "address"
        }
      ],
      "name": "LogRemovedBlacklistSpender",
      "type": "event"
    },
    {
      "anonymous": false,
      "inputs": [
        {
          "indexed": false,
          "name": "_old",
          "type": "address"
        },
        {
          "indexed": false,
          "name": "_new",
          "type": "address"
        }
      ],
      "name": "ChangedPermissionStorage",
      "type": "event"
    },
    {
      "anonymous": false,
      "inputs": [
        {
          "indexed": false,
          "name": "_old",
          "type": "address"
        },
        {
          "indexed": false,
          "name": "_new",
          "type": "address"
        }
      ],
      "name": "ChangedValidatorStorage",
      "type": "event"
    },
    {
      "anonymous": false,
      "inputs": [
        {
          "indexed": true,
          "name": "previousOwner",
          "type": "address"
        },
        {
          "indexed": true,
          "name": "newOwner",
          "type": "address"
        }
      ],
      "name": "OwnershipTransferred",
      "type": "event"
    },
    {
      "constant": true,
      "inputs": [
        {
          "name": "_who",
          "type": "address"
        }
      ],
      "name": "isMinter",
      "outputs": [
        {
          "name": "",
          "type": "bool"
        }
      ],
      "payable": false,
      "stateMutability": "view",
      "type": "function"
    },
    {
      "constant": true,
      "inputs": [
        {
          "name": "_who",
          "type": "address"
        }
      ],
      "name": "isWhitelistedUser",
      "outputs": [
        {
          "name": "",
          "type": "bool"
        }
      ],
      "payable": false,
      "stateMutability": "view",
      "type": "function"
    },
    {
      "constant": true,
      "inputs": [
        {
          "name": "_who",
          "type": "address"
        }
      ],
      "name": "isBlacklistedUser",
      "outputs": [
        {
          "name": "",
          "type": "bool"
        }
      ],
      "payable": false,
      "stateMutability": "view",
      "type": "function"
    },
    {
      "constant": true,
      "inputs": [
        {
          "name": "_who",
          "type": "address"
        }
      ],
      "name": "isNonlistedUser",
      "outputs": [
        {
          "name": "",
          "type": "bool"
        }
      ],
      "payable": false,
      "stateMutability": "view",
      "type": "function"
    }
  ],
  "bytecode": "0x608060405234801561001057600080fd5b506040516040806200600283398101604052805160209091015160008054600160a060020a03199081163317909155600180548216905560028054600160a060020a0394851690831617905560038054939092169216919091179055615f86806200007c6000396000f3006080604052600436106101b65763ffffffff7c0100000000000000000000000000000000000000000000000000000000600035041663029043a481146101bb57806309533303146101eb5780630bdb3d5a1461021957806314db6d581461022e5780631830f493146102955780631c870eee14610413578063231a439e146104665780633092afd51461049457806340a141ff146104c25780634d238c8e146104f05780634d54dc961461051e5780634e71e0c81461054c5780635317e44414610561578063556b6384146105b4578063780bfed0146105e25780637ccce851146106de57806385a2785e1461070c5780638da5cb5b1461072157806391c4529f1461075f578063933aa6671461078d578063aa271e1a146107c7578063ab8c71c0146107f5578063aef5eb801461080a578063b8ccbd1714610838578063c1331bc314610872578063c56bea64146108a0578063ca1e7819146108ce578063cd495391146108e3578063d88c271e14610911578063e30c39781461093f578063e51207e714610954578063f2fde38b14610982578063f530259e146109b0578063facd743b146109de578063fca3b5aa14610a0c575b600080fd5b3480156101c757600080fd5b506101e973ffffffffffffffffffffffffffffffffffffffff60043516610a3a565b005b3480156101f757600080fd5b506101e973ffffffffffffffffffffffffffffffffffffffff60043516610e18565b34801561022557600080fd5b506101e9610e9a565b34801561023a57600080fd5b5061028173ffffffffffffffffffffffffffffffffffffffff600435167fffffffff0000000000000000000000000000000000000000000000000000000060243516610f3a565b604080519115158252519081900360200190f35b3480156102a157600080fd5b506102cf7fffffffff000000000000000000000000000000000000000000000000000000006004351661100d565b60405180806020018060200180602001848103845287818151815260200191508051906020019080838360005b838110156103145781810151838201526020016102fc565b50505050905090810190601f1680156103415780820380516001836020036101000a031916815260200191505b50848103835286518152865160209182019188019080838360005b8381101561037457818101518382015260200161035c565b50505050905090810190601f1680156103a15780820380516001836020036101000a031916815260200191505b50848103825285518152855160209182019187019080838360005b838110156103d45781810151838201526020016103bc565b50505050905090810190601f1680156104015780820380516001836020036101000a031916815260200191505b50965050505050505060405180910390f35b34801561041f57600080fd5b506101e973ffffffffffffffffffffffffffffffffffffffff600435167fffffffff00000000000000000000000000000000000000000000000000000000602435166111ec565b34801561047257600080fd5b506101e973ffffffffffffffffffffffffffffffffffffffff6004351661131a565b3480156104a057600080fd5b506101e973ffffffffffffffffffffffffffffffffffffffff600435166116f8565b3480156104ce57600080fd5b506101e973ffffffffffffffffffffffffffffffffffffffff60043516611777565b3480156104fc57600080fd5b506101e973ffffffffffffffffffffffffffffffffffffffff6004351661182a565b34801561052a57600080fd5b5061028173ffffffffffffffffffffffffffffffffffffffff600435166118c2565b34801561055857600080fd5b506101e9611996565b34801561056d57600080fd5b506101e973ffffffffffffffffffffffffffffffffffffffff600435167fffffffff0000000000000000000000000000000000000000000000000000000060243516611a50565b3480156105c057600080fd5b506101e973ffffffffffffffffffffffffffffffffffffffff60043516611b62565b3480156105ee57600080fd5b5060408051602060046024803582810135601f81018590048502860185019096528585526101e99583357fffffffff000000000000000000000000000000000000000000000000000000001695369560449491939091019190819084018382808284375050604080516020601f89358b018035918201839004830284018301909452808352979a99988101979196509182019450925082915084018382808284375050604080516020601f89358b018035918201839004830284018301909452808352979a999881019791965091820194509250829150840183828082843750949750611f409650505050505050565b3480156106ea57600080fd5b5061028173ffffffffffffffffffffffffffffffffffffffff600435166121a2565b34801561071857600080fd5b506101e961223f565b34801561072d57600080fd5b506107366122c5565b6040805173ffffffffffffffffffffffffffffffffffffffff9092168252519081900360200190f35b34801561076b57600080fd5b5061028173ffffffffffffffffffffffffffffffffffffffff600435166122e1565b34801561079957600080fd5b506102817fffffffff000000000000000000000000000000000000000000000000000000006004351661236d565b3480156107d357600080fd5b5061028173ffffffffffffffffffffffffffffffffffffffff60043516612433565b34801561080157600080fd5b506107366124cf565b34801561081657600080fd5b506101e973ffffffffffffffffffffffffffffffffffffffff600435166124eb565b34801561084457600080fd5b506101e97fffffffff00000000000000000000000000000000000000000000000000000000600435166126bf565b34801561087e57600080fd5b506101e973ffffffffffffffffffffffffffffffffffffffff600435166127c9565b3480156108ac57600080fd5b506101e973ffffffffffffffffffffffffffffffffffffffff60043516612ba7565b3480156108da57600080fd5b50610736612c26565b3480156108ef57600080fd5b506101e973ffffffffffffffffffffffffffffffffffffffff60043516612c42565b34801561091d57600080fd5b5061028173ffffffffffffffffffffffffffffffffffffffff60043516612cc1565b34801561094b57600080fd5b50610736612d5d565b34801561096057600080fd5b506101e973ffffffffffffffffffffffffffffffffffffffff60043516612d79565b34801561098e57600080fd5b506101e973ffffffffffffffffffffffffffffffffffffffff60043516612f4d565b3480156109bc57600080fd5b5061028173ffffffffffffffffffffffffffffffffffffffff60043516612fda565b3480156109ea57600080fd5b5061028173ffffffffffffffffffffffffffffffffffffffff60043516613066565b348015610a1857600080fd5b506101e973ffffffffffffffffffffffffffffffffffffffff600435166130de565b610a4333613066565b1515610ab057604080517f08c379a000000000000000000000000000000000000000000000000000000000815260206004820152601860248201527f53656e646572206d7573742062652076616c696461746f720000000000000000604482015290519081900360640190fd5b600254604080517f8f959f54000000000000000000000000000000000000000000000000000000008152905173ffffffffffffffffffffffffffffffffffffffff9092169163933aa667918391638f959f54916004808201926020929091908290030181600087803b158015610b2557600080fd5b505af1158015610b39573d6000803e3d6000fd5b505050506040513d6020811015610b4f57600080fd5b5051604080517c010000000000000000000000000000000000000000000000000000000063ffffffff85160281527fffffffff0000000000000000000000000000000000000000000000000000000090921660048301525160248083019260209291908290030181600087803b158015610bc857600080fd5b505af1158015610bdc573d6000803e3d6000fd5b505050506040513d6020811015610bf257600080fd5b50511515610c8757604080517f08c379a000000000000000000000000000000000000000000000000000000000815260206004820152602960248201527f426c61636b6c697374207370656e64696e67206e6f7420737570706f7274656460448201527f20627920746f6b656e0000000000000000000000000000000000000000000000606482015290519081900360840190fd5b600254604080517f8f959f54000000000000000000000000000000000000000000000000000000008152905173ffffffffffffffffffffffffffffffffffffffff90921691635317e4449184918491638f959f549160048083019260209291908290030181600087803b158015610cfd57600080fd5b505af1158015610d11573d6000803e3d6000fd5b505050506040513d6020811015610d2757600080fd5b5051604080517c010000000000000000000000000000000000000000000000000000000063ffffffff861602815273ffffffffffffffffffffffffffffffffffffffff90931660048401527fffffffff00000000000000000000000000000000000000000000000000000000909116602483015251604480830192600092919082900301818387803b158015610dbc57600080fd5b505af1158015610dd0573d6000803e3d6000fd5b505060405173ffffffffffffffffffffffffffffffffffffffff841692507fb5ead9fec464a658dd452c45cc1f51bd31f3a2d4bc054f90ae1fa8051794b0f59150600090a250565b610e2133613066565b1515610e8e57604080517f08c379a000000000000000000000000000000000000000000000000000000000815260206004820152601860248201527f53656e646572206d7573742062652076616c696461746f720000000000000000604482015290519081900360640190fd5b610e978161315d565b50565b600260009054906101000a900473ffffffffffffffffffffffffffffffffffffffff1673ffffffffffffffffffffffffffffffffffffffff16634e71e0c86040518163ffffffff167c0100000000000000000000000000000000000000000000000000000000028152600401600060405180830381600087803b158015610f2057600080fd5b505af1158015610f34573d6000803e3d6000fd5b50505050565b600254604080517f14db6d5800000000000000000000000000000000000000000000000000000000815273ffffffffffffffffffffffffffffffffffffffff85811660048301527fffffffff0000000000000000000000000000000000000000000000000000000085166024830152915160009392909216916314db6d589160448082019260209290919082900301818787803b158015610fda57600080fd5b505af1158015610fee573d6000803e3d6000fd5b505050506040513d602081101561100457600080fd5b50519392505050565b600254604080517f395a7b300000000000000000000000000000000000000000000000000000000081527fffffffff000000000000000000000000000000000000000000000000000000008416600482015290516060928392839273ffffffffffffffffffffffffffffffffffffffff9092169163395a7b309160248082019260009290919082900301818387803b1580156110a857600080fd5b505af11580156110bc573d6000803e3d6000fd5b505050506040513d6000823e601f3d9081017fffffffffffffffffffffffffffffffffffffffffffffffffffffffffffffffe0168201604052606081101561110357600080fd5b81019080805164010000000081111561111b57600080fd5b8201602081018481111561112e57600080fd5b815164010000000081118282018710171561114857600080fd5b5050929190602001805164010000000081111561116457600080fd5b8201602081018481111561117757600080fd5b815164010000000081118282018710171561119157600080fd5b505092919060200180516401000000008111156111ad57600080fd5b820160208101848111156111c057600080fd5b81516401000000008111828201871017156111da57600080fd5b50959a94995097509295505050505050565b6111f533613066565b151561126257604080517f08c379a000000000000000000000000000000000000000000000000000000000815260206004820152601860248201527f53656e646572206d7573742062652076616c696461746f720000000000000000604482015290519081900360640190fd5b600254604080517f1c870eee00000000000000000000000000000000000000000000000000000000815273ffffffffffffffffffffffffffffffffffffffff85811660048301527fffffffff000000000000000000000000000000000000000000000000000000008516602483015291519190921691631c870eee91604480830192600092919082900301818387803b1580156112fe57600080fd5b505af1158015611312573d6000803e3d6000fd5b505050505050565b61132333613066565b151561139057604080517f08c379a000000000000000000000000000000000000000000000000000000000815260206004820152601860248201527f53656e646572206d7573742062652076616c696461746f720000000000000000604482015290519081900360640190fd5b600254604080517fab96cb46000000000000000000000000000000000000000000000000000000008152905173ffffffffffffffffffffffffffffffffffffffff9092169163933aa66791839163ab96cb46916004808201926020929091908290030181600087803b15801561140557600080fd5b505af1158015611419573d6000803e3d6000fd5b505050506040513d602081101561142f57600080fd5b5051604080517c010000000000000000000000000000000000000000000000000000000063ffffffff85160281527fffffffff0000000000000000000000000000000000000000000000000000000090921660048301525160248083019260209291908290030181600087803b1580156114a857600080fd5b505af11580156114bc573d6000803e3d6000fd5b505050506040513d60208110156114d257600080fd5b5051151561156757604080517f08c379a000000000000000000000000000000000000000000000000000000000815260206004820152603260248201527f426c61636b6c69737420746f6b656e206465737472756374696f6e206e6f742060448201527f737570706f7274656420627920746f6b656e0000000000000000000000000000606482015290519081900360840190fd5b600254604080517fab96cb46000000000000000000000000000000000000000000000000000000008152905173ffffffffffffffffffffffffffffffffffffffff90921691631c870eee918491849163ab96cb469160048083019260209291908290030181600087803b1580156115dd57600080fd5b505af11580156115f1573d6000803e3d6000fd5b505050506040513d602081101561160757600080fd5b5051604080517c010000000000000000000000000000000000000000000000000000000063ffffffff861602815273ffffffffffffffffffffffffffffffffffffffff90931660048401527fffffffff00000000000000000000000000000000000000000000000000000000909116602483015251604480830192600092919082900301818387803b15801561169c57600080fd5b505af11580156116b0573d6000803e3d6000fd5b505060405173ffffffffffffffffffffffffffffffffffffffff841692507fc8cc73c74b92642427979fdf8cbcd3f3a1e5a071058f68d87d200483e90278b59150600090a250565b61170133613066565b151561176e57604080517f08c379a000000000000000000000000000000000000000000000000000000000815260206004820152601860248201527f53656e646572206d7573742062652076616c696461746f720000000000000000604482015290519081900360640190fd5b610e978161348a565b60005473ffffffffffffffffffffffffffffffffffffffff16331461179b57600080fd5b600354604080517f40a141ff00000000000000000000000000000000000000000000000000000000815273ffffffffffffffffffffffffffffffffffffffff8481166004830152915191909216916340a141ff91602480830192600092919082900301818387803b15801561180f57600080fd5b505af1158015611823573d6000803e3d6000fd5b5050505050565b60005473ffffffffffffffffffffffffffffffffffffffff16331461184e57600080fd5b600354604080517f4d238c8e00000000000000000000000000000000000000000000000000000000815273ffffffffffffffffffffffffffffffffffffffff848116600483015291519190921691634d238c8e91602480830192600092919082900301818387803b15801561180f57600080fd5b600061197f82600260009054906101000a900473ffffffffffffffffffffffffffffffffffffffff1673ffffffffffffffffffffffffffffffffffffffff1663639c44cf6040518163ffffffff167c0100000000000000000000000000000000000000000000000000000000028152600401602060405180830381600087803b15801561194e57600080fd5b505af1158015611962573d6000803e3d6000fd5b505050506040513d602081101561197857600080fd5b5051610f3a565b1580156119905750611990826137b7565b92915050565b60015473ffffffffffffffffffffffffffffffffffffffff1633146119ba57600080fd5b6001546000805460405173ffffffffffffffffffffffffffffffffffffffff93841693909116917f8be0079c531659141344cd1fd0a4f28419497f9722a3daafe3b4186f6b6457e091a360018054600080547fffffffffffffffffffffffff000000000000000000000000000000000000000090811673ffffffffffffffffffffffffffffffffffffffff841617909155169055565b611a5933613066565b1515611ac657604080517f08c379a000000000000000000000000000000000000000000000000000000000815260206004820152601860248201527f53656e646572206d7573742062652076616c696461746f720000000000000000604482015290519081900360640190fd5b600254604080517f5317e44400000000000000000000000000000000000000000000000000000000815273ffffffffffffffffffffffffffffffffffffffff85811660048301527fffffffff000000000000000000000000000000000000000000000000000000008516602483015291519190921691635317e44491604480830192600092919082900301818387803b1580156112fe57600080fd5b611b6b33613066565b1515611bd857604080517f08c379a000000000000000000000000000000000000000000000000000000000815260206004820152601860248201527f53656e646572206d7573742062652076616c696461746f720000000000000000604482015290519081900360640190fd5b600254604080517fab96cb46000000000000000000000000000000000000000000000000000000008152905173ffffffffffffffffffffffffffffffffffffffff9092169163933aa66791839163ab96cb46916004808201926020929091908290030181600087803b158015611c4d57600080fd5b505af1158015611c61573d6000803e3d6000fd5b505050506040513d6020811015611c7757600080fd5b5051604080517c010000000000000000000000000000000000000000000000000000000063ffffffff85160281527fffffffff0000000000000000000000000000000000000000000000000000000090921660048301525160248083019260209291908290030181600087803b158015611cf057600080fd5b505af1158015611d04573d6000803e3d6000fd5b505050506040513d6020811015611d1a57600080fd5b50511515611daf57604080517f08c379a000000000000000000000000000000000000000000000000000000000815260206004820152603260248201527f426c61636b6c69737420746f6b656e206465737472756374696f6e206e6f742060448201527f737570706f7274656420627920746f6b656e0000000000000000000000000000606482015290519081900360840190fd5b600254604080517fab96cb46000000000000000000000000000000000000000000000000000000008152905173ffffffffffffffffffffffffffffffffffffffff90921691635317e444918491849163ab96cb469160048083019260209291908290030181600087803b158015611e2557600080fd5b505af1158015611e39573d6000803e3d6000fd5b505050506040513d6020811015611e4f57600080fd5b5051604080517c010000000000000000000000000000000000000000000000000000000063ffffffff861602815273ffffffffffffffffffffffffffffffffffffffff90931660048401527fffffffff00000000000000000000000000000000000000000000000000000000909116602483015251604480830192600092919082900301818387803b158015611ee457600080fd5b505af1158015611ef8573d6000803e3d6000fd5b505060405173ffffffffffffffffffffffffffffffffffffffff841692507fcc060ec5d05ac54bd2af5095f9a42db1cc630ebbfb1146724d624b4ce89a5e849150600090a250565b611f4933613066565b1515611fb657604080517f08c379a000000000000000000000000000000000000000000000000000000000815260206004820152601860248201527f53656e646572206d7573742062652076616c696461746f720000000000000000604482015290519081900360640190fd5b6002546040517f780bfed00000000000000000000000000000000000000000000000000000000081527fffffffff0000000000000000000000000000000000000000000000000000000086166004820190815260806024830190815286516084840152865173ffffffffffffffffffffffffffffffffffffffff9094169363780bfed09389938993899389936044810191606482019160a40190602089019080838360005b8381101561207357818101518382015260200161205b565b50505050905090810190601f1680156120a05780820380516001836020036101000a031916815260200191505b50848103835286518152865160209182019188019080838360005b838110156120d35781810151838201526020016120bb565b50505050905090810190601f1680156121005780820380516001836020036101000a031916815260200191505b50848103825285518152855160209182019187019080838360005b8381101561213357818101518382015260200161211b565b50505050905090810190601f1680156121605780820380516001836020036101000a031916815260200191505b50975050505050505050600060405180830381600087803b15801561218457600080fd5b505af1158015612198573d6000803e3d6000fd5b5050505050505050565b600061222e82600260009054906101000a900473ffffffffffffffffffffffffffffffffffffffff1673ffffffffffffffffffffffffffffffffffffffff1663639c44cf6040518163ffffffff167c0100000000000000000000000000000000000000000000000000000000028152600401602060405180830381600087803b15801561194e57600080fd5b1580156119905750611990826138dc565b600360009054906101000a900473ffffffffffffffffffffffffffffffffffffffff1673ffffffffffffffffffffffffffffffffffffffff16634e71e0c86040518163ffffffff167c0100000000000000000000000000000000000000000000000000000000028152600401600060405180830381600087803b158015610f2057600080fd5b60005473ffffffffffffffffffffffffffffffffffffffff1681565b600061199082600260009054906101000a900473ffffffffffffffffffffffffffffffffffffffff1673ffffffffffffffffffffffffffffffffffffffff16638f959f546040518163ffffffff167c0100000000000000000000000000000000000000000000000000000000028152600401602060405180830381600087803b15801561194e57600080fd5b600254604080517f933aa6670000000000000000000000000000000000000000000000000000000081527fffffffff0000000000000000000000000000000000000000000000000000000084166004820152905160009273ffffffffffffffffffffffffffffffffffffffff169163933aa66791602480830192602092919082900301818787803b15801561240157600080fd5b505af1158015612415573d6000803e3d6000fd5b505050506040513d602081101561242b57600080fd5b505192915050565b600061243e826139fa565b8015611990575061199082600260009054906101000a900473ffffffffffffffffffffffffffffffffffffffff1673ffffffffffffffffffffffffffffffffffffffff16638b7c81096040518163ffffffff167c0100000000000000000000000000000000000000000000000000000000028152600401602060405180830381600087803b15801561194e57600080fd5b60025473ffffffffffffffffffffffffffffffffffffffff1681565b6000805473ffffffffffffffffffffffffffffffffffffffff16331461251057600080fd5b60025473ffffffffffffffffffffffffffffffffffffffff8381169116141561259a57604080517f08c379a000000000000000000000000000000000000000000000000000000000815260206004820152601e60248201527f4d7573742062652061206e6577207065726d697373696f6e2073686565740000604482015290519081900360640190fd5b6125a382613a86565b151561263657604080517f08c379a000000000000000000000000000000000000000000000000000000000815260206004820152603860248201527f43616e6e6f7420736574206120726567756c61746f722073746f72616765207460448201527f6f2061206e6f6e2d636f6e747261637420616464726573730000000000000000606482015290519081900360840190fd5b506002805473ffffffffffffffffffffffffffffffffffffffff8381167fffffffffffffffffffffffff0000000000000000000000000000000000000000831681179093556040805191909216808252602082019390935281517fe17aee9aa44ff533ce61ee89d13b1d2a8cb1143b69d05d08a5d136acae8a7707929181900390910190a15050565b6126c833613066565b151561273557604080517f08c379a000000000000000000000000000000000000000000000000000000000815260206004820152601860248201527f53656e646572206d7573742062652076616c696461746f720000000000000000604482015290519081900360640190fd5b600254604080517fb8ccbd170000000000000000000000000000000000000000000000000000000081527fffffffff0000000000000000000000000000000000000000000000000000000084166004820152905173ffffffffffffffffffffffffffffffffffffffff9092169163b8ccbd179160248082019260009290919082900301818387803b15801561180f57600080fd5b6127d233613066565b151561283f57604080517f08c379a000000000000000000000000000000000000000000000000000000000815260206004820152601860248201527f53656e646572206d7573742062652076616c696461746f720000000000000000604482015290519081900360640190fd5b600254604080517f8f959f54000000000000000000000000000000000000000000000000000000008152905173ffffffffffffffffffffffffffffffffffffffff9092169163933aa667918391638f959f54916004808201926020929091908290030181600087803b1580156128b457600080fd5b505af11580156128c8573d6000803e3d6000fd5b505050506040513d60208110156128de57600080fd5b5051604080517c010000000000000000000000000000000000000000000000000000000063ffffffff85160281527fffffffff0000000000000000000000000000000000000000000000000000000090921660048301525160248083019260209291908290030181600087803b15801561295757600080fd5b505af115801561296b573d6000803e3d6000fd5b505050506040513d602081101561298157600080fd5b50511515612a1657604080517f08c379a000000000000000000000000000000000000000000000000000000000815260206004820152602960248201527f426c61636b6c697374207370656e64696e67206e6f7420737570706f7274656460448201527f20627920746f6b656e0000000000000000000000000000000000000000000000606482015290519081900360840190fd5b600254604080517f8f959f54000000000000000000000000000000000000000000000000000000008152905173ffffffffffffffffffffffffffffffffffffffff90921691631c870eee9184918491638f959f549160048083019260209291908290030181600087803b158015612a8c57600080fd5b505af1158015612aa0573d6000803e3d6000fd5b505050506040513d6020811015612ab657600080fd5b5051604080517c010000000000000000000000000000000000000000000000000000000063ffffffff861602815273ffffffffffffffffffffffffffffffffffffffff90931660048401527fffffffff00000000000000000000000000000000000000000000000000000000909116602483015251604480830192600092919082900301818387803b158015612b4b57600080fd5b505af1158015612b5f573d6000803e3d6000fd5b505060405173ffffffffffffffffffffffffffffffffffffffff841692507feb9ec59379e252bf8accf2ecf164d50f79b20d66ba85abae9cc795ad1ba5e5a89150600090a250565b612bb033613066565b1515612c1d57604080517f08c379a000000000000000000000000000000000000000000000000000000000815260206004820152601860248201527f53656e646572206d7573742062652076616c696461746f720000000000000000604482015290519081900360640190fd5b610e9781613a8e565b60035473ffffffffffffffffffffffffffffffffffffffff1681565b612c4b33613066565b1515612cb857604080517f08c379a000000000000000000000000000000000000000000000000000000000815260206004820152601860248201527f53656e646572206d7573742062652076616c696461746f720000000000000000604482015290519081900360640190fd5b610e9781613dbb565b6000612d4d82600260009054906101000a900473ffffffffffffffffffffffffffffffffffffffff1673ffffffffffffffffffffffffffffffffffffffff1663639c44cf6040518163ffffffff167c0100000000000000000000000000000000000000000000000000000000028152600401602060405180830381600087803b15801561194e57600080fd5b80156119905750611990826140e8565b60015473ffffffffffffffffffffffffffffffffffffffff1681565b6000805473ffffffffffffffffffffffffffffffffffffffff163314612d9e57600080fd5b60035473ffffffffffffffffffffffffffffffffffffffff83811691161415612e2857604080517f08c379a000000000000000000000000000000000000000000000000000000000815260206004820152601d60248201527f4d7573742062652061206e65772076616c696461746f72207368656574000000604482015290519081900360640190fd5b612e3182613a86565b1515612ec457604080517f08c379a000000000000000000000000000000000000000000000000000000000815260206004820152603860248201527f43616e6e6f7420736574206120726567756c61746f722073746f72616765207460448201527f6f2061206e6f6e2d636f6e747261637420616464726573730000000000000000606482015290519081900360840190fd5b506003805473ffffffffffffffffffffffffffffffffffffffff8381167fffffffffffffffffffffffff0000000000000000000000000000000000000000831681179093556040805191909216808252602082019390935281517f8ca674c4f8f0a3a35b50833ae3d8d889663de2b78cdbe0765021594acec3cda2929181900390910190a15050565b60005473ffffffffffffffffffffffffffffffffffffffff163314612f7157600080fd5b73ffffffffffffffffffffffffffffffffffffffff81161515612f9357600080fd5b600180547fffffffffffffffffffffffff00000000000000000000000000000000000000001673ffffffffffffffffffffffffffffffffffffffff92909216919091179055565b600061199082600260009054906101000a900473ffffffffffffffffffffffffffffffffffffffff1673ffffffffffffffffffffffffffffffffffffffff1663ab96cb466040518163ffffffff167c0100000000000000000000000000000000000000000000000000000000028152600401602060405180830381600087803b15801561194e57600080fd5b600354604080517ffacd743b00000000000000000000000000000000000000000000000000000000815273ffffffffffffffffffffffffffffffffffffffff84811660048301529151600093929092169163facd743b9160248082019260209290919082900301818787803b15801561240157600080fd5b6130e733613066565b151561315457604080517f08c379a000000000000000000000000000000000000000000000000000000000815260206004820152601860248201527f53656e646572206d7573742062652076616c696461746f720000000000000000604482015290519081900360640190fd5b610e9781614205565b600254604080517f639c44cf000000000000000000000000000000000000000000000000000000008152905173ffffffffffffffffffffffffffffffffffffffff9092169163933aa66791839163639c44cf916004808201926020929091908290030181600087803b1580156131d257600080fd5b505af11580156131e6573d6000803e3d6000fd5b505050506040513d60208110156131fc57600080fd5b5051604080517c010000000000000000000000000000000000000000000000000000000063ffffffff85160281527fffffffff0000000000000000000000000000000000000000000000000000000090921660048301525160248083019260209291908290030181600087803b15801561327557600080fd5b505af1158015613289573d6000803e3d6000fd5b505050506040513d602081101561329f57600080fd5b5051151561333457604080517f08c379a000000000000000000000000000000000000000000000000000000000815260206004820152602960248201527f436f6e76657274696e6720746f2043555344206e6f7420737570706f7274656460448201527f20627920746f6b656e0000000000000000000000000000000000000000000000606482015290519081900360840190fd5b600254604080517f639c44cf000000000000000000000000000000000000000000000000000000008152905173ffffffffffffffffffffffffffffffffffffffff90921691631c870eee918491849163639c44cf9160048083019260209291908290030181600087803b1580156133aa57600080fd5b505af11580156133be573d6000803e3d6000fd5b505050506040513d60208110156133d457600080fd5b5051604080517c010000000000000000000000000000000000000000000000000000000063ffffffff861602815273ffffffffffffffffffffffffffffffffffffffff90931660048401527fffffffff00000000000000000000000000000000000000000000000000000000909116602483015251604480830192600092919082900301818387803b15801561346957600080fd5b505af115801561347d573d6000803e3d6000fd5b50505050610e9781614532565b600254604080517f8b7c8109000000000000000000000000000000000000000000000000000000008152905173ffffffffffffffffffffffffffffffffffffffff9092169163933aa667918391638b7c8109916004808201926020929091908290030181600087803b1580156134ff57600080fd5b505af1158015613513573d6000803e3d6000fd5b505050506040513d602081101561352957600080fd5b5051604080517c010000000000000000000000000000000000000000000000000000000063ffffffff85160281527fffffffff0000000000000000000000000000000000000000000000000000000090921660048301525160248083019260209291908290030181600087803b1580156135a257600080fd5b505af11580156135b6573d6000803e3d6000fd5b505050506040513d60208110156135cc57600080fd5b5051151561366157604080517f08c379a000000000000000000000000000000000000000000000000000000000815260206004820152602660248201527f4d696e74696e6720746f2043555344206e6f7420737570706f7274656420627960448201527f20746f6b656e0000000000000000000000000000000000000000000000000000606482015290519081900360840190fd5b600254604080517f8b7c8109000000000000000000000000000000000000000000000000000000008152905173ffffffffffffffffffffffffffffffffffffffff90921691635317e4449184918491638b7c81099160048083019260209291908290030181600087803b1580156136d757600080fd5b505af11580156136eb573d6000803e3d6000fd5b505050506040513d602081101561370157600080fd5b5051604080517c010000000000000000000000000000000000000000000000000000000063ffffffff861602815273ffffffffffffffffffffffffffffffffffffffff90931660048401527fffffffff00000000000000000000000000000000000000000000000000000000909116602483015251604480830192600092919082900301818387803b15801561379657600080fd5b505af11580156137aa573d6000803e3d6000fd5b50505050610e9781614bbe565b600061384382600260009054906101000a900473ffffffffffffffffffffffffffffffffffffffff1673ffffffffffffffffffffffffffffffffffffffff1663cfbf1b906040518163ffffffff167c0100000000000000000000000000000000000000000000000000000000028152600401602060405180830381600087803b15801561194e57600080fd5b15801561199057506138d582600260009054906101000a900473ffffffffffffffffffffffffffffffffffffffff1673ffffffffffffffffffffffffffffffffffffffff16639491951b6040518163ffffffff167c0100000000000000000000000000000000000000000000000000000000028152600401602060405180830381600087803b15801561194e57600080fd5b1592915050565b600061396882600260009054906101000a900473ffffffffffffffffffffffffffffffffffffffff1673ffffffffffffffffffffffffffffffffffffffff1663cfbf1b906040518163ffffffff167c0100000000000000000000000000000000000000000000000000000000028152600401602060405180830381600087803b15801561194e57600080fd5b158015611990575061199082600260009054906101000a900473ffffffffffffffffffffffffffffffffffffffff1673ffffffffffffffffffffffffffffffffffffffff16639491951b6040518163ffffffff167c0100000000000000000000000000000000000000000000000000000000028152600401602060405180830381600087803b15801561194e57600080fd5b600061199082600260009054906101000a900473ffffffffffffffffffffffffffffffffffffffff1673ffffffffffffffffffffffffffffffffffffffff166388f14b0e6040518163ffffffff167c0100000000000000000000000000000000000000000000000000000000028152600401602060405180830381600087803b15801561194e57600080fd5b6000903b1190565b600254604080517f639c44cf000000000000000000000000000000000000000000000000000000008152905173ffffffffffffffffffffffffffffffffffffffff9092169163933aa66791839163639c44cf916004808201926020929091908290030181600087803b158015613b0357600080fd5b505af1158015613b17573d6000803e3d6000fd5b505050506040513d6020811015613b2d57600080fd5b5051604080517c010000000000000000000000000000000000000000000000000000000063ffffffff85160281527fffffffff0000000000000000000000000000000000000000000000000000000090921660048301525160248083019260209291908290030181600087803b158015613ba657600080fd5b505af1158015613bba573d6000803e3d6000fd5b505050506040513d6020811015613bd057600080fd5b50511515613c6557604080517f08c379a000000000000000000000000000000000000000000000000000000000815260206004820152602960248201527f436f6e76657274696e6720746f2043555344206e6f7420737570706f7274656460448201527f20627920746f6b656e0000000000000000000000000000000000000000000000606482015290519081900360840190fd5b600254604080517f639c44cf000000000000000000000000000000000000000000000000000000008152905173ffffffffffffffffffffffffffffffffffffffff90921691635317e444918491849163639c44cf9160048083019260209291908290030181600087803b158015613cdb57600080fd5b505af1158015613cef573d6000803e3d6000fd5b505050506040513d6020811015613d0557600080fd5b5051604080517c010000000000000000000000000000000000000000000000000000000063ffffffff861602815273ffffffffffffffffffffffffffffffffffffffff90931660048401527fffffffff00000000000000000000000000000000000000000000000000000000909116602483015251604480830192600092919082900301818387803b158015613d9a57600080fd5b505af1158015613dae573d6000803e3d6000fd5b50505050610e9781614f00565b600254604080517f639c44cf000000000000000000000000000000000000000000000000000000008152905173ffffffffffffffffffffffffffffffffffffffff9092169163933aa66791839163639c44cf916004808201926020929091908290030181600087803b158015613e3057600080fd5b505af1158015613e44573d6000803e3d6000fd5b505050506040513d6020811015613e5a57600080fd5b5051604080517c010000000000000000000000000000000000000000000000000000000063ffffffff85160281527fffffffff0000000000000000000000000000000000000000000000000000000090921660048301525160248083019260209291908290030181600087803b158015613ed357600080fd5b505af1158015613ee7573d6000803e3d6000fd5b505050506040513d6020811015613efd57600080fd5b50511515613f9257604080517f08c379a000000000000000000000000000000000000000000000000000000000815260206004820152602960248201527f436f6e76657274696e6720746f2043555344206e6f7420737570706f7274656460448201527f20627920746f6b656e0000000000000000000000000000000000000000000000606482015290519081900360840190fd5b600254604080517f639c44cf000000000000000000000000000000000000000000000000000000008152905173ffffffffffffffffffffffffffffffffffffffff90921691635317e444918491849163639c44cf9160048083019260209291908290030181600087803b15801561400857600080fd5b505af115801561401c573d6000803e3d6000fd5b505050506040513d602081101561403257600080fd5b5051604080517c010000000000000000000000000000000000000000000000000000000063ffffffff861602815273ffffffffffffffffffffffffffffffffffffffff90931660048401527fffffffff00000000000000000000000000000000000000000000000000000000909116602483015251604480830192600092919082900301818387803b1580156140c757600080fd5b505af11580156140db573d6000803e3d6000fd5b50505050610e978161558c565b600061417482600260009054906101000a900473ffffffffffffffffffffffffffffffffffffffff1673ffffffffffffffffffffffffffffffffffffffff1663cfbf1b906040518163ffffffff167c0100000000000000000000000000000000000000000000000000000000028152600401602060405180830381600087803b15801561194e57600080fd5b801561199057506138d582600260009054906101000a900473ffffffffffffffffffffffffffffffffffffffff1673ffffffffffffffffffffffffffffffffffffffff16639491951b6040518163ffffffff167c0100000000000000000000000000000000000000000000000000000000028152600401602060405180830381600087803b15801561194e57600080fd5b600254604080517f8b7c8109000000000000000000000000000000000000000000000000000000008152905173ffffffffffffffffffffffffffffffffffffffff9092169163933aa667918391638b7c8109916004808201926020929091908290030181600087803b15801561427a57600080fd5b505af115801561428e573d6000803e3d6000fd5b505050506040513d60208110156142a457600080fd5b5051604080517c010000000000000000000000000000000000000000000000000000000063ffffffff85160281527fffffffff0000000000000000000000000000000000000000000000000000000090921660048301525160248083019260209291908290030181600087803b15801561431d57600080fd5b505af1158015614331573d6000803e3d6000fd5b505050506040513d602081101561434757600080fd5b505115156143dc57604080517f08c379a000000000000000000000000000000000000000000000000000000000815260206004820152602660248201527f4d696e74696e6720746f2043555344206e6f7420737570706f7274656420627960448201527f20746f6b656e0000000000000000000000000000000000000000000000000000606482015290519081900360840190fd5b600254604080517f8b7c8109000000000000000000000000000000000000000000000000000000008152905173ffffffffffffffffffffffffffffffffffffffff90921691631c870eee9184918491638b7c81099160048083019260209291908290030181600087803b15801561445257600080fd5b505af1158015614466573d6000803e3d6000fd5b505050506040513d602081101561447c57600080fd5b5051604080517c010000000000000000000000000000000000000000000000000000000063ffffffff861602815273ffffffffffffffffffffffffffffffffffffffff90931660048401527fffffffff00000000000000000000000000000000000000000000000000000000909116602483015251604480830192600092919082900301818387803b15801561451157600080fd5b505af1158015614525573d6000803e3d6000fd5b50505050610e9781615c18565b600254604080517fcfbf1b90000000000000000000000000000000000000000000000000000000008152905173ffffffffffffffffffffffffffffffffffffffff9092169163933aa66791839163cfbf1b90916004808201926020929091908290030181600087803b1580156145a757600080fd5b505af11580156145bb573d6000803e3d6000fd5b505050506040513d60208110156145d157600080fd5b5051604080517c010000000000000000000000000000000000000000000000000000000063ffffffff85160281527fffffffff0000000000000000000000000000000000000000000000000000000090921660048301525160248083019260209291908290030181600087803b15801561464a57600080fd5b505af115801561465e573d6000803e3d6000fd5b505050506040513d602081101561467457600080fd5b5051151561470957604080517f08c379a000000000000000000000000000000000000000000000000000000000815260206004820152602260248201527f4275726e206d6574686f64206e6f7420737570706f7274656420627920746f6b60448201527f656e000000000000000000000000000000000000000000000000000000000000606482015290519081900360840190fd5b600254604080517f9491951b000000000000000000000000000000000000000000000000000000008152905173ffffffffffffffffffffffffffffffffffffffff9092169163933aa667918391639491951b916004808201926020929091908290030181600087803b15801561477e57600080fd5b505af1158015614792573d6000803e3d6000fd5b505050506040513d60208110156147a857600080fd5b5051604080517c010000000000000000000000000000000000000000000000000000000063ffffffff85160281527fffffffff0000000000000000000000000000000000000000000000000000000090921660048301525160248083019260209291908290030181600087803b15801561482157600080fd5b505af1158015614835573d6000803e3d6000fd5b505050506040513d602081101561484b57600080fd5b505115156148e057604080517f08c379a000000000000000000000000000000000000000000000000000000000815260206004820152602b60248201527f53656c662d6465737472756374206d6574686f64206e6f7420737570706f727460448201527f656420627920746f6b656e000000000000000000000000000000000000000000606482015290519081900360840190fd5b600254604080517fcfbf1b90000000000000000000000000000000000000000000000000000000008152905173ffffffffffffffffffffffffffffffffffffffff90921691631c870eee918491849163cfbf1b909160048083019260209291908290030181600087803b15801561495657600080fd5b505af115801561496a573d6000803e3d6000fd5b505050506040513d602081101561498057600080fd5b5051604080517c010000000000000000000000000000000000000000000000000000000063ffffffff861602815273ffffffffffffffffffffffffffffffffffffffff90931660048401527fffffffff00000000000000000000000000000000000000000000000000000000909116602483015251604480830192600092919082900301818387803b158015614a1557600080fd5b505af1158015614a29573d6000803e3d6000fd5b5050600254604080517f9491951b000000000000000000000000000000000000000000000000000000008152905173ffffffffffffffffffffffffffffffffffffffff9092169350635317e444925084918491639491951b9160048083019260209291908290030181600087803b158015614aa357600080fd5b505af1158015614ab7573d6000803e3d6000fd5b505050506040513d6020811015614acd57600080fd5b5051604080517c010000000000000000000000000000000000000000000000000000000063ffffffff861602815273ffffffffffffffffffffffffffffffffffffffff90931660048401527fffffffff00000000000000000000000000000000000000000000000000000000909116602483015251604480830192600092919082900301818387803b158015614b6257600080fd5b505af1158015614b76573d6000803e3d6000fd5b505060405173ffffffffffffffffffffffffffffffffffffffff841692507f6b590ec768de031dd76382caebc58b5029c599845931fdcce18afc34fd15b1879150600090a250565b600254604080517f88f14b0e000000000000000000000000000000000000000000000000000000008152905173ffffffffffffffffffffffffffffffffffffffff9092169163933aa6679183916388f14b0e916004808201926020929091908290030181600087803b158015614c3357600080fd5b505af1158015614c47573d6000803e3d6000fd5b505050506040513d6020811015614c5d57600080fd5b5051604080517c010000000000000000000000000000000000000000000000000000000063ffffffff85160281527fffffffff0000000000000000000000000000000000000000000000000000000090921660048301525160248083019260209291908290030181600087803b158015614cd657600080fd5b505af1158015614cea573d6000803e3d6000fd5b505050506040513d6020811015614d0057600080fd5b50511515614d6f57604080517f08c379a000000000000000000000000000000000000000000000000000000000815260206004820152601e60248201527f4d696e74696e67206e6f7420737570706f7274656420627920746f6b656e0000604482015290519081900360640190fd5b600254604080517f88f14b0e000000000000000000000000000000000000000000000000000000008152905173ffffffffffffffffffffffffffffffffffffffff90921691635317e44491849184916388f14b0e9160048083019260209291908290030181600087803b158015614de557600080fd5b505af1158015614df9573d6000803e3d6000fd5b505050506040513d6020811015614e0f57600080fd5b5051604080517c010000000000000000000000000000000000000000000000000000000063ffffffff861602815273ffffffffffffffffffffffffffffffffffffffff90931660048401527fffffffff00000000000000000000000000000000000000000000000000000000909116602483015251604480830192600092919082900301818387803b158015614ea457600080fd5b505af1158015614eb8573d6000803e3d6000fd5b505060405173ffffffffffffffffffffffffffffffffffffffff841692507fcfee518972af5b17e262a5c3d62175cf1150cdad0423ac7d4e7f4ae1c0934df09150600090a250565b600254604080517fcfbf1b90000000000000000000000000000000000000000000000000000000008152905173ffffffffffffffffffffffffffffffffffffffff9092169163933aa66791839163cfbf1b90916004808201926020929091908290030181600087803b158015614f7557600080fd5b505af1158015614f89573d6000803e3d6000fd5b505050506040513d6020811015614f9f57600080fd5b5051604080517c010000000000000000000000000000000000000000000000000000000063ffffffff85160281527fffffffff0000000000000000000000000000000000000000000000000000000090921660048301525160248083019260209291908290030181600087803b15801561501857600080fd5b505af115801561502c573d6000803e3d6000fd5b505050506040513d602081101561504257600080fd5b505115156150d757604080517f08c379a000000000000000000000000000000000000000000000000000000000815260206004820152602260248201527f4275726e206d6574686f64206e6f7420737570706f7274656420627920746f6b60448201527f656e000000000000000000000000000000000000000000000000000000000000606482015290519081900360840190fd5b600254604080517f9491951b000000000000000000000000000000000000000000000000000000008152905173ffffffffffffffffffffffffffffffffffffffff9092169163933aa667918391639491951b916004808201926020929091908290030181600087803b15801561514c57600080fd5b505af1158015615160573d6000803e3d6000fd5b505050506040513d602081101561517657600080fd5b5051604080517c010000000000000000000000000000000000000000000000000000000063ffffffff85160281527fffffffff0000000000000000000000000000000000000000000000000000000090921660048301525160248083019260209291908290030181600087803b1580156151ef57600080fd5b505af1158015615203573d6000803e3d6000fd5b505050506040513d602081101561521957600080fd5b505115156152ae57604080517f08c379a000000000000000000000000000000000000000000000000000000000815260206004820152602b60248201527f53656c662d6465737472756374206d6574686f64206e6f7420737570706f727460448201527f656420627920746f6b656e000000000000000000000000000000000000000000606482015290519081900360840190fd5b600254604080517fcfbf1b90000000000000000000000000000000000000000000000000000000008152905173ffffffffffffffffffffffffffffffffffffffff90921691635317e444918491849163cfbf1b909160048083019260209291908290030181600087803b15801561532457600080fd5b505af1158015615338573d6000803e3d6000fd5b505050506040513d602081101561534e57600080fd5b5051604080517c010000000000000000000000000000000000000000000000000000000063ffffffff861602815273ffffffffffffffffffffffffffffffffffffffff90931660048401527fffffffff00000000000000000000000000000000000000000000000000000000909116602483015251604480830192600092919082900301818387803b1580156153e357600080fd5b505af11580156153f7573d6000803e3d6000fd5b5050600254604080517f9491951b000000000000000000000000000000000000000000000000000000008152905173ffffffffffffffffffffffffffffffffffffffff9092169350631c870eee925084918491639491951b9160048083019260209291908290030181600087803b15801561547157600080fd5b505af1158015615485573d6000803e3d6000fd5b505050506040513d602081101561549b57600080fd5b5051604080517c010000000000000000000000000000000000000000000000000000000063ffffffff861602815273ffffffffffffffffffffffffffffffffffffffff90931660048401527fffffffff00000000000000000000000000000000000000000000000000000000909116602483015251604480830192600092919082900301818387803b15801561553057600080fd5b505af1158015615544573d6000803e3d6000fd5b505060405173ffffffffffffffffffffffffffffffffffffffff841692507fe188e80e8d523dc5ac6bbae932c30011688c5a4269bd1d97fb3493e5705645999150600090a250565b600254604080517fcfbf1b90000000000000000000000000000000000000000000000000000000008152905173ffffffffffffffffffffffffffffffffffffffff9092169163933aa66791839163cfbf1b90916004808201926020929091908290030181600087803b15801561560157600080fd5b505af1158015615615573d6000803e3d6000fd5b505050506040513d602081101561562b57600080fd5b5051604080517c010000000000000000000000000000000000000000000000000000000063ffffffff85160281527fffffffff0000000000000000000000000000000000000000000000000000000090921660048301525160248083019260209291908290030181600087803b1580156156a457600080fd5b505af11580156156b8573d6000803e3d6000fd5b505050506040513d60208110156156ce57600080fd5b5051151561576357604080517f08c379a000000000000000000000000000000000000000000000000000000000815260206004820152602260248201527f4275726e206d6574686f64206e6f7420737570706f7274656420627920746f6b60448201527f656e000000000000000000000000000000000000000000000000000000000000606482015290519081900360840190fd5b600254604080517f9491951b000000000000000000000000000000000000000000000000000000008152905173ffffffffffffffffffffffffffffffffffffffff9092169163933aa667918391639491951b916004808201926020929091908290030181600087803b1580156157d857600080fd5b505af11580156157ec573d6000803e3d6000fd5b505050506040513d602081101561580257600080fd5b5051604080517c010000000000000000000000000000000000000000000000000000000063ffffffff85160281527fffffffff0000000000000000000000000000000000000000000000000000000090921660048301525160248083019260209291908290030181600087803b15801561587b57600080fd5b505af115801561588f573d6000803e3d6000fd5b505050506040513d60208110156158a557600080fd5b5051151561593a57604080517f08c379a000000000000000000000000000000000000000000000000000000000815260206004820152602b60248201527f53656c662d6465737472756374206d6574686f64206e6f7420737570706f727460448201527f656420627920746f6b656e000000000000000000000000000000000000000000606482015290519081900360840190fd5b600254604080517fcfbf1b90000000000000000000000000000000000000000000000000000000008152905173ffffffffffffffffffffffffffffffffffffffff90921691635317e444918491849163cfbf1b909160048083019260209291908290030181600087803b1580156159b057600080fd5b505af11580156159c4573d6000803e3d6000fd5b505050506040513d60208110156159da57600080fd5b5051604080517c010000000000000000000000000000000000000000000000000000000063ffffffff861602815273ffffffffffffffffffffffffffffffffffffffff90931660048401527fffffffff00000000000000000000000000000000000000000000000000000000909116602483015251604480830192600092919082900301818387803b158015615a6f57600080fd5b505af1158015615a83573d6000803e3d6000fd5b5050600254604080517f9491951b000000000000000000000000000000000000000000000000000000008152905173ffffffffffffffffffffffffffffffffffffffff9092169350635317e444925084918491639491951b9160048083019260209291908290030181600087803b158015615afd57600080fd5b505af1158015615b11573d6000803e3d6000fd5b505050506040513d6020811015615b2757600080fd5b5051604080517c010000000000000000000000000000000000000000000000000000000063ffffffff861602815273ffffffffffffffffffffffffffffffffffffffff90931660048401527fffffffff00000000000000000000000000000000000000000000000000000000909116602483015251604480830192600092919082900301818387803b158015615bbc57600080fd5b505af1158015615bd0573d6000803e3d6000fd5b505060405173ffffffffffffffffffffffffffffffffffffffff841692507f49f6559c19d7cf5ee40d0715f3e79859ac083e76d8fbb79267a3a7dca5e463d09150600090a250565b600254604080517f88f14b0e000000000000000000000000000000000000000000000000000000008152905173ffffffffffffffffffffffffffffffffffffffff9092169163933aa6679183916388f14b0e916004808201926020929091908290030181600087803b158015615c8d57600080fd5b505af1158015615ca1573d6000803e3d6000fd5b505050506040513d6020811015615cb757600080fd5b5051604080517c010000000000000000000000000000000000000000000000000000000063ffffffff85160281527fffffffff0000000000000000000000000000000000000000000000000000000090921660048301525160248083019260209291908290030181600087803b158015615d3057600080fd5b505af1158015615d44573d6000803e3d6000fd5b505050506040513d6020811015615d5a57600080fd5b50511515615dc957604080517f08c379a000000000000000000000000000000000000000000000000000000000815260206004820152601e60248201527f4d696e74696e67206e6f7420737570706f7274656420627920746f6b656e0000604482015290519081900360640190fd5b600254604080517f88f14b0e000000000000000000000000000000000000000000000000000000008152905173ffffffffffffffffffffffffffffffffffffffff90921691631c870eee91849184916388f14b0e9160048083019260209291908290030181600087803b158015615e3f57600080fd5b505af1158015615e53573d6000803e3d6000fd5b505050506040513d6020811015615e6957600080fd5b5051604080517c010000000000000000000000000000000000000000000000000000000063ffffffff861602815273ffffffffffffffffffffffffffffffffffffffff90931660048401527fffffffff00000000000000000000000000000000000000000000000000000000909116602483015251604480830192600092919082900301818387803b158015615efe57600080fd5b505af1158015615f12573d6000803e3d6000fd5b505060405173ffffffffffffffffffffffffffffffffffffffff841692507f5e0c8c15134773cb6fe4d2cc6f9e5683049cc6277f742e2a7e0e89a2d3d1e4089150600090a2505600a165627a7a72305820984f421d99a29e6a34207964a8732dfc38e3cbd5cdc0a24b28e5c3c2350c8c310029",
  "source": "pragma solidity ^0.4.24;\r\n\r\nimport \"../Regulator.sol\";\r\n\r\n/**\r\n * @title WhitelistedTokenRegulator\r\n * @dev WhitelistedTokenRegulator is a type of Regulator that modifies its definitions of\r\n * what constitutes a \"whitelisted/nonlisted/blacklisted\" user. A WhitelistedToken\r\n * provides a user the additional ability to convert from a whtielisted stablecoin into the\r\n * meta-token CUSD, or mint CUSD directly through a specific WT.\r\n *\r\n */\r\ncontract WhitelistedTokenRegulator is Regulator {\r\n    /**\r\n    * @notice CONSTRUCTOR\r\n    * @param _permissionSheetAddress initial permission sheet\r\n    * @param _validatorSheetAddress initial validator sheet\r\n    **/\r\n    constructor(address _permissionSheetAddress, address _validatorSheetAddress) public Regulator(_permissionSheetAddress, _validatorSheetAddress) {}\r\n\r\n    function isMinter(address _who) public view returns (bool) {\r\n        return (super.isMinter(_who) && hasUserPermission(_who, permissions.MINT_CUSD_SIG()));\r\n    }\r\n\r\n    // Getters\r\n\r\n    function isWhitelistedUser(address _who) public view returns (bool) {\r\n        return (hasUserPermission(_who, permissions.CONVERT_WT_SIG()) && super.isWhitelistedUser(_who));\r\n    }\r\n\r\n    function isBlacklistedUser(address _who) public view returns (bool) {\r\n        return (!hasUserPermission(_who, permissions.CONVERT_WT_SIG()) && super.isBlacklistedUser(_who));\r\n    }\r\n\r\n    function isNonlistedUser(address _who) public view returns (bool) {\r\n        return (!hasUserPermission(_who, permissions.CONVERT_WT_SIG()) && super.isNonlistedUser(_who));\r\n    }   \r\n\r\n    /** Internal functions **/\r\n\r\n    // A WT minter should have option to either mint directly into CUSD via mintCUSD(), or\r\n    // mint the WT via an ordinary mint() \r\n    function _setMinter(address _who) internal {\r\n        require(permissions.isPermission(permissions.MINT_CUSD_SIG()), \"Minting to CUSD not supported by token\");\r\n        permissions.setUserPermission(_who, permissions.MINT_CUSD_SIG());\r\n        super._setMinter(_who);\r\n    }\r\n\r\n    function _removeMinter(address _who) internal {\r\n        require(permissions.isPermission(permissions.MINT_CUSD_SIG()), \"Minting to CUSD not supported by token\");\r\n        permissions.removeUserPermission(_who, permissions.MINT_CUSD_SIG());\r\n        super._removeMinter(_who);\r\n    }\r\n\r\n    // Setters\r\n\r\n    // A WT whitelisted user should gain ability to convert their WT into CUSD. They can also burn their WT, as a\r\n    // PermissionedToken whitelisted user can do\r\n    function _setWhitelistedUser(address _who) internal {\r\n        require(permissions.isPermission(permissions.CONVERT_WT_SIG()), \"Converting to CUSD not supported by token\");\r\n        permissions.setUserPermission(_who, permissions.CONVERT_WT_SIG());\r\n        super._setWhitelistedUser(_who);\r\n    }\r\n\r\n    function _setBlacklistedUser(address _who) internal {\r\n        require(permissions.isPermission(permissions.CONVERT_WT_SIG()), \"Converting to CUSD not supported by token\");\r\n        permissions.removeUserPermission(_who, permissions.CONVERT_WT_SIG());\r\n        super._setBlacklistedUser(_who);\r\n    }\r\n\r\n    function _setNonlistedUser(address _who) internal {\r\n        require(permissions.isPermission(permissions.CONVERT_WT_SIG()), \"Converting to CUSD not supported by token\");\r\n        permissions.removeUserPermission(_who, permissions.CONVERT_WT_SIG());\r\n        super._setNonlistedUser(_who);\r\n    }\r\n\r\n}",
  "sourcePath": "C:\\Users\\npain\\Projects\\Carbon\\fiat_gateway\\contracts\\regulator\\whitelistedRegulator\\WhitelistedTokenRegulator.sol",
  "compiler": {
    "name": "solc",
    "version": "0.4.24+commit.e67f0147.Emscripten.clang"
  },
  "schemaVersion": "2.0.1",
  "updatedAt": "2018-08-18T21:31:06.841Z"
}