{
  "contractName": "WhitelistedTokenProxy",
  "abi": [
    {
      "constant": true,
      "inputs": [],
      "name": "allowances",
      "outputs": [
        {
          "name": "",
          "type": "address"
        }
      ],
      "payable": false,
      "stateMutability": "view",
      "type": "function"
    },
    {
      "constant": true,
      "inputs": [],
      "name": "cusdAddress",
      "outputs": [
        {
          "name": "",
          "type": "address"
        }
      ],
      "payable": false,
      "stateMutability": "view",
      "type": "function"
    },
    {
      "constant": false,
      "inputs": [],
      "name": "renounceOwnership",
      "outputs": [],
      "payable": false,
      "stateMutability": "nonpayable",
      "type": "function"
    },
    {
      "constant": false,
      "inputs": [
        {
          "name": "_newStorageAddress",
          "type": "address"
        }
      ],
      "name": "setBalanceStorage",
      "outputs": [],
      "payable": false,
      "stateMutability": "nonpayable",
      "type": "function"
    },
    {
      "constant": true,
      "inputs": [],
      "name": "balances",
      "outputs": [
        {
          "name": "",
          "type": "address"
        }
      ],
      "payable": false,
      "stateMutability": "view",
      "type": "function"
    },
    {
      "constant": false,
      "inputs": [],
      "name": "claimBalanceOwnership",
      "outputs": [],
      "payable": false,
      "stateMutability": "nonpayable",
      "type": "function"
    },
    {
      "constant": true,
      "inputs": [],
      "name": "owner",
      "outputs": [
        {
          "name": "",
          "type": "address"
        }
      ],
      "payable": false,
      "stateMutability": "view",
      "type": "function"
    },
    {
      "constant": false,
      "inputs": [],
      "name": "claimAllowanceOwnership",
      "outputs": [],
      "payable": false,
      "stateMutability": "nonpayable",
      "type": "function"
    },
    {
      "constant": false,
      "inputs": [
        {
          "name": "_cusd",
          "type": "address"
        }
      ],
      "name": "setCUSDAddress",
      "outputs": [],
      "payable": false,
      "stateMutability": "nonpayable",
      "type": "function"
    },
    {
      "constant": false,
      "inputs": [
        {
          "name": "_newStorageAddress",
          "type": "address"
        }
      ],
      "name": "setAllowanceStorage",
      "outputs": [],
      "payable": false,
      "stateMutability": "nonpayable",
      "type": "function"
    },
    {
      "constant": false,
      "inputs": [
        {
          "name": "_newStorageAddress",
          "type": "address"
        }
      ],
      "name": "setRegulator",
      "outputs": [],
      "payable": false,
      "stateMutability": "nonpayable",
      "type": "function"
    },
    {
      "constant": true,
      "inputs": [],
      "name": "regulator",
      "outputs": [
        {
          "name": "",
          "type": "address"
        }
      ],
      "payable": false,
      "stateMutability": "view",
      "type": "function"
    },
    {
      "constant": false,
      "inputs": [
        {
          "name": "_newOwner",
          "type": "address"
        }
      ],
      "name": "transferOwnership",
      "outputs": [],
      "payable": false,
      "stateMutability": "nonpayable",
      "type": "function"
    },
    {
      "inputs": [
        {
          "name": "i",
          "type": "address"
        },
        {
          "name": "r",
          "type": "address"
        },
        {
          "name": "b",
          "type": "address"
        },
        {
          "name": "a",
          "type": "address"
        },
        {
          "name": "cusd",
          "type": "address"
        }
      ],
      "payable": false,
      "stateMutability": "nonpayable",
      "type": "constructor"
    },
    {
      "payable": true,
      "stateMutability": "payable",
      "type": "fallback"
    },
    {
      "anonymous": false,
      "inputs": [
        {
          "indexed": false,
          "name": "_old",
          "type": "address"
        },
        {
          "indexed": false,
          "name": "_new",
          "type": "address"
        }
      ],
      "name": "ChangedRegulator",
      "type": "event"
    },
    {
      "anonymous": false,
      "inputs": [
        {
          "indexed": false,
          "name": "_old",
          "type": "address"
        },
        {
          "indexed": false,
          "name": "_new",
          "type": "address"
        }
      ],
      "name": "ChangedBalanceStorage",
      "type": "event"
    },
    {
      "anonymous": false,
      "inputs": [
        {
          "indexed": false,
          "name": "_old",
          "type": "address"
        },
        {
          "indexed": false,
          "name": "_new",
          "type": "address"
        }
      ],
      "name": "ChangedAllowanceStorage",
      "type": "event"
    },
    {
      "anonymous": false,
      "inputs": [
        {
          "indexed": true,
          "name": "oldCUSD",
          "type": "address"
        },
        {
          "indexed": true,
          "name": "newCUSD",
          "type": "address"
        }
      ],
      "name": "CUSDAddressChanged",
      "type": "event"
    },
    {
      "anonymous": false,
      "inputs": [
        {
          "indexed": true,
          "name": "previousOwner",
          "type": "address"
        }
      ],
      "name": "OwnershipRenounced",
      "type": "event"
    },
    {
      "anonymous": false,
      "inputs": [
        {
          "indexed": true,
          "name": "previousOwner",
          "type": "address"
        },
        {
          "indexed": true,
          "name": "newOwner",
          "type": "address"
        }
      ],
      "name": "OwnershipTransferred",
      "type": "event"
    },
    {
      "anonymous": false,
      "inputs": [
        {
          "indexed": false,
          "name": "implementation",
          "type": "address"
        }
      ],
      "name": "Upgraded",
      "type": "event"
    },
    {
      "constant": false,
      "inputs": [
        {
          "name": "newImplementation",
          "type": "address"
        }
      ],
      "name": "upgradeTo",
      "outputs": [],
      "payable": false,
      "stateMutability": "nonpayable",
      "type": "function"
    },
    {
      "constant": true,
      "inputs": [],
      "name": "implementation",
      "outputs": [
        {
          "name": "",
          "type": "address"
        }
      ],
      "payable": false,
      "stateMutability": "view",
      "type": "function"
    }
  ],
  "bytecode": "0x608060405234801561001057600080fd5b5060405160a08061111a83398101604081815282516020808501518386015160608701516080909701517f6f72672e7a657070656c696e6f732e70726f78792e696d706c656d656e74617487527f696f6e000000000000000000000000000000000000000000000000000000000093870193909352935194859003602301909420919491849084908490839083908390879081908d906000805160206110fa833981519152146100bc57fe5b6100ce81640100000000610133810204565b506000805433600160a060020a031991821617909155600180548216600160a060020a03938416179055600280548216968316969096179095556003805486169482169490941790935550600480549093169116179055506101f99650505050505050565b600061014b82640100000000610bd16101f182021704565b15156101de57604080517f08c379a000000000000000000000000000000000000000000000000000000000815260206004820152603b60248201527f43616e6e6f742073657420612070726f787920696d706c656d656e746174696f60448201527f6e20746f2061206e6f6e2d636f6e747261637420616464726573730000000000606482015290519081900360840190fd5b506000805160206110fa83398151915255565b6000903b1190565b610ef2806102086000396000f3006080604052600436106100da5763ffffffff7c01000000000000000000000000000000000000000000000000000000006000350416633659cfe681146100e45780633ed10b92146101125780635c60da1b14610150578063636f0cf814610165578063715018a61461017a57806373e9e0e51461018f5780637bb98a68146101bd5780638955ed7e146101d25780638da5cb5b146101e75780639b2bdc20146101fc578063a00d774014610211578063c52dd6441461023f578063cde0a4f81461026d578063dd8fee141461029b578063f2fde38b146102b0575b6100e26102de565b005b3480156100f057600080fd5b506100e273ffffffffffffffffffffffffffffffffffffffff600435166102f8565b34801561011e57600080fd5b50610127610328565b6040805173ffffffffffffffffffffffffffffffffffffffff9092168252519081900360200190f35b34801561015c57600080fd5b50610127610344565b34801561017157600080fd5b50610127610353565b34801561018657600080fd5b506100e261036f565b34801561019b57600080fd5b506100e273ffffffffffffffffffffffffffffffffffffffff60043516610400565b3480156101c957600080fd5b506101276105d4565b3480156101de57600080fd5b506100e26105f0565b3480156101f357600080fd5b50610127610690565b34801561020857600080fd5b506100e26106ac565b34801561021d57600080fd5b506100e273ffffffffffffffffffffffffffffffffffffffff60043516610715565b34801561024b57600080fd5b506100e273ffffffffffffffffffffffffffffffffffffffff60043516610742565b34801561027957600080fd5b506100e273ffffffffffffffffffffffffffffffffffffffff60043516610916565b3480156102a757600080fd5b50610127610aea565b3480156102bc57600080fd5b506100e273ffffffffffffffffffffffffffffffffffffffff60043516610b06565b6102e66102f6565b6102f66102f1610b33565b610b58565b565b60005473ffffffffffffffffffffffffffffffffffffffff16331461031c57600080fd5b61032581610b7c565b50565b60045473ffffffffffffffffffffffffffffffffffffffff1681565b600061034e610b33565b905090565b60015473ffffffffffffffffffffffffffffffffffffffff1681565b60005473ffffffffffffffffffffffffffffffffffffffff16331461039357600080fd5b6000805460405173ffffffffffffffffffffffffffffffffffffffff909116917ff8df31144d9c2f0f6b59d69b8b98abd5459d07f2742c4df920b25aae33c6482091a2600080547fffffffffffffffffffffffff0000000000000000000000000000000000000000169055565b6000805473ffffffffffffffffffffffffffffffffffffffff16331461042557600080fd5b60035473ffffffffffffffffffffffffffffffffffffffff838116911614156104af57604080517f08c379a000000000000000000000000000000000000000000000000000000000815260206004820152601b60248201527f4d7573742062652061206e65772062616c616e63652073686565740000000000604482015290519081900360640190fd5b6104b882610bd1565b151561054b57604080517f08c379a000000000000000000000000000000000000000000000000000000000815260206004820152603860248201527f43616e6e6f7420736574206120726567756c61746f722073746f72616765207460448201527f6f2061206e6f6e2d636f6e747261637420616464726573730000000000000000606482015290519081900360840190fd5b506003805473ffffffffffffffffffffffffffffffffffffffff8381167fffffffffffffffffffffffff0000000000000000000000000000000000000000831681179093556040805191909216808252602082019390935281517f8c3d37b41e983f0d5b0b91de3f9d5055c73a17beebc7adfce9b677ab7c07ad2d929181900390910190a15050565b60035473ffffffffffffffffffffffffffffffffffffffff1681565b600360009054906101000a900473ffffffffffffffffffffffffffffffffffffffff1673ffffffffffffffffffffffffffffffffffffffff16634e71e0c86040518163ffffffff167c0100000000000000000000000000000000000000000000000000000000028152600401600060405180830381600087803b15801561067657600080fd5b505af115801561068a573d6000803e3d6000fd5b50505050565b60005473ffffffffffffffffffffffffffffffffffffffff1681565b60048054604080517f4e71e0c8000000000000000000000000000000000000000000000000000000008152905173ffffffffffffffffffffffffffffffffffffffff90921692634e71e0c892828201926000929082900301818387803b15801561067657600080fd5b60005473ffffffffffffffffffffffffffffffffffffffff16331461073957600080fd5b61032581610bd9565b6000805473ffffffffffffffffffffffffffffffffffffffff16331461076757600080fd5b60045473ffffffffffffffffffffffffffffffffffffffff838116911614156107f157604080517f08c379a000000000000000000000000000000000000000000000000000000000815260206004820152601b60248201527f4d7573742062652061206e65772073746f726167652073686565740000000000604482015290519081900360640190fd5b6107fa82610bd1565b151561088d57604080517f08c379a000000000000000000000000000000000000000000000000000000000815260206004820152603860248201527f43616e6e6f7420736574206120726567756c61746f722073746f72616765207460448201527f6f2061206e6f6e2d636f6e747261637420616464726573730000000000000000606482015290519081900360840190fd5b506004805473ffffffffffffffffffffffffffffffffffffffff8381167fffffffffffffffffffffffff0000000000000000000000000000000000000000831681179093556040805191909216808252602082019390935281517fec358425c40511d576e1c52be7593403bceacda627234c873b52589fef7b2359929181900390910190a15050565b6000805473ffffffffffffffffffffffffffffffffffffffff16331461093b57600080fd5b60025473ffffffffffffffffffffffffffffffffffffffff838116911614156109c557604080517f08c379a000000000000000000000000000000000000000000000000000000000815260206004820152601760248201527f4d7573742062652061206e657720726567756c61746f72000000000000000000604482015290519081900360640190fd5b6109ce82610bd1565b1515610a6157604080517f08c379a000000000000000000000000000000000000000000000000000000000815260206004820152603860248201527f43616e6e6f7420736574206120726567756c61746f722073746f72616765207460448201527f6f2061206e6f6e2d636f6e747261637420616464726573730000000000000000606482015290519081900360840190fd5b506002805473ffffffffffffffffffffffffffffffffffffffff8381167fffffffffffffffffffffffff0000000000000000000000000000000000000000831681179093556040805191909216808252602082019390935281517f4a59b4b607c6055b37a4716d7813d7d4d2c288e4d0dd8298e365b260a1f262e8929181900390910190a15050565b60025473ffffffffffffffffffffffffffffffffffffffff1681565b60005473ffffffffffffffffffffffffffffffffffffffff163314610b2a57600080fd5b61032581610d54565b7f7050c9e0f4ca769c69bd3a8ef740bc37934f8e2c036e5a723fd8ee048ed3f8c35490565b3660008037600080366000845af43d6000803e808015610b77573d6000f35b3d6000fd5b610b8581610e03565b6040805173ffffffffffffffffffffffffffffffffffffffff8316815290517fbc7cd75a20ee27fd9adebab32041f755214dbc6bffa90cc0225b39da2e5c2d3b9181900360200190a150565b6000903b1190565b60015460009073ffffffffffffffffffffffffffffffffffffffff83811691161415610c6657604080517f08c379a000000000000000000000000000000000000000000000000000000000815260206004820152601a60248201527f4d7573742062652061206e657720637573642061646472657373000000000000604482015290519081900360640190fd5b610c6f82610bd1565b1515610cdc57604080517f08c379a000000000000000000000000000000000000000000000000000000000815260206004820152601a60248201527f4d75737420626520616e2061637475616c20636f6e7472616374000000000000604482015290519081900360640190fd5b506001805473ffffffffffffffffffffffffffffffffffffffff8381167fffffffffffffffffffffffff0000000000000000000000000000000000000000831681179093556040519116919082907f0ec1b8e8ba02bcff9ae905a36374bb7e8f3bbd8ac86b05d99e881092f538a0aa90600090a35050565b73ffffffffffffffffffffffffffffffffffffffff81161515610d7657600080fd5b6000805460405173ffffffffffffffffffffffffffffffffffffffff808516939216917f8be0079c531659141344cd1fd0a4f28419497f9722a3daafe3b4186f6b6457e091a3600080547fffffffffffffffffffffffff00000000000000000000000000000000000000001673ffffffffffffffffffffffffffffffffffffffff92909216919091179055565b6000610e0e82610bd1565b1515610ea157604080517f08c379a000000000000000000000000000000000000000000000000000000000815260206004820152603b60248201527f43616e6e6f742073657420612070726f787920696d706c656d656e746174696f60448201527f6e20746f2061206e6f6e2d636f6e747261637420616464726573730000000000606482015290519081900360840190fd5b507f7050c9e0f4ca769c69bd3a8ef740bc37934f8e2c036e5a723fd8ee048ed3f8c3555600a165627a7a7230582051fdf5d2a4ed47e17ae287d582162228655a7129bf92693bbae02dd91a996d3500297050c9e0f4ca769c69bd3a8ef740bc37934f8e2c036e5a723fd8ee048ed3f8c3",
  "source": "pragma solidity ^0.4.24;\r\n\r\nimport \"./dataStorage/MutableWhitelistedTokenStorage.sol\";\r\nimport \"../permissionedToken/dataStorage/MutablePermissionedTokenStorage.sol\";\r\nimport \"../permissionedToken/PermissionedTokenProxy.sol\";\r\n\r\n/**\r\n* @title WhitelistedTokenProxy\r\n* @notice This contract IS a WhitelistedToken. All calls to the WhitelistedToken contract will\r\n* be routed through this proxy, since this proxy contract is the owner of the\r\n* storage contracts.\r\n*/\r\ncontract WhitelistedTokenProxy is UpgradeabilityProxy, Ownable, MutableWhitelistedTokenStorage, MutablePermissionedTokenStorage {\r\n    constructor(address i, address r, address b, address a, address cusd) \r\n    UpgradeabilityProxy(i)\r\n    MutableWhitelistedTokenStorage(cusd)\r\n    MutablePermissionedTokenStorage(r, b, a) public {}\r\n\r\n    /**\r\n    * @dev Upgrade the backing implementation of the proxy.\r\n    * Only the admin can call this function.\r\n    * @param newImplementation Address of the new implementation.\r\n    */\r\n    function upgradeTo(address newImplementation) public onlyOwner {\r\n        _upgradeTo(newImplementation);\r\n\r\n    }\r\n\r\n    /**\r\n    * @return The address of the implementation.\r\n    */\r\n    function implementation() public view returns (address) {\r\n        return _implementation();\r\n    }\r\n}",
  "sourcePath": "C:\\Users\\npain\\Projects\\Carbon\\fiat_gateway\\contracts\\tokens\\whitelistedToken\\WhitelistedTokenProxy.sol",
  "compiler": {
    "name": "solc",
    "version": "0.4.24+commit.e67f0147.Emscripten.clang"
  },
  "schemaVersion": "2.0.1",
  "updatedAt": "2018-08-17T19:47:36.318Z"
}