{
  "contractName": "WhitelistedTokenStorage",
  "abi": [
    {
      "constant": true,
      "inputs": [],
      "name": "cusdAddress",
      "outputs": [
        {
          "name": "",
          "type": "address"
        }
      ],
      "payable": false,
      "stateMutability": "view",
      "type": "function"
    },
    {
      "inputs": [
        {
          "name": "_cusdAddress",
          "type": "address"
        }
      ],
      "payable": false,
      "stateMutability": "nonpayable",
      "type": "constructor"
    }
  ],
  "bytecode": "0x608060405234801561001057600080fd5b50604051602080610117833981016040525160008054600160a060020a03909216600160a060020a031990921691909117905560c6806100516000396000f300608060405260043610603e5763ffffffff7c0100000000000000000000000000000000000000000000000000000000600035041663636f0cf881146043575b600080fd5b348015604e57600080fd5b506055607e565b6040805173ffffffffffffffffffffffffffffffffffffffff9092168252519081900360200190f35b60005473ffffffffffffffffffffffffffffffffffffffff16815600a165627a7a72305820a95d234d52dae7ceb7922f142b14df1edeeec5f23ae3a7cf6cb083da9ab2dfe50029",
  "source": "pragma solidity ^0.4.24;\r\n\r\n/**\r\n* @title WhitelistedTokenStorage\r\n* @notice Contains necessary storage contracts for WhitelistedToken.\r\n*/\r\ncontract WhitelistedTokenStorage{\r\n    /**\r\n        Storage\r\n    */\r\n    address public cusdAddress;\r\n\r\n    /**\r\n    * @dev a WhitelistedTokenStorage can set its storages only once, on construction\r\n    *\r\n    **/\r\n    constructor (address _cusdAddress) public {\r\n        cusdAddress = _cusdAddress;\r\n    }\r\n}",
  "sourcePath": "C:\\Users\\npain\\Projects\\Carbon\\fiat_gateway\\contracts\\tokens\\whitelistedToken\\dataStorage\\WhitelistedTokenStorage.sol",
  "compiler": {
    "name": "solc",
    "version": "0.4.24+commit.e67f0147.Emscripten.clang"
  },
  "schemaVersion": "2.0.1",
  "updatedAt": "2018-08-18T15:48:20.696Z"
}